{
  "_format": "hh-sol-artifact-1",
  "contractName": "SMARTIdentityRegistryStorage",
  "sourceName": "smart-protocol/contracts/SMARTIdentityRegistryStorage.sol",
  "abi": [
    {
      "inputs": [
        {
          "internalType": "address",
          "name": "trustedForwarder",
          "type": "address"
        }
      ],
      "stateMutability": "nonpayable",
      "type": "constructor"
    },
    {
      "inputs": [],
      "name": "AccessControlBadConfirmation",
      "type": "error"
    },
    {
      "inputs": [
        {
          "internalType": "address",
          "name": "account",
          "type": "address"
        },
        {
          "internalType": "bytes32",
          "name": "neededRole",
          "type": "bytes32"
        }
      ],
      "name": "AccessControlUnauthorizedAccount",
      "type": "error"
    },
    {
      "inputs": [
        {
          "internalType": "address",
          "name": "target",
          "type": "address"
        }
      ],
      "name": "AddressEmptyCode",
      "type": "error"
    },
    {
      "inputs": [
        {
          "internalType": "address",
          "name": "implementation",
          "type": "address"
        }
      ],
      "name": "ERC1967InvalidImplementation",
      "type": "error"
    },
    {
      "inputs": [],
      "name": "ERC1967NonPayable",
      "type": "error"
    },
    {
      "inputs": [],
      "name": "FailedCall",
      "type": "error"
    },
    {
      "inputs": [
        {
          "internalType": "address",
          "name": "userAddress",
          "type": "address"
        }
      ],
      "name": "IdentityAlreadyExists",
      "type": "error"
    },
    {
      "inputs": [
        {
          "internalType": "address",
          "name": "userAddress",
          "type": "address"
        }
      ],
      "name": "IdentityDoesNotExist",
      "type": "error"
    },
    {
      "inputs": [
        {
          "internalType": "address",
          "name": "registryAddress",
          "type": "address"
        }
      ],
      "name": "IdentityRegistryAlreadyBound",
      "type": "error"
    },
    {
      "inputs": [
        {
          "internalType": "address",
          "name": "registryAddress",
          "type": "address"
        }
      ],
      "name": "IdentityRegistryNotBound",
      "type": "error"
    },
    {
      "inputs": [],
      "name": "InvalidIdentityAddress",
      "type": "error"
    },
    {
      "inputs": [],
      "name": "InvalidIdentityRegistryAddress",
      "type": "error"
    },
    {
      "inputs": [],
      "name": "InvalidIdentityWalletAddress",
      "type": "error"
    },
    {
      "inputs": [],
      "name": "InvalidInitialization",
      "type": "error"
    },
    {
      "inputs": [],
      "name": "NotInitializing",
      "type": "error"
    },
    {
      "inputs": [],
      "name": "UUPSUnauthorizedCallContext",
      "type": "error"
    },
    {
      "inputs": [
        {
          "internalType": "bytes32",
          "name": "slot",
          "type": "bytes32"
        }
      ],
      "name": "UUPSUnsupportedProxiableUUID",
      "type": "error"
    },
    {
      "anonymous": false,
      "inputs": [
        {
          "indexed": true,
          "internalType": "address",
          "name": "_identityWallet",
          "type": "address"
        },
        {
          "indexed": false,
          "internalType": "uint16",
          "name": "_country",
          "type": "uint16"
        }
      ],
      "name": "CountryModified",
      "type": "event"
    },
    {
      "anonymous": false,
      "inputs": [
        {
          "indexed": true,
          "internalType": "contract IIdentity",
          "name": "_oldIdentity",
          "type": "address"
        },
        {
          "indexed": true,
          "internalType": "contract IIdentity",
          "name": "_newIdentity",
          "type": "address"
        }
      ],
      "name": "IdentityModified",
      "type": "event"
    },
    {
      "anonymous": false,
      "inputs": [
        {
          "indexed": true,
          "internalType": "address",
          "name": "_identityRegistry",
          "type": "address"
        }
      ],
      "name": "IdentityRegistryBound",
      "type": "event"
    },
    {
      "anonymous": false,
      "inputs": [
        {
          "indexed": true,
          "internalType": "address",
          "name": "_identityRegistry",
          "type": "address"
        }
      ],
      "name": "IdentityRegistryUnbound",
      "type": "event"
    },
    {
      "anonymous": false,
      "inputs": [
        {
          "indexed": true,
          "internalType": "address",
          "name": "_identityWallet",
          "type": "address"
        },
        {
          "indexed": true,
          "internalType": "contract IIdentity",
          "name": "_identity",
          "type": "address"
        }
      ],
      "name": "IdentityStored",
      "type": "event"
    },
    {
      "anonymous": false,
      "inputs": [
        {
          "indexed": true,
          "internalType": "address",
          "name": "_identityWallet",
          "type": "address"
        },
        {
          "indexed": true,
          "internalType": "contract IIdentity",
          "name": "_identity",
          "type": "address"
        }
      ],
      "name": "IdentityUnstored",
      "type": "event"
    },
    {
      "anonymous": false,
      "inputs": [
        {
          "indexed": false,
          "internalType": "uint64",
          "name": "version",
          "type": "uint64"
        }
      ],
      "name": "Initialized",
      "type": "event"
    },
    {
      "anonymous": false,
      "inputs": [
        {
          "indexed": true,
          "internalType": "bytes32",
          "name": "role",
          "type": "bytes32"
        },
        {
          "indexed": true,
          "internalType": "bytes32",
          "name": "previousAdminRole",
          "type": "bytes32"
        },
        {
          "indexed": true,
          "internalType": "bytes32",
          "name": "newAdminRole",
          "type": "bytes32"
        }
      ],
      "name": "RoleAdminChanged",
      "type": "event"
    },
    {
      "anonymous": false,
      "inputs": [
        {
          "indexed": true,
          "internalType": "bytes32",
          "name": "role",
          "type": "bytes32"
        },
        {
          "indexed": true,
          "internalType": "address",
          "name": "account",
          "type": "address"
        },
        {
          "indexed": true,
          "internalType": "address",
          "name": "sender",
          "type": "address"
        }
      ],
      "name": "RoleGranted",
      "type": "event"
    },
    {
      "anonymous": false,
      "inputs": [
        {
          "indexed": true,
          "internalType": "bytes32",
          "name": "role",
          "type": "bytes32"
        },
        {
          "indexed": true,
          "internalType": "address",
          "name": "account",
          "type": "address"
        },
        {
          "indexed": true,
          "internalType": "address",
          "name": "sender",
          "type": "address"
        }
      ],
      "name": "RoleRevoked",
      "type": "event"
    },
    {
      "anonymous": false,
      "inputs": [
        {
          "indexed": true,
          "internalType": "address",
          "name": "implementation",
          "type": "address"
        }
      ],
      "name": "Upgraded",
      "type": "event"
    },
    {
      "inputs": [],
      "name": "DEFAULT_ADMIN_ROLE",
      "outputs": [
        {
          "internalType": "bytes32",
          "name": "",
          "type": "bytes32"
        }
      ],
      "stateMutability": "view",
      "type": "function"
    },
    {
      "inputs": [],
      "name": "STORAGE_MODIFIER_ROLE",
      "outputs": [
        {
          "internalType": "bytes32",
          "name": "",
          "type": "bytes32"
        }
      ],
      "stateMutability": "view",
      "type": "function"
    },
    {
      "inputs": [],
      "name": "UPGRADE_INTERFACE_VERSION",
      "outputs": [
        {
          "internalType": "string",
          "name": "",
          "type": "string"
        }
      ],
      "stateMutability": "view",
      "type": "function"
    },
    {
      "inputs": [
        {
          "internalType": "address",
          "name": "_userAddress",
          "type": "address"
        },
        {
          "internalType": "contract IIdentity",
          "name": "_identity",
          "type": "address"
        },
        {
          "internalType": "uint16",
          "name": "_country",
          "type": "uint16"
        }
      ],
      "name": "addIdentityToStorage",
      "outputs": [],
      "stateMutability": "nonpayable",
      "type": "function"
    },
    {
      "inputs": [
        {
          "internalType": "address",
          "name": "_identityRegistry",
          "type": "address"
        }
      ],
      "name": "bindIdentityRegistry",
      "outputs": [],
      "stateMutability": "nonpayable",
      "type": "function"
    },
    {
      "inputs": [],
      "name": "getIdentityWallets",
      "outputs": [
        {
          "internalType": "address[]",
          "name": "",
          "type": "address[]"
        }
      ],
      "stateMutability": "view",
      "type": "function"
    },
    {
      "inputs": [
        {
          "internalType": "bytes32",
          "name": "role",
          "type": "bytes32"
        }
      ],
      "name": "getRoleAdmin",
      "outputs": [
        {
          "internalType": "bytes32",
          "name": "",
          "type": "bytes32"
        }
      ],
      "stateMutability": "view",
      "type": "function"
    },
    {
      "inputs": [
        {
          "internalType": "bytes32",
          "name": "role",
          "type": "bytes32"
        },
        {
          "internalType": "uint256",
          "name": "index",
          "type": "uint256"
        }
      ],
      "name": "getRoleMember",
      "outputs": [
        {
          "internalType": "address",
          "name": "",
          "type": "address"
        }
      ],
      "stateMutability": "view",
      "type": "function"
    },
    {
      "inputs": [
        {
          "internalType": "bytes32",
          "name": "role",
          "type": "bytes32"
        }
      ],
      "name": "getRoleMemberCount",
      "outputs": [
        {
          "internalType": "uint256",
          "name": "",
          "type": "uint256"
        }
      ],
      "stateMutability": "view",
      "type": "function"
    },
    {
      "inputs": [
        {
          "internalType": "bytes32",
          "name": "role",
          "type": "bytes32"
        }
      ],
      "name": "getRoleMembers",
      "outputs": [
        {
          "internalType": "address[]",
          "name": "",
          "type": "address[]"
        }
      ],
      "stateMutability": "view",
      "type": "function"
    },
    {
      "inputs": [
        {
          "internalType": "bytes32",
          "name": "role",
          "type": "bytes32"
        },
        {
          "internalType": "address",
          "name": "account",
          "type": "address"
        }
      ],
      "name": "grantRole",
      "outputs": [],
      "stateMutability": "nonpayable",
      "type": "function"
    },
    {
      "inputs": [
        {
          "internalType": "bytes32",
          "name": "role",
          "type": "bytes32"
        },
        {
          "internalType": "address",
          "name": "account",
          "type": "address"
        }
      ],
      "name": "hasRole",
      "outputs": [
        {
          "internalType": "bool",
          "name": "",
          "type": "bool"
        }
      ],
      "stateMutability": "view",
      "type": "function"
    },
    {
      "inputs": [
        {
          "internalType": "address",
          "name": "initialAdmin",
          "type": "address"
        }
      ],
      "name": "initialize",
      "outputs": [],
      "stateMutability": "nonpayable",
      "type": "function"
    },
    {
      "inputs": [
        {
          "internalType": "address",
          "name": "forwarder",
          "type": "address"
        }
      ],
      "name": "isTrustedForwarder",
      "outputs": [
        {
          "internalType": "bool",
          "name": "",
          "type": "bool"
        }
      ],
      "stateMutability": "view",
      "type": "function"
    },
    {
      "inputs": [],
      "name": "linkedIdentityRegistries",
      "outputs": [
        {
          "internalType": "address[]",
          "name": "",
          "type": "address[]"
        }
      ],
      "stateMutability": "view",
      "type": "function"
    },
    {
      "inputs": [
        {
          "internalType": "address",
          "name": "_userAddress",
          "type": "address"
        },
        {
          "internalType": "contract IIdentity",
          "name": "_identity",
          "type": "address"
        }
      ],
      "name": "modifyStoredIdentity",
      "outputs": [],
      "stateMutability": "nonpayable",
      "type": "function"
    },
    {
      "inputs": [
        {
          "internalType": "address",
          "name": "_userAddress",
          "type": "address"
        },
        {
          "internalType": "uint16",
          "name": "_country",
          "type": "uint16"
        }
      ],
      "name": "modifyStoredInvestorCountry",
      "outputs": [],
      "stateMutability": "nonpayable",
      "type": "function"
    },
    {
      "inputs": [],
      "name": "proxiableUUID",
      "outputs": [
        {
          "internalType": "bytes32",
          "name": "",
          "type": "bytes32"
        }
      ],
      "stateMutability": "view",
      "type": "function"
    },
    {
      "inputs": [
        {
          "internalType": "address",
          "name": "_userAddress",
          "type": "address"
        }
      ],
      "name": "removeIdentityFromStorage",
      "outputs": [],
      "stateMutability": "nonpayable",
      "type": "function"
    },
    {
      "inputs": [
        {
          "internalType": "bytes32",
          "name": "role",
          "type": "bytes32"
        },
        {
          "internalType": "address",
          "name": "callerConfirmation",
          "type": "address"
        }
      ],
      "name": "renounceRole",
      "outputs": [],
      "stateMutability": "nonpayable",
      "type": "function"
    },
    {
      "inputs": [
        {
          "internalType": "bytes32",
          "name": "role",
          "type": "bytes32"
        },
        {
          "internalType": "address",
          "name": "account",
          "type": "address"
        }
      ],
      "name": "revokeRole",
      "outputs": [],
      "stateMutability": "nonpayable",
      "type": "function"
    },
    {
      "inputs": [
        {
          "internalType": "address",
          "name": "_userAddress",
          "type": "address"
        }
      ],
      "name": "storedIdentity",
      "outputs": [
        {
          "internalType": "contract IIdentity",
          "name": "",
          "type": "address"
        }
      ],
      "stateMutability": "view",
      "type": "function"
    },
    {
      "inputs": [
        {
          "internalType": "address",
          "name": "_userAddress",
          "type": "address"
        }
      ],
      "name": "storedInvestorCountry",
      "outputs": [
        {
          "internalType": "uint16",
          "name": "",
          "type": "uint16"
        }
      ],
      "stateMutability": "view",
      "type": "function"
    },
    {
      "inputs": [
        {
          "internalType": "bytes4",
          "name": "interfaceId",
          "type": "bytes4"
        }
      ],
      "name": "supportsInterface",
      "outputs": [
        {
          "internalType": "bool",
          "name": "",
          "type": "bool"
        }
      ],
      "stateMutability": "view",
      "type": "function"
    },
    {
      "inputs": [],
      "name": "trustedForwarder",
      "outputs": [
        {
          "internalType": "address",
          "name": "",
          "type": "address"
        }
      ],
      "stateMutability": "view",
      "type": "function"
    },
    {
      "inputs": [
        {
          "internalType": "address",
          "name": "_identityRegistry",
          "type": "address"
        }
      ],
      "name": "unbindIdentityRegistry",
      "outputs": [],
      "stateMutability": "nonpayable",
      "type": "function"
    },
    {
      "inputs": [
        {
          "internalType": "address",
          "name": "newImplementation",
          "type": "address"
        },
        {
          "internalType": "bytes",
          "name": "data",
          "type": "bytes"
        }
      ],
      "name": "upgradeToAndCall",
      "outputs": [],
      "stateMutability": "payable",
      "type": "function"
    }
  ],
  "bytecode": "0x60c03461014c57601f611e5538819003918201601f19168301916001600160401b038311848410176101515780849260209460405283398101031261014c57516001600160a01b038116810361014c576080523060a0527ff0c57e16840df040f15088dc2f81fe391c3923bec73e23a9662efc9c229c6a005460ff8160401c1661013b576002600160401b03196001600160401b038216016100d2575b604051611ced90816101688239608051818181610cb301528181610f72015261188e015260a051818181610fb9015261108d0152f35b6001600160401b0319166001600160401b039081177ff0c57e16840df040f15088dc2f81fe391c3923bec73e23a9662efc9c229c6a00556040519081527fc7f505b2f371ae2175ee4913f4499e1f2633a7b5936321eed1cdaeb6115181d290602090a13861009c565b63f92ee8a960e01b60005260046000fd5b600080fd5b634e487b7160e01b600052604160045260246000fdfe608080604052600436101561001357600080fd5b60003560e01c90816301ffc9a7146112fe57508063248a9ca3146112d85780632f2ff15d146112a757806336568abe146112515780634f1ef2861461101057806352d1902d14610fa6578063572b6c0514610f525780635d93544614610ed2578063690a49f914610d8b578063727e13bc14610d2d5780637988d3a514610ce25780637da0a87714610c9d5780639010d07c14610c4957806391d1485414610bef57806397a012f714610a545780639f3418d514610992578063a217fddf14610976578063a3246ad314610900578063a53410dd1461078b578063ad3cb1cc1461070f578063bf9eb9591461067f578063c4d66de814610469578063ca15c87314610430578063cf191bcd14610283578063d547741f1461024b578063e805cf86146101765763fd2726461461014857600080fd5b34610171576000366003190112610171576020604051600080516020611c788339815191528152f35b600080fd5b346101715760403660031901126101715761018f611381565b61019761136b565b906101a0611509565b6001600160a01b039081166000818152602081905260409020549092911615610236576001600160a01b031690811561022557600090815260208190526040812080546001600160a01b038481166001600160a01b031983161790925516907f556ce885dfcea52155c773f1ed2e58781c51945c13030ab8f793c61f51d1b8089080a3005b63a28c79a960e01b60005260046000fd5b5063572e88e360e11b60005260045260246000fd5b346101715760403660031901126101715761028160043561026a61136b565b9061027c61027782611418565b611575565b611620565b005b346101715760203660031901126101715761029c611381565b6102a4611509565b6001600160a01b039081166000818152602081905260409020549091161561041c5780600052600060205260018060a01b0360406000205416908060005260026020526040600020546000198101818111610406576001546000198101908111610406576103119061146a565b905460039190911b1c6001600160a01b0316908184036103bf575b50505060015480156103a9576000190161035f61034a826001611485565b81549060018060a01b039060031b1b19169055565b60015580600052600260205260006040812055806000526000602052600060408120557fca6a4c3370b859312246e7f086284076e557997e10d856b716c23ab67067790b600080a3005b634e487b7160e01b600052603160045260246000fd5b816103cc6103f09261146a565b81546001600160a01b0393841660039290921b91821b9390911b1916919091179055565b600052600260205260406000205582808061032c565b634e487b7160e01b600052601160045260246000fd5b63572e88e360e11b60005260045260246000fd5b3461017157602036600319011261017157600435600052600080516020611bf88339815191526020526020604060002054604051908152f35b3461017157602036600319011261017157610482611381565b600080516020611c98833981519152549060ff8260401c16159167ffffffffffffffff811680159081610677575b600114908161066d575b159081610664575b506106535767ffffffffffffffff198116600117600080516020611c988339815191525582610626575b506104f5611a3a565b6104fd611a3a565b61050681611714565b6105d7575b61051481611664565b610579575b5061052057005b68ff000000000000000019600080516020611c988339815191525416600080516020611c98833981519152557fc7f505b2f371ae2175ee4913f4499e1f2633a7b5936321eed1cdaeb6115181d2602060405160018152a1005b600080516020611c78833981519152600052600080516020611bf88339815191526020526105d0906001600160a01b03167f038dde831c307db807a13ca58e4fef5465ab69d93a64d8c891f54d1e9de84898611a68565b5081610519565b60008052600080516020611bf88339815191526020526106206001600160a01b0382167f615f0f9e84155bea8cc509fe18befeb1baf65611e38a6ba60964480fb29dfd44611a68565b5061050b565b68ffffffffffffffffff19166801000000000000000117600080516020611c9883398151915255826104ec565b63f92ee8a960e01b60005260046000fd5b905015846104c2565b303b1591506104ba565b8491506104b0565b346101715760003660031901126101715760405180602060045491828152019060046000527f8a35acfbc15ff81a39ae7d344fd709f28e8600b4aa8c65c6b64bfe7fe36bd19b9060005b8181106106f0576106ec856106e081870382611397565b604051918291826113d5565b0390f35b82546001600160a01b03168452602090930192600192830192016106c9565b3461017157600036600319011261017157604080519061072f8183611397565b60058252640352e302e360dc1b6020830152805180926020825280519081602084015260005b8281106107745750506000828201840152601f01601f19168101030190f35b602082820181015187830187015286945001610755565b34610171576060366003190112610171576107a4611381565b6107ac61136b565b6044359161ffff8316809303610171576107c4611509565b6001600160a01b0381169182156108ef576001600160a01b0316928315610225576000838152602081905260409020546001600160a01b03166108da576040516040810181811067ffffffffffffffff8211176108c45760409081528582526020808301938452600086815290819052209051815492516001600160b01b03199093166001600160a01b03919091161760a09290921b61ffff60a01b1691909117905560015490600160401b8210156108c4576103cc82600161088c94016001556001611485565b6001548160005260026020526040600020557e30dea7e9c9afaa2e3c9810f2fc9b5181f1bad74ca5a8db85f746a33585e747600080a3005b634e487b7160e01b600052604160045260246000fd5b82632ec44c6b60e01b60005260045260246000fd5b63340d634b60e21b60005260046000fd5b3461017157602036600319011261017157600435600052600080516020611bf8833981519152602052604060002060405190816020825491828152019160005260206000209060005b818110610960576106ec856106e081870382611397565b8254845260209093019260019283019201610949565b3461017157600036600319011261017157602060405160008152f35b34610171576040366003190112610171576109ab611381565b6024359061ffff821690818303610171576109c4611509565b6001600160a01b039081166000818152602081905260409020549093911615610a3f57600083815260208181526040909120805461ffff60a01b191660a09390931b61ffff60a01b16929092179091557f20965fcdc6eed7ae398065b40ece4e732ba667992ca819fc54e80e9f2047c4cf91604051908152a2005b8263572e88e360e11b60005260045260246000fd5b3461017157602036600319011261017157610a6d611381565b610a7561149d565b6001600160a01b03811660008181526003602052604090205490919060ff1615610bda57610aa2906118e4565b610b86575b806000526005602052604060002054600019810181811161040657600454600019810190811161040657610ada90611439565b905460039190911b1c6001600160a01b031690818403610b63575b50505060045480156103a95760001901610b1361034a826004611485565b60045580600052600560205260006040812055806000526003602052604060002060ff1981541690557f51f353eb5801583fdf2706e43c045b62fdf6b1566820b349390616363ecf72c9600080a2005b816103cc610b7092611439565b6000526005602052604060002055818080610af5565b600080516020611c78833981519152600052600080516020611bf8833981519152602052610bd4817f038dde831c307db807a13ca58e4fef5465ab69d93a64d8c891f54d1e9de84898611ad9565b50610aa7565b50630707cbe560e01b60005260045260246000fd5b3461017157604036600319011261017157610c0861136b565b600435600052600080516020611c3883398151915260205260406000209060018060a01b0316600052602052602060ff604060002054166040519015158152f35b3461017157604036600319011261017157600435600052600080516020611bf88339815191526020526020610c846024356040600020611485565b905460405160039290921b1c6001600160a01b03168152f35b34610171576000366003190112610171576040517f00000000000000000000000000000000000000000000000000000000000000006001600160a01b03168152602090f35b34610171576020366003190112610171576001600160a01b03610d03611381565b166000818152602081905260409020546001600160a01b0316801561023657602090604051908152f35b34610171576020366003190112610171576001600160a01b03610d4e611381565b166000818152602081905260409020546001600160a01b03161561041c576000526000602052602061ffff60406000205460a01c16604051908152f35b3461017157602036600319011261017157610da4611381565b610dac61149d565b6001600160a01b038116908115610ec15781600052600360205260ff60406000205416610eac578160005260036020526040600020600160ff1982541617905560045490600160401b8210156108c457610e15816103cc846001610e2c96016004556004611485565b600454836000526005602052604060002055611664565b610e58575b7f500c250171aa20e861b680f93502547b9d436eda7d4c537fc360db6e0c6eedfb600080a2005b600080516020611c78833981519152600052600080516020611bf8833981519152602052610ea6817f038dde831c307db807a13ca58e4fef5465ab69d93a64d8c891f54d1e9de84898611a68565b50610e31565b50634308f35160e01b60005260045260246000fd5b6328123ecf60e01b60005260046000fd5b346101715760003660031901126101715760405180602060015491828152019060016000527fb10e2d527612073b26eecdfd717e6a320cf44b4afac2b0732d9fcbe2b7fa0cf69060005b818110610f33576106ec856106e081870382611397565b82546001600160a01b0316845260209093019260019283019201610f1c565b34610171576020366003190112610171576020610f6d611381565b6040517f00000000000000000000000000000000000000000000000000000000000000006001600160a01b039081169216919091148152f35b34610171576000366003190112610171577f00000000000000000000000000000000000000000000000000000000000000006001600160a01b03163003610fff576020604051600080516020611c188339815191528152f35b63703e46dd60e11b60005260046000fd5b604036600319011261017157611024611381565b6024359067ffffffffffffffff8211610171573660238301121561017157816004013590611051826113b9565b9161105f6040519384611397565b8083526020830193366024838301011161017157816000926024602093018737840101526001600160a01b037f00000000000000000000000000000000000000000000000000000000000000001630811490811561122e575b50610fff576110c561149d565b6040516352d1902d60e01b81526001600160a01b0382169390602081600481885afa600091816111fa575b5061110a5784634c9c8ce360e01b60005260045260246000fd5b80600080516020611c188339815191528692036111e65750823b156111d257600080516020611c1883398151915280546001600160a01b031916821790557fbc7cd75a20ee27fd9adebab32041f755214dbc6bffa90cc0225b39da2e5c2d3b600080a28251156111b75760008091610281945190845af43d156111af573d91611192836113b9565b926111a06040519485611397565b83523d6000602085013e611b96565b606091611b96565b505050346111c157005b63b398979f60e01b60005260046000fd5b634c9c8ce360e01b60005260045260246000fd5b632a87526960e21b60005260045260246000fd5b9091506020813d602011611226575b8161121660209383611397565b81010312610171575190866110f0565b3d9150611209565b600080516020611c18833981519152546001600160a01b031614159050846110b8565b346101715760403660031901126101715761126a61136b565b6001600160a01b0361127a61188b565b166001600160a01b038216036112965761028190600435611620565b63334bd91960e11b60005260046000fd5b34610171576040366003190112610171576102816004356112c661136b565b906112d361027782611418565b6115d8565b346101715760203660031901126101715760206112f6600435611418565b604051908152f35b34610171576020366003190112610171576004359063ffffffff60e01b821680920361017157602091635a05180f60e01b8114908115611340575b5015158152f35b637965db0b60e01b81149150811561135a575b5083611339565b6301ffc9a760e01b14905083611353565b602435906001600160a01b038216820361017157565b600435906001600160a01b038216820361017157565b90601f8019910116810190811067ffffffffffffffff8211176108c457604052565b67ffffffffffffffff81116108c457601f01601f191660200190565b602060408183019282815284518094520192019060005b8181106113f95750505090565b82516001600160a01b03168452602093840193909201916001016113ec565b600052600080516020611c3883398151915260205260016040600020015490565b60045481101561145457600460005260206000200190600090565b634e487b7160e01b600052603260045260246000fd5b60015481101561145457600160005260206000200190600090565b80548210156114545760005260206000200190600090565b6114a561188b565b6001600160a01b03811660009081527fb7db2dd08fcb62d0c9e08c51941cae53c267786a0b75803fb7960902fc8ef97d602052604090205460ff16156114e85750565b63e2517d3f60e01b60005260018060a01b0316600452600060245260446000fd5b61151161188b565b6001600160a01b0381166000908152600080516020611c58833981519152602052604090205460ff16156115425750565b63e2517d3f60e01b60009081526001600160a01b0391909116600452600080516020611c78833981519152602452604490fd5b61157d61188b565b81600052600080516020611c38833981519152602052604060002060018060a01b03821660005260205260ff60406000205416156115b9575050565b63e2517d3f60e01b60005260018060a01b031660045260245260446000fd5b6115e282826117d4565b91826115ed57505090565b6000918252600080516020611bf8833981519152602052604090912061161c916001600160a01b031690611a68565b5090565b61162a828261198c565b918261163557505090565b6000918252600080516020611bf8833981519152602052604090912061161c916001600160a01b031690611ad9565b6001600160a01b0381166000908152600080516020611c58833981519152602052604090205460ff1661170e576001600160a01b038181166000908152600080516020611c5883398151915260205260409020805460ff191660011790556116ca61188b565b16906001600160a01b0316600080516020611c788339815191527f2f8788117e7eff1d82e926ec794901d17c78024a50270940304540a733656f0d600080a4600190565b50600090565b6001600160a01b03811660009081527fb7db2dd08fcb62d0c9e08c51941cae53c267786a0b75803fb7960902fc8ef97d602052604090205460ff1661170e576001600160a01b0381811660009081527fb7db2dd08fcb62d0c9e08c51941cae53c267786a0b75803fb7960902fc8ef97d60205260409020805460ff1916600117905561179e61188b565b16906001600160a01b031660007f2f8788117e7eff1d82e926ec794901d17c78024a50270940304540a733656f0d8180a4600190565b6000818152600080516020611c38833981519152602090815260408083206001600160a01b038616845290915290205460ff16611884576000818152600080516020611c38833981519152602090815260408083206001600160a01b0386811685529252909120805460ff1916600117905561184e61188b565b16916001600160a01b0316907f2f8788117e7eff1d82e926ec794901d17c78024a50270940304540a733656f0d600080a4600190565b5050600090565b337f00000000000000000000000000000000000000000000000000000000000000006001600160a01b031614806118d9575b156118d5576013193601368111610406573560601c90565b3390565b5060143610156118bd565b6001600160a01b0381166000908152600080516020611c58833981519152602052604090205460ff161561170e576001600160a01b038181166000908152600080516020611c5883398151915260205260409020805460ff1916905561194861188b565b16906001600160a01b0316600080516020611c788339815191527ff6391f5c32d9c69d2a47ea670b442974b53935d1edc7fd64eb21e047a839171b600080a4600190565b6000818152600080516020611c38833981519152602090815260408083206001600160a01b038616845290915290205460ff1615611884576000818152600080516020611c38833981519152602090815260408083206001600160a01b0386811685529252909120805460ff19169055611a0461188b565b16916001600160a01b0316907ff6391f5c32d9c69d2a47ea670b442974b53935d1edc7fd64eb21e047a839171b600080a4600190565b60ff600080516020611c988339815191525460401c1615611a5757565b631afcd79f60e31b60005260046000fd5b6001810190826000528160205260406000205415600014611ad1578054600160401b8110156108c457611abc611aa5826001879401855584611485565b819391549060031b91821b91600019901b19161790565b90555491600052602052604060002055600190565b505050600090565b9060018201918160005282602052604060002054801515600014611b8d57600019810181811161040657825460001981019190821161040657818103611b56575b505050805480156103a9576000190190611b348282611485565b8154906000199060031b1b191690555560005260205260006040812055600190565b611b76611b66611aa59386611485565b90549060031b1c92839286611485565b905560005283602052604060002055388080611b1a565b50505050600090565b90611bbc5750805115611bab57805190602001fd5b63d6bda27560e01b60005260046000fd5b81511580611bee575b611bcd575090565b639996b31560e01b60009081526001600160a01b0391909116600452602490fd5b50803b15611bc556fec1f6fe24621ce81ec5827caf0253cadb74709b061630e6b55e82371705932000360894a13ba1a3210667c828492db98dca3e2076cc3735a920a3ca505d382bbc02dd7bc7dec4dceedda775e58dd541e08a116c6c53815c0bd028192f7b626800f7b03a54cfc68aa23cbf24329c7578b5ceb6b46a5810c7579bd72f09cbc7660bf926905b211c4fe59c7d68bb001aa504586558fd2888c1ea46e1b382450050cff0c57e16840df040f15088dc2f81fe391c3923bec73e23a9662efc9c229c6a00a2646970667358221220065e56d3d96492bbd452ce93619a8a1d612feba39e3f25dcfa4eb386f57f6a1d64736f6c634300081c0033",
  "linkReferences": {},
  "deployedLinkReferences": {}
}