{
  "_format": "hh-sol-artifact-1",
  "contractName": "ATKVestingAirdropImplementation",
  "sourceName": "contracts/addons/airdrop/vesting-airdrop/ATKVestingAirdropImplementation.sol",
  "abi": [
    {
      "inputs": [
        {
          "internalType": "address",
          "name": "forwarder_",
          "type": "address"
        }
      ],
      "stateMutability": "nonpayable",
      "type": "constructor"
    },
    {
      "inputs": [],
      "name": "BatchSizeExceedsLimit",
      "type": "error"
    },
    {
      "inputs": [],
      "name": "IndexAlreadyClaimed",
      "type": "error"
    },
    {
      "inputs": [],
      "name": "InitializationDeadlinePassed",
      "type": "error"
    },
    {
      "inputs": [],
      "name": "InvalidClaimAmount",
      "type": "error"
    },
    {
      "inputs": [],
      "name": "InvalidClaimTrackerAddress",
      "type": "error"
    },
    {
      "inputs": [],
      "name": "InvalidInitialization",
      "type": "error"
    },
    {
      "inputs": [],
      "name": "InvalidInitializationDeadline",
      "type": "error"
    },
    {
      "inputs": [],
      "name": "InvalidInputArrayLengths",
      "type": "error"
    },
    {
      "inputs": [],
      "name": "InvalidMerkleProof",
      "type": "error"
    },
    {
      "inputs": [],
      "name": "InvalidMerkleRoot",
      "type": "error"
    },
    {
      "inputs": [],
      "name": "InvalidTokenAddress",
      "type": "error"
    },
    {
      "inputs": [
        {
          "internalType": "address",
          "name": "vestingStrategy",
          "type": "address"
        }
      ],
      "name": "InvalidVestingStrategy",
      "type": "error"
    },
    {
      "inputs": [],
      "name": "InvalidVestingStrategyAddress",
      "type": "error"
    },
    {
      "inputs": [],
      "name": "InvalidWithdrawalAddress",
      "type": "error"
    },
    {
      "inputs": [],
      "name": "NotInitializing",
      "type": "error"
    },
    {
      "inputs": [
        {
          "internalType": "address",
          "name": "owner",
          "type": "address"
        }
      ],
      "name": "OwnableInvalidOwner",
      "type": "error"
    },
    {
      "inputs": [
        {
          "internalType": "address",
          "name": "account",
          "type": "address"
        }
      ],
      "name": "OwnableUnauthorizedAccount",
      "type": "error"
    },
    {
      "inputs": [],
      "name": "ReentrancyGuardReentrantCall",
      "type": "error"
    },
    {
      "inputs": [
        {
          "internalType": "address",
          "name": "token",
          "type": "address"
        }
      ],
      "name": "SafeERC20FailedOperation",
      "type": "error"
    },
    {
      "inputs": [],
      "name": "VestingAlreadyInitialized",
      "type": "error"
    },
    {
      "inputs": [],
      "name": "VestingNotInitialized",
      "type": "error"
    },
    {
      "inputs": [],
      "name": "ZeroAmountToTransfer",
      "type": "error"
    },
    {
      "inputs": [],
      "name": "ZeroClaimAmount",
      "type": "error"
    },
    {
      "anonymous": false,
      "inputs": [
        {
          "indexed": true,
          "internalType": "address",
          "name": "claimant",
          "type": "address"
        },
        {
          "indexed": false,
          "internalType": "uint256",
          "name": "totalAmount",
          "type": "uint256"
        },
        {
          "indexed": false,
          "internalType": "uint256[]",
          "name": "indices",
          "type": "uint256[]"
        },
        {
          "indexed": false,
          "internalType": "uint256[]",
          "name": "amounts",
          "type": "uint256[]"
        }
      ],
      "name": "BatchClaimed",
      "type": "event"
    },
    {
      "anonymous": false,
      "inputs": [
        {
          "indexed": true,
          "internalType": "address",
          "name": "account",
          "type": "address"
        },
        {
          "indexed": false,
          "internalType": "uint256[]",
          "name": "indices",
          "type": "uint256[]"
        },
        {
          "indexed": false,
          "internalType": "uint256[]",
          "name": "totalAmounts",
          "type": "uint256[]"
        }
      ],
      "name": "BatchVestingInitialized",
      "type": "event"
    },
    {
      "anonymous": false,
      "inputs": [
        {
          "indexed": true,
          "internalType": "address",
          "name": "claimant",
          "type": "address"
        },
        {
          "indexed": false,
          "internalType": "uint256",
          "name": "amount",
          "type": "uint256"
        },
        {
          "indexed": false,
          "internalType": "uint256",
          "name": "index",
          "type": "uint256"
        }
      ],
      "name": "Claimed",
      "type": "event"
    },
    {
      "anonymous": false,
      "inputs": [
        {
          "indexed": false,
          "internalType": "uint64",
          "name": "version",
          "type": "uint64"
        }
      ],
      "name": "Initialized",
      "type": "event"
    },
    {
      "anonymous": false,
      "inputs": [
        {
          "indexed": true,
          "internalType": "address",
          "name": "previousOwner",
          "type": "address"
        },
        {
          "indexed": true,
          "internalType": "address",
          "name": "newOwner",
          "type": "address"
        }
      ],
      "name": "OwnershipTransferred",
      "type": "event"
    },
    {
      "anonymous": false,
      "inputs": [
        {
          "indexed": true,
          "internalType": "address",
          "name": "to",
          "type": "address"
        },
        {
          "indexed": false,
          "internalType": "uint256",
          "name": "amount",
          "type": "uint256"
        }
      ],
      "name": "TokensWithdrawn",
      "type": "event"
    },
    {
      "anonymous": false,
      "inputs": [
        {
          "indexed": true,
          "internalType": "address",
          "name": "account",
          "type": "address"
        },
        {
          "indexed": false,
          "internalType": "uint256",
          "name": "totalAmount",
          "type": "uint256"
        },
        {
          "indexed": false,
          "internalType": "uint256",
          "name": "index",
          "type": "uint256"
        }
      ],
      "name": "VestingInitialized",
      "type": "event"
    },
    {
      "anonymous": false,
      "inputs": [
        {
          "indexed": true,
          "internalType": "address",
          "name": "oldStrategy",
          "type": "address"
        },
        {
          "indexed": true,
          "internalType": "address",
          "name": "newStrategy",
          "type": "address"
        }
      ],
      "name": "VestingStrategyUpdated",
      "type": "event"
    },
    {
      "inputs": [],
      "name": "MAX_BATCH_SIZE",
      "outputs": [
        {
          "internalType": "uint256",
          "name": "",
          "type": "uint256"
        }
      ],
      "stateMutability": "view",
      "type": "function"
    },
    {
      "inputs": [
        {
          "internalType": "uint256[]",
          "name": "indices",
          "type": "uint256[]"
        },
        {
          "internalType": "uint256[]",
          "name": "totalAmounts",
          "type": "uint256[]"
        },
        {
          "internalType": "bytes32[][]",
          "name": "merkleProofs",
          "type": "bytes32[][]"
        }
      ],
      "name": "batchClaim",
      "outputs": [],
      "stateMutability": "nonpayable",
      "type": "function"
    },
    {
      "inputs": [
        {
          "internalType": "uint256[]",
          "name": "indices",
          "type": "uint256[]"
        },
        {
          "internalType": "uint256[]",
          "name": "totalAmounts",
          "type": "uint256[]"
        },
        {
          "internalType": "bytes32[][]",
          "name": "merkleProofs",
          "type": "bytes32[][]"
        }
      ],
      "name": "batchInitializeVesting",
      "outputs": [],
      "stateMutability": "nonpayable",
      "type": "function"
    },
    {
      "inputs": [
        {
          "internalType": "uint256",
          "name": "index",
          "type": "uint256"
        },
        {
          "internalType": "uint256",
          "name": "totalAmount",
          "type": "uint256"
        },
        {
          "internalType": "bytes32[]",
          "name": "merkleProof",
          "type": "bytes32[]"
        }
      ],
      "name": "claim",
      "outputs": [],
      "stateMutability": "nonpayable",
      "type": "function"
    },
    {
      "inputs": [],
      "name": "claimPeriodEnd",
      "outputs": [
        {
          "internalType": "uint256",
          "name": "",
          "type": "uint256"
        }
      ],
      "stateMutability": "view",
      "type": "function"
    },
    {
      "inputs": [],
      "name": "claimTracker",
      "outputs": [
        {
          "internalType": "contract IATKClaimTracker",
          "name": "",
          "type": "address"
        }
      ],
      "stateMutability": "view",
      "type": "function"
    },
    {
      "inputs": [
        {
          "internalType": "uint256",
          "name": "index",
          "type": "uint256"
        }
      ],
      "name": "getClaimedAmount",
      "outputs": [
        {
          "internalType": "uint256",
          "name": "",
          "type": "uint256"
        }
      ],
      "stateMutability": "view",
      "type": "function"
    },
    {
      "inputs": [
        {
          "internalType": "uint256",
          "name": "index",
          "type": "uint256"
        }
      ],
      "name": "getInitializationTimestamp",
      "outputs": [
        {
          "internalType": "uint256",
          "name": "",
          "type": "uint256"
        }
      ],
      "stateMutability": "view",
      "type": "function"
    },
    {
      "inputs": [
        {
          "internalType": "address",
          "name": "token_",
          "type": "address"
        },
        {
          "internalType": "bytes32",
          "name": "root_",
          "type": "bytes32"
        },
        {
          "internalType": "address",
          "name": "owner_",
          "type": "address"
        },
        {
          "internalType": "address",
          "name": "vestingStrategy_",
          "type": "address"
        },
        {
          "internalType": "uint256",
          "name": "initializationDeadline_",
          "type": "uint256"
        }
      ],
      "name": "initialize",
      "outputs": [],
      "stateMutability": "nonpayable",
      "type": "function"
    },
    {
      "inputs": [
        {
          "internalType": "uint256",
          "name": "index",
          "type": "uint256"
        },
        {
          "internalType": "uint256",
          "name": "totalAmount",
          "type": "uint256"
        },
        {
          "internalType": "bytes32[]",
          "name": "merkleProof",
          "type": "bytes32[]"
        }
      ],
      "name": "initializeVesting",
      "outputs": [],
      "stateMutability": "nonpayable",
      "type": "function"
    },
    {
      "inputs": [
        {
          "internalType": "uint256",
          "name": "index",
          "type": "uint256"
        },
        {
          "internalType": "uint256",
          "name": "totalAmount",
          "type": "uint256"
        }
      ],
      "name": "isClaimed",
      "outputs": [
        {
          "internalType": "bool",
          "name": "",
          "type": "bool"
        }
      ],
      "stateMutability": "view",
      "type": "function"
    },
    {
      "inputs": [
        {
          "internalType": "address",
          "name": "forwarder",
          "type": "address"
        }
      ],
      "name": "isTrustedForwarder",
      "outputs": [
        {
          "internalType": "bool",
          "name": "",
          "type": "bool"
        }
      ],
      "stateMutability": "view",
      "type": "function"
    },
    {
      "inputs": [
        {
          "internalType": "uint256",
          "name": "index",
          "type": "uint256"
        }
      ],
      "name": "isVestingInitialized",
      "outputs": [
        {
          "internalType": "bool",
          "name": "",
          "type": "bool"
        }
      ],
      "stateMutability": "view",
      "type": "function"
    },
    {
      "inputs": [],
      "name": "merkleRoot",
      "outputs": [
        {
          "internalType": "bytes32",
          "name": "",
          "type": "bytes32"
        }
      ],
      "stateMutability": "view",
      "type": "function"
    },
    {
      "inputs": [],
      "name": "owner",
      "outputs": [
        {
          "internalType": "address",
          "name": "",
          "type": "address"
        }
      ],
      "stateMutability": "view",
      "type": "function"
    },
    {
      "inputs": [],
      "name": "renounceOwnership",
      "outputs": [],
      "stateMutability": "nonpayable",
      "type": "function"
    },
    {
      "inputs": [
        {
          "internalType": "address",
          "name": "newVestingStrategy_",
          "type": "address"
        }
      ],
      "name": "setVestingStrategy",
      "outputs": [],
      "stateMutability": "nonpayable",
      "type": "function"
    },
    {
      "inputs": [],
      "name": "token",
      "outputs": [
        {
          "internalType": "contract IERC20",
          "name": "",
          "type": "address"
        }
      ],
      "stateMutability": "view",
      "type": "function"
    },
    {
      "inputs": [
        {
          "internalType": "address",
          "name": "newOwner",
          "type": "address"
        }
      ],
      "name": "transferOwnership",
      "outputs": [],
      "stateMutability": "nonpayable",
      "type": "function"
    },
    {
      "inputs": [],
      "name": "trustedForwarder",
      "outputs": [
        {
          "internalType": "address",
          "name": "",
          "type": "address"
        }
      ],
      "stateMutability": "view",
      "type": "function"
    },
    {
      "inputs": [],
      "name": "vestingStrategy",
      "outputs": [
        {
          "internalType": "contract IATKVestingStrategy",
          "name": "",
          "type": "address"
        }
      ],
      "stateMutability": "view",
      "type": "function"
    },
    {
      "inputs": [
        {
          "internalType": "address",
          "name": "to",
          "type": "address"
        }
      ],
      "name": "withdrawTokens",
      "outputs": [],
      "stateMutability": "nonpayable",
      "type": "function"
    }
  ],
  "bytecode": "0x60a03461008857601f611dd938819003918201601f19168301916001600160401b0383118484101761008c5780849260209460405283398101031261008857516001600160a01b03811681036100885760805261005a6100a0565b6100626100a0565b604051611c8290816101378239608051818181610941015281816109f701526117aa0152f35b5f80fd5b634e487b7160e01b5f52604160045260245ffd5b5f516020611db95f395f51905f525460ff8160401c16610127576002600160401b03196001600160401b038216016100d55750565b6001600160401b0319166001600160401b039081175f516020611db95f395f51905f52556040519081527fc7f505b2f371ae2175ee4913f4499e1f2633a7b5936321eed1cdaeb6115181d290602090a1565b63f92ee8a960e01b5f5260045ffdfe60806040526004361015610011575f80fd5b5f3560e01c806310639fef14611206578063222abc11146111de5780632eb4a7ab146111c15780633da082a0146111a45780633ecfea49146110c357806341162b7514610f82578063429c6e5b14610f5c57806349df728c14610e735780634be7adee14610a5557806352ae2c2014610a2b578063572b6c05146109d7578063715018a6146109705780637da0a8771461092c5780638da5cb5b146108f8578063ae0b51df1461063f578063bd3f22b214610613578063cfdbf254146105f8578063e30e28f414610223578063f2fde38b146101f8578063f364c90c1461015e578063f567fa9d146101365763fc0c546a1461010b575f80fd5b34610132575f366003190112610132575f546040516001600160a01b039091168152602090f35b5f80fd5b34610132575f366003190112610132576003546040516001600160a01b039091168152602090f35b3461013257604036600319011261013257600254604051633cd9324360e21b81526004803590820152602480359082015290602090829060449082906001600160a01b03165afa80156101ed576020915f916101c0575b506040519015158152f35b6101e09150823d84116101e6575b6101d881836113a1565b8101906113c3565b826101b5565b503d6101ce565b6040513d5f823e3d90fd5b346101325760203660031901126101325761022161021461131a565b61021c6116c6565b611533565b005b346101325760a03660031901126101325761023c61131a565b6044356024356001600160a01b0382168203610132576064356001600160a01b038116939084900361013257608435915f516020611c2d5f395f51905f52549360ff8560401c16159467ffffffffffffffff8116801590816105f0575b60011490816105e6575b1590816105dd575b506105ce5767ffffffffffffffff1981166001175f516020611c2d5f395f51905f5255856105a2575b508515610593574284111561058457604051637c13428d60e11b81526020816004818a5afa5f9181610563575b506103195786632a4aa22360e11b5f5260045260245ffd5b9593949515610550576040516103c18082019082821067ffffffffffffffff83111761053c57602091839161182c83393081520301905ff080156101ed576001600160a01b031692610369611800565b6001600160a01b031690811561052d57821561051e57831561050f576040516318160ddd60e01b8152602081600481865afa90816104e0575b506103b657630f58058360e11b5f5260045ffd5b604051633cd9324360e21b81525f600482018190526024820152602081604481885afa90816104c3575b506103f457632b58d96960e01b5f5260045ffd5b61040890610400611800565b61021c611800565b6001600160601b0360a01b5f5416175f556001556001600160601b0360a01b6002541617600255610437611800565b61043f611800565b60015f516020611c0d5f395f51905f52556001600160601b0360a01b600354161760035560045561046c57005b68ff0000000000000000195f516020611c2d5f395f51905f5254165f516020611c2d5f395f51905f52557fc7f505b2f371ae2175ee4913f4499e1f2633a7b5936321eed1cdaeb6115181d2602060405160018152a1005b6104db9060203d6020116101e6576101d881836113a1565b6103e0565b6020813d602011610507575b816104f9602093836113a1565b8101031261013257516103a2565b3d91506104ec565b632b58d96960e01b5f5260045ffd5b639dd854d360e01b5f5260045ffd5b630f58058360e11b5f5260045ffd5b634e487b7160e01b5f52604160045260245ffd5b83632a4aa22360e11b5f5260045260245ffd5b61057d91925060203d6020116101e6576101d881836113a1565b9088610301565b6310b2668560e11b5f5260045ffd5b6385d923df60e01b5f5260045ffd5b68ffffffffffffffffff191668010000000000000001175f516020611c2d5f395f51905f5255866102d4565b63f92ee8a960e01b5f5260045ffd5b905015886102ab565b303b1591506102a3565b879150610299565b34610132575f36600319011261013257602060405160648152f35b34610132576020366003190112610132576004355f526005602052602060405f20541515604051908152f35b346101325761064d366112e3565b92906106576115a4565b815f52600560205260405f2054156108e9576106d893825f52600560205260405f205491602061068685611468565b61068e6117a7565b6003546040516307a297ab60e01b81526001600160a01b038084166004830152602482018b9052604482019890985260648101939093529198909589921690829081906084820190565b03915afa9586156101ed575f966108b5575b5085156108a65760018060a01b036002541691604051633cd9324360e21b8152856004820152866024820152602081604481875afa9081156101ed575f91610887575b506108785761073e918685876115dc565b1561086957604051635ea05ef360e11b8152600481018490526024810186905260448101859052602081606481855afa9081156101ed575f9161084a575b501561083b57803b156101325760405163762ba3ff60e11b8152600481018490526024810186905260448101949094525f908490606490829084905af19182156101ed577f987d620f307ff6b94d58743cb7a7509f24071586a77759b77c2d4e29f75a2f9a9360409361082b575b505f5461080390869084906001600160a01b0316611719565b825194855260208501526001600160a01b031692a260015f516020611c0d5f395f51905f5255005b5f610835916113a1565b856107ea565b63843ce46b60e01b5f5260045ffd5b610863915060203d6020116101e6576101d881836113a1565b8661077c565b63582f497d60e11b5f5260045ffd5b63b708ca1560e01b5f5260045ffd5b6108a0915060203d6020116101e6576101d881836113a1565b8861072d565b63723a162160e11b5f5260045ffd5b9095506020813d6020116108e1575b816108d1602093836113a1565b81010312610132575194866106ea565b3d91506108c4565b63d2e8cc1760e01b5f5260045ffd5b34610132575f366003190112610132575f516020611bed5f395f51905f52546040516001600160a01b039091168152602090f35b34610132575f366003190112610132576040517f00000000000000000000000000000000000000000000000000000000000000006001600160a01b03168152602090f35b34610132575f366003190112610132576109886116c6565b5f516020611bed5f395f51905f5280546001600160a01b031981169091555f906001600160a01b03167f8be0079c531659141344cd1fd0a4f28419497f9722a3daafe3b4186f6b6457e08280a3005b346101325760203660031901126101325760206109f261131a565b6040517f00000000000000000000000000000000000000000000000000000000000000006001600160a01b039081169216919091148152f35b34610132576020366003190112610132576004355f526005602052602060405f2054604051908152f35b3461013257610a6336611330565b9391610a709591956115a4565b60648311610e6457808314801590610e5a575b610d5d57610a8f6117a7565b93610a99846114ed565b6003546001600160a01b03165f5b868110610d8157505080518381871491821592610d76575b50508015610d6c575b610d5d579591905f96610ada866114ed565b985f945b878610610ba65750505050505083610b04575b60015f516020611c0d5f395f51905f5255005b610b3391610b1c858560018060a01b035f5416611719565b604051948552606060208601526060850191611444565b8281036040840152602080855192838152019401905f5b818110610b90575050506001600160a01b0316917fb9df54cb8716695fe6cd84e5e4b88eca0d9c862970bcd45797aabb77d71b48ee919081900390a28080808080610af1565b8251865260209586019590920191600101610b4a565b90919293949998610bb88b89896113db565b359a610bc4818661151f565b51809c610bd2838a8a6113db565b35610bde8487896113ff565b9315610d4e5760018060a01b036002541693604051633cd9324360e21b8152846004820152836024820152602081604481895afa9081156101ed575f91610d30575b5061087857610c32918f8490866115dc565b1561086957610c6c8f826020916040519384928392635ea05ef360e11b845288600485016040919493926060820195825260208201520152565b0381875afa9081156101ed575f91610d12575b501561083b57823b156101325760405163762ba3ff60e11b81526004810192909252602482018f90526044820152905f908290606490829084905af180156101ed57610d02575b508b8201809211610cee576001919b610cdf828d61151f565b52019493929190999899610ade565b634e487b7160e01b5f52601160045260245ffd5b5f610d0c916113a1565b8c610cc6565b610d2a915060203d81116101e6576101d881836113a1565b5f610c7f565b610d48915060203d81116101e6576101d881836113a1565b5f610c20565b6360640efd60e11b5f5260045ffd5b632c635df560e11b5f5260045ffd5b5086831415610ac8565b14159050838a610abf565b610d8c8188886113db565b3590815f52600560205260405f2054156108e9576020610dad8288886113db565b35835f52600582528a610e01610dc760405f205496611468565b60405196879485946307a297ab60e01b86526004860190949392606092608083019660018060a01b03168352602083015260408201520152565b0381865afa80156101ed575f90610e28575b60019250610e21828661151f565b5201610aa7565b506020823d8211610e52575b81610e41602093836113a1565b810103126101325760019151610e13565b3d9150610e34565b5084811415610a83565b632a8677b560e21b5f5260045ffd5b3461013257602036600319011261013257610e8c61131a565b610e946116c6565b6001600160a01b038116908115610f4d575f546040516370a0823160e01b815230600482015291906001600160a01b0316602083602481845afa9283156101ed575f93610f15575b5091610f0c816020937f6352c5382c4a4578e712449ca65e83cdb392d045dfcf1cad9615189db2da244b95611719565b604051908152a2005b9250906020833d602011610f45575b81610f31602093836113a1565b810103126101325791519190610f0c610edc565b3d9150610f24565b634261081360e11b5f5260045ffd5b34610132576020366003190112610132576020610f7a600435611468565b604051908152f35b3461013257610f9036611330565b610f9e9593959492946115a4565b60648311610e64578483148015906110b9575b610d5d57610fbd6117a7565b9160045442116110aa575f5b84811061103f57505050611029907f8f59e3de0f866848efefecafdbbf1c97262b4187d7355cb68c9c6e50b6ead9a994611010604051958695604087526040870191611444565b84810360208601526001600160a01b0390921696611444565b0390a260015f516020611c0d5f395f51905f5255005b61104a8186886113db565b359061105781898b6113db565b35825f52600560205260405f205461109b57611080906110788387876113ff565b9188866115dc565b15610869576001915f5260056020524260405f205501610fc9565b638ef519d560e01b5f5260045ffd5b63df370ae560e01b5f5260045ffd5b5080851415610fb1565b34610132576020366003190112610132576110dc61131a565b6110e46116c6565b6001600160a01b0316801561059357604051637c13428d60e11b8152602081600481855afa5f9181611183575b506111295750632a4aa22360e11b5f5260045260245ffd5b1561117157600380546001600160a01b0319811683179091556001600160a01b03167fc831910db935648f19a9acfe07a53355b2d00e33523edf8b0b80aa48f6f5dca85f80a3005b632a4aa22360e11b5f5260045260245ffd5b61119d91925060203d6020116101e6576101d881836113a1565b9083611111565b34610132575f366003190112610132576020600454604051908152f35b34610132575f366003190112610132576020600154604051908152f35b34610132575f366003190112610132576002546040516001600160a01b039091168152602090f35b3461013257611214366112e3565b61121c6115a4565b835f52600560205260405f205461109b5760045442116110aa5761124991836112436117a7565b866115dc565b15610869575f82815260056020526040908190204290557ffaf76b5ef3ee6a1b42c79e4744b2596312a788e7cbbaee17f2db55bfc304f7de916001600160a01b036112926117a7565b169382519182526020820152a260015f516020611c0d5f395f51905f5255005b9181601f840112156101325782359167ffffffffffffffff8311610132576020808501948460051b01011161013257565b60606003198201126101325760043591602435916044359067ffffffffffffffff821161013257611316916004016112b2565b9091565b600435906001600160a01b038216820361013257565b60606003198201126101325760043567ffffffffffffffff8111610132578161135b916004016112b2565b9290929160243567ffffffffffffffff8111610132578161137e916004016112b2565b929092916044359067ffffffffffffffff821161013257611316916004016112b2565b90601f8019910116810190811067ffffffffffffffff82111761053c57604052565b90816020910312610132575180151581036101325790565b91908110156113eb5760051b0190565b634e487b7160e01b5f52603260045260245ffd5b91908110156113eb5760051b81013590601e198136030182121561013257019081359167ffffffffffffffff8311610132576020018260051b36038113610132579190565b81835290916001600160fb1b0383116101325760209260051b809284830137010190565b60025460405163429c6e5b60e01b81526004810192909252602090829060249082906001600160a01b03165afa9081156101ed575f916114a6575090565b90506020813d6020116114cd575b816114c1602093836113a1565b81010312610132575190565b3d91506114b4565b67ffffffffffffffff811161053c5760051b60200190565b906114f7826114d5565b61150460405191826113a1565b8281528092611515601f19916114d5565b0190602036910137565b80518210156113eb5760209160051b010190565b6001600160a01b03168015611591575f516020611bed5f395f51905f5280546001600160a01b0319811683179091556001600160a01b03167f8be0079c531659141344cd1fd0a4f28419497f9722a3daafe3b4186f6b6457e05f80a3565b631e4fbdf760e01b5f525f60045260245ffd5b60025f516020611c0d5f395f51905f5254146115cd5760025f516020611c0d5f395f51905f5255565b633ee5aeb560e01b5f5260045ffd5b9194929394604051916020830193845260018060a01b0316604083015260608201526060815261160d6080826113a1565b51902060405160208101918252602081526116296040826113a1565b51902060015492611639856114d5565b9461164760405196876113a1565b808652602086019060051b82019136831161013257905b8282106116b657505050905f915b84518310156116ae5761167f838661151f565b51908181101561169d575f52602052600160405f205b92019161166c565b905f52602052600160405f20611695565b915092501490565b813581526020918201910161165e565b5f516020611bed5f395f51905f52546001600160a01b03908116906116e96117a7565b16036116f157565b6116f96117a7565b63118cdaa760e01b5f9081526001600160a01b0391909116600452602490fd5b60405163a9059cbb60e01b60208281019182526001600160a01b03909416602483015260448083019590955293815290925f916117576064826113a1565b519082855af1156101ed575f513d61179e57506001600160a01b0381163b155b61177e5750565b635274afe760e01b5f9081526001600160a01b0391909116600452602490fd5b60011415611777565b337f00000000000000000000000000000000000000000000000000000000000000006001600160a01b031614806117f5575b156117f1576013193601368111610cee573560601c90565b3390565b5060143610156117d9565b60ff5f516020611c2d5f395f51905f525460401c161561181c57565b631afcd79f60e31b5f5260045ffdfe60803460b857601f6103c138819003918201601f19168301916001600160401b0383118484101760bc5780849260209460405283398101031260b857516001600160a01b0381169081900360b857801560a5575f80546001600160a01b031981168317825560405192916001600160a01b03909116907f8be0079c531659141344cd1fd0a4f28419497f9722a3daafe3b4186f6b6457e09080a36102f090816100d18239f35b631e4fbdf760e01b5f525f60045260245ffd5b5f80fd5b634e487b7160e01b5f52604160045260245ffdfe6080806040526004361015610012575f80fd5b5f3560e01c908163429c6e5b1461023357508063715018a6146101dc5780638da5cb5b146101b5578063bd40bde614610186578063ec5747fe14610125578063f2fde38b1461009c5763f364c90c14610069575f80fd5b34610098576040366003190112610098576004355f526001602052602060243560405f20541015604051908152f35b5f80fd5b34610098576020366003190112610098576004356001600160a01b03811690819003610098576100ca610294565b8015610112575f80546001600160a01b03198116831782556001600160a01b0316907f8be0079c531659141344cd1fd0a4f28419497f9722a3daafe3b4186f6b6457e09080a3005b631e4fbdf760e01b5f525f60045260245ffd5b346100985760407f08401774913e94f43659333293c99fdfdea868c488d679967e054abc8b5ae83461015636610259565b610161949294610294565b845f526001602052825f20610177838254610273565b905582519182526020820152a2005b346100985760206101ab61019936610259565b92915f526001845260405f2054610273565b1115604051908152f35b34610098575f366003190112610098575f546040516001600160a01b039091168152602090f35b34610098575f366003190112610098576101f4610294565b5f80546001600160a01b0319811682556001600160a01b03167f8be0079c531659141344cd1fd0a4f28419497f9722a3daafe3b4186f6b6457e08280a3005b34610098576020366003190112610098576020906004355f526001825260405f20548152f35b606090600319011261009857600435906024359060443590565b9190820180921161028057565b634e487b7160e01b5f52601160045260245ffd5b5f546001600160a01b031633036102a757565b63118cdaa760e01b5f523360045260245ffdfea26469706673582212207936688afcf9217a33abcbbb01acc332c7f531e64aed74d19fc8d85dafc45e5864736f6c634300081c00339016d09d72d40fdae2fd8ceac6b6234c7706214fd39c1cd1e609a0528c1993009b779b17422d0df92223018b32b4d1fa46e071723d6817e2486d003becc55f00f0c57e16840df040f15088dc2f81fe391c3923bec73e23a9662efc9c229c6a00a2646970667358221220b5a1d8c013d6d933c1707ac8d61a069209bae3060ccd2cb63babad1eec45d4c564736f6c634300081c0033f0c57e16840df040f15088dc2f81fe391c3923bec73e23a9662efc9c229c6a00",
  "linkReferences": {},
  "deployedLinkReferences": {}
}