{
  "abi": [
    {
      "type": "constructor",
      "inputs": [
        {
          "name": "forwarder",
          "type": "address",
          "internalType": "address"
        }
      ],
      "stateMutability": "nonpayable"
    },
    {
      "type": "function",
      "name": "DEFAULT_ADMIN_ROLE",
      "inputs": [],
      "outputs": [
        {
          "name": "",
          "type": "bytes32",
          "internalType": "bytes32"
        }
      ],
      "stateMutability": "view"
    },
    {
      "type": "function",
      "name": "createBond",
      "inputs": [
        {
          "name": "name_",
          "type": "string",
          "internalType": "string"
        },
        {
          "name": "symbol_",
          "type": "string",
          "internalType": "string"
        },
        {
          "name": "decimals_",
          "type": "uint8",
          "internalType": "uint8"
        },
        {
          "name": "cap_",
          "type": "uint256",
          "internalType": "uint256"
        },
        {
          "name": "maturityDate_",
          "type": "uint256",
          "internalType": "uint256"
        },
        {
          "name": "faceValue_",
          "type": "uint256",
          "internalType": "uint256"
        },
        {
          "name": "underlyingAsset_",
          "type": "address",
          "internalType": "address"
        },
        {
          "name": "requiredClaimTopics_",
          "type": "uint256[]",
          "internalType": "uint256[]"
        },
        {
          "name": "initialModulePairs_",
          "type": "tuple[]",
          "internalType": "struct SMARTComplianceModuleParamPair[]",
          "components": [
            {
              "name": "module",
              "type": "address",
              "internalType": "address"
            },
            {
              "name": "params",
              "type": "bytes",
              "internalType": "bytes"
            }
          ]
        }
      ],
      "outputs": [
        {
          "name": "deployedBondAddress",
          "type": "address",
          "internalType": "address"
        }
      ],
      "stateMutability": "nonpayable"
    },
    {
      "type": "function",
      "name": "getRoleAdmin",
      "inputs": [
        {
          "name": "role",
          "type": "bytes32",
          "internalType": "bytes32"
        }
      ],
      "outputs": [
        {
          "name": "",
          "type": "bytes32",
          "internalType": "bytes32"
        }
      ],
      "stateMutability": "view"
    },
    {
      "type": "function",
      "name": "grantRole",
      "inputs": [
        {
          "name": "role",
          "type": "bytes32",
          "internalType": "bytes32"
        },
        {
          "name": "account",
          "type": "address",
          "internalType": "address"
        }
      ],
      "outputs": [],
      "stateMutability": "nonpayable"
    },
    {
      "type": "function",
      "name": "hasRole",
      "inputs": [
        {
          "name": "role",
          "type": "bytes32",
          "internalType": "bytes32"
        },
        {
          "name": "account",
          "type": "address",
          "internalType": "address"
        }
      ],
      "outputs": [
        {
          "name": "",
          "type": "bool",
          "internalType": "bool"
        }
      ],
      "stateMutability": "view"
    },
    {
      "type": "function",
      "name": "initialize",
      "inputs": [
        {
          "name": "systemAddress",
          "type": "address",
          "internalType": "address"
        },
        {
          "name": "tokenImplementation_",
          "type": "address",
          "internalType": "address"
        },
        {
          "name": "initialAdmin",
          "type": "address",
          "internalType": "address"
        },
        {
          "name": "identityVerificationModule",
          "type": "address",
          "internalType": "address"
        }
      ],
      "outputs": [],
      "stateMutability": "nonpayable"
    },
    {
      "type": "function",
      "name": "isFactoryAccessManager",
      "inputs": [
        {
          "name": "accessManagerAddress",
          "type": "address",
          "internalType": "address"
        }
      ],
      "outputs": [
        {
          "name": "isFactoryAccessManager",
          "type": "bool",
          "internalType": "bool"
        }
      ],
      "stateMutability": "view"
    },
    {
      "type": "function",
      "name": "isFactoryToken",
      "inputs": [
        {
          "name": "tokenAddress",
          "type": "address",
          "internalType": "address"
        }
      ],
      "outputs": [
        {
          "name": "isFactoryToken",
          "type": "bool",
          "internalType": "bool"
        }
      ],
      "stateMutability": "view"
    },
    {
      "type": "function",
      "name": "isTrustedForwarder",
      "inputs": [
        {
          "name": "forwarder",
          "type": "address",
          "internalType": "address"
        }
      ],
      "outputs": [
        {
          "name": "",
          "type": "bool",
          "internalType": "bool"
        }
      ],
      "stateMutability": "view"
    },
    {
      "type": "function",
      "name": "isValidTokenImplementation",
      "inputs": [
        {
          "name": "tokenImplementation_",
          "type": "address",
          "internalType": "address"
        }
      ],
      "outputs": [
        {
          "name": "",
          "type": "bool",
          "internalType": "bool"
        }
      ],
      "stateMutability": "view"
    },
    {
      "type": "function",
      "name": "predictBondAddress",
      "inputs": [
        {
          "name": "name_",
          "type": "string",
          "internalType": "string"
        },
        {
          "name": "symbol_",
          "type": "string",
          "internalType": "string"
        },
        {
          "name": "decimals_",
          "type": "uint8",
          "internalType": "uint8"
        },
        {
          "name": "cap_",
          "type": "uint256",
          "internalType": "uint256"
        },
        {
          "name": "maturityDate_",
          "type": "uint256",
          "internalType": "uint256"
        },
        {
          "name": "faceValue_",
          "type": "uint256",
          "internalType": "uint256"
        },
        {
          "name": "underlyingAsset_",
          "type": "address",
          "internalType": "address"
        },
        {
          "name": "requiredClaimTopics_",
          "type": "uint256[]",
          "internalType": "uint256[]"
        },
        {
          "name": "initialModulePairs_",
          "type": "tuple[]",
          "internalType": "struct SMARTComplianceModuleParamPair[]",
          "components": [
            {
              "name": "module",
              "type": "address",
              "internalType": "address"
            },
            {
              "name": "params",
              "type": "bytes",
              "internalType": "bytes"
            }
          ]
        }
      ],
      "outputs": [
        {
          "name": "predictedAddress",
          "type": "address",
          "internalType": "address"
        }
      ],
      "stateMutability": "view"
    },
    {
      "type": "function",
      "name": "renounceRole",
      "inputs": [
        {
          "name": "role",
          "type": "bytes32",
          "internalType": "bytes32"
        },
        {
          "name": "callerConfirmation",
          "type": "address",
          "internalType": "address"
        }
      ],
      "outputs": [],
      "stateMutability": "nonpayable"
    },
    {
      "type": "function",
      "name": "revokeRole",
      "inputs": [
        {
          "name": "role",
          "type": "bytes32",
          "internalType": "bytes32"
        },
        {
          "name": "account",
          "type": "address",
          "internalType": "address"
        }
      ],
      "outputs": [],
      "stateMutability": "nonpayable"
    },
    {
      "type": "function",
      "name": "supportsInterface",
      "inputs": [
        {
          "name": "interfaceId",
          "type": "bytes4",
          "internalType": "bytes4"
        }
      ],
      "outputs": [
        {
          "name": "",
          "type": "bool",
          "internalType": "bool"
        }
      ],
      "stateMutability": "view"
    },
    {
      "type": "function",
      "name": "tokenImplementation",
      "inputs": [],
      "outputs": [
        {
          "name": "",
          "type": "address",
          "internalType": "address"
        }
      ],
      "stateMutability": "view"
    },
    {
      "type": "function",
      "name": "trustedForwarder",
      "inputs": [],
      "outputs": [
        {
          "name": "",
          "type": "address",
          "internalType": "address"
        }
      ],
      "stateMutability": "view"
    },
    {
      "type": "function",
      "name": "typeId",
      "inputs": [],
      "outputs": [
        {
          "name": "",
          "type": "bytes32",
          "internalType": "bytes32"
        }
      ],
      "stateMutability": "view"
    },
    {
      "type": "function",
      "name": "updateTokenImplementation",
      "inputs": [
        {
          "name": "newImplementation",
          "type": "address",
          "internalType": "address"
        }
      ],
      "outputs": [],
      "stateMutability": "nonpayable"
    },
    {
      "type": "event",
      "name": "BondCreated",
      "inputs": [
        {
          "name": "sender",
          "type": "address",
          "indexed": true,
          "internalType": "address"
        },
        {
          "name": "tokenAddress",
          "type": "address",
          "indexed": true,
          "internalType": "address"
        },
        {
          "name": "name",
          "type": "string",
          "indexed": false,
          "internalType": "string"
        },
        {
          "name": "symbol",
          "type": "string",
          "indexed": false,
          "internalType": "string"
        },
        {
          "name": "decimals",
          "type": "uint8",
          "indexed": false,
          "internalType": "uint8"
        },
        {
          "name": "cap",
          "type": "uint256",
          "indexed": false,
          "internalType": "uint256"
        },
        {
          "name": "maturityDate",
          "type": "uint256",
          "indexed": false,
          "internalType": "uint256"
        },
        {
          "name": "faceValue",
          "type": "uint256",
          "indexed": false,
          "internalType": "uint256"
        },
        {
          "name": "underlyingAsset",
          "type": "address",
          "indexed": false,
          "internalType": "address"
        }
      ],
      "anonymous": false
    },
    {
      "type": "event",
      "name": "Initialized",
      "inputs": [
        {
          "name": "version",
          "type": "uint64",
          "indexed": false,
          "internalType": "uint64"
        }
      ],
      "anonymous": false
    },
    {
      "type": "event",
      "name": "RoleAdminChanged",
      "inputs": [
        {
          "name": "role",
          "type": "bytes32",
          "indexed": true,
          "internalType": "bytes32"
        },
        {
          "name": "previousAdminRole",
          "type": "bytes32",
          "indexed": true,
          "internalType": "bytes32"
        },
        {
          "name": "newAdminRole",
          "type": "bytes32",
          "indexed": true,
          "internalType": "bytes32"
        }
      ],
      "anonymous": false
    },
    {
      "type": "event",
      "name": "RoleGranted",
      "inputs": [
        {
          "name": "role",
          "type": "bytes32",
          "indexed": true,
          "internalType": "bytes32"
        },
        {
          "name": "account",
          "type": "address",
          "indexed": true,
          "internalType": "address"
        },
        {
          "name": "sender",
          "type": "address",
          "indexed": true,
          "internalType": "address"
        }
      ],
      "anonymous": false
    },
    {
      "type": "event",
      "name": "RoleRevoked",
      "inputs": [
        {
          "name": "role",
          "type": "bytes32",
          "indexed": true,
          "internalType": "bytes32"
        },
        {
          "name": "account",
          "type": "address",
          "indexed": true,
          "internalType": "address"
        },
        {
          "name": "sender",
          "type": "address",
          "indexed": true,
          "internalType": "address"
        }
      ],
      "anonymous": false
    },
    {
      "type": "event",
      "name": "TokenAssetCreated",
      "inputs": [
        {
          "name": "sender",
          "type": "address",
          "indexed": true,
          "internalType": "address"
        },
        {
          "name": "tokenAddress",
          "type": "address",
          "indexed": true,
          "internalType": "address"
        },
        {
          "name": "tokenIdentity",
          "type": "address",
          "indexed": true,
          "internalType": "address"
        },
        {
          "name": "interfaces",
          "type": "bytes4[]",
          "indexed": false,
          "internalType": "bytes4[]"
        },
        {
          "name": "accessManager",
          "type": "address",
          "indexed": false,
          "internalType": "address"
        }
      ],
      "anonymous": false
    },
    {
      "type": "event",
      "name": "TokenImplementationUpdated",
      "inputs": [
        {
          "name": "sender",
          "type": "address",
          "indexed": true,
          "internalType": "address"
        },
        {
          "name": "oldImplementation",
          "type": "address",
          "indexed": true,
          "internalType": "address"
        },
        {
          "name": "newImplementation",
          "type": "address",
          "indexed": true,
          "internalType": "address"
        }
      ],
      "anonymous": false
    },
    {
      "type": "error",
      "name": "AccessControlBadConfirmation",
      "inputs": []
    },
    {
      "type": "error",
      "name": "AccessControlUnauthorizedAccount",
      "inputs": [
        {
          "name": "account",
          "type": "address",
          "internalType": "address"
        },
        {
          "name": "neededRole",
          "type": "bytes32",
          "internalType": "bytes32"
        }
      ]
    },
    {
      "type": "error",
      "name": "AccessManagerAlreadyDeployed",
      "inputs": [
        {
          "name": "predictedAddress",
          "type": "address",
          "internalType": "address"
        }
      ]
    },
    {
      "type": "error",
      "name": "AddressAlreadyDeployed",
      "inputs": [
        {
          "name": "predictedAddress",
          "type": "address",
          "internalType": "address"
        }
      ]
    },
    {
      "type": "error",
      "name": "Create2EmptyBytecode",
      "inputs": []
    },
    {
      "type": "error",
      "name": "FailedDeployment",
      "inputs": []
    },
    {
      "type": "error",
      "name": "InsufficientBalance",
      "inputs": [
        {
          "name": "balance",
          "type": "uint256",
          "internalType": "uint256"
        },
        {
          "name": "needed",
          "type": "uint256",
          "internalType": "uint256"
        }
      ]
    },
    {
      "type": "error",
      "name": "InvalidIdentityVerificationModuleAddress",
      "inputs": []
    },
    {
      "type": "error",
      "name": "InvalidImplementationAddress",
      "inputs": []
    },
    {
      "type": "error",
      "name": "InvalidInitialization",
      "inputs": []
    },
    {
      "type": "error",
      "name": "InvalidTokenAddress",
      "inputs": []
    },
    {
      "type": "error",
      "name": "NotInitializing",
      "inputs": []
    },
    {
      "type": "error",
      "name": "ProxyCreationFailed",
      "inputs": []
    },
    {
      "type": "error",
      "name": "TokenIdentityAddressMismatch",
      "inputs": [
        {
          "name": "deployedTokenIdentityAddress",
          "type": "address",
          "internalType": "address"
        },
        {
          "name": "tokenIdentityAddress",
          "type": "address",
          "internalType": "address"
        }
      ]
    }
  ],
  "bytecode": {
    "object": "0x60a03461011057601f612a6038819003918201601f19168301916001600160401b038311848410176101145780849260209460405283398101031261011057516001600160a01b0381168103610110576080525f516020612a405f395f51905f525460ff8160401c16610101576002600160401b03196001600160401b038216016100ab575b60405161291790816101298239608051818181610c8201528181610cd10152611abb0152f35b6001600160401b0319166001600160401b039081175f516020612a405f395f51905f52556040519081527fc7f505b2f371ae2175ee4913f4499e1f2633a7b5936321eed1cdaeb6115181d290602090a15f610085565b63f92ee8a960e01b5f5260045ffd5b5f80fd5b634e487b7160e01b5f52604160045260245ffdfe6080806040526004361015610012575f80fd5b5f3560e01c90816301ffc9a714610e475750806320ff43ad14610e0a578063248a9ca314610dcb5780632f2ff15d14610d815780632f3a3d5d14610d5957806336568abe14610d05578063572b6c0514610cb15780637da0a87714610c6d5780638f940f6314610c3357806391d1485414610bde578063995087de14610b5d578063a217fddf14610b43578063a4b7914e14610b07578063d20dd34914610a2a578063d547741f146109d9578063ddedbbce146108f6578063f8c8765e146106245763fb482bcc146100e2575f80fd5b346104ae576100f036610fc8565b9694959061010282878b95979b6116d3565b9761010b6112f0565b61011c610116611ab8565b8a611b11565b92906001600160a01b0361012f8c61171e565b1693845f52600160205260ff60405f205416610611576001600160a01b03916101589190611c1c565b169283036105ef57876101d2866101c4868f8e8a918e8e61019f6102149b61019988888e825f52600160205260405f20600160ff198254161790558d611760565b9d611894565b926101a86119d8565b948d6101b2611a38565b976040519d8e9c8d60203091016111e6565b03601f198101835282610f2a565b61020e6107fb9b8c6040519d8e6101ec6020830182610f2a565b52611c6760208f01396101fd6112f0565b6002546001600160a01b0316611be9565b9a611a78565b805160208201206001600160a01b03906102309030908d611bc0565b16998a5f525f60205260ff60405f2054166105fe579061024f91611c1c565b6001600160a01b038116999092908a036105ef575f8a81526020818152604091829020805460ff191660011790556002549151633c73911160e11b81529491859060049082906001600160a01b03165afa9384156104a3576102ee9460209284925f926105d0575b506040516355c759ed60e01b81526001600160a01b03918216600482015292166024830152909485919082905f9082906044820190565b03926001600160a01b03165af19283156104a3575f9361059c575b50600490610315611ab8565b935f8c604051948580926303faa45560e31b82525afa9283156104a3575f936104f7575b506040805181815284519181018290526001600160a01b039092169586948e946060850194939091602001905f5b8181106104c75750505060208301526001600160a01b0316917f32100191aac720b586d5e0c2e7856cb5cec1e145c75639b03f4b0d4d17d05435919081900390a46001600160a01b0316908181036104b257506001600160a01b0390506103cc611a38565b1693843b156104ae575f8095602460405180988193631105e3d560e31b83528d60048401525af19384156104a35760209989987fa00ecfb24be02e57c24dd8e84a330ef361b3ad1e717d98f35e24d68c7669602c9761045697610493575b5060ff6104646001600160a01b03610440611ab8565b169a604051998a9960e08b5260e08b01906111c2565b9089820360208b01526111c2565b951660408701526060860152608085015260a08401526001600160a01b031660c08301520390a3604051908152f35b5f61049d91610f2a565b5f61042a565b6040513d5f823e3d90fd5b5f80fd5b631a13f74960e11b5f5260045260245260445ffd5b92949650929460019197506020809163ffffffff60e01b8a511681520197019101908f9593919289979593610367565b9092503d805f833e6105098183610f2a565b8101906020818303126104ae5780519067ffffffffffffffff82116104ae57019080601f830112156104ae5781519061054182610fb0565b9261054f6040519485610f2a565b82845260208085019360051b8201019182116104ae57602001915b81831061057b57505050915f610339565b82516001600160e01b0319811681036104ae5781526020928301920161056a565b60049193506105c29060203d6020116105c9575b6105ba8183610f2a565b810190611741565b9290610309565b503d6105b0565b6105e8919250843d86116105c9576105ba8183610f2a565b905f6102b7565b6335279f5d60e21b5f5260045ffd5b8a63d0dc594960e01b5f5260045260245ffd5b84631372e33d60e01b5f5260045260245ffd5b346104ae5760803660031901126104ae5761063d610ece565b610645610ee4565b6044356001600160a01b03811692908381036104ae576064356001600160a01b03811693908490036104ae575f5160206128eb5f395f51905f52549460ff8660401c16159567ffffffffffffffff8116801590816108ee575b60011490816108e4575b1590816108db575b506108cc5767ffffffffffffffff1981166001175f5160206128eb5f395f51905f5255866108a0575b5015610891576001600160a01b03169081158061083a575b61082b57831580156107c3575b6107b4578061070f610715926113da565b5061149c565b506001600160601b0360a01b600354161760035560018060a01b03166001600160601b0360a01b60025416176002556001600160601b0360a01b600454161760045561075d57005b68ff0000000000000000195f5160206128eb5f395f51905f5254165f5160206128eb5f395f51905f52557fc7f505b2f371ae2175ee4913f4499e1f2633a7b5936321eed1cdaeb6115181d2602060405160018152a1005b635bedad7f60e01b5f5260045ffd5b506040516301ffc9a760e01b8152638c30a94360e01b6004820152602081602481885afa9081156104a3575f916107fc575b50156106fe565b61081e915060203d602011610824575b6108168183610f2a565b8101906111aa565b866107f5565b503d61080c565b63325c055b60e21b5f5260045ffd5b506040516301ffc9a760e01b8152630d67380360e31b6004820152602081602481865afa9081156104a3575f91610872575b506106f1565b61088b915060203d602011610824576108168183610f2a565b8661086c565b630f58058360e11b5f5260045ffd5b68ffffffffffffffffff191668010000000000000001175f5160206128eb5f395f51905f5255866106d9565b63f92ee8a960e01b5f5260045ffd5b905015886106b0565b303b1591506106a8565b88915061069e565b346104ae5761090436610fc8565b93909296959794916109178988886116d3565b976109218961171e565b9561092e878c8b8b611760565b9561093891611894565b926109416119d8565b9461094a611a38565b6040519c8d9b6109619b9299923060208f016111e6565b03601f19810183526109739083610f2a565b604051906107fb6109876020820184610f2a565b808352611c6760208401396002546109a891906001600160a01b0316611be9565b916109b291611a78565b3090805190602001206109c492611bc0565b6040516001600160a01b039091168152602090f35b346104ae5760403660031901126104ae57610a286004356109f8610ee4565b90610a23610a1e825f525f5160206128cb5f395f51905f52602052600160405f20015490565b61137e565b61162a565b005b346104ae5760203660031901126104ae57610a43610ece565b610a4b611ab8565b6001600160a01b0381165f9081527fb7db2dd08fcb62d0c9e08c51941cae53c267786a0b75803fb7960902fc8ef97d602052604090205460ff1615610ae957506001600160a01b0316801561082b57600380546001600160a01b0319811683179091556001600160a01b0390811690610ac2611ab8565b167fe1f3806f643d2e258028ad292fef274cc5cd62ffcd3e4cb5052e0fe2f518317d5f80a4005b63e2517d3f60e01b5f5260018060a01b03166004525f60245260445ffd5b346104ae5760203660031901126104ae576001600160a01b03610b28610ece565b165f525f602052602060ff60405f2054166040519015158152f35b346104ae575f3660031901126104ae5760206040515f8152f35b346104ae5760203660031901126104ae57602460206001600160a01b03610b82610ece565b6040516301ffc9a760e01b815263563138fd60e01b600482015293849290918391165afa80156104a3576020915f91610bc1575b506040519015158152f35b610bd89150823d8411610824576108168183610f2a565b82610bb6565b346104ae5760403660031901126104ae57610bf7610ee4565b6004355f525f5160206128cb5f395f51905f5260205260405f209060018060a01b03165f52602052602060ff60405f2054166040519015158152f35b346104ae575f3660031901126104ae5760206040517f540bd045e8acfba188cad19b4893ed6ef482e443cf03eb8ef82b0901d0214daa8152f35b346104ae575f3660031901126104ae576040517f00000000000000000000000000000000000000000000000000000000000000006001600160a01b03168152602090f35b346104ae5760203660031901126104ae576020610ccc610ece565b6040517f00000000000000000000000000000000000000000000000000000000000000006001600160a01b039081169216919091148152f35b346104ae5760403660031901126104ae57610d1e610ee4565b6001600160a01b03610d2e611ab8565b166001600160a01b03821603610d4a57610a289060043561162a565b63334bd91960e11b5f5260045ffd5b346104ae575f3660031901126104ae576003546040516001600160a01b039091168152602090f35b346104ae5760403660031901126104ae57610a28600435610da0610ee4565b90610dc6610a1e825f525f5160206128cb5f395f51905f52602052600160405f20015490565b611579565b346104ae5760203660031901126104ae576020610e026004355f525f5160206128cb5f395f51905f52602052600160405f20015490565b604051908152f35b346104ae5760203660031901126104ae576001600160a01b03610e2b610ece565b165f526001602052602060ff60405f2054166040519015158152f35b346104ae5760203660031901126104ae576004359063ffffffff60e01b82168092036104ae57602091631352c80160e11b8114908115610e89575b5015158152f35b634ea2ccdd60e01b811491508115610ea3575b5083610e82565b637965db0b60e01b811491508115610ebd575b5083610e9c565b6301ffc9a760e01b14905083610eb6565b600435906001600160a01b03821682036104ae57565b602435906001600160a01b03821682036104ae57565b6040810190811067ffffffffffffffff821117610f1657604052565b634e487b7160e01b5f52604160045260245ffd5b90601f8019910116810190811067ffffffffffffffff821117610f1657604052565b92919267ffffffffffffffff8211610f165760405191610f76601f8201601f191660200184610f2a565b8294818452818301116104ae578281602093845f960137010152565b9080601f830112156104ae57816020610fad93359101610f4c565b90565b67ffffffffffffffff8111610f165760051b60200190565b6101206003198201126104ae5760043567ffffffffffffffff81116104ae5781610ff491600401610f92565b9160243567ffffffffffffffff81116104ae578261101491600401610f92565b9160443560ff811681036104ae5791606435916084359160a4359160c4356001600160a01b03811681036104ae579160e43567ffffffffffffffff81116104ae57826023820112156104ae5780600401359061106f82610fb0565b9161107d6040519384610f2a565b8083526024602084019160051b830101918583116104ae57602401905b82821061119a57505050916101043567ffffffffffffffff81116104ae57816023820112156104ae578060040135906110d282610fb0565b926110e06040519485610f2a565b8284526024602085019360051b830101918183116104ae5760248101935b83851061110d57505050505090565b843567ffffffffffffffff81116104ae57820190604082850360231901126104ae576040519161113c83610efa565b60248101356001600160a01b03811681036104ae578352604481013567ffffffffffffffff81116104ae5760249101019084601f830112156104ae5760209261118b8684868096359101610f4c565b838201528152019401936110fe565b813581526020918201910161109a565b908160209103126104ae575180151581036104ae5790565b805180835260209291819084018484015e5f828201840152601f01601f1916010190565b9a9c999795939d9b9896949261121760ff936101a08e6112259560018060a01b0316815281602082015201906111c2565b8c810360408e0152906111c2565b9c1660608a015260018060a01b0316608089015260a088015260c087015260e086015260018060a01b0316610100850152838703610120850152805180885260208801906020808260051b8b01019301915f905b8282106112ac57505050506001600160a01b03958616610140850152908516610160840152931661018090910152909150565b909192936020806112e26001938e601f199082030186526040838a51878060a01b038151168452015191818582015201906111c2565b960192019201909291611279565b6112f8611ab8565b6001600160a01b0381165f9081527f8f7e9a8734279607aeaac474f24949ddc99eae25c0da72edcf5ad21022be2c9e602052604090205460ff161561133a5750565b63e2517d3f60e01b5f9081526001600160a01b03919091166004527ffc425f2263d0df187444b70e47283d622c70181c5baebb1306a01edba1ce184c602452604490fd5b611386611ab8565b815f525f5160206128cb5f395f51905f5260205260405f2060018060a01b0382165f5260205260ff60405f205416156113bd575050565b63e2517d3f60e01b5f5260018060a01b031660045260245260445ffd5b6001600160a01b0381165f9081527fb7db2dd08fcb62d0c9e08c51941cae53c267786a0b75803fb7960902fc8ef97d602052604090205460ff16611497576001600160a01b038181165f9081527fb7db2dd08fcb62d0c9e08c51941cae53c267786a0b75803fb7960902fc8ef97d60205260409020805460ff19166001179055611462611ab8565b16906001600160a01b03165f7f2f8788117e7eff1d82e926ec794901d17c78024a50270940304540a733656f0d8180a4600190565b505f90565b6001600160a01b0381165f9081527f8f7e9a8734279607aeaac474f24949ddc99eae25c0da72edcf5ad21022be2c9e602052604090205460ff16611497576001600160a01b038181165f9081527f8f7e9a8734279607aeaac474f24949ddc99eae25c0da72edcf5ad21022be2c9e60205260409020805460ff19166001179055611524611ab8565b16906001600160a01b03167ffc425f2263d0df187444b70e47283d622c70181c5baebb1306a01edba1ce184c7f2f8788117e7eff1d82e926ec794901d17c78024a50270940304540a733656f0d5f80a4600190565b5f8181525f5160206128cb5f395f51905f52602090815260408083206001600160a01b038616845290915290205460ff16611624575f8181525f5160206128cb5f395f51905f52602090815260408083206001600160a01b0386811685529252909120805460ff191660011790556115ef611ab8565b16916001600160a01b0316907f2f8788117e7eff1d82e926ec794901d17c78024a50270940304540a733656f0d5f80a4600190565b50505f90565b5f8181525f5160206128cb5f395f51905f52602090815260408083206001600160a01b038616845290915290205460ff1615611624575f8181525f5160206128cb5f395f51905f52602090815260408083206001600160a01b0386811685529252909120805460ff1916905561169e611ab8565b16916001600160a01b0316907ff6391f5c32d9c69d2a47ea670b442974b53935d1edc7fd64eb21e047a839171b5f80a4600190565b6116f79260ff611709610fad946040519687956060602088015260808701906111c2565b858103601f19016040870152906111c2565b9116606083015203601f198101835282610f2a565b611733610fad9161172d611ab8565b90611b11565b602081519101203091611bc0565b908160209103126104ae57516001600160a01b03811681036104ae5790565b600254604051633c73911160e11b815293949190602090859060049082906001600160a01b03165afa9081156104a3576117dd956020955f93611825575b506117cb929360ff60405198899788968796637a3f5df760e11b88526080600489015260848801906111c2565b868103600319016024880152906111c2565b921660448401526001600160a01b03908116606484015291900392165afa9081156104a3575f9161180c575090565b610fad915060203d6020116105c9576105ba8183610f2a565b6117cb935061184090873d89116105c9576105ba8183610f2a565b9261179e565b6040519061185382610efa565b60606020835f81520152565b80511561186c5760200190565b634e487b7160e01b5f52603260045260245ffd5b805182101561186c5760209160051b010190565b8051600181019392908410611990576118ac84610fb0565b936118ba6040519586610f2a565b8085526118c9601f1991610fb0565b015f5b8181106119c15750506118dd611846565b5060018060a01b0360045416906040519081604081019160208083015280518093526020606083019101925f5b8181106119a8575050611926925003601f198101835282610f2a565b6040519161193383610efa565b825260208201526119438461185f565b5261194d8361185f565b505f5b81518110156119a4576119638183611880565b5190600181019182821161199057826119899161198260019589611880565b5286611880565b5001611950565b634e487b7160e01b5f52601160045260245ffd5b5050565b845183526020948501948694509092019160010161190a565b6020906119cc611846565b828289010152016118cc565b60025460405163d62def8f60e01b815290602090829060049082906001600160a01b03165afa9081156104a3575f91611a19575b506001600160a01b031690565b611a32915060203d6020116105c9576105ba8183610f2a565b5f611a0c565b6002546040516398468e5160e01b815290602090829060049082906001600160a01b03165afa9081156104a3575f91611a1957506001600160a01b031690565b611ab6906020808095946040519684889551918291018487015e8401908282015f8152815193849201905e01015f815203601f198101845283610f2a565b565b337f00000000000000000000000000000000000000000000000000000000000000006001600160a01b03161480611b06575b15611b02576013193601368111611990573560601c90565b3390565b506014361015611aea565b9190610fad90611b9d60018060a01b036002541694604051611b71816101c460208201948a86526060604084015260116080840152701058d8d95cdcd3585b9859d95c94d85b1d607a1b60a084015260a0606084015260c08301906111c2565b519020604080516001600160a01b039788166020820152939096169583019590955281606081016101c4565b604051610469611bb06020820183610f2a565b8082526124626020830139611a78565b91600b92604051926040840152602083015281520160ff8153605590206001600160a01b031690565b90611c166101c491604051928391602083019560018060a01b0316865260408084015260608301906111c2565b51902090565b90805115611c57576020815191015ff5903d15198215166104a3576001600160a01b03821615611c4857565b63b06ebf3d60e01b5f5260045ffd5b631328927760e21b5f5260045ffdfe60806040526107fb80380380916100158261010c565b6080396101a08160800191126100f45761002d610175565b60a0516001600160401b0381116100f4578261004b916080016101f0565b60c0516001600160401b0381116100f45783610069916080016101f0565b61007360e061020d565b61007e61010061018b565b6101205161014051610160519161009661018061018b565b6101a0519094906001600160401b0381116100f4576100e59a6100bb9160800161021b565b956100c76101c061018b565b976100d36101e061018b565b996100df61020061018b565b9b61044b565b60405161014990816106928239f35b5f80fd5b634e487b7160e01b5f52604160045260245ffd5b6080601f91909101601f19168101906001600160401b0382119082101761013257604052565b6100f8565b604081019081106001600160401b0382111761013257604052565b601f909101601f19168101906001600160401b0382119082101761013257604052565b608051906001600160a01b03821682036100f457565b51906001600160a01b03821682036100f457565b6001600160401b03811161013257601f01601f191660200190565b9291926101c68261019f565b916101d46040519384610152565b8294818452818301116100f4578281602093845f96015e010152565b9080601f830112156100f457815161020a926020016101ba565b90565b519060ff821682036100f457565b9080601f830112156100f4578151916001600160401b038311610132578260051b916040519361024e6020850186610152565b8452602080850193830101918183116100f45760208101935b83851061027657505050505090565b84516001600160401b0381116100f4578201906040828503601f1901126100f457604051916102a483610137565b6102b06020820161018b565b835260408101516001600160401b0381116100f45760209101019084601f830112156100f4576020926102e986848680965191016101ba565b83820152815201940193610267565b805180835260209291819084018484015e5f828201840152601f01601f1916010190565b9080602083519182815201916020808360051b8301019401925f915b83831061034757505050505090565b909192939460208061037d600193601f198682030187526040838b51878060a01b038151168452015191818582015201906102f8565b97019301930191939290610338565b97610439976104499c979b9e9d9b61042897610415978c60406101609f986103d560ff916103c76104079b61018087526101808701906102f8565b9085820360208701526102f8565b9a1691015260018060a01b031660608d015260808c015260a08b015260c08a015260e089019060018060a01b03169052565b86820361010088015261031c565b6001600160a01b03909916610120850152565b6001600160a01b0316610140830152565b6001600160a01b03909216910152565b565b9b97939b9a96929a999591999894909860018060a01b03811680159081156104f3575b506104e4575f5160206107db5f395f51905f5280546001600160a01b0319166001600160a01b039092169190911790556104a6610588565b60405163ab1fbaa560e01b6020820152909c909b8c9b6104c99b60248e0161038c565b03601f19810182526104db9082610152565b61044991610624565b63fd360a1d60e01b5f5260045ffd5b6040516301ffc9a760e01b8152634ea2ccdd60e01b60048201529150602090829060249082905afa908115610560575f91610531575b50155f61046e565b610553915060203d602011610559575b61054b8183610152565b810190610565565b5f610529565b503d610541565b61057d565b908160209103126100f4575180151581036100f45790565b6040513d5f823e3d90fd5b5f5160206107db5f395f51905f5254604051632f3a3d5d60e01b815290602090829060049082906001600160a01b03165afa908115610560575f916105ea575b506001600160a01b038116156105db5790565b63daa2f31f60e01b5f5260045ffd5b90506020813d60201161061c575b8161060560209383610152565b810103126100f4576106169061018b565b5f6105c8565b3d91506105f8565b6001600160a01b0381161561068257815f929160208493519201905af43d1561067a573d906106528261019f565b916106606040519384610152565b82523d5f602084013e5b156106725750565b602081519101fd5b60609061066a565b63ee0a129760e01b5f5260045ffdfe608060405236156100a8577f1515746737424785433e0dda020fe774d11e0fab6d980530d355fada133c3c705460209060809060049082906001600160a01b0316632f3a3d5d60e01b82525afa80156100a3575f90610076575b6001600160a01b03811661011f5763daa2f31f60e01b5f5260045ffd5b5060203d60201161009c575b8061008f610097926100b7565b6080016100ee565b610059565b503d610082565b610114565b635d82995b60e01b5f5260045ffd5b601f80199101166080016080811067ffffffffffffffff8211176100da57604052565b634e487b7160e01b5f52604160045260245ffd5b602090607f190112610110576080516001600160a01b03811681036101105790565b5f80fd5b6040513d5f823e3d90fd5b5f8091368280378136915af43d5f803e15610138573d5ff35b3d5ffdfea164736f6c634300081c000a1515746737424785433e0dda020fe774d11e0fab6d980530d355fada133c3c70608060405234610171576040610469803803809161001c82610189565b608039126101715761002c6101d7565b61003660a06101ed565b906001600160a01b03811680159081156100ff575b506100f0577f4ec051ecf420fd16e0db567197da76ec7f1f5f47763970d604b97e75cb0064d380546001600160a01b0319166001600160a01b039290921691821790556100e1916100ce916100dc906100a390610224565b60405163189acdbd60e31b60208201526001600160a01b039093166024840152919283906044820190565b03601f1981018452836101b4565b6102b1565b60405161013b908161032e8239f35b633f997a3760e01b5f5260045ffd5b6040516301ffc9a760e01b815263d0f808eb60e01b60048201529150602090829060249082905afa90811561016c575f9161013d575b50155f61004b565b61015f915060203d602011610165575b61015781836101b4565b810190610201565b5f610135565b503d61014d565b610219565b5f80fd5b634e487b7160e01b5f52604160045260245ffd5b6080601f91909101601f19168101906001600160401b038211908210176101af57604052565b610175565b601f909101601f19168101906001600160401b038211908210176101af57604052565b608051906001600160a01b038216820361017157565b51906001600160a01b038216820361017157565b90816020910312610171575180151581036101715790565b6040513d5f823e3d90fd5b6040516344eecc1760e01b815290602090829060049082906001600160a01b03165afa90811561016c575f91610277575b506001600160a01b038116156102685790565b63099d3e0360e21b5f5260045ffd5b90506020813d6020116102a9575b81610292602093836101b4565b81010312610171576102a3906101ed565b5f610255565b3d9150610285565b6001600160a01b0381161561031e57815f929160208493519201905af43d15610316573d906001600160401b0382116101af57604051916102fc601f8201601f1916602001846101b4565b82523d5f602084013e5b1561030e5750565b602081519101fd5b606090610306565b63ee0a129760e01b5f5260045ffdfe608060405236156100dc577f4ec051ecf420fd16e0db567197da76ec7f1f5f47763970d604b97e75cb0064d3546344eecc1760e01b608090815260209160049082906001600160a01b03165afa80156100d1575f90610076575b6001600160a01b0381166100eb5763099d3e0360e21b5f5260045ffd5b5060203d6020116100ca575b601f19601f820116608001906080821067ffffffffffffffff8311176100b6576100b191604052608001610108565b610059565b634e487b7160e01b5f52604160045260245ffd5b503d610082565b6040513d5f823e3d90fd5b635d82995b60e01b5f5260045ffd5b5f8091368280378136915af43d5f803e15610104573d5ff35b3d5ffd5b602090607f19011261012a576080516001600160a01b038116810361012a5790565b5f80fdfea164736f6c634300081c000a02dd7bc7dec4dceedda775e58dd541e08a116c6c53815c0bd028192f7b626800f0c57e16840df040f15088dc2f81fe391c3923bec73e23a9662efc9c229c6a00a164736f6c634300081c000af0c57e16840df040f15088dc2f81fe391c3923bec73e23a9662efc9c229c6a00",
    "linkReferences": {}
  },
  "methodIdentifiers": {
    "DEFAULT_ADMIN_ROLE()": "a217fddf",
    "createBond(string,string,uint8,uint256,uint256,uint256,address,uint256[],(address,bytes)[])": "fb482bcc",
    "getRoleAdmin(bytes32)": "248a9ca3",
    "grantRole(bytes32,address)": "2f2ff15d",
    "hasRole(bytes32,address)": "91d14854",
    "initialize(address,address,address,address)": "f8c8765e",
    "isFactoryAccessManager(address)": "20ff43ad",
    "isFactoryToken(address)": "a4b7914e",
    "isTrustedForwarder(address)": "572b6c05",
    "isValidTokenImplementation(address)": "995087de",
    "predictBondAddress(string,string,uint8,uint256,uint256,uint256,address,uint256[],(address,bytes)[])": "ddedbbce",
    "renounceRole(bytes32,address)": "36568abe",
    "revokeRole(bytes32,address)": "d547741f",
    "supportsInterface(bytes4)": "01ffc9a7",
    "tokenImplementation()": "2f3a3d5d",
    "trustedForwarder()": "7da0a877",
    "typeId()": "8f940f63",
    "updateTokenImplementation(address)": "d20dd349"
  },
  "userdoc": {
    "version": 1,
    "kind": "user",
    "methods": {
      "constructor": {
        "notice": "Constructor for the ATKBondFactoryImplementation."
      },
      "createBond(string,string,uint8,uint256,uint256,uint256,address,uint256[],(address,bytes)[])": {
        "notice": "Creates a new ATK Bond."
      },
      "initialize(address,address,address,address)": {
        "notice": "Initializes the token registry."
      },
      "isFactoryAccessManager(address)": {
        "notice": "Mapping indicating whether an access manager address was deployed by this factory."
      },
      "isFactoryToken(address)": {
        "notice": "Mapping indicating whether a token address was deployed by this factory."
      },
      "isValidTokenImplementation(address)": {
        "notice": "Checks if a given address implements the IATKBond interface."
      },
      "predictBondAddress(string,string,uint8,uint256,uint256,uint256,address,uint256[],(address,bytes)[])": {
        "notice": "Predicts the deployment address of a ATKBondProxy contract."
      },
      "tokenImplementation()": {
        "notice": "Returns the address of the token implementation contract."
      },
      "typeId()": {
        "notice": "Returns a unique identifier for the type of this contract."
      },
      "updateTokenImplementation(address)": {
        "notice": "Updates the address of the token implementation contract."
      }
    },
    "events": {
      "BondCreated(address,address,string,string,uint8,uint256,uint256,uint256,address)": {
        "notice": "Emitted when a new bond is created."
      },
      "TokenAssetCreated(address,address,address,bytes4[],address)": {
        "notice": "Emitted when a new proxy contract is created using CREATE2."
      },
      "TokenImplementationUpdated(address,address,address)": {
        "notice": "Emitted when the token implementation address is updated."
      }
    },
    "errors": {
      "AccessManagerAlreadyDeployed(address)": [
        {
          "notice": "Error when a predicted CREATE2 address for an access manager is already marked as deployed by this factory."
        }
      ],
      "AddressAlreadyDeployed(address)": [
        {
          "notice": "Error when a CREATE2 proxy deployment fails."
        }
      ],
      "InvalidIdentityVerificationModuleAddress()": [
        {
          "notice": "Error when the provided identity verification module address is the zero address."
        }
      ],
      "InvalidImplementationAddress()": [
        {
          "notice": "Error for attempting to unregister a token that is not registered."
        }
      ],
      "InvalidTokenAddress()": [
        {
          "notice": "Custom errors for the factory contract"
        }
      ],
      "ProxyCreationFailed()": [
        {
          "notice": "Error for when the provided token implementation address is the zero address."
        }
      ],
      "TokenIdentityAddressMismatch(address,address)": [
        {
          "notice": "Error when a token identity address mismatch is detected."
        }
      ]
    },
    "notice": "This contract is responsible for creating instances of ATK Bonds."
  },
  "devdoc": {
    "version": 1,
    "kind": "dev",
    "methods": {
      "constructor": {
        "params": {
          "forwarder": "The address of the trusted forwarder for meta-transactions."
        }
      },
      "createBond(string,string,uint8,uint256,uint256,uint256,address,uint256[],(address,bytes)[])": {
        "params": {
          "cap_": "The maximum total supply of the bond tokens.",
          "decimals_": "The number of decimals for the bond tokens.",
          "faceValue_": "The face value of each bond token in the underlying asset's base units.",
          "initialModulePairs_": "An array of initial compliance module and parameter pairs.",
          "maturityDate_": "The Unix timestamp representing the bond's maturity date.",
          "name_": "The name of the bond.",
          "requiredClaimTopics_": "An array of claim topics required for interacting with the bond.",
          "symbol_": "The symbol of the bond.",
          "underlyingAsset_": "The address of the ERC20 token used as the underlying asset for the bond."
        },
        "returns": {
          "deployedBondAddress": "The address of the newly deployed bond contract."
        }
      },
      "getRoleAdmin(bytes32)": {
        "details": "Returns the admin role that controls `role`. See {grantRole} and {revokeRole}. To change a role's admin, use {_setRoleAdmin}."
      },
      "grantRole(bytes32,address)": {
        "details": "Grants `role` to `account`. If `account` had not been already granted `role`, emits a {RoleGranted} event. Requirements: - the caller must have ``role``'s admin role. May emit a {RoleGranted} event."
      },
      "hasRole(bytes32,address)": {
        "details": "Returns `true` if `account` has been granted `role`."
      },
      "initialize(address,address,address,address)": {
        "params": {
          "identityVerificationModule": "The address of the identity verification module.",
          "initialAdmin": "The address to be granted the DEFAULT_ADMIN_ROLE and DEPLOYER_ROLE.",
          "systemAddress": "The address of the `IATKSystem` contract.",
          "tokenImplementation_": "The initial address of the token implementation contract."
        }
      },
      "isTrustedForwarder(address)": {
        "details": "Indicates whether any particular address is the trusted forwarder."
      },
      "isValidTokenImplementation(address)": {
        "params": {
          "tokenImplementation_": "The address of the contract to check."
        },
        "returns": {
          "_0": "bool True if the contract supports the IATKBond interface, false otherwise."
        }
      },
      "predictBondAddress(string,string,uint8,uint256,uint256,uint256,address,uint256[],(address,bytes)[])": {
        "params": {
          "cap_": "The cap of the bond.",
          "decimals_": "The decimals of the bond.",
          "faceValue_": "The face value of the bond.",
          "initialModulePairs_": "The initial compliance module pairs for the bond.",
          "maturityDate_": "The maturity date of the bond.",
          "name_": "The name of the bond.",
          "requiredClaimTopics_": "The required claim topics for the bond.",
          "symbol_": "The symbol of the bond.",
          "underlyingAsset_": "The underlying asset of the bond."
        },
        "returns": {
          "predictedAddress": "The predicted address of the bond contract."
        }
      },
      "renounceRole(bytes32,address)": {
        "details": "Revokes `role` from the calling account. Roles are often managed via {grantRole} and {revokeRole}: this function's purpose is to provide a mechanism for accounts to lose their privileges if they are compromised (such as when a trusted device is misplaced). If the calling account had been revoked `role`, emits a {RoleRevoked} event. Requirements: - the caller must be `callerConfirmation`. May emit a {RoleRevoked} event."
      },
      "revokeRole(bytes32,address)": {
        "details": "Revokes `role` from `account`. If `account` had been granted `role`, emits a {RoleRevoked} event. Requirements: - the caller must have ``role``'s admin role. May emit a {RoleRevoked} event."
      },
      "tokenImplementation()": {
        "returns": {
          "_0": "tokenImplementation The address of the token implementation contract."
        }
      },
      "trustedForwarder()": {
        "details": "Returns the address of the trusted forwarder."
      },
      "updateTokenImplementation(address)": {
        "details": "This function can only be called by an account with the DEFAULT_ADMIN_ROLE.      It allows changing the underlying contract that handles token logic.      Emits a {TokenImplementationUpdated} event on success.",
        "params": {
          "newImplementation": "The new address for the token implementation contract. Cannot be the zero address."
        }
      }
    },
    "events": {
      "BondCreated(address,address,string,string,uint8,uint256,uint256,uint256,address)": {
        "params": {
          "cap": "The maximum total supply of the bond tokens.",
          "decimals": "The number of decimals for the bond tokens.",
          "faceValue": "The face value of each bond token in the underlying asset's base units.",
          "maturityDate": "The Unix timestamp representing the bond's maturity date.",
          "name": "The name of the bond.",
          "sender": "The address of the sender.",
          "symbol": "The symbol of the bond.",
          "tokenAddress": "The address of the newly created token.",
          "underlyingAsset": "The address of the ERC20 token used as the underlying asset for the bond."
        }
      },
      "Initialized(uint64)": {
        "details": "Triggered when the contract has been initialized or reinitialized."
      },
      "RoleAdminChanged(bytes32,bytes32,bytes32)": {
        "details": "Emitted when `newAdminRole` is set as ``role``'s admin role, replacing `previousAdminRole` `DEFAULT_ADMIN_ROLE` is the starting admin for all roles, despite {RoleAdminChanged} not being emitted to signal this."
      },
      "RoleGranted(bytes32,address,address)": {
        "details": "Emitted when `account` is granted `role`. `sender` is the account that originated the contract call. This account bears the admin role (for the granted role). Expected in cases where the role was granted using the internal {AccessControl-_grantRole}."
      },
      "RoleRevoked(bytes32,address,address)": {
        "details": "Emitted when `account` is revoked `role`. `sender` is the account that originated the contract call:   - if using `revokeRole`, it is the admin role bearer   - if using `renounceRole`, it is the role bearer (i.e. `account`)"
      },
      "TokenAssetCreated(address,address,address,bytes4[],address)": {
        "params": {
          "accessManager": "The address of the access manager.",
          "interfaces": "The array of interfaces that the token supports.",
          "sender": "The address of the sender.",
          "tokenAddress": "The address of the newly created token.",
          "tokenIdentity": "The address of the token identity."
        }
      },
      "TokenImplementationUpdated(address,address,address)": {
        "params": {
          "newImplementation": "The address of the new token implementation.",
          "oldImplementation": "The address of the old token implementation."
        }
      }
    },
    "errors": {
      "AccessControlBadConfirmation()": [
        {
          "details": "The caller of a function is not the expected one. NOTE: Don't confuse with {AccessControlUnauthorizedAccount}."
        }
      ],
      "AccessControlUnauthorizedAccount(address,bytes32)": [
        {
          "details": "The `account` is missing a role."
        }
      ],
      "Create2EmptyBytecode()": [
        {
          "details": "There's no code to deploy."
        }
      ],
      "FailedDeployment()": [
        {
          "details": "The deployment failed."
        }
      ],
      "InsufficientBalance(uint256,uint256)": [
        {
          "details": "The ETH balance of the account is not enough to perform the operation."
        }
      ],
      "InvalidInitialization()": [
        {
          "details": "The contract is already initialized."
        }
      ],
      "InvalidTokenAddress()": [
        {
          "details": "Defines custom error types used by the contract for various failure conditions."
        }
      ],
      "NotInitializing()": [
        {
          "details": "The contract is not initializing."
        }
      ]
    },
    "title": "Implementation of the ATK Bond Factory"
  },
  "id": 2
}