{
  "abi": [
    {
      "type": "constructor",
      "inputs": [
        {
          "name": "forwarder",
          "type": "address",
          "internalType": "address"
        }
      ],
      "stateMutability": "nonpayable"
    },
    {
      "type": "function",
      "name": "DEFAULT_ADMIN_ROLE",
      "inputs": [],
      "outputs": [
        {
          "name": "",
          "type": "bytes32",
          "internalType": "bytes32"
        }
      ],
      "stateMutability": "view"
    },
    {
      "type": "function",
      "name": "allSchedulesLength",
      "inputs": [],
      "outputs": [
        {
          "name": "count",
          "type": "uint256",
          "internalType": "uint256"
        }
      ],
      "stateMutability": "view"
    },
    {
      "type": "function",
      "name": "atkFixedYieldScheduleImplementation",
      "inputs": [],
      "outputs": [
        {
          "name": "",
          "type": "address",
          "internalType": "address"
        }
      ],
      "stateMutability": "view"
    },
    {
      "type": "function",
      "name": "create",
      "inputs": [
        {
          "name": "token",
          "type": "address",
          "internalType": "contract ISMARTYield"
        },
        {
          "name": "startTime",
          "type": "uint256",
          "internalType": "uint256"
        },
        {
          "name": "endTime",
          "type": "uint256",
          "internalType": "uint256"
        },
        {
          "name": "rate",
          "type": "uint256",
          "internalType": "uint256"
        },
        {
          "name": "interval",
          "type": "uint256",
          "internalType": "uint256"
        }
      ],
      "outputs": [
        {
          "name": "scheduleProxyAddress",
          "type": "address",
          "internalType": "address"
        }
      ],
      "stateMutability": "nonpayable"
    },
    {
      "type": "function",
      "name": "getRoleAdmin",
      "inputs": [
        {
          "name": "role",
          "type": "bytes32",
          "internalType": "bytes32"
        }
      ],
      "outputs": [
        {
          "name": "",
          "type": "bytes32",
          "internalType": "bytes32"
        }
      ],
      "stateMutability": "view"
    },
    {
      "type": "function",
      "name": "grantRole",
      "inputs": [
        {
          "name": "role",
          "type": "bytes32",
          "internalType": "bytes32"
        },
        {
          "name": "account",
          "type": "address",
          "internalType": "address"
        }
      ],
      "outputs": [],
      "stateMutability": "nonpayable"
    },
    {
      "type": "function",
      "name": "hasRole",
      "inputs": [
        {
          "name": "role",
          "type": "bytes32",
          "internalType": "bytes32"
        },
        {
          "name": "account",
          "type": "address",
          "internalType": "address"
        }
      ],
      "outputs": [
        {
          "name": "",
          "type": "bool",
          "internalType": "bool"
        }
      ],
      "stateMutability": "view"
    },
    {
      "type": "function",
      "name": "initialize",
      "inputs": [
        {
          "name": "systemAddress_",
          "type": "address",
          "internalType": "address"
        },
        {
          "name": "initialAdmin_",
          "type": "address",
          "internalType": "address"
        }
      ],
      "outputs": [],
      "stateMutability": "nonpayable"
    },
    {
      "type": "function",
      "name": "isTrustedForwarder",
      "inputs": [
        {
          "name": "forwarder",
          "type": "address",
          "internalType": "address"
        }
      ],
      "outputs": [
        {
          "name": "",
          "type": "bool",
          "internalType": "bool"
        }
      ],
      "stateMutability": "view"
    },
    {
      "type": "function",
      "name": "renounceRole",
      "inputs": [
        {
          "name": "role",
          "type": "bytes32",
          "internalType": "bytes32"
        },
        {
          "name": "callerConfirmation",
          "type": "address",
          "internalType": "address"
        }
      ],
      "outputs": [],
      "stateMutability": "nonpayable"
    },
    {
      "type": "function",
      "name": "revokeRole",
      "inputs": [
        {
          "name": "role",
          "type": "bytes32",
          "internalType": "bytes32"
        },
        {
          "name": "account",
          "type": "address",
          "internalType": "address"
        }
      ],
      "outputs": [],
      "stateMutability": "nonpayable"
    },
    {
      "type": "function",
      "name": "supportsInterface",
      "inputs": [
        {
          "name": "interfaceId",
          "type": "bytes4",
          "internalType": "bytes4"
        }
      ],
      "outputs": [
        {
          "name": "",
          "type": "bool",
          "internalType": "bool"
        }
      ],
      "stateMutability": "view"
    },
    {
      "type": "function",
      "name": "trustedForwarder",
      "inputs": [],
      "outputs": [
        {
          "name": "",
          "type": "address",
          "internalType": "address"
        }
      ],
      "stateMutability": "view"
    },
    {
      "type": "function",
      "name": "typeId",
      "inputs": [],
      "outputs": [
        {
          "name": "",
          "type": "bytes32",
          "internalType": "bytes32"
        }
      ],
      "stateMutability": "view"
    },
    {
      "type": "function",
      "name": "updateImplementation",
      "inputs": [
        {
          "name": "_newImplementation",
          "type": "address",
          "internalType": "address"
        }
      ],
      "outputs": [],
      "stateMutability": "nonpayable"
    },
    {
      "type": "event",
      "name": "ATKFixedYieldScheduleCreated",
      "inputs": [
        {
          "name": "schedule",
          "type": "address",
          "indexed": true,
          "internalType": "address"
        },
        {
          "name": "creator",
          "type": "address",
          "indexed": true,
          "internalType": "address"
        }
      ],
      "anonymous": false
    },
    {
      "type": "event",
      "name": "ImplementationUpdated",
      "inputs": [
        {
          "name": "oldImplementation",
          "type": "address",
          "indexed": true,
          "internalType": "address"
        },
        {
          "name": "newImplementation",
          "type": "address",
          "indexed": true,
          "internalType": "address"
        }
      ],
      "anonymous": false
    },
    {
      "type": "event",
      "name": "Initialized",
      "inputs": [
        {
          "name": "version",
          "type": "uint64",
          "indexed": false,
          "internalType": "uint64"
        }
      ],
      "anonymous": false
    },
    {
      "type": "event",
      "name": "RoleAdminChanged",
      "inputs": [
        {
          "name": "role",
          "type": "bytes32",
          "indexed": true,
          "internalType": "bytes32"
        },
        {
          "name": "previousAdminRole",
          "type": "bytes32",
          "indexed": true,
          "internalType": "bytes32"
        },
        {
          "name": "newAdminRole",
          "type": "bytes32",
          "indexed": true,
          "internalType": "bytes32"
        }
      ],
      "anonymous": false
    },
    {
      "type": "event",
      "name": "RoleGranted",
      "inputs": [
        {
          "name": "role",
          "type": "bytes32",
          "indexed": true,
          "internalType": "bytes32"
        },
        {
          "name": "account",
          "type": "address",
          "indexed": true,
          "internalType": "address"
        },
        {
          "name": "sender",
          "type": "address",
          "indexed": true,
          "internalType": "address"
        }
      ],
      "anonymous": false
    },
    {
      "type": "event",
      "name": "RoleRevoked",
      "inputs": [
        {
          "name": "role",
          "type": "bytes32",
          "indexed": true,
          "internalType": "bytes32"
        },
        {
          "name": "account",
          "type": "address",
          "indexed": true,
          "internalType": "address"
        },
        {
          "name": "sender",
          "type": "address",
          "indexed": true,
          "internalType": "address"
        }
      ],
      "anonymous": false
    },
    {
      "type": "error",
      "name": "AccessControlBadConfirmation",
      "inputs": []
    },
    {
      "type": "error",
      "name": "AccessControlUnauthorizedAccount",
      "inputs": [
        {
          "name": "account",
          "type": "address",
          "internalType": "address"
        },
        {
          "name": "neededRole",
          "type": "bytes32",
          "internalType": "bytes32"
        }
      ]
    },
    {
      "type": "error",
      "name": "InvalidAddress",
      "inputs": []
    },
    {
      "type": "error",
      "name": "InvalidImplementation",
      "inputs": []
    },
    {
      "type": "error",
      "name": "InvalidInitialization",
      "inputs": []
    },
    {
      "type": "error",
      "name": "NotInitializing",
      "inputs": []
    },
    {
      "type": "error",
      "name": "SameAddress",
      "inputs": []
    }
  ],
  "bytecode": {
    "object": "0x60a03461011757601f61367538819003918201601f19168301916001600160401b0383118484101761011b5780849260209460405283398101031261011757516001600160a01b0381168103610117576080525f5160206136555f395f51905f525460ff8160401c16610108576002600160401b03196001600160401b038216016100b2575b60405161352590816101308239608051818181610548015281816105be0152818161071b0152610f720152f35b6001600160401b0319166001600160401b039081175f5160206136555f395f51905f52556040519081527fc7f505b2f371ae2175ee4913f4499e1f2633a7b5936321eed1cdaeb6115181d290602090a15f610085565b63f92ee8a960e01b5f5260045ffd5b5f80fd5b634e487b7160e01b5f52604160045260245ffdfe6080806040526004361015610012575f80fd5b5f3560e01c90816301ffc9a714610ab657508063025b22bc14610935578063248a9ca3146108f65780632f2ff15d146108ac57806336568abe14610858578063485cc9551461060f57806353ace7d7146105f2578063572b6c051461059e578063766c6572146105775780637da0a877146105335780638f940f63146104f957806391d14854146104a4578063a217fddf1461048a578063d547741f146104395763f9b6b0c4146100c1575f80fd5b346103205760a0366003190112610320576004356001600160a01b038116908190036103205760843590606435906044356024356100fd610f6f565b6001600160a01b0381165f9081527f8f7e9a8734279607aeaac474f24949ddc99eae25c0da72edcf5ad21022be2c9e602052604090205460ff16156103f5575060405160208101903082528460408201528260608201528360808201528560a08201528660c082015260c0815261017560e082610b4f565b51902094610181610f6f565b90604051956104ce948588019488861067ffffffffffffffff8711176103e15760e0978997612feb8939308752602087015260408601526060850152608084015260a08301526001600160a01b031660c08201520301905ff58015610315576001600160a01b03908116906101f4610f6f565b1660405190827f7dfedf0c1cb80fb57932ed59463008b17751cadef1ad1a5135a594bb7ae8768b5f80a3600254680100000000000000008110156103e15760018101806002558110156103cd5760025f527f405787fa12a823e0f2b7631cc41b3ba8828b3321ca811111fa75cd3aa3bb5ace0180546001600160a01b031916831790556001546398468e5160e01b8252602090829060049082906001600160a01b03165afa908115610315575f9161038b575b506001600160a01b03169081151580610324575b6102cb575b602090604051908152f35b813b15610320575f8092602460405180958193631105e3d560e31b83528660048401525af191821561031557602092610305575b506102c0565b5f61030f91610b4f565b5f6102ff565b6040513d5f823e3d90fd5b5f80fd5b506040516301ffc9a760e01b815263118f21f760e31b6004820152602081602481865afa908115610315575f9161035c575b506102bb565b61037e915060203d602011610384575b6103768183610b4f565b810190610b71565b5f610356565b503d61036c565b90506020813d6020116103c5575b816103a660209383610b4f565b8101031261032057516001600160a01b0381168103610320575f6102a7565b3d9150610399565b634e487b7160e01b5f52603260045260245ffd5b634e487b7160e01b5f52604160045260245ffd5b63e2517d3f60e01b5f9081526001600160a01b03919091166004527ffc425f2263d0df187444b70e47283d622c70181c5baebb1306a01edba1ce184c602452604490fd5b3461032057604036600319011261032057610488600435610458610b39565b9061048361047e825f525f5160206134d95f395f51905f52602052600160405f20015490565b610b89565b610ec6565b005b34610320575f3660031901126103205760206040515f8152f35b34610320576040366003190112610320576104bd610b39565b6004355f525f5160206134d95f395f51905f5260205260405f209060018060a01b03165f52602052602060ff60405f2054166040519015158152f35b34610320575f3660031901126103205760206040517fc349193c0fac3c952ad2cb1e7d4ba6a7a87427c1947e175e63964b1e1e06b2418152f35b34610320575f366003190112610320576040517f00000000000000000000000000000000000000000000000000000000000000006001600160a01b03168152602090f35b34610320575f366003190112610320575f546040516001600160a01b039091168152602090f35b346103205760203660031901126103205760206105b9610b23565b6040517f00000000000000000000000000000000000000000000000000000000000000006001600160a01b039081169216919091148152f35b34610320575f366003190112610320576020600254604051908152f35b3461032057604036600319011261032057610628610b23565b610630610b39565b905f5160206134f95f395f51905f52549160ff8360401c16159267ffffffffffffffff811680159081610850575b6001149081610846575b15908161083d575b5061082e5767ffffffffffffffff1981166001175f5160206134f95f395f51905f525583610802575b5060ff5f5160206134f95f395f51905f525460401c16156107f357806106c16106d192610be5565b506106cb81610c94565b50610d5e565b5060018060a01b03166bffffffffffffffffffffffff60a01b600154161760015560405161200e8082019082821067ffffffffffffffff8311176103e1576020918391610fdd83397f00000000000000000000000000000000000000000000000000000000000000006001600160a01b031681520301905ff08015610315575f80546001600160a01b0319166001600160a01b039290921691821781556040519291907faa3f731066a578e5f39b4215468d826cdd15373cbc0dfc9cb9bdc649718ef7da8180a361079e57005b60207fc7f505b2f371ae2175ee4913f4499e1f2633a7b5936321eed1cdaeb6115181d29168ff0000000000000000195f5160206134f95f395f51905f5254165f5160206134f95f395f51905f525560018152a1005b631afcd79f60e31b5f5260045ffd5b68ffffffffffffffffff191668010000000000000001175f5160206134f95f395f51905f525583610699565b63f92ee8a960e01b5f5260045ffd5b90501585610670565b303b159150610668565b85915061065e565b3461032057604036600319011261032057610871610b39565b6001600160a01b03610881610f6f565b166001600160a01b0382160361089d5761048890600435610ec6565b63334bd91960e11b5f5260045ffd5b34610320576040366003190112610320576104886004356108cb610b39565b906108f161047e825f525f5160206134d95f395f51905f52602052600160405f20015490565b610e28565b3461032057602036600319011261032057602061092d6004355f525f5160206134d95f395f51905f52602052600160405f20015490565b604051908152f35b346103205760203660031901126103205761094e610b23565b610956610f6f565b6001600160a01b0381165f9081527fb121b6c2cfb68d56d259fa39abd93d7a85e352365bbcbddf27041e20d031c3d3602052604090205460ff1615610a7257506001600160a01b03168015610a63575f546001600160a01b03811690828214610a54576040516301ffc9a760e01b81526304b5514760e11b6004820152602081602481875afa908115610315575f91610a35575b5015610a26576001600160a01b03191682175f9081557faa3f731066a578e5f39b4215468d826cdd15373cbc0dfc9cb9bdc649718ef7da9080a3005b63340aafcd60e11b5f5260045ffd5b610a4e915060203d602011610384576103768183610b4f565b846109ea565b63367558c360e01b5f5260045ffd5b63e6c4247b60e01b5f5260045ffd5b63e2517d3f60e01b5f9081526001600160a01b03919091166004527fecaefa0171c08a6ded02d98b9432940d3852ef2c7f5007661eb8de37c5a1adc5602452604490fd5b34610320576020366003190112610320576004359063ffffffff60e01b8216809203610320576020916347ed6adb60e11b8114908115610af8575b5015158152f35b637965db0b60e01b811491508115610b12575b5083610af1565b6301ffc9a760e01b14905083610b0b565b600435906001600160a01b038216820361032057565b602435906001600160a01b038216820361032057565b90601f8019910116810190811067ffffffffffffffff8211176103e157604052565b90816020910312610320575180151581036103205790565b610b91610f6f565b815f525f5160206134d95f395f51905f5260205260405f2060018060a01b0382165f5260205260ff60405f20541615610bc8575050565b63e2517d3f60e01b5f5260018060a01b031660045260245260445ffd5b6001600160a01b0381165f9081527fb7db2dd08fcb62d0c9e08c51941cae53c267786a0b75803fb7960902fc8ef97d602052604090205460ff16610c8f576001600160a01b038181165f9081527fb7db2dd08fcb62d0c9e08c51941cae53c267786a0b75803fb7960902fc8ef97d60205260409020805460ff19166001179055610c6d610f6f565b16906001600160a01b03165f5f5160206134b95f395f51905f528180a4600190565b505f90565b6001600160a01b0381165f9081527fb121b6c2cfb68d56d259fa39abd93d7a85e352365bbcbddf27041e20d031c3d3602052604090205460ff16610c8f576001600160a01b038181165f9081527fb121b6c2cfb68d56d259fa39abd93d7a85e352365bbcbddf27041e20d031c3d360205260409020805460ff19166001179055610d1c610f6f565b16906001600160a01b03167fecaefa0171c08a6ded02d98b9432940d3852ef2c7f5007661eb8de37c5a1adc55f5160206134b95f395f51905f525f80a4600190565b6001600160a01b0381165f9081527f8f7e9a8734279607aeaac474f24949ddc99eae25c0da72edcf5ad21022be2c9e602052604090205460ff16610c8f576001600160a01b038181165f9081527f8f7e9a8734279607aeaac474f24949ddc99eae25c0da72edcf5ad21022be2c9e60205260409020805460ff19166001179055610de6610f6f565b16906001600160a01b03167ffc425f2263d0df187444b70e47283d622c70181c5baebb1306a01edba1ce184c5f5160206134b95f395f51905f525f80a4600190565b5f8181525f5160206134d95f395f51905f52602090815260408083206001600160a01b038616845290915290205460ff16610ec0575f8181525f5160206134d95f395f51905f52602090815260408083206001600160a01b0386811685529252909120805460ff19166001179055610e9e610f6f565b16916001600160a01b0316905f5160206134b95f395f51905f525f80a4600190565b50505f90565b5f8181525f5160206134d95f395f51905f52602090815260408083206001600160a01b038616845290915290205460ff1615610ec0575f8181525f5160206134d95f395f51905f52602090815260408083206001600160a01b0386811685529252909120805460ff19169055610f3a610f6f565b16916001600160a01b0316907ff6391f5c32d9c69d2a47ea670b442974b53935d1edc7fd64eb21e047a839171b5f80a4600190565b337f00000000000000000000000000000000000000000000000000000000000000006001600160a01b03161480610fd1575b15610fcd576013193601368111610fb9573560601c90565b634e487b7160e01b5f52601160045260245ffd5b3390565b506014361015610fa156fe60a034607457601f61200e38819003918201601f19168301916001600160401b03831184841017607857808492602094604052833981010312607457516001600160a01b0381168103607457608052604051611f81908161008d823960805181818161065d01528181610be60152611e1b0152f35b5f80fd5b634e487b7160e01b5f52604160045260245ffdfe6080806040526004361015610012575f80fd5b5f3560e01c90816301ffc9a7146112f15750806306040618146112d75780630898c949146112bd5780630b97bc86146112a05780631cf7e1491461118c5780631f28d52c14611172578063248a9ca31461113b57806327614ec4146110db5780632c4e722e146110be5780632f2ff15d1461107457806336568abe146110205780633f4ba83a14610fa3578063406cf22914610c1a578063572b6c0514610bc65780635c975abb14610b985780635df5f96f146106d15780637158da7c146106a95780637b07882e1461068c5780637da0a87714610648578063817ea1441461062a5780638456cb59146105a757806391d1485414610552578063947a36fb14610535578063978fd53b1461051b5780639a95299a146104f85780639fc2f65a146104de578063a206b55014610412578063a217fddf146103f8578063c24a0f8b146103db578063c54293aa14610399578063d1ae38b81461037d578063d547741f1461032c578063e0ecad5a14610207578063f68e5218146101c85763fc0c546a1461019d575f80fd5b346101c4575f3660031901126101c4575f546040516001600160a01b039091168152602090f35b5f80fd5b346101c4575f3660031901126101c45760206101ff6101e5611e18565b6001600160a01b03165f9081526007602052604090205490565b604051908152f35b346101c45760203660031901126101c457610220611344565b610228611a48565b610230611a80565b610238611b44565b6001600160a01b03811690811561031d576001546040516370a0823160e01b81523060048201526001600160a01b0390911690602081602481855afa908115610312575f916102e0575b5080156102d1576102b7817f6f50cd6d1a8ee055bfba8d1998a1e71e64c3a0791f04001b50f038e3c106590994602094611dda565b604051908152a260015f516020611f355f395f51905f5255005b630bc0b2c560e21b5f5260045ffd5b90506020813d60201161030a575b816102fb60209383611460565b810103126101c4575184610282565b3d91506102ee565b6040513d5f823e3d90fd5b634e81208360e01b5f5260045ffd5b346101c45760403660031901126101c45761037b60043561034b61135a565b90610376610371825f525f516020611ef55f395f51905f52602052600160405f20015490565b611ae8565b611cd3565b005b346101c4575f3660031901126101c45760206040516127108152f35b346101c4575f3660031901126101c4576103d76040516103c3816103bc81611a0f565b0382611460565b604051918291602083526020830190611370565b0390f35b346101c4575f3660031901126101c4576020600354604051908152f35b346101c4575f3660031901126101c45760206040515f8152f35b346101c45760203660031901126101c45760043561042e611a48565b610436611b44565b60015461048f906001600160a01b031661044e611e18565b6040516323b872dd60e01b60208201526001600160a01b039091166024820152306044820152606480820185905281529061048a608483611460565b611e9c565b7fabda30aae4846dafeb67b57e0f9fb5af47de85525570e48ced61a3c99a4f8daf60206001600160a01b036104c2611e18565b1692604051908152a260015f516020611f355f395f51905f5255005b346101c4575f3660031901126101c45760206101ff611923565b346101c45760203660031901126101c45760206101ff610516611344565b611660565b346101c4575f3660031901126101c45760206101ff61162a565b346101c4575f3660031901126101c4576020600554604051908152f35b346101c45760403660031901126101c45761056b61135a565b6004355f525f516020611ef55f395f51905f5260205260405f209060018060a01b03165f52602052602060ff60405f2054166040519015158152f35b346101c4575f3660031901126101c4576105bf611a80565b6105c7611b44565b600160ff195f516020611f155f395f51905f525416175f516020611f155f395f51905f52557f62e78cea01bee320cd4e420270b5ea74000d11b0c9f74754ebdbfc544b05a2586020610617611e18565b6040516001600160a01b039091168152a1005b346101c45760203660031901126101c45760206101ff6101e5611344565b346101c4575f3660031901126101c4576040517f00000000000000000000000000000000000000000000000000000000000000006001600160a01b03168152602090f35b346101c4575f3660031901126101c45760206101ff610516611e18565b346101c4575f3660031901126101c4576001546040516001600160a01b039091168152602090f35b346101c45760c03660031901126101c4576106ea611344565b60a4356044356024356064356084356001600160a01b03851685036101c4575f516020611f555f395f51905f52549560ff8760401c16159667ffffffffffffffff811680159081610b90575b6001149081610b86575b159081610b7d575b50610b6e5767ffffffffffffffff1981166001175f516020611f555f395f51905f525587610b42575b5061077a611e71565b610782611e71565b61078a611e71565b610792611e71565b60015f516020611f355f395f51905f52556001600160a01b03168015610b33574284111580610b29575b610b1a5783851115610b0b578215610afc578115610aed575f80546001600160a01b031916821790556040516376d5de8560e01b815290602090829060049082905afa908115610312575f91610aab575b50600180546001600160a01b0319166001600160a01b039290921691821790551561031d57826002558360035581600455806005556108558161085085876113a3565b6113b0565b600181018091116109f15761086981611d94565b80519067ffffffffffffffff8211610a9757680100000000000000008211610a975760065482600655808310610a39575b5060200160065f525f5b828110610a05575050505f5b8181106109915787610933887f257d94ac1c207cc7e5778ea325814452897ee07f059fea0c16b7b6f347be78b1898989896108e9611923565b9060018060a01b036001541692604051958695865260208601526040850152606084015260e0608084015261092060e08401611a0f565b9160a084015260c08301520390a1611b6b565b5061093a57005b68ff0000000000000000195f516020611f555f395f51905f5254165f516020611f555f395f51905f52557fc7f505b2f371ae2175ee4913f4499e1f2633a7b5936321eed1cdaeb6115181d2602060405160018152a1005b60025490600181018082116109f1576001926109b36109b992600554906114bc565b906113ce565b6003548082116109e9575b506109ce82611490565b819291549060031b91821b915f19901b1916179055016108b0565b90508a6109c4565b634e487b7160e01b5f52601160045260245ffd5b60019060208351930192817ff652222313e28459528d920b65115c16c04f3efc82aaedc97be59f3f377c0d3f0155016108a4565b7ff652222313e28459528d920b65115c16c04f3efc82aaedc97be59f3f377c0d3f01827ff652222313e28459528d920b65115c16c04f3efc82aaedc97be59f3f377c0d3f015b818110610a8c575061089a565b5f8155600101610a7f565b634e487b7160e01b5f52604160045260245ffd5b90506020813d602011610ae5575b81610ac660209383611460565b810103126101c457516001600160a01b03811681036101c4578761080d565b3d9150610ab9565b6305fabb6160e41b5f5260045ffd5b636a43f8d160e01b5f5260045ffd5b63398145cf60e11b5f5260045ffd5b630bf784c760e01b5f5260045ffd5b50600254156107bc565b63c1ab6dc160e01b5f5260045ffd5b68ffffffffffffffffff191668010000000000000001175f516020611f555f395f51905f525587610771565b63f92ee8a960e01b5f5260045ffd5b90501589610748565b303b159150610740565b899150610736565b346101c4575f3660031901126101c457602060ff5f516020611f155f395f51905f5254166040519015158152f35b346101c45760203660031901126101c4576020610be1611344565b6040517f00000000000000000000000000000000000000000000000000000000000000006001600160a01b039081169216919091148152f35b346101c4575f3660031901126101c457610c32611a48565b610c3a611b44565b610c4261162a565b60018110610dcc57610c52611e18565b6001600160a01b0381165f81815260076020526040902054909291600182019182106109f157828211610dcc575f546040516340f2de1b60e11b815260048101869052936001600160a01b0390911690602085602481855afa948515610312575f95610f6f575b505f92610cc685836113a3565b600181018091116109f157610cda90611d94565b92610ce586846113a3565b600181018091116109f157610cf990611d94565b96865b84811115610ddb575050508315610dcc577fb119cb4f54a2303fcdbc4f7a2c39dc38eb1368d94ac4571f4eddac9c4f0c28ba95610d6585610dab938a5f5260076020528560405f2055610d51826008546113ce565b6008556001546001600160a01b0316611dda565b610d9d610d706114cf565b94610d79611923565b9460405198899889526020890152604088015260e0606088015260e0870190611370565b908582036080870152611370565b9160a084015260c08301520390a260015f516020611f355f395f51905f5255005b633dfa692b60e11b5f5260045ffd5b5f1981018181116109f157806020610df5610e2b93611490565b905460405163277166bf60e11b81526001600160a01b038a16600482015260039290921b1c602482015292839081906044820190565b0381885afa80156103125784905f90610f3a575b610e51935080610f03575b5050611490565b9054604051630981b24d60e41b815260039290921b1c600482015290602082602481875afa8015610312575f90610ed0575b610e9692508381610e9b575b5050611482565b610cfc565b610eab610eb491612710936114bc565b600454906114bc565b04610ec8610ec28b846113a3565b8c611dc6565b528b83610e8f565b506020823d8211610efb575b81610ee960209383611460565b810103126101c457610e969151610e83565b3d9150610edc565b610f16610eab610f1e93612710936114bc565b04809a6113ce565b98610f32610f2c8c866113a3565b8a611dc6565b52838d610e4a565b50506020823d8211610f67575b81610f5460209383611460565b810103126101c45783610e519251610e3f565b3d9150610f47565b9094506020813d602011610f9b575b81610f8b60209383611460565b810103126101c457519386610cb9565b3d9150610f7e565b346101c4575f3660031901126101c457610fbb611a80565b5f516020611f155f395f51905f525460ff8116156110115760ff19165f516020611f155f395f51905f52557f5db9ee0a495bf2e6ff9c91a7834c1ba4fdd244a5e8aa4e537bd38aeae4b073aa6020610617611e18565b638dfc202b60e01b5f5260045ffd5b346101c45760403660031901126101c45761103961135a565b6001600160a01b03611049611e18565b166001600160a01b038216036110655761037b90600435611cd3565b63334bd91960e11b5f5260045ffd5b346101c45760403660031901126101c45761037b60043561109361135a565b906110b9610371825f525f516020611ef55f395f51905f52602052600160405f20015490565b611c28565b346101c4575f3660031901126101c4576020600454604051908152f35b346101c45760203660031901126101c45760043580158015611130575b611121575f1981019081116109f157611112602091611490565b90549060031b1c604051908152f35b6302e8f35960e31b5f5260045ffd5b5060065481116110f8565b346101c45760203660031901126101c45760206101ff6004355f525f516020611ef55f395f51905f52602052600160405f20015490565b346101c4575f3660031901126101c45760206101ff6114cf565b346101c45760403660031901126101c4576111a5611344565b6024356111b0611a48565b6111b8611a80565b6111c0611b44565b6001600160a01b03821691821561031d578115611291576001546040516370a0823160e01b81523060048201526001600160a01b0390911690602081602481855afa908115610312575f9161125f575b508084116112485750916102b7816020937f6f50cd6d1a8ee055bfba8d1998a1e71e64c3a0791f04001b50f038e3c106590995611dda565b8390630c9f8b8560e01b5f5260045260245260445ffd5b90506020813d602011611289575b8161127a60209383611460565b810103126101c4575185611210565b3d915061126d565b63162908e360e11b5f5260045ffd5b346101c4575f3660031901126101c4576020600254604051908152f35b346101c4575f3660031901126101c45760206101ff61141f565b346101c4575f3660031901126101c45760206101ff6113db565b346101c45760203660031901126101c4576004359063ffffffff60e01b82168092036101c457602091637965db0b60e01b8114908115611333575b5015158152f35b6301ffc9a760e01b1490508361132c565b600435906001600160a01b03821682036101c457565b602435906001600160a01b03821682036101c457565b90602080835192838152019201905f5b81811061138d5750505090565b8251845260209384019390920191600101611380565b919082039182116109f157565b81156113ba570490565b634e487b7160e01b5f52601260045260245ffd5b919082018092116109f157565b60025480421061141a57600354421015611413576113fc61140591426113a3565b600554906113b0565b600181018091116109f15790565b5060065490565b505f90565b6002548042106114555760035442101561141a5761143d90426113a3565b60055480156113ba57806114529206906113a3565b90565b6114529042906113a3565b90601f8019910116810190811067ffffffffffffffff821117610a9757604052565b5f1981146109f15760010190565b6006548110156114a85760065f5260205f2001905f90565b634e487b7160e01b5f52603260045260245ffd5b818102929181159184041417156109f157565b6114d761162a565b6001811061141a575f80546040516340f2de1b60e11b81526004810183905291926001600160a01b0390911691602081602481865afa908115610312575f916115f8575b5060015b8281111561154557505050506008548082111561153f57611452916113a3565b50505f90565b5f1981018181116109f15761155990611490565b9054604051630981b24d60e41b815260039290921b1c6004820152602081602481885afa908115610312575f916115c7575b50806115a1575b5061159c90611482565b61151f565b61159c91956127106115b9610eab866115c0956114bc565b04906113ce565b9490611592565b90506020813d82116115f0575b816115e160209383611460565b810103126101c457515f61158b565b3d91506115d4565b90506020813d602011611622575b8161161360209383611460565b810103126101c457515f61151b565b3d9150611606565b6002548042111561141a57600354421015611413576113fc61164c91426113a3565b6006548082101561165b575090565b905090565b6116686113db565b6001811080611918575b611909575f546040516340f2de1b60e11b81526001600160a01b03848116600483018190529391921690602083602481855afa928315610312575f936118d5575b50835f52600760205260405f205494600186018096116109f1576116d561162a565b905f9682811115611806575b5050505f93811515806117fb575b611701575b50505050611452916113ce565b6020906024604051809581936370a0823160e01b835260048301525afa918215610312575f926117c7575b5081611739575b806116f4565b91925090600181036117985750611763610eab6117689361175d6002545b426113a3565b936114bc565b6114bc565b906005549161271083029280840461271014901517156109f1576114529261178f916113b0565b90915f80611733565b6001198101929083116109f157610eab6117639161175d6117bb61176896611490565b90549060031b1c611757565b9091506020813d6020116117f3575b816117e360209383611460565b810103126101c45751905f61172c565b3d91506117d6565b5060035442106116ef565b8281116116e1575f1981018181116109f157602061182661185c92611490565b905460405163277166bf60e11b81526001600160a01b038716600482015260039290921b1c602482015291829081906044820190565b0381895afa908115610312575f916118a4575b5080611885575b5061188090611482565b611806565b61188091986127106115b9610eab8a61189d956114bc565b9790611876565b90506020813d82116118cd575b816118be60209383611460565b810103126101c457515f61186f565b3d91506118b1565b9092506020813d602011611901575b816118f160209383611460565b810103126101c45751915f6116b3565b3d91506118e4565b63b27f716560e01b5f5260045ffd5b506002544210611672565b600354421015611a0b575f546040516318160ddd60e01b8152906001600160a01b0316602082600481845afa918215610312575f926119d6575b50906020602492604051938480926340f2de1b60e11b82525f60048301525afa918215610312575f926119a0575b50610eab6127109261199c926114bc565b0490565b91506020823d6020116119ce575b816119bb60209383611460565b810103126101c457905190610eab61198b565b3d91506119ae565b91506020823d602011611a03575b816119f160209383611460565b810103126101c457905190602061195d565b3d91506119e4565b5f90565b602060065491828152019060065f5260205f20905f5b818110611a325750505090565b8254845260209093019260019283019201611a25565b60025f516020611f355f395f51905f525414611a715760025f516020611f355f395f51905f5255565b633ee5aeb560e01b5f5260045ffd5b611a88611e18565b6001600160a01b0381165f9081527fb7db2dd08fcb62d0c9e08c51941cae53c267786a0b75803fb7960902fc8ef97d602052604090205460ff1615611aca5750565b63e2517d3f60e01b5f5260018060a01b03166004525f60245260445ffd5b611af0611e18565b815f525f516020611ef55f395f51905f5260205260405f2060018060a01b0382165f5260205260ff60405f20541615611b27575050565b63e2517d3f60e01b5f5260018060a01b031660045260245260445ffd5b60ff5f516020611f155f395f51905f525416611b5c57565b63d93c066560e01b5f5260045ffd5b6001600160a01b0381165f9081527fb7db2dd08fcb62d0c9e08c51941cae53c267786a0b75803fb7960902fc8ef97d602052604090205460ff1661141a576001600160a01b038181165f9081527fb7db2dd08fcb62d0c9e08c51941cae53c267786a0b75803fb7960902fc8ef97d60205260409020805460ff19166001179055611bf3611e18565b16906001600160a01b03165f7f2f8788117e7eff1d82e926ec794901d17c78024a50270940304540a733656f0d8180a4600190565b5f8181525f516020611ef55f395f51905f52602090815260408083206001600160a01b038616845290915290205460ff1661153f575f8181525f516020611ef55f395f51905f52602090815260408083206001600160a01b0386811685529252909120805460ff19166001179055611c9e611e18565b16916001600160a01b0316907f2f8788117e7eff1d82e926ec794901d17c78024a50270940304540a733656f0d5f80a4600190565b5f8181525f516020611ef55f395f51905f52602090815260408083206001600160a01b038616845290915290205460ff161561153f575f8181525f516020611ef55f395f51905f52602090815260408083206001600160a01b0386811685529252909120805460ff19169055611d47611e18565b16916001600160a01b0316907ff6391f5c32d9c69d2a47ea670b442974b53935d1edc7fd64eb21e047a839171b5f80a4600190565b67ffffffffffffffff8111610a975760051b60200190565b90611d9e82611d7c565b611dab6040519182611460565b8281528092611dbc601f1991611d7c565b0190602036910137565b80518210156114a85760209160051b010190565b60405163a9059cbb60e01b60208201526001600160a01b03929092166024830152604480830193909352918152611e169161048a606483611460565b565b337f00000000000000000000000000000000000000000000000000000000000000006001600160a01b03161480611e66575b15611e625760131936013681116109f1573560601c90565b3390565b506014361015611e4a565b60ff5f516020611f555f395f51905f525460401c1615611e8d57565b631afcd79f60e31b5f5260045ffd5b905f602091828151910182855af115610312575f513d611eeb57506001600160a01b0381163b155b611ecb5750565b635274afe760e01b5f9081526001600160a01b0391909116600452602490fd5b60011415611ec456fe02dd7bc7dec4dceedda775e58dd541e08a116c6c53815c0bd028192f7b626800cd5ed15c6e187e77e9aee88184c21f4f2182ab5827cb3b7e07fbedcd63f033009b779b17422d0df92223018b32b4d1fa46e071723d6817e2486d003becc55f00f0c57e16840df040f15088dc2f81fe391c3923bec73e23a9662efc9c229c6a00a164736f6c634300081c000a608060405234610084576104ce388190036080601f8201601f19168101906001600160401b038211908210176100885760e0928291604052608039126100845761007561004a6100bf565b61005460a06100d5565b60c05160e0516101005191610120519361006f6101406100d5565b9561010c565b60405161014990816103658239f35b5f80fd5b634e487b7160e01b5f52604160045260245ffd5b601f909101601f19168101906001600160401b0382119082101761008857604052565b608051906001600160a01b038216820361008457565b51906001600160a01b038216820361008457565b90816020910312610084575180151581036100845790565b6040513d5f823e3d90fd5b9495919492939290916001600160a01b0382168015610209576040516301ffc9a760e01b81526347ed6adb60e11b600482015290602090829060249082905afa908115610247575f91610218575b50156102095761020796610202946101a16101f49460018060a01b031660018060a01b03195f5160206104ae5f395f51905f525416175f5160206104ae5f395f51905f5255565b6101a961024c565b604051635df5f96f60e01b60208201526001600160a01b03968716602482015260448101999099526064890197909752608488015260a487015290911660c4850152839060e4820190565b03601f19810184528361009c565b6102e8565b565b635c7bfbe960e01b5f5260045ffd5b61023a915060203d602011610240575b610232818361009c565b8101906100e9565b5f61015a565b503d610228565b610101565b5f5160206104ae5f395f51905f5254604051633b3632b960e11b815290602090829060049082906001600160a01b03165afa908115610247575f916102ae575b506001600160a01b0381161561029f5790565b63489aaf0d60e11b5f5260045ffd5b90506020813d6020116102e0575b816102c96020938361009c565b81010312610084576102da906100d5565b5f61028c565b3d91506102bc565b6001600160a01b0381161561035557815f929160208493519201905af43d1561034d573d906001600160401b0382116100885760405191610333601f8201601f19166020018461009c565b82523d5f602084013e5b156103455750565b602081519101fd5b60609061033d565b63ee0a129760e01b5f5260045ffdfe608060405236156100a8577f89ed739d9295d62aeed983d930b6f4ecdc2f2725b67843de6f01647c76d87d7a5460209060809060049082906001600160a01b0316633b3632b960e11b82525afa80156100a3575f90610076575b6001600160a01b0381166100b75763489aaf0d60e11b5f5260045ffd5b5060203d60201161009c575b8061008f610097926100d4565b60800161010b565b610059565b503d610082565b610131565b635d82995b60e01b5f5260045ffd5b5f8091368280378136915af43d5f803e156100d0573d5ff35b3d5ffd5b601f80199101166080016080811067ffffffffffffffff8211176100f757604052565b634e487b7160e01b5f52604160045260245ffd5b602090607f19011261012d576080516001600160a01b038116810361012d5790565b5f80fd5b6040513d5f823e3d90fdfea164736f6c634300081c000a89ed739d9295d62aeed983d930b6f4ecdc2f2725b67843de6f01647c76d87d7a2f8788117e7eff1d82e926ec794901d17c78024a50270940304540a733656f0d02dd7bc7dec4dceedda775e58dd541e08a116c6c53815c0bd028192f7b626800f0c57e16840df040f15088dc2f81fe391c3923bec73e23a9662efc9c229c6a00a164736f6c634300081c000af0c57e16840df040f15088dc2f81fe391c3923bec73e23a9662efc9c229c6a00",
    "linkReferences": {}
  },
  "methodIdentifiers": {
    "DEFAULT_ADMIN_ROLE()": "a217fddf",
    "allSchedulesLength()": "53ace7d7",
    "atkFixedYieldScheduleImplementation()": "766c6572",
    "create(address,uint256,uint256,uint256,uint256)": "f9b6b0c4",
    "getRoleAdmin(bytes32)": "248a9ca3",
    "grantRole(bytes32,address)": "2f2ff15d",
    "hasRole(bytes32,address)": "91d14854",
    "initialize(address,address)": "485cc955",
    "isTrustedForwarder(address)": "572b6c05",
    "renounceRole(bytes32,address)": "36568abe",
    "revokeRole(bytes32,address)": "d547741f",
    "supportsInterface(bytes4)": "01ffc9a7",
    "trustedForwarder()": "7da0a877",
    "typeId()": "8f940f63",
    "updateImplementation(address)": "025b22bc"
  },
  "userdoc": {
    "version": 1,
    "kind": "user",
    "methods": {
      "allSchedulesLength()": {
        "notice": "Returns the total number of fixed yield schedule proxy contracts created by this factory."
      },
      "atkFixedYieldScheduleImplementation()": {
        "notice": "Address of the current `ATKFixedYieldSchedule` logic contract (implementation)."
      },
      "create(address,uint256,uint256,uint256,uint256)": {
        "notice": "Creates and deploys a new `ATKFixedYieldProxy` contract for a given SMART token. The proxy will point to the current `atkFixedYieldScheduleImplementation`."
      },
      "initialize(address,address)": {
        "notice": "Initializes the `ATKFixedYieldScheduleFactory`."
      },
      "supportsInterface(bytes4)": {
        "notice": "Returns the address of the current `ATKFixedYieldSchedule` logic contract (implementation)."
      },
      "typeId()": {
        "notice": "Returns a unique identifier for the type of this contract."
      },
      "updateImplementation(address)": {
        "notice": "Updates the address of the `ATKFixedYieldSchedule` implementation contract."
      }
    },
    "events": {
      "ATKFixedYieldScheduleCreated(address,address)": {
        "notice": "Emitted when a new `ATKFixedYieldSchedule` proxy contract is successfully created and deployed."
      },
      "ImplementationUpdated(address,address)": {
        "notice": "Emitted when the `atkFixedYieldScheduleImplementation` is updated."
      }
    },
    "errors": {
      "InvalidAddress()": [
        {
          "notice": "Custom error for invalid address parameter."
        }
      ],
      "InvalidImplementation()": [
        {
          "notice": "Custom error for invalid implementation address."
        }
      ],
      "SameAddress()": [
        {
          "notice": "Custom error when attempting to set the same address."
        }
      ]
    },
    "notice": "This contract serves as a factory to deploy new UUPS proxy instances of `ATKFixedYieldSchedule` contracts. It manages a single implementation contract and allows for updating this implementation."
  },
  "devdoc": {
    "version": 1,
    "kind": "dev",
    "details": "Key features of this factory: - **Deployment of Proxies**: Provides a `create` function to deploy new `ATKFixedYieldProxy` instances,   which point to a shared `ATKFixedYieldSchedule` implementation. - **CREATE2**: Leverages `CREATE2` for deploying proxies, allowing their addresses to be pre-calculated. - **Implementation Management**: Deploys an initial implementation and allows the owner to update it. - **Authorization**: The `create` function can retain checks for `token.canManageYield()`. (Retained for now) - **Registry**: Maintains an array `allSchedules` to keep track of all yield schedule proxies created. - **Meta-transactions**: Inherits `ERC2771Context` to support gasless operations if a trusted forwarder is configured.",
    "methods": {
      "constructor": {},
      "create(address,uint256,uint256,uint256,uint256)": {
        "details": "This function performs the following steps: 1. **Authorization Check**: (Retained) Verifies `token.canManageYield(_msgSender())`. 2. **Salt Generation**: Computes a unique `salt` for CREATE2. 3. **Initialization Data**: Prepares the `initData` for the proxy to call `initialize` on the implementation. 4. **Proxy Deployment**: Deploys a `ATKFixedYieldProxy` using CREATE2. 5. **Event Emission**: Emits `ATKFixedYieldScheduleCreated`. 6. **Registry Update**: Adds the new proxy to `allSchedules`.",
        "params": {
          "endTime": "The Unix timestamp for the schedule end.",
          "interval": "The interval for yield distributions in seconds.",
          "rate": "The yield rate in basis points.",
          "startTime": "The Unix timestamp for the schedule start.",
          "token": "The `ISMARTYield`-compliant token for which the yield schedule is being created."
        },
        "returns": {
          "scheduleProxyAddress": "The address of the newly created `ATKFixedYieldProxy` contract."
        }
      },
      "getRoleAdmin(bytes32)": {
        "details": "Returns the admin role that controls `role`. See {grantRole} and {revokeRole}. To change a role's admin, use {_setRoleAdmin}."
      },
      "grantRole(bytes32,address)": {
        "details": "Grants `role` to `account`. If `account` had not been already granted `role`, emits a {RoleGranted} event. Requirements: - the caller must have ``role``'s admin role. May emit a {RoleGranted} event."
      },
      "hasRole(bytes32,address)": {
        "details": "Returns `true` if `account` has been granted `role`."
      },
      "initialize(address,address)": {
        "details": "Initializes the factory, deploys the initial `ATKFixedYieldSchedule` implementation, and sets up support for meta-transactions via ERC2771Context.",
        "params": {
          "initialAdmin_": "The address of the initial admin.",
          "systemAddress_": "The address of the `IATKSystem` contract."
        }
      },
      "isTrustedForwarder(address)": {
        "details": "Indicates whether any particular address is the trusted forwarder."
      },
      "renounceRole(bytes32,address)": {
        "details": "Revokes `role` from the calling account. Roles are often managed via {grantRole} and {revokeRole}: this function's purpose is to provide a mechanism for accounts to lose their privileges if they are compromised (such as when a trusted device is misplaced). If the calling account had been revoked `role`, emits a {RoleRevoked} event. Requirements: - the caller must be `callerConfirmation`. May emit a {RoleRevoked} event."
      },
      "revokeRole(bytes32,address)": {
        "details": "Revokes `role` from `account`. If `account` had been granted `role`, emits a {RoleRevoked} event. Requirements: - the caller must have ``role``'s admin role. May emit a {RoleRevoked} event."
      },
      "trustedForwarder()": {
        "details": "Returns the address of the trusted forwarder."
      },
      "updateImplementation(address)": {
        "details": "Only callable by the factory owner. New proxies created after this call will use the new implementation. This does NOT automatically upgrade existing proxy instances.",
        "params": {
          "_newImplementation": "The address of the new `ATKFixedYieldSchedule` logic contract."
        }
      }
    },
    "events": {
      "ATKFixedYieldScheduleCreated(address,address)": {
        "params": {
          "creator": "The address that initiated the creation of the yield schedule proxy.",
          "schedule": "The address of the newly deployed `ATKFixedYieldProxy` contract."
        }
      },
      "ImplementationUpdated(address,address)": {
        "params": {
          "newImplementation": "The address of the new implementation contract.",
          "oldImplementation": "The address of the previous implementation contract."
        }
      },
      "Initialized(uint64)": {
        "details": "Triggered when the contract has been initialized or reinitialized."
      },
      "RoleAdminChanged(bytes32,bytes32,bytes32)": {
        "details": "Emitted when `newAdminRole` is set as ``role``'s admin role, replacing `previousAdminRole` `DEFAULT_ADMIN_ROLE` is the starting admin for all roles, despite {RoleAdminChanged} not being emitted to signal this."
      },
      "RoleGranted(bytes32,address,address)": {
        "details": "Emitted when `account` is granted `role`. `sender` is the account that originated the contract call. This account bears the admin role (for the granted role). Expected in cases where the role was granted using the internal {AccessControl-_grantRole}."
      },
      "RoleRevoked(bytes32,address,address)": {
        "details": "Emitted when `account` is revoked `role`. `sender` is the account that originated the contract call:   - if using `revokeRole`, it is the admin role bearer   - if using `renounceRole`, it is the role bearer (i.e. `account`)"
      }
    },
    "errors": {
      "AccessControlBadConfirmation()": [
        {
          "details": "The caller of a function is not the expected one. NOTE: Don't confuse with {AccessControlUnauthorizedAccount}."
        }
      ],
      "AccessControlUnauthorizedAccount(address,bytes32)": [
        {
          "details": "The `account` is missing a role."
        }
      ],
      "InvalidInitialization()": [
        {
          "details": "The contract is already initialized."
        }
      ],
      "NotInitializing()": [
        {
          "details": "The contract is not initializing."
        }
      ]
    },
    "title": "Factory for Creating ATKFixedYieldSchedule Proxies"
  },
  "id": 14
}