{
  "abi": [
    {
      "type": "function",
      "name": "ACTION_KEY_PURPOSE",
      "inputs": [],
      "outputs": [
        {
          "name": "",
          "type": "uint256",
          "internalType": "uint256"
        }
      ],
      "stateMutability": "view"
    },
    {
      "type": "function",
      "name": "CLAIM_SIGNER_KEY_PURPOSE",
      "inputs": [],
      "outputs": [
        {
          "name": "",
          "type": "uint256",
          "internalType": "uint256"
        }
      ],
      "stateMutability": "view"
    },
    {
      "type": "function",
      "name": "ENCRYPTION_KEY_PURPOSE",
      "inputs": [],
      "outputs": [
        {
          "name": "",
          "type": "uint256",
          "internalType": "uint256"
        }
      ],
      "stateMutability": "view"
    },
    {
      "type": "function",
      "name": "MANAGEMENT_KEY_PURPOSE",
      "inputs": [],
      "outputs": [
        {
          "name": "",
          "type": "uint256",
          "internalType": "uint256"
        }
      ],
      "stateMutability": "view"
    },
    {
      "type": "function",
      "name": "addKey",
      "inputs": [
        {
          "name": "_key",
          "type": "bytes32",
          "internalType": "bytes32"
        },
        {
          "name": "_purpose",
          "type": "uint256",
          "internalType": "uint256"
        },
        {
          "name": "_keyType",
          "type": "uint256",
          "internalType": "uint256"
        }
      ],
      "outputs": [
        {
          "name": "success",
          "type": "bool",
          "internalType": "bool"
        }
      ],
      "stateMutability": "nonpayable"
    },
    {
      "type": "function",
      "name": "approve",
      "inputs": [
        {
          "name": "_id",
          "type": "uint256",
          "internalType": "uint256"
        },
        {
          "name": "_approve",
          "type": "bool",
          "internalType": "bool"
        }
      ],
      "outputs": [
        {
          "name": "success",
          "type": "bool",
          "internalType": "bool"
        }
      ],
      "stateMutability": "nonpayable"
    },
    {
      "type": "function",
      "name": "execute",
      "inputs": [
        {
          "name": "_to",
          "type": "address",
          "internalType": "address"
        },
        {
          "name": "_value",
          "type": "uint256",
          "internalType": "uint256"
        },
        {
          "name": "_data",
          "type": "bytes",
          "internalType": "bytes"
        }
      ],
      "outputs": [
        {
          "name": "executionId",
          "type": "uint256",
          "internalType": "uint256"
        }
      ],
      "stateMutability": "payable"
    },
    {
      "type": "function",
      "name": "getKey",
      "inputs": [
        {
          "name": "_key",
          "type": "bytes32",
          "internalType": "bytes32"
        }
      ],
      "outputs": [
        {
          "name": "purposes",
          "type": "uint256[]",
          "internalType": "uint256[]"
        },
        {
          "name": "keyType",
          "type": "uint256",
          "internalType": "uint256"
        },
        {
          "name": "key",
          "type": "bytes32",
          "internalType": "bytes32"
        }
      ],
      "stateMutability": "view"
    },
    {
      "type": "function",
      "name": "getKeyPurposes",
      "inputs": [
        {
          "name": "_key",
          "type": "bytes32",
          "internalType": "bytes32"
        }
      ],
      "outputs": [
        {
          "name": "purposes",
          "type": "uint256[]",
          "internalType": "uint256[]"
        }
      ],
      "stateMutability": "view"
    },
    {
      "type": "function",
      "name": "getKeysByPurpose",
      "inputs": [
        {
          "name": "_purpose",
          "type": "uint256",
          "internalType": "uint256"
        }
      ],
      "outputs": [
        {
          "name": "keys",
          "type": "bytes32[]",
          "internalType": "bytes32[]"
        }
      ],
      "stateMutability": "view"
    },
    {
      "type": "function",
      "name": "keyHasPurpose",
      "inputs": [
        {
          "name": "_key",
          "type": "bytes32",
          "internalType": "bytes32"
        },
        {
          "name": "_purpose",
          "type": "uint256",
          "internalType": "uint256"
        }
      ],
      "outputs": [
        {
          "name": "exists",
          "type": "bool",
          "internalType": "bool"
        }
      ],
      "stateMutability": "view"
    },
    {
      "type": "function",
      "name": "removeKey",
      "inputs": [
        {
          "name": "_key",
          "type": "bytes32",
          "internalType": "bytes32"
        },
        {
          "name": "_purpose",
          "type": "uint256",
          "internalType": "uint256"
        }
      ],
      "outputs": [
        {
          "name": "success",
          "type": "bool",
          "internalType": "bool"
        }
      ],
      "stateMutability": "nonpayable"
    },
    {
      "type": "event",
      "name": "Approved",
      "inputs": [
        {
          "name": "executionId",
          "type": "uint256",
          "indexed": true,
          "internalType": "uint256"
        },
        {
          "name": "approved",
          "type": "bool",
          "indexed": false,
          "internalType": "bool"
        }
      ],
      "anonymous": false
    },
    {
      "type": "event",
      "name": "Executed",
      "inputs": [
        {
          "name": "executionId",
          "type": "uint256",
          "indexed": true,
          "internalType": "uint256"
        },
        {
          "name": "to",
          "type": "address",
          "indexed": true,
          "internalType": "address"
        },
        {
          "name": "value",
          "type": "uint256",
          "indexed": true,
          "internalType": "uint256"
        },
        {
          "name": "data",
          "type": "bytes",
          "indexed": false,
          "internalType": "bytes"
        }
      ],
      "anonymous": false
    },
    {
      "type": "event",
      "name": "ExecutionFailed",
      "inputs": [
        {
          "name": "executionId",
          "type": "uint256",
          "indexed": true,
          "internalType": "uint256"
        },
        {
          "name": "to",
          "type": "address",
          "indexed": true,
          "internalType": "address"
        },
        {
          "name": "value",
          "type": "uint256",
          "indexed": true,
          "internalType": "uint256"
        },
        {
          "name": "data",
          "type": "bytes",
          "indexed": false,
          "internalType": "bytes"
        }
      ],
      "anonymous": false
    },
    {
      "type": "event",
      "name": "ExecutionRequested",
      "inputs": [
        {
          "name": "executionId",
          "type": "uint256",
          "indexed": true,
          "internalType": "uint256"
        },
        {
          "name": "to",
          "type": "address",
          "indexed": true,
          "internalType": "address"
        },
        {
          "name": "value",
          "type": "uint256",
          "indexed": true,
          "internalType": "uint256"
        },
        {
          "name": "data",
          "type": "bytes",
          "indexed": false,
          "internalType": "bytes"
        }
      ],
      "anonymous": false
    },
    {
      "type": "event",
      "name": "KeyAdded",
      "inputs": [
        {
          "name": "key",
          "type": "bytes32",
          "indexed": true,
          "internalType": "bytes32"
        },
        {
          "name": "purpose",
          "type": "uint256",
          "indexed": true,
          "internalType": "uint256"
        },
        {
          "name": "keyType",
          "type": "uint256",
          "indexed": true,
          "internalType": "uint256"
        }
      ],
      "anonymous": false
    },
    {
      "type": "event",
      "name": "KeyRemoved",
      "inputs": [
        {
          "name": "key",
          "type": "bytes32",
          "indexed": true,
          "internalType": "bytes32"
        },
        {
          "name": "purpose",
          "type": "uint256",
          "indexed": true,
          "internalType": "uint256"
        },
        {
          "name": "keyType",
          "type": "uint256",
          "indexed": true,
          "internalType": "uint256"
        }
      ],
      "anonymous": false
    },
    {
      "type": "error",
      "name": "CannotExecuteToZeroAddress",
      "inputs": []
    },
    {
      "type": "error",
      "name": "ExecutionAlreadyPerformed",
      "inputs": [
        {
          "name": "executionId",
          "type": "uint256",
          "internalType": "uint256"
        }
      ]
    },
    {
      "type": "error",
      "name": "ExecutionIdDoesNotExist",
      "inputs": [
        {
          "name": "executionId",
          "type": "uint256",
          "internalType": "uint256"
        }
      ]
    },
    {
      "type": "error",
      "name": "KeyAlreadyHasThisPurpose",
      "inputs": [
        {
          "name": "key",
          "type": "bytes32",
          "internalType": "bytes32"
        },
        {
          "name": "purpose",
          "type": "uint256",
          "internalType": "uint256"
        }
      ]
    },
    {
      "type": "error",
      "name": "KeyCannotBeZero",
      "inputs": []
    },
    {
      "type": "error",
      "name": "KeyDoesNotExist",
      "inputs": [
        {
          "name": "key",
          "type": "bytes32",
          "internalType": "bytes32"
        }
      ]
    },
    {
      "type": "error",
      "name": "KeyDoesNotHaveThisPurpose",
      "inputs": [
        {
          "name": "key",
          "type": "bytes32",
          "internalType": "bytes32"
        },
        {
          "name": "purpose",
          "type": "uint256",
          "internalType": "uint256"
        }
      ]
    },
    {
      "type": "error",
      "name": "ReentrancyGuardReentrantCall",
      "inputs": []
    }
  ],
  "bytecode": {
    "object": "0x6080806040523460195760015f55610d97908161001e8239f35b5f80fdfe60806040526004361015610011575f80fd5b5f3560e01c806312aaac70146108d45780631d381240146106dc5780634f9202af146106c157806353d413c51461047a578063747442d31461043957806383f4f1de1461041e5780639010f7261461037857806395ce57971461035d578063b61d27f614610124578063bfb3de8b14610109578063d202158d146100e65763fb307b341461009d575f80fd5b346100e25760203660031901126100e2576004355f5260016020526100de6100ca600160405f200161099e565b604051918291602083526020830190610933565b0390f35b5f80fd5b346100e25760206100ff6100f936610966565b90610cfd565b6040519015158152f35b346100e2575f3660031901126100e257602060405160038152f35b60603660031901126100e2576004356001600160a01b038116908190036100e25760443560243567ffffffffffffffff82116100e257366023830112156100e25781600401359267ffffffffffffffff84116100e25736602485850101116100e25761018e610d6c565b801561034e576004545f81815260036020526040902080546001600160a01b031916831781556001810184905560020180549194916101cc90610a27565b601f8111610313575b50855f601f82116001146102a9575f9161029b575b508660011b905f198860031b1c19161790555b5f84815260036020819052604090912001805461ffff19169055600454905f19821461028757602460407f8afcfabcb00e47a53a8fc3e9f23ff47ee1926194bb1350dd007c50b412a6cee89260209860018996016004558083519485938c8552828d86015201848401375f828201840152601f01601f19168101030190a460015f55604051908152f35b634e487b7160e01b5f52601160045260245ffd5b6024915083010135876101ea565b5f8381526020812092508890601f198216905b8181106102f55750106102d9575b5050600186811b0190556101fd565b8301602401355f19600389901b60f8161c1916905586806102ca565b8684016024013585556001909401936020938401938b9350016102bc565b61033e90825f5260205f20601f890160051c81019160208a10610344575b601f0160051c01906109e8565b866101d5565b9091508190610331565b631680eff760e01b5f5260045ffd5b346100e2575f3660031901126100e257602060405160018152f35b346100e25760203660031901126100e2576004355f52600260205260405f20604051806020835491828152019081935f5260205f20905f5b81811061040857505050816103c691038261097c565b604051918291602083019060208452518091526040830191905f5b8181106103ef575050500390f35b82518452859450602093840193909201916001016103e1565b82548452602090930192600192830192016103b0565b346100e2575f3660031901126100e257602060405160028152f35b346100e25760403660031901126100e25760243580151581036100e25761046c602091610464610d6c565b600435610aef565b60015f556040519015158152f35b346100e25761048836610966565b90805f5260016020528060405f2054036106af57805f526001602052600160405f20015f1981545f5b818110610688575b505f198214610670575f198101908111610287576104eb6104dd61050192856109fe565b90549060031b1c92846109fe565b819391549060031b91821b915f19901b19161790565b905580548015610635575f190161051881836109fe565b8154905f199060031b1b191690558155825f52600260205260405f20925f1984545f5b818110610649575b50600182016105da575b505060209350825f5260018452600260405f200154915415610598575b604051927f585a4aef50f8267a92b32412b331b20f7f8b96f2245b253b9cc50dcc621d33975f80a460018152f35b825f52600184525f600260408220828155600181018054848255806105c1575b5050015561056a565b6105d3918552888520908101906109e8565b87806105b8565b5f198101908111610287576104eb6105f561060392886109fe565b90549060031b1c92876109fe565b90558354938415610635576020945f19019061061f82826109fe565b8154905f199060031b1b1916905555848061054d565b634e487b7160e01b5f52603160045260245ffd5b8561065482896109fe565b90549060031b1c146106685760010161053b565b915086610543565b5050506362ff4d6b60e11b5f5260045260245260445ffd5b8561069382866109fe565b90549060031b1c146106a7576001016104b1565b9150856104b9565b631a36430d60e31b5f5260045260245ffd5b346100e2575f3660031901126100e257602060405160048152f35b346100e25760603660031901126100e25760243560043560443581156108c557815f5260016020528160405f2054145f1461081b57815f526001602052600160405f2001545f5b8181106107d6575050815f526001602052600160405f20018054600160401b8110156107c2576104eb818693600161075d940181556109fe565b90555b825f52600260205260405f2092835493600160401b8510156107c2576107926104eb86869360016020990181556109fe565b9055604051927f480000bb1edad8ca1470381cc334b1917fbd51c6531f3a623ea8e0ec7e38a6e95f80a460018152f35b634e487b7160e01b5f52604160045260245ffd5b835f526001602052846107ef82600160405f20016109fe565b90549060031b1c1461080357600101610723565b5050506309c42b7560e21b5f5260045260245260445ffd5b815f5260016020528160405f20556040516020810181811067ffffffffffffffff8211176107c257604052838152825f526001602052600160405f200190815460018355806001106108a8575b50905f5260205f20905f5b6001811061089457505050815f52600160205280600260405f200155610760565b600190602083519301928185015501610873565b6108bf90835f52600160205f2091820191016109e8565b85610868565b63d77534c760e01b5f5260045ffd5b346100e25760203660031901126100e2576004355f9081526001602081905260409091206002810154815461092493909261090f910161099e565b91604051938493606085526060850190610933565b91602084015260408301520390f35b90602080835192838152019201905f5b8181106109505750505090565b8251845260209384019390920191600101610943565b60409060031901126100e2576004359060243590565b90601f8019910116810190811067ffffffffffffffff8211176107c257604052565b90604051918281549182825260208201905f5260205f20925f5b8181106109cf5750506109cd9250038361097c565b565b84548352600194850194879450602090930192016109b8565b8181106109f3575050565b5f81556001016109e8565b8054821015610a13575f5260205f2001905f90565b634e487b7160e01b5f52603260045260245ffd5b90600182811c92168015610a55575b6020831014610a4157565b634e487b7160e01b5f52602260045260245ffd5b91607f1691610a36565b90602082525f91815491610a7283610a27565b928360208401526001811690815f14610ace5750600114610a94575b50505090565b5f90815260208120929350915b838310610ab757506040925001015f8080610a8e565b805460408484010152602090920191600101610aa1565b9150506040935060ff929192191683830152151560051b01015f8080610a8e565b90600454821015610cea57815f52600360205260405f2091600383019182549060ff8260081c16610cd757827fb3932da477fe5d6c8ff2eafef050c0f3a1af18fc07121001482600f36f3715d860206040518415158152a215610cc85750600160ff1983541617825560018060a01b038354169260018101928354946002830195604051905f8854610b8081610a27565b9060018116908115610cb35750600114610c82575b50915f939181859403925af13d15610c7d573d67ffffffffffffffff81116107c25760405190610bcf601f8201601f19166020018361097c565b81525f60203d92013e5b15610c3757805461ff00191661010017905554915460405190936001600160a01b0393909316927f1f920dbda597d7bf95035464170fa58d0a4b57f13a1c315ace6793b9f63688b891908190610c2f9082610a5f565b0390a4600190565b50610c767fe10c49d9f7c71da23262367013434763cfdb2332267641728d25cd712c5c6a689160018060a01b0390541693549460405191829182610a5f565b0390a45f90565b610bd9565b9050885f5260205f205f905b828210610c9f57505082015f610b95565b600181602092548488015201910190610c8e565b60ff191685525080151502830190505f610b95565b60ff1916909155506001919050565b82631e38c17f60e11b5f5260045260245ffd5b5063767a083b60e01b5f5260045260245ffd5b5f52600160205260405f20805415610d6657600101908154915f5b838110610d2757505050505f90565b610d3181836109fe565b90549060031b1c8360018214918215610d5c575b5050610d5357600101610d18565b50505050600190565b149050835f610d45565b50505f90565b60025f5414610d7b5760025f55565b633ee5aeb560e01b5f5260045ffdfea164736f6c634300081c000a",
    "linkReferences": {}
  },
  "methodIdentifiers": {
    "ACTION_KEY_PURPOSE()": "83f4f1de",
    "CLAIM_SIGNER_KEY_PURPOSE()": "bfb3de8b",
    "ENCRYPTION_KEY_PURPOSE()": "4f9202af",
    "MANAGEMENT_KEY_PURPOSE()": "95ce5797",
    "addKey(bytes32,uint256,uint256)": "1d381240",
    "approve(uint256,bool)": "747442d3",
    "execute(address,uint256,bytes)": "b61d27f6",
    "getKey(bytes32)": "12aaac70",
    "getKeyPurposes(bytes32)": "fb307b34",
    "getKeysByPurpose(uint256)": "9010f726",
    "keyHasPurpose(bytes32,uint256)": "d202158d",
    "removeKey(bytes32,uint256)": "53d413c5"
  },
  "userdoc": {
    "version": 1,
    "kind": "user"
  },
  "devdoc": {
    "version": 1,
    "kind": "dev",
    "details": "Implementation of the IERC734 (Key Holder) standard. This contract manages keys with different purposes and allows for execution of operations based on key approvals.",
    "methods": {
      "addKey(bytes32,uint256,uint256)": {
        "details": "See {IERC734-addKey}. Adds a _key to the identity. The _purpose specifies the purpose of the key. Emits a {KeyAdded} event. Requirements: - This function should typically be restricted (e.g., by an owner or management key in the inheriting contract)."
      },
      "approve(uint256,bool)": {
        "details": "See {IERC734-approve}. Approves an execution. Emits an {Approved} event. If approval leads to execution, {Executed} or {ExecutionFailed} is emitted. Requirements: - `_id` must correspond to an existing, non-executed execution request. - The caller must have the appropriate permissions to approve (typically checked in the inheriting contract or via keyHasPurpose)."
      },
      "execute(address,uint256,bytes)": {
        "details": "See {IERC734-execute}. Initiates an execution. If the caller has appropriate keys, it might be auto-approved. Emits an {ExecutionRequested} event. If auto-approved and executed, also emits {Executed} or {ExecutionFailed}. Returns the `executionId`. The actual approval logic based on `msg.sender`'s keys (e.g., MANAGEMENT or ACTION) is usually handled in the `approve` function or by an overriding `execute` in the inheriting Identity contract. This base implementation creates the request."
      },
      "getKey(bytes32)": {
        "details": "See {IERC734-getKey}. Returns the purposes, key type, and the key itself for a given `_key` hash."
      },
      "getKeyPurposes(bytes32)": {
        "details": "See {IERC734-getKeyPurposes}. Returns the list of purposes associated with a `_key`."
      },
      "getKeysByPurpose(uint256)": {
        "details": "See {IERC734-getKeysByPurpose}. Returns an array of key hashes that have the given `_purpose`."
      },
      "keyHasPurpose(bytes32,uint256)": {
        "details": "See {IERC734-keyHasPurpose}. Returns `true` if a `_key` is present and has the given `_purpose`."
      },
      "removeKey(bytes32,uint256)": {
        "details": "See {IERC734-removeKey}. Removes a _purpose from a _key. If it's the last purpose, the key is removed entirely. Emits a {KeyRemoved} event. Requirements: - This function should typically be restricted (e.g., by an owner or management key in the inheriting contract). - The _key must exist and have the specified _purpose."
      }
    },
    "events": {
      "Approved(uint256,bool)": {
        "details": "Emitted when an execution request was approved. Specification: MUST be triggered when approve was successfully called."
      },
      "Executed(uint256,address,uint256,bytes)": {
        "details": "Emitted when an execute operation was approved and successfully performed. Specification: MUST be triggered when approve was called and the execution was successfully approved."
      },
      "ExecutionFailed(uint256,address,uint256,bytes)": {
        "details": "Emitted when an execute operation was called and failed Specification: MUST be triggered when execute call failed"
      },
      "ExecutionRequested(uint256,address,uint256,bytes)": {
        "details": "Emitted when an execution request was performed via `execute`. Specification: MUST be triggered when execute was successfully called."
      },
      "KeyAdded(bytes32,uint256,uint256)": {
        "details": "Emitted when a key was added to the Identity. Specification: MUST be triggered when addKey was successfully called."
      },
      "KeyRemoved(bytes32,uint256,uint256)": {
        "details": "Emitted when a key was removed from the Identity. Specification: MUST be triggered when removeKey was successfully called."
      }
    },
    "errors": {
      "ReentrancyGuardReentrantCall()": [
        {
          "details": "Unauthorized reentrant call."
        }
      ]
    },
    "title": "ERC734 Key Holder Standard Implementation"
  },
  "id": 27
}