{
  "abi": [
    {
      "type": "constructor",
      "inputs": [
        {
          "name": "_trustedForwarder",
          "type": "address",
          "internalType": "address"
        }
      ],
      "stateMutability": "nonpayable"
    },
    {
      "type": "function",
      "name": "DEFAULT_ADMIN_ROLE",
      "inputs": [],
      "outputs": [
        {
          "name": "",
          "type": "bytes32",
          "internalType": "bytes32"
        }
      ],
      "stateMutability": "view"
    },
    {
      "type": "function",
      "name": "GLOBAL_LIST_MANAGER_ROLE",
      "inputs": [],
      "outputs": [
        {
          "name": "",
          "type": "bytes32",
          "internalType": "bytes32"
        }
      ],
      "stateMutability": "view"
    },
    {
      "type": "function",
      "name": "canTransfer",
      "inputs": [
        {
          "name": "_token",
          "type": "address",
          "internalType": "address"
        },
        {
          "name": "",
          "type": "address",
          "internalType": "address"
        },
        {
          "name": "_to",
          "type": "address",
          "internalType": "address"
        },
        {
          "name": "",
          "type": "uint256",
          "internalType": "uint256"
        },
        {
          "name": "_params",
          "type": "bytes",
          "internalType": "bytes"
        }
      ],
      "outputs": [],
      "stateMutability": "view"
    },
    {
      "type": "function",
      "name": "created",
      "inputs": [
        {
          "name": "_token",
          "type": "address",
          "internalType": "address"
        },
        {
          "name": "_to",
          "type": "address",
          "internalType": "address"
        },
        {
          "name": "_value",
          "type": "uint256",
          "internalType": "uint256"
        },
        {
          "name": "_params",
          "type": "bytes",
          "internalType": "bytes"
        }
      ],
      "outputs": [],
      "stateMutability": "nonpayable"
    },
    {
      "type": "function",
      "name": "destroyed",
      "inputs": [
        {
          "name": "_token",
          "type": "address",
          "internalType": "address"
        },
        {
          "name": "_from",
          "type": "address",
          "internalType": "address"
        },
        {
          "name": "_value",
          "type": "uint256",
          "internalType": "uint256"
        },
        {
          "name": "_params",
          "type": "bytes",
          "internalType": "bytes"
        }
      ],
      "outputs": [],
      "stateMutability": "nonpayable"
    },
    {
      "type": "function",
      "name": "getGlobalBlockedIdentities",
      "inputs": [],
      "outputs": [
        {
          "name": "",
          "type": "address[]",
          "internalType": "address[]"
        }
      ],
      "stateMutability": "view"
    },
    {
      "type": "function",
      "name": "getRoleAdmin",
      "inputs": [
        {
          "name": "role",
          "type": "bytes32",
          "internalType": "bytes32"
        }
      ],
      "outputs": [
        {
          "name": "",
          "type": "bytes32",
          "internalType": "bytes32"
        }
      ],
      "stateMutability": "view"
    },
    {
      "type": "function",
      "name": "grantRole",
      "inputs": [
        {
          "name": "role",
          "type": "bytes32",
          "internalType": "bytes32"
        },
        {
          "name": "account",
          "type": "address",
          "internalType": "address"
        }
      ],
      "outputs": [],
      "stateMutability": "nonpayable"
    },
    {
      "type": "function",
      "name": "hasRole",
      "inputs": [
        {
          "name": "role",
          "type": "bytes32",
          "internalType": "bytes32"
        },
        {
          "name": "account",
          "type": "address",
          "internalType": "address"
        }
      ],
      "outputs": [
        {
          "name": "",
          "type": "bool",
          "internalType": "bool"
        }
      ],
      "stateMutability": "view"
    },
    {
      "type": "function",
      "name": "isGloballyBlocked",
      "inputs": [
        {
          "name": "_identityAddress",
          "type": "address",
          "internalType": "address"
        }
      ],
      "outputs": [
        {
          "name": "",
          "type": "bool",
          "internalType": "bool"
        }
      ],
      "stateMutability": "view"
    },
    {
      "type": "function",
      "name": "isTrustedForwarder",
      "inputs": [
        {
          "name": "forwarder",
          "type": "address",
          "internalType": "address"
        }
      ],
      "outputs": [
        {
          "name": "",
          "type": "bool",
          "internalType": "bool"
        }
      ],
      "stateMutability": "view"
    },
    {
      "type": "function",
      "name": "name",
      "inputs": [],
      "outputs": [
        {
          "name": "",
          "type": "string",
          "internalType": "string"
        }
      ],
      "stateMutability": "pure"
    },
    {
      "type": "function",
      "name": "renounceRole",
      "inputs": [
        {
          "name": "role",
          "type": "bytes32",
          "internalType": "bytes32"
        },
        {
          "name": "callerConfirmation",
          "type": "address",
          "internalType": "address"
        }
      ],
      "outputs": [],
      "stateMutability": "nonpayable"
    },
    {
      "type": "function",
      "name": "revokeRole",
      "inputs": [
        {
          "name": "role",
          "type": "bytes32",
          "internalType": "bytes32"
        },
        {
          "name": "account",
          "type": "address",
          "internalType": "address"
        }
      ],
      "outputs": [],
      "stateMutability": "nonpayable"
    },
    {
      "type": "function",
      "name": "setGlobalBlockedIdentities",
      "inputs": [
        {
          "name": "_identityAddresses",
          "type": "address[]",
          "internalType": "address[]"
        },
        {
          "name": "_block",
          "type": "bool",
          "internalType": "bool"
        }
      ],
      "outputs": [],
      "stateMutability": "nonpayable"
    },
    {
      "type": "function",
      "name": "supportsInterface",
      "inputs": [
        {
          "name": "interfaceId",
          "type": "bytes4",
          "internalType": "bytes4"
        }
      ],
      "outputs": [
        {
          "name": "",
          "type": "bool",
          "internalType": "bool"
        }
      ],
      "stateMutability": "view"
    },
    {
      "type": "function",
      "name": "transferred",
      "inputs": [
        {
          "name": "_token",
          "type": "address",
          "internalType": "address"
        },
        {
          "name": "_from",
          "type": "address",
          "internalType": "address"
        },
        {
          "name": "_to",
          "type": "address",
          "internalType": "address"
        },
        {
          "name": "_value",
          "type": "uint256",
          "internalType": "uint256"
        },
        {
          "name": "_params",
          "type": "bytes",
          "internalType": "bytes"
        }
      ],
      "outputs": [],
      "stateMutability": "nonpayable"
    },
    {
      "type": "function",
      "name": "trustedForwarder",
      "inputs": [],
      "outputs": [
        {
          "name": "",
          "type": "address",
          "internalType": "address"
        }
      ],
      "stateMutability": "view"
    },
    {
      "type": "function",
      "name": "validateParameters",
      "inputs": [
        {
          "name": "_params",
          "type": "bytes",
          "internalType": "bytes"
        }
      ],
      "outputs": [],
      "stateMutability": "view"
    },
    {
      "type": "event",
      "name": "GlobalBlockedIdentitiesUpdated",
      "inputs": [
        {
          "name": "identityAddresses",
          "type": "address[]",
          "indexed": false,
          "internalType": "address[]"
        },
        {
          "name": "blocked",
          "type": "bool",
          "indexed": true,
          "internalType": "bool"
        }
      ],
      "anonymous": false
    },
    {
      "type": "event",
      "name": "RoleAdminChanged",
      "inputs": [
        {
          "name": "role",
          "type": "bytes32",
          "indexed": true,
          "internalType": "bytes32"
        },
        {
          "name": "previousAdminRole",
          "type": "bytes32",
          "indexed": true,
          "internalType": "bytes32"
        },
        {
          "name": "newAdminRole",
          "type": "bytes32",
          "indexed": true,
          "internalType": "bytes32"
        }
      ],
      "anonymous": false
    },
    {
      "type": "event",
      "name": "RoleGranted",
      "inputs": [
        {
          "name": "role",
          "type": "bytes32",
          "indexed": true,
          "internalType": "bytes32"
        },
        {
          "name": "account",
          "type": "address",
          "indexed": true,
          "internalType": "address"
        },
        {
          "name": "sender",
          "type": "address",
          "indexed": true,
          "internalType": "address"
        }
      ],
      "anonymous": false
    },
    {
      "type": "event",
      "name": "RoleRevoked",
      "inputs": [
        {
          "name": "role",
          "type": "bytes32",
          "indexed": true,
          "internalType": "bytes32"
        },
        {
          "name": "account",
          "type": "address",
          "indexed": true,
          "internalType": "address"
        },
        {
          "name": "sender",
          "type": "address",
          "indexed": true,
          "internalType": "address"
        }
      ],
      "anonymous": false
    },
    {
      "type": "error",
      "name": "AccessControlBadConfirmation",
      "inputs": []
    },
    {
      "type": "error",
      "name": "AccessControlUnauthorizedAccount",
      "inputs": [
        {
          "name": "account",
          "type": "address",
          "internalType": "address"
        },
        {
          "name": "neededRole",
          "type": "bytes32",
          "internalType": "bytes32"
        }
      ]
    },
    {
      "type": "error",
      "name": "ComplianceCheckFailed",
      "inputs": [
        {
          "name": "reason",
          "type": "string",
          "internalType": "string"
        }
      ]
    },
    {
      "type": "error",
      "name": "InvalidParameters",
      "inputs": [
        {
          "name": "reason",
          "type": "string",
          "internalType": "string"
        }
      ]
    }
  ],
  "bytecode": {
    "object": "0x60a03461009a57601f61121d38819003918201601f19168301916001600160401b0383118484101761009e5780849260209460405283398101031261009a57516001600160a01b038116810361009a5760805261006261005d6101df565b6100b2565b5061007361006e6101df565b61013b565b50604051610f8e908161022f8239608051818181610482015281816105470152610e2e0152f35b5f80fd5b634e487b7160e01b5f52604160045260245ffd5b6001600160a01b0381165f9081525f5160206111dd5f395f51905f52602052604090205460ff16610136576001600160a01b038181165f9081525f5160206111dd5f395f51905f5260205260409020805460ff191660011790556101146101df565b16906001600160a01b03165f5f5160206111bd5f395f51905f528180a4600190565b505f90565b6001600160a01b0381165f9081525f5160206111fd5f395f51905f52602052604090205460ff16610136576001600160a01b038181165f9081525f5160206111fd5f395f51905f5260205260409020805460ff1916600117905561019d6101df565b16906001600160a01b03167f9b55cfb75ccf6f1a6d907f6f30122d92666cac147d834990fba3410dfac61ef65f5160206111bd5f395f51905f525f80a4600190565b6080516001600160a01b0316331480610223575b1561021f57601319360136811161020b573560601c90565b634e487b7160e01b5f52601160045260245ffd5b3390565b5060143610156101f356fe6080806040526004361015610012575f80fd5b5f3560e01c90816301ffc9a7146107985750806306fdde031461070657806310efe2a51461015e57806323f613d11461063e578063248a9ca31461060c5780632f2ff15d146105cf57806336568abe1461057b578063572b6c05146105275780636974f58e146104eb578063771d2f5e146104b15780637da0a8771461046d57806391d1485414610425578063a217fddf1461040b578063b4fafce6146101a8578063bec4eb2014610163578063c4c104b91461015e578063d547741f1461011c578063ddfcf377146101015763ea6b97a5146100ed575f80fd5b346100fd576100fb366108cc565b005b5f80fd5b346100fd576100fb610112366108cc565b94915092506109ea565b346100fd5760403660031901126100fd576100fb60043561013b610805565b90610159610154825f525f602052600160405f20015490565b610b3c565b610c22565b610873565b346100fd5760203660031901126100fd57602061019e61018161081b565b6001600160a01b03165f9081526001602052604090205460ff1690565b6040519015158152f35b346100fd5760403660031901126100fd5760043567ffffffffffffffff81116100fd57366023820112156100fd5780600401359067ffffffffffffffff82116100fd573660248360051b830101116100fd5760243580158015928383036100fd57610211610e2b565b6001600160a01b0381165f9081527f9b6046957f41cb9d409aa8cdf012eb36129daef06a27f14d4eed5f0368318d1f602052604090205460ff16156103c7575060ff841694935f5b8581101561035857600581901b830160240135906001600160a01b0382168083036100fd575f818152600160205260409020805460ff1981168b17909155869060ff168880610350575b156103225750506002546801000000000000000081101561030e576001936102d382866102f79401600255610e98565b81546001600160a01b0393841660039290921b91821b9390911b1916919091179055565b600254905f52600360205260405f20555b01610259565b634e487b7160e01b5f52604160045260245ffd5b600194925081610348575b50610339575b50610308565b61034290610eb0565b88610333565b90508a61032d565b5080156102a3565b50604080516020808252810187905290810160248401875f5b8181106103a157857ff17a50f97ea2999fabcb06eaf4c176b1f401777c087614fcccff19bf0756750b86860387a2005b909192602080600192838060a01b036103b988610831565b168152019401929101610371565b63e2517d3f60e01b5f9081526001600160a01b03919091166004527f9b55cfb75ccf6f1a6d907f6f30122d92666cac147d834990fba3410dfac61ef6602452604490fd5b346100fd575f3660031901126100fd5760206040515f8152f35b346100fd5760403660031901126100fd5761043e610805565b6004355f525f60205260405f209060018060a01b03165f52602052602060ff60405f2054166040519015158152f35b346100fd575f3660031901126100fd576040517f00000000000000000000000000000000000000000000000000000000000000006001600160a01b03168152602090f35b346100fd575f3660031901126100fd5760206040517f9b55cfb75ccf6f1a6d907f6f30122d92666cac147d834990fba3410dfac61ef68152f35b346100fd5760203660031901126100fd5760043567ffffffffffffffff81116100fd5761051f6100fb913690600401610845565b81019061095d565b346100fd5760203660031901126100fd57602061054261081b565b6040517f00000000000000000000000000000000000000000000000000000000000000006001600160a01b039081169216919091148152f35b346100fd5760403660031901126100fd57610594610805565b6001600160a01b036105a4610e2b565b166001600160a01b038216036105c0576100fb90600435610c22565b63334bd91960e11b5f5260045ffd5b346100fd5760403660031901126100fd576100fb6004356105ee610805565b90610607610154825f525f602052600160405f20015490565b610b8d565b346100fd5760203660031901126100fd5760206106366004355f525f602052600160405f20015490565b604051908152f35b346100fd575f3660031901126100fd576040518060206002549283815201809260025f527f405787fa12a823e0f2b7631cc41b3ba8828b3321ca811111fa75cd3aa3bb5ace905f5b8181106106e7575050508161069c91038261093b565b604051918291602083019060208452518091526040830191905f5b8181106106c5575050500390f35b82516001600160a01b03168452859450602093840193909201916001016106b7565b82546001600160a01b0316845260209093019260019283019201610686565b346100fd575f3660031901126100fd576040516060810181811067ffffffffffffffff82111761030e5760405260248152604060208201917f4964656e7469747920426c6f636b4c69737420436f6d706c69616e6365204d6f83526364756c6560e01b828201528151928391602083525180918160208501528484015e5f828201840152601f01601f19168101030190f35b346100fd5760203660031901126100fd576004359063ffffffff60e01b82168092036100fd57602091638c30a94360e01b81149081156107da575b5015158152f35b637965db0b60e01b8114915081156107f4575b50836107d3565b6301ffc9a760e01b149050836107ed565b602435906001600160a01b03821682036100fd57565b600435906001600160a01b03821682036100fd57565b35906001600160a01b03821682036100fd57565b9181601f840112156100fd5782359167ffffffffffffffff83116100fd57602083818601950101116100fd57565b346100fd5760803660031901126100fd576004356001600160a01b03811681036100fd57506024356001600160a01b03811681036100fd575060643567ffffffffffffffff81116100fd576100fb903690600401610845565b60a06003198201126100fd576004356001600160a01b03811681036100fd57916024356001600160a01b03811681036100fd57916044356001600160a01b03811681036100fd5791606435916084359067ffffffffffffffff82116100fd5761093791600401610845565b9091565b90601f8019910116810190811067ffffffffffffffff82111761030e57604052565b6020818303126100fd5780359067ffffffffffffffff82116100fd57019080601f830112156100fd5781359167ffffffffffffffff831161030e578260051b90604051936109ae602084018661093b565b84526020808501928201019283116100fd57602001905b8282106109d25750505090565b602080916109df84610831565b8152019101906109c5565b906109f791939293610caf565b90158015610b2b575b610b26576001600160a01b03165f8181526001602052604090205490929060ff16610ad557610a319181019061095d565b908151915f5b838110610a445750505050565b8151811015610ac157600581901b8201602001516001600160a01b03168314610a6f57600101610a37565b60405163327d269360e01b815260206004820152602360248201527f5265636569766572206964656e7469747920626c6f636b656420666f7220746f60448201526235b2b760e91b6064820152608490fd5b634e487b7160e01b5f52603260045260245ffd5b60405163327d269360e01b815260206004820152602260248201527f5265636569766572206964656e7469747920676c6f62616c6c7920626c6f636b604482015261195960f21b6064820152608490fd5b505050565b506001600160a01b03811615610a00565b610b44610e2b565b5f828152602081815260408083206001600160a01b038516845290915290205460ff1615610b70575050565b63e2517d3f60e01b5f5260018060a01b031660045260245260445ffd5b5f818152602081815260408083206001600160a01b038616845290915290205460ff16610c1c575f818152602081815260408083206001600160a01b0386811685529252909120805460ff19166001179055610be7610e2b565b16916001600160a01b0316907f2f8788117e7eff1d82e926ec794901d17c78024a50270940304540a733656f0d5f80a4600190565b50505f90565b5f818152602081815260408083206001600160a01b038616845290915290205460ff1615610c1c575f818152602081815260408083206001600160a01b0386811685529252909120805460ff19169055610c7a610e2b565b16916001600160a01b0316907ff6391f5c32d9c69d2a47ea670b442974b53935d1edc7fd64eb21e047a839171b5f80a4600190565b6040516304d3863d60e21b815291929190602090829060049082906001600160a01b03165afa908115610d9b575f91610de9575b50604051630bb7c8fd60e31b81526001600160a01b03938416600482018190529190931692602081602481875afa908115610d9b575f91610dae575b5015610da657602090602460405180958193633c3ad79560e21b835260048301525afa918215610d9b575f92610d57575b5060019190565b9091506020813d602011610d93575b81610d736020938361093b565b810103126100fd57516001600160a01b03811681036100fd57905f610d50565b3d9150610d66565b6040513d5f823e3d90fd5b505f91508190565b90506020813d602011610de1575b81610dc96020938361093b565b810103126100fd575180151581036100fd575f610d1f565b3d9150610dbc565b90506020813d602011610e23575b81610e046020938361093b565b810103126100fd57516001600160a01b03811681036100fd575f610ce3565b3d9150610df7565b337f00000000000000000000000000000000000000000000000000000000000000006001600160a01b03161480610e8d575b15610e89576013193601368111610e75573560601c90565b634e487b7160e01b5f52601160045260245ffd5b3390565b506014361015610e5d565b600254811015610ac15760025f5260205f2001905f90565b6001600160a01b03165f818152600360205260409020548015610f7d575f198101818111610e75576002545f198101908111610e7557808203610f3f575b5050506002548015610f2b575f1901610f0681610e98565b81549060018060a01b039060031b1b191690556002555f5260036020525f6040812055565b634e487b7160e01b5f52603160045260245ffd5b6102d391610f4f610f6992610e98565b905460039190911b1c6001600160a01b0316928391610e98565b5f52600360205260405f20555f8080610eee565b505056fea164736f6c634300081c000a2f8788117e7eff1d82e926ec794901d17c78024a50270940304540a733656f0dad3228b676f7d3cd4284a5443f17f1962b36e491b30a40b2405849e597ba5fb59b6046957f41cb9d409aa8cdf012eb36129daef06a27f14d4eed5f0368318d1f",
    "linkReferences": {}
  },
  "methodIdentifiers": {
    "DEFAULT_ADMIN_ROLE()": "a217fddf",
    "GLOBAL_LIST_MANAGER_ROLE()": "771d2f5e",
    "canTransfer(address,address,address,uint256,bytes)": "ddfcf377",
    "created(address,address,uint256,bytes)": "c4c104b9",
    "destroyed(address,address,uint256,bytes)": "10efe2a5",
    "getGlobalBlockedIdentities()": "23f613d1",
    "getRoleAdmin(bytes32)": "248a9ca3",
    "grantRole(bytes32,address)": "2f2ff15d",
    "hasRole(bytes32,address)": "91d14854",
    "isGloballyBlocked(address)": "bec4eb20",
    "isTrustedForwarder(address)": "572b6c05",
    "name()": "06fdde03",
    "renounceRole(bytes32,address)": "36568abe",
    "revokeRole(bytes32,address)": "d547741f",
    "setGlobalBlockedIdentities(address[],bool)": "b4fafce6",
    "supportsInterface(bytes4)": "01ffc9a7",
    "transferred(address,address,address,uint256,bytes)": "ea6b97a5",
    "trustedForwarder()": "7da0a877",
    "validateParameters(bytes)": "6974f58e"
  },
  "userdoc": {
    "version": 1,
    "kind": "user",
    "methods": {
      "created(address,address,uint256,bytes)": {
        "notice": "This function is a hook called by the main `SMARTComplianceImplementation` contract *after* new tokens have been created (minted)."
      },
      "destroyed(address,address,uint256,bytes)": {
        "notice": "This function is a hook called by the main `SMARTComplianceImplementation` contract *after* tokens have been destroyed (burned)."
      },
      "name()": {
        "notice": "Concrete compliance modules MUST implement this function to return a human-readable name for the module."
      },
      "supportsInterface(bytes4)": {
        "notice": "Checks if the contract supports a given interface ID."
      },
      "transferred(address,address,address,uint256,bytes)": {
        "notice": "This function is a hook called by the main `ATKComplianceImplementation` contract *after* a token transfer has occurred."
      },
      "validateParameters(bytes)": {
        "notice": "Concrete compliance modules MUST implement this function to validate their specific parameters."
      }
    },
    "errors": {
      "ComplianceCheckFailed(string)": [
        {
          "notice": "Emitted when a compliance check performed by the `canTransfer` function fails."
        }
      ],
      "InvalidParameters(string)": [
        {
          "notice": "Emitted by the `validateParameters` function if the provided configuration parameters are invalid for this module."
        }
      ]
    },
    "notice": "This compliance module restricts token transfers *to* users if their identity is on a prohibited list."
  },
  "devdoc": {
    "version": 1,
    "kind": "dev",
    "author": "SettleMint Tokenization Services",
    "methods": {
      "created(address,address,uint256,bytes)": {
        "details": "This is an empty `virtual` implementation. Inheriting contracts can `override` this function if they need to perform actions or update state based on successful token creation. If a module doesn't need to react to token creation, it doesn't need to override this.",
        "params": {
          "_params": "The parameters that were configured for this module when it was added to the `_token`.",
          "_to": "The address that received the newly created tokens.",
          "_token": "The address of the `ISMART` token contract where tokens were created.",
          "_value": "The amount of tokens created."
        }
      },
      "destroyed(address,address,uint256,bytes)": {
        "details": "This is an empty `virtual` implementation. Inheriting contracts can `override` this function if they need to perform actions or update state based on successful token destruction. If a module doesn't need to react to token destruction, it doesn't need to override this.",
        "params": {
          "_from": "The address whose tokens were destroyed.",
          "_params": "The parameters that were configured for this module when it was added to the `_token`.",
          "_token": "The address of the `ISMART` token contract from which tokens were destroyed.",
          "_value": "The amount of tokens destroyed."
        }
      },
      "getRoleAdmin(bytes32)": {
        "details": "Returns the admin role that controls `role`. See {grantRole} and {revokeRole}. To change a role's admin, use {_setRoleAdmin}."
      },
      "grantRole(bytes32,address)": {
        "details": "Grants `role` to `account`. If `account` had not been already granted `role`, emits a {RoleGranted} event. Requirements: - the caller must have ``role``'s admin role. May emit a {RoleGranted} event."
      },
      "hasRole(bytes32,address)": {
        "details": "Returns `true` if `account` has been granted `role`."
      },
      "isTrustedForwarder(address)": {
        "details": "Indicates whether any particular address is the trusted forwarder."
      },
      "name()": {
        "details": "This function is used to identify the type or purpose of the compliance module. For example, \"Country Allow List Module\". It should be a `pure` function as the name is typically hardcoded and doesn't depend on state.",
        "returns": {
          "_0": "A string representing the name of the compliance module."
        }
      },
      "renounceRole(bytes32,address)": {
        "details": "Revokes `role` from the calling account. Roles are often managed via {grantRole} and {revokeRole}: this function's purpose is to provide a mechanism for accounts to lose their privileges if they are compromised (such as when a trusted device is misplaced). If the calling account had been revoked `role`, emits a {RoleRevoked} event. Requirements: - the caller must be `callerConfirmation`. May emit a {RoleRevoked} event."
      },
      "revokeRole(bytes32,address)": {
        "details": "Revokes `role` from `account`. If `account` had been granted `role`, emits a {RoleRevoked} event. Requirements: - the caller must have ``role``'s admin role. May emit a {RoleRevoked} event."
      },
      "supportsInterface(bytes4)": {
        "details": "This function is part of the ERC165 standard, allowing other contracts to discover what interfaces this contract implements. It explicitly states that this module (and any inheriting contract) supports the `ISMARTComplianceModule` interface. It also calls `super.supportsInterface(interfaceId)` to include support for interfaces from parent contracts (like `AccessControl` which also implements `IERC165`).",
        "params": {
          "interfaceId": "The interface identifier (bytes4) to check."
        },
        "returns": {
          "_0": "`true` if the contract supports the `interfaceId`, `false` otherwise."
        }
      },
      "transferred(address,address,address,uint256,bytes)": {
        "details": "This is an empty `virtual` implementation. Inheriting contracts can `override` this function if they need to perform actions or update state based on a successful transfer. For example, a module might log transfer details or update internal counters. If a module doesn't need to react to transfers, it doesn't need to override this.",
        "params": {
          "_from": "The address from which tokens were transferred.",
          "_params": "The parameters that were configured for this module when it was added to the `_token`.",
          "_to": "The address to which tokens were transferred.",
          "_token": "The address of the `ISMART` token contract that performed the transfer.",
          "_value": "The amount of tokens transferred."
        }
      },
      "trustedForwarder()": {
        "details": "Returns the address of the trusted forwarder."
      },
      "validateParameters(bytes)": {
        "details": "This function is called by the `SMARTComplianceImplementation` (via `_validateModuleAndParams`) when a module is being registered with a token or when checking if a module is valid. The implementation in the inheriting module should: 1. Attempt to decode `_params` according to the expected format for that module. 2. Validate the decoded parameters (e.g., check for valid ranges, correct array lengths, non-zero addresses etc.). - If the parameters ARE valid, this function should simply return. - If the parameters ARE NOT valid, this function MUST `revert` (e.g., `revert InvalidParameters(\"Reason\");`). This function is a `view` function.",
        "params": {
          "_params": "The ABI-encoded parameters that need to be validated. The format is specific to each concrete module."
        }
      }
    },
    "events": {
      "RoleAdminChanged(bytes32,bytes32,bytes32)": {
        "details": "Emitted when `newAdminRole` is set as ``role``'s admin role, replacing `previousAdminRole` `DEFAULT_ADMIN_ROLE` is the starting admin for all roles, despite {RoleAdminChanged} not being emitted to signal this."
      },
      "RoleGranted(bytes32,address,address)": {
        "details": "Emitted when `account` is granted `role`. `sender` is the account that originated the contract call. This account bears the admin role (for the granted role). Expected in cases where the role was granted using the internal {AccessControl-_grantRole}."
      },
      "RoleRevoked(bytes32,address,address)": {
        "details": "Emitted when `account` is revoked `role`. `sender` is the account that originated the contract call:   - if using `revokeRole`, it is the admin role bearer   - if using `renounceRole`, it is the role bearer (i.e. `account`)"
      }
    },
    "errors": {
      "AccessControlBadConfirmation()": [
        {
          "details": "The caller of a function is not the expected one. NOTE: Don't confuse with {AccessControlUnauthorizedAccount}."
        }
      ],
      "AccessControlUnauthorizedAccount(address,bytes32)": [
        {
          "details": "The `account` is missing a role."
        }
      ],
      "ComplianceCheckFailed(string)": [
        {
          "details": "This error indicates that a proposed token transfer, mint, or burn operation violates      the rules enforced by this specific compliance module.",
          "params": {
            "reason": "A descriptive string explaining why the compliance check failed (e.g., \"Sender not allow listed\", \"Transfer exceeds daily limit\")."
          }
        }
      ],
      "InvalidParameters(string)": [
        {
          "details": "This error signals that the data supplied to configure or update the module is malformed, out of expected range,      or otherwise unsuitable for the module's intended operation.",
          "params": {
            "reason": "A descriptive string explaining why the parameters are considered invalid (e.g., \"Invalid country code format\", \"Limit parameter cannot be zero\")."
          }
        }
      ]
    },
    "title": "Identity Block-List Compliance Module"
  },
  "id": 98
}