{
  "_format": "hh-sol-artifact-1",
  "contractName": "CountryBlockListComplianceModule",
  "sourceName": "contracts/smart/modules/CountryBlockListComplianceModule.sol",
  "abi": [
    {
      "inputs": [
        {
          "internalType": "address",
          "name": "_trustedForwarder",
          "type": "address"
        }
      ],
      "stateMutability": "nonpayable",
      "type": "constructor"
    },
    {
      "inputs": [],
      "name": "AccessControlBadConfirmation",
      "type": "error"
    },
    {
      "inputs": [
        {
          "internalType": "address",
          "name": "account",
          "type": "address"
        },
        {
          "internalType": "bytes32",
          "name": "neededRole",
          "type": "bytes32"
        }
      ],
      "name": "AccessControlUnauthorizedAccount",
      "type": "error"
    },
    {
      "inputs": [
        {
          "internalType": "string",
          "name": "reason",
          "type": "string"
        }
      ],
      "name": "ComplianceCheckFailed",
      "type": "error"
    },
    {
      "inputs": [
        {
          "internalType": "string",
          "name": "reason",
          "type": "string"
        }
      ],
      "name": "InvalidParameters",
      "type": "error"
    },
    {
      "anonymous": false,
      "inputs": [
        {
          "indexed": false,
          "internalType": "uint16[]",
          "name": "countries",
          "type": "uint16[]"
        },
        {
          "indexed": true,
          "internalType": "bool",
          "name": "blocked",
          "type": "bool"
        }
      ],
      "name": "GlobalBlockedCountriesUpdated",
      "type": "event"
    },
    {
      "anonymous": false,
      "inputs": [
        {
          "indexed": true,
          "internalType": "bytes32",
          "name": "role",
          "type": "bytes32"
        },
        {
          "indexed": true,
          "internalType": "bytes32",
          "name": "previousAdminRole",
          "type": "bytes32"
        },
        {
          "indexed": true,
          "internalType": "bytes32",
          "name": "newAdminRole",
          "type": "bytes32"
        }
      ],
      "name": "RoleAdminChanged",
      "type": "event"
    },
    {
      "anonymous": false,
      "inputs": [
        {
          "indexed": true,
          "internalType": "bytes32",
          "name": "role",
          "type": "bytes32"
        },
        {
          "indexed": true,
          "internalType": "address",
          "name": "account",
          "type": "address"
        },
        {
          "indexed": true,
          "internalType": "address",
          "name": "sender",
          "type": "address"
        }
      ],
      "name": "RoleGranted",
      "type": "event"
    },
    {
      "anonymous": false,
      "inputs": [
        {
          "indexed": true,
          "internalType": "bytes32",
          "name": "role",
          "type": "bytes32"
        },
        {
          "indexed": true,
          "internalType": "address",
          "name": "account",
          "type": "address"
        },
        {
          "indexed": true,
          "internalType": "address",
          "name": "sender",
          "type": "address"
        }
      ],
      "name": "RoleRevoked",
      "type": "event"
    },
    {
      "inputs": [],
      "name": "DEFAULT_ADMIN_ROLE",
      "outputs": [
        {
          "internalType": "bytes32",
          "name": "",
          "type": "bytes32"
        }
      ],
      "stateMutability": "view",
      "type": "function"
    },
    {
      "inputs": [],
      "name": "GLOBAL_LIST_MANAGER_ROLE",
      "outputs": [
        {
          "internalType": "bytes32",
          "name": "",
          "type": "bytes32"
        }
      ],
      "stateMutability": "view",
      "type": "function"
    },
    {
      "inputs": [
        {
          "internalType": "address",
          "name": "_token",
          "type": "address"
        },
        {
          "internalType": "address",
          "name": "",
          "type": "address"
        },
        {
          "internalType": "address",
          "name": "_to",
          "type": "address"
        },
        {
          "internalType": "uint256",
          "name": "",
          "type": "uint256"
        },
        {
          "internalType": "bytes",
          "name": "_params",
          "type": "bytes"
        }
      ],
      "name": "canTransfer",
      "outputs": [],
      "stateMutability": "view",
      "type": "function"
    },
    {
      "inputs": [
        {
          "internalType": "address",
          "name": "_token",
          "type": "address"
        },
        {
          "internalType": "address",
          "name": "_to",
          "type": "address"
        },
        {
          "internalType": "uint256",
          "name": "_value",
          "type": "uint256"
        },
        {
          "internalType": "bytes",
          "name": "_params",
          "type": "bytes"
        }
      ],
      "name": "created",
      "outputs": [],
      "stateMutability": "nonpayable",
      "type": "function"
    },
    {
      "inputs": [
        {
          "internalType": "address",
          "name": "_token",
          "type": "address"
        },
        {
          "internalType": "address",
          "name": "_from",
          "type": "address"
        },
        {
          "internalType": "uint256",
          "name": "_value",
          "type": "uint256"
        },
        {
          "internalType": "bytes",
          "name": "_params",
          "type": "bytes"
        }
      ],
      "name": "destroyed",
      "outputs": [],
      "stateMutability": "nonpayable",
      "type": "function"
    },
    {
      "inputs": [],
      "name": "getGlobalBlockedCountries",
      "outputs": [
        {
          "internalType": "uint16[]",
          "name": "",
          "type": "uint16[]"
        }
      ],
      "stateMutability": "view",
      "type": "function"
    },
    {
      "inputs": [
        {
          "internalType": "bytes32",
          "name": "role",
          "type": "bytes32"
        }
      ],
      "name": "getRoleAdmin",
      "outputs": [
        {
          "internalType": "bytes32",
          "name": "",
          "type": "bytes32"
        }
      ],
      "stateMutability": "view",
      "type": "function"
    },
    {
      "inputs": [
        {
          "internalType": "bytes32",
          "name": "role",
          "type": "bytes32"
        },
        {
          "internalType": "address",
          "name": "account",
          "type": "address"
        }
      ],
      "name": "grantRole",
      "outputs": [],
      "stateMutability": "nonpayable",
      "type": "function"
    },
    {
      "inputs": [
        {
          "internalType": "bytes32",
          "name": "role",
          "type": "bytes32"
        },
        {
          "internalType": "address",
          "name": "account",
          "type": "address"
        }
      ],
      "name": "hasRole",
      "outputs": [
        {
          "internalType": "bool",
          "name": "",
          "type": "bool"
        }
      ],
      "stateMutability": "view",
      "type": "function"
    },
    {
      "inputs": [
        {
          "internalType": "uint16",
          "name": "_country",
          "type": "uint16"
        }
      ],
      "name": "isGloballyBlocked",
      "outputs": [
        {
          "internalType": "bool",
          "name": "",
          "type": "bool"
        }
      ],
      "stateMutability": "view",
      "type": "function"
    },
    {
      "inputs": [
        {
          "internalType": "address",
          "name": "forwarder",
          "type": "address"
        }
      ],
      "name": "isTrustedForwarder",
      "outputs": [
        {
          "internalType": "bool",
          "name": "",
          "type": "bool"
        }
      ],
      "stateMutability": "view",
      "type": "function"
    },
    {
      "inputs": [],
      "name": "name",
      "outputs": [
        {
          "internalType": "string",
          "name": "",
          "type": "string"
        }
      ],
      "stateMutability": "pure",
      "type": "function"
    },
    {
      "inputs": [
        {
          "internalType": "bytes32",
          "name": "role",
          "type": "bytes32"
        },
        {
          "internalType": "address",
          "name": "callerConfirmation",
          "type": "address"
        }
      ],
      "name": "renounceRole",
      "outputs": [],
      "stateMutability": "nonpayable",
      "type": "function"
    },
    {
      "inputs": [
        {
          "internalType": "bytes32",
          "name": "role",
          "type": "bytes32"
        },
        {
          "internalType": "address",
          "name": "account",
          "type": "address"
        }
      ],
      "name": "revokeRole",
      "outputs": [],
      "stateMutability": "nonpayable",
      "type": "function"
    },
    {
      "inputs": [
        {
          "internalType": "uint16[]",
          "name": "_countries",
          "type": "uint16[]"
        },
        {
          "internalType": "bool",
          "name": "_block",
          "type": "bool"
        }
      ],
      "name": "setGlobalBlockedCountries",
      "outputs": [],
      "stateMutability": "nonpayable",
      "type": "function"
    },
    {
      "inputs": [
        {
          "internalType": "bytes4",
          "name": "interfaceId",
          "type": "bytes4"
        }
      ],
      "name": "supportsInterface",
      "outputs": [
        {
          "internalType": "bool",
          "name": "",
          "type": "bool"
        }
      ],
      "stateMutability": "view",
      "type": "function"
    },
    {
      "inputs": [
        {
          "internalType": "address",
          "name": "_token",
          "type": "address"
        },
        {
          "internalType": "address",
          "name": "_from",
          "type": "address"
        },
        {
          "internalType": "address",
          "name": "_to",
          "type": "address"
        },
        {
          "internalType": "uint256",
          "name": "_value",
          "type": "uint256"
        },
        {
          "internalType": "bytes",
          "name": "_params",
          "type": "bytes"
        }
      ],
      "name": "transferred",
      "outputs": [],
      "stateMutability": "nonpayable",
      "type": "function"
    },
    {
      "inputs": [],
      "name": "trustedForwarder",
      "outputs": [
        {
          "internalType": "address",
          "name": "",
          "type": "address"
        }
      ],
      "stateMutability": "view",
      "type": "function"
    },
    {
      "inputs": [
        {
          "internalType": "bytes",
          "name": "_params",
          "type": "bytes"
        }
      ],
      "name": "validateParameters",
      "outputs": [],
      "stateMutability": "view",
      "type": "function"
    }
  ],
  "bytecode": "0x60a03461009a57601f6114cd38819003918201601f19168301916001600160401b0383118484101761009e5780849260209460405283398101031261009a57516001600160a01b038116810361009a5760805261006261005d6101df565b6100b2565b5061007361006e6101df565b61013b565b5060405161123e908161022f82396080518181816107ad0152818161087d01526110df0152f35b5f80fd5b634e487b7160e01b5f52604160045260245ffd5b6001600160a01b0381165f9081525f51602061148d5f395f51905f52602052604090205460ff16610136576001600160a01b038181165f9081525f51602061148d5f395f51905f5260205260409020805460ff191660011790556101146101df565b16906001600160a01b03165f5f51602061146d5f395f51905f528180a4600190565b505f90565b6001600160a01b0381165f9081525f5160206114ad5f395f51905f52602052604090205460ff16610136576001600160a01b038181165f9081525f5160206114ad5f395f51905f5260205260409020805460ff1916600117905561019d6101df565b16906001600160a01b03167f9b55cfb75ccf6f1a6d907f6f30122d92666cac147d834990fba3410dfac61ef65f51602061146d5f395f51905f525f80a4600190565b6080516001600160a01b0316331480610223575b1561021f57601319360136811161020b573560601c90565b634e487b7160e01b5f52601160045260245ffd5b3390565b5060143610156101f356fe6080806040526004361015610012575f80fd5b5f3560e01c90816301ffc9a714610a3e5750806306fdde03146109ad5780630fbf50921461097257806310efe2a514610731578063248a9ca3146109405780632f2ff15d1461090357806336568abe146108af578063572b6c05146108525780636974f58e14610816578063771d2f5e146107dc5780637da0a8771461079857806391d1485414610750578063a217fddf14610736578063c4c104b914610731578063ca1e16b3146104e1578063d547741f1461049f578063dccf19f41461011c578063ddfcf377146101015763ea6b97a5146100ed575f80fd5b346100fd576100fb36610b57565b005b5f80fd5b346100fd576100fb61011236610b57565b9491509250610c75565b346100fd575f3660031901126100fd57604051806020600254918281520190828260025f527f405787fa12a823e0f2b7631cc41b3ba8828b3321ca811111fa75cd3aa3bb5ace925f905b80600f8301106103b7576101ff9454918181106103a2575b81811061038a575b818110610373575b81811061035b575b818110610343575b81811061032b575b818110610313575b8181106102fb575b8181106102e3575b8181106102cb575b8181106102b3575b81811061029b575b818110610283575b81811061026b575b818110610253575b10610245575b509392930382610bc6565b604051918291602083019060208452518091526040830191905f5b818110610228575050500390f35b825161ffff1684528594506020938401939092019160010161021a565b60f01c8152602001856101f4565b92602060019161ffff8560e01c1681520193016101ee565b92602060019161ffff8560d01c1681520193016101e6565b92602060019161ffff8560c01c1681520193016101de565b92602060019161ffff8560b01c1681520193016101d6565b92602060019161ffff8560a01c1681520193016101ce565b92602060019161ffff8560901c1681520193016101c6565b92602060019161ffff8560801c1681520193016101be565b92602060019161ffff8560701c1681520193016101b6565b92602060019161ffff8560601c1681520193016101ae565b92602060019161ffff8560501c1681520193016101a6565b92602060019161ffff8560401c16815201930161019e565b92602060019161ffff8560301c168152019301610196565b92602060019161ffff85831c16815201930161018e565b92602060019161ffff8560101c168152019301610186565b92602060019161ffff8516815201930161017e565b916010919350610200600191865461ffff8116825261ffff81861c16602083015261ffff8160201c16604083015261ffff8160301c16606083015261ffff8160401c16608083015261ffff8160501c1660a083015261ffff8160601c1660c083015261ffff8160701c1660e083015261ffff8160801c1661010083015261ffff8160901c1661012083015261ffff8160a01c1661014083015261ffff8160b01c1661016083015261ffff8160c01c1661018083015261ffff8160d01c166101a083015261ffff8160e01c166101c083015260f01c6101e0820152019401920185929391610166565b346100fd5760403660031901126100fd576100fb6004356104be610aba565b906104dc6104d7825f525f602052600160405f20015490565b610db2565b610e98565b346100fd5760403660031901126100fd5760043567ffffffffffffffff81116100fd57366023820112156100fd5780600401359067ffffffffffffffff82116100fd573660248360051b830101116100fd5760243580158015928383036100fd5761054a6110dc565b6001600160a01b0381165f9081527f9b6046957f41cb9d409aa8cdf012eb36129daef06a27f14d4eed5f0368318d1f602052604090205460ff16156106ed575060ff841694935f5b858110156106815760248160051b840101359061ffff82168083036100fd575f818152600160205260409020805460ff1981168b17909155869060ff168880610679575b1561064b575050600254680100000000000000008110156106375760019361060682866106209401600255610f25565b90919061ffff8084549260031b9316831b921b1916179055565b600254905f52600360205260405f20555b01610592565b634e487b7160e01b5f52604160045260245ffd5b600194925081610671575b50610662575b50610631565b61066b90611149565b8861065c565b90508a610656565b5080156105d6565b50604080516020808252810187905290810160248401875f5b8181106106ca57857f055af132300a0011f52bb29453d7d257bbd60c08ad560bff6ae21c6381505ffa86860387a2005b90919260208060019261ffff6106df88610aab565b16815201940192910161069a565b63e2517d3f60e01b5f9081526001600160a01b03919091166004527f9b55cfb75ccf6f1a6d907f6f30122d92666cac147d834990fba3410dfac61ef6602452604490fd5b610afe565b346100fd575f3660031901126100fd5760206040515f8152f35b346100fd5760403660031901126100fd57610769610aba565b6004355f525f60205260405f209060018060a01b03165f52602052602060ff60405f2054166040519015158152f35b346100fd575f3660031901126100fd576040517f00000000000000000000000000000000000000000000000000000000000000006001600160a01b03168152602090f35b346100fd575f3660031901126100fd5760206040517f9b55cfb75ccf6f1a6d907f6f30122d92666cac147d834990fba3410dfac61ef68152f35b346100fd5760203660031901126100fd5760043567ffffffffffffffff81116100fd5761084a6100fb913690600401610ad0565b810190610be8565b346100fd5760203660031901126100fd576004356001600160a01b038116908190036100fd576040517f00000000000000000000000000000000000000000000000000000000000000006001600160a01b03169091148152602090f35b346100fd5760403660031901126100fd576108c8610aba565b6001600160a01b036108d86110dc565b166001600160a01b038216036108f4576100fb90600435610e98565b63334bd91960e11b5f5260045ffd5b346100fd5760403660031901126100fd576100fb600435610922610aba565b9061093b6104d7825f525f602052600160405f20015490565b610e03565b346100fd5760203660031901126100fd57602061096a6004355f525f602052600160405f20015490565b604051908152f35b346100fd5760203660031901126100fd5760043561ffff81168091036100fd575f526001602052602060ff60405f2054166040519015158152f35b346100fd575f3660031901126100fd576040516060810181811067ffffffffffffffff8211176106375760405260238152604060208201917f436f756e74727920426c6f636b4c69737420436f6d706c69616e6365204d6f64835262756c6560e81b828201528151928391602083525180918160208501528484015e5f828201840152601f01601f19168101030190f35b346100fd5760203660031901126100fd576004359063ffffffff60e01b82168092036100fd57602091638c30a94360e01b8114908115610a80575b5015158152f35b637965db0b60e01b811491508115610a9a575b5083610a79565b6301ffc9a760e01b14905083610a93565b359061ffff821682036100fd57565b602435906001600160a01b03821682036100fd57565b9181601f840112156100fd5782359167ffffffffffffffff83116100fd57602083818601950101116100fd57565b346100fd5760803660031901126100fd576004356001600160a01b03811681036100fd57506024356001600160a01b03811681036100fd575060643567ffffffffffffffff81116100fd576100fb903690600401610ad0565b60a06003198201126100fd576004356001600160a01b03811681036100fd57916024356001600160a01b03811681036100fd57916044356001600160a01b03811681036100fd5791606435916084359067ffffffffffffffff82116100fd57610bc291600401610ad0565b9091565b90601f8019910116810190811067ffffffffffffffff82111761063757604052565b6020818303126100fd5780359067ffffffffffffffff82116100fd57019080601f830112156100fd5781359167ffffffffffffffff8311610637578260051b9060405193610c396020840186610bc6565b84526020808501928201019283116100fd57602001905b828210610c5d5750505090565b60208091610c6a84610aab565b815201910190610c50565b90610c8291939293610f65565b90158015610da6575b610da15761ffff1691825f52600160205260ff60405f205416610d5157610cb491810190610be8565b908151915f5b838110610cc75750505050565b8151811015610d3d578261ffff60208360051b850101511614610cec57600101610cba565b60405163327d269360e01b815260206004820152602260248201527f526563656976657220636f756e74727920626c6f636b656420666f7220746f6b60448201526132b760f11b6064820152608490fd5b634e487b7160e01b5f52603260045260245ffd5b60405163327d269360e01b815260206004820152602160248201527f526563656976657220636f756e74727920676c6f62616c6c7920626c6f636b656044820152601960fa1b6064820152608490fd5b505050565b5061ffff811615610c8b565b610dba6110dc565b5f828152602081815260408083206001600160a01b038516845290915290205460ff1615610de6575050565b63e2517d3f60e01b5f5260018060a01b031660045260245260445ffd5b5f818152602081815260408083206001600160a01b038616845290915290205460ff16610e92575f818152602081815260408083206001600160a01b0386811685529252909120805460ff19166001179055610e5d6110dc565b16916001600160a01b0316907f2f8788117e7eff1d82e926ec794901d17c78024a50270940304540a733656f0d5f80a4600190565b50505f90565b5f818152602081815260408083206001600160a01b038616845290915290205460ff1615610e92575f818152602081815260408083206001600160a01b0386811685529252909120805460ff19169055610ef06110dc565b16916001600160a01b0316907ff6391f5c32d9c69d2a47ea670b442974b53935d1edc7fd64eb21e047a839171b5f80a4600190565b90600254821015610d3d5760025f52600482901c7f405787fa12a823e0f2b7631cc41b3ba8828b3321ca811111fa75cd3aa3bb5ace019160011b601e1690565b6040516304d3863d60e21b815291929190602090829060049082906001600160a01b03165afa90811561104c575f9161109a575b50604051630bb7c8fd60e31b81526001600160a01b03938416600482018190529190931692602081602481875afa90811561104c575f9161105f575b501561105757602090602460405180958193637e42683b60e01b835260048301525afa91821561104c575f9261100d575b5060019190565b9091506020813d602011611044575b8161102960209383610bc6565b810103126100fd575161ffff811681036100fd57905f611006565b3d915061101c565b6040513d5f823e3d90fd5b505f91508190565b90506020813d602011611092575b8161107a60209383610bc6565b810103126100fd575180151581036100fd575f610fd5565b3d915061106d565b90506020813d6020116110d4575b816110b560209383610bc6565b810103126100fd57516001600160a01b03811681036100fd575f610f99565b3d91506110a8565b337f00000000000000000000000000000000000000000000000000000000000000006001600160a01b0316148061113e575b1561113a576013193601368111611126573560601c90565b634e487b7160e01b5f52601160045260245ffd5b3390565b50601436101561110e565b61ffff16805f52600360205260405f20548015611204575f198101818111611126576002545f198101908111611126578082036111cd575b50505060025480156111b9575f190161119981610f25565b61ffff82549160031b1b191690556002555f5260036020525f6040812055565b634e487b7160e01b5f52603160045260245ffd5b6106069161ffff6111e06111f093610f25565b90549060031b1c16928391610f25565b5f52600360205260405f20555f8080611181565b505056fea2646970667358221220d12d97ae3bee03fe28bd0d37f21d36a540e465eb65507f08d57ad4344e15d8a464736f6c634300081c00332f8788117e7eff1d82e926ec794901d17c78024a50270940304540a733656f0dad3228b676f7d3cd4284a5443f17f1962b36e491b30a40b2405849e597ba5fb59b6046957f41cb9d409aa8cdf012eb36129daef06a27f14d4eed5f0368318d1f",
  "linkReferences": {},
  "deployedLinkReferences": {}
}