{
  "_format": "hh-sol-artifact-1",
  "contractName": "IdentityAllowListComplianceModule",
  "sourceName": "contracts/smart/modules/IdentityAllowListComplianceModule.sol",
  "abi": [
    {
      "inputs": [
        {
          "internalType": "address",
          "name": "_trustedForwarder",
          "type": "address"
        }
      ],
      "stateMutability": "nonpayable",
      "type": "constructor"
    },
    {
      "inputs": [],
      "name": "AccessControlBadConfirmation",
      "type": "error"
    },
    {
      "inputs": [
        {
          "internalType": "address",
          "name": "account",
          "type": "address"
        },
        {
          "internalType": "bytes32",
          "name": "neededRole",
          "type": "bytes32"
        }
      ],
      "name": "AccessControlUnauthorizedAccount",
      "type": "error"
    },
    {
      "inputs": [
        {
          "internalType": "string",
          "name": "reason",
          "type": "string"
        }
      ],
      "name": "ComplianceCheckFailed",
      "type": "error"
    },
    {
      "inputs": [
        {
          "internalType": "string",
          "name": "reason",
          "type": "string"
        }
      ],
      "name": "InvalidParameters",
      "type": "error"
    },
    {
      "anonymous": false,
      "inputs": [
        {
          "indexed": false,
          "internalType": "address[]",
          "name": "identityAddresses",
          "type": "address[]"
        },
        {
          "indexed": true,
          "internalType": "bool",
          "name": "allowed",
          "type": "bool"
        }
      ],
      "name": "GlobalAllowedIdentitiesUpdated",
      "type": "event"
    },
    {
      "anonymous": false,
      "inputs": [
        {
          "indexed": true,
          "internalType": "bytes32",
          "name": "role",
          "type": "bytes32"
        },
        {
          "indexed": true,
          "internalType": "bytes32",
          "name": "previousAdminRole",
          "type": "bytes32"
        },
        {
          "indexed": true,
          "internalType": "bytes32",
          "name": "newAdminRole",
          "type": "bytes32"
        }
      ],
      "name": "RoleAdminChanged",
      "type": "event"
    },
    {
      "anonymous": false,
      "inputs": [
        {
          "indexed": true,
          "internalType": "bytes32",
          "name": "role",
          "type": "bytes32"
        },
        {
          "indexed": true,
          "internalType": "address",
          "name": "account",
          "type": "address"
        },
        {
          "indexed": true,
          "internalType": "address",
          "name": "sender",
          "type": "address"
        }
      ],
      "name": "RoleGranted",
      "type": "event"
    },
    {
      "anonymous": false,
      "inputs": [
        {
          "indexed": true,
          "internalType": "bytes32",
          "name": "role",
          "type": "bytes32"
        },
        {
          "indexed": true,
          "internalType": "address",
          "name": "account",
          "type": "address"
        },
        {
          "indexed": true,
          "internalType": "address",
          "name": "sender",
          "type": "address"
        }
      ],
      "name": "RoleRevoked",
      "type": "event"
    },
    {
      "inputs": [],
      "name": "DEFAULT_ADMIN_ROLE",
      "outputs": [
        {
          "internalType": "bytes32",
          "name": "",
          "type": "bytes32"
        }
      ],
      "stateMutability": "view",
      "type": "function"
    },
    {
      "inputs": [],
      "name": "GLOBAL_LIST_MANAGER_ROLE",
      "outputs": [
        {
          "internalType": "bytes32",
          "name": "",
          "type": "bytes32"
        }
      ],
      "stateMutability": "view",
      "type": "function"
    },
    {
      "inputs": [
        {
          "internalType": "address",
          "name": "_token",
          "type": "address"
        },
        {
          "internalType": "address",
          "name": "",
          "type": "address"
        },
        {
          "internalType": "address",
          "name": "_to",
          "type": "address"
        },
        {
          "internalType": "uint256",
          "name": "",
          "type": "uint256"
        },
        {
          "internalType": "bytes",
          "name": "_params",
          "type": "bytes"
        }
      ],
      "name": "canTransfer",
      "outputs": [],
      "stateMutability": "view",
      "type": "function"
    },
    {
      "inputs": [
        {
          "internalType": "address",
          "name": "_token",
          "type": "address"
        },
        {
          "internalType": "address",
          "name": "_to",
          "type": "address"
        },
        {
          "internalType": "uint256",
          "name": "_value",
          "type": "uint256"
        },
        {
          "internalType": "bytes",
          "name": "_params",
          "type": "bytes"
        }
      ],
      "name": "created",
      "outputs": [],
      "stateMutability": "nonpayable",
      "type": "function"
    },
    {
      "inputs": [
        {
          "internalType": "address",
          "name": "_token",
          "type": "address"
        },
        {
          "internalType": "address",
          "name": "_from",
          "type": "address"
        },
        {
          "internalType": "uint256",
          "name": "_value",
          "type": "uint256"
        },
        {
          "internalType": "bytes",
          "name": "_params",
          "type": "bytes"
        }
      ],
      "name": "destroyed",
      "outputs": [],
      "stateMutability": "nonpayable",
      "type": "function"
    },
    {
      "inputs": [],
      "name": "getGlobalAllowedIdentities",
      "outputs": [
        {
          "internalType": "address[]",
          "name": "",
          "type": "address[]"
        }
      ],
      "stateMutability": "view",
      "type": "function"
    },
    {
      "inputs": [
        {
          "internalType": "bytes32",
          "name": "role",
          "type": "bytes32"
        }
      ],
      "name": "getRoleAdmin",
      "outputs": [
        {
          "internalType": "bytes32",
          "name": "",
          "type": "bytes32"
        }
      ],
      "stateMutability": "view",
      "type": "function"
    },
    {
      "inputs": [
        {
          "internalType": "bytes32",
          "name": "role",
          "type": "bytes32"
        },
        {
          "internalType": "address",
          "name": "account",
          "type": "address"
        }
      ],
      "name": "grantRole",
      "outputs": [],
      "stateMutability": "nonpayable",
      "type": "function"
    },
    {
      "inputs": [
        {
          "internalType": "bytes32",
          "name": "role",
          "type": "bytes32"
        },
        {
          "internalType": "address",
          "name": "account",
          "type": "address"
        }
      ],
      "name": "hasRole",
      "outputs": [
        {
          "internalType": "bool",
          "name": "",
          "type": "bool"
        }
      ],
      "stateMutability": "view",
      "type": "function"
    },
    {
      "inputs": [
        {
          "internalType": "address",
          "name": "_identityAddress",
          "type": "address"
        }
      ],
      "name": "isGloballyAllowed",
      "outputs": [
        {
          "internalType": "bool",
          "name": "",
          "type": "bool"
        }
      ],
      "stateMutability": "view",
      "type": "function"
    },
    {
      "inputs": [
        {
          "internalType": "address",
          "name": "forwarder",
          "type": "address"
        }
      ],
      "name": "isTrustedForwarder",
      "outputs": [
        {
          "internalType": "bool",
          "name": "",
          "type": "bool"
        }
      ],
      "stateMutability": "view",
      "type": "function"
    },
    {
      "inputs": [],
      "name": "name",
      "outputs": [
        {
          "internalType": "string",
          "name": "",
          "type": "string"
        }
      ],
      "stateMutability": "pure",
      "type": "function"
    },
    {
      "inputs": [
        {
          "internalType": "bytes32",
          "name": "role",
          "type": "bytes32"
        },
        {
          "internalType": "address",
          "name": "callerConfirmation",
          "type": "address"
        }
      ],
      "name": "renounceRole",
      "outputs": [],
      "stateMutability": "nonpayable",
      "type": "function"
    },
    {
      "inputs": [
        {
          "internalType": "bytes32",
          "name": "role",
          "type": "bytes32"
        },
        {
          "internalType": "address",
          "name": "account",
          "type": "address"
        }
      ],
      "name": "revokeRole",
      "outputs": [],
      "stateMutability": "nonpayable",
      "type": "function"
    },
    {
      "inputs": [
        {
          "internalType": "address[]",
          "name": "_identityAddresses",
          "type": "address[]"
        },
        {
          "internalType": "bool",
          "name": "_allow",
          "type": "bool"
        }
      ],
      "name": "setGlobalAllowedIdentities",
      "outputs": [],
      "stateMutability": "nonpayable",
      "type": "function"
    },
    {
      "inputs": [
        {
          "internalType": "bytes4",
          "name": "interfaceId",
          "type": "bytes4"
        }
      ],
      "name": "supportsInterface",
      "outputs": [
        {
          "internalType": "bool",
          "name": "",
          "type": "bool"
        }
      ],
      "stateMutability": "view",
      "type": "function"
    },
    {
      "inputs": [
        {
          "internalType": "address",
          "name": "_token",
          "type": "address"
        },
        {
          "internalType": "address",
          "name": "_from",
          "type": "address"
        },
        {
          "internalType": "address",
          "name": "_to",
          "type": "address"
        },
        {
          "internalType": "uint256",
          "name": "_value",
          "type": "uint256"
        },
        {
          "internalType": "bytes",
          "name": "_params",
          "type": "bytes"
        }
      ],
      "name": "transferred",
      "outputs": [],
      "stateMutability": "nonpayable",
      "type": "function"
    },
    {
      "inputs": [],
      "name": "trustedForwarder",
      "outputs": [
        {
          "internalType": "address",
          "name": "",
          "type": "address"
        }
      ],
      "stateMutability": "view",
      "type": "function"
    },
    {
      "inputs": [
        {
          "internalType": "bytes",
          "name": "_params",
          "type": "bytes"
        }
      ],
      "name": "validateParameters",
      "outputs": [],
      "stateMutability": "view",
      "type": "function"
    }
  ],
  "bytecode": "0x60a03461009a57601f61123a38819003918201601f19168301916001600160401b0383118484101761009e5780849260209460405283398101031261009a57516001600160a01b038116810361009a5760805261006261005d6101df565b6100b2565b5061007361006e6101df565b61013b565b50604051610fab908161022f82396080518181816101da015281816103670152610e3a0152f35b5f80fd5b634e487b7160e01b5f52604160045260245ffd5b6001600160a01b0381165f9081525f5160206111fa5f395f51905f52602052604090205460ff16610136576001600160a01b038181165f9081525f5160206111fa5f395f51905f5260205260409020805460ff191660011790556101146101df565b16906001600160a01b03165f5f5160206111da5f395f51905f528180a4600190565b505f90565b6001600160a01b0381165f9081525f51602061121a5f395f51905f52602052604090205460ff16610136576001600160a01b038181165f9081525f51602061121a5f395f51905f5260205260409020805460ff1916600117905561019d6101df565b16906001600160a01b03167f9b55cfb75ccf6f1a6d907f6f30122d92666cac147d834990fba3410dfac61ef65f5160206111da5f395f51905f525f80a4600190565b6080516001600160a01b0316331480610223575b1561021f57601319360136811161020b573560601c90565b634e487b7160e01b5f52601160045260245ffd5b3390565b5060143610156101f356fe6080806040526004361015610012575f80fd5b5f3560e01c90816301ffc9a714610798575080630312972a1461075357806306fdde03146106c157806310efe2a51461015e578063243808ff1461045e578063248a9ca31461042c5780632f2ff15d146103ef57806336568abe1461039b578063572b6c05146103475780635e63ff1b1461027f5780636974f58e14610243578063771d2f5e146102095780637da0a877146101c557806391d148541461017d578063a217fddf14610163578063c4c104b91461015e578063d547741f1461011c578063ddfcf377146101015763ea6b97a5146100ed575f80fd5b346100fd576100fb366108cc565b005b5f80fd5b346100fd576100fb610112366108cc565b94915092506109ea565b346100fd5760403660031901126100fd576100fb60043561013b61081b565b90610159610154825f525f602052600160405f20015490565b610b30565b610c16565b610873565b346100fd575f3660031901126100fd5760206040515f8152f35b346100fd5760403660031901126100fd5761019661081b565b6004355f525f60205260405f209060018060a01b03165f52602052602060ff60405f2054166040519015158152f35b346100fd575f3660031901126100fd576040517f00000000000000000000000000000000000000000000000000000000000000006001600160a01b03168152602090f35b346100fd575f3660031901126100fd5760206040517f9b55cfb75ccf6f1a6d907f6f30122d92666cac147d834990fba3410dfac61ef68152f35b346100fd5760203660031901126100fd5760043567ffffffffffffffff81116100fd576102776100fb913690600401610845565b81019061095d565b346100fd575f3660031901126100fd576040518060206002549283815201809260025f527f405787fa12a823e0f2b7631cc41b3ba8828b3321ca811111fa75cd3aa3bb5ace905f5b81811061032857505050816102dd91038261093b565b604051918291602083019060208452518091526040830191905f5b818110610306575050500390f35b82516001600160a01b03168452859450602093840193909201916001016102f8565b82546001600160a01b03168452602090930192600192830192016102c7565b346100fd5760203660031901126100fd576020610362610805565b6040517f00000000000000000000000000000000000000000000000000000000000000006001600160a01b039081169216919091148152f35b346100fd5760403660031901126100fd576103b461081b565b6001600160a01b036103c4610e37565b166001600160a01b038216036103e0576100fb90600435610c16565b63334bd91960e11b5f5260045ffd5b346100fd5760403660031901126100fd576100fb60043561040e61081b565b90610427610154825f525f602052600160405f20015490565b610b81565b346100fd5760203660031901126100fd5760206104566004355f525f602052600160405f20015490565b604051908152f35b346100fd5760403660031901126100fd5760043567ffffffffffffffff81116100fd57366023820112156100fd5780600401359067ffffffffffffffff82116100fd573660248360051b830101116100fd5760243580158015928383036100fd576104c7610e37565b6001600160a01b0381165f9081527f9b6046957f41cb9d409aa8cdf012eb36129daef06a27f14d4eed5f0368318d1f602052604090205460ff161561067d575060ff841694935f5b8581101561060e57600581901b830160240135906001600160a01b0382168083036100fd575f818152600160205260409020805460ff1981168b17909155869060ff168880610606575b156105d8575050600254680100000000000000008110156105c45760019361058982866105ad9401600255610e1f565b81546001600160a01b0393841660039290921b91821b9390911b1916919091179055565b600254905f52600360205260405f20555b0161050f565b634e487b7160e01b5f52604160045260245ffd5b6001949250816105fe575b506105ef575b506105be565b6105f890610ea4565b886105e9565b90508a6105e3565b508015610559565b50604080516020808252810187905290810160248401875f5b81811061065757857f163a186578b181aa5d22cf6c7bc425bc14dcd2877dd0d881c380037eabdc11fe86860387a2005b909192602080600192838060a01b0361066f88610831565b168152019401929101610627565b63e2517d3f60e01b5f9081526001600160a01b03919091166004527f9b55cfb75ccf6f1a6d907f6f30122d92666cac147d834990fba3410dfac61ef6602452604490fd5b346100fd575f3660031901126100fd576040516060810181811067ffffffffffffffff8211176105c45760405260248152604060208201917f4964656e7469747920416c6c6f774c69737420436f6d706c69616e6365204d6f83526364756c6560e01b828201528151928391602083525180918160208501528484015e5f828201840152601f01601f19168101030190f35b346100fd5760203660031901126100fd57602061078e610771610805565b6001600160a01b03165f9081526001602052604090205460ff1690565b6040519015158152f35b346100fd5760203660031901126100fd576004359063ffffffff60e01b82168092036100fd57602091638c30a94360e01b81149081156107da575b5015158152f35b637965db0b60e01b8114915081156107f4575b50836107d3565b6301ffc9a760e01b149050836107ed565b600435906001600160a01b03821682036100fd57565b602435906001600160a01b03821682036100fd57565b35906001600160a01b03821682036100fd57565b9181601f840112156100fd5782359167ffffffffffffffff83116100fd57602083818601950101116100fd57565b346100fd5760803660031901126100fd576004356001600160a01b03811681036100fd57506024356001600160a01b03811681036100fd575060643567ffffffffffffffff81116100fd576100fb903690600401610845565b60a06003198201126100fd576004356001600160a01b03811681036100fd57916024356001600160a01b03811681036100fd57916044356001600160a01b03811681036100fd5791606435916084359067ffffffffffffffff82116100fd5761093791600401610845565b9091565b90601f8019910116810190811067ffffffffffffffff8211176105c457604052565b6020818303126100fd5780359067ffffffffffffffff82116100fd57019080601f830112156100fd5781359167ffffffffffffffff83116105c4578260051b90604051936109ae602084018661093b565b84526020808501928201019283116100fd57602001905b8282106109d25750505090565b602080916109df84610831565b8152019101906109c5565b906109f791939293610ca3565b90158015610b1f575b610ad9576001600160a01b03165f8181526001602052604090205490929060ff16610ad457610a319181019061095d565b908151915f5b838110610a8f5760405163327d269360e01b815260206004820152602260248201527f5265636569766572206964656e74697479206e6f7420696e20616c6c6f776c696044820152611cdd60f21b6064820152608490fd5b8151811015610ac057600581901b8201602001516001600160a01b03168314610aba57600101610a37565b50505050565b634e487b7160e01b5f52603260045260245ffd5b505050565b60405163327d269360e01b815260206004820152601960248201527f5265636569766572206964656e7469747920756e6b6e6f776e000000000000006044820152606490fd5b506001600160a01b03811615610a00565b610b38610e37565b5f828152602081815260408083206001600160a01b038516845290915290205460ff1615610b64575050565b63e2517d3f60e01b5f5260018060a01b031660045260245260445ffd5b5f818152602081815260408083206001600160a01b038616845290915290205460ff16610c10575f818152602081815260408083206001600160a01b0386811685529252909120805460ff19166001179055610bdb610e37565b16916001600160a01b0316907f2f8788117e7eff1d82e926ec794901d17c78024a50270940304540a733656f0d5f80a4600190565b50505f90565b5f818152602081815260408083206001600160a01b038616845290915290205460ff1615610c10575f818152602081815260408083206001600160a01b0386811685529252909120805460ff19169055610c6e610e37565b16916001600160a01b0316907ff6391f5c32d9c69d2a47ea670b442974b53935d1edc7fd64eb21e047a839171b5f80a4600190565b6040516304d3863d60e21b815291929190602090829060049082906001600160a01b03165afa908115610d8f575f91610ddd575b50604051630bb7c8fd60e31b81526001600160a01b03938416600482018190529190931692602081602481875afa908115610d8f575f91610da2575b5015610d9a57602090602460405180958193633c3ad79560e21b835260048301525afa918215610d8f575f92610d4b575b5060019190565b9091506020813d602011610d87575b81610d676020938361093b565b810103126100fd57516001600160a01b03811681036100fd57905f610d44565b3d9150610d5a565b6040513d5f823e3d90fd5b505f91508190565b90506020813d602011610dd5575b81610dbd6020938361093b565b810103126100fd575180151581036100fd575f610d13565b3d9150610db0565b90506020813d602011610e17575b81610df86020938361093b565b810103126100fd57516001600160a01b03811681036100fd575f610cd7565b3d9150610deb565b600254811015610ac05760025f5260205f2001905f90565b337f00000000000000000000000000000000000000000000000000000000000000006001600160a01b03161480610e99575b15610e95576013193601368111610e81573560601c90565b634e487b7160e01b5f52601160045260245ffd5b3390565b506014361015610e69565b6001600160a01b03165f818152600360205260409020548015610f71575f198101818111610e81576002545f198101908111610e8157808203610f33575b5050506002548015610f1f575f1901610efa81610e1f565b81549060018060a01b039060031b1b191690556002555f5260036020525f6040812055565b634e487b7160e01b5f52603160045260245ffd5b61058991610f43610f5d92610e1f565b905460039190911b1c6001600160a01b0316928391610e1f565b5f52600360205260405f20555f8080610ee2565b505056fea26469706673582212206a5cb6112500f5f571617091e66d26b0230e4b81c9d9473a1f8642af27d316f864736f6c634300081c00332f8788117e7eff1d82e926ec794901d17c78024a50270940304540a733656f0dad3228b676f7d3cd4284a5443f17f1962b36e491b30a40b2405849e597ba5fb59b6046957f41cb9d409aa8cdf012eb36129daef06a27f14d4eed5f0368318d1f",
  "linkReferences": {},
  "deployedLinkReferences": {}
}