{
  "_format": "hh-sol-artifact-1",
  "contractName": "ATKTopics",
  "sourceName": "contracts/system/ATKTopics.sol",
  "abi": [
    {
      "inputs": [],
      "name": "TOPIC_AML",
      "outputs": [
        {
          "internalType": "string",
          "name": "",
          "type": "string"
        }
      ],
      "stateMutability": "view",
      "type": "function"
    },
    {
      "inputs": [],
      "name": "TOPIC_ASSET_CLASSIFICATION",
      "outputs": [
        {
          "internalType": "string",
          "name": "",
          "type": "string"
        }
      ],
      "stateMutability": "view",
      "type": "function"
    },
    {
      "inputs": [],
      "name": "TOPIC_BASE_PRICE",
      "outputs": [
        {
          "internalType": "string",
          "name": "",
          "type": "string"
        }
      ],
      "stateMutability": "view",
      "type": "function"
    },
    {
      "inputs": [],
      "name": "TOPIC_COLLATERAL",
      "outputs": [
        {
          "internalType": "string",
          "name": "",
          "type": "string"
        }
      ],
      "stateMutability": "view",
      "type": "function"
    },
    {
      "inputs": [],
      "name": "TOPIC_ISIN",
      "outputs": [
        {
          "internalType": "string",
          "name": "",
          "type": "string"
        }
      ],
      "stateMutability": "view",
      "type": "function"
    },
    {
      "inputs": [],
      "name": "TOPIC_KYC",
      "outputs": [
        {
          "internalType": "string",
          "name": "",
          "type": "string"
        }
      ],
      "stateMutability": "view",
      "type": "function"
    }
  ],
  "bytecode": "0x60808060405234601957610299908161001e823930815050f35b5f80fdfe60806040526004361015610011575f80fd5b5f3560e01c80633a39e8f0146101c55780636feda22b14610197578063835cd463146101695780638ef293b01461011f5780638fbd7247146100c65763eeebe6ac1461005b575f80fd5b5f3660031901126100c257604051604081019080821067ffffffffffffffff8311176100ae576100aa91604052600981526862617365507269636560b81b602082015260405191829182610239565b0390f35b634e487b7160e01b5f52604160045260245ffd5b5f80fd5b5f3660031901126100c257604051604081019080821067ffffffffffffffff8311176100ae576100aa91604052601381527230b9b9b2ba21b630b9b9b4b334b1b0ba34b7b760691b602082015260405191829182610239565b5f3660031901126100c257604051604081019080821067ffffffffffffffff8311176100ae576100aa91604052600481526334b9b4b760e11b602082015260405191829182610239565b5f3660031901126100c2576100aa61017f610215565b62185b5b60ea1b602082015260405191829182610239565b5f3660031901126100c2576100aa6101ad610215565b626b796360e81b602082015260405191829182610239565b5f3660031901126100c257604051604081019080821067ffffffffffffffff8311176100ae576100aa91604052600a81526918dbdb1b185d195c985b60b21b602082015260405191829182610239565b604051906040820182811067ffffffffffffffff8211176100ae5760405260038252565b602060409281835280519182918282860152018484015e5f828201840152601f01601f191601019056fea2646970667358221220ea5d29930ec170d13f3c117b649f13cafee6ae56866efaeaafe4f607960e9e6164736f6c634300081c0033",
  "linkReferences": {},
  "deployedLinkReferences": {}
}