{"abi":[{"type":"constructor","inputs":[{"name":"forwarder","type":"address","internalType":"address"}],"stateMutability":"nonpayable"},{"type":"function","name":"deployLinearVestingAirdrop","inputs":[{"name":"tokenAddress","type":"address","internalType":"address"},{"name":"merkleRoot","type":"bytes32","internalType":"bytes32"},{"name":"owner","type":"address","internalType":"address"},{"name":"vestingDuration","type":"uint256","internalType":"uint256"},{"name":"cliffDuration","type":"uint256","internalType":"uint256"},{"name":"claimPeriodEnd","type":"uint256","internalType":"uint256"}],"outputs":[{"name":"airdropAddress","type":"address","internalType":"address"},{"name":"strategyAddress","type":"address","internalType":"address"}],"stateMutability":"nonpayable"},{"type":"function","name":"deployPushAirdrop","inputs":[{"name":"tokenAddress","type":"address","internalType":"address"},{"name":"merkleRoot","type":"bytes32","internalType":"bytes32"},{"name":"owner","type":"address","internalType":"address"},{"name":"distributionCap","type":"uint256","internalType":"uint256"}],"outputs":[{"name":"","type":"address","internalType":"address"}],"stateMutability":"nonpayable"},{"type":"function","name":"deployStandardAirdrop","inputs":[{"name":"tokenAddress","type":"address","internalType":"address"},{"name":"merkleRoot","type":"bytes32","internalType":"bytes32"},{"name":"owner","type":"address","internalType":"address"},{"name":"startTime","type":"uint256","internalType":"uint256"},{"name":"endTime","type":"uint256","internalType":"uint256"}],"outputs":[{"name":"","type":"address","internalType":"address"}],"stateMutability":"nonpayable"},{"type":"function","name":"isTrustedForwarder","inputs":[{"name":"forwarder","type":"address","internalType":"address"}],"outputs":[{"name":"","type":"bool","internalType":"bool"}],"stateMutability":"view"},{"type":"function","name":"predictLinearVestingAirdropAddress","inputs":[{"name":"tokenAddress","type":"address","internalType":"address"},{"name":"merkleRoot","type":"bytes32","internalType":"bytes32"},{"name":"owner","type":"address","internalType":"address"},{"name":"vestingDuration","type":"uint256","internalType":"uint256"},{"name":"cliffDuration","type":"uint256","internalType":"uint256"},{"name":"claimPeriodEnd","type":"uint256","internalType":"uint256"}],"outputs":[{"name":"predictedAirdropAddress","type":"address","internalType":"address"},{"name":"predictedStrategyAddress","type":"address","internalType":"address"}],"stateMutability":"view"},{"type":"function","name":"predictPushAirdropAddress","inputs":[{"name":"tokenAddress","type":"address","internalType":"address"},{"name":"merkleRoot","type":"bytes32","internalType":"bytes32"},{"name":"owner","type":"address","internalType":"address"},{"name":"distributionCap","type":"uint256","internalType":"uint256"}],"outputs":[{"name":"predictedAddress","type":"address","internalType":"address"}],"stateMutability":"view"},{"type":"function","name":"predictStandardAirdropAddress","inputs":[{"name":"tokenAddress","type":"address","internalType":"address"},{"name":"merkleRoot","type":"bytes32","internalType":"bytes32"},{"name":"owner","type":"address","internalType":"address"},{"name":"startTime","type":"uint256","internalType":"uint256"},{"name":"endTime","type":"uint256","internalType":"uint256"}],"outputs":[{"name":"predictedAddress","type":"address","internalType":"address"}],"stateMutability":"view"},{"type":"function","name":"trustedForwarder","inputs":[],"outputs":[{"name":"","type":"address","internalType":"address"}],"stateMutability":"view"},{"type":"event","name":"PushAirdropDeployed","inputs":[{"name":"airdropContract","type":"address","indexed":true,"internalType":"address"},{"name":"tokenAddress","type":"address","indexed":true,"internalType":"address"},{"name":"owner","type":"address","indexed":true,"internalType":"address"}],"anonymous":false},{"type":"event","name":"StandardAirdropDeployed","inputs":[{"name":"airdropContract","type":"address","indexed":true,"internalType":"address"},{"name":"tokenAddress","type":"address","indexed":true,"internalType":"address"},{"name":"owner","type":"address","indexed":true,"internalType":"address"}],"anonymous":false},{"type":"event","name":"VestingAirdropDeployed","inputs":[{"name":"airdropContract","type":"address","indexed":true,"internalType":"address"},{"name":"tokenAddress","type":"address","indexed":true,"internalType":"address"},{"name":"owner","type":"address","indexed":true,"internalType":"address"},{"name":"strategy","type":"address","indexed":false,"internalType":"address"}],"anonymous":false}],"bytecode":{"object":"0x60a03461009a57601f6149e838819003918201601f19168301916001600160401b0383118484101761009f5780849260209460405283398101031261009a57516001600160a01b038116810361009a5760805260405161493290816100b6823960805181818160f101528181610210015281816103de0152818161054a015281816105a40152818161064501528181610738015261083c0152f35b600080fd5b634e487b7160e01b600052604160045260246000fdfe6080604052600436101561001257600080fd5b60003560e01c80632341bc9b146107b257806331941392146106bf5780634350b841146105d6578063572b6c05146105795780637da0a87714610534578063817bcc8e146103be578063cbc48ac2146101b05763e480318a1461007457600080fd5b346101ab57602061018761012c61019561014561011e610093366108af565b949296909161011e6100a78785848c610a0f565b98610e5f97604051986100bc8e82018b610933565b808a5261188b8e8b0139604080516001600160a01b039384168f820190815260208101969096529683169085015260608401527f0000000000000000000000000000000000000000000000000000000000000000166080830152839160a00190565b03601f198101835282610933565b60405192839161013f8a84018097610955565b90610955565b5190206040516001600160f81b03198682019081523060601b6001600160601b0319166001820152601581019490945260358401919091529283906055840190565b03601f198101845283610933565b905190206040516001600160a01b039091168152f35b600080fd5b346101ab576101be366108ed565b929193906101cd838287610a57565b60405190918490610c7c6101e46020820185610933565b8084526126ea60208501396040805160208101999099528801526001600160a01b0390811660608801527f000000000000000000000000000000000000000000000000000000000000000090811660808089019190915287529561024960a082610933565b604051809160208201938461025d91610955565b61026691610955565b03601f19810182526102789082610933565b5190206040516001600160f81b0319602082019081526001600160601b03193060601b1660218301526035820193909352605580820192909252908152906102c1607583610933565b905190206001600160a01b0316946102dc8487858585610a8a565b946115c09460405195602081016102f39088610933565b808752613366602088013987604051958695602087019561031396610980565b03601f19810182526103259082610933565b604051809160208201938461033991610955565b61034291610955565b03601f19810182526103549082610933565b5190206040516001600160f81b0319602082019081526001600160601b03193060601b16602183015260358201939093526055808201929092529081529061039d607583610933565b90519020604080516001600160a01b03928316815292909116602083015290f35b346101ab576103cc366108ed565b949293916103db858383610a57565b907f00000000000000000000000000000000000000000000000000000000000000009260405191610c7c8084019084821067ffffffffffffffff83111761051e5784936104539388938c936126ea883990815260208101919091526001600160a01b0391821660408201529116606082015260800190565b03906000f58015610512576001600160a01b0316946104758187878688610a8a565b92604051926115c0928385019385851067ffffffffffffffff86111761051e57886104a9948988978d946133668a39610980565b03906000f58015610512576040518481526001600160a01b03918216938216929091169083907f2492f54952af638a6275f3d24dcd8328d21cf735977f5268ebcd9a8108143c8390602090a4604080516001600160a01b03928316815292909116602083015290f35b6040513d6000823e3d90fd5b634e487b7160e01b600052604160045260246000fd5b346101ab5760003660031901126101ab576040517f00000000000000000000000000000000000000000000000000000000000000006001600160a01b03168152602090f35b346101ab5760203660031901126101ab576004356001600160a01b038116908190036101ab576040517f00000000000000000000000000000000000000000000000000000000000000006001600160a01b03169091148152602090f35b346101ab576105e4366108af565b90916105f282848387610a0f565b9160405191610e5f918284019084821067ffffffffffffffff83111761051e578661067093869561188b87396001600160a01b03808b1685526020850191909152908116604084015260608301919091527f000000000000000000000000000000000000000000000000000000000000000016608082015260a00190565b03906000f59182156105125760405160209390926001600160a01b03918216929082169116827f708b4cddcb85f8cf08e56f405639c81299b1624b6d145c662928ecdc52548ecf600080a48152f35b346101ab576106cd3661086d565b6106dd81838587899897986109ba565b9260405192610da3928385019185831067ffffffffffffffff84111761051e5787610763948796610ae888396001600160a01b03808c16865260208601919091529081166040850152606084019190915260808301919091527f00000000000000000000000000000000000000000000000000000000000000001660a082015260c00190565b03906000f59182156105125760405160209390926001600160a01b03918216929082169116827fe8af9bc9947800060f1f8ab3c6de0627132236b5f9a0949605afd974c0aa61a2600080a48152f35b346101ab57602061018761012c61019561011e61011e6101456107d43661086d565b989291936107e88a838786859c969c6109ba565b99610da398604051996107fd8f82018c610933565b808b52610ae88f8c0139604080516001600160a01b039485166020820152908101959095529582166060850152608084019590955260a08301949094527f000000000000000000000000000000000000000000000000000000000000000090931660c082015291829060e0820190565b60a09060031901126101ab576004356001600160a01b03811681036101ab5790602435906044356001600160a01b03811681036101ab57906064359060843590565b60809060031901126101ab576004356001600160a01b03811681036101ab5790602435906044356001600160a01b03811681036101ab579060643590565b60c09060031901126101ab576004356001600160a01b03811681036101ab5790602435906044356001600160a01b03811681036101ab5790606435906084359060a43590565b90601f8019910116810190811067ffffffffffffffff82111761051e57604052565b9081519160005b83811061096d575050016000815290565b806020809284010151818501520161095c565b6001600160a01b0391821681526020810192909252918216604082015291811660608301526080820192909252911660a082015260c00190565b93919290926040519360208501956001600160601b03199060601b16865260348501526001600160601b03199060601b1660548401526068830152608882015260888152610a0960a882610933565b51902090565b9290916040519260208401946001600160601b03199060601b16855260348401526001600160601b03199060601b166054830152606882015260688152610a09608882610933565b91604051916020830193845260408301526001600160601b03199060601b16606082015260548152610a09607482610933565b93919290926040519360208501956001600160601b03199060601b16865260348501526001600160601b03199060601b1660548401526001600160601b03199060601b166068830152607c820152607c8152610a09609c8261093356fe610120346101bc57601f610da338819003918201601f19168301916001600160401b038311848410176101c15780849260c0946040528339810103126101bc57610048816101d7565b9060208101519161005b604083016101d7565b9260608301519161007360a0608086015195016101d7565b6001600160a01b039095169485156101a657600080546001600160a01b031981168817825560405197916001600160a01b03909116907f8be0079c531659141344cd1fd0a4f28419497f9722a3daafe3b4186f6b6457e09080a36080526001600160a01b031680156101955760a05260c05242811061018457808211156101735760e05261010052610bb790816101ec82396080518181816103a6015281816104940152610b54015260a05181818160c40152818161029e015261078c015260c0518181816108ab0152610b1c015260e0518181816101e5015281816103ed015261054d01526101005181818161020c0152818161057401526108720152f35b6338af65f760e01b60005260046000fd5b632ca4094f60e21b60005260046000fd5b63d92e233d60e01b60005260046000fd5b631e4fbdf760e01b600052600060045260246000fd5b600080fd5b634e487b7160e01b600052604160045260246000fd5b51906001600160a01b03821682036101bc5756fe608080604052600436101561001357600080fd5b60003560e01c9081632eb4a7ab14610895575080633197cbb61461085a57806349df728c146107425780634be7adee146104c6578063572b6c0514610469578063715018a61461041057806378e97925146103d55780637da0a877146103905780638da5cb5b146103675780639e34070f14610325578063ae0b51df14610185578063f2fde38b146100f85763fc0c546a146100ae57600080fd5b346100f35760003660031901126100f3576040517f00000000000000000000000000000000000000000000000000000000000000006001600160a01b03168152602090f35b600080fd5b346100f35760203660031901126100f3576004356001600160a01b038116908190036100f35761012661096b565b801561016f57600080546001600160a01b03198116831782556001600160a01b0316907f8be0079c531659141344cd1fd0a4f28419497f9722a3daafe3b4186f6b6457e09080a3005b631e4fbdf760e01b600052600060045260246000fd5b346100f35760603660031901126100f35760043560243560443567ffffffffffffffff81116100f3576101bc9036906004016108ce565b6101df848060081c6000526001602052600160ff60406000205492161b16151590565b610314577f00000000000000000000000000000000000000000000000000000000000000004210610303577f000000000000000000000000000000000000000000000000000000000000000042116102f257610244918361023e610b51565b86610a44565b156102e15760407f987d620f307ff6b94d58743cb7a7509f24071586a77759b77c2d4e29f75a2f9a91610290848060081c6000526001602052600160ff604060002092161b8154179055565b6102c28161029c610b51565b7f00000000000000000000000000000000000000000000000000000000000000006109b3565b6001600160a01b036102d2610b51565b169382519182526020820152a2005b63582f497d60e11b60005260046000fd5b63061ddd4f60e51b60005260046000fd5b63b820fc9760e01b60005260046000fd5b630c8d9eab60e31b60005260046000fd5b346100f35760203660031901126100f357602061035d6004358060081c6000526001602052600160ff60406000205492161b16151590565b6040519015158152f35b346100f35760003660031901126100f3576000546040516001600160a01b039091168152602090f35b346100f35760003660031901126100f3576040517f00000000000000000000000000000000000000000000000000000000000000006001600160a01b03168152602090f35b346100f35760003660031901126100f35760206040517f00000000000000000000000000000000000000000000000000000000000000008152f35b346100f35760003660031901126100f35761042961096b565b600080546001600160a01b0319811682556001600160a01b03167f8be0079c531659141344cd1fd0a4f28419497f9722a3daafe3b4186f6b6457e08280a3005b346100f35760203660031901126100f3576004356001600160a01b038116908190036100f3576040517f00000000000000000000000000000000000000000000000000000000000000006001600160a01b03169091148152602090f35b346100f35760603660031901126100f35760043567ffffffffffffffff81116100f3576104f79036906004016108ce565b60243567ffffffffffffffff81116100f3576105179036906004016108ce565b60449291923567ffffffffffffffff81116100f35761053a9036906004016108ce565b9190818414801590610738575b610727577f00000000000000000000000000000000000000000000000000000000000000004210610303577f000000000000000000000000000000000000000000000000000000000000000042116102f257916000928391601e19823603015b86841061062c5750505050816105b957005b7fb9df54cb8716695fe6cd84e5e4b88eca0d9c862970bcd45797aabb77d71b48ee93610627916105eb8461029c610b51565b6106196001600160a01b036105fe610b51565b16976040519687968752606060208801526060870191610947565b918483036040860152610947565b0390a2005b9091929461063b86888b610937565b3561064787878b610937565b359084881015610711578760051b860135848112156100f357860180359067ffffffffffffffff82116100f357602001908060051b360382136100f3576106a7838060081c6000526001602052600160ff60406000205492161b16151590565b610314576106be91846106b8610b51565b85610a44565b156102e1576106e6908060081c6000526001602052600160ff604060002092161b8154179055565b81018091116106fb57946001019291906105a7565b634e487b7160e01b600052601160045260246000fd5b634e487b7160e01b600052603260045260246000fd5b63512509d360e11b60005260046000fd5b5082821415610547565b346100f35760203660031901126100f3576004356001600160a01b038116908181036100f35761077061096b565b8115610849576040516370a0823160e01b8152306004820152907f00000000000000000000000000000000000000000000000000000000000000006020836024816001600160a01b0385165afa92831561083d57600093610805575b50916107fc816020937f6352c5382c4a4578e712449ca65e83cdb392d045dfcf1cad9615189db2da244b956109b3565b604051908152a2005b9250906020833d602011610835575b81610821602093836108ff565b810103126100f357915191906107fc6107cc565b3d9150610814565b6040513d6000823e3d90fd5b63d92e233d60e01b60005260046000fd5b346100f35760003660031901126100f35760206040517f00000000000000000000000000000000000000000000000000000000000000008152f35b346100f35760003660031901126100f3576020907f00000000000000000000000000000000000000000000000000000000000000008152f35b9181601f840112156100f35782359167ffffffffffffffff83116100f3576020808501948460051b0101116100f357565b90601f8019910116810190811067ffffffffffffffff82111761092157604052565b634e487b7160e01b600052604160045260246000fd5b91908110156107115760051b0190565b81835290916001600160fb1b0383116100f35760209260051b809284830137010190565b6000546001600160a01b0390811690610982610b51565b160361098a57565b610992610b51565b63118cdaa760e01b60009081526001600160a01b0391909116600452602490fd5b60405163a9059cbb60e01b60208281019182526001600160a01b03909416602483015260448083019590955293815290926000916109f26064826108ff565b519082855af11561083d576000513d610a3b57506001600160a01b0381163b155b610a1a5750565b635274afe760e01b60009081526001600160a01b0391909116600452602490fd5b60011415610a13565b91949394604051916020830193845260018060a01b03166040830152606082015260608152610a746080826108ff565b5190206040516020810191825260208152610a906040826108ff565b5190209067ffffffffffffffff8411610921578360051b60405194610ab860208301876108ff565b855260208501908201913683116100f357905b828210610b41575050506000905b8351821015610b1a57604060019160009060208560051b8801015190818110600014610b0e578252602052205b910190610ad9565b90825260205220610b06565b7f000000000000000000000000000000000000000000000000000000000000000014925050565b8135815260209182019101610acb565b337f00000000000000000000000000000000000000000000000000000000000000006001600160a01b03161480610b9f575b15610b9b5760131936013681116106fb573560601c90565b3390565b506014361015610b8356fea164736f6c634300081c000a60c03461014b57601f610e5f38819003918201601f19168301916001600160401b038311848410176101505780849260a09460405283398101031261014b5761004781610166565b90602081015161005960408301610166565b9261006b608060608501519401610166565b6001600160a01b0390941693841561013557600080546001600160a01b031981168717825560405196916001600160a01b03909116907f8be0079c531659141344cd1fd0a4f28419497f9722a3daafe3b4186f6b6457e09080a3600180556080526001600160a01b031680156101245760a052600255600555610ce4908161017b82396080518181816106ef015281816107d60152610c81015260a05181818160f8015281816102f2015281816104d801526108520152f35b63d92e233d60e01b60005260046000fd5b631e4fbdf760e01b600052600060045260246000fd5b600080fd5b634e487b7160e01b600052604160045260246000fd5b51906001600160a01b038216820361014b5756fe6080604052600436101561001257600080fd5b60003560e01c80630d575402146109885780632eb4a7ab1461096a5780633ebf6474146107775780634783f0ef1461092057806349df728c1461080a578063572b6c05146107b6578063578bcf3514610777578063715018a61461071e5780637da0a877146106d957806389cc643a1461042f5780638da5cb5b146104065780638fbb2e0a1461036b578063ab1089be1461020d578063cd63d930146101ef578063cfdbf254146101d3578063efca2eed146101b5578063f2fde38b1461012c5763fc0c546a146100e257600080fd5b34610127576000366003190112610127576040517f00000000000000000000000000000000000000000000000000000000000000006001600160a01b03168152602090f35b600080fd5b34610127576020366003190112610127576101456109db565b61014d610a8b565b6001600160a01b0316801561019f57600080546001600160a01b03198116831782556001600160a01b0316907f8be0079c531659141344cd1fd0a4f28419497f9722a3daafe3b4186f6b6457e09080a3005b631e4fbdf760e01b600052600060045260246000fd5b34610127576000366003190112610127576020600454604051908152f35b3461012757600036600319011261012757602060405160648152f35b34610127576000366003190112610127576020600554604051908152f35b34610127576060366003190112610127576102266109db565b60243560443567ffffffffffffffff8111610127576102499036906004016109f1565b9290610253610a8b565b61025b610b6c565b6001600160a01b03821660008181526003602052604090205490949060ff1661035a57610289918484610b8e565b15610349576005548015159081610334575b5061032357816103167f16b0da2ffcb90c6723317bd637d9aad7f04711f42bbe0ac0918ebe10f1f9001c9360209386600052600385526040600020600160ff198254161790556102ed82600454610a7e565b6004557f0000000000000000000000000000000000000000000000000000000000000000610ad3565b604051908152a260018055005b636fd8707b60e11b60005260046000fd5b905061034283600454610a7e565b118461029b565b63582f497d60e11b60005260046000fd5b63cce553a960e01b60005260046000fd5b346101275760203660031901126101275760043567ffffffffffffffff81116101275761039c9036906004016109f1565b906103a5610a8b565b606482116103f55760005b8281106103b957005b6001906001600160a01b036103d76103d2838787610a5a565b610a6a565b16600052600360205260406000208260ff19825416179055016103b0565b631e80759560e21b60005260046000fd5b34610127576000366003190112610127576000546040516001600160a01b039091168152602090f35b346101275760603660031901126101275760043567ffffffffffffffff8111610127576104609036906004016109f1565b9060243567ffffffffffffffff8111610127576104819036906004016109f1565b60449391933567ffffffffffffffff8111610127576104a49036906004016109f1565b6104af959195610a8b565b6104b7610b6c565b606484116103f5578284148015906106cf575b6106be5760009492859686917f000000000000000000000000000000000000000000000000000000000000000096601e1983360301935b818110610576578a8a6005548015159081610561575b50610323577f9da086e067c0984a7c98ca182f45b6ce3054f5a9074fe7ecb0fac722d60bc9ab918161054d604093600454610a7e565b60045582519182526020820152a160018055005b905061056f82600454610a7e565b1183610517565b6105846103d282848b610a5a565b9961059082858a610a5a565b359b878310156106a8578260051b860135878112156101275786019182359267ffffffffffffffff841161012757602001928060051b36038413610127576001600160a01b038e1660008181526003602052604090205490949060ff1661069957908f918f926105ff93610b8e565b1561068c578d610627918460005260036020526040600020600160ff19825416179055610a7e565b9b60001982146106765760018e92019d610641918d610ad3565b60405190815260207f16b0da2ffcb90c6723317bd637d9aad7f04711f42bbe0ac0918ebe10f1f9001c91a26001905b01610501565b634e487b7160e01b600052601160045260246000fd5b9b509b5050600190610670565b50509b509b5050600190610670565b634e487b7160e01b600052603260045260246000fd5b63512509d360e11b60005260046000fd5b50808314156104ca565b34610127576000366003190112610127576040517f00000000000000000000000000000000000000000000000000000000000000006001600160a01b03168152602090f35b3461012757600036600319011261012757610737610a8b565b600080546001600160a01b0319811682556001600160a01b03167f8be0079c531659141344cd1fd0a4f28419497f9722a3daafe3b4186f6b6457e08280a3005b34610127576020366003190112610127576001600160a01b036107986109db565b166000526003602052602060ff604060002054166040519015158152f35b346101275760203660031901126101275760206107d16109db565b6040517f00000000000000000000000000000000000000000000000000000000000000006001600160a01b039081169216919091148152f35b34610127576020366003190112610127576108236109db565b61082b610a8b565b6001600160a01b03811690811561090f576040516370a0823160e01b8152306004820152907f00000000000000000000000000000000000000000000000000000000000000006020836024816001600160a01b0385165afa928315610903576000936108cb575b50916108c2816020937f6352c5382c4a4578e712449ca65e83cdb392d045dfcf1cad9615189db2da244b95610ad3565b604051908152a2005b9250906020833d6020116108fb575b816108e760209383610a22565b8101031261012757915191906108c2610892565b3d91506108da565b6040513d6000823e3d90fd5b63d92e233d60e01b60005260046000fd5b346101275760203660031901126101275760043561093c610a8b565b806002547ffd69edeceaf1d6832d935be1fba54ca93bf17e71520c6c9ffc08d6e9529f8757600080a3600255005b34610127576000366003190112610127576020600254604051908152f35b34610127576020366003190112610127576004356109a4610a8b565b7f64687926ea82d024193ae2d49d2c6e63089c2caf9cba13ff897d094f1526f01760406005548151908152836020820152a1600555005b600435906001600160a01b038216820361012757565b9181601f840112156101275782359167ffffffffffffffff8311610127576020808501948460051b01011161012757565b90601f8019910116810190811067ffffffffffffffff821117610a4457604052565b634e487b7160e01b600052604160045260246000fd5b91908110156106a85760051b0190565b356001600160a01b03811681036101275790565b9190820180921161067657565b6000546001600160a01b0390811690610aa2610c7e565b1603610aaa57565b610ab2610c7e565b63118cdaa760e01b60009081526001600160a01b0391909116600452602490fd5b60405163a9059cbb60e01b60208281019182526001600160a01b03909416602483015260448201949094529092600091610b1a81606481015b03601f198101835282610a22565b519082855af115610903576000513d610b6357506001600160a01b0381163b155b610b425750565b635274afe760e01b60009081526001600160a01b0391909116600452602490fd5b60011415610b3b565b600260015414610b7d576002600155565b633ee5aeb560e01b60005260046000fd5b604080516001600160a01b03909216602083019081529082019290925292939192610bbc8160608101610b0c565b5190206040516020810191825260208152610bd8604082610a22565b5190206002549267ffffffffffffffff8511610a44578460051b60405195610c036020830188610a22565b8652602086019082019136831161012757905b828210610c6e57505050906000915b8451831015610c6657604060019160009060208660051b8901015190818110600014610c5a578252602052205b920191610c25565b90825260205220610c52565b915092501490565b8135815260209182019101610c16565b337f00000000000000000000000000000000000000000000000000000000000000006001600160a01b03161480610ccc575b15610cc8576013193601368111610676573560601c90565b3390565b506014361015610cb056fea164736f6c634300081c000a60e0346101f857601f610c7c38819003918201601f19168301916001600160401b038311848410176101fd578084926080946040528339810103126101f857805160208201519161005e606061005760408401610213565b9201610213565b6001600160a01b039091169081156101e257600080546001600160a01b031981168417825560405193916001600160a01b03909116907f8be0079c531659141344cd1fd0a4f28419497f9722a3daafe3b4186f6b6457e09080a360018055608052811561019657508082116101515760a05260c052604051610a54908161022882396080518181816105930152818161063b01526109f1015260a0518181816103cd01528181610422015281816104e901528181610557015281816106e8015281816107c30152610991015260c0518181816102570152818161037e015281816104910152818161079c015261096a0152f35b60405162461bcd60e51b815260206004820152601c60248201527f436c6966662063616e6e6f7420657863656564206475726174696f6e000000006044820152606490fd5b62461bcd60e51b815260206004820152602160248201527f56657374696e67206475726174696f6e206d75737420626520706f73697469766044820152606560f81b6064820152608490fd5b631e4fbdf760e01b600052600060045260246000fd5b600080fd5b634e487b7160e01b600052604160045260246000fd5b51906001600160a01b03821682036101f85756fe6080604052600436101561001257600080fd5b60003560e01c806307a297ab1461070b5780631514617e146106d057806344ae44ae1461066f578063572b6c051461061b578063715018a6146105c25780637da0a8771461057d57806388c55c47146102ed5780638da5cb5b146102c4578063a52e4e8c1461027a578063d85349f71461023f578063e585c47d14610224578063f2fde38b1461019b578063f736c5801461010f578063f826851a146100f35763fd32ea70146100c157600080fd5b346100ee5760203660031901126100ee5760206100e46100df610738565b6108b1565b6040519015158152f35b600080fd5b346100ee5760003660031901126100ee57602060405160018152f35b346100ee5760403660031901126100ee57610128610738565b6024359060026001541461018a57600260015560018060a01b03166000526002602052604060002060ff60038201541680610181575b610169575b60018055005b60016101789101918254610839565b90558080610163565b5081151561015e565b633ee5aeb560e01b60005260046000fd5b346100ee5760203660031901126100ee576101b4610738565b6101bc6108e7565b6001600160a01b0316801561020e57600080546001600160a01b03198116831782556001600160a01b0316907f8be0079c531659141344cd1fd0a4f28419497f9722a3daafe3b4186f6b6457e09080a3005b631e4fbdf760e01b600052600060045260246000fd5b346100ee5760203660031901126100ee5761023d610738565b005b346100ee5760003660031901126100ee5760206040517f00000000000000000000000000000000000000000000000000000000000000008152f35b346100ee5760203660031901126100ee5760c061029d610298610738565b610846565b936040939193519586526020860152604085015260608401526080830152151560a0820152f35b346100ee5760003660031901126100ee576000546040516001600160a01b039091168152602090f35b346100ee5760403660031901126100ee57610306610738565b6001600160a01b031660008181526002602052604081206003810180546024359492919060ff1661044857908491600160ff1982541617905542600282015560006001820155557ffaf76b5ef3ee6a1b42c79e4744b2596312a788e7cbbaee17f2db55bfc304f7de60408051858152426020820152a27f0000000000000000000000000000000000000000000000000000000000000000158061041f575b6103b6575b602091505b604051908152f35b5080800460011481151715610409576020906103f27f00000000000000000000000000000000000000000000000000000000000000008261076e565b90808211610401575b506103a9565b9050826103fb565b634e487b7160e01b600052601160045260246000fd5b507f000000000000000000000000000000000000000000000000000000000000000015156103a4565b509092610456908254610839565b928382556002820154907ffaf76b5ef3ee6a1b42c79e4744b2596312a788e7cbbaee17f2db55bfc304f7de60408051878152846020820152a27f00000000000000000000000000000000000000000000000000000000000000001580610554575b6104c7575b5050602091506103ae565b6104d39192504261074e565b801561054c575b6104e761050e918461075b565b7f00000000000000000000000000000000000000000000000000000000000000009061076e565b91808311610543575b50600101549081811115610538576020916105319161074e565b82806104bc565b505060206000610531565b91506001610517565b5060016104da565b507f000000000000000000000000000000000000000000000000000000000000000015156104b7565b346100ee5760003660031901126100ee576040517f00000000000000000000000000000000000000000000000000000000000000006001600160a01b03168152602090f35b346100ee5760003660031901126100ee576105db6108e7565b600080546001600160a01b0319811682556001600160a01b03167f8be0079c531659141344cd1fd0a4f28419497f9722a3daafe3b4186f6b6457e08280a3005b346100ee5760203660031901126100ee576020610636610738565b6040517f00000000000000000000000000000000000000000000000000000000000000006001600160a01b039081169216919091148152f35b346100ee5760203660031901126100ee576001600160a01b03610690610738565b1660005260026020526080604060002080549060018101549060ff6003600283015492015416916040519384526020840152604083015215156060820152f35b346100ee5760003660031901126100ee5760206040517f00000000000000000000000000000000000000000000000000000000000000008152f35b346100ee5760803660031901126100ee57610724610738565b5060206103ae60643560443560243561078e565b600435906001600160a01b03821682036100ee57565b9190820391821161040957565b8181029291811591840414171561040957565b8115610778570490565b634e487b7160e01b600052601260045260246000fd5b919061079a904261074e565b7f00000000000000000000000000000000000000000000000000000000000000008110610831577f0000000000000000000000000000000000000000000000000000000000000000808210610819575050815b808311610811575b508082111561080a576108079161074e565b90565b5050600090565b9150386107f5565b61082661082b928561075b565b61076e565b916107ed565b505050600090565b9190820180921161040957565b60018060a01b03811660005260026020526040600020805492600182015492600260ff60038501541693015490831561089d576108829061092f565b928484111561089857610895858561074e565b92565b600092565b506000945084935083925082918291508190565b60018060a01b038116600052600260205260406000209060ff6003830154161561080a576108e060019161092f565b9101541090565b6000546001600160a01b03908116906108fe6109ee565b160361090657565b61090e6109ee565b63118cdaa760e01b60009081526001600160a01b0391909116600452602490fd5b6001600160a01b03166000908152600260205260409020600381015460ff161580156109e5575b6109df5761096860028201544261074e565b7f0000000000000000000000000000000000000000000000000000000000000000811061080a577f0000000000000000000000000000000000000000000000000000000000000000808210156109d9576108266109c8929354938461075b565b908082116109d4575090565b905090565b50505490565b50600090565b50805415610956565b337f00000000000000000000000000000000000000000000000000000000000000006001600160a01b03161480610a3c575b15610a38576013193601368111610409573560601c90565b3390565b506014361015610a2056fea164736f6c634300081c000a610100806040523461023f5760c0816115c080380380916100208285610244565b83398101031261023f576100338161027d565b6020820151906100456040840161027d565b916100526060850161027d565b9161006460a06080870151960161027d565b6001600160a01b0390941693841561022957600080546001600160a01b031981168717825560405196916001600160a01b03909116907f8be0079c531659141344cd1fd0a4f28419497f9722a3daafe3b4186f6b6457e09080a36080526001600160a01b031680156102185760a05260c05260016002556001600160a01b031690811561020757428311156101f657600380546001600160a01b03191683179055637c13428d60e11b8152602081600481855afa9081156101ea576000916101a8575b5015610194575060e05260405161132e9081610292823960805181818161075d0152818161081201526112cb015260a05181818160d0015281816103120152610e96015260c051818181610fb7015261125c015260e05181818161055001528181610de10152610f7d0152f35b633325d64160e01b60005260045260246000fd5b6020813d6020116101e2575b816101c160209383610244565b810103126101de57519081151582036101db575038610127565b80fd5b5080fd5b3d91506101b4565b6040513d6000823e3d90fd5b636385801560e11b60005260046000fd5b632f337adb60e11b60005260046000fd5b63d92e233d60e01b60005260046000fd5b631e4fbdf760e01b600052600060045260246000fd5b600080fd5b601f909101601f19168101906001600160401b0382119082101761026757604052565b634e487b7160e01b600052604160045260246000fd5b51906001600160a01b038216820361023f5756fe608080604052600436101561001357600080fd5b600090813560e01c9081632eb4a7ab14610fa0575080633da082a014610f6557806349df728c14610e4b5780634be7adee14610844578063572b6c05146107e6578063715018a61461078c5780637da0a877146107475780638da5cb5b146107205780639e34070f146106e8578063a26bd9dc146106bf578063a4448a1b14610589578063ae0b51df14610190578063f2fde38b146101025763fc0c546a146100bb57600080fd5b346100ff57806003193601126100ff576040517f00000000000000000000000000000000000000000000000000000000000000006001600160a01b03168152602090f35b80fd5b50346100ff5760203660031901126100ff576004356001600160a01b0381169081900361018c57610131611069565b80156101785781546001600160a01b03198116821783556001600160a01b03167f8be0079c531659141344cd1fd0a4f28419497f9722a3daafe3b4186f6b6457e08380a380f35b631e4fbdf760e01b82526004829052602482fd5b5080fd5b50346100ff5760603660031901126100ff5760043560243560443567ffffffffffffffff8111610585576101c8903690600401610fda565b906101d161114f565b838552600460205260ff6040862054161561054e575b906101fb91836101f56112c8565b86611187565b1561053f578183526004602052604083205460ff166104575761029890828452600460205260408420600160ff198254161790558284526005602052426040852055828452600660205283604081205560208160018060a01b03600354166102616112c8565b6040516388c55c4760e01b81526001600160a01b039091166004820152602481019290925290938491908290889082906044820190565b03925af191821561044c578492610413575b508180610400575b507f07df4a9ad5c3a2271e8c5613d4b9d81d40b02c098ab0f6086544b6573ae84d7660406001600160a01b036102e66112c8565b16928151908152856020820152a25b80610304575b82600160025580f35b610336816103106112c8565b7f00000000000000000000000000000000000000000000000000000000000000006110b1565b60035483906001600160a01b031661034c6112c8565b90803b156103f1576040516301ee6d8b60e71b81526001600160a01b039290921660048301526024820184905282908290604490829084905af180156103f5576103dc575b507f987d620f307ff6b94d58743cb7a7509f24071586a77759b77c2d4e29f75a2f9a91604091506001600160a01b036103c86112c8565b169382519182526020820152a238806102fb565b816103e69161100b565b6103f1578238610391565b8280fd5b6040513d84823e3d90fd5b83855260066020526040852055386102b2565b9091506020813d602011610444575b8161042f6020938361100b565b8101031261043f575190386102aa565b600080fd5b3d9150610422565b6040513d86823e3d90fd5b8183526005602052602060408420548385526006825260408520549260018060a01b0360035416906104876112c8565b6040516307a297ab60e01b81526001600160a01b0391909116600482015260248101919091526044810192909252606482019390935291829060849082905afa908115610534578391610502575b5080806104e3575b506102f5565b82845260066020526104fa60408520918254611291565b9055386104dd565b90506020813d60201161052c575b8161051d6020938361100b565b8101031261043f5751386104d5565b3d9150610510565b6040513d85823e3d90fd5b63582f497d60e11b8352600483fd5b7f00000000000000000000000000000000000000000000000000000000000000004211156101e75763e3ea984960e01b8552600485fd5b8380fd5b50346100ff5760203660031901126100ff576004356001600160a01b0381169081900361018c576105b8611069565b801561068157600380546001600160a01b03191682179055604051637c13428d60e11b815290602090829060049082905afa9081156103f5578291610646575b50156106015780f35b60405162461bcd60e51b815260206004820152601d60248201527f5374726174656779206d75737420737570706f72742076657374696e670000006044820152606490fd5b90506020813d602011610679575b816106616020938361100b565b8101031261018c5751801515810361018c57386105f8565b3d9150610654565b60405162461bcd60e51b8152602060048201526016602482015275496e76616c696420636c61696d20737472617465677960501b6044820152606490fd5b50346100ff57806003193601126100ff576003546040516001600160a01b039091168152602090f35b50346100ff5760203660031901126100ff576020906040600435918260081c8152600184522054600160ff60405193161b1615158152f35b50346100ff57806003193601126100ff57546040516001600160a01b039091168152602090f35b50346100ff57806003193601126100ff576040517f00000000000000000000000000000000000000000000000000000000000000006001600160a01b03168152602090f35b50346100ff57806003193601126100ff576107a5611069565b80546001600160a01b03198116825581906001600160a01b03167f8be0079c531659141344cd1fd0a4f28419497f9722a3daafe3b4186f6b6457e08280a380f35b50346100ff5760203660031901126100ff576004356001600160a01b0381169081900361018c576040517f00000000000000000000000000000000000000000000000000000000000000006001600160a01b03169091148152602090f35b50346100ff5760603660031901126100ff5760043567ffffffffffffffff811161018c57610876903690600401610fda565b60243567ffffffffffffffff811161058557610896903690600401610fda565b60443567ffffffffffffffff8111610e47576108b6903690600401610fda565b6108be61114f565b828514801590610e3d575b610e2e5736829003601e1901875b868110610d42575050505084926108ed8161116f565b916108fb604051938461100b565b8183526109078261116f565b602084019490601f1901368637875b838110610a605750506003548791506001600160a01b03166109366112c8565b90803b156103f15760405163e585c47d60e01b81526001600160a01b0390921660048301529091908290602490829084905af18015610a5557610a41575b5083610984575b85600160025580f35b610990846103106112c8565b6001600160a01b036109a06112c8565b604051958652606060208701819052860183905216946001600160fb1b038211610a3d5760a09160051b8091608087013784016080810192608086830301604087015251809352019190855b818110610a275750505090807fb9df54cb8716695fe6cd84e5e4b88eca0d9c862970bcd45797aabb77d71b48ee920390a2388080808061097b565b82518452602093840193909201916001016109ec565b8680fd5b86610a4e9197929761100b565b9438610974565b6040513d89823e3d90fd5b610a6b81858a611043565b35610a77828585611043565b35818b52600460205260ff60408c20541615600014610c3657818b52600460205260408b20600160ff1982541617905542828c52600560205260408c205415600014610c2857828c52600560205260408c20555b818b5260066020528a6040812055610b286020828d60018060a01b036003541690610af46112c8565b6040516388c55c4760e01b81526001600160a01b039091166004820152602481019390935291938492839182906044820190565b03925af1908115610c1d578c91610be7575b508b81610b99575b5060408493927f07df4a9ad5c3a2271e8c5613d4b9d81d40b02c098ab0f6086544b6573ae84d7692610b766001978c6112b4565b52858060a01b03610b856112c8565b169382519182526020820152a25b01610916565b99600194939282806040610bcf7f07df4a9ad5c3a2271e8c5613d4b9d81d40b02c098ab0f6086544b6573ae84d76968296611291565b9e87815260066020522055925092939450508b610b42565b90508b8160203d8111610c16575b602092610c02828461100b565b5081010312610c12575138610b3a565b8b80fd5b503d610bf5565b6040513d8e823e3d90fd5b50818b526005602052610acb565b90808b526005602052602060408c2054828d526006825260408d20549360018060a01b036003541690610c676112c8565b6040516307a297ab60e01b81526001600160a01b0391909116600482015260248101919091526044810192909252606482019490945292839060849082905afa918215610d37578b92610d00575b5081610cd1575b5090600191610ccb82886112b4565b52610b93565b9790610ce08160019493611291565b988b52600660205260408b20610cf7828254611291565b90559091610cbc565b9091506020813d8211610d2f575b81610d1b6020938361100b565b81010312610d2b57519038610cb5565b8a80fd5b3d9150610d0e565b6040513d8d823e3d90fd5b610d4d81888a611043565b35610d59828789611043565b359084831015610e1a578260051b86013584811215610c125786019182359267ffffffffffffffff8411610e1657602001918c8460051b360384136100ff576040818360ff9352600460205220541615610ddf575b90610dc3939291610dbd6112c8565b90611187565b15610dd0576001016108d7565b63582f497d60e11b8952600489fd5b7f0000000000000000000000000000000000000000000000000000000000000000421115610dae5763e3ea984960e01b8d5260048dfd5b8c80fd5b634e487b7160e01b8b52603260045260248bfd5b63512509d360e11b8752600487fd5b50808314156108c9565b8580fd5b50346100ff5760203660031901126100ff576004356001600160a01b038116908181036103f157610e7a611069565b8115610f56576040516370a0823160e01b8152306004820152907f00000000000000000000000000000000000000000000000000000000000000006020836024816001600160a01b0385165afa928315610f4b578593610f0f575b5091610f05816020937f6352c5382c4a4578e712449ca65e83cdb392d045dfcf1cad9615189db2da244b956110b1565b604051908152a280f35b9250906020833d602011610f43575b81610f2b6020938361100b565b81010312610f3f5791519190610f05610ed5565b8480fd5b3d9150610f1e565b6040513d87823e3d90fd5b63d92e233d60e01b8352600483fd5b50346100ff57806003193601126100ff5760206040517f00000000000000000000000000000000000000000000000000000000000000008152f35b90503461018c578160031936011261018c576020907f00000000000000000000000000000000000000000000000000000000000000008152f35b9181601f8401121561043f5782359167ffffffffffffffff831161043f576020808501948460051b01011161043f57565b90601f8019910116810190811067ffffffffffffffff82111761102d57604052565b634e487b7160e01b600052604160045260246000fd5b91908110156110535760051b0190565b634e487b7160e01b600052603260045260246000fd5b6000546001600160a01b03908116906110806112c8565b160361108857565b6110906112c8565b63118cdaa760e01b60009081526001600160a01b0391909116600452602490fd5b60405163a9059cbb60e01b60208083019182526001600160a01b0394909416602483015260448083019590955293815290926000916110f160648261100b565b519082855af115611143576000513d61113a57506001600160a01b0381163b155b6111195750565b635274afe760e01b60009081526001600160a01b0391909116600452602490fd5b60011415611112565b6040513d6000823e3d90fd5b600280541461115e5760028055565b633ee5aeb560e01b60005260046000fd5b67ffffffffffffffff811161102d5760051b60200190565b91949394604051916020830193845260018060a01b031660408301526060820152606081526111b760808261100b565b51902060405160208101918252602081526111d360408261100b565b519020906111e08461116f565b936111ee604051958661100b565b808552602085019060051b82019136831161043f57905b828210611281575050506000905b835182101561125a5761122682856112b4565b51906000828210156112495750600052602052600160406000205b910190611213565b604091600193825260205220611241565b7f000000000000000000000000000000000000000000000000000000000000000014925050565b8135815260209182019101611205565b9190820180921161129e57565b634e487b7160e01b600052601160045260246000fd5b80518210156110535760209160051b010190565b337f00000000000000000000000000000000000000000000000000000000000000006001600160a01b03161480611316575b1561131257601319360136811161129e573560601c90565b3390565b5060143610156112fa56fea164736f6c634300081c000aa164736f6c634300081c000a","linkReferences":{}},"methodIdentifiers":{"deployLinearVestingAirdrop(address,bytes32,address,uint256,uint256,uint256)":"817bcc8e","deployPushAirdrop(address,bytes32,address,uint256)":"4350b841","deployStandardAirdrop(address,bytes32,address,uint256,uint256)":"31941392","isTrustedForwarder(address)":"572b6c05","predictLinearVestingAirdropAddress(address,bytes32,address,uint256,uint256,uint256)":"cbc48ac2","predictPushAirdropAddress(address,bytes32,address,uint256)":"e480318a","predictStandardAirdropAddress(address,bytes32,address,uint256,uint256)":"2341bc9b","trustedForwarder()":"7da0a877"},"id":0}