{
  "abi": [
    {
      "type": "constructor",
      "inputs": [
        {
          "name": "forwarder",
          "type": "address",
          "internalType": "address"
        }
      ],
      "stateMutability": "nonpayable"
    },
    {
      "type": "function",
      "name": "create",
      "inputs": [
        {
          "name": "name",
          "type": "string",
          "internalType": "string"
        },
        {
          "name": "symbol",
          "type": "string",
          "internalType": "string"
        },
        {
          "name": "decimals",
          "type": "uint8",
          "internalType": "uint8"
        },
        {
          "name": "cap",
          "type": "uint256",
          "internalType": "uint256"
        },
        {
          "name": "maturityDate",
          "type": "uint256",
          "internalType": "uint256"
        },
        {
          "name": "faceValue",
          "type": "uint256",
          "internalType": "uint256"
        },
        {
          "name": "underlyingAsset",
          "type": "address",
          "internalType": "address"
        }
      ],
      "outputs": [
        {
          "name": "bond",
          "type": "address",
          "internalType": "address"
        }
      ],
      "stateMutability": "nonpayable"
    },
    {
      "type": "function",
      "name": "isAddressDeployed",
      "inputs": [
        {
          "name": "token",
          "type": "address",
          "internalType": "address"
        }
      ],
      "outputs": [
        {
          "name": "",
          "type": "bool",
          "internalType": "bool"
        }
      ],
      "stateMutability": "view"
    },
    {
      "type": "function",
      "name": "isFactoryToken",
      "inputs": [
        {
          "name": "",
          "type": "address",
          "internalType": "address"
        }
      ],
      "outputs": [
        {
          "name": "",
          "type": "bool",
          "internalType": "bool"
        }
      ],
      "stateMutability": "view"
    },
    {
      "type": "function",
      "name": "isTrustedForwarder",
      "inputs": [
        {
          "name": "forwarder",
          "type": "address",
          "internalType": "address"
        }
      ],
      "outputs": [
        {
          "name": "",
          "type": "bool",
          "internalType": "bool"
        }
      ],
      "stateMutability": "view"
    },
    {
      "type": "function",
      "name": "predictAddress",
      "inputs": [
        {
          "name": "sender",
          "type": "address",
          "internalType": "address"
        },
        {
          "name": "name",
          "type": "string",
          "internalType": "string"
        },
        {
          "name": "symbol",
          "type": "string",
          "internalType": "string"
        },
        {
          "name": "decimals",
          "type": "uint8",
          "internalType": "uint8"
        },
        {
          "name": "cap",
          "type": "uint256",
          "internalType": "uint256"
        },
        {
          "name": "maturityDate",
          "type": "uint256",
          "internalType": "uint256"
        },
        {
          "name": "faceValue",
          "type": "uint256",
          "internalType": "uint256"
        },
        {
          "name": "underlyingAsset",
          "type": "address",
          "internalType": "address"
        }
      ],
      "outputs": [
        {
          "name": "predicted",
          "type": "address",
          "internalType": "address"
        }
      ],
      "stateMutability": "view"
    },
    {
      "type": "function",
      "name": "trustedForwarder",
      "inputs": [],
      "outputs": [
        {
          "name": "",
          "type": "address",
          "internalType": "address"
        }
      ],
      "stateMutability": "view"
    },
    {
      "type": "event",
      "name": "BondCreated",
      "inputs": [
        {
          "name": "token",
          "type": "address",
          "indexed": true,
          "internalType": "address"
        },
        {
          "name": "creator",
          "type": "address",
          "indexed": true,
          "internalType": "address"
        }
      ],
      "anonymous": false
    },
    {
      "type": "error",
      "name": "AddressAlreadyDeployed",
      "inputs": []
    },
    {
      "type": "error",
      "name": "ReentrancyGuardReentrantCall",
      "inputs": []
    }
  ],
  "bytecode": {
    "object": "0x60a03461008b57601f61493e38819003918201601f19168301916001600160401b038311848410176100905780849260209460405283398101031261008b57516001600160a01b038116810361008b57600160005560805260405161489790816100a7823960805181818161015f01528181610299015281816103920152818161058701526106970152f35b600080fd5b634e487b7160e01b600052604160045260246000fdfe6080604052600436101561001257600080fd5b60003560e01c80634e7f6dea146103c6578063572b6c05146103725780635c850ae91461018e5780637da0a8771461014957806393611bf3146100a25763a4b7914e1461005e57600080fd5b3461009d57602036600319011261009d576001600160a01b0361007f6103ee565b166000526001602052602060ff604060002054166040519015158152f35b600080fd5b3461009d5761010036600319011261009d576100bc6103ee565b60243567ffffffffffffffff811161009d576100dc903690600401610426565b60443567ffffffffffffffff811161009d576100fc903690600401610426565b906064359160ff8316830361009d5760e435916001600160a01b038316830361009d576020946101379460c4359360a4359360843593610537565b6040516001600160a01b039091168152f35b3461009d57600036600319011261009d576040517f00000000000000000000000000000000000000000000000000000000000000006001600160a01b03168152602090f35b3461009d5760e036600319011261009d5760043567ffffffffffffffff811161009d576101bf903690600401610426565b60243567ffffffffffffffff811161009d576101df903690600401610426565b906044359060ff8216820361009d5760843592606435929060c43560a4356001600160a01b038216820361009d57600260005414610361576002600055610227848487610638565b966102606102428484848b8a8a8d61023d610694565b610537565b6001600160a01b031660009081526001602052604090205460ff1690565b6103505761026c610694565b966040519761418796878a01968a881067ffffffffffffffff89111761033a578a996102be996107048c397f0000000000000000000000000000000000000000000000000000000000000000986104c5565b03906000f5801561032e576001600160a01b039081166000818152600160208181526040909220805460ff19169091179055916102f9610694565b169060405191817f535735cdac5d586cb40b3eb153bfced0b96d144cfe9b8947f5f9ed69895ae80b600080a360016000558152f35b6040513d6000823e3d90fd5b634e487b7160e01b600052604160045260246000fd5b636b25fac360e11b60005260046000fd5b633ee5aeb560e01b60005260046000fd5b3461009d57602036600319011261009d57602061038d6103ee565b6040517f00000000000000000000000000000000000000000000000000000000000000006001600160a01b039081169216919091148152f35b3461009d57602036600319011261009d5760206103e46102426103ee565b6040519015158152f35b600435906001600160a01b038216820361009d57565b90601f8019910116810190811067ffffffffffffffff82111761033a57604052565b81601f8201121561009d5780359067ffffffffffffffff821161033a576040519261045b601f8401601f191660200185610404565b8284526020838301011161009d57816000926020809301838601378301015290565b60005b8381106104905750506000910152565b8181015183820152602001610480565b906020916104b98151809281855285808601910161047d565b601f01601f1916010190565b9794916104fa60ff916104ec6101009a97949d9c99969d6101208d526101208d01906104a0565b908b820360208d01526104a0565b9a1660408901526001600160a01b039081166060890152608088019190915260a087019190915260c086019190915290811660e085015216910152565b6105bb6105f295946105ad602095946105e2999a9b610557848884610638565b9c6141879c8d9a6040519b61056f8d8d830190610404565b8c528a8c019e8f61070490396040519889978c89019b7f0000000000000000000000000000000000000000000000000000000000000000978d6104c5565b03601f198101835282610404565b6040519586946105d3858701998a925192839161047d565b8501915180938584019061047d565b010103601f198101835282610404565b5190209060405191602083019160ff60f81b83523060601b60218501526035840152605583015260558252610628607583610404565b905190206001600160a01b031690565b91600160209261068e926040519485928161065c818601998a81519384920161047d565b84016106708251809385808501910161047d565b01019060ff60f81b9060f81b16815203601e19810184520182610404565b51902090565b337f00000000000000000000000000000000000000000000000000000000000000006001600160a01b031614806106f8575b156106f45760131936013681116106de573560601c90565b634e487b7160e01b600052601160045260246000fd5b3390565b5060143610156106c656fe61022080604052346103ca57614187803803809161001d828561062d565b8339810190610120818303126103ca5780516001600160401b0381116103ca5782610049918301610673565b602082015190926001600160401b0382116103ca57610069918301610673565b9060408101519160ff83168084036103ca57610087606084016106c7565b9260808101519160a08201519360c0830151936100b36101006100ac60e087016106c7565b95016106c7565b916040998a51926100c48c8561062d565b60018452603160f81b6020850190815282519093906001600160401b03811161053757600354600181811c91168015610623575b602082101461051757601f81116105be575b50806020601f82116001146105585760009161054d575b508160011b916000199060031b1c1916176003555b8051906001600160401b0382116105375760045490600182811c9216801561052d575b60208310146105175781601f8493116104a7575b50602090601f831160011461043f57600092610434575b50508160011b916000199060031b1c1916176004555b801561041e5760805260ff19600754166007556101b6816108bf565b610140526101c383610a50565b610160526020815191012091826101005251902080610120524660c05289519060208201927f8b73c3c69bb8fe3d512ecc4cf759cc79239f7b179b0ffacaa9a75d522b39400f84528b83015260608201524660808201523060a082015260a0815261022f60c08261062d565b51902060a0523060e052610180524284111561040d57601281116103f9575081156103e8576001600160a01b03169182156103d75785516318160ddd60e01b8152602081600481875afa90816103a3575b5061029657634e81208360e01b60005260046000fd5b6102c3946101c0526101a0526101e052610200526102b3816106db565b506102bd8161076b565b50610815565b50516135229081610be582396080518181816109c401526132df015260a05181612751015260c0518161280e015260e0518161271b015261010051816127a0015261012051816127c60152610140518161106801526101605181611091015261018051818181610e2701528181610f230152612bfd01526101a05181818161116b015261198b01526101c0518181816109880152612b5101526101e051818181610d0401528181610fd30152612b89015261020051818181610eb20152818161151001528181611b0d01528181611e3b0152818161234b01526126580152f35b6020813d6020116103cf575b816103bc6020938361062d565b810103126103ca5751610280565b600080fd5b3d91506103af565b634e81208360e01b60005260046000fd5b631e8b6b6f60e21b60005260046000fd5b63ca95039160e01b60005260045260246000fd5b6358f33ed360e11b60005260046000fd5b63392e1e2760e01b600052600060045260246000fd5b015190503880610184565b600460009081528281209350601f198516905b81811061048f5750908460019594939210610476575b505050811b0160045561019a565b015160001960f88460031b161c19169055388080610468565b92936020600181928786015181550195019301610452565b60046000529091507f8a35acfbc15ff81a39ae7d344fd709f28e8600b4aa8c65c6b64bfe7fe36bd19b601f840160051c8101916020851061050d575b90601f859493920160051c01905b8181106104fe575061016d565b600081558493506001016104f1565b90915081906104e3565b634e487b7160e01b600052602260045260246000fd5b91607f1691610159565b634e487b7160e01b600052604160045260246000fd5b905084015138610121565b600360009081528181209250601f198416905b8181106105a65750908360019493921061058d575b5050811b01600355610136565b86015160001960f88460031b161c191690553880610580565b9192602060018192868b01518155019401920161056b565b60036000527fc2575a0e9e593c00f959f8c92f12db2869c3395a3b0502d05e2516446f71f85b601f830160051c81019160208410610619575b601f0160051c01905b81811061060d575061010a565b60008155600101610600565b90915081906105f7565b90607f16906100f8565b601f909101601f19168101906001600160401b0382119082101761053757604052565b60005b8381106106635750506000910152565b8181015183820152602001610653565b81601f820112156103ca5780516001600160401b03811161053757604051926106a6601f8301601f19166020018561062d565b818452602082840101116103ca576106c49160208085019101610650565b90565b51906001600160a01b03821682036103ca57565b6001600160a01b0381166000908152600080516020614127833981519152602052604090205460ff16610765576001600160a01b03818116600090815260008051602061412783398151915260205260409020805460ff19166001179055610741610b92565b16906001600160a01b031660006000805160206141078339815191528180a4600190565b50600090565b6001600160a01b0381166000908152600080516020614147833981519152602052604090205460ff16610765576001600160a01b03818116600090815260008051602061414783398151915260205260409020805460ff191660011790556107d1610b92565b16906001600160a01b03167f47b7a6ef32f924153c4c0c2f871f8856bd114b4903c167827ef0f0694c583e27600080516020614107833981519152600080a4600190565b6001600160a01b0381166000908152600080516020614167833981519152602052604090205460ff16610765576001600160a01b03818116600090815260008051602061416783398151915260205260409020805460ff1916600117905561087b610b92565b16906001600160a01b03167f4f218fa1cf3180113024eb1bbca508696a5a0f0ecafaeea4da87c53e5d465892600080516020614107833981519152600080a4600190565b9081516020811060001461093a575090601f8151116108fb5760208151910151602082106108eb571790565b6000198260200360031b1b161790565b6044604051809263305a27a960e01b82526020600483015261092c8151809281602486015260208686019101610650565b601f01601f19168101030190fd5b6001600160401b03811161053757600954600181811c91168015610a46575b602082101461051757601f8111610a10575b50602092601f82116001146109ab57928192936000926109a0575b50508160011b916000199060031b1c19161760095560ff90565b015190503880610986565b601f198216936009600052806000209160005b8681106109f857508360019596106109df575b505050811b0160095560ff90565b015160001960f88460031b161c191690553880806109d1565b919260206001819286850151815501940192016109be565b6009600052601f6020600020910160051c810190601f830160051c015b818110610a3a575061096b565b60008155600101610a2d565b90607f1690610959565b90815160208110600014610a7c575090601f8151116108fb5760208151910151602082106108eb571790565b6001600160401b03811161053757600a54600181811c91168015610b88575b602082101461051757601f8111610b52575b50602092601f8211600114610aed5792819293600092610ae2575b50508160011b916000199060031b1c191617600a5560ff90565b015190503880610ac8565b601f19821693600a600052806000209160005b868110610b3a5750836001959610610b21575b505050811b01600a5560ff90565b015160001960f88460031b161c19169055388080610b13565b91926020600181928685015181550194019201610b00565b600a600052601f6020600020910160051c810190601f830160051c015b818110610b7c5750610aad565b60008155600101610b6f565b90607f1690610a9b565b610180516001600160a01b0316331480610bd9575b15610bd5576013193601368111610bbf573560601c90565b634e487b7160e01b600052601160045260246000fd5b3390565b506014361015610ba756fe6080604052600436101561001257600080fd5b60003560e01c806301e336671461041257806301ffc9a71461040d57806306fdde0314610408578063095ea7b3146104035780630c7c8e89146103fe5780630cfbfcde146103f957806318160ddd146103f45780631cf7e149146103ef57806323b872dd146103ea578063248a9ca3146103e557806324bce60c146103e057806328d99f31146103db5780632f0004f0146103d65780632f2ff15d146103d15780632f4350c2146103cc578063313ce567146103c7578063355274ea146103c25780633644e515146103bd57806336568abe146103b857806339d319e5146103b35780633da01325146103ae5780633f4ba83a146103a957806340c10f19146103a457806342966c681461039f57806344fd9caa1461039a5780634bf5d7e9146103955780634ee2cd7e14610390578063572b6c051461038b5780635c975abb1461038657806370a08231146103815780637158da7c1461037c57806376d5de851461037c57806379cc6790146103775780637da0a877146103725780637ecebe001461036d5780637f2b6a0d1461036857806381e5bc36146103635780638456cb591461035e57806384b0196e1461035957806387b652071461035457806391d148541461034f57806391ddadf41461034a57806395d89b4114610345578063981b24d0146103405780639933de0f1461033b578063a0821be314610336578063a206b55014610331578063a217fddf1461032c578063a7fc9e3f14610327578063a9059cbb14610322578063b7dc58ea1461031d578063be571f0014610318578063c14e1a1814610313578063cb7815cf1461030e578063d051665014610309578063d3d71a1714610304578063d505accf146102ff578063d5274738146102fa578063d547741f146102f5578063d59624b4146102f0578063d819dccf146102eb578063db006a75146102e6578063dd62ed3e146102e15763e5962195146102dc57600080fd5b611a4f565b6119f7565b6119c9565b6119ae565b611973565b611933565b6118a2565b61176a565b61174c565b611712565b6116f9565b6116de565b6116a6565b611642565b61161a565b6115f1565b6115d5565b6114aa565b611487565b61144c565b611352565b6112aa565b611287565b611234565b611150565b61104f565b610ff6565b610fb2565b610f8c565b610f52565b610f0d565b610ee1565b610e9c565b610e7e565b610e5b565b610e07565b610d77565b610d27565b610cec565b610cc8565b610c03565b610b88565b610aea565b610a58565b610a02565b6109e7565b6109ac565b61096e565b6108f0565b6108ab565b610890565b610856565b610766565b610731565b610708565b6106db565b6106bd565b61069e565b610663565b61062b565b61054e565b6104a3565b610482565b600435906001600160a01b038216820361042d57565b600080fd5b602435906001600160a01b038216820361042d57565b606090600319011261042d576004356001600160a01b038116810361042d57906024356001600160a01b038116810361042d579060443590565b3461042d576104a161049336610448565b9161049c611eb7565b611ae6565b005b3461042d57602036600319011261042d5760043563ffffffff60e01b811680910361042d57602090637965db0b60e01b81149081156104e8575b506040519015158152f35b6301ffc9a760e01b149050386104dd565b919082519283825260005b848110610525575050826000602080949584010152601f8019910116010190565b80602080928401015182828601015201610504565b90602061054b9281815201906104f9565b90565b3461042d57600036600319011261042d57604051600060035461057081611c10565b808452906001811690811561060757506001146105a8575b6105a48361059881850382611aa4565b6040519182918261053a565b0390f35b600360009081527fc2575a0e9e593c00f959f8c92f12db2869c3395a3b0502d05e2516446f71f85b939250905b8082106105ed57509091508101602001610598610588565b9192600181602092548385880101520191019092916105d5565b60ff191660208086019190915291151560051b840190910191506105989050610588565b3461042d57604036600319011261042d57610658610647610417565b60243590610653612bfa565b612128565b602060405160018152f35b3461042d57600036600319011261042d5760206040517f4f218fa1cf3180113024eb1bbca508696a5a0f0ecafaeea4da87c53e5d4658928152f35b3461042d576104a16106af36610448565b916106b8611f23565b611ccd565b3461042d57600036600319011261042d576020600254604051908152f35b3461042d57604036600319011261042d576104a16106f7610417565b60243590610703611f23565b612306565b3461042d5761065861071936610448565b9161072c83610726612bfa565b83612414565b612203565b3461042d57602036600319011261042d57602061075e600435600052600860205260016040600020015490565b604051908152f35b3461042d57604036600319011261042d5761077f610417565b6024359060ff6107c9610790612bfa565b6001600160a01b031660009081527f59a4949863265294ff108d0bf4f627607865d3b0e204ff50f9442decf27a206f6020526040902090565b54161561084557816107da82611dda565b106108245760207fa065e63c631c86f1b9f66a4a2f63f2093bf1c2168d23290259dbd969e0222a459160018060a01b03169283600052600d825280604060002055604051908152a2005b6314884b4960e01b60009081526001600160a01b0391909116600452602490fd5b63bb4be5f360e01b60005260046000fd5b3461042d57602036600319011261042d576001600160a01b03610877610417565b16600052600f6020526020604060002054604051908152f35b3461042d57600036600319011261042d57602061075e611d9a565b3461042d57604036600319011261042d576104a16004356108ca610432565b906108eb6108e682600052600860205260016040600020015490565b612043565b6124ee565b3461042d57600036600319011261042d5760ff600e5460a01c161561095d5761093561091a612bfa565b6001600160a01b031660009081526020819052604090205490565b801561094c576104a190610947612bfa565b6125a6565b6393be1eef60e01b60005260046000fd5b6344f1048160e11b60005260046000fd5b3461042d57600036600319011261042d57602060405160ff7f0000000000000000000000000000000000000000000000000000000000000000168152f35b3461042d57600036600319011261042d5760206040517f00000000000000000000000000000000000000000000000000000000000000008152f35b3461042d57600036600319011261042d57602061075e612718565b3461042d57604036600319011261042d57600435610a1e610432565b6001600160a01b03610a2e612bfa565b166001600160a01b03821603610a47576104a191612834565b63334bd91960e11b60005260046000fd5b3461042d57602036600319011261042d57610a71610417565b610a79611fb3565b6001600160a01b03166000818152600c602052604090205460ff169081610aa9575b506040519015158152602090f35b80600052600c602052604060002060ff1981541690557f798117ec059ab8d319461ef2502b1f9d8a47cd966bfd1f3e23b6f26c30bebb77600080a238610a9b565b3461042d57602036600319011261042d576105a4610b06610417565b610b0e611fb3565b6001600160a01b03166000818152600c602052604090205460ff16908115610b44575b5060405190151581529081906020820190565b80600052600c6020526040600020600160ff198254161790557fca86d8c91ca6d00afd863578cc633a0901fad724592f89649629fe65f61410d2600080a238610b31565b3461042d57600036600319011261042d57610ba1611eb7565b60075460ff811615610bf25760ff19166007557f5db9ee0a495bf2e6ff9c91a7834c1ba4fdd244a5e8aa4e537bd38aeae4b073aa6020610bdf612bfa565b6040516001600160a01b039091168152a1005b638dfc202b60e01b60005260046000fd5b3461042d57604036600319011261042d57610c1c610417565b602435610c27611f23565b600e546001600160a01b031680610c43575b506104a1916128cf565b6004906020906001600160a01b03166040516305cbde4360e11b815292839182905afa908115610cc357600091610c94575b50421015610c835738610c39565b6336a891ab60e01b60005260046000fd5b610cb6915060203d602011610cbc575b610cae8183611aa4565b810190611acb565b38610c75565b503d610ca4565b611ada565b3461042d57602036600319011261042d576104a1600435610ce7612bfa565b6129b5565b3461042d57600036600319011261042d5760206040517f00000000000000000000000000000000000000000000000000000000000000008152f35b3461042d57600036600319011261042d576105a46040805190610d4a8183611aa4565b600e82526d06d6f64653d74696d657374616d760941b6020830152519182916020835260208301906104f9565b3461042d57604036600319011261042d57610d90610417565b60243565ffffffffffff42169182821015610def576001600160a01b031660009081526005602052604090206105a492506001600160d01b0391610dde9190610dd890612a60565b90612a91565b604051911681529081906020820190565b5063895c4c5160e01b60005260045260245260446000fd5b3461042d57602036600319011261042d576020610e22610417565b6040517f00000000000000000000000000000000000000000000000000000000000000006001600160a01b039081169216919091148152f35b3461042d57600036600319011261042d57602060ff600754166040519015158152f35b3461042d57602036600319011261042d57602061075e61091a610417565b3461042d57600036600319011261042d576040517f00000000000000000000000000000000000000000000000000000000000000006001600160a01b03168152602090f35b3461042d57604036600319011261042d576104a1610efd610417565b60243590610ce782610726612bfa565b3461042d57600036600319011261042d576040517f00000000000000000000000000000000000000000000000000000000000000006001600160a01b03168152602090f35b3461042d57602036600319011261042d576001600160a01b03610f73610417565b16600052600b6020526020604060002054604051908152f35b3461042d57600036600319011261042d57602060ff600e5460a01c166040519015158152f35b3461042d57602036600319011261042d57610fcb610417565b5060206040517f00000000000000000000000000000000000000000000000000000000000000008152f35b3461042d57600036600319011261042d5761100f611eb7565b611017612e18565b600160ff1960075416176007557f62e78cea01bee320cd4e420270b5ea74000d11b0c9f74754ebdbfc544b05a2586020610bdf612bfa565b3461042d57600036600319011261042d576110f561108c7f0000000000000000000000000000000000000000000000000000000000000000612e35565b6110b57f0000000000000000000000000000000000000000000000000000000000000000612e99565b60206040516110c48282611aa4565b600081528161110381830194601f198301368737604051978897600f60f81b895260e0858a015260e08901906104f9565b9087820360408901526104f9565b91466060870152306080870152600060a087015285830360c0870152519182815201929160005b82811061113957505050500390f35b83518552869550938101939281019260010161112a565b3461042d57600036600319011261042d57611169611f23565b7f0000000000000000000000000000000000000000000000000000000000000000421061095d5760ff600e5460a01c16611223576111a8600254612b4d565b6111b0611e20565b1061121257600e805460ff60a01b1916600160a01b1790556001600160a01b036111d8612bfa565b167f95f54ea49ba6fc3df770ff18b7f73fe8a78faeb1f964916a15cb7860ec0445076040518061120d42829190602083019252565b0390a2005b6354ed247f60e11b60005260046000fd5b632b75c76f60e11b60005260046000fd5b3461042d57604036600319011261042d57602060ff61127b600435611257610432565b906000526008845260406000209060018060a01b0316600052602052604060002090565b54166040519015158152f35b3461042d57600036600319011261042d57602060405165ffffffffffff42168152f35b3461042d57600036600319011261042d5760405160006004546112cc81611c10565b808452906001811690811561060757506001146112f3576105a48361059881850382611aa4565b600460009081527f8a35acfbc15ff81a39ae7d344fd709f28e8600b4aa8c65c6b64bfe7fe36bd19b939250905b80821061133857509091508101602001610598610588565b919260018160209254838588010152019101909291611320565b3461042d57602036600319011261042d574265ffffffffffff16600435818110156114355761138090612a60565b6000600654819281600581116113d5575b50906020936113a1926006612db1565b806113ba57505b6040516001600160d01b039091168152f35b6113c390611d7e565b6006825290829020015460301c6113a8565b936113df85612c53565b8503948511611430576020946113a1936006865265ffffffffffff8288882001541665ffffffffffff85161060001461141e5750915b91925093611391565b92915061142a9061258b565b90611415565b611d68565b63895c4c5160e01b60005260045260245260446000fd5b3461042d57600036600319011261042d5760206040517f47b7a6ef32f924153c4c0c2f871f8856bd114b4903c167827ef0f0694c583e278152f35b3461042d57602036600319011261042d57602061075e6114a5610417565b611dda565b3461042d57602036600319011261042d576004355b80156115c45761150a6020826114d3612bfa565b6040516323b872dd60e01b81526001600160a01b039091166004820152306024820152604481019190915291829081906064820190565b038160007f00000000000000000000000000000000000000000000000000000000000000006001600160a01b03165af1908115610cc357600091611595575b5015611212577fabda30aae4846dafeb67b57e0f9fb5af47de85525570e48ced61a3c99a4f8daf61120d6001600160a01b03611583612bfa565b60405194855216929081906020820190565b6115b7915060203d6020116115bd575b6115af8183611aa4565b810190611e08565b38611549565b503d6115a5565b63162908e360e11b60005260046000fd5b3461042d57600036600319011261042d57602060405160008152f35b3461042d57600036600319011261042d57600e546040516001600160a01b039091168152602090f35b3461042d57604036600319011261042d57610658611636610417565b6024359061072c612bfa565b3461042d57602036600319011261042d57602060ff61127b611662610417565b7f47b7a6ef32f924153c4c0c2f871f8856bd114b4903c167827ef0f0694c583e276000526008845260406000209060018060a01b0316600052602052604060002090565b3461042d57602036600319011261042d576116bf610417565b6116c7611f23565b6116cf611d9a565b8015611212576104a191612306565b3461042d57600036600319011261042d57602061075e611e20565b3461042d57600036600319011261042d576114bf611e90565b3461042d57602036600319011261042d576001600160a01b03611733610417565b16600052600d6020526020604060002054604051908152f35b3461042d57600036600319011261042d57602061075e600254612b4d565b3461042d5760e036600319011261042d57611783610417565b61178b610432565b604435906064359260843560ff8116810361042d5760a43560c4359086421161188d576001600160a01b038085166000818152600b602090815260409182902080546001810190915582517f6e71edae12b1b97f4d1f60370fef10105fa2faae0126114a169c64845d6126c99281019283529283018490529389166060830152608082018a905260a082019390935260c081019990995297611850949161184b916118438160e081015b03601f198101835282611aa4565b519020612bbc565b612be2565b936001600160a01b0385160361186a576104a19350612128565b6325c0072360e11b6000526001600160a01b038085166004521660245260446000fd5b8663313c898160e11b60005260045260246000fd5b3461042d57602036600319011261042d576001600160a01b036118c3610417565b16801561192257600e546001600160a01b038116611911576001600160a01b0319168117600e557f41d46bb458f1301fae4d25ec5c1bcd1f9cdb882859c31a4e2d0d6fdfa88d0451600080a2005b6311a37d6960e01b60005260046000fd5b63fadfdd5360e01b60005260046000fd5b3461042d57604036600319011261042d576104a1600435611952610432565b9061196e6108e682600052600860205260016040600020015490565b612834565b3461042d57600036600319011261042d5760206040517f00000000000000000000000000000000000000000000000000000000000000008152f35b3461042d57600036600319011261042d57602061075e611e90565b3461042d57602036600319011261042d5760043560ff600e5460a01c161561095d576104a190610947612bfa565b3461042d57604036600319011261042d576020611a46611a15610417565b611a1d610432565b6001600160a01b0391821660009081526001855260408082209290931681526020919091522090565b54604051908152f35b3461042d57602036600319011261042d576001600160a01b03611a70610417565b16600052600c602052602060ff604060002054166040519015158152f35b634e487b7160e01b600052604160045260246000fd5b90601f8019910116810190811067ffffffffffffffff821117611ac657604052565b611a8e565b9081602091031261042d575190565b6040513d6000823e3d90fd5b90916001600160a01b03909116908115611bff576001600160a01b038316928315611bff577f00000000000000000000000000000000000000000000000000000000000000006001600160a01b03168314611bee578115611be8576040516370a0823160e01b8152306004820152602081602481875afa8015610cc3578391600091611bc9575b5010611bb85781611ba37f8210728e7c071f615b840ee026032693858fbcd5e5359e67e438c890f59e562093611bb39386612099565b6040519081529081906020820190565b0390a3565b637222ae5760e11b60005260046000fd5b611be2915060203d602011610cbc57610cae8183611aa4565b38611b6d565b50505050565b63764bf92560e11b60005260046000fd5b630f58058360e11b60005260046000fd5b90600182811c92168015611c40575b6020831014611c2a57565b634e487b7160e01b600052602260045260246000fd5b91607f1691611c1f565b60009291815491611c5a83611c10565b8083529260018116908115611cb05750600114611c7657505050565b60009081526020812093945091925b838310611c96575060209250010190565b600181602092949394548385870101520191019190611c85565b915050602093945060ff929192191683830152151560051b010190565b906001600160a01b038216908115611bff576001600160a01b038116928315611bff578415611d61578260005260006020528460406000205410611bb857611d16918591612203565b7ff92c2203b7c3705a966df3ac08c40e3abcec988c5db987d1ad144cb13a2e828d611d5c6001600160a01b03611d4a612bfa565b60405196875216949081906020820190565b0390a4565b5050505050565b634e487b7160e01b600052601160045260246000fd5b60001981019190821161143057565b9190820391821161143057565b611da5600254612b4d565b611dad611e20565b9080821115611dc25781039081116114305790565b5050600090565b60405190611dd8604083611aa4565b565b6001600160a01b031660009081526020818152604080832054600d9092529091205481039081116114305790565b9081602091031261042d5751801515810361042d5790565b6040516370a0823160e01b81523060048201526020816024817f00000000000000000000000000000000000000000000000000000000000000006001600160a01b03165afa908115610cc357600091611e77575090565b61054b915060203d602011610cbc57610cae8183611aa4565b611e9b600254612b4d565b611ea3611e20565b80821115611dc25781039081116114305790565b611ebf612bfa565b6001600160a01b03811660009081527f5eff886ea0ce6ca488a3d6e336d6c0f75f46d19b42c06ce5ee98e42c96d256c7602052604090205460ff1615611f025750565b63e2517d3f60e01b60005260018060a01b0316600452600060245260446000fd5b611f2b612bfa565b6001600160a01b03811660009081527f7e125c9ea420f0e95984d1e1d608a5086ac9d68cf1979af82073c056c2ae6deb602052604090205460ff1615611f6e5750565b63e2517d3f60e01b60009081526001600160a01b03919091166004527f47b7a6ef32f924153c4c0c2f871f8856bd114b4903c167827ef0f0694c583e27602452604490fd5b611fbb612bfa565b6001600160a01b03811660009081527f59a4949863265294ff108d0bf4f627607865d3b0e204ff50f9442decf27a206f602052604090205460ff1615611ffe5750565b63e2517d3f60e01b60009081526001600160a01b03919091166004527f4f218fa1cf3180113024eb1bbca508696a5a0f0ecafaeea4da87c53e5d465892602452604490fd5b61204b612bfa565b60008281526008602090815260408083206001600160a01b038516845290915290205460ff161561207a575050565b63e2517d3f60e01b60005260018060a01b031660045260245260446000fd5b60405163a9059cbb60e01b60208281019182526001600160a01b039094166024830152604482019490945290926000916120d68160648101611835565b519082855af115611ada576000513d61211f57506001600160a01b0381163b155b6120fe5750565b635274afe760e01b60009081526001600160a01b0391909116600452602490fd5b600114156120f7565b6001600160a01b03166000818152600c60205260409020549192909160ff166121ee5781156121d8576001600160a01b0383169283156121c257817f8c5be1e5ebec7d5bd14f71427d1e84f3dd0314c0f7b2291e5b200ac8c7c3b925926121b1611bb39386600052600160205260406000209060018060a01b0316600052602052604060002090565b556040519081529081906020820190565b634a1406b160e11b600052600060045260246000fd5b63e602df0560e01b600052600060045260246000fd5b50635ff1c9b960e11b60005260045260246000fd5b909291906001600160a01b03811680156122f0576001600160a01b0385169081156122da5760ff600e5460a01c16806122d2575b611223578361224584611dda565b106122be5780600052600c60205260ff604060002054166122aa5750600052600c60205260ff6040600020541661228c5792836122878383611dd8969761325d565b612ffb565b635ff1c9b960e11b6000526001600160a01b03841660045260246000fd5b635ff1c9b960e11b60005260045260246000fd5b6314884b4960e01b60005260045260246000fd5b506001612237565b63ec442f0560e01b600052600060045260246000fd5b634b637e8f60e11b600052600060045260246000fd5b81156115c457600e5460a01c60ff166123e1575b60405163a9059cbb60e01b81526001600160a01b0382166004820152602481018390526020818060448101038160007f00000000000000000000000000000000000000000000000000000000000000006001600160a01b03165af1908115610cc3576000916123c2575b5015611212576040519182526001600160a01b0316907f6f50cd6d1a8ee055bfba8d1998a1e71e64c3a0791f04001b50f038e3c106590990602090a2565b6123db915060203d6020116115bd576115af8183611aa4565b38612384565b6123ec600254612b4d565b6123fd836123f8611e20565b611d8d565b101561231a576354ed247f60e11b60005260046000fd5b6001600160a01b039081166000818152600160209081526040808320948616835293905291909120919290915460001981106124505750505050565b8181106124cb5782600052600c60205260ff604060002054166124b65782156121d8576001600160a01b038416156121c2576124ac926000526001602052039160406000209060018060a01b0316600052602052604060002090565b5538808080611be8565b82635ff1c9b960e11b60005260045260246000fd5b83637dc7a0d960e11b60005260018060a01b031660045260245260445260646000fd5b60008181526008602090815260408083206001600160a01b038616845290915290205460ff16611dc25760008181526008602090815260408083206001600160a01b03861684529091529020805460ff191660011790556001600160a01b03612555612bfa565b16916001600160a01b0316907f2f8788117e7eff1d82e926ec794901d17c78024a50270940304540a733656f0d600080a4600190565b906001820180921161143057565b9190820180921161143057565b90801561094c576001600160a01b03821660009081526020818152604080832054600f90925290912054906125dc908290611d8d565b8211612707576125eb82612b4d565b90816125f5611e20565b10611212578261260491612599565b6001600160a01b0384166000908152600f602052604090205561262782846129b5565b60405163a9059cbb60e01b81526001600160a01b0384166004820152602481018290526020818060448101038160007f00000000000000000000000000000000000000000000000000000000000000006001600160a01b03165af1908115610cc3576000916126e8575b5015611212577f89c1baf255325ff129333505b752f8995ccdb6b3ec274020ab0d821d76c8dac7906126c1612bfa565b6040805194855260208501929092526001600160a01b039081169416929081908101611bb3565b612701915060203d6020116115bd576115af8183611aa4565b38612691565b631a3cd61560e11b60005260046000fd5b307f00000000000000000000000000000000000000000000000000000000000000006001600160a01b0316148061280b575b15612773577f000000000000000000000000000000000000000000000000000000000000000090565b60405160208101907f8b73c3c69bb8fe3d512ecc4cf759cc79239f7b179b0ffacaa9a75d522b39400f82527f000000000000000000000000000000000000000000000000000000000000000060408201527f000000000000000000000000000000000000000000000000000000000000000060608201524660808201523060a082015260a0815261280560c082611aa4565b51902090565b507f0000000000000000000000000000000000000000000000000000000000000000461461274a565b60008181526008602090815260408083206001600160a01b038616845290915290205460ff1615611dc25760008181526008602090815260408083206001600160a01b03861684529091529020805460ff191690556001600160a01b03612899612bfa565b16916001600160a01b0316907ff6391f5c32d9c69d2a47ea670b442974b53935d1edc7fd64eb21e047a839171b600080a4600190565b91906001600160a01b038316600081156129a15760ff600e5460a01c1680612999575b61298a575060008052600c6020527f13649b2456f1b42fef0f0040b3aaeabcd21a76a0f3f5defd4f583839455116e85460ff1661297457600052600c60205260ff60406000205416612956578261294f82611dd89495600061325d565b6000612ffb565b635ff1c9b960e11b6000526001600160a01b03831660045260246000fd5b635ff1c9b960e11b600052600060045260246000fd5b632b75c76f60e11b8152600490fd5b5060016128f2565b63ec442f0560e01b81526004819052602490fd5b906001600160a01b03821680156122f05760ff600e5460a01c1680612a58575b61122357816129e384611dda565b106122be5780600052600c60205260ff604060002054166122aa575060008052600c6020527f13649b2456f1b42fef0f0040b3aaeabcd21a76a0f3f5defd4f583839455116e85460ff16612a42576000826122878383611dd89661325d565b635ff1c9b960e11b600090815260045260246000fd5b5060006129d5565b65ffffffffffff8111612a785765ffffffffffff1690565b6306dfcc6560e41b600052603060045260245260446000fd5b908154906000829160058411612ad7575b612aad935084612db1565b6000919080612abe57505050600090565b612ac790611d7e565b9082526020909120015460301c90565b9192612ae281612c53565b810390811161143057612aad938560005265ffffffffffff82602060002001541665ffffffffffff851610600014612b1b575091612aa2565b929150612b279061258b565b90612aa2565b8115612b37570490565b634e487b7160e01b600052601260045260246000fd5b60ff7f00000000000000000000000000000000000000000000000000000000000000001690604d821161143057612b8791600a0a90612b2d565b7f0000000000000000000000000000000000000000000000000000000000000000908181029181830414901517156114305790565b604290612bc7612718565b906040519161190160f01b8352600283015260228201522090565b9161054b9391612bf193612ed0565b90929192612f79565b337f00000000000000000000000000000000000000000000000000000000000000006001600160a01b03161480612c48575b15612c44576013193601368111611430573560601c90565b3390565b506014361015612c2c565b600181111561054b57806001600160801b821015612d74575b612d1a612d10612d06612cfc612cf2612ce8612cd7612d219760048a600160401b612d269c1015612d67575b640100000000811015612d5a575b62010000811015612d4d575b610100811015612d40575b6010811015612d33575b1015612d2b575b60030260011c90565b612ce1818b612b2d565b0160011c90565b612ce1818a612b2d565b612ce18189612b2d565b612ce18188612b2d565b612ce18187612b2d565b612ce18186612b2d565b8093612b2d565b821190565b900390565b60011b612cce565b60041c9160021b91612cc7565b60081c9160041b91612cbd565b60101c9160081b91612cb2565b60201c9160101b91612ca6565b60401c9160201b91612c98565b5050612d26612d21612d1a612d10612d06612cfc612cf2612ce8612cd7612d9b8a60801c90565b9850600160401b9750612c6c9650505050505050565b91905b838210612dc15750505090565b9091928083169080841860011c8201809211611430578460005265ffffffffffff82602060002001541665ffffffffffff841610600014612e065750925b9190612db4565b939250612e129061258b565b91612dff565b60ff60075416612e2457565b63d93c066560e01b60005260046000fd5b60ff8114612e7f5760ff811690601f8211612e6e576040805192612e598285611aa4565b6020808552840191601f190136833783525290565b632cd44ac360e21b60005260046000fd5b5060405161054b81612e92816009611c4a565b0382611aa4565b60ff8114612ebd5760ff811690601f8211612e6e576040805192612e598285611aa4565b5060405161054b81612e9281600a611c4a565b91907f7fffffffffffffffffffffffffffffff5d576e7357a4501ddfe92f46681b20a08411612f4d579160209360809260ff60009560405194855216868401526040830152606082015282805260015afa15610cc3576000516001600160a01b03811615612f415790600090600090565b50600090600190600090565b50505060009160039190565b60041115612f6357565b634e487b7160e01b600052602160045260246000fd5b612f8281612f59565b80612f8b575050565b612f9481612f59565b60018103612fad5763f645eedf60e01b60005260046000fd5b612fb681612f59565b60028103612fd3575063fce698f760e01b60005260045260246000fd5b80612fdf600392612f59565b14612fe75750565b6335e2f38360e21b60005260045260246000fd5b6001600160a01b031680613063575061301b613016836130e0565b613113565b50505b6001600160a01b031680613042575061303961303e916130e0565b6131e7565b5050565b9061303e91600052600560205261305d6040600020916130e0565b9061318a565b60005260056020526040600020613079836130e0565b600090825480156000146130bf5750815b506001600160d01b0390811691811691909103908111611430576130b79165ffffffffffff42169061343a565b90505061301e565b80600019810111611430578383526020832001600019015460301c9161308a565b6001600160d01b0381116130fa576001600160d01b031690565b6306dfcc6560e41b60005260d060045260245260446000fd5b6006548061314e57506000905b6001600160d01b03918216908216019081116114305761314a904265ffffffffffff16600661343a565b9091565b806000198101116114305760066000527ff652222313e28459528d920b65115c16c04f3efc82aaedc97be59f3f377c0d3e015460301c90613120565b90815480156000146131c457506000905b6001600160d01b03918216908216019081116114305761314a9165ffffffffffff42169061343a565b806000198101116114305760008381526020902001600019015460301c9061319b565b6006548061322157506000905b6001600160d01b03908116918116919091039081116114305761314a904265ffffffffffff16600661343a565b806000198101116114305760066000527ff652222313e28459528d920b65115c16c04f3efc82aaedc97be59f3f377c0d3e015460301c906131f4565b91613266612e18565b6001600160a01b038316801593909190841561334557506132d4816132b66132b17fddf252ad1be2c89b69c2b068fc378daa952ba7f163c4a11628f55a4df523b3ef94600254612599565b600255565b6001600160a01b03851694856133235750611ba38160025403600255565b0390a36132dd57565b7f000000000000000000000000000000000000000000000000000000000000000060025481811161330c575050565b63279e7e1560e21b60005260045260245260446000fd5b6001600160a01b03166000908152602081905260409020818154019055611ba3565b6001600160a01b0381166000908152602081905260409020548281106133b057916132d4916133aa827fddf252ad1be2c89b69c2b068fc378daa952ba7f163c4a11628f55a4df523b3ef95039160018060a01b03166000526000602052604060002090565b556132b6565b63391434e360e21b6000526001600160a01b0390911660045260245260445260646000fd5b908154600160401b811015611ac657600181018084558110156134245760009283526020928390208251929093015160301b65ffffffffffff191665ffffffffffff9290921691909117910155565b634e487b7160e01b600052603260045260246000fd5b805492939280156134ea5761345161345e91611d7e565b8260005260206000200190565b8054603081901c9365ffffffffffff918216929181168084116134d9578793036134a557506134a192509065ffffffffffff82549181199060301b169116179055565b9190565b9150506134a1916134c56134b7611dc9565b65ffffffffffff9093168352565b6001600160d01b03861660208301526133d5565b632520601d60e01b60005260046000fd5b509061350f916134fb6134b7611dc9565b6001600160d01b03851660208301526133d5565b6000919056fea164736f6c634300081c000a2f8788117e7eff1d82e926ec794901d17c78024a50270940304540a733656f0d5eff886ea0ce6ca488a3d6e336d6c0f75f46d19b42c06ce5ee98e42c96d256c77e125c9ea420f0e95984d1e1d608a5086ac9d68cf1979af82073c056c2ae6deb59a4949863265294ff108d0bf4f627607865d3b0e204ff50f9442decf27a206fa164736f6c634300081c000a",
    "linkReferences": {}
  },
  "methodIdentifiers": {
    "create(string,string,uint8,uint256,uint256,uint256,address)": "5c850ae9",
    "isAddressDeployed(address)": "4e7f6dea",
    "isFactoryToken(address)": "a4b7914e",
    "isTrustedForwarder(address)": "572b6c05",
    "predictAddress(address,string,string,uint8,uint256,uint256,uint256,address)": "93611bf3",
    "trustedForwarder()": "7da0a877"
  },
  "id": 2
}