{"abi":[{"type":"constructor","inputs":[{"name":"name","type":"string","internalType":"string"},{"name":"symbol","type":"string","internalType":"string"},{"name":"decimals_","type":"uint8","internalType":"uint8"},{"name":"initialSupply","type":"uint256","internalType":"uint256"},{"name":"initialOwner","type":"address","internalType":"address"},{"name":"forwarder","type":"address","internalType":"address"}],"stateMutability":"nonpayable"},{"type":"function","name":"DEFAULT_ADMIN_ROLE","inputs":[],"outputs":[{"name":"","type":"bytes32","internalType":"bytes32"}],"stateMutability":"view"},{"type":"function","name":"DOMAIN_SEPARATOR","inputs":[],"outputs":[{"name":"","type":"bytes32","internalType":"bytes32"}],"stateMutability":"view"},{"type":"function","name":"SUPPLY_MANAGEMENT_ROLE","inputs":[],"outputs":[{"name":"","type":"bytes32","internalType":"bytes32"}],"stateMutability":"view"},{"type":"function","name":"allowance","inputs":[{"name":"owner","type":"address","internalType":"address"},{"name":"spender","type":"address","internalType":"address"}],"outputs":[{"name":"","type":"uint256","internalType":"uint256"}],"stateMutability":"view"},{"type":"function","name":"approve","inputs":[{"name":"spender","type":"address","internalType":"address"},{"name":"value","type":"uint256","internalType":"uint256"}],"outputs":[{"name":"","type":"bool","internalType":"bool"}],"stateMutability":"nonpayable"},{"type":"function","name":"balanceOf","inputs":[{"name":"account","type":"address","internalType":"address"}],"outputs":[{"name":"","type":"uint256","internalType":"uint256"}],"stateMutability":"view"},{"type":"function","name":"decimals","inputs":[],"outputs":[{"name":"","type":"uint8","internalType":"uint8"}],"stateMutability":"view"},{"type":"function","name":"eip712Domain","inputs":[],"outputs":[{"name":"fields","type":"bytes1","internalType":"bytes1"},{"name":"name","type":"string","internalType":"string"},{"name":"version","type":"string","internalType":"string"},{"name":"chainId","type":"uint256","internalType":"uint256"},{"name":"verifyingContract","type":"address","internalType":"address"},{"name":"salt","type":"bytes32","internalType":"bytes32"},{"name":"extensions","type":"uint256[]","internalType":"uint256[]"}],"stateMutability":"view"},{"type":"function","name":"getRoleAdmin","inputs":[{"name":"role","type":"bytes32","internalType":"bytes32"}],"outputs":[{"name":"","type":"bytes32","internalType":"bytes32"}],"stateMutability":"view"},{"type":"function","name":"grantRole","inputs":[{"name":"role","type":"bytes32","internalType":"bytes32"},{"name":"account","type":"address","internalType":"address"}],"outputs":[],"stateMutability":"nonpayable"},{"type":"function","name":"hasRole","inputs":[{"name":"role","type":"bytes32","internalType":"bytes32"},{"name":"account","type":"address","internalType":"address"}],"outputs":[{"name":"","type":"bool","internalType":"bool"}],"stateMutability":"view"},{"type":"function","name":"isTrustedForwarder","inputs":[{"name":"forwarder","type":"address","internalType":"address"}],"outputs":[{"name":"","type":"bool","internalType":"bool"}],"stateMutability":"view"},{"type":"function","name":"mint","inputs":[{"name":"to","type":"address","internalType":"address"},{"name":"amount","type":"uint256","internalType":"uint256"}],"outputs":[],"stateMutability":"nonpayable"},{"type":"function","name":"name","inputs":[],"outputs":[{"name":"","type":"string","internalType":"string"}],"stateMutability":"view"},{"type":"function","name":"nonces","inputs":[{"name":"owner","type":"address","internalType":"address"}],"outputs":[{"name":"","type":"uint256","internalType":"uint256"}],"stateMutability":"view"},{"type":"function","name":"permit","inputs":[{"name":"owner","type":"address","internalType":"address"},{"name":"spender","type":"address","internalType":"address"},{"name":"value","type":"uint256","internalType":"uint256"},{"name":"deadline","type":"uint256","internalType":"uint256"},{"name":"v","type":"uint8","internalType":"uint8"},{"name":"r","type":"bytes32","internalType":"bytes32"},{"name":"s","type":"bytes32","internalType":"bytes32"}],"outputs":[],"stateMutability":"nonpayable"},{"type":"function","name":"renounceRole","inputs":[{"name":"role","type":"bytes32","internalType":"bytes32"},{"name":"callerConfirmation","type":"address","internalType":"address"}],"outputs":[],"stateMutability":"nonpayable"},{"type":"function","name":"revokeRole","inputs":[{"name":"role","type":"bytes32","internalType":"bytes32"},{"name":"account","type":"address","internalType":"address"}],"outputs":[],"stateMutability":"nonpayable"},{"type":"function","name":"supportsInterface","inputs":[{"name":"interfaceId","type":"bytes4","internalType":"bytes4"}],"outputs":[{"name":"","type":"bool","internalType":"bool"}],"stateMutability":"view"},{"type":"function","name":"symbol","inputs":[],"outputs":[{"name":"","type":"string","internalType":"string"}],"stateMutability":"view"},{"type":"function","name":"totalSupply","inputs":[],"outputs":[{"name":"","type":"uint256","internalType":"uint256"}],"stateMutability":"view"},{"type":"function","name":"transfer","inputs":[{"name":"to","type":"address","internalType":"address"},{"name":"value","type":"uint256","internalType":"uint256"}],"outputs":[{"name":"","type":"bool","internalType":"bool"}],"stateMutability":"nonpayable"},{"type":"function","name":"transferFrom","inputs":[{"name":"from","type":"address","internalType":"address"},{"name":"to","type":"address","internalType":"address"},{"name":"value","type":"uint256","internalType":"uint256"}],"outputs":[{"name":"","type":"bool","internalType":"bool"}],"stateMutability":"nonpayable"},{"type":"function","name":"trustedForwarder","inputs":[],"outputs":[{"name":"","type":"address","internalType":"address"}],"stateMutability":"view"},{"type":"function","name":"withdrawToken","inputs":[{"name":"token","type":"address","internalType":"address"},{"name":"to","type":"address","internalType":"address"},{"name":"amount","type":"uint256","internalType":"uint256"}],"outputs":[],"stateMutability":"nonpayable"},{"type":"event","name":"Approval","inputs":[{"name":"owner","type":"address","indexed":true,"internalType":"address"},{"name":"spender","type":"address","indexed":true,"internalType":"address"},{"name":"value","type":"uint256","indexed":false,"internalType":"uint256"}],"anonymous":false},{"type":"event","name":"EIP712DomainChanged","inputs":[],"anonymous":false},{"type":"event","name":"RoleAdminChanged","inputs":[{"name":"role","type":"bytes32","indexed":true,"internalType":"bytes32"},{"name":"previousAdminRole","type":"bytes32","indexed":true,"internalType":"bytes32"},{"name":"newAdminRole","type":"bytes32","indexed":true,"internalType":"bytes32"}],"anonymous":false},{"type":"event","name":"RoleGranted","inputs":[{"name":"role","type":"bytes32","indexed":true,"internalType":"bytes32"},{"name":"account","type":"address","indexed":true,"internalType":"address"},{"name":"sender","type":"address","indexed":true,"internalType":"address"}],"anonymous":false},{"type":"event","name":"RoleRevoked","inputs":[{"name":"role","type":"bytes32","indexed":true,"internalType":"bytes32"},{"name":"account","type":"address","indexed":true,"internalType":"address"},{"name":"sender","type":"address","indexed":true,"internalType":"address"}],"anonymous":false},{"type":"event","name":"TokenWithdrawn","inputs":[{"name":"token","type":"address","indexed":true,"internalType":"address"},{"name":"to","type":"address","indexed":true,"internalType":"address"},{"name":"amount","type":"uint256","indexed":false,"internalType":"uint256"}],"anonymous":false},{"type":"event","name":"Transfer","inputs":[{"name":"from","type":"address","indexed":true,"internalType":"address"},{"name":"to","type":"address","indexed":true,"internalType":"address"},{"name":"value","type":"uint256","indexed":false,"internalType":"uint256"}],"anonymous":false},{"type":"error","name":"AccessControlBadConfirmation","inputs":[]},{"type":"error","name":"AccessControlUnauthorizedAccount","inputs":[{"name":"account","type":"address","internalType":"address"},{"name":"neededRole","type":"bytes32","internalType":"bytes32"}]},{"type":"error","name":"ECDSAInvalidSignature","inputs":[]},{"type":"error","name":"ECDSAInvalidSignatureLength","inputs":[{"name":"length","type":"uint256","internalType":"uint256"}]},{"type":"error","name":"ECDSAInvalidSignatureS","inputs":[{"name":"s","type":"bytes32","internalType":"bytes32"}]},{"type":"error","name":"ERC20InsufficientAllowance","inputs":[{"name":"spender","type":"address","internalType":"address"},{"name":"allowance","type":"uint256","internalType":"uint256"},{"name":"needed","type":"uint256","internalType":"uint256"}]},{"type":"error","name":"ERC20InsufficientBalance","inputs":[{"name":"sender","type":"address","internalType":"address"},{"name":"balance","type":"uint256","internalType":"uint256"},{"name":"needed","type":"uint256","internalType":"uint256"}]},{"type":"error","name":"ERC20InvalidApprover","inputs":[{"name":"approver","type":"address","internalType":"address"}]},{"type":"error","name":"ERC20InvalidReceiver","inputs":[{"name":"receiver","type":"address","internalType":"address"}]},{"type":"error","name":"ERC20InvalidSender","inputs":[{"name":"sender","type":"address","internalType":"address"}]},{"type":"error","name":"ERC20InvalidSpender","inputs":[{"name":"spender","type":"address","internalType":"address"}]},{"type":"error","name":"ERC2612ExpiredSignature","inputs":[{"name":"deadline","type":"uint256","internalType":"uint256"}]},{"type":"error","name":"ERC2612InvalidSigner","inputs":[{"name":"signer","type":"address","internalType":"address"},{"name":"owner","type":"address","internalType":"address"}]},{"type":"error","name":"InsufficientTokenBalance","inputs":[]},{"type":"error","name":"InvalidAccountNonce","inputs":[{"name":"account","type":"address","internalType":"address"},{"name":"currentNonce","type":"uint256","internalType":"uint256"}]},{"type":"error","name":"InvalidDecimals","inputs":[{"name":"decimals","type":"uint8","internalType":"uint8"}]},{"type":"error","name":"InvalidShortString","inputs":[]},{"type":"error","name":"InvalidTokenAddress","inputs":[]},{"type":"error","name":"SafeERC20FailedOperation","inputs":[{"name":"token","type":"address","internalType":"address"}]},{"type":"error","name":"StringTooLong","inputs":[{"name":"str","type":"string","internalType":"string"}]}],"bytecode":{"object":"0x6101a0806040523461054057611f64803803809161001d8285610545565b8339810160c0828203126105405781516001600160401b038111610540578161004791840161058b565b602083015190916001600160401b0382116105405761006791840161058b565b91604081015160ff81168082036105405760608301519361009660a061008f608087016105df565b95016105df565b906040968751916100a78984610545565b60018352603160f81b6020840190815281519092906001600160401b03811161044a57600354600181811c91168015610536575b602082101461042a57601f81116104d1575b50806020601f821160011461046b57600091610460575b508160011b916000199060031b1c1916176003555b8051906001600160401b03821161044a5760045490600182811c92168015610440575b602083101461042a5781601f8493116103ba575b50602090601f831160011461035257600092610347575b50508160011b916000199060031b1c1916176004555b6101868161072d565b61012052610193836108be565b6101405260208151910120918260e05251902080610100524660a05287519060208201927f8b73c3c69bb8fe3d512ecc4cf759cc79239f7b179b0ffacaa9a75d522b39400f84528983015260608201524660808201523060a082015260a081526101fe60c082610545565b5190206080523060c0526101605260128111610333575061018052610222816105f3565b5061022c81610683565b50816102a5575b82516114c79081610a3d8239608051816110d4015260a05181611191015260c0518161109e015260e0518161112301526101005181611149015261012051816104ef01526101405181610518015261016051818181610623015281816106ac015261124e015261018051816108ad0152f35b6001600160a01b031690811561031d57600254818101809111610307576002557fddf252ad1be2c89b69c2b068fc378daa952ba7f163c4a11628f55a4df523b3ef60206000928484528382528584208181540190558551908152a33880610233565b634e487b7160e01b600052601160045260246000fd5b63ec442f0560e01b600052600060045260246000fd5b63ca95039160e01b60005260045260246000fd5b015190503880610167565b600460009081528281209350601f198516905b8181106103a25750908460019594939210610389575b505050811b0160045561017d565b015160001960f88460031b161c1916905538808061037b565b92936020600181928786015181550195019301610365565b60046000529091507f8a35acfbc15ff81a39ae7d344fd709f28e8600b4aa8c65c6b64bfe7fe36bd19b601f840160051c81019160208510610420575b90601f859493920160051c01905b8181106104115750610150565b60008155849350600101610404565b90915081906103f6565b634e487b7160e01b600052602260045260246000fd5b91607f169161013c565b634e487b7160e01b600052604160045260246000fd5b905083015138610104565b600360009081528181209250601f198416905b8181106104b9575090836001949392106104a0575b5050811b01600355610119565b85015160001960f88460031b161c191690553880610493565b9192602060018192868a01518155019401920161047e565b60036000527fc2575a0e9e593c00f959f8c92f12db2869c3395a3b0502d05e2516446f71f85b601f830160051c8101916020841061052c575b601f0160051c01905b81811061052057506100ed565b60008155600101610513565b909150819061050a565b90607f16906100db565b600080fd5b601f909101601f19168101906001600160401b0382119082101761044a57604052565b60005b83811061057b5750506000910152565b818101518382015260200161056b565b81601f820112156105405780516001600160401b03811161044a57604051926105be601f8301601f191660200185610545565b81845260208284010111610540576105dc9160208085019101610568565b90565b51906001600160a01b038216820361054057565b6001600160a01b0381166000908152600080516020611f24833981519152602052604090205460ff1661067d576001600160a01b038181166000908152600080516020611f2483398151915260205260409020805460ff19166001179055610659610a00565b16906001600160a01b03166000600080516020611f048339815191528180a4600190565b50600090565b6001600160a01b0381166000908152600080516020611f44833981519152602052604090205460ff1661067d576001600160a01b038181166000908152600080516020611f4483398151915260205260409020805460ff191660011790556106e9610a00565b16906001600160a01b03167f47b7a6ef32f924153c4c0c2f871f8856bd114b4903c167827ef0f0694c583e27600080516020611f04833981519152600080a4600190565b908151602081106000146107a8575090601f815111610769576020815191015160208210610759571790565b6000198260200360031b1b161790565b6044604051809263305a27a960e01b82526020600483015261079a8151809281602486015260208686019101610568565b601f01601f19168101030190fd5b6001600160401b03811161044a57600654600181811c911680156108b4575b602082101461042a57601f811161087e575b50602092601f8211600114610819579281929360009261080e575b50508160011b916000199060031b1c19161760065560ff90565b0151905038806107f4565b601f198216936006600052806000209160005b868110610866575083600195961061084d575b505050811b0160065560ff90565b015160001960f88460031b161c1916905538808061083f565b9192602060018192868501518155019401920161082c565b6006600052601f6020600020910160051c810190601f830160051c015b8181106108a857506107d9565b6000815560010161089b565b90607f16906107c7565b908151602081106000146108ea575090601f815111610769576020815191015160208210610759571790565b6001600160401b03811161044a57600754600181811c911680156109f6575b602082101461042a57601f81116109c0575b50602092601f821160011461095b5792819293600092610950575b50508160011b916000199060031b1c19161760075560ff90565b015190503880610936565b601f198216936007600052806000209160005b8681106109a8575083600195961061098f575b505050811b0160075560ff90565b015160001960f88460031b161c19169055388080610981565b9192602060018192868501518155019401920161096e565b6007600052601f6020600020910160051c810190601f830160051c015b8181106109ea575061091b565b600081556001016109dd565b90607f1690610909565b610160516001600160a01b0316331480610a31575b15610a2d576013193601368111610307573560601c90565b3390565b506014361015610a1556fe6080604052600436101561001257600080fd5b60003560e01c806301e3366714610b7e57806301ffc9a714610b2857806306fdde0314610a80578063095ea7b314610a5357806318160ddd14610a3557806323b872dd1461093e578063248a9ca3146109115780632f2ff15d146108d1578063313ce567146108935780633644e5151461087057806336568abe1461081a57806340c10f19146106e0578063572b6c051461068c57806370a08231146106525780637da0a8771461060d5780637ecebe00146105d357806384b0196e146104d657806391d148541461048957806395d89b41146103a45780639933de0f14610369578063a217fddf1461034d578063a9059cbb14610315578063d505accf146101cc578063d547741f146101855763dd62ed3e1461012f57600080fd5b3461018057604036600319011261018057610148610c06565b610150610c1c565b6001600160a01b039182166000908152600160209081526040808320949093168252928352819020549051908152f35b600080fd5b34610180576040366003190112610180576101ca6004356101a4610c1c565b906101c56101c082600052600560205260016040600020015490565b610ef9565b6111b7565b005b346101805760e0366003190112610180576101e5610c06565b6101ed610c1c565b604435906064359260843560ff8116810361018057844211610300576102c36102cc9160018060a01b038416968760005260086020526040600020908154916001830190556040519060208201927f6e71edae12b1b97f4d1f60370fef10105fa2faae0126114a169c64845d6126c984528a604084015260018060a01b038916606084015289608084015260a083015260c082015260c0815261029160e082610cad565b51902061029c61109b565b906040519161190160f01b83526002830152602282015260c43591604260a43592206113a9565b90929192611432565b6001600160a01b03168481036102e757506101ca93506112a4565b84906325c0072360e11b60005260045260245260446000fd5b8463313c898160e11b60005260045260246000fd5b3461018057604036600319011261018057610342610331610c06565b6024359061033d61124b565b610f4f565b602060405160018152f35b3461018057600036600319011261018057602060405160008152f35b346101805760003660031901126101805760206040517f47b7a6ef32f924153c4c0c2f871f8856bd114b4903c167827ef0f0694c583e278152f35b346101805760003660031901126101805760405160006004546103c681610e3c565b80845290600181169081156104655750600114610406575b610402836103ee81850382610cad565b604051918291602083526020830190610c6c565b0390f35b600460009081527f8a35acfbc15ff81a39ae7d344fd709f28e8600b4aa8c65c6b64bfe7fe36bd19b939250905b80821061044b575090915081016020016103ee6103de565b919260018160209254838588010152019101909291610433565b60ff191660208086019190915291151560051b840190910191506103ee90506103de565b34610180576040366003190112610180576104a2610c1c565b600435600052600560205260406000209060018060a01b0316600052602052602060ff604060002054166040519015158152f35b34610180576000366003190112610180576105756105137f000000000000000000000000000000000000000000000000000000000000000061130b565b61053c7f0000000000000000000000000000000000000000000000000000000000000000611372565b60206105836040519261054f8385610cad565b600084526000368137604051958695600f60f81b875260e08588015260e0870190610c6c565b908582036040870152610c6c565b466060850152306080850152600060a085015283810360c085015281808451928381520193019160005b8281106105bc57505050500390f35b8351855286955093810193928101926001016105ad565b34610180576020366003190112610180576001600160a01b036105f4610c06565b1660005260086020526020604060002054604051908152f35b34610180576000366003190112610180576040517f00000000000000000000000000000000000000000000000000000000000000006001600160a01b03168152602090f35b34610180576020366003190112610180576001600160a01b03610673610c06565b1660005260006020526020604060002054604051908152f35b346101805760203660031901126101805760206106a7610c06565b6040517f00000000000000000000000000000000000000000000000000000000000000006001600160a01b039081169216919091148152f35b34610180576040366003190112610180576106f9610c06565b6024359061070561124b565b6001600160a01b03811660009081527f185698659089032601239fc48a06d2ff40d0865ce1d881ffedb409d12c733ee1602052604090205460ff16156107d557506001600160a01b031680156107bf57600254918083018093116107a9576020926002557fddf252ad1be2c89b69c2b068fc378daa952ba7f163c4a11628f55a4df523b3ef600093849284845283825260408420818154019055604051908152a380f35b634e487b7160e01b600052601160045260246000fd5b63ec442f0560e01b600052600060045260246000fd5b63e2517d3f60e01b60009081526001600160a01b03919091166004527f47b7a6ef32f924153c4c0c2f871f8856bd114b4903c167827ef0f0694c583e27602452604490fd5b3461018057604036600319011261018057610833610c1c565b6001600160a01b0361084361124b565b166001600160a01b0382160361085f576101ca906004356111b7565b63334bd91960e11b60005260046000fd5b3461018057600036600319011261018057602061088b61109b565b604051908152f35b3461018057600036600319011261018057602060405160ff7f0000000000000000000000000000000000000000000000000000000000000000168152f35b34610180576040366003190112610180576101ca6004356108f0610c1c565b9061090c6101c082600052600560205260016040600020015490565b610ffe565b3461018057602036600319011261018057602061088b600435600052600560205260016040600020015490565b346101805761094c36610c32565b9061095561124b565b6001600160a01b038085166000818152600160209081526040808320948616835293905291909120549094916000198210610997575b50506103429350610f4f565b848210610a105785156109fa576001600160a01b038116156109e45761034295600052600160205260406000209060018060a01b031660005260205283604060002091039055848061098b565b634a1406b160e11b600052600060045260246000fd5b63e602df0560e01b600052600060045260246000fd5b849250637dc7a0d960e11b60005260018060a01b031660045260245260445260646000fd5b34610180576000366003190112610180576020600254604051908152f35b3461018057604036600319011261018057610342610a6f610c06565b60243590610a7b61124b565b6112a4565b34610180576000366003190112610180576040516000600354610aa281610e3c565b80845290600181169081156104655750600114610ac957610402836103ee81850382610cad565b600360009081527fc2575a0e9e593c00f959f8c92f12db2869c3395a3b0502d05e2516446f71f85b939250905b808210610b0e575090915081016020016103ee6103de565b919260018160209254838588010152019101909291610af6565b346101805760203660031901126101805760043563ffffffff60e01b811680910361018057602090637965db0b60e01b8114908115610b6d575b506040519015158152f35b6301ffc9a760e01b14905082610b62565b3461018057610b8c36610c32565b90610b9561124b565b6001600160a01b03811660009081527f05b8ccbb9d4d8fb16ea74ce3c29a41f1b461fbdaff4714a0d9a8eb05499746bc602052604090205490939060ff1615610be2576101ca9350610ce5565b63e2517d3f60e01b60009081526001600160a01b0385166004526024819052604490fd5b600435906001600160a01b038216820361018057565b602435906001600160a01b038216820361018057565b6060906003190112610180576004356001600160a01b038116810361018057906024356001600160a01b0381168103610180579060443590565b919082519283825260005b848110610c98575050826000602080949584010152601f8019910116010190565b80602080928401015182828601015201610c77565b90601f8019910116810190811067ffffffffffffffff821117610ccf57604052565b634e487b7160e01b600052604160045260246000fd5b6001600160a01b0316908115610e2b576001600160a01b0316918215610e2b578015610e26576040516370a0823160e01b8152306004820152602081602481865afa8015610dd4578291600091610df1575b5010610de057602060006040518281019063a9059cbb60e01b825286602482015284604482015260448152610d6d606482610cad565b519082865af115610dd4576000513d610dcb5750813b155b610db65760207f8210728e7c071f615b840ee026032693858fbcd5e5359e67e438c890f59e562091604051908152a3565b50635274afe760e01b60005260045260246000fd5b60011415610d85565b6040513d6000823e3d90fd5b637222ae5760e11b60005260046000fd5b9150506020813d602011610e1e575b81610e0d60209383610cad565b810103126101805781905138610d37565b3d9150610e00565b505050565b630f58058360e11b60005260046000fd5b90600182811c92168015610e6c575b6020831014610e5657565b634e487b7160e01b600052602260045260246000fd5b91607f1691610e4b565b60009291815491610e8683610e3c565b8083529260018116908115610edc5750600114610ea257505050565b60009081526020812093945091925b838310610ec2575060209250010190565b600181602092949394548385870101520191019190610eb1565b915050602093945060ff929192191683830152151560051b010190565b610f0161124b565b816000526005602052604060002060018060a01b03821660005260205260ff6040600020541615610f30575050565b63e2517d3f60e01b60005260018060a01b031660045260245260446000fd5b6001600160a01b0316908115610fe8576001600160a01b03169182156107bf576000828152806020526040812054828110610fce5791604082827fddf252ad1be2c89b69c2b068fc378daa952ba7f163c4a11628f55a4df523b3ef958760209652828652038282205586815280845220818154019055604051908152a3565b916064928463391434e360e21b8452600452602452604452fd5b634b637e8f60e11b600052600060045260246000fd5b60008181526005602090815260408083206001600160a01b038616845290915290205460ff166110945760008181526005602090815260408083206001600160a01b0386811685529252909120805460ff1916600117905561105e61124b565b16916001600160a01b0316907f2f8788117e7eff1d82e926ec794901d17c78024a50270940304540a733656f0d600080a4600190565b5050600090565b307f00000000000000000000000000000000000000000000000000000000000000006001600160a01b0316148061118e575b156110f6577f000000000000000000000000000000000000000000000000000000000000000090565b60405160208101907f8b73c3c69bb8fe3d512ecc4cf759cc79239f7b179b0ffacaa9a75d522b39400f82527f000000000000000000000000000000000000000000000000000000000000000060408201527f000000000000000000000000000000000000000000000000000000000000000060608201524660808201523060a082015260a0815261118860c082610cad565b51902090565b507f000000000000000000000000000000000000000000000000000000000000000046146110cd565b60008181526005602090815260408083206001600160a01b038616845290915290205460ff16156110945760008181526005602090815260408083206001600160a01b0386811685529252909120805460ff1916905561121561124b565b16916001600160a01b0316907ff6391f5c32d9c69d2a47ea670b442974b53935d1edc7fd64eb21e047a839171b600080a4600190565b337f00000000000000000000000000000000000000000000000000000000000000006001600160a01b03161480611299575b156112955760131936013681116107a9573560601c90565b3390565b50601436101561127d565b6001600160a01b03169081156109fa576001600160a01b03169182156109e45760207f8c5be1e5ebec7d5bd14f71427d1e84f3dd0314c0f7b2291e5b200ac8c7c3b925918360005260018252604060002085600052825280604060002055604051908152a3565b60ff81146113555760ff811690601f821161134457604080519261132f8285610cad565b6020808552840191601f190136833783525290565b632cd44ac360e21b60005260046000fd5b5060405161136f81611368816006610e76565b0382610cad565b90565b60ff81146113965760ff811690601f821161134457604080519261132f8285610cad565b5060405161136f81611368816007610e76565b91907f7fffffffffffffffffffffffffffffff5d576e7357a4501ddfe92f46681b20a08411611426579160209360809260ff60009560405194855216868401526040830152606082015282805260015afa15610dd4576000516001600160a01b0381161561141a5790600090600090565b50600090600190600090565b50505060009160039190565b91909160048110156114a4578061144857509050565b6000600182036114635763f645eedf60e01b60005260046000fd5b5060028103611481578263fce698f760e01b60005260045260246000fd5b9091600360009214611491575050565b6335e2f38360e21b825260045260249150fd5b634e487b7160e01b600052602160045260246000fdfea164736f6c634300081c000a2f8788117e7eff1d82e926ec794901d17c78024a50270940304540a733656f0d05b8ccbb9d4d8fb16ea74ce3c29a41f1b461fbdaff4714a0d9a8eb05499746bc185698659089032601239fc48a06d2ff40d0865ce1d881ffedb409d12c733ee1","linkReferences":{}},"methodIdentifiers":{"DEFAULT_ADMIN_ROLE()":"a217fddf","DOMAIN_SEPARATOR()":"3644e515","SUPPLY_MANAGEMENT_ROLE()":"9933de0f","allowance(address,address)":"dd62ed3e","approve(address,uint256)":"095ea7b3","balanceOf(address)":"70a08231","decimals()":"313ce567","eip712Domain()":"84b0196e","getRoleAdmin(bytes32)":"248a9ca3","grantRole(bytes32,address)":"2f2ff15d","hasRole(bytes32,address)":"91d14854","isTrustedForwarder(address)":"572b6c05","mint(address,uint256)":"40c10f19","name()":"06fdde03","nonces(address)":"7ecebe00","permit(address,address,uint256,uint256,uint8,bytes32,bytes32)":"d505accf","renounceRole(bytes32,address)":"36568abe","revokeRole(bytes32,address)":"d547741f","supportsInterface(bytes4)":"01ffc9a7","symbol()":"95d89b41","totalSupply()":"18160ddd","transfer(address,uint256)":"a9059cbb","transferFrom(address,address,uint256)":"23b872dd","trustedForwarder()":"7da0a877","withdrawToken(address,address,uint256)":"01e33667"},"id":3}