{
  "abi": [
    {
      "type": "constructor",
      "inputs": [
        {
          "name": "forwarder",
          "type": "address",
          "internalType": "address"
        }
      ],
      "stateMutability": "nonpayable"
    },
    {
      "type": "function",
      "name": "create",
      "inputs": [
        {
          "name": "name",
          "type": "string",
          "internalType": "string"
        },
        {
          "name": "symbol",
          "type": "string",
          "internalType": "string"
        },
        {
          "name": "decimals",
          "type": "uint8",
          "internalType": "uint8"
        },
        {
          "name": "collateralLivenessSeconds",
          "type": "uint48",
          "internalType": "uint48"
        }
      ],
      "outputs": [
        {
          "name": "token",
          "type": "address",
          "internalType": "address"
        }
      ],
      "stateMutability": "nonpayable"
    },
    {
      "type": "function",
      "name": "isAddressDeployed",
      "inputs": [
        {
          "name": "token",
          "type": "address",
          "internalType": "address"
        }
      ],
      "outputs": [
        {
          "name": "",
          "type": "bool",
          "internalType": "bool"
        }
      ],
      "stateMutability": "view"
    },
    {
      "type": "function",
      "name": "isFactoryToken",
      "inputs": [
        {
          "name": "",
          "type": "address",
          "internalType": "address"
        }
      ],
      "outputs": [
        {
          "name": "",
          "type": "bool",
          "internalType": "bool"
        }
      ],
      "stateMutability": "view"
    },
    {
      "type": "function",
      "name": "isTrustedForwarder",
      "inputs": [
        {
          "name": "forwarder",
          "type": "address",
          "internalType": "address"
        }
      ],
      "outputs": [
        {
          "name": "",
          "type": "bool",
          "internalType": "bool"
        }
      ],
      "stateMutability": "view"
    },
    {
      "type": "function",
      "name": "predictAddress",
      "inputs": [
        {
          "name": "sender",
          "type": "address",
          "internalType": "address"
        },
        {
          "name": "name",
          "type": "string",
          "internalType": "string"
        },
        {
          "name": "symbol",
          "type": "string",
          "internalType": "string"
        },
        {
          "name": "decimals",
          "type": "uint8",
          "internalType": "uint8"
        },
        {
          "name": "collateralLivenessSeconds",
          "type": "uint48",
          "internalType": "uint48"
        }
      ],
      "outputs": [
        {
          "name": "predicted",
          "type": "address",
          "internalType": "address"
        }
      ],
      "stateMutability": "view"
    },
    {
      "type": "function",
      "name": "trustedForwarder",
      "inputs": [],
      "outputs": [
        {
          "name": "",
          "type": "address",
          "internalType": "address"
        }
      ],
      "stateMutability": "view"
    },
    {
      "type": "event",
      "name": "DepositCreated",
      "inputs": [
        {
          "name": "token",
          "type": "address",
          "indexed": true,
          "internalType": "address"
        },
        {
          "name": "creator",
          "type": "address",
          "indexed": true,
          "internalType": "address"
        }
      ],
      "anonymous": false
    },
    {
      "type": "error",
      "name": "AddressAlreadyDeployed",
      "inputs": []
    },
    {
      "type": "error",
      "name": "ReentrancyGuardReentrantCall",
      "inputs": []
    }
  ],
  "bytecode": {
    "object": "0x60a03461008b57601f6134ef38819003918201601f19168301916001600160401b038311848410176100905780849260209460405283398101031261008b57516001600160a01b038116810361008b57600160005560805260405161344890816100a7823960805181818161015a0152818161028d015281816102dc0152818161054c015261065c0152f35b600080fd5b634e487b7160e01b600052604160045260246000fdfe6080604052600436101561001257600080fd5b60003560e01c80634e7f6dea146103a85780635048626514610310578063572b6c05146102bc5780637da0a87714610277578063a4b7914e146102385763d74f6b521461005e57600080fd5b346102335760803660031901126102335760043567ffffffffffffffff81116102335761008f903690600401610408565b60243567ffffffffffffffff8111610233576100af903690600401610408565b906044359060ff82168203610233576064359165ffffffffffff83168303610233576002600054146102225760026000556101156100f7848387866100f2610659565b610501565b6001600160a01b031660009081526001602052604090205460ff1690565b610211576101248185846105fd565b9361012d610659565b9360405194612d73938487019387851067ffffffffffffffff8611176101fb57879661017f966106c989397f0000000000000000000000000000000000000000000000000000000000000000956104a7565b03906000f580156101ef576001600160a01b039081166000818152600160208181526040909220805460ff19169091179055916101ba610659565b169060405191817fccf2a362a6aaef657cd7b46d2f2724e27a46e4c598da4b22784791355857f7d2600080a360016000558152f35b6040513d6000823e3d90fd5b634e487b7160e01b600052604160045260246000fd5b636b25fac360e11b60005260046000fd5b633ee5aeb560e01b60005260046000fd5b600080fd5b34610233576020366003190112610233576001600160a01b036102596103d0565b166000526001602052602060ff604060002054166040519015158152f35b34610233576000366003190112610233576040517f00000000000000000000000000000000000000000000000000000000000000006001600160a01b03168152602090f35b346102335760203660031901126102335760206102d76103d0565b6040517f00000000000000000000000000000000000000000000000000000000000000006001600160a01b039081169216919091148152f35b346102335760a0366003190112610233576103296103d0565b60243567ffffffffffffffff811161023357610349903690600401610408565b9060443567ffffffffffffffff81116102335761036a903690600401610408565b60643560ff81168103610233576084359165ffffffffffff831683036102335760209461039694610501565b6040516001600160a01b039091168152f35b346102335760203660031901126102335760206103c66100f76103d0565b6040519015158152f35b600435906001600160a01b038216820361023357565b90601f8019910116810190811067ffffffffffffffff8211176101fb57604052565b81601f820112156102335780359067ffffffffffffffff82116101fb576040519261043d601f8401601f1916602001856103e6565b8284526020838301011161023357816000926020809301838601378301015290565b60005b8381106104725750506000910152565b8181015183820152602001610462565b9060209161049b8151809281855285808601910161045f565b601f01601f1916010190565b94909360ff6104dd65ffffffffffff946104cf60a0989b9a979b60c08b5260c08b0190610482565b9089820360208b0152610482565b981660408701526000196001861b0190811660608701529116608085015216910152565b9360206105a7936105b793959661058061051c89848a6105fd565b98610572612d739960405197610534888d018a6103e6565b8b89528789019b6106c98d39604051958694898601987f0000000000000000000000000000000000000000000000000000000000000000948a6104a7565b03601f1981018352826103e6565b604051958694610598858701998a925192839161045f565b8501915180938584019061045f565b010103601f1981018352826103e6565b5190209060405191602083019160ff60f81b83523060601b602185015260358401526055830152605582526105ed6075836103e6565b905190206001600160a01b031690565b9160016020926106539260405194859281610621818601998a81519384920161045f565b84016106358251809385808501910161045f565b01019060ff60f81b9060f81b16815203601e198101845201826103e6565b51902090565b337f00000000000000000000000000000000000000000000000000000000000000006001600160a01b031614806106bd575b156106b95760131936013681116106a3573560601c90565b634e487b7160e01b600052601160045260246000fd5b3390565b50601436101561068b56fe6101c0806040523461056f57612d73803803809161001d8285610574565b833981019060c08183031261056f5780516001600160401b03811161056f57826100489183016105ba565b602082015190926001600160401b03821161056f576100689183016105ba565b9160408201519160ff831680840361056f576100866060830161060e565b92608083015165ffffffffffff81169384820361056f5760a06100a9910161060e565b916040978851916100ba8a84610574565b60018352603160f81b6020840190815281519092906001600160401b03811161047957600354600181811c91168015610565575b602082101461045957601f8111610500575b50806020601f821160011461049a5760009161048f575b508160011b916000199060031b1c1916176003555b8051906001600160401b0382116104795760045490600182811c9216801561046f575b60208310146104595781601f8493116103e9575b50602090601f831160011461038157600092610376575b50508160011b916000199060031b1c1916176004555b60ff19600554166005556101a3816108b0565b610120526101b083610a41565b6101405260208151910120918260e05251902080610100524660a05288519060208201927f8b73c3c69bb8fe3d512ecc4cf759cc79239f7b179b0ffacaa9a75d522b39400f84528a83015260608201524660808201523060a082015260a0815261021b60c082610574565b5190206080523060c0526101605261018052601281116103625750156103515761028b916101a05242600e5560018060a01b03811680600052600a60205260ff8460002054161561030e575b5061027181610622565b5061027b816106b2565b506102858161075c565b50610806565b50516120fd9081610bd6823960805181611c69015260a05181611d26015260c05181611c33015260e05181611cb801526101005181611cde015261012051816106e901526101405181610713015261016051818181610a120152610de201526101805181818161088801528181610c6f0152611ece01526101a05181610f910152f35b80600052600a60205283600020600160ff198254161790557fd468949f4e5b5d8546cbaea47570a19d5f7cf568a5625a782526c7b634b3813c600080a238610267565b63217ffe5b60e21b60005260046000fd5b63ca95039160e01b60005260045260246000fd5b01519050388061017a565b600460009081528281209350601f198516905b8181106103d157509084600195949392106103b8575b505050811b01600455610190565b015160001960f88460031b161c191690553880806103aa565b92936020600181928786015181550195019301610394565b60046000529091507f8a35acfbc15ff81a39ae7d344fd709f28e8600b4aa8c65c6b64bfe7fe36bd19b601f840160051c8101916020851061044f575b90601f859493920160051c01905b8181106104405750610163565b60008155849350600101610433565b9091508190610425565b634e487b7160e01b600052602260045260246000fd5b91607f169161014f565b634e487b7160e01b600052604160045260246000fd5b905083015138610117565b600360009081528181209250601f198416905b8181106104e8575090836001949392106104cf575b5050811b0160035561012c565b85015160001960f88460031b161c1916905538806104c2565b9192602060018192868a0151815501940192016104ad565b60036000527fc2575a0e9e593c00f959f8c92f12db2869c3395a3b0502d05e2516446f71f85b601f830160051c8101916020841061055b575b601f0160051c01905b81811061054f5750610100565b60008155600101610542565b9091508190610539565b90607f16906100ee565b600080fd5b601f909101601f19168101906001600160401b0382119082101761047957604052565b60005b8381106105aa5750506000910152565b818101518382015260200161059a565b81601f8201121561056f5780516001600160401b03811161047957604051926105ed601f8301601f191660200185610574565b8184526020828401011161056f5761060b9160208085019101610597565b90565b51906001600160a01b038216820361056f57565b6001600160a01b0381166000908152600080516020612d53833981519152602052604090205460ff166106ac576001600160a01b038181166000908152600080516020612d5383398151915260205260409020805460ff19166001179055610688610b83565b16906001600160a01b03166000600080516020612cd38339815191528180a4600190565b50600090565b6001600160a01b0381166000908152600080516020612cf3833981519152602052604090205460ff166106ac576001600160a01b038181166000908152600080516020612cf383398151915260205260409020805460ff19166001179055610718610b83565b16906001600160a01b03167f47b7a6ef32f924153c4c0c2f871f8856bd114b4903c167827ef0f0694c583e27600080516020612cd3833981519152600080a4600190565b6001600160a01b0381166000908152600080516020612d13833981519152602052604090205460ff166106ac576001600160a01b038181166000908152600080516020612d1383398151915260205260409020805460ff191660011790556107c2610b83565b16906001600160a01b03167f4f218fa1cf3180113024eb1bbca508696a5a0f0ecafaeea4da87c53e5d465892600080516020612cd3833981519152600080a4600190565b6001600160a01b0381166000908152600080516020612d33833981519152602052604090205460ff166106ac576001600160a01b038181166000908152600080516020612d3383398151915260205260409020805460ff1916600117905561086c610b83565b16906001600160a01b03167f59a1c48e5837ad7a7f3dcedcbe129bf3249ec4fbf651fd4f5e2600ead39fe2f5600080516020612cd3833981519152600080a4600190565b9081516020811060001461092b575090601f8151116108ec5760208151910151602082106108dc571790565b6000198260200360031b1b161790565b6044604051809263305a27a960e01b82526020600483015261091d8151809281602486015260208686019101610597565b601f01601f19168101030190fd5b6001600160401b03811161047957600754600181811c91168015610a37575b602082101461045957601f8111610a01575b50602092601f821160011461099c5792819293600092610991575b50508160011b916000199060031b1c19161760075560ff90565b015190503880610977565b601f198216936007600052806000209160005b8681106109e957508360019596106109d0575b505050811b0160075560ff90565b015160001960f88460031b161c191690553880806109c2565b919260206001819286850151815501940192016109af565b6007600052601f6020600020910160051c810190601f830160051c015b818110610a2b575061095c565b60008155600101610a1e565b90607f169061094a565b90815160208110600014610a6d575090601f8151116108ec5760208151910151602082106108dc571790565b6001600160401b03811161047957600854600181811c91168015610b79575b602082101461045957601f8111610b43575b50602092601f8211600114610ade5792819293600092610ad3575b50508160011b916000199060031b1c19161760085560ff90565b015190503880610ab9565b601f198216936008600052806000209160005b868110610b2b5750836001959610610b12575b505050811b0160085560ff90565b015160001960f88460031b161c19169055388080610b04565b91926020600181928685015181550194019201610af1565b6008600052601f6020600020910160051c810190601f830160051c015b818110610b6d5750610a9e565b60008155600101610b60565b90607f1690610a8c565b610180516001600160a01b0316331480610bca575b15610bc6576013193601368111610bb0573560601c90565b634e487b7160e01b600052601160045260246000fd5b3390565b506014361015610b9856fe6080604052600436101561001257600080fd5b6000803560e01c806301e33667146112fe57806301ffc9a7146112a357806306fdde03146111d4578063095ea7b3146111a65780630c7c8e891461116b5780630cfbfcde1461114b57806318160ddd1461112d57806323b872dd1461110e578063248a9ca3146110e057806324bce60c14610ff65780632f2ff15d14610fb5578063313ce56714610f775780633644e51514610f5c57806336568abe14610f075780633f4ba83a14610ea157806340c10f1914610d1357806342966c6814610cf35780634bf5d7e914610ca3578063572b6c0514610c4e57806358591fb714610bc05780635c975abb14610b9d5780636721de2614610a365780636ad0690a146109f35780636e1d616e146109b857806370a0823114610980578063771c456f146108ef57806379cc6790146108b75780637da0a877146108725780637ecebe00146108395780638456cb59146107cc57806384b0196e146106cf57806391d148541461068357806391ddadf41461066057806395d89b411461057b5780639933de0f14610540578063a0821be314610514578063a217fddf146104f8578063a9059cbb146104bf578063d051665014610486578063d505accf14610337578063d547741f146102ed578063d63a8e11146102ae578063d8dfeb4514610281578063dd62ed3e1461022c5763f892178f1461020c57600080fd5b346102295780600319360112610229576020600e54604051908152f35b80fd5b503461022957604036600319011261022957604061024861131e565b91610251611339565b9260018060a01b031681526001602052209060018060a01b03166000526020526020604060002054604051908152f35b50346102295780600319360112610229576040600c5465ffffffffffff600d541682519182526020820152f35b50346102295760203660031901126102295760209060ff906040906001600160a01b036102d961131e565b168152600a84522054166040519015158152f35b50346102295760403660031901126102295761033360043561030d611339565b9061032e61032982600052600660205260016040600020015490565b611870565b611d4c565b5080f35b50346102295760e03660031901126102295761035161131e565b9061035a611339565b604435906064359360843560ff811681036104825785421161046e5761042e6104379160018060a01b03841697888852600960205260408820908154916001830190556040519060208201927f6e71edae12b1b97f4d1f60370fef10105fa2faae0126114a169c64845d6126c984528b604084015260018060a01b038916606084015289608084015260a083015260c082015260c081526103fc60e0826113ca565b519020610407611c30565b906040519161190160f01b83526002830152602282015260c43591604260a4359220611fdf565b90929192612068565b6001600160a01b03169480860361045757506104549394506118c6565b80f35b6325c0072360e11b85526004869052602452604484fd5b63313c898160e11b85526004869052602485fd5b8480fd5b5034610229576020366003190112610229576020906040906001600160a01b036104ae61131e565b168152600b83522054604051908152f35b5034610229576040366003190112610229576104ed6104dc61131e565b602435906104e8611ecb565b611987565b602060405160018152f35b5034610229578060031936011261022957602090604051908152f35b503461022957602036600319011261022957602061053861053361131e565b6116b6565b604051908152f35b503461022957806003193601126102295760206040517f47b7a6ef32f924153c4c0c2f871f8856bd114b4903c167827ef0f0694c583e278152f35b5034610229578060031936011261022957604051600060045461059d81611553565b808452906001811690811561063c57506001146105dd575b6105d9836105c5818503826113ca565b604051918291602083526020830190611389565b0390f35b600460009081527f8a35acfbc15ff81a39ae7d344fd709f28e8600b4aa8c65c6b64bfe7fe36bd19b939250905b808210610622575090915081016020016105c56105b5565b91926001816020925483858801015201910190929161060a565b60ff191660208086019190915291151560051b840190910191506105c590506105b5565b5034610229578060031936011261022957602060405165ffffffffffff42168152f35b503461022957604036600319011261022957604061069f611339565b9160043581526006602052209060018060a01b0316600052602052602060ff604060002054166040519015158152f35b50346102295780600319360112610229576107709061070d7f0000000000000000000000000000000000000000000000000000000000000000611f41565b906107377f0000000000000000000000000000000000000000000000000000000000000000611fa8565b90602061077e6040519361074b83866113ca565b8385526000368137604051968796600f60f81b885260e08589015260e0880190611389565b908682036040880152611389565b904660608601523060808601528260a086015284820360c08601528080855193848152019401925b8281106107b557505050500390f35b8351855286955093810193928101926001016107a6565b50346102295780600319360112610229576107e56116e4565b6107ed611f24565b600160ff1960055416176005557f62e78cea01bee320cd4e420270b5ea74000d11b0c9f74754ebdbfc544b05a2586020610825611ecb565b6040516001600160a01b039091168152a180f35b5034610229576020366003190112610229576020906040906001600160a01b0361086161131e565b168152600983522054604051908152f35b50346102295780600319360112610229576040517f00000000000000000000000000000000000000000000000000000000000000006001600160a01b03168152602090f35b5034610229576040366003190112610229576104546108d461131e565b602435906108ea826108e4611ecb565b83611abd565b611de0565b50346102295760203660031901126102295760209061090c61131e565b6109146117e0565b6001600160a01b0316808252600a8352604082205460ff1615918261093f575b505060405190158152f35b818152600a845260408120805460ff191660011790557fd468949f4e5b5d8546cbaea47570a19d5f7cf568a5625a782526c7b634b3813c9080a23880610934565b5034610229576020366003190112610229576020906040906001600160a01b036109a861131e565b1681528083522054604051908152f35b503461022957806003193601126102295760206040517f59a1c48e5837ad7a7f3dcedcbe129bf3249ec4fbf651fd4f5e2600ead39fe2f58152f35b5034610229578060031936011261022957602060405165ffffffffffff7f0000000000000000000000000000000000000000000000000000000000000000168152f35b503461022957602036600319011261022957600435610a53611ecb565b6001600160a01b03811660009081527f242ea55e8d2c4ef0e59404c6dcfea3779f40e53603acb1ace99e5296fe40e3de602052604090205460ff1615610b5857506002548110610b4957600c5465ffffffffffff421660405191604083019183831067ffffffffffffffff841117610b33578060207fa2d1a1c1928bce33b4e189c2b01e304d30120dc60007771c4f4285e3db6f032495606095604052878152015284600c5565ffffffffffff19600d541617600d5542600e5560018060a01b03610b1c611ecb565b16936040519182526020820152426040820152a280f35b634e487b7160e01b600052604160045260246000fd5b633a23d82560e01b8252600482fd5b63e2517d3f60e01b60009081526001600160a01b03919091166004527f59a1c48e5837ad7a7f3dcedcbe129bf3249ec4fbf651fd4f5e2600ead39fe2f5602452604490fd5b5034610229578060031936011261022957602060ff600554166040519015158152f35b503461022957602036600319011261022957602090610bdd61131e565b610be56117e0565b6001600160a01b0316808252600a8352604082205460ff169182610c10575b50506040519015158152f35b818152600a845260408120805460ff191690557f33d0d89e288cea062f5110ae3a0bf917635890adcbe49fe4d7a9ac29e144961c9080a23880610c04565b5034610229576020366003190112610229576020610c6a61131e565b6040517f00000000000000000000000000000000000000000000000000000000000000006001600160a01b039081169216919091148152f35b50346102295780600319360112610229576105d96040805190610cc681836113ca565b600e82526d06d6f64653d74696d657374616d760941b602083015251918291602083526020830190611389565b5034610229576020366003190112610229576104546004356108ea611ecb565b503461022957604036600319011261022957610d2d61131e565b9060243591610d3a611750565b600c54610d4984600254611693565b11610b49576001600160a01b0316908115610e8d5750600091818352600a60205260ff60408420541615610e79577fddf252ad1be2c89b69c2b068fc378daa952ba7f163c4a11628f55a4df523b3ef60208492610da4611f24565b610db081600254611693565b60025584845283825260408420818154019055604051908152a3600c549065ffffffffffff600d541665ffffffffffff7f000000000000000000000000000000000000000000000000000000000000000016810165ffffffffffff8111610e655765ffffffffffff169065ffffffffffff42168210610e4f57505060025491808311610e3a575080f35b604492631538af8160e21b8352600452602452fd5b63724c9be360e01b835260045260245260449150fd5b634e487b7160e01b83526011600452602483fd5b631a59ff3360e01b83526004829052602483fd5b63ec442f0560e01b81526004819052602490fd5b5034610229578060031936011261022957610eba6116e4565b60055460ff811615610ef85760ff19166005557f5db9ee0a495bf2e6ff9c91a7834c1ba4fdd244a5e8aa4e537bd38aeae4b073aa6020610825611ecb565b638dfc202b60e01b8252600482fd5b503461022957604036600319011261022957610f21611339565b6001600160a01b03610f31611ecb565b166001600160a01b03821603610f4d5761033390600435611d4c565b63334bd91960e11b8252600482fd5b50346102295780600319360112610229576020610538611c30565b5034610229578060031936011261022957602060405160ff7f0000000000000000000000000000000000000000000000000000000000000000168152f35b503461022957604036600319011261022957610333600435610fd5611339565b90610ff161032982600052600660205260016040600020015490565b611b93565b50346102295760403660031901126102295761101061131e565b6024359061101c611ecb565b7f4f218fa1cf3180113024eb1bbca508696a5a0f0ecafaeea4da87c53e5d46589284526006602052604084209060018060a01b0316845260205260ff604084205416156110d1578161106d826116b6565b106110b65760207fa065e63c631c86f1b9f66a4a2f63f2093bf1c2168d23290259dbd969e0222a459160018060a01b031692838552600b8252806040862055604051908152a280f35b6314884b4960e01b83526001600160a01b0316600452602482fd5b63bb4be5f360e01b8352600483fd5b5034610229576020366003190112610229576020610538600435600052600660205260016040600020015490565b5034610229576104ed6111203661134f565b916104e8836108e4611ecb565b50346102295780600319360112610229576020600254604051908152f35b50346102295761045461115d3661134f565b91611166611750565b611610565b503461022957806003193601126102295760206040517f4f218fa1cf3180113024eb1bbca508696a5a0f0ecafaeea4da87c53e5d4658928152f35b5034610229576040366003190112610229576104ed6111c361131e565b602435906111cf611ecb565b6118c6565b50346102295780600319360112610229576040519080600354906111f782611553565b808552916001811690811561127c575060011461121f575b6105d9846105c5818603826113ca565b600381527fc2575a0e9e593c00f959f8c92f12db2869c3395a3b0502d05e2516446f71f85b939250905b808210611262575090915081016020016105c58261120f565b919260018160209254838588010152019101909291611249565b60ff191660208087019190915292151560051b850190920192506105c5915083905061120f565b50346102295760203660031901126102295760043563ffffffff60e01b81168091036112fa57602090637965db0b60e01b81149081156112e9575b506040519015158152f35b6301ffc9a760e01b149050826112de565b5080fd5b5034610229576104546113103661134f565b916113196116e4565b6113ec565b600435906001600160a01b038216820361133457565b600080fd5b602435906001600160a01b038216820361133457565b6060906003190112611334576004356001600160a01b038116810361133457906024356001600160a01b0381168103611334579060443590565b919082519283825260005b8481106113b5575050826000602080949584010152601f8019910116010190565b80602080928401015182828601015201611394565b90601f8019910116810190811067ffffffffffffffff821117610b3357604052565b6001600160a01b0316908115611542576001600160a01b031690811561154257821561153d576040516370a0823160e01b8152306004820152602081602481855afa80156114eb578491600091611508575b50106114f757602060006040518281019063a9059cbb60e01b8252856024820152866044820152604481526114746064826113ca565b519082855af1156114eb576000513d6114e25750803b155b6114ce577f2017ff49f5dedb0169265520a1792549adf2bd026c9740cd9a8dc5f3f08252a860206001600160a01b036114c3611ecb565b1694604051908152a4565b635274afe760e01b60005260045260246000fd5b6001141561148c565b6040513d6000823e3d90fd5b637222ae5760e11b60005260046000fd5b9150506020813d602011611535575b81611524602093836113ca565b81010312611334578390513861143e565b3d9150611517565b505050565b630f58058360e11b60005260046000fd5b90600182811c92168015611583575b602083101461156d57565b634e487b7160e01b600052602260045260246000fd5b91607f1691611562565b6000929181549161159d83611553565b80835292600181169081156115f357506001146115b957505050565b60009081526020812093945091925b8383106115d9575060209250010190565b6001816020929493945483858701015201910191906115c8565b915050602093945060ff929192191683830152151560051b010190565b906001600160a01b038216908115611542576001600160a01b03811692831561154257841561168c5782600052600060205284604060002054106114f757611659918591611987565b7ff92c2203b7c3705a966df3ac08c40e3abcec988c5db987d1ad144cb13a2e828d60206001600160a01b036114c3611ecb565b5050505050565b919082018092116116a057565b634e487b7160e01b600052601160045260246000fd5b6001600160a01b031660009081526020818152604080832054600b9092529091205481039081116116a05790565b6116ec611ecb565b6001600160a01b03811660009081527f54cdd369e4e8a8515e52ca72ec816c2101831ad1f18bf44102ed171459c9b4f8602052604090205460ff161561172f5750565b63e2517d3f60e01b60005260018060a01b0316600452600060245260446000fd5b611758611ecb565b6001600160a01b03811660009081527f47126590d8f3924481f49abd583f0b1fb5dbeb4aa81a45c542a2e8abe057ecf6602052604090205460ff161561179b5750565b63e2517d3f60e01b60009081526001600160a01b03919091166004527f47b7a6ef32f924153c4c0c2f871f8856bd114b4903c167827ef0f0694c583e27602452604490fd5b6117e8611ecb565b6001600160a01b03811660009081527f8cece44ced69f38a17557f06a48d6e1a43d11406d45518d659faeeafd37a717d602052604090205460ff161561182b5750565b63e2517d3f60e01b60009081526001600160a01b03919091166004527f4f218fa1cf3180113024eb1bbca508696a5a0f0ecafaeea4da87c53e5d465892602452604490fd5b611878611ecb565b816000526006602052604060002060018060a01b03821660005260205260ff60406000205416156118a7575050565b63e2517d3f60e01b60005260018060a01b031660045260245260446000fd5b6001600160a01b03166000818152600a602052604090205490919060ff161561197257811561195c576001600160a01b03169182156119465760207f8c5be1e5ebec7d5bd14f71427d1e84f3dd0314c0f7b2291e5b200ac8c7c3b925918360005260018252604060002085600052825280604060002055604051908152a3565b634a1406b160e11b600052600060045260246000fd5b63e602df0560e01b600052600060045260246000fd5b50631a59ff3360e01b60005260045260246000fd5b916001600160a01b038316918215611aa7576001600160a01b0316928315611a91576119b382916116b6565b10611a7c5781600052600a60205260ff60406000205416156119725782600052600a60205260ff6040600020541615611a67576119ee611f24565b6000828152806020526040812054828110611a4d5791604082827fddf252ad1be2c89b69c2b068fc378daa952ba7f163c4a11628f55a4df523b3ef958760209652828652038282205586815280845220818154019055604051908152a3565b916064928463391434e360e21b8452600452602452604452fd5b82631a59ff3360e01b60005260045260246000fd5b506314884b4960e01b60005260045260246000fd5b63ec442f0560e01b600052600060045260246000fd5b634b637e8f60e11b600052600060045260246000fd5b6001600160a01b039081166000818152600160209081526040808320948616835293905291909120549291906000198410611af9575b50505050565b828410611b6e5780600052600a60205260ff6040600020541615611b5a57801561195c576001600160a01b0382161561194657600052600160205260406000209060018060a01b031660005260205260406000209103905538808080611af3565b631a59ff3360e01b60005260045260246000fd5b508290637dc7a0d960e11b60005260018060a01b031660045260245260445260646000fd5b60008181526006602090815260408083206001600160a01b038616845290915290205460ff16611c295760008181526006602090815260408083206001600160a01b0386811685529252909120805460ff19166001179055611bf3611ecb565b16916001600160a01b0316907f2f8788117e7eff1d82e926ec794901d17c78024a50270940304540a733656f0d600080a4600190565b5050600090565b307f00000000000000000000000000000000000000000000000000000000000000006001600160a01b03161480611d23575b15611c8b577f000000000000000000000000000000000000000000000000000000000000000090565b60405160208101907f8b73c3c69bb8fe3d512ecc4cf759cc79239f7b179b0ffacaa9a75d522b39400f82527f000000000000000000000000000000000000000000000000000000000000000060408201527f000000000000000000000000000000000000000000000000000000000000000060608201524660808201523060a082015260a08152611d1d60c0826113ca565b51902090565b507f00000000000000000000000000000000000000000000000000000000000000004614611c62565b60008181526006602090815260408083206001600160a01b038616845290915290205460ff1615611c295760008181526006602090815260408083206001600160a01b0386811685529252909120805460ff19169055611daa611ecb565b16916001600160a01b0316907ff6391f5c32d9c69d2a47ea670b442974b53935d1edc7fd64eb21e047a839171b600080a4600190565b6001600160a01b038116906000908215611eb757611dfe84916116b6565b10611ea557818152600a60205260ff60408220541615611e935750611e21611f24565b600091818352826020526040832054818110611e7a57817fddf252ad1be2c89b69c2b068fc378daa952ba7f163c4a11628f55a4df523b3ef926020928587528684520360408620558060025403600255604051908152a3565b6064939263391434e360e21b8452600452602452604452fd5b602491631a59ff3360e01b8252600452fd5b6024916314884b4960e01b8252600452fd5b634b637e8f60e11b82526004829052602482fd5b337f00000000000000000000000000000000000000000000000000000000000000006001600160a01b03161480611f19575b15611f155760131936013681116116a0573560601c90565b3390565b506014361015611efd565b60ff60055416611f3057565b63d93c066560e01b60005260046000fd5b60ff8114611f8b5760ff811690601f8211611f7a576040805192611f6582856113ca565b6020808552840191601f190136833783525290565b632cd44ac360e21b60005260046000fd5b50604051611fa581611f9e81600761158d565b03826113ca565b90565b60ff8114611fcc5760ff811690601f8211611f7a576040805192611f6582856113ca565b50604051611fa581611f9e81600861158d565b91907f7fffffffffffffffffffffffffffffff5d576e7357a4501ddfe92f46681b20a0841161205c579160209360809260ff60009560405194855216868401526040830152606082015282805260015afa156114eb576000516001600160a01b038116156120505790600090600090565b50600090600190600090565b50505060009160039190565b91909160048110156120da578061207e57509050565b6000600182036120995763f645eedf60e01b60005260046000fd5b50600281036120b7578263fce698f760e01b60005260045260246000fd5b90916003600092146120c7575050565b6335e2f38360e21b825260045260249150fd5b634e487b7160e01b600052602160045260246000fdfea164736f6c634300081c000a2f8788117e7eff1d82e926ec794901d17c78024a50270940304540a733656f0d47126590d8f3924481f49abd583f0b1fb5dbeb4aa81a45c542a2e8abe057ecf68cece44ced69f38a17557f06a48d6e1a43d11406d45518d659faeeafd37a717d242ea55e8d2c4ef0e59404c6dcfea3779f40e53603acb1ace99e5296fe40e3de54cdd369e4e8a8515e52ca72ec816c2101831ad1f18bf44102ed171459c9b4f8a164736f6c634300081c000a",
    "linkReferences": {}
  },
  "methodIdentifiers": {
    "create(string,string,uint8,uint48)": "d74f6b52",
    "isAddressDeployed(address)": "4e7f6dea",
    "isFactoryToken(address)": "a4b7914e",
    "isTrustedForwarder(address)": "572b6c05",
    "predictAddress(address,string,string,uint8,uint48)": "50486265",
    "trustedForwarder()": "7da0a877"
  },
  "id": 6
}