{"abi":[{"type":"constructor","inputs":[{"name":"registry","type":"address","internalType":"contract ISchemaRegistry"},{"name":"forwarder","type":"address","internalType":"address"}],"stateMutability":"nonpayable"},{"type":"function","name":"attest","inputs":[{"name":"request","type":"tuple","internalType":"struct AttestationRequest","components":[{"name":"schema","type":"bytes32","internalType":"bytes32"},{"name":"data","type":"tuple","internalType":"struct AttestationRequestData","components":[{"name":"recipient","type":"address","internalType":"address"},{"name":"expirationTime","type":"uint64","internalType":"uint64"},{"name":"revocable","type":"bool","internalType":"bool"},{"name":"refUID","type":"bytes32","internalType":"bytes32"},{"name":"data","type":"bytes","internalType":"bytes"},{"name":"value","type":"uint256","internalType":"uint256"}]}]}],"outputs":[{"name":"","type":"bytes32","internalType":"bytes32"}],"stateMutability":"payable"},{"type":"function","name":"attestByDelegation","inputs":[{"name":"delegatedRequest","type":"tuple","internalType":"struct DelegatedAttestationRequest","components":[{"name":"schema","type":"bytes32","internalType":"bytes32"},{"name":"data","type":"tuple","internalType":"struct AttestationRequestData","components":[{"name":"recipient","type":"address","internalType":"address"},{"name":"expirationTime","type":"uint64","internalType":"uint64"},{"name":"revocable","type":"bool","internalType":"bool"},{"name":"refUID","type":"bytes32","internalType":"bytes32"},{"name":"data","type":"bytes","internalType":"bytes"},{"name":"value","type":"uint256","internalType":"uint256"}]},{"name":"signature","type":"tuple","internalType":"struct Signature","components":[{"name":"v","type":"uint8","internalType":"uint8"},{"name":"r","type":"bytes32","internalType":"bytes32"},{"name":"s","type":"bytes32","internalType":"bytes32"}]},{"name":"attester","type":"address","internalType":"address"},{"name":"deadline","type":"uint64","internalType":"uint64"}]}],"outputs":[{"name":"","type":"bytes32","internalType":"bytes32"}],"stateMutability":"payable"},{"type":"function","name":"eip712Domain","inputs":[],"outputs":[{"name":"fields","type":"bytes1","internalType":"bytes1"},{"name":"name","type":"string","internalType":"string"},{"name":"version","type":"string","internalType":"string"},{"name":"chainId","type":"uint256","internalType":"uint256"},{"name":"verifyingContract","type":"address","internalType":"address"},{"name":"salt","type":"bytes32","internalType":"bytes32"},{"name":"extensions","type":"uint256[]","internalType":"uint256[]"}],"stateMutability":"view"},{"type":"function","name":"getAttestTypeHash","inputs":[],"outputs":[{"name":"","type":"bytes32","internalType":"bytes32"}],"stateMutability":"pure"},{"type":"function","name":"getAttestation","inputs":[{"name":"uid","type":"bytes32","internalType":"bytes32"}],"outputs":[{"name":"","type":"tuple","internalType":"struct Attestation","components":[{"name":"uid","type":"bytes32","internalType":"bytes32"},{"name":"schema","type":"bytes32","internalType":"bytes32"},{"name":"time","type":"uint64","internalType":"uint64"},{"name":"expirationTime","type":"uint64","internalType":"uint64"},{"name":"revocationTime","type":"uint64","internalType":"uint64"},{"name":"refUID","type":"bytes32","internalType":"bytes32"},{"name":"recipient","type":"address","internalType":"address"},{"name":"attester","type":"address","internalType":"address"},{"name":"revocable","type":"bool","internalType":"bool"},{"name":"data","type":"bytes","internalType":"bytes"}]}],"stateMutability":"view"},{"type":"function","name":"getDomainSeparator","inputs":[],"outputs":[{"name":"","type":"bytes32","internalType":"bytes32"}],"stateMutability":"view"},{"type":"function","name":"getName","inputs":[],"outputs":[{"name":"","type":"string","internalType":"string"}],"stateMutability":"view"},{"type":"function","name":"getNonce","inputs":[{"name":"account","type":"address","internalType":"address"}],"outputs":[{"name":"","type":"uint256","internalType":"uint256"}],"stateMutability":"view"},{"type":"function","name":"getRevokeOffchain","inputs":[{"name":"revoker","type":"address","internalType":"address"},{"name":"data","type":"bytes32","internalType":"bytes32"}],"outputs":[{"name":"","type":"uint64","internalType":"uint64"}],"stateMutability":"view"},{"type":"function","name":"getRevokeTypeHash","inputs":[],"outputs":[{"name":"","type":"bytes32","internalType":"bytes32"}],"stateMutability":"pure"},{"type":"function","name":"getSchemaRegistry","inputs":[],"outputs":[{"name":"","type":"address","internalType":"contract ISchemaRegistry"}],"stateMutability":"view"},{"type":"function","name":"getTimestamp","inputs":[{"name":"data","type":"bytes32","internalType":"bytes32"}],"outputs":[{"name":"","type":"uint64","internalType":"uint64"}],"stateMutability":"view"},{"type":"function","name":"increaseNonce","inputs":[{"name":"newNonce","type":"uint256","internalType":"uint256"}],"outputs":[],"stateMutability":"nonpayable"},{"type":"function","name":"isAttestationValid","inputs":[{"name":"uid","type":"bytes32","internalType":"bytes32"}],"outputs":[{"name":"","type":"bool","internalType":"bool"}],"stateMutability":"view"},{"type":"function","name":"isTrustedForwarder","inputs":[{"name":"forwarder","type":"address","internalType":"address"}],"outputs":[{"name":"","type":"bool","internalType":"bool"}],"stateMutability":"view"},{"type":"function","name":"multiAttest","inputs":[{"name":"multiRequests","type":"tuple[]","internalType":"struct MultiAttestationRequest[]","components":[{"name":"schema","type":"bytes32","internalType":"bytes32"},{"name":"data","type":"tuple[]","internalType":"struct AttestationRequestData[]","components":[{"name":"recipient","type":"address","internalType":"address"},{"name":"expirationTime","type":"uint64","internalType":"uint64"},{"name":"revocable","type":"bool","internalType":"bool"},{"name":"refUID","type":"bytes32","internalType":"bytes32"},{"name":"data","type":"bytes","internalType":"bytes"},{"name":"value","type":"uint256","internalType":"uint256"}]}]}],"outputs":[{"name":"","type":"bytes32[]","internalType":"bytes32[]"}],"stateMutability":"payable"},{"type":"function","name":"multiAttestByDelegation","inputs":[{"name":"multiDelegatedRequests","type":"tuple[]","internalType":"struct MultiDelegatedAttestationRequest[]","components":[{"name":"schema","type":"bytes32","internalType":"bytes32"},{"name":"data","type":"tuple[]","internalType":"struct AttestationRequestData[]","components":[{"name":"recipient","type":"address","internalType":"address"},{"name":"expirationTime","type":"uint64","internalType":"uint64"},{"name":"revocable","type":"bool","internalType":"bool"},{"name":"refUID","type":"bytes32","internalType":"bytes32"},{"name":"data","type":"bytes","internalType":"bytes"},{"name":"value","type":"uint256","internalType":"uint256"}]},{"name":"signatures","type":"tuple[]","internalType":"struct Signature[]","components":[{"name":"v","type":"uint8","internalType":"uint8"},{"name":"r","type":"bytes32","internalType":"bytes32"},{"name":"s","type":"bytes32","internalType":"bytes32"}]},{"name":"attester","type":"address","internalType":"address"},{"name":"deadline","type":"uint64","internalType":"uint64"}]}],"outputs":[{"name":"","type":"bytes32[]","internalType":"bytes32[]"}],"stateMutability":"payable"},{"type":"function","name":"multiRevoke","inputs":[{"name":"multiRequests","type":"tuple[]","internalType":"struct MultiRevocationRequest[]","components":[{"name":"schema","type":"bytes32","internalType":"bytes32"},{"name":"data","type":"tuple[]","internalType":"struct RevocationRequestData[]","components":[{"name":"uid","type":"bytes32","internalType":"bytes32"},{"name":"value","type":"uint256","internalType":"uint256"}]}]}],"outputs":[],"stateMutability":"payable"},{"type":"function","name":"multiRevokeByDelegation","inputs":[{"name":"multiDelegatedRequests","type":"tuple[]","internalType":"struct MultiDelegatedRevocationRequest[]","components":[{"name":"schema","type":"bytes32","internalType":"bytes32"},{"name":"data","type":"tuple[]","internalType":"struct RevocationRequestData[]","components":[{"name":"uid","type":"bytes32","internalType":"bytes32"},{"name":"value","type":"uint256","internalType":"uint256"}]},{"name":"signatures","type":"tuple[]","internalType":"struct Signature[]","components":[{"name":"v","type":"uint8","internalType":"uint8"},{"name":"r","type":"bytes32","internalType":"bytes32"},{"name":"s","type":"bytes32","internalType":"bytes32"}]},{"name":"revoker","type":"address","internalType":"address"},{"name":"deadline","type":"uint64","internalType":"uint64"}]}],"outputs":[],"stateMutability":"payable"},{"type":"function","name":"multiRevokeOffchain","inputs":[{"name":"data","type":"bytes32[]","internalType":"bytes32[]"}],"outputs":[{"name":"","type":"uint64","internalType":"uint64"}],"stateMutability":"nonpayable"},{"type":"function","name":"multiTimestamp","inputs":[{"name":"data","type":"bytes32[]","internalType":"bytes32[]"}],"outputs":[{"name":"","type":"uint64","internalType":"uint64"}],"stateMutability":"nonpayable"},{"type":"function","name":"revoke","inputs":[{"name":"request","type":"tuple","internalType":"struct RevocationRequest","components":[{"name":"schema","type":"bytes32","internalType":"bytes32"},{"name":"data","type":"tuple","internalType":"struct RevocationRequestData","components":[{"name":"uid","type":"bytes32","internalType":"bytes32"},{"name":"value","type":"uint256","internalType":"uint256"}]}]}],"outputs":[],"stateMutability":"payable"},{"type":"function","name":"revokeByDelegation","inputs":[{"name":"delegatedRequest","type":"tuple","internalType":"struct DelegatedRevocationRequest","components":[{"name":"schema","type":"bytes32","internalType":"bytes32"},{"name":"data","type":"tuple","internalType":"struct RevocationRequestData","components":[{"name":"uid","type":"bytes32","internalType":"bytes32"},{"name":"value","type":"uint256","internalType":"uint256"}]},{"name":"signature","type":"tuple","internalType":"struct Signature","components":[{"name":"v","type":"uint8","internalType":"uint8"},{"name":"r","type":"bytes32","internalType":"bytes32"},{"name":"s","type":"bytes32","internalType":"bytes32"}]},{"name":"revoker","type":"address","internalType":"address"},{"name":"deadline","type":"uint64","internalType":"uint64"}]}],"outputs":[],"stateMutability":"payable"},{"type":"function","name":"revokeOffchain","inputs":[{"name":"data","type":"bytes32","internalType":"bytes32"}],"outputs":[{"name":"","type":"uint64","internalType":"uint64"}],"stateMutability":"nonpayable"},{"type":"function","name":"timestamp","inputs":[{"name":"data","type":"bytes32","internalType":"bytes32"}],"outputs":[{"name":"","type":"uint64","internalType":"uint64"}],"stateMutability":"nonpayable"},{"type":"function","name":"trustedForwarder","inputs":[],"outputs":[{"name":"","type":"address","internalType":"address"}],"stateMutability":"view"},{"type":"function","name":"version","inputs":[],"outputs":[{"name":"","type":"string","internalType":"string"}],"stateMutability":"view"},{"type":"event","name":"Attested","inputs":[{"name":"recipient","type":"address","indexed":true,"internalType":"address"},{"name":"attester","type":"address","indexed":true,"internalType":"address"},{"name":"uid","type":"bytes32","indexed":false,"internalType":"bytes32"},{"name":"schemaUID","type":"bytes32","indexed":true,"internalType":"bytes32"}],"anonymous":false},{"type":"event","name":"EIP712DomainChanged","inputs":[],"anonymous":false},{"type":"event","name":"NonceIncreased","inputs":[{"name":"oldNonce","type":"uint256","indexed":false,"internalType":"uint256"},{"name":"newNonce","type":"uint256","indexed":false,"internalType":"uint256"}],"anonymous":false},{"type":"event","name":"Revoked","inputs":[{"name":"recipient","type":"address","indexed":true,"internalType":"address"},{"name":"attester","type":"address","indexed":true,"internalType":"address"},{"name":"uid","type":"bytes32","indexed":false,"internalType":"bytes32"},{"name":"schemaUID","type":"bytes32","indexed":true,"internalType":"bytes32"}],"anonymous":false},{"type":"event","name":"RevokedOffchain","inputs":[{"name":"revoker","type":"address","indexed":true,"internalType":"address"},{"name":"data","type":"bytes32","indexed":true,"internalType":"bytes32"},{"name":"timestamp","type":"uint64","indexed":true,"internalType":"uint64"}],"anonymous":false},{"type":"event","name":"Timestamped","inputs":[{"name":"data","type":"bytes32","indexed":true,"internalType":"bytes32"},{"name":"timestamp","type":"uint64","indexed":true,"internalType":"uint64"}],"anonymous":false},{"type":"error","name":"AccessDenied","inputs":[]},{"type":"error","name":"AlreadyRevoked","inputs":[]},{"type":"error","name":"AlreadyRevokedOffchain","inputs":[]},{"type":"error","name":"AlreadyTimestamped","inputs":[]},{"type":"error","name":"DeadlineExpired","inputs":[]},{"type":"error","name":"FailedCall","inputs":[]},{"type":"error","name":"InsufficientBalance","inputs":[{"name":"balance","type":"uint256","internalType":"uint256"},{"name":"needed","type":"uint256","internalType":"uint256"}]},{"type":"error","name":"InsufficientValue","inputs":[]},{"type":"error","name":"InvalidAttestation","inputs":[]},{"type":"error","name":"InvalidAttestations","inputs":[]},{"type":"error","name":"InvalidExpirationTime","inputs":[]},{"type":"error","name":"InvalidLength","inputs":[]},{"type":"error","name":"InvalidNonce","inputs":[]},{"type":"error","name":"InvalidOffset","inputs":[]},{"type":"error","name":"InvalidRegistry","inputs":[]},{"type":"error","name":"InvalidRevocation","inputs":[]},{"type":"error","name":"InvalidRevocations","inputs":[]},{"type":"error","name":"InvalidSchema","inputs":[]},{"type":"error","name":"InvalidShortString","inputs":[]},{"type":"error","name":"InvalidSignature","inputs":[]},{"type":"error","name":"InvalidVerifier","inputs":[]},{"type":"error","name":"Irrevocable","inputs":[]},{"type":"error","name":"NotFound","inputs":[]},{"type":"error","name":"NotPayable","inputs":[]},{"type":"error","name":"StringTooLong","inputs":[{"name":"str","type":"string","internalType":"string"}]},{"type":"error","name":"WrongSchema","inputs":[]}],"bytecode":{"object":"0x6102008060405234610370576040816146f880380380916100208285610375565b8339810103126103705780516001600160a01b038116918282036103705760200151906001600160a01b03821682036103705760405192610062604085610375565b60038452602084016245415360e81b815260405190610082604083610375565b600582526020820190640312e342e360dc1b82526001608052600460a052600060c0526100ae87610398565b610180526100bb83610544565b6101a05286519020918261014052519020806101605246610100526040519060208201927f8b73c3c69bb8fe3d512ecc4cf759cc79239f7b179b0ffacaa9a75d522b39400f8452604083015260608201524660808201523060a082015260a0815261012760c082610375565b51902060e052306101205283516001600160401b03811161035a57600254600181811c91168015610350575b602082101461033a57601f81116102d5575b50602094601f821160011461026e57948192939495600092610263575b50508160011b916000199060031b1c1916176002555b15610252576101c0526101e05260405161401590816106e3823960805181610ea2015260a05181610ed0015260c05181610efb015260e051816135f7015261010051816136b4015261012051816135c1015261014051816136460152610160518161366c01526101805181610cb801526101a05181610ce401526101c0518181816101ee015281816107a5015281816112b9015281816127dd01528181612a150152612ddf01526101e051818181610d880152610e550152f35b6311a1e69760e01b60005260046000fd5b015190503880610182565b601f198216956002600052806000209160005b8881106102bd575083600195969798106102a4575b505050811b01600255610198565b015160001960f88460031b161c19169055388080610296565b91926020600181928685015181550194019201610281565b60026000527f405787fa12a823e0f2b7631cc41b3ba8828b3321ca811111fa75cd3aa3bb5ace601f830160051c81019160208410610330575b601f0160051c01905b8181106103245750610165565b60008155600101610317565b909150819061030e565b634e487b7160e01b600052602260045260246000fd5b90607f1690610153565b634e487b7160e01b600052604160045260246000fd5b600080fd5b601f909101601f19168101906001600160401b0382119082101761035a57604052565b90815160208110600014610430575090601f8151116103d45760208151910151602082106103c4571790565b6000198260200360031b1b161790565b6040519063305a27a960e01b8252602060048301528181519182602483015260005b8381106104185750508160006044809484010152601f80199101168101030190fd5b602082820181015160448784010152859350016103f6565b6001600160401b03811161035a57600054600181811c9116801561053a575b602082101461033a57601f8111610505575b50602092601f82116001146104a15792819293600092610496575b50508160011b916000199060031b1c19161760005560ff90565b01519050388061047c565b601f1982169360008052806000209160005b8681106104ed57508360019596106104d4575b505050811b0160005560ff90565b015160001960f88460031b161c191690553880806104c6565b919260206001819286850151815501940192016104b3565b60008052601f6020600020910160051c810190601f830160051c015b81811061052e5750610461565b60008155600101610521565b90607f169061044f565b908151602081106000146105cc575090601f8151116105705760208151910151602082106103c4571790565b6040519063305a27a960e01b8252602060048301528181519182602483015260005b8381106105b45750508160006044809484010152601f80199101168101030190fd5b60208282018101516044878401015285935001610592565b6001600160401b03811161035a57600154600181811c911680156106d8575b602082101461033a57601f81116106a2575b50602092601f821160011461063d5792819293600092610632575b50508160011b916000199060031b1c19161760015560ff90565b015190503880610618565b601f198216936001600052806000209160005b86811061068a5750836001959610610671575b505050811b0160015560ff90565b015160001960f88460031b161c19169055388080610663565b91926020600181928685015181550194019201610650565b6001600052601f6020600020910160051c810190601f830160051c015b8181106106cc57506105fd565b600081556001016106bf565b90607f16906105eb56fe610220604052600436101561001357600080fd5b60003560e01c80630eabf66014611a3857806312b11a17146119fd57806313893f611461198d57806317d7de7c146118c05780632d0335ab146118865780633c0427151461119157806344adc90e146110b757806346926267146110775780634cb7e9e514610fc45780634d00307014610f9b57806354fd4d5014610e89578063572b6c0514610e3557806379f7573a14610db75780637da0a87714610d7257806384b0196e14610ca05780639541152514610aab578063a3112a6414610a5e578063a6d4dbc714610987578063b469318d14610936578063b83010d3146108fb578063cf190f34146108d1578063d45c44351461089c578063e30bb56314610866578063e71ff365146107f7578063ed24911d146107d4578063f10b5cc81461078f5763f17325e71461014657600080fd5b602036600319011261078a576004356001600160401b03811161078a57806004016040600319833603011261078a576101946101806121d1565b9261018f60243692018461223c565b612114565b61019d83611fe8565b526101a782611fe8565b506000906101b3612d72565b508251906101bf612d72565b60c0526101cb826123c0565b60c051602001526040516351753e3760e11b8152813560048201529383856024817f00000000000000000000000000000000000000000000000000000000000000006001600160a01b03165afa94851561077f57849561075b575b5084511561074c57916102388161276f565b608052610244816123c0565b60a05283925b81841061028757610266600187349060a0519060805190613a52565b60c0515260c05150602061027e8160c0510151611fe8565b51604051908152f35b6102918482611ff5565b519560208701926001600160401b038451168015159081610738575b50610729576040820151158061071c575b61070d576001600160401b0360608901519451169360018060a01b0389511660408a015115159060808b015192604051976102f889611ea8565b8b8952893560208a01526001600160401b03421660408a015260608901528a608089015260a088015260c08701523360e0870152610100860152610120850152865b602085015160c08601516104116004609960e08a01519360408b01518b606081015161010082015115159061012060a084015193015193604051998a96602088019c8d526001600160601b03199060601b1660408801526001600160601b03199060601b1660548701526001600160401b0360c01b9060c01b1660688601526001600160401b0360c01b9060c01b16607085015260f81b607884015260798301526103ee8151809260208686019101611c6c565b810163ffffffff60e01b8860e01b16838201520301601b19810184520182611ec4565b5190208089526004602052604089205415610435575060010163ffffffff1661033a565b808652808952600460209081526040808b20885181559188015160018301558088015160028301805460608b01516080808d015167ffffffffffffffff60801b911b1667ffffffffffffffff60401b9190951b166001600160401b039093166001600160c01b03199091161791909117919091179055939992979495909390915060a082810151600383015560c08301516004830180546001600160a01b0319166001600160a01b0392831617905560e08401516005840180546101008701516001600160a81b0319909116929093169190911791151590921b60ff60a01b161790556101208201518051906001600160401b0382116106f95761053c600684015461203c565b601f81116106af575b50602090601f831160011461064357600692918c9183610638575b50508160011b916000199060031b1c1916179101555b606082015180610607575b5090839291610594600195608051611ff5565b526105a183608051611ff5565b5060a08101516105b38460a051611ff5565b52816105c584602060c0510151611ff5565b52838060a01b03905116906040519081528535917f8bf46bf4cfd674fa735a3d63ec1c9ad4153f033c290341f3a588b75685141b3560203393a401929061024a565b61061e906000526004602052604060002054151590565b156106295738610581565b63c5723b5160e01b8852600488fd5b015190503880610560565b90600684018c52808c20918c5b601f19851681106106975750918391600193600695601f1981161061067e575b505050811b01910155610576565b015160001960f88460031b161c19169055388080610670565b91926020600181928685015181550194019201610650565b600684018c5260208c20601f840160051c8101602085106106f2575b8d905b601f840160051c830181106106e557505050610545565b6001918155018d906106ce565b50806106cb565b634e487b7160e01b8b52604160045260248bfd5b63157bd4c360e01b8752600487fd5b50604088015115156102be565b6308e8b93760e01b8752600487fd5b90506001600160401b0342161015386102ad565b635f9bd90760e11b8452600484fd5b6107789195503d8086833e6107708183611ec4565b81019061269d565b9338610226565b6040513d86823e3d90fd5b600080fd5b3461078a57600036600319011261078a576040517f00000000000000000000000000000000000000000000000000000000000000006001600160a01b03168152602090f35b3461078a57600036600319011261078a5760206107ef6135be565b604051908152f35b3461078a57602036600319011261078a576004356001600160401b03811161078a57610827903690600401611c3c565b906001600160401b0342169160005b81811061084857602084604051908152f35b806108608561085a600194868861202c565b356133d6565b01610836565b3461078a57602036600319011261078a5760206108926004356000526004602052604060002054151590565b6040519015158152f35b3461078a57602036600319011261078a57600435600052600560205260206001600160401b0360406000205416604051908152f35b3461078a57602036600319011261078a5760206001600160401b0342166107ef8160043533612bbb565b3461078a57600036600319011261078a5760206040517fb5d556f07587ec0f08cf386545cc4362c702a001650c2058002615ee5c9d1e758152f35b3461078a57604036600319011261078a576001600160a01b03610957611cb4565b166000526006602052604060002060243560005260205260206001600160401b0360406000205416604051908152f35b61010036600319011261078a576040516109a081611e26565b6004358082526109af36611efc565b6020830152606036606319011261078a576040516109cc81611e72565b60643560ff8116810361078a578152608435602082015260a43560408083019190915283015260c4356001600160a01b038116810361078a5780606084015260e4356001600160401b038116810361078a5783610a30916080610a5c96015261252f565b610a38612371565b610a4136611efc565b610a4a82611fe8565b52610a5481611fe8565b5034926127bf565b005b3461078a57602036600319011261078a57610a77612427565b506004356000526004602052610aa7610a93604060002061247a565b604051918291602083526020830190611d4c565b0390f35b602036600319011261078a576004356001600160401b03811161078a57610ad6903690600401611c3c565b90610ae082612265565b916000913460005b838110610b0857610aa7610afc868861336b565b60405191829182611cde565b90919293610b17828686611dee565b95610b2560208801886122d1565b80959195158015610c88575b610c775760808901359660005b82811015610c07576000610b578260051b8a018a61223c565b610b6460408e018e6123f2565b849291921015610bf357610b7a60608f01612251565b926001600160401b038d168d03610bf0575060019392610bc58f9293610bb4610bea9560405195610baa87611e26565b3586523690612114565b602085015236906060870201611f96565b6040830152848060a01b031660608201526001600160401b038c166080820152612c48565b01610b3e565b80fd5b634e487b7160e01b83526032600452602483fd5b509498600194939897508296602093610c4d93610c4493610c3d8e8d600019011494610c3560608401612251565b933691612306565b9035612d8c565b95865190612009565b94018051610c5b8989611ff5565b52610c668888611ff5565b505151019501949394919091610ae8565b63251f56a160e21b60005260046000fd5b50610c9660408a018a6123f2565b9050811415610b31565b3461078a57600036600319011261078a5760e0610cdc7f0000000000000000000000000000000000000000000000000000000000000000613c3b565b610aa7610d087f0000000000000000000000000000000000000000000000000000000000000000613c9f565b91610d51602093610d4360405193610d208786611ec4565b600085526000368137604051978897600f60f81b895288015260e0870190611c8f565b908582036040870152611c8f565b90466060850152306080850152600060a085015283820360c0850152611d18565b3461078a57600036600319011261078a576040517f00000000000000000000000000000000000000000000000000000000000000006001600160a01b03168152602090f35b3461078a57602036600319011261078a576004353360005260036020526040600020549081811115610e24577f57b09af877df9068fd60a69d7b21f5576b8b38955812d6ae4ac52942f1e38fb79160409133600052600360205280836000205582519182526020820152a1005b633ab3447f60e11b60005260046000fd5b3461078a57602036600319011261078a576020610e50611cb4565b6040517f00000000000000000000000000000000000000000000000000000000000000006001600160a01b039081169216919091148152f35b3461078a57600036600319011261078a57610aa7610ec67f000000000000000000000000000000000000000000000000000000000000000061344f565b610f876001610ef47f000000000000000000000000000000000000000000000000000000000000000061344f565b9281610f1f7f000000000000000000000000000000000000000000000000000000000000000061344f565b60206040519684610f39899651809285808a019101611c6c565b8501601760f91b83820152610f578251809385602185019101611c6c565b0101601760f91b83820152610f76825180936020600285019101611c6c565b01010301601f198101835282611ec4565b604051918291602083526020830190611c8f565b3461078a57602036600319011261078a5760206001600160401b0342166107ef816004356133d6565b602036600319011261078a576004356001600160401b03811161078a57610fef903690600401611c3c565b60001981019190600090345b81831061100457005b61100f8383866122af565b6020810135601e198236030181121561078a578101918235926001600160401b03841161078a57602001928060061b3603841361078a57600193826110699261106f956110628c8b149433933691611f24565b90356129f3565b90612009565b920191610ffb565b606036600319011261078a57610a5c61108e612371565b61109736611efc565b6110a082611fe8565b526110aa81611fe8565b50349033906004356127bf565b602036600319011261078a576004356001600160401b03811161078a576110e2903690600401611c3c565b906110ec82612265565b9160009134906000926000198101905b80851061111057610aa7610afc878961336b565b90919293946111208683866122af565b90602082019161113083826122d1565b905015610c775761116961116089898885610c3d61115260019a6020996122d1565b939095149433933691612306565b97885190612009565b96018051611177898b611ff5565b52611182888a611ff5565b505151019501939291906110fc565b602036600319011261078a576004356001600160401b03811161078a57806004019060e0600319823603011261078a576040516000916111d082611e26565b83358252602481019182356001600160401b0381116118825761127092916112016112409260043691860101612114565b60208201526112133660448501611f96565b604082015261123660c460a485019461122b86611cca565b606085015201611fd4565b6080820152612c48565b61125761124b6121d1565b9361018f36918861223c565b61126084611fe8565b5261126a83611fe8565b50612251565b611278612d72565b50815160e052611286612d72565b6101405261129560e0516123c0565b61014051602001526040516351753e3760e11b8152843560048201529280846024817f00000000000000000000000000000000000000000000000000000000000000006001600160a01b03165afa938415611875578194611859575b5083511561184a5761130460e05161276f565b6101005261131360e0516123c0565b6101205280925b60e05184106113555761133a600186349061012051906101005190613a52565b61014051526101405150602061027e81610140510151611fe8565b61135f8482611ff5565b5194602086016001600160401b038151168015159081611836575b50611827576040820151158061181a575b61180b576001600160401b0360608801519151169060018060a01b03885116604089015115159160808a015193604051610160526113cb61016051611ea8565b8761016051528b3560206101605101526001600160401b0342166040610160510152606061016051015286608061016051015260a061016051015260c061016051015260018060a01b03861660e0610160510152610100610160510152610120610160510152825b602061016051015160c06101605101516114fe6004609960e06101605101519360406101605101516060610160510151610100610160510151151560a06101605101519161012061016051015193604051998a96602088019c8d526001600160601b03199060601b1660408801526001600160601b03199060601b1660548701526001600160401b0360c01b9060c01b1660688601526001600160401b0360c01b9060c01b16607085015260f81b607884015260798301526103ee8151809260208686019101611c6c565b5190208085526004602052604085205415611522575060010163ffffffff16611433565b61016080518290528186526004602090815260408088209251805184559182015160018401558181015160028401805460608501516080958601516001600160c01b03199092166001600160401b0394909416939093179290931b67ffffffffffffffff60401b16919091179190921b67ffffffffffffffff60801b16179055929793969390929091506101605160a081810151600384015560c08201516004840180546001600160a01b0319166001600160a01b0392831617905560e08301516005850180546101008601516001600160a81b0319909116929093169190911791151590921b60ff60a01b1617905561012001518051906001600160401b0382116117f757611635600684015461203c565b601f81116117b3575b50602090601f8311600114611747576006929188918361173c575b50508160011b916000199060031b1c1916179101555b60608101518061170b575b509060019291610160516116918461010051611ff5565b5261169f8361010051611ff5565b5060a08101516116b28461012051611ff5565b52816116c5846020610140510151611ff5565b525160405191825288359160a085901b8590038781169216907f8bf46bf4cfd674fa735a3d63ec1c9ad4153f033c290341f3a588b75685141b3590602090a4019261131a565b611722906000526004602052604060002054151590565b1561172d578861167a565b63c5723b5160e01b8452600484fd5b015190508c80611659565b9060068401885280882091885b601f198516811061179b5750918391600193600695601f19811610611782575b505050811b0191015561166f565b015160001960f88460031b161c191690558c8080611774565b91926020600181928685015181550194019201611754565b60068401885260208820601f840160051c8101602085106117f0575b601f830160051c820181106117e557505061163e565b8981556001016117cf565b50806117cf565b634e487b7160e01b87526041600452602487fd5b63157bd4c360e01b8452600484fd5b506040870151151561138b565b6308e8b93760e01b8452600484fd5b90506001600160401b03421610158961137a565b635f9bd90760e11b8152600490fd5b61186e9194503d8086833e6107708183611ec4565b92856112f1565b50604051903d90823e3d90fd5b8480fd5b3461078a57602036600319011261078a576001600160a01b036118a7611cb4565b1660005260036020526020604060002054604051908152f35b3461078a57600036600319011261078a5760405160006002546118e28161203c565b8084529060018116908115611969575060011461190a575b610aa783610f8781850382611ec4565b600260009081527f405787fa12a823e0f2b7631cc41b3ba8828b3321ca811111fa75cd3aa3bb5ace939250905b80821061194f57509091508101602001610f876118fa565b919260018160209254838588010152019101909291611937565b60ff191660208086019190915291151560051b84019091019150610f8790506118fa565b3461078a57602036600319011261078a576004356001600160401b03811161078a576119bd903690600401611c3c565b906001600160401b0342169160005b8181106119de57602084604051908152f35b806119f7856119f0600194868861202c565b3533612bbb565b016119cc565b3461078a57600036600319011261078a5760206040517ffeb2925a02bae3dae48d424a0437a2b6ac939aa9230ddc55a1a76f065d9880768152f35b602036600319011261078a576004356001600160401b03811161078a57611a63903690600401611c3c565b600019810191600091345b818410611a7757005b611a82848385611dee565b60a08136031261078a57604051611a9881611e26565b8135815260208201356001600160401b03811161078a57820136601f8201121561078a57611acd903690602081359101611f24565b906020810191825260408301356001600160401b03811161078a57830136601f8201121561078a57803590611b0182611ee5565b91611b0f6040519384611ec4565b8083526020606081850192028301019136831161078a57602001905b828210611c225750505060408201818152611b5b6080611b4d60608801611cca565b966060860197885201611fd4565b936080840194855251938451928315908115611c16575b50610c775760005b838110611bb357505091519351600195611bab95909461106994508a8c14935085926001600160a01b0316916129f3565b930192611a6e565b600190611c108651611bc5838a611ff5565b51611bd1848851611ff5565b51858060a01b038c5116906001600160401b038851169260405194611bf586611e26565b8552602085015260408401526060830152608082015261252f565b01611b7a565b9050518314158c611b72565b6020606091611c313685611f96565b815201910190611b2b565b9181601f8401121561078a578235916001600160401b03831161078a576020808501948460051b01011161078a57565b60005b838110611c7f5750506000910152565b8181015183820152602001611c6f565b90602091611ca881518092818552858086019101611c6c565b601f01601f1916010190565b600435906001600160a01b038216820361078a57565b35906001600160a01b038216820361078a57565b602060408183019282815284518094520192019060005b818110611d025750505090565b8251845260209384019390920191600101611cf5565b906020808351928381520192019060005b818110611d365750505090565b8251845260209384019390920191600101611d29565b90610140610120611deb9380518452602081015160208501526001600160401b0360408201511660408501526001600160401b0360608201511660608501526001600160401b03608082015116608085015260a081015160a085015260018060a01b0360c08201511660c085015260018060a01b0360e08201511660e08501526101008101511515610100850152015191816101208201520190611c8f565b90565b9190811015611e105760051b81013590609e198136030182121561078a570190565b634e487b7160e01b600052603260045260246000fd5b60a081019081106001600160401b03821117611e4157604052565b634e487b7160e01b600052604160045260246000fd5b604081019081106001600160401b03821117611e4157604052565b606081019081106001600160401b03821117611e4157604052565b60c081019081106001600160401b03821117611e4157604052565b61014081019081106001600160401b03821117611e4157604052565b90601f801991011681019081106001600160401b03821117611e4157604052565b6001600160401b038111611e415760051b60200190565b604090602319011261078a5760405190611f1582611e57565b60243582526044356020830152565b929192611f3082611ee5565b93611f3e6040519586611ec4565b602085848152019260061b82019181831161078a57925b828410611f625750505050565b6000604085840312610bf0575060206040918251611f7f81611e57565b863581528287013583820152815201930192611f55565b919082606091031261078a57604051611fae81611e72565b8092803560ff8116810361078a5760409182918452602081013560208501520135910152565b35906001600160401b038216820361078a57565b805115611e105760200190565b8051821015611e105760209160051b010190565b9190820391821161201657565b634e487b7160e01b600052601160045260246000fd5b9190811015611e105760051b0190565b90600182811c9216801561206c575b602083101461205657565b634e487b7160e01b600052602260045260246000fd5b91607f169161204b565b600092918154916120868361203c565b80835292600181169081156120dc57506001146120a257505050565b60009081526020812093945091925b8383106120c2575060209250010190565b6001816020929493945483858701015201910191906120b1565b915050602093945060ff929192191683830152151560051b010190565b6001600160401b038111611e4157601f01601f191660200190565b919060c08382031261078a576040519061212d82611e8d565b819361213881611cca565b835261214660208201611fd4565b60208401526040810135801515810361078a5760408401526060810135606084015260808101356001600160401b03811161078a5781019082601f8301121561078a57813592612195846120f9565b906121a36040519283611ec4565b8482526020858501011161078a57600060208560a09682889701838601378301015260808501520135910152565b604080519091906121e28382611ec4565b6001815291601f19018260005b8281106121fb57505050565b60209060405161220a81611e8d565b60008152600083820152600060408201526000606082015260606080820152600060a0820152828285010152016121ef565b90359060be198136030182121561078a570190565b356001600160a01b038116810361078a5790565b9061226f82611ee5565b61227c6040519182611ec4565b828152809261228d601f1991611ee5565b019060005b82811061229e57505050565b806060602080938501015201612292565b9190811015611e105760051b81013590603e198136030182121561078a570190565b903590601e198136030182121561078a57018035906001600160401b03821161078a57602001918160051b3603831361078a57565b92919061231281611ee5565b936123206040519586611ec4565b602085838152019160051b81019183831161078a5781905b838210612346575050505050565b81356001600160401b03811161078a576020916123668784938701612114565b815201910190612338565b604080519091906123828382611ec4565b6001815291601f19018260005b82811061239b57505050565b6020906040516123aa81611e57565b600081526000838201528282850101520161238f565b906123ca82611ee5565b6123d76040519182611ec4565b82815280926123e8601f1991611ee5565b0190602036910137565b903590601e198136030182121561078a57018035906001600160401b03821161078a5760200191606082023603831361078a57565b6040519061243482611ea8565b60606101208360008152600060208201526000604082015260008382015260006080820152600060a0820152600060c0820152600060e082015260006101008201520152565b90600661012060405161248c81611ea8565b61251c819580548352600181015460208401526001600160401b0360028201548181166040860152818160401c16606086015260801c166080840152600381015460a084015260018060a01b0360048201541660c084015260ff600582015460018060a01b03811660e086015260a01c1615156101008401526125156040518096819301612076565b0384611ec4565b0152565b60001981146120165760010190565b608081016001600160401b03815116801515908161267d575b5061266c5781612603602061265494015191604081015193606082019360018060a01b03855116925191602082519201518460005260036020526001600160401b0360406000209283549361259c85612520565b90555116926040519460208601967fb5d556f07587ec0f08cf386545cc4362c702a001650c2058002615ee5c9d1e75885260408701526060860152608085015260a084015260c083015260e082015260e081526125fb61010082611ec4565b5190206136da565b9051602083810151604080860151955181519384019290925282019490945260f89390931b6001600160f81b0319166060840152604183526001600160a01b031661264f606184611ec4565b613700565b1561265b57565b638baa579f60e01b60005260046000fd5b631ab7da6b60e01b60005260046000fd5b90506001600160401b0342161138612548565b5190811515820361078a57565b60208183031261078a578051906001600160401b03821161078a57019060808282031261078a5760405191608083018381106001600160401b03821117611e41576040528051835260208101516001600160a01b038116810361078a57602084015261270b60408201612690565b60408401526060810151906001600160401b03821161078a570181601f8201121561078a57805161273b816120f9565b926127496040519485611ec4565b8184526020828401011161078a576127679160208085019101611c6c565b606082015290565b9061277982611ee5565b6127866040519182611ec4565b8281528092612797601f1991611ee5565b019060005b8281106127a857505050565b6020906127b3612427565b8282850101520161279c565b6040516351753e3760e11b81526004810182905290916000826024817f00000000000000000000000000000000000000000000000000000000000000006001600160a01b03165afa9182156129e7576000926129ca575b508151156129a85780516128298161276f565b93612833826123c0565b95426001600160401b03169360005b84811061285d5750505050505091611deb939160019361384c565b6128678183611ff5565b5190815160005260046020526040600020918254156129b957856001840154036129a85760058301546001600160a01b03868116919081168290036129975760a01c60ff16156129865760028401916001600160401b03835460801c1661297557825467ffffffffffffffff60801b191660808b901b67ffffffffffffffff60801b16179092556001938792908c9061291090869061290a9061247a565b61247a565b92611ff5565b5261291b848d611ff5565b50602081015161292b858f611ff5565b527ff930a6e2523c9cc298691873087a740550b8fc85a0680830414c148ed927f61560208d60c0612962888a8060a01b0393611ff5565b510151169251604051908152a401612842565b63905e710760e01b60005260046000fd5b63157bd4c360e01b60005260046000fd5b634ca8886760e01b60005260046000fd5b635f9bd90760e11b60005260046000fd5b63c5723b5160e01b60005260046000fd5b6129e09192503d806000833e6107708183611ec4565b9038612816565b6040513d6000823e3d90fd5b6040516351753e3760e11b8152600481018290529195949392916000816024817f00000000000000000000000000000000000000000000000000000000000000006001600160a01b03165afa9081156129e757600091612ba0575b508051156129a8578651612a618161276f565b92612a6b826123c0565b946000996001600160401b0342169a5b848110612a92575050505050611deb95965061384c565b612a9c8183611ff5565b5190815160005260046020526040600020918254156129b957856001840154036129a85760058301546001600160a01b03868116919081168290036129975760a01c60ff16156129865760028401916001600160401b03835460801c16612975578f600195612905612b31928b96908154906001600160401b0360801b9060801b16906001600160401b0360801b1916179055565b612b3b858d611ff5565b52612b46848c611ff5565b506020810151612b56858e611ff5565b527ff930a6e2523c9cc298691873087a740550b8fc85a0680830414c148ed927f61560208c60c0612b8d888a8060a01b0393611ff5565b510151169251604051908152a401612a7b565b612bb591503d806000833e6107708183611ec4565b38612a4e565b60018060a01b03169182600052600660205260406000209082600052816020526001600160401b0360406000205416612c37576001600160401b0391836000526020526040600020828216831982541617905516917f92a1f7a41a7c585a8b09e25b195e225b1d43248daca46b0faf9e0792777a2229600080a4565b63ec9d6eeb60e01b60005260046000fd5b608081016001600160401b038151168015159081612d5f575b5061266c5781612603602061265494015191604081015193606082019360018060a01b0385511692519160018060a01b03825116916001600160401b03602082015116906040810151151560608201519060a0608084015160208151910120930151938860005260036020526001600160401b03604060002096875497612ce789612520565b90555116966040519860208a019a7ffeb2925a02bae3dae48d424a0437a2b6ac939aa9230ddc55a1a76f065d9880768c5260408b015260608a0152608089015260a088015260c087015260e086015261010085015261012084015261014083015261016082015261016081526125fb61018082611ec4565b90506001600160401b0342161138612c61565b60405190612d7f82611e57565b6060602083600081520152565b91929390936101c0526101e052612da1612d72565b50825190612dad612d72565b61020052612dba826123c0565b61020051602001526040516351753e3760e11b815260048101829052936000856024817f00000000000000000000000000000000000000000000000000000000000000006001600160a01b03165afa9485156129e75760009561334e575b508451156129a85790612e2a8361276f565b61018052612e37836123c0565b6101a0526000915b838310612e74575050505050612e68906101e051906101c051906101a051906101805190613a52565b61020051526102005190565b909294919395612e848583611ff5565b51926001600160401b03602085015116801515908161333a575b50613329576040810151158061331c575b6129865760209660608501516001600160401b0389870151169060018060a01b0387511660408801511515916080890151938a6040519d8e612ef081611ea8565b6000815201528c60406001600160401b03421691015260608d0152600060808d015260a08c015260c08b015260018060a01b038b1660e08b01526101008a015261012089015260005b602089015189612fee6004609960c084015160e085015194604081015190606081015161010082015115159061012060a084015193015193604051998a96602088019c8d526001600160601b03199060601b1660408801526001600160601b03199060601b1660548701526001600160401b0360c01b9060c01b1660688601526001600160401b0360c01b9060c01b16607085015260f81b607884015260798301526103ee8151809260208686019101611c6c565b51902080600052600460205260406000205415613014575060010163ffffffff16612f39565b905098969197909594929880825280600052600460205260406000209180518355602081015160018401556130c3600284016001600160401b0380604085015116166001600160401b0319825416178155606083015167ffffffffffffffff60401b82549160401b169067ffffffffffffffff60401b19161781556001600160401b036080840151168154906001600160401b0360801b9060801b16906001600160401b0360801b1916179055565b60a081810151600385015560c08201516004850180546001600160a01b0319166001600160a01b0392831617905560e08301516005860180546101008601516001600160a81b0319909116929093169190911791151590921b60ff60a01b1617905561012081015180519093906001600160401b038111611e4157889461314d600684015461203c565b601f81116132c1575b50602090601f831160011461324f576006929160009183613244575b50508160011b916000199060031b1c1916179101555b60608501518061321e575b50936001946131a58561018051611ff5565b526131b38461018051611ff5565b5060a08101516131c6856101a051611ff5565b52816131d9856020610200510151611ff5565b52848060a01b039051166040519182527f8bf46bf4cfd674fa735a3d63ec1c9ad4153f033c290341f3a588b75685141b356020868060a01b038b1693a4019190612e3f565b6132379193506000526004602052604060002054151590565b156129b957859138613193565b015190503880613172565b9060068401600052806000209160005b601f19851681106132a65750918391600193600695601f1981161061328d575b505050811b01910155613188565b015160001960f88460031b161c1916905538808061327f565b8183015184558c98506001909301926020928301920161325f565b90919293949550600684016000526020600020601f840160051c810160208510613315575b908b979695949392915b601f830160051c82018110613306575050613156565b600081558c98506001016132f0565b50806132e6565b5060408401511515612eaf565b6308e8b93760e01b60005260046000fd5b90506001600160401b034216101538612e9e565b6133649195503d806000833e6107708183611ec4565b9338612e18565b90613375906123c0565b90600081519160005b83811061338c575050505090565b6133968183611ff5565b5180516000915b8183106133af5750505060010161337e565b909194600180916133c08885611ff5565b516133cb828c611ff5565b52019501919061339d565b908160005260056020526001600160401b036040600020541661343e576001600160401b03908260005260056020526040600020828216831982541617905516907f5aafceeb1c7ad58e4a84898bdee37c02c0fc46e7d24e6b60e8209449f183459f600080a3565b6317133ca360e11b60005260046000fd5b8060009172184f03e93ff9f4daa797ed6e38ed64bf6a1f0160401b82101561359b575b806d04ee2d6d415b85acef8100000000600a921015613580575b662386f26fc1000081101561356c575b6305f5e10081101561355b575b61271081101561354c575b606481101561353e575b1015613533575b600a602160018401936134d7856120f9565b946134e56040519687611ec4565b8086526134f4601f19916120f9565b013660208701378401015b60001901916f181899199a1a9b1b9c1cb0b131b232b360811b8282061a835304801561352e57600a90916134ff565b505090565b6001909101906134c5565b6064600291049301926134be565b612710600491049301926134b4565b6305f5e100600891049301926134a9565b662386f26fc100006010910493019261349c565b6d04ee2d6d415b85acef81000000006020910493019261348c565b506040915072184f03e93ff9f4daa797ed6e38ed64bf6a1f0160401b8104613472565b307f00000000000000000000000000000000000000000000000000000000000000006001600160a01b031614806136b1575b15613619577f000000000000000000000000000000000000000000000000000000000000000090565b60405160208101907f8b73c3c69bb8fe3d512ecc4cf759cc79239f7b179b0ffacaa9a75d522b39400f82527f000000000000000000000000000000000000000000000000000000000000000060408201527f000000000000000000000000000000000000000000000000000000000000000060608201524660808201523060a082015260a081526136ab60c082611ec4565b51902090565b507f000000000000000000000000000000000000000000000000000000000000000046146135f0565b6042906136e56135be565b906040519161190160f01b8352600283015260228201522090565b9190823b613751579061371291613d06565b50600481101561373b5715918261372857505090565b6001600160a01b03918216911614919050565b634e487b7160e01b600052602160045260246000fd5b9160009261378861379685946040519283916020830195630b135d3f60e11b87526024840152604060448401526064830190611c8f565b03601f198101835282611ec4565b51915afa6137a2613cd6565b816137d0575b816137b1575090565b905060208180518101031261078a5760200151630b135d3f60e11b1490565b9050602081511015906137a8565b929160408401936040815282518095526060810194602060608260051b84010194019060005b81811061382157505050611deb9394506020818403910152611d18565b90919460208061383d600193605f19888203018c528951611d4c565b97019801910196919096613804565b93919080519460018614613a2c57602001516001600160a01b03169081156139e857604051636723702360e11b815260009690602081600481875afa9081156139dd57889161399f575b509087915b81831061393f57505050916020916138ca93876040518096819582946388e5b2d960e01b8452600484016137de565b03925af19081156129e757600091613905575b50156138f4576138eb575090565b611deb90613f1e565b63bf2f3a8b60e01b60005260046000fd5b90506020813d602011613937575b8161392060209383611ec4565b8101031261078a5761393190612690565b386138dd565b3d9150613913565b9091979661394d8987611ff5565b518015613994578215613983578181116139725780600192039801985b01919061389b565b63044044a560e21b60005260046000fd5b631574f9f360e01b60005260046000fd5b50969760019061396a565b90506020813d6020116139d5575b816139ba60209383611ec4565b810103126139d1576139cb90612690565b38613896565b8780fd5b3d91506139ad565b6040513d8a823e3d90fd5b50506000939192935b828110613a1557505050613a06575b50600090565b613a0f90613f1e565b38613a00565b613a1f8183611ff5565b51613983576001016139f1565b90611deb955091613a4b613a44600194969596611fe8565b5191611fe8565b5191613d42565b815194929160009160018714613c2457602001516001600160a01b0316918215613be5578096604051636723702360e11b8152602081600481885afa908115613bda578391613b9c575b509082915b818310613b3e5750505091613ad2939160209350876040518096819582946348ed85bf60e11b8452600484016137de565b03925af19081156129e757600091613b04575b5015613af3576138eb575090565b63e8bee83960e01b60005260046000fd5b90506020813d602011613b36575b81613b1f60209383611ec4565b8101031261078a57613b3090612690565b38613ae5565b3d9150613b12565b90919897613b4c8a88611ff5565b51908115613b91578215613b8257808211613b73579080600192039901995b019190613aa1565b63044044a560e21b8552600485fd5b631574f9f360e01b8552600485fd5b989960019150613b6b565b90506020813d602011613bd2575b81613bb760209383611ec4565b81010312613bce57613bc890612690565b38613a9c565b8280fd5b3d9150613baa565b6040513d85823e3d90fd5b9592915050845b828110613bfe575050506138eb575090565b613c088183611ff5565b51613c1557600101613bec565b631574f9f360e01b8652600486fd5b919290611deb9650613a44613a4b91969596611fe8565b60ff8114613c855760ff811690601f8211613c74576040805192613c5f8285611ec4565b6020808552840191601f190136833783525290565b632cd44ac360e21b60005260046000fd5b50604051611deb81613c98816000612076565b0382611ec4565b60ff8114613cc35760ff811690601f8211613c74576040805192613c5f8285611ec4565b50604051611deb81613c98816001612076565b3d15613d01573d90613ce7826120f9565b91613cf56040519384611ec4565b82523d6000602084013e565b606090565b8151919060418303613d3757613d3092506020820151906060604084015193015160001a90613f7f565b9192909190565b505060009160029190565b6020015191949290916001600160a01b0316908115613f0b579085929183613e8d575b602092919015613e0357613d969160405194858094819363e49617e160e01b83528760048401526024830190611d4c565b03925af19081156129e757600091613dc9575b5015613db8575b6138eb575090565b63ccf3bb2760e01b60005260046000fd5b90506020813d602011613dfb575b81613de460209383611ec4565b8101031261078a57613df590612690565b38613da9565b3d9150613dd7565b613e2a9160405194858094819363e60c350560e01b83528760048401526024830190611d4c565b03925af19081156129e757600091613e53575b50613db05763bd8ba84d60e01b60005260046000fd5b90506020813d602011613e85575b81613e6e60209383611ec4565b8101031261078a57613e7f90612690565b38613e3d565b3d9150613e61565b9491909250604051636723702360e11b8152602081600481875afa9081156129e757600091613ed1575b501561398357818611613972579085900393859290613d65565b90506020813d602011613f03575b81613eec60209383611ec4565b8101031261078a57613efd90612690565b38613eb7565b3d9150613edf565b505050909161398357613a065750600090565b80613f265750565b804710613f6757600080808093335af1613f3e613cd6565b9015613f475750565b805115613f5657805190602001fd5b63d6bda27560e01b60005260046000fd5b4763cf47918160e01b60005260045260245260446000fd5b91907f7fffffffffffffffffffffffffffffff5d576e7357a4501ddfe92f46681b20a08411613ffc579160209360809260ff60009560405194855216868401526040830152606082015282805260015afa156129e7576000516001600160a01b03811615613ff05790600090600090565b50600090600190600090565b5050506000916003919056fea164736f6c634300081c000a","linkReferences":{}},"methodIdentifiers":{"attest((bytes32,(address,uint64,bool,bytes32,bytes,uint256)))":"f17325e7","attestByDelegation((bytes32,(address,uint64,bool,bytes32,bytes,uint256),(uint8,bytes32,bytes32),address,uint64))":"3c042715","eip712Domain()":"84b0196e","getAttestTypeHash()":"12b11a17","getAttestation(bytes32)":"a3112a64","getDomainSeparator()":"ed24911d","getName()":"17d7de7c","getNonce(address)":"2d0335ab","getRevokeOffchain(address,bytes32)":"b469318d","getRevokeTypeHash()":"b83010d3","getSchemaRegistry()":"f10b5cc8","getTimestamp(bytes32)":"d45c4435","increaseNonce(uint256)":"79f7573a","isAttestationValid(bytes32)":"e30bb563","isTrustedForwarder(address)":"572b6c05","multiAttest((bytes32,(address,uint64,bool,bytes32,bytes,uint256)[])[])":"44adc90e","multiAttestByDelegation((bytes32,(address,uint64,bool,bytes32,bytes,uint256)[],(uint8,bytes32,bytes32)[],address,uint64)[])":"95411525","multiRevoke((bytes32,(bytes32,uint256)[])[])":"4cb7e9e5","multiRevokeByDelegation((bytes32,(bytes32,uint256)[],(uint8,bytes32,bytes32)[],address,uint64)[])":"0eabf660","multiRevokeOffchain(bytes32[])":"13893f61","multiTimestamp(bytes32[])":"e71ff365","revoke((bytes32,(bytes32,uint256)))":"46926267","revokeByDelegation((bytes32,(bytes32,uint256),(uint8,bytes32,bytes32),address,uint64))":"a6d4dbc7","revokeOffchain(bytes32)":"cf190f34","timestamp(bytes32)":"4d003070","trustedForwarder()":"7da0a877","version()":"54fd4d50"},"id":7}