{
  "abi": [
    {
      "type": "constructor",
      "inputs": [
        {
          "name": "forwarder",
          "type": "address",
          "internalType": "address"
        }
      ],
      "stateMutability": "nonpayable"
    },
    {
      "type": "function",
      "name": "getSchema",
      "inputs": [
        {
          "name": "uid",
          "type": "bytes32",
          "internalType": "bytes32"
        }
      ],
      "outputs": [
        {
          "name": "",
          "type": "tuple",
          "internalType": "struct SchemaRecord",
          "components": [
            {
              "name": "uid",
              "type": "bytes32",
              "internalType": "bytes32"
            },
            {
              "name": "resolver",
              "type": "address",
              "internalType": "contract ISchemaResolver"
            },
            {
              "name": "revocable",
              "type": "bool",
              "internalType": "bool"
            },
            {
              "name": "schema",
              "type": "string",
              "internalType": "string"
            }
          ]
        }
      ],
      "stateMutability": "view"
    },
    {
      "type": "function",
      "name": "isTrustedForwarder",
      "inputs": [
        {
          "name": "forwarder",
          "type": "address",
          "internalType": "address"
        }
      ],
      "outputs": [
        {
          "name": "",
          "type": "bool",
          "internalType": "bool"
        }
      ],
      "stateMutability": "view"
    },
    {
      "type": "function",
      "name": "register",
      "inputs": [
        {
          "name": "schema",
          "type": "string",
          "internalType": "string"
        },
        {
          "name": "resolver",
          "type": "address",
          "internalType": "contract ISchemaResolver"
        },
        {
          "name": "revocable",
          "type": "bool",
          "internalType": "bool"
        }
      ],
      "outputs": [
        {
          "name": "",
          "type": "bytes32",
          "internalType": "bytes32"
        }
      ],
      "stateMutability": "nonpayable"
    },
    {
      "type": "function",
      "name": "trustedForwarder",
      "inputs": [],
      "outputs": [
        {
          "name": "",
          "type": "address",
          "internalType": "address"
        }
      ],
      "stateMutability": "view"
    },
    {
      "type": "function",
      "name": "version",
      "inputs": [],
      "outputs": [
        {
          "name": "",
          "type": "string",
          "internalType": "string"
        }
      ],
      "stateMutability": "view"
    },
    {
      "type": "event",
      "name": "Registered",
      "inputs": [
        {
          "name": "uid",
          "type": "bytes32",
          "indexed": true,
          "internalType": "bytes32"
        },
        {
          "name": "registerer",
          "type": "address",
          "indexed": true,
          "internalType": "address"
        },
        {
          "name": "schema",
          "type": "tuple",
          "indexed": false,
          "internalType": "struct SchemaRecord",
          "components": [
            {
              "name": "uid",
              "type": "bytes32",
              "internalType": "bytes32"
            },
            {
              "name": "resolver",
              "type": "address",
              "internalType": "contract ISchemaResolver"
            },
            {
              "name": "revocable",
              "type": "bool",
              "internalType": "bool"
            },
            {
              "name": "schema",
              "type": "string",
              "internalType": "string"
            }
          ]
        }
      ],
      "anonymous": false
    },
    {
      "type": "error",
      "name": "AlreadyExists",
      "inputs": []
    }
  ],
  "bytecode": {
    "object": "0x6101003461009c57601f61098a38819003918201601f19168301916001600160401b038311848410176100a15780849260209460405283398101031261009c57516001600160a01b038116810361009c576001608052600460a052600060c05260e0526040516108d290816100b8823960805181610529015260a05181610557015260c05181610582015260e05181818161019c01526104de0152f35b600080fd5b634e487b7160e01b600052604160045260246000fdfe6080604052600436101561001257600080fd5b60003560e01c806354fd4d5014610510578063572b6c05146104b357806360d7a278146101cb5780637da0a877146101865763a2ea7c6e1461005357600080fd5b3461018157602036600319011261018157606080604051610073816106ac565b6000815260006020820152600060408201520152600435600052600060205260406000206002604051916100a6836106ac565b8054835260ff600182015460018060a01b038116602086015260a01c161515604084015201906040516000928054906100de8261071c565b8084529160018116908115610159575060011461011c575b5050610107816101189403826106de565b60608201526040519182918261066a565b0390f35b90935060005260206000206000905b848210610143575081016020019250610107816100f6565b600181602092548385870101520191019061012b565b610118965084925060209150926101079360ff191682840152151560051b82010194506100f6565b600080fd5b34610181576000366003190112610181576040517f00000000000000000000000000000000000000000000000000000000000000006001600160a01b03168152602090f35b346101815760603660031901126101815760043567ffffffffffffffff8111610181573660238201121561018157806004013567ffffffffffffffff8111610181573660248284010111610181576024356001600160a01b03811691908290036101815760443592831515809403610181576024936040519261024d846106ac565b60008452602084019485526040840191825261026881610700565b9261027660405194856106de565b818452602080850192806000998a940185378501015260608401928084526102ed6015602088519386511515946040519586926102bb858501998a9251928391610622565b8301916bffffffffffffffffffffffff199060601b168483015260f81b60348201520301600a198101845201826106de565b519020938486528560205260408620546104a4579060029185855285875286602052604087209185518355600183019160018060a01b0390511682549160ff60a01b9051151560a01b16916affffffffffffffffffffff60a81b161717905501905180519067ffffffffffffffff82116104905761036b835461071c565b601f811161044b575b50602095829187916001601f8511146103e957926103de575b50508160011b916000199060031b1c19161790555b817fd0b86852e21f9e5fa4bc3b0cff9757ffe243d50c4b43968a42202153d651ea5e604051806103d333958261066a565b0390a3604051908152f35b01519050868061038d565b8581528281209350601f198516905b818110610434575090846001959493921061041b575b505050811b0190556103a2565b015160001960f88460031b161c1916905586808061040e565b9293896001819287860151815501950193016103f8565b83875260208720601f840160051c81019160208510610486575b601f0160051c01905b81811061047b5750610374565b87815560010161046e565b9091508190610465565b634e487b7160e01b86526041600452602486fd5b63119b4fd360e11b8652600486fd5b34610181576020366003190112610181576004356001600160a01b03811690819003610181576040517f00000000000000000000000000000000000000000000000000000000000000006001600160a01b03169091148152602090f35b346101815760003660031901126101815761011861054d7f0000000000000000000000000000000000000000000000000000000000000000610756565b61060e600161057b7f0000000000000000000000000000000000000000000000000000000000000000610756565b92816105a67f0000000000000000000000000000000000000000000000000000000000000000610756565b602060405196846105c0899651809285808a019101610622565b8501601760f91b838201526105de8251809385602185019101610622565b0101601760f91b838201526105fd825180936020600285019101610622565b01010301601f1981018352826106de565b604051918291602083526020830190610645565b60005b8381106106355750506000910152565b8181015183820152602001610625565b9060209161065e81518092818552858086019101610622565b601f01601f1916010190565b60a060606106a9936020845280516020850152600180841b03602082015116604085015260408101511515828501520151916080808201520190610645565b90565b6080810190811067ffffffffffffffff8211176106c857604052565b634e487b7160e01b600052604160045260246000fd5b90601f8019910116810190811067ffffffffffffffff8211176106c857604052565b67ffffffffffffffff81116106c857601f01601f191660200190565b90600182811c9216801561074c575b602083101461073657565b634e487b7160e01b600052602260045260246000fd5b91607f169161072b565b8060009172184f03e93ff9f4daa797ed6e38ed64bf6a1f0160401b8210156108a2575b806d04ee2d6d415b85acef8100000000600a921015610887575b662386f26fc10000811015610873575b6305f5e100811015610862575b612710811015610853575b6064811015610845575b101561083a575b600a602160018401936107de85610700565b946107ec60405196876106de565b8086526107fb601f1991610700565b013660208701378401015b60001901916f181899199a1a9b1b9c1cb0b131b232b360811b8282061a835304801561083557600a9091610806565b505090565b6001909101906107cc565b6064600291049301926107c5565b612710600491049301926107bb565b6305f5e100600891049301926107b0565b662386f26fc10000601091049301926107a3565b6d04ee2d6d415b85acef810000000060209104930192610793565b506040915072184f03e93ff9f4daa797ed6e38ed64bf6a1f0160401b810461077956fea164736f6c634300081c000a",
    "linkReferences": {}
  },
  "methodIdentifiers": {
    "getSchema(bytes32)": "a2ea7c6e",
    "isTrustedForwarder(address)": "572b6c05",
    "register(string,address,bool)": "60d7a278",
    "trustedForwarder()": "7da0a877",
    "version()": "54fd4d50"
  },
  "id": 8
}