{
  "abi": [
    {
      "type": "constructor",
      "inputs": [
        {
          "name": "forwarder",
          "type": "address",
          "internalType": "address"
        }
      ],
      "stateMutability": "nonpayable"
    },
    {
      "type": "function",
      "name": "create",
      "inputs": [
        {
          "name": "name",
          "type": "string",
          "internalType": "string"
        },
        {
          "name": "symbol",
          "type": "string",
          "internalType": "string"
        },
        {
          "name": "decimals",
          "type": "uint8",
          "internalType": "uint8"
        },
        {
          "name": "equityClass",
          "type": "string",
          "internalType": "string"
        },
        {
          "name": "equityCategory",
          "type": "string",
          "internalType": "string"
        }
      ],
      "outputs": [
        {
          "name": "token",
          "type": "address",
          "internalType": "address"
        }
      ],
      "stateMutability": "nonpayable"
    },
    {
      "type": "function",
      "name": "isAddressDeployed",
      "inputs": [
        {
          "name": "token",
          "type": "address",
          "internalType": "address"
        }
      ],
      "outputs": [
        {
          "name": "",
          "type": "bool",
          "internalType": "bool"
        }
      ],
      "stateMutability": "view"
    },
    {
      "type": "function",
      "name": "isFactoryToken",
      "inputs": [
        {
          "name": "",
          "type": "address",
          "internalType": "address"
        }
      ],
      "outputs": [
        {
          "name": "",
          "type": "bool",
          "internalType": "bool"
        }
      ],
      "stateMutability": "view"
    },
    {
      "type": "function",
      "name": "isTrustedForwarder",
      "inputs": [
        {
          "name": "forwarder",
          "type": "address",
          "internalType": "address"
        }
      ],
      "outputs": [
        {
          "name": "",
          "type": "bool",
          "internalType": "bool"
        }
      ],
      "stateMutability": "view"
    },
    {
      "type": "function",
      "name": "predictAddress",
      "inputs": [
        {
          "name": "sender",
          "type": "address",
          "internalType": "address"
        },
        {
          "name": "name",
          "type": "string",
          "internalType": "string"
        },
        {
          "name": "symbol",
          "type": "string",
          "internalType": "string"
        },
        {
          "name": "decimals",
          "type": "uint8",
          "internalType": "uint8"
        },
        {
          "name": "equityClass",
          "type": "string",
          "internalType": "string"
        },
        {
          "name": "equityCategory",
          "type": "string",
          "internalType": "string"
        }
      ],
      "outputs": [
        {
          "name": "predicted",
          "type": "address",
          "internalType": "address"
        }
      ],
      "stateMutability": "view"
    },
    {
      "type": "function",
      "name": "trustedForwarder",
      "inputs": [],
      "outputs": [
        {
          "name": "",
          "type": "address",
          "internalType": "address"
        }
      ],
      "stateMutability": "view"
    },
    {
      "type": "event",
      "name": "EquityCreated",
      "inputs": [
        {
          "name": "token",
          "type": "address",
          "indexed": true,
          "internalType": "address"
        },
        {
          "name": "creator",
          "type": "address",
          "indexed": true,
          "internalType": "address"
        }
      ],
      "anonymous": false
    },
    {
      "type": "error",
      "name": "AddressAlreadyDeployed",
      "inputs": []
    },
    {
      "type": "error",
      "name": "ReentrancyGuardReentrantCall",
      "inputs": []
    }
  ],
  "bytecode": {
    "object": "0x60a03461008a57601f61460b38819003918201601f19168301916001600160401b0383118484101761008f5780849260209460405283398101031261008a57516001600160a01b038116810361008a57600160005560805260405161456590816100a6823960805181818160b8015281816101cf01528181610357015281816105cb015261067f0152f35b600080fd5b634e487b7160e01b600052604160045260246000fdfe6080604052600436101561001257600080fd5b60003560e01c806315a0216d146102495780634e7f6dea14610203578063572b6c05146101af57806373f21197146100e75780637da0a877146100a25763a4b7914e1461005e57600080fd5b3461009d57602036600319011261009d576001600160a01b0361007f6104a9565b166000526001602052602060ff604060002054166040519015158152f35b600080fd5b3461009d57600036600319011261009d576040517f00000000000000000000000000000000000000000000000000000000000000006001600160a01b03168152602090f35b3461009d5760c036600319011261009d576101006104a9565b60243567ffffffffffffffff811161009d57610120903690600401610452565b9060443567ffffffffffffffff811161009d57610141903690600401610452565b9060643560ff8116810361009d5760843567ffffffffffffffff811161009d5761016f903690600401610452565b9060a4359367ffffffffffffffff851161009d5760209561019761019d963690600401610452565b9461057d565b6040516001600160a01b039091168152f35b3461009d57602036600319011261009d5760206101ca6104a9565b6040517f00000000000000000000000000000000000000000000000000000000000000006001600160a01b039081169216919091148152f35b3461009d57602036600319011261009d57602061023f6102216104a9565b6001600160a01b031660009081526001602052604090205460ff1690565b6040519015158152f35b3461009d5760a036600319011261009d5760043567ffffffffffffffff811161009d5761027a903690600401610452565b60243567ffffffffffffffff811161009d5761029a903690600401610452565b906044359060ff8216820361009d5760643567ffffffffffffffff811161009d576102c9903690600401610452565b9160843567ffffffffffffffff811161009d576102ea903690600401610452565b9360026000541461041f576002600055610312610221868685858861030d61067c565b61057d565b61040e576103218282856106eb565b9461032a61067c565b9460405195613e11948588019488861067ffffffffffffffff8711176103f857889761037c976107488a397f000000000000000000000000000000000000000000000000000000000000000096610507565b03906000f580156103ec576001600160a01b039081166000818152600160208181526040909220805460ff19169091179055916103b761067c565b169060405191817fa74930de60ba78704c911e11fd80a00cca33ab77c1a37bf3749182c512d22a85600080a360016000558152f35b6040513d6000823e3d90fd5b634e487b7160e01b600052604160045260246000fd5b636b25fac360e11b60005260046000fd5b633ee5aeb560e01b60005260046000fd5b90601f8019910116810190811067ffffffffffffffff8211176103f857604052565b81601f8201121561009d5780359067ffffffffffffffff82116103f85760405192610487601f8401601f191660200185610430565b8284526020838301011161009d57816000926020809301838601378301015290565b600435906001600160a01b038216820361009d57565b60005b8381106104d25750506000910152565b81810151838201526020016104c2565b906020916104fb815180928185528580860191016104bf565b601f01601f1916010190565b9592909461056d9460ff61053d61055f9561052f60c09a9d9c9d60e08d5260e08d01906104e2565b908b820360208d01526104e2565b931660408901526001600160a01b0316606088015286820360808801526104e2565b9084820360a08601526104e2565b6001600160a01b03909416910152565b610636926020916105ff61062696989794986105f161059d82868d6106eb565b9a613e119a8b986105b3896040519b018b610430565b8c8a52888a019c6107488e396040519687958a8701997f0000000000000000000000000000000000000000000000000000000000000000958b610507565b03601f198101835282610430565b604051958694610617858701998a92519283916104bf565b850191518093858401906104bf565b010103601f198101835282610430565b5190209060405191602083019160ff60f81b83523060601b6021850152603584015260558301526055825261066c607583610430565b905190206001600160a01b031690565b337f00000000000000000000000000000000000000000000000000000000000000006001600160a01b031614806106e0575b156106dc5760131936013681116106c6573560601c90565b634e487b7160e01b600052601160045260246000fd5b3390565b5060143610156106ae565b916001602092610741926040519485928161070f818601998a8151938492016104bf565b8401610723825180938580850191016104bf565b01019060ff60f81b9060f81b16815203601e19810184520182610430565b5190209056fe6101a0806040523461078e57613e11803803809161001d8285610793565b833981019060e08183031261078e5780516001600160401b03811161078e57826100489183016107d9565b60208201516001600160401b03811161078e57836100679184016107d9565b91604081015160ff811680820361078e576100846060840161082d565b60808401519094906001600160401b03811161078e57876100a69186016107d9565b60a085015190976001600160401b03821161078e576100cc60c0916100d39388016107d9565b950161082d565b906040968751916100e48984610793565b60018352603160f81b6020840190815281519092906001600160401b0381116104b657600354600181811c91168015610784575b602082101461049657601f811161071f575b50806020601f82116001146106b9576000916106ae575b508160011b916000199060031b1c1916176003555b8051906001600160401b0382116104b65760045490600182811c921680156106a4575b60208310146104965781601f849311610634575b50602090601f83116001146105cc576000926105c1575b50508160011b916000199060031b1c1916176004555b60ff19600554166005556101cd81610a25565b610120526101da83610bb6565b6101405260208151910120918260e05251902080610100524660a05287519060208201927f8b73c3c69bb8fe3d512ecc4cf759cc79239f7b179b0ffacaa9a75d522b39400f84528983015260608201524660808201523060a082015260a0815261024560c082610793565b5190206080523060c05261016052601281116105ad57506101805283516001600160401b0381116104b657600f54600181811c911680156105a3575b602082101461049657601f811161053e575b50602094601f82116001146104d7579481929394956000926104cc575b50508160011b916000199060031b1c191617600f555b8051906001600160401b0382116104b657601054600181811c911680156104ac575b602082101461049657601f8111610431575b50602090601f83116001146103c457610347939291600091836103b9575b50508160011b916000199060031b1c1916176010555b61033781610841565b50610341816108d1565b5061097b565b50516130469081610d4b823960805181612162015260a0518161221f015260c0518161212c015260e051816121b1015261010051816121d70152610120518161104a01526101405181611073015261016051818181610dcc01528181610f6f01526124d2015261018051816108550152f35b015190503880610318565b90601f198316916010600052816000209260005b818110610419575091600193918561034797969410610400575b505050811b0160105561032e565b015160001960f88460031b161c191690553880806103f2565b929360206001819287860151815501950193016103d8565b60106000527f1b6847dc741a1b0cd08d278845f9d819d87b734759afb55fe2de5cb82a9ae672601f840160051c8101916020851061048c575b601f0160051c01905b81811061048057506102fa565b60008155600101610473565b909150819061046a565b634e487b7160e01b600052602260045260246000fd5b90607f16906102e8565b634e487b7160e01b600052604160045260246000fd5b0151905038806102b0565b601f19821695600f600052806000209160005b8881106105265750836001959697981061050d575b505050811b01600f556102c6565b015160001960f88460031b161c191690553880806104ff565b919260206001819286850151815501940192016104ea565b600f6000527f8d1108e10bcb7c27dddfc02ed9d693a074039d026cf4ea4240b40f7d581ac802601f830160051c81019160208410610599575b601f0160051c01905b81811061058d5750610293565b60008155600101610580565b9091508190610577565b90607f1690610281565b63ca95039160e01b60005260045260246000fd5b0151905038806101a4565b600460009081528281209350601f198516905b81811061061c5750908460019594939210610603575b505050811b016004556101ba565b015160001960f88460031b161c191690553880806105f5565b929360206001819287860151815501950193016105df565b60046000529091507f8a35acfbc15ff81a39ae7d344fd709f28e8600b4aa8c65c6b64bfe7fe36bd19b601f840160051c8101916020851061069a575b90601f859493920160051c01905b81811061068b575061018d565b6000815584935060010161067e565b9091508190610670565b91607f1691610179565b905083015138610141565b600360009081528181209250601f198416905b818110610707575090836001949392106106ee575b5050811b01600355610156565b85015160001960f88460031b161c1916905538806106e1565b9192602060018192868a0151815501940192016106cc565b60036000527fc2575a0e9e593c00f959f8c92f12db2869c3395a3b0502d05e2516446f71f85b601f830160051c8101916020841061077a575b601f0160051c01905b81811061076e575061012a565b60008155600101610761565b9091508190610758565b90607f1690610118565b600080fd5b601f909101601f19168101906001600160401b038211908210176104b657604052565b60005b8381106107c95750506000910152565b81810151838201526020016107b9565b81601f8201121561078e5780516001600160401b0381116104b6576040519261080c601f8301601f191660200185610793565b8184526020828401011161078e5761082a91602080850191016107b6565b90565b51906001600160a01b038216820361078e57565b6001600160a01b0381166000908152600080516020613df1833981519152602052604090205460ff166108cb576001600160a01b038181166000908152600080516020613df183398151915260205260409020805460ff191660011790556108a7610cf8565b16906001600160a01b03166000600080516020613d918339815191528180a4600190565b50600090565b6001600160a01b0381166000908152600080516020613db1833981519152602052604090205460ff166108cb576001600160a01b038181166000908152600080516020613db183398151915260205260409020805460ff19166001179055610937610cf8565b16906001600160a01b03167f47b7a6ef32f924153c4c0c2f871f8856bd114b4903c167827ef0f0694c583e27600080516020613d91833981519152600080a4600190565b6001600160a01b0381166000908152600080516020613dd1833981519152602052604090205460ff166108cb576001600160a01b038181166000908152600080516020613dd183398151915260205260409020805460ff191660011790556109e1610cf8565b16906001600160a01b03167f4f218fa1cf3180113024eb1bbca508696a5a0f0ecafaeea4da87c53e5d465892600080516020613d91833981519152600080a4600190565b90815160208110600014610aa0575090601f815111610a61576020815191015160208210610a51571790565b6000198260200360031b1b161790565b6044604051809263305a27a960e01b825260206004830152610a9281518092816024860152602086860191016107b6565b601f01601f19168101030190fd5b6001600160401b0381116104b657600754600181811c91168015610bac575b602082101461049657601f8111610b76575b50602092601f8211600114610b115792819293600092610b06575b50508160011b916000199060031b1c19161760075560ff90565b015190503880610aec565b601f198216936007600052806000209160005b868110610b5e5750836001959610610b45575b505050811b0160075560ff90565b015160001960f88460031b161c19169055388080610b37565b91926020600181928685015181550194019201610b24565b6007600052601f6020600020910160051c810190601f830160051c015b818110610ba05750610ad1565b60008155600101610b93565b90607f1690610abf565b90815160208110600014610be2575090601f815111610a61576020815191015160208210610a51571790565b6001600160401b0381116104b657600854600181811c91168015610cee575b602082101461049657601f8111610cb8575b50602092601f8211600114610c535792819293600092610c48575b50508160011b916000199060031b1c19161760085560ff90565b015190503880610c2e565b601f198216936008600052806000209160005b868110610ca05750836001959610610c87575b505050811b0160085560ff90565b015160001960f88460031b161c19169055388080610c79565b91926020600181928685015181550194019201610c66565b6008600052601f6020600020910160051c810190601f830160051c015b818110610ce25750610c13565b60008155600101610cd5565b90607f1690610c01565b610160516001600160a01b0316331480610d3f575b15610d3b576013193601368111610d25573560601c90565b634e487b7160e01b600052601160045260246000fd5b3390565b506014361015610d0d56fe6080604052600436101561001257600080fd5b60003560e01c806301e336671461033757806301ffc9a71461033257806306fdde031461032d578063095ea7b3146103285780630c7c8e89146103235780630cfbfcde1461031e57806318160ddd14610319578063224bbb711461031457806323b872dd1461030f578063248a9ca31461030a57806324bce60c146103055780632f2ff15d14610300578063313ce567146102fb5780633644e515146102f657806336568abe146102f157806339d319e5146102ec5780633a46b1a8146102e75780633da01325146102e25780633f4ba83a146102dd57806340c10f19146102d857806342966c68146102d35780634bf5d7e9146102ce578063515118df146102c9578063572b6c05146102c4578063587cde1e146102bf5780635c19a95c146102ba5780635c975abb146102b55780636fcfff45146102b057806370a08231146102ab57806379cc6790146102a65780637da0a877146102a15780637ecebe001461029c5780638456cb591461029757806384b0196e146102925780638e539e8c1461028d57806391d148541461028857806391ddadf41461028357806395d89b411461027e5780639933de0f146102795780639ab24eb014610274578063a0821be31461026f578063a217fddf1461026a578063a9059cbb14610265578063c3cda52014610260578063d05166501461025b578063d505accf14610256578063d547741f14610251578063dd62ed3e1461024c578063e5962195146102475763f1127ed81461024257600080fd5b61177a565b61173b565b6116e3565b6116a3565b61157a565b611540565b61142c565b6113e4565b6113c8565b6113a5565b61135c565b611321565b611279565b611256565b611203565b611132565b611031565b610fd8565b610f9e565b610f59565b610f2d565b610ef4565b610e8e565b610e6b565b610e42565b610e00565b610dac565b610d04565b610cb4565b610c90565b610b84565b610b09565b610a6b565b61097c565b6108ea565b610894565b610879565b61083b565b6107f6565b610706565b6106d1565b6106a8565b610600565b6105e2565b6105c3565b610588565b610550565b610473565b6103c8565b6103a7565b600435906001600160a01b038216820361035257565b600080fd5b602435906001600160a01b038216820361035257565b6060906003190112610352576004356001600160a01b038116810361035257906024356001600160a01b0381168103610352579060443590565b34610352576103c66103b83661036d565b916103c1611b74565b6118a1565b005b346103525760203660031901126103525760043563ffffffff60e01b811680910361035257602090637965db0b60e01b811490811561040d575b506040519015158152f35b6301ffc9a760e01b14905038610402565b919082519283825260005b84811061044a575050826000602080949584010152601f8019910116010190565b80602080928401015182828601015201610429565b90602061047092818152019061041e565b90565b346103525760003660031901126103525760405160006003546104958161199f565b808452906001811690811561052c57506001146104cd575b6104c9836104bd81850382611864565b6040519182918261045f565b0390f35b600360009081527fc2575a0e9e593c00f959f8c92f12db2869c3395a3b0502d05e2516446f71f85b939250905b808210610512575090915081016020016104bd6104ad565b9192600181602092548385880101520191019092916104fa565b60ff191660208086019190915291151560051b840190910191506104bd90506104ad565b346103525760403660031901126103525761057d61056c61033c565b602435906105786124cf565b611de8565b602060405160018152f35b346103525760003660031901126103525760206040517f4f218fa1cf3180113024eb1bbca508696a5a0f0ecafaeea4da87c53e5d4658928152f35b34610352576103c66105d43661036d565b916105dd611be0565b611a5c565b34610352576000366003190112610352576020600254604051908152f35b346103525760003660031901126103525760405160006010546106228161199f565b808452906001811690811561052c5750600114610649576104c9836104bd81850382611864565b601060009081527f1b6847dc741a1b0cd08d278845f9d819d87b734759afb55fe2de5cb82a9ae672939250905b80821061068e575090915081016020016104bd6104ad565b919260018160209254838588010152019101909291610676565b346103525761057d6106b93661036d565b916106cc836106c66124cf565b83611fab565b611ec3565b346103525760203660031901126103525760206106fe600435600052600660205260016040600020015490565b604051908152f35b346103525760403660031901126103525761071f61033c565b6024359060ff6107696107306124cf565b6001600160a01b031660009081527f8cece44ced69f38a17557f06a48d6e1a43d11406d45518d659faeeafd37a717d6020526040902090565b5416156107e5578161077a82611b2d565b106107c45760207fa065e63c631c86f1b9f66a4a2f63f2093bf1c2168d23290259dbd969e0222a459160018060a01b03169283600052600b825280604060002055604051908152a2005b6314884b4960e01b60009081526001600160a01b0391909116600452602490fd5b63bb4be5f360e01b60005260046000fd5b34610352576040366003190112610352576103c6600435610815610357565b9061083661083182600052600660205260016040600020015490565b611d00565b612085565b3461035257600036600319011261035257602060405160ff7f0000000000000000000000000000000000000000000000000000000000000000168152f35b346103525760003660031901126103525760206106fe612129565b34610352576040366003190112610352576004356108b0610357565b6001600160a01b036108c06124cf565b166001600160a01b038216036108d9576103c691612245565b63334bd91960e11b60005260046000fd5b346103525760203660031901126103525761090361033c565b61090b611c70565b6001600160a01b03166000818152600a602052604090205460ff16908161093b575b506040519015158152602090f35b80600052600a602052604060002060ff1981541690557f798117ec059ab8d319461ef2502b1f9d8a47cd966bfd1f3e23b6f26c30bebb77600080a23861092d565b346103525760403660031901126103525761099561033c565b6001600160a01b03166000908152600d602052604090206109b76024356122e0565b90600090805482938160058111610a0c575b50906020946109d892846126a6565b806109f25750505b6040516001600160d01b039091168152f35b6109fb90611b1e565b90825290829020015460301c6109e0565b94610a1686612548565b8603958611610a66576020956109d89385875265ffffffffffff8289892001541665ffffffffffff851610600014610a545750915b919250946109c9565b929150610a609061233b565b90610a4b565b611b08565b34610352576020366003190112610352576104c9610a8761033c565b610a8f611c70565b6001600160a01b03166000818152600a602052604090205460ff16908115610ac5575b5060405190151581529081906020820190565b80600052600a6020526040600020600160ff198254161790557fca86d8c91ca6d00afd863578cc633a0901fad724592f89649629fe65f61410d2600080a238610ab2565b3461035257600036600319011261035257610b22611b74565b60055460ff811615610b735760ff19166005557f5db9ee0a495bf2e6ff9c91a7834c1ba4fdd244a5e8aa4e537bd38aeae4b073aa6020610b606124cf565b6040516001600160a01b039091168152a1005b638dfc202b60e01b60005260046000fd5b346103525760006040366003190112610c8d57610b9f61033c565b9060243590610bac611be0565b6001600160a01b038316908115610c79575060008052600a6020527f13da86008ba1c6922daee3e07db95305ef49ebced9f5467a0b8613fcc6b343e35460ff16610c6357600052600a60205260ff60406000205416610c4557610c0f8183612df6565b600254916001600160d01b03808411610c2c576103c68383612b46565b630e58ae9360e11b600052600484905260245260446000fd5b635ff1c9b960e11b6000526001600160a01b03821660045260246000fd5b635ff1c9b960e11b600052600060045260246000fd5b63ec442f0560e01b81526004819052602490fd5b80fd5b34610352576020366003190112610352576103c6600435610caf6124cf565b612356565b34610352576000366003190112610352576104c96040805190610cd78183611864565b600e82526d06d6f64653d74696d657374616d760941b60208301525191829160208352602083019061041e565b34610352576000366003190112610352576040516000600f54610d268161199f565b808452906001811690811561052c5750600114610d4d576104c9836104bd81850382611864565b600f60009081527f8d1108e10bcb7c27dddfc02ed9d693a074039d026cf4ea4240b40f7d581ac802939250905b808210610d92575090915081016020016104bd6104ad565b919260018160209254838588010152019101909291610d7a565b34610352576020366003190112610352576020610dc761033c565b6040517f00000000000000000000000000000000000000000000000000000000000000006001600160a01b039081169216919091148152f35b34610352576020366003190112610352576001600160a01b03610e2161033c565b16600052600c602052602060018060a01b0360406000205416604051908152f35b34610352576020366003190112610352576103c6610e5e61033c565b610e666124cf565b6123e8565b3461035257600036600319011261035257602060ff600554166040519015158152f35b34610352576020366003190112610352576001600160a01b03610eaf61033c565b16600052600d60205260406000205463ffffffff8111610edb5760405163ffffffff9091168152602090f35b6306dfcc6560e41b600052602060045260245260446000fd5b346103525760203660031901126103525760206106fe610f1261033c565b6001600160a01b031660009081526020819052604090205490565b34610352576040366003190112610352576103c6610f4961033c565b60243590610caf826106c66124cf565b34610352576000366003190112610352576040517f00000000000000000000000000000000000000000000000000000000000000006001600160a01b03168152602090f35b34610352576020366003190112610352576001600160a01b03610fbf61033c565b1660005260096020526020604060002054604051908152f35b3461035257600036600319011261035257610ff1611b74565b610ff9612830565b600160ff1960055416176005557f62e78cea01bee320cd4e420270b5ea74000d11b0c9f74754ebdbfc544b05a2586020610b606124cf565b34610352576000366003190112610352576110d761106e7f000000000000000000000000000000000000000000000000000000000000000061284d565b6110977f00000000000000000000000000000000000000000000000000000000000000006128b1565b60206040516110a68282611864565b60008152816110e581830194601f198301368737604051978897600f60f81b895260e0858a015260e089019061041e565b90878203604089015261041e565b91466060870152306080870152600060a087015285830360c0870152519182815201929160005b82811061111b57505050500390f35b83518552869550938101939281019260010161110c565b346103525760203660031901126103525761114e6004356122e0565b6000600e54819281600581116111a8575b509060209361116f92600e6126a6565b8061118757506040516001600160d01b039091168152f35b90826111956111a393611b1e565b91600e815220015460301c90565b6109e0565b936111b285612548565b8503948511610a665760209461116f93600e865265ffffffffffff8288882001541665ffffffffffff8516106000146111f15750915b9192509361115f565b9291506111fd9061233b565b906111e8565b3461035257604036600319011261035257602060ff61124a600435611226610357565b906000526006845260406000209060018060a01b0316600052602052604060002090565b54166040519015158152f35b3461035257600036600319011261035257602060405165ffffffffffff42168152f35b3461035257600036600319011261035257604051600060045461129b8161199f565b808452906001811690811561052c57506001146112c2576104c9836104bd81850382611864565b600460009081527f8a35acfbc15ff81a39ae7d344fd709f28e8600b4aa8c65c6b64bfe7fe36bd19b939250905b808210611307575090915081016020016104bd6104ad565b9192600181602092548385880101520191019092916112ef565b346103525760003660031901126103525760206040517f47b7a6ef32f924153c4c0c2f871f8856bd114b4903c167827ef0f0694c583e278152f35b34610352576020366003190112610352576001600160a01b0361137d61033c565b16600052600d602052602060018060d01b0361139c604060002061246b565b16604051908152f35b346103525760203660031901126103525760206106fe6113c361033c565b611b2d565b3461035257600036600319011261035257602060405160008152f35b346103525760403660031901126103525761057d61140061033c565b602435906106cc6124cf565b6064359060ff8216820361035257565b6084359060ff8216820361035257565b346103525760c03660031901126103525761144561033c565b6024359060443561145461140c565b6084359060a4359280421161152c57916114d993916114cb6114d09460405160208101917fe48329057bfd03d55e49b547132e39cffd9c1820ad7b9d4c5307691425d15adf835260018060a01b038a1660408301528a60608301526080820152608081526114c360a082611864565b51902061249a565b6128e8565b90929192612991565b6001600160a01b038116600090815260096020526040902080546001810190915580930361150b576103c692506123e8565b90506301d4b62360e61b60005260018060a01b031660045260245260446000fd5b632341d78760e11b60005260045260246000fd5b34610352576020366003190112610352576001600160a01b0361156161033c565b16600052600b6020526020604060002054604051908152f35b346103525760e03660031901126103525761159361033c565b61159b610357565b60443590606435926115ab61141c565b60a43560c4359086421161168e576001600160a01b0384166000908152600960205260409020805460018101909155611651939061164c909860405160208101917f6e71edae12b1b97f4d1f60370fef10105fa2faae0126114a169c64845d6126c9835260018060a01b0389169b8c604084015260018060a01b038b1660608401528b608084015260a083015260c082015260c081526114c360e082611864565b6124c0565b936001600160a01b0385160361166b576103c69350611de8565b6325c0072360e11b6000526001600160a01b038085166004521660245260446000fd5b8663313c898160e11b60005260045260246000fd5b34610352576040366003190112610352576103c66004356116c2610357565b906116de61083182600052600660205260016040600020015490565b612245565b3461035257604036600319011261035257602061173261170161033c565b611709610357565b6001600160a01b0391821660009081526001855260408082209290931681526020919091522090565b54604051908152f35b34610352576020366003190112610352576001600160a01b0361175c61033c565b16600052600a602052602060ff604060002054166040519015158152f35b346103525760403660031901126103525761179361033c565b6024359063ffffffff82168203610352576104c9916117e3916117b4611b5b565b506117bd611b5b565b506001600160a01b03166000908152600d602052604090206117dd611b5b565b50612a13565b50604051906117f182611843565b5465ffffffffffff811680835260309190911c60209283019081526040805192835290516001600160d01b031692820192909252918291820190565b634e487b7160e01b600052604160045260246000fd5b6040810190811067ffffffffffffffff82111761185f57604052565b61182d565b90601f8019910116810190811067ffffffffffffffff82111761185f57604052565b90816020910312610352575190565b6040513d6000823e3d90fd5b90916001600160a01b0390911690811561198e576001600160a01b03831692831561198e578115611988576040516370a0823160e01b8152306004820152602081602481875afa8015611983578391600091611954575b5010611943578161192e7f8210728e7c071f615b840ee026032693858fbcd5e5359e67e438c890f59e56209361193e9386611d56565b6040519081529081906020820190565b0390a3565b637222ae5760e11b60005260046000fd5b611976915060203d60201161197c575b61196e8183611864565b810190611886565b386118f8565b503d611964565b611895565b50505050565b630f58058360e11b60005260046000fd5b90600182811c921680156119cf575b60208310146119b957565b634e487b7160e01b600052602260045260246000fd5b91607f16916119ae565b600092918154916119e98361199f565b8083529260018116908115611a3f5750600114611a0557505050565b60009081526020812093945091925b838310611a25575060209250010190565b600181602092949394548385870101520191019190611a14565b915050602093945060ff929192191683830152151560051b010190565b906001600160a01b03821690811561198e576001600160a01b03811692831561198e578415611af057826000526000602052846040600020541061194357611aa5918591611ec3565b7ff92c2203b7c3705a966df3ac08c40e3abcec988c5db987d1ad144cb13a2e828d611aeb6001600160a01b03611ad96124cf565b60405196875216949081906020820190565b0390a4565b5050505050565b60405190611b06604083611864565b565b634e487b7160e01b600052601160045260246000fd5b600019810191908211610a6657565b6001600160a01b031660009081526020818152604080832054600b909252909120548103908111610a665790565b60405190611b6882611843565b60006020838281520152565b611b7c6124cf565b6001600160a01b03811660009081527f54cdd369e4e8a8515e52ca72ec816c2101831ad1f18bf44102ed171459c9b4f8602052604090205460ff1615611bbf5750565b63e2517d3f60e01b60005260018060a01b0316600452600060245260446000fd5b611be86124cf565b6001600160a01b03811660009081527f47126590d8f3924481f49abd583f0b1fb5dbeb4aa81a45c542a2e8abe057ecf6602052604090205460ff1615611c2b5750565b63e2517d3f60e01b60009081526001600160a01b03919091166004527f47b7a6ef32f924153c4c0c2f871f8856bd114b4903c167827ef0f0694c583e27602452604490fd5b611c786124cf565b6001600160a01b03811660009081527f8cece44ced69f38a17557f06a48d6e1a43d11406d45518d659faeeafd37a717d602052604090205460ff1615611cbb5750565b63e2517d3f60e01b60009081526001600160a01b03919091166004527f4f218fa1cf3180113024eb1bbca508696a5a0f0ecafaeea4da87c53e5d465892602452604490fd5b611d086124cf565b60008281526006602090815260408083206001600160a01b038516845290915290205460ff1615611d37575050565b63e2517d3f60e01b60005260018060a01b031660045260245260446000fd5b60405163a9059cbb60e01b60208083019182526001600160a01b039490941660248301526044808301959095529381529092600091611d96606482611864565b519082855af115611895576000513d611ddf57506001600160a01b0381163b155b611dbe5750565b635274afe760e01b60009081526001600160a01b0391909116600452602490fd5b60011415611db7565b6001600160a01b03166000818152600a60205260409020549192909160ff16611eae578115611e98576001600160a01b038316928315611e8257817f8c5be1e5ebec7d5bd14f71427d1e84f3dd0314c0f7b2291e5b200ac8c7c3b92592611e7161193e9386600052600160205260406000209060018060a01b0316600052602052604060002090565b556040519081529081906020820190565b634a1406b160e11b600052600060045260246000fd5b63e602df0560e01b600052600060045260246000fd5b50635ff1c9b960e11b60005260045260246000fd5b909291906001600160a01b0381168015611f95576001600160a01b038516908115611f7f5783611ef284611b2d565b10611f6b5780600052600a60205260ff60406000205416611f575750600052600a60205260ff60406000205416611f39579283611f348383611b069697612f3e565b612c46565b635ff1c9b960e11b6000526001600160a01b03841660045260246000fd5b635ff1c9b960e11b60005260045260246000fd5b6314884b4960e01b60005260045260246000fd5b63ec442f0560e01b600052600060045260246000fd5b634b637e8f60e11b600052600060045260246000fd5b6001600160a01b03908116600081815260016020908152604080832094861683529390529190912091929091546000198110611fe75750505050565b8181106120625782600052600a60205260ff6040600020541661204d578215611e98576001600160a01b03841615611e8257612043926000526001602052039160406000209060018060a01b0316600052602052604060002090565b5538808080611988565b82635ff1c9b960e11b60005260045260246000fd5b83637dc7a0d960e11b60005260018060a01b031660045260245260445260646000fd5b60008181526006602090815260408083206001600160a01b038616845290915290205460ff166121225760008181526006602090815260408083206001600160a01b03861684529091529020805460ff191660011790556001600160a01b036120ec6124cf565b16916001600160a01b0316907f2f8788117e7eff1d82e926ec794901d17c78024a50270940304540a733656f0d600080a4600190565b5050600090565b307f00000000000000000000000000000000000000000000000000000000000000006001600160a01b0316148061221c575b15612184577f000000000000000000000000000000000000000000000000000000000000000090565b60405160208101907f8b73c3c69bb8fe3d512ecc4cf759cc79239f7b179b0ffacaa9a75d522b39400f82527f000000000000000000000000000000000000000000000000000000000000000060408201527f000000000000000000000000000000000000000000000000000000000000000060608201524660808201523060a082015260a0815261221660c082611864565b51902090565b507f0000000000000000000000000000000000000000000000000000000000000000461461215b565b60008181526006602090815260408083206001600160a01b038616845290915290205460ff16156121225760008181526006602090815260408083206001600160a01b03861684529091529020805460ff191690556001600160a01b036122aa6124cf565b16916001600160a01b0316907ff6391f5c32d9c69d2a47ea670b442974b53935d1edc7fd64eb21e047a839171b600080a4600190565b65ffffffffffff421680821015612323575065ffffffffffff811161230a5765ffffffffffff1690565b6306dfcc6560e41b600052603060045260245260446000fd5b90637669fc0f60e11b60005260045260245260446000fd5b9060018201809211610a6657565b91908201809211610a6657565b906001600160a01b0382168015611f95578161237184611b2d565b10611f6b5780600052600a60205260ff60406000205416611f57575060008052600a6020527f13da86008ba1c6922daee3e07db95305ef49ebced9f5467a0b8613fcc6b343e35460ff166123d257816123cd82611b0694612e6c565b612bca565b635ff1c9b960e11b600090815260045260246000fd5b6001600160a01b038181166000818152600c6020526040812080548685166001600160a01b031982168117909255611b06969416946124659390928691907f3134e8a2e6d97e929a7e54011ea5485d7d196dd5f0ba4d4ef95803e8e3fc257f9080a46001600160a01b031660009081526020819052604090205490565b9161270d565b8054908161247a575050600090565b81600019810111610a665760005260001990602060002001015460301c90565b6042906124a5612129565b906040519161190160f01b8352600283015260228201522090565b9161047093916114d0936128e8565b337f00000000000000000000000000000000000000000000000000000000000000006001600160a01b0316148061251d575b15612519576013193601368111610a66573560601c90565b3390565b506014361015612501565b8115612532570490565b634e487b7160e01b600052601260045260246000fd5b600181111561047057806001600160801b821015612669575b61260f6126056125fb6125f16125e76125dd6125cc6126169760048a600160401b61261b9c101561265c575b64010000000081101561264f575b62010000811015612642575b610100811015612635575b6010811015612628575b1015612620575b60030260011c90565b6125d6818b612528565b0160011c90565b6125d6818a612528565b6125d68189612528565b6125d68188612528565b6125d68187612528565b6125d68186612528565b8093612528565b821190565b900390565b60011b6125c3565b60041c9160021b916125bc565b60081c9160041b916125b2565b60101c9160081b916125a7565b60201c9160101b9161259b565b60401c9160201b9161258d565b505061261b61261661260f6126056125fb6125f16125e76125dd6125cc6126908a60801c90565b9850600160401b97506125619650505050505050565b91905b8382106126b65750505090565b9091928083169080841860011c8201809211610a66578460005265ffffffffffff82602060002001541665ffffffffffff8416106000146126fb5750925b91906126a9565b9392506127079061233b565b916126f4565b6001600160a01b03808316939291908116908185141580612827575b612734575050505050565b816127b9575b505082612749575b8080611af0565b6001600160a01b03166000908152600d602052604090207fdec2bacdd2f05b59de34da9b523dff8be42e5e38e818c82fdb0bae774387a72491612796916127909091612a41565b90612aab565b604080516001600160d01b039384168152919092166020820152a2388080612742565b6001600160a01b03166000908152600d602052604090207fdec2bacdd2f05b59de34da9b523dff8be42e5e38e818c82fdb0bae774387a72490612805906127ff86612a41565b90612a74565b604080516001600160d01b039384168152919092166020820152a2388061273a565b50831515612729565b60ff6005541661283c57565b63d93c066560e01b60005260046000fd5b60ff81146128975760ff811690601f82116128865760408051926128718285611864565b6020808552840191601f190136833783525290565b632cd44ac360e21b60005260046000fd5b50604051610470816128aa8160076119d9565b0382611864565b60ff81146128d55760ff811690601f82116128865760408051926128718285611864565b50604051610470816128aa8160086119d9565b91907f7fffffffffffffffffffffffffffffff5d576e7357a4501ddfe92f46681b20a08411612965579160209360809260ff60009560405194855216868401526040830152606082015282805260015afa15611983576000516001600160a01b038116156129595790600090600090565b50600090600190600090565b50505060009160039190565b6004111561297b57565b634e487b7160e01b600052602160045260246000fd5b61299a81612971565b806129a3575050565b6129ac81612971565b600181036129c55763f645eedf60e01b60005260046000fd5b6129ce81612971565b600281036129eb575063fce698f760e01b60005260045260246000fd5b806129f7600392612971565b146129ff5750565b6335e2f38360e21b60005260045260246000fd5b8054821015612a2b5760005260206000200190600090565b634e487b7160e01b600052603260045260246000fd5b6001600160d01b038111612a5b576001600160d01b031690565b6306dfcc6560e41b60005260d060045260245260446000fd5b90612a7e8261246b565b6001600160d01b0391821690821603908111610a6657612aa79165ffffffffffff421690612d1b565b9091565b90612ab58261246b565b6001600160d01b0391821690821601908111610a6657612aa79165ffffffffffff421690612d1b565b612ae8600e61246b565b6001600160d01b0391821690821601908111610a6657612aa7904265ffffffffffff16600e612d1b565b612b1c600e61246b565b6001600160d01b0391821690821603908111610a6657612aa7904265ffffffffffff16600e612d1b565b90611b0691612b5c612b5783612a41565b612ade565b50506001600160a01b03168015612bb2575b600c6020527f13649b2456f1b42fef0f0040b3aaeabcd21a76a0f3f5defd4f583839455116e85460009182526040909120546001600160a01b03908116911661270d565b612bc3612bbe83612a41565b612b12565b5050612b6e565b611b0691906001600160a01b03168015612c33575b612beb612bbe83612a41565b50506000908152600c60205260408120549080527f13649b2456f1b42fef0f0040b3aaeabcd21a76a0f3f5defd4f583839455116e8546001600160a01b03908116911661270d565b612c3f612b5783612a41565b5050612bdf565b611b0692916001600160a01b03909116908115612caa575b6001600160a01b0316908115612c97575b6000908152600c6020526040808220549282529020546001600160a01b03908116911661270d565b612ca3612bbe84612a41565b5050612c6f565b612cb6612b5784612a41565b5050612c5e565b8054600160401b81101561185f57612cda91600182018155612a13565b612d0557815160209092015160301b65ffffffffffff191665ffffffffffff92909216919091179055565b634e487b7160e01b600052600060045260246000fd5b80549293928015612dcb57612d32612d3f91611b1e565b8260005260206000200190565b8054603081901c9365ffffffffffff91821692918116808411612dba57879303612d865750612d8292509065ffffffffffff82549181199060301b169116179055565b9190565b915050612d8291612da6612d98611af7565b65ffffffffffff9093168352565b6001600160d01b0386166020830152612cbd565b632520601d60e01b60005260046000fd5b5090612df091612ddc612d98611af7565b6001600160d01b0385166020830152612cbd565b60009190565b90612dff612830565b60025490808201809211610a6657602060008051602061301a8339815191529160009360025560018060a01b0385169485158514612e4a575080600254036002555b604051908152a3565b6001600160a01b03166000908152602081905260409020818154019055612e41565b90612e75612830565b6001600160a01b0382169182612ec0575090600254828101809111610a665760009260008051602061301a833981519152916002555b600280548290039055604051908152602090a3565b6001600160a01b038116600090815260208190526040902054828110612f19579160008051602061301a83398151915291612f138260009695039160018060a01b03166000526000602052604060002090565b55612eab565b63391434e360e21b6000526001600160a01b0390911660045260245260445260646000fd5b9091612f48612830565b6001600160a01b0382169182612fc0575061193e81612f80612f7b60008051602061301a83398151915294600254612349565b600255565b6001600160a01b0385169485612f9e575061192e8160025403600255565b6001600160a01b0316600090815260208190526040902081815401905561192e565b6001600160a01b038116600090815260208190526040902054828110612f19579161193e916130138260008051602061301a83398151915295039160018060a01b03166000526000602052604060002090565b55612f8056feddf252ad1be2c89b69c2b068fc378daa952ba7f163c4a11628f55a4df523b3efa164736f6c634300081c000a2f8788117e7eff1d82e926ec794901d17c78024a50270940304540a733656f0d47126590d8f3924481f49abd583f0b1fb5dbeb4aa81a45c542a2e8abe057ecf68cece44ced69f38a17557f06a48d6e1a43d11406d45518d659faeeafd37a717d54cdd369e4e8a8515e52ca72ec816c2101831ad1f18bf44102ed171459c9b4f8a164736f6c634300081c000a",
    "linkReferences": {}
  },
  "methodIdentifiers": {
    "create(string,string,uint8,string,string)": "15a0216d",
    "isAddressDeployed(address)": "4e7f6dea",
    "isFactoryToken(address)": "a4b7914e",
    "isTrustedForwarder(address)": "572b6c05",
    "predictAddress(address,string,string,uint8,string,string)": "73f21197",
    "trustedForwarder()": "7da0a877"
  },
  "id": 10
}