{
  "abi": [
    {
      "type": "constructor",
      "inputs": [
        {
          "name": "forwarder",
          "type": "address",
          "internalType": "address"
        }
      ],
      "stateMutability": "nonpayable"
    },
    {
      "type": "function",
      "name": "allSchedules",
      "inputs": [
        {
          "name": "",
          "type": "uint256",
          "internalType": "uint256"
        }
      ],
      "outputs": [
        {
          "name": "",
          "type": "address",
          "internalType": "contract FixedYield"
        }
      ],
      "stateMutability": "view"
    },
    {
      "type": "function",
      "name": "allSchedulesLength",
      "inputs": [],
      "outputs": [
        {
          "name": "",
          "type": "uint256",
          "internalType": "uint256"
        }
      ],
      "stateMutability": "view"
    },
    {
      "type": "function",
      "name": "create",
      "inputs": [
        {
          "name": "token",
          "type": "address",
          "internalType": "contract ERC20Yield"
        },
        {
          "name": "startTime",
          "type": "uint256",
          "internalType": "uint256"
        },
        {
          "name": "endTime",
          "type": "uint256",
          "internalType": "uint256"
        },
        {
          "name": "rate",
          "type": "uint256",
          "internalType": "uint256"
        },
        {
          "name": "interval",
          "type": "uint256",
          "internalType": "uint256"
        }
      ],
      "outputs": [
        {
          "name": "",
          "type": "address",
          "internalType": "address"
        }
      ],
      "stateMutability": "nonpayable"
    },
    {
      "type": "function",
      "name": "isTrustedForwarder",
      "inputs": [
        {
          "name": "forwarder",
          "type": "address",
          "internalType": "address"
        }
      ],
      "outputs": [
        {
          "name": "",
          "type": "bool",
          "internalType": "bool"
        }
      ],
      "stateMutability": "view"
    },
    {
      "type": "function",
      "name": "trustedForwarder",
      "inputs": [],
      "outputs": [
        {
          "name": "",
          "type": "address",
          "internalType": "address"
        }
      ],
      "stateMutability": "view"
    },
    {
      "type": "event",
      "name": "FixedYieldCreated",
      "inputs": [
        {
          "name": "schedule",
          "type": "address",
          "indexed": true,
          "internalType": "address"
        },
        {
          "name": "creator",
          "type": "address",
          "indexed": true,
          "internalType": "address"
        }
      ],
      "anonymous": false
    },
    {
      "type": "error",
      "name": "InvalidUnderlyingAsset",
      "inputs": []
    },
    {
      "type": "error",
      "name": "NotAuthorized",
      "inputs": []
    },
    {
      "type": "error",
      "name": "ScheduleSetupFailed",
      "inputs": []
    },
    {
      "type": "error",
      "name": "TokenNotYieldEnabled",
      "inputs": []
    }
  ],
  "bytecode": {
    "object": "0x60a03461007f57601f6125d738819003918201601f19168301916001600160401b038311848410176100845780849260209460405283398101031261007f57516001600160a01b038116810361007f5760805260405161253c908161009b8239608051818181610177015281816103280152818161038301526104800152f35b600080fd5b634e487b7160e01b600052604160045260246000fdfe6080604052600436101561001257600080fd5b6000803560e01c806321eb9acc146103d257806353ace7d7146103b5578063572b6c05146103575780637da0a877146103125763f9b6b0c41461005457600080fd5b3461030f5760a036600319011261030f576004356001600160a01b038116919082810361029157602435604435606435926084359061009161047d565b604051635bee2c7560e11b81526001600160a01b0390911660048201526020816024818b5afa9081156103045787916102c5575b50156102b65760405160208101916bffffffffffffffffffffffff199060601b1682528460348201528360548201528560748201528260948201526094815261010f60b482610445565b5190209361011b61047d565b9260405194612043948587019587871067ffffffffffffffff8811176102a257918795939160e09795936104ed88398b865260018060a01b0316602086015260408501526060840152608083015260a082015260018060a01b037f00000000000000000000000000000000000000000000000000000000000000001660c082015203019083f58015610295576001600160a01b031691803b1561029157818091602460405180948193631aa4e8e760e31b83528860048401525af1801561028657610276575b50906001600160a01b036101f361047d565b16817f1fac60aa56c58a77c2d4d8426b74534ab0e0180b06417335e11d8281800068e08480a38154680100000000000000008110156102625780602093600161023e93019055610415565b81546001600160a01b0360039290921b91821b19169083901b179055604051908152f35b634e487b7160e01b83526041600452602483fd5b8161028091610445565b386101e1565b6040513d84823e3d90fd5b5080fd5b50604051903d90823e3d90fd5b634e487b7160e01b8a52604160045260248afd5b63ea8e4eb560e01b8652600486fd5b90506020813d6020116102fc575b816102e060209383610445565b810103126102f8575180151581036102f857386100c5565b8680fd5b3d91506102d3565b6040513d89823e3d90fd5b80fd5b503461030f578060031936011261030f576040517f00000000000000000000000000000000000000000000000000000000000000006001600160a01b03168152602090f35b503461030f57602036600319011261030f576004356001600160a01b03811690819003610291576040517f00000000000000000000000000000000000000000000000000000000000000006001600160a01b03169091148152602090f35b503461030f578060031936011261030f5760209054604051908152f35b503461030f57602036600319011261030f5760043590805482101561030f5760206103fc83610415565b905460405160039290921b1c6001600160a01b03168152f35b60005481101561042f576000805260206000200190600090565b634e487b7160e01b600052603260045260246000fd5b90601f8019910116810190811067ffffffffffffffff82111761046757604052565b634e487b7160e01b600052604160045260246000fd5b337f00000000000000000000000000000000000000000000000000000000000000006001600160a01b031614806104e1575b156104dd5760131936013681116104c7573560601c90565b634e487b7160e01b600052601160045260246000fd5b3390565b5060143610156104af56fe61016080604052346103ad5760e081612043803803809161002082856103b2565b8339810103126103ad57610033816103eb565b90610040602082016103eb565b90604081015160608201519360808301519061006360c060a086015195016103eb565b6001805460ff191690556080526001600160a01b0316801561039c574283111561038b578286111561037a5781156103695783156103585760208160049260a052604051928380926376d5de8560e01b82525afa90811561034c57600091610303575b5060c08190526001600160a01b0316156102f2578160e0528461010052610120528161014052808403938085116102dc57826000950492600184018094116102c857855b8481106102065761011a866103ff565b50604051611b4690816104dd823960805181818161077f015281816108540152611ae3015260a0518181816101ab015281816108e2015281816112e40152818161150101526117ec015260c0518181816102700152818161056b015281816107e201528181610a170152610ed7015260e051818181610fb0015281816110f8015281816111970152818161145f01526115fd0152610100518181816104ce01528181611120015281816111bf0152818161148801526117b7015261012051818181610ba10152610db101526101405181818161067001528181611155015281816111f101526115d50152f35b600181018082116102b457828102908082048414901517156102b45784018085116102b4578381116102ad575b6002546801000000000000000081101561029957600181018060025581101561028557600289527f405787fa12a823e0f2b7631cc41b3ba8828b3321ca811111fa75cd3aa3bb5ace015560010161010a565b634e487b7160e01b89526032600452602489fd5b634e487b7160e01b89526041600452602489fd5b5082610233565b634e487b7160e01b88526011600452602488fd5b634e487b7160e01b86526011600452602486fd5b634e487b7160e01b600052601160045260246000fd5b634e81208360e01b60005260046000fd5b6020813d602011610344575b8161031c602093836103b2565b810103126103405751906001600160a01b038216820361033d5750386100c6565b80fd5b5080fd5b3d915061030f565b6040513d6000823e3d90fd5b6305fabb6160e41b60005260046000fd5b636a43f8d160e01b60005260046000fd5b63398145cf60e11b60005260046000fd5b630bf784c760e01b60005260046000fd5b63c1ab6dc160e01b60005260046000fd5b600080fd5b601f909101601f19168101906001600160401b038211908210176103d557604052565b634e487b7160e01b600052604160045260246000fd5b51906001600160a01b03821682036103ad57565b6001600160a01b0381166000908152600080516020612023833981519152602052604090205460ff1661049b576001600160a01b03818116600090815260008051602061202383398151915260205260409020805460ff191660011790556104656104a1565b16906001600160a01b031660007f2f8788117e7eff1d82e926ec794901d17c78024a50270940304540a733656f0d8180a4600190565b50600090565b6080516001600160a01b03163314806104d1575b156104cd5760131936013681116102dc573560601c90565b3390565b5060143610156104b556fe608080604052600436101561001357600080fd5b60003560e01c90816301ffc9a714611009575080630604061814610fee5780630898c94914610fd35780630b97bc8614610f985780631cf7e14914610e7f5780631f28d52c14610e64578063248a9ca314610e3757806327614ec414610dd45780632c4e722e14610d995780632f2ff15d14610d5957806336568abe14610d035780633f4ba83a14610c9b578063406cf22914610888578063572b6c05146108345780635c975abb146108115780637158da7c146107cc5780637b07882e146107ae5780637da0a87714610769578063817ea1441461074b5780638456cb59146106e057806391d1485414610693578063947a36fb14610658578063978fd53b1461063d5780639a95299a1461061a5780639fc2f65a146105ff578063a206b5501461050d578063a217fddf146104f1578063c24a0f8b146104b6578063c54293aa14610427578063d1ae38b81461040a578063d547741f146103c3578063e0ecad5a14610220578063f68e5218146101df5763fc0c546a1461019557600080fd5b346101da5760003660031901126101da576040517f00000000000000000000000000000000000000000000000000000000000000006001600160a01b03168152602090f35b600080fd5b346101da5760003660031901126101da5760206102186101fd611ae0565b6001600160a01b031660009081526003602052604090205490565b604051908152f35b346101da5760203660031901126101da5761023961105c565b6102416118e1565b6102496119a1565b6001600160a01b0381169081156103b2576040516370a0823160e01b8152306004820152907f00000000000000000000000000000000000000000000000000000000000000006001600160a01b0316602083602481845afa92831561036f5760009361037b575b50821561032f5760405163a9059cbb60e01b81526001600160a01b03909216600483015260248201839052602090829081600081604481015b03925af190811561036f57600091610340575b501561032f5760207f6f50cd6d1a8ee055bfba8d1998a1e71e64c3a0791f04001b50f038e3c106590991604051908152a2005b6354ed247f60e11b60005260046000fd5b610362915060203d602011610368575b61035a8183611230565b810190611268565b836102fc565b503d610350565b6040513d6000823e3d90fd5b90926020823d6020116103aa575b8161039660209383611230565b810103126103a757505191846102b0565b80fd5b3d9150610389565b634e81208360e01b60005260046000fd5b346101da5760403660031901126101da576104086004356103e2611072565b906104036103fe82600052600060205260016040600020015490565b61194d565b611a50565b005b346101da5760003660031901126101da5760206040516127108152f35b346101da5760003660031901126101da5760405180602060025491828152019060026000527f405787fa12a823e0f2b7631cc41b3ba8828b3321ca811111fa75cd3aa3bb5ace9060005b8181106104a05761049c8561048881870382611230565b604051918291602083526020830190611088565b0390f35b8254845260209093019260019283019201610471565b346101da5760003660031901126101da5760206040517f00000000000000000000000000000000000000000000000000000000000000008152f35b346101da5760003660031901126101da57602060405160008152f35b346101da5760203660031901126101da576004356105296119a1565b610531611ae0565b6040516323b872dd60e01b81526001600160a01b0391821660048201523060248201526044810183905290602090829060649082906000907f0000000000000000000000000000000000000000000000000000000000000000165af190811561036f576000916105e0575b501561032f577fabda30aae4846dafeb67b57e0f9fb5af47de85525570e48ced61a3c99a4f8daf60206001600160a01b036105d5611ae0565b1692604051908152a2005b6105f9915060203d6020116103685761035a8183611230565b8261059c565b346101da5760003660031901126101da5760206102186117b5565b346101da5760203660031901126101da57602061021861063861105c565b6114cf565b346101da5760003660031901126101da57602061021861145d565b346101da5760003660031901126101da5760206040517f00000000000000000000000000000000000000000000000000000000000000008152f35b346101da5760403660031901126101da576106ac611072565b600435600052600060205260406000209060018060a01b0316600052602052602060ff604060002054166040519015158152f35b346101da5760003660031901126101da576106f96118e1565b6107016119a1565b600160ff19815416176001557f62e78cea01bee320cd4e420270b5ea74000d11b0c9f74754ebdbfc544b05a2586020610738611ae0565b6040516001600160a01b039091168152a1005b346101da5760203660031901126101da5760206102186101fd61105c565b346101da5760003660031901126101da576040517f00000000000000000000000000000000000000000000000000000000000000006001600160a01b03168152602090f35b346101da5760003660031901126101da576020610218610638611ae0565b346101da5760003660031901126101da576040517f00000000000000000000000000000000000000000000000000000000000000006001600160a01b03168152602090f35b346101da5760003660031901126101da57602060ff600154166040519015158152f35b346101da5760203660031901126101da57602061084f61105c565b6040517f00000000000000000000000000000000000000000000000000000000000000006001600160a01b039081169216919091148152f35b346101da5760003660031901126101da576108a16119a1565b6108a961145d565b8015610af4576001600160a01b036108bf611ae0565b16600052600360205260406000205460018101809111610c3d57818111610af4577f00000000000000000000000000000000000000000000000000000000000000006001600160a01b031690610913611ae0565b6040516340f2de1b60e11b81526001600160a01b03909116600482015291602083602481845afa92831561036f57600093610c67575b5060009061095783866110bc565b9360018501809511610c535761096c85611445565b9461097a6040519687611230565b808652610989601f1991611445565b01366020870137835b86811115610b05575050508015610af4576001600160a01b036109b3611ae0565b166000526003602052836040600020556109cf816004546110e9565b600455610a116020826109e0611ae0565b60405163a9059cbb60e01b81526001600160a01b039091166004820152602481019190915291829081906044820190565b038160007f00000000000000000000000000000000000000000000000000000000000000006001600160a01b03165af190811561036f57600091610ad5575b5015610ac4577fac533f62a45585a7d7d8d61b133ebebce62c6d186f7c8204ca5f8adcfbca78d892610ab9610a836112bd565b916001600160a01b03610a94611ae0565b169660405195869586526020860152604085015260a0606085015260a0840190611088565b9060808301520390a2005b631a8f8c7560e31b60005260046000fd5b610aee915060203d6020116103685761035a8183611230565b85610a50565b633dfa692b60e11b60005260046000fd5b610b0d611ae0565b6000198201828111610c3d57610b5f91610b2860209261128f565b905460405163277166bf60e11b81526001600160a01b03909316600484015260039190911b1c602482015291829081906044820190565b0381875afa90811561036f57600091610c0c575b5080610b89575b50610b8490611280565b610992565b612710610bc6610b9f85610bce949895986112aa565b7f0000000000000000000000000000000000000000000000000000000000000000906112aa565b0480926110e9565b93610bd986826110bc565b918751831015610bf6576020610b849360051b8901015290610b7a565b634e487b7160e01b600052603260045260246000fd5b906020823d8211610c35575b81610c2560209383611230565b810103126103a757505188610b73565b3d9150610c18565b634e487b7160e01b600052601160045260246000fd5b634e487b7160e01b83526011600452602483fd5b9092506020813d602011610c93575b81610c8360209383611230565b810103126101da57519184610949565b3d9150610c76565b346101da5760003660031901126101da57610cb46118e1565b60015460ff811615610cf25760ff19166001557f5db9ee0a495bf2e6ff9c91a7834c1ba4fdd244a5e8aa4e537bd38aeae4b073aa6020610738611ae0565b638dfc202b60e01b60005260046000fd5b346101da5760403660031901126101da57610d1c611072565b6001600160a01b03610d2c611ae0565b166001600160a01b03821603610d485761040890600435611a50565b63334bd91960e11b60005260046000fd5b346101da5760403660031901126101da57610408600435610d78611072565b90610d946103fe82600052600060205260016040600020015490565b6119be565b346101da5760003660031901126101da5760206040517f00000000000000000000000000000000000000000000000000000000000000008152f35b346101da5760203660031901126101da5760043580158015610e2c575b610e1b576000198101908111610c3d57610e0c60209161128f565b90549060031b1c604051908152f35b6302e8f35960e31b60005260046000fd5b506002548111610df1565b346101da5760203660031901126101da576020610218600435600052600060205260016040600020015490565b346101da5760003660031901126101da5760206102186112bd565b346101da5760403660031901126101da57610e9861105c565b602435610ea36118e1565b610eab6119a1565b6001600160a01b0382169182156103b2578115610f87576040516370a0823160e01b81523060048201527f00000000000000000000000000000000000000000000000000000000000000006001600160a01b031690602081602481855afa90811561036f57600091610f55575b50831161032f5760405163a9059cbb60e01b81526001600160a01b03909216600483015260248201839052602090829081600081604481016102e9565b90506020813d602011610f7f575b81610f7060209383611230565b810103126101da575185610f18565b3d9150610f63565b63162908e360e11b60005260046000fd5b346101da5760003660031901126101da5760206040517f00000000000000000000000000000000000000000000000000000000000000008152f35b346101da5760003660031901126101da576020610218611195565b346101da5760003660031901126101da5760206102186110f6565b346101da5760203660031901126101da576004359063ffffffff60e01b82168092036101da57602091637965db0b60e01b811490811561104b575b5015158152f35b6301ffc9a760e01b14905083611044565b600435906001600160a01b03821682036101da57565b602435906001600160a01b03821682036101da57565b906020808351928381520192019060005b8181106110a65750505090565b8251845260209384019390920191600101611099565b91908203918211610c3d57565b81156110d3570490565b634e487b7160e01b600052601260045260246000fd5b91908201809211610c3d57565b7f000000000000000000000000000000000000000000000000000000000000000080421061118f577f00000000000000000000000000000000000000000000000000000000000000004210156111885761115361117a91426110bc565b7f0000000000000000000000000000000000000000000000000000000000000000906110c9565b60018101809111610c3d5790565b5060025490565b50600090565b7f0000000000000000000000000000000000000000000000000000000000000000804210611225577f000000000000000000000000000000000000000000000000000000000000000042101561118f576111ef90426110bc565b7f000000000000000000000000000000000000000000000000000000000000000080156110d357806112229206906110bc565b90565b6112229042906110bc565b90601f8019910116810190811067ffffffffffffffff82111761125257604052565b634e487b7160e01b600052604160045260246000fd5b908160209103126101da575180151581036101da5790565b6000198114610c3d5760010190565b600254811015610bf657600260005260206000200190600090565b81810292918115918404141715610c3d57565b6112c561145d565b801561118f576040516340f2de1b60e11b8152600060048201819052917f00000000000000000000000000000000000000000000000000000000000000006001600160a01b031691602081602481865afa90811561143a578491611404575b5060015b8281111561134f57505050506004548082111561134857611222916110bc565b5050600090565b6000198101818111610c3d576113649061128f565b9054604051630981b24d60e41b815260039290921b1c6004820152602081602481885afa90811561036f576000916113d3575b50806113ad575b506113a890611280565b611328565b6113a891956127106113c5610b9f866113cc956112aa565b04906110e9565b949061139e565b906020823d82116113fc575b816113ec60209383611230565b810103126103a757505138611397565b3d91506113df565b90506020813d602011611432575b8161141f60209383611230565b8101031261142e575138611324565b8380fd5b3d9150611412565b6040513d86823e3d90fd5b67ffffffffffffffff81116112525760051b60200190565b7f00000000000000000000000000000000000000000000000000000000000000008042111561118f577f0000000000000000000000000000000000000000000000000000000000000000421015611188576111536114bb91426110bc565b600254808210156114ca575090565b905090565b6114d76110f6565b80156117a4576040516340f2de1b60e11b81526001600160a01b03838116600483018190529192917f000000000000000000000000000000000000000000000000000000000000000090911690602084602481855afa93841561036f57600094611770575b508060005260036020526040600020549460018601809611610c3d5761156061145d565b906000965b828111156116a6575050506020906024604051809481936370a0823160e01b835260048301525afa90811561036f57600091611674575b50600092816115b2575b505050611222916110e9565b600019830193928411610c53579061162d610b9f611632936116276116216115fb7f0000000000000000000000000000000000000000000000000000000000000000809a6112aa565b7f00000000000000000000000000000000000000000000000000000000000000006110e9565b426110bc565b936112aa565b6112aa565b90612710830292808404612710149015171561166057506112229291611657916110c9565b909138806115a6565b634e487b7160e01b81526011600452602490fd5b906020823d60201161169e575b8161168e60209383611230565b810103126103a75750513861159c565b3d9150611681565b6000198101818111610c3d5760206116c06116f69261128f565b905460405163277166bf60e11b81526001600160a01b038716600482015260039290921b1c602482015291829081906044820190565b0381895afa90811561036f5760009161173f575b5080611720575b5061171b90611280565b611565565b61171b91986127106113c5610b9f8b611738956112aa565b9790611711565b906020823d8211611768575b8161175860209383611230565b810103126103a75750513861170a565b3d915061174b565b90936020823d60201161179c575b8161178b60209383611230565b810103126103a7575051923861153c565b3d915061177e565b63b27f716560e01b60005260046000fd5b7f00000000000000000000000000000000000000000000000000000000000000004210156118dc576040516318160ddd60e01b81527f00000000000000000000000000000000000000000000000000000000000000006001600160a01b0316602082600481845afa91821561036f576000926118a7575b50906020602492604051938480926340f2de1b60e11b8252600060048301525afa91821561036f57600092611871575b50610b9f6127109261186d926112aa565b0490565b91506020823d60201161189f575b8161188c60209383611230565b810103126101da57905190610b9f61185c565b3d915061187f565b91506020823d6020116118d4575b816118c260209383611230565b810103126101da57905190602061182c565b3d91506118b5565b600090565b6118e9611ae0565b6001600160a01b03811660009081527fad3228b676f7d3cd4284a5443f17f1962b36e491b30a40b2405849e597ba5fb5602052604090205460ff161561192c5750565b63e2517d3f60e01b60005260018060a01b0316600452600060245260446000fd5b611955611ae0565b6000828152602081815260408083206001600160a01b038516845290915290205460ff1615611982575050565b63e2517d3f60e01b60005260018060a01b031660045260245260446000fd5b60ff600154166119ad57565b63d93c066560e01b60005260046000fd5b6000818152602081815260408083206001600160a01b038616845290915290205460ff16611348576000818152602081815260408083206001600160a01b0386811685529252909120805460ff19166001179055611a1a611ae0565b16916001600160a01b0316907f2f8788117e7eff1d82e926ec794901d17c78024a50270940304540a733656f0d600080a4600190565b6000818152602081815260408083206001600160a01b038616845290915290205460ff1615611348576000818152602081815260408083206001600160a01b0386811685529252909120805460ff19169055611aaa611ae0565b16916001600160a01b0316907ff6391f5c32d9c69d2a47ea670b442974b53935d1edc7fd64eb21e047a839171b600080a4600190565b337f00000000000000000000000000000000000000000000000000000000000000006001600160a01b03161480611b2e575b15611b2a576013193601368111610c3d573560601c90565b3390565b506014361015611b1256fea164736f6c634300081c000aad3228b676f7d3cd4284a5443f17f1962b36e491b30a40b2405849e597ba5fb5a164736f6c634300081c000a",
    "linkReferences": {}
  },
  "methodIdentifiers": {
    "allSchedules(uint256)": "21eb9acc",
    "allSchedulesLength()": "53ace7d7",
    "create(address,uint256,uint256,uint256,uint256)": "f9b6b0c4",
    "isTrustedForwarder(address)": "572b6c05",
    "trustedForwarder()": "7da0a877"
  },
  "id": 12
}