{"abi":[{"type":"constructor","inputs":[{"name":"name","type":"string","internalType":"string"},{"name":"symbol","type":"string","internalType":"string"},{"name":"decimals_","type":"uint8","internalType":"uint8"},{"name":"initialOwner","type":"address","internalType":"address"},{"name":"managementFeeBps_","type":"uint16","internalType":"uint16"},{"name":"fundClass_","type":"string","internalType":"string"},{"name":"fundCategory_","type":"string","internalType":"string"},{"name":"forwarder","type":"address","internalType":"address"}],"stateMutability":"nonpayable"},{"type":"function","name":"CLOCK_MODE","inputs":[],"outputs":[{"name":"","type":"string","internalType":"string"}],"stateMutability":"view"},{"type":"function","name":"DEFAULT_ADMIN_ROLE","inputs":[],"outputs":[{"name":"","type":"bytes32","internalType":"bytes32"}],"stateMutability":"view"},{"type":"function","name":"DOMAIN_SEPARATOR","inputs":[],"outputs":[{"name":"","type":"bytes32","internalType":"bytes32"}],"stateMutability":"view"},{"type":"function","name":"SUPPLY_MANAGEMENT_ROLE","inputs":[],"outputs":[{"name":"","type":"bytes32","internalType":"bytes32"}],"stateMutability":"view"},{"type":"function","name":"USER_MANAGEMENT_ROLE","inputs":[],"outputs":[{"name":"","type":"bytes32","internalType":"bytes32"}],"stateMutability":"view"},{"type":"function","name":"allowance","inputs":[{"name":"owner","type":"address","internalType":"address"},{"name":"spender","type":"address","internalType":"address"}],"outputs":[{"name":"","type":"uint256","internalType":"uint256"}],"stateMutability":"view"},{"type":"function","name":"approve","inputs":[{"name":"spender","type":"address","internalType":"address"},{"name":"value","type":"uint256","internalType":"uint256"}],"outputs":[{"name":"","type":"bool","internalType":"bool"}],"stateMutability":"nonpayable"},{"type":"function","name":"availableBalance","inputs":[{"name":"account","type":"address","internalType":"address"}],"outputs":[{"name":"available","type":"uint256","internalType":"uint256"}],"stateMutability":"view"},{"type":"function","name":"balanceOf","inputs":[{"name":"account","type":"address","internalType":"address"}],"outputs":[{"name":"","type":"uint256","internalType":"uint256"}],"stateMutability":"view"},{"type":"function","name":"blockUser","inputs":[{"name":"user","type":"address","internalType":"address"}],"outputs":[{"name":"","type":"bool","internalType":"bool"}],"stateMutability":"nonpayable"},{"type":"function","name":"blocked","inputs":[{"name":"account","type":"address","internalType":"address"}],"outputs":[{"name":"","type":"bool","internalType":"bool"}],"stateMutability":"nonpayable"},{"type":"function","name":"burn","inputs":[{"name":"value","type":"uint256","internalType":"uint256"}],"outputs":[],"stateMutability":"nonpayable"},{"type":"function","name":"burnFrom","inputs":[{"name":"account","type":"address","internalType":"address"},{"name":"value","type":"uint256","internalType":"uint256"}],"outputs":[],"stateMutability":"nonpayable"},{"type":"function","name":"checkpoints","inputs":[{"name":"account","type":"address","internalType":"address"},{"name":"pos","type":"uint32","internalType":"uint32"}],"outputs":[{"name":"","type":"tuple","internalType":"struct Checkpoints.Checkpoint208","components":[{"name":"_key","type":"uint48","internalType":"uint48"},{"name":"_value","type":"uint208","internalType":"uint208"}]}],"stateMutability":"view"},{"type":"function","name":"clawback","inputs":[{"name":"from","type":"address","internalType":"address"},{"name":"to","type":"address","internalType":"address"},{"name":"amount","type":"uint256","internalType":"uint256"}],"outputs":[],"stateMutability":"nonpayable"},{"type":"function","name":"clock","inputs":[],"outputs":[{"name":"","type":"uint48","internalType":"uint48"}],"stateMutability":"view"},{"type":"function","name":"collectManagementFee","inputs":[],"outputs":[{"name":"","type":"uint256","internalType":"uint256"}],"stateMutability":"nonpayable"},{"type":"function","name":"decimals","inputs":[],"outputs":[{"name":"","type":"uint8","internalType":"uint8"}],"stateMutability":"view"},{"type":"function","name":"delegate","inputs":[{"name":"delegatee","type":"address","internalType":"address"}],"outputs":[],"stateMutability":"nonpayable"},{"type":"function","name":"delegateBySig","inputs":[{"name":"delegatee","type":"address","internalType":"address"},{"name":"nonce","type":"uint256","internalType":"uint256"},{"name":"expiry","type":"uint256","internalType":"uint256"},{"name":"v","type":"uint8","internalType":"uint8"},{"name":"r","type":"bytes32","internalType":"bytes32"},{"name":"s","type":"bytes32","internalType":"bytes32"}],"outputs":[],"stateMutability":"nonpayable"},{"type":"function","name":"delegates","inputs":[{"name":"account","type":"address","internalType":"address"}],"outputs":[{"name":"","type":"address","internalType":"address"}],"stateMutability":"view"},{"type":"function","name":"eip712Domain","inputs":[],"outputs":[{"name":"fields","type":"bytes1","internalType":"bytes1"},{"name":"name","type":"string","internalType":"string"},{"name":"version","type":"string","internalType":"string"},{"name":"chainId","type":"uint256","internalType":"uint256"},{"name":"verifyingContract","type":"address","internalType":"address"},{"name":"salt","type":"bytes32","internalType":"bytes32"},{"name":"extensions","type":"uint256[]","internalType":"uint256[]"}],"stateMutability":"view"},{"type":"function","name":"freeze","inputs":[{"name":"user","type":"address","internalType":"address"},{"name":"amount","type":"uint256","internalType":"uint256"}],"outputs":[],"stateMutability":"nonpayable"},{"type":"function","name":"frozen","inputs":[{"name":"user","type":"address","internalType":"address"}],"outputs":[{"name":"","type":"uint256","internalType":"uint256"}],"stateMutability":"view"},{"type":"function","name":"fundCategory","inputs":[],"outputs":[{"name":"","type":"string","internalType":"string"}],"stateMutability":"view"},{"type":"function","name":"fundClass","inputs":[],"outputs":[{"name":"","type":"string","internalType":"string"}],"stateMutability":"view"},{"type":"function","name":"getPastTotalSupply","inputs":[{"name":"timepoint","type":"uint256","internalType":"uint256"}],"outputs":[{"name":"","type":"uint256","internalType":"uint256"}],"stateMutability":"view"},{"type":"function","name":"getPastVotes","inputs":[{"name":"account","type":"address","internalType":"address"},{"name":"timepoint","type":"uint256","internalType":"uint256"}],"outputs":[{"name":"","type":"uint256","internalType":"uint256"}],"stateMutability":"view"},{"type":"function","name":"getRoleAdmin","inputs":[{"name":"role","type":"bytes32","internalType":"bytes32"}],"outputs":[{"name":"","type":"bytes32","internalType":"bytes32"}],"stateMutability":"view"},{"type":"function","name":"getVotes","inputs":[{"name":"account","type":"address","internalType":"address"}],"outputs":[{"name":"","type":"uint256","internalType":"uint256"}],"stateMutability":"view"},{"type":"function","name":"grantRole","inputs":[{"name":"role","type":"bytes32","internalType":"bytes32"},{"name":"account","type":"address","internalType":"address"}],"outputs":[],"stateMutability":"nonpayable"},{"type":"function","name":"hasRole","inputs":[{"name":"role","type":"bytes32","internalType":"bytes32"},{"name":"account","type":"address","internalType":"address"}],"outputs":[{"name":"","type":"bool","internalType":"bool"}],"stateMutability":"view"},{"type":"function","name":"isTrustedForwarder","inputs":[{"name":"forwarder","type":"address","internalType":"address"}],"outputs":[{"name":"","type":"bool","internalType":"bool"}],"stateMutability":"view"},{"type":"function","name":"managementFeeBps","inputs":[],"outputs":[{"name":"","type":"uint16","internalType":"uint16"}],"stateMutability":"view"},{"type":"function","name":"mint","inputs":[{"name":"to","type":"address","internalType":"address"},{"name":"amount","type":"uint256","internalType":"uint256"}],"outputs":[],"stateMutability":"nonpayable"},{"type":"function","name":"name","inputs":[],"outputs":[{"name":"","type":"string","internalType":"string"}],"stateMutability":"view"},{"type":"function","name":"nonces","inputs":[{"name":"owner","type":"address","internalType":"address"}],"outputs":[{"name":"","type":"uint256","internalType":"uint256"}],"stateMutability":"view"},{"type":"function","name":"numCheckpoints","inputs":[{"name":"account","type":"address","internalType":"address"}],"outputs":[{"name":"","type":"uint32","internalType":"uint32"}],"stateMutability":"view"},{"type":"function","name":"pause","inputs":[],"outputs":[],"stateMutability":"nonpayable"},{"type":"function","name":"paused","inputs":[],"outputs":[{"name":"","type":"bool","internalType":"bool"}],"stateMutability":"view"},{"type":"function","name":"permit","inputs":[{"name":"owner","type":"address","internalType":"address"},{"name":"spender","type":"address","internalType":"address"},{"name":"value","type":"uint256","internalType":"uint256"},{"name":"deadline","type":"uint256","internalType":"uint256"},{"name":"v","type":"uint8","internalType":"uint8"},{"name":"r","type":"bytes32","internalType":"bytes32"},{"name":"s","type":"bytes32","internalType":"bytes32"}],"outputs":[],"stateMutability":"nonpayable"},{"type":"function","name":"renounceRole","inputs":[{"name":"role","type":"bytes32","internalType":"bytes32"},{"name":"callerConfirmation","type":"address","internalType":"address"}],"outputs":[],"stateMutability":"nonpayable"},{"type":"function","name":"revokeRole","inputs":[{"name":"role","type":"bytes32","internalType":"bytes32"},{"name":"account","type":"address","internalType":"address"}],"outputs":[],"stateMutability":"nonpayable"},{"type":"function","name":"supportsInterface","inputs":[{"name":"interfaceId","type":"bytes4","internalType":"bytes4"}],"outputs":[{"name":"","type":"bool","internalType":"bool"}],"stateMutability":"view"},{"type":"function","name":"symbol","inputs":[],"outputs":[{"name":"","type":"string","internalType":"string"}],"stateMutability":"view"},{"type":"function","name":"totalSupply","inputs":[],"outputs":[{"name":"","type":"uint256","internalType":"uint256"}],"stateMutability":"view"},{"type":"function","name":"transfer","inputs":[{"name":"to","type":"address","internalType":"address"},{"name":"value","type":"uint256","internalType":"uint256"}],"outputs":[{"name":"","type":"bool","internalType":"bool"}],"stateMutability":"nonpayable"},{"type":"function","name":"transferFrom","inputs":[{"name":"from","type":"address","internalType":"address"},{"name":"to","type":"address","internalType":"address"},{"name":"value","type":"uint256","internalType":"uint256"}],"outputs":[{"name":"","type":"bool","internalType":"bool"}],"stateMutability":"nonpayable"},{"type":"function","name":"trustedForwarder","inputs":[],"outputs":[{"name":"","type":"address","internalType":"address"}],"stateMutability":"view"},{"type":"function","name":"unblockUser","inputs":[{"name":"user","type":"address","internalType":"address"}],"outputs":[{"name":"","type":"bool","internalType":"bool"}],"stateMutability":"nonpayable"},{"type":"function","name":"unpause","inputs":[],"outputs":[],"stateMutability":"nonpayable"},{"type":"function","name":"withdrawToken","inputs":[{"name":"token","type":"address","internalType":"address"},{"name":"to","type":"address","internalType":"address"},{"name":"amount","type":"uint256","internalType":"uint256"}],"outputs":[],"stateMutability":"nonpayable"},{"type":"event","name":"Approval","inputs":[{"name":"owner","type":"address","indexed":true,"internalType":"address"},{"name":"spender","type":"address","indexed":true,"internalType":"address"},{"name":"value","type":"uint256","indexed":false,"internalType":"uint256"}],"anonymous":false},{"type":"event","name":"Clawback","inputs":[{"name":"from","type":"address","indexed":true,"internalType":"address"},{"name":"to","type":"address","indexed":true,"internalType":"address"},{"name":"amount","type":"uint256","indexed":false,"internalType":"uint256"},{"name":"sender","type":"address","indexed":true,"internalType":"address"}],"anonymous":false},{"type":"event","name":"DelegateChanged","inputs":[{"name":"delegator","type":"address","indexed":true,"internalType":"address"},{"name":"fromDelegate","type":"address","indexed":true,"internalType":"address"},{"name":"toDelegate","type":"address","indexed":true,"internalType":"address"}],"anonymous":false},{"type":"event","name":"DelegateVotesChanged","inputs":[{"name":"delegate","type":"address","indexed":true,"internalType":"address"},{"name":"previousVotes","type":"uint256","indexed":false,"internalType":"uint256"},{"name":"newVotes","type":"uint256","indexed":false,"internalType":"uint256"}],"anonymous":false},{"type":"event","name":"EIP712DomainChanged","inputs":[],"anonymous":false},{"type":"event","name":"ManagementFeeCollected","inputs":[{"name":"amount","type":"uint256","indexed":false,"internalType":"uint256"},{"name":"timestamp","type":"uint256","indexed":false,"internalType":"uint256"}],"anonymous":false},{"type":"event","name":"Paused","inputs":[{"name":"account","type":"address","indexed":false,"internalType":"address"}],"anonymous":false},{"type":"event","name":"PerformanceFeeCollected","inputs":[{"name":"amount","type":"uint256","indexed":false,"internalType":"uint256"},{"name":"timestamp","type":"uint256","indexed":false,"internalType":"uint256"}],"anonymous":false},{"type":"event","name":"RoleAdminChanged","inputs":[{"name":"role","type":"bytes32","indexed":true,"internalType":"bytes32"},{"name":"previousAdminRole","type":"bytes32","indexed":true,"internalType":"bytes32"},{"name":"newAdminRole","type":"bytes32","indexed":true,"internalType":"bytes32"}],"anonymous":false},{"type":"event","name":"RoleGranted","inputs":[{"name":"role","type":"bytes32","indexed":true,"internalType":"bytes32"},{"name":"account","type":"address","indexed":true,"internalType":"address"},{"name":"sender","type":"address","indexed":true,"internalType":"address"}],"anonymous":false},{"type":"event","name":"RoleRevoked","inputs":[{"name":"role","type":"bytes32","indexed":true,"internalType":"bytes32"},{"name":"account","type":"address","indexed":true,"internalType":"address"},{"name":"sender","type":"address","indexed":true,"internalType":"address"}],"anonymous":false},{"type":"event","name":"TokenWithdrawn","inputs":[{"name":"token","type":"address","indexed":true,"internalType":"address"},{"name":"to","type":"address","indexed":true,"internalType":"address"},{"name":"amount","type":"uint256","indexed":false,"internalType":"uint256"},{"name":"sender","type":"address","indexed":true,"internalType":"address"}],"anonymous":false},{"type":"event","name":"TokensFrozen","inputs":[{"name":"user","type":"address","indexed":true,"internalType":"address"},{"name":"amount","type":"uint256","indexed":false,"internalType":"uint256"}],"anonymous":false},{"type":"event","name":"TokensUnfrozen","inputs":[{"name":"user","type":"address","indexed":true,"internalType":"address"},{"name":"amount","type":"uint256","indexed":false,"internalType":"uint256"}],"anonymous":false},{"type":"event","name":"Transfer","inputs":[{"name":"from","type":"address","indexed":true,"internalType":"address"},{"name":"to","type":"address","indexed":true,"internalType":"address"},{"name":"value","type":"uint256","indexed":false,"internalType":"uint256"}],"anonymous":false},{"type":"event","name":"Unpaused","inputs":[{"name":"account","type":"address","indexed":false,"internalType":"address"}],"anonymous":false},{"type":"event","name":"UserBlocked","inputs":[{"name":"user","type":"address","indexed":true,"internalType":"address"}],"anonymous":false},{"type":"event","name":"UserUnblocked","inputs":[{"name":"user","type":"address","indexed":true,"internalType":"address"}],"anonymous":false},{"type":"error","name":"AccessControlBadConfirmation","inputs":[]},{"type":"error","name":"AccessControlUnauthorizedAccount","inputs":[{"name":"account","type":"address","internalType":"address"},{"name":"neededRole","type":"bytes32","internalType":"bytes32"}]},{"type":"error","name":"CheckpointUnorderedInsertion","inputs":[]},{"type":"error","name":"ECDSAInvalidSignature","inputs":[]},{"type":"error","name":"ECDSAInvalidSignatureLength","inputs":[{"name":"length","type":"uint256","internalType":"uint256"}]},{"type":"error","name":"ECDSAInvalidSignatureS","inputs":[{"name":"s","type":"bytes32","internalType":"bytes32"}]},{"type":"error","name":"ERC20Blocked","inputs":[{"name":"user","type":"address","internalType":"address"}]},{"type":"error","name":"ERC20ExceededSafeSupply","inputs":[{"name":"increasedSupply","type":"uint256","internalType":"uint256"},{"name":"cap","type":"uint256","internalType":"uint256"}]},{"type":"error","name":"ERC20InsufficientAllowance","inputs":[{"name":"spender","type":"address","internalType":"address"},{"name":"allowance","type":"uint256","internalType":"uint256"},{"name":"needed","type":"uint256","internalType":"uint256"}]},{"type":"error","name":"ERC20InsufficientBalance","inputs":[{"name":"sender","type":"address","internalType":"address"},{"name":"balance","type":"uint256","internalType":"uint256"},{"name":"needed","type":"uint256","internalType":"uint256"}]},{"type":"error","name":"ERC20InsufficientFrozenBalance","inputs":[{"name":"user","type":"address","internalType":"address"}]},{"type":"error","name":"ERC20InsufficientUnfrozenBalance","inputs":[{"name":"user","type":"address","internalType":"address"}]},{"type":"error","name":"ERC20InvalidApprover","inputs":[{"name":"approver","type":"address","internalType":"address"}]},{"type":"error","name":"ERC20InvalidReceiver","inputs":[{"name":"receiver","type":"address","internalType":"address"}]},{"type":"error","name":"ERC20InvalidSender","inputs":[{"name":"sender","type":"address","internalType":"address"}]},{"type":"error","name":"ERC20InvalidSpender","inputs":[{"name":"spender","type":"address","internalType":"address"}]},{"type":"error","name":"ERC20NotCustodian","inputs":[]},{"type":"error","name":"ERC2612ExpiredSignature","inputs":[{"name":"deadline","type":"uint256","internalType":"uint256"}]},{"type":"error","name":"ERC2612InvalidSigner","inputs":[{"name":"signer","type":"address","internalType":"address"},{"name":"owner","type":"address","internalType":"address"}]},{"type":"error","name":"ERC5805FutureLookup","inputs":[{"name":"timepoint","type":"uint256","internalType":"uint256"},{"name":"clock","type":"uint48","internalType":"uint48"}]},{"type":"error","name":"ERC6372InconsistentClock","inputs":[]},{"type":"error","name":"EnforcedPause","inputs":[]},{"type":"error","name":"ExpectedPause","inputs":[]},{"type":"error","name":"InsufficientTokenBalance","inputs":[]},{"type":"error","name":"InvalidAccountNonce","inputs":[{"name":"account","type":"address","internalType":"address"},{"name":"currentNonce","type":"uint256","internalType":"uint256"}]},{"type":"error","name":"InvalidDecimals","inputs":[{"name":"decimals","type":"uint8","internalType":"uint8"}]},{"type":"error","name":"InvalidISIN","inputs":[]},{"type":"error","name":"InvalidShortString","inputs":[]},{"type":"error","name":"InvalidTokenAddress","inputs":[]},{"type":"error","name":"SafeCastOverflowedUintDowncast","inputs":[{"name":"bits","type":"uint8","internalType":"uint8"},{"name":"value","type":"uint256","internalType":"uint256"}]},{"type":"error","name":"SafeERC20FailedOperation","inputs":[{"name":"token","type":"address","internalType":"address"}]},{"type":"error","name":"StringTooLong","inputs":[{"name":"str","type":"string","internalType":"string"}]},{"type":"error","name":"VotesExpiredSignature","inputs":[{"name":"expiry","type":"uint256","internalType":"uint256"}]}],"bytecode":{"object":"0x6101c080604052346107cc576140ba803803809161001d82856107d1565b8339810190610100818303126107cc5780516001600160401b0381116107cc5782610049918301610817565b60208201516001600160401b0381116107cc5783610068918401610817565b9160408101519160ff8316928381036107cc576100876060840161086b565b9360808401519261ffff841684036107cc5760a08501516001600160401b0381116107cc57886100b8918701610817565b60c086015190986001600160401b0382116107cc576100de60e0916100e5938901610817565b960161086b565b906040978851916100f68a846107d1565b60018352603160f81b6020840190815281519092906001600160401b0381116104f457600354600181811c911680156107c2575b60208210146104d457601f811161075d575b50806020601f82116001146106f7576000916106ec575b508160011b916000199060031b1c1916176003555b8051906001600160401b0382116104f45760045490600182811c921680156106e2575b60208310146104d45781601f849311610672575b50602090601f831160011461060a576000926105ff575b50508160011b916000199060031b1c1916176004555b60ff19600554166005556101df81610a63565b610120526101ec83610bf4565b6101405260208151910120918260e05251902080610100524660a05288519060208201927f8b73c3c69bb8fe3d512ecc4cf759cc79239f7b179b0ffacaa9a75d522b39400f84528a83015260608201524660808201523060a082015260a0815261025760c0826107d1565b5190206080523060c05261016052601281116105eb5750610180526101a05283516001600160401b0381116104f457601054600181811c911680156105e1575b60208210146104d457601f811161057c575b50602094601f82116001146105155794819293949560009261050a575b50508160011b916000199060031b1c1916176010555b8051906001600160401b0382116104f457601154600181811c911680156104ea575b60208210146104d457601f811161046f575b50602090601f831160011461040257610374939291600091836103f7575b50508160011b916000199060031b1c1916176011555b64ffffffffff421664ffffffffff19600f541617600f556103648161087f565b5061036e8161090f565b506109b9565b50516132b19081610d898239608051816121f3015260a051816122b0015260c051816121bd015260e051816122420152610100518161226801526101205181610eb901526101405181610ee2015261016051818181610c3b01528181610dde015261270b015261018051816107cd01526101a05181818161087d01526112fa0152f35b01519050388061032e565b90601f198316916011600052816000209260005b81811061045757509160019391856103749796941061043e575b505050811b01601155610344565b015160001960f88460031b161c19169055388080610430565b92936020600181928786015181550195019301610416565b60116000527f31ecc21a745e3968a04e9570e4425bc18fa8019c68028196b546d1669c200c68601f840160051c810191602085106104ca575b601f0160051c01905b8181106104be5750610310565b600081556001016104b1565b90915081906104a8565b634e487b7160e01b600052602260045260246000fd5b90607f16906102fe565b634e487b7160e01b600052604160045260246000fd5b0151905038806102c6565b601f198216956010600052806000209160005b8881106105645750836001959697981061054b575b505050811b016010556102dc565b015160001960f88460031b161c1916905538808061053d565b91926020600181928685015181550194019201610528565b60106000527f1b6847dc741a1b0cd08d278845f9d819d87b734759afb55fe2de5cb82a9ae672601f830160051c810191602084106105d7575b601f0160051c01905b8181106105cb57506102a9565b600081556001016105be565b90915081906105b5565b90607f1690610297565b63ca95039160e01b60005260045260246000fd5b0151905038806101b6565b600460009081528281209350601f198516905b81811061065a5750908460019594939210610641575b505050811b016004556101cc565b015160001960f88460031b161c19169055388080610633565b9293602060018192878601518155019501930161061d565b60046000529091507f8a35acfbc15ff81a39ae7d344fd709f28e8600b4aa8c65c6b64bfe7fe36bd19b601f840160051c810191602085106106d8575b90601f859493920160051c01905b8181106106c9575061019f565b600081558493506001016106bc565b90915081906106ae565b91607f169161018b565b905083015138610153565b600360009081528181209250601f198416905b8181106107455750908360019493921061072c575b5050811b01600355610168565b85015160001960f88460031b161c19169055388061071f565b9192602060018192868a01518155019401920161070a565b60036000527fc2575a0e9e593c00f959f8c92f12db2869c3395a3b0502d05e2516446f71f85b601f830160051c810191602084106107b8575b601f0160051c01905b8181106107ac575061013c565b6000815560010161079f565b9091508190610796565b90607f169061012a565b600080fd5b601f909101601f19168101906001600160401b038211908210176104f457604052565b60005b8381106108075750506000910152565b81810151838201526020016107f7565b81601f820112156107cc5780516001600160401b0381116104f4576040519261084a601f8301601f1916602001856107d1565b818452602082840101116107cc5761086891602080850191016107f4565b90565b51906001600160a01b03821682036107cc57565b6001600160a01b038116600090815260008051602061409a833981519152602052604090205460ff16610909576001600160a01b03818116600090815260008051602061409a83398151915260205260409020805460ff191660011790556108e5610d36565b16906001600160a01b0316600060008051602061403a8339815191528180a4600190565b50600090565b6001600160a01b038116600090815260008051602061405a833981519152602052604090205460ff16610909576001600160a01b03818116600090815260008051602061405a83398151915260205260409020805460ff19166001179055610975610d36565b16906001600160a01b03167f47b7a6ef32f924153c4c0c2f871f8856bd114b4903c167827ef0f0694c583e2760008051602061403a833981519152600080a4600190565b6001600160a01b038116600090815260008051602061407a833981519152602052604090205460ff16610909576001600160a01b03818116600090815260008051602061407a83398151915260205260409020805460ff19166001179055610a1f610d36565b16906001600160a01b03167f4f218fa1cf3180113024eb1bbca508696a5a0f0ecafaeea4da87c53e5d46589260008051602061403a833981519152600080a4600190565b90815160208110600014610ade575090601f815111610a9f576020815191015160208210610a8f571790565b6000198260200360031b1b161790565b6044604051809263305a27a960e01b825260206004830152610ad081518092816024860152602086860191016107f4565b601f01601f19168101030190fd5b6001600160401b0381116104f457600754600181811c91168015610bea575b60208210146104d457601f8111610bb4575b50602092601f8211600114610b4f5792819293600092610b44575b50508160011b916000199060031b1c19161760075560ff90565b015190503880610b2a565b601f198216936007600052806000209160005b868110610b9c5750836001959610610b83575b505050811b0160075560ff90565b015160001960f88460031b161c19169055388080610b75565b91926020600181928685015181550194019201610b62565b6007600052601f6020600020910160051c810190601f830160051c015b818110610bde5750610b0f565b60008155600101610bd1565b90607f1690610afd565b90815160208110600014610c20575090601f815111610a9f576020815191015160208210610a8f571790565b6001600160401b0381116104f457600854600181811c91168015610d2c575b60208210146104d457601f8111610cf6575b50602092601f8211600114610c915792819293600092610c86575b50508160011b916000199060031b1c19161760085560ff90565b015190503880610c6c565b601f198216936008600052806000209160005b868110610cde5750836001959610610cc5575b505050811b0160085560ff90565b015160001960f88460031b161c19169055388080610cb7565b91926020600181928685015181550194019201610ca4565b6008600052601f6020600020910160051c810190601f830160051c015b818110610d205750610c51565b60008155600101610d13565b90607f1690610c3f565b610160516001600160a01b0316331480610d7d575b15610d79576013193601368111610d63573560601c90565b634e487b7160e01b600052601160045260246000fd5b3390565b506014361015610d4b56fe6080604052600436101561001257600080fd5b60003560e01c806301e336671461035757806301ffc9a71461035257806306fdde031461034d578063095ea7b3146103485780630c7c8e89146103435780630cfbfcde1461033e57806318160ddd1461033957806323b872dd14610334578063248a9ca31461032f57806324bce60c1461032a5780632f2ff15d14610325578063313ce567146103205780633644e5151461031b57806336568abe146103165780633813c35a1461031157806339d319e51461030c5780633a46b1a8146103075780633da01325146103025780633f4ba83a146102fd57806340c10f19146102f857806342966c68146102f35780634bf5d7e9146102ee578063572b6c05146102e9578063587cde1e146102e45780635c19a95c146102df5780635c975abb146102da5780636fcfff45146102d557806370a08231146102d057806379cc6790146102cb5780637da0a877146102c65780637ecebe00146102c15780638456cb59146102bc57806384b0196e146102b75780638b5bc3d1146102b25780638e539e8c146102ad57806391d14854146102a857806391ddadf4146102a357806395d89b411461029e5780639933de0f146102995780639ab24eb0146102945780639c016ffd1461028f578063a0821be31461028a578063a217fddf14610285578063a3ee3a2314610280578063a9059cbb1461027b578063c3cda52014610276578063d051665014610271578063d505accf1461026c578063d547741f14610267578063dd62ed3e14610262578063e59621951461025d5763f1127ed81461025857600080fd5b611811565b6117d2565b61177a565b61173a565b611611565b6115d7565b6114c3565b61147b565b6113d3565b6113b7565b611394565b6112bc565b611273565b611238565b611190565b61116d565b61111a565b611049565b610fa1565b610ea0565b610e47565b610e0d565b610dc8565b610d9c565b610d63565b610cfd565b610cda565b610cb1565b610c6f565b610c1b565b610b8c565b610b68565b610b3b565b610ac0565b610a22565b610933565b6108a1565b610862565b61080c565b6107f1565b6107b3565b61076e565b61067e565b610649565b610620565b610602565b6105e3565b6105a8565b610570565b610493565b6103e8565b6103c7565b600435906001600160a01b038216820361037257565b600080fd5b602435906001600160a01b038216820361037257565b6060906003190112610372576004356001600160a01b038116810361037257906024356001600160a01b0381168103610372579060443590565b34610372576103e66103d83661038d565b916103e1611c00565b611938565b005b346103725760203660031901126103725760043563ffffffff60e01b811680910361037257602090637965db0b60e01b811490811561042d575b506040519015158152f35b6301ffc9a760e01b14905038610422565b919082519283825260005b84811061046a575050826000602080949584010152601f8019910116010190565b80602080928401015182828601015201610449565b90602061049092818152019061043e565b90565b346103725760003660031901126103725760405160006003546104b581611a42565b808452906001811690811561054c57506001146104ed575b6104e9836104dd818503826118fb565b6040519182918261047f565b0390f35b600360009081527fc2575a0e9e593c00f959f8c92f12db2869c3395a3b0502d05e2516446f71f85b939250905b808210610532575090915081016020016104dd6104cd565b91926001816020925483858801015201910190929161051a565b60ff191660208086019190915291151560051b840190910191506104dd90506104cd565b346103725760403660031901126103725761059d61058c61035c565b60243590610598612708565b611e74565b602060405160018152f35b346103725760003660031901126103725760206040517f4f218fa1cf3180113024eb1bbca508696a5a0f0ecafaeea4da87c53e5d4658928152f35b34610372576103e66105f43661038d565b916105fd611c00565b611aff565b34610372576000366003190112610372576020600254604051908152f35b346103725761059d6106313661038d565b916106448361063e612708565b8361203c565b611f54565b34610372576020366003190112610372576020610676600435600052600660205260016040600020015490565b604051908152f35b346103725760403660031901126103725761069761035c565b6024359060ff6106e16106a8612708565b6001600160a01b031660009081527f8cece44ced69f38a17557f06a48d6e1a43d11406d45518d659faeeafd37a717d6020526040902090565b54161561075d57816106f282611bb9565b1061073c5760207fa065e63c631c86f1b9f66a4a2f63f2093bf1c2168d23290259dbd969e0222a459160018060a01b03169283600052600b825280604060002055604051908152a2005b6314884b4960e01b60009081526001600160a01b0391909116600452602490fd5b63bb4be5f360e01b60005260046000fd5b34610372576040366003190112610372576103e660043561078d610377565b906107ae6107a982600052600660205260016040600020015490565b611d8c565b612116565b3461037257600036600319011261037257602060405160ff7f0000000000000000000000000000000000000000000000000000000000000000168152f35b346103725760003660031901126103725760206106766121ba565b3461037257604036600319011261037257600435610828610377565b6001600160a01b03610838612708565b166001600160a01b03821603610851576103e6916122d6565b63334bd91960e11b60005260046000fd5b3461037257600036600319011261037257602060405161ffff7f0000000000000000000000000000000000000000000000000000000000000000168152f35b34610372576020366003190112610372576108ba61035c565b6108c2611c90565b6001600160a01b03166000818152600a602052604090205460ff1690816108f2575b506040519015158152602090f35b80600052600a602052604060002060ff1981541690557f798117ec059ab8d319461ef2502b1f9d8a47cd966bfd1f3e23b6f26c30bebb77600080a2386108e4565b346103725760403660031901126103725761094c61035c565b6001600160a01b03166000908152600d6020526040902061096e602435612371565b906000908054829381600581116109c3575b509060209461098f92846128f0565b806109a95750505b6040516001600160d01b039091168152f35b6109b290611baa565b90825290829020015460301c610997565b946109cd86612792565b8603958611610a1d5760209561098f9385875265ffffffffffff8289892001541665ffffffffffff851610600014610a0b5750915b91925094610980565b929150610a17906123a4565b90610a02565b611b94565b34610372576020366003190112610372576104e9610a3e61035c565b610a46611c90565b6001600160a01b03166000818152600a602052604090205460ff16908115610a7c575b5060405190151581529081906020820190565b80600052600a6020526040600020600160ff198254161790557fca86d8c91ca6d00afd863578cc633a0901fad724592f89649629fe65f61410d2600080a238610a69565b3461037257600036600319011261037257610ad9611d20565b60055460ff811615610b2a5760ff19166005557f5db9ee0a495bf2e6ff9c91a7834c1ba4fdd244a5e8aa4e537bd38aeae4b073aa6020610b17612708565b6040516001600160a01b039091168152a1005b638dfc202b60e01b60005260046000fd5b34610372576040366003190112610372576103e6610b5761035c565b60243590610b63611c00565b6123bf565b34610372576020366003190112610372576103e6600435610b87612708565b61248e565b346103725760003660031901126103725765ffffffffffff610bad43612761565b1665ffffffffffff421603610c0a576104e96040805190610bce81836118fb565b601d82527f6d6f64653d626c6f636b6e756d6265722666726f6d3d64656661756c7400000060208301525191829160208352602083019061043e565b6301bfc1c560e61b60005260046000fd5b34610372576020366003190112610372576020610c3661035c565b6040517f00000000000000000000000000000000000000000000000000000000000000006001600160a01b039081169216919091148152f35b34610372576020366003190112610372576001600160a01b03610c9061035c565b16600052600c602052602060018060a01b0360406000205416604051908152f35b34610372576020366003190112610372576103e6610ccd61035c565b610cd5612708565b612520565b3461037257600036600319011261037257602060ff600554166040519015158152f35b34610372576020366003190112610372576001600160a01b03610d1e61035c565b16600052600d60205260406000205463ffffffff8111610d4a5760405163ffffffff9091168152602090f35b6306dfcc6560e41b600052602060045260245260446000fd5b34610372576020366003190112610372576020610676610d8161035c565b6001600160a01b031660009081526020819052604090205490565b34610372576040366003190112610372576103e6610db861035c565b60243590610b878261063e612708565b34610372576000366003190112610372576040517f00000000000000000000000000000000000000000000000000000000000000006001600160a01b03168152602090f35b34610372576020366003190112610372576001600160a01b03610e2e61035c565b1660005260096020526020604060002054604051908152f35b3461037257600036600319011261037257610e60611d20565b610e68612a7a565b600160ff1960055416176005557f62e78cea01bee320cd4e420270b5ea74000d11b0c9f74754ebdbfc544b05a2586020610b17612708565b3461037257600036600319011261037257610f46610edd7f0000000000000000000000000000000000000000000000000000000000000000612a97565b610f067f0000000000000000000000000000000000000000000000000000000000000000612afb565b6020604051610f1582826118fb565b6000815281610f5481830194601f198301368737604051978897600f60f81b895260e0858a015260e089019061043e565b90878203604089015261043e565b91466060870152306080870152600060a087015285830360c0870152519182815201929160005b828110610f8a57505050500390f35b835185528695509381019392810192600101610f7b565b34610372576000366003190112610372576040516000601154610fc381611a42565b808452906001811690811561054c5750600114610fea576104e9836104dd818503826118fb565b601160009081527f31ecc21a745e3968a04e9570e4425bc18fa8019c68028196b546d1669c200c68939250905b80821061102f575090915081016020016104dd6104cd565b919260018160209254838588010152019101909291611017565b3461037257602036600319011261037257611065600435612371565b6000600e54819281600581116110bf575b509060209361108692600e6128f0565b8061109e57506040516001600160d01b039091168152f35b90826110ac6110ba93611baa565b91600e815220015460301c90565b610997565b936110c985612792565b8503948511610a1d5760209461108693600e865265ffffffffffff8288882001541665ffffffffffff8516106000146111085750915b91925093611076565b929150611114906123a4565b906110ff565b3461037257604036600319011261037257602060ff61116160043561113d610377565b906000526006845260406000209060018060a01b0316600052602052604060002090565b54166040519015158152f35b3461037257600036600319011261037257602060405165ffffffffffff42168152f35b346103725760003660031901126103725760405160006004546111b281611a42565b808452906001811690811561054c57506001146111d9576104e9836104dd818503826118fb565b600460009081527f8a35acfbc15ff81a39ae7d344fd709f28e8600b4aa8c65c6b64bfe7fe36bd19b939250905b80821061121e575090915081016020016104dd6104cd565b919260018160209254838588010152019101909291611206565b346103725760003660031901126103725760206040517f47b7a6ef32f924153c4c0c2f871f8856bd114b4903c167827ef0f0694c583e278152f35b34610372576020366003190112610372576001600160a01b0361129461035c565b16600052600d602052602060018060d01b036112b360406000206125a3565b16604051908152f35b34610372576000366003190112610372576112d5611d20565b64ffffffffff600f54164203428111610a1d576113256104e99161132060025461ffff7f000000000000000000000000000000000000000000000000000000000000000016906125f2565b612663565b80611352575b600f805464ffffffffff19164264ffffffffff161790556040519081529081906020820190565b61135e81610b63612708565b604080518281524260208201527f6f4a589972e181c1010960e6cb88e05776a4f3a28373e49c69ffdf8cc30f1a319190a161132b565b346103725760203660031901126103725760206106766113b261035c565b611bb9565b3461037257600036600319011261037257602060405160008152f35b346103725760003660031901126103725760405160006010546113f581611a42565b808452906001811690811561054c575060011461141c576104e9836104dd818503826118fb565b601060009081527f1b6847dc741a1b0cd08d278845f9d819d87b734759afb55fe2de5cb82a9ae672939250905b808210611461575090915081016020016104dd6104cd565b919260018160209254838588010152019101909291611449565b346103725760403660031901126103725761059d61149761035c565b60243590610644612708565b6064359060ff8216820361037257565b6084359060ff8216820361037257565b346103725760c0366003190112610372576114dc61035c565b602435906044356114eb6114a3565b6084359060a435928042116115c3579161157093916115626115679460405160208101917fe48329057bfd03d55e49b547132e39cffd9c1820ad7b9d4c5307691425d15adf835260018060a01b038a1660408301528a606083015260808201526080815261155a60a0826118fb565b5190206126d3565b612b43565b90929192612bec565b6001600160a01b03811660009081526009602052604090208054600181019091558093036115a2576103e69250612520565b90506301d4b62360e61b60005260018060a01b031660045260245260446000fd5b632341d78760e11b60005260045260246000fd5b34610372576020366003190112610372576001600160a01b036115f861035c565b16600052600b6020526020604060002054604051908152f35b346103725760e03660031901126103725761162a61035c565b611632610377565b60443590606435926116426114b3565b60a43560c43590864211611725576001600160a01b03841660009081526009602052604090208054600181019091556116e893906116e3909860405160208101917f6e71edae12b1b97f4d1f60370fef10105fa2faae0126114a169c64845d6126c9835260018060a01b0389169b8c604084015260018060a01b038b1660608401528b608084015260a083015260c082015260c0815261155a60e0826118fb565b6126f9565b936001600160a01b03851603611702576103e69350611e74565b6325c0072360e11b6000526001600160a01b038085166004521660245260446000fd5b8663313c898160e11b60005260045260246000fd5b34610372576040366003190112610372576103e6600435611759610377565b906117756107a982600052600660205260016040600020015490565b6122d6565b346103725760403660031901126103725760206117c961179861035c565b6117a0610377565b6001600160a01b0391821660009081526001855260408082209290931681526020919091522090565b54604051908152f35b34610372576020366003190112610372576001600160a01b036117f361035c565b16600052600a602052602060ff604060002054166040519015158152f35b346103725760403660031901126103725761182a61035c565b6024359063ffffffff82168203610372576104e99161187a9161184b611be7565b50611854611be7565b506001600160a01b03166000908152600d60205260409020611874611be7565b50612c6e565b5060405190611888826118da565b5465ffffffffffff811680835260309190911c60209283019081526040805192835290516001600160d01b031692820192909252918291820190565b634e487b7160e01b600052604160045260246000fd5b6040810190811067ffffffffffffffff8211176118f657604052565b6118c4565b90601f8019910116810190811067ffffffffffffffff8211176118f657604052565b90816020910312610372575190565b6040513d6000823e3d90fd5b6001600160a01b03168015611a31576001600160a01b038216918215611a31578315611a2b576040516370a0823160e01b8152306004820152602081602481865afa8015611a265785916000916119f7575b50106119e6578361199b9183611de2565b7f2017ff49f5dedb0169265520a1792549adf2bd026c9740cd9a8dc5f3f08252a86119e16001600160a01b036119cf612708565b60405196875216949081906020820190565b0390a4565b637222ae5760e11b60005260046000fd5b611a19915060203d602011611a1f575b611a1181836118fb565b81019061191d565b3861198a565b503d611a07565b61192c565b50505050565b630f58058360e11b60005260046000fd5b90600182811c92168015611a72575b6020831014611a5c57565b634e487b7160e01b600052602260045260246000fd5b91607f1691611a51565b60009291815491611a8c83611a42565b8083529260018116908115611ae25750600114611aa857505050565b60009081526020812093945091925b838310611ac8575060209250010190565b600181602092949394548385870101520191019190611ab7565b915050602093945060ff929192191683830152151560051b010190565b906001600160a01b038216908115611a31576001600160a01b038116928315611a31578415611b7c5782600052600060205284604060002054106119e657611b48918591611f54565b7ff92c2203b7c3705a966df3ac08c40e3abcec988c5db987d1ad144cb13a2e828d6119e16001600160a01b036119cf612708565b5050505050565b60405190611b926040836118fb565b565b634e487b7160e01b600052601160045260246000fd5b600019810191908211610a1d57565b6001600160a01b031660009081526020818152604080832054600b909252909120548103908111610a1d5790565b60405190611bf4826118da565b60006020838281520152565b611c08612708565b6001600160a01b03811660009081527f47126590d8f3924481f49abd583f0b1fb5dbeb4aa81a45c542a2e8abe057ecf6602052604090205460ff1615611c4b5750565b63e2517d3f60e01b60009081526001600160a01b03919091166004527f47b7a6ef32f924153c4c0c2f871f8856bd114b4903c167827ef0f0694c583e27602452604490fd5b611c98612708565b6001600160a01b03811660009081527f8cece44ced69f38a17557f06a48d6e1a43d11406d45518d659faeeafd37a717d602052604090205460ff1615611cdb5750565b63e2517d3f60e01b60009081526001600160a01b03919091166004527f4f218fa1cf3180113024eb1bbca508696a5a0f0ecafaeea4da87c53e5d465892602452604490fd5b611d28612708565b6001600160a01b03811660009081527f54cdd369e4e8a8515e52ca72ec816c2101831ad1f18bf44102ed171459c9b4f8602052604090205460ff1615611d6b5750565b63e2517d3f60e01b60005260018060a01b0316600452600060245260446000fd5b611d94612708565b60008281526006602090815260408083206001600160a01b038516845290915290205460ff1615611dc3575050565b63e2517d3f60e01b60005260018060a01b031660045260245260446000fd5b60405163a9059cbb60e01b60208083019182526001600160a01b039490941660248301526044808301959095529381529092600091611e226064826118fb565b519082855af11561192c576000513d611e6b57506001600160a01b0381163b155b611e4a5750565b635274afe760e01b60009081526001600160a01b0391909116600452602490fd5b60011415611e43565b6001600160a01b03166000818152600a60205260409020549192909160ff16611f3f578115611f29576001600160a01b038316928315611f1357817f8c5be1e5ebec7d5bd14f71427d1e84f3dd0314c0f7b2291e5b200ac8c7c3b92592611efd611f0e9386600052600160205260406000209060018060a01b0316600052602052604060002090565b556040519081529081906020820190565b0390a3565b634a1406b160e11b600052600060045260246000fd5b63e602df0560e01b600052600060045260246000fd5b50635ff1c9b960e11b60005260045260246000fd5b909291906001600160a01b0381168015612026576001600160a01b0385169081156120105783611f8384611bb9565b10611ffc5780600052600a60205260ff60406000205416611fe85750600052600a60205260ff60406000205416611fca579283611fc58383611b929697613199565b612ea1565b635ff1c9b960e11b6000526001600160a01b03841660045260246000fd5b635ff1c9b960e11b60005260045260246000fd5b6314884b4960e01b60005260045260246000fd5b63ec442f0560e01b600052600060045260246000fd5b634b637e8f60e11b600052600060045260246000fd5b6001600160a01b039081166000818152600160209081526040808320948616835293905291909120919290915460001981106120785750505050565b8181106120f35782600052600a60205260ff604060002054166120de578215611f29576001600160a01b03841615611f13576120d4926000526001602052039160406000209060018060a01b0316600052602052604060002090565b5538808080611a2b565b82635ff1c9b960e11b60005260045260246000fd5b83637dc7a0d960e11b60005260018060a01b031660045260245260445260646000fd5b60008181526006602090815260408083206001600160a01b038616845290915290205460ff166121b35760008181526006602090815260408083206001600160a01b03861684529091529020805460ff191660011790556001600160a01b0361217d612708565b16916001600160a01b0316907f2f8788117e7eff1d82e926ec794901d17c78024a50270940304540a733656f0d600080a4600190565b5050600090565b307f00000000000000000000000000000000000000000000000000000000000000006001600160a01b031614806122ad575b15612215577f000000000000000000000000000000000000000000000000000000000000000090565b60405160208101907f8b73c3c69bb8fe3d512ecc4cf759cc79239f7b179b0ffacaa9a75d522b39400f82527f000000000000000000000000000000000000000000000000000000000000000060408201527f000000000000000000000000000000000000000000000000000000000000000060608201524660808201523060a082015260a081526122a760c0826118fb565b51902090565b507f000000000000000000000000000000000000000000000000000000000000000046146121ec565b60008181526006602090815260408083206001600160a01b038616845290915290205460ff16156121b35760008181526006602090815260408083206001600160a01b03861684529091529020805460ff191690556001600160a01b0361233b612708565b16916001600160a01b0316907ff6391f5c32d9c69d2a47ea670b442974b53935d1edc7fd64eb21e047a839171b600080a4600190565b65ffffffffffff42168082101561238c575061049090612761565b90637669fc0f60e11b60005260045260245260446000fd5b9060018201809211610a1d57565b91908201809211610a1d57565b91906001600160a01b03831680156120105760008052600a6020527f13da86008ba1c6922daee3e07db95305ef49ebced9f5467a0b8613fcc6b343e35460ff1661247857600052600a60205260ff6040600020541661245a576124228184613051565b600254926001600160d01b038085116124415750611b92929350612da1565b630e58ae9360e11b600052600485905260245260446000fd5b635ff1c9b960e11b6000526001600160a01b03831660045260246000fd5b635ff1c9b960e11b600052600060045260246000fd5b906001600160a01b038216801561202657816124a984611bb9565b10611ffc5780600052600a60205260ff60406000205416611fe8575060008052600a6020527f13da86008ba1c6922daee3e07db95305ef49ebced9f5467a0b8613fcc6b343e35460ff1661250a578161250582611b92946130c7565b612e25565b635ff1c9b960e11b600090815260045260246000fd5b6001600160a01b038181166000818152600c6020526040812080548685166001600160a01b031982168117909255611b929694169461259d9390928691907f3134e8a2e6d97e929a7e54011ea5485d7d196dd5f0ba4d4ef95803e8e3fc257f9080a46001600160a01b031660009081526020819052604090205490565b91612957565b805490816125b2575050600090565b81600019810111610a1d5760005260001990602060002001015460301c90565b81156125dc570490565b634e487b7160e01b600052601260045260246000fd5b808202906000198382099082808310920391808303921461265857816127101115612651577fbc01a36e2eb1c432ca57a786c226809d495182a9930be0ded288ce703afb7e9193612710910990828211900360fc1b910360041c170290565b6011612b32565b506127109250500490565b80820290600019838209908280831092039180830392146126c657816301e133801115612651577f98f5be4dd1e14769fbd6666224dc1eb80dd2e0a3d2c8b328f57e76b7ae103957936301e13380910990828211900360f91b910360071c170290565b506301e133809250500490565b6042906126de6121ba565b906040519161190160f01b8352600283015260228201522090565b91610490939161156793612b43565b337f00000000000000000000000000000000000000000000000000000000000000006001600160a01b03161480612756575b15612752576013193601368111610a1d573560601c90565b3390565b50601436101561273a565b65ffffffffffff81116127795765ffffffffffff1690565b6306dfcc6560e41b600052603060045260245260446000fd5b600181111561049057806001600160801b8210156128b3575b61285961284f61284561283b6128316128276128166128609760048a600160401b6128659c10156128a6575b640100000000811015612899575b6201000081101561288c575b61010081101561287f575b6010811015612872575b101561286a575b60030260011c90565b612820818b6125d2565b0160011c90565b612820818a6125d2565b61282081896125d2565b61282081886125d2565b61282081876125d2565b61282081866125d2565b80936125d2565b821190565b900390565b60011b61280d565b60041c9160021b91612806565b60081c9160041b916127fc565b60101c9160081b916127f1565b60201c9160101b916127e5565b60401c9160201b916127d7565b505061286561286061285961284f61284561283b6128316128276128166128da8a60801c90565b9850600160401b97506127ab9650505050505050565b91905b8382106129005750505090565b9091928083169080841860011c8201809211610a1d578460005265ffffffffffff82602060002001541665ffffffffffff8416106000146129455750925b91906128f3565b939250612951906123a4565b9161293e565b6001600160a01b03808316939291908116908185141580612a71575b61297e575050505050565b81612a03575b505082612993575b8080611b7c565b6001600160a01b03166000908152600d602052604090207fdec2bacdd2f05b59de34da9b523dff8be42e5e38e818c82fdb0bae774387a724916129e0916129da9091612c9c565b90612d06565b604080516001600160d01b039384168152919092166020820152a238808061298c565b6001600160a01b03166000908152600d602052604090207fdec2bacdd2f05b59de34da9b523dff8be42e5e38e818c82fdb0bae774387a72490612a4f90612a4986612c9c565b90612ccf565b604080516001600160d01b039384168152919092166020820152a23880612984565b50831515612973565b60ff60055416612a8657565b63d93c066560e01b60005260046000fd5b60ff8114612ae15760ff811690601f8211612ad0576040805192612abb82856118fb565b6020808552840191601f190136833783525290565b632cd44ac360e21b60005260046000fd5b5060405161049081612af4816007611a7c565b03826118fb565b60ff8114612b1f5760ff811690601f8211612ad0576040805192612abb82856118fb565b5060405161049081612af4816008611a7c565b634e487b716000526020526024601cfd5b91907f7fffffffffffffffffffffffffffffff5d576e7357a4501ddfe92f46681b20a08411612bc0579160209360809260ff60009560405194855216868401526040830152606082015282805260015afa15611a26576000516001600160a01b03811615612bb45790600090600090565b50600090600190600090565b50505060009160039190565b60041115612bd657565b634e487b7160e01b600052602160045260246000fd5b612bf581612bcc565b80612bfe575050565b612c0781612bcc565b60018103612c205763f645eedf60e01b60005260046000fd5b612c2981612bcc565b60028103612c46575063fce698f760e01b60005260045260246000fd5b80612c52600392612bcc565b14612c5a5750565b6335e2f38360e21b60005260045260246000fd5b8054821015612c865760005260206000200190600090565b634e487b7160e01b600052603260045260246000fd5b6001600160d01b038111612cb6576001600160d01b031690565b6306dfcc6560e41b60005260d060045260245260446000fd5b90612cd9826125a3565b6001600160d01b0391821690821603908111610a1d57612d029165ffffffffffff421690612f76565b9091565b90612d10826125a3565b6001600160d01b0391821690821601908111610a1d57612d029165ffffffffffff421690612f76565b612d43600e6125a3565b6001600160d01b0391821690821601908111610a1d57612d02904265ffffffffffff16600e612f76565b612d77600e6125a3565b6001600160d01b0391821690821603908111610a1d57612d02904265ffffffffffff16600e612f76565b90611b9291612db7612db283612c9c565b612d39565b50506001600160a01b03168015612e0d575b600c6020527f13649b2456f1b42fef0f0040b3aaeabcd21a76a0f3f5defd4f583839455116e85460009182526040909120546001600160a01b039081169116612957565b612e1e612e1983612c9c565b612d6d565b5050612dc9565b611b9291906001600160a01b03168015612e8e575b612e46612e1983612c9c565b50506000908152600c60205260408120549080527f13649b2456f1b42fef0f0040b3aaeabcd21a76a0f3f5defd4f583839455116e8546001600160a01b039081169116612957565b612e9a612db283612c9c565b5050612e3a565b611b9292916001600160a01b03909116908115612f05575b6001600160a01b0316908115612ef2575b6000908152600c6020526040808220549282529020546001600160a01b039081169116612957565b612efe612e1984612c9c565b5050612eca565b612f11612db284612c9c565b5050612eb9565b8054600160401b8110156118f657612f3591600182018155612c6e565b612f6057815160209092015160301b65ffffffffffff191665ffffffffffff92909216919091179055565b634e487b7160e01b600052600060045260246000fd5b8054929392801561302657612f8d612f9a91611baa565b8260005260206000200190565b8054603081901c9365ffffffffffff9182169291811680841161301557879303612fe15750612fdd92509065ffffffffffff82549181199060301b169116179055565b9190565b915050612fdd91613001612ff3611b83565b65ffffffffffff9093168352565b6001600160d01b0386166020830152612f18565b632520601d60e01b60005260046000fd5b509061304b91613037612ff3611b83565b6001600160d01b0385166020830152612f18565b60009190565b9061305a612a7a565b60025490808201809211610a1d5760206000805160206132858339815191529160009360025560018060a01b03851694851585146130a5575080600254036002555b604051908152a3565b6001600160a01b0316600090815260208190526040902081815401905561309c565b906130d0612a7a565b6001600160a01b038216918261311b575090600254828101809111610a1d57600092600080516020613285833981519152916002555b600280548290039055604051908152602090a3565b6001600160a01b03811660009081526020819052604090205482811061317457916000805160206132858339815191529161316e8260009695039160018060a01b03166000526000602052604060002090565b55613106565b63391434e360e21b6000526001600160a01b0390911660045260245260445260646000fd5b90916131a3612a7a565b6001600160a01b038216918261322b5750611f0e816131db6131d6600080516020613285833981519152946002546123b2565b600255565b6001600160a01b038516948561320957506131f98160025403600255565b6040519081529081906020820190565b6001600160a01b031660009081526020819052604090208181540190556131f9565b6001600160a01b0381166000908152602081905260409020548281106131745791611f0e9161327e8260008051602061328583398151915295039160018060a01b03166000526000602052604060002090565b556131db56feddf252ad1be2c89b69c2b068fc378daa952ba7f163c4a11628f55a4df523b3efa164736f6c634300081c000a2f8788117e7eff1d82e926ec794901d17c78024a50270940304540a733656f0d47126590d8f3924481f49abd583f0b1fb5dbeb4aa81a45c542a2e8abe057ecf68cece44ced69f38a17557f06a48d6e1a43d11406d45518d659faeeafd37a717d54cdd369e4e8a8515e52ca72ec816c2101831ad1f18bf44102ed171459c9b4f8","linkReferences":{}},"methodIdentifiers":{"CLOCK_MODE()":"4bf5d7e9","DEFAULT_ADMIN_ROLE()":"a217fddf","DOMAIN_SEPARATOR()":"3644e515","SUPPLY_MANAGEMENT_ROLE()":"9933de0f","USER_MANAGEMENT_ROLE()":"0c7c8e89","allowance(address,address)":"dd62ed3e","approve(address,uint256)":"095ea7b3","availableBalance(address)":"a0821be3","balanceOf(address)":"70a08231","blockUser(address)":"3da01325","blocked(address)":"e5962195","burn(uint256)":"42966c68","burnFrom(address,uint256)":"79cc6790","checkpoints(address,uint32)":"f1127ed8","clawback(address,address,uint256)":"0cfbfcde","clock()":"91ddadf4","collectManagementFee()":"9c016ffd","decimals()":"313ce567","delegate(address)":"5c19a95c","delegateBySig(address,uint256,uint256,uint8,bytes32,bytes32)":"c3cda520","delegates(address)":"587cde1e","eip712Domain()":"84b0196e","freeze(address,uint256)":"24bce60c","frozen(address)":"d0516650","fundCategory()":"8b5bc3d1","fundClass()":"a3ee3a23","getPastTotalSupply(uint256)":"8e539e8c","getPastVotes(address,uint256)":"3a46b1a8","getRoleAdmin(bytes32)":"248a9ca3","getVotes(address)":"9ab24eb0","grantRole(bytes32,address)":"2f2ff15d","hasRole(bytes32,address)":"91d14854","isTrustedForwarder(address)":"572b6c05","managementFeeBps()":"3813c35a","mint(address,uint256)":"40c10f19","name()":"06fdde03","nonces(address)":"7ecebe00","numCheckpoints(address)":"6fcfff45","pause()":"8456cb59","paused()":"5c975abb","permit(address,address,uint256,uint256,uint8,bytes32,bytes32)":"d505accf","renounceRole(bytes32,address)":"36568abe","revokeRole(bytes32,address)":"d547741f","supportsInterface(bytes4)":"01ffc9a7","symbol()":"95d89b41","totalSupply()":"18160ddd","transfer(address,uint256)":"a9059cbb","transferFrom(address,address,uint256)":"23b872dd","trustedForwarder()":"7da0a877","unblockUser(address)":"39d319e5","unpause()":"3f4ba83a","withdrawToken(address,address,uint256)":"01e33667"},"id":14}