{
  "abi": [
    {
      "type": "constructor",
      "inputs": [
        {
          "name": "tokenAddress",
          "type": "address",
          "internalType": "address"
        },
        {
          "name": "root",
          "type": "bytes32",
          "internalType": "bytes32"
        },
        {
          "name": "initialOwner",
          "type": "address",
          "internalType": "address"
        },
        {
          "name": "_distributionCap",
          "type": "uint256",
          "internalType": "uint256"
        },
        {
          "name": "trustedForwarder",
          "type": "address",
          "internalType": "address"
        }
      ],
      "stateMutability": "nonpayable"
    },
    {
      "type": "function",
      "name": "MAX_BATCH_SIZE",
      "inputs": [],
      "outputs": [
        {
          "name": "",
          "type": "uint256",
          "internalType": "uint256"
        }
      ],
      "stateMutability": "view"
    },
    {
      "type": "function",
      "name": "batchDistribute",
      "inputs": [
        {
          "name": "recipients",
          "type": "address[]",
          "internalType": "address[]"
        },
        {
          "name": "amounts",
          "type": "uint256[]",
          "internalType": "uint256[]"
        },
        {
          "name": "merkleProofs",
          "type": "bytes32[][]",
          "internalType": "bytes32[][]"
        }
      ],
      "outputs": [],
      "stateMutability": "nonpayable"
    },
    {
      "type": "function",
      "name": "distribute",
      "inputs": [
        {
          "name": "recipient",
          "type": "address",
          "internalType": "address"
        },
        {
          "name": "amount",
          "type": "uint256",
          "internalType": "uint256"
        },
        {
          "name": "merkleProof",
          "type": "bytes32[]",
          "internalType": "bytes32[]"
        }
      ],
      "outputs": [],
      "stateMutability": "nonpayable"
    },
    {
      "type": "function",
      "name": "distributed",
      "inputs": [
        {
          "name": "",
          "type": "address",
          "internalType": "address"
        }
      ],
      "outputs": [
        {
          "name": "",
          "type": "bool",
          "internalType": "bool"
        }
      ],
      "stateMutability": "view"
    },
    {
      "type": "function",
      "name": "distributionCap",
      "inputs": [],
      "outputs": [
        {
          "name": "",
          "type": "uint256",
          "internalType": "uint256"
        }
      ],
      "stateMutability": "view"
    },
    {
      "type": "function",
      "name": "isDistributed",
      "inputs": [
        {
          "name": "recipient",
          "type": "address",
          "internalType": "address"
        }
      ],
      "outputs": [
        {
          "name": "",
          "type": "bool",
          "internalType": "bool"
        }
      ],
      "stateMutability": "view"
    },
    {
      "type": "function",
      "name": "isTrustedForwarder",
      "inputs": [
        {
          "name": "forwarder",
          "type": "address",
          "internalType": "address"
        }
      ],
      "outputs": [
        {
          "name": "",
          "type": "bool",
          "internalType": "bool"
        }
      ],
      "stateMutability": "view"
    },
    {
      "type": "function",
      "name": "markAsDistributed",
      "inputs": [
        {
          "name": "recipients",
          "type": "address[]",
          "internalType": "address[]"
        }
      ],
      "outputs": [],
      "stateMutability": "nonpayable"
    },
    {
      "type": "function",
      "name": "merkleRoot",
      "inputs": [],
      "outputs": [
        {
          "name": "",
          "type": "bytes32",
          "internalType": "bytes32"
        }
      ],
      "stateMutability": "view"
    },
    {
      "type": "function",
      "name": "owner",
      "inputs": [],
      "outputs": [
        {
          "name": "",
          "type": "address",
          "internalType": "address"
        }
      ],
      "stateMutability": "view"
    },
    {
      "type": "function",
      "name": "renounceOwnership",
      "inputs": [],
      "outputs": [],
      "stateMutability": "nonpayable"
    },
    {
      "type": "function",
      "name": "token",
      "inputs": [],
      "outputs": [
        {
          "name": "",
          "type": "address",
          "internalType": "contract IERC20"
        }
      ],
      "stateMutability": "view"
    },
    {
      "type": "function",
      "name": "totalDistributed",
      "inputs": [],
      "outputs": [
        {
          "name": "",
          "type": "uint256",
          "internalType": "uint256"
        }
      ],
      "stateMutability": "view"
    },
    {
      "type": "function",
      "name": "transferOwnership",
      "inputs": [
        {
          "name": "newOwner",
          "type": "address",
          "internalType": "address"
        }
      ],
      "outputs": [],
      "stateMutability": "nonpayable"
    },
    {
      "type": "function",
      "name": "trustedForwarder",
      "inputs": [],
      "outputs": [
        {
          "name": "",
          "type": "address",
          "internalType": "address"
        }
      ],
      "stateMutability": "view"
    },
    {
      "type": "function",
      "name": "updateDistributionCap",
      "inputs": [
        {
          "name": "newCap",
          "type": "uint256",
          "internalType": "uint256"
        }
      ],
      "outputs": [],
      "stateMutability": "nonpayable"
    },
    {
      "type": "function",
      "name": "updateMerkleRoot",
      "inputs": [
        {
          "name": "newRoot",
          "type": "bytes32",
          "internalType": "bytes32"
        }
      ],
      "outputs": [],
      "stateMutability": "nonpayable"
    },
    {
      "type": "function",
      "name": "withdrawTokens",
      "inputs": [
        {
          "name": "to",
          "type": "address",
          "internalType": "address"
        }
      ],
      "outputs": [],
      "stateMutability": "nonpayable"
    },
    {
      "type": "event",
      "name": "BatchDistributed",
      "inputs": [
        {
          "name": "recipientCount",
          "type": "uint256",
          "indexed": false,
          "internalType": "uint256"
        },
        {
          "name": "totalAmount",
          "type": "uint256",
          "indexed": false,
          "internalType": "uint256"
        }
      ],
      "anonymous": false
    },
    {
      "type": "event",
      "name": "DistributionCapUpdated",
      "inputs": [
        {
          "name": "oldCap",
          "type": "uint256",
          "indexed": false,
          "internalType": "uint256"
        },
        {
          "name": "newCap",
          "type": "uint256",
          "indexed": false,
          "internalType": "uint256"
        }
      ],
      "anonymous": false
    },
    {
      "type": "event",
      "name": "MerkleRootUpdated",
      "inputs": [
        {
          "name": "oldRoot",
          "type": "bytes32",
          "indexed": true,
          "internalType": "bytes32"
        },
        {
          "name": "newRoot",
          "type": "bytes32",
          "indexed": true,
          "internalType": "bytes32"
        }
      ],
      "anonymous": false
    },
    {
      "type": "event",
      "name": "OwnershipTransferred",
      "inputs": [
        {
          "name": "previousOwner",
          "type": "address",
          "indexed": true,
          "internalType": "address"
        },
        {
          "name": "newOwner",
          "type": "address",
          "indexed": true,
          "internalType": "address"
        }
      ],
      "anonymous": false
    },
    {
      "type": "event",
      "name": "TokensDistributed",
      "inputs": [
        {
          "name": "recipient",
          "type": "address",
          "indexed": true,
          "internalType": "address"
        },
        {
          "name": "amount",
          "type": "uint256",
          "indexed": false,
          "internalType": "uint256"
        }
      ],
      "anonymous": false
    },
    {
      "type": "event",
      "name": "TokensWithdrawn",
      "inputs": [
        {
          "name": "to",
          "type": "address",
          "indexed": true,
          "internalType": "address"
        },
        {
          "name": "amount",
          "type": "uint256",
          "indexed": false,
          "internalType": "uint256"
        }
      ],
      "anonymous": false
    },
    {
      "type": "error",
      "name": "AlreadyDistributed",
      "inputs": []
    },
    {
      "type": "error",
      "name": "ArrayLengthMismatch",
      "inputs": []
    },
    {
      "type": "error",
      "name": "BatchSizeTooLarge",
      "inputs": []
    },
    {
      "type": "error",
      "name": "DistributionActive",
      "inputs": []
    },
    {
      "type": "error",
      "name": "DistributionCapExceeded",
      "inputs": []
    },
    {
      "type": "error",
      "name": "FailedTransfer",
      "inputs": []
    },
    {
      "type": "error",
      "name": "InvalidMerkleProof",
      "inputs": []
    },
    {
      "type": "error",
      "name": "OwnableInvalidOwner",
      "inputs": [
        {
          "name": "owner",
          "type": "address",
          "internalType": "address"
        }
      ]
    },
    {
      "type": "error",
      "name": "OwnableUnauthorizedAccount",
      "inputs": [
        {
          "name": "account",
          "type": "address",
          "internalType": "address"
        }
      ]
    },
    {
      "type": "error",
      "name": "ReentrancyGuardReentrantCall",
      "inputs": []
    },
    {
      "type": "error",
      "name": "SafeERC20FailedOperation",
      "inputs": [
        {
          "name": "token",
          "type": "address",
          "internalType": "address"
        }
      ]
    },
    {
      "type": "error",
      "name": "ZeroAddress",
      "inputs": []
    }
  ],
  "bytecode": {
    "object": "0x60c03461014b57601f610e5f38819003918201601f19168301916001600160401b038311848410176101505780849260a09460405283398101031261014b5761004781610166565b90602081015161005960408301610166565b9261006b608060608501519401610166565b6001600160a01b0390941693841561013557600080546001600160a01b031981168717825560405196916001600160a01b03909116907f8be0079c531659141344cd1fd0a4f28419497f9722a3daafe3b4186f6b6457e09080a3600180556080526001600160a01b031680156101245760a052600255600555610ce4908161017b82396080518181816106ef015281816107d60152610c81015260a05181818160f8015281816102f2015281816104d801526108520152f35b63d92e233d60e01b60005260046000fd5b631e4fbdf760e01b600052600060045260246000fd5b600080fd5b634e487b7160e01b600052604160045260246000fd5b51906001600160a01b038216820361014b5756fe6080604052600436101561001257600080fd5b60003560e01c80630d575402146109885780632eb4a7ab1461096a5780633ebf6474146107775780634783f0ef1461092057806349df728c1461080a578063572b6c05146107b6578063578bcf3514610777578063715018a61461071e5780637da0a877146106d957806389cc643a1461042f5780638da5cb5b146104065780638fbb2e0a1461036b578063ab1089be1461020d578063cd63d930146101ef578063cfdbf254146101d3578063efca2eed146101b5578063f2fde38b1461012c5763fc0c546a146100e257600080fd5b34610127576000366003190112610127576040517f00000000000000000000000000000000000000000000000000000000000000006001600160a01b03168152602090f35b600080fd5b34610127576020366003190112610127576101456109db565b61014d610a8b565b6001600160a01b0316801561019f57600080546001600160a01b03198116831782556001600160a01b0316907f8be0079c531659141344cd1fd0a4f28419497f9722a3daafe3b4186f6b6457e09080a3005b631e4fbdf760e01b600052600060045260246000fd5b34610127576000366003190112610127576020600454604051908152f35b3461012757600036600319011261012757602060405160648152f35b34610127576000366003190112610127576020600554604051908152f35b34610127576060366003190112610127576102266109db565b60243560443567ffffffffffffffff8111610127576102499036906004016109f1565b9290610253610a8b565b61025b610b6c565b6001600160a01b03821660008181526003602052604090205490949060ff1661035a57610289918484610b8e565b15610349576005548015159081610334575b5061032357816103167f16b0da2ffcb90c6723317bd637d9aad7f04711f42bbe0ac0918ebe10f1f9001c9360209386600052600385526040600020600160ff198254161790556102ed82600454610a7e565b6004557f0000000000000000000000000000000000000000000000000000000000000000610ad3565b604051908152a260018055005b636fd8707b60e11b60005260046000fd5b905061034283600454610a7e565b118461029b565b63582f497d60e11b60005260046000fd5b63cce553a960e01b60005260046000fd5b346101275760203660031901126101275760043567ffffffffffffffff81116101275761039c9036906004016109f1565b906103a5610a8b565b606482116103f55760005b8281106103b957005b6001906001600160a01b036103d76103d2838787610a5a565b610a6a565b16600052600360205260406000208260ff19825416179055016103b0565b631e80759560e21b60005260046000fd5b34610127576000366003190112610127576000546040516001600160a01b039091168152602090f35b346101275760603660031901126101275760043567ffffffffffffffff8111610127576104609036906004016109f1565b9060243567ffffffffffffffff8111610127576104819036906004016109f1565b60449391933567ffffffffffffffff8111610127576104a49036906004016109f1565b6104af959195610a8b565b6104b7610b6c565b606484116103f5578284148015906106cf575b6106be5760009492859686917f000000000000000000000000000000000000000000000000000000000000000096601e1983360301935b818110610576578a8a6005548015159081610561575b50610323577f9da086e067c0984a7c98ca182f45b6ce3054f5a9074fe7ecb0fac722d60bc9ab918161054d604093600454610a7e565b60045582519182526020820152a160018055005b905061056f82600454610a7e565b1183610517565b6105846103d282848b610a5a565b9961059082858a610a5a565b359b878310156106a8578260051b860135878112156101275786019182359267ffffffffffffffff841161012757602001928060051b36038413610127576001600160a01b038e1660008181526003602052604090205490949060ff1661069957908f918f926105ff93610b8e565b1561068c578d610627918460005260036020526040600020600160ff19825416179055610a7e565b9b60001982146106765760018e92019d610641918d610ad3565b60405190815260207f16b0da2ffcb90c6723317bd637d9aad7f04711f42bbe0ac0918ebe10f1f9001c91a26001905b01610501565b634e487b7160e01b600052601160045260246000fd5b9b509b5050600190610670565b50509b509b5050600190610670565b634e487b7160e01b600052603260045260246000fd5b63512509d360e11b60005260046000fd5b50808314156104ca565b34610127576000366003190112610127576040517f00000000000000000000000000000000000000000000000000000000000000006001600160a01b03168152602090f35b3461012757600036600319011261012757610737610a8b565b600080546001600160a01b0319811682556001600160a01b03167f8be0079c531659141344cd1fd0a4f28419497f9722a3daafe3b4186f6b6457e08280a3005b34610127576020366003190112610127576001600160a01b036107986109db565b166000526003602052602060ff604060002054166040519015158152f35b346101275760203660031901126101275760206107d16109db565b6040517f00000000000000000000000000000000000000000000000000000000000000006001600160a01b039081169216919091148152f35b34610127576020366003190112610127576108236109db565b61082b610a8b565b6001600160a01b03811690811561090f576040516370a0823160e01b8152306004820152907f00000000000000000000000000000000000000000000000000000000000000006020836024816001600160a01b0385165afa928315610903576000936108cb575b50916108c2816020937f6352c5382c4a4578e712449ca65e83cdb392d045dfcf1cad9615189db2da244b95610ad3565b604051908152a2005b9250906020833d6020116108fb575b816108e760209383610a22565b8101031261012757915191906108c2610892565b3d91506108da565b6040513d6000823e3d90fd5b63d92e233d60e01b60005260046000fd5b346101275760203660031901126101275760043561093c610a8b565b806002547ffd69edeceaf1d6832d935be1fba54ca93bf17e71520c6c9ffc08d6e9529f8757600080a3600255005b34610127576000366003190112610127576020600254604051908152f35b34610127576020366003190112610127576004356109a4610a8b565b7f64687926ea82d024193ae2d49d2c6e63089c2caf9cba13ff897d094f1526f01760406005548151908152836020820152a1600555005b600435906001600160a01b038216820361012757565b9181601f840112156101275782359167ffffffffffffffff8311610127576020808501948460051b01011161012757565b90601f8019910116810190811067ffffffffffffffff821117610a4457604052565b634e487b7160e01b600052604160045260246000fd5b91908110156106a85760051b0190565b356001600160a01b03811681036101275790565b9190820180921161067657565b6000546001600160a01b0390811690610aa2610c7e565b1603610aaa57565b610ab2610c7e565b63118cdaa760e01b60009081526001600160a01b0391909116600452602490fd5b60405163a9059cbb60e01b60208281019182526001600160a01b03909416602483015260448201949094529092600091610b1a81606481015b03601f198101835282610a22565b519082855af115610903576000513d610b6357506001600160a01b0381163b155b610b425750565b635274afe760e01b60009081526001600160a01b0391909116600452602490fd5b60011415610b3b565b600260015414610b7d576002600155565b633ee5aeb560e01b60005260046000fd5b604080516001600160a01b03909216602083019081529082019290925292939192610bbc8160608101610b0c565b5190206040516020810191825260208152610bd8604082610a22565b5190206002549267ffffffffffffffff8511610a44578460051b60405195610c036020830188610a22565b8652602086019082019136831161012757905b828210610c6e57505050906000915b8451831015610c6657604060019160009060208660051b8901015190818110600014610c5a578252602052205b920191610c25565b90825260205220610c52565b915092501490565b8135815260209182019101610c16565b337f00000000000000000000000000000000000000000000000000000000000000006001600160a01b03161480610ccc575b15610cc8576013193601368111610676573560601c90565b3390565b506014361015610cb056fea164736f6c634300081c000a",
    "linkReferences": {}
  },
  "methodIdentifiers": {
    "MAX_BATCH_SIZE()": "cfdbf254",
    "batchDistribute(address[],uint256[],bytes32[][])": "89cc643a",
    "distribute(address,uint256,bytes32[])": "ab1089be",
    "distributed(address)": "578bcf35",
    "distributionCap()": "cd63d930",
    "isDistributed(address)": "3ebf6474",
    "isTrustedForwarder(address)": "572b6c05",
    "markAsDistributed(address[])": "8fbb2e0a",
    "merkleRoot()": "2eb4a7ab",
    "owner()": "8da5cb5b",
    "renounceOwnership()": "715018a6",
    "token()": "fc0c546a",
    "totalDistributed()": "efca2eed",
    "transferOwnership(address)": "f2fde38b",
    "trustedForwarder()": "7da0a877",
    "updateDistributionCap(uint256)": "0d575402",
    "updateMerkleRoot(bytes32)": "4783f0ef",
    "withdrawTokens(address)": "49df728c"
  },
  "id": 16
}