{
  "abi": [
    {
      "type": "constructor",
      "inputs": [
        {
          "name": "name",
          "type": "string",
          "internalType": "string"
        },
        {
          "name": "symbol",
          "type": "string",
          "internalType": "string"
        },
        {
          "name": "decimals_",
          "type": "uint8",
          "internalType": "uint8"
        },
        {
          "name": "initialOwner",
          "type": "address",
          "internalType": "address"
        },
        {
          "name": "collateralLivenessSeconds",
          "type": "uint48",
          "internalType": "uint48"
        },
        {
          "name": "forwarder",
          "type": "address",
          "internalType": "address"
        }
      ],
      "stateMutability": "nonpayable"
    },
    {
      "type": "function",
      "name": "AUDITOR_ROLE",
      "inputs": [],
      "outputs": [
        {
          "name": "",
          "type": "bytes32",
          "internalType": "bytes32"
        }
      ],
      "stateMutability": "view"
    },
    {
      "type": "function",
      "name": "CLOCK_MODE",
      "inputs": [],
      "outputs": [
        {
          "name": "",
          "type": "string",
          "internalType": "string"
        }
      ],
      "stateMutability": "view"
    },
    {
      "type": "function",
      "name": "DEFAULT_ADMIN_ROLE",
      "inputs": [],
      "outputs": [
        {
          "name": "",
          "type": "bytes32",
          "internalType": "bytes32"
        }
      ],
      "stateMutability": "view"
    },
    {
      "type": "function",
      "name": "DOMAIN_SEPARATOR",
      "inputs": [],
      "outputs": [
        {
          "name": "",
          "type": "bytes32",
          "internalType": "bytes32"
        }
      ],
      "stateMutability": "view"
    },
    {
      "type": "function",
      "name": "SUPPLY_MANAGEMENT_ROLE",
      "inputs": [],
      "outputs": [
        {
          "name": "",
          "type": "bytes32",
          "internalType": "bytes32"
        }
      ],
      "stateMutability": "view"
    },
    {
      "type": "function",
      "name": "USER_MANAGEMENT_ROLE",
      "inputs": [],
      "outputs": [
        {
          "name": "",
          "type": "bytes32",
          "internalType": "bytes32"
        }
      ],
      "stateMutability": "view"
    },
    {
      "type": "function",
      "name": "allowance",
      "inputs": [
        {
          "name": "owner",
          "type": "address",
          "internalType": "address"
        },
        {
          "name": "spender",
          "type": "address",
          "internalType": "address"
        }
      ],
      "outputs": [
        {
          "name": "",
          "type": "uint256",
          "internalType": "uint256"
        }
      ],
      "stateMutability": "view"
    },
    {
      "type": "function",
      "name": "approve",
      "inputs": [
        {
          "name": "spender",
          "type": "address",
          "internalType": "address"
        },
        {
          "name": "value",
          "type": "uint256",
          "internalType": "uint256"
        }
      ],
      "outputs": [
        {
          "name": "",
          "type": "bool",
          "internalType": "bool"
        }
      ],
      "stateMutability": "nonpayable"
    },
    {
      "type": "function",
      "name": "availableBalance",
      "inputs": [
        {
          "name": "account",
          "type": "address",
          "internalType": "address"
        }
      ],
      "outputs": [
        {
          "name": "available",
          "type": "uint256",
          "internalType": "uint256"
        }
      ],
      "stateMutability": "view"
    },
    {
      "type": "function",
      "name": "balanceOf",
      "inputs": [
        {
          "name": "account",
          "type": "address",
          "internalType": "address"
        }
      ],
      "outputs": [
        {
          "name": "",
          "type": "uint256",
          "internalType": "uint256"
        }
      ],
      "stateMutability": "view"
    },
    {
      "type": "function",
      "name": "blockUser",
      "inputs": [
        {
          "name": "user",
          "type": "address",
          "internalType": "address"
        }
      ],
      "outputs": [
        {
          "name": "",
          "type": "bool",
          "internalType": "bool"
        }
      ],
      "stateMutability": "nonpayable"
    },
    {
      "type": "function",
      "name": "blocked",
      "inputs": [
        {
          "name": "account",
          "type": "address",
          "internalType": "address"
        }
      ],
      "outputs": [
        {
          "name": "",
          "type": "bool",
          "internalType": "bool"
        }
      ],
      "stateMutability": "nonpayable"
    },
    {
      "type": "function",
      "name": "burn",
      "inputs": [
        {
          "name": "value",
          "type": "uint256",
          "internalType": "uint256"
        }
      ],
      "outputs": [],
      "stateMutability": "nonpayable"
    },
    {
      "type": "function",
      "name": "burnFrom",
      "inputs": [
        {
          "name": "account",
          "type": "address",
          "internalType": "address"
        },
        {
          "name": "value",
          "type": "uint256",
          "internalType": "uint256"
        }
      ],
      "outputs": [],
      "stateMutability": "nonpayable"
    },
    {
      "type": "function",
      "name": "clawback",
      "inputs": [
        {
          "name": "from",
          "type": "address",
          "internalType": "address"
        },
        {
          "name": "to",
          "type": "address",
          "internalType": "address"
        },
        {
          "name": "amount",
          "type": "uint256",
          "internalType": "uint256"
        }
      ],
      "outputs": [],
      "stateMutability": "nonpayable"
    },
    {
      "type": "function",
      "name": "clock",
      "inputs": [],
      "outputs": [
        {
          "name": "",
          "type": "uint48",
          "internalType": "uint48"
        }
      ],
      "stateMutability": "view"
    },
    {
      "type": "function",
      "name": "collateral",
      "inputs": [],
      "outputs": [
        {
          "name": "amount",
          "type": "uint256",
          "internalType": "uint256"
        },
        {
          "name": "timestamp",
          "type": "uint48",
          "internalType": "uint48"
        }
      ],
      "stateMutability": "view"
    },
    {
      "type": "function",
      "name": "decimals",
      "inputs": [],
      "outputs": [
        {
          "name": "",
          "type": "uint8",
          "internalType": "uint8"
        }
      ],
      "stateMutability": "view"
    },
    {
      "type": "function",
      "name": "eip712Domain",
      "inputs": [],
      "outputs": [
        {
          "name": "fields",
          "type": "bytes1",
          "internalType": "bytes1"
        },
        {
          "name": "name",
          "type": "string",
          "internalType": "string"
        },
        {
          "name": "version",
          "type": "string",
          "internalType": "string"
        },
        {
          "name": "chainId",
          "type": "uint256",
          "internalType": "uint256"
        },
        {
          "name": "verifyingContract",
          "type": "address",
          "internalType": "address"
        },
        {
          "name": "salt",
          "type": "bytes32",
          "internalType": "bytes32"
        },
        {
          "name": "extensions",
          "type": "uint256[]",
          "internalType": "uint256[]"
        }
      ],
      "stateMutability": "view"
    },
    {
      "type": "function",
      "name": "freeze",
      "inputs": [
        {
          "name": "user",
          "type": "address",
          "internalType": "address"
        },
        {
          "name": "amount",
          "type": "uint256",
          "internalType": "uint256"
        }
      ],
      "outputs": [],
      "stateMutability": "nonpayable"
    },
    {
      "type": "function",
      "name": "frozen",
      "inputs": [
        {
          "name": "user",
          "type": "address",
          "internalType": "address"
        }
      ],
      "outputs": [
        {
          "name": "",
          "type": "uint256",
          "internalType": "uint256"
        }
      ],
      "stateMutability": "view"
    },
    {
      "type": "function",
      "name": "getRoleAdmin",
      "inputs": [
        {
          "name": "role",
          "type": "bytes32",
          "internalType": "bytes32"
        }
      ],
      "outputs": [
        {
          "name": "",
          "type": "bytes32",
          "internalType": "bytes32"
        }
      ],
      "stateMutability": "view"
    },
    {
      "type": "function",
      "name": "grantRole",
      "inputs": [
        {
          "name": "role",
          "type": "bytes32",
          "internalType": "bytes32"
        },
        {
          "name": "account",
          "type": "address",
          "internalType": "address"
        }
      ],
      "outputs": [],
      "stateMutability": "nonpayable"
    },
    {
      "type": "function",
      "name": "hasRole",
      "inputs": [
        {
          "name": "role",
          "type": "bytes32",
          "internalType": "bytes32"
        },
        {
          "name": "account",
          "type": "address",
          "internalType": "address"
        }
      ],
      "outputs": [
        {
          "name": "",
          "type": "bool",
          "internalType": "bool"
        }
      ],
      "stateMutability": "view"
    },
    {
      "type": "function",
      "name": "isTrustedForwarder",
      "inputs": [
        {
          "name": "forwarder",
          "type": "address",
          "internalType": "address"
        }
      ],
      "outputs": [
        {
          "name": "",
          "type": "bool",
          "internalType": "bool"
        }
      ],
      "stateMutability": "view"
    },
    {
      "type": "function",
      "name": "lastCollateralUpdate",
      "inputs": [],
      "outputs": [
        {
          "name": "",
          "type": "uint256",
          "internalType": "uint256"
        }
      ],
      "stateMutability": "view"
    },
    {
      "type": "function",
      "name": "liveness",
      "inputs": [],
      "outputs": [
        {
          "name": "",
          "type": "uint48",
          "internalType": "uint48"
        }
      ],
      "stateMutability": "view"
    },
    {
      "type": "function",
      "name": "mint",
      "inputs": [
        {
          "name": "to",
          "type": "address",
          "internalType": "address"
        },
        {
          "name": "amount",
          "type": "uint256",
          "internalType": "uint256"
        }
      ],
      "outputs": [],
      "stateMutability": "nonpayable"
    },
    {
      "type": "function",
      "name": "name",
      "inputs": [],
      "outputs": [
        {
          "name": "",
          "type": "string",
          "internalType": "string"
        }
      ],
      "stateMutability": "view"
    },
    {
      "type": "function",
      "name": "nonces",
      "inputs": [
        {
          "name": "owner",
          "type": "address",
          "internalType": "address"
        }
      ],
      "outputs": [
        {
          "name": "",
          "type": "uint256",
          "internalType": "uint256"
        }
      ],
      "stateMutability": "view"
    },
    {
      "type": "function",
      "name": "pause",
      "inputs": [],
      "outputs": [],
      "stateMutability": "nonpayable"
    },
    {
      "type": "function",
      "name": "paused",
      "inputs": [],
      "outputs": [
        {
          "name": "",
          "type": "bool",
          "internalType": "bool"
        }
      ],
      "stateMutability": "view"
    },
    {
      "type": "function",
      "name": "permit",
      "inputs": [
        {
          "name": "owner",
          "type": "address",
          "internalType": "address"
        },
        {
          "name": "spender",
          "type": "address",
          "internalType": "address"
        },
        {
          "name": "value",
          "type": "uint256",
          "internalType": "uint256"
        },
        {
          "name": "deadline",
          "type": "uint256",
          "internalType": "uint256"
        },
        {
          "name": "v",
          "type": "uint8",
          "internalType": "uint8"
        },
        {
          "name": "r",
          "type": "bytes32",
          "internalType": "bytes32"
        },
        {
          "name": "s",
          "type": "bytes32",
          "internalType": "bytes32"
        }
      ],
      "outputs": [],
      "stateMutability": "nonpayable"
    },
    {
      "type": "function",
      "name": "renounceRole",
      "inputs": [
        {
          "name": "role",
          "type": "bytes32",
          "internalType": "bytes32"
        },
        {
          "name": "callerConfirmation",
          "type": "address",
          "internalType": "address"
        }
      ],
      "outputs": [],
      "stateMutability": "nonpayable"
    },
    {
      "type": "function",
      "name": "revokeRole",
      "inputs": [
        {
          "name": "role",
          "type": "bytes32",
          "internalType": "bytes32"
        },
        {
          "name": "account",
          "type": "address",
          "internalType": "address"
        }
      ],
      "outputs": [],
      "stateMutability": "nonpayable"
    },
    {
      "type": "function",
      "name": "supportsInterface",
      "inputs": [
        {
          "name": "interfaceId",
          "type": "bytes4",
          "internalType": "bytes4"
        }
      ],
      "outputs": [
        {
          "name": "",
          "type": "bool",
          "internalType": "bool"
        }
      ],
      "stateMutability": "view"
    },
    {
      "type": "function",
      "name": "symbol",
      "inputs": [],
      "outputs": [
        {
          "name": "",
          "type": "string",
          "internalType": "string"
        }
      ],
      "stateMutability": "view"
    },
    {
      "type": "function",
      "name": "totalSupply",
      "inputs": [],
      "outputs": [
        {
          "name": "",
          "type": "uint256",
          "internalType": "uint256"
        }
      ],
      "stateMutability": "view"
    },
    {
      "type": "function",
      "name": "transfer",
      "inputs": [
        {
          "name": "to",
          "type": "address",
          "internalType": "address"
        },
        {
          "name": "value",
          "type": "uint256",
          "internalType": "uint256"
        }
      ],
      "outputs": [
        {
          "name": "",
          "type": "bool",
          "internalType": "bool"
        }
      ],
      "stateMutability": "nonpayable"
    },
    {
      "type": "function",
      "name": "transferFrom",
      "inputs": [
        {
          "name": "from",
          "type": "address",
          "internalType": "address"
        },
        {
          "name": "to",
          "type": "address",
          "internalType": "address"
        },
        {
          "name": "value",
          "type": "uint256",
          "internalType": "uint256"
        }
      ],
      "outputs": [
        {
          "name": "",
          "type": "bool",
          "internalType": "bool"
        }
      ],
      "stateMutability": "nonpayable"
    },
    {
      "type": "function",
      "name": "trustedForwarder",
      "inputs": [],
      "outputs": [
        {
          "name": "",
          "type": "address",
          "internalType": "address"
        }
      ],
      "stateMutability": "view"
    },
    {
      "type": "function",
      "name": "unblockUser",
      "inputs": [
        {
          "name": "user",
          "type": "address",
          "internalType": "address"
        }
      ],
      "outputs": [
        {
          "name": "",
          "type": "bool",
          "internalType": "bool"
        }
      ],
      "stateMutability": "nonpayable"
    },
    {
      "type": "function",
      "name": "unpause",
      "inputs": [],
      "outputs": [],
      "stateMutability": "nonpayable"
    },
    {
      "type": "function",
      "name": "updateCollateral",
      "inputs": [
        {
          "name": "amount",
          "type": "uint256",
          "internalType": "uint256"
        }
      ],
      "outputs": [],
      "stateMutability": "nonpayable"
    },
    {
      "type": "function",
      "name": "withdrawToken",
      "inputs": [
        {
          "name": "token",
          "type": "address",
          "internalType": "address"
        },
        {
          "name": "to",
          "type": "address",
          "internalType": "address"
        },
        {
          "name": "amount",
          "type": "uint256",
          "internalType": "uint256"
        }
      ],
      "outputs": [],
      "stateMutability": "nonpayable"
    },
    {
      "type": "event",
      "name": "Approval",
      "inputs": [
        {
          "name": "owner",
          "type": "address",
          "indexed": true,
          "internalType": "address"
        },
        {
          "name": "spender",
          "type": "address",
          "indexed": true,
          "internalType": "address"
        },
        {
          "name": "value",
          "type": "uint256",
          "indexed": false,
          "internalType": "uint256"
        }
      ],
      "anonymous": false
    },
    {
      "type": "event",
      "name": "Clawback",
      "inputs": [
        {
          "name": "from",
          "type": "address",
          "indexed": true,
          "internalType": "address"
        },
        {
          "name": "to",
          "type": "address",
          "indexed": true,
          "internalType": "address"
        },
        {
          "name": "amount",
          "type": "uint256",
          "indexed": false,
          "internalType": "uint256"
        },
        {
          "name": "sender",
          "type": "address",
          "indexed": true,
          "internalType": "address"
        }
      ],
      "anonymous": false
    },
    {
      "type": "event",
      "name": "CollateralUpdated",
      "inputs": [
        {
          "name": "oldAmount",
          "type": "uint256",
          "indexed": false,
          "internalType": "uint256"
        },
        {
          "name": "newAmount",
          "type": "uint256",
          "indexed": false,
          "internalType": "uint256"
        },
        {
          "name": "timestamp",
          "type": "uint256",
          "indexed": false,
          "internalType": "uint256"
        },
        {
          "name": "sender",
          "type": "address",
          "indexed": true,
          "internalType": "address"
        }
      ],
      "anonymous": false
    },
    {
      "type": "event",
      "name": "EIP712DomainChanged",
      "inputs": [],
      "anonymous": false
    },
    {
      "type": "event",
      "name": "Paused",
      "inputs": [
        {
          "name": "account",
          "type": "address",
          "indexed": false,
          "internalType": "address"
        }
      ],
      "anonymous": false
    },
    {
      "type": "event",
      "name": "RoleAdminChanged",
      "inputs": [
        {
          "name": "role",
          "type": "bytes32",
          "indexed": true,
          "internalType": "bytes32"
        },
        {
          "name": "previousAdminRole",
          "type": "bytes32",
          "indexed": true,
          "internalType": "bytes32"
        },
        {
          "name": "newAdminRole",
          "type": "bytes32",
          "indexed": true,
          "internalType": "bytes32"
        }
      ],
      "anonymous": false
    },
    {
      "type": "event",
      "name": "RoleGranted",
      "inputs": [
        {
          "name": "role",
          "type": "bytes32",
          "indexed": true,
          "internalType": "bytes32"
        },
        {
          "name": "account",
          "type": "address",
          "indexed": true,
          "internalType": "address"
        },
        {
          "name": "sender",
          "type": "address",
          "indexed": true,
          "internalType": "address"
        }
      ],
      "anonymous": false
    },
    {
      "type": "event",
      "name": "RoleRevoked",
      "inputs": [
        {
          "name": "role",
          "type": "bytes32",
          "indexed": true,
          "internalType": "bytes32"
        },
        {
          "name": "account",
          "type": "address",
          "indexed": true,
          "internalType": "address"
        },
        {
          "name": "sender",
          "type": "address",
          "indexed": true,
          "internalType": "address"
        }
      ],
      "anonymous": false
    },
    {
      "type": "event",
      "name": "TokenWithdrawn",
      "inputs": [
        {
          "name": "token",
          "type": "address",
          "indexed": true,
          "internalType": "address"
        },
        {
          "name": "to",
          "type": "address",
          "indexed": true,
          "internalType": "address"
        },
        {
          "name": "amount",
          "type": "uint256",
          "indexed": false,
          "internalType": "uint256"
        },
        {
          "name": "sender",
          "type": "address",
          "indexed": true,
          "internalType": "address"
        }
      ],
      "anonymous": false
    },
    {
      "type": "event",
      "name": "TokensFrozen",
      "inputs": [
        {
          "name": "user",
          "type": "address",
          "indexed": true,
          "internalType": "address"
        },
        {
          "name": "amount",
          "type": "uint256",
          "indexed": false,
          "internalType": "uint256"
        }
      ],
      "anonymous": false
    },
    {
      "type": "event",
      "name": "TokensUnfrozen",
      "inputs": [
        {
          "name": "user",
          "type": "address",
          "indexed": true,
          "internalType": "address"
        },
        {
          "name": "amount",
          "type": "uint256",
          "indexed": false,
          "internalType": "uint256"
        }
      ],
      "anonymous": false
    },
    {
      "type": "event",
      "name": "Transfer",
      "inputs": [
        {
          "name": "from",
          "type": "address",
          "indexed": true,
          "internalType": "address"
        },
        {
          "name": "to",
          "type": "address",
          "indexed": true,
          "internalType": "address"
        },
        {
          "name": "value",
          "type": "uint256",
          "indexed": false,
          "internalType": "uint256"
        }
      ],
      "anonymous": false
    },
    {
      "type": "event",
      "name": "Unpaused",
      "inputs": [
        {
          "name": "account",
          "type": "address",
          "indexed": false,
          "internalType": "address"
        }
      ],
      "anonymous": false
    },
    {
      "type": "event",
      "name": "UserBlocked",
      "inputs": [
        {
          "name": "user",
          "type": "address",
          "indexed": true,
          "internalType": "address"
        }
      ],
      "anonymous": false
    },
    {
      "type": "event",
      "name": "UserUnblocked",
      "inputs": [
        {
          "name": "user",
          "type": "address",
          "indexed": true,
          "internalType": "address"
        }
      ],
      "anonymous": false
    },
    {
      "type": "error",
      "name": "AccessControlBadConfirmation",
      "inputs": []
    },
    {
      "type": "error",
      "name": "AccessControlUnauthorizedAccount",
      "inputs": [
        {
          "name": "account",
          "type": "address",
          "internalType": "address"
        },
        {
          "name": "neededRole",
          "type": "bytes32",
          "internalType": "bytes32"
        }
      ]
    },
    {
      "type": "error",
      "name": "ECDSAInvalidSignature",
      "inputs": []
    },
    {
      "type": "error",
      "name": "ECDSAInvalidSignatureLength",
      "inputs": [
        {
          "name": "length",
          "type": "uint256",
          "internalType": "uint256"
        }
      ]
    },
    {
      "type": "error",
      "name": "ECDSAInvalidSignatureS",
      "inputs": [
        {
          "name": "s",
          "type": "bytes32",
          "internalType": "bytes32"
        }
      ]
    },
    {
      "type": "error",
      "name": "ERC20Blocked",
      "inputs": [
        {
          "name": "user",
          "type": "address",
          "internalType": "address"
        }
      ]
    },
    {
      "type": "error",
      "name": "ERC20ExceededSupply",
      "inputs": [
        {
          "name": "increasedSupply",
          "type": "uint256",
          "internalType": "uint256"
        },
        {
          "name": "cap",
          "type": "uint256",
          "internalType": "uint256"
        }
      ]
    },
    {
      "type": "error",
      "name": "ERC20ExpiredCollateral",
      "inputs": [
        {
          "name": "timestamp",
          "type": "uint48",
          "internalType": "uint48"
        },
        {
          "name": "expiration",
          "type": "uint48",
          "internalType": "uint48"
        }
      ]
    },
    {
      "type": "error",
      "name": "ERC20InsufficientAllowance",
      "inputs": [
        {
          "name": "spender",
          "type": "address",
          "internalType": "address"
        },
        {
          "name": "allowance",
          "type": "uint256",
          "internalType": "uint256"
        },
        {
          "name": "needed",
          "type": "uint256",
          "internalType": "uint256"
        }
      ]
    },
    {
      "type": "error",
      "name": "ERC20InsufficientBalance",
      "inputs": [
        {
          "name": "sender",
          "type": "address",
          "internalType": "address"
        },
        {
          "name": "balance",
          "type": "uint256",
          "internalType": "uint256"
        },
        {
          "name": "needed",
          "type": "uint256",
          "internalType": "uint256"
        }
      ]
    },
    {
      "type": "error",
      "name": "ERC20InsufficientFrozenBalance",
      "inputs": [
        {
          "name": "user",
          "type": "address",
          "internalType": "address"
        }
      ]
    },
    {
      "type": "error",
      "name": "ERC20InsufficientUnfrozenBalance",
      "inputs": [
        {
          "name": "user",
          "type": "address",
          "internalType": "address"
        }
      ]
    },
    {
      "type": "error",
      "name": "ERC20InvalidApprover",
      "inputs": [
        {
          "name": "approver",
          "type": "address",
          "internalType": "address"
        }
      ]
    },
    {
      "type": "error",
      "name": "ERC20InvalidReceiver",
      "inputs": [
        {
          "name": "receiver",
          "type": "address",
          "internalType": "address"
        }
      ]
    },
    {
      "type": "error",
      "name": "ERC20InvalidSender",
      "inputs": [
        {
          "name": "sender",
          "type": "address",
          "internalType": "address"
        }
      ]
    },
    {
      "type": "error",
      "name": "ERC20InvalidSpender",
      "inputs": [
        {
          "name": "spender",
          "type": "address",
          "internalType": "address"
        }
      ]
    },
    {
      "type": "error",
      "name": "ERC20NotCustodian",
      "inputs": []
    },
    {
      "type": "error",
      "name": "ERC2612ExpiredSignature",
      "inputs": [
        {
          "name": "deadline",
          "type": "uint256",
          "internalType": "uint256"
        }
      ]
    },
    {
      "type": "error",
      "name": "ERC2612InvalidSigner",
      "inputs": [
        {
          "name": "signer",
          "type": "address",
          "internalType": "address"
        },
        {
          "name": "owner",
          "type": "address",
          "internalType": "address"
        }
      ]
    },
    {
      "type": "error",
      "name": "EnforcedPause",
      "inputs": []
    },
    {
      "type": "error",
      "name": "ExpectedPause",
      "inputs": []
    },
    {
      "type": "error",
      "name": "InsufficientCollateral",
      "inputs": []
    },
    {
      "type": "error",
      "name": "InsufficientTokenBalance",
      "inputs": []
    },
    {
      "type": "error",
      "name": "InvalidAccountNonce",
      "inputs": [
        {
          "name": "account",
          "type": "address",
          "internalType": "address"
        },
        {
          "name": "currentNonce",
          "type": "uint256",
          "internalType": "uint256"
        }
      ]
    },
    {
      "type": "error",
      "name": "InvalidDecimals",
      "inputs": [
        {
          "name": "decimals",
          "type": "uint8",
          "internalType": "uint8"
        }
      ]
    },
    {
      "type": "error",
      "name": "InvalidISIN",
      "inputs": []
    },
    {
      "type": "error",
      "name": "InvalidLiveness",
      "inputs": []
    },
    {
      "type": "error",
      "name": "InvalidShortString",
      "inputs": []
    },
    {
      "type": "error",
      "name": "InvalidTokenAddress",
      "inputs": []
    },
    {
      "type": "error",
      "name": "SafeERC20FailedOperation",
      "inputs": [
        {
          "name": "token",
          "type": "address",
          "internalType": "address"
        }
      ]
    },
    {
      "type": "error",
      "name": "StringTooLong",
      "inputs": [
        {
          "name": "str",
          "type": "string",
          "internalType": "string"
        }
      ]
    }
  ],
  "bytecode": {
    "object": "0x6101c0806040523461050b57612d5b803803809161001d8285610510565b833981019060c08183031261050b5780516001600160401b03811161050b5782610048918301610556565b602082015190926001600160401b03821161050b57610068918301610556565b9160408201519160ff831680840361050b57610086606083016105aa565b92608083015165ffffffffffff81169384820361050b5760a06100a991016105aa565b916040978851916100ba8a84610510565b60018352603160f81b6020840190815281519092906001600160401b03811161041557600354600181811c91168015610501575b60208210146103f557601f811161049c575b50806020601f82116001146104365760009161042b575b508160011b916000199060031b1c1916176003555b8051906001600160401b0382116104155760045490600182811c9216801561040b575b60208310146103f55781601f849311610385575b50602090601f831160011461031d57600092610312575b50508160011b916000199060031b1c1916176004555b60ff19600554166005556101a38161084c565b610120526101b0836109dd565b6101405260208151910120918260e05251902080610100524660a05288519060208201927f8b73c3c69bb8fe3d512ecc4cf759cc79239f7b179b0ffacaa9a75d522b39400f84528a83015260608201524660808201523060a082015260a0815261021b60c082610510565b5190206080523060c0526101605261018052601281116102fe5750156102ed5761026a916101a05242600e55610250816105be565b5061025a8161064e565b50610264816106f8565b506107a2565b50516121499081610b72823960805181611caa015260a05181611d67015260c05181611c74015260e05181611cf901526101005181611d1f015261012051816106e9015261014051816107130152610160518181816109810152610cf701526101805181818161088801528181610b500152611f1a01526101a05181610feb0152f35b63217ffe5b60e21b60005260046000fd5b63ca95039160e01b60005260045260246000fd5b01519050388061017a565b600460009081528281209350601f198516905b81811061036d5750908460019594939210610354575b505050811b01600455610190565b015160001960f88460031b161c19169055388080610346565b92936020600181928786015181550195019301610330565b60046000529091507f8a35acfbc15ff81a39ae7d344fd709f28e8600b4aa8c65c6b64bfe7fe36bd19b601f840160051c810191602085106103eb575b90601f859493920160051c01905b8181106103dc5750610163565b600081558493506001016103cf565b90915081906103c1565b634e487b7160e01b600052602260045260246000fd5b91607f169161014f565b634e487b7160e01b600052604160045260246000fd5b905083015138610117565b600360009081528181209250601f198416905b8181106104845750908360019493921061046b575b5050811b0160035561012c565b85015160001960f88460031b161c19169055388061045e565b9192602060018192868a015181550194019201610449565b60036000527fc2575a0e9e593c00f959f8c92f12db2869c3395a3b0502d05e2516446f71f85b601f830160051c810191602084106104f7575b601f0160051c01905b8181106104eb5750610100565b600081556001016104de565b90915081906104d5565b90607f16906100ee565b600080fd5b601f909101601f19168101906001600160401b0382119082101761041557604052565b60005b8381106105465750506000910152565b8181015183820152602001610536565b81601f8201121561050b5780516001600160401b0381116104155760405192610589601f8301601f191660200185610510565b8184526020828401011161050b576105a79160208085019101610533565b90565b51906001600160a01b038216820361050b57565b6001600160a01b0381166000908152600080516020612d3b833981519152602052604090205460ff16610648576001600160a01b038181166000908152600080516020612d3b83398151915260205260409020805460ff19166001179055610624610b1f565b16906001600160a01b03166000600080516020612cbb8339815191528180a4600190565b50600090565b6001600160a01b0381166000908152600080516020612cdb833981519152602052604090205460ff16610648576001600160a01b038181166000908152600080516020612cdb83398151915260205260409020805460ff191660011790556106b4610b1f565b16906001600160a01b03167f47b7a6ef32f924153c4c0c2f871f8856bd114b4903c167827ef0f0694c583e27600080516020612cbb833981519152600080a4600190565b6001600160a01b0381166000908152600080516020612cfb833981519152602052604090205460ff16610648576001600160a01b038181166000908152600080516020612cfb83398151915260205260409020805460ff1916600117905561075e610b1f565b16906001600160a01b03167f4f218fa1cf3180113024eb1bbca508696a5a0f0ecafaeea4da87c53e5d465892600080516020612cbb833981519152600080a4600190565b6001600160a01b0381166000908152600080516020612d1b833981519152602052604090205460ff16610648576001600160a01b038181166000908152600080516020612d1b83398151915260205260409020805460ff19166001179055610808610b1f565b16906001600160a01b03167f59a1c48e5837ad7a7f3dcedcbe129bf3249ec4fbf651fd4f5e2600ead39fe2f5600080516020612cbb833981519152600080a4600190565b908151602081106000146108c7575090601f815111610888576020815191015160208210610878571790565b6000198260200360031b1b161790565b6044604051809263305a27a960e01b8252602060048301526108b98151809281602486015260208686019101610533565b601f01601f19168101030190fd5b6001600160401b03811161041557600754600181811c911680156109d3575b60208210146103f557601f811161099d575b50602092601f8211600114610938579281929360009261092d575b50508160011b916000199060031b1c19161760075560ff90565b015190503880610913565b601f198216936007600052806000209160005b868110610985575083600195961061096c575b505050811b0160075560ff90565b015160001960f88460031b161c1916905538808061095e565b9192602060018192868501518155019401920161094b565b6007600052601f6020600020910160051c810190601f830160051c015b8181106109c757506108f8565b600081556001016109ba565b90607f16906108e6565b90815160208110600014610a09575090601f815111610888576020815191015160208210610878571790565b6001600160401b03811161041557600854600181811c91168015610b15575b60208210146103f557601f8111610adf575b50602092601f8211600114610a7a5792819293600092610a6f575b50508160011b916000199060031b1c19161760085560ff90565b015190503880610a55565b601f198216936008600052806000209160005b868110610ac75750836001959610610aae575b505050811b0160085560ff90565b015160001960f88460031b161c19169055388080610aa0565b91926020600181928685015181550194019201610a8d565b6008600052601f6020600020910160051c810190601f830160051c015b818110610b095750610a3a565b60008155600101610afc565b90607f1690610a28565b610180516001600160a01b0316331480610b66575b15610b62576013193601368111610b4c573560601c90565b634e487b7160e01b600052601160045260246000fd5b3390565b506014361015610b3456fe6080604052600436101561001257600080fd5b6000803560e01c806301e336671461135857806301ffc9a7146112fd57806306fdde031461122e578063095ea7b3146112005780630c7c8e89146111c55780630cfbfcde146111a557806318160ddd1461118757806323b872dd14611168578063248a9ca31461113a57806324bce60c146110505780632f2ff15d1461100f578063313ce56714610fd15780633644e51514610fb657806336568abe14610f6157806339d319e514610ed35780633da0132514610e425780633f4ba83a14610ddc57806340c10f1914610bf457806342966c6814610bd45780634bf5d7e914610b84578063572b6c0514610b2f5780635c975abb14610b0c5780636721de26146109a55780636ad0690a146109625780636e1d616e1461092757806370a08231146108ef57806379cc6790146108b75780637da0a877146108725780637ecebe00146108395780638456cb59146107cc57806384b0196e146106cf57806391d148541461068357806391ddadf41461066057806395d89b411461057b5780639933de0f14610540578063a0821be314610514578063a217fddf146104f8578063a9059cbb146104bf578063d051665014610486578063d505accf14610337578063d547741f146102ed578063d8dfeb45146102c0578063dd62ed3e1461026b578063e59621951461022c5763f892178f1461020c57600080fd5b346102295780600319360112610229576020600e54604051908152f35b80fd5b50346102295760203660031901126102295760209060ff906040906001600160a01b03610257611378565b168152600a84522054166040519015158152f35b5034610229576040366003190112610229576040610287611378565b91610290611393565b9260018060a01b031681526001602052209060018060a01b03166000526020526020604060002054604051908152f35b50346102295780600319360112610229576040600c5465ffffffffffff600d541682519182526020820152f35b50346102295760403660031901126102295761033360043561030d611393565b9061032e61032982600052600660205260016040600020015490565b6118ca565b611d8d565b5080f35b50346102295760e036600319011261022957610351611378565b9061035a611393565b604435906064359360843560ff811681036104825785421161046e5761042e6104379160018060a01b03841697888852600960205260408820908154916001830190556040519060208201927f6e71edae12b1b97f4d1f60370fef10105fa2faae0126114a169c64845d6126c984528b604084015260018060a01b038916606084015289608084015260a083015260c082015260c081526103fc60e082611424565b519020610407611c71565b906040519161190160f01b83526002830152602282015260c43591604260a435922061202b565b909291926120b4565b6001600160a01b0316948086036104575750610454939450611920565b80f35b6325c0072360e11b85526004869052602452604484fd5b63313c898160e11b85526004869052602485fd5b8480fd5b5034610229576020366003190112610229576020906040906001600160a01b036104ae611378565b168152600b83522054604051908152f35b5034610229576040366003190112610229576104ed6104dc611378565b602435906104e8611f17565b6119cb565b602060405160018152f35b5034610229578060031936011261022957602090604051908152f35b5034610229576020366003190112610229576020610538610533611378565b611710565b604051908152f35b503461022957806003193601126102295760206040517f47b7a6ef32f924153c4c0c2f871f8856bd114b4903c167827ef0f0694c583e278152f35b5034610229578060031936011261022957604051600060045461059d816115ad565b808452906001811690811561063c57506001146105dd575b6105d9836105c581850382611424565b6040519182916020835260208301906113e3565b0390f35b600460009081527f8a35acfbc15ff81a39ae7d344fd709f28e8600b4aa8c65c6b64bfe7fe36bd19b939250905b808210610622575090915081016020016105c56105b5565b91926001816020925483858801015201910190929161060a565b60ff191660208086019190915291151560051b840190910191506105c590506105b5565b5034610229578060031936011261022957602060405165ffffffffffff42168152f35b503461022957604036600319011261022957604061069f611393565b9160043581526006602052209060018060a01b0316600052602052602060ff604060002054166040519015158152f35b50346102295780600319360112610229576107709061070d7f0000000000000000000000000000000000000000000000000000000000000000611f8d565b906107377f0000000000000000000000000000000000000000000000000000000000000000611ff4565b90602061077e6040519361074b8386611424565b8385526000368137604051968796600f60f81b885260e08589015260e08801906113e3565b9086820360408801526113e3565b904660608601523060808601528260a086015284820360c08601528080855193848152019401925b8281106107b557505050500390f35b8351855286955093810193928101926001016107a6565b50346102295780600319360112610229576107e561173e565b6107ed611f70565b600160ff1960055416176005557f62e78cea01bee320cd4e420270b5ea74000d11b0c9f74754ebdbfc544b05a2586020610825611f17565b6040516001600160a01b039091168152a180f35b5034610229576020366003190112610229576020906040906001600160a01b03610861611378565b168152600983522054604051908152f35b50346102295780600319360112610229576040517f00000000000000000000000000000000000000000000000000000000000000006001600160a01b03168152602090f35b5034610229576040366003190112610229576104546108d4611378565b602435906108ea826108e4611f17565b83611aff565b611e21565b5034610229576020366003190112610229576020906040906001600160a01b03610917611378565b1681528083522054604051908152f35b503461022957806003193601126102295760206040517f59a1c48e5837ad7a7f3dcedcbe129bf3249ec4fbf651fd4f5e2600ead39fe2f58152f35b5034610229578060031936011261022957602060405165ffffffffffff7f0000000000000000000000000000000000000000000000000000000000000000168152f35b5034610229576020366003190112610229576004356109c2611f17565b6001600160a01b03811660009081527f242ea55e8d2c4ef0e59404c6dcfea3779f40e53603acb1ace99e5296fe40e3de602052604090205460ff1615610ac757506002548110610ab857600c5465ffffffffffff421660405191604083019183831067ffffffffffffffff841117610aa2578060207fa2d1a1c1928bce33b4e189c2b01e304d30120dc60007771c4f4285e3db6f032495606095604052878152015284600c5565ffffffffffff19600d541617600d5542600e5560018060a01b03610a8b611f17565b16936040519182526020820152426040820152a280f35b634e487b7160e01b600052604160045260246000fd5b633a23d82560e01b8252600482fd5b63e2517d3f60e01b60009081526001600160a01b03919091166004527f59a1c48e5837ad7a7f3dcedcbe129bf3249ec4fbf651fd4f5e2600ead39fe2f5602452604490fd5b5034610229578060031936011261022957602060ff600554166040519015158152f35b5034610229576020366003190112610229576020610b4b611378565b6040517f00000000000000000000000000000000000000000000000000000000000000006001600160a01b039081169216919091148152f35b50346102295780600319360112610229576105d96040805190610ba78183611424565b600e82526d06d6f64653d74696d657374616d760941b6020830152519182916020835260208301906113e3565b5034610229576020366003190112610229576104546004356108ea611f17565b503461022957604036600319011261022957610c0e611378565b60243590610c1a6117aa565b600c54610c29836002546116ed565b11610dcd576001600160a01b0316918215610db9575060008052600a6020527f13da86008ba1c6922daee3e07db95305ef49ebced9f5467a0b8613fcc6b343e35460ff16610da35781600052600a60205260ff60406000205416610d8e5790602091610c93611f70565b610c9f816002546116ed565b6002557fddf252ad1be2c89b69c2b068fc378daa952ba7f163c4a11628f55a4df523b3ef600093849284845283825260408420818154019055604051908152a3600c549065ffffffffffff600d541665ffffffffffff7f000000000000000000000000000000000000000000000000000000000000000016810165ffffffffffff8111610d7a5765ffffffffffff169065ffffffffffff42168210610d6457505060025491808311610d4f575080f35b604492631538af8160e21b8352600452602452fd5b63724c9be360e01b835260045260245260449150fd5b634e487b7160e01b83526011600452602483fd5b50635ff1c9b960e11b60005260045260246000fd5b635ff1c9b960e11b600052600060045260246000fd5b63ec442f0560e01b81526004819052602490fd5b633a23d82560e01b8352600483fd5b5034610229578060031936011261022957610df561173e565b60055460ff811615610e335760ff19166005557f5db9ee0a495bf2e6ff9c91a7834c1ba4fdd244a5e8aa4e537bd38aeae4b073aa6020610825611f17565b638dfc202b60e01b8252600482fd5b503461022957602036600319011261022957602090610e5f611378565b610e6761183a565b6001600160a01b0316808252600a8352604082205460ff16159182610e92575b505060405190158152f35b818152600a845260408120805460ff191660011790557fca86d8c91ca6d00afd863578cc633a0901fad724592f89649629fe65f61410d29080a23880610e87565b503461022957602036600319011261022957602090610ef0611378565b610ef861183a565b6001600160a01b0316808252600a8352604082205460ff169182610f23575b50506040519015158152f35b818152600a845260408120805460ff191690557f798117ec059ab8d319461ef2502b1f9d8a47cd966bfd1f3e23b6f26c30bebb779080a23880610f17565b503461022957604036600319011261022957610f7b611393565b6001600160a01b03610f8b611f17565b166001600160a01b03821603610fa75761033390600435611d8d565b63334bd91960e11b8252600482fd5b50346102295780600319360112610229576020610538611c71565b5034610229578060031936011261022957602060405160ff7f0000000000000000000000000000000000000000000000000000000000000000168152f35b50346102295760403660031901126102295761033360043561102f611393565b9061104b61032982600052600660205260016040600020015490565b611bd4565b50346102295760403660031901126102295761106a611378565b60243590611076611f17565b7f4f218fa1cf3180113024eb1bbca508696a5a0f0ecafaeea4da87c53e5d46589284526006602052604084209060018060a01b0316845260205260ff6040842054161561112b57816110c782611710565b106111105760207fa065e63c631c86f1b9f66a4a2f63f2093bf1c2168d23290259dbd969e0222a459160018060a01b031692838552600b8252806040862055604051908152a280f35b6314884b4960e01b83526001600160a01b0316600452602482fd5b63bb4be5f360e01b8352600483fd5b5034610229576020366003190112610229576020610538600435600052600660205260016040600020015490565b5034610229576104ed61117a366113a9565b916104e8836108e4611f17565b50346102295780600319360112610229576020600254604051908152f35b5034610229576104546111b7366113a9565b916111c06117aa565b61166a565b503461022957806003193601126102295760206040517f4f218fa1cf3180113024eb1bbca508696a5a0f0ecafaeea4da87c53e5d4658928152f35b5034610229576040366003190112610229576104ed61121d611378565b60243590611229611f17565b611920565b5034610229578060031936011261022957604051908060035490611251826115ad565b80855291600181169081156112d65750600114611279575b6105d9846105c581860382611424565b600381527fc2575a0e9e593c00f959f8c92f12db2869c3395a3b0502d05e2516446f71f85b939250905b8082106112bc575090915081016020016105c582611269565b9192600181602092548385880101520191019092916112a3565b60ff191660208087019190915292151560051b850190920192506105c59150839050611269565b50346102295760203660031901126102295760043563ffffffff60e01b811680910361135457602090637965db0b60e01b8114908115611343575b506040519015158152f35b6301ffc9a760e01b14905082611338565b5080fd5b50346102295761045461136a366113a9565b9161137361173e565b611446565b600435906001600160a01b038216820361138e57565b600080fd5b602435906001600160a01b038216820361138e57565b606090600319011261138e576004356001600160a01b038116810361138e57906024356001600160a01b038116810361138e579060443590565b919082519283825260005b84811061140f575050826000602080949584010152601f8019910116010190565b806020809284010151828286010152016113ee565b90601f8019910116810190811067ffffffffffffffff821117610aa257604052565b6001600160a01b031690811561159c576001600160a01b031690811561159c578215611597576040516370a0823160e01b8152306004820152602081602481855afa8015611545578491600091611562575b501061155157602060006040518281019063a9059cbb60e01b8252856024820152866044820152604481526114ce606482611424565b519082855af115611545576000513d61153c5750803b155b611528577f2017ff49f5dedb0169265520a1792549adf2bd026c9740cd9a8dc5f3f08252a860206001600160a01b0361151d611f17565b1694604051908152a4565b635274afe760e01b60005260045260246000fd5b600114156114e6565b6040513d6000823e3d90fd5b637222ae5760e11b60005260046000fd5b9150506020813d60201161158f575b8161157e60209383611424565b8101031261138e5783905138611498565b3d9150611571565b505050565b630f58058360e11b60005260046000fd5b90600182811c921680156115dd575b60208310146115c757565b634e487b7160e01b600052602260045260246000fd5b91607f16916115bc565b600092918154916115f7836115ad565b808352926001811690811561164d575060011461161357505050565b60009081526020812093945091925b838310611633575060209250010190565b600181602092949394548385870101520191019190611622565b915050602093945060ff929192191683830152151560051b010190565b906001600160a01b03821690811561159c576001600160a01b03811692831561159c5784156116e6578260005260006020528460406000205410611551576116b39185916119cb565b7ff92c2203b7c3705a966df3ac08c40e3abcec988c5db987d1ad144cb13a2e828d60206001600160a01b0361151d611f17565b5050505050565b919082018092116116fa57565b634e487b7160e01b600052601160045260246000fd5b6001600160a01b031660009081526020818152604080832054600b9092529091205481039081116116fa5790565b611746611f17565b6001600160a01b03811660009081527f54cdd369e4e8a8515e52ca72ec816c2101831ad1f18bf44102ed171459c9b4f8602052604090205460ff16156117895750565b63e2517d3f60e01b60005260018060a01b0316600452600060245260446000fd5b6117b2611f17565b6001600160a01b03811660009081527f47126590d8f3924481f49abd583f0b1fb5dbeb4aa81a45c542a2e8abe057ecf6602052604090205460ff16156117f55750565b63e2517d3f60e01b60009081526001600160a01b03919091166004527f47b7a6ef32f924153c4c0c2f871f8856bd114b4903c167827ef0f0694c583e27602452604490fd5b611842611f17565b6001600160a01b03811660009081527f8cece44ced69f38a17557f06a48d6e1a43d11406d45518d659faeeafd37a717d602052604090205460ff16156118855750565b63e2517d3f60e01b60009081526001600160a01b03919091166004527f4f218fa1cf3180113024eb1bbca508696a5a0f0ecafaeea4da87c53e5d465892602452604490fd5b6118d2611f17565b816000526006602052604060002060018060a01b03821660005260205260ff6040600020541615611901575050565b63e2517d3f60e01b60005260018060a01b031660045260245260446000fd5b6001600160a01b03166000818152600a602052604090205490919060ff16610d8e5781156119b5576001600160a01b031691821561199f5760207f8c5be1e5ebec7d5bd14f71427d1e84f3dd0314c0f7b2291e5b200ac8c7c3b925918360005260018252604060002085600052825280604060002055604051908152a3565b634a1406b160e11b600052600060045260246000fd5b63e602df0560e01b600052600060045260246000fd5b916001600160a01b038316918215611ae9576001600160a01b0316928315611ad3576119f78291611710565b10611abe5781600052600a60205260ff60406000205416610d8e5782600052600a60205260ff60406000205416611aa957611a30611f70565b6000828152806020526040812054828110611a8f5791604082827fddf252ad1be2c89b69c2b068fc378daa952ba7f163c4a11628f55a4df523b3ef958760209652828652038282205586815280845220818154019055604051908152a3565b916064928463391434e360e21b8452600452602452604452fd5b82635ff1c9b960e11b60005260045260246000fd5b506314884b4960e01b60005260045260246000fd5b63ec442f0560e01b600052600060045260246000fd5b634b637e8f60e11b600052600060045260246000fd5b6001600160a01b039081166000818152600160209081526040808320948616835293905291909120549291906000198410611b3b575b50505050565b828410611baf5780600052600a60205260ff60406000205416611b9b5780156119b5576001600160a01b0382161561199f57600052600160205260406000209060018060a01b031660005260205260406000209103905538808080611b35565b635ff1c9b960e11b60005260045260246000fd5b508290637dc7a0d960e11b60005260018060a01b031660045260245260445260646000fd5b60008181526006602090815260408083206001600160a01b038616845290915290205460ff16611c6a5760008181526006602090815260408083206001600160a01b0386811685529252909120805460ff19166001179055611c34611f17565b16916001600160a01b0316907f2f8788117e7eff1d82e926ec794901d17c78024a50270940304540a733656f0d600080a4600190565b5050600090565b307f00000000000000000000000000000000000000000000000000000000000000006001600160a01b03161480611d64575b15611ccc577f000000000000000000000000000000000000000000000000000000000000000090565b60405160208101907f8b73c3c69bb8fe3d512ecc4cf759cc79239f7b179b0ffacaa9a75d522b39400f82527f000000000000000000000000000000000000000000000000000000000000000060408201527f000000000000000000000000000000000000000000000000000000000000000060608201524660808201523060a082015260a08152611d5e60c082611424565b51902090565b507f00000000000000000000000000000000000000000000000000000000000000004614611ca3565b60008181526006602090815260408083206001600160a01b038616845290915290205460ff1615611c6a5760008181526006602090815260408083206001600160a01b0386811685529252909120805460ff19169055611deb611f17565b16916001600160a01b0316907ff6391f5c32d9c69d2a47ea670b442974b53935d1edc7fd64eb21e047a839171b600080a4600190565b6001600160a01b038116908115611ae957611e3c8391611710565b10611f035780600052600a60205260ff60406000205416611b9b5760008052600a6020527f13da86008ba1c6922daee3e07db95305ef49ebced9f5467a0b8613fcc6b343e35460ff16610da357611e91611f70565b600091818352826020526040832054818110611eea57817fddf252ad1be2c89b69c2b068fc378daa952ba7f163c4a11628f55a4df523b3ef926020928587528684520360408620558060025403600255604051908152a3565b6064939263391434e360e21b8452600452602452604452fd5b6314884b4960e01b60005260045260246000fd5b337f00000000000000000000000000000000000000000000000000000000000000006001600160a01b03161480611f65575b15611f615760131936013681116116fa573560601c90565b3390565b506014361015611f49565b60ff60055416611f7c57565b63d93c066560e01b60005260046000fd5b60ff8114611fd75760ff811690601f8211611fc6576040805192611fb18285611424565b6020808552840191601f190136833783525290565b632cd44ac360e21b60005260046000fd5b50604051611ff181611fea8160076115e7565b0382611424565b90565b60ff81146120185760ff811690601f8211611fc6576040805192611fb18285611424565b50604051611ff181611fea8160086115e7565b91907f7fffffffffffffffffffffffffffffff5d576e7357a4501ddfe92f46681b20a084116120a8579160209360809260ff60009560405194855216868401526040830152606082015282805260015afa15611545576000516001600160a01b0381161561209c5790600090600090565b50600090600190600090565b50505060009160039190565b919091600481101561212657806120ca57509050565b6000600182036120e55763f645eedf60e01b60005260046000fd5b5060028103612103578263fce698f760e01b60005260045260246000fd5b9091600360009214612113575050565b6335e2f38360e21b825260045260249150fd5b634e487b7160e01b600052602160045260246000fdfea164736f6c634300081c000a2f8788117e7eff1d82e926ec794901d17c78024a50270940304540a733656f0d47126590d8f3924481f49abd583f0b1fb5dbeb4aa81a45c542a2e8abe057ecf68cece44ced69f38a17557f06a48d6e1a43d11406d45518d659faeeafd37a717d242ea55e8d2c4ef0e59404c6dcfea3779f40e53603acb1ace99e5296fe40e3de54cdd369e4e8a8515e52ca72ec816c2101831ad1f18bf44102ed171459c9b4f8",
    "linkReferences": {}
  },
  "methodIdentifiers": {
    "AUDITOR_ROLE()": "6e1d616e",
    "CLOCK_MODE()": "4bf5d7e9",
    "DEFAULT_ADMIN_ROLE()": "a217fddf",
    "DOMAIN_SEPARATOR()": "3644e515",
    "SUPPLY_MANAGEMENT_ROLE()": "9933de0f",
    "USER_MANAGEMENT_ROLE()": "0c7c8e89",
    "allowance(address,address)": "dd62ed3e",
    "approve(address,uint256)": "095ea7b3",
    "availableBalance(address)": "a0821be3",
    "balanceOf(address)": "70a08231",
    "blockUser(address)": "3da01325",
    "blocked(address)": "e5962195",
    "burn(uint256)": "42966c68",
    "burnFrom(address,uint256)": "79cc6790",
    "clawback(address,address,uint256)": "0cfbfcde",
    "clock()": "91ddadf4",
    "collateral()": "d8dfeb45",
    "decimals()": "313ce567",
    "eip712Domain()": "84b0196e",
    "freeze(address,uint256)": "24bce60c",
    "frozen(address)": "d0516650",
    "getRoleAdmin(bytes32)": "248a9ca3",
    "grantRole(bytes32,address)": "2f2ff15d",
    "hasRole(bytes32,address)": "91d14854",
    "isTrustedForwarder(address)": "572b6c05",
    "lastCollateralUpdate()": "f892178f",
    "liveness()": "6ad0690a",
    "mint(address,uint256)": "40c10f19",
    "name()": "06fdde03",
    "nonces(address)": "7ecebe00",
    "pause()": "8456cb59",
    "paused()": "5c975abb",
    "permit(address,address,uint256,uint256,uint8,bytes32,bytes32)": "d505accf",
    "renounceRole(bytes32,address)": "36568abe",
    "revokeRole(bytes32,address)": "d547741f",
    "supportsInterface(bytes4)": "01ffc9a7",
    "symbol()": "95d89b41",
    "totalSupply()": "18160ddd",
    "transfer(address,uint256)": "a9059cbb",
    "transferFrom(address,address,uint256)": "23b872dd",
    "trustedForwarder()": "7da0a877",
    "unblockUser(address)": "39d319e5",
    "unpause()": "3f4ba83a",
    "updateCollateral(uint256)": "6721de26",
    "withdrawToken(address,address,uint256)": "01e33667"
  },
  "id": 17
}