{
  "abi": [
    {
      "type": "constructor",
      "inputs": [
        {
          "name": "tokenAddress",
          "type": "address",
          "internalType": "address"
        },
        {
          "name": "root",
          "type": "bytes32",
          "internalType": "bytes32"
        },
        {
          "name": "initialOwner",
          "type": "address",
          "internalType": "address"
        },
        {
          "name": "_startTime",
          "type": "uint256",
          "internalType": "uint256"
        },
        {
          "name": "_endTime",
          "type": "uint256",
          "internalType": "uint256"
        },
        {
          "name": "trustedForwarder",
          "type": "address",
          "internalType": "address"
        }
      ],
      "stateMutability": "nonpayable"
    },
    {
      "type": "function",
      "name": "batchClaim",
      "inputs": [
        {
          "name": "indices",
          "type": "uint256[]",
          "internalType": "uint256[]"
        },
        {
          "name": "amounts",
          "type": "uint256[]",
          "internalType": "uint256[]"
        },
        {
          "name": "merkleProofs",
          "type": "bytes32[][]",
          "internalType": "bytes32[][]"
        }
      ],
      "outputs": [],
      "stateMutability": "nonpayable"
    },
    {
      "type": "function",
      "name": "claim",
      "inputs": [
        {
          "name": "index",
          "type": "uint256",
          "internalType": "uint256"
        },
        {
          "name": "amount",
          "type": "uint256",
          "internalType": "uint256"
        },
        {
          "name": "merkleProof",
          "type": "bytes32[]",
          "internalType": "bytes32[]"
        }
      ],
      "outputs": [],
      "stateMutability": "nonpayable"
    },
    {
      "type": "function",
      "name": "endTime",
      "inputs": [],
      "outputs": [
        {
          "name": "",
          "type": "uint256",
          "internalType": "uint256"
        }
      ],
      "stateMutability": "view"
    },
    {
      "type": "function",
      "name": "isClaimed",
      "inputs": [
        {
          "name": "index",
          "type": "uint256",
          "internalType": "uint256"
        }
      ],
      "outputs": [
        {
          "name": "",
          "type": "bool",
          "internalType": "bool"
        }
      ],
      "stateMutability": "view"
    },
    {
      "type": "function",
      "name": "isTrustedForwarder",
      "inputs": [
        {
          "name": "forwarder",
          "type": "address",
          "internalType": "address"
        }
      ],
      "outputs": [
        {
          "name": "",
          "type": "bool",
          "internalType": "bool"
        }
      ],
      "stateMutability": "view"
    },
    {
      "type": "function",
      "name": "merkleRoot",
      "inputs": [],
      "outputs": [
        {
          "name": "",
          "type": "bytes32",
          "internalType": "bytes32"
        }
      ],
      "stateMutability": "view"
    },
    {
      "type": "function",
      "name": "owner",
      "inputs": [],
      "outputs": [
        {
          "name": "",
          "type": "address",
          "internalType": "address"
        }
      ],
      "stateMutability": "view"
    },
    {
      "type": "function",
      "name": "renounceOwnership",
      "inputs": [],
      "outputs": [],
      "stateMutability": "nonpayable"
    },
    {
      "type": "function",
      "name": "startTime",
      "inputs": [],
      "outputs": [
        {
          "name": "",
          "type": "uint256",
          "internalType": "uint256"
        }
      ],
      "stateMutability": "view"
    },
    {
      "type": "function",
      "name": "token",
      "inputs": [],
      "outputs": [
        {
          "name": "",
          "type": "address",
          "internalType": "contract IERC20"
        }
      ],
      "stateMutability": "view"
    },
    {
      "type": "function",
      "name": "transferOwnership",
      "inputs": [
        {
          "name": "newOwner",
          "type": "address",
          "internalType": "address"
        }
      ],
      "outputs": [],
      "stateMutability": "nonpayable"
    },
    {
      "type": "function",
      "name": "trustedForwarder",
      "inputs": [],
      "outputs": [
        {
          "name": "",
          "type": "address",
          "internalType": "address"
        }
      ],
      "stateMutability": "view"
    },
    {
      "type": "function",
      "name": "withdrawTokens",
      "inputs": [
        {
          "name": "to",
          "type": "address",
          "internalType": "address"
        }
      ],
      "outputs": [],
      "stateMutability": "nonpayable"
    },
    {
      "type": "event",
      "name": "BatchClaimed",
      "inputs": [
        {
          "name": "claimant",
          "type": "address",
          "indexed": true,
          "internalType": "address"
        },
        {
          "name": "totalAmount",
          "type": "uint256",
          "indexed": false,
          "internalType": "uint256"
        },
        {
          "name": "indices",
          "type": "uint256[]",
          "indexed": false,
          "internalType": "uint256[]"
        },
        {
          "name": "amounts",
          "type": "uint256[]",
          "indexed": false,
          "internalType": "uint256[]"
        }
      ],
      "anonymous": false
    },
    {
      "type": "event",
      "name": "Claimed",
      "inputs": [
        {
          "name": "claimant",
          "type": "address",
          "indexed": true,
          "internalType": "address"
        },
        {
          "name": "amount",
          "type": "uint256",
          "indexed": false,
          "internalType": "uint256"
        },
        {
          "name": "index",
          "type": "uint256",
          "indexed": false,
          "internalType": "uint256"
        }
      ],
      "anonymous": false
    },
    {
      "type": "event",
      "name": "OwnershipTransferred",
      "inputs": [
        {
          "name": "previousOwner",
          "type": "address",
          "indexed": true,
          "internalType": "address"
        },
        {
          "name": "newOwner",
          "type": "address",
          "indexed": true,
          "internalType": "address"
        }
      ],
      "anonymous": false
    },
    {
      "type": "event",
      "name": "TokensWithdrawn",
      "inputs": [
        {
          "name": "to",
          "type": "address",
          "indexed": true,
          "internalType": "address"
        },
        {
          "name": "amount",
          "type": "uint256",
          "indexed": false,
          "internalType": "uint256"
        }
      ],
      "anonymous": false
    },
    {
      "type": "error",
      "name": "AirdropEnded",
      "inputs": []
    },
    {
      "type": "error",
      "name": "AirdropNotStarted",
      "inputs": []
    },
    {
      "type": "error",
      "name": "AlreadyClaimed",
      "inputs": []
    },
    {
      "type": "error",
      "name": "ArrayLengthMismatch",
      "inputs": []
    },
    {
      "type": "error",
      "name": "InvalidEndTime",
      "inputs": []
    },
    {
      "type": "error",
      "name": "InvalidMerkleProof",
      "inputs": []
    },
    {
      "type": "error",
      "name": "InvalidStartTime",
      "inputs": []
    },
    {
      "type": "error",
      "name": "OwnableInvalidOwner",
      "inputs": [
        {
          "name": "owner",
          "type": "address",
          "internalType": "address"
        }
      ]
    },
    {
      "type": "error",
      "name": "OwnableUnauthorizedAccount",
      "inputs": [
        {
          "name": "account",
          "type": "address",
          "internalType": "address"
        }
      ]
    },
    {
      "type": "error",
      "name": "SafeERC20FailedOperation",
      "inputs": [
        {
          "name": "token",
          "type": "address",
          "internalType": "address"
        }
      ]
    },
    {
      "type": "error",
      "name": "ZeroAddress",
      "inputs": []
    }
  ],
  "bytecode": {
    "object": "0x610120346101bc57601f610da338819003918201601f19168301916001600160401b038311848410176101c15780849260c0946040528339810103126101bc57610048816101d7565b9060208101519161005b604083016101d7565b9260608301519161007360a0608086015195016101d7565b6001600160a01b039095169485156101a657600080546001600160a01b031981168817825560405197916001600160a01b03909116907f8be0079c531659141344cd1fd0a4f28419497f9722a3daafe3b4186f6b6457e09080a36080526001600160a01b031680156101955760a05260c05242811061018457808211156101735760e05261010052610bb790816101ec82396080518181816103a6015281816104940152610b54015260a05181818160c40152818161029e015261078c015260c0518181816108ab0152610b1c015260e0518181816101e5015281816103ed015261054d01526101005181818161020c0152818161057401526108720152f35b6338af65f760e01b60005260046000fd5b632ca4094f60e21b60005260046000fd5b63d92e233d60e01b60005260046000fd5b631e4fbdf760e01b600052600060045260246000fd5b600080fd5b634e487b7160e01b600052604160045260246000fd5b51906001600160a01b03821682036101bc5756fe608080604052600436101561001357600080fd5b60003560e01c9081632eb4a7ab14610895575080633197cbb61461085a57806349df728c146107425780634be7adee146104c6578063572b6c0514610469578063715018a61461041057806378e97925146103d55780637da0a877146103905780638da5cb5b146103675780639e34070f14610325578063ae0b51df14610185578063f2fde38b146100f85763fc0c546a146100ae57600080fd5b346100f35760003660031901126100f3576040517f00000000000000000000000000000000000000000000000000000000000000006001600160a01b03168152602090f35b600080fd5b346100f35760203660031901126100f3576004356001600160a01b038116908190036100f35761012661096b565b801561016f57600080546001600160a01b03198116831782556001600160a01b0316907f8be0079c531659141344cd1fd0a4f28419497f9722a3daafe3b4186f6b6457e09080a3005b631e4fbdf760e01b600052600060045260246000fd5b346100f35760603660031901126100f35760043560243560443567ffffffffffffffff81116100f3576101bc9036906004016108ce565b6101df848060081c6000526001602052600160ff60406000205492161b16151590565b610314577f00000000000000000000000000000000000000000000000000000000000000004210610303577f000000000000000000000000000000000000000000000000000000000000000042116102f257610244918361023e610b51565b86610a44565b156102e15760407f987d620f307ff6b94d58743cb7a7509f24071586a77759b77c2d4e29f75a2f9a91610290848060081c6000526001602052600160ff604060002092161b8154179055565b6102c28161029c610b51565b7f00000000000000000000000000000000000000000000000000000000000000006109b3565b6001600160a01b036102d2610b51565b169382519182526020820152a2005b63582f497d60e11b60005260046000fd5b63061ddd4f60e51b60005260046000fd5b63b820fc9760e01b60005260046000fd5b630c8d9eab60e31b60005260046000fd5b346100f35760203660031901126100f357602061035d6004358060081c6000526001602052600160ff60406000205492161b16151590565b6040519015158152f35b346100f35760003660031901126100f3576000546040516001600160a01b039091168152602090f35b346100f35760003660031901126100f3576040517f00000000000000000000000000000000000000000000000000000000000000006001600160a01b03168152602090f35b346100f35760003660031901126100f35760206040517f00000000000000000000000000000000000000000000000000000000000000008152f35b346100f35760003660031901126100f35761042961096b565b600080546001600160a01b0319811682556001600160a01b03167f8be0079c531659141344cd1fd0a4f28419497f9722a3daafe3b4186f6b6457e08280a3005b346100f35760203660031901126100f3576004356001600160a01b038116908190036100f3576040517f00000000000000000000000000000000000000000000000000000000000000006001600160a01b03169091148152602090f35b346100f35760603660031901126100f35760043567ffffffffffffffff81116100f3576104f79036906004016108ce565b60243567ffffffffffffffff81116100f3576105179036906004016108ce565b60449291923567ffffffffffffffff81116100f35761053a9036906004016108ce565b9190818414801590610738575b610727577f00000000000000000000000000000000000000000000000000000000000000004210610303577f000000000000000000000000000000000000000000000000000000000000000042116102f257916000928391601e19823603015b86841061062c5750505050816105b957005b7fb9df54cb8716695fe6cd84e5e4b88eca0d9c862970bcd45797aabb77d71b48ee93610627916105eb8461029c610b51565b6106196001600160a01b036105fe610b51565b16976040519687968752606060208801526060870191610947565b918483036040860152610947565b0390a2005b9091929461063b86888b610937565b3561064787878b610937565b359084881015610711578760051b860135848112156100f357860180359067ffffffffffffffff82116100f357602001908060051b360382136100f3576106a7838060081c6000526001602052600160ff60406000205492161b16151590565b610314576106be91846106b8610b51565b85610a44565b156102e1576106e6908060081c6000526001602052600160ff604060002092161b8154179055565b81018091116106fb57946001019291906105a7565b634e487b7160e01b600052601160045260246000fd5b634e487b7160e01b600052603260045260246000fd5b63512509d360e11b60005260046000fd5b5082821415610547565b346100f35760203660031901126100f3576004356001600160a01b038116908181036100f35761077061096b565b8115610849576040516370a0823160e01b8152306004820152907f00000000000000000000000000000000000000000000000000000000000000006020836024816001600160a01b0385165afa92831561083d57600093610805575b50916107fc816020937f6352c5382c4a4578e712449ca65e83cdb392d045dfcf1cad9615189db2da244b956109b3565b604051908152a2005b9250906020833d602011610835575b81610821602093836108ff565b810103126100f357915191906107fc6107cc565b3d9150610814565b6040513d6000823e3d90fd5b63d92e233d60e01b60005260046000fd5b346100f35760003660031901126100f35760206040517f00000000000000000000000000000000000000000000000000000000000000008152f35b346100f35760003660031901126100f3576020907f00000000000000000000000000000000000000000000000000000000000000008152f35b9181601f840112156100f35782359167ffffffffffffffff83116100f3576020808501948460051b0101116100f357565b90601f8019910116810190811067ffffffffffffffff82111761092157604052565b634e487b7160e01b600052604160045260246000fd5b91908110156107115760051b0190565b81835290916001600160fb1b0383116100f35760209260051b809284830137010190565b6000546001600160a01b0390811690610982610b51565b160361098a57565b610992610b51565b63118cdaa760e01b60009081526001600160a01b0391909116600452602490fd5b60405163a9059cbb60e01b60208281019182526001600160a01b03909416602483015260448083019590955293815290926000916109f26064826108ff565b519082855af11561083d576000513d610a3b57506001600160a01b0381163b155b610a1a5750565b635274afe760e01b60009081526001600160a01b0391909116600452602490fd5b60011415610a13565b91949394604051916020830193845260018060a01b03166040830152606082015260608152610a746080826108ff565b5190206040516020810191825260208152610a906040826108ff565b5190209067ffffffffffffffff8411610921578360051b60405194610ab860208301876108ff565b855260208501908201913683116100f357905b828210610b41575050506000905b8351821015610b1a57604060019160009060208560051b8801015190818110600014610b0e578252602052205b910190610ad9565b90825260205220610b06565b7f000000000000000000000000000000000000000000000000000000000000000014925050565b8135815260209182019101610acb565b337f00000000000000000000000000000000000000000000000000000000000000006001600160a01b03161480610b9f575b15610b9b5760131936013681116106fb573560601c90565b3390565b506014361015610b8356fea164736f6c634300081c000a",
    "linkReferences": {}
  },
  "methodIdentifiers": {
    "batchClaim(uint256[],uint256[],bytes32[][])": "4be7adee",
    "claim(uint256,uint256,bytes32[])": "ae0b51df",
    "endTime()": "3197cbb6",
    "isClaimed(uint256)": "9e34070f",
    "isTrustedForwarder(address)": "572b6c05",
    "merkleRoot()": "2eb4a7ab",
    "owner()": "8da5cb5b",
    "renounceOwnership()": "715018a6",
    "startTime()": "78e97925",
    "token()": "fc0c546a",
    "transferOwnership(address)": "f2fde38b",
    "trustedForwarder()": "7da0a877",
    "withdrawTokens(address)": "49df728c"
  },
  "id": 19
}