{
  "abi": [
    {
      "type": "constructor",
      "inputs": [
        {
          "name": "forwarder",
          "type": "address",
          "internalType": "address"
        }
      ],
      "stateMutability": "nonpayable"
    },
    {
      "type": "function",
      "name": "create",
      "inputs": [
        {
          "name": "signers",
          "type": "address[]",
          "internalType": "address[]"
        },
        {
          "name": "required",
          "type": "uint256",
          "internalType": "uint256"
        }
      ],
      "outputs": [
        {
          "name": "vault",
          "type": "address",
          "internalType": "address"
        }
      ],
      "stateMutability": "nonpayable"
    },
    {
      "type": "function",
      "name": "isAddressDeployed",
      "inputs": [
        {
          "name": "vault",
          "type": "address",
          "internalType": "address"
        }
      ],
      "outputs": [
        {
          "name": "",
          "type": "bool",
          "internalType": "bool"
        }
      ],
      "stateMutability": "view"
    },
    {
      "type": "function",
      "name": "isFactoryVault",
      "inputs": [
        {
          "name": "",
          "type": "address",
          "internalType": "address"
        }
      ],
      "outputs": [
        {
          "name": "",
          "type": "bool",
          "internalType": "bool"
        }
      ],
      "stateMutability": "view"
    },
    {
      "type": "function",
      "name": "isTrustedForwarder",
      "inputs": [
        {
          "name": "forwarder",
          "type": "address",
          "internalType": "address"
        }
      ],
      "outputs": [
        {
          "name": "",
          "type": "bool",
          "internalType": "bool"
        }
      ],
      "stateMutability": "view"
    },
    {
      "type": "function",
      "name": "predictAddress",
      "inputs": [
        {
          "name": "sender",
          "type": "address",
          "internalType": "address"
        },
        {
          "name": "signers",
          "type": "address[]",
          "internalType": "address[]"
        },
        {
          "name": "required",
          "type": "uint256",
          "internalType": "uint256"
        }
      ],
      "outputs": [
        {
          "name": "predicted",
          "type": "address",
          "internalType": "address"
        }
      ],
      "stateMutability": "view"
    },
    {
      "type": "function",
      "name": "trustedForwarder",
      "inputs": [],
      "outputs": [
        {
          "name": "",
          "type": "address",
          "internalType": "address"
        }
      ],
      "stateMutability": "view"
    },
    {
      "type": "event",
      "name": "VaultCreated",
      "inputs": [
        {
          "name": "vault",
          "type": "address",
          "indexed": true,
          "internalType": "address"
        },
        {
          "name": "creator",
          "type": "address",
          "indexed": true,
          "internalType": "address"
        },
        {
          "name": "signers",
          "type": "address[]",
          "indexed": false,
          "internalType": "address[]"
        },
        {
          "name": "required",
          "type": "uint256",
          "indexed": false,
          "internalType": "uint256"
        }
      ],
      "anonymous": false
    },
    {
      "type": "error",
      "name": "AddressAlreadyDeployed",
      "inputs": []
    },
    {
      "type": "error",
      "name": "ReentrancyGuardReentrantCall",
      "inputs": []
    }
  ],
  "bytecode": {
    "object": "0x60a03461008b57601f61356338819003918201601f19168301916001600160401b038311848410176100905780849260209460405283398101031261008b57516001600160a01b038116810361008b5760016000556080526040516134bc90816100a7823960805181818161011e015281816102340152818161031c01528181610506015261061b0152f35b600080fd5b634e487b7160e01b600052604160045260246000fdfe6080604052600436101561001257600080fd5b60003560e01c80634e7f6dea14610350578063572b6c05146102fc57806358c62442146102bd5780635c7f97ab146102635780637da0a8771461021e5763f8f738081461005e57600080fd5b346102195760403660031901126102195760043567ffffffffffffffff81116102195761008f9036906004016103b0565b6024356002600054146102085760026000556100d46100b682846100b1610618565b6104c5565b6001600160a01b031660009081526001602052604090205460ff1690565b6101f7576100ea6100e3610618565b828461059d565b6100f2610618565b60405190612e2880830183811067ffffffffffffffff8211176101e157839261014392610688853986887f000000000000000000000000000000000000000000000000000000000000000093610464565b03906000f59081156101d5576001600160a01b039182166000818152600160208181526040909220805460ff1916909117905593909283917f4c2ed11344daf1f851281e31c89c8f624ed610a18149300fc5d66eb9a23c279e916101c091906101aa610618565b1694604051928392604084526040840190610427565b90888301520390a36001600055604051908152f35b6040513d6000823e3d90fd5b634e487b7160e01b600052604160045260246000fd5b636b25fac360e11b60005260046000fd5b633ee5aeb560e01b60005260046000fd5b600080fd5b34610219576000366003190112610219576040517f00000000000000000000000000000000000000000000000000000000000000006001600160a01b03168152602090f35b346102195760603660031901126102195761027c610378565b60243567ffffffffffffffff8111610219576020916102a26102ab9236906004016103b0565b604435916104c5565b6040516001600160a01b039091168152f35b34610219576020366003190112610219576001600160a01b036102de610378565b166000526001602052602060ff604060002054166040519015158152f35b34610219576020366003190112610219576020610317610378565b6040517f00000000000000000000000000000000000000000000000000000000000000006001600160a01b039081169216919091148152f35b3461021957602036600319011261021957602061036e6100b6610378565b6040519015158152f35b600435906001600160a01b038216820361021957565b90601f8019910116810190811067ffffffffffffffff8211176101e157604052565b81601f820112156102195780359167ffffffffffffffff83116101e1578260051b91604051936103e3602085018661038e565b845260208085019382010191821161021957602001915b8183106104075750505090565b82356001600160a01b0381168103610219578152602092830192016103fa565b906020808351928381520192019060005b8181106104455750505090565b82516001600160a01b0316845260209384019390920191600101610438565b9261047c606093969592608086526080860190610427565b60208501969096526001600160a01b03908116604085015216910152565b9081519160005b8381106104b2575050016000815290565b80602080928401015181850152016104a1565b61055761052f9161053d6104da82878761059d565b9561052f612e2896604051976104f3602082018a61038e565b80895261068860208a01396040519485937f00000000000000000000000000000000000000000000000000000000000000009260208601610464565b03601f19810183528261038e565b60405192839161055160208401809761049a565b9061049a565b5190209060405191602083019160ff60f81b83523060601b6021850152603584015260558301526055825261058d60758361038e565b905190206001600160a01b031690565b9091604051918291602083019485602084519194019060005b8181106105f657505050825260601b6bffffffffffffffffffffffff19166020820152601491900390810182526105f0906034018261038e565b51902090565b82516001600160a01b03168652879650602095860195909201916001016105b6565b337f00000000000000000000000000000000000000000000000000000000000000006001600160a01b0316148061067c575b15610678576013193601368111610662573560601c90565b634e487b7160e01b600052601160045260246000fd5b3390565b50601436101561064a56fe60a06040523461024d57612e288038038061001981610268565b928339810160808282031261024d5781516001600160401b03811161024d5782019080601f8301121561024d578151916001600160401b038311610252578260051b9060208061006a818501610268565b80968152019282010192831161024d57602001905b828210610235575050506020820151916100a760606100a06040840161028d565b920161028d565b60805260ff196002541660025560016003558151908115801561022d575b8015610224575b61020b576100d9816102a1565b6101c8575b5060005b818110610151576007849055837f9e0800728e995ca040f68d19b1bcc1b4ae0420ed8190fabb5fa564e2961eb7d560206001600160a01b036101226103c9565b1692604051908152a2604051612929908161047f8239608051818181610bd301528181610ccc015261244f0152f35b82518110156101b257600581901b830160200151600191906001600160a01b031661017b81610331565b610187575b50016100e2565b6101ab90600080516020612dc883398151915260005283602052604060002061041a565b5038610180565b634e487b7160e01b600052603260045260246000fd5b600080526001602052610204906001600160a01b03167fa6eef7e35abe7026729641147f7915573c7e97b47efa546f5f6e3230263bcb4961041a565b50386100de565b50826306a0ee3160e31b60005260045260245260446000fd5b508184116100cc565b5083156100c5565b602080916102428461028d565b81520191019061007f565b600080fd5b634e487b7160e01b600052604160045260246000fd5b6040519190601f01601f191682016001600160401b0381118382101761025257604052565b51906001600160a01b038216820361024d57565b6001600160a01b0381166000908152600080516020612e08833981519152602052604090205460ff1661032b576001600160a01b038181166000908152600080516020612e0883398151915260205260409020805460ff191660011790556103076103c9565b16906001600160a01b03166000600080516020612da88339815191528180a4600190565b50600090565b6001600160a01b0381166000908152600080516020612de8833981519152602052604090205460ff1661032b576001600160a01b038181166000908152600080516020612de883398151915260205260409020805460ff191660011790556103976103c9565b16906001600160a01b0316600080516020612dc8833981519152600080516020612da8833981519152600080a4600190565b6080516001600160a01b031633148061040f575b1561040b5760131936013681116103f5573560601c90565b634e487b7160e01b600052601160045260246000fd5b3390565b5060143610156103dd565b60018101908260005281602052604060002054156000146104765780546801000000000000000081101561025257600181018083558110156101b257839082600052602060002001555491600052602052604060002055600190565b50505060009056fe608080604052600436101561006a575b50361561001b57600080fd5b610023611d90565b61002b61244c565b604080513481524760208201526001600160a01b03909216917f90890809c654f11d6e72a28fa60149770a0d11ec6c92319d6ceb2bb0a4ea1a159190a2005b60003560e01c90816301ffc9a71461168d5750806308aff933146116385780630f0520561461147d578063205e7c061461129157806320c5429b146111a0578063248a9ca31461116b5780632f2ff15d146111025780633411c81c146110b557806336568abe1461105f5780633f4ba83a14610ff757806346bd084114610ec657806346e24b0814610dd857806346f0975a14610d00578063572b6c0514610cac5780635c975abb14610c895780636239152014610c025780637da0a87714610bbd5780638456cb5914610b515780638f56015f14610a8a5780639010d07c14610a4257806391d14854146109f55780639ace38c214610938578063a1ebf35d1461090f578063a217fddf146108f3578063a3246ad31461087e578063aa787c1e1461077c578063b756393014610309578063b779e1c01461069f578063ba0179b51461065c578063c13138f11461039a578063ca15c8731461036e578063d547741f14610327578063dc8452cd146103095763ee0e6f65146101ed573861000f565b3461030457608036600319011261030457610206611710565b61020e6116fa565b9060443591606435916001600160401b038311610304576020937f97a1625ffe5fa52ea35b6d6808a64cf13bb4ab9bdce9643b7a97f09c8922b9336102f79361025e6102ee963690600401611865565b9290610268611c52565b610270611d90565b610278611dad565b61028061244c565b60405163a9059cbb60e01b8b8201526001600160a01b0385166024820152604480820188905281529096906102cc906102ba606482611a11565b6102c5368886611b07565b9083611e21565b98899560405193849360018060a01b03169860018060a01b038b169785611ba2565b0390a482612269565b6001600355604051908152f35b600080fd5b34610304576000366003190112610304576020600754604051908152f35b346103045760403660031901126103045761036c6004356103466116fa565b9061036761036282600052600060205260016040600020015490565b611d3c565b612411565b005b346103045760203660031901126103045760043560005260016020526020604060002054604051908152f35b346103045760a0366003190112610304576004356001600160401b038111610304576103ca903690600401611726565b6024356001600160401b038111610304576103e9903690600401611726565b6044356001600160401b03811161030457610408903690600401611726565b9490936064356001600160401b0381116103045761042a903690600401611726565b9290966084356001600160401b0381116103045761044c903690600401611726565b959091610457611c52565b61045f611d90565b610467611dad565b841561064b57818514801590610641575b8015610637575b801561062d575b61061c5761049597939761244c565b9661049f86611a49565b996001600160a01b0389169560005b8881106104cc576001600355604051806104c88f826117ea565b0390f35b8a8d8f8c8f8c8c8f928c8c8f92888c8f8f829c90838f96818f988f828f8f8f918f92849f92859c968697948f9588610508818099978198611a7b565b61051190611c3d565b9261051b92611a9f565b9061052592611bc6565b94610530918c611a7b565b61053990611a8b565b95610544918d611a7b565b359361054f92611a9f565b369061055a92611b07565b9161056493612086565b61056e8284611b3e565b5261057891611b3e565b519e61058392611a7b565b61058c90611a8b565b9961059692611a7b565b35966105a192611a7b565b6105aa90611c3d565b996105b492611a9f565b926105c0929196611a9f565b91604051958695600160a01b6001900316996105dc9587611c01565b037fd1048e3510dfda1faa9bde9bcf936dc0c15b5bb24c1f9b7d795959fb476ecd1691a461060991611b3e565b519061061491612269565b6001016104ae565b63512509d360e11b60005260046000fd5b5086851415610486565b508585141561047f565b5080851415610478565b637dc57e7b60e01b60005260046000fd5b3461030457602036600319011261030457610675611c52565b61067d611d90565b610685611dad565b61069861069061244c565b600435612269565b6001600355005b34610304576020366003190112610304576004356006548082101561073257508060005260046020526040600020546106d781611a49565b9160005b8281106106f057604051806104c88682611892565b60019082600052600460205261070a816040600020612681565b838060a01b0391549060031b1c166107228287611b3e565b90838060a01b03169052016106db565b801561077357600019810190811161075d57905b632d71397360e11b60005260045260245260446000fd5b634e487b7160e01b600052601160045260246000fd5b50600090610746565b346103045760a036600319011261030457610795611710565b602435906044356001600160e01b031981168103610304576064356001600160401b038111610304576107cc903690600401611865565b91608435926001600160401b038411610304576020957fd1048e3510dfda1faa9bde9bcf936dc0c15b5bb24c1f9b7d795959fb476ecd166108146102f7963690600401611865565b95909761081f611c52565b610827611d90565b61082f611dad565b6102ee61083a61244c565b9761085c61084988868b611bc6565b61085436848f611b07565b908886612086565b9a8b9760405195869560018060a01b03169a60018060a01b038d169987611c01565b34610304576020366003190112610304576004356000526001602052604060002060405190816020825491828152019160005260206000209060005b8181106108dd576104c8856108d181870382611a11565b60405191829182611892565b82548452602090930192600192830192016108ba565b3461030457600036600319011261030457602060405160008152f35b346103045760003660031901126103045760206040516000805160206128fd8339815191528152f35b34610304576020366003190112610304576004356006548110156103045761095f906118d5565b5060018060a01b038154166104c86001830154926005604051916109918361098a816002850161195d565b0384611a11565b6109db60ff600383015416936109bd6004840154936109b6604051809781930161195d565b0385611a11565b6040519788978852602088015260c0604088015260c0870190611824565b9215156060860152608085015283820360a0850152611824565b3461030457604036600319011261030457610a0e6116fa565b600435600052600060205260406000209060018060a01b0316600052602052602060ff604060002054166040519015158152f35b346103045760403660031901126103045760043560005260016020526020610a71604060002060243590612681565b905460405160039290921b1c6001600160a01b03168152f35b3461030457602036600319011261030457600435610aa6611cd0565b6000805160206128fd83398151915260005260016020527fb1a26a75446b1d67f01afe7a745dc85c05c9752b7d1cdfcd19e8f115973e8df85481158015610b48575b610b30575060078190557f9e0800728e995ca040f68d19b1bcc1b4ae0420ed8190fabb5fa564e2961eb7d560206001600160a01b03610b2561244c565b1692604051908152a2005b906306a0ee3160e31b60005260045260245260446000fd5b50808211610ae8565b3461030457600036600319011261030457610b6a611cd0565b610b72611d90565b600160ff1960025416176002557f62e78cea01bee320cd4e420270b5ea74000d11b0c9f74754ebdbfc544b05a2586020610baa61244c565b6040516001600160a01b039091168152a1005b34610304576000366003190112610304576040517f00000000000000000000000000000000000000000000000000000000000000006001600160a01b03168152602090f35b34610304576020366003190112610304576004356001600160401b03811161030457610c32903690600401611726565b90610c3b611c52565b610c43611d90565b610c4b611dad565b811561064b57610c5961244c565b9060005b838110610c6b576001600355005b80610c8384610c7d6001948887611a7b565b35612269565b01610c5d565b3461030457600036600319011261030457602060ff600254166040519015158152f35b34610304576020366003190112610304576020610cc7611710565b6040517f00000000000000000000000000000000000000000000000000000000000000006001600160a01b039081169216919091148152f35b34610304576000366003190112610304576000805160206128fd83398151915260005260016020527fb1a26a75446b1d67f01afe7a745dc85c05c9752b7d1cdfcd19e8f115973e8df854610d5381611a49565b9060005b818110610d6c57604051806104c88582611892565b6000805160206128fd8339815191526000526001602081905290610db0817fb1a26a75446b1d67f01afe7a745dc85c05c9752b7d1cdfcd19e8f115973e8df8612681565b838060a01b0391549060031b1c16610dc88286611b3e565b90838060a01b0316905201610d57565b3461030457608036600319011261030457610df1611710565b6024356044356001600160401b03811161030457610e13903690600401611865565b92606435916001600160401b038311610304576020947fa48c1b3842e6f2c3793e18d2b4fed84fc8c6d18c3687702a2b43492078551efd94610e5c6102f7953690600401611865565b969092610e67611c52565b610e6f611d90565b610e77611dad565b610e7f61244c565b956102ee610ea4610e9136858a611b07565b610e9c368d8a611b07565b908785612086565b998a9660405194859460018060a01b03169960018060a01b038c169886611b73565b3461030457602036600319011261030457600435606060a0604051610eea816119e0565b60008152600060208201528260408201526000838201526000608082015201526006548082101561073257610f1e826118d5565b50604051610f2b816119e0565b81546001600160a01b0316815260018201546020820190815260405190926104c89190600590610f628361098a816002850161195d565b60408501928352610fd660ff60038301541693606087019415158552610f9e600484015493608089019485526109b6604051809781930161195d565b60a087019384526040519788976020895260018060a01b0390511660208901525160408801525160c0606088015260e0870190611824565b9251151560808601525160a085015251838203601f190160c0850152611824565b3461030457600036600319011261030457611010611cd0565b60025460ff81161561104e5760ff19166002557f5db9ee0a495bf2e6ff9c91a7834c1ba4fdd244a5e8aa4e537bd38aeae4b073aa6020610baa61244c565b638dfc202b60e01b60005260046000fd5b34610304576040366003190112610304576110786116fa565b6001600160a01b0361108861244c565b166001600160a01b038216036110a45761036c90600435612411565b63334bd91960e11b60005260046000fd5b34610304576040366003190112610304576110ce6116fa565b600435600052600560205260406000209060018060a01b0316600052602052602060ff604060002054166040519015158152f35b346103045760403660031901126103045760043561111e6116fa565b61113961036283600052600060205260016040600020015490565b6111438183612783565b61114957005b60009182526001602052604090912061036c916001600160a01b0316906128ac565b34610304576020366003190112610304576020611198600435600052600060205260016040600020015490565b604051908152f35b34610304576020366003190112610304576004356111bc611c52565b6111c4611d90565b6111cd816123aa565b6111d561244c565b9082600052600460205261120760406000209260018060a01b0316809360019160005201602052604060002054151590565b15611278576004908360005281602052611225836040600020612699565b50836000526005602052604060002083600052602052604060002060ff1981541690550160001981540190557ff0dca620e2e81f7841d07bcc105e1704fb01475b278a9d4c236e1c62945edd55600080a3005b509063b29436e960e01b60005260045260245260446000fd5b346103045761129f36611756565b92969095916112ac611c52565b6112b4611d90565b6112bc611dad565b821561064b57848314801590611473575b8015611469575b61061c576112e395919561244c565b946112ed84611a49565b976001600160a01b0387169360005b868110611316576001600355604051806104c88d826117ea565b808787878f8f8f868f928184878f8f908f858b8f926113388380968193611a7b565b61134190611a8b565b9661134b92611a7b565b60405163a9059cbb60e01b60208201526001600160a01b03969096166024870152356044808701919091528552611383606486611a11565b61138d918a611a7b565b61139690611a8b565b936113a092611a9f565b36906113ab92611b07565b906113b592611e21565b6113bf8284611b3e565b526113c991611b3e565b51966113d492611a7b565b6113dd90611a8b565b91866113ea818d8c611a7b565b6113f390611a8b565b946113fd92611a7b565b3595611409918a611a9f565b6040516001600160a01b039093169692938493611427939185611ba2565b037f97a1625ffe5fa52ea35b6d6808a64cf13bb4ab9bdce9643b7a97f09c8922b93391a488611456828d611b3e565b519061146191612269565b6001016112fc565b50838314156112d4565b50808314156112cd565b346103045761148b36611756565b61149a97919397969296611c52565b6114a2611d90565b6114aa611dad565b821561064b5784831480159061162e575b8015611624575b61061c576114d195919561244c565b946114db84611a49565b976001600160a01b0387169360005b868110611504576001600355604051806104c88d826117ea565b878787878f8f8f82888c83828e96818f898f8f848f919e819f8b96839f61152e8580948193611a7b565b61153790611a8b565b9861154192611a7b565b359561154c92611a9f565b92611558929194611a9f565b929091369061156692611b07565b91369061157292611b07565b9161157c93612086565b6115868284611b3e565b5261159091611b3e565b519a61159b92611a7b565b6115a490611a8b565b956115af918d611a7b565b35936115ba92611a9f565b946115c6929198611a9f565b90604051948594600160a01b6001900316986115e29486611b73565b037fa48c1b3842e6f2c3793e18d2b4fed84fc8c6d18c3687702a2b43492078551efd91a488611611828d611b3e565b519061161c91612269565b6001016114ea565b50808314156114c2565b50868314156114bb565b346103045760403660031901126103045760206116836116566116fa565b60048035600090815290845260408082206001600160a01b03909316825260019092016020522054151590565b6040519015158152f35b34610304576020366003190112610304576004359063ffffffff60e01b821680920361030457602091635a05180f60e01b81149081156116cf575b5015158152f35b637965db0b60e01b8114915081156116e9575b50836116c8565b6301ffc9a760e01b149050836116e2565b602435906001600160a01b038216820361030457565b600435906001600160a01b038216820361030457565b9181601f84011215610304578235916001600160401b038311610304576020808501948460051b01011161030457565b6080600319820112610304576004356001600160401b038111610304578161178091600401611726565b929092916024356001600160401b03811161030457816117a291600401611726565b929092916044356001600160401b03811161030457816117c491600401611726565b92909291606435906001600160401b038211610304576117e691600401611726565b9091565b602060408183019282815284518094520192019060005b81811061180e5750505090565b8251845260209384019390920191600101611801565b919082519283825260005b848110611850575050826000602080949584010152601f8019910116010190565b8060208092840101518282860101520161182f565b9181601f84011215610304578235916001600160401b038311610304576020838186019501011161030457565b602060408183019282815284518094520192019060005b8181106118b65750505090565b82516001600160a01b03168452602093840193909201916001016118a9565b60065481101561190d576006600081815291027ff652222313e28459528d920b65115c16c04f3efc82aaedc97be59f3f377c0d3f0191565b634e487b7160e01b600052603260045260246000fd5b90600182811c92168015611953575b602083101461193d57565b634e487b7160e01b600052602260045260246000fd5b91607f1691611932565b6000929181549161196d83611923565b80835292600181169081156119c3575060011461198957505050565b60009081526020812093945091925b8383106119a9575060209250010190565b600181602092949394548385870101520191019190611998565b915050602093945060ff929192191683830152151560051b010190565b60c081019081106001600160401b038211176119fb57604052565b634e487b7160e01b600052604160045260246000fd5b90601f801991011681019081106001600160401b038211176119fb57604052565b6001600160401b0381116119fb5760051b60200190565b90611a5382611a32565b611a606040519182611a11565b8281528092611a71601f1991611a32565b0190602036910137565b919081101561190d5760051b0190565b356001600160a01b03811681036103045790565b9092919283101561190d5760009260051b81013590601e1981360301821215611ae857018035926001600160401b038411611ae557506020018236038113610304579190565b80fd5b8380fd5b6001600160401b0381116119fb57601f01601f191660200190565b929192611b1382611aec565b91611b216040519384611a11565b829481845281830111610304578281602093846000960137010152565b805182101561190d5760209160051b010190565b908060209392818452848401376000828201840152601f01601f1916010190565b9391611b9f9593611b91928652606060208701526060860191611b52565b926040818503910152611b52565b90565b611b9f949260609260018060a01b0316825260208201528160408201520191611b52565b602490611bff9294938060405196879363ffffffff60e01b1660208501528484013781016000838201520301601f198101845283611a11565b565b94929093611c2f92611b9f9795875263ffffffff60e01b166020870152608060408701526080860191611b52565b926060818503910152611b52565b356001600160e01b0319811681036103045790565b611c5a61244c565b6001600160a01b03811660009081527f059f08e7d7ba1c82eddc57afae67f80df851baf38a099607a779825038c3ce5b602052604090205460ff1615611c9d5750565b63e2517d3f60e01b60009081526001600160a01b03919091166004526000805160206128fd833981519152602452604490fd5b611cd861244c565b6001600160a01b03811660009081527fad3228b676f7d3cd4284a5443f17f1962b36e491b30a40b2405849e597ba5fb5602052604090205460ff1615611d1b5750565b63e2517d3f60e01b60005260018060a01b0316600452600060245260446000fd5b611d4461244c565b6000828152602081815260408083206001600160a01b038516845290915290205460ff1615611d71575050565b63e2517d3f60e01b60005260018060a01b031660045260245260446000fd5b60ff60025416611d9c57565b63d93c066560e01b60005260046000fd5b600260035414611dbe576002600355565b633ee5aeb560e01b60005260046000fd5b601f8211611ddc57505050565b6000526020600020906020601f840160051c83019310611e17575b601f0160051c01905b818110611e0b575050565b60008155600101611e00565b9091508190611df7565b929091926006549260405191611e36836119e0565b6001600160a01b0316825260006020830181815260408401928352606084018281526080850192835260a08501978852919290600160401b8710156119fb5760018701600655611e85876118d5565b959095612070575185546001600160a01b0319166001600160a01b039190911617855551600185015551805160028501916001600160401b0382116119fb57611ed882611ed28554611923565b85611dcf565b602090601f83116001146120005782600597969593611f2e9593611f1393600092611f93575b50508160011b916000199060031b1c19161790565b90555b511515600384019060ff801983541691151516179055565b5160048201550192519283516001600160401b0381116119fb57611f5c81611f568454611923565b84611dcf565b602094601f8211600114611f9e57611f8f929394958291600092611f935750508160011b916000199060031b1c19161790565b9055565b015190503880611efe565b601f1982169583600052806000209160005b888110611fe857508360019596979810611fcf575b505050811b019055565b015160001960f88460031b161c19169055388080611fc5565b91926020600181928685015181550194019201611fb0565b90601f1983169184600052816000209260005b818110612058575092600192859260059a999896611f2e98961061203f575b505050811b019055611f16565b015160001960f88460031b161c19169055388080612032565b92936020600181928786015181550195019301612013565b634e487b7160e01b600052600060045260246000fd5b9093919293600654936040519261209c846119e0565b60018060a01b03168352602083019182526040830190815260608301906000825260808401926000845260a08501978852600160401b8710156119fb57600187016006556120e9876118d5565b959095612070575185546001600160a01b0319166001600160a01b039190911617855551600185015551805160028501916001600160401b0382116119fb5761213682611ed28554611923565b602090601f831160011461221357826005979695936121709593611f1393600092611f935750508160011b916000199060031b1c19161790565b5160048201550192519283516001600160401b0381116119fb5761219881611f568454611923565b602094601f82116001146121cb57611f8f929394958291600092611f935750508160011b916000199060031b1c19161790565b601f1982169583600052806000209160005b8881106121fb57508360019596979810611fcf57505050811b019055565b919260206001819286850151815501940192016121dd565b90601f1983169184600052816000209260005b818110612251575092600192859260059a99989661217098961061203f57505050811b019055611f16565b92936020600181928786015181550195019301612226565b612272816123aa565b9181600052600460205260406000206122a460018060a01b038316809260019160005201602052604060002054151590565b612392578260005260046020526122bf8160406000206128ac565b508260005260056020526040600020816000526020526040600020600160ff1982541617905582600485019160018354018093557f5cbe105e36805f7820e291f799d5794ff948af2a5f664e580382defb63390041600080a3600754111580612383575b61232c57505050565b61233690826124a5565b1561233f575050565b8154604051635f226afd60e11b815260048101929092526001600160a01b031660248201526060604482015290819061237f90606483019060020161195d565b0390fd5b5060ff60038401541615612323565b826347b467b960e11b60005260045260245260446000fd5b90600654808310156123e557506123c0826118d5565b509160ff6003840154166123d15750565b6393fbc70960e01b60005260045260246000fd5b9050801561077357600019810190811161075d5790632d71397360e11b60005260045260245260446000fd5b61241b828261281c565b918261242657505090565b600091825260016020526040909120612448916001600160a01b031690612699565b5090565b337f00000000000000000000000000000000000000000000000000000000000000006001600160a01b0316148061249a575b1561249657601319360136811161075d573560601c90565b3390565b50601436101561247e565b6124ae816118d5565b509160038301805460ff81166126775760019060ff191617815560018060a01b0384541660018501546002860190604051916000908054906124ef82611923565b9160018116908115612660575060011461262b575b5050916000939181859403925af13d15612626573d61252281611aec565b906125306040519283611a11565b8152600060203d92013e5b15612615575081906001600160a01b03167f5445f318f4f5fcfb66592e68e0cc5822aa15664039bd5f0ffde24c5a8142b1ac600080a380600052600460205260406000205460005b8181106125995750505060046000910155600190565b60008381526004602052604081208054156126015781526020908190205460008581526005835260408082206001600160a01b03909316808352928452808220805460ff19169055868252600490935291909120600192916125fa91612699565b5001612583565b634e487b7160e01b82526032600452602482fd5b805460ff1916905550600092915050565b61253b565b90915060005260206000206000905b82821061264c57505082018183612504565b60018160209254848801520191019061263a565b60ff19168652505080151502830190508183612504565b5050505050600190565b805482101561190d5760005260206000200190600090565b906001820191816000528260205260406000205480151560001461277a57600019810181811161075d57825460001981019190821161075d5781810361272c575b505050805480156127165760001901906126f48282612681565b8154906000199060031b1b191690555560005260205260006040812055600190565b634e487b7160e01b600052603160045260246000fd5b61276361273c61274c9386612681565b90549060031b1c92839286612681565b819391549060031b91821b91600019901b19161790565b9055600052836020526040600020553880806126da565b50505050600090565b6000818152602081815260408083206001600160a01b038616845290915290205460ff16612815576000818152602081815260408083206001600160a01b0386811685529252909120805460ff191660011790556127df61244c565b16916001600160a01b0316907f2f8788117e7eff1d82e926ec794901d17c78024a50270940304540a733656f0d600080a4600190565b5050600090565b6000818152602081815260408083206001600160a01b038616845290915290205460ff1615612815576000818152602081815260408083206001600160a01b0386811685529252909120805460ff1916905561287661244c565b16916001600160a01b0316907ff6391f5c32d9c69d2a47ea670b442974b53935d1edc7fd64eb21e047a839171b600080a4600190565b600082815260018201602052604090205461281557805490600160401b8210156119fb57826128e561274c846001809601855584612681565b90558054926000520160205260406000205560019056fee2f4eaae4a9751e85a3e4a7b9587827a877f29914755229b07a7b2da98285f70a164736f6c634300081c000a2f8788117e7eff1d82e926ec794901d17c78024a50270940304540a733656f0de2f4eaae4a9751e85a3e4a7b9587827a877f29914755229b07a7b2da98285f70059f08e7d7ba1c82eddc57afae67f80df851baf38a099607a779825038c3ce5bad3228b676f7d3cd4284a5443f17f1962b36e491b30a40b2405849e597ba5fb5a164736f6c634300081c000a",
    "linkReferences": {}
  },
  "methodIdentifiers": {
    "create(address[],uint256)": "f8f73808",
    "isAddressDeployed(address)": "4e7f6dea",
    "isFactoryVault(address)": "58c62442",
    "isTrustedForwarder(address)": "572b6c05",
    "predictAddress(address,address[],uint256)": "5c7f97ab",
    "trustedForwarder()": "7da0a877"
  },
  "id": 21
}