{"abi":[{"type":"constructor","inputs":[{"name":"tokenAddress","type":"address","internalType":"address"},{"name":"root","type":"bytes32","internalType":"bytes32"},{"name":"initialOwner","type":"address","internalType":"address"},{"name":"_claimStrategy","type":"address","internalType":"address"},{"name":"_claimPeriodEnd","type":"uint256","internalType":"uint256"},{"name":"trustedForwarder","type":"address","internalType":"address"}],"stateMutability":"nonpayable"},{"type":"function","name":"batchClaim","inputs":[{"name":"indices","type":"uint256[]","internalType":"uint256[]"},{"name":"amounts","type":"uint256[]","internalType":"uint256[]"},{"name":"merkleProofs","type":"bytes32[][]","internalType":"bytes32[][]"}],"outputs":[],"stateMutability":"nonpayable"},{"type":"function","name":"claim","inputs":[{"name":"index","type":"uint256","internalType":"uint256"},{"name":"amount","type":"uint256","internalType":"uint256"},{"name":"merkleProof","type":"bytes32[]","internalType":"bytes32[]"}],"outputs":[],"stateMutability":"nonpayable"},{"type":"function","name":"claimPeriodEnd","inputs":[],"outputs":[{"name":"","type":"uint256","internalType":"uint256"}],"stateMutability":"view"},{"type":"function","name":"claimStrategy","inputs":[],"outputs":[{"name":"","type":"address","internalType":"contract IClaimStrategy"}],"stateMutability":"view"},{"type":"function","name":"isClaimed","inputs":[{"name":"index","type":"uint256","internalType":"uint256"}],"outputs":[{"name":"","type":"bool","internalType":"bool"}],"stateMutability":"view"},{"type":"function","name":"isTrustedForwarder","inputs":[{"name":"forwarder","type":"address","internalType":"address"}],"outputs":[{"name":"","type":"bool","internalType":"bool"}],"stateMutability":"view"},{"type":"function","name":"merkleRoot","inputs":[],"outputs":[{"name":"","type":"bytes32","internalType":"bytes32"}],"stateMutability":"view"},{"type":"function","name":"owner","inputs":[],"outputs":[{"name":"","type":"address","internalType":"address"}],"stateMutability":"view"},{"type":"function","name":"renounceOwnership","inputs":[],"outputs":[],"stateMutability":"nonpayable"},{"type":"function","name":"setClaimStrategy","inputs":[{"name":"newStrategy","type":"address","internalType":"address"}],"outputs":[],"stateMutability":"nonpayable"},{"type":"function","name":"token","inputs":[],"outputs":[{"name":"","type":"address","internalType":"contract IERC20"}],"stateMutability":"view"},{"type":"function","name":"transferOwnership","inputs":[{"name":"newOwner","type":"address","internalType":"address"}],"outputs":[],"stateMutability":"nonpayable"},{"type":"function","name":"trustedForwarder","inputs":[],"outputs":[{"name":"","type":"address","internalType":"address"}],"stateMutability":"view"},{"type":"function","name":"withdrawTokens","inputs":[{"name":"to","type":"address","internalType":"address"}],"outputs":[],"stateMutability":"nonpayable"},{"type":"event","name":"BatchClaimed","inputs":[{"name":"claimant","type":"address","indexed":true,"internalType":"address"},{"name":"totalAmount","type":"uint256","indexed":false,"internalType":"uint256"},{"name":"indices","type":"uint256[]","indexed":false,"internalType":"uint256[]"},{"name":"amounts","type":"uint256[]","indexed":false,"internalType":"uint256[]"}],"anonymous":false},{"type":"event","name":"ClaimInitialized","inputs":[{"name":"claimant","type":"address","indexed":true,"internalType":"address"},{"name":"allocatedAmount","type":"uint256","indexed":false,"internalType":"uint256"},{"name":"index","type":"uint256","indexed":false,"internalType":"uint256"}],"anonymous":false},{"type":"event","name":"Claimed","inputs":[{"name":"claimant","type":"address","indexed":true,"internalType":"address"},{"name":"amount","type":"uint256","indexed":false,"internalType":"uint256"},{"name":"index","type":"uint256","indexed":false,"internalType":"uint256"}],"anonymous":false},{"type":"event","name":"OwnershipTransferred","inputs":[{"name":"previousOwner","type":"address","indexed":true,"internalType":"address"},{"name":"newOwner","type":"address","indexed":true,"internalType":"address"}],"anonymous":false},{"type":"event","name":"TokensWithdrawn","inputs":[{"name":"to","type":"address","indexed":true,"internalType":"address"},{"name":"amount","type":"uint256","indexed":false,"internalType":"uint256"}],"anonymous":false},{"type":"error","name":"AlreadyClaimed","inputs":[]},{"type":"error","name":"ArrayLengthMismatch","inputs":[]},{"type":"error","name":"ClaimNotEligible","inputs":[]},{"type":"error","name":"ClaimPeriodEnded","inputs":[]},{"type":"error","name":"InvalidClaimPeriod","inputs":[]},{"type":"error","name":"InvalidClaimStrategy","inputs":[{"name":"claimStrategy","type":"address","internalType":"address"}]},{"type":"error","name":"InvalidMerkleProof","inputs":[]},{"type":"error","name":"OwnableInvalidOwner","inputs":[{"name":"owner","type":"address","internalType":"address"}]},{"type":"error","name":"OwnableUnauthorizedAccount","inputs":[{"name":"account","type":"address","internalType":"address"}]},{"type":"error","name":"ReentrancyGuardReentrantCall","inputs":[]},{"type":"error","name":"SafeERC20FailedOperation","inputs":[{"name":"token","type":"address","internalType":"address"}]},{"type":"error","name":"ZeroAddress","inputs":[]},{"type":"error","name":"ZeroAddressClaimStrategy","inputs":[]},{"type":"error","name":"ZeroAmountToTransfer","inputs":[]}],"bytecode":{"object":"0x610100806040523461023f5760c0816115c080380380916100208285610244565b83398101031261023f576100338161027d565b6020820151906100456040840161027d565b916100526060850161027d565b9161006460a06080870151960161027d565b6001600160a01b0390941693841561022957600080546001600160a01b031981168717825560405196916001600160a01b03909116907f8be0079c531659141344cd1fd0a4f28419497f9722a3daafe3b4186f6b6457e09080a36080526001600160a01b031680156102185760a05260c05260016002556001600160a01b031690811561020757428311156101f657600380546001600160a01b03191683179055637c13428d60e11b8152602081600481855afa9081156101ea576000916101a8575b5015610194575060e05260405161132e9081610292823960805181818161075d0152818161081201526112cb015260a05181818160d0015281816103120152610e96015260c051818181610fb7015261125c015260e05181818161055001528181610de10152610f7d0152f35b633325d64160e01b60005260045260246000fd5b6020813d6020116101e2575b816101c160209383610244565b810103126101de57519081151582036101db575038610127565b80fd5b5080fd5b3d91506101b4565b6040513d6000823e3d90fd5b636385801560e11b60005260046000fd5b632f337adb60e11b60005260046000fd5b63d92e233d60e01b60005260046000fd5b631e4fbdf760e01b600052600060045260246000fd5b600080fd5b601f909101601f19168101906001600160401b0382119082101761026757604052565b634e487b7160e01b600052604160045260246000fd5b51906001600160a01b038216820361023f5756fe608080604052600436101561001357600080fd5b600090813560e01c9081632eb4a7ab14610fa0575080633da082a014610f6557806349df728c14610e4b5780634be7adee14610844578063572b6c05146107e6578063715018a61461078c5780637da0a877146107475780638da5cb5b146107205780639e34070f146106e8578063a26bd9dc146106bf578063a4448a1b14610589578063ae0b51df14610190578063f2fde38b146101025763fc0c546a146100bb57600080fd5b346100ff57806003193601126100ff576040517f00000000000000000000000000000000000000000000000000000000000000006001600160a01b03168152602090f35b80fd5b50346100ff5760203660031901126100ff576004356001600160a01b0381169081900361018c57610131611069565b80156101785781546001600160a01b03198116821783556001600160a01b03167f8be0079c531659141344cd1fd0a4f28419497f9722a3daafe3b4186f6b6457e08380a380f35b631e4fbdf760e01b82526004829052602482fd5b5080fd5b50346100ff5760603660031901126100ff5760043560243560443567ffffffffffffffff8111610585576101c8903690600401610fda565b906101d161114f565b838552600460205260ff6040862054161561054e575b906101fb91836101f56112c8565b86611187565b1561053f578183526004602052604083205460ff166104575761029890828452600460205260408420600160ff198254161790558284526005602052426040852055828452600660205283604081205560208160018060a01b03600354166102616112c8565b6040516388c55c4760e01b81526001600160a01b039091166004820152602481019290925290938491908290889082906044820190565b03925af191821561044c578492610413575b508180610400575b507f07df4a9ad5c3a2271e8c5613d4b9d81d40b02c098ab0f6086544b6573ae84d7660406001600160a01b036102e66112c8565b16928151908152856020820152a25b80610304575b82600160025580f35b610336816103106112c8565b7f00000000000000000000000000000000000000000000000000000000000000006110b1565b60035483906001600160a01b031661034c6112c8565b90803b156103f1576040516301ee6d8b60e71b81526001600160a01b039290921660048301526024820184905282908290604490829084905af180156103f5576103dc575b507f987d620f307ff6b94d58743cb7a7509f24071586a77759b77c2d4e29f75a2f9a91604091506001600160a01b036103c86112c8565b169382519182526020820152a238806102fb565b816103e69161100b565b6103f1578238610391565b8280fd5b6040513d84823e3d90fd5b83855260066020526040852055386102b2565b9091506020813d602011610444575b8161042f6020938361100b565b8101031261043f575190386102aa565b600080fd5b3d9150610422565b6040513d86823e3d90fd5b8183526005602052602060408420548385526006825260408520549260018060a01b0360035416906104876112c8565b6040516307a297ab60e01b81526001600160a01b0391909116600482015260248101919091526044810192909252606482019390935291829060849082905afa908115610534578391610502575b5080806104e3575b506102f5565b82845260066020526104fa60408520918254611291565b9055386104dd565b90506020813d60201161052c575b8161051d6020938361100b565b8101031261043f5751386104d5565b3d9150610510565b6040513d85823e3d90fd5b63582f497d60e11b8352600483fd5b7f00000000000000000000000000000000000000000000000000000000000000004211156101e75763e3ea984960e01b8552600485fd5b8380fd5b50346100ff5760203660031901126100ff576004356001600160a01b0381169081900361018c576105b8611069565b801561068157600380546001600160a01b03191682179055604051637c13428d60e11b815290602090829060049082905afa9081156103f5578291610646575b50156106015780f35b60405162461bcd60e51b815260206004820152601d60248201527f5374726174656779206d75737420737570706f72742076657374696e670000006044820152606490fd5b90506020813d602011610679575b816106616020938361100b565b8101031261018c5751801515810361018c57386105f8565b3d9150610654565b60405162461bcd60e51b8152602060048201526016602482015275496e76616c696420636c61696d20737472617465677960501b6044820152606490fd5b50346100ff57806003193601126100ff576003546040516001600160a01b039091168152602090f35b50346100ff5760203660031901126100ff576020906040600435918260081c8152600184522054600160ff60405193161b1615158152f35b50346100ff57806003193601126100ff57546040516001600160a01b039091168152602090f35b50346100ff57806003193601126100ff576040517f00000000000000000000000000000000000000000000000000000000000000006001600160a01b03168152602090f35b50346100ff57806003193601126100ff576107a5611069565b80546001600160a01b03198116825581906001600160a01b03167f8be0079c531659141344cd1fd0a4f28419497f9722a3daafe3b4186f6b6457e08280a380f35b50346100ff5760203660031901126100ff576004356001600160a01b0381169081900361018c576040517f00000000000000000000000000000000000000000000000000000000000000006001600160a01b03169091148152602090f35b50346100ff5760603660031901126100ff5760043567ffffffffffffffff811161018c57610876903690600401610fda565b60243567ffffffffffffffff811161058557610896903690600401610fda565b60443567ffffffffffffffff8111610e47576108b6903690600401610fda565b6108be61114f565b828514801590610e3d575b610e2e5736829003601e1901875b868110610d42575050505084926108ed8161116f565b916108fb604051938461100b565b8183526109078261116f565b602084019490601f1901368637875b838110610a605750506003548791506001600160a01b03166109366112c8565b90803b156103f15760405163e585c47d60e01b81526001600160a01b0390921660048301529091908290602490829084905af18015610a5557610a41575b5083610984575b85600160025580f35b610990846103106112c8565b6001600160a01b036109a06112c8565b604051958652606060208701819052860183905216946001600160fb1b038211610a3d5760a09160051b8091608087013784016080810192608086830301604087015251809352019190855b818110610a275750505090807fb9df54cb8716695fe6cd84e5e4b88eca0d9c862970bcd45797aabb77d71b48ee920390a2388080808061097b565b82518452602093840193909201916001016109ec565b8680fd5b86610a4e9197929761100b565b9438610974565b6040513d89823e3d90fd5b610a6b81858a611043565b35610a77828585611043565b35818b52600460205260ff60408c20541615600014610c3657818b52600460205260408b20600160ff1982541617905542828c52600560205260408c205415600014610c2857828c52600560205260408c20555b818b5260066020528a6040812055610b286020828d60018060a01b036003541690610af46112c8565b6040516388c55c4760e01b81526001600160a01b039091166004820152602481019390935291938492839182906044820190565b03925af1908115610c1d578c91610be7575b508b81610b99575b5060408493927f07df4a9ad5c3a2271e8c5613d4b9d81d40b02c098ab0f6086544b6573ae84d7692610b766001978c6112b4565b52858060a01b03610b856112c8565b169382519182526020820152a25b01610916565b99600194939282806040610bcf7f07df4a9ad5c3a2271e8c5613d4b9d81d40b02c098ab0f6086544b6573ae84d76968296611291565b9e87815260066020522055925092939450508b610b42565b90508b8160203d8111610c16575b602092610c02828461100b565b5081010312610c12575138610b3a565b8b80fd5b503d610bf5565b6040513d8e823e3d90fd5b50818b526005602052610acb565b90808b526005602052602060408c2054828d526006825260408d20549360018060a01b036003541690610c676112c8565b6040516307a297ab60e01b81526001600160a01b0391909116600482015260248101919091526044810192909252606482019490945292839060849082905afa918215610d37578b92610d00575b5081610cd1575b5090600191610ccb82886112b4565b52610b93565b9790610ce08160019493611291565b988b52600660205260408b20610cf7828254611291565b90559091610cbc565b9091506020813d8211610d2f575b81610d1b6020938361100b565b81010312610d2b57519038610cb5565b8a80fd5b3d9150610d0e565b6040513d8d823e3d90fd5b610d4d81888a611043565b35610d59828789611043565b359084831015610e1a578260051b86013584811215610c125786019182359267ffffffffffffffff8411610e1657602001918c8460051b360384136100ff576040818360ff9352600460205220541615610ddf575b90610dc3939291610dbd6112c8565b90611187565b15610dd0576001016108d7565b63582f497d60e11b8952600489fd5b7f0000000000000000000000000000000000000000000000000000000000000000421115610dae5763e3ea984960e01b8d5260048dfd5b8c80fd5b634e487b7160e01b8b52603260045260248bfd5b63512509d360e11b8752600487fd5b50808314156108c9565b8580fd5b50346100ff5760203660031901126100ff576004356001600160a01b038116908181036103f157610e7a611069565b8115610f56576040516370a0823160e01b8152306004820152907f00000000000000000000000000000000000000000000000000000000000000006020836024816001600160a01b0385165afa928315610f4b578593610f0f575b5091610f05816020937f6352c5382c4a4578e712449ca65e83cdb392d045dfcf1cad9615189db2da244b956110b1565b604051908152a280f35b9250906020833d602011610f43575b81610f2b6020938361100b565b81010312610f3f5791519190610f05610ed5565b8480fd5b3d9150610f1e565b6040513d87823e3d90fd5b63d92e233d60e01b8352600483fd5b50346100ff57806003193601126100ff5760206040517f00000000000000000000000000000000000000000000000000000000000000008152f35b90503461018c578160031936011261018c576020907f00000000000000000000000000000000000000000000000000000000000000008152f35b9181601f8401121561043f5782359167ffffffffffffffff831161043f576020808501948460051b01011161043f57565b90601f8019910116810190811067ffffffffffffffff82111761102d57604052565b634e487b7160e01b600052604160045260246000fd5b91908110156110535760051b0190565b634e487b7160e01b600052603260045260246000fd5b6000546001600160a01b03908116906110806112c8565b160361108857565b6110906112c8565b63118cdaa760e01b60009081526001600160a01b0391909116600452602490fd5b60405163a9059cbb60e01b60208083019182526001600160a01b0394909416602483015260448083019590955293815290926000916110f160648261100b565b519082855af115611143576000513d61113a57506001600160a01b0381163b155b6111195750565b635274afe760e01b60009081526001600160a01b0391909116600452602490fd5b60011415611112565b6040513d6000823e3d90fd5b600280541461115e5760028055565b633ee5aeb560e01b60005260046000fd5b67ffffffffffffffff811161102d5760051b60200190565b91949394604051916020830193845260018060a01b031660408301526060820152606081526111b760808261100b565b51902060405160208101918252602081526111d360408261100b565b519020906111e08461116f565b936111ee604051958661100b565b808552602085019060051b82019136831161043f57905b828210611281575050506000905b835182101561125a5761122682856112b4565b51906000828210156112495750600052602052600160406000205b910190611213565b604091600193825260205220611241565b7f000000000000000000000000000000000000000000000000000000000000000014925050565b8135815260209182019101611205565b9190820180921161129e57565b634e487b7160e01b600052601160045260246000fd5b80518210156110535760209160051b010190565b337f00000000000000000000000000000000000000000000000000000000000000006001600160a01b03161480611316575b1561131257601319360136811161129e573560601c90565b3390565b5060143610156112fa56fea164736f6c634300081c000a","linkReferences":{}},"methodIdentifiers":{"batchClaim(uint256[],uint256[],bytes32[][])":"4be7adee","claim(uint256,uint256,bytes32[])":"ae0b51df","claimPeriodEnd()":"3da082a0","claimStrategy()":"a26bd9dc","isClaimed(uint256)":"9e34070f","isTrustedForwarder(address)":"572b6c05","merkleRoot()":"2eb4a7ab","owner()":"8da5cb5b","renounceOwnership()":"715018a6","setClaimStrategy(address)":"a4448a1b","token()":"fc0c546a","transferOwnership(address)":"f2fde38b","trustedForwarder()":"7da0a877","withdrawTokens(address)":"49df728c"},"id":22}