{
  "abi": [
    {
      "type": "constructor",
      "inputs": [
        {
          "name": "forwarder",
          "type": "address",
          "internalType": "address"
        },
        {
          "name": "settlementCutoffDate",
          "type": "uint256",
          "internalType": "uint256"
        },
        {
          "name": "settlementAutoExecute",
          "type": "bool",
          "internalType": "bool"
        },
        {
          "name": "settlementFlows",
          "type": "tuple[]",
          "internalType": "struct XvPSettlement.Flow[]",
          "components": [
            {
              "name": "asset",
              "type": "address",
              "internalType": "address"
            },
            {
              "name": "from",
              "type": "address",
              "internalType": "address"
            },
            {
              "name": "to",
              "type": "address",
              "internalType": "address"
            },
            {
              "name": "amount",
              "type": "uint256",
              "internalType": "uint256"
            }
          ]
        }
      ],
      "stateMutability": "nonpayable"
    },
    {
      "type": "function",
      "name": "approvals",
      "inputs": [
        {
          "name": "account",
          "type": "address",
          "internalType": "address"
        }
      ],
      "outputs": [
        {
          "name": "",
          "type": "bool",
          "internalType": "bool"
        }
      ],
      "stateMutability": "view"
    },
    {
      "type": "function",
      "name": "approve",
      "inputs": [],
      "outputs": [
        {
          "name": "success",
          "type": "bool",
          "internalType": "bool"
        }
      ],
      "stateMutability": "nonpayable"
    },
    {
      "type": "function",
      "name": "autoExecute",
      "inputs": [],
      "outputs": [
        {
          "name": "",
          "type": "bool",
          "internalType": "bool"
        }
      ],
      "stateMutability": "view"
    },
    {
      "type": "function",
      "name": "cancel",
      "inputs": [],
      "outputs": [
        {
          "name": "",
          "type": "bool",
          "internalType": "bool"
        }
      ],
      "stateMutability": "nonpayable"
    },
    {
      "type": "function",
      "name": "cancelled",
      "inputs": [],
      "outputs": [
        {
          "name": "",
          "type": "bool",
          "internalType": "bool"
        }
      ],
      "stateMutability": "view"
    },
    {
      "type": "function",
      "name": "createdAt",
      "inputs": [],
      "outputs": [
        {
          "name": "",
          "type": "uint256",
          "internalType": "uint256"
        }
      ],
      "stateMutability": "view"
    },
    {
      "type": "function",
      "name": "cutoffDate",
      "inputs": [],
      "outputs": [
        {
          "name": "",
          "type": "uint256",
          "internalType": "uint256"
        }
      ],
      "stateMutability": "view"
    },
    {
      "type": "function",
      "name": "execute",
      "inputs": [],
      "outputs": [
        {
          "name": "",
          "type": "bool",
          "internalType": "bool"
        }
      ],
      "stateMutability": "nonpayable"
    },
    {
      "type": "function",
      "name": "executed",
      "inputs": [],
      "outputs": [
        {
          "name": "",
          "type": "bool",
          "internalType": "bool"
        }
      ],
      "stateMutability": "view"
    },
    {
      "type": "function",
      "name": "flows",
      "inputs": [],
      "outputs": [
        {
          "name": "",
          "type": "tuple[]",
          "internalType": "struct XvPSettlement.Flow[]",
          "components": [
            {
              "name": "asset",
              "type": "address",
              "internalType": "address"
            },
            {
              "name": "from",
              "type": "address",
              "internalType": "address"
            },
            {
              "name": "to",
              "type": "address",
              "internalType": "address"
            },
            {
              "name": "amount",
              "type": "uint256",
              "internalType": "uint256"
            }
          ]
        }
      ],
      "stateMutability": "view"
    },
    {
      "type": "function",
      "name": "isFullyApproved",
      "inputs": [],
      "outputs": [
        {
          "name": "",
          "type": "bool",
          "internalType": "bool"
        }
      ],
      "stateMutability": "view"
    },
    {
      "type": "function",
      "name": "isTrustedForwarder",
      "inputs": [
        {
          "name": "forwarder",
          "type": "address",
          "internalType": "address"
        }
      ],
      "outputs": [
        {
          "name": "",
          "type": "bool",
          "internalType": "bool"
        }
      ],
      "stateMutability": "view"
    },
    {
      "type": "function",
      "name": "revokeApproval",
      "inputs": [],
      "outputs": [
        {
          "name": "",
          "type": "bool",
          "internalType": "bool"
        }
      ],
      "stateMutability": "nonpayable"
    },
    {
      "type": "function",
      "name": "trustedForwarder",
      "inputs": [],
      "outputs": [
        {
          "name": "",
          "type": "address",
          "internalType": "address"
        }
      ],
      "stateMutability": "view"
    },
    {
      "type": "event",
      "name": "XvPSettlementApprovalRevoked",
      "inputs": [
        {
          "name": "sender",
          "type": "address",
          "indexed": true,
          "internalType": "address"
        }
      ],
      "anonymous": false
    },
    {
      "type": "event",
      "name": "XvPSettlementApproved",
      "inputs": [
        {
          "name": "sender",
          "type": "address",
          "indexed": true,
          "internalType": "address"
        }
      ],
      "anonymous": false
    },
    {
      "type": "event",
      "name": "XvPSettlementCancelled",
      "inputs": [
        {
          "name": "sender",
          "type": "address",
          "indexed": true,
          "internalType": "address"
        }
      ],
      "anonymous": false
    },
    {
      "type": "event",
      "name": "XvPSettlementExecuted",
      "inputs": [
        {
          "name": "sender",
          "type": "address",
          "indexed": true,
          "internalType": "address"
        }
      ],
      "anonymous": false
    },
    {
      "type": "error",
      "name": "EmptyFlows",
      "inputs": []
    },
    {
      "type": "error",
      "name": "InsufficientAllowance",
      "inputs": [
        {
          "name": "token",
          "type": "address",
          "internalType": "address"
        },
        {
          "name": "owner",
          "type": "address",
          "internalType": "address"
        },
        {
          "name": "spender",
          "type": "address",
          "internalType": "address"
        },
        {
          "name": "required",
          "type": "uint256",
          "internalType": "uint256"
        },
        {
          "name": "allowed",
          "type": "uint256",
          "internalType": "uint256"
        }
      ]
    },
    {
      "type": "error",
      "name": "InvalidCutoffDate",
      "inputs": []
    },
    {
      "type": "error",
      "name": "InvalidToken",
      "inputs": []
    },
    {
      "type": "error",
      "name": "ReentrancyGuardReentrantCall",
      "inputs": []
    },
    {
      "type": "error",
      "name": "SafeERC20FailedOperation",
      "inputs": [
        {
          "name": "token",
          "type": "address",
          "internalType": "address"
        }
      ]
    },
    {
      "type": "error",
      "name": "SenderAlreadyApprovedSettlement",
      "inputs": []
    },
    {
      "type": "error",
      "name": "SenderNotApprovedSettlement",
      "inputs": []
    },
    {
      "type": "error",
      "name": "SenderNotInvolvedInSettlement",
      "inputs": []
    },
    {
      "type": "error",
      "name": "XvPSettlementAlreadyCancelled",
      "inputs": []
    },
    {
      "type": "error",
      "name": "XvPSettlementAlreadyExecuted",
      "inputs": []
    },
    {
      "type": "error",
      "name": "XvPSettlementExpired",
      "inputs": []
    },
    {
      "type": "error",
      "name": "XvPSettlementNotApproved",
      "inputs": []
    },
    {
      "type": "error",
      "name": "XvPSettlementNotExpired",
      "inputs": []
    },
    {
      "type": "error",
      "name": "ZeroAddress",
      "inputs": []
    },
    {
      "type": "error",
      "name": "ZeroAmount",
      "inputs": []
    }
  ],
  "bytecode": {
    "object": "0x60a0806040523461041357610f8d803803809161001c8285610418565b8339810190608081830312610413576100348161043b565b602082015190604083015192831515809403610413576060810151906001600160401b038211610413570184601f82011215610413578051906001600160401b0382116103fd576040519561008f60208460051b0188610418565b82875260208088019360071b8301019181831161041357602001925b82841061038f5750505050600160005560805260015560ff8019600254169116176002554260055580511561037e576000905b805182101561035857600582901b810160200151805160009391906001600160a01b031615610349576020810180516001600160a01b03161561033a576040820180516001600160a01b03161561032b57606083019182511561031c57868060018060a01b03865116604051602081019063313ce56760e01b825260048152610168602482610418565b51915afa3d15610314573d906001600160401b038211610300576040519161019a601f8201601f191660200184610418565b82523d89602084013e5b159081156102f3575b506102e457600354680100000000000000008110156102d05760018101806003558110156102bc576003909752925160029690961b7fc2575a0e9e593c00f959f8c92f12db2869c3395a3b0502d05e2516446f71f85b810180546001600160a01b03199081166001600160a01b03998a161790915593517fc2575a0e9e593c00f959f8c92f12db2869c3395a3b0502d05e2516446f71f85c82018054861691891691909117905590517fc2575a0e9e593c00f959f8c92f12db2869c3395a3b0502d05e2516446f71f85d82018054909416961695909517909155517fc2575a0e9e593c00f959f8c92f12db2869c3395a3b0502d05e2516446f71f85e90930192909255600191909101906100de565b634e487b7160e01b88526032600452602488fd5b634e487b7160e01b88526041600452602488fd5b63c1ab6dc160e01b8752600487fd5b60209150511415386101ad565b634e487b7160e01b89526041600452602489fd5b6060906101a4565b631f2a200560e01b8752600487fd5b63d92e233d60e01b8652600486fd5b63d92e233d60e01b8552600485fd5b63c1ab6dc160e01b8452600484fd5b604051610b3d908161045082396080518181816104c6015281816105fe01526109a50152f35b63786d930160e11b60005260046000fd5b608084830312610413576040519060808201906001600160401b038211838310176103fd576080926020926040526103c68761043b565b81526103d383880161043b565b838201526103e36040880161043b565b6040820152606087015160608201528152019301926100ab565b634e487b7160e01b600052604160045260246000fd5b600080fd5b601f909101601f19168101906001600160401b038211908210176103fd57604052565b51906001600160a01b03821682036104135756fe6080604052600436101561001257600080fd5b60003560e01c806312424e3f1461065657806331a38c8914610630578063572b6c05146105d35780635d0341ba14610590578063614619541461051a5780637bf3b6c5146104f55780637da0a877146104b057806390d02b3c1461039d5780639a82a09a14610377578063a7dd8a961461020b578063a911f736146101e8578063ca00ed2b146101ca578063cf09e0d0146101ac5763ea8a1af0146100b657600080fd5b346101a75760003660031901126101a7576100cf610980565b60025460ff8160081c1661019657600080600354905b81811061015a575b5050156101495762ff00001916620100001760025560206001600160a01b036101146109a2565b16604051907f6791a00da5c4f071b344d1ab448dbf07ba707247bc73795dbe2823d93812c3c9600080a2600160005560018152f35b637f03d13d60e11b60005260046000fd5b610163816108d8565b50600101546001600160a01b039081169061017c6109a2565b161461018a576001016100e5565b505050600138806100ed565b630704910f60e31b60005260046000fd5b600080fd5b346101a75760003660031901126101a7576020600554604051908152f35b346101a75760003660031901126101a7576020600154604051908152f35b346101a75760003660031901126101a757602060ff600254166040519015158152f35b346101a75760003660031901126101a75760035467ffffffffffffffff8111610361576040519061024260208260051b018361090d565b80825260208201809160036000527fc2575a0e9e593c00f959f8c92f12db2869c3395a3b0502d05e2516446f71f85b916000905b8282106102f85784866040519182916020830190602084525180915260408301919060005b8181106102a9575050500390f35b825180516001600160a01b03908116865260208281015182168188015260408084015190921691870191909152606091820151918601919091528695506080909401939092019160010161029b565b6040516080810181811067ffffffffffffffff82111761036157600192600492602092604052848060a01b038854168152848060a01b03858901541683820152848060a01b03600289015416604082015260038801546060820152815201940191019092610276565b634e487b7160e01b600052604160045260246000fd5b346101a75760003660031901126101a757602060ff60025460101c166040519015158152f35b346101a75760003660031901126101a7576103b6610980565b600080600354905b818110610474575b505015610149576001600160a01b036103dd6109a2565b16600052600460205260ff6040600020541615610463576001600160a01b036104046109a2565b166000908152600460209081526040909120805460ff191690556001600160a01b0361042e6109a2565b16604051907fb8047ca8c7d296e0b96533ee4f8a135446f5307e7ef32b0313bd8f2dc92b2c78600080a2600160005560018152f35b63766bb56f60e01b60005260046000fd5b61047d816108d8565b50600101546001600160a01b03908116906104966109a2565b16146104a4576001016103be565b505050600181806103c6565b346101a75760003660031901126101a7576040517f00000000000000000000000000000000000000000000000000000000000000006001600160a01b03168152602090f35b346101a75760003660031901126101a757602061051061092f565b6040519015158152f35b346101a75760003660031901126101a757610533610980565b60025460ff8160081c166101965760101c60ff1661057f5760015442101561056e57602061055f610a11565b60016000556040519015158152f35b631375922f60e21b60005260046000fd5b63de87c00560e01b60005260046000fd5b346101a75760203660031901126101a7576004356001600160a01b038116908190036101a7576000526004602052602060ff604060002054166040519015158152f35b346101a75760203660031901126101a7576004356001600160a01b038116908190036101a7576040517f00000000000000000000000000000000000000000000000000000000000000006001600160a01b03169091148152602090f35b346101a75760003660031901126101a757602060ff60025460081c166040519015158152f35b346101a75760003660031901126101a75761066f610980565b60025460ff8160081c166101965760101c60ff1661057f5760015442101561056e576003546000805b82811061089e575b5015610149576001600160a01b036106b66109a2565b16600052600460205260ff6040600020541661088d5760005b818110610773576001600160a01b036106e66109a2565b166000908152600460205260409020805460ff191660011790556001600160a01b036107106109a2565b167fdf88b71653b43acb580f3e64cb2fc0bd871e638a7a370889986fc0b6c10e5f65600080a260ff6002541680610765575b610757575b6001600055602060405160018152f35b61075f610a11565b50610747565b5061076e61092f565b610742565b61077c816108d8565b5060018101546001600160a01b03908116906107966109a2565b16146107a6575b506001016106cf565b80546001600160a01b0316906107ba6109a2565b604051636eb1769f60e11b81526001600160a01b03909116600482015230602482015290602082604481865afa9182156108815760009261084a575b506003015480821061080957505061079d565b60a493506108156109a2565b6040516351750bc760e01b815260048101949094526001600160a01b0316602484015230604484015260648301526084820152fd5b90916020823d8211610879575b816108646020938361090d565b810103126108765750519060036107f6565b80fd5b3d9150610857565b6040513d6000823e3d90fd5b63992a9f6f60e01b60005260046000fd5b6108a7816108d8565b50600101546001600160a01b03908116906108c06109a2565b16146108ce57600101610698565b50506001826106a0565b6003548110156108f757600360005260206000209060021b0190600090565b634e487b7160e01b600052603260045260246000fd5b90601f8019910116810190811067ffffffffffffffff82111761036157604052565b60035460005b818110610943575050600190565b61094c816108d8565b50600101546001600160a01b031660009081526004602052604090205460ff161561097957600101610935565b5050600090565b600260005414610991576002600055565b633ee5aeb560e01b60005260046000fd5b337f00000000000000000000000000000000000000000000000000000000000000006001600160a01b03161480610a06575b15610a025760131936013681116109ec573560601c90565b634e487b7160e01b600052601160045260246000fd5b3390565b5060143610156109d4565b610a1961092f565b15610b1f5760005b600354811015610ad457610a34816108d8565b508054600182015460028301546003909301546040516323b872dd60e01b60208083019182526001600160a01b0394851660248401529584166044830152606480830193909352918152919092169291600091610a9260848261090d565b519082855af115610881576000513d610acb5750803b155b610ab75750600101610a21565b635274afe760e01b60005260045260246000fd5b60011415610aaa565b506002805461ff0019166101001790556001600160a01b03610af46109a2565b167f56affb24bdcddaa72ae590c2b1b8aa4101e24565bbb5bdb504852f20a3da8cdc600080a2600190565b630ce40ec160e41b60005260046000fdfea164736f6c634300081c000a",
    "linkReferences": {}
  },
  "methodIdentifiers": {
    "approvals(address)": "5d0341ba",
    "approve()": "12424e3f",
    "autoExecute()": "a911f736",
    "cancel()": "ea8a1af0",
    "cancelled()": "9a82a09a",
    "createdAt()": "cf09e0d0",
    "cutoffDate()": "ca00ed2b",
    "execute()": "61461954",
    "executed()": "31a38c89",
    "flows()": "a7dd8a96",
    "isFullyApproved()": "7bf3b6c5",
    "isTrustedForwarder(address)": "572b6c05",
    "revokeApproval()": "90d02b3c",
    "trustedForwarder()": "7da0a877"
  },
  "id": 23
}