{
  "_format": "hh-sol-artifact-1",
  "contractName": "ATKXvPSettlementImplementation",
  "sourceName": "contracts/addons/xvp/ATKXvPSettlementImplementation.sol",
  "abi": [
    {
      "inputs": [
        {
          "internalType": "address",
          "name": "forwarder",
          "type": "address"
        }
      ],
      "stateMutability": "nonpayable",
      "type": "constructor"
    },
    {
      "inputs": [],
      "name": "EmptyFlows",
      "type": "error"
    },
    {
      "inputs": [
        {
          "internalType": "address",
          "name": "token",
          "type": "address"
        },
        {
          "internalType": "address",
          "name": "owner",
          "type": "address"
        },
        {
          "internalType": "address",
          "name": "spender",
          "type": "address"
        },
        {
          "internalType": "uint256",
          "name": "required",
          "type": "uint256"
        },
        {
          "internalType": "uint256",
          "name": "allowed",
          "type": "uint256"
        }
      ],
      "name": "InsufficientAllowance",
      "type": "error"
    },
    {
      "inputs": [],
      "name": "InvalidCutoffDate",
      "type": "error"
    },
    {
      "inputs": [],
      "name": "InvalidInitialization",
      "type": "error"
    },
    {
      "inputs": [],
      "name": "InvalidToken",
      "type": "error"
    },
    {
      "inputs": [],
      "name": "NotInitializing",
      "type": "error"
    },
    {
      "inputs": [],
      "name": "ReentrancyGuardReentrantCall",
      "type": "error"
    },
    {
      "inputs": [
        {
          "internalType": "address",
          "name": "token",
          "type": "address"
        }
      ],
      "name": "SafeERC20FailedOperation",
      "type": "error"
    },
    {
      "inputs": [],
      "name": "SenderAlreadyApprovedSettlement",
      "type": "error"
    },
    {
      "inputs": [],
      "name": "SenderNotApprovedSettlement",
      "type": "error"
    },
    {
      "inputs": [],
      "name": "SenderNotInvolvedInSettlement",
      "type": "error"
    },
    {
      "inputs": [],
      "name": "XvPSettlementAlreadyCancelled",
      "type": "error"
    },
    {
      "inputs": [],
      "name": "XvPSettlementAlreadyExecuted",
      "type": "error"
    },
    {
      "inputs": [],
      "name": "XvPSettlementExpired",
      "type": "error"
    },
    {
      "inputs": [],
      "name": "XvPSettlementNotApproved",
      "type": "error"
    },
    {
      "inputs": [],
      "name": "XvPSettlementNotExpired",
      "type": "error"
    },
    {
      "inputs": [],
      "name": "ZeroAddress",
      "type": "error"
    },
    {
      "inputs": [],
      "name": "ZeroAmount",
      "type": "error"
    },
    {
      "anonymous": false,
      "inputs": [
        {
          "indexed": false,
          "internalType": "uint64",
          "name": "version",
          "type": "uint64"
        }
      ],
      "name": "Initialized",
      "type": "event"
    },
    {
      "anonymous": false,
      "inputs": [
        {
          "indexed": true,
          "internalType": "address",
          "name": "sender",
          "type": "address"
        }
      ],
      "name": "XvPSettlementApprovalRevoked",
      "type": "event"
    },
    {
      "anonymous": false,
      "inputs": [
        {
          "indexed": true,
          "internalType": "address",
          "name": "sender",
          "type": "address"
        }
      ],
      "name": "XvPSettlementApproved",
      "type": "event"
    },
    {
      "anonymous": false,
      "inputs": [
        {
          "indexed": true,
          "internalType": "address",
          "name": "sender",
          "type": "address"
        }
      ],
      "name": "XvPSettlementCancelled",
      "type": "event"
    },
    {
      "anonymous": false,
      "inputs": [
        {
          "indexed": true,
          "internalType": "address",
          "name": "sender",
          "type": "address"
        }
      ],
      "name": "XvPSettlementExecuted",
      "type": "event"
    },
    {
      "inputs": [
        {
          "internalType": "address",
          "name": "account",
          "type": "address"
        }
      ],
      "name": "approvals",
      "outputs": [
        {
          "internalType": "bool",
          "name": "",
          "type": "bool"
        }
      ],
      "stateMutability": "view",
      "type": "function"
    },
    {
      "inputs": [],
      "name": "approve",
      "outputs": [
        {
          "internalType": "bool",
          "name": "success",
          "type": "bool"
        }
      ],
      "stateMutability": "nonpayable",
      "type": "function"
    },
    {
      "inputs": [],
      "name": "autoExecute",
      "outputs": [
        {
          "internalType": "bool",
          "name": "",
          "type": "bool"
        }
      ],
      "stateMutability": "view",
      "type": "function"
    },
    {
      "inputs": [],
      "name": "cancel",
      "outputs": [
        {
          "internalType": "bool",
          "name": "",
          "type": "bool"
        }
      ],
      "stateMutability": "nonpayable",
      "type": "function"
    },
    {
      "inputs": [],
      "name": "cancelled",
      "outputs": [
        {
          "internalType": "bool",
          "name": "",
          "type": "bool"
        }
      ],
      "stateMutability": "view",
      "type": "function"
    },
    {
      "inputs": [],
      "name": "createdAt",
      "outputs": [
        {
          "internalType": "uint256",
          "name": "",
          "type": "uint256"
        }
      ],
      "stateMutability": "view",
      "type": "function"
    },
    {
      "inputs": [],
      "name": "cutoffDate",
      "outputs": [
        {
          "internalType": "uint256",
          "name": "",
          "type": "uint256"
        }
      ],
      "stateMutability": "view",
      "type": "function"
    },
    {
      "inputs": [],
      "name": "execute",
      "outputs": [
        {
          "internalType": "bool",
          "name": "",
          "type": "bool"
        }
      ],
      "stateMutability": "nonpayable",
      "type": "function"
    },
    {
      "inputs": [],
      "name": "executed",
      "outputs": [
        {
          "internalType": "bool",
          "name": "",
          "type": "bool"
        }
      ],
      "stateMutability": "view",
      "type": "function"
    },
    {
      "inputs": [],
      "name": "flows",
      "outputs": [
        {
          "components": [
            {
              "internalType": "address",
              "name": "asset",
              "type": "address"
            },
            {
              "internalType": "address",
              "name": "from",
              "type": "address"
            },
            {
              "internalType": "address",
              "name": "to",
              "type": "address"
            },
            {
              "internalType": "uint256",
              "name": "amount",
              "type": "uint256"
            }
          ],
          "internalType": "struct IATKXvPSettlement.Flow[]",
          "name": "",
          "type": "tuple[]"
        }
      ],
      "stateMutability": "view",
      "type": "function"
    },
    {
      "inputs": [
        {
          "internalType": "uint256",
          "name": "settlementCutoffDate",
          "type": "uint256"
        },
        {
          "internalType": "bool",
          "name": "settlementAutoExecute",
          "type": "bool"
        },
        {
          "components": [
            {
              "internalType": "address",
              "name": "asset",
              "type": "address"
            },
            {
              "internalType": "address",
              "name": "from",
              "type": "address"
            },
            {
              "internalType": "address",
              "name": "to",
              "type": "address"
            },
            {
              "internalType": "uint256",
              "name": "amount",
              "type": "uint256"
            }
          ],
          "internalType": "struct IATKXvPSettlement.Flow[]",
          "name": "settlementFlows",
          "type": "tuple[]"
        }
      ],
      "name": "initialize",
      "outputs": [],
      "stateMutability": "nonpayable",
      "type": "function"
    },
    {
      "inputs": [],
      "name": "isFullyApproved",
      "outputs": [
        {
          "internalType": "bool",
          "name": "",
          "type": "bool"
        }
      ],
      "stateMutability": "view",
      "type": "function"
    },
    {
      "inputs": [
        {
          "internalType": "address",
          "name": "forwarder",
          "type": "address"
        }
      ],
      "name": "isTrustedForwarder",
      "outputs": [
        {
          "internalType": "bool",
          "name": "",
          "type": "bool"
        }
      ],
      "stateMutability": "view",
      "type": "function"
    },
    {
      "inputs": [],
      "name": "revokeApproval",
      "outputs": [
        {
          "internalType": "bool",
          "name": "",
          "type": "bool"
        }
      ],
      "stateMutability": "nonpayable",
      "type": "function"
    },
    {
      "inputs": [
        {
          "internalType": "bytes4",
          "name": "interfaceId",
          "type": "bytes4"
        }
      ],
      "name": "supportsInterface",
      "outputs": [
        {
          "internalType": "bool",
          "name": "",
          "type": "bool"
        }
      ],
      "stateMutability": "view",
      "type": "function"
    },
    {
      "inputs": [],
      "name": "trustedForwarder",
      "outputs": [
        {
          "internalType": "address",
          "name": "",
          "type": "address"
        }
      ],
      "stateMutability": "view",
      "type": "function"
    }
  ],
  "bytecode": "0x60a03461011057601f6111c338819003918201601f19168301916001600160401b038311848410176101145780849260209460405283398101031261011057516001600160a01b0381168103610110576080525f5160206111a35f395f51905f525460ff8160401c16610101576002600160401b03196001600160401b038216016100ab575b60405161107a9081610129823960805181818161049f015281816105cb0152610e580152f35b6001600160401b0319166001600160401b039081175f5160206111a35f395f51905f52556040519081527fc7f505b2f371ae2175ee4913f4499e1f2633a7b5936321eed1cdaeb6115181d290602090a15f610085565b63f92ee8a960e01b5f5260045ffd5b5f80fd5b634e487b7160e01b5f52604160045260245ffdfe6080806040526004361015610012575f80fd5b5f3560e01c90816301ffc9a714610cb05750806312424e3f14610a3157806321c912bb1461062457806331a38c89146105ff578063572b6c05146105ab5780635d0341ba1461056e57806361461954146104f25780637bf3b6c5146104ce5780637da0a8771461048a57806390d02b3c146103735780639a82a09a1461034e578063a7dd8a9614610221578063a911f736146101ff578063ca00ed2b146101e3578063cf09e0d0146101c65763ea8a1af0146100cc575f80fd5b346101c2575f3660031901126101c2576100e4610e1d565b60015460ff8160081c166101b3575f5f600254905b818110610177575b5050156101685762ff00001916620100001760015560206001600160a01b03610128610e55565b16604051907f6791a00da5c4f071b344d1ab448dbf07ba707247bc73795dbe2823d93812c3c95f80a260015f5160206110055f395f51905f525560018152f35b637f03d13d60e11b5f5260045ffd5b61018081610d83565b50600101546001600160a01b0390811690610199610e55565b16146101a7576001016100f9565b50505060015f80610101565b630704910f60e31b5f5260045ffd5b5f80fd5b346101c2575f3660031901126101c2576020600454604051908152f35b346101c2575f3660031901126101c25760205f54604051908152f35b346101c2575f3660031901126101c257602060ff600154166040519015158152f35b346101c2575f3660031901126101c25760025461023d81610d41565b9061024b6040519283610d1f565b80825260208201908160025f527f405787fa12a823e0f2b7631cc41b3ba8828b3321ca811111fa75cd3aa3bb5ace5f915b8383106102fd578486604051918291602083019060208452518091526040830191905f5b8181106102ae575050500390f35b825180516001600160a01b0390811686526020828101518216818801526040808401519092169187019190915260609182015191860191909152869550608090940193909201916001016102a0565b6004602060019260405161031081610d03565b855460a086901b869003908116825286860154811684830152600287015416604082015260038601546060820152815294909201939201910161027c565b346101c2575f3660031901126101c257602060ff60015460101c166040519015158152f35b346101c2575f3660031901126101c25761038b610e1d565b5f5f600254905b81811061044e575b505015610168576001600160a01b036103b1610e55565b165f52600360205260ff60405f2054161561043f576001600160a01b036103d6610e55565b165f908152600360209081526040909120805460ff191690556001600160a01b036103ff610e55565b16604051907fb8047ca8c7d296e0b96533ee4f8a135446f5307e7ef32b0313bd8f2dc92b2c785f80a260015f5160206110055f395f51905f525560018152f35b63766bb56f60e01b5f5260045ffd5b61045781610d83565b50600101546001600160a01b0390811690610470610e55565b161461047e57600101610392565b5050506001818061039a565b346101c2575f3660031901126101c2576040517f00000000000000000000000000000000000000000000000000000000000000006001600160a01b03168152602090f35b346101c2575f3660031901126101c25760206104e8610dcf565b6040519015158152f35b346101c2575f3660031901126101c25761050a610e1d565b60015460ff8160081c166101b35760101c60ff1661055f575f54421015610550576020610535610ec2565b60015f5160206110055f395f51905f52556040519015158152f35b631375922f60e21b5f5260045ffd5b63de87c00560e01b5f5260045ffd5b346101c25760203660031901126101c2576001600160a01b0361058f610d59565b165f526003602052602060ff60405f2054166040519015158152f35b346101c25760203660031901126101c25760206105c6610d59565b6040517f00000000000000000000000000000000000000000000000000000000000000006001600160a01b039081169216919091148152f35b346101c2575f3660031901126101c257602060ff60015460081c166040519015158152f35b346101c25760603660031901126101c2576024358015158091036101c25760443567ffffffffffffffff81116101c257366023820112156101c257806004013561066d81610d41565b9161067b6040519384610d1f565b8183526024602084019260071b820101903682116101c257602401915b8183106109d6575050505f5160206110255f395f51905f52549160ff8360401c16159267ffffffffffffffff8116801590816109ce575b60011490816109c4575b1590816109bb575b506109ac5767ffffffffffffffff1981166001175f5160206110255f395f51905f525583610980575b50610713610fd9565b61071b610fd9565b60015f5160206110055f395f51905f5255610734610fd9565b6004355f5560ff80196001541691161760015542600455805115610971575f5b815181101561091357600581901b82016020015180519091906001600160a01b0316156108d1576020820180519092906001600160a01b031615610904576040810180519091906001600160a01b03161561090457606081018051156108f5575f8060018060a01b03845116604051602081019063313ce56760e01b8252600481526107e1602482610d1f565b51915afa3d156108ed573d9067ffffffffffffffff82116108bd5760405191610814601f8201601f191660200184610d1f565b82523d5f602084013e5b159081156108e0575b506108d157600254680100000000000000008110156108bd578060016108509201600255610d83565b9390936108aa57915183546001600160a01b03199081166001600160a01b03928316178555955160018581018054891692841692909217909155925160028501805490971691161790945592516003919091015501610754565b634e487b7160e01b5f525f60045260245ffd5b634e487b7160e01b5f52604160045260245ffd5b63c1ab6dc160e01b5f5260045ffd5b6020915051141588610827565b60609061081e565b631f2a200560e01b5f5260045ffd5b63d92e233d60e01b5f5260045ffd5b8261091a57005b68ff0000000000000000195f5160206110255f395f51905f5254165f5160206110255f395f51905f52557fc7f505b2f371ae2175ee4913f4499e1f2633a7b5936321eed1cdaeb6115181d2602060405160018152a1005b63786d930160e11b5f5260045ffd5b68ffffffffffffffffff191668010000000000000001175f5160206110255f395f51905f52558361070a565b63f92ee8a960e01b5f5260045ffd5b905015856106e1565b303b1591506106d9565b8591506106cf565b6080833603126101c25760206080916040516109f181610d03565b6109fa86610d6f565b8152610a07838701610d6f565b83820152610a1760408701610d6f565b604082015260608601356060820152815201920191610698565b346101c2575f3660031901126101c257610a49610e1d565b60015460ff8160081c166101b35760101c60ff1661055f575f54421015610550576002545f805b828110610c76575b5015610168576001600160a01b03610a8e610e55565b165f52600360205260ff60405f205416610c67575f5b818110610b52576001600160a01b03610abb610e55565b165f908152600360205260409020805460ff191660011790556001600160a01b03610ae4610e55565b167fdf88b71653b43acb580f3e64cb2fc0bd871e638a7a370889986fc0b6c10e5f655f80a260ff6001541680610b44575b610b36575b60015f5160206110055f395f51905f5255602060405160018152f35b610b3e610ec2565b50610b1a565b50610b4d610dcf565b610b15565b610b5b81610d83565b5060018101546001600160a01b0390811690610b75610e55565b1614610b85575b50600101610aa4565b80546001600160a01b031690610b99610e55565b604051636eb1769f60e11b81526001600160a01b03909116600482015230602482015290602082604481865afa918215610c5c575f92610c28575b5060030154808210610be7575050610b7c565b60a49350610bf3610e55565b6040516351750bc760e01b815260048101949094526001600160a01b0316602484015230604484015260648301526084820152fd5b9091506020813d8211610c54575b81610c4360209383610d1f565b810103126101c25751906003610bd4565b3d9150610c36565b6040513d5f823e3d90fd5b63992a9f6f60e01b5f5260045ffd5b610c7f81610d83565b50600101546001600160a01b0390811690610c98610e55565b1614610ca657600101610a70565b5050600182610a78565b346101c25760203660031901126101c2576004359063ffffffff60e01b82168092036101c2576020916308f4acd960e41b8114908115610cf2575b5015158152f35b6301ffc9a760e01b14905083610ceb565b6080810190811067ffffffffffffffff8211176108bd57604052565b90601f8019910116810190811067ffffffffffffffff8211176108bd57604052565b67ffffffffffffffff81116108bd5760051b60200190565b600435906001600160a01b03821682036101c257565b35906001600160a01b03821682036101c257565b600254811015610dbb5760025f81815291901b7f405787fa12a823e0f2b7631cc41b3ba8828b3321ca811111fa75cd3aa3bb5ace0191565b634e487b7160e01b5f52603260045260245ffd5b6002545f5b818110610de2575050600190565b610deb81610d83565b50600101546001600160a01b03165f9081526003602052604090205460ff1615610e1757600101610dd4565b50505f90565b60025f5160206110055f395f51905f525414610e465760025f5160206110055f395f51905f5255565b633ee5aeb560e01b5f5260045ffd5b337f00000000000000000000000000000000000000000000000000000000000000006001600160a01b03161480610eb7575b15610eb3576013193601368111610e9f573560601c90565b634e487b7160e01b5f52601160045260245ffd5b3390565b506014361015610e87565b610eca610dcf565b15610fca575f5b600254811015610f8057610ee481610d83565b508054600182015460028301546003909301546040516323b872dd60e01b60208083019182526001600160a01b03948516602484015295841660448301526064808301939093529181529190921692915f91610f41608482610d1f565b519082855af115610c5c575f513d610f775750803b155b610f655750600101610ed1565b635274afe760e01b5f5260045260245ffd5b60011415610f58565b506001805461ff0019166101001790556001600160a01b03610fa0610e55565b167f56affb24bdcddaa72ae590c2b1b8aa4101e24565bbb5bdb504852f20a3da8cdc5f80a2600190565b630ce40ec160e41b5f5260045ffd5b60ff5f5160206110255f395f51905f525460401c1615610ff557565b631afcd79f60e31b5f5260045ffdfe9b779b17422d0df92223018b32b4d1fa46e071723d6817e2486d003becc55f00f0c57e16840df040f15088dc2f81fe391c3923bec73e23a9662efc9c229c6a00a26469706673582212207b63be4ce783d7c9569d43e2c466d650bb52b8f2cba5570f581f9b0b0261570c64736f6c634300081c0033f0c57e16840df040f15088dc2f81fe391c3923bec73e23a9662efc9c229c6a00",
  "linkReferences": {},
  "deployedLinkReferences": {}
}