{
  "_format": "hh-sol-artifact-1",
  "contractName": "ATKVestingAirdropFactoryImplementation",
  "sourceName": "contracts/addons/airdrop/vesting-airdrop/ATKVestingAirdropFactoryImplementation.sol",
  "abi": [
    {
      "inputs": [
        {
          "internalType": "address",
          "name": "forwarder",
          "type": "address"
        }
      ],
      "stateMutability": "nonpayable",
      "type": "constructor"
    },
    {
      "inputs": [],
      "name": "AccessControlBadConfirmation",
      "type": "error"
    },
    {
      "inputs": [
        {
          "internalType": "address",
          "name": "account",
          "type": "address"
        },
        {
          "internalType": "bytes32",
          "name": "neededRole",
          "type": "bytes32"
        }
      ],
      "name": "AccessControlUnauthorizedAccount",
      "type": "error"
    },
    {
      "inputs": [
        {
          "internalType": "address",
          "name": "deployedAddress",
          "type": "address"
        }
      ],
      "name": "AddressAlreadyDeployed",
      "type": "error"
    },
    {
      "inputs": [],
      "name": "Create2EmptyBytecode",
      "type": "error"
    },
    {
      "inputs": [],
      "name": "FailedDeployment",
      "type": "error"
    },
    {
      "inputs": [
        {
          "internalType": "uint256",
          "name": "balance",
          "type": "uint256"
        },
        {
          "internalType": "uint256",
          "name": "needed",
          "type": "uint256"
        }
      ],
      "name": "InsufficientBalance",
      "type": "error"
    },
    {
      "inputs": [],
      "name": "InvalidAddress",
      "type": "error"
    },
    {
      "inputs": [],
      "name": "InvalidImplementation",
      "type": "error"
    },
    {
      "inputs": [],
      "name": "InvalidInitialization",
      "type": "error"
    },
    {
      "inputs": [],
      "name": "NotInitializing",
      "type": "error"
    },
    {
      "inputs": [],
      "name": "ProxyCreationFailed",
      "type": "error"
    },
    {
      "inputs": [],
      "name": "SameAddress",
      "type": "error"
    },
    {
      "anonymous": false,
      "inputs": [
        {
          "indexed": true,
          "internalType": "address",
          "name": "airdrop",
          "type": "address"
        },
        {
          "indexed": true,
          "internalType": "address",
          "name": "creator",
          "type": "address"
        }
      ],
      "name": "ATKVestingAirdropCreated",
      "type": "event"
    },
    {
      "anonymous": false,
      "inputs": [
        {
          "indexed": true,
          "internalType": "address",
          "name": "oldImplementation",
          "type": "address"
        },
        {
          "indexed": true,
          "internalType": "address",
          "name": "newImplementation",
          "type": "address"
        }
      ],
      "name": "ImplementationUpdated",
      "type": "event"
    },
    {
      "anonymous": false,
      "inputs": [
        {
          "indexed": false,
          "internalType": "uint64",
          "name": "version",
          "type": "uint64"
        }
      ],
      "name": "Initialized",
      "type": "event"
    },
    {
      "anonymous": false,
      "inputs": [
        {
          "indexed": true,
          "internalType": "bytes32",
          "name": "role",
          "type": "bytes32"
        },
        {
          "indexed": true,
          "internalType": "bytes32",
          "name": "previousAdminRole",
          "type": "bytes32"
        },
        {
          "indexed": true,
          "internalType": "bytes32",
          "name": "newAdminRole",
          "type": "bytes32"
        }
      ],
      "name": "RoleAdminChanged",
      "type": "event"
    },
    {
      "anonymous": false,
      "inputs": [
        {
          "indexed": true,
          "internalType": "bytes32",
          "name": "role",
          "type": "bytes32"
        },
        {
          "indexed": true,
          "internalType": "address",
          "name": "account",
          "type": "address"
        },
        {
          "indexed": true,
          "internalType": "address",
          "name": "sender",
          "type": "address"
        }
      ],
      "name": "RoleGranted",
      "type": "event"
    },
    {
      "anonymous": false,
      "inputs": [
        {
          "indexed": true,
          "internalType": "bytes32",
          "name": "role",
          "type": "bytes32"
        },
        {
          "indexed": true,
          "internalType": "address",
          "name": "account",
          "type": "address"
        },
        {
          "indexed": true,
          "internalType": "address",
          "name": "sender",
          "type": "address"
        }
      ],
      "name": "RoleRevoked",
      "type": "event"
    },
    {
      "inputs": [],
      "name": "DEFAULT_ADMIN_ROLE",
      "outputs": [
        {
          "internalType": "bytes32",
          "name": "",
          "type": "bytes32"
        }
      ],
      "stateMutability": "view",
      "type": "function"
    },
    {
      "inputs": [],
      "name": "allAirdropsLength",
      "outputs": [
        {
          "internalType": "uint256",
          "name": "count",
          "type": "uint256"
        }
      ],
      "stateMutability": "view",
      "type": "function"
    },
    {
      "inputs": [],
      "name": "atkVestingAirdropImplementation",
      "outputs": [
        {
          "internalType": "address",
          "name": "",
          "type": "address"
        }
      ],
      "stateMutability": "view",
      "type": "function"
    },
    {
      "inputs": [
        {
          "internalType": "address",
          "name": "token",
          "type": "address"
        },
        {
          "internalType": "bytes32",
          "name": "root",
          "type": "bytes32"
        },
        {
          "internalType": "address",
          "name": "owner",
          "type": "address"
        },
        {
          "internalType": "address",
          "name": "vestingStrategy",
          "type": "address"
        },
        {
          "internalType": "uint256",
          "name": "initializationDeadline",
          "type": "uint256"
        }
      ],
      "name": "create",
      "outputs": [
        {
          "internalType": "address",
          "name": "airdropProxyAddress",
          "type": "address"
        }
      ],
      "stateMutability": "nonpayable",
      "type": "function"
    },
    {
      "inputs": [
        {
          "internalType": "bytes32",
          "name": "role",
          "type": "bytes32"
        }
      ],
      "name": "getRoleAdmin",
      "outputs": [
        {
          "internalType": "bytes32",
          "name": "",
          "type": "bytes32"
        }
      ],
      "stateMutability": "view",
      "type": "function"
    },
    {
      "inputs": [
        {
          "internalType": "bytes32",
          "name": "role",
          "type": "bytes32"
        },
        {
          "internalType": "address",
          "name": "account",
          "type": "address"
        }
      ],
      "name": "grantRole",
      "outputs": [],
      "stateMutability": "nonpayable",
      "type": "function"
    },
    {
      "inputs": [
        {
          "internalType": "bytes32",
          "name": "role",
          "type": "bytes32"
        },
        {
          "internalType": "address",
          "name": "account",
          "type": "address"
        }
      ],
      "name": "hasRole",
      "outputs": [
        {
          "internalType": "bool",
          "name": "",
          "type": "bool"
        }
      ],
      "stateMutability": "view",
      "type": "function"
    },
    {
      "inputs": [
        {
          "internalType": "address",
          "name": "systemAddress_",
          "type": "address"
        },
        {
          "internalType": "address",
          "name": "initialAdmin_",
          "type": "address"
        }
      ],
      "name": "initialize",
      "outputs": [],
      "stateMutability": "nonpayable",
      "type": "function"
    },
    {
      "inputs": [
        {
          "internalType": "address",
          "name": "systemAddonAddress",
          "type": "address"
        }
      ],
      "name": "isFactorySystemAddon",
      "outputs": [
        {
          "internalType": "bool",
          "name": "isFactorySystemAddon",
          "type": "bool"
        }
      ],
      "stateMutability": "view",
      "type": "function"
    },
    {
      "inputs": [
        {
          "internalType": "address",
          "name": "forwarder",
          "type": "address"
        }
      ],
      "name": "isTrustedForwarder",
      "outputs": [
        {
          "internalType": "bool",
          "name": "",
          "type": "bool"
        }
      ],
      "stateMutability": "view",
      "type": "function"
    },
    {
      "inputs": [
        {
          "internalType": "address",
          "name": "token",
          "type": "address"
        },
        {
          "internalType": "bytes32",
          "name": "root",
          "type": "bytes32"
        },
        {
          "internalType": "address",
          "name": "owner",
          "type": "address"
        },
        {
          "internalType": "address",
          "name": "vestingStrategy",
          "type": "address"
        },
        {
          "internalType": "uint256",
          "name": "initializationDeadline",
          "type": "uint256"
        }
      ],
      "name": "predictVestingAirdropAddress",
      "outputs": [
        {
          "internalType": "address",
          "name": "predictedAddress",
          "type": "address"
        }
      ],
      "stateMutability": "view",
      "type": "function"
    },
    {
      "inputs": [
        {
          "internalType": "bytes32",
          "name": "role",
          "type": "bytes32"
        },
        {
          "internalType": "address",
          "name": "callerConfirmation",
          "type": "address"
        }
      ],
      "name": "renounceRole",
      "outputs": [],
      "stateMutability": "nonpayable",
      "type": "function"
    },
    {
      "inputs": [
        {
          "internalType": "bytes32",
          "name": "role",
          "type": "bytes32"
        },
        {
          "internalType": "address",
          "name": "account",
          "type": "address"
        }
      ],
      "name": "revokeRole",
      "outputs": [],
      "stateMutability": "nonpayable",
      "type": "function"
    },
    {
      "inputs": [
        {
          "internalType": "bytes4",
          "name": "interfaceId",
          "type": "bytes4"
        }
      ],
      "name": "supportsInterface",
      "outputs": [
        {
          "internalType": "bool",
          "name": "",
          "type": "bool"
        }
      ],
      "stateMutability": "view",
      "type": "function"
    },
    {
      "inputs": [],
      "name": "trustedForwarder",
      "outputs": [
        {
          "internalType": "address",
          "name": "",
          "type": "address"
        }
      ],
      "stateMutability": "view",
      "type": "function"
    },
    {
      "inputs": [],
      "name": "typeId",
      "outputs": [
        {
          "internalType": "bytes32",
          "name": "",
          "type": "bytes32"
        }
      ],
      "stateMutability": "view",
      "type": "function"
    },
    {
      "inputs": [
        {
          "internalType": "address",
          "name": "_newImplementation",
          "type": "address"
        }
      ],
      "name": "updateImplementation",
      "outputs": [],
      "stateMutability": "nonpayable",
      "type": "function"
    }
  ],
  "bytecode": "0x60a03461011757601f61376a38819003918201601f19168301916001600160401b0383118484101761011b5780849260209460405283398101031261011757516001600160a01b0381168103610117576080525f51602061374a5f395f51905f525460ff8160401c16610108576002600160401b03196001600160401b038216016100b2575b60405161361a9081610130823960805181818161028b015281816102db01528181610417015261120b0152f35b6001600160401b0319166001600160401b039081175f51602061374a5f395f51905f52556040519081527fc7f505b2f371ae2175ee4913f4499e1f2633a7b5936321eed1cdaeb6115181d290602090a15f610085565b63f92ee8a960e01b5f5260045ffd5b5f80fd5b634e487b7160e01b5f52604160045260245ffdfe6080806040526004361015610012575f80fd5b5f905f3560e01c90816301ffc9a714610ba257508063025b22bc14610a21578063150117bd14610a04578063229fff60146109c7578063248a9ca3146109885780632f2ff15d1461093e57806336568abe146108e857806342ceff9a146105a0578063434b6d0b14610577578063485cc9551461030f578063572b6c05146102ba5780637da0a877146102755780638f940f631461023a57806391d14854146101e4578063a217fddf146101c8578063d547741f146101745763e2e5b27e146100d9575f80fd5b3461017157602061015f61013e6101306100f236610c3b565b9060409694939592965196610121886101138585858c8b3060208801610cdb565b03601f1981018a5289610c8d565b604051968795308c8801610cdb565b03601f198101835282610c8d565b6040516104e961015086820183610c8d565b8082526112c3868301396111ca565b6040516001600160a01b039091168152f35b80fd5b5034610171576040366003190112610171576101c4600435610194610c25565b906101bf6101ba825f525f5160206135a55f395f51905f52602052600160405f20015490565b610da4565b6110e1565b5080f35b5034610171578060031936011261017157602090604051908152f35b5034610171576040366003190112610171576040610200610c25565b9160043581525f5160206135a55f395f51905f52602052209060018060a01b03165f52602052602060ff60405f2054166040519015158152f35b503461017157806003193601126101715760206040517f0bd9e5f47eeae94edb650a22981c263f64cac79e72c54391efedba7716ed94f48152f35b50346101715780600319360112610171576040517f00000000000000000000000000000000000000000000000000000000000000006001600160a01b03168152602090f35b50346101715760203660031901126101715760206102d6610c0f565b6040517f00000000000000000000000000000000000000000000000000000000000000006001600160a01b039081169216919091148152f35b503461017157604036600319011261017157610329610c0f565b610331610c25565b905f5160206135c55f395f51905f52549160ff8360401c16159267ffffffffffffffff81168015908161056f575b6001149081610565575b15908161055c575b5061054d5767ffffffffffffffff1981166001175f5160206135c55f395f51905f525583610521575b5060ff5f5160206135c55f395f51905f525460401c161561051257806103c26103d292610e00565b506103cc81610eaf565b50610f79565b5082546001600160a01b0319166001600160a01b0391909116178255604051611dd98082019067ffffffffffffffff8211838310176104fe5760209183916117ac83397f00000000000000000000000000000000000000000000000000000000000000006001600160a01b0316815203019083f080156104f357600280546001600160a01b0319166001600160a01b039290921691821790556040519190837faa3f731066a578e5f39b4215468d826cdd15373cbc0dfc9cb9bdc649718ef7da8180a361049d575080f35b60207fc7f505b2f371ae2175ee4913f4499e1f2633a7b5936321eed1cdaeb6115181d29168ff0000000000000000195f5160206135c55f395f51905f5254165f5160206135c55f395f51905f525560018152a180f35b6040513d84823e3d90fd5b634e487b7160e01b85526041600452602485fd5b631afcd79f60e31b8452600484fd5b68ffffffffffffffffff191668010000000000000001175f5160206135c55f395f51905f52555f61039a565b63f92ee8a960e01b8552600485fd5b9050155f610371565b303b159150610369565b85915061035f565b50346101715780600319360112610171576002546040516001600160a01b039091168152602090f35b50346107fb576105ee6101306105b536610c3b565b906105c4969493959296610d16565b604051966105de886101138585858c8b3060208801610cdb565b6040519687953060208801610cdb565b604051906104e96106026020820184610c8d565b8083526112c360208401396106188382846111ca565b610620610d16565b6001600160a01b03165f8181526001602052604090205490939060ff166108d5579061064e61065492611275565b9261118a565b8051156108c6576020815191015ff53d15198115166107f0576001600160a01b03169081156108b75781036108a857805f52600160205260405f20600160ff198254161790556004602060018060a01b035f5416604051928380926398468e5160e01b82525afa9081156107f0575f91610866575b506001600160a01b0316801515806107ff575b6107ab575b506001600160a01b036106f2611208565b169060405191817f7971f6f2112b1057fefe032b681021eda450dfa7c4510865b88b90ede99b4f5b8580a360035468010000000000000000811015610797576001810180600355811015610783576003602094527fc2575a0e9e593c00f959f8c92f12db2869c3395a3b0502d05e2516446f71f85b01816bffffffffffffffffffffffff60a01b8254161790558152f35b634e487b7160e01b84526032600452602484fd5b634e487b7160e01b84526041600452602484fd5b803b156107fb575f8091602460405180948193631105e3d560e31b83528760048401525af180156107f057156106e1576107e89192505f90610c8d565b5f905f6106e1565b6040513d5f823e3d90fd5b5f80fd5b506040516301ffc9a760e01b815263118f21f760e31b6004820152602081602481855afa9081156107f0575f91610837575b506106dc565b610859915060203d60201161085f575b6108518183610c8d565b810190610cc3565b5f610831565b503d610847565b90506020813d6020116108a0575b8161088160209383610c8d565b810103126107fb57516001600160a01b03811681036107fb575f6106c9565b3d9150610874565b6335279f5d60e21b5f5260045ffd5b63b06ebf3d60e01b5f5260045ffd5b631328927760e21b5f5260045ffd5b8363d0dc594960e01b5f5260045260245ffd5b346107fb5760403660031901126107fb57610901610c25565b6001600160a01b03610911611208565b166001600160a01b0382160361092f5761092d906004356110e1565b005b63334bd91960e11b5f5260045ffd5b346107fb5760403660031901126107fb5761092d60043561095d610c25565b906109836101ba825f525f5160206135a55f395f51905f52602052600160405f20015490565b611043565b346107fb5760203660031901126107fb5760206109bf6004355f525f5160206135a55f395f51905f52602052600160405f20015490565b604051908152f35b346107fb5760203660031901126107fb576001600160a01b036109e8610c0f565b165f526001602052602060ff60405f2054166040519015158152f35b346107fb575f3660031901126107fb576020600354604051908152f35b346107fb5760203660031901126107fb57610a3a610c0f565b610a42611208565b6001600160a01b0381165f9081527fb121b6c2cfb68d56d259fa39abd93d7a85e352365bbcbddf27041e20d031c3d3602052604090205460ff1615610b5e57506001600160a01b03168015610b4f576002546001600160a01b03811690828214610b40576040516301ffc9a760e01b815263157c401160e31b6004820152602081602481875afa9081156107f0575f91610b21575b5015610b12576001600160a01b03191682176002557faa3f731066a578e5f39b4215468d826cdd15373cbc0dfc9cb9bdc649718ef7da5f80a3005b63340aafcd60e11b5f5260045ffd5b610b3a915060203d60201161085f576108518183610c8d565b84610ad7565b63367558c360e01b5f5260045ffd5b63e6c4247b60e01b5f5260045ffd5b63e2517d3f60e01b5f9081526001600160a01b03919091166004527fecaefa0171c08a6ded02d98b9432940d3852ef2c7f5007661eb8de37c5a1adc5602452604490fd5b346107fb5760203660031901126107fb576004359063ffffffff60e01b82168092036107fb57602091637b309ba960e11b8114908115610be4575b5015158152f35b637965db0b60e01b811491508115610bfe575b5083610bdd565b6301ffc9a760e01b14905083610bf7565b600435906001600160a01b03821682036107fb57565b602435906001600160a01b03821682036107fb57565b60a09060031901126107fb576004356001600160a01b03811681036107fb5790602435906044356001600160a01b03811681036107fb57906064356001600160a01b03811681036107fb579060843590565b90601f8019910116810190811067ffffffffffffffff821117610caf57604052565b634e487b7160e01b5f52604160045260245ffd5b908160209103126107fb575180151581036107fb5790565b6001600160a01b039182168152918116602083015260408201929092529181166060830152909116608082015260a081019190915260c00190565b610d1e611208565b6001600160a01b0381165f9081527f8f7e9a8734279607aeaac474f24949ddc99eae25c0da72edcf5ad21022be2c9e602052604090205460ff1615610d605750565b63e2517d3f60e01b5f9081526001600160a01b03919091166004527ffc425f2263d0df187444b70e47283d622c70181c5baebb1306a01edba1ce184c602452604490fd5b610dac611208565b815f525f5160206135a55f395f51905f5260205260405f2060018060a01b0382165f5260205260ff60405f20541615610de3575050565b63e2517d3f60e01b5f5260018060a01b031660045260245260445ffd5b6001600160a01b0381165f9081527fb7db2dd08fcb62d0c9e08c51941cae53c267786a0b75803fb7960902fc8ef97d602052604090205460ff16610eaa576001600160a01b038181165f9081527fb7db2dd08fcb62d0c9e08c51941cae53c267786a0b75803fb7960902fc8ef97d60205260409020805460ff19166001179055610e88611208565b16906001600160a01b03165f5f5160206135855f395f51905f528180a4600190565b505f90565b6001600160a01b0381165f9081527fb121b6c2cfb68d56d259fa39abd93d7a85e352365bbcbddf27041e20d031c3d3602052604090205460ff16610eaa576001600160a01b038181165f9081527fb121b6c2cfb68d56d259fa39abd93d7a85e352365bbcbddf27041e20d031c3d360205260409020805460ff19166001179055610f37611208565b16906001600160a01b03167fecaefa0171c08a6ded02d98b9432940d3852ef2c7f5007661eb8de37c5a1adc55f5160206135855f395f51905f525f80a4600190565b6001600160a01b0381165f9081527f8f7e9a8734279607aeaac474f24949ddc99eae25c0da72edcf5ad21022be2c9e602052604090205460ff16610eaa576001600160a01b038181165f9081527f8f7e9a8734279607aeaac474f24949ddc99eae25c0da72edcf5ad21022be2c9e60205260409020805460ff19166001179055611001611208565b16906001600160a01b03167ffc425f2263d0df187444b70e47283d622c70181c5baebb1306a01edba1ce184c5f5160206135855f395f51905f525f80a4600190565b5f8181525f5160206135a55f395f51905f52602090815260408083206001600160a01b038616845290915290205460ff166110db575f8181525f5160206135a55f395f51905f52602090815260408083206001600160a01b0386811685529252909120805460ff191660011790556110b9611208565b16916001600160a01b0316905f5160206135855f395f51905f525f80a4600190565b50505f90565b5f8181525f5160206135a55f395f51905f52602090815260408083206001600160a01b038616845290915290205460ff16156110db575f8181525f5160206135a55f395f51905f52602090815260408083206001600160a01b0386811685529252909120805460ff19169055611155611208565b16916001600160a01b0316907ff6391f5c32d9c69d2a47ea670b442974b53935d1edc7fd64eb21e047a839171b5f80a4600190565b6111c8906020808095946040519684889551918291018487015e8401908282015f8152815193849201905e01015f815203601f198101845283610c8d565b565b906111da9061064e600b94611275565b602081519101209060405191604083015260208201523081520160ff8153605590206001600160a01b031690565b337f00000000000000000000000000000000000000000000000000000000000000006001600160a01b0316148061126a575b15611266576013193601368111611252573560601c90565b634e487b7160e01b5f52601160045260245ffd5b3390565b50601436101561123a565b6040516112bc6080826020808201953087526040808401528051918291826060860152018484015e5f838284010152601f801991011681010301601f198101835282610c8d565b5190209056fe608060405234610087576104e9388190036080601f8201601f19168101906001600160401b0382119082101761008b5760c0928291604052608039126100875761007861004a6100c2565b61005460a06100d8565b60c05161006160e06100d8565b9061006d6101006100d8565b92610120519461010f565b60405161017290816103578239f35b5f80fd5b634e487b7160e01b5f52604160045260245ffd5b601f909101601f19168101906001600160401b0382119082101761008b57604052565b608051906001600160a01b038216820361008757565b51906001600160a01b038216820361008757565b90816020910312610087575180151581036100875790565b6040513d5f823e3d90fd5b9193916001600160a01b03811680156101fb576040516301ffc9a760e01b8152637b309ba960e11b600482015290602090829060249082905afa908115610239575f9161020a575b50156101fb575f5160206104c95f395f51905f5280546001600160a01b0319166001600160a01b039092169190911790556101f9946101f4926101e6919061019d61023e565b6040516338c38a3d60e21b60208201526001600160a01b03958616602482015260448101989098529584166064880152909216608486015260a4850191909152839060c4820190565b03601f19810184528361009f565b6102da565b565b635c7bfbe960e01b5f5260045ffd5b61022c915060203d602011610232575b610224818361009f565b8101906100ec565b5f610157565b503d61021a565b610104565b5f5160206104c95f395f51905f525460405163434b6d0b60e01b815290602090829060049082906001600160a01b03165afa908115610239575f916102a0575b506001600160a01b038116156102915790565b63489aaf0d60e11b5f5260045ffd5b90506020813d6020116102d2575b816102bb6020938361009f565b81010312610087576102cc906100d8565b5f61027e565b3d91506102ae565b6001600160a01b0381161561034757815f929160208493519201905af43d1561033f573d906001600160401b03821161008b5760405191610325601f8201601f19166020018461009f565b82523d5f602084013e5b156103375750565b602081519101fd5b60609061032f565b63ee0a129760e01b5f5260045ffdfe608060405236156100a8577f7b8e0b8c3f6d4e8a9c1d2e3f4a5b6c7d8e9f0a1b2c3d4e5f6a7b8c9d0e1f2a3b5460209060809060049082906001600160a01b031663434b6d0b60e01b82525afa80156100a3575f90610076575b6001600160a01b0381166100b75763489aaf0d60e11b5f5260045ffd5b5060203d60201161009c575b8061008f610097926100d4565b60800161010b565b610059565b503d610082565b610131565b635d82995b60e01b5f5260045ffd5b5f8091368280378136915af43d5f803e156100d0573d5ff35b3d5ffd5b601f80199101166080016080811067ffffffffffffffff8211176100f757604052565b634e487b7160e01b5f52604160045260245ffd5b602090607f19011261012d576080516001600160a01b038116810361012d5790565b5f80fd5b6040513d5f823e3d90fdfea2646970667358221220df67066518b5ed4c376e2ba30ebcd824b884cd85a4c3dd2ff4444d0c34d1421164736f6c634300081c00337b8e0b8c3f6d4e8a9c1d2e3f4a5b6c7d8e9f0a1b2c3d4e5f6a7b8c9d0e1f2a3b60a03461008857601f611dd938819003918201601f19168301916001600160401b0383118484101761008c5780849260209460405283398101031261008857516001600160a01b03811681036100885760805261005a6100a0565b6100626100a0565b604051611c8290816101378239608051818181610941015281816109f701526117aa0152f35b5f80fd5b634e487b7160e01b5f52604160045260245ffd5b5f516020611db95f395f51905f525460ff8160401c16610127576002600160401b03196001600160401b038216016100d55750565b6001600160401b0319166001600160401b039081175f516020611db95f395f51905f52556040519081527fc7f505b2f371ae2175ee4913f4499e1f2633a7b5936321eed1cdaeb6115181d290602090a1565b63f92ee8a960e01b5f5260045ffdfe60806040526004361015610011575f80fd5b5f3560e01c806310639fef14611206578063222abc11146111de5780632eb4a7ab146111c15780633da082a0146111a45780633ecfea49146110c357806341162b7514610f82578063429c6e5b14610f5c57806349df728c14610e735780634be7adee14610a5557806352ae2c2014610a2b578063572b6c05146109d7578063715018a6146109705780637da0a8771461092c5780638da5cb5b146108f8578063ae0b51df1461063f578063bd3f22b214610613578063cfdbf254146105f8578063e30e28f414610223578063f2fde38b146101f8578063f364c90c1461015e578063f567fa9d146101365763fc0c546a1461010b575f80fd5b34610132575f366003190112610132575f546040516001600160a01b039091168152602090f35b5f80fd5b34610132575f366003190112610132576003546040516001600160a01b039091168152602090f35b3461013257604036600319011261013257600254604051633cd9324360e21b81526004803590820152602480359082015290602090829060449082906001600160a01b03165afa80156101ed576020915f916101c0575b506040519015158152f35b6101e09150823d84116101e6575b6101d881836113a1565b8101906113c3565b826101b5565b503d6101ce565b6040513d5f823e3d90fd5b346101325760203660031901126101325761022161021461131a565b61021c6116c6565b611533565b005b346101325760a03660031901126101325761023c61131a565b6044356024356001600160a01b0382168203610132576064356001600160a01b038116939084900361013257608435915f516020611c2d5f395f51905f52549360ff8560401c16159467ffffffffffffffff8116801590816105f0575b60011490816105e6575b1590816105dd575b506105ce5767ffffffffffffffff1981166001175f516020611c2d5f395f51905f5255856105a2575b508515610593574284111561058457604051637c13428d60e11b81526020816004818a5afa5f9181610563575b506103195786632a4aa22360e11b5f5260045260245ffd5b9593949515610550576040516103c18082019082821067ffffffffffffffff83111761053c57602091839161182c83393081520301905ff080156101ed576001600160a01b031692610369611800565b6001600160a01b031690811561052d57821561051e57831561050f576040516318160ddd60e01b8152602081600481865afa90816104e0575b506103b657630f58058360e11b5f5260045ffd5b604051633cd9324360e21b81525f600482018190526024820152602081604481885afa90816104c3575b506103f457632b58d96960e01b5f5260045ffd5b61040890610400611800565b61021c611800565b6001600160601b0360a01b5f5416175f556001556001600160601b0360a01b6002541617600255610437611800565b61043f611800565b60015f516020611c0d5f395f51905f52556001600160601b0360a01b600354161760035560045561046c57005b68ff0000000000000000195f516020611c2d5f395f51905f5254165f516020611c2d5f395f51905f52557fc7f505b2f371ae2175ee4913f4499e1f2633a7b5936321eed1cdaeb6115181d2602060405160018152a1005b6104db9060203d6020116101e6576101d881836113a1565b6103e0565b6020813d602011610507575b816104f9602093836113a1565b8101031261013257516103a2565b3d91506104ec565b632b58d96960e01b5f5260045ffd5b639dd854d360e01b5f5260045ffd5b630f58058360e11b5f5260045ffd5b634e487b7160e01b5f52604160045260245ffd5b83632a4aa22360e11b5f5260045260245ffd5b61057d91925060203d6020116101e6576101d881836113a1565b9088610301565b6310b2668560e11b5f5260045ffd5b6385d923df60e01b5f5260045ffd5b68ffffffffffffffffff191668010000000000000001175f516020611c2d5f395f51905f5255866102d4565b63f92ee8a960e01b5f5260045ffd5b905015886102ab565b303b1591506102a3565b879150610299565b34610132575f36600319011261013257602060405160648152f35b34610132576020366003190112610132576004355f526005602052602060405f20541515604051908152f35b346101325761064d366112e3565b92906106576115a4565b815f52600560205260405f2054156108e9576106d893825f52600560205260405f205491602061068685611468565b61068e6117a7565b6003546040516307a297ab60e01b81526001600160a01b038084166004830152602482018b9052604482019890985260648101939093529198909589921690829081906084820190565b03915afa9586156101ed575f966108b5575b5085156108a65760018060a01b036002541691604051633cd9324360e21b8152856004820152866024820152602081604481875afa9081156101ed575f91610887575b506108785761073e918685876115dc565b1561086957604051635ea05ef360e11b8152600481018490526024810186905260448101859052602081606481855afa9081156101ed575f9161084a575b501561083b57803b156101325760405163762ba3ff60e11b8152600481018490526024810186905260448101949094525f908490606490829084905af19182156101ed577f987d620f307ff6b94d58743cb7a7509f24071586a77759b77c2d4e29f75a2f9a9360409361082b575b505f5461080390869084906001600160a01b0316611719565b825194855260208501526001600160a01b031692a260015f516020611c0d5f395f51905f5255005b5f610835916113a1565b856107ea565b63843ce46b60e01b5f5260045ffd5b610863915060203d6020116101e6576101d881836113a1565b8661077c565b63582f497d60e11b5f5260045ffd5b63b708ca1560e01b5f5260045ffd5b6108a0915060203d6020116101e6576101d881836113a1565b8861072d565b63723a162160e11b5f5260045ffd5b9095506020813d6020116108e1575b816108d1602093836113a1565b81010312610132575194866106ea565b3d91506108c4565b63d2e8cc1760e01b5f5260045ffd5b34610132575f366003190112610132575f516020611bed5f395f51905f52546040516001600160a01b039091168152602090f35b34610132575f366003190112610132576040517f00000000000000000000000000000000000000000000000000000000000000006001600160a01b03168152602090f35b34610132575f366003190112610132576109886116c6565b5f516020611bed5f395f51905f5280546001600160a01b031981169091555f906001600160a01b03167f8be0079c531659141344cd1fd0a4f28419497f9722a3daafe3b4186f6b6457e08280a3005b346101325760203660031901126101325760206109f261131a565b6040517f00000000000000000000000000000000000000000000000000000000000000006001600160a01b039081169216919091148152f35b34610132576020366003190112610132576004355f526005602052602060405f2054604051908152f35b3461013257610a6336611330565b9391610a709591956115a4565b60648311610e6457808314801590610e5a575b610d5d57610a8f6117a7565b93610a99846114ed565b6003546001600160a01b03165f5b868110610d8157505080518381871491821592610d76575b50508015610d6c575b610d5d579591905f96610ada866114ed565b985f945b878610610ba65750505050505083610b04575b60015f516020611c0d5f395f51905f5255005b610b3391610b1c858560018060a01b035f5416611719565b604051948552606060208601526060850191611444565b8281036040840152602080855192838152019401905f5b818110610b90575050506001600160a01b0316917fb9df54cb8716695fe6cd84e5e4b88eca0d9c862970bcd45797aabb77d71b48ee919081900390a28080808080610af1565b8251865260209586019590920191600101610b4a565b90919293949998610bb88b89896113db565b359a610bc4818661151f565b51809c610bd2838a8a6113db565b35610bde8487896113ff565b9315610d4e5760018060a01b036002541693604051633cd9324360e21b8152846004820152836024820152602081604481895afa9081156101ed575f91610d30575b5061087857610c32918f8490866115dc565b1561086957610c6c8f826020916040519384928392635ea05ef360e11b845288600485016040919493926060820195825260208201520152565b0381875afa9081156101ed575f91610d12575b501561083b57823b156101325760405163762ba3ff60e11b81526004810192909252602482018f90526044820152905f908290606490829084905af180156101ed57610d02575b508b8201809211610cee576001919b610cdf828d61151f565b52019493929190999899610ade565b634e487b7160e01b5f52601160045260245ffd5b5f610d0c916113a1565b8c610cc6565b610d2a915060203d81116101e6576101d881836113a1565b5f610c7f565b610d48915060203d81116101e6576101d881836113a1565b5f610c20565b6360640efd60e11b5f5260045ffd5b632c635df560e11b5f5260045ffd5b5086831415610ac8565b14159050838a610abf565b610d8c8188886113db565b3590815f52600560205260405f2054156108e9576020610dad8288886113db565b35835f52600582528a610e01610dc760405f205496611468565b60405196879485946307a297ab60e01b86526004860190949392606092608083019660018060a01b03168352602083015260408201520152565b0381865afa80156101ed575f90610e28575b60019250610e21828661151f565b5201610aa7565b506020823d8211610e52575b81610e41602093836113a1565b810103126101325760019151610e13565b3d9150610e34565b5084811415610a83565b632a8677b560e21b5f5260045ffd5b3461013257602036600319011261013257610e8c61131a565b610e946116c6565b6001600160a01b038116908115610f4d575f546040516370a0823160e01b815230600482015291906001600160a01b0316602083602481845afa9283156101ed575f93610f15575b5091610f0c816020937f6352c5382c4a4578e712449ca65e83cdb392d045dfcf1cad9615189db2da244b95611719565b604051908152a2005b9250906020833d602011610f45575b81610f31602093836113a1565b810103126101325791519190610f0c610edc565b3d9150610f24565b634261081360e11b5f5260045ffd5b34610132576020366003190112610132576020610f7a600435611468565b604051908152f35b3461013257610f9036611330565b610f9e9593959492946115a4565b60648311610e64578483148015906110b9575b610d5d57610fbd6117a7565b9160045442116110aa575f5b84811061103f57505050611029907f8f59e3de0f866848efefecafdbbf1c97262b4187d7355cb68c9c6e50b6ead9a994611010604051958695604087526040870191611444565b84810360208601526001600160a01b0390921696611444565b0390a260015f516020611c0d5f395f51905f5255005b61104a8186886113db565b359061105781898b6113db565b35825f52600560205260405f205461109b57611080906110788387876113ff565b9188866115dc565b15610869576001915f5260056020524260405f205501610fc9565b638ef519d560e01b5f5260045ffd5b63df370ae560e01b5f5260045ffd5b5080851415610fb1565b34610132576020366003190112610132576110dc61131a565b6110e46116c6565b6001600160a01b0316801561059357604051637c13428d60e11b8152602081600481855afa5f9181611183575b506111295750632a4aa22360e11b5f5260045260245ffd5b1561117157600380546001600160a01b0319811683179091556001600160a01b03167fc831910db935648f19a9acfe07a53355b2d00e33523edf8b0b80aa48f6f5dca85f80a3005b632a4aa22360e11b5f5260045260245ffd5b61119d91925060203d6020116101e6576101d881836113a1565b9083611111565b34610132575f366003190112610132576020600454604051908152f35b34610132575f366003190112610132576020600154604051908152f35b34610132575f366003190112610132576002546040516001600160a01b039091168152602090f35b3461013257611214366112e3565b61121c6115a4565b835f52600560205260405f205461109b5760045442116110aa5761124991836112436117a7565b866115dc565b15610869575f82815260056020526040908190204290557ffaf76b5ef3ee6a1b42c79e4744b2596312a788e7cbbaee17f2db55bfc304f7de916001600160a01b036112926117a7565b169382519182526020820152a260015f516020611c0d5f395f51905f5255005b9181601f840112156101325782359167ffffffffffffffff8311610132576020808501948460051b01011161013257565b60606003198201126101325760043591602435916044359067ffffffffffffffff821161013257611316916004016112b2565b9091565b600435906001600160a01b038216820361013257565b60606003198201126101325760043567ffffffffffffffff8111610132578161135b916004016112b2565b9290929160243567ffffffffffffffff8111610132578161137e916004016112b2565b929092916044359067ffffffffffffffff821161013257611316916004016112b2565b90601f8019910116810190811067ffffffffffffffff82111761053c57604052565b90816020910312610132575180151581036101325790565b91908110156113eb5760051b0190565b634e487b7160e01b5f52603260045260245ffd5b91908110156113eb5760051b81013590601e198136030182121561013257019081359167ffffffffffffffff8311610132576020018260051b36038113610132579190565b81835290916001600160fb1b0383116101325760209260051b809284830137010190565b60025460405163429c6e5b60e01b81526004810192909252602090829060249082906001600160a01b03165afa9081156101ed575f916114a6575090565b90506020813d6020116114cd575b816114c1602093836113a1565b81010312610132575190565b3d91506114b4565b67ffffffffffffffff811161053c5760051b60200190565b906114f7826114d5565b61150460405191826113a1565b8281528092611515601f19916114d5565b0190602036910137565b80518210156113eb5760209160051b010190565b6001600160a01b03168015611591575f516020611bed5f395f51905f5280546001600160a01b0319811683179091556001600160a01b03167f8be0079c531659141344cd1fd0a4f28419497f9722a3daafe3b4186f6b6457e05f80a3565b631e4fbdf760e01b5f525f60045260245ffd5b60025f516020611c0d5f395f51905f5254146115cd5760025f516020611c0d5f395f51905f5255565b633ee5aeb560e01b5f5260045ffd5b9194929394604051916020830193845260018060a01b0316604083015260608201526060815261160d6080826113a1565b51902060405160208101918252602081526116296040826113a1565b51902060015492611639856114d5565b9461164760405196876113a1565b808652602086019060051b82019136831161013257905b8282106116b657505050905f915b84518310156116ae5761167f838661151f565b51908181101561169d575f52602052600160405f205b92019161166c565b905f52602052600160405f20611695565b915092501490565b813581526020918201910161165e565b5f516020611bed5f395f51905f52546001600160a01b03908116906116e96117a7565b16036116f157565b6116f96117a7565b63118cdaa760e01b5f9081526001600160a01b0391909116600452602490fd5b60405163a9059cbb60e01b60208281019182526001600160a01b03909416602483015260448083019590955293815290925f916117576064826113a1565b519082855af1156101ed575f513d61179e57506001600160a01b0381163b155b61177e5750565b635274afe760e01b5f9081526001600160a01b0391909116600452602490fd5b60011415611777565b337f00000000000000000000000000000000000000000000000000000000000000006001600160a01b031614806117f5575b156117f1576013193601368111610cee573560601c90565b3390565b5060143610156117d9565b60ff5f516020611c2d5f395f51905f525460401c161561181c57565b631afcd79f60e31b5f5260045ffdfe60803460b857601f6103c138819003918201601f19168301916001600160401b0383118484101760bc5780849260209460405283398101031260b857516001600160a01b0381169081900360b857801560a5575f80546001600160a01b031981168317825560405192916001600160a01b03909116907f8be0079c531659141344cd1fd0a4f28419497f9722a3daafe3b4186f6b6457e09080a36102f090816100d18239f35b631e4fbdf760e01b5f525f60045260245ffd5b5f80fd5b634e487b7160e01b5f52604160045260245ffdfe6080806040526004361015610012575f80fd5b5f3560e01c908163429c6e5b1461023357508063715018a6146101dc5780638da5cb5b146101b5578063bd40bde614610186578063ec5747fe14610125578063f2fde38b1461009c5763f364c90c14610069575f80fd5b34610098576040366003190112610098576004355f526001602052602060243560405f20541015604051908152f35b5f80fd5b34610098576020366003190112610098576004356001600160a01b03811690819003610098576100ca610294565b8015610112575f80546001600160a01b03198116831782556001600160a01b0316907f8be0079c531659141344cd1fd0a4f28419497f9722a3daafe3b4186f6b6457e09080a3005b631e4fbdf760e01b5f525f60045260245ffd5b346100985760407f08401774913e94f43659333293c99fdfdea868c488d679967e054abc8b5ae83461015636610259565b610161949294610294565b845f526001602052825f20610177838254610273565b905582519182526020820152a2005b346100985760206101ab61019936610259565b92915f526001845260405f2054610273565b1115604051908152f35b34610098575f366003190112610098575f546040516001600160a01b039091168152602090f35b34610098575f366003190112610098576101f4610294565b5f80546001600160a01b0319811682556001600160a01b03167f8be0079c531659141344cd1fd0a4f28419497f9722a3daafe3b4186f6b6457e08280a3005b34610098576020366003190112610098576020906004355f526001825260405f20548152f35b606090600319011261009857600435906024359060443590565b9190820180921161028057565b634e487b7160e01b5f52601160045260245ffd5b5f546001600160a01b031633036102a757565b63118cdaa760e01b5f523360045260245ffdfea26469706673582212207936688afcf9217a33abcbbb01acc332c7f531e64aed74d19fc8d85dafc45e5864736f6c634300081c00339016d09d72d40fdae2fd8ceac6b6234c7706214fd39c1cd1e609a0528c1993009b779b17422d0df92223018b32b4d1fa46e071723d6817e2486d003becc55f00f0c57e16840df040f15088dc2f81fe391c3923bec73e23a9662efc9c229c6a00a2646970667358221220b5a1d8c013d6d933c1707ac8d61a069209bae3060ccd2cb63babad1eec45d4c564736f6c634300081c0033f0c57e16840df040f15088dc2f81fe391c3923bec73e23a9662efc9c229c6a002f8788117e7eff1d82e926ec794901d17c78024a50270940304540a733656f0d02dd7bc7dec4dceedda775e58dd541e08a116c6c53815c0bd028192f7b626800f0c57e16840df040f15088dc2f81fe391c3923bec73e23a9662efc9c229c6a00a2646970667358221220274cf8ef3e0a650312bd2fc51af81a4ba3fc441c07a2ea6b961ccef2ad3cfdf164736f6c634300081c0033f0c57e16840df040f15088dc2f81fe391c3923bec73e23a9662efc9c229c6a00",
  "linkReferences": {},
  "deployedLinkReferences": {}
}