{
  "_format": "hh-sol-artifact-1",
  "contractName": "ATKRoles",
  "sourceName": "contracts/assets/ATKRoles.sol",
  "abi": [
    {
      "inputs": [],
      "name": "CUSTODIAN_ROLE",
      "outputs": [
        {
          "internalType": "bytes32",
          "name": "",
          "type": "bytes32"
        }
      ],
      "stateMutability": "view",
      "type": "function"
    },
    {
      "inputs": [],
      "name": "DEFAULT_ADMIN_ROLE",
      "outputs": [
        {
          "internalType": "bytes32",
          "name": "",
          "type": "bytes32"
        }
      ],
      "stateMutability": "view",
      "type": "function"
    },
    {
      "inputs": [],
      "name": "EMERGENCY_ROLE",
      "outputs": [
        {
          "internalType": "bytes32",
          "name": "",
          "type": "bytes32"
        }
      ],
      "stateMutability": "view",
      "type": "function"
    },
    {
      "inputs": [],
      "name": "SUPPLY_MANAGEMENT_ROLE",
      "outputs": [
        {
          "internalType": "bytes32",
          "name": "",
          "type": "bytes32"
        }
      ],
      "stateMutability": "view",
      "type": "function"
    },
    {
      "inputs": [],
      "name": "TOKEN_GOVERNANCE_ROLE",
      "outputs": [
        {
          "internalType": "bytes32",
          "name": "",
          "type": "bytes32"
        }
      ],
      "stateMutability": "view",
      "type": "function"
    }
  ],
  "bytecode": "0x60808060405234601957610174908161001e823930815050f35b5f80fdfe6080806040526004361015610012575f80fd5b5f3560e01c90816320df43591461010b575080639933de0f146100d6578063a217fddf146100c1578063b4ccc7121461008c5763c79445d014610053575f80fd5b5f3660031901126100885760206040517fe28434228950b641dbbc0178de89daa359a87c6ee0d8399aeace52a98fe902b98152f35b5f80fd5b5f3660031901126100885760206040517fb56f7a452f9fa4c6b1640d0352eff0d678b9d7c7618b4f73815657069f341e668152f35b5f3660031901126100885760206040515f8152f35b5f3660031901126100885760206040517f47b7a6ef32f924153c4c0c2f871f8856bd114b4903c167827ef0f0694c583e278152f35b5f36600319011261008857807fbf233dd2aafeb4d50879c4aa5c81e96d92f6e6945c906a58f9f2d1c1631b4b2660209252f3fea26469706673582212205d99c7e05453612ee080a57c06932c60ad10d226fcc3972104ada4756e4c688464736f6c634300081c0033",
  "linkReferences": {},
  "deployedLinkReferences": {}
}