{"abi":[{"type":"constructor","inputs":[{"name":"tokenAddress","type":"address","internalType":"address"},{"name":"initialOwner","type":"address","internalType":"address"},{"name":"startDate_","type":"uint256","internalType":"uint256"},{"name":"endDate_","type":"uint256","internalType":"uint256"},{"name":"rate_","type":"uint256","internalType":"uint256"},{"name":"interval_","type":"uint256","internalType":"uint256"},{"name":"forwarder","type":"address","internalType":"address"}],"stateMutability":"nonpayable"},{"type":"function","name":"DEFAULT_ADMIN_ROLE","inputs":[],"outputs":[{"name":"","type":"bytes32","internalType":"bytes32"}],"stateMutability":"view"},{"type":"function","name":"RATE_BASIS_POINTS","inputs":[],"outputs":[{"name":"","type":"uint256","internalType":"uint256"}],"stateMutability":"view"},{"type":"function","name":"allPeriods","inputs":[],"outputs":[{"name":"","type":"uint256[]","internalType":"uint256[]"}],"stateMutability":"view"},{"type":"function","name":"calculateAccruedYield","inputs":[],"outputs":[{"name":"","type":"uint256","internalType":"uint256"}],"stateMutability":"view"},{"type":"function","name":"calculateAccruedYield","inputs":[{"name":"holder","type":"address","internalType":"address"}],"outputs":[{"name":"","type":"uint256","internalType":"uint256"}],"stateMutability":"view"},{"type":"function","name":"claimYield","inputs":[],"outputs":[],"stateMutability":"nonpayable"},{"type":"function","name":"currentPeriod","inputs":[],"outputs":[{"name":"","type":"uint256","internalType":"uint256"}],"stateMutability":"view"},{"type":"function","name":"endDate","inputs":[],"outputs":[{"name":"","type":"uint256","internalType":"uint256"}],"stateMutability":"view"},{"type":"function","name":"getRoleAdmin","inputs":[{"name":"role","type":"bytes32","internalType":"bytes32"}],"outputs":[{"name":"","type":"bytes32","internalType":"bytes32"}],"stateMutability":"view"},{"type":"function","name":"grantRole","inputs":[{"name":"role","type":"bytes32","internalType":"bytes32"},{"name":"account","type":"address","internalType":"address"}],"outputs":[],"stateMutability":"nonpayable"},{"type":"function","name":"hasRole","inputs":[{"name":"role","type":"bytes32","internalType":"bytes32"},{"name":"account","type":"address","internalType":"address"}],"outputs":[{"name":"","type":"bool","internalType":"bool"}],"stateMutability":"view"},{"type":"function","name":"interval","inputs":[],"outputs":[{"name":"","type":"uint256","internalType":"uint256"}],"stateMutability":"view"},{"type":"function","name":"isTrustedForwarder","inputs":[{"name":"forwarder","type":"address","internalType":"address"}],"outputs":[{"name":"","type":"bool","internalType":"bool"}],"stateMutability":"view"},{"type":"function","name":"lastClaimedPeriod","inputs":[{"name":"holder","type":"address","internalType":"address"}],"outputs":[{"name":"","type":"uint256","internalType":"uint256"}],"stateMutability":"view"},{"type":"function","name":"lastClaimedPeriod","inputs":[],"outputs":[{"name":"","type":"uint256","internalType":"uint256"}],"stateMutability":"view"},{"type":"function","name":"lastCompletedPeriod","inputs":[],"outputs":[{"name":"","type":"uint256","internalType":"uint256"}],"stateMutability":"view"},{"type":"function","name":"pause","inputs":[],"outputs":[],"stateMutability":"nonpayable"},{"type":"function","name":"paused","inputs":[],"outputs":[{"name":"","type":"bool","internalType":"bool"}],"stateMutability":"view"},{"type":"function","name":"periodEnd","inputs":[{"name":"period","type":"uint256","internalType":"uint256"}],"outputs":[{"name":"","type":"uint256","internalType":"uint256"}],"stateMutability":"view"},{"type":"function","name":"rate","inputs":[],"outputs":[{"name":"","type":"uint256","internalType":"uint256"}],"stateMutability":"view"},{"type":"function","name":"renounceRole","inputs":[{"name":"role","type":"bytes32","internalType":"bytes32"},{"name":"callerConfirmation","type":"address","internalType":"address"}],"outputs":[],"stateMutability":"nonpayable"},{"type":"function","name":"revokeRole","inputs":[{"name":"role","type":"bytes32","internalType":"bytes32"},{"name":"account","type":"address","internalType":"address"}],"outputs":[],"stateMutability":"nonpayable"},{"type":"function","name":"startDate","inputs":[],"outputs":[{"name":"","type":"uint256","internalType":"uint256"}],"stateMutability":"view"},{"type":"function","name":"supportsInterface","inputs":[{"name":"interfaceId","type":"bytes4","internalType":"bytes4"}],"outputs":[{"name":"","type":"bool","internalType":"bool"}],"stateMutability":"view"},{"type":"function","name":"timeUntilNextPeriod","inputs":[],"outputs":[{"name":"","type":"uint256","internalType":"uint256"}],"stateMutability":"view"},{"type":"function","name":"token","inputs":[],"outputs":[{"name":"","type":"address","internalType":"contract ERC20Yield"}],"stateMutability":"view"},{"type":"function","name":"topUpUnderlyingAsset","inputs":[{"name":"amount","type":"uint256","internalType":"uint256"}],"outputs":[],"stateMutability":"nonpayable"},{"type":"function","name":"totalUnclaimedYield","inputs":[],"outputs":[{"name":"","type":"uint256","internalType":"uint256"}],"stateMutability":"view"},{"type":"function","name":"totalYieldForNextPeriod","inputs":[],"outputs":[{"name":"","type":"uint256","internalType":"uint256"}],"stateMutability":"view"},{"type":"function","name":"trustedForwarder","inputs":[],"outputs":[{"name":"","type":"address","internalType":"address"}],"stateMutability":"view"},{"type":"function","name":"underlyingAsset","inputs":[],"outputs":[{"name":"","type":"address","internalType":"contract IERC20"}],"stateMutability":"view"},{"type":"function","name":"unpause","inputs":[],"outputs":[],"stateMutability":"nonpayable"},{"type":"function","name":"withdrawAllUnderlyingAsset","inputs":[{"name":"to","type":"address","internalType":"address"}],"outputs":[],"stateMutability":"nonpayable"},{"type":"function","name":"withdrawUnderlyingAsset","inputs":[{"name":"to","type":"address","internalType":"address"},{"name":"amount","type":"uint256","internalType":"uint256"}],"outputs":[],"stateMutability":"nonpayable"},{"type":"event","name":"Paused","inputs":[{"name":"account","type":"address","indexed":false,"internalType":"address"}],"anonymous":false},{"type":"event","name":"RoleAdminChanged","inputs":[{"name":"role","type":"bytes32","indexed":true,"internalType":"bytes32"},{"name":"previousAdminRole","type":"bytes32","indexed":true,"internalType":"bytes32"},{"name":"newAdminRole","type":"bytes32","indexed":true,"internalType":"bytes32"}],"anonymous":false},{"type":"event","name":"RoleGranted","inputs":[{"name":"role","type":"bytes32","indexed":true,"internalType":"bytes32"},{"name":"account","type":"address","indexed":true,"internalType":"address"},{"name":"sender","type":"address","indexed":true,"internalType":"address"}],"anonymous":false},{"type":"event","name":"RoleRevoked","inputs":[{"name":"role","type":"bytes32","indexed":true,"internalType":"bytes32"},{"name":"account","type":"address","indexed":true,"internalType":"address"},{"name":"sender","type":"address","indexed":true,"internalType":"address"}],"anonymous":false},{"type":"event","name":"UnderlyingAssetTopUp","inputs":[{"name":"from","type":"address","indexed":true,"internalType":"address"},{"name":"amount","type":"uint256","indexed":false,"internalType":"uint256"}],"anonymous":false},{"type":"event","name":"UnderlyingAssetWithdrawn","inputs":[{"name":"to","type":"address","indexed":true,"internalType":"address"},{"name":"amount","type":"uint256","indexed":false,"internalType":"uint256"}],"anonymous":false},{"type":"event","name":"Unpaused","inputs":[{"name":"account","type":"address","indexed":false,"internalType":"address"}],"anonymous":false},{"type":"event","name":"YieldClaimed","inputs":[{"name":"holder","type":"address","indexed":true,"internalType":"address"},{"name":"totalAmount","type":"uint256","indexed":false,"internalType":"uint256"},{"name":"fromPeriod","type":"uint256","indexed":false,"internalType":"uint256"},{"name":"toPeriod","type":"uint256","indexed":false,"internalType":"uint256"},{"name":"periodAmounts","type":"uint256[]","indexed":false,"internalType":"uint256[]"},{"name":"unclaimedYield","type":"uint256","indexed":false,"internalType":"uint256"}],"anonymous":false},{"type":"error","name":"AccessControlBadConfirmation","inputs":[]},{"type":"error","name":"AccessControlUnauthorizedAccount","inputs":[{"name":"account","type":"address","internalType":"address"},{"name":"neededRole","type":"bytes32","internalType":"bytes32"}]},{"type":"error","name":"EnforcedPause","inputs":[]},{"type":"error","name":"ExpectedPause","inputs":[]},{"type":"error","name":"InsufficientUnderlyingBalance","inputs":[]},{"type":"error","name":"InvalidAmount","inputs":[]},{"type":"error","name":"InvalidEndDate","inputs":[]},{"type":"error","name":"InvalidInterval","inputs":[]},{"type":"error","name":"InvalidPeriod","inputs":[]},{"type":"error","name":"InvalidRate","inputs":[]},{"type":"error","name":"InvalidStartDate","inputs":[]},{"type":"error","name":"InvalidToken","inputs":[]},{"type":"error","name":"InvalidUnderlyingAsset","inputs":[]},{"type":"error","name":"NoYieldAvailable","inputs":[]},{"type":"error","name":"PeriodAlreadyClaimed","inputs":[]},{"type":"error","name":"ScheduleExpired","inputs":[]},{"type":"error","name":"ScheduleNotActive","inputs":[]},{"type":"error","name":"TokenNotYieldEnabled","inputs":[]},{"type":"error","name":"YieldDistributionFailed","inputs":[]},{"type":"error","name":"YieldTransferFailed","inputs":[]}],"bytecode":{"object":"0x61016080604052346103ad5760e081611feb803803809161002082856103b2565b8339810103126103ad57610033816103eb565b90610040602082016103eb565b90604081015160608201519360808301519061006360c060a086015195016103eb565b6001805460ff191690556080526001600160a01b0316801561039c574283111561038b578286111561037a5781156103695783156103585760208160049260a052604051928380926376d5de8560e01b82525afa90811561034c57600091610303575b5060c08190526001600160a01b0316156102f2578160e0528461010052610120528161014052808403938085116102dc57826000950492600184018094116102c857855b8481106102065761011a866103ff565b50604051611aee90816104dd823960805181818161077f015281816108540152611a8b015260a0518181816101ab015281816108e2015281816112b10152818161149b015261178d015260c0518181816102700152818161056b015281816107e201528181610a170152610ed7015260e051818181610fb0015281816110f801528181611197015281816113f901526115970152610100518181816104ce01528181611120015281816111bf015281816114220152611758015261012051818181610ba10152610db101526101405181818161067001528181611155015281816111f1015261156f0152f35b600181018082116102b457828102908082048414901517156102b45784018085116102b4578381116102ad575b6002546801000000000000000081101561029957600181018060025581101561028557600289527f405787fa12a823e0f2b7631cc41b3ba8828b3321ca811111fa75cd3aa3bb5ace015560010161010a565b634e487b7160e01b89526032600452602489fd5b634e487b7160e01b89526041600452602489fd5b5082610233565b634e487b7160e01b88526011600452602488fd5b634e487b7160e01b86526011600452602486fd5b634e487b7160e01b600052601160045260246000fd5b634e81208360e01b60005260046000fd5b6020813d602011610344575b8161031c602093836103b2565b810103126103405751906001600160a01b038216820361033d5750386100c6565b80fd5b5080fd5b3d915061030f565b6040513d6000823e3d90fd5b6305fabb6160e41b60005260046000fd5b636a43f8d160e01b60005260046000fd5b63398145cf60e11b60005260046000fd5b630bf784c760e01b60005260046000fd5b63c1ab6dc160e01b60005260046000fd5b600080fd5b601f909101601f19168101906001600160401b038211908210176103d557604052565b634e487b7160e01b600052604160045260246000fd5b51906001600160a01b03821682036103ad57565b6001600160a01b0381166000908152600080516020611fcb833981519152602052604090205460ff1661049b576001600160a01b038181166000908152600080516020611fcb83398151915260205260409020805460ff191660011790556104656104a1565b16906001600160a01b031660007f2f8788117e7eff1d82e926ec794901d17c78024a50270940304540a733656f0d8180a4600190565b50600090565b6080516001600160a01b03163314806104d1575b156104cd5760131936013681116102dc573560601c90565b3390565b5060143610156104b556fe608080604052600436101561001357600080fd5b60003560e01c90816301ffc9a714611009575080630604061814610fee5780630898c94914610fd35780630b97bc8614610f985780631cf7e14914610e7f5780631f28d52c14610e64578063248a9ca314610e3757806327614ec414610dd45780632c4e722e14610d995780632f2ff15d14610d5957806336568abe14610d035780633f4ba83a14610c9b578063406cf22914610888578063572b6c05146108345780635c975abb146108115780637158da7c146107cc5780637b07882e146107ae5780637da0a87714610769578063817ea1441461074b5780638456cb59146106e057806391d1485414610693578063947a36fb14610658578063978fd53b1461063d5780639a95299a1461061a5780639fc2f65a146105ff578063a206b5501461050d578063a217fddf146104f1578063c24a0f8b146104b6578063c54293aa14610427578063d1ae38b81461040a578063d547741f146103c3578063e0ecad5a14610220578063f68e5218146101df5763fc0c546a1461019557600080fd5b346101da5760003660031901126101da576040517f00000000000000000000000000000000000000000000000000000000000000006001600160a01b03168152602090f35b600080fd5b346101da5760003660031901126101da5760206102186101fd611a88565b6001600160a01b031660009081526003602052604090205490565b604051908152f35b346101da5760203660031901126101da5761023961105c565b610241611882565b610249611942565b6001600160a01b0381169081156103b2576040516370a0823160e01b8152306004820152907f00000000000000000000000000000000000000000000000000000000000000006001600160a01b0316602083602481845afa92831561036f5760009361037b575b50821561032f5760405163a9059cbb60e01b81526001600160a01b03909216600483015260248201839052602090829081600081604481015b03925af190811561036f57600091610340575b501561032f5760207f6f50cd6d1a8ee055bfba8d1998a1e71e64c3a0791f04001b50f038e3c106590991604051908152a2005b6354ed247f60e11b60005260046000fd5b610362915060203d602011610368575b61035a8183611230565b810190611268565b836102fc565b503d610350565b6040513d6000823e3d90fd5b90926020823d6020116103aa575b8161039660209383611230565b810103126103a757505191846102b0565b80fd5b3d9150610389565b634e81208360e01b60005260046000fd5b346101da5760403660031901126101da576104086004356103e2611072565b906104036103fe82600052600060205260016040600020015490565b6118ee565b6119f8565b005b346101da5760003660031901126101da5760206040516127108152f35b346101da5760003660031901126101da5760405180602060025491828152019060026000527f405787fa12a823e0f2b7631cc41b3ba8828b3321ca811111fa75cd3aa3bb5ace9060005b8181106104a05761049c8561048881870382611230565b604051918291602083526020830190611088565b0390f35b8254845260209093019260019283019201610471565b346101da5760003660031901126101da5760206040517f00000000000000000000000000000000000000000000000000000000000000008152f35b346101da5760003660031901126101da57602060405160008152f35b346101da5760203660031901126101da57600435610529611942565b610531611a88565b6040516323b872dd60e01b81526001600160a01b0391821660048201523060248201526044810183905290602090829060649082906000907f0000000000000000000000000000000000000000000000000000000000000000165af190811561036f576000916105e0575b501561032f577fabda30aae4846dafeb67b57e0f9fb5af47de85525570e48ced61a3c99a4f8daf60206001600160a01b036105d5611a88565b1692604051908152a2005b6105f9915060203d6020116103685761035a8183611230565b8261059c565b346101da5760003660031901126101da576020610218611756565b346101da5760203660031901126101da57602061021861063861105c565b611469565b346101da5760003660031901126101da5760206102186113f7565b346101da5760003660031901126101da5760206040517f00000000000000000000000000000000000000000000000000000000000000008152f35b346101da5760403660031901126101da576106ac611072565b600435600052600060205260406000209060018060a01b0316600052602052602060ff604060002054166040519015158152f35b346101da5760003660031901126101da576106f9611882565b610701611942565b600160ff19815416176001557f62e78cea01bee320cd4e420270b5ea74000d11b0c9f74754ebdbfc544b05a2586020610738611a88565b6040516001600160a01b039091168152a1005b346101da5760203660031901126101da5760206102186101fd61105c565b346101da5760003660031901126101da576040517f00000000000000000000000000000000000000000000000000000000000000006001600160a01b03168152602090f35b346101da5760003660031901126101da576020610218610638611a88565b346101da5760003660031901126101da576040517f00000000000000000000000000000000000000000000000000000000000000006001600160a01b03168152602090f35b346101da5760003660031901126101da57602060ff600154166040519015158152f35b346101da5760203660031901126101da57602061084f61105c565b6040517f00000000000000000000000000000000000000000000000000000000000000006001600160a01b039081169216919091148152f35b346101da5760003660031901126101da576108a1611942565b6108a96113f7565b8015610af4576001600160a01b036108bf611a88565b16600052600360205260406000205460018101809111610c3d57818111610af4577f00000000000000000000000000000000000000000000000000000000000000006001600160a01b031690610913611a88565b6040516340f2de1b60e11b81526001600160a01b03909116600482015291602083602481845afa92831561036f57600093610c67575b5060009061095783866110bc565b9360018501809511610c535761096c856113d0565b9461097a6040519687611230565b808652610989601f19916113d0565b01366020870137835b86811115610b05575050508015610af4576001600160a01b036109b3611a88565b166000526003602052836040600020556109cf816004546110e9565b600455610a116020826109e0611a88565b60405163a9059cbb60e01b81526001600160a01b039091166004820152602481019190915291829081906044820190565b038160007f00000000000000000000000000000000000000000000000000000000000000006001600160a01b03165af190811561036f57600091610ad5575b5015610ac4577fac533f62a45585a7d7d8d61b133ebebce62c6d186f7c8204ca5f8adcfbca78d892610ab9610a83611293565b916001600160a01b03610a94611a88565b169660405195869586526020860152604085015260a0606085015260a0840190611088565b9060808301520390a2005b631a8f8c7560e31b60005260046000fd5b610aee915060203d6020116103685761035a8183611230565b85610a50565b633dfa692b60e11b60005260046000fd5b610b0d611a88565b6000198201828111610c3d57610b5f91610b286020926113b5565b905460405163277166bf60e11b81526001600160a01b03909316600484015260039190911b1c602482015291829081906044820190565b0381875afa90811561036f57600091610c0c575b5080610b89575b50610b84906113e8565b610992565b612710610bc6610b9f85610bce94989598611280565b7f000000000000000000000000000000000000000000000000000000000000000090611280565b0480926110e9565b93610bd986826110bc565b918751831015610bf6576020610b849360051b8901015290610b7a565b634e487b7160e01b600052603260045260246000fd5b906020823d8211610c35575b81610c2560209383611230565b810103126103a757505188610b73565b3d9150610c18565b634e487b7160e01b600052601160045260246000fd5b634e487b7160e01b83526011600452602483fd5b9092506020813d602011610c93575b81610c8360209383611230565b810103126101da57519184610949565b3d9150610c76565b346101da5760003660031901126101da57610cb4611882565b60015460ff811615610cf25760ff19166001557f5db9ee0a495bf2e6ff9c91a7834c1ba4fdd244a5e8aa4e537bd38aeae4b073aa6020610738611a88565b638dfc202b60e01b60005260046000fd5b346101da5760403660031901126101da57610d1c611072565b6001600160a01b03610d2c611a88565b166001600160a01b03821603610d4857610408906004356119f8565b63334bd91960e11b60005260046000fd5b346101da5760403660031901126101da57610408600435610d78611072565b90610d946103fe82600052600060205260016040600020015490565b61195f565b346101da5760003660031901126101da5760206040517f00000000000000000000000000000000000000000000000000000000000000008152f35b346101da5760203660031901126101da5760043580158015610e2c575b610e1b576000198101908111610c3d57610e0c6020916113b5565b90549060031b1c604051908152f35b6302e8f35960e31b60005260046000fd5b506002548111610df1565b346101da5760203660031901126101da576020610218600435600052600060205260016040600020015490565b346101da5760003660031901126101da576020610218611293565b346101da5760403660031901126101da57610e9861105c565b602435610ea3611882565b610eab611942565b6001600160a01b0382169182156103b2578115610f87576040516370a0823160e01b81523060048201527f00000000000000000000000000000000000000000000000000000000000000006001600160a01b031690602081602481855afa90811561036f57600091610f55575b50831161032f5760405163a9059cbb60e01b81526001600160a01b03909216600483015260248201839052602090829081600081604481016102e9565b90506020813d602011610f7f575b81610f7060209383611230565b810103126101da575185610f18565b3d9150610f63565b63162908e360e11b60005260046000fd5b346101da5760003660031901126101da5760206040517f00000000000000000000000000000000000000000000000000000000000000008152f35b346101da5760003660031901126101da576020610218611195565b346101da5760003660031901126101da5760206102186110f6565b346101da5760203660031901126101da576004359063ffffffff60e01b82168092036101da57602091637965db0b60e01b811490811561104b575b5015158152f35b6301ffc9a760e01b14905083611044565b600435906001600160a01b03821682036101da57565b602435906001600160a01b03821682036101da57565b906020808351928381520192019060005b8181106110a65750505090565b8251845260209384019390920191600101611099565b91908203918211610c3d57565b81156110d3570490565b634e487b7160e01b600052601260045260246000fd5b91908201809211610c3d57565b7f000000000000000000000000000000000000000000000000000000000000000080421061118f577f00000000000000000000000000000000000000000000000000000000000000004210156111885761115361117a91426110bc565b7f0000000000000000000000000000000000000000000000000000000000000000906110c9565b60018101809111610c3d5790565b5060025490565b50600090565b7f0000000000000000000000000000000000000000000000000000000000000000804210611225577f000000000000000000000000000000000000000000000000000000000000000042101561118f576111ef90426110bc565b7f000000000000000000000000000000000000000000000000000000000000000080156110d357806112229206906110bc565b90565b6112229042906110bc565b90601f8019910116810190811067ffffffffffffffff82111761125257604052565b634e487b7160e01b600052604160045260246000fd5b908160209103126101da575180151581036101da5790565b81810292918115918404141715610c3d57565b61129b6113f7565b801561118f576040516318160ddd60e01b8152907f00000000000000000000000000000000000000000000000000000000000000006001600160a01b0316602083600481845afa92831561036f57600093611380575b50916020602493604051948580926340f2de1b60e11b8252600060048301525afa92831561036f57600093611348575b5090612710611339610b9f6112229561133f95611280565b04611280565b600454906110bc565b9250906020833d602011611378575b8161136460209383611230565b810103126101da5791519190612710611321565b3d9150611357565b92506020833d6020116113ad575b8161139b60209383611230565b810103126101da5791519160206112f1565b3d915061138e565b600254811015610bf657600260005260206000200190600090565b67ffffffffffffffff81116112525760051b60200190565b6000198114610c3d5760010190565b7f00000000000000000000000000000000000000000000000000000000000000008042111561118f577f00000000000000000000000000000000000000000000000000000000000000004210156111885761115361145591426110bc565b60025480821015611464575090565b905090565b6114716110f6565b8015611745576040516340f2de1b60e11b81526001600160a01b03838116600483018190529192917f000000000000000000000000000000000000000000000000000000000000000090911690602084602481855afa93841561036f57600094611711575b508060005260036020526040600020549460018601809611610c3d576114fa6113f7565b906000965b82811115611640575050506020906024604051809481936370a0823160e01b835260048301525afa90811561036f5760009161160e575b506000928161154c575b505050611222916110e9565b600019830193928411610c5357906115c7610b9f6115cc936115c16115bb6115957f0000000000000000000000000000000000000000000000000000000000000000809a611280565b7f00000000000000000000000000000000000000000000000000000000000000006110e9565b426110bc565b93611280565b611280565b9061271083029280840461271014901517156115fa575061122292916115f1916110c9565b90913880611540565b634e487b7160e01b81526011600452602490fd5b906020823d602011611638575b8161162860209383611230565b810103126103a757505138611536565b3d915061161b565b6000198101818111610c3d57602061165a611690926113b5565b905460405163277166bf60e11b81526001600160a01b038716600482015260039290921b1c602482015291829081906044820190565b0381895afa90811561036f576000916116e0575b50806116ba575b506116b5906113e8565b6114ff565b6116b591986127106116d2610b9f8b6116d995611280565b04906110e9565b97906116ab565b906020823d8211611709575b816116f960209383611230565b810103126103a7575051386116a4565b3d91506116ec565b90936020823d60201161173d575b8161172c60209383611230565b810103126103a757505192386114d6565b3d915061171f565b63b27f716560e01b60005260046000fd5b7f000000000000000000000000000000000000000000000000000000000000000042101561187d576040516318160ddd60e01b81527f00000000000000000000000000000000000000000000000000000000000000006001600160a01b0316602082600481845afa91821561036f57600092611848575b50906020602492604051938480926340f2de1b60e11b8252600060048301525afa91821561036f57600092611812575b50610b9f6127109261180e92611280565b0490565b91506020823d602011611840575b8161182d60209383611230565b810103126101da57905190610b9f6117fd565b3d9150611820565b91506020823d602011611875575b8161186360209383611230565b810103126101da5790519060206117cd565b3d9150611856565b600090565b61188a611a88565b6001600160a01b03811660009081527fad3228b676f7d3cd4284a5443f17f1962b36e491b30a40b2405849e597ba5fb5602052604090205460ff16156118cd5750565b63e2517d3f60e01b60005260018060a01b0316600452600060245260446000fd5b6118f6611a88565b6000828152602081815260408083206001600160a01b038516845290915290205460ff1615611923575050565b63e2517d3f60e01b60005260018060a01b031660045260245260446000fd5b60ff6001541661194e57565b63d93c066560e01b60005260046000fd5b6000818152602081815260408083206001600160a01b038616845290915290205460ff166119f1576000818152602081815260408083206001600160a01b0386811685529252909120805460ff191660011790556119bb611a88565b16916001600160a01b0316907f2f8788117e7eff1d82e926ec794901d17c78024a50270940304540a733656f0d600080a4600190565b5050600090565b6000818152602081815260408083206001600160a01b038616845290915290205460ff16156119f1576000818152602081815260408083206001600160a01b0386811685529252909120805460ff19169055611a52611a88565b16916001600160a01b0316907ff6391f5c32d9c69d2a47ea670b442974b53935d1edc7fd64eb21e047a839171b600080a4600190565b337f00000000000000000000000000000000000000000000000000000000000000006001600160a01b03161480611ad6575b15611ad2576013193601368111610c3d573560601c90565b3390565b506014361015611aba56fea164736f6c634300081b000aad3228b676f7d3cd4284a5443f17f1962b36e491b30a40b2405849e597ba5fb5","linkReferences":{}},"methodIdentifiers":{"DEFAULT_ADMIN_ROLE()":"a217fddf","RATE_BASIS_POINTS()":"d1ae38b8","allPeriods()":"c54293aa","calculateAccruedYield()":"7b07882e","calculateAccruedYield(address)":"9a95299a","claimYield()":"406cf229","currentPeriod()":"06040618","endDate()":"c24a0f8b","getRoleAdmin(bytes32)":"248a9ca3","grantRole(bytes32,address)":"2f2ff15d","hasRole(bytes32,address)":"91d14854","interval()":"947a36fb","isTrustedForwarder(address)":"572b6c05","lastClaimedPeriod()":"f68e5218","lastClaimedPeriod(address)":"817ea144","lastCompletedPeriod()":"978fd53b","pause()":"8456cb59","paused()":"5c975abb","periodEnd(uint256)":"27614ec4","rate()":"2c4e722e","renounceRole(bytes32,address)":"36568abe","revokeRole(bytes32,address)":"d547741f","startDate()":"0b97bc86","supportsInterface(bytes4)":"01ffc9a7","timeUntilNextPeriod()":"0898c949","token()":"fc0c546a","topUpUnderlyingAsset(uint256)":"a206b550","totalUnclaimedYield()":"1f28d52c","totalYieldForNextPeriod()":"9fc2f65a","trustedForwarder()":"7da0a877","underlyingAsset()":"7158da7c","unpause()":"3f4ba83a","withdrawAllUnderlyingAsset(address)":"e0ecad5a","withdrawUnderlyingAsset(address,uint256)":"1cf7e149"},"id":8}