{
  "_format": "hh-sol-artifact-1",
  "contractName": "SMARTTrustedIssuersRegistry",
  "sourceName": "smart-protocol/contracts/SMARTTrustedIssuersRegistry.sol",
  "abi": [
    {
      "inputs": [
        {
          "internalType": "address",
          "name": "trustedForwarder",
          "type": "address"
        }
      ],
      "stateMutability": "nonpayable",
      "type": "constructor"
    },
    {
      "inputs": [],
      "name": "AccessControlBadConfirmation",
      "type": "error"
    },
    {
      "inputs": [
        {
          "internalType": "address",
          "name": "account",
          "type": "address"
        },
        {
          "internalType": "bytes32",
          "name": "neededRole",
          "type": "bytes32"
        }
      ],
      "name": "AccessControlUnauthorizedAccount",
      "type": "error"
    },
    {
      "inputs": [
        {
          "internalType": "address",
          "name": "target",
          "type": "address"
        }
      ],
      "name": "AddressEmptyCode",
      "type": "error"
    },
    {
      "inputs": [
        {
          "internalType": "address",
          "name": "addr",
          "type": "address"
        }
      ],
      "name": "AddressNotFoundInList",
      "type": "error"
    },
    {
      "inputs": [
        {
          "internalType": "address",
          "name": "implementation",
          "type": "address"
        }
      ],
      "name": "ERC1967InvalidImplementation",
      "type": "error"
    },
    {
      "inputs": [],
      "name": "ERC1967NonPayable",
      "type": "error"
    },
    {
      "inputs": [],
      "name": "FailedCall",
      "type": "error"
    },
    {
      "inputs": [],
      "name": "InvalidInitialization",
      "type": "error"
    },
    {
      "inputs": [],
      "name": "InvalidIssuerAddress",
      "type": "error"
    },
    {
      "inputs": [
        {
          "internalType": "address",
          "name": "issuerAddress",
          "type": "address"
        }
      ],
      "name": "IssuerAlreadyExists",
      "type": "error"
    },
    {
      "inputs": [
        {
          "internalType": "address",
          "name": "issuerAddress",
          "type": "address"
        }
      ],
      "name": "IssuerDoesNotExist",
      "type": "error"
    },
    {
      "inputs": [
        {
          "internalType": "address",
          "name": "issuerAddress",
          "type": "address"
        },
        {
          "internalType": "uint256",
          "name": "claimTopic",
          "type": "uint256"
        }
      ],
      "name": "IssuerNotFoundInTopicList",
      "type": "error"
    },
    {
      "inputs": [],
      "name": "NoClaimTopicsProvided",
      "type": "error"
    },
    {
      "inputs": [],
      "name": "NotInitializing",
      "type": "error"
    },
    {
      "inputs": [],
      "name": "UUPSUnauthorizedCallContext",
      "type": "error"
    },
    {
      "inputs": [
        {
          "internalType": "bytes32",
          "name": "slot",
          "type": "bytes32"
        }
      ],
      "name": "UUPSUnsupportedProxiableUUID",
      "type": "error"
    },
    {
      "anonymous": false,
      "inputs": [
        {
          "indexed": true,
          "internalType": "address",
          "name": "sender",
          "type": "address"
        },
        {
          "indexed": true,
          "internalType": "address",
          "name": "_issuer",
          "type": "address"
        },
        {
          "indexed": false,
          "internalType": "uint256[]",
          "name": "_claimTopics",
          "type": "uint256[]"
        }
      ],
      "name": "ClaimTopicsUpdated",
      "type": "event"
    },
    {
      "anonymous": false,
      "inputs": [
        {
          "indexed": false,
          "internalType": "uint64",
          "name": "version",
          "type": "uint64"
        }
      ],
      "name": "Initialized",
      "type": "event"
    },
    {
      "anonymous": false,
      "inputs": [
        {
          "indexed": true,
          "internalType": "bytes32",
          "name": "role",
          "type": "bytes32"
        },
        {
          "indexed": true,
          "internalType": "bytes32",
          "name": "previousAdminRole",
          "type": "bytes32"
        },
        {
          "indexed": true,
          "internalType": "bytes32",
          "name": "newAdminRole",
          "type": "bytes32"
        }
      ],
      "name": "RoleAdminChanged",
      "type": "event"
    },
    {
      "anonymous": false,
      "inputs": [
        {
          "indexed": true,
          "internalType": "bytes32",
          "name": "role",
          "type": "bytes32"
        },
        {
          "indexed": true,
          "internalType": "address",
          "name": "account",
          "type": "address"
        },
        {
          "indexed": true,
          "internalType": "address",
          "name": "sender",
          "type": "address"
        }
      ],
      "name": "RoleGranted",
      "type": "event"
    },
    {
      "anonymous": false,
      "inputs": [
        {
          "indexed": true,
          "internalType": "bytes32",
          "name": "role",
          "type": "bytes32"
        },
        {
          "indexed": true,
          "internalType": "address",
          "name": "account",
          "type": "address"
        },
        {
          "indexed": true,
          "internalType": "address",
          "name": "sender",
          "type": "address"
        }
      ],
      "name": "RoleRevoked",
      "type": "event"
    },
    {
      "anonymous": false,
      "inputs": [
        {
          "indexed": true,
          "internalType": "address",
          "name": "sender",
          "type": "address"
        },
        {
          "indexed": true,
          "internalType": "address",
          "name": "_issuer",
          "type": "address"
        },
        {
          "indexed": false,
          "internalType": "uint256[]",
          "name": "_claimTopics",
          "type": "uint256[]"
        }
      ],
      "name": "TrustedIssuerAdded",
      "type": "event"
    },
    {
      "anonymous": false,
      "inputs": [
        {
          "indexed": true,
          "internalType": "address",
          "name": "sender",
          "type": "address"
        },
        {
          "indexed": true,
          "internalType": "address",
          "name": "_issuer",
          "type": "address"
        }
      ],
      "name": "TrustedIssuerRemoved",
      "type": "event"
    },
    {
      "anonymous": false,
      "inputs": [
        {
          "indexed": true,
          "internalType": "address",
          "name": "implementation",
          "type": "address"
        }
      ],
      "name": "Upgraded",
      "type": "event"
    },
    {
      "inputs": [],
      "name": "DEFAULT_ADMIN_ROLE",
      "outputs": [
        {
          "internalType": "bytes32",
          "name": "",
          "type": "bytes32"
        }
      ],
      "stateMutability": "view",
      "type": "function"
    },
    {
      "inputs": [],
      "name": "REGISTRAR_ROLE",
      "outputs": [
        {
          "internalType": "bytes32",
          "name": "",
          "type": "bytes32"
        }
      ],
      "stateMutability": "view",
      "type": "function"
    },
    {
      "inputs": [],
      "name": "UPGRADE_INTERFACE_VERSION",
      "outputs": [
        {
          "internalType": "string",
          "name": "",
          "type": "string"
        }
      ],
      "stateMutability": "view",
      "type": "function"
    },
    {
      "inputs": [
        {
          "internalType": "contract IClaimIssuer",
          "name": "_trustedIssuer",
          "type": "address"
        },
        {
          "internalType": "uint256[]",
          "name": "_claimTopics",
          "type": "uint256[]"
        }
      ],
      "name": "addTrustedIssuer",
      "outputs": [],
      "stateMutability": "nonpayable",
      "type": "function"
    },
    {
      "inputs": [
        {
          "internalType": "bytes32",
          "name": "role",
          "type": "bytes32"
        }
      ],
      "name": "getRoleAdmin",
      "outputs": [
        {
          "internalType": "bytes32",
          "name": "",
          "type": "bytes32"
        }
      ],
      "stateMutability": "view",
      "type": "function"
    },
    {
      "inputs": [
        {
          "internalType": "bytes32",
          "name": "role",
          "type": "bytes32"
        },
        {
          "internalType": "uint256",
          "name": "index",
          "type": "uint256"
        }
      ],
      "name": "getRoleMember",
      "outputs": [
        {
          "internalType": "address",
          "name": "",
          "type": "address"
        }
      ],
      "stateMutability": "view",
      "type": "function"
    },
    {
      "inputs": [
        {
          "internalType": "bytes32",
          "name": "role",
          "type": "bytes32"
        }
      ],
      "name": "getRoleMemberCount",
      "outputs": [
        {
          "internalType": "uint256",
          "name": "",
          "type": "uint256"
        }
      ],
      "stateMutability": "view",
      "type": "function"
    },
    {
      "inputs": [
        {
          "internalType": "bytes32",
          "name": "role",
          "type": "bytes32"
        }
      ],
      "name": "getRoleMembers",
      "outputs": [
        {
          "internalType": "address[]",
          "name": "",
          "type": "address[]"
        }
      ],
      "stateMutability": "view",
      "type": "function"
    },
    {
      "inputs": [
        {
          "internalType": "contract IClaimIssuer",
          "name": "_trustedIssuer",
          "type": "address"
        }
      ],
      "name": "getTrustedIssuerClaimTopics",
      "outputs": [
        {
          "internalType": "uint256[]",
          "name": "",
          "type": "uint256[]"
        }
      ],
      "stateMutability": "view",
      "type": "function"
    },
    {
      "inputs": [],
      "name": "getTrustedIssuers",
      "outputs": [
        {
          "internalType": "contract IClaimIssuer[]",
          "name": "",
          "type": "address[]"
        }
      ],
      "stateMutability": "view",
      "type": "function"
    },
    {
      "inputs": [
        {
          "internalType": "uint256",
          "name": "claimTopic",
          "type": "uint256"
        }
      ],
      "name": "getTrustedIssuersForClaimTopic",
      "outputs": [
        {
          "internalType": "contract IClaimIssuer[]",
          "name": "",
          "type": "address[]"
        }
      ],
      "stateMutability": "view",
      "type": "function"
    },
    {
      "inputs": [
        {
          "internalType": "bytes32",
          "name": "role",
          "type": "bytes32"
        },
        {
          "internalType": "address",
          "name": "account",
          "type": "address"
        }
      ],
      "name": "grantRole",
      "outputs": [],
      "stateMutability": "nonpayable",
      "type": "function"
    },
    {
      "inputs": [
        {
          "internalType": "address",
          "name": "_issuer",
          "type": "address"
        },
        {
          "internalType": "uint256",
          "name": "_claimTopic",
          "type": "uint256"
        }
      ],
      "name": "hasClaimTopic",
      "outputs": [
        {
          "internalType": "bool",
          "name": "",
          "type": "bool"
        }
      ],
      "stateMutability": "view",
      "type": "function"
    },
    {
      "inputs": [
        {
          "internalType": "bytes32",
          "name": "role",
          "type": "bytes32"
        },
        {
          "internalType": "address",
          "name": "account",
          "type": "address"
        }
      ],
      "name": "hasRole",
      "outputs": [
        {
          "internalType": "bool",
          "name": "",
          "type": "bool"
        }
      ],
      "stateMutability": "view",
      "type": "function"
    },
    {
      "inputs": [
        {
          "internalType": "address",
          "name": "initialAdmin",
          "type": "address"
        }
      ],
      "name": "initialize",
      "outputs": [],
      "stateMutability": "nonpayable",
      "type": "function"
    },
    {
      "inputs": [
        {
          "internalType": "address",
          "name": "forwarder",
          "type": "address"
        }
      ],
      "name": "isTrustedForwarder",
      "outputs": [
        {
          "internalType": "bool",
          "name": "",
          "type": "bool"
        }
      ],
      "stateMutability": "view",
      "type": "function"
    },
    {
      "inputs": [
        {
          "internalType": "address",
          "name": "_issuer",
          "type": "address"
        }
      ],
      "name": "isTrustedIssuer",
      "outputs": [
        {
          "internalType": "bool",
          "name": "",
          "type": "bool"
        }
      ],
      "stateMutability": "view",
      "type": "function"
    },
    {
      "inputs": [],
      "name": "proxiableUUID",
      "outputs": [
        {
          "internalType": "bytes32",
          "name": "",
          "type": "bytes32"
        }
      ],
      "stateMutability": "view",
      "type": "function"
    },
    {
      "inputs": [
        {
          "internalType": "contract IClaimIssuer",
          "name": "_trustedIssuer",
          "type": "address"
        }
      ],
      "name": "removeTrustedIssuer",
      "outputs": [],
      "stateMutability": "nonpayable",
      "type": "function"
    },
    {
      "inputs": [
        {
          "internalType": "bytes32",
          "name": "role",
          "type": "bytes32"
        },
        {
          "internalType": "address",
          "name": "callerConfirmation",
          "type": "address"
        }
      ],
      "name": "renounceRole",
      "outputs": [],
      "stateMutability": "nonpayable",
      "type": "function"
    },
    {
      "inputs": [
        {
          "internalType": "bytes32",
          "name": "role",
          "type": "bytes32"
        },
        {
          "internalType": "address",
          "name": "account",
          "type": "address"
        }
      ],
      "name": "revokeRole",
      "outputs": [],
      "stateMutability": "nonpayable",
      "type": "function"
    },
    {
      "inputs": [
        {
          "internalType": "bytes4",
          "name": "interfaceId",
          "type": "bytes4"
        }
      ],
      "name": "supportsInterface",
      "outputs": [
        {
          "internalType": "bool",
          "name": "",
          "type": "bool"
        }
      ],
      "stateMutability": "view",
      "type": "function"
    },
    {
      "inputs": [],
      "name": "trustedForwarder",
      "outputs": [
        {
          "internalType": "address",
          "name": "",
          "type": "address"
        }
      ],
      "stateMutability": "view",
      "type": "function"
    },
    {
      "inputs": [
        {
          "internalType": "contract IClaimIssuer",
          "name": "_trustedIssuer",
          "type": "address"
        },
        {
          "internalType": "uint256[]",
          "name": "_newClaimTopics",
          "type": "uint256[]"
        }
      ],
      "name": "updateIssuerClaimTopics",
      "outputs": [],
      "stateMutability": "nonpayable",
      "type": "function"
    },
    {
      "inputs": [
        {
          "internalType": "address",
          "name": "newImplementation",
          "type": "address"
        },
        {
          "internalType": "bytes",
          "name": "data",
          "type": "bytes"
        }
      ],
      "name": "upgradeToAndCall",
      "outputs": [],
      "stateMutability": "payable",
      "type": "function"
    }
  ],
  "bytecode": "0x60c03461014c57601f611f4b38819003918201601f19168301916001600160401b038311848410176101515780849260209460405283398101031261014c57516001600160a01b038116810361014c576080523060a0527ff0c57e16840df040f15088dc2f81fe391c3923bec73e23a9662efc9c229c6a005460ff8160401c1661013b576002600160401b03196001600160401b038216016100d2575b604051611de390816101688239608051818181610afe01528181610b4d0152611801015260a051818181610b940152610cd90152f35b6001600160401b0319166001600160401b039081177ff0c57e16840df040f15088dc2f81fe391c3923bec73e23a9662efc9c229c6a00556040519081527fc7f505b2f371ae2175ee4913f4499e1f2633a7b5936321eed1cdaeb6115181d290602090a13861009c565b63f92ee8a960e01b60005260046000fd5b600080fd5b634e487b7160e01b600052604160045260246000fdfe608080604052600436101561001357600080fd5b60003560e01c90816301ffc9a71461113d5750806304bc7e8414610ff6578063248a9ca314610fd05780632f2ff15d14610f9f57806334a8998714610f5557806336568abe14610eff5780634f1ef28614610c5c57806352c111d114610beb57806352d1902d14610b81578063572b6c0514610b2d5780637da0a87714610ae85780639010d07c14610a9457806391d1485414610a3a5780639f63ea98146107e6578063a217fddf146107ca578063a3246ad314610708578063ad3cb1cc1461068c578063b93d28eb14610578578063c28fb278146104cb578063c4d66de8146102b5578063ca15c8731461027c578063d547741f14610244578063d9dd24c5146101a2578063ef2ed1a4146101605763f68e95531461013257600080fd5b3461015b57600036600319011261015b576020604051600080516020611d6e8339815191528152f35b600080fd5b3461015b57602036600319011261015b576001600160a01b036101816111aa565b166000526000602052602060ff600260406000200154166040519015158152f35b3461015b57600036600319011261015b576001546101bf816113a1565b6001549160005b8181106101df57604051806101db858261127b565b0390f35b600084821015610230576001908190527fb10e2d527612073b26eecdfd717e6a320cf44b4afac2b0732d9fcbe2b7fa0cf68201549091906001600160a01b031661022982866113d3565b52016101c6565b634e487b7160e01b81526032600452602490fd5b3461015b57604036600319011261015b5761027a600435610263611227565b9061027561027082611368565b6114b2565b61171b565b005b3461015b57602036600319011261015b57600435600052600080516020611d0e8339815191526020526020604060002054604051908152f35b3461015b57602036600319011261015b576102ce6111aa565b600080516020611d8e833981519152549060ff8260401c16159167ffffffffffffffff8116801590816104c3575b60011490816104b9575b1590816104b0575b5061049f5767ffffffffffffffff198116600117600080516020611d8e8339815191525582610472575b50610341611b50565b61034a81611857565b610423575b610357611b50565b6103608161191d565b6103c5575b5061036c57005b68ff000000000000000019600080516020611d8e8339815191525416600080516020611d8e833981519152557fc7f505b2f371ae2175ee4913f4499e1f2633a7b5936321eed1cdaeb6115181d2602060405160018152a1005b600080516020611d6e833981519152600052600080516020611d0e83398151915260205261041c906001600160a01b03167f32d31393d541a265984ec379cddd8b1fcbe5f2b0eb8ad81dddfead454f135eaa611b7e565b5081610365565b60008052600080516020611d0e83398151915260205261046c6001600160a01b0382167f615f0f9e84155bea8cc509fe18befeb1baf65611e38a6ba60964480fb29dfd44611b7e565b5061034f565b68ffffffffffffffffff19166801000000000000000117600080516020611d8e8339815191525582610338565b63f92ee8a960e01b60005260046000fd5b9050158461030e565b303b159150610306565b8491506102fc565b3461015b57602036600319011261015b576001600160a01b036104ec6111aa565b1680600052600060205260ff600260406000200154161561056457600052600060205261051f60016040600020016113e7565b60405180916020820160208352815180915260206040840192019060005b81811061054b575050500390f35b825184528594506020938401939092019160010161053d565b63502531bd60e11b60005260045260246000fd5b3461015b57602036600319011261015b576105916111aa565b610599611434565b6001600160a01b031660008181526020819052604090206002015460ff1615610564578060005260006020526105d560016040600020016113e7565b6105de8261175f565b60005b81518110156106075780610601846105fb600194866113d3565b51611558565b016105e1565b8280600052600060205260406000206000815560018101805490600081558161066b575b60006002840155836001600160a01b036106436117fe565b167ff7c835af57fa00668263633370297e8186b0e3f75d50c54cad2e941512926a90600080a3005b6000526020600020908101905b8181101561062b5760008155600101610678565b3461015b57600036600319011261015b5760408051906106ac818361123d565b60058252640352e302e360dc1b6020830152805180926020825280519081602084015260005b8281106106f15750506000828201840152601f01601f19168101030190f35b6020828201810151878301870152869450016106d2565b3461015b57602036600319011261015b57600435600052600080516020611d0e83398151915260205260406000206040518060208354918281520190819360005260206000209060005b8181106107b4575050508161076891038261123d565b6040519182916020830190602084525180915260408301919060005b818110610792575050500390f35b82516001600160a01b0316845285945060209384019390920191600101610784565b8254845260209093019260019283019201610752565b3461015b57600036600319011261015b57602060405160008152f35b3461015b576107f4366111c0565b916107fd611434565b6001600160a01b0316918215610a29578015610a185782600052600060205260ff60026040600020015416610a03576040516060810181811067ffffffffffffffff8211176109c95760405283815261085582611389565b90610863604051928361123d565b828252602082018360051b85019036821161015b5785905b8282106109f3575050506020818101928352600160408084018281526000898152938490529220925183546001600160a01b0319166001600160a01b039190911617835592518051919383019067ffffffffffffffff83116109c9576020906108e484846112fc565b0190600052602060002060005b8381106109df57505050506002019051151560ff80198354169116179055600154600160401b8110156109c95783610934826001610958940160015560016112be565b81546001600160a01b0393841660039290921b91821b9390911b1916919091179055565b60005b8181106109ab57507fe94b462a27e434fcc3a7b7078729bb68e9244d17b74b452e475bd8972cd66575906001600160a01b036109956117fe565b16926109a66040519283928361133f565b0390a3005b806109c3856109bd60019486886112ec565b35611671565b0161095b565b634e487b7160e01b600052604160045260246000fd5b6001906020845194019381840155016108f1565b813581526020918201910161087b565b8263c9b1283560e01b60005260045260246000fd5b63427931f160e11b60005260046000fd5b63d051089760e01b60005260046000fd5b3461015b57604036600319011261015b57610a53611227565b600435600052600080516020611d4e83398151915260205260406000209060018060a01b0316600052602052602060ff604060002054166040519015158152f35b3461015b57604036600319011261015b57600435600052600080516020611d0e8339815191526020526020610acf60243560406000206112be565b905460405160039290921b1c6001600160a01b03168152f35b3461015b57600036600319011261015b576040517f00000000000000000000000000000000000000000000000000000000000000006001600160a01b03168152602090f35b3461015b57602036600319011261015b576020610b486111aa565b6040517f00000000000000000000000000000000000000000000000000000000000000006001600160a01b039081169216919091148152f35b3461015b57600036600319011261015b577f00000000000000000000000000000000000000000000000000000000000000006001600160a01b03163003610bda576020604051600080516020611d2e8339815191528152f35b63703e46dd60e11b60005260046000fd5b3461015b57602036600319011261015b57600435600052600260205260406000208054610c17816113a1565b9160005b828110610c3057604051806101db868261127b565b80610c3d600192846112be565b838060a01b0391549060031b1c16610c5582876113d3565b5201610c1b565b604036600319011261015b57610c706111aa565b6024359067ffffffffffffffff821161015b573660238301121561015b57816004013590610c9d8261125f565b91610cab604051938461123d565b8083526020830193366024838301011161015b57816000926024602093018737840101526001600160a01b037f000000000000000000000000000000000000000000000000000000000000000016308114908115610edc575b50610bda57610d116117fe565b6001600160a01b03811660009081527fb7db2dd08fcb62d0c9e08c51941cae53c267786a0b75803fb7960902fc8ef97d602052604090205460ff1615610ebb57506040516352d1902d60e01b81526001600160a01b0382169390602081600481885afa60009181610e87575b50610d975784634c9c8ce360e01b60005260045260246000fd5b80600080516020611d2e833981519152869203610e735750823b15610e5f57600080516020611d2e83398151915280546001600160a01b031916821790557fbc7cd75a20ee27fd9adebab32041f755214dbc6bffa90cc0225b39da2e5c2d3b600080a2825115610e44576000809161027a945190845af43d15610e3c573d91610e1f8361125f565b92610e2d604051948561123d565b83523d6000602085013e611cac565b606091611cac565b50505034610e4e57005b63b398979f60e01b60005260046000fd5b634c9c8ce360e01b60005260045260246000fd5b632a87526960e21b60005260045260246000fd5b9091506020813d602011610eb3575b81610ea36020938361123d565b8101031261015b57519086610d7d565b3d9150610e96565b63e2517d3f60e01b60005260018060a01b0316600452600060245260446000fd5b600080516020611d2e833981519152546001600160a01b03161415905084610d04565b3461015b57604036600319011261015b57610f18611227565b6001600160a01b03610f286117fe565b166001600160a01b03821603610f445761027a9060043561171b565b63334bd91960e11b60005260046000fd5b3461015b57604036600319011261015b57610f6e6111aa565b602435600052600360205260406000209060018060a01b031660005260205260206040600020541515604051908152f35b3461015b57604036600319011261015b5761027a600435610fbe611227565b90610fcb61027082611368565b6116d3565b3461015b57602036600319011261015b576020610fee600435611368565b604051908152f35b3461015b57611004366111c0565b909161100e611434565b60018060a01b03169182600052600060205260ff6002604060002001541615611128578115610a185782600052600060205260016040600020019060005b8254811015611078578061107286611066600194876112be565b90549060031b1c611558565b0161104c565b84828560005b8181106111105750826000526000602052600160406000200167ffffffffffffffff82116109c9576110b082826112fc565b829060005260206000209060005b8381106110fc57507fce5a7730021226f481d123afc9df227c4b90ec04824a92926056c4ecee77d2fd9291506001600160a01b0390506109956117fe565b6001906020833593019281850155016110be565b80611122856109bd60019486886112ec565b0161107e565b8263502531bd60e11b60005260045260246000fd5b3461015b57602036600319011261015b576004359063ffffffff60e01b821680920361015b57602091635a05180f60e01b811490811561117f575b5015158152f35b637965db0b60e01b811491508115611199575b5083611178565b6301ffc9a760e01b14905083611192565b600435906001600160a01b038216820361015b57565b604060031982011261015b576004356001600160a01b038116810361015b579160243567ffffffffffffffff811161015b578260238201121561015b5780600401359267ffffffffffffffff841161015b5760248460051b8301011161015b576024019190565b602435906001600160a01b038216820361015b57565b90601f8019910116810190811067ffffffffffffffff8211176109c957604052565b67ffffffffffffffff81116109c957601f01601f191660200190565b602060408183019282815284518094520192019060005b81811061129f5750505090565b82516001600160a01b0316845260209384019390920191600101611292565b80548210156112d65760005260206000200190600090565b634e487b7160e01b600052603260045260246000fd5b91908110156112d65760051b0190565b90600160401b81116109c95781549181815582821061131a57505050565b600052602060002091820191015b818110611333575050565b60008155600101611328565b602080825281018390526001600160fb1b03831161015b5760409260051b809284830137010190565b600052600080516020611d4e83398151915260205260016040600020015490565b67ffffffffffffffff81116109c95760051b60200190565b906113ab82611389565b6113b8604051918261123d565b82815280926113c9601f1991611389565b0190602036910137565b80518210156112d65760209160051b010190565b906040519182815491828252602082019060005260206000209260005b81811061141b5750506114199250038361123d565b565b8454835260019485019487945060209093019201611404565b61143c6117fe565b6001600160a01b03811660009081527f07966f2ab141347034724e9b2a472c2f77f5cd745aeba27cacba797b8fcb7086602052604090205460ff161561147f5750565b63e2517d3f60e01b60009081526001600160a01b0391909116600452600080516020611d6e833981519152602452604490fd5b6114ba6117fe565b81600052600080516020611d4e833981519152602052604060002060018060a01b03821660005260205260ff60406000205416156114f6575050565b63e2517d3f60e01b60005260018060a01b031660045260245260446000fd5b8054801561154257600019019061152c82826112be565b81549060018060a01b039060031b1b1916905555565b634e487b7160e01b600052603160045260246000fd5b90816000526003602052604060002060018060a01b0382166000526020526040600020549081156116505760001982019282841161163a57806000526002602052604060002092835494600019860195861161163a576115bb61141996866112be565b90546001600160a01b0360039290921b1c8116908516819003611604575b505050600052600360205260406000209060018060a01b031660005260205260006040812055611515565b61161481610934604094896112be565b60009084825260036020528282209060018060a01b0316825260205220553880806115d9565b634e487b7160e01b600052601160045260246000fd5b9050638195595960e01b60005260018060a01b031660045260245260446000fd5b908160005260026020526040600020918254906001820180921161163a576000526003602052604060002060018060a01b038316600052602052604060002055815491600160401b8310156109c95782610934916001611419950181556112be565b6116dd82826119eb565b91826116e857505090565b6000918252600080516020611d0e8339815191526020526040909120611717916001600160a01b031690611b7e565b5090565b6117258282611aa2565b918261173057505090565b6000918252600080516020611d0e8339815191526020526040909120611717916001600160a01b031690611bef565b60005b600154808210156117df576117788260016112be565b905460039190911b1c6001600160a01b039081169084161461179d5750600101611762565b60001981019250821161163a576109346117bb6117d59360016112be565b905460039190911b1c6001600160a01b03169160016112be565b6114196001611515565b6378ca517b60e11b60009081526001600160a01b038416600452602490fd5b337f00000000000000000000000000000000000000000000000000000000000000006001600160a01b0316148061184c575b1561184857601319360136811161163a573560601c90565b3390565b506014361015611830565b6001600160a01b03811660009081527fb7db2dd08fcb62d0c9e08c51941cae53c267786a0b75803fb7960902fc8ef97d602052604090205460ff16611917576001600160a01b0381811660009081527fb7db2dd08fcb62d0c9e08c51941cae53c267786a0b75803fb7960902fc8ef97d60205260409020805460ff191660011790556118e16117fe565b16906001600160a01b031660007f2f8788117e7eff1d82e926ec794901d17c78024a50270940304540a733656f0d8180a4600190565b50600090565b6001600160a01b03811660009081527f07966f2ab141347034724e9b2a472c2f77f5cd745aeba27cacba797b8fcb7086602052604090205460ff16611917576001600160a01b0381811660009081527f07966f2ab141347034724e9b2a472c2f77f5cd745aeba27cacba797b8fcb708660205260409020805460ff191660011790556119a76117fe565b16906001600160a01b0316600080516020611d6e8339815191527f2f8788117e7eff1d82e926ec794901d17c78024a50270940304540a733656f0d600080a4600190565b6000818152600080516020611d4e833981519152602090815260408083206001600160a01b038616845290915290205460ff16611a9b576000818152600080516020611d4e833981519152602090815260408083206001600160a01b0386811685529252909120805460ff19166001179055611a656117fe565b16916001600160a01b0316907f2f8788117e7eff1d82e926ec794901d17c78024a50270940304540a733656f0d600080a4600190565b5050600090565b6000818152600080516020611d4e833981519152602090815260408083206001600160a01b038616845290915290205460ff1615611a9b576000818152600080516020611d4e833981519152602090815260408083206001600160a01b0386811685529252909120805460ff19169055611b1a6117fe565b16916001600160a01b0316907ff6391f5c32d9c69d2a47ea670b442974b53935d1edc7fd64eb21e047a839171b600080a4600190565b60ff600080516020611d8e8339815191525460401c1615611b6d57565b631afcd79f60e31b60005260046000fd5b6001810190826000528160205260406000205415600014611be7578054600160401b8110156109c957611bd2611bbb8260018794018555846112be565b819391549060031b91821b91600019901b19161790565b90555491600052602052604060002055600190565b505050600090565b9060018201918160005282602052604060002054801515600014611ca357600019810181811161163a57825460001981019190821161163a57818103611c6c575b50505080548015611542576000190190611c4a82826112be565b8154906000199060031b1b191690555560005260205260006040812055600190565b611c8c611c7c611bbb93866112be565b90549060031b1c928392866112be565b905560005283602052604060002055388080611c30565b50505050600090565b90611cd25750805115611cc157805190602001fd5b63d6bda27560e01b60005260046000fd5b81511580611d04575b611ce3575090565b639996b31560e01b60009081526001600160a01b0391909116600452602490fd5b50803b15611cdb56fec1f6fe24621ce81ec5827caf0253cadb74709b061630e6b55e82371705932000360894a13ba1a3210667c828492db98dca3e2076cc3735a920a3ca505d382bbc02dd7bc7dec4dceedda775e58dd541e08a116c6c53815c0bd028192f7b626800edcc084d3dcd65a1f7f23c65c46722faca6953d28e43150a467cf43e5c309238f0c57e16840df040f15088dc2f81fe391c3923bec73e23a9662efc9c229c6a00a26469706673582212206a2578962525e648ded5dde2e04cd42cd0ee51197835220da0e4bae314ffaf5e64736f6c634300081c0033",
  "linkReferences": {},
  "deployedLinkReferences": {}
}