{"contracts/addons/vault/ATKVaultFactoryImplementation.sol":{"ATKVaultFactoryImplementation":{"abi":[{"inputs":[{"internalType":"address","name":"forwarder","type":"address"}],"stateMutability":"nonpayable","type":"constructor"},{"inputs":[],"name":"AccessControlBadConfirmation","type":"error"},{"inputs":[{"internalType":"address","name":"account","type":"address"},{"internalType":"bytes32","name":"neededRole","type":"bytes32"}],"name":"AccessControlUnauthorizedAccount","type":"error"},{"inputs":[{"internalType":"address","name":"deployedAddress","type":"address"}],"name":"AddressAlreadyDeployed","type":"error"},{"inputs":[],"name":"Create2EmptyBytecode","type":"error"},{"inputs":[],"name":"FailedDeployment","type":"error"},{"inputs":[{"internalType":"uint256","name":"balance","type":"uint256"},{"internalType":"uint256","name":"needed","type":"uint256"}],"name":"InsufficientBalance","type":"error"},{"inputs":[],"name":"InvalidInitialization","type":"error"},{"inputs":[],"name":"NotInitializing","type":"error"},{"inputs":[],"name":"ProxyCreationFailed","type":"error"},{"anonymous":false,"inputs":[{"indexed":true,"internalType":"address","name":"vault","type":"address"},{"indexed":true,"internalType":"address","name":"creator","type":"address"}],"name":"ATKVaultCreated","type":"event"},{"anonymous":false,"inputs":[{"indexed":false,"internalType":"uint64","name":"version","type":"uint64"}],"name":"Initialized","type":"event"},{"anonymous":false,"inputs":[{"indexed":true,"internalType":"bytes32","name":"role","type":"bytes32"},{"indexed":true,"internalType":"bytes32","name":"previousAdminRole","type":"bytes32"},{"indexed":true,"internalType":"bytes32","name":"newAdminRole","type":"bytes32"}],"name":"RoleAdminChanged","type":"event"},{"anonymous":false,"inputs":[{"indexed":true,"internalType":"bytes32","name":"role","type":"bytes32"},{"indexed":true,"internalType":"address","name":"account","type":"address"},{"indexed":true,"internalType":"address","name":"sender","type":"address"}],"name":"RoleGranted","type":"event"},{"anonymous":false,"inputs":[{"indexed":true,"internalType":"bytes32","name":"role","type":"bytes32"},{"indexed":true,"internalType":"address","name":"account","type":"address"},{"indexed":true,"internalType":"address","name":"sender","type":"address"}],"name":"RoleRevoked","type":"event"},{"inputs":[],"name":"DEFAULT_ADMIN_ROLE","outputs":[{"internalType":"bytes32","name":"","type":"bytes32"}],"stateMutability":"view","type":"function"},{"inputs":[],"name":"allVaultsLength","outputs":[{"internalType":"uint256","name":"count","type":"uint256"}],"stateMutability":"view","type":"function"},{"inputs":[],"name":"atkVaultImplementation","outputs":[{"internalType":"address","name":"","type":"address"}],"stateMutability":"pure","type":"function"},{"inputs":[{"internalType":"address[]","name":"signers","type":"address[]"},{"internalType":"uint256","name":"required","type":"uint256"},{"internalType":"address","name":"initialOwner","type":"address"},{"internalType":"bytes32","name":"salt","type":"bytes32"}],"name":"createVault","outputs":[{"internalType":"address","name":"contractAddress","type":"address"}],"stateMutability":"nonpayable","type":"function"},{"inputs":[{"internalType":"bytes32","name":"role","type":"bytes32"}],"name":"getRoleAdmin","outputs":[{"internalType":"bytes32","name":"","type":"bytes32"}],"stateMutability":"view","type":"function"},{"inputs":[{"internalType":"bytes32","name":"role","type":"bytes32"},{"internalType":"address","name":"account","type":"address"}],"name":"grantRole","outputs":[],"stateMutability":"nonpayable","type":"function"},{"inputs":[{"internalType":"bytes32","name":"role","type":"bytes32"},{"internalType":"address","name":"account","type":"address"}],"name":"hasRole","outputs":[{"internalType":"bool","name":"","type":"bool"}],"stateMutability":"view","type":"function"},{"inputs":[{"internalType":"address","name":"systemAddress_","type":"address"},{"internalType":"address","name":"initialAdmin_","type":"address"}],"name":"initialize","outputs":[],"stateMutability":"nonpayable","type":"function"},{"inputs":[{"internalType":"address","name":"systemAddonAddress","type":"address"}],"name":"isFactorySystemAddon","outputs":[{"internalType":"bool","name":"isFactorySystemAddon","type":"bool"}],"stateMutability":"view","type":"function"},{"inputs":[{"internalType":"address","name":"forwarder","type":"address"}],"name":"isTrustedForwarder","outputs":[{"internalType":"bool","name":"","type":"bool"}],"stateMutability":"view","type":"function"},{"inputs":[{"internalType":"address[]","name":"signers","type":"address[]"},{"internalType":"uint256","name":"required","type":"uint256"},{"internalType":"address","name":"initialOwner","type":"address"},{"internalType":"bytes32","name":"salt","type":"bytes32"}],"name":"predictVaultAddress","outputs":[{"internalType":"address","name":"predictedAddress","type":"address"}],"stateMutability":"view","type":"function"},{"inputs":[{"internalType":"bytes32","name":"role","type":"bytes32"},{"internalType":"address","name":"callerConfirmation","type":"address"}],"name":"renounceRole","outputs":[],"stateMutability":"nonpayable","type":"function"},{"inputs":[{"internalType":"bytes32","name":"role","type":"bytes32"},{"internalType":"address","name":"account","type":"address"}],"name":"revokeRole","outputs":[],"stateMutability":"nonpayable","type":"function"},{"inputs":[{"internalType":"bytes4","name":"interfaceId","type":"bytes4"}],"name":"supportsInterface","outputs":[{"internalType":"bool","name":"","type":"bool"}],"stateMutability":"view","type":"function"},{"inputs":[],"name":"trustedForwarder","outputs":[{"internalType":"address","name":"","type":"address"}],"stateMutability":"view","type":"function"},{"inputs":[],"name":"typeId","outputs":[{"internalType":"bytes32","name":"","type":"bytes32"}],"stateMutability":"view","type":"function"}],"evm":{"bytecode":{"linkReferences":{},"object":"60a03461011e57601f61404f38819003918201601f19168301916001600160401b038311848410176101225780849260209460405283398101031261011e57516001600160a01b038116810361011e576080525f51602061402f5f395f51905f525460ff8160401c1661010f576002600160401b03196001600160401b038216016100b9575b604051613ef89081610137823960805181818161022301528181610575015281816105c40152818161084d01526110e90152f35b6001600160401b0319166001600160401b039081175f51602061402f5f395f51905f52556040519081527fc7f505b2f371ae2175ee4913f4499e1f2633a7b5936321eed1cdaeb6115181d290602090a15f610085565b63f92ee8a960e01b5f5260045ffd5b5f80fd5b634e487b7160e01b5f52604160045260245ffdfe6080806040526004361015610012575f80fd5b5f905f3560e01c90816301ffc9a71461096e57508063229fff6014610931578063248a9ca3146108f25780632f2ff15d146108a85780632f7efa2f1461080e57806336568abe146107b8578063485cc955146106155780634cd18577146105f8578063572b6c05146105a45780637da0a877146105605780637fe6496d146101d15780638f940f631461019657806391d1485414610140578063a217fddf14610124578063bcbd9edb146101245763d547741f146100ce575f80fd5b346101215760403660031901126101215761011d6004356100ed6109f1565b90610118610113825f525f516020613e835f395f51905f52602052600160405f20015490565b610c35565b610ff0565b5080f35b80fd5b5034610121578060031936011261012157602090604051908152f35b503461012157604036600319011261012157604061015c6109f1565b9160043581525f516020613e835f395f51905f52602052209060018060a01b03165f52602052602060ff60405f2054166040519015158152f35b503461012157806003193601126101215760206040517f3ae60f3cee742e6943392a49179dab2c5e2991d2396b7cf8b808581ecb951bfd8152f35b50346104675761020d61024c61025a61021b6101ec36610a3d565b6101fa969392949196610ba7565b6040519788918887863060208701610b30565b03601f198101885287610a07565b6040519485937f00000000000000000000000000000000000000000000000000000000000000009260208601610b71565b03601f198101835282610a07565b60405190612d0f61026e6020820184610a07565b8083526111546020840139610284838284610fb2565b61028c610ba7565b6001600160a01b03165f8181526001602052604090205490939060ff1661054d57906102ba6102c092611099565b92610f72565b80511561053e576020815191015ff53d151981151661045c576001600160a01b031690811561052f57810361052057805f52600160205260405f20600160ff198254161790556004602060018060a01b035f5416604051928380926398468e5160e01b82525afa90811561045c575f916104de575b506001600160a01b03168015158061046b575b610417575b506001600160a01b0361035e6110e6565b169060405191817fdd4f4edaf8af94a1c44f788ac4e78153a8fe0110733f3090d0c6ac09eab172988580a3600254680100000000000000008110156104035760018101806002558110156103ef576002602094527f405787fa12a823e0f2b7631cc41b3ba8828b3321ca811111fa75cd3aa3bb5ace01816bffffffffffffffffffffffff60a01b8254161790558152f35b634e487b7160e01b84526032600452602484fd5b634e487b7160e01b84526041600452602484fd5b803b15610467575f8091602460405180948193631105e3d560e31b83528760048401525af1801561045c571561034d576104549192505f90610a07565b5f905f61034d565b6040513d5f823e3d90fd5b5f80fd5b506040516301ffc9a760e01b815263118f21f760e31b6004820152602081602481855afa90811561045c575f916104a3575b50610348565b90506020813d6020116104d6575b816104be60209383610a07565b8101031261046757518015158103610467575f61049d565b3d91506104b1565b90506020813d602011610518575b816104f960209383610a07565b8101031261046757516001600160a01b0381168103610467575f610335565b3d91506104ec565b6335279f5d60e21b5f5260045ffd5b63b06ebf3d60e01b5f5260045ffd5b631328927760e21b5f5260045ffd5b8363d0dc594960e01b5f5260045260245ffd5b34610467575f366003190112610467576040517f00000000000000000000000000000000000000000000000000000000000000006001600160a01b03168152602090f35b346104675760203660031901126104675760206105bf6109db565b6040517f00000000000000000000000000000000000000000000000000000000000000006001600160a01b039081169216919091148152f35b34610467575f366003190112610467576020600254604051908152f35b346104675760403660031901126104675761062e6109db565b6106366109f1565b905f516020613ea35f395f51905f52549160ff8360401c16159267ffffffffffffffff8116801590816107b0575b60011490816107a6575b15908161079d575b5061078e5767ffffffffffffffff1981166001175f516020613ea35f395f51905f525583610762575b5060ff5f516020613ea35f395f51905f525460401c161561075357806106c76106d792610c91565b506106d181610d40565b50610e0a565b5060018060a01b03166bffffffffffffffffffffffff60a01b5f5416175f556106fc57005b68ff0000000000000000195f516020613ea35f395f51905f5254165f516020613ea35f395f51905f52557fc7f505b2f371ae2175ee4913f4499e1f2633a7b5936321eed1cdaeb6115181d2602060405160018152a1005b631afcd79f60e31b5f5260045ffd5b68ffffffffffffffffff191668010000000000000001175f516020613ea35f395f51905f52558361069f565b63f92ee8a960e01b5f5260045ffd5b90501585610676565b303b15915061066e565b859150610664565b34610467576040366003190112610467576107d16109f1565b6001600160a01b036107e16110e6565b166001600160a01b038216036107ff576107fd90600435610ff0565b005b63334bd91960e11b5f5260045ffd5b3461046757602061089661020d61024c61087561084561082d36610a3d565b604096939294919651978891888786308f8701610b30565b6040519485937f0000000000000000000000000000000000000000000000000000000000000000928a8601610b71565b604051612d0f61088786820183610a07565b80825261115486830139610fb2565b6040516001600160a01b039091168152f35b34610467576040366003190112610467576107fd6004356108c76109f1565b906108ed610113825f525f516020613e835f395f51905f52602052600160405f20015490565b610ed4565b346104675760203660031901126104675760206109296004355f525f516020613e835f395f51905f52602052600160405f20015490565b604051908152f35b34610467576020366003190112610467576001600160a01b036109526109db565b165f526001602052602060ff60405f2054166040519015158152f35b34610467576020366003190112610467576004359063ffffffff60e01b82168092036104675760209163291e793360e21b81149081156109b0575b5015158152f35b637965db0b60e01b8114915081156109ca575b50836109a9565b6301ffc9a760e01b149050836109c3565b600435906001600160a01b038216820361046757565b602435906001600160a01b038216820361046757565b90601f8019910116810190811067ffffffffffffffff821117610a2957604052565b634e487b7160e01b5f52604160045260245ffd5b60806003198201126104675760043567ffffffffffffffff811161046757816023820112156104675780600401359167ffffffffffffffff8311610a29578260051b9160405193610a916020850186610a07565b84526024602085019382010191821161046757602401915b818310610ad457509192602435925090506044356001600160a01b0381168103610467579060643590565b82356001600160a01b038116810361046757815260209283019201610aa9565b90602080835192838152019201905f5b818110610b115750505090565b82516001600160a01b0316845260209384019390920191600101610b04565b91610b57906080949796959260018060a01b0316845260a0602085015260a0840190610af4565b60408301969096526001600160a01b031660608201520152565b92610b89606093969592608086526080860190610af4565b60208501969096526001600160a01b03908116604085015216910152565b610baf6110e6565b6001600160a01b0381165f9081527f8f7e9a8734279607aeaac474f24949ddc99eae25c0da72edcf5ad21022be2c9e602052604090205460ff1615610bf15750565b63e2517d3f60e01b5f9081526001600160a01b03919091166004527ffc425f2263d0df187444b70e47283d622c70181c5baebb1306a01edba1ce184c602452604490fd5b610c3d6110e6565b815f525f516020613e835f395f51905f5260205260405f2060018060a01b0382165f5260205260ff60405f20541615610c74575050565b63e2517d3f60e01b5f5260018060a01b031660045260245260445ffd5b6001600160a01b0381165f9081527fb7db2dd08fcb62d0c9e08c51941cae53c267786a0b75803fb7960902fc8ef97d602052604090205460ff16610d3b576001600160a01b038181165f9081527fb7db2dd08fcb62d0c9e08c51941cae53c267786a0b75803fb7960902fc8ef97d60205260409020805460ff19166001179055610d196110e6565b16906001600160a01b03165f5f516020613e635f395f51905f528180a4600190565b505f90565b6001600160a01b0381165f9081527fb121b6c2cfb68d56d259fa39abd93d7a85e352365bbcbddf27041e20d031c3d3602052604090205460ff16610d3b576001600160a01b038181165f9081527fb121b6c2cfb68d56d259fa39abd93d7a85e352365bbcbddf27041e20d031c3d360205260409020805460ff19166001179055610dc86110e6565b16906001600160a01b03167fecaefa0171c08a6ded02d98b9432940d3852ef2c7f5007661eb8de37c5a1adc55f516020613e635f395f51905f525f80a4600190565b6001600160a01b0381165f9081527f8f7e9a8734279607aeaac474f24949ddc99eae25c0da72edcf5ad21022be2c9e602052604090205460ff16610d3b576001600160a01b038181165f9081527f8f7e9a8734279607aeaac474f24949ddc99eae25c0da72edcf5ad21022be2c9e60205260409020805460ff19166001179055610e926110e6565b16906001600160a01b03167ffc425f2263d0df187444b70e47283d622c70181c5baebb1306a01edba1ce184c5f516020613e635f395f51905f525f80a4600190565b5f8181525f516020613e835f395f51905f52602090815260408083206001600160a01b038616845290915290205460ff16610f6c575f8181525f516020613e835f395f51905f52602090815260408083206001600160a01b0386811685529252909120805460ff19166001179055610f4a6110e6565b16916001600160a01b0316905f516020613e635f395f51905f525f80a4600190565b50505f90565b610fb0906020808095946040519684889551918291018487015e8401908282015f8152815193849201905e01015f815203601f198101845283610a07565b565b90610fc2906102ba600b94611099565b602081519101209060405191604083015260208201523081520160ff8153605590206001600160a01b031690565b5f8181525f516020613e835f395f51905f52602090815260408083206001600160a01b038616845290915290205460ff1615610f6c575f8181525f516020613e835f395f51905f52602090815260408083206001600160a01b0386811685529252909120805460ff191690556110646110e6565b16916001600160a01b0316907ff6391f5c32d9c69d2a47ea670b442974b53935d1edc7fd64eb21e047a839171b5f80a4600190565b6040516110e06080826020808201953087526040808401528051918291826060860152018484015e5f838284010152601f801991011681010301601f198101835282610a07565b51902090565b337f00000000000000000000000000000000000000000000000000000000000000006001600160a01b03161480611148575b15611144576013193601368111611130573560601c90565b634e487b7160e01b5f52601160045260245ffd5b3390565b50601436101561111856fe60a06040523461023a57612d0f8038038061001981610252565b928339810160808282031261023a5781516001600160401b03811161023a5782019080601f8301121561023a578151916001600160401b03831161023e578260051b9060208061006a818501610252565b80968152019282010192831161023a57602001905b828210610222575050506020820151916100a760606100a060408401610277565b9201610277565b60805260016003558151908115801561021a575b8015610211575b6101fa576100cf8161028b565b6101b8575b505f5b818110610146576007849055837f9e0800728e995ca040f68d19b1bcc1b4ae0420ed8190fabb5fa564e2961eb7d560206001600160a01b036101176103a5565b1692604051908152a260405161283e90816104518239608051818181610ba401528181610c9b015261237c0152f35b82518110156101a457600581901b830160200151600191906001600160a01b031661017081610314565b61017c575b50016100d7565b61019d905f516020612caf5f395f51905f525f528360205260405f206103f4565b505f610175565b634e487b7160e01b5f52603260045260245ffd5b5f805260016020526101f3906001600160a01b03167fa6eef7e35abe7026729641147f7915573c7e97b47efa546f5f6e3230263bcb496103f4565b505f6100d4565b50826306a0ee3160e31b5f5260045260245260445ffd5b508184116100c2565b5083156100bb565b6020809161022f84610277565b81520191019061007f565b5f80fd5b634e487b7160e01b5f52604160045260245ffd5b6040519190601f01601f191682016001600160401b0381118382101761023e57604052565b51906001600160a01b038216820361023a57565b6001600160a01b0381165f9081525f516020612cef5f395f51905f52602052604090205460ff1661030f576001600160a01b038181165f9081525f516020612cef5f395f51905f5260205260409020805460ff191660011790556102ed6103a5565b16906001600160a01b03165f5f516020612c8f5f395f51905f528180a4600190565b505f90565b6001600160a01b0381165f9081525f516020612ccf5f395f51905f52602052604090205460ff1661030f576001600160a01b038181165f9081525f516020612ccf5f395f51905f5260205260409020805460ff191660011790556103766103a5565b16906001600160a01b03165f516020612caf5f395f51905f525f516020612c8f5f395f51905f525f80a4600190565b6080516001600160a01b03163314806103e9575b156103e55760131936013681116103d1573560601c90565b634e487b7160e01b5f52601160045260245ffd5b3390565b5060143610156103b9565b6001810190825f528160205260405f2054155f146104495780546801000000000000000081101561023e57600181018083558110156101a4578390825f5260205f20015554915f5260205260405f2055600190565b5050505f9056fe6080806040526004361015610069575b50361561001a575f80fd5b610022611cf3565b61002a612379565b604080513481524760208201526001600160a01b03909216917f90890809c654f11d6e72a28fa60149770a0d11ec6c92319d6ceb2bb0a4ea1a159190a2005b5f3560e01c90816301ffc9a7146116315750806308aff933146115dd5780630f05205614611423578063205e7c061461123857806320c5429b14611155578063248a9ca3146111235780632f2ff15d146110be5780633411c81c1461107557806336568abe146110215780633f4ba83a14610fbc57806346bd084114610e8f57806346e24b0814610da157806346f0975a14610ccf578063572b6c0514610c7b5780635c975abb14610c595780636239152014610bd35780637da0a87714610b8f5780638456cb5914610b245780638f56015f14610a615780639010d07c14610a1b57806391d14854146109d35780639ace38c214610916578063a1ebf35d146108ef578063a217fddf146108d5578063a3246ad314610865578063aa787c1e14610763578063b756393014610306578063b779e1c014610691578063ba0179b51461064e578063c13138f114610391578063ca15c87314610367578063d547741f14610323578063dc8452cd146103065763ee0e6f65146101eb575f61000f565b34610302576080366003190112610302576102046116b4565b61020c61169e565b9060443591606435916001600160401b038311610302576020937f97a1625ffe5fa52ea35b6d6808a64cf13bb4ab9bdce9643b7a97f09c8922b9336102f59361025c6102ec9636906004016117eb565b9290610266611bbf565b61026e611cf3565b610276611d0e565b61027e612379565b60405163a9059cbb60e01b8b8201526001600160a01b0385166024820152604480820188905281529096906102ca906102b860648261198d565b6102c3368886611a77565b9083611d7d565b98899560405193849360018060a01b03169860018060a01b038b169785611b10565b0390a4826121a9565b6001600355604051908152f35b5f80fd5b34610302575f366003190112610302576020600754604051908152f35b346103025760403660031901126103025761036560043561034261169e565b9061036061035b825f525f602052600160405f20015490565b611ca2565b61233f565b005b34610302576020366003190112610302576004355f526001602052602060405f2054604051908152f35b346103025760a0366003190112610302576004356001600160401b038111610302576103c19036906004016116ca565b6024356001600160401b038111610302576103e09036906004016116ca565b6044356001600160401b038111610302576103ff9036906004016116ca565b9490936064356001600160401b038111610302576104219036906004016116ca565b9290966084356001600160401b038111610302576104439036906004016116ca565b95909161044e611bbf565b610456611cf3565b61045e611d0e565b841561063f57818514801590610635575b801561062b575b8015610621575b6106125761048c979397612379565b96610496866119c5565b996001600160a01b038916955f5b8881106104c2576001600355604051806104be8f8261178e565b0390f35b8a8d8f8c8f8c8c8f928c8c8f92888c8f8f829c90838f96818f988f828f8f8f918f92849f92859c968697948f95886104fe8180999781986119f7565b61050790611baa565b9261051192611a1b565b9061051b92611b34565b94610526918c6119f7565b61052f90611a07565b9561053a918d6119f7565b359361054592611a1b565b369061055092611a77565b9161055a93611fd2565b6105648284611aad565b5261056e91611aad565b519e610579926119f7565b61058290611a07565b9961058c926119f7565b3596610597926119f7565b6105a090611baa565b996105aa92611a1b565b926105b6929196611a1b565b91604051958695600160a01b6001900316996105d29587611b6e565b037fd1048e3510dfda1faa9bde9bcf936dc0c15b5bb24c1f9b7d795959fb476ecd1691a46105ff91611aad565b519061060a916121a9565b6001016104a4565b63512509d360e11b5f5260045ffd5b508685141561047d565b5085851415610476565b508085141561046f565b637dc57e7b60e01b5f5260045ffd5b3461030257602036600319011261030257610667611bbf565b61066f611cf3565b610677611d0e565b61068a610682612379565b6004356121a9565b6001600355005b34610302576020366003190112610302576004356006548082101561071f5750805f52600460205260405f20546106c7816119c5565b915f5b8281106106df57604051806104be8682611818565b600190825f5260046020526106f78160405f20612589565b838060a01b0391549060031b1c1661070f8287611aad565b90838060a01b03169052016106ca565b801561075b575f19810190811161074757905b632d71397360e11b5f5260045260245260445ffd5b634e487b7160e01b5f52601160045260245ffd5b505f90610732565b346103025760a03660031901126103025761077c6116b4565b602435906044356001600160e01b031981168103610302576064356001600160401b038111610302576107b39036906004016117eb565b91608435926001600160401b038411610302576020957fd1048e3510dfda1faa9bde9bcf936dc0c15b5bb24c1f9b7d795959fb476ecd166107fb6102f59636906004016117eb565b959097610806611bbf565b61080e611cf3565b610816611d0e565b6102ec610821612379565b9761084361083088868b611b34565b61083b36848f611a77565b908886611fd2565b9a8b9760405195869560018060a01b03169a60018060a01b038d169987611b6e565b34610302576020366003190112610302576004355f52600160205260405f206040519081602082549182815201915f5260205f20905f5b8181106108bf576104be856108b38187038261198d565b60405191829182611818565b825484526020909301926001928301920161089c565b34610302575f3660031901126103025760206040515f8152f35b34610302575f3660031901126103025760206040515f5160206127e95f395f51905f528152f35b34610302576020366003190112610302576004356006548110156103025761093d9061185a565b5060018060a01b038154166104be60018301549260056040519161096f8361096881600285016118dd565b038461198d565b6109b960ff6003830154169361099b60048401549361099460405180978193016118dd565b038561198d565b6040519788978852602088015260c0604088015260c08701906117c7565b9215156060860152608085015283820360a08501526117c7565b34610302576040366003190112610302576109ec61169e565b6004355f525f60205260405f209060018060a01b03165f52602052602060ff60405f2054166040519015158152f35b34610302576040366003190112610302576004355f5260016020526020610a4860405f2060243590612589565b905460405160039290921b1c6001600160a01b03168152f35b3461030257602036600319011261030257600435610a7d611c3a565b5f5160206127e95f395f51905f525f5260016020527fb1a26a75446b1d67f01afe7a745dc85c05c9752b7d1cdfcd19e8f115973e8df85481158015610b1b575b610b05575060078190557f9e0800728e995ca040f68d19b1bcc1b4ae0420ed8190fabb5fa564e2961eb7d560206001600160a01b03610afa612379565b1692604051908152a2005b906306a0ee3160e31b5f5260045260245260445ffd5b50808211610abd565b34610302575f36600319011261030257610b3c611c3a565b610b44611cf3565b600160ff1960025416176002557f62e78cea01bee320cd4e420270b5ea74000d11b0c9f74754ebdbfc544b05a2586020610b7c612379565b6040516001600160a01b039091168152a1005b34610302575f366003190112610302576040517f00000000000000000000000000000000000000000000000000000000000000006001600160a01b03168152602090f35b34610302576020366003190112610302576004356001600160401b03811161030257610c039036906004016116ca565b90610c0c611bbf565b610c14611cf3565b610c1c611d0e565b811561063f57610c2a612379565b905f5b838110610c3b576001600355005b80610c5384610c4d60019488876119f7565b356121a9565b01610c2d565b34610302575f36600319011261030257602060ff600254166040519015158152f35b34610302576020366003190112610302576020610c966116b4565b6040517f00000000000000000000000000000000000000000000000000000000000000006001600160a01b039081169216919091148152f35b34610302575f366003190112610302575f5160206127e95f395f51905f525f5260016020527fb1a26a75446b1d67f01afe7a745dc85c05c9752b7d1cdfcd19e8f115973e8df854610d1f816119c5565b905f5b818110610d3757604051806104be8582611818565b5f5160206127e95f395f51905f525f526001602081905290610d79817fb1a26a75446b1d67f01afe7a745dc85c05c9752b7d1cdfcd19e8f115973e8df8612589565b838060a01b0391549060031b1c16610d918286611aad565b90838060a01b0316905201610d22565b3461030257608036600319011261030257610dba6116b4565b6024356044356001600160401b03811161030257610ddc9036906004016117eb565b92606435916001600160401b038311610302576020947fa48c1b3842e6f2c3793e18d2b4fed84fc8c6d18c3687702a2b43492078551efd94610e256102f59536906004016117eb565b969092610e30611bbf565b610e38611cf3565b610e40611d0e565b610e48612379565b956102ec610e6d610e5a36858a611a77565b610e65368d8a611a77565b908785611fd2565b998a9660405194859460018060a01b03169960018060a01b038c169886611ae1565b3461030257602036600319011261030257600435606060a0604051610eb38161195e565b5f81525f60208201528260408201525f838201525f608082015201526006548082101561071f57610ee38261185a565b50604051610ef08161195e565b81546001600160a01b0316815260018201546020820190815260405190926104be9190600590610f278361096881600285016118dd565b60408501928352610f9b60ff60038301541693606087019415158552610f636004840154936080890194855261099460405180978193016118dd565b60a087019384526040519788976020895260018060a01b0390511660208901525160408801525160c0606088015260e08701906117c7565b9251151560808601525160a085015251838203601f190160c08501526117c7565b34610302575f36600319011261030257610fd4611c3a565b60025460ff8116156110125760ff19166002557f5db9ee0a495bf2e6ff9c91a7834c1ba4fdd244a5e8aa4e537bd38aeae4b073aa6020610b7c612379565b638dfc202b60e01b5f5260045ffd5b346103025760403660031901126103025761103a61169e565b6001600160a01b0361104a612379565b166001600160a01b03821603611066576103659060043561233f565b63334bd91960e11b5f5260045ffd5b346103025760403660031901126103025761108e61169e565b6004355f52600560205260405f209060018060a01b03165f52602052602060ff60405f2054166040519015158152f35b34610302576040366003190112610302576004356110da61169e565b6110f261035b835f525f602052600160405f20015490565b6110fc8183612679565b61110257005b5f91825260016020526040909120610365916001600160a01b03169061279b565b3461030257602036600319011261030257602061114d6004355f525f602052600160405f20015490565b604051908152f35b3461030257602036600319011261030257600435611171611bbf565b611179611cf3565b611182816122dd565b61118a612379565b90825f5260046020526111b860405f209260018060a01b031680936001915f520160205260405f2054151590565b1561122157600490835f52816020526111d48360405f2061259e565b50835f52600560205260405f20835f5260205260405f2060ff198154169055015f1981540190557ff0dca620e2e81f7841d07bcc105e1704fb01475b278a9d4c236e1c62945edd555f80a3005b509063b29436e960e01b5f5260045260245260445ffd5b3461030257611246366116fa565b9296909591611253611bbf565b61125b611cf3565b611263611d0e565b821561063f57848314801590611419575b801561140f575b6106125761128a959195612379565b94611294846119c5565b976001600160a01b038716935f5b8681106112bc576001600355604051806104be8d8261178e565b808787878f8f8f868f928184878f8f908f858b8f926112de83809681936119f7565b6112e790611a07565b966112f1926119f7565b60405163a9059cbb60e01b60208201526001600160a01b0396909616602487015235604480870191909152855261132960648661198d565b611333918a6119f7565b61133c90611a07565b9361134692611a1b565b369061135192611a77565b9061135b92611d7d565b6113658284611aad565b5261136f91611aad565b519661137a926119f7565b61138390611a07565b9186611390818d8c6119f7565b61139990611a07565b946113a3926119f7565b35956113af918a611a1b565b6040516001600160a01b0390931696929384936113cd939185611b10565b037f97a1625ffe5fa52ea35b6d6808a64cf13bb4ab9bdce9643b7a97f09c8922b93391a4886113fc828d611aad565b5190611407916121a9565b6001016112a2565b508383141561127b565b5080831415611274565b3461030257611431366116fa565b61144097919397969296611bbf565b611448611cf3565b611450611d0e565b821561063f578483148015906115d3575b80156115c9575b61061257611477959195612379565b94611481846119c5565b976001600160a01b038716935f5b8681106114a9576001600355604051806104be8d8261178e565b878787878f8f8f82888c83828e96818f898f8f848f919e819f8b96839f6114d385809481936119f7565b6114dc90611a07565b986114e6926119f7565b35956114f192611a1b565b926114fd929194611a1b565b929091369061150b92611a77565b91369061151792611a77565b9161152193611fd2565b61152b8284611aad565b5261153591611aad565b519a611540926119f7565b61154990611a07565b95611554918d6119f7565b359361155f92611a1b565b9461156b929198611a1b565b90604051948594600160a01b6001900316986115879486611ae1565b037fa48c1b3842e6f2c3793e18d2b4fed84fc8c6d18c3687702a2b43492078551efd91a4886115b6828d611aad565b51906115c1916121a9565b60010161148f565b5080831415611468565b5086831415611461565b346103025760403660031901126103025760206116276115fb61169e565b600480355f90815290845260408082206001600160a01b03909316825260019092016020522054151590565b6040519015158152f35b34610302576020366003190112610302576004359063ffffffff60e01b821680920361030257602091635a05180f60e01b8114908115611673575b5015158152f35b637965db0b60e01b81149150811561168d575b508361166c565b6301ffc9a760e01b14905083611686565b602435906001600160a01b038216820361030257565b600435906001600160a01b038216820361030257565b9181601f84011215610302578235916001600160401b038311610302576020808501948460051b01011161030257565b6080600319820112610302576004356001600160401b0381116103025781611724916004016116ca565b929092916024356001600160401b0381116103025781611746916004016116ca565b929092916044356001600160401b0381116103025781611768916004016116ca565b92909291606435906001600160401b0382116103025761178a916004016116ca565b9091565b60206040818301928281528451809452019201905f5b8181106117b15750505090565b82518452602093840193909201916001016117a4565b805180835260209291819084018484015e5f828201840152601f01601f1916010190565b9181601f84011215610302578235916001600160401b038311610302576020838186019501011161030257565b60206040818301928281528451809452019201905f5b81811061183b5750505090565b82516001600160a01b031684526020938401939092019160010161182e565b6006548110156118915760065f81815291027ff652222313e28459528d920b65115c16c04f3efc82aaedc97be59f3f377c0d3f0191565b634e487b7160e01b5f52603260045260245ffd5b90600182811c921680156118d3575b60208310146118bf57565b634e487b7160e01b5f52602260045260245ffd5b91607f16916118b4565b5f92918154916118ec836118a5565b8083529260018116908115611941575060011461190857505050565b5f9081526020812093945091925b838310611927575060209250010190565b600181602092949394548385870101520191019190611916565b915050602093945060ff929192191683830152151560051b010190565b60c081019081106001600160401b0382111761197957604052565b634e487b7160e01b5f52604160045260245ffd5b90601f801991011681019081106001600160401b0382111761197957604052565b6001600160401b0381116119795760051b60200190565b906119cf826119ae565b6119dc604051918261198d565b82815280926119ed601f19916119ae565b0190602036910137565b91908110156118915760051b0190565b356001600160a01b03811681036103025790565b91908110156118915760051b81013590601e19813603018212156103025701908135916001600160401b038311610302576020018236038113610302579190565b6001600160401b03811161197957601f01601f191660200190565b929192611a8382611a5c565b91611a91604051938461198d565b829481845281830111610302578281602093845f960137010152565b80518210156118915760209160051b010190565b908060209392818452848401375f828201840152601f01601f1916010190565b9391611b0d9593611aff928652606060208701526060860191611ac1565b926040818503910152611ac1565b90565b611b0d949260609260018060a01b0316825260208201528160408201520191611ac1565b602490611b6c9294938060405196879363ffffffff60e01b1660208501528484013781015f838201520301601f19810184528361198d565b565b94929093611b9c92611b0d9795875263ffffffff60e01b166020870152608060408701526080860191611ac1565b926060818503910152611ac1565b356001600160e01b0319811681036103025790565b611bc7612379565b6001600160a01b0381165f9081527f059f08e7d7ba1c82eddc57afae67f80df851baf38a099607a779825038c3ce5b602052604090205460ff1615611c095750565b63e2517d3f60e01b5f9081526001600160a01b03919091166004525f5160206127e95f395f51905f52602452604490fd5b611c42612379565b6001600160a01b0381165f9081527fad3228b676f7d3cd4284a5443f17f1962b36e491b30a40b2405849e597ba5fb5602052604090205460ff1615611c845750565b63e2517d3f60e01b5f5260018060a01b03166004525f60245260445ffd5b611caa612379565b5f828152602081815260408083206001600160a01b038516845290915290205460ff1615611cd6575050565b63e2517d3f60e01b5f5260018060a01b031660045260245260445ffd5b60ff60025416611cff57565b63d93c066560e01b5f5260045ffd5b600260035414611d1f576002600355565b633ee5aeb560e01b5f5260045ffd5b601f8211611d3b57505050565b5f5260205f20906020601f840160051c83019310611d73575b601f0160051c01905b818110611d68575050565b5f8155600101611d5d565b9091508190611d54565b929091926006549260405191611d928361195e565b6001600160a01b031682525f6020830181815260408401928352606084018281526080850192835260a08501978852919290600160401b8710156119795760018701600655611de08761185a565b959095611fbf575185546001600160a01b0319166001600160a01b039190911617855551600185015551805160028501916001600160401b03821161197957611e3382611e2d85546118a5565b85611d2e565b602090601f8311600114611f535782600597969593611e879593611e6c935f92611eea575b50508160011b915f199060031b1c19161790565b90555b511515600384019060ff801983541691151516179055565b5160048201550192519283516001600160401b03811161197957611eb581611eaf84546118a5565b84611d2e565b602094601f8211600114611ef557611ee69293949582915f92611eea5750508160011b915f199060031b1c19161790565b9055565b015190505f80611e58565b601f19821695835f52805f20915f5b888110611f3b57508360019596979810611f23575b505050811b019055565b01515f1960f88460031b161c191690555f8080611f19565b91926020600181928685015181550194019201611f04565b90601f19831691845f52815f20925f5b818110611fa7575092600192859260059a999896611e87989610611f8f575b505050811b019055611e6f565b01515f1960f88460031b161c191690555f8080611f82565b92936020600181928786015181550195019301611f63565b634e487b7160e01b5f525f60045260245ffd5b90939192936006549360405192611fe88461195e565b60018060a01b03168352602083019182526040830190815260608301905f825260808401925f845260a08501978852600160401b87101561197957600187016006556120338761185a565b959095611fbf575185546001600160a01b0319166001600160a01b039190911617855551600185015551805160028501916001600160401b0382116119795761208082611e2d85546118a5565b602090601f831160011461215657826005979695936120b89593611e6c935f92611eea5750508160011b915f199060031b1c19161790565b5160048201550192519283516001600160401b038111611979576120e081611eaf84546118a5565b602094601f821160011461211157611ee69293949582915f92611eea5750508160011b915f199060031b1c19161790565b601f19821695835f52805f20915f5b88811061213e57508360019596979810611f2357505050811b019055565b91926020600181928685015181550194019201612120565b90601f19831691845f52815f20925f5b818110612191575092600192859260059a9998966120b8989610611f8f57505050811b019055611e6f565b92936020600181928786015181550195019301612166565b6121b2816122dd565b91815f52600460205260405f206121e060018060a01b03831680926001915f520160205260405f2054151590565b6122c757825f5260046020526121f98160405f2061279b565b50825f52600560205260405f20815f5260205260405f20600160ff1982541617905582600485019160018354018093557f5cbe105e36805f7820e291f799d5794ff948af2a5f664e580382defb633900415f80a36007541115806122b8575b61226157505050565b61226b90826123d2565b15612274575050565b8154604051635f226afd60e11b815260048101929092526001600160a01b03166024820152606060448201529081906122b49060648301906002016118dd565b0390fd5b5060ff60038401541615612258565b826347b467b960e11b5f5260045260245260445ffd5b906006548083101561231657506122f38261185a565b509160ff6003840154166123045750565b6393fbc70960e01b5f5260045260245ffd5b9050801561075b575f1981019081116107475790632d71397360e11b5f5260045260245260445ffd5b612349828261270e565b918261235457505090565b5f91825260016020526040909120612375916001600160a01b03169061259e565b5090565b337f00000000000000000000000000000000000000000000000000000000000000006001600160a01b031614806123c7575b156123c3576013193601368111610747573560601c90565b3390565b5060143610156123ab565b6123db8161185a565b509160038301805460ff811661257f5760019060ff191617815560018060a01b0384541660018501546002860190604051915f9080549061241b826118a5565b91600181169081156125685750600114612536575b5050915f939181859403925af13d15612531573d61244d81611a5c565b9061245b604051928361198d565b81525f60203d92013e5b15612521575081906001600160a01b03167f5445f318f4f5fcfb66592e68e0cc5822aa15664039bd5f0ffde24c5a8142b1ac5f80a3805f52600460205260405f20545f5b8181106124be5750505060045f910155600190565b825f52600460205260405f2090815415611891575f9182526020808320548584526005825260408085206001600160a01b03909216808652918352808520805460ff191690558685526004909252922060019261251a9161259e565b50016124a9565b805460ff19169055505f92915050565b612465565b9091505f5260205f205f905b82821061255457505082018183612430565b600181602092548488015201910190612542565b60ff19168652505080151502830190508183612430565b5050505050600190565b8054821015611891575f5260205f2001905f90565b906001820191815f528260205260405f20548015155f14612671575f1981018181116107475782545f1981019190821161074757818103612626575b50505080548015612612575f1901906125f38282612589565b8154905f199060031b1b19169055555f526020525f6040812055600190565b634e487b7160e01b5f52603160045260245ffd5b61265c6126366126469386612589565b90549060031b1c92839286612589565b819391549060031b91821b915f19901b19161790565b90555f528360205260405f20555f80806125da565b505050505f90565b5f818152602081815260408083206001600160a01b038616845290915290205460ff16612708575f818152602081815260408083206001600160a01b0386811685529252909120805460ff191660011790556126d3612379565b16916001600160a01b0316907f2f8788117e7eff1d82e926ec794901d17c78024a50270940304540a733656f0d5f80a4600190565b50505f90565b5f818152602081815260408083206001600160a01b038616845290915290205460ff1615612708575f818152602081815260408083206001600160a01b0386811685529252909120805460ff19169055612766612379565b16916001600160a01b0316907ff6391f5c32d9c69d2a47ea670b442974b53935d1edc7fd64eb21e047a839171b5f80a4600190565b5f82815260018201602052604090205461270857805490600160401b82101561197957826127d3612646846001809601855584612589565b90558054925f520160205260405f205560019056fee2f4eaae4a9751e85a3e4a7b9587827a877f29914755229b07a7b2da98285f70a26469706673582212200b2d9c147d6c2e67c0df5428313f0ffb94bcbf214c3c9ea38f7cd4fe7286667b64736f6c634300081c00332f8788117e7eff1d82e926ec794901d17c78024a50270940304540a733656f0de2f4eaae4a9751e85a3e4a7b9587827a877f29914755229b07a7b2da98285f70059f08e7d7ba1c82eddc57afae67f80df851baf38a099607a779825038c3ce5bad3228b676f7d3cd4284a5443f17f1962b36e491b30a40b2405849e597ba5fb52f8788117e7eff1d82e926ec794901d17c78024a50270940304540a733656f0d02dd7bc7dec4dceedda775e58dd541e08a116c6c53815c0bd028192f7b626800f0c57e16840df040f15088dc2f81fe391c3923bec73e23a9662efc9c229c6a00a264697066735822122063e85ee7a8244abad032b3ec5737e0dfa004867910b45709b67a4cb6e869668264736f6c634300081c0033f0c57e16840df040f15088dc2f81fe391c3923bec73e23a9662efc9c229c6a00","opcodes":"PUSH1 0xA0 CALLVALUE PUSH2 0x11E JUMPI PUSH1 0x1F PUSH2 0x404F CODESIZE DUP2 SWAP1 SUB SWAP2 DUP3 ADD PUSH1 0x1F NOT AND DUP4 ADD SWAP2 PUSH1 0x1 PUSH1 0x1 PUSH1 0x40 SHL SUB DUP4 GT DUP5 DUP5 LT OR PUSH2 0x122 JUMPI DUP1 DUP5 SWAP3 PUSH1 0x20 SWAP5 PUSH1 0x40 MSTORE DUP4 CODECOPY DUP2 ADD SUB SLT PUSH2 0x11E JUMPI MLOAD PUSH1 0x1 PUSH1 0x1 PUSH1 0xA0 SHL SUB DUP2 AND DUP2 SUB PUSH2 0x11E JUMPI PUSH1 0x80 MSTORE PUSH0 MLOAD PUSH1 0x20 PUSH2 0x402F PUSH0 CODECOPY PUSH0 MLOAD SWAP1 PUSH0 MSTORE SLOAD PUSH1 0xFF DUP2 PUSH1 0x40 SHR AND PUSH2 0x10F JUMPI PUSH1 0x2 PUSH1 0x1 PUSH1 0x40 SHL SUB NOT PUSH1 0x1 PUSH1 0x1 PUSH1 0x40 SHL SUB DUP3 AND ADD PUSH2 0xB9 JUMPI JUMPDEST PUSH1 0x40 MLOAD PUSH2 0x3EF8 SWAP1 DUP2 PUSH2 0x137 DUP3 CODECOPY PUSH1 0x80 MLOAD DUP2 DUP2 DUP2 PUSH2 0x223 ADD MSTORE DUP2 DUP2 PUSH2 0x575 ADD MSTORE DUP2 DUP2 PUSH2 0x5C4 ADD MSTORE DUP2 DUP2 PUSH2 0x84D ADD MSTORE PUSH2 0x10E9 ADD MSTORE RETURN JUMPDEST PUSH1 0x1 PUSH1 0x1 PUSH1 0x40 SHL SUB NOT AND PUSH1 0x1 PUSH1 0x1 PUSH1 0x40 SHL SUB SWAP1 DUP2 OR PUSH0 MLOAD PUSH1 0x20 PUSH2 0x402F PUSH0 CODECOPY PUSH0 MLOAD SWAP1 PUSH0 MSTORE SSTORE PUSH1 0x40 MLOAD SWAP1 DUP2 MSTORE PUSH32 0xC7F505B2F371AE2175EE4913F4499E1F2633A7B5936321EED1CDAEB6115181D2 SWAP1 PUSH1 0x20 SWAP1 LOG1 PUSH0 PUSH2 0x85 JUMP JUMPDEST PUSH4 0xF92EE8A9 PUSH1 0xE0 SHL PUSH0 MSTORE PUSH1 0x4 PUSH0 REVERT JUMPDEST PUSH0 DUP1 REVERT JUMPDEST PUSH4 0x4E487B71 PUSH1 0xE0 SHL PUSH0 MSTORE PUSH1 0x41 PUSH1 0x4 MSTORE PUSH1 0x24 PUSH0 REVERT INVALID PUSH1 0x80 DUP1 PUSH1 0x40 MSTORE PUSH1 0x4 CALLDATASIZE LT ISZERO PUSH2 0x12 JUMPI PUSH0 DUP1 REVERT JUMPDEST PUSH0 SWAP1 PUSH0 CALLDATALOAD PUSH1 0xE0 SHR SWAP1 DUP2 PUSH4 0x1FFC9A7 EQ PUSH2 0x96E JUMPI POP DUP1 PUSH4 0x229FFF60 EQ PUSH2 0x931 JUMPI DUP1 PUSH4 0x248A9CA3 EQ PUSH2 0x8F2 JUMPI DUP1 PUSH4 0x2F2FF15D EQ PUSH2 0x8A8 JUMPI DUP1 PUSH4 0x2F7EFA2F EQ PUSH2 0x80E JUMPI DUP1 PUSH4 0x36568ABE EQ PUSH2 0x7B8 JUMPI DUP1 PUSH4 0x485CC955 EQ PUSH2 0x615 JUMPI DUP1 PUSH4 0x4CD18577 EQ PUSH2 0x5F8 JUMPI DUP1 PUSH4 0x572B6C05 EQ PUSH2 0x5A4 JUMPI DUP1 PUSH4 0x7DA0A877 EQ PUSH2 0x560 JUMPI DUP1 PUSH4 0x7FE6496D EQ PUSH2 0x1D1 JUMPI DUP1 PUSH4 0x8F940F63 EQ PUSH2 0x196 JUMPI DUP1 PUSH4 0x91D14854 EQ PUSH2 0x140 JUMPI DUP1 PUSH4 0xA217FDDF EQ PUSH2 0x124 JUMPI DUP1 PUSH4 0xBCBD9EDB EQ PUSH2 0x124 JUMPI PUSH4 0xD547741F EQ PUSH2 0xCE JUMPI PUSH0 DUP1 REVERT JUMPDEST CALLVALUE PUSH2 0x121 JUMPI PUSH1 0x40 CALLDATASIZE PUSH1 0x3 NOT ADD SLT PUSH2 0x121 JUMPI PUSH2 0x11D PUSH1 0x4 CALLDATALOAD PUSH2 0xED PUSH2 0x9F1 JUMP JUMPDEST SWAP1 PUSH2 0x118 PUSH2 0x113 DUP3 PUSH0 MSTORE PUSH0 MLOAD PUSH1 0x20 PUSH2 0x3E83 PUSH0 CODECOPY PUSH0 MLOAD SWAP1 PUSH0 MSTORE PUSH1 0x20 MSTORE PUSH1 0x1 PUSH1 0x40 PUSH0 KECCAK256 ADD SLOAD SWAP1 JUMP JUMPDEST PUSH2 0xC35 JUMP JUMPDEST PUSH2 0xFF0 JUMP JUMPDEST POP DUP1 RETURN JUMPDEST DUP1 REVERT JUMPDEST POP CALLVALUE PUSH2 0x121 JUMPI DUP1 PUSH1 0x3 NOT CALLDATASIZE ADD SLT PUSH2 0x121 JUMPI PUSH1 0x20 SWAP1 PUSH1 0x40 MLOAD SWAP1 DUP2 MSTORE RETURN JUMPDEST POP CALLVALUE PUSH2 0x121 JUMPI PUSH1 0x40 CALLDATASIZE PUSH1 0x3 NOT ADD SLT PUSH2 0x121 JUMPI PUSH1 0x40 PUSH2 0x15C PUSH2 0x9F1 JUMP JUMPDEST SWAP2 PUSH1 0x4 CALLDATALOAD DUP2 MSTORE PUSH0 MLOAD PUSH1 0x20 PUSH2 0x3E83 PUSH0 CODECOPY PUSH0 MLOAD SWAP1 PUSH0 MSTORE PUSH1 0x20 MSTORE KECCAK256 SWAP1 PUSH1 0x1 DUP1 PUSH1 0xA0 SHL SUB AND PUSH0 MSTORE PUSH1 0x20 MSTORE PUSH1 0x20 PUSH1 0xFF PUSH1 0x40 PUSH0 KECCAK256 SLOAD AND PUSH1 0x40 MLOAD SWAP1 ISZERO ISZERO DUP2 MSTORE RETURN JUMPDEST POP CALLVALUE PUSH2 0x121 JUMPI DUP1 PUSH1 0x3 NOT CALLDATASIZE ADD SLT PUSH2 0x121 JUMPI PUSH1 0x20 PUSH1 0x40 MLOAD PUSH32 0x3AE60F3CEE742E6943392A49179DAB2C5E2991D2396B7CF8B808581ECB951BFD DUP2 MSTORE RETURN JUMPDEST POP CALLVALUE PUSH2 0x467 JUMPI PUSH2 0x20D PUSH2 0x24C PUSH2 0x25A PUSH2 0x21B PUSH2 0x1EC CALLDATASIZE PUSH2 0xA3D JUMP JUMPDEST PUSH2 0x1FA SWAP7 SWAP4 SWAP3 SWAP5 SWAP2 SWAP7 PUSH2 0xBA7 JUMP JUMPDEST PUSH1 0x40 MLOAD SWAP8 DUP9 SWAP2 DUP9 DUP8 DUP7 ADDRESS PUSH1 0x20 DUP8 ADD PUSH2 0xB30 JUMP JUMPDEST SUB PUSH1 0x1F NOT DUP2 ADD DUP9 MSTORE DUP8 PUSH2 0xA07 JUMP JUMPDEST PUSH1 0x40 MLOAD SWAP5 DUP6 SWAP4 PUSH32 0x0 SWAP3 PUSH1 0x20 DUP7 ADD PUSH2 0xB71 JUMP JUMPDEST SUB PUSH1 0x1F NOT DUP2 ADD DUP4 MSTORE DUP3 PUSH2 0xA07 JUMP JUMPDEST PUSH1 0x40 MLOAD SWAP1 PUSH2 0x2D0F PUSH2 0x26E PUSH1 0x20 DUP3 ADD DUP5 PUSH2 0xA07 JUMP JUMPDEST DUP1 DUP4 MSTORE PUSH2 0x1154 PUSH1 0x20 DUP5 ADD CODECOPY PUSH2 0x284 DUP4 DUP3 DUP5 PUSH2 0xFB2 JUMP JUMPDEST PUSH2 0x28C PUSH2 0xBA7 JUMP JUMPDEST PUSH1 0x1 PUSH1 0x1 PUSH1 0xA0 SHL SUB AND PUSH0 DUP2 DUP2 MSTORE PUSH1 0x1 PUSH1 0x20 MSTORE PUSH1 0x40 SWAP1 KECCAK256 SLOAD SWAP1 SWAP4 SWAP1 PUSH1 0xFF AND PUSH2 0x54D JUMPI SWAP1 PUSH2 0x2BA PUSH2 0x2C0 SWAP3 PUSH2 0x1099 JUMP JUMPDEST SWAP3 PUSH2 0xF72 JUMP JUMPDEST DUP1 MLOAD ISZERO PUSH2 0x53E JUMPI PUSH1 0x20 DUP2 MLOAD SWAP2 ADD PUSH0 CREATE2 RETURNDATASIZE ISZERO NOT DUP2 ISZERO AND PUSH2 0x45C JUMPI PUSH1 0x1 PUSH1 0x1 PUSH1 0xA0 SHL SUB AND SWAP1 DUP2 ISZERO PUSH2 0x52F JUMPI DUP2 SUB PUSH2 0x520 JUMPI DUP1 PUSH0 MSTORE PUSH1 0x1 PUSH1 0x20 MSTORE PUSH1 0x40 PUSH0 KECCAK256 PUSH1 0x1 PUSH1 0xFF NOT DUP3 SLOAD AND OR SWAP1 SSTORE PUSH1 0x4 PUSH1 0x20 PUSH1 0x1 DUP1 PUSH1 0xA0 SHL SUB PUSH0 SLOAD AND PUSH1 0x40 MLOAD SWAP3 DUP4 DUP1 SWAP3 PUSH4 0x98468E51 PUSH1 0xE0 SHL DUP3 MSTORE GAS STATICCALL SWAP1 DUP2 ISZERO PUSH2 0x45C JUMPI PUSH0 SWAP2 PUSH2 0x4DE JUMPI JUMPDEST POP PUSH1 0x1 PUSH1 0x1 PUSH1 0xA0 SHL SUB AND DUP1 ISZERO ISZERO DUP1 PUSH2 0x46B JUMPI JUMPDEST PUSH2 0x417 JUMPI JUMPDEST POP PUSH1 0x1 PUSH1 0x1 PUSH1 0xA0 SHL SUB PUSH2 0x35E PUSH2 0x10E6 JUMP JUMPDEST AND SWAP1 PUSH1 0x40 MLOAD SWAP2 DUP2 PUSH32 0xDD4F4EDAF8AF94A1C44F788AC4E78153A8FE0110733F3090D0C6AC09EAB17298 DUP6 DUP1 LOG3 PUSH1 0x2 SLOAD PUSH9 0x10000000000000000 DUP2 LT ISZERO PUSH2 0x403 JUMPI PUSH1 0x1 DUP2 ADD DUP1 PUSH1 0x2 SSTORE DUP2 LT ISZERO PUSH2 0x3EF JUMPI PUSH1 0x2 PUSH1 0x20 SWAP5 MSTORE PUSH32 0x405787FA12A823E0F2B7631CC41B3BA8828B3321CA811111FA75CD3AA3BB5ACE ADD DUP2 PUSH12 0xFFFFFFFFFFFFFFFFFFFFFFFF PUSH1 0xA0 SHL DUP3 SLOAD AND OR SWAP1 SSTORE DUP2 MSTORE RETURN JUMPDEST PUSH4 0x4E487B71 PUSH1 0xE0 SHL DUP5 MSTORE PUSH1 0x32 PUSH1 0x4 MSTORE PUSH1 0x24 DUP5 REVERT JUMPDEST PUSH4 0x4E487B71 PUSH1 0xE0 SHL DUP5 MSTORE PUSH1 0x41 PUSH1 0x4 MSTORE PUSH1 0x24 DUP5 REVERT JUMPDEST DUP1 EXTCODESIZE ISZERO PUSH2 0x467 JUMPI PUSH0 DUP1 SWAP2 PUSH1 0x24 PUSH1 0x40 MLOAD DUP1 SWAP5 DUP2 SWAP4 PUSH4 0x1105E3D5 PUSH1 0xE3 SHL DUP4 MSTORE DUP8 PUSH1 0x4 DUP5 ADD MSTORE GAS CALL DUP1 ISZERO PUSH2 0x45C JUMPI ISZERO PUSH2 0x34D JUMPI PUSH2 0x454 SWAP2 SWAP3 POP PUSH0 SWAP1 PUSH2 0xA07 JUMP JUMPDEST PUSH0 SWAP1 PUSH0 PUSH2 0x34D JUMP JUMPDEST PUSH1 0x40 MLOAD RETURNDATASIZE PUSH0 DUP3 RETURNDATACOPY RETURNDATASIZE SWAP1 REVERT JUMPDEST PUSH0 DUP1 REVERT JUMPDEST POP PUSH1 0x40 MLOAD PUSH4 0x1FFC9A7 PUSH1 0xE0 SHL DUP2 MSTORE PUSH4 0x118F21F7 PUSH1 0xE3 SHL PUSH1 0x4 DUP3 ADD MSTORE PUSH1 0x20 DUP2 PUSH1 0x24 DUP2 DUP6 GAS STATICCALL SWAP1 DUP2 ISZERO PUSH2 0x45C JUMPI PUSH0 SWAP2 PUSH2 0x4A3 JUMPI JUMPDEST POP PUSH2 0x348 JUMP JUMPDEST SWAP1 POP PUSH1 0x20 DUP2 RETURNDATASIZE PUSH1 0x20 GT PUSH2 0x4D6 JUMPI JUMPDEST DUP2 PUSH2 0x4BE PUSH1 0x20 SWAP4 DUP4 PUSH2 0xA07 JUMP JUMPDEST DUP2 ADD SUB SLT PUSH2 0x467 JUMPI MLOAD DUP1 ISZERO ISZERO DUP2 SUB PUSH2 0x467 JUMPI PUSH0 PUSH2 0x49D JUMP JUMPDEST RETURNDATASIZE SWAP2 POP PUSH2 0x4B1 JUMP JUMPDEST SWAP1 POP PUSH1 0x20 DUP2 RETURNDATASIZE PUSH1 0x20 GT PUSH2 0x518 JUMPI JUMPDEST DUP2 PUSH2 0x4F9 PUSH1 0x20 SWAP4 DUP4 PUSH2 0xA07 JUMP JUMPDEST DUP2 ADD SUB SLT PUSH2 0x467 JUMPI MLOAD PUSH1 0x1 PUSH1 0x1 PUSH1 0xA0 SHL SUB DUP2 AND DUP2 SUB PUSH2 0x467 JUMPI PUSH0 PUSH2 0x335 JUMP JUMPDEST RETURNDATASIZE SWAP2 POP PUSH2 0x4EC JUMP JUMPDEST PUSH4 0x35279F5D PUSH1 0xE2 SHL PUSH0 MSTORE PUSH1 0x4 PUSH0 REVERT JUMPDEST PUSH4 0xB06EBF3D PUSH1 0xE0 SHL PUSH0 MSTORE PUSH1 0x4 PUSH0 REVERT JUMPDEST PUSH4 0x13289277 PUSH1 0xE2 SHL PUSH0 MSTORE PUSH1 0x4 PUSH0 REVERT JUMPDEST DUP4 PUSH4 0xD0DC5949 PUSH1 0xE0 SHL PUSH0 MSTORE PUSH1 0x4 MSTORE PUSH1 0x24 PUSH0 REVERT JUMPDEST CALLVALUE PUSH2 0x467 JUMPI PUSH0 CALLDATASIZE PUSH1 0x3 NOT ADD SLT PUSH2 0x467 JUMPI PUSH1 0x40 MLOAD PUSH32 0x0 PUSH1 0x1 PUSH1 0x1 PUSH1 0xA0 SHL SUB AND DUP2 MSTORE PUSH1 0x20 SWAP1 RETURN JUMPDEST CALLVALUE PUSH2 0x467 JUMPI PUSH1 0x20 CALLDATASIZE PUSH1 0x3 NOT ADD SLT PUSH2 0x467 JUMPI PUSH1 0x20 PUSH2 0x5BF PUSH2 0x9DB JUMP JUMPDEST PUSH1 0x40 MLOAD PUSH32 0x0 PUSH1 0x1 PUSH1 0x1 PUSH1 0xA0 SHL SUB SWAP1 DUP2 AND SWAP3 AND SWAP2 SWAP1 SWAP2 EQ DUP2 MSTORE RETURN JUMPDEST CALLVALUE PUSH2 0x467 JUMPI PUSH0 CALLDATASIZE PUSH1 0x3 NOT ADD SLT PUSH2 0x467 JUMPI PUSH1 0x20 PUSH1 0x2 SLOAD PUSH1 0x40 MLOAD SWAP1 DUP2 MSTORE RETURN JUMPDEST CALLVALUE PUSH2 0x467 JUMPI PUSH1 0x40 CALLDATASIZE PUSH1 0x3 NOT ADD SLT PUSH2 0x467 JUMPI PUSH2 0x62E PUSH2 0x9DB JUMP JUMPDEST PUSH2 0x636 PUSH2 0x9F1 JUMP JUMPDEST SWAP1 PUSH0 MLOAD PUSH1 0x20 PUSH2 0x3EA3 PUSH0 CODECOPY PUSH0 MLOAD SWAP1 PUSH0 MSTORE SLOAD SWAP2 PUSH1 0xFF DUP4 PUSH1 0x40 SHR AND ISZERO SWAP3 PUSH8 0xFFFFFFFFFFFFFFFF DUP2 AND DUP1 ISZERO SWAP1 DUP2 PUSH2 0x7B0 JUMPI JUMPDEST PUSH1 0x1 EQ SWAP1 DUP2 PUSH2 0x7A6 JUMPI JUMPDEST ISZERO SWAP1 DUP2 PUSH2 0x79D JUMPI JUMPDEST POP PUSH2 0x78E JUMPI PUSH8 0xFFFFFFFFFFFFFFFF NOT DUP2 AND PUSH1 0x1 OR PUSH0 MLOAD PUSH1 0x20 PUSH2 0x3EA3 PUSH0 CODECOPY PUSH0 MLOAD SWAP1 PUSH0 MSTORE SSTORE DUP4 PUSH2 0x762 JUMPI JUMPDEST POP PUSH1 0xFF PUSH0 MLOAD PUSH1 0x20 PUSH2 0x3EA3 PUSH0 CODECOPY PUSH0 MLOAD SWAP1 PUSH0 MSTORE SLOAD PUSH1 0x40 SHR AND ISZERO PUSH2 0x753 JUMPI DUP1 PUSH2 0x6C7 PUSH2 0x6D7 SWAP3 PUSH2 0xC91 JUMP JUMPDEST POP PUSH2 0x6D1 DUP2 PUSH2 0xD40 JUMP JUMPDEST POP PUSH2 0xE0A JUMP JUMPDEST POP PUSH1 0x1 DUP1 PUSH1 0xA0 SHL SUB AND PUSH12 0xFFFFFFFFFFFFFFFFFFFFFFFF PUSH1 0xA0 SHL PUSH0 SLOAD AND OR PUSH0 SSTORE PUSH2 0x6FC JUMPI STOP JUMPDEST PUSH9 0xFF0000000000000000 NOT PUSH0 MLOAD PUSH1 0x20 PUSH2 0x3EA3 PUSH0 CODECOPY PUSH0 MLOAD SWAP1 PUSH0 MSTORE SLOAD AND PUSH0 MLOAD PUSH1 0x20 PUSH2 0x3EA3 PUSH0 CODECOPY PUSH0 MLOAD SWAP1 PUSH0 MSTORE SSTORE PUSH32 0xC7F505B2F371AE2175EE4913F4499E1F2633A7B5936321EED1CDAEB6115181D2 PUSH1 0x20 PUSH1 0x40 MLOAD PUSH1 0x1 DUP2 MSTORE LOG1 STOP JUMPDEST PUSH4 0x1AFCD79F PUSH1 0xE3 SHL PUSH0 MSTORE PUSH1 0x4 PUSH0 REVERT JUMPDEST PUSH9 0xFFFFFFFFFFFFFFFFFF NOT AND PUSH9 0x10000000000000001 OR PUSH0 MLOAD PUSH1 0x20 PUSH2 0x3EA3 PUSH0 CODECOPY PUSH0 MLOAD SWAP1 PUSH0 MSTORE SSTORE DUP4 PUSH2 0x69F JUMP JUMPDEST PUSH4 0xF92EE8A9 PUSH1 0xE0 SHL PUSH0 MSTORE PUSH1 0x4 PUSH0 REVERT JUMPDEST SWAP1 POP ISZERO DUP6 PUSH2 0x676 JUMP JUMPDEST ADDRESS EXTCODESIZE ISZERO SWAP2 POP PUSH2 0x66E JUMP JUMPDEST DUP6 SWAP2 POP PUSH2 0x664 JUMP JUMPDEST CALLVALUE PUSH2 0x467 JUMPI PUSH1 0x40 CALLDATASIZE PUSH1 0x3 NOT ADD SLT PUSH2 0x467 JUMPI PUSH2 0x7D1 PUSH2 0x9F1 JUMP JUMPDEST PUSH1 0x1 PUSH1 0x1 PUSH1 0xA0 SHL SUB PUSH2 0x7E1 PUSH2 0x10E6 JUMP JUMPDEST AND PUSH1 0x1 PUSH1 0x1 PUSH1 0xA0 SHL SUB DUP3 AND SUB PUSH2 0x7FF JUMPI PUSH2 0x7FD SWAP1 PUSH1 0x4 CALLDATALOAD PUSH2 0xFF0 JUMP JUMPDEST STOP JUMPDEST PUSH4 0x334BD919 PUSH1 0xE1 SHL PUSH0 MSTORE PUSH1 0x4 PUSH0 REVERT JUMPDEST CALLVALUE PUSH2 0x467 JUMPI PUSH1 0x20 PUSH2 0x896 PUSH2 0x20D PUSH2 0x24C PUSH2 0x875 PUSH2 0x845 PUSH2 0x82D CALLDATASIZE PUSH2 0xA3D JUMP JUMPDEST PUSH1 0x40 SWAP7 SWAP4 SWAP3 SWAP5 SWAP2 SWAP7 MLOAD SWAP8 DUP9 SWAP2 DUP9 DUP8 DUP7 ADDRESS DUP16 DUP8 ADD PUSH2 0xB30 JUMP JUMPDEST PUSH1 0x40 MLOAD SWAP5 DUP6 SWAP4 PUSH32 0x0 SWAP3 DUP11 DUP7 ADD PUSH2 0xB71 JUMP JUMPDEST PUSH1 0x40 MLOAD PUSH2 0x2D0F PUSH2 0x887 DUP7 DUP3 ADD DUP4 PUSH2 0xA07 JUMP JUMPDEST DUP1 DUP3 MSTORE PUSH2 0x1154 DUP7 DUP4 ADD CODECOPY PUSH2 0xFB2 JUMP JUMPDEST PUSH1 0x40 MLOAD PUSH1 0x1 PUSH1 0x1 PUSH1 0xA0 SHL SUB SWAP1 SWAP2 AND DUP2 MSTORE RETURN JUMPDEST CALLVALUE PUSH2 0x467 JUMPI PUSH1 0x40 CALLDATASIZE PUSH1 0x3 NOT ADD SLT PUSH2 0x467 JUMPI PUSH2 0x7FD PUSH1 0x4 CALLDATALOAD PUSH2 0x8C7 PUSH2 0x9F1 JUMP JUMPDEST SWAP1 PUSH2 0x8ED PUSH2 0x113 DUP3 PUSH0 MSTORE PUSH0 MLOAD PUSH1 0x20 PUSH2 0x3E83 PUSH0 CODECOPY PUSH0 MLOAD SWAP1 PUSH0 MSTORE PUSH1 0x20 MSTORE PUSH1 0x1 PUSH1 0x40 PUSH0 KECCAK256 ADD SLOAD SWAP1 JUMP JUMPDEST PUSH2 0xED4 JUMP JUMPDEST CALLVALUE PUSH2 0x467 JUMPI PUSH1 0x20 CALLDATASIZE PUSH1 0x3 NOT ADD SLT PUSH2 0x467 JUMPI PUSH1 0x20 PUSH2 0x929 PUSH1 0x4 CALLDATALOAD PUSH0 MSTORE PUSH0 MLOAD PUSH1 0x20 PUSH2 0x3E83 PUSH0 CODECOPY PUSH0 MLOAD SWAP1 PUSH0 MSTORE PUSH1 0x20 MSTORE PUSH1 0x1 PUSH1 0x40 PUSH0 KECCAK256 ADD SLOAD SWAP1 JUMP JUMPDEST PUSH1 0x40 MLOAD SWAP1 DUP2 MSTORE RETURN JUMPDEST CALLVALUE PUSH2 0x467 JUMPI PUSH1 0x20 CALLDATASIZE PUSH1 0x3 NOT ADD SLT PUSH2 0x467 JUMPI PUSH1 0x1 PUSH1 0x1 PUSH1 0xA0 SHL SUB PUSH2 0x952 PUSH2 0x9DB JUMP JUMPDEST AND PUSH0 MSTORE PUSH1 0x1 PUSH1 0x20 MSTORE PUSH1 0x20 PUSH1 0xFF PUSH1 0x40 PUSH0 KECCAK256 SLOAD AND PUSH1 0x40 MLOAD SWAP1 ISZERO ISZERO DUP2 MSTORE RETURN JUMPDEST CALLVALUE PUSH2 0x467 JUMPI PUSH1 0x20 CALLDATASIZE PUSH1 0x3 NOT ADD SLT PUSH2 0x467 JUMPI PUSH1 0x4 CALLDATALOAD SWAP1 PUSH4 0xFFFFFFFF PUSH1 0xE0 SHL DUP3 AND DUP1 SWAP3 SUB PUSH2 0x467 JUMPI PUSH1 0x20 SWAP2 PUSH4 0x291E7933 PUSH1 0xE2 SHL DUP2 EQ SWAP1 DUP2 ISZERO PUSH2 0x9B0 JUMPI JUMPDEST POP ISZERO ISZERO DUP2 MSTORE RETURN JUMPDEST PUSH4 0x7965DB0B PUSH1 0xE0 SHL DUP2 EQ SWAP2 POP DUP2 ISZERO PUSH2 0x9CA JUMPI JUMPDEST POP DUP4 PUSH2 0x9A9 JUMP JUMPDEST PUSH4 0x1FFC9A7 PUSH1 0xE0 SHL EQ SWAP1 POP DUP4 PUSH2 0x9C3 JUMP JUMPDEST PUSH1 0x4 CALLDATALOAD SWAP1 PUSH1 0x1 PUSH1 0x1 PUSH1 0xA0 SHL SUB DUP3 AND DUP3 SUB PUSH2 0x467 JUMPI JUMP JUMPDEST PUSH1 0x24 CALLDATALOAD SWAP1 PUSH1 0x1 PUSH1 0x1 PUSH1 0xA0 SHL SUB DUP3 AND DUP3 SUB PUSH2 0x467 JUMPI JUMP JUMPDEST SWAP1 PUSH1 0x1F DUP1 NOT SWAP2 ADD AND DUP2 ADD SWAP1 DUP2 LT PUSH8 0xFFFFFFFFFFFFFFFF DUP3 GT OR PUSH2 0xA29 JUMPI PUSH1 0x40 MSTORE JUMP JUMPDEST PUSH4 0x4E487B71 PUSH1 0xE0 SHL PUSH0 MSTORE PUSH1 0x41 PUSH1 0x4 MSTORE PUSH1 0x24 PUSH0 REVERT JUMPDEST PUSH1 0x80 PUSH1 0x3 NOT DUP3 ADD SLT PUSH2 0x467 JUMPI PUSH1 0x4 CALLDATALOAD PUSH8 0xFFFFFFFFFFFFFFFF DUP2 GT PUSH2 0x467 JUMPI DUP2 PUSH1 0x23 DUP3 ADD SLT ISZERO PUSH2 0x467 JUMPI DUP1 PUSH1 0x4 ADD CALLDATALOAD SWAP2 PUSH8 0xFFFFFFFFFFFFFFFF DUP4 GT PUSH2 0xA29 JUMPI DUP3 PUSH1 0x5 SHL SWAP2 PUSH1 0x40 MLOAD SWAP4 PUSH2 0xA91 PUSH1 0x20 DUP6 ADD DUP7 PUSH2 0xA07 JUMP JUMPDEST DUP5 MSTORE PUSH1 0x24 PUSH1 0x20 DUP6 ADD SWAP4 DUP3 ADD ADD SWAP2 DUP3 GT PUSH2 0x467 JUMPI PUSH1 0x24 ADD SWAP2 JUMPDEST DUP2 DUP4 LT PUSH2 0xAD4 JUMPI POP SWAP2 SWAP3 PUSH1 0x24 CALLDATALOAD SWAP3 POP SWAP1 POP PUSH1 0x44 CALLDATALOAD PUSH1 0x1 PUSH1 0x1 PUSH1 0xA0 SHL SUB DUP2 AND DUP2 SUB PUSH2 0x467 JUMPI SWAP1 PUSH1 0x64 CALLDATALOAD SWAP1 JUMP JUMPDEST DUP3 CALLDATALOAD PUSH1 0x1 PUSH1 0x1 PUSH1 0xA0 SHL SUB DUP2 AND DUP2 SUB PUSH2 0x467 JUMPI DUP2 MSTORE PUSH1 0x20 SWAP3 DUP4 ADD SWAP3 ADD PUSH2 0xAA9 JUMP JUMPDEST SWAP1 PUSH1 0x20 DUP1 DUP4 MLOAD SWAP3 DUP4 DUP2 MSTORE ADD SWAP3 ADD SWAP1 PUSH0 JUMPDEST DUP2 DUP2 LT PUSH2 0xB11 JUMPI POP POP POP SWAP1 JUMP JUMPDEST DUP3 MLOAD PUSH1 0x1 PUSH1 0x1 PUSH1 0xA0 SHL SUB AND DUP5 MSTORE PUSH1 0x20 SWAP4 DUP5 ADD SWAP4 SWAP1 SWAP3 ADD SWAP2 PUSH1 0x1 ADD PUSH2 0xB04 JUMP JUMPDEST SWAP2 PUSH2 0xB57 SWAP1 PUSH1 0x80 SWAP5 SWAP8 SWAP7 SWAP6 SWAP3 PUSH1 0x1 DUP1 PUSH1 0xA0 SHL SUB AND DUP5 MSTORE PUSH1 0xA0 PUSH1 0x20 DUP6 ADD MSTORE PUSH1 0xA0 DUP5 ADD SWAP1 PUSH2 0xAF4 JUMP JUMPDEST PUSH1 0x40 DUP4 ADD SWAP7 SWAP1 SWAP7 MSTORE PUSH1 0x1 PUSH1 0x1 PUSH1 0xA0 SHL SUB AND PUSH1 0x60 DUP3 ADD MSTORE ADD MSTORE JUMP JUMPDEST SWAP3 PUSH2 0xB89 PUSH1 0x60 SWAP4 SWAP7 SWAP6 SWAP3 PUSH1 0x80 DUP7 MSTORE PUSH1 0x80 DUP7 ADD SWAP1 PUSH2 0xAF4 JUMP JUMPDEST PUSH1 0x20 DUP6 ADD SWAP7 SWAP1 SWAP7 MSTORE PUSH1 0x1 PUSH1 0x1 PUSH1 0xA0 SHL SUB SWAP1 DUP2 AND PUSH1 0x40 DUP6 ADD MSTORE AND SWAP2 ADD MSTORE JUMP JUMPDEST PUSH2 0xBAF PUSH2 0x10E6 JUMP JUMPDEST PUSH1 0x1 PUSH1 0x1 PUSH1 0xA0 SHL SUB DUP2 AND PUSH0 SWAP1 DUP2 MSTORE PUSH32 0x8F7E9A8734279607AEAAC474F24949DDC99EAE25C0DA72EDCF5AD21022BE2C9E PUSH1 0x20 MSTORE PUSH1 0x40 SWAP1 KECCAK256 SLOAD PUSH1 0xFF AND ISZERO PUSH2 0xBF1 JUMPI POP JUMP JUMPDEST PUSH4 0xE2517D3F PUSH1 0xE0 SHL PUSH0 SWAP1 DUP2 MSTORE PUSH1 0x1 PUSH1 0x1 PUSH1 0xA0 SHL SUB SWAP2 SWAP1 SWAP2 AND PUSH1 0x4 MSTORE PUSH32 0xFC425F2263D0DF187444B70E47283D622C70181C5BAEBB1306A01EDBA1CE184C PUSH1 0x24 MSTORE PUSH1 0x44 SWAP1 REVERT JUMPDEST PUSH2 0xC3D PUSH2 0x10E6 JUMP JUMPDEST DUP2 PUSH0 MSTORE PUSH0 MLOAD PUSH1 0x20 PUSH2 0x3E83 PUSH0 CODECOPY PUSH0 MLOAD SWAP1 PUSH0 MSTORE PUSH1 0x20 MSTORE PUSH1 0x40 PUSH0 KECCAK256 PUSH1 0x1 DUP1 PUSH1 0xA0 SHL SUB DUP3 AND PUSH0 MSTORE PUSH1 0x20 MSTORE PUSH1 0xFF PUSH1 0x40 PUSH0 KECCAK256 SLOAD AND ISZERO PUSH2 0xC74 JUMPI POP POP JUMP JUMPDEST PUSH4 0xE2517D3F PUSH1 0xE0 SHL PUSH0 MSTORE PUSH1 0x1 DUP1 PUSH1 0xA0 SHL SUB AND PUSH1 0x4 MSTORE PUSH1 0x24 MSTORE PUSH1 0x44 PUSH0 REVERT JUMPDEST PUSH1 0x1 PUSH1 0x1 PUSH1 0xA0 SHL SUB DUP2 AND PUSH0 SWAP1 DUP2 MSTORE PUSH32 0xB7DB2DD08FCB62D0C9E08C51941CAE53C267786A0B75803FB7960902FC8EF97D PUSH1 0x20 MSTORE PUSH1 0x40 SWAP1 KECCAK256 SLOAD PUSH1 0xFF AND PUSH2 0xD3B JUMPI PUSH1 0x1 PUSH1 0x1 PUSH1 0xA0 SHL SUB DUP2 DUP2 AND PUSH0 SWAP1 DUP2 MSTORE PUSH32 0xB7DB2DD08FCB62D0C9E08C51941CAE53C267786A0B75803FB7960902FC8EF97D PUSH1 0x20 MSTORE PUSH1 0x40 SWAP1 KECCAK256 DUP1 SLOAD PUSH1 0xFF NOT AND PUSH1 0x1 OR SWAP1 SSTORE PUSH2 0xD19 PUSH2 0x10E6 JUMP JUMPDEST AND SWAP1 PUSH1 0x1 PUSH1 0x1 PUSH1 0xA0 SHL SUB AND PUSH0 PUSH0 MLOAD PUSH1 0x20 PUSH2 0x3E63 PUSH0 CODECOPY PUSH0 MLOAD SWAP1 PUSH0 MSTORE DUP2 DUP1 LOG4 PUSH1 0x1 SWAP1 JUMP JUMPDEST POP PUSH0 SWAP1 JUMP JUMPDEST PUSH1 0x1 PUSH1 0x1 PUSH1 0xA0 SHL SUB DUP2 AND PUSH0 SWAP1 DUP2 MSTORE PUSH32 0xB121B6C2CFB68D56D259FA39ABD93D7A85E352365BBCBDDF27041E20D031C3D3 PUSH1 0x20 MSTORE PUSH1 0x40 SWAP1 KECCAK256 SLOAD PUSH1 0xFF AND PUSH2 0xD3B JUMPI PUSH1 0x1 PUSH1 0x1 PUSH1 0xA0 SHL SUB DUP2 DUP2 AND PUSH0 SWAP1 DUP2 MSTORE PUSH32 0xB121B6C2CFB68D56D259FA39ABD93D7A85E352365BBCBDDF27041E20D031C3D3 PUSH1 0x20 MSTORE PUSH1 0x40 SWAP1 KECCAK256 DUP1 SLOAD PUSH1 0xFF NOT AND PUSH1 0x1 OR SWAP1 SSTORE PUSH2 0xDC8 PUSH2 0x10E6 JUMP JUMPDEST AND SWAP1 PUSH1 0x1 PUSH1 0x1 PUSH1 0xA0 SHL SUB AND PUSH32 0xECAEFA0171C08A6DED02D98B9432940D3852EF2C7F5007661EB8DE37C5A1ADC5 PUSH0 MLOAD PUSH1 0x20 PUSH2 0x3E63 PUSH0 CODECOPY PUSH0 MLOAD SWAP1 PUSH0 MSTORE PUSH0 DUP1 LOG4 PUSH1 0x1 SWAP1 JUMP JUMPDEST PUSH1 0x1 PUSH1 0x1 PUSH1 0xA0 SHL SUB DUP2 AND PUSH0 SWAP1 DUP2 MSTORE PUSH32 0x8F7E9A8734279607AEAAC474F24949DDC99EAE25C0DA72EDCF5AD21022BE2C9E PUSH1 0x20 MSTORE PUSH1 0x40 SWAP1 KECCAK256 SLOAD PUSH1 0xFF AND PUSH2 0xD3B JUMPI PUSH1 0x1 PUSH1 0x1 PUSH1 0xA0 SHL SUB DUP2 DUP2 AND PUSH0 SWAP1 DUP2 MSTORE PUSH32 0x8F7E9A8734279607AEAAC474F24949DDC99EAE25C0DA72EDCF5AD21022BE2C9E PUSH1 0x20 MSTORE PUSH1 0x40 SWAP1 KECCAK256 DUP1 SLOAD PUSH1 0xFF NOT AND PUSH1 0x1 OR SWAP1 SSTORE PUSH2 0xE92 PUSH2 0x10E6 JUMP JUMPDEST AND SWAP1 PUSH1 0x1 PUSH1 0x1 PUSH1 0xA0 SHL SUB AND PUSH32 0xFC425F2263D0DF187444B70E47283D622C70181C5BAEBB1306A01EDBA1CE184C PUSH0 MLOAD PUSH1 0x20 PUSH2 0x3E63 PUSH0 CODECOPY PUSH0 MLOAD SWAP1 PUSH0 MSTORE PUSH0 DUP1 LOG4 PUSH1 0x1 SWAP1 JUMP JUMPDEST PUSH0 DUP2 DUP2 MSTORE PUSH0 MLOAD PUSH1 0x20 PUSH2 0x3E83 PUSH0 CODECOPY PUSH0 MLOAD SWAP1 PUSH0 MSTORE PUSH1 0x20 SWAP1 DUP2 MSTORE PUSH1 0x40 DUP1 DUP4 KECCAK256 PUSH1 0x1 PUSH1 0x1 PUSH1 0xA0 SHL SUB DUP7 AND DUP5 MSTORE SWAP1 SWAP2 MSTORE SWAP1 KECCAK256 SLOAD PUSH1 0xFF AND PUSH2 0xF6C JUMPI PUSH0 DUP2 DUP2 MSTORE PUSH0 MLOAD PUSH1 0x20 PUSH2 0x3E83 PUSH0 CODECOPY PUSH0 MLOAD SWAP1 PUSH0 MSTORE PUSH1 0x20 SWAP1 DUP2 MSTORE PUSH1 0x40 DUP1 DUP4 KECCAK256 PUSH1 0x1 PUSH1 0x1 PUSH1 0xA0 SHL SUB DUP7 DUP2 AND DUP6 MSTORE SWAP3 MSTORE SWAP1 SWAP2 KECCAK256 DUP1 SLOAD PUSH1 0xFF NOT AND PUSH1 0x1 OR SWAP1 SSTORE PUSH2 0xF4A PUSH2 0x10E6 JUMP JUMPDEST AND SWAP2 PUSH1 0x1 PUSH1 0x1 PUSH1 0xA0 SHL SUB AND SWAP1 PUSH0 MLOAD PUSH1 0x20 PUSH2 0x3E63 PUSH0 CODECOPY PUSH0 MLOAD SWAP1 PUSH0 MSTORE PUSH0 DUP1 LOG4 PUSH1 0x1 SWAP1 JUMP JUMPDEST POP POP PUSH0 SWAP1 JUMP JUMPDEST PUSH2 0xFB0 SWAP1 PUSH1 0x20 DUP1 DUP1 SWAP6 SWAP5 PUSH1 0x40 MLOAD SWAP7 DUP5 DUP9 SWAP6 MLOAD SWAP2 DUP3 SWAP2 ADD DUP5 DUP8 ADD MCOPY DUP5 ADD SWAP1 DUP3 DUP3 ADD PUSH0 DUP2 MSTORE DUP2 MLOAD SWAP4 DUP5 SWAP3 ADD SWAP1 MCOPY ADD ADD PUSH0 DUP2 MSTORE SUB PUSH1 0x1F NOT DUP2 ADD DUP5 MSTORE DUP4 PUSH2 0xA07 JUMP JUMPDEST JUMP JUMPDEST SWAP1 PUSH2 0xFC2 SWAP1 PUSH2 0x2BA PUSH1 0xB SWAP5 PUSH2 0x1099 JUMP JUMPDEST PUSH1 0x20 DUP2 MLOAD SWAP2 ADD KECCAK256 SWAP1 PUSH1 0x40 MLOAD SWAP2 PUSH1 0x40 DUP4 ADD MSTORE PUSH1 0x20 DUP3 ADD MSTORE ADDRESS DUP2 MSTORE ADD PUSH1 0xFF DUP2 MSTORE8 PUSH1 0x55 SWAP1 KECCAK256 PUSH1 0x1 PUSH1 0x1 PUSH1 0xA0 SHL SUB AND SWAP1 JUMP JUMPDEST PUSH0 DUP2 DUP2 MSTORE PUSH0 MLOAD PUSH1 0x20 PUSH2 0x3E83 PUSH0 CODECOPY PUSH0 MLOAD SWAP1 PUSH0 MSTORE PUSH1 0x20 SWAP1 DUP2 MSTORE PUSH1 0x40 DUP1 DUP4 KECCAK256 PUSH1 0x1 PUSH1 0x1 PUSH1 0xA0 SHL SUB DUP7 AND DUP5 MSTORE SWAP1 SWAP2 MSTORE SWAP1 KECCAK256 SLOAD PUSH1 0xFF AND ISZERO PUSH2 0xF6C JUMPI PUSH0 DUP2 DUP2 MSTORE PUSH0 MLOAD PUSH1 0x20 PUSH2 0x3E83 PUSH0 CODECOPY PUSH0 MLOAD SWAP1 PUSH0 MSTORE PUSH1 0x20 SWAP1 DUP2 MSTORE PUSH1 0x40 DUP1 DUP4 KECCAK256 PUSH1 0x1 PUSH1 0x1 PUSH1 0xA0 SHL SUB DUP7 DUP2 AND DUP6 MSTORE SWAP3 MSTORE SWAP1 SWAP2 KECCAK256 DUP1 SLOAD PUSH1 0xFF NOT AND SWAP1 SSTORE PUSH2 0x1064 PUSH2 0x10E6 JUMP JUMPDEST AND SWAP2 PUSH1 0x1 PUSH1 0x1 PUSH1 0xA0 SHL SUB AND SWAP1 PUSH32 0xF6391F5C32D9C69D2A47EA670B442974B53935D1EDC7FD64EB21E047A839171B PUSH0 DUP1 LOG4 PUSH1 0x1 SWAP1 JUMP JUMPDEST PUSH1 0x40 MLOAD PUSH2 0x10E0 PUSH1 0x80 DUP3 PUSH1 0x20 DUP1 DUP3 ADD SWAP6 ADDRESS DUP8 MSTORE PUSH1 0x40 DUP1 DUP5 ADD MSTORE DUP1 MLOAD SWAP2 DUP3 SWAP2 DUP3 PUSH1 0x60 DUP7 ADD MSTORE ADD DUP5 DUP5 ADD MCOPY PUSH0 DUP4 DUP3 DUP5 ADD ADD MSTORE PUSH1 0x1F DUP1 NOT SWAP2 ADD AND DUP2 ADD SUB ADD PUSH1 0x1F NOT DUP2 ADD DUP4 MSTORE DUP3 PUSH2 0xA07 JUMP JUMPDEST MLOAD SWAP1 KECCAK256 SWAP1 JUMP JUMPDEST CALLER PUSH32 0x0 PUSH1 0x1 PUSH1 0x1 PUSH1 0xA0 SHL SUB AND EQ DUP1 PUSH2 0x1148 JUMPI JUMPDEST ISZERO PUSH2 0x1144 JUMPI PUSH1 0x13 NOT CALLDATASIZE ADD CALLDATASIZE DUP2 GT PUSH2 0x1130 JUMPI CALLDATALOAD PUSH1 0x60 SHR SWAP1 JUMP JUMPDEST PUSH4 0x4E487B71 PUSH1 0xE0 SHL PUSH0 MSTORE PUSH1 0x11 PUSH1 0x4 MSTORE PUSH1 0x24 PUSH0 REVERT JUMPDEST CALLER SWAP1 JUMP JUMPDEST POP PUSH1 0x14 CALLDATASIZE LT ISZERO PUSH2 0x1118 JUMP INVALID PUSH1 0xA0 PUSH1 0x40 MSTORE CALLVALUE PUSH2 0x23A JUMPI PUSH2 0x2D0F DUP1 CODESIZE SUB DUP1 PUSH2 0x19 DUP2 PUSH2 0x252 JUMP JUMPDEST SWAP3 DUP4 CODECOPY DUP2 ADD PUSH1 0x80 DUP3 DUP3 SUB SLT PUSH2 0x23A JUMPI DUP2 MLOAD PUSH1 0x1 PUSH1 0x1 PUSH1 0x40 SHL SUB DUP2 GT PUSH2 0x23A JUMPI DUP3 ADD SWAP1 DUP1 PUSH1 0x1F DUP4 ADD SLT ISZERO PUSH2 0x23A JUMPI DUP2 MLOAD SWAP2 PUSH1 0x1 PUSH1 0x1 PUSH1 0x40 SHL SUB DUP4 GT PUSH2 0x23E JUMPI DUP3 PUSH1 0x5 SHL SWAP1 PUSH1 0x20 DUP1 PUSH2 0x6A DUP2 DUP6 ADD PUSH2 0x252 JUMP JUMPDEST DUP1 SWAP7 DUP2 MSTORE ADD SWAP3 DUP3 ADD ADD SWAP3 DUP4 GT PUSH2 0x23A JUMPI PUSH1 0x20 ADD SWAP1 JUMPDEST DUP3 DUP3 LT PUSH2 0x222 JUMPI POP POP POP PUSH1 0x20 DUP3 ADD MLOAD SWAP2 PUSH2 0xA7 PUSH1 0x60 PUSH2 0xA0 PUSH1 0x40 DUP5 ADD PUSH2 0x277 JUMP JUMPDEST SWAP3 ADD PUSH2 0x277 JUMP JUMPDEST PUSH1 0x80 MSTORE PUSH1 0x1 PUSH1 0x3 SSTORE DUP2 MLOAD SWAP1 DUP2 ISZERO DUP1 ISZERO PUSH2 0x21A JUMPI JUMPDEST DUP1 ISZERO PUSH2 0x211 JUMPI JUMPDEST PUSH2 0x1FA JUMPI PUSH2 0xCF DUP2 PUSH2 0x28B JUMP JUMPDEST PUSH2 0x1B8 JUMPI JUMPDEST POP PUSH0 JUMPDEST DUP2 DUP2 LT PUSH2 0x146 JUMPI PUSH1 0x7 DUP5 SWAP1 SSTORE DUP4 PUSH32 0x9E0800728E995CA040F68D19B1BCC1B4AE0420ED8190FABB5FA564E2961EB7D5 PUSH1 0x20 PUSH1 0x1 PUSH1 0x1 PUSH1 0xA0 SHL SUB PUSH2 0x117 PUSH2 0x3A5 JUMP JUMPDEST AND SWAP3 PUSH1 0x40 MLOAD SWAP1 DUP2 MSTORE LOG2 PUSH1 0x40 MLOAD PUSH2 0x283E SWAP1 DUP2 PUSH2 0x451 DUP3 CODECOPY PUSH1 0x80 MLOAD DUP2 DUP2 DUP2 PUSH2 0xBA4 ADD MSTORE DUP2 DUP2 PUSH2 0xC9B ADD MSTORE PUSH2 0x237C ADD MSTORE RETURN JUMPDEST DUP3 MLOAD DUP2 LT ISZERO PUSH2 0x1A4 JUMPI PUSH1 0x5 DUP2 SWAP1 SHL DUP4 ADD PUSH1 0x20 ADD MLOAD PUSH1 0x1 SWAP2 SWAP1 PUSH1 0x1 PUSH1 0x1 PUSH1 0xA0 SHL SUB AND PUSH2 0x170 DUP2 PUSH2 0x314 JUMP JUMPDEST PUSH2 0x17C JUMPI JUMPDEST POP ADD PUSH2 0xD7 JUMP JUMPDEST PUSH2 0x19D SWAP1 PUSH0 MLOAD PUSH1 0x20 PUSH2 0x2CAF PUSH0 CODECOPY PUSH0 MLOAD SWAP1 PUSH0 MSTORE PUSH0 MSTORE DUP4 PUSH1 0x20 MSTORE PUSH1 0x40 PUSH0 KECCAK256 PUSH2 0x3F4 JUMP JUMPDEST POP PUSH0 PUSH2 0x175 JUMP JUMPDEST PUSH4 0x4E487B71 PUSH1 0xE0 SHL PUSH0 MSTORE PUSH1 0x32 PUSH1 0x4 MSTORE PUSH1 0x24 PUSH0 REVERT JUMPDEST PUSH0 DUP1 MSTORE PUSH1 0x1 PUSH1 0x20 MSTORE PUSH2 0x1F3 SWAP1 PUSH1 0x1 PUSH1 0x1 PUSH1 0xA0 SHL SUB AND PUSH32 0xA6EEF7E35ABE7026729641147F7915573C7E97B47EFA546F5F6E3230263BCB49 PUSH2 0x3F4 JUMP JUMPDEST POP PUSH0 PUSH2 0xD4 JUMP JUMPDEST POP DUP3 PUSH4 0x6A0EE31 PUSH1 0xE3 SHL PUSH0 MSTORE PUSH1 0x4 MSTORE PUSH1 0x24 MSTORE PUSH1 0x44 PUSH0 REVERT JUMPDEST POP DUP2 DUP5 GT PUSH2 0xC2 JUMP JUMPDEST POP DUP4 ISZERO PUSH2 0xBB JUMP JUMPDEST PUSH1 0x20 DUP1 SWAP2 PUSH2 0x22F DUP5 PUSH2 0x277 JUMP JUMPDEST DUP2 MSTORE ADD SWAP2 ADD SWAP1 PUSH2 0x7F JUMP JUMPDEST PUSH0 DUP1 REVERT JUMPDEST PUSH4 0x4E487B71 PUSH1 0xE0 SHL PUSH0 MSTORE PUSH1 0x41 PUSH1 0x4 MSTORE PUSH1 0x24 PUSH0 REVERT JUMPDEST PUSH1 0x40 MLOAD SWAP2 SWAP1 PUSH1 0x1F ADD PUSH1 0x1F NOT AND DUP3 ADD PUSH1 0x1 PUSH1 0x1 PUSH1 0x40 SHL SUB DUP2 GT DUP4 DUP3 LT OR PUSH2 0x23E JUMPI PUSH1 0x40 MSTORE JUMP JUMPDEST MLOAD SWAP1 PUSH1 0x1 PUSH1 0x1 PUSH1 0xA0 SHL SUB DUP3 AND DUP3 SUB PUSH2 0x23A JUMPI JUMP JUMPDEST PUSH1 0x1 PUSH1 0x1 PUSH1 0xA0 SHL SUB DUP2 AND PUSH0 SWAP1 DUP2 MSTORE PUSH0 MLOAD PUSH1 0x20 PUSH2 0x2CEF PUSH0 CODECOPY PUSH0 MLOAD SWAP1 PUSH0 MSTORE PUSH1 0x20 MSTORE PUSH1 0x40 SWAP1 KECCAK256 SLOAD PUSH1 0xFF AND PUSH2 0x30F JUMPI PUSH1 0x1 PUSH1 0x1 PUSH1 0xA0 SHL SUB DUP2 DUP2 AND PUSH0 SWAP1 DUP2 MSTORE PUSH0 MLOAD PUSH1 0x20 PUSH2 0x2CEF PUSH0 CODECOPY PUSH0 MLOAD SWAP1 PUSH0 MSTORE PUSH1 0x20 MSTORE PUSH1 0x40 SWAP1 KECCAK256 DUP1 SLOAD PUSH1 0xFF NOT AND PUSH1 0x1 OR SWAP1 SSTORE PUSH2 0x2ED PUSH2 0x3A5 JUMP JUMPDEST AND SWAP1 PUSH1 0x1 PUSH1 0x1 PUSH1 0xA0 SHL SUB AND PUSH0 PUSH0 MLOAD PUSH1 0x20 PUSH2 0x2C8F PUSH0 CODECOPY PUSH0 MLOAD SWAP1 PUSH0 MSTORE DUP2 DUP1 LOG4 PUSH1 0x1 SWAP1 JUMP JUMPDEST POP PUSH0 SWAP1 JUMP JUMPDEST PUSH1 0x1 PUSH1 0x1 PUSH1 0xA0 SHL SUB DUP2 AND PUSH0 SWAP1 DUP2 MSTORE PUSH0 MLOAD PUSH1 0x20 PUSH2 0x2CCF PUSH0 CODECOPY PUSH0 MLOAD SWAP1 PUSH0 MSTORE PUSH1 0x20 MSTORE PUSH1 0x40 SWAP1 KECCAK256 SLOAD PUSH1 0xFF AND PUSH2 0x30F JUMPI PUSH1 0x1 PUSH1 0x1 PUSH1 0xA0 SHL SUB DUP2 DUP2 AND PUSH0 SWAP1 DUP2 MSTORE PUSH0 MLOAD PUSH1 0x20 PUSH2 0x2CCF PUSH0 CODECOPY PUSH0 MLOAD SWAP1 PUSH0 MSTORE PUSH1 0x20 MSTORE PUSH1 0x40 SWAP1 KECCAK256 DUP1 SLOAD PUSH1 0xFF NOT AND PUSH1 0x1 OR SWAP1 SSTORE PUSH2 0x376 PUSH2 0x3A5 JUMP JUMPDEST AND SWAP1 PUSH1 0x1 PUSH1 0x1 PUSH1 0xA0 SHL SUB AND PUSH0 MLOAD PUSH1 0x20 PUSH2 0x2CAF PUSH0 CODECOPY PUSH0 MLOAD SWAP1 PUSH0 MSTORE PUSH0 MLOAD PUSH1 0x20 PUSH2 0x2C8F PUSH0 CODECOPY PUSH0 MLOAD SWAP1 PUSH0 MSTORE PUSH0 DUP1 LOG4 PUSH1 0x1 SWAP1 JUMP JUMPDEST PUSH1 0x80 MLOAD PUSH1 0x1 PUSH1 0x1 PUSH1 0xA0 SHL SUB AND CALLER EQ DUP1 PUSH2 0x3E9 JUMPI JUMPDEST ISZERO PUSH2 0x3E5 JUMPI PUSH1 0x13 NOT CALLDATASIZE ADD CALLDATASIZE DUP2 GT PUSH2 0x3D1 JUMPI CALLDATALOAD PUSH1 0x60 SHR SWAP1 JUMP JUMPDEST PUSH4 0x4E487B71 PUSH1 0xE0 SHL PUSH0 MSTORE PUSH1 0x11 PUSH1 0x4 MSTORE PUSH1 0x24 PUSH0 REVERT JUMPDEST CALLER SWAP1 JUMP JUMPDEST POP PUSH1 0x14 CALLDATASIZE LT ISZERO PUSH2 0x3B9 JUMP JUMPDEST PUSH1 0x1 DUP2 ADD SWAP1 DUP3 PUSH0 MSTORE DUP2 PUSH1 0x20 MSTORE PUSH1 0x40 PUSH0 KECCAK256 SLOAD ISZERO PUSH0 EQ PUSH2 0x449 JUMPI DUP1 SLOAD PUSH9 0x10000000000000000 DUP2 LT ISZERO PUSH2 0x23E JUMPI PUSH1 0x1 DUP2 ADD DUP1 DUP4 SSTORE DUP2 LT ISZERO PUSH2 0x1A4 JUMPI DUP4 SWAP1 DUP3 PUSH0 MSTORE PUSH1 0x20 PUSH0 KECCAK256 ADD SSTORE SLOAD SWAP2 PUSH0 MSTORE PUSH1 0x20 MSTORE PUSH1 0x40 PUSH0 KECCAK256 SSTORE PUSH1 0x1 SWAP1 JUMP JUMPDEST POP POP POP PUSH0 SWAP1 JUMP INVALID PUSH1 0x80 DUP1 PUSH1 0x40 MSTORE PUSH1 0x4 CALLDATASIZE LT ISZERO PUSH2 0x69 JUMPI JUMPDEST POP CALLDATASIZE ISZERO PUSH2 0x1A JUMPI PUSH0 DUP1 REVERT JUMPDEST PUSH2 0x22 PUSH2 0x1CF3 JUMP JUMPDEST PUSH2 0x2A PUSH2 0x2379 JUMP JUMPDEST PUSH1 0x40 DUP1 MLOAD CALLVALUE DUP2 MSTORE SELFBALANCE PUSH1 0x20 DUP3 ADD MSTORE PUSH1 0x1 PUSH1 0x1 PUSH1 0xA0 SHL SUB SWAP1 SWAP3 AND SWAP2 PUSH32 0x90890809C654F11D6E72A28FA60149770A0D11EC6C92319D6CEB2BB0A4EA1A15 SWAP2 SWAP1 LOG2 STOP JUMPDEST PUSH0 CALLDATALOAD PUSH1 0xE0 SHR SWAP1 DUP2 PUSH4 0x1FFC9A7 EQ PUSH2 0x1631 JUMPI POP DUP1 PUSH4 0x8AFF933 EQ PUSH2 0x15DD JUMPI DUP1 PUSH4 0xF052056 EQ PUSH2 0x1423 JUMPI DUP1 PUSH4 0x205E7C06 EQ PUSH2 0x1238 JUMPI DUP1 PUSH4 0x20C5429B EQ PUSH2 0x1155 JUMPI DUP1 PUSH4 0x248A9CA3 EQ PUSH2 0x1123 JUMPI DUP1 PUSH4 0x2F2FF15D EQ PUSH2 0x10BE JUMPI DUP1 PUSH4 0x3411C81C EQ PUSH2 0x1075 JUMPI DUP1 PUSH4 0x36568ABE EQ PUSH2 0x1021 JUMPI DUP1 PUSH4 0x3F4BA83A EQ PUSH2 0xFBC JUMPI DUP1 PUSH4 0x46BD0841 EQ PUSH2 0xE8F JUMPI DUP1 PUSH4 0x46E24B08 EQ PUSH2 0xDA1 JUMPI DUP1 PUSH4 0x46F0975A EQ PUSH2 0xCCF JUMPI DUP1 PUSH4 0x572B6C05 EQ PUSH2 0xC7B JUMPI DUP1 PUSH4 0x5C975ABB EQ PUSH2 0xC59 JUMPI DUP1 PUSH4 0x62391520 EQ PUSH2 0xBD3 JUMPI DUP1 PUSH4 0x7DA0A877 EQ PUSH2 0xB8F JUMPI DUP1 PUSH4 0x8456CB59 EQ PUSH2 0xB24 JUMPI DUP1 PUSH4 0x8F56015F EQ PUSH2 0xA61 JUMPI DUP1 PUSH4 0x9010D07C EQ PUSH2 0xA1B JUMPI DUP1 PUSH4 0x91D14854 EQ PUSH2 0x9D3 JUMPI DUP1 PUSH4 0x9ACE38C2 EQ PUSH2 0x916 JUMPI DUP1 PUSH4 0xA1EBF35D EQ PUSH2 0x8EF JUMPI DUP1 PUSH4 0xA217FDDF EQ PUSH2 0x8D5 JUMPI DUP1 PUSH4 0xA3246AD3 EQ PUSH2 0x865 JUMPI DUP1 PUSH4 0xAA787C1E EQ PUSH2 0x763 JUMPI DUP1 PUSH4 0xB7563930 EQ PUSH2 0x306 JUMPI DUP1 PUSH4 0xB779E1C0 EQ PUSH2 0x691 JUMPI DUP1 PUSH4 0xBA0179B5 EQ PUSH2 0x64E JUMPI DUP1 PUSH4 0xC13138F1 EQ PUSH2 0x391 JUMPI DUP1 PUSH4 0xCA15C873 EQ PUSH2 0x367 JUMPI DUP1 PUSH4 0xD547741F EQ PUSH2 0x323 JUMPI DUP1 PUSH4 0xDC8452CD EQ PUSH2 0x306 JUMPI PUSH4 0xEE0E6F65 EQ PUSH2 0x1EB JUMPI PUSH0 PUSH2 0xF JUMP JUMPDEST CALLVALUE PUSH2 0x302 JUMPI PUSH1 0x80 CALLDATASIZE PUSH1 0x3 NOT ADD SLT PUSH2 0x302 JUMPI PUSH2 0x204 PUSH2 0x16B4 JUMP JUMPDEST PUSH2 0x20C PUSH2 0x169E JUMP JUMPDEST SWAP1 PUSH1 0x44 CALLDATALOAD SWAP2 PUSH1 0x64 CALLDATALOAD SWAP2 PUSH1 0x1 PUSH1 0x1 PUSH1 0x40 SHL SUB DUP4 GT PUSH2 0x302 JUMPI PUSH1 0x20 SWAP4 PUSH32 0x97A1625FFE5FA52EA35B6D6808A64CF13BB4AB9BDCE9643B7A97F09C8922B933 PUSH2 0x2F5 SWAP4 PUSH2 0x25C PUSH2 0x2EC SWAP7 CALLDATASIZE SWAP1 PUSH1 0x4 ADD PUSH2 0x17EB JUMP JUMPDEST SWAP3 SWAP1 PUSH2 0x266 PUSH2 0x1BBF JUMP JUMPDEST PUSH2 0x26E PUSH2 0x1CF3 JUMP JUMPDEST PUSH2 0x276 PUSH2 0x1D0E JUMP JUMPDEST PUSH2 0x27E PUSH2 0x2379 JUMP JUMPDEST PUSH1 0x40 MLOAD PUSH4 0xA9059CBB PUSH1 0xE0 SHL DUP12 DUP3 ADD MSTORE PUSH1 0x1 PUSH1 0x1 PUSH1 0xA0 SHL SUB DUP6 AND PUSH1 0x24 DUP3 ADD MSTORE PUSH1 0x44 DUP1 DUP3 ADD DUP9 SWAP1 MSTORE DUP2 MSTORE SWAP1 SWAP7 SWAP1 PUSH2 0x2CA SWAP1 PUSH2 0x2B8 PUSH1 0x64 DUP3 PUSH2 0x198D JUMP JUMPDEST PUSH2 0x2C3 CALLDATASIZE DUP9 DUP7 PUSH2 0x1A77 JUMP JUMPDEST SWAP1 DUP4 PUSH2 0x1D7D JUMP JUMPDEST SWAP9 DUP10 SWAP6 PUSH1 0x40 MLOAD SWAP4 DUP5 SWAP4 PUSH1 0x1 DUP1 PUSH1 0xA0 SHL SUB AND SWAP9 PUSH1 0x1 DUP1 PUSH1 0xA0 SHL SUB DUP12 AND SWAP8 DUP6 PUSH2 0x1B10 JUMP JUMPDEST SUB SWAP1 LOG4 DUP3 PUSH2 0x21A9 JUMP JUMPDEST PUSH1 0x1 PUSH1 0x3 SSTORE PUSH1 0x40 MLOAD SWAP1 DUP2 MSTORE RETURN JUMPDEST PUSH0 DUP1 REVERT JUMPDEST CALLVALUE PUSH2 0x302 JUMPI PUSH0 CALLDATASIZE PUSH1 0x3 NOT ADD SLT PUSH2 0x302 JUMPI PUSH1 0x20 PUSH1 0x7 SLOAD PUSH1 0x40 MLOAD SWAP1 DUP2 MSTORE RETURN JUMPDEST CALLVALUE PUSH2 0x302 JUMPI PUSH1 0x40 CALLDATASIZE PUSH1 0x3 NOT ADD SLT PUSH2 0x302 JUMPI PUSH2 0x365 PUSH1 0x4 CALLDATALOAD PUSH2 0x342 PUSH2 0x169E JUMP JUMPDEST SWAP1 PUSH2 0x360 PUSH2 0x35B DUP3 PUSH0 MSTORE PUSH0 PUSH1 0x20 MSTORE PUSH1 0x1 PUSH1 0x40 PUSH0 KECCAK256 ADD SLOAD SWAP1 JUMP JUMPDEST PUSH2 0x1CA2 JUMP JUMPDEST PUSH2 0x233F JUMP JUMPDEST STOP JUMPDEST CALLVALUE PUSH2 0x302 JUMPI PUSH1 0x20 CALLDATASIZE PUSH1 0x3 NOT ADD SLT PUSH2 0x302 JUMPI PUSH1 0x4 CALLDATALOAD PUSH0 MSTORE PUSH1 0x1 PUSH1 0x20 MSTORE PUSH1 0x20 PUSH1 0x40 PUSH0 KECCAK256 SLOAD PUSH1 0x40 MLOAD SWAP1 DUP2 MSTORE RETURN JUMPDEST CALLVALUE PUSH2 0x302 JUMPI PUSH1 0xA0 CALLDATASIZE PUSH1 0x3 NOT ADD SLT PUSH2 0x302 JUMPI PUSH1 0x4 CALLDATALOAD PUSH1 0x1 PUSH1 0x1 PUSH1 0x40 SHL SUB DUP2 GT PUSH2 0x302 JUMPI PUSH2 0x3C1 SWAP1 CALLDATASIZE SWAP1 PUSH1 0x4 ADD PUSH2 0x16CA JUMP JUMPDEST PUSH1 0x24 CALLDATALOAD PUSH1 0x1 PUSH1 0x1 PUSH1 0x40 SHL SUB DUP2 GT PUSH2 0x302 JUMPI PUSH2 0x3E0 SWAP1 CALLDATASIZE SWAP1 PUSH1 0x4 ADD PUSH2 0x16CA JUMP JUMPDEST PUSH1 0x44 CALLDATALOAD PUSH1 0x1 PUSH1 0x1 PUSH1 0x40 SHL SUB DUP2 GT PUSH2 0x302 JUMPI PUSH2 0x3FF SWAP1 CALLDATASIZE SWAP1 PUSH1 0x4 ADD PUSH2 0x16CA JUMP JUMPDEST SWAP5 SWAP1 SWAP4 PUSH1 0x64 CALLDATALOAD PUSH1 0x1 PUSH1 0x1 PUSH1 0x40 SHL SUB DUP2 GT PUSH2 0x302 JUMPI PUSH2 0x421 SWAP1 CALLDATASIZE SWAP1 PUSH1 0x4 ADD PUSH2 0x16CA JUMP JUMPDEST SWAP3 SWAP1 SWAP7 PUSH1 0x84 CALLDATALOAD PUSH1 0x1 PUSH1 0x1 PUSH1 0x40 SHL SUB DUP2 GT PUSH2 0x302 JUMPI PUSH2 0x443 SWAP1 CALLDATASIZE SWAP1 PUSH1 0x4 ADD PUSH2 0x16CA JUMP JUMPDEST SWAP6 SWAP1 SWAP2 PUSH2 0x44E PUSH2 0x1BBF JUMP JUMPDEST PUSH2 0x456 PUSH2 0x1CF3 JUMP JUMPDEST PUSH2 0x45E PUSH2 0x1D0E JUMP JUMPDEST DUP5 ISZERO PUSH2 0x63F JUMPI DUP2 DUP6 EQ DUP1 ISZERO SWAP1 PUSH2 0x635 JUMPI JUMPDEST DUP1 ISZERO PUSH2 0x62B JUMPI JUMPDEST DUP1 ISZERO PUSH2 0x621 JUMPI JUMPDEST PUSH2 0x612 JUMPI PUSH2 0x48C SWAP8 SWAP4 SWAP8 PUSH2 0x2379 JUMP JUMPDEST SWAP7 PUSH2 0x496 DUP7 PUSH2 0x19C5 JUMP JUMPDEST SWAP10 PUSH1 0x1 PUSH1 0x1 PUSH1 0xA0 SHL SUB DUP10 AND SWAP6 PUSH0 JUMPDEST DUP9 DUP2 LT PUSH2 0x4C2 JUMPI PUSH1 0x1 PUSH1 0x3 SSTORE PUSH1 0x40 MLOAD DUP1 PUSH2 0x4BE DUP16 DUP3 PUSH2 0x178E JUMP JUMPDEST SUB SWAP1 RETURN JUMPDEST DUP11 DUP14 DUP16 DUP13 DUP16 DUP13 DUP13 DUP16 SWAP3 DUP13 DUP13 DUP16 SWAP3 DUP9 DUP13 DUP16 DUP16 DUP3 SWAP13 SWAP1 DUP4 DUP16 SWAP7 DUP2 DUP16 SWAP9 DUP16 DUP3 DUP16 DUP16 DUP16 SWAP2 DUP16 SWAP3 DUP5 SWAP16 SWAP3 DUP6 SWAP13 SWAP7 DUP7 SWAP8 SWAP5 DUP16 SWAP6 DUP9 PUSH2 0x4FE DUP2 DUP1 SWAP10 SWAP8 DUP2 SWAP9 PUSH2 0x19F7 JUMP JUMPDEST PUSH2 0x507 SWAP1 PUSH2 0x1BAA JUMP JUMPDEST SWAP3 PUSH2 0x511 SWAP3 PUSH2 0x1A1B JUMP JUMPDEST SWAP1 PUSH2 0x51B SWAP3 PUSH2 0x1B34 JUMP JUMPDEST SWAP5 PUSH2 0x526 SWAP2 DUP13 PUSH2 0x19F7 JUMP JUMPDEST PUSH2 0x52F SWAP1 PUSH2 0x1A07 JUMP JUMPDEST SWAP6 PUSH2 0x53A SWAP2 DUP14 PUSH2 0x19F7 JUMP JUMPDEST CALLDATALOAD SWAP4 PUSH2 0x545 SWAP3 PUSH2 0x1A1B JUMP JUMPDEST CALLDATASIZE SWAP1 PUSH2 0x550 SWAP3 PUSH2 0x1A77 JUMP JUMPDEST SWAP2 PUSH2 0x55A SWAP4 PUSH2 0x1FD2 JUMP JUMPDEST PUSH2 0x564 DUP3 DUP5 PUSH2 0x1AAD JUMP JUMPDEST MSTORE PUSH2 0x56E SWAP2 PUSH2 0x1AAD JUMP JUMPDEST MLOAD SWAP15 PUSH2 0x579 SWAP3 PUSH2 0x19F7 JUMP JUMPDEST PUSH2 0x582 SWAP1 PUSH2 0x1A07 JUMP JUMPDEST SWAP10 PUSH2 0x58C SWAP3 PUSH2 0x19F7 JUMP JUMPDEST CALLDATALOAD SWAP7 PUSH2 0x597 SWAP3 PUSH2 0x19F7 JUMP JUMPDEST PUSH2 0x5A0 SWAP1 PUSH2 0x1BAA JUMP JUMPDEST SWAP10 PUSH2 0x5AA SWAP3 PUSH2 0x1A1B JUMP JUMPDEST SWAP3 PUSH2 0x5B6 SWAP3 SWAP2 SWAP7 PUSH2 0x1A1B JUMP JUMPDEST SWAP2 PUSH1 0x40 MLOAD SWAP6 DUP7 SWAP6 PUSH1 0x1 PUSH1 0xA0 SHL PUSH1 0x1 SWAP1 SUB AND SWAP10 PUSH2 0x5D2 SWAP6 DUP8 PUSH2 0x1B6E JUMP JUMPDEST SUB PUSH32 0xD1048E3510DFDA1FAA9BDE9BCF936DC0C15B5BB24C1F9B7D795959FB476ECD16 SWAP2 LOG4 PUSH2 0x5FF SWAP2 PUSH2 0x1AAD JUMP JUMPDEST MLOAD SWAP1 PUSH2 0x60A SWAP2 PUSH2 0x21A9 JUMP JUMPDEST PUSH1 0x1 ADD PUSH2 0x4A4 JUMP JUMPDEST PUSH4 0x512509D3 PUSH1 0xE1 SHL PUSH0 MSTORE PUSH1 0x4 PUSH0 REVERT JUMPDEST POP DUP7 DUP6 EQ ISZERO PUSH2 0x47D JUMP JUMPDEST POP DUP6 DUP6 EQ ISZERO PUSH2 0x476 JUMP JUMPDEST POP DUP1 DUP6 EQ ISZERO PUSH2 0x46F JUMP JUMPDEST PUSH4 0x7DC57E7B PUSH1 0xE0 SHL PUSH0 MSTORE PUSH1 0x4 PUSH0 REVERT JUMPDEST CALLVALUE PUSH2 0x302 JUMPI PUSH1 0x20 CALLDATASIZE PUSH1 0x3 NOT ADD SLT PUSH2 0x302 JUMPI PUSH2 0x667 PUSH2 0x1BBF JUMP JUMPDEST PUSH2 0x66F PUSH2 0x1CF3 JUMP JUMPDEST PUSH2 0x677 PUSH2 0x1D0E JUMP JUMPDEST PUSH2 0x68A PUSH2 0x682 PUSH2 0x2379 JUMP JUMPDEST PUSH1 0x4 CALLDATALOAD PUSH2 0x21A9 JUMP JUMPDEST PUSH1 0x1 PUSH1 0x3 SSTORE STOP JUMPDEST CALLVALUE PUSH2 0x302 JUMPI PUSH1 0x20 CALLDATASIZE PUSH1 0x3 NOT ADD SLT PUSH2 0x302 JUMPI PUSH1 0x4 CALLDATALOAD PUSH1 0x6 SLOAD DUP1 DUP3 LT ISZERO PUSH2 0x71F JUMPI POP DUP1 PUSH0 MSTORE PUSH1 0x4 PUSH1 0x20 MSTORE PUSH1 0x40 PUSH0 KECCAK256 SLOAD PUSH2 0x6C7 DUP2 PUSH2 0x19C5 JUMP JUMPDEST SWAP2 PUSH0 JUMPDEST DUP3 DUP2 LT PUSH2 0x6DF JUMPI PUSH1 0x40 MLOAD DUP1 PUSH2 0x4BE DUP7 DUP3 PUSH2 0x1818 JUMP JUMPDEST PUSH1 0x1 SWAP1 DUP3 PUSH0 MSTORE PUSH1 0x4 PUSH1 0x20 MSTORE PUSH2 0x6F7 DUP2 PUSH1 0x40 PUSH0 KECCAK256 PUSH2 0x2589 JUMP JUMPDEST DUP4 DUP1 PUSH1 0xA0 SHL SUB SWAP2 SLOAD SWAP1 PUSH1 0x3 SHL SHR AND PUSH2 0x70F DUP3 DUP8 PUSH2 0x1AAD JUMP JUMPDEST SWAP1 DUP4 DUP1 PUSH1 0xA0 SHL SUB AND SWAP1 MSTORE ADD PUSH2 0x6CA JUMP JUMPDEST DUP1 ISZERO PUSH2 0x75B JUMPI PUSH0 NOT DUP2 ADD SWAP1 DUP2 GT PUSH2 0x747 JUMPI SWAP1 JUMPDEST PUSH4 0x2D713973 PUSH1 0xE1 SHL PUSH0 MSTORE PUSH1 0x4 MSTORE PUSH1 0x24 MSTORE PUSH1 0x44 PUSH0 REVERT JUMPDEST PUSH4 0x4E487B71 PUSH1 0xE0 SHL PUSH0 MSTORE PUSH1 0x11 PUSH1 0x4 MSTORE PUSH1 0x24 PUSH0 REVERT JUMPDEST POP PUSH0 SWAP1 PUSH2 0x732 JUMP JUMPDEST CALLVALUE PUSH2 0x302 JUMPI PUSH1 0xA0 CALLDATASIZE PUSH1 0x3 NOT ADD SLT PUSH2 0x302 JUMPI PUSH2 0x77C PUSH2 0x16B4 JUMP JUMPDEST PUSH1 0x24 CALLDATALOAD SWAP1 PUSH1 0x44 CALLDATALOAD PUSH1 0x1 PUSH1 0x1 PUSH1 0xE0 SHL SUB NOT DUP2 AND DUP2 SUB PUSH2 0x302 JUMPI PUSH1 0x64 CALLDATALOAD PUSH1 0x1 PUSH1 0x1 PUSH1 0x40 SHL SUB DUP2 GT PUSH2 0x302 JUMPI PUSH2 0x7B3 SWAP1 CALLDATASIZE SWAP1 PUSH1 0x4 ADD PUSH2 0x17EB JUMP JUMPDEST SWAP2 PUSH1 0x84 CALLDATALOAD SWAP3 PUSH1 0x1 PUSH1 0x1 PUSH1 0x40 SHL SUB DUP5 GT PUSH2 0x302 JUMPI PUSH1 0x20 SWAP6 PUSH32 0xD1048E3510DFDA1FAA9BDE9BCF936DC0C15B5BB24C1F9B7D795959FB476ECD16 PUSH2 0x7FB PUSH2 0x2F5 SWAP7 CALLDATASIZE SWAP1 PUSH1 0x4 ADD PUSH2 0x17EB JUMP JUMPDEST SWAP6 SWAP1 SWAP8 PUSH2 0x806 PUSH2 0x1BBF JUMP JUMPDEST PUSH2 0x80E PUSH2 0x1CF3 JUMP JUMPDEST PUSH2 0x816 PUSH2 0x1D0E JUMP JUMPDEST PUSH2 0x2EC PUSH2 0x821 PUSH2 0x2379 JUMP JUMPDEST SWAP8 PUSH2 0x843 PUSH2 0x830 DUP9 DUP7 DUP12 PUSH2 0x1B34 JUMP JUMPDEST PUSH2 0x83B CALLDATASIZE DUP5 DUP16 PUSH2 0x1A77 JUMP JUMPDEST SWAP1 DUP9 DUP7 PUSH2 0x1FD2 JUMP JUMPDEST SWAP11 DUP12 SWAP8 PUSH1 0x40 MLOAD SWAP6 DUP7 SWAP6 PUSH1 0x1 DUP1 PUSH1 0xA0 SHL SUB AND SWAP11 PUSH1 0x1 DUP1 PUSH1 0xA0 SHL SUB DUP14 AND SWAP10 DUP8 PUSH2 0x1B6E JUMP JUMPDEST CALLVALUE PUSH2 0x302 JUMPI PUSH1 0x20 CALLDATASIZE PUSH1 0x3 NOT ADD SLT PUSH2 0x302 JUMPI PUSH1 0x4 CALLDATALOAD PUSH0 MSTORE PUSH1 0x1 PUSH1 0x20 MSTORE PUSH1 0x40 PUSH0 KECCAK256 PUSH1 0x40 MLOAD SWAP1 DUP2 PUSH1 0x20 DUP3 SLOAD SWAP2 DUP3 DUP2 MSTORE ADD SWAP2 PUSH0 MSTORE PUSH1 0x20 PUSH0 KECCAK256 SWAP1 PUSH0 JUMPDEST DUP2 DUP2 LT PUSH2 0x8BF JUMPI PUSH2 0x4BE DUP6 PUSH2 0x8B3 DUP2 DUP8 SUB DUP3 PUSH2 0x198D JUMP JUMPDEST PUSH1 0x40 MLOAD SWAP2 DUP3 SWAP2 DUP3 PUSH2 0x1818 JUMP JUMPDEST DUP3 SLOAD DUP5 MSTORE PUSH1 0x20 SWAP1 SWAP4 ADD SWAP3 PUSH1 0x1 SWAP3 DUP4 ADD SWAP3 ADD PUSH2 0x89C JUMP JUMPDEST CALLVALUE PUSH2 0x302 JUMPI PUSH0 CALLDATASIZE PUSH1 0x3 NOT ADD SLT PUSH2 0x302 JUMPI PUSH1 0x20 PUSH1 0x40 MLOAD PUSH0 DUP2 MSTORE RETURN JUMPDEST CALLVALUE PUSH2 0x302 JUMPI PUSH0 CALLDATASIZE PUSH1 0x3 NOT ADD SLT PUSH2 0x302 JUMPI PUSH1 0x20 PUSH1 0x40 MLOAD PUSH0 MLOAD PUSH1 0x20 PUSH2 0x27E9 PUSH0 CODECOPY PUSH0 MLOAD SWAP1 PUSH0 MSTORE DUP2 MSTORE RETURN JUMPDEST CALLVALUE PUSH2 0x302 JUMPI PUSH1 0x20 CALLDATASIZE PUSH1 0x3 NOT ADD SLT PUSH2 0x302 JUMPI PUSH1 0x4 CALLDATALOAD PUSH1 0x6 SLOAD DUP2 LT ISZERO PUSH2 0x302 JUMPI PUSH2 0x93D SWAP1 PUSH2 0x185A JUMP JUMPDEST POP PUSH1 0x1 DUP1 PUSH1 0xA0 SHL SUB DUP2 SLOAD AND PUSH2 0x4BE PUSH1 0x1 DUP4 ADD SLOAD SWAP3 PUSH1 0x5 PUSH1 0x40 MLOAD SWAP2 PUSH2 0x96F DUP4 PUSH2 0x968 DUP2 PUSH1 0x2 DUP6 ADD PUSH2 0x18DD JUMP JUMPDEST SUB DUP5 PUSH2 0x198D JUMP JUMPDEST PUSH2 0x9B9 PUSH1 0xFF PUSH1 0x3 DUP4 ADD SLOAD AND SWAP4 PUSH2 0x99B PUSH1 0x4 DUP5 ADD SLOAD SWAP4 PUSH2 0x994 PUSH1 0x40 MLOAD DUP1 SWAP8 DUP2 SWAP4 ADD PUSH2 0x18DD JUMP JUMPDEST SUB DUP6 PUSH2 0x198D JUMP JUMPDEST PUSH1 0x40 MLOAD SWAP8 DUP9 SWAP8 DUP9 MSTORE PUSH1 0x20 DUP9 ADD MSTORE PUSH1 0xC0 PUSH1 0x40 DUP9 ADD MSTORE PUSH1 0xC0 DUP8 ADD SWAP1 PUSH2 0x17C7 JUMP JUMPDEST SWAP3 ISZERO ISZERO PUSH1 0x60 DUP7 ADD MSTORE PUSH1 0x80 DUP6 ADD MSTORE DUP4 DUP3 SUB PUSH1 0xA0 DUP6 ADD MSTORE PUSH2 0x17C7 JUMP JUMPDEST CALLVALUE PUSH2 0x302 JUMPI PUSH1 0x40 CALLDATASIZE PUSH1 0x3 NOT ADD SLT PUSH2 0x302 JUMPI PUSH2 0x9EC PUSH2 0x169E JUMP JUMPDEST PUSH1 0x4 CALLDATALOAD PUSH0 MSTORE PUSH0 PUSH1 0x20 MSTORE PUSH1 0x40 PUSH0 KECCAK256 SWAP1 PUSH1 0x1 DUP1 PUSH1 0xA0 SHL SUB AND PUSH0 MSTORE PUSH1 0x20 MSTORE PUSH1 0x20 PUSH1 0xFF PUSH1 0x40 PUSH0 KECCAK256 SLOAD AND PUSH1 0x40 MLOAD SWAP1 ISZERO ISZERO DUP2 MSTORE RETURN JUMPDEST CALLVALUE PUSH2 0x302 JUMPI PUSH1 0x40 CALLDATASIZE PUSH1 0x3 NOT ADD SLT PUSH2 0x302 JUMPI PUSH1 0x4 CALLDATALOAD PUSH0 MSTORE PUSH1 0x1 PUSH1 0x20 MSTORE PUSH1 0x20 PUSH2 0xA48 PUSH1 0x40 PUSH0 KECCAK256 PUSH1 0x24 CALLDATALOAD SWAP1 PUSH2 0x2589 JUMP JUMPDEST SWAP1 SLOAD PUSH1 0x40 MLOAD PUSH1 0x3 SWAP3 SWAP1 SWAP3 SHL SHR PUSH1 0x1 PUSH1 0x1 PUSH1 0xA0 SHL SUB AND DUP2 MSTORE RETURN JUMPDEST CALLVALUE PUSH2 0x302 JUMPI PUSH1 0x20 CALLDATASIZE PUSH1 0x3 NOT ADD SLT PUSH2 0x302 JUMPI PUSH1 0x4 CALLDATALOAD PUSH2 0xA7D PUSH2 0x1C3A JUMP JUMPDEST PUSH0 MLOAD PUSH1 0x20 PUSH2 0x27E9 PUSH0 CODECOPY PUSH0 MLOAD SWAP1 PUSH0 MSTORE PUSH0 MSTORE PUSH1 0x1 PUSH1 0x20 MSTORE PUSH32 0xB1A26A75446B1D67F01AFE7A745DC85C05C9752B7D1CDFCD19E8F115973E8DF8 SLOAD DUP2 ISZERO DUP1 ISZERO PUSH2 0xB1B JUMPI JUMPDEST PUSH2 0xB05 JUMPI POP PUSH1 0x7 DUP2 SWAP1 SSTORE PUSH32 0x9E0800728E995CA040F68D19B1BCC1B4AE0420ED8190FABB5FA564E2961EB7D5 PUSH1 0x20 PUSH1 0x1 PUSH1 0x1 PUSH1 0xA0 SHL SUB PUSH2 0xAFA PUSH2 0x2379 JUMP JUMPDEST AND SWAP3 PUSH1 0x40 MLOAD SWAP1 DUP2 MSTORE LOG2 STOP JUMPDEST SWAP1 PUSH4 0x6A0EE31 PUSH1 0xE3 SHL PUSH0 MSTORE PUSH1 0x4 MSTORE PUSH1 0x24 MSTORE PUSH1 0x44 PUSH0 REVERT JUMPDEST POP DUP1 DUP3 GT PUSH2 0xABD JUMP JUMPDEST CALLVALUE PUSH2 0x302 JUMPI PUSH0 CALLDATASIZE PUSH1 0x3 NOT ADD SLT PUSH2 0x302 JUMPI PUSH2 0xB3C PUSH2 0x1C3A JUMP JUMPDEST PUSH2 0xB44 PUSH2 0x1CF3 JUMP JUMPDEST PUSH1 0x1 PUSH1 0xFF NOT PUSH1 0x2 SLOAD AND OR PUSH1 0x2 SSTORE PUSH32 0x62E78CEA01BEE320CD4E420270B5EA74000D11B0C9F74754EBDBFC544B05A258 PUSH1 0x20 PUSH2 0xB7C PUSH2 0x2379 JUMP JUMPDEST PUSH1 0x40 MLOAD PUSH1 0x1 PUSH1 0x1 PUSH1 0xA0 SHL SUB SWAP1 SWAP2 AND DUP2 MSTORE LOG1 STOP JUMPDEST CALLVALUE PUSH2 0x302 JUMPI PUSH0 CALLDATASIZE PUSH1 0x3 NOT ADD SLT PUSH2 0x302 JUMPI PUSH1 0x40 MLOAD PUSH32 0x0 PUSH1 0x1 PUSH1 0x1 PUSH1 0xA0 SHL SUB AND DUP2 MSTORE PUSH1 0x20 SWAP1 RETURN JUMPDEST CALLVALUE PUSH2 0x302 JUMPI PUSH1 0x20 CALLDATASIZE PUSH1 0x3 NOT ADD SLT PUSH2 0x302 JUMPI PUSH1 0x4 CALLDATALOAD PUSH1 0x1 PUSH1 0x1 PUSH1 0x40 SHL SUB DUP2 GT PUSH2 0x302 JUMPI PUSH2 0xC03 SWAP1 CALLDATASIZE SWAP1 PUSH1 0x4 ADD PUSH2 0x16CA JUMP JUMPDEST SWAP1 PUSH2 0xC0C PUSH2 0x1BBF JUMP JUMPDEST PUSH2 0xC14 PUSH2 0x1CF3 JUMP JUMPDEST PUSH2 0xC1C PUSH2 0x1D0E JUMP JUMPDEST DUP2 ISZERO PUSH2 0x63F JUMPI PUSH2 0xC2A PUSH2 0x2379 JUMP JUMPDEST SWAP1 PUSH0 JUMPDEST DUP4 DUP2 LT PUSH2 0xC3B JUMPI PUSH1 0x1 PUSH1 0x3 SSTORE STOP JUMPDEST DUP1 PUSH2 0xC53 DUP5 PUSH2 0xC4D PUSH1 0x1 SWAP5 DUP9 DUP8 PUSH2 0x19F7 JUMP JUMPDEST CALLDATALOAD PUSH2 0x21A9 JUMP JUMPDEST ADD PUSH2 0xC2D JUMP JUMPDEST CALLVALUE PUSH2 0x302 JUMPI PUSH0 CALLDATASIZE PUSH1 0x3 NOT ADD SLT PUSH2 0x302 JUMPI PUSH1 0x20 PUSH1 0xFF PUSH1 0x2 SLOAD AND PUSH1 0x40 MLOAD SWAP1 ISZERO ISZERO DUP2 MSTORE RETURN JUMPDEST CALLVALUE PUSH2 0x302 JUMPI PUSH1 0x20 CALLDATASIZE PUSH1 0x3 NOT ADD SLT PUSH2 0x302 JUMPI PUSH1 0x20 PUSH2 0xC96 PUSH2 0x16B4 JUMP JUMPDEST PUSH1 0x40 MLOAD PUSH32 0x0 PUSH1 0x1 PUSH1 0x1 PUSH1 0xA0 SHL SUB SWAP1 DUP2 AND SWAP3 AND SWAP2 SWAP1 SWAP2 EQ DUP2 MSTORE RETURN JUMPDEST CALLVALUE PUSH2 0x302 JUMPI PUSH0 CALLDATASIZE PUSH1 0x3 NOT ADD SLT PUSH2 0x302 JUMPI PUSH0 MLOAD PUSH1 0x20 PUSH2 0x27E9 PUSH0 CODECOPY PUSH0 MLOAD SWAP1 PUSH0 MSTORE PUSH0 MSTORE PUSH1 0x1 PUSH1 0x20 MSTORE PUSH32 0xB1A26A75446B1D67F01AFE7A745DC85C05C9752B7D1CDFCD19E8F115973E8DF8 SLOAD PUSH2 0xD1F DUP2 PUSH2 0x19C5 JUMP JUMPDEST SWAP1 PUSH0 JUMPDEST DUP2 DUP2 LT PUSH2 0xD37 JUMPI PUSH1 0x40 MLOAD DUP1 PUSH2 0x4BE DUP6 DUP3 PUSH2 0x1818 JUMP JUMPDEST PUSH0 MLOAD PUSH1 0x20 PUSH2 0x27E9 PUSH0 CODECOPY PUSH0 MLOAD SWAP1 PUSH0 MSTORE PUSH0 MSTORE PUSH1 0x1 PUSH1 0x20 DUP2 SWAP1 MSTORE SWAP1 PUSH2 0xD79 DUP2 PUSH32 0xB1A26A75446B1D67F01AFE7A745DC85C05C9752B7D1CDFCD19E8F115973E8DF8 PUSH2 0x2589 JUMP JUMPDEST DUP4 DUP1 PUSH1 0xA0 SHL SUB SWAP2 SLOAD SWAP1 PUSH1 0x3 SHL SHR AND PUSH2 0xD91 DUP3 DUP7 PUSH2 0x1AAD JUMP JUMPDEST SWAP1 DUP4 DUP1 PUSH1 0xA0 SHL SUB AND SWAP1 MSTORE ADD PUSH2 0xD22 JUMP JUMPDEST CALLVALUE PUSH2 0x302 JUMPI PUSH1 0x80 CALLDATASIZE PUSH1 0x3 NOT ADD SLT PUSH2 0x302 JUMPI PUSH2 0xDBA PUSH2 0x16B4 JUMP JUMPDEST PUSH1 0x24 CALLDATALOAD PUSH1 0x44 CALLDATALOAD PUSH1 0x1 PUSH1 0x1 PUSH1 0x40 SHL SUB DUP2 GT PUSH2 0x302 JUMPI PUSH2 0xDDC SWAP1 CALLDATASIZE SWAP1 PUSH1 0x4 ADD PUSH2 0x17EB JUMP JUMPDEST SWAP3 PUSH1 0x64 CALLDATALOAD SWAP2 PUSH1 0x1 PUSH1 0x1 PUSH1 0x40 SHL SUB DUP4 GT PUSH2 0x302 JUMPI PUSH1 0x20 SWAP5 PUSH32 0xA48C1B3842E6F2C3793E18D2B4FED84FC8C6D18C3687702A2B43492078551EFD SWAP5 PUSH2 0xE25 PUSH2 0x2F5 SWAP6 CALLDATASIZE SWAP1 PUSH1 0x4 ADD PUSH2 0x17EB JUMP JUMPDEST SWAP7 SWAP1 SWAP3 PUSH2 0xE30 PUSH2 0x1BBF JUMP JUMPDEST PUSH2 0xE38 PUSH2 0x1CF3 JUMP JUMPDEST PUSH2 0xE40 PUSH2 0x1D0E JUMP JUMPDEST PUSH2 0xE48 PUSH2 0x2379 JUMP JUMPDEST SWAP6 PUSH2 0x2EC PUSH2 0xE6D PUSH2 0xE5A CALLDATASIZE DUP6 DUP11 PUSH2 0x1A77 JUMP JUMPDEST PUSH2 0xE65 CALLDATASIZE DUP14 DUP11 PUSH2 0x1A77 JUMP JUMPDEST SWAP1 DUP8 DUP6 PUSH2 0x1FD2 JUMP JUMPDEST SWAP10 DUP11 SWAP7 PUSH1 0x40 MLOAD SWAP5 DUP6 SWAP5 PUSH1 0x1 DUP1 PUSH1 0xA0 SHL SUB AND SWAP10 PUSH1 0x1 DUP1 PUSH1 0xA0 SHL SUB DUP13 AND SWAP9 DUP7 PUSH2 0x1AE1 JUMP JUMPDEST CALLVALUE PUSH2 0x302 JUMPI PUSH1 0x20 CALLDATASIZE PUSH1 0x3 NOT ADD SLT PUSH2 0x302 JUMPI PUSH1 0x4 CALLDATALOAD PUSH1 0x60 PUSH1 0xA0 PUSH1 0x40 MLOAD PUSH2 0xEB3 DUP2 PUSH2 0x195E JUMP JUMPDEST PUSH0 DUP2 MSTORE PUSH0 PUSH1 0x20 DUP3 ADD MSTORE DUP3 PUSH1 0x40 DUP3 ADD MSTORE PUSH0 DUP4 DUP3 ADD MSTORE PUSH0 PUSH1 0x80 DUP3 ADD MSTORE ADD MSTORE PUSH1 0x6 SLOAD DUP1 DUP3 LT ISZERO PUSH2 0x71F JUMPI PUSH2 0xEE3 DUP3 PUSH2 0x185A JUMP JUMPDEST POP PUSH1 0x40 MLOAD PUSH2 0xEF0 DUP2 PUSH2 0x195E JUMP JUMPDEST DUP2 SLOAD PUSH1 0x1 PUSH1 0x1 PUSH1 0xA0 SHL SUB AND DUP2 MSTORE PUSH1 0x1 DUP3 ADD SLOAD PUSH1 0x20 DUP3 ADD SWAP1 DUP2 MSTORE PUSH1 0x40 MLOAD SWAP1 SWAP3 PUSH2 0x4BE SWAP2 SWAP1 PUSH1 0x5 SWAP1 PUSH2 0xF27 DUP4 PUSH2 0x968 DUP2 PUSH1 0x2 DUP6 ADD PUSH2 0x18DD JUMP JUMPDEST PUSH1 0x40 DUP6 ADD SWAP3 DUP4 MSTORE PUSH2 0xF9B PUSH1 0xFF PUSH1 0x3 DUP4 ADD SLOAD AND SWAP4 PUSH1 0x60 DUP8 ADD SWAP5 ISZERO ISZERO DUP6 MSTORE PUSH2 0xF63 PUSH1 0x4 DUP5 ADD SLOAD SWAP4 PUSH1 0x80 DUP10 ADD SWAP5 DUP6 MSTORE PUSH2 0x994 PUSH1 0x40 MLOAD DUP1 SWAP8 DUP2 SWAP4 ADD PUSH2 0x18DD JUMP JUMPDEST PUSH1 0xA0 DUP8 ADD SWAP4 DUP5 MSTORE PUSH1 0x40 MLOAD SWAP8 DUP9 SWAP8 PUSH1 0x20 DUP10 MSTORE PUSH1 0x1 DUP1 PUSH1 0xA0 SHL SUB SWAP1 MLOAD AND PUSH1 0x20 DUP10 ADD MSTORE MLOAD PUSH1 0x40 DUP9 ADD MSTORE MLOAD PUSH1 0xC0 PUSH1 0x60 DUP9 ADD MSTORE PUSH1 0xE0 DUP8 ADD SWAP1 PUSH2 0x17C7 JUMP JUMPDEST SWAP3 MLOAD ISZERO ISZERO PUSH1 0x80 DUP7 ADD MSTORE MLOAD PUSH1 0xA0 DUP6 ADD MSTORE MLOAD DUP4 DUP3 SUB PUSH1 0x1F NOT ADD PUSH1 0xC0 DUP6 ADD MSTORE PUSH2 0x17C7 JUMP JUMPDEST CALLVALUE PUSH2 0x302 JUMPI PUSH0 CALLDATASIZE PUSH1 0x3 NOT ADD SLT PUSH2 0x302 JUMPI PUSH2 0xFD4 PUSH2 0x1C3A JUMP JUMPDEST PUSH1 0x2 SLOAD PUSH1 0xFF DUP2 AND ISZERO PUSH2 0x1012 JUMPI PUSH1 0xFF NOT AND PUSH1 0x2 SSTORE PUSH32 0x5DB9EE0A495BF2E6FF9C91A7834C1BA4FDD244A5E8AA4E537BD38AEAE4B073AA PUSH1 0x20 PUSH2 0xB7C PUSH2 0x2379 JUMP JUMPDEST PUSH4 0x8DFC202B PUSH1 0xE0 SHL PUSH0 MSTORE PUSH1 0x4 PUSH0 REVERT JUMPDEST CALLVALUE PUSH2 0x302 JUMPI PUSH1 0x40 CALLDATASIZE PUSH1 0x3 NOT ADD SLT PUSH2 0x302 JUMPI PUSH2 0x103A PUSH2 0x169E JUMP JUMPDEST PUSH1 0x1 PUSH1 0x1 PUSH1 0xA0 SHL SUB PUSH2 0x104A PUSH2 0x2379 JUMP JUMPDEST AND PUSH1 0x1 PUSH1 0x1 PUSH1 0xA0 SHL SUB DUP3 AND SUB PUSH2 0x1066 JUMPI PUSH2 0x365 SWAP1 PUSH1 0x4 CALLDATALOAD PUSH2 0x233F JUMP JUMPDEST PUSH4 0x334BD919 PUSH1 0xE1 SHL PUSH0 MSTORE PUSH1 0x4 PUSH0 REVERT JUMPDEST CALLVALUE PUSH2 0x302 JUMPI PUSH1 0x40 CALLDATASIZE PUSH1 0x3 NOT ADD SLT PUSH2 0x302 JUMPI PUSH2 0x108E PUSH2 0x169E JUMP JUMPDEST PUSH1 0x4 CALLDATALOAD PUSH0 MSTORE PUSH1 0x5 PUSH1 0x20 MSTORE PUSH1 0x40 PUSH0 KECCAK256 SWAP1 PUSH1 0x1 DUP1 PUSH1 0xA0 SHL SUB AND PUSH0 MSTORE PUSH1 0x20 MSTORE PUSH1 0x20 PUSH1 0xFF PUSH1 0x40 PUSH0 KECCAK256 SLOAD AND PUSH1 0x40 MLOAD SWAP1 ISZERO ISZERO DUP2 MSTORE RETURN JUMPDEST CALLVALUE PUSH2 0x302 JUMPI PUSH1 0x40 CALLDATASIZE PUSH1 0x3 NOT ADD SLT PUSH2 0x302 JUMPI PUSH1 0x4 CALLDATALOAD PUSH2 0x10DA PUSH2 0x169E JUMP JUMPDEST PUSH2 0x10F2 PUSH2 0x35B DUP4 PUSH0 MSTORE PUSH0 PUSH1 0x20 MSTORE PUSH1 0x1 PUSH1 0x40 PUSH0 KECCAK256 ADD SLOAD SWAP1 JUMP JUMPDEST PUSH2 0x10FC DUP2 DUP4 PUSH2 0x2679 JUMP JUMPDEST PUSH2 0x1102 JUMPI STOP JUMPDEST PUSH0 SWAP2 DUP3 MSTORE PUSH1 0x1 PUSH1 0x20 MSTORE PUSH1 0x40 SWAP1 SWAP2 KECCAK256 PUSH2 0x365 SWAP2 PUSH1 0x1 PUSH1 0x1 PUSH1 0xA0 SHL SUB AND SWAP1 PUSH2 0x279B JUMP JUMPDEST CALLVALUE PUSH2 0x302 JUMPI PUSH1 0x20 CALLDATASIZE PUSH1 0x3 NOT ADD SLT PUSH2 0x302 JUMPI PUSH1 0x20 PUSH2 0x114D PUSH1 0x4 CALLDATALOAD PUSH0 MSTORE PUSH0 PUSH1 0x20 MSTORE PUSH1 0x1 PUSH1 0x40 PUSH0 KECCAK256 ADD SLOAD SWAP1 JUMP JUMPDEST PUSH1 0x40 MLOAD SWAP1 DUP2 MSTORE RETURN JUMPDEST CALLVALUE PUSH2 0x302 JUMPI PUSH1 0x20 CALLDATASIZE PUSH1 0x3 NOT ADD SLT PUSH2 0x302 JUMPI PUSH1 0x4 CALLDATALOAD PUSH2 0x1171 PUSH2 0x1BBF JUMP JUMPDEST PUSH2 0x1179 PUSH2 0x1CF3 JUMP JUMPDEST PUSH2 0x1182 DUP2 PUSH2 0x22DD JUMP JUMPDEST PUSH2 0x118A PUSH2 0x2379 JUMP JUMPDEST SWAP1 DUP3 PUSH0 MSTORE PUSH1 0x4 PUSH1 0x20 MSTORE PUSH2 0x11B8 PUSH1 0x40 PUSH0 KECCAK256 SWAP3 PUSH1 0x1 DUP1 PUSH1 0xA0 SHL SUB AND DUP1 SWAP4 PUSH1 0x1 SWAP2 PUSH0 MSTORE ADD PUSH1 0x20 MSTORE PUSH1 0x40 PUSH0 KECCAK256 SLOAD ISZERO ISZERO SWAP1 JUMP JUMPDEST ISZERO PUSH2 0x1221 JUMPI PUSH1 0x4 SWAP1 DUP4 PUSH0 MSTORE DUP2 PUSH1 0x20 MSTORE PUSH2 0x11D4 DUP4 PUSH1 0x40 PUSH0 KECCAK256 PUSH2 0x259E JUMP JUMPDEST POP DUP4 PUSH0 MSTORE PUSH1 0x5 PUSH1 0x20 MSTORE PUSH1 0x40 PUSH0 KECCAK256 DUP4 PUSH0 MSTORE PUSH1 0x20 MSTORE PUSH1 0x40 PUSH0 KECCAK256 PUSH1 0xFF NOT DUP2 SLOAD AND SWAP1 SSTORE ADD PUSH0 NOT DUP2 SLOAD ADD SWAP1 SSTORE PUSH32 0xF0DCA620E2E81F7841D07BCC105E1704FB01475B278A9D4C236E1C62945EDD55 PUSH0 DUP1 LOG3 STOP JUMPDEST POP SWAP1 PUSH4 0xB29436E9 PUSH1 0xE0 SHL PUSH0 MSTORE PUSH1 0x4 MSTORE PUSH1 0x24 MSTORE PUSH1 0x44 PUSH0 REVERT JUMPDEST CALLVALUE PUSH2 0x302 JUMPI PUSH2 0x1246 CALLDATASIZE PUSH2 0x16FA JUMP JUMPDEST SWAP3 SWAP7 SWAP1 SWAP6 SWAP2 PUSH2 0x1253 PUSH2 0x1BBF JUMP JUMPDEST PUSH2 0x125B PUSH2 0x1CF3 JUMP JUMPDEST PUSH2 0x1263 PUSH2 0x1D0E JUMP JUMPDEST DUP3 ISZERO PUSH2 0x63F JUMPI DUP5 DUP4 EQ DUP1 ISZERO SWAP1 PUSH2 0x1419 JUMPI JUMPDEST DUP1 ISZERO PUSH2 0x140F JUMPI JUMPDEST PUSH2 0x612 JUMPI PUSH2 0x128A SWAP6 SWAP2 SWAP6 PUSH2 0x2379 JUMP JUMPDEST SWAP5 PUSH2 0x1294 DUP5 PUSH2 0x19C5 JUMP JUMPDEST SWAP8 PUSH1 0x1 PUSH1 0x1 PUSH1 0xA0 SHL SUB DUP8 AND SWAP4 PUSH0 JUMPDEST DUP7 DUP2 LT PUSH2 0x12BC JUMPI PUSH1 0x1 PUSH1 0x3 SSTORE PUSH1 0x40 MLOAD DUP1 PUSH2 0x4BE DUP14 DUP3 PUSH2 0x178E JUMP JUMPDEST DUP1 DUP8 DUP8 DUP8 DUP16 DUP16 DUP16 DUP7 DUP16 SWAP3 DUP2 DUP5 DUP8 DUP16 DUP16 SWAP1 DUP16 DUP6 DUP12 DUP16 SWAP3 PUSH2 0x12DE DUP4 DUP1 SWAP7 DUP2 SWAP4 PUSH2 0x19F7 JUMP JUMPDEST PUSH2 0x12E7 SWAP1 PUSH2 0x1A07 JUMP JUMPDEST SWAP7 PUSH2 0x12F1 SWAP3 PUSH2 0x19F7 JUMP JUMPDEST PUSH1 0x40 MLOAD PUSH4 0xA9059CBB PUSH1 0xE0 SHL PUSH1 0x20 DUP3 ADD MSTORE PUSH1 0x1 PUSH1 0x1 PUSH1 0xA0 SHL SUB SWAP7 SWAP1 SWAP7 AND PUSH1 0x24 DUP8 ADD MSTORE CALLDATALOAD PUSH1 0x44 DUP1 DUP8 ADD SWAP2 SWAP1 SWAP2 MSTORE DUP6 MSTORE PUSH2 0x1329 PUSH1 0x64 DUP7 PUSH2 0x198D JUMP JUMPDEST PUSH2 0x1333 SWAP2 DUP11 PUSH2 0x19F7 JUMP JUMPDEST PUSH2 0x133C SWAP1 PUSH2 0x1A07 JUMP JUMPDEST SWAP4 PUSH2 0x1346 SWAP3 PUSH2 0x1A1B JUMP JUMPDEST CALLDATASIZE SWAP1 PUSH2 0x1351 SWAP3 PUSH2 0x1A77 JUMP JUMPDEST SWAP1 PUSH2 0x135B SWAP3 PUSH2 0x1D7D JUMP JUMPDEST PUSH2 0x1365 DUP3 DUP5 PUSH2 0x1AAD JUMP JUMPDEST MSTORE PUSH2 0x136F SWAP2 PUSH2 0x1AAD JUMP JUMPDEST MLOAD SWAP7 PUSH2 0x137A SWAP3 PUSH2 0x19F7 JUMP JUMPDEST PUSH2 0x1383 SWAP1 PUSH2 0x1A07 JUMP JUMPDEST SWAP2 DUP7 PUSH2 0x1390 DUP2 DUP14 DUP13 PUSH2 0x19F7 JUMP JUMPDEST PUSH2 0x1399 SWAP1 PUSH2 0x1A07 JUMP JUMPDEST SWAP5 PUSH2 0x13A3 SWAP3 PUSH2 0x19F7 JUMP JUMPDEST CALLDATALOAD SWAP6 PUSH2 0x13AF SWAP2 DUP11 PUSH2 0x1A1B JUMP JUMPDEST PUSH1 0x40 MLOAD PUSH1 0x1 PUSH1 0x1 PUSH1 0xA0 SHL SUB SWAP1 SWAP4 AND SWAP7 SWAP3 SWAP4 DUP5 SWAP4 PUSH2 0x13CD SWAP4 SWAP2 DUP6 PUSH2 0x1B10 JUMP JUMPDEST SUB PUSH32 0x97A1625FFE5FA52EA35B6D6808A64CF13BB4AB9BDCE9643B7A97F09C8922B933 SWAP2 LOG4 DUP9 PUSH2 0x13FC DUP3 DUP14 PUSH2 0x1AAD JUMP JUMPDEST MLOAD SWAP1 PUSH2 0x1407 SWAP2 PUSH2 0x21A9 JUMP JUMPDEST PUSH1 0x1 ADD PUSH2 0x12A2 JUMP JUMPDEST POP DUP4 DUP4 EQ ISZERO PUSH2 0x127B JUMP JUMPDEST POP DUP1 DUP4 EQ ISZERO PUSH2 0x1274 JUMP JUMPDEST CALLVALUE PUSH2 0x302 JUMPI PUSH2 0x1431 CALLDATASIZE PUSH2 0x16FA JUMP JUMPDEST PUSH2 0x1440 SWAP8 SWAP2 SWAP4 SWAP8 SWAP7 SWAP3 SWAP7 PUSH2 0x1BBF JUMP JUMPDEST PUSH2 0x1448 PUSH2 0x1CF3 JUMP JUMPDEST PUSH2 0x1450 PUSH2 0x1D0E JUMP JUMPDEST DUP3 ISZERO PUSH2 0x63F JUMPI DUP5 DUP4 EQ DUP1 ISZERO SWAP1 PUSH2 0x15D3 JUMPI JUMPDEST DUP1 ISZERO PUSH2 0x15C9 JUMPI JUMPDEST PUSH2 0x612 JUMPI PUSH2 0x1477 SWAP6 SWAP2 SWAP6 PUSH2 0x2379 JUMP JUMPDEST SWAP5 PUSH2 0x1481 DUP5 PUSH2 0x19C5 JUMP JUMPDEST SWAP8 PUSH1 0x1 PUSH1 0x1 PUSH1 0xA0 SHL SUB DUP8 AND SWAP4 PUSH0 JUMPDEST DUP7 DUP2 LT PUSH2 0x14A9 JUMPI PUSH1 0x1 PUSH1 0x3 SSTORE PUSH1 0x40 MLOAD DUP1 PUSH2 0x4BE DUP14 DUP3 PUSH2 0x178E JUMP JUMPDEST DUP8 DUP8 DUP8 DUP8 DUP16 DUP16 DUP16 DUP3 DUP9 DUP13 DUP4 DUP3 DUP15 SWAP7 DUP2 DUP16 DUP10 DUP16 DUP16 DUP5 DUP16 SWAP2 SWAP15 DUP2 SWAP16 DUP12 SWAP7 DUP4 SWAP16 PUSH2 0x14D3 DUP6 DUP1 SWAP5 DUP2 SWAP4 PUSH2 0x19F7 JUMP JUMPDEST PUSH2 0x14DC SWAP1 PUSH2 0x1A07 JUMP JUMPDEST SWAP9 PUSH2 0x14E6 SWAP3 PUSH2 0x19F7 JUMP JUMPDEST CALLDATALOAD SWAP6 PUSH2 0x14F1 SWAP3 PUSH2 0x1A1B JUMP JUMPDEST SWAP3 PUSH2 0x14FD SWAP3 SWAP2 SWAP5 PUSH2 0x1A1B JUMP JUMPDEST SWAP3 SWAP1 SWAP2 CALLDATASIZE SWAP1 PUSH2 0x150B SWAP3 PUSH2 0x1A77 JUMP JUMPDEST SWAP2 CALLDATASIZE SWAP1 PUSH2 0x1517 SWAP3 PUSH2 0x1A77 JUMP JUMPDEST SWAP2 PUSH2 0x1521 SWAP4 PUSH2 0x1FD2 JUMP JUMPDEST PUSH2 0x152B DUP3 DUP5 PUSH2 0x1AAD JUMP JUMPDEST MSTORE PUSH2 0x1535 SWAP2 PUSH2 0x1AAD JUMP JUMPDEST MLOAD SWAP11 PUSH2 0x1540 SWAP3 PUSH2 0x19F7 JUMP JUMPDEST PUSH2 0x1549 SWAP1 PUSH2 0x1A07 JUMP JUMPDEST SWAP6 PUSH2 0x1554 SWAP2 DUP14 PUSH2 0x19F7 JUMP JUMPDEST CALLDATALOAD SWAP4 PUSH2 0x155F SWAP3 PUSH2 0x1A1B JUMP JUMPDEST SWAP5 PUSH2 0x156B SWAP3 SWAP2 SWAP9 PUSH2 0x1A1B JUMP JUMPDEST SWAP1 PUSH1 0x40 MLOAD SWAP5 DUP6 SWAP5 PUSH1 0x1 PUSH1 0xA0 SHL PUSH1 0x1 SWAP1 SUB AND SWAP9 PUSH2 0x1587 SWAP5 DUP7 PUSH2 0x1AE1 JUMP JUMPDEST SUB PUSH32 0xA48C1B3842E6F2C3793E18D2B4FED84FC8C6D18C3687702A2B43492078551EFD SWAP2 LOG4 DUP9 PUSH2 0x15B6 DUP3 DUP14 PUSH2 0x1AAD JUMP JUMPDEST MLOAD SWAP1 PUSH2 0x15C1 SWAP2 PUSH2 0x21A9 JUMP JUMPDEST PUSH1 0x1 ADD PUSH2 0x148F JUMP JUMPDEST POP DUP1 DUP4 EQ ISZERO PUSH2 0x1468 JUMP JUMPDEST POP DUP7 DUP4 EQ ISZERO PUSH2 0x1461 JUMP JUMPDEST CALLVALUE PUSH2 0x302 JUMPI PUSH1 0x40 CALLDATASIZE PUSH1 0x3 NOT ADD SLT PUSH2 0x302 JUMPI PUSH1 0x20 PUSH2 0x1627 PUSH2 0x15FB PUSH2 0x169E JUMP JUMPDEST PUSH1 0x4 DUP1 CALLDATALOAD PUSH0 SWAP1 DUP2 MSTORE SWAP1 DUP5 MSTORE PUSH1 0x40 DUP1 DUP3 KECCAK256 PUSH1 0x1 PUSH1 0x1 PUSH1 0xA0 SHL SUB SWAP1 SWAP4 AND DUP3 MSTORE PUSH1 0x1 SWAP1 SWAP3 ADD PUSH1 0x20 MSTORE KECCAK256 SLOAD ISZERO ISZERO SWAP1 JUMP JUMPDEST PUSH1 0x40 MLOAD SWAP1 ISZERO ISZERO DUP2 MSTORE RETURN JUMPDEST CALLVALUE PUSH2 0x302 JUMPI PUSH1 0x20 CALLDATASIZE PUSH1 0x3 NOT ADD SLT PUSH2 0x302 JUMPI PUSH1 0x4 CALLDATALOAD SWAP1 PUSH4 0xFFFFFFFF PUSH1 0xE0 SHL DUP3 AND DUP1 SWAP3 SUB PUSH2 0x302 JUMPI PUSH1 0x20 SWAP2 PUSH4 0x5A05180F PUSH1 0xE0 SHL DUP2 EQ SWAP1 DUP2 ISZERO PUSH2 0x1673 JUMPI JUMPDEST POP ISZERO ISZERO DUP2 MSTORE RETURN JUMPDEST PUSH4 0x7965DB0B PUSH1 0xE0 SHL DUP2 EQ SWAP2 POP DUP2 ISZERO PUSH2 0x168D JUMPI JUMPDEST POP DUP4 PUSH2 0x166C JUMP JUMPDEST PUSH4 0x1FFC9A7 PUSH1 0xE0 SHL EQ SWAP1 POP DUP4 PUSH2 0x1686 JUMP JUMPDEST PUSH1 0x24 CALLDATALOAD SWAP1 PUSH1 0x1 PUSH1 0x1 PUSH1 0xA0 SHL SUB DUP3 AND DUP3 SUB PUSH2 0x302 JUMPI JUMP JUMPDEST PUSH1 0x4 CALLDATALOAD SWAP1 PUSH1 0x1 PUSH1 0x1 PUSH1 0xA0 SHL SUB DUP3 AND DUP3 SUB PUSH2 0x302 JUMPI JUMP JUMPDEST SWAP2 DUP2 PUSH1 0x1F DUP5 ADD SLT ISZERO PUSH2 0x302 JUMPI DUP3 CALLDATALOAD SWAP2 PUSH1 0x1 PUSH1 0x1 PUSH1 0x40 SHL SUB DUP4 GT PUSH2 0x302 JUMPI PUSH1 0x20 DUP1 DUP6 ADD SWAP5 DUP5 PUSH1 0x5 SHL ADD ADD GT PUSH2 0x302 JUMPI JUMP JUMPDEST PUSH1 0x80 PUSH1 0x3 NOT DUP3 ADD SLT PUSH2 0x302 JUMPI PUSH1 0x4 CALLDATALOAD PUSH1 0x1 PUSH1 0x1 PUSH1 0x40 SHL SUB DUP2 GT PUSH2 0x302 JUMPI DUP2 PUSH2 0x1724 SWAP2 PUSH1 0x4 ADD PUSH2 0x16CA JUMP JUMPDEST SWAP3 SWAP1 SWAP3 SWAP2 PUSH1 0x24 CALLDATALOAD PUSH1 0x1 PUSH1 0x1 PUSH1 0x40 SHL SUB DUP2 GT PUSH2 0x302 JUMPI DUP2 PUSH2 0x1746 SWAP2 PUSH1 0x4 ADD PUSH2 0x16CA JUMP JUMPDEST SWAP3 SWAP1 SWAP3 SWAP2 PUSH1 0x44 CALLDATALOAD PUSH1 0x1 PUSH1 0x1 PUSH1 0x40 SHL SUB DUP2 GT PUSH2 0x302 JUMPI DUP2 PUSH2 0x1768 SWAP2 PUSH1 0x4 ADD PUSH2 0x16CA JUMP JUMPDEST SWAP3 SWAP1 SWAP3 SWAP2 PUSH1 0x64 CALLDATALOAD SWAP1 PUSH1 0x1 PUSH1 0x1 PUSH1 0x40 SHL SUB DUP3 GT PUSH2 0x302 JUMPI PUSH2 0x178A SWAP2 PUSH1 0x4 ADD PUSH2 0x16CA JUMP JUMPDEST SWAP1 SWAP2 JUMP JUMPDEST PUSH1 0x20 PUSH1 0x40 DUP2 DUP4 ADD SWAP3 DUP3 DUP2 MSTORE DUP5 MLOAD DUP1 SWAP5 MSTORE ADD SWAP3 ADD SWAP1 PUSH0 JUMPDEST DUP2 DUP2 LT PUSH2 0x17B1 JUMPI POP POP POP SWAP1 JUMP JUMPDEST DUP3 MLOAD DUP5 MSTORE PUSH1 0x20 SWAP4 DUP5 ADD SWAP4 SWAP1 SWAP3 ADD SWAP2 PUSH1 0x1 ADD PUSH2 0x17A4 JUMP JUMPDEST DUP1 MLOAD DUP1 DUP4 MSTORE PUSH1 0x20 SWAP3 SWAP2 DUP2 SWAP1 DUP5 ADD DUP5 DUP5 ADD MCOPY PUSH0 DUP3 DUP3 ADD DUP5 ADD MSTORE PUSH1 0x1F ADD PUSH1 0x1F NOT AND ADD ADD SWAP1 JUMP JUMPDEST SWAP2 DUP2 PUSH1 0x1F DUP5 ADD SLT ISZERO PUSH2 0x302 JUMPI DUP3 CALLDATALOAD SWAP2 PUSH1 0x1 PUSH1 0x1 PUSH1 0x40 SHL SUB DUP4 GT PUSH2 0x302 JUMPI PUSH1 0x20 DUP4 DUP2 DUP7 ADD SWAP6 ADD ADD GT PUSH2 0x302 JUMPI JUMP JUMPDEST PUSH1 0x20 PUSH1 0x40 DUP2 DUP4 ADD SWAP3 DUP3 DUP2 MSTORE DUP5 MLOAD DUP1 SWAP5 MSTORE ADD SWAP3 ADD SWAP1 PUSH0 JUMPDEST DUP2 DUP2 LT PUSH2 0x183B JUMPI POP POP POP SWAP1 JUMP JUMPDEST DUP3 MLOAD PUSH1 0x1 PUSH1 0x1 PUSH1 0xA0 SHL SUB AND DUP5 MSTORE PUSH1 0x20 SWAP4 DUP5 ADD SWAP4 SWAP1 SWAP3 ADD SWAP2 PUSH1 0x1 ADD PUSH2 0x182E JUMP JUMPDEST PUSH1 0x6 SLOAD DUP2 LT ISZERO PUSH2 0x1891 JUMPI PUSH1 0x6 PUSH0 DUP2 DUP2 MSTORE SWAP2 MUL PUSH32 0xF652222313E28459528D920B65115C16C04F3EFC82AAEDC97BE59F3F377C0D3F ADD SWAP2 JUMP JUMPDEST PUSH4 0x4E487B71 PUSH1 0xE0 SHL PUSH0 MSTORE PUSH1 0x32 PUSH1 0x4 MSTORE PUSH1 0x24 PUSH0 REVERT JUMPDEST SWAP1 PUSH1 0x1 DUP3 DUP2 SHR SWAP3 AND DUP1 ISZERO PUSH2 0x18D3 JUMPI JUMPDEST PUSH1 0x20 DUP4 LT EQ PUSH2 0x18BF JUMPI JUMP JUMPDEST PUSH4 0x4E487B71 PUSH1 0xE0 SHL PUSH0 MSTORE PUSH1 0x22 PUSH1 0x4 MSTORE PUSH1 0x24 PUSH0 REVERT JUMPDEST SWAP2 PUSH1 0x7F AND SWAP2 PUSH2 0x18B4 JUMP JUMPDEST PUSH0 SWAP3 SWAP2 DUP2 SLOAD SWAP2 PUSH2 0x18EC DUP4 PUSH2 0x18A5 JUMP JUMPDEST DUP1 DUP4 MSTORE SWAP3 PUSH1 0x1 DUP2 AND SWAP1 DUP2 ISZERO PUSH2 0x1941 JUMPI POP PUSH1 0x1 EQ PUSH2 0x1908 JUMPI POP POP POP JUMP JUMPDEST PUSH0 SWAP1 DUP2 MSTORE PUSH1 0x20 DUP2 KECCAK256 SWAP4 SWAP5 POP SWAP2 SWAP3 JUMPDEST DUP4 DUP4 LT PUSH2 0x1927 JUMPI POP PUSH1 0x20 SWAP3 POP ADD ADD SWAP1 JUMP JUMPDEST PUSH1 0x1 DUP2 PUSH1 0x20 SWAP3 SWAP5 SWAP4 SWAP5 SLOAD DUP4 DUP6 DUP8 ADD ADD MSTORE ADD SWAP2 ADD SWAP2 SWAP1 PUSH2 0x1916 JUMP JUMPDEST SWAP2 POP POP PUSH1 0x20 SWAP4 SWAP5 POP PUSH1 0xFF SWAP3 SWAP2 SWAP3 NOT AND DUP4 DUP4 ADD MSTORE ISZERO ISZERO PUSH1 0x5 SHL ADD ADD SWAP1 JUMP JUMPDEST PUSH1 0xC0 DUP2 ADD SWAP1 DUP2 LT PUSH1 0x1 PUSH1 0x1 PUSH1 0x40 SHL SUB DUP3 GT OR PUSH2 0x1979 JUMPI PUSH1 0x40 MSTORE JUMP JUMPDEST PUSH4 0x4E487B71 PUSH1 0xE0 SHL PUSH0 MSTORE PUSH1 0x41 PUSH1 0x4 MSTORE PUSH1 0x24 PUSH0 REVERT JUMPDEST SWAP1 PUSH1 0x1F DUP1 NOT SWAP2 ADD AND DUP2 ADD SWAP1 DUP2 LT PUSH1 0x1 PUSH1 0x1 PUSH1 0x40 SHL SUB DUP3 GT OR PUSH2 0x1979 JUMPI PUSH1 0x40 MSTORE JUMP JUMPDEST PUSH1 0x1 PUSH1 0x1 PUSH1 0x40 SHL SUB DUP2 GT PUSH2 0x1979 JUMPI PUSH1 0x5 SHL PUSH1 0x20 ADD SWAP1 JUMP JUMPDEST SWAP1 PUSH2 0x19CF DUP3 PUSH2 0x19AE JUMP JUMPDEST PUSH2 0x19DC PUSH1 0x40 MLOAD SWAP2 DUP3 PUSH2 0x198D JUMP JUMPDEST DUP3 DUP2 MSTORE DUP1 SWAP3 PUSH2 0x19ED PUSH1 0x1F NOT SWAP2 PUSH2 0x19AE JUMP JUMPDEST ADD SWAP1 PUSH1 0x20 CALLDATASIZE SWAP2 ADD CALLDATACOPY JUMP JUMPDEST SWAP2 SWAP1 DUP2 LT ISZERO PUSH2 0x1891 JUMPI PUSH1 0x5 SHL ADD SWAP1 JUMP JUMPDEST CALLDATALOAD PUSH1 0x1 PUSH1 0x1 PUSH1 0xA0 SHL SUB DUP2 AND DUP2 SUB PUSH2 0x302 JUMPI SWAP1 JUMP JUMPDEST SWAP2 SWAP1 DUP2 LT ISZERO PUSH2 0x1891 JUMPI PUSH1 0x5 SHL DUP2 ADD CALLDATALOAD SWAP1 PUSH1 0x1E NOT DUP2 CALLDATASIZE SUB ADD DUP3 SLT ISZERO PUSH2 0x302 JUMPI ADD SWAP1 DUP2 CALLDATALOAD SWAP2 PUSH1 0x1 PUSH1 0x1 PUSH1 0x40 SHL SUB DUP4 GT PUSH2 0x302 JUMPI PUSH1 0x20 ADD DUP3 CALLDATASIZE SUB DUP2 SGT PUSH2 0x302 JUMPI SWAP2 SWAP1 JUMP JUMPDEST PUSH1 0x1 PUSH1 0x1 PUSH1 0x40 SHL SUB DUP2 GT PUSH2 0x1979 JUMPI PUSH1 0x1F ADD PUSH1 0x1F NOT AND PUSH1 0x20 ADD SWAP1 JUMP JUMPDEST SWAP3 SWAP2 SWAP3 PUSH2 0x1A83 DUP3 PUSH2 0x1A5C JUMP JUMPDEST SWAP2 PUSH2 0x1A91 PUSH1 0x40 MLOAD SWAP4 DUP5 PUSH2 0x198D JUMP JUMPDEST DUP3 SWAP5 DUP2 DUP5 MSTORE DUP2 DUP4 ADD GT PUSH2 0x302 JUMPI DUP3 DUP2 PUSH1 0x20 SWAP4 DUP5 PUSH0 SWAP7 ADD CALLDATACOPY ADD ADD MSTORE JUMP JUMPDEST DUP1 MLOAD DUP3 LT ISZERO PUSH2 0x1891 JUMPI PUSH1 0x20 SWAP2 PUSH1 0x5 SHL ADD ADD SWAP1 JUMP JUMPDEST SWAP1 DUP1 PUSH1 0x20 SWAP4 SWAP3 DUP2 DUP5 MSTORE DUP5 DUP5 ADD CALLDATACOPY PUSH0 DUP3 DUP3 ADD DUP5 ADD MSTORE PUSH1 0x1F ADD PUSH1 0x1F NOT AND ADD ADD SWAP1 JUMP JUMPDEST SWAP4 SWAP2 PUSH2 0x1B0D SWAP6 SWAP4 PUSH2 0x1AFF SWAP3 DUP7 MSTORE PUSH1 0x60 PUSH1 0x20 DUP8 ADD MSTORE PUSH1 0x60 DUP7 ADD SWAP2 PUSH2 0x1AC1 JUMP JUMPDEST SWAP3 PUSH1 0x40 DUP2 DUP6 SUB SWAP2 ADD MSTORE PUSH2 0x1AC1 JUMP JUMPDEST SWAP1 JUMP JUMPDEST PUSH2 0x1B0D SWAP5 SWAP3 PUSH1 0x60 SWAP3 PUSH1 0x1 DUP1 PUSH1 0xA0 SHL SUB AND DUP3 MSTORE PUSH1 0x20 DUP3 ADD MSTORE DUP2 PUSH1 0x40 DUP3 ADD MSTORE ADD SWAP2 PUSH2 0x1AC1 JUMP JUMPDEST PUSH1 0x24 SWAP1 PUSH2 0x1B6C SWAP3 SWAP5 SWAP4 DUP1 PUSH1 0x40 MLOAD SWAP7 DUP8 SWAP4 PUSH4 0xFFFFFFFF PUSH1 0xE0 SHL AND PUSH1 0x20 DUP6 ADD MSTORE DUP5 DUP5 ADD CALLDATACOPY DUP2 ADD PUSH0 DUP4 DUP3 ADD MSTORE SUB ADD PUSH1 0x1F NOT DUP2 ADD DUP5 MSTORE DUP4 PUSH2 0x198D JUMP JUMPDEST JUMP JUMPDEST SWAP5 SWAP3 SWAP1 SWAP4 PUSH2 0x1B9C SWAP3 PUSH2 0x1B0D SWAP8 SWAP6 DUP8 MSTORE PUSH4 0xFFFFFFFF PUSH1 0xE0 SHL AND PUSH1 0x20 DUP8 ADD MSTORE PUSH1 0x80 PUSH1 0x40 DUP8 ADD MSTORE PUSH1 0x80 DUP7 ADD SWAP2 PUSH2 0x1AC1 JUMP JUMPDEST SWAP3 PUSH1 0x60 DUP2 DUP6 SUB SWAP2 ADD MSTORE PUSH2 0x1AC1 JUMP JUMPDEST CALLDATALOAD PUSH1 0x1 PUSH1 0x1 PUSH1 0xE0 SHL SUB NOT DUP2 AND DUP2 SUB PUSH2 0x302 JUMPI SWAP1 JUMP JUMPDEST PUSH2 0x1BC7 PUSH2 0x2379 JUMP JUMPDEST PUSH1 0x1 PUSH1 0x1 PUSH1 0xA0 SHL SUB DUP2 AND PUSH0 SWAP1 DUP2 MSTORE PUSH32 0x59F08E7D7BA1C82EDDC57AFAE67F80DF851BAF38A099607A779825038C3CE5B PUSH1 0x20 MSTORE PUSH1 0x40 SWAP1 KECCAK256 SLOAD PUSH1 0xFF AND ISZERO PUSH2 0x1C09 JUMPI POP JUMP JUMPDEST PUSH4 0xE2517D3F PUSH1 0xE0 SHL PUSH0 SWAP1 DUP2 MSTORE PUSH1 0x1 PUSH1 0x1 PUSH1 0xA0 SHL SUB SWAP2 SWAP1 SWAP2 AND PUSH1 0x4 MSTORE PUSH0 MLOAD PUSH1 0x20 PUSH2 0x27E9 PUSH0 CODECOPY PUSH0 MLOAD SWAP1 PUSH0 MSTORE PUSH1 0x24 MSTORE PUSH1 0x44 SWAP1 REVERT JUMPDEST PUSH2 0x1C42 PUSH2 0x2379 JUMP JUMPDEST PUSH1 0x1 PUSH1 0x1 PUSH1 0xA0 SHL SUB DUP2 AND PUSH0 SWAP1 DUP2 MSTORE PUSH32 0xAD3228B676F7D3CD4284A5443F17F1962B36E491B30A40B2405849E597BA5FB5 PUSH1 0x20 MSTORE PUSH1 0x40 SWAP1 KECCAK256 SLOAD PUSH1 0xFF AND ISZERO PUSH2 0x1C84 JUMPI POP JUMP JUMPDEST PUSH4 0xE2517D3F PUSH1 0xE0 SHL PUSH0 MSTORE PUSH1 0x1 DUP1 PUSH1 0xA0 SHL SUB AND PUSH1 0x4 MSTORE PUSH0 PUSH1 0x24 MSTORE PUSH1 0x44 PUSH0 REVERT JUMPDEST PUSH2 0x1CAA PUSH2 0x2379 JUMP JUMPDEST PUSH0 DUP3 DUP2 MSTORE PUSH1 0x20 DUP2 DUP2 MSTORE PUSH1 0x40 DUP1 DUP4 KECCAK256 PUSH1 0x1 PUSH1 0x1 PUSH1 0xA0 SHL SUB DUP6 AND DUP5 MSTORE SWAP1 SWAP2 MSTORE SWAP1 KECCAK256 SLOAD PUSH1 0xFF AND ISZERO PUSH2 0x1CD6 JUMPI POP POP JUMP JUMPDEST PUSH4 0xE2517D3F PUSH1 0xE0 SHL PUSH0 MSTORE PUSH1 0x1 DUP1 PUSH1 0xA0 SHL SUB AND PUSH1 0x4 MSTORE PUSH1 0x24 MSTORE PUSH1 0x44 PUSH0 REVERT JUMPDEST PUSH1 0xFF PUSH1 0x2 SLOAD AND PUSH2 0x1CFF JUMPI JUMP JUMPDEST PUSH4 0xD93C0665 PUSH1 0xE0 SHL PUSH0 MSTORE PUSH1 0x4 PUSH0 REVERT JUMPDEST PUSH1 0x2 PUSH1 0x3 SLOAD EQ PUSH2 0x1D1F JUMPI PUSH1 0x2 PUSH1 0x3 SSTORE JUMP JUMPDEST PUSH4 0x3EE5AEB5 PUSH1 0xE0 SHL PUSH0 MSTORE PUSH1 0x4 PUSH0 REVERT JUMPDEST PUSH1 0x1F DUP3 GT PUSH2 0x1D3B JUMPI POP POP POP JUMP JUMPDEST PUSH0 MSTORE PUSH1 0x20 PUSH0 KECCAK256 SWAP1 PUSH1 0x20 PUSH1 0x1F DUP5 ADD PUSH1 0x5 SHR DUP4 ADD SWAP4 LT PUSH2 0x1D73 JUMPI JUMPDEST PUSH1 0x1F ADD PUSH1 0x5 SHR ADD SWAP1 JUMPDEST DUP2 DUP2 LT PUSH2 0x1D68 JUMPI POP POP JUMP JUMPDEST PUSH0 DUP2 SSTORE PUSH1 0x1 ADD PUSH2 0x1D5D JUMP JUMPDEST SWAP1 SWAP2 POP DUP2 SWAP1 PUSH2 0x1D54 JUMP JUMPDEST SWAP3 SWAP1 SWAP2 SWAP3 PUSH1 0x6 SLOAD SWAP3 PUSH1 0x40 MLOAD SWAP2 PUSH2 0x1D92 DUP4 PUSH2 0x195E JUMP JUMPDEST PUSH1 0x1 PUSH1 0x1 PUSH1 0xA0 SHL SUB AND DUP3 MSTORE PUSH0 PUSH1 0x20 DUP4 ADD DUP2 DUP2 MSTORE PUSH1 0x40 DUP5 ADD SWAP3 DUP4 MSTORE PUSH1 0x60 DUP5 ADD DUP3 DUP2 MSTORE PUSH1 0x80 DUP6 ADD SWAP3 DUP4 MSTORE PUSH1 0xA0 DUP6 ADD SWAP8 DUP9 MSTORE SWAP2 SWAP3 SWAP1 PUSH1 0x1 PUSH1 0x40 SHL DUP8 LT ISZERO PUSH2 0x1979 JUMPI PUSH1 0x1 DUP8 ADD PUSH1 0x6 SSTORE PUSH2 0x1DE0 DUP8 PUSH2 0x185A JUMP JUMPDEST SWAP6 SWAP1 SWAP6 PUSH2 0x1FBF JUMPI MLOAD DUP6 SLOAD PUSH1 0x1 PUSH1 0x1 PUSH1 0xA0 SHL SUB NOT AND PUSH1 0x1 PUSH1 0x1 PUSH1 0xA0 SHL SUB SWAP2 SWAP1 SWAP2 AND OR DUP6 SSTORE MLOAD PUSH1 0x1 DUP6 ADD SSTORE MLOAD DUP1 MLOAD PUSH1 0x2 DUP6 ADD SWAP2 PUSH1 0x1 PUSH1 0x1 PUSH1 0x40 SHL SUB DUP3 GT PUSH2 0x1979 JUMPI PUSH2 0x1E33 DUP3 PUSH2 0x1E2D DUP6 SLOAD PUSH2 0x18A5 JUMP JUMPDEST DUP6 PUSH2 0x1D2E JUMP JUMPDEST PUSH1 0x20 SWAP1 PUSH1 0x1F DUP4 GT PUSH1 0x1 EQ PUSH2 0x1F53 JUMPI DUP3 PUSH1 0x5 SWAP8 SWAP7 SWAP6 SWAP4 PUSH2 0x1E87 SWAP6 SWAP4 PUSH2 0x1E6C SWAP4 PUSH0 SWAP3 PUSH2 0x1EEA JUMPI JUMPDEST POP POP DUP2 PUSH1 0x1 SHL SWAP2 PUSH0 NOT SWAP1 PUSH1 0x3 SHL SHR NOT AND OR SWAP1 JUMP JUMPDEST SWAP1 SSTORE JUMPDEST MLOAD ISZERO ISZERO PUSH1 0x3 DUP5 ADD SWAP1 PUSH1 0xFF DUP1 NOT DUP4 SLOAD AND SWAP2 ISZERO ISZERO AND OR SWAP1 SSTORE JUMP JUMPDEST MLOAD PUSH1 0x4 DUP3 ADD SSTORE ADD SWAP3 MLOAD SWAP3 DUP4 MLOAD PUSH1 0x1 PUSH1 0x1 PUSH1 0x40 SHL SUB DUP2 GT PUSH2 0x1979 JUMPI PUSH2 0x1EB5 DUP2 PUSH2 0x1EAF DUP5 SLOAD PUSH2 0x18A5 JUMP JUMPDEST DUP5 PUSH2 0x1D2E JUMP JUMPDEST PUSH1 0x20 SWAP5 PUSH1 0x1F DUP3 GT PUSH1 0x1 EQ PUSH2 0x1EF5 JUMPI PUSH2 0x1EE6 SWAP3 SWAP4 SWAP5 SWAP6 DUP3 SWAP2 PUSH0 SWAP3 PUSH2 0x1EEA JUMPI POP POP DUP2 PUSH1 0x1 SHL SWAP2 PUSH0 NOT SWAP1 PUSH1 0x3 SHL SHR NOT AND OR SWAP1 JUMP JUMPDEST SWAP1 SSTORE JUMP JUMPDEST ADD MLOAD SWAP1 POP PUSH0 DUP1 PUSH2 0x1E58 JUMP JUMPDEST PUSH1 0x1F NOT DUP3 AND SWAP6 DUP4 PUSH0 MSTORE DUP1 PUSH0 KECCAK256 SWAP2 PUSH0 JUMPDEST DUP9 DUP2 LT PUSH2 0x1F3B JUMPI POP DUP4 PUSH1 0x1 SWAP6 SWAP7 SWAP8 SWAP9 LT PUSH2 0x1F23 JUMPI JUMPDEST POP POP POP DUP2 SHL ADD SWAP1 SSTORE JUMP JUMPDEST ADD MLOAD PUSH0 NOT PUSH1 0xF8 DUP5 PUSH1 0x3 SHL AND SHR NOT AND SWAP1 SSTORE PUSH0 DUP1 DUP1 PUSH2 0x1F19 JUMP JUMPDEST SWAP2 SWAP3 PUSH1 0x20 PUSH1 0x1 DUP2 SWAP3 DUP7 DUP6 ADD MLOAD DUP2 SSTORE ADD SWAP5 ADD SWAP3 ADD PUSH2 0x1F04 JUMP JUMPDEST SWAP1 PUSH1 0x1F NOT DUP4 AND SWAP2 DUP5 PUSH0 MSTORE DUP2 PUSH0 KECCAK256 SWAP3 PUSH0 JUMPDEST DUP2 DUP2 LT PUSH2 0x1FA7 JUMPI POP SWAP3 PUSH1 0x1 SWAP3 DUP6 SWAP3 PUSH1 0x5 SWAP11 SWAP10 SWAP9 SWAP7 PUSH2 0x1E87 SWAP9 SWAP7 LT PUSH2 0x1F8F JUMPI JUMPDEST POP POP POP DUP2 SHL ADD SWAP1 SSTORE PUSH2 0x1E6F JUMP JUMPDEST ADD MLOAD PUSH0 NOT PUSH1 0xF8 DUP5 PUSH1 0x3 SHL AND SHR NOT AND SWAP1 SSTORE PUSH0 DUP1 DUP1 PUSH2 0x1F82 JUMP JUMPDEST SWAP3 SWAP4 PUSH1 0x20 PUSH1 0x1 DUP2 SWAP3 DUP8 DUP7 ADD MLOAD DUP2 SSTORE ADD SWAP6 ADD SWAP4 ADD PUSH2 0x1F63 JUMP JUMPDEST PUSH4 0x4E487B71 PUSH1 0xE0 SHL PUSH0 MSTORE PUSH0 PUSH1 0x4 MSTORE PUSH1 0x24 PUSH0 REVERT JUMPDEST SWAP1 SWAP4 SWAP2 SWAP3 SWAP4 PUSH1 0x6 SLOAD SWAP4 PUSH1 0x40 MLOAD SWAP3 PUSH2 0x1FE8 DUP5 PUSH2 0x195E JUMP JUMPDEST PUSH1 0x1 DUP1 PUSH1 0xA0 SHL SUB AND DUP4 MSTORE PUSH1 0x20 DUP4 ADD SWAP2 DUP3 MSTORE PUSH1 0x40 DUP4 ADD SWAP1 DUP2 MSTORE PUSH1 0x60 DUP4 ADD SWAP1 PUSH0 DUP3 MSTORE PUSH1 0x80 DUP5 ADD SWAP3 PUSH0 DUP5 MSTORE PUSH1 0xA0 DUP6 ADD SWAP8 DUP9 MSTORE PUSH1 0x1 PUSH1 0x40 SHL DUP8 LT ISZERO PUSH2 0x1979 JUMPI PUSH1 0x1 DUP8 ADD PUSH1 0x6 SSTORE PUSH2 0x2033 DUP8 PUSH2 0x185A JUMP JUMPDEST SWAP6 SWAP1 SWAP6 PUSH2 0x1FBF JUMPI MLOAD DUP6 SLOAD PUSH1 0x1 PUSH1 0x1 PUSH1 0xA0 SHL SUB NOT AND PUSH1 0x1 PUSH1 0x1 PUSH1 0xA0 SHL SUB SWAP2 SWAP1 SWAP2 AND OR DUP6 SSTORE MLOAD PUSH1 0x1 DUP6 ADD SSTORE MLOAD DUP1 MLOAD PUSH1 0x2 DUP6 ADD SWAP2 PUSH1 0x1 PUSH1 0x1 PUSH1 0x40 SHL SUB DUP3 GT PUSH2 0x1979 JUMPI PUSH2 0x2080 DUP3 PUSH2 0x1E2D DUP6 SLOAD PUSH2 0x18A5 JUMP JUMPDEST PUSH1 0x20 SWAP1 PUSH1 0x1F DUP4 GT PUSH1 0x1 EQ PUSH2 0x2156 JUMPI DUP3 PUSH1 0x5 SWAP8 SWAP7 SWAP6 SWAP4 PUSH2 0x20B8 SWAP6 SWAP4 PUSH2 0x1E6C SWAP4 PUSH0 SWAP3 PUSH2 0x1EEA JUMPI POP POP DUP2 PUSH1 0x1 SHL SWAP2 PUSH0 NOT SWAP1 PUSH1 0x3 SHL SHR NOT AND OR SWAP1 JUMP JUMPDEST MLOAD PUSH1 0x4 DUP3 ADD SSTORE ADD SWAP3 MLOAD SWAP3 DUP4 MLOAD PUSH1 0x1 PUSH1 0x1 PUSH1 0x40 SHL SUB DUP2 GT PUSH2 0x1979 JUMPI PUSH2 0x20E0 DUP2 PUSH2 0x1EAF DUP5 SLOAD PUSH2 0x18A5 JUMP JUMPDEST PUSH1 0x20 SWAP5 PUSH1 0x1F DUP3 GT PUSH1 0x1 EQ PUSH2 0x2111 JUMPI PUSH2 0x1EE6 SWAP3 SWAP4 SWAP5 SWAP6 DUP3 SWAP2 PUSH0 SWAP3 PUSH2 0x1EEA JUMPI POP POP DUP2 PUSH1 0x1 SHL SWAP2 PUSH0 NOT SWAP1 PUSH1 0x3 SHL SHR NOT AND OR SWAP1 JUMP JUMPDEST PUSH1 0x1F NOT DUP3 AND SWAP6 DUP4 PUSH0 MSTORE DUP1 PUSH0 KECCAK256 SWAP2 PUSH0 JUMPDEST DUP9 DUP2 LT PUSH2 0x213E JUMPI POP DUP4 PUSH1 0x1 SWAP6 SWAP7 SWAP8 SWAP9 LT PUSH2 0x1F23 JUMPI POP POP POP DUP2 SHL ADD SWAP1 SSTORE JUMP JUMPDEST SWAP2 SWAP3 PUSH1 0x20 PUSH1 0x1 DUP2 SWAP3 DUP7 DUP6 ADD MLOAD DUP2 SSTORE ADD SWAP5 ADD SWAP3 ADD PUSH2 0x2120 JUMP JUMPDEST SWAP1 PUSH1 0x1F NOT DUP4 AND SWAP2 DUP5 PUSH0 MSTORE DUP2 PUSH0 KECCAK256 SWAP3 PUSH0 JUMPDEST DUP2 DUP2 LT PUSH2 0x2191 JUMPI POP SWAP3 PUSH1 0x1 SWAP3 DUP6 SWAP3 PUSH1 0x5 SWAP11 SWAP10 SWAP9 SWAP7 PUSH2 0x20B8 SWAP9 SWAP7 LT PUSH2 0x1F8F JUMPI POP POP POP DUP2 SHL ADD SWAP1 SSTORE PUSH2 0x1E6F JUMP JUMPDEST SWAP3 SWAP4 PUSH1 0x20 PUSH1 0x1 DUP2 SWAP3 DUP8 DUP7 ADD MLOAD DUP2 SSTORE ADD SWAP6 ADD SWAP4 ADD PUSH2 0x2166 JUMP JUMPDEST PUSH2 0x21B2 DUP2 PUSH2 0x22DD JUMP JUMPDEST SWAP2 DUP2 PUSH0 MSTORE PUSH1 0x4 PUSH1 0x20 MSTORE PUSH1 0x40 PUSH0 KECCAK256 PUSH2 0x21E0 PUSH1 0x1 DUP1 PUSH1 0xA0 SHL SUB DUP4 AND DUP1 SWAP3 PUSH1 0x1 SWAP2 PUSH0 MSTORE ADD PUSH1 0x20 MSTORE PUSH1 0x40 PUSH0 KECCAK256 SLOAD ISZERO ISZERO SWAP1 JUMP JUMPDEST PUSH2 0x22C7 JUMPI DUP3 PUSH0 MSTORE PUSH1 0x4 PUSH1 0x20 MSTORE PUSH2 0x21F9 DUP2 PUSH1 0x40 PUSH0 KECCAK256 PUSH2 0x279B JUMP JUMPDEST POP DUP3 PUSH0 MSTORE PUSH1 0x5 PUSH1 0x20 MSTORE PUSH1 0x40 PUSH0 KECCAK256 DUP2 PUSH0 MSTORE PUSH1 0x20 MSTORE PUSH1 0x40 PUSH0 KECCAK256 PUSH1 0x1 PUSH1 0xFF NOT DUP3 SLOAD AND OR SWAP1 SSTORE DUP3 PUSH1 0x4 DUP6 ADD SWAP2 PUSH1 0x1 DUP4 SLOAD ADD DUP1 SWAP4 SSTORE PUSH32 0x5CBE105E36805F7820E291F799D5794FF948AF2A5F664E580382DEFB63390041 PUSH0 DUP1 LOG3 PUSH1 0x7 SLOAD GT ISZERO DUP1 PUSH2 0x22B8 JUMPI JUMPDEST PUSH2 0x2261 JUMPI POP POP POP JUMP JUMPDEST PUSH2 0x226B SWAP1 DUP3 PUSH2 0x23D2 JUMP JUMPDEST ISZERO PUSH2 0x2274 JUMPI POP POP JUMP JUMPDEST DUP2 SLOAD PUSH1 0x40 MLOAD PUSH4 0x5F226AFD PUSH1 0xE1 SHL DUP2 MSTORE PUSH1 0x4 DUP2 ADD SWAP3 SWAP1 SWAP3 MSTORE PUSH1 0x1 PUSH1 0x1 PUSH1 0xA0 SHL SUB AND PUSH1 0x24 DUP3 ADD MSTORE PUSH1 0x60 PUSH1 0x44 DUP3 ADD MSTORE SWAP1 DUP2 SWAP1 PUSH2 0x22B4 SWAP1 PUSH1 0x64 DUP4 ADD SWAP1 PUSH1 0x2 ADD PUSH2 0x18DD JUMP JUMPDEST SUB SWAP1 REVERT JUMPDEST POP PUSH1 0xFF PUSH1 0x3 DUP5 ADD SLOAD AND ISZERO PUSH2 0x2258 JUMP JUMPDEST DUP3 PUSH4 0x47B467B9 PUSH1 0xE1 SHL PUSH0 MSTORE PUSH1 0x4 MSTORE PUSH1 0x24 MSTORE PUSH1 0x44 PUSH0 REVERT JUMPDEST SWAP1 PUSH1 0x6 SLOAD DUP1 DUP4 LT ISZERO PUSH2 0x2316 JUMPI POP PUSH2 0x22F3 DUP3 PUSH2 0x185A JUMP JUMPDEST POP SWAP2 PUSH1 0xFF PUSH1 0x3 DUP5 ADD SLOAD AND PUSH2 0x2304 JUMPI POP JUMP JUMPDEST PUSH4 0x93FBC709 PUSH1 0xE0 SHL PUSH0 MSTORE PUSH1 0x4 MSTORE PUSH1 0x24 PUSH0 REVERT JUMPDEST SWAP1 POP DUP1 ISZERO PUSH2 0x75B JUMPI PUSH0 NOT DUP2 ADD SWAP1 DUP2 GT PUSH2 0x747 JUMPI SWAP1 PUSH4 0x2D713973 PUSH1 0xE1 SHL PUSH0 MSTORE PUSH1 0x4 MSTORE PUSH1 0x24 MSTORE PUSH1 0x44 PUSH0 REVERT JUMPDEST PUSH2 0x2349 DUP3 DUP3 PUSH2 0x270E JUMP JUMPDEST SWAP2 DUP3 PUSH2 0x2354 JUMPI POP POP SWAP1 JUMP JUMPDEST PUSH0 SWAP2 DUP3 MSTORE PUSH1 0x1 PUSH1 0x20 MSTORE PUSH1 0x40 SWAP1 SWAP2 KECCAK256 PUSH2 0x2375 SWAP2 PUSH1 0x1 PUSH1 0x1 PUSH1 0xA0 SHL SUB AND SWAP1 PUSH2 0x259E JUMP JUMPDEST POP SWAP1 JUMP JUMPDEST CALLER PUSH32 0x0 PUSH1 0x1 PUSH1 0x1 PUSH1 0xA0 SHL SUB AND EQ DUP1 PUSH2 0x23C7 JUMPI JUMPDEST ISZERO PUSH2 0x23C3 JUMPI PUSH1 0x13 NOT CALLDATASIZE ADD CALLDATASIZE DUP2 GT PUSH2 0x747 JUMPI CALLDATALOAD PUSH1 0x60 SHR SWAP1 JUMP JUMPDEST CALLER SWAP1 JUMP JUMPDEST POP PUSH1 0x14 CALLDATASIZE LT ISZERO PUSH2 0x23AB JUMP JUMPDEST PUSH2 0x23DB DUP2 PUSH2 0x185A JUMP JUMPDEST POP SWAP2 PUSH1 0x3 DUP4 ADD DUP1 SLOAD PUSH1 0xFF DUP2 AND PUSH2 0x257F JUMPI PUSH1 0x1 SWAP1 PUSH1 0xFF NOT AND OR DUP2 SSTORE PUSH1 0x1 DUP1 PUSH1 0xA0 SHL SUB DUP5 SLOAD AND PUSH1 0x1 DUP6 ADD SLOAD PUSH1 0x2 DUP7 ADD SWAP1 PUSH1 0x40 MLOAD SWAP2 PUSH0 SWAP1 DUP1 SLOAD SWAP1 PUSH2 0x241B DUP3 PUSH2 0x18A5 JUMP JUMPDEST SWAP2 PUSH1 0x1 DUP2 AND SWAP1 DUP2 ISZERO PUSH2 0x2568 JUMPI POP PUSH1 0x1 EQ PUSH2 0x2536 JUMPI JUMPDEST POP POP SWAP2 PUSH0 SWAP4 SWAP2 DUP2 DUP6 SWAP5 SUB SWAP3 GAS CALL RETURNDATASIZE ISZERO PUSH2 0x2531 JUMPI RETURNDATASIZE PUSH2 0x244D DUP2 PUSH2 0x1A5C JUMP JUMPDEST SWAP1 PUSH2 0x245B PUSH1 0x40 MLOAD SWAP3 DUP4 PUSH2 0x198D JUMP JUMPDEST DUP2 MSTORE PUSH0 PUSH1 0x20 RETURNDATASIZE SWAP3 ADD RETURNDATACOPY JUMPDEST ISZERO PUSH2 0x2521 JUMPI POP DUP2 SWAP1 PUSH1 0x1 PUSH1 0x1 PUSH1 0xA0 SHL SUB AND PUSH32 0x5445F318F4F5FCFB66592E68E0CC5822AA15664039BD5F0FFDE24C5A8142B1AC PUSH0 DUP1 LOG3 DUP1 PUSH0 MSTORE PUSH1 0x4 PUSH1 0x20 MSTORE PUSH1 0x40 PUSH0 KECCAK256 SLOAD PUSH0 JUMPDEST DUP2 DUP2 LT PUSH2 0x24BE JUMPI POP POP POP PUSH1 0x4 PUSH0 SWAP2 ADD SSTORE PUSH1 0x1 SWAP1 JUMP JUMPDEST DUP3 PUSH0 MSTORE PUSH1 0x4 PUSH1 0x20 MSTORE PUSH1 0x40 PUSH0 KECCAK256 SWAP1 DUP2 SLOAD ISZERO PUSH2 0x1891 JUMPI PUSH0 SWAP2 DUP3 MSTORE PUSH1 0x20 DUP1 DUP4 KECCAK256 SLOAD DUP6 DUP5 MSTORE PUSH1 0x5 DUP3 MSTORE PUSH1 0x40 DUP1 DUP6 KECCAK256 PUSH1 0x1 PUSH1 0x1 PUSH1 0xA0 SHL SUB SWAP1 SWAP3 AND DUP1 DUP7 MSTORE SWAP2 DUP4 MSTORE DUP1 DUP6 KECCAK256 DUP1 SLOAD PUSH1 0xFF NOT AND SWAP1 SSTORE DUP7 DUP6 MSTORE PUSH1 0x4 SWAP1 SWAP3 MSTORE SWAP3 KECCAK256 PUSH1 0x1 SWAP3 PUSH2 0x251A SWAP2 PUSH2 0x259E JUMP JUMPDEST POP ADD PUSH2 0x24A9 JUMP JUMPDEST DUP1 SLOAD PUSH1 0xFF NOT AND SWAP1 SSTORE POP PUSH0 SWAP3 SWAP2 POP POP JUMP JUMPDEST PUSH2 0x2465 JUMP JUMPDEST SWAP1 SWAP2 POP PUSH0 MSTORE PUSH1 0x20 PUSH0 KECCAK256 PUSH0 SWAP1 JUMPDEST DUP3 DUP3 LT PUSH2 0x2554 JUMPI POP POP DUP3 ADD DUP2 DUP4 PUSH2 0x2430 JUMP JUMPDEST PUSH1 0x1 DUP2 PUSH1 0x20 SWAP3 SLOAD DUP5 DUP9 ADD MSTORE ADD SWAP2 ADD SWAP1 PUSH2 0x2542 JUMP JUMPDEST PUSH1 0xFF NOT AND DUP7 MSTORE POP POP DUP1 ISZERO ISZERO MUL DUP4 ADD SWAP1 POP DUP2 DUP4 PUSH2 0x2430 JUMP JUMPDEST POP POP POP POP POP PUSH1 0x1 SWAP1 JUMP JUMPDEST DUP1 SLOAD DUP3 LT ISZERO PUSH2 0x1891 JUMPI PUSH0 MSTORE PUSH1 0x20 PUSH0 KECCAK256 ADD SWAP1 PUSH0 SWAP1 JUMP JUMPDEST SWAP1 PUSH1 0x1 DUP3 ADD SWAP2 DUP2 PUSH0 MSTORE DUP3 PUSH1 0x20 MSTORE PUSH1 0x40 PUSH0 KECCAK256 SLOAD DUP1 ISZERO ISZERO PUSH0 EQ PUSH2 0x2671 JUMPI PUSH0 NOT DUP2 ADD DUP2 DUP2 GT PUSH2 0x747 JUMPI DUP3 SLOAD PUSH0 NOT DUP2 ADD SWAP2 SWAP1 DUP3 GT PUSH2 0x747 JUMPI DUP2 DUP2 SUB PUSH2 0x2626 JUMPI JUMPDEST POP POP POP DUP1 SLOAD DUP1 ISZERO PUSH2 0x2612 JUMPI PUSH0 NOT ADD SWAP1 PUSH2 0x25F3 DUP3 DUP3 PUSH2 0x2589 JUMP JUMPDEST DUP2 SLOAD SWAP1 PUSH0 NOT SWAP1 PUSH1 0x3 SHL SHL NOT AND SWAP1 SSTORE SSTORE PUSH0 MSTORE PUSH1 0x20 MSTORE PUSH0 PUSH1 0x40 DUP2 KECCAK256 SSTORE PUSH1 0x1 SWAP1 JUMP JUMPDEST PUSH4 0x4E487B71 PUSH1 0xE0 SHL PUSH0 MSTORE PUSH1 0x31 PUSH1 0x4 MSTORE PUSH1 0x24 PUSH0 REVERT JUMPDEST PUSH2 0x265C PUSH2 0x2636 PUSH2 0x2646 SWAP4 DUP7 PUSH2 0x2589 JUMP JUMPDEST SWAP1 SLOAD SWAP1 PUSH1 0x3 SHL SHR SWAP3 DUP4 SWAP3 DUP7 PUSH2 0x2589 JUMP JUMPDEST DUP2 SWAP4 SWAP2 SLOAD SWAP1 PUSH1 0x3 SHL SWAP2 DUP3 SHL SWAP2 PUSH0 NOT SWAP1 SHL NOT AND OR SWAP1 JUMP JUMPDEST SWAP1 SSTORE PUSH0 MSTORE DUP4 PUSH1 0x20 MSTORE PUSH1 0x40 PUSH0 KECCAK256 SSTORE PUSH0 DUP1 DUP1 PUSH2 0x25DA JUMP JUMPDEST POP POP POP POP PUSH0 SWAP1 JUMP JUMPDEST PUSH0 DUP2 DUP2 MSTORE PUSH1 0x20 DUP2 DUP2 MSTORE PUSH1 0x40 DUP1 DUP4 KECCAK256 PUSH1 0x1 PUSH1 0x1 PUSH1 0xA0 SHL SUB DUP7 AND DUP5 MSTORE SWAP1 SWAP2 MSTORE SWAP1 KECCAK256 SLOAD PUSH1 0xFF AND PUSH2 0x2708 JUMPI PUSH0 DUP2 DUP2 MSTORE PUSH1 0x20 DUP2 DUP2 MSTORE PUSH1 0x40 DUP1 DUP4 KECCAK256 PUSH1 0x1 PUSH1 0x1 PUSH1 0xA0 SHL SUB DUP7 DUP2 AND DUP6 MSTORE SWAP3 MSTORE SWAP1 SWAP2 KECCAK256 DUP1 SLOAD PUSH1 0xFF NOT AND PUSH1 0x1 OR SWAP1 SSTORE PUSH2 0x26D3 PUSH2 0x2379 JUMP JUMPDEST AND SWAP2 PUSH1 0x1 PUSH1 0x1 PUSH1 0xA0 SHL SUB AND SWAP1 PUSH32 0x2F8788117E7EFF1D82E926EC794901D17C78024A50270940304540A733656F0D PUSH0 DUP1 LOG4 PUSH1 0x1 SWAP1 JUMP JUMPDEST POP POP PUSH0 SWAP1 JUMP JUMPDEST PUSH0 DUP2 DUP2 MSTORE PUSH1 0x20 DUP2 DUP2 MSTORE PUSH1 0x40 DUP1 DUP4 KECCAK256 PUSH1 0x1 PUSH1 0x1 PUSH1 0xA0 SHL SUB DUP7 AND DUP5 MSTORE SWAP1 SWAP2 MSTORE SWAP1 KECCAK256 SLOAD PUSH1 0xFF AND ISZERO PUSH2 0x2708 JUMPI PUSH0 DUP2 DUP2 MSTORE PUSH1 0x20 DUP2 DUP2 MSTORE PUSH1 0x40 DUP1 DUP4 KECCAK256 PUSH1 0x1 PUSH1 0x1 PUSH1 0xA0 SHL SUB DUP7 DUP2 AND DUP6 MSTORE SWAP3 MSTORE SWAP1 SWAP2 KECCAK256 DUP1 SLOAD PUSH1 0xFF NOT AND SWAP1 SSTORE PUSH2 0x2766 PUSH2 0x2379 JUMP JUMPDEST AND SWAP2 PUSH1 0x1 PUSH1 0x1 PUSH1 0xA0 SHL SUB AND SWAP1 PUSH32 0xF6391F5C32D9C69D2A47EA670B442974B53935D1EDC7FD64EB21E047A839171B PUSH0 DUP1 LOG4 PUSH1 0x1 SWAP1 JUMP JUMPDEST PUSH0 DUP3 DUP2 MSTORE PUSH1 0x1 DUP3 ADD PUSH1 0x20 MSTORE PUSH1 0x40 SWAP1 KECCAK256 SLOAD PUSH2 0x2708 JUMPI DUP1 SLOAD SWAP1 PUSH1 0x1 PUSH1 0x40 SHL DUP3 LT ISZERO PUSH2 0x1979 JUMPI DUP3 PUSH2 0x27D3 PUSH2 0x2646 DUP5 PUSH1 0x1 DUP1 SWAP7 ADD DUP6 SSTORE DUP5 PUSH2 0x2589 JUMP JUMPDEST SWAP1 SSTORE DUP1 SLOAD SWAP3 PUSH0 MSTORE ADD PUSH1 0x20 MSTORE PUSH1 0x40 PUSH0 KECCAK256 SSTORE PUSH1 0x1 SWAP1 JUMP INVALID 0xE2 DELEGATECALL 0xEA 0xAE BLOBBASEFEE SWAP8 MLOAD 0xE8 GAS RETURNDATACOPY BLOBBASEFEE PUSH28 0x9587827A877F29914755229B07A7B2DA98285F70A264697066735822 SLT KECCAK256 SIGNEXTEND 0x2D SWAP13 EQ PUSH30 0x6C2E67C0DF5428313F0FFB94BCBF214C3C9EA38F7CD4FE7286667B64736F PUSH13 0x634300081C00332F8788117E7E SELFDESTRUCT SAR DUP3 0xE9 0x26 0xEC PUSH26 0x4901D17C78024A50270940304540A733656F0DE2F4EAAE4A9751 0xE8 GAS RETURNDATACOPY BLOBBASEFEE PUSH28 0x9587827A877F29914755229B07A7B2DA98285F70059F08E7D7BA1C82 0xED 0xDC JUMPI 0xAF 0xAE PUSH8 0xF80DF851BAF38A09 SWAP7 SMOD 0xA7 PUSH26 0x825038C3CE5BAD3228B676F7D3CD4284A5443F17F1962B36E491 0xB3 EXP BLOCKHASH 0xB2 BLOCKHASH PC BLOBHASH 0xE5 SWAP8 0xBA PUSH0 0xB5 0x2F DUP8 DUP9 GT PUSH31 0x7EFF1D82E926EC794901D17C78024A50270940304540A733656F0D02DD7BC7 0xDE 0xC4 0xDC 0xEE 0xDD 0xA7 PUSH22 0xE58DD541E08A116C6C53815C0BD028192F7B626800F0 0xC5 PUSH31 0x16840DF040F15088DC2F81FE391C3923BEC73E23A9662EFC9C229C6A00A264 PUSH10 0x7066735822122063E85E 0xE7 0xA8 0x24 BLOBBASEFEE 0xBA 0xD0 ORIGIN 0xB3 0xEC JUMPI CALLDATACOPY 0xE0 0xDF LOG0 DIV DUP7 PUSH26 0x10B45709B67A4CB6E869668264736F6C634300081C0033F0C57E AND DUP5 0xD CREATE BLOCKHASH CALL POP DUP9 0xDC 0x2F DUP2 INVALID CODECOPY SHR CODECOPY 0x23 0xBE 0xC7 RETURNDATACOPY 0x23 0xA9 PUSH7 0x2EFC9C229C6A00 "},"methodIdentifiers":{"DEFAULT_ADMIN_ROLE()":"a217fddf","allVaultsLength()":"4cd18577","atkVaultImplementation()":"bcbd9edb","createVault(address[],uint256,address,bytes32)":"7fe6496d","getRoleAdmin(bytes32)":"248a9ca3","grantRole(bytes32,address)":"2f2ff15d","hasRole(bytes32,address)":"91d14854","initialize(address,address)":"485cc955","isFactorySystemAddon(address)":"229fff60","isTrustedForwarder(address)":"572b6c05","predictVaultAddress(address[],uint256,address,bytes32)":"2f7efa2f","renounceRole(bytes32,address)":"36568abe","revokeRole(bytes32,address)":"d547741f","supportsInterface(bytes4)":"01ffc9a7","trustedForwarder()":"7da0a877","typeId()":"8f940f63"}}}}}