{"contracts/system/ATKSystemRoles.sol":{"ATKSystemRoles":{"abi":[{"inputs":[],"name":"BYPASS_LIST_MANAGER_ROLE","outputs":[{"internalType":"bytes32","name":"","type":"bytes32"}],"stateMutability":"view","type":"function"},{"inputs":[],"name":"CLAIM_MANAGER_ROLE","outputs":[{"internalType":"bytes32","name":"","type":"bytes32"}],"stateMutability":"view","type":"function"},{"inputs":[],"name":"DEFAULT_ADMIN_ROLE","outputs":[{"internalType":"bytes32","name":"","type":"bytes32"}],"stateMutability":"view","type":"function"},{"inputs":[],"name":"DEPLOYER_ROLE","outputs":[{"internalType":"bytes32","name":"","type":"bytes32"}],"stateMutability":"view","type":"function"},{"inputs":[],"name":"IDENTITY_ISSUER_ROLE","outputs":[{"internalType":"bytes32","name":"","type":"bytes32"}],"stateMutability":"view","type":"function"},{"inputs":[],"name":"IMPLEMENTATION_MANAGER_ROLE","outputs":[{"internalType":"bytes32","name":"","type":"bytes32"}],"stateMutability":"view","type":"function"},{"inputs":[],"name":"MANAGE_REGISTRIES_ROLE","outputs":[{"internalType":"bytes32","name":"","type":"bytes32"}],"stateMutability":"view","type":"function"},{"inputs":[],"name":"REGISTRAR_ROLE","outputs":[{"internalType":"bytes32","name":"","type":"bytes32"}],"stateMutability":"view","type":"function"},{"inputs":[],"name":"STORAGE_MODIFIER_ROLE","outputs":[{"internalType":"bytes32","name":"","type":"bytes32"}],"stateMutability":"view","type":"function"},{"inputs":[],"name":"TOKEN_IDENTITY_ISSUER_ADMIN_ROLE","outputs":[{"internalType":"bytes32","name":"","type":"bytes32"}],"stateMutability":"view","type":"function"},{"inputs":[],"name":"TOKEN_IDENTITY_ISSUER_ROLE","outputs":[{"internalType":"bytes32","name":"","type":"bytes32"}],"stateMutability":"view","type":"function"}],"evm":{"bytecode":{"linkReferences":{},"object":"608080604052346019576102f4908161001e823930815050f35b5f80fdfe6080806040526004361015610012575f80fd5b5f3560e01c9081635a129a8a1461028b575080639f4530df14610256578063a217fddf14610241578063a7da5cd51461020c578063aa683370146101d7578063c34e09f0146101a2578063c65490d21461016d578063c958113714610138578063ecd0026114610103578063f68e9553146100ce5763fd27264614610095575f80fd5b5f3660031901126100ca5760206040517ff926905b211c4fe59c7d68bb001aa504586558fd2888c1ea46e1b382450050cf8152f35b5f80fd5b5f3660031901126100ca5760206040517fedcc084d3dcd65a1f7f23c65c46722faca6953d28e43150a467cf43e5c3092388152f35b5f3660031901126100ca5760206040517ffc425f2263d0df187444b70e47283d622c70181c5baebb1306a01edba1ce184c8152f35b5f3660031901126100ca5760206040517feca77a5bbbcf8baa6d8f93054311a3e6672f982247f67ba40cb896ecf1992aec8152f35b5f3660031901126100ca5760206040517f3878ec43b99c41b142f55c5c47e7aa371ea82865d891af952bc6234dbce14f188152f35b5f3660031901126100ca5760206040517fab55121422db2e83f3da68f1a86ef03984cbd0d4c289dad3bc39e9ccee18e4118152f35b5f3660031901126100ca5760206040517f5d6fb899ea6f7759b4c48caf04de64c7c9bd9cbb87888fa6007adffafe90bb858152f35b5f3660031901126100ca5760206040517f7c42e8dffc95f75177e883ddc14f7ed7caa053d3f0d4e84d6b7f0b0033223dcb8152f35b5f3660031901126100ca5760206040515f8152f35b5f3660031901126100ca5760206040517feaeeb45c1b9029a6e392e1e7aa6f4af6bd8111f85c32809598bc9903a16227a38152f35b5f3660031901126100ca57807fecaefa0171c08a6ded02d98b9432940d3852ef2c7f5007661eb8de37c5a1adc560209252f3fea264697066735822122019d8fd52c6daddce393cdf27ffa9ef724f6da9e40cb82496c3f707fa67aed95f64736f6c634300081c0033","opcodes":"PUSH1 0x80 DUP1 PUSH1 0x40 MSTORE CALLVALUE PUSH1 0x19 JUMPI PUSH2 0x2F4 SWAP1 DUP2 PUSH2 0x1E DUP3 CODECOPY ADDRESS DUP2 POP POP RETURN JUMPDEST PUSH0 DUP1 REVERT INVALID PUSH1 0x80 DUP1 PUSH1 0x40 MSTORE PUSH1 0x4 CALLDATASIZE LT ISZERO PUSH2 0x12 JUMPI PUSH0 DUP1 REVERT JUMPDEST PUSH0 CALLDATALOAD PUSH1 0xE0 SHR SWAP1 DUP2 PUSH4 0x5A129A8A EQ PUSH2 0x28B JUMPI POP DUP1 PUSH4 0x9F4530DF EQ PUSH2 0x256 JUMPI DUP1 PUSH4 0xA217FDDF EQ PUSH2 0x241 JUMPI DUP1 PUSH4 0xA7DA5CD5 EQ PUSH2 0x20C JUMPI DUP1 PUSH4 0xAA683370 EQ PUSH2 0x1D7 JUMPI DUP1 PUSH4 0xC34E09F0 EQ PUSH2 0x1A2 JUMPI DUP1 PUSH4 0xC65490D2 EQ PUSH2 0x16D JUMPI DUP1 PUSH4 0xC9581137 EQ PUSH2 0x138 JUMPI DUP1 PUSH4 0xECD00261 EQ PUSH2 0x103 JUMPI DUP1 PUSH4 0xF68E9553 EQ PUSH2 0xCE JUMPI PUSH4 0xFD272646 EQ PUSH2 0x95 JUMPI PUSH0 DUP1 REVERT JUMPDEST PUSH0 CALLDATASIZE PUSH1 0x3 NOT ADD SLT PUSH2 0xCA JUMPI PUSH1 0x20 PUSH1 0x40 MLOAD PUSH32 0xF926905B211C4FE59C7D68BB001AA504586558FD2888C1EA46E1B382450050CF DUP2 MSTORE RETURN JUMPDEST PUSH0 DUP1 REVERT JUMPDEST PUSH0 CALLDATASIZE PUSH1 0x3 NOT ADD SLT PUSH2 0xCA JUMPI PUSH1 0x20 PUSH1 0x40 MLOAD PUSH32 0xEDCC084D3DCD65A1F7F23C65C46722FACA6953D28E43150A467CF43E5C309238 DUP2 MSTORE RETURN JUMPDEST PUSH0 CALLDATASIZE PUSH1 0x3 NOT ADD SLT PUSH2 0xCA JUMPI PUSH1 0x20 PUSH1 0x40 MLOAD PUSH32 0xFC425F2263D0DF187444B70E47283D622C70181C5BAEBB1306A01EDBA1CE184C DUP2 MSTORE RETURN JUMPDEST PUSH0 CALLDATASIZE PUSH1 0x3 NOT ADD SLT PUSH2 0xCA JUMPI PUSH1 0x20 PUSH1 0x40 MLOAD PUSH32 0xECA77A5BBBCF8BAA6D8F93054311A3E6672F982247F67BA40CB896ECF1992AEC DUP2 MSTORE RETURN JUMPDEST PUSH0 CALLDATASIZE PUSH1 0x3 NOT ADD SLT PUSH2 0xCA JUMPI PUSH1 0x20 PUSH1 0x40 MLOAD PUSH32 0x3878EC43B99C41B142F55C5C47E7AA371EA82865D891AF952BC6234DBCE14F18 DUP2 MSTORE RETURN JUMPDEST PUSH0 CALLDATASIZE PUSH1 0x3 NOT ADD SLT PUSH2 0xCA JUMPI PUSH1 0x20 PUSH1 0x40 MLOAD PUSH32 0xAB55121422DB2E83F3DA68F1A86EF03984CBD0D4C289DAD3BC39E9CCEE18E411 DUP2 MSTORE RETURN JUMPDEST PUSH0 CALLDATASIZE PUSH1 0x3 NOT ADD SLT PUSH2 0xCA JUMPI PUSH1 0x20 PUSH1 0x40 MLOAD PUSH32 0x5D6FB899EA6F7759B4C48CAF04DE64C7C9BD9CBB87888FA6007ADFFAFE90BB85 DUP2 MSTORE RETURN JUMPDEST PUSH0 CALLDATASIZE PUSH1 0x3 NOT ADD SLT PUSH2 0xCA JUMPI PUSH1 0x20 PUSH1 0x40 MLOAD PUSH32 0x7C42E8DFFC95F75177E883DDC14F7ED7CAA053D3F0D4E84D6B7F0B0033223DCB DUP2 MSTORE RETURN JUMPDEST PUSH0 CALLDATASIZE PUSH1 0x3 NOT ADD SLT PUSH2 0xCA JUMPI PUSH1 0x20 PUSH1 0x40 MLOAD PUSH0 DUP2 MSTORE RETURN JUMPDEST PUSH0 CALLDATASIZE PUSH1 0x3 NOT ADD SLT PUSH2 0xCA JUMPI PUSH1 0x20 PUSH1 0x40 MLOAD PUSH32 0xEAEEB45C1B9029A6E392E1E7AA6F4AF6BD8111F85C32809598BC9903A16227A3 DUP2 MSTORE RETURN JUMPDEST PUSH0 CALLDATASIZE PUSH1 0x3 NOT ADD SLT PUSH2 0xCA JUMPI DUP1 PUSH32 0xECAEFA0171C08A6DED02D98B9432940D3852EF2C7F5007661EB8DE37C5A1ADC5 PUSH1 0x20 SWAP3 MSTORE RETURN INVALID LOG2 PUSH5 0x6970667358 0x22 SLT KECCAK256 NOT 0xD8 REVERT MSTORE 0xC6 0xDA 0xDD 0xCE CODECOPY EXTCODECOPY 0xDF 0x27 SELFDESTRUCT 0xA9 0xEF PUSH19 0x4F6DA9E40CB82496C3F707FA67AED95F64736F PUSH13 0x634300081C0033000000000000 "},"methodIdentifiers":{"BYPASS_LIST_MANAGER_ROLE()":"9f4530df","CLAIM_MANAGER_ROLE()":"c9581137","DEFAULT_ADMIN_ROLE()":"a217fddf","DEPLOYER_ROLE()":"ecd00261","IDENTITY_ISSUER_ROLE()":"aa683370","IMPLEMENTATION_MANAGER_ROLE()":"5a129a8a","MANAGE_REGISTRIES_ROLE()":"c65490d2","REGISTRAR_ROLE()":"f68e9553","STORAGE_MODIFIER_ROLE()":"fd272646","TOKEN_IDENTITY_ISSUER_ADMIN_ROLE()":"c34e09f0","TOKEN_IDENTITY_ISSUER_ROLE()":"a7da5cd5"}}}}}