{
  "abi": [
    {
      "type": "constructor",
      "inputs": [
        {
          "name": "forwarder_",
          "type": "address",
          "internalType": "address"
        }
      ],
      "stateMutability": "nonpayable"
    },
    {
      "type": "function",
      "name": "CLOCK_MODE",
      "inputs": [],
      "outputs": [
        {
          "name": "",
          "type": "string",
          "internalType": "string"
        }
      ],
      "stateMutability": "view"
    },
    {
      "type": "function",
      "name": "accessManager",
      "inputs": [],
      "outputs": [
        {
          "name": "",
          "type": "address",
          "internalType": "address"
        }
      ],
      "stateMutability": "view"
    },
    {
      "type": "function",
      "name": "addComplianceModule",
      "inputs": [
        {
          "name": "_module",
          "type": "address",
          "internalType": "address"
        },
        {
          "name": "_params",
          "type": "bytes",
          "internalType": "bytes"
        }
      ],
      "outputs": [],
      "stateMutability": "nonpayable"
    },
    {
      "type": "function",
      "name": "allowance",
      "inputs": [
        {
          "name": "owner",
          "type": "address",
          "internalType": "address"
        },
        {
          "name": "spender",
          "type": "address",
          "internalType": "address"
        }
      ],
      "outputs": [
        {
          "name": "",
          "type": "uint256",
          "internalType": "uint256"
        }
      ],
      "stateMutability": "view"
    },
    {
      "type": "function",
      "name": "approve",
      "inputs": [
        {
          "name": "spender",
          "type": "address",
          "internalType": "address"
        },
        {
          "name": "value",
          "type": "uint256",
          "internalType": "uint256"
        }
      ],
      "outputs": [
        {
          "name": "",
          "type": "bool",
          "internalType": "bool"
        }
      ],
      "stateMutability": "nonpayable"
    },
    {
      "type": "function",
      "name": "balanceOf",
      "inputs": [
        {
          "name": "account",
          "type": "address",
          "internalType": "address"
        }
      ],
      "outputs": [
        {
          "name": "",
          "type": "uint256",
          "internalType": "uint256"
        }
      ],
      "stateMutability": "view"
    },
    {
      "type": "function",
      "name": "balanceOfAt",
      "inputs": [
        {
          "name": "account",
          "type": "address",
          "internalType": "address"
        },
        {
          "name": "timepoint",
          "type": "uint256",
          "internalType": "uint256"
        }
      ],
      "outputs": [
        {
          "name": "",
          "type": "uint256",
          "internalType": "uint256"
        }
      ],
      "stateMutability": "view"
    },
    {
      "type": "function",
      "name": "batchBurn",
      "inputs": [
        {
          "name": "userAddresses",
          "type": "address[]",
          "internalType": "address[]"
        },
        {
          "name": "amounts",
          "type": "uint256[]",
          "internalType": "uint256[]"
        }
      ],
      "outputs": [],
      "stateMutability": "nonpayable"
    },
    {
      "type": "function",
      "name": "batchForcedTransfer",
      "inputs": [
        {
          "name": "fromList",
          "type": "address[]",
          "internalType": "address[]"
        },
        {
          "name": "toList",
          "type": "address[]",
          "internalType": "address[]"
        },
        {
          "name": "amounts",
          "type": "uint256[]",
          "internalType": "uint256[]"
        }
      ],
      "outputs": [],
      "stateMutability": "nonpayable"
    },
    {
      "type": "function",
      "name": "batchFreezePartialTokens",
      "inputs": [
        {
          "name": "userAddresses",
          "type": "address[]",
          "internalType": "address[]"
        },
        {
          "name": "amounts",
          "type": "uint256[]",
          "internalType": "uint256[]"
        }
      ],
      "outputs": [],
      "stateMutability": "nonpayable"
    },
    {
      "type": "function",
      "name": "batchMint",
      "inputs": [
        {
          "name": "_toList",
          "type": "address[]",
          "internalType": "address[]"
        },
        {
          "name": "_amounts",
          "type": "uint256[]",
          "internalType": "uint256[]"
        }
      ],
      "outputs": [],
      "stateMutability": "nonpayable"
    },
    {
      "type": "function",
      "name": "batchSetAddressFrozen",
      "inputs": [
        {
          "name": "userAddresses",
          "type": "address[]",
          "internalType": "address[]"
        },
        {
          "name": "freeze",
          "type": "bool[]",
          "internalType": "bool[]"
        }
      ],
      "outputs": [],
      "stateMutability": "nonpayable"
    },
    {
      "type": "function",
      "name": "batchTransfer",
      "inputs": [
        {
          "name": "toList",
          "type": "address[]",
          "internalType": "address[]"
        },
        {
          "name": "amounts",
          "type": "uint256[]",
          "internalType": "uint256[]"
        }
      ],
      "outputs": [],
      "stateMutability": "nonpayable"
    },
    {
      "type": "function",
      "name": "batchUnfreezePartialTokens",
      "inputs": [
        {
          "name": "userAddresses",
          "type": "address[]",
          "internalType": "address[]"
        },
        {
          "name": "amounts",
          "type": "uint256[]",
          "internalType": "uint256[]"
        }
      ],
      "outputs": [],
      "stateMutability": "nonpayable"
    },
    {
      "type": "function",
      "name": "bondRedeemed",
      "inputs": [
        {
          "name": "holder",
          "type": "address",
          "internalType": "address"
        }
      ],
      "outputs": [
        {
          "name": "redeemed",
          "type": "uint256",
          "internalType": "uint256"
        }
      ],
      "stateMutability": "view"
    },
    {
      "type": "function",
      "name": "burn",
      "inputs": [
        {
          "name": "userAddress",
          "type": "address",
          "internalType": "address"
        },
        {
          "name": "amount",
          "type": "uint256",
          "internalType": "uint256"
        }
      ],
      "outputs": [],
      "stateMutability": "nonpayable"
    },
    {
      "type": "function",
      "name": "cap",
      "inputs": [],
      "outputs": [
        {
          "name": "",
          "type": "uint256",
          "internalType": "uint256"
        }
      ],
      "stateMutability": "view"
    },
    {
      "type": "function",
      "name": "clock",
      "inputs": [],
      "outputs": [
        {
          "name": "",
          "type": "uint48",
          "internalType": "uint48"
        }
      ],
      "stateMutability": "view"
    },
    {
      "type": "function",
      "name": "compliance",
      "inputs": [],
      "outputs": [
        {
          "name": "",
          "type": "address",
          "internalType": "contract ISMARTCompliance"
        }
      ],
      "stateMutability": "view"
    },
    {
      "type": "function",
      "name": "complianceModules",
      "inputs": [],
      "outputs": [
        {
          "name": "",
          "type": "tuple[]",
          "internalType": "struct SMARTComplianceModuleParamPair[]",
          "components": [
            {
              "name": "module",
              "type": "address",
              "internalType": "address"
            },
            {
              "name": "params",
              "type": "bytes",
              "internalType": "bytes"
            }
          ]
        }
      ],
      "stateMutability": "view"
    },
    {
      "type": "function",
      "name": "decimals",
      "inputs": [],
      "outputs": [
        {
          "name": "",
          "type": "uint8",
          "internalType": "uint8"
        }
      ],
      "stateMutability": "view"
    },
    {
      "type": "function",
      "name": "faceValue",
      "inputs": [],
      "outputs": [
        {
          "name": "",
          "type": "uint256",
          "internalType": "uint256"
        }
      ],
      "stateMutability": "view"
    },
    {
      "type": "function",
      "name": "forcedRecoverTokens",
      "inputs": [
        {
          "name": "lostWallet",
          "type": "address",
          "internalType": "address"
        },
        {
          "name": "newWallet",
          "type": "address",
          "internalType": "address"
        }
      ],
      "outputs": [],
      "stateMutability": "nonpayable"
    },
    {
      "type": "function",
      "name": "forcedTransfer",
      "inputs": [
        {
          "name": "from",
          "type": "address",
          "internalType": "address"
        },
        {
          "name": "to",
          "type": "address",
          "internalType": "address"
        },
        {
          "name": "amount",
          "type": "uint256",
          "internalType": "uint256"
        }
      ],
      "outputs": [
        {
          "name": "",
          "type": "bool",
          "internalType": "bool"
        }
      ],
      "stateMutability": "nonpayable"
    },
    {
      "type": "function",
      "name": "freezePartialTokens",
      "inputs": [
        {
          "name": "userAddress",
          "type": "address",
          "internalType": "address"
        },
        {
          "name": "amount",
          "type": "uint256",
          "internalType": "uint256"
        }
      ],
      "outputs": [],
      "stateMutability": "nonpayable"
    },
    {
      "type": "function",
      "name": "getFrozenTokens",
      "inputs": [
        {
          "name": "userAddress",
          "type": "address",
          "internalType": "address"
        }
      ],
      "outputs": [
        {
          "name": "",
          "type": "uint256",
          "internalType": "uint256"
        }
      ],
      "stateMutability": "view"
    },
    {
      "type": "function",
      "name": "hasRole",
      "inputs": [
        {
          "name": "role",
          "type": "bytes32",
          "internalType": "bytes32"
        },
        {
          "name": "account",
          "type": "address",
          "internalType": "address"
        }
      ],
      "outputs": [
        {
          "name": "",
          "type": "bool",
          "internalType": "bool"
        }
      ],
      "stateMutability": "view"
    },
    {
      "type": "function",
      "name": "identityRegistry",
      "inputs": [],
      "outputs": [
        {
          "name": "",
          "type": "address",
          "internalType": "contract ISMARTIdentityRegistry"
        }
      ],
      "stateMutability": "view"
    },
    {
      "type": "function",
      "name": "initialize",
      "inputs": [
        {
          "name": "name_",
          "type": "string",
          "internalType": "string"
        },
        {
          "name": "symbol_",
          "type": "string",
          "internalType": "string"
        },
        {
          "name": "decimals_",
          "type": "uint8",
          "internalType": "uint8"
        },
        {
          "name": "onchainID_",
          "type": "address",
          "internalType": "address"
        },
        {
          "name": "cap_",
          "type": "uint256",
          "internalType": "uint256"
        },
        {
          "name": "maturityDate_",
          "type": "uint256",
          "internalType": "uint256"
        },
        {
          "name": "faceValue_",
          "type": "uint256",
          "internalType": "uint256"
        },
        {
          "name": "underlyingAsset_",
          "type": "address",
          "internalType": "address"
        },
        {
          "name": "initialModulePairs_",
          "type": "tuple[]",
          "internalType": "struct SMARTComplianceModuleParamPair[]",
          "components": [
            {
              "name": "module",
              "type": "address",
              "internalType": "address"
            },
            {
              "name": "params",
              "type": "bytes",
              "internalType": "bytes"
            }
          ]
        },
        {
          "name": "identityRegistry_",
          "type": "address",
          "internalType": "address"
        },
        {
          "name": "compliance_",
          "type": "address",
          "internalType": "address"
        },
        {
          "name": "accessManager_",
          "type": "address",
          "internalType": "address"
        }
      ],
      "outputs": [],
      "stateMutability": "nonpayable"
    },
    {
      "type": "function",
      "name": "isFrozen",
      "inputs": [
        {
          "name": "userAddress",
          "type": "address",
          "internalType": "address"
        }
      ],
      "outputs": [
        {
          "name": "",
          "type": "bool",
          "internalType": "bool"
        }
      ],
      "stateMutability": "view"
    },
    {
      "type": "function",
      "name": "isMatured",
      "inputs": [],
      "outputs": [
        {
          "name": "",
          "type": "bool",
          "internalType": "bool"
        }
      ],
      "stateMutability": "view"
    },
    {
      "type": "function",
      "name": "isTrustedForwarder",
      "inputs": [
        {
          "name": "forwarder",
          "type": "address",
          "internalType": "address"
        }
      ],
      "outputs": [
        {
          "name": "",
          "type": "bool",
          "internalType": "bool"
        }
      ],
      "stateMutability": "view"
    },
    {
      "type": "function",
      "name": "mature",
      "inputs": [],
      "outputs": [],
      "stateMutability": "nonpayable"
    },
    {
      "type": "function",
      "name": "maturityDate",
      "inputs": [],
      "outputs": [
        {
          "name": "",
          "type": "uint256",
          "internalType": "uint256"
        }
      ],
      "stateMutability": "view"
    },
    {
      "type": "function",
      "name": "mint",
      "inputs": [
        {
          "name": "_to",
          "type": "address",
          "internalType": "address"
        },
        {
          "name": "_amount",
          "type": "uint256",
          "internalType": "uint256"
        }
      ],
      "outputs": [],
      "stateMutability": "nonpayable"
    },
    {
      "type": "function",
      "name": "missingUnderlyingAmount",
      "inputs": [],
      "outputs": [
        {
          "name": "",
          "type": "uint256",
          "internalType": "uint256"
        }
      ],
      "stateMutability": "view"
    },
    {
      "type": "function",
      "name": "name",
      "inputs": [],
      "outputs": [
        {
          "name": "",
          "type": "string",
          "internalType": "string"
        }
      ],
      "stateMutability": "view"
    },
    {
      "type": "function",
      "name": "onchainID",
      "inputs": [],
      "outputs": [
        {
          "name": "",
          "type": "address",
          "internalType": "address"
        }
      ],
      "stateMutability": "view"
    },
    {
      "type": "function",
      "name": "pause",
      "inputs": [],
      "outputs": [],
      "stateMutability": "nonpayable"
    },
    {
      "type": "function",
      "name": "paused",
      "inputs": [],
      "outputs": [
        {
          "name": "",
          "type": "bool",
          "internalType": "bool"
        }
      ],
      "stateMutability": "view"
    },
    {
      "type": "function",
      "name": "recoverERC20",
      "inputs": [
        {
          "name": "token",
          "type": "address",
          "internalType": "address"
        },
        {
          "name": "to",
          "type": "address",
          "internalType": "address"
        },
        {
          "name": "amount",
          "type": "uint256",
          "internalType": "uint256"
        }
      ],
      "outputs": [],
      "stateMutability": "nonpayable"
    },
    {
      "type": "function",
      "name": "recoverTokens",
      "inputs": [
        {
          "name": "lostWallet",
          "type": "address",
          "internalType": "address"
        }
      ],
      "outputs": [],
      "stateMutability": "nonpayable"
    },
    {
      "type": "function",
      "name": "redeem",
      "inputs": [
        {
          "name": "amount",
          "type": "uint256",
          "internalType": "uint256"
        }
      ],
      "outputs": [
        {
          "name": "",
          "type": "bool",
          "internalType": "bool"
        }
      ],
      "stateMutability": "nonpayable"
    },
    {
      "type": "function",
      "name": "redeemAll",
      "inputs": [],
      "outputs": [
        {
          "name": "",
          "type": "bool",
          "internalType": "bool"
        }
      ],
      "stateMutability": "nonpayable"
    },
    {
      "type": "function",
      "name": "removeComplianceModule",
      "inputs": [
        {
          "name": "_module",
          "type": "address",
          "internalType": "address"
        }
      ],
      "outputs": [],
      "stateMutability": "nonpayable"
    },
    {
      "type": "function",
      "name": "setAddressFrozen",
      "inputs": [
        {
          "name": "userAddress",
          "type": "address",
          "internalType": "address"
        },
        {
          "name": "freeze",
          "type": "bool",
          "internalType": "bool"
        }
      ],
      "outputs": [],
      "stateMutability": "nonpayable"
    },
    {
      "type": "function",
      "name": "setCap",
      "inputs": [
        {
          "name": "newCap",
          "type": "uint256",
          "internalType": "uint256"
        }
      ],
      "outputs": [],
      "stateMutability": "nonpayable"
    },
    {
      "type": "function",
      "name": "setCompliance",
      "inputs": [
        {
          "name": "_compliance",
          "type": "address",
          "internalType": "address"
        }
      ],
      "outputs": [],
      "stateMutability": "nonpayable"
    },
    {
      "type": "function",
      "name": "setIdentityRegistry",
      "inputs": [
        {
          "name": "_identityRegistry",
          "type": "address",
          "internalType": "address"
        }
      ],
      "outputs": [],
      "stateMutability": "nonpayable"
    },
    {
      "type": "function",
      "name": "setOnchainID",
      "inputs": [
        {
          "name": "_onchainID",
          "type": "address",
          "internalType": "address"
        }
      ],
      "outputs": [],
      "stateMutability": "nonpayable"
    },
    {
      "type": "function",
      "name": "setParametersForComplianceModule",
      "inputs": [
        {
          "name": "_module",
          "type": "address",
          "internalType": "address"
        },
        {
          "name": "_params",
          "type": "bytes",
          "internalType": "bytes"
        }
      ],
      "outputs": [],
      "stateMutability": "nonpayable"
    },
    {
      "type": "function",
      "name": "setYieldSchedule",
      "inputs": [
        {
          "name": "schedule",
          "type": "address",
          "internalType": "address"
        }
      ],
      "outputs": [],
      "stateMutability": "nonpayable"
    },
    {
      "type": "function",
      "name": "supportsInterface",
      "inputs": [
        {
          "name": "interfaceId",
          "type": "bytes4",
          "internalType": "bytes4"
        }
      ],
      "outputs": [
        {
          "name": "",
          "type": "bool",
          "internalType": "bool"
        }
      ],
      "stateMutability": "view"
    },
    {
      "type": "function",
      "name": "symbol",
      "inputs": [],
      "outputs": [
        {
          "name": "",
          "type": "string",
          "internalType": "string"
        }
      ],
      "stateMutability": "view"
    },
    {
      "type": "function",
      "name": "totalSupply",
      "inputs": [],
      "outputs": [
        {
          "name": "",
          "type": "uint256",
          "internalType": "uint256"
        }
      ],
      "stateMutability": "view"
    },
    {
      "type": "function",
      "name": "totalSupplyAt",
      "inputs": [
        {
          "name": "timepoint",
          "type": "uint256",
          "internalType": "uint256"
        }
      ],
      "outputs": [
        {
          "name": "",
          "type": "uint256",
          "internalType": "uint256"
        }
      ],
      "stateMutability": "view"
    },
    {
      "type": "function",
      "name": "totalUnderlyingNeeded",
      "inputs": [],
      "outputs": [
        {
          "name": "",
          "type": "uint256",
          "internalType": "uint256"
        }
      ],
      "stateMutability": "view"
    },
    {
      "type": "function",
      "name": "transfer",
      "inputs": [
        {
          "name": "_to",
          "type": "address",
          "internalType": "address"
        },
        {
          "name": "_amount",
          "type": "uint256",
          "internalType": "uint256"
        }
      ],
      "outputs": [
        {
          "name": "",
          "type": "bool",
          "internalType": "bool"
        }
      ],
      "stateMutability": "nonpayable"
    },
    {
      "type": "function",
      "name": "transferFrom",
      "inputs": [
        {
          "name": "from",
          "type": "address",
          "internalType": "address"
        },
        {
          "name": "to",
          "type": "address",
          "internalType": "address"
        },
        {
          "name": "value",
          "type": "uint256",
          "internalType": "uint256"
        }
      ],
      "outputs": [
        {
          "name": "",
          "type": "bool",
          "internalType": "bool"
        }
      ],
      "stateMutability": "nonpayable"
    },
    {
      "type": "function",
      "name": "trustedForwarder",
      "inputs": [],
      "outputs": [
        {
          "name": "",
          "type": "address",
          "internalType": "address"
        }
      ],
      "stateMutability": "view"
    },
    {
      "type": "function",
      "name": "underlyingAsset",
      "inputs": [],
      "outputs": [
        {
          "name": "",
          "type": "address",
          "internalType": "contract IERC20"
        }
      ],
      "stateMutability": "view"
    },
    {
      "type": "function",
      "name": "underlyingAssetBalance",
      "inputs": [],
      "outputs": [
        {
          "name": "",
          "type": "uint256",
          "internalType": "uint256"
        }
      ],
      "stateMutability": "view"
    },
    {
      "type": "function",
      "name": "unfreezePartialTokens",
      "inputs": [
        {
          "name": "userAddress",
          "type": "address",
          "internalType": "address"
        },
        {
          "name": "amount",
          "type": "uint256",
          "internalType": "uint256"
        }
      ],
      "outputs": [],
      "stateMutability": "nonpayable"
    },
    {
      "type": "function",
      "name": "unpause",
      "inputs": [],
      "outputs": [],
      "stateMutability": "nonpayable"
    },
    {
      "type": "function",
      "name": "withdrawableUnderlyingAmount",
      "inputs": [],
      "outputs": [
        {
          "name": "",
          "type": "uint256",
          "internalType": "uint256"
        }
      ],
      "stateMutability": "view"
    },
    {
      "type": "function",
      "name": "yieldBasisPerUnit",
      "inputs": [
        {
          "name": "",
          "type": "address",
          "internalType": "address"
        }
      ],
      "outputs": [
        {
          "name": "",
          "type": "uint256",
          "internalType": "uint256"
        }
      ],
      "stateMutability": "view"
    },
    {
      "type": "function",
      "name": "yieldSchedule",
      "inputs": [],
      "outputs": [
        {
          "name": "",
          "type": "address",
          "internalType": "address"
        }
      ],
      "stateMutability": "view"
    },
    {
      "type": "function",
      "name": "yieldToken",
      "inputs": [],
      "outputs": [
        {
          "name": "",
          "type": "address",
          "internalType": "contract IERC20"
        }
      ],
      "stateMutability": "view"
    },
    {
      "type": "event",
      "name": "AccessManagerSet",
      "inputs": [
        {
          "name": "sender",
          "type": "address",
          "indexed": true,
          "internalType": "address"
        },
        {
          "name": "manager",
          "type": "address",
          "indexed": true,
          "internalType": "address"
        }
      ],
      "anonymous": false
    },
    {
      "type": "event",
      "name": "AddressFrozen",
      "inputs": [
        {
          "name": "sender",
          "type": "address",
          "indexed": true,
          "internalType": "address"
        },
        {
          "name": "userAddress",
          "type": "address",
          "indexed": true,
          "internalType": "address"
        },
        {
          "name": "isFrozen",
          "type": "bool",
          "indexed": true,
          "internalType": "bool"
        }
      ],
      "anonymous": false
    },
    {
      "type": "event",
      "name": "Approval",
      "inputs": [
        {
          "name": "owner",
          "type": "address",
          "indexed": true,
          "internalType": "address"
        },
        {
          "name": "spender",
          "type": "address",
          "indexed": true,
          "internalType": "address"
        },
        {
          "name": "value",
          "type": "uint256",
          "indexed": false,
          "internalType": "uint256"
        }
      ],
      "anonymous": false
    },
    {
      "type": "event",
      "name": "BondMatured",
      "inputs": [
        {
          "name": "timestamp",
          "type": "uint256",
          "indexed": true,
          "internalType": "uint256"
        }
      ],
      "anonymous": false
    },
    {
      "type": "event",
      "name": "BondRedeemed",
      "inputs": [
        {
          "name": "sender",
          "type": "address",
          "indexed": true,
          "internalType": "address"
        },
        {
          "name": "holder",
          "type": "address",
          "indexed": true,
          "internalType": "address"
        },
        {
          "name": "bondAmount",
          "type": "uint256",
          "indexed": false,
          "internalType": "uint256"
        },
        {
          "name": "underlyingAmount",
          "type": "uint256",
          "indexed": false,
          "internalType": "uint256"
        }
      ],
      "anonymous": false
    },
    {
      "type": "event",
      "name": "BurnCompleted",
      "inputs": [
        {
          "name": "sender",
          "type": "address",
          "indexed": true,
          "internalType": "address"
        },
        {
          "name": "from",
          "type": "address",
          "indexed": true,
          "internalType": "address"
        },
        {
          "name": "amount",
          "type": "uint256",
          "indexed": false,
          "internalType": "uint256"
        }
      ],
      "anonymous": false
    },
    {
      "type": "event",
      "name": "CapSet",
      "inputs": [
        {
          "name": "sender",
          "type": "address",
          "indexed": true,
          "internalType": "address"
        },
        {
          "name": "cap",
          "type": "uint256",
          "indexed": false,
          "internalType": "uint256"
        }
      ],
      "anonymous": false
    },
    {
      "type": "event",
      "name": "CheckpointUpdated",
      "inputs": [
        {
          "name": "sender",
          "type": "address",
          "indexed": true,
          "internalType": "address"
        },
        {
          "name": "account",
          "type": "address",
          "indexed": true,
          "internalType": "address"
        },
        {
          "name": "oldBalance",
          "type": "uint256",
          "indexed": false,
          "internalType": "uint256"
        },
        {
          "name": "newBalance",
          "type": "uint256",
          "indexed": false,
          "internalType": "uint256"
        }
      ],
      "anonymous": false
    },
    {
      "type": "event",
      "name": "ComplianceAdded",
      "inputs": [
        {
          "name": "sender",
          "type": "address",
          "indexed": true,
          "internalType": "address"
        },
        {
          "name": "_compliance",
          "type": "address",
          "indexed": true,
          "internalType": "address"
        }
      ],
      "anonymous": false
    },
    {
      "type": "event",
      "name": "ComplianceModuleAdded",
      "inputs": [
        {
          "name": "sender",
          "type": "address",
          "indexed": true,
          "internalType": "address"
        },
        {
          "name": "_module",
          "type": "address",
          "indexed": true,
          "internalType": "address"
        },
        {
          "name": "_params",
          "type": "bytes",
          "indexed": false,
          "internalType": "bytes"
        }
      ],
      "anonymous": false
    },
    {
      "type": "event",
      "name": "ComplianceModuleRemoved",
      "inputs": [
        {
          "name": "sender",
          "type": "address",
          "indexed": true,
          "internalType": "address"
        },
        {
          "name": "_module",
          "type": "address",
          "indexed": true,
          "internalType": "address"
        }
      ],
      "anonymous": false
    },
    {
      "type": "event",
      "name": "ERC20TokenRecovered",
      "inputs": [
        {
          "name": "sender",
          "type": "address",
          "indexed": true,
          "internalType": "address"
        },
        {
          "name": "token",
          "type": "address",
          "indexed": true,
          "internalType": "address"
        },
        {
          "name": "to",
          "type": "address",
          "indexed": true,
          "internalType": "address"
        },
        {
          "name": "amount",
          "type": "uint256",
          "indexed": false,
          "internalType": "uint256"
        }
      ],
      "anonymous": false
    },
    {
      "type": "event",
      "name": "ForcedTransfer",
      "inputs": [
        {
          "name": "sender",
          "type": "address",
          "indexed": true,
          "internalType": "address"
        },
        {
          "name": "from",
          "type": "address",
          "indexed": true,
          "internalType": "address"
        },
        {
          "name": "to",
          "type": "address",
          "indexed": true,
          "internalType": "address"
        },
        {
          "name": "amount",
          "type": "uint256",
          "indexed": false,
          "internalType": "uint256"
        }
      ],
      "anonymous": false
    },
    {
      "type": "event",
      "name": "IdentityRegistryAdded",
      "inputs": [
        {
          "name": "sender",
          "type": "address",
          "indexed": true,
          "internalType": "address"
        },
        {
          "name": "_identityRegistry",
          "type": "address",
          "indexed": true,
          "internalType": "address"
        }
      ],
      "anonymous": false
    },
    {
      "type": "event",
      "name": "Initialized",
      "inputs": [
        {
          "name": "version",
          "type": "uint64",
          "indexed": false,
          "internalType": "uint64"
        }
      ],
      "anonymous": false
    },
    {
      "type": "event",
      "name": "MintCompleted",
      "inputs": [
        {
          "name": "sender",
          "type": "address",
          "indexed": true,
          "internalType": "address"
        },
        {
          "name": "to",
          "type": "address",
          "indexed": true,
          "internalType": "address"
        },
        {
          "name": "amount",
          "type": "uint256",
          "indexed": false,
          "internalType": "uint256"
        }
      ],
      "anonymous": false
    },
    {
      "type": "event",
      "name": "ModuleParametersUpdated",
      "inputs": [
        {
          "name": "sender",
          "type": "address",
          "indexed": true,
          "internalType": "address"
        },
        {
          "name": "_module",
          "type": "address",
          "indexed": true,
          "internalType": "address"
        },
        {
          "name": "_params",
          "type": "bytes",
          "indexed": false,
          "internalType": "bytes"
        }
      ],
      "anonymous": false
    },
    {
      "type": "event",
      "name": "Paused",
      "inputs": [
        {
          "name": "sender",
          "type": "address",
          "indexed": true,
          "internalType": "address"
        }
      ],
      "anonymous": false
    },
    {
      "type": "event",
      "name": "RecoverySuccess",
      "inputs": [
        {
          "name": "sender",
          "type": "address",
          "indexed": true,
          "internalType": "address"
        },
        {
          "name": "lostWallet",
          "type": "address",
          "indexed": true,
          "internalType": "address"
        },
        {
          "name": "newWallet",
          "type": "address",
          "indexed": true,
          "internalType": "address"
        },
        {
          "name": "investorOnchainID",
          "type": "address",
          "indexed": false,
          "internalType": "address"
        }
      ],
      "anonymous": false
    },
    {
      "type": "event",
      "name": "Redeemed",
      "inputs": [
        {
          "name": "sender",
          "type": "address",
          "indexed": true,
          "internalType": "address"
        },
        {
          "name": "amount",
          "type": "uint256",
          "indexed": false,
          "internalType": "uint256"
        }
      ],
      "anonymous": false
    },
    {
      "type": "event",
      "name": "TokensFrozen",
      "inputs": [
        {
          "name": "sender",
          "type": "address",
          "indexed": true,
          "internalType": "address"
        },
        {
          "name": "user",
          "type": "address",
          "indexed": true,
          "internalType": "address"
        },
        {
          "name": "amount",
          "type": "uint256",
          "indexed": false,
          "internalType": "uint256"
        }
      ],
      "anonymous": false
    },
    {
      "type": "event",
      "name": "TokensRecovered",
      "inputs": [
        {
          "name": "sender",
          "type": "address",
          "indexed": true,
          "internalType": "address"
        },
        {
          "name": "lostWallet",
          "type": "address",
          "indexed": true,
          "internalType": "address"
        },
        {
          "name": "newWallet",
          "type": "address",
          "indexed": true,
          "internalType": "address"
        },
        {
          "name": "amount",
          "type": "uint256",
          "indexed": false,
          "internalType": "uint256"
        }
      ],
      "anonymous": false
    },
    {
      "type": "event",
      "name": "TokensUnfrozen",
      "inputs": [
        {
          "name": "sender",
          "type": "address",
          "indexed": true,
          "internalType": "address"
        },
        {
          "name": "user",
          "type": "address",
          "indexed": true,
          "internalType": "address"
        },
        {
          "name": "amount",
          "type": "uint256",
          "indexed": false,
          "internalType": "uint256"
        }
      ],
      "anonymous": false
    },
    {
      "type": "event",
      "name": "Transfer",
      "inputs": [
        {
          "name": "from",
          "type": "address",
          "indexed": true,
          "internalType": "address"
        },
        {
          "name": "to",
          "type": "address",
          "indexed": true,
          "internalType": "address"
        },
        {
          "name": "value",
          "type": "uint256",
          "indexed": false,
          "internalType": "uint256"
        }
      ],
      "anonymous": false
    },
    {
      "type": "event",
      "name": "TransferCompleted",
      "inputs": [
        {
          "name": "sender",
          "type": "address",
          "indexed": true,
          "internalType": "address"
        },
        {
          "name": "from",
          "type": "address",
          "indexed": true,
          "internalType": "address"
        },
        {
          "name": "to",
          "type": "address",
          "indexed": true,
          "internalType": "address"
        },
        {
          "name": "amount",
          "type": "uint256",
          "indexed": false,
          "internalType": "uint256"
        }
      ],
      "anonymous": false
    },
    {
      "type": "event",
      "name": "Unpaused",
      "inputs": [
        {
          "name": "sender",
          "type": "address",
          "indexed": true,
          "internalType": "address"
        }
      ],
      "anonymous": false
    },
    {
      "type": "event",
      "name": "UpdatedTokenInformation",
      "inputs": [
        {
          "name": "sender",
          "type": "address",
          "indexed": true,
          "internalType": "address"
        },
        {
          "name": "_newDecimals",
          "type": "uint8",
          "indexed": false,
          "internalType": "uint8"
        },
        {
          "name": "_newOnchainID",
          "type": "address",
          "indexed": true,
          "internalType": "address"
        }
      ],
      "anonymous": false
    },
    {
      "type": "event",
      "name": "YieldScheduleSet",
      "inputs": [
        {
          "name": "sender",
          "type": "address",
          "indexed": true,
          "internalType": "address"
        },
        {
          "name": "schedule",
          "type": "address",
          "indexed": true,
          "internalType": "address"
        }
      ],
      "anonymous": false
    },
    {
      "type": "error",
      "name": "AccessControlUnauthorizedAccount",
      "inputs": [
        {
          "name": "account",
          "type": "address",
          "internalType": "address"
        },
        {
          "name": "neededRole",
          "type": "bytes32",
          "internalType": "bytes32"
        }
      ]
    },
    {
      "type": "error",
      "name": "BondAlreadyMatured",
      "inputs": []
    },
    {
      "type": "error",
      "name": "BondInvalidMaturityDate",
      "inputs": []
    },
    {
      "type": "error",
      "name": "BondNotYetMatured",
      "inputs": []
    },
    {
      "type": "error",
      "name": "CannotRecoverSelf",
      "inputs": []
    },
    {
      "type": "error",
      "name": "CheckpointUnorderedInsertion",
      "inputs": []
    },
    {
      "type": "error",
      "name": "DuplicateModule",
      "inputs": [
        {
          "name": "module",
          "type": "address",
          "internalType": "address"
        }
      ]
    },
    {
      "type": "error",
      "name": "ERC20InsufficientAllowance",
      "inputs": [
        {
          "name": "spender",
          "type": "address",
          "internalType": "address"
        },
        {
          "name": "allowance",
          "type": "uint256",
          "internalType": "uint256"
        },
        {
          "name": "needed",
          "type": "uint256",
          "internalType": "uint256"
        }
      ]
    },
    {
      "type": "error",
      "name": "ERC20InsufficientBalance",
      "inputs": [
        {
          "name": "sender",
          "type": "address",
          "internalType": "address"
        },
        {
          "name": "balance",
          "type": "uint256",
          "internalType": "uint256"
        },
        {
          "name": "needed",
          "type": "uint256",
          "internalType": "uint256"
        }
      ]
    },
    {
      "type": "error",
      "name": "ERC20InvalidApprover",
      "inputs": [
        {
          "name": "approver",
          "type": "address",
          "internalType": "address"
        }
      ]
    },
    {
      "type": "error",
      "name": "ERC20InvalidReceiver",
      "inputs": [
        {
          "name": "receiver",
          "type": "address",
          "internalType": "address"
        }
      ]
    },
    {
      "type": "error",
      "name": "ERC20InvalidSender",
      "inputs": [
        {
          "name": "sender",
          "type": "address",
          "internalType": "address"
        }
      ]
    },
    {
      "type": "error",
      "name": "ERC20InvalidSpender",
      "inputs": [
        {
          "name": "spender",
          "type": "address",
          "internalType": "address"
        }
      ]
    },
    {
      "type": "error",
      "name": "ExceededCap",
      "inputs": [
        {
          "name": "newSupply",
          "type": "uint256",
          "internalType": "uint256"
        },
        {
          "name": "cap",
          "type": "uint256",
          "internalType": "uint256"
        }
      ]
    },
    {
      "type": "error",
      "name": "ExpectedPause",
      "inputs": []
    },
    {
      "type": "error",
      "name": "FreezeAmountExceedsAvailableBalance",
      "inputs": [
        {
          "name": "available",
          "type": "uint256",
          "internalType": "uint256"
        },
        {
          "name": "requested",
          "type": "uint256",
          "internalType": "uint256"
        }
      ]
    },
    {
      "type": "error",
      "name": "FutureLookup",
      "inputs": [
        {
          "name": "requestedTimepoint",
          "type": "uint256",
          "internalType": "uint256"
        },
        {
          "name": "currentTimepoint",
          "type": "uint48",
          "internalType": "uint48"
        }
      ]
    },
    {
      "type": "error",
      "name": "InsufficientFrozenTokens",
      "inputs": [
        {
          "name": "frozenBalance",
          "type": "uint256",
          "internalType": "uint256"
        },
        {
          "name": "requested",
          "type": "uint256",
          "internalType": "uint256"
        }
      ]
    },
    {
      "type": "error",
      "name": "InsufficientRedeemableBalance",
      "inputs": [
        {
          "name": "currentBalance",
          "type": "uint256",
          "internalType": "uint256"
        },
        {
          "name": "requiredBalance",
          "type": "uint256",
          "internalType": "uint256"
        }
      ]
    },
    {
      "type": "error",
      "name": "InsufficientTokenBalance",
      "inputs": []
    },
    {
      "type": "error",
      "name": "InsufficientUnderlyingBalance",
      "inputs": [
        {
          "name": "currentBalance",
          "type": "uint256",
          "internalType": "uint256"
        },
        {
          "name": "requiredBalance",
          "type": "uint256",
          "internalType": "uint256"
        }
      ]
    },
    {
      "type": "error",
      "name": "InvalidCap",
      "inputs": [
        {
          "name": "cap",
          "type": "uint256",
          "internalType": "uint256"
        }
      ]
    },
    {
      "type": "error",
      "name": "InvalidDecimals",
      "inputs": [
        {
          "name": "decimals",
          "type": "uint8",
          "internalType": "uint8"
        }
      ]
    },
    {
      "type": "error",
      "name": "InvalidFaceValue",
      "inputs": []
    },
    {
      "type": "error",
      "name": "InvalidInitialization",
      "inputs": []
    },
    {
      "type": "error",
      "name": "InvalidLostWallet",
      "inputs": []
    },
    {
      "type": "error",
      "name": "InvalidRedemptionAmount",
      "inputs": []
    },
    {
      "type": "error",
      "name": "InvalidUnderlyingAsset",
      "inputs": []
    },
    {
      "type": "error",
      "name": "LengthMismatch",
      "inputs": []
    },
    {
      "type": "error",
      "name": "MintNotCompliant",
      "inputs": []
    },
    {
      "type": "error",
      "name": "ModuleAlreadyAdded",
      "inputs": []
    },
    {
      "type": "error",
      "name": "ModuleNotFound",
      "inputs": []
    },
    {
      "type": "error",
      "name": "NoTokensToRecover",
      "inputs": []
    },
    {
      "type": "error",
      "name": "NotInitializing",
      "inputs": []
    },
    {
      "type": "error",
      "name": "RecipientAddressFrozen",
      "inputs": []
    },
    {
      "type": "error",
      "name": "ReentrancyGuardReentrantCall",
      "inputs": []
    },
    {
      "type": "error",
      "name": "SafeCastOverflowedUintDowncast",
      "inputs": [
        {
          "name": "bits",
          "type": "uint8",
          "internalType": "uint8"
        },
        {
          "name": "value",
          "type": "uint256",
          "internalType": "uint256"
        }
      ]
    },
    {
      "type": "error",
      "name": "SafeERC20FailedOperation",
      "inputs": [
        {
          "name": "token",
          "type": "address",
          "internalType": "address"
        }
      ]
    },
    {
      "type": "error",
      "name": "SenderAddressFrozen",
      "inputs": []
    },
    {
      "type": "error",
      "name": "TokenPaused",
      "inputs": []
    },
    {
      "type": "error",
      "name": "TransferNotCompliant",
      "inputs": []
    },
    {
      "type": "error",
      "name": "YieldScheduleActive",
      "inputs": []
    },
    {
      "type": "error",
      "name": "YieldScheduleAlreadySet",
      "inputs": []
    },
    {
      "type": "error",
      "name": "ZeroAddressNotAllowed",
      "inputs": []
    }
  ],
  "bytecode": {
    "object": "0x60a03461008857601f6153dd38819003918201601f19168301916001600160401b0383118484101761008c5780849260209460405283398101031261008857516001600160a01b0381168103610088576100576100a0565b6080526100626100a0565b604051615286908161013782396080518181816111fe015281816114870152613ae60152f35b5f80fd5b634e487b7160e01b5f52604160045260245ffd5b5f5160206153bd5f395f51905f525460ff8160401c16610127576002600160401b03196001600160401b038216016100d55750565b6001600160401b0319166001600160401b039081175f5160206153bd5f395f51905f52556040519081527fc7f505b2f371ae2175ee4913f4499e1f2633a7b5936321eed1cdaeb6115181d290602090a1565b63f92ee8a960e01b5f5260045ffdfe60806040526004361015610011575f80fd5b5f3560e01c806301ffc9a71461044f57806306fdde031461044a578063095ea7b3146104455780631171bda914610440578063125c4a331461043b578063134e18f414610436578063158b1a571461043157806316114acd1461042c57806318160ddd146104275780631a7af379146104225780631ef5205f1461041d5780631fe56f7d1461041857806323b872dd1461041357806328d99f311461040e5780632f0004f0146104095780632f4350c214610404578063313ce567146103ff578063355274ea146103fa5780633d1ddc5b146103f55780633f4ba83a146103f057806340c10f19146103eb57806342a47abc146103e657806344fd9caa146103e15780634710362d146103dc57806347786d37146103d75780634a6cc677146103d25780634bf5d7e9146103cd5780634ee2cd7e146103c8578063572b6c05146103c35780635c975abb146103be5780636290865d146103b957806362b9333e146103b457806368573107146103af57806370a08231146103aa5780637158da7c146103a557806376d5de85146103a557806377d2f8d9146103a05780637da0a8771461039b5780637f2b6a0d1461039657806381e5bc36146103915780638456cb591461038c57806387b652071461038757806388d695b21461038257806391d148541461037d57806391ddadf41461037857806395d89b4114610373578063981b24d01461036e5780639dc29fac146103695780639fc1d0e714610364578063a7fc9e3f1461035f578063a9059cbb1461035a578063a98ac17a14610355578063ab1fbaa514610350578063aba637051461034b578063c14e1a1814610346578063c69c09cf14610341578063c76f3d9b1461033c578063cbf3f86114610337578063d3d71a1714610332578063d52747381461032d578063d59624b414610328578063d819dccf14610323578063db006a751461031e578063dd62ed3e14610319578063e583983614610314578063f89817891461030f578063fc7e5fa81461030a5763fdcb606814610305575f80fd5b612229565b6121ca565b61214a565b61210a565b6120e4565b6120c8565b61207d565b612060565b611fc3565b611f9a565b611f0b565b611dc7565b611d8f565b611d6b565b611d3f565b611c84565b6119c5565b611922565b6118fa565b6118d6565b6118a2565b6117af565b6116f2565b6116c7565b611693565b611637565b611577565b611501565b6114d8565b6114b6565b611472565b61136c565b611344565b611322565b6112c3565b6112a1565b611254565b611232565b6111da565b611142565b6110f2565b611093565b610ff7565b610f98565b610f7b565b610e9d565b610e64565b610df0565b610d4e565b610d31565b610d11565b610ce9565b610c8d565b610c52565b610b47565b610b13565b6109db565b610909565b610860565b610832565b6107f7565b6107cf565b610796565b61076d565b610676565b610531565b346104eb5760203660031901126104eb5760043563ffffffff60e01b81168091036104eb5761049d9063563138fd60e01b81149081156104a1575b5060405190151581529081906020820190565b0390f35b8091505f52600160205260ff60405f2054169081156104da575b81156104c9575b505f61048a565b6301ffc9a760e01b1490505f6104c2565b63074ece2b60e41b811491506104bb565b5f80fd5b5f9103126104eb57565b805180835260209291819084018484015e5f828201840152601f01601f1916010190565b90602061052e9281815201906104f9565b90565b346104eb575f3660031901126104eb576040515f5f51602061517a5f395f51905f525461055d816122d7565b80845290600181169081156105fb5750600114610591575b61049d8361058581850382611af8565b6040519182918261051d565b5f51602061517a5f395f51905f525f9081527f2ae08a8e29253f69ac5d979a101956ab8f8d9d7ded63fa7a83b16fc47648eab0939250905b8082106105e157509091508101602001610585610575565b9192600181602092548385880101520191019092916105c9565b60ff191660208086019190915291151560051b840190910191506105859050610575565b6001600160a01b038116036104eb57565b6064359061063d8261061f565b565b60e4359061063d8261061f565b610124359061063d8261061f565b610144359061063d8261061f565b610164359061063d8261061f565b346104eb5760403660031901126104eb576004356106938161061f565b6024359061069f613ae3565b6001600160a01b0381169190821561072e576001600160a01b03821693841561071b57806107087f8c5be1e5ebec7d5bd14f71427d1e84f3dd0314c0f7b2291e5b200ac8c7c3b925946106f3602095610bf5565b9060018060a01b03165f5260205260405f2090565b55604051908152a3602060405160018152f35b634a1406b160e11b5f525f60045260245ffd5b63e602df0560e01b5f525f60045260245ffd5b60609060031901126104eb576004356107598161061f565b906024356107668161061f565b9060443590565b346104eb5761079461077e36610741565b9161078f61078a613ae3565b6126d1565b6128a9565b005b346104eb5760403660031901126104eb576107946004356107b68161061f565b602435906107ca6107c5613ae3565b612747565b6129c0565b346104eb575f3660031901126104eb576003546040516001600160a01b039091168152602090f35b346104eb5760203660031901126104eb576004356108148161061f565b60018060a01b03165f52600a602052602060405f2054604051908152f35b346104eb5760203660031901126104eb576107946004356108528161061f565b61085a613ae3565b90612a97565b346104eb575f3660031901126104eb5760205f5160206151da5f395f51905f5254604051908152f35b9181601f840112156104eb578235916001600160401b0383116104eb576020808501948460051b0101116104eb57565b60406003198201126104eb576004356001600160401b0381116104eb57816108e391600401610889565b92909291602435906001600160401b0382116104eb5761090591600401610889565b9091565b346104eb57610917366108b9565b906109236107c5613ae3565b818303610971575f5b83811061093557005b8061096b6109466001938789612c70565b356109508161061f565b61095b838787612c70565b359061096682611d85565b613987565b0161092c565b631fec674760e31b5f5260045ffd5b60406003198201126104eb576004356109988161061f565b916024356001600160401b0381116104eb57826023820112156104eb578060040135926001600160401b0384116104eb57602484830101116104eb576024019190565b346104eb576109e936610980565b6109fc6109f7939293613ae3565b6127bd565b6001600160a01b0382165f9081526005602052604090205415610b0457600454610a36906001600160a01b03165b6001600160a01b031690565b90813b156104eb575f604051809363e50bcad360e01b82528180610a5f868a8a60048501612ca0565b03915afa918215610aff577f8191c9e77ca554fa2d71249ed7be789e36d034b36dbf87dbe2a03dd92483cd1592610ae5575b50610ab68185610ab18660018060a01b03165f52600660205260405f2090565b612d5f565b6001600160a01b03610ac6613ae3565b1692610ae060405192839260018060a01b03169683612e27565b0390a3005b80610af35f610af993611af8565b806104ef565b5f610a91565b612532565b631c94b02360e21b5f5260045ffd5b346104eb5760403660031901126104eb57610794600435610b338161061f565b60243590610b426107c5613ae3565b612e38565b346104eb57610b5536610741565b90610b5e613ae3565b92610b6c846106f383610bf5565b54935f198510610b8d575b50610b829350612eb7565b602060405160018152f35b838510610bcc576001600160a01b0382161561072e576001600160a01b0381161561071b57610bc584610b829603916106f384610bf5565b555f610b77565b637dc7a0d960e11b5f9081526001600160a01b0390911660045260248590526044849052606490fd5b6001600160a01b03165f9081527f52c63247e1f47db19d5ce0460030c497f067ca4cebf71ba98eeadabe20bace016020526040902090565b6001600160a01b03165f9081525f51602061519a5f395f51905f526020526040902090565b346104eb5760203660031901126104eb57600435610c6f8161061f565b60018060a01b03165f526014602052602060405f2054604051908152f35b346104eb575f3660031901126104eb57610cb45f5160206151da5f395f51905f5254613ab3565b610cbc61267b565b9080821115610cdf578103908111610cda576020905b604051908152f35b612251565b505060205f610cd2565b346104eb575f3660031901126104eb57610b82610d0c610d07613ae3565b612280565b613010565b346104eb575f3660031901126104eb57602060ff60025416604051908152f35b346104eb575f3660031901126104eb576020600f54604051908152f35b346104eb5760203660031901126104eb57610da0600435610d6e8161061f565b610d796109f7613ae3565b60028054610100600160a81b03191660089290921b610100600160a81b0316919091179055565b610da8613ae3565b60025460405160ff8216815260089190911c6001600160a01b039081169216907fc5e2e9318498e1a253726df4112345358bfcbadd5aab57c99d8c7f590ab0d32a90602090a3005b346104eb575f3660031901126104eb57610e0b61078a613ae3565b600b5460ff811615610e555760ff1916600b556001600160a01b03610e2e613ae3565b167f5db9ee0a495bf2e6ff9c91a7834c1ba4fdd244a5e8aa4e537bd38aeae4b073aa5f80a2005b63e779249560e01b5f5260045ffd5b346104eb5760403660031901126104eb57610794600435610e848161061f565b60243590610e98610e93613ae3565b612833565b6130f8565b346104eb5760603660031901126104eb576004356001600160401b0381116104eb57610ecd903690600401610889565b6024356001600160401b0381116104eb57610eec903690600401610889565b91906044356001600160401b0381116104eb57610f0d903690600401610889565b94610f196107c5613ae3565b84840361097157858503610971575f5b848110610f3257005b80610f74610f436001938886612c70565b35610f4d8161061f565b610f58838a89612c70565b35610f628161061f565b610f6d848c89612c70565b3591613390565b5001610f29565b346104eb575f3660031901126104eb576020601254604051908152f35b346104eb57610fa6366108b9565b90610fb26107c5613ae3565b818303610971575f5b838110610fc457005b80610ff1610fd56001938789612c70565b35610fdf8161061f565b610fea838787612c70565b3590612e38565b01610fbb565b346104eb5760203660031901126104eb57600435611016610e93613ae3565b5f5160206151da5f395f51905f52548115908115611089575b5061107757600f8190557f1c9182333abe71fddddd188f90cabb1c34182de0b0ac74c87944a196460a2d6c60206001600160a01b0361106c613ae3565b1692604051908152a2005b6330c2ba0360e01b5f5260045260245ffd5b905081105f61102f565b346104eb576110a1366108b9565b906110ad610e93613ae3565b818303610971575f5b8381106110bf57005b806110ec6110d06001938789612c70565b356110da8161061f565b6110e5838787612c70565b359061333b565b016110b6565b346104eb575f3660031901126104eb5761049d604051611113604082611af8565b600e81526d06d6f64653d74696d657374616d760941b60208201526040519182916020835260208301906104f9565b346104eb5760403660031901126104eb5760043561115f8161061f565b60243565ffffffffffff611172426131b2565b16918282116111c4576001600160a01b03165f908152600c6020526040902061049d92506001600160d01b03916111b391906111ad906131b2565b906131e1565b604051911681529081906020820190565b5063895c4c5160e01b5f5260045260245260445ffd5b346104eb5760203660031901126104eb5760206004356111f98161061f565b6040517f00000000000000000000000000000000000000000000000000000000000000006001600160a01b039081169216919091148152f35b346104eb575f3660031901126104eb57602060ff600b54166040519015158152f35b346104eb575f3660031901126104eb576004546040516001600160a01b039091168152602090f35b60409060031901126104eb576004356112948161061f565b9060243561052e8161061f565b346104eb576107946112b23661127c565b906112be6107c5613ae3565b612a97565b346104eb576112d1366108b9565b906112dd610e93613ae3565b818303610971575f5b8381106112ef57005b8061131c6113006001938789612c70565b3561130a8161061f565b611315838787612c70565b35906130f8565b016112e6565b346104eb5760203660031901126104eb576020610cd2600435610d078161061f565b346104eb575f3660031901126104eb576013546040516001600160a01b039091168152602090f35b346104eb5761137a36610980565b6113886109f7939293613ae3565b60045461139d906001600160a01b0316610a2a565b803b156104eb575f604051809263e50bcad360e01b825281806113c5878a8a60048501612ca0565b03915afa8015610aff5761145e575b506001600160a01b0382165f9081526005602052604090205461144f577f4df30bfa3ec06fecb039a1a7f419067e9ae43dae6bccbbe724bf4dedcca740b39061141c83613272565b6007546001600160a01b0384165f908152600560209081526040808320939093556006905220610ab69082908690612d5f565b63079f102d60e51b5f5260045ffd5b80610af35f61146c93611af8565b5f6113d4565b346104eb575f3660031901126104eb576040517f00000000000000000000000000000000000000000000000000000000000000006001600160a01b03168152602090f35b346104eb575f3660031901126104eb57602060ff601154166040519015158152f35b346104eb5760203660031901126104eb576114f460043561061f565b6020601254604051908152f35b346104eb575f3660031901126104eb5761151c61078a613ae3565b600b5460ff81166115685760ff1916600117600b556001600160a01b03611541613ae3565b167f62e78cea01bee320cd4e420270b5ea74000d11b0c9f74754ebdbfc544b05a2585f80a2005b638dfc202b60e01b5f5260045ffd5b346104eb575f3660031901126104eb576115926109f7613ae3565b60105442106116285760ff60115416611619576115bc5f5160206151da5f395f51905f5254613ab3565b6115c461267b565b818110611604576115dd600160ff196011541617601155565b427f649a42f6e04f3cd15f744ac4027df1cd581ff8c96253f889690027aaf11591ca5f80a2005b630c9f8b8560e01b5f5260045260245260445ffd5b632b75c76f60e11b5f5260045ffd5b6344f1048160e11b5f5260045ffd5b346104eb57611645366108b9565b90818303610971575f5b83811061165857005b8061168d6116696001938789612c70565b356116738161061f565b61167e838787612c70565b3590611688613ae3565b612eb7565b0161164f565b346104eb5760403660031901126104eb5760206116bd6024356116b58161061f565b6004356132da565b6040519015158152f35b346104eb575f3660031901126104eb5760206116e2426131b2565b65ffffffffffff60405191168152f35b346104eb575f3660031901126104eb576040515f5f5160206151ba5f395f51905f525461171e816122d7565b80845290600181169081156105fb57506001146117455761049d8361058581850382611af8565b5f5160206151ba5f395f51905f525f9081527f46a2803e59a4de4e7a4c574b1243f25977ac4c77d5a1a4a609b5394cebb4a2aa939250905b80821061179557509091508101602001610585610575565b91926001816020925483858801015201910190929161177d565b346104eb5760203660031901126104eb5760043565ffffffffffff6117d3426131b2565b169081811161188d576117e5906131b2565b600d54905f829160058411611839575b6118019350600d613e8c565b8061181d575060205f5b6040516001600160d01b039091168152f35b611828602091612265565b600d5f52815f20015460301c61180b565b919261184481613d2e565b8103908111610cda5761180193600d5f5265ffffffffffff8260205f2001541665ffffffffffff8516105f1461187b5750916117f5565b929150611887906129a5565b906117f5565b63895c4c5160e01b5f5260045260245260445ffd5b346104eb5760403660031901126104eb576107946004356118c28161061f565b602435906118d1610e93613ae3565b61333b565b346104eb5760206116bd6118e936610741565b916118f56107c5613ae3565b613390565b346104eb575f3660031901126104eb57600e546040516001600160a01b039091168152602090f35b346104eb5760403660031901126104eb57610b826004356119428161061f565b60243590611688613ae3565b602081016020825282518091526040820191602060408360051b8301019401925f915b83831061198057505050505090565b90919293946020806119b6600193603f198682030187526040838b51878060a01b038151168452015191818582015201906104f9565b97019301930191939290611971565b346104eb575f3660031901126104eb576007546119e181611b98565b906119ef6040519283611af8565b808252601f196119fe82611b98565b015f5b818110611aa05750505f5b818110611a21576040518061049d858261194e565b80611a45611a306001936122ba565b905460039190911b1c6001600160a01b031690565b6001600160a01b0381165f908152600660205260409020611a7f90611a7a611a6b611b19565b6001600160a01b039094168452565b61230f565b6020820152611a8e82866123ad565b52611a9981856123ad565b5001611a0c565b602090604051611aaf81611ad8565b5f815260608382015282828701015201611a01565b634e487b7160e01b5f52604160045260245ffd5b604081019081106001600160401b03821117611af357604052565b611ac4565b90601f801991011681019081106001600160401b03821117611af357604052565b6040519061063d604083611af8565b9291926001600160401b038211611af35760405191611b51601f8201601f191660200184611af8565b8294818452818301116104eb578281602093845f960137010152565b9080601f830112156104eb5781602061052e93359101611b28565b6044359060ff821682036104eb57565b6001600160401b038111611af35760051b60200190565b81601f820112156104eb57803590611bc682611b98565b92611bd46040519485611af8565b82845260208085019360051b830101918183116104eb5760208101935b838510611c0057505050505090565b84356001600160401b0381116104eb578201906040828503601f1901126104eb5760405191611c2e83611ad8565b6020810135611c3c8161061f565b835260408101356001600160401b0381116104eb5760209101019084601f830112156104eb57602092611c758684868096359101611b28565b83820152815201940193611bf1565b346104eb576101803660031901126104eb576004356001600160401b0381116104eb57611cb5903690600401611b6d565b6024356001600160401b0381116104eb57611cd4903690600401611b6d565b90611cdd611b88565b91611ce6610630565b926084359360a43560c435611cf961063f565b9161010435976001600160401b0389116104eb57611d1e610794993690600401611baf565b94611d2761064c565b96611d3061065a565b98611d39610668565b9a6123c1565b346104eb575f3660031901126104eb5760025460405160089190911c6001600160a01b03168152602090f35b346104eb575f3660031901126104eb576020610cd261267b565b801515036104eb57565b346104eb5760403660031901126104eb57610794600435611daf8161061f565b60243590611dbc82611d85565b6109666107c5613ae3565b346104eb5760203660031901126104eb57600435611de48161061f565b611def6109f7613ae3565b6001600160a01b0381165f818152600560205260409020549091908015610b0457611e6891611e20611e6392612265565b611e2b600754612265565b808203611e9f575b5050611e3d6139cf565b6001600160a01b03165f9081526005602090815260408083208390556006909152902090565b613a36565b6001600160a01b03611e78613ae3565b167f34edd82cbb989f04be4723e96eec51ffb91f506ef585c7f28ce53110782f5f5e5f80a3005b611ee8611eb1611a30611f03936122ba565b92611ee384611ebf836122ba565b81546001600160a01b0393841660039290921b91821b9390911b1916919091179055565b6129a5565b6001600160a01b039092165f90815260056020526040902090565b555f80611e33565b346104eb5760203660031901126104eb57600435611f288161061f565b611f336109f7613ae3565b6001600160a01b03168015611f8b57600380546001600160a01b031916821790556001600160a01b03611f64613ae3565b167f95d78da2896224ccde884cbed0572281fdb51e155034d0012fc6593806df69765f80a3005b6342bcdf7f60e11b5f5260045ffd5b346104eb575f3660031901126104eb576020610cd25f5160206151da5f395f51905f5254613ab3565b346104eb5760203660031901126104eb57600435611fe08161061f565b611feb6109f7613ae3565b6001600160a01b03168015611f8b57600e546001600160a01b038116612051576001600160a01b0319168117600e556001600160a01b0361202a613ae3565b167fc2afdd630a73ef7841fa2db10620caf28b524409da9adc30af74fa601639d6225f80a3005b6311a37d6960e01b5f5260045ffd5b346104eb575f3660031901126104eb576020601054604051908152f35b346104eb575f3660031901126104eb576120a45f5160206151da5f395f51905f5254613ab3565b6120ac61267b565b80821115610cdf578103908111610cda57602090604051908152f35b346104eb5760203660031901126104eb57610b82600435613010565b346104eb5760206121016106f36120fa3661127c565b9190610bf5565b54604051908152f35b346104eb5760203660031901126104eb576004356121278161061f565b60018060a01b03165f526009602052602060ff60405f2054166040519015158152f35b346104eb5760203660031901126104eb576004356121678161061f565b6121726109f7613ae3565b6001600160a01b03168015611f8b57600480546001600160a01b031916821790556001600160a01b036121a3613ae3565b167f4cd146021d85ad5de55052ad32d44b8b6e496b3436cf6acdfcb5e82b7b3bccb35f80a3005b346104eb576121d8366108b9565b906121e46107c5613ae3565b818303610971575f5b8381106121f657005b806122236122076001938789612c70565b356122118161061f565b61221c838787612c70565b35906129c0565b016121ed565b346104eb575f3660031901126104eb576008546040516001600160a01b039091168152602090f35b634e487b7160e01b5f52601160045260245ffd5b5f19810191908211610cda57565b91908203918211610cda57565b6001600160a01b03165f9081525f51602061519a5f395f51905f52602052604090205490565b634e487b7160e01b5f52603260045260245ffd5b6007548110156122d25760075f5260205f2001905f90565b6122a6565b90600182811c92168015612305575b60208310146122f157565b634e487b7160e01b5f52602260045260245ffd5b91607f16916122e6565b9060405191825f825492612322846122d7565b808452936001811690811561238b5750600114612347575b5061063d92500383611af8565b90505f9291925260205f20905f915b81831061236f57505090602061063d928201015f61233a565b6020919350806001915483858901015201910190918492612356565b90506020925061063d94915060ff191682840152151560051b8201015f61233a565b80518210156122d25760209160051b010190565b99979593916124059b99979593915f51602061525a5f395f51905f52546001600160401b036123f660ff8360401c1615151590565b9e8f926001600160401b031690565b168015918261251b575b506001149081612511575b159081612508575b506124f9576124659b8d61245c60016001600160401b03195f51602061525a5f395f51905f525416175f51602061525a5f395f51905f5255565b6124c45761253d565b61246b57565b61249560ff60401b195f51602061525a5f395f51905f5254165f51602061525a5f395f51905f5255565b604051600181527fc7f505b2f371ae2175ee4913f4499e1f2633a7b5936321eed1cdaeb6115181d290602090a1565b6124f4600160401b60ff60401b195f51602061525a5f395f51905f525416175f51602061525a5f395f51905f5255565b61253d565b63f92ee8a960e01b5f5260045ffd5b9050155f612422565b303b15915061241a565b91508e61240f565b908160209103126104eb575190565b6040513d5f823e3d90fd5b9092969a91949597999a4287111561266c57881561265d576001600160a01b0316998a1561264e576040516318160ddd60e01b81526020816004818f5afa9081612621575b5061259657634e81208360e01b5f5260045ffd5b61063d9b6125ff9a6125fa996125ed986125b8976125b396613501565b61364c565b6125c06136e9565b6125c8613730565b6125d0613777565b6125d8613801565b6125e0613848565b6125e861388f565b6138d6565b6125f5613964565b601055565b601255565b60018060a01b03166bffffffffffffffffffffffff60a01b6013541617601355565b6126429060203d602011612647575b61263a8183611af8565b810190612523565b612582565b503d612630565b634e81208360e01b5f5260045ffd5b631e8b6b6f60e21b5f5260045ffd5b6358f33ed360e11b5f5260045ffd5b6013546040516370a0823160e01b815230600482015290602090829060249082906001600160a01b03165afa908115610aff575f916126b8575090565b61052e915060203d6020116126475761263a8183611af8565b6126fb817fbf233dd2aafeb4d50879c4aa5c81e96d92f6e6945c906a58f9f2d1c1631b4b266132da565b156127035750565b63e2517d3f60e01b5f9081526001600160a01b03919091166004527fbf233dd2aafeb4d50879c4aa5c81e96d92f6e6945c906a58f9f2d1c1631b4b26602452604490fd5b612771817fe28434228950b641dbbc0178de89daa359a87c6ee0d8399aeace52a98fe902b96132da565b156127795750565b63e2517d3f60e01b5f9081526001600160a01b03919091166004527fe28434228950b641dbbc0178de89daa359a87c6ee0d8399aeace52a98fe902b9602452604490fd5b6127e7817fb56f7a452f9fa4c6b1640d0352eff0d678b9d7c7618b4f73815657069f341e666132da565b156127ef5750565b63e2517d3f60e01b5f9081526001600160a01b03919091166004527fb56f7a452f9fa4c6b1640d0352eff0d678b9d7c7618b4f73815657069f341e66602452604490fd5b61285d817f47b7a6ef32f924153c4c0c2f871f8856bd114b4903c167827ef0f0694c583e276132da565b156128655750565b63e2517d3f60e01b5f9081526001600160a01b03919091166004527f47b7a6ef32f924153c4c0c2f871f8856bd114b4903c167827ef0f0694c583e27602452604490fd5b90916001600160a01b0390911690308214612996578115611f8b576001600160a01b038316928315611f8b578115612990576040516370a0823160e01b8152306004820152602081602481875afa8015610aff5783915f91612971575b501061296257816129179184613b3c565b7f66687834c8f406fef81052eb9008377ceb4e7305caa93f726591af6e44bcc90461295d6001600160a01b0361294b613ae3565b60405194855216929081906020820190565b0390a4565b637222ae5760e11b5f5260045ffd5b61298a915060203d6020116126475761263a8183611af8565b5f612906565b50505050565b63817fbb3560e01b5f5260045ffd5b9060018201809211610cda57565b91908201809211610cda57565b6001600160a01b0381165f818152600a60205260409020549092916129e481612280565b828103908111610cda57838110612a565750828201809211610cda576001600160a01b03165f908152600a60205260409020557f1bcfa03a03a5a801acedbac92e4c327445cae41571bdd6cf9b6988685c038e866001600160a01b03612a48613ae3565b6040519384521691602090a3565b8390637e5a39b960e01b5f5260045260245260445ffd5b908160209103126104eb575161052e8161061f565b908160209103126104eb575161052e81611d85565b6001600160a01b038116908115611f8b5730821461299657612ab881612280565b908115612c61576040516304d3863d60e21b8152602081600481305afa908115610aff575f91612c42575b5060405163084bb03360e41b81526001600160a01b03838116600483015290959116602086602481845afa958615610aff575f96612c11575b506001600160a01b038281169616869003612bd357604051633f8ed17360e01b81526001600160a01b038416600482015290602090829060249082905afa908115610aff575f91612be2575b5015612bd357612b9f91612b82600160ff195f5416175f55565b612b8d848383612eb7565b612b9a60ff195f54165f55565b614570565b7fa2231b10d9b4e4166c8a827c99f97691b05aa88fb04e009a4e499005b5c50fcc61295d6001600160a01b0361294b613ae3565b630e7bebe360e01b5f5260045ffd5b612c04915060203d602011612c0a575b612bfc8183611af8565b810190612a82565b5f612b68565b503d612bf2565b612c3491965060203d602011612c3b575b612c2c8183611af8565b810190612a6d565b945f612b1c565b503d612c22565b612c5b915060203d602011612c3b57612c2c8183611af8565b5f612ae3565b635e4f582160e11b5f5260045ffd5b91908110156122d25760051b0190565b908060209392818452848401375f828201840152601f01601f1916010190565b6001600160a01b03909116815260406020820181905261052e93910191612c80565b818110612ccd575050565b5f8155600101612cc2565b90601f8211612ce5575050565b61063d915f51602061517a5f395f51905f525f5260205f20906020601f840160051c83019310612d1d575b601f0160051c0190612cc2565b9091508190612d10565b9190601f8111612d3657505050565b61063d925f5260205f20906020601f840160051c83019310612d1d57601f0160051c0190612cc2565b9092916001600160401b038111611af357612d8481612d7e84546122d7565b84612d27565b5f601f8211600114612dc2578190612db39394955f92612db7575b50508160011b915f199060031b1c19161790565b9055565b013590505f80612d9f565b601f19821694612dd5845f5260205f2090565b915f5b878110612e0f575083600195969710612df6575b505050811b019055565b01355f19600384901b60f8161c191690555f8080612dec565b90926020600181928686013581550194019101612dd8565b91602061052e938181520191612c80565b6001600160a01b03165f818152600a6020526040902054909190818110612ea257818103908111610cda575f838152600a60205260409020557f81aa4332c9e93af00ae5fdbed32b01fbc5d01ac7755a05d0962acd19030bd5546001600160a01b03612a48613ae3565b639f6422a960e01b5f5260045260245260445ffd5b6001600160a01b0381168015612ffd576001600160a01b03831615612fea5760ff600b5416610e55575f5460ff16158080612fde575b80612fd6575b61161957612f1e575b509081612f0e848361063d9695614d70565b612f1983838361478f565b614883565b5f526009602052612f3460405f2060ff90541690565b612fc7576001600160a01b0382165f908152600960205260409020612f5b905b5460ff1690565b612fb8576001600160a01b0381165f908152600a60205260409020612f8b905b54612f8583610c2d565b54612273565b83811015612efc5763391434e360e21b5f526001600160a01b03909116600452602452604482905260645ffd5b637f3447d360e01b5f5260045ffd5b633928b55960e01b5f5260045ffd5b506001612ef3565b5060ff60115416612eed565b63ec442f0560e01b5f525f60045260245ffd5b634b637e8f60e11b5f525f60045260245ffd5b613018613ae3565b9060ff60115416156116285780156130e9576001600160a01b0382165f8181526009602052604090205490929060ff16612fc757825f52600a60205261307a60405f2054845f525f51602061519a5f395f51905f5260205260405f2054612273565b8281106130c65750816130b17f4896181ff8f4543cc00db9fe9b6fb7e6f032b7eb772c72ab1ec1b4d2e03b9369936130c193613bca565b6040519081529081906020820190565b0390a2565b63391434e360e21b5f526001600160a01b0390911660045260245260445260645ffd5b6393be1eef60e01b5f5260045ffd5b6001600160a01b03811691908215612fea5760ff600b5416610e555761311e8282614989565b5f5160206151da5f395f51905f5254828101809111610cda576131799183915f5160206151da5f395f51905f525561315581610c2d565b828154019055845f5f5160206151fa5f395f51905f526020604051868152a3614b54565b7fe06a64fbf06d35586ace9c9da7a5c34ca3f2c0fd07e34e80be6d0341357795a86131ad6001600160a01b0361294b613ae3565b0390a3565b65ffffffffffff81116131ca5765ffffffffffff1690565b6306dfcc6560e41b5f52603060045260245260445ffd5b908154905f82916005841161321f575b6131fc935084613e8c565b806132075750505f90565b61321090612265565b905f5260205f20015460301c90565b919261322a81613d2e565b8103908111610cda576131fc93855f5265ffffffffffff8260205f2001541665ffffffffffff8516105f146132605750916131f1565b92915061326c906129a5565b906131f1565b60075490600160401b821015611af357600182016007556007548210156122d25760075f527fa66cc928b5edb82af9bd49922954155ab7b0942694bea4ce44661d9a8736c68890910180546001600160a01b0319166001600160a01b03909216919091179055565b600854604051632474521560e21b815260048101929092526001600160a01b039283166024830152909160209183916044918391165afa908115610aff575f91613322575090565b61052e915060203d602011612c0a57612bfc8183611af8565b6133458282614390565b7f92eda58db715be76693c72f2b6c1ffec1f5d9fa127f24d7d26acaefa731a52fa60206001600160a01b03613378613ae3565b6040519586526001600160a01b0390941694931692a3565b919061339b83610c2d565b548281106134da576001600160a01b0384165f908152600a6020526040902054908161344b575b50506133d4600160ff195f5416175f55565b6133df828285614275565b6133ec60ff195f54165f55565b7f47cea260e2dfb95ed2ab59ad44fe2ac9cddb432afb828d2a1475936b5a2b829a6134436001600160a01b03613420613ae3565b6040519586526001600160a01b0394851696909416949316929081906020820190565b0390a4600190565b8161345591612273565b808411156133c25761346a6134719185612273565b8092612273565b6001600160a01b0385165f908152600a60205260409020556001600160a01b03613499613ae3565b6040519283526001600160a01b038616929116907f81aa4332c9e93af00ae5fdbed32b01fbc5d01ac7755a05d0962acd19030bd55490602090a35f806133c2565b63391434e360e21b5f526001600160a01b039093166004525060249190915260445260645ffd5b96959493929190613510613ef0565b613518613ef0565b613520613ef0565b87516001600160401b038111611af3576135508161354b5f51602061517a5f395f51905f52546122d7565b612cd8565b6020601f82116001146135aa578161359a93926135869261063d9b9c5f9261359f5750508160011b915f199060031b1c19161790565b5f51602061517a5f395f51905f525561445d565b613fcf565b015190505f80612d9f565b5f51602061517a5f395f51905f525f52601f198216997f2ae08a8e29253f69ac5d979a101956ab8f8d9d7ded63fa7a83b16fc47648eab09a5f5b81811061363457509a600192849261359a969561063d9d9e1061361c575b505050811b015f51602061517a5f395f51905f525561445d565b01515f1960f88460031b161c191690555f8080613602565b838301518d556001909c019b602093840193016135e4565b613654613ef0565b6001600160a01b03168015611f8b57600880546001600160a01b03191682179055631b068a0f60e21b5f52600160208190527f5b1d71439ee90610fff1d6a60b00dc7a4ee0ded11d07e51974b1acc64b9be08e805460ff191690911790556001600160a01b036136c2613ae3565b167f2ddabd343e5cc7a71d4628054d3292636fc1bf21d5faef22c2dcad9f96554f175f80a3565b6136f1613ef0565b6325e5ad7960e01b5f52600160208190527fa95a251725c23bd0099784928ce43cd88abd472824bf8e53c6e97652f71612cb805460ff19169091179055565b613738613ef0565b63d7ae59db60e01b5f52600160208190527fe92f7df0563d5f295cbc68f7426d3d1f988e5baa1988db154d4e66d8dc096e59805460ff19169091179055565b61377f613ef0565b631cf1473b60e31b5f52600160208190527f03a9083f0ea60978e486a8c7f5a6a055893f5daf93e78b76320e1edada64572f805460ff199081168317909155600b805490911690911790556001600160a01b036137da613ae3565b167f62e78cea01bee320cd4e420270b5ea74000d11b0c9f74754ebdbfc544b05a2585f80a2565b613809613ef0565b63217aeeed60e21b5f52600160208190527fe1b697cd820d4a782635f97707720bb92ec26a81195c9f1f506c4d1faada6fc0805460ff19169091179055565b613850613ef0565b63f4433ab760e01b5f52600160208190527f76f72b95771776e0b57036686cb3f96cb76379c6ff48e342001021707dea57f8805460ff19169091179055565b613897613ef0565b636b7cf4d760e11b5f52600160208190527fefd40211d495f15744149c202ee1f63567e4237ef6a874e28676a9793b985209805460ff19169091179055565b6138de613ef0565b801561107757600f81905563722a19dd60e01b5f52600160208181527f7c989ebb13eda73a594ca949bf0e0d757e5be8c9edf335958096b4ca187d7a3e805460ff19169092179091557f1c9182333abe71fddddd188f90cabb1c34182de0b0ac74c87944a196460a2d6c906001600160a01b03613959613ae3565b1692604051908152a2565b61396c613ef0565b613974613ef0565b60015f51602061521a5f395f51905f5255565b6001600160a01b039081165f818152600960205260409020805460ff191693151560ff8116949094179055906139bb613ae3565b165f51602061523a5f395f51905f525f80a4565b6007548015613a22575f198101906007548210156122d25760075f8190527fa66cc928b5edb82af9bd49922954155ab7b0942694bea4ce44661d9a8736c68790910180546001600160a01b031916905555565b634e487b7160e01b5f52603160045260245ffd5b613a4081546122d7565b9081613a4a575050565b81601f5f9311600114613a5b575055565b81835260208320613a7791601f0160051c810190600101612cc2565b808252602082209081548360011b9084198560031b1c191617905555565b8115613a9f570490565b634e487b7160e01b5f52601260045260245ffd5b60125490818102918183041490151715610cda5760ff6002541690604d8211610cda5761052e91600a0a90613a95565b337f00000000000000000000000000000000000000000000000000000000000000006001600160a01b03161480613b31575b15613b2d576013193601368111610cda573560601c90565b3390565b506014361015613b15565b60405163a9059cbb60e01b60208281019182526001600160a01b03909416602483015260448083019590955293815290925f91613b7a606482611af8565b519082855af115612532575f513d613bc157506001600160a01b0381163b155b613ba15750565b635274afe760e01b5f9081526001600160a01b0391909116600452602490fd5b60011415613b9a565b9060025f51602061521a5f395f51905f525414613d1f5760025f51602061521a5f395f51905f52556001600160a01b0382165f8181525f51602061519a5f395f51905f526020526040902054909290808311613d085750613c2a82613ab3565b90613c3361267b565b828110613cf1575090613cb98183613c8686613c807f8263c61290285bc15c0ad432033ebd7654fb1d0f9711960e66c4e1f5c92820519760018060a01b03165f52601460205260405f2090565b546129b3565b6001600160a01b0382165f90815260146020526040902055613ca88682614390565b6013546001600160a01b0316613b3c565b6001600160a01b03613cc9613ae3565b6040805195865260208601939093521692a361063d60015f51602061521a5f395f51905f5255565b630c9f8b8560e01b5f52600452602482905260445ffd5b631d2bbe1b60e31b5f52600452602482905260445ffd5b633ee5aeb560e01b5f5260045ffd5b600181111561052e57806001600160801b821015613e4f575b613df5613deb613de1613dd7613dcd613dc3613db2613dfc9760048a600160401b613e019c1015613e42575b640100000000811015613e35575b62010000811015613e28575b610100811015613e1b575b6010811015613e0e575b1015613e06575b60030260011c90565b613dbc818b613a95565b0160011c90565b613dbc818a613a95565b613dbc8189613a95565b613dbc8188613a95565b613dbc8187613a95565b613dbc8186613a95565b8093613a95565b821190565b900390565b60011b613da9565b60041c9160021b91613da2565b60081c9160041b91613d98565b60101c9160081b91613d8d565b60201c9160101b91613d81565b60401c9160201b91613d73565b5050613e01613dfc613df5613deb613de1613dd7613dcd613dc3613db2613e768a60801c90565b9850600160401b9750613d479650505050505050565b91905b838210613e9c5750505090565b9091928083169080841860011c8201809211610cda57845f5265ffffffffffff8260205f2001541665ffffffffffff8416105f14613ede5750925b9190613e8f565b939250613eea906129a5565b91613ed7565b60ff5f51602061525a5f395f51905f525460401c1615613f0c57565b631afcd79f60e31b5f5260045ffd5b91909182516001600160401b038111611af357613f3c81612d7e84546122d7565b6020601f8211600114613f6b578190612db39394955f9261359f5750508160011b915f199060031b1c19161790565b601f19821690613f7e845f5260205f2090565b915f5b818110613fb757509583600195969710613f9f57505050811b019055565b01515f1960f88460031b161c191690555f8080612dec565b9192602060018192868b015181550194019201613f81565b93926001600160a01b0316918215611f8b576001600160a01b0316908115611f8b57601260ff86161161425f576140108560ff1660ff196002541617600255565b60028054610100600160a81b031916600883901b610100600160a81b0316179055600380546001600160a01b0319166001600160a01b038416179055600480546001600160a01b0319166001600160a01b03851617905560045461407c906001600160a01b0316610a2a565b803b156104eb575f604051809262fdecdb60e01b825281806140a18a6004830161194e565b03915afa8015610aff5761424b575b506140b9613ae3565b84516001600160a01b0390911694905f5b81811061416657505050906131ad7fc5e2e9318498e1a253726df4112345358bfcbadd5aab57c99d8c7f590ab0d32a9392604051938493877f95d78da2896224ccde884cbed0572281fdb51e155034d0012fc6593806df69765f80a3867f4cd146021d85ad5de55052ad32d44b8b6e496b3436cf6acdfcb5e82b7b3bccb35f80a360ff90961682526001600160a01b0395909516946020820190565b61418161417382856123ad565b51516001600160a01b031690565b602061418d83866123ad565b5101516001600160a01b0382165f908152600560205260409020909190546142305790887f4df30bfa3ec06fecb039a1a7f419067e9ae43dae6bccbbe724bf4dedcca740b3614227846141e260019796613272565b6007546001600160a01b0382165f908152600560209081526040808320939093556006905220614213908690613f1b565b604051918291888060a01b0316958261051d565b0390a3016140ca565b630da3f63f60e41b5f526001600160a01b031660045260245ffd5b80610af35f61425993611af8565b5f6140b0565b63ca95039160e01b5f5260ff851660045260245ffd5b60ff600b5416610e55576001600160a01b0381168061429f5750908291612f0e61063d9483614989565b6001600160a01b0383166142c3575090816142be8461063d9594614c19565b612f0e565b5f5460ff16158080614384575b8061437c575b611619576142f1575b5090816142be848361063d9695614d70565b5f52600960205261430760405f2060ff90541690565b612fc7576001600160a01b0382165f90815260096020526040902061432b90612f54565b612fb8576001600160a01b0381165f908152600a6020526040902061434f90612f7b565b838110156142df5763391434e360e21b5f526001600160a01b03909116600452602452604482905260645ffd5b5060016142d6565b5060ff601154166142d0565b6001600160a01b03811691908215612ffd5760ff600b5416610e55576143b68282614c19565b82614431575f5160206151da5f395f51905f5254828101809111610cda5761063d936143ee5f925f5160206151da5f395f51905f5255565b614413845f5160206151da5f395f51905f5254035f5160206151da5f395f51905f5255565b6040518481525f5160206151fa5f395f51905f5290602090a3614860565b61443d81949394610c2d565b548281106130c65761063d9394835f920361445784610c2d565b556143ee565b9081516001600160401b038111611af35761449c816144895f5160206151ba5f395f51905f52546122d7565b5f5160206151ba5f395f51905f52612d27565b602092601f82116001146144dc576144cb929382915f9261359f5750508160011b915f199060031b1c19161790565b5f5160206151ba5f395f51905f5255565b5f5160206151ba5f395f51905f525f52601f198216937f46a2803e59a4de4e7a4c574b1243f25977ac4c77d5a1a4a609b5394cebb4a2aa915f5b8681106145585750836001959610614540575b505050811b015f5160206151ba5f395f51905f5255565b01515f1960f88460031b161c191690555f8080614529565b91926020600181928685015181550194019201614516565b6001600160a01b0381165f908152600a6020526040902054806146d5575b506001600160a01b0381165f9081526009602052604090206145af90612f54565b1561465a576001600160a01b0382165f90815260096020526040812090926001916145e190805460ff19166001179055565b6001600160a01b0383165f908152600960205260409020614607905b805460ff19169055565b818060a01b03614615613ae3565b1690828060a01b0316905f51602061523a5f395f51905f528580a461463b610a2a613ae3565b6001600160a01b03909116905f51602061523a5f395f51905f528380a4565b506001600160a01b0381165f90815260096020526040902061467b90612f54565b6146825750565b6001600160a01b0381165f9081526009602052604081209091906146a5906145fd565b6001600160a01b036146b5613ae3565b6001600160a01b0390921691165f51602061523a5f395f51905f528380a4565b6001600160a01b036146e5613ae3565b6040518381526001600160a01b0385169291909116907f81aa4332c9e93af00ae5fdbed32b01fbc5d01ac7755a05d0962acd19030bd55490602090a36001600160a01b038281165f908152600a60205260408082208290558583168252902082905561474f613ae3565b6040519283526001600160a01b038516929116907f1bcfa03a03a5a801acedbac92e4c327445cae41571bdd6cf9b6988685c038e8690602090a35f61458e565b90916001600160a01b038216918261482a57506131ad816147e06147cf5f5160206151fa5f395f51905f52945f5160206151da5f395f51905f52546129b3565b5f5160206151da5f395f51905f5255565b6001600160a01b038516948561481657506130b1815f5160206151da5f395f51905f5254035f5160206151da5f395f51905f5255565b61481f90610c2d565b8181540190556130b1565b61483381610c2d565b548281106130c657916131ad9161485a825f5160206151fa5f395f51905f52950391610c2d565b556147e0565b906001600160a01b03821661487a5761063d91505f614b54565b61063d91614a57565b91906001600160a01b0383168061489f575061063d9250614b54565b6001600160a01b03821690816148bb5750505061063d91614a57565b6001600160a01b036148cb613ae3565b167f0d8423425ea24ce801d57e1af368c7ca24b3a31b719c058675916f436635eea26040518061490088829190602083019252565b0390a4600454614918906001600160a01b0316610a2a565b92833b156104eb57604051631f2d7a6560e11b81523060048201526001600160a01b0382811660248301528316604482015260648101849052935f908590608490829084905af1938415610aff5761063d94614975575b50614cbd565b80610af35f61498393611af8565b5f61496f565b905f5160206151da5f395f51905f5254818101809111610cda57600f5490818111614a42575050600e546001600160a01b0316806149cc575b5061063d91614e2b565b6004906020906149e4906001600160a01b0316610a2a565b6040516305cbde4360e11b815292839182905afa908115610aff575f91614a23575b50421015614a14575f6149c2565b6336a891ab60e01b5f5260045ffd5b614a3c915060203d6020116126475761263a8183611af8565b5f614a06565b630f2cfd7360e11b5f5260045260245260445ffd5b6004545f92906001600160a01b0316803b156104eb5760405163292d480360e01b81523060048201526001600160a01b038416602482015260448101839052905f908290606490829084905af18015610aff57614b29575b505f51602061515a5f395f51905f52916040614acd614af193614f0a565b91614ad783614f3b565b50506001600160a01b0316808652600c6020529420614f76565b9091906001600160a01b03614b04613ae3565b604080516001600160d01b0396871681529390951660208401521692819081016131ad565b614af191935091614b485f5f51602061515a5f395f51905f5294611af8565b5f939092909150614aaf565b6004545f92906001600160a01b0316803b156104eb57604051637133bb3160e11b81523060048201526001600160a01b038416602482015260448101839052905f908290606490829084905af18015610aff57614bee575b505f51602061515a5f395f51905f52916040614bca614af193614f0a565b91614bd483614fad565b50506001600160a01b0316808652600c6020529420614fdb565b614af191935091614c0d5f5f51602061515a5f395f51905f5294611af8565b5f939092909150614bac565b9060018060a01b038216805f525f51602061519a5f395f51905f5260205260405f20549060ff5f541615614c9d575b506001600160a01b0383165f908152600a602052604090205480614c6c5750505050565b8103908111610cda57808211614c83575b80612990565b8103908111610cda57614c9591612e38565b5f8080614c7d565b82821015614c485763391434e360e21b5f5260045260245260445260645ffd5b91614d4d5f51602061515a5f395f51905f5292614cda8493614f0a565b94614ce3613ae3565b9060018060a01b031690815f52600c602052614d028760405f20614f76565b604080516001600160d01b0393841681529190921660208201526001600160a01b0392909216968792909190a36001600160a01b03165f818152600c60205260409020909490614fdb565b604080516001600160d01b039384168152929091166020830152819081016131ad565b5f5490929060ff1615614d8257505050565b600454614de3936020939091614da0906001600160a01b0316610a2a565b6040516336b1527f60e11b81523060048201526001600160a01b039384166024820152929091166044830152606482019290925292839190829081906084820190565b03915afa908115610aff575f91614e0c575b5015614dfd57565b6310a151f560e01b5f5260045ffd5b614e25915060203d602011612c0a57612bfc8183611af8565b5f614df5565b6001600160a01b0381165f9081526009602052604090205460ff16612fb857614e5c614e585f5460ff1690565b1590565b614e64575050565b600454614ec2926020929091614e82906001600160a01b0316610a2a565b6040516336b1527f60e11b81523060048201525f60248201526001600160a01b039092166044830152606482019290925292839190829081906084820190565b03915afa908115610aff575f91614eeb575b5015614edc57565b639b3b575b60e01b5f5260045ffd5b614f04915060203d602011612c0a57612bfc8183611af8565b5f614ed4565b6001600160d01b038111614f24576001600160d01b031690565b6306dfcc6560e41b5f5260d060045260245260445ffd5b90614f46600d61500c565b6001600160d01b0392831683821603928311610cda57614f7083614f69426131b2565b600d615083565b50509190565b9190614f818361500c565b6001600160d01b03918216828216039390918411610cda5783614f7091614fa7426131b2565b90615083565b90614fb8600d61500c565b6001600160d01b0392831681841601928311610cda57614f7083614f69426131b2565b9190614fe68361500c565b6001600160d01b03918216818316019390918411610cda5783614f7091614fa7426131b2565b8054908161501a5750505f90565b815f19810111610cda575f525f199060205f2001015460301c90565b805490600160401b821015611af357600182018082558210156122d2575f9081526020902001815160209092015160301b65ffffffffffff191665ffffffffffff92909216919091179055565b8054929392801561512f5761509a6150a591612265565b825f5260205f200190565b8054603081901c9365ffffffffffff91821692918116808411615120578793036150ec57506150e892509065ffffffffffff82549181199060301b169116179055565b9190565b9150506150e89161510c6150fe611b19565b65ffffffffffff9093168352565b6001600160d01b0386166020830152615036565b632520601d60e01b5f5260045ffd5b5090615154916151406150fe611b19565b6001600160d01b0385166020830152615036565b5f919056fe945151deb15d9798476ee613ad93afce90e31486b37e79ac6b713cdda797ffe452c63247e1f47db19d5ce0460030c497f067ca4cebf71ba98eeadabe20bace0352c63247e1f47db19d5ce0460030c497f067ca4cebf71ba98eeadabe20bace0052c63247e1f47db19d5ce0460030c497f067ca4cebf71ba98eeadabe20bace0452c63247e1f47db19d5ce0460030c497f067ca4cebf71ba98eeadabe20bace02ddf252ad1be2c89b69c2b068fc378daa952ba7f163c4a11628f55a4df523b3ef9b779b17422d0df92223018b32b4d1fa46e071723d6817e2486d003becc55f0017ec2643977f0865dd45350e9efdcdfead258c9220974e67d1a37ca144772293f0c57e16840df040f15088dc2f81fe391c3923bec73e23a9662efc9c229c6a00a164736f6c634300081c000af0c57e16840df040f15088dc2f81fe391c3923bec73e23a9662efc9c229c6a00",
    "linkReferences": {}
  },
  "methodIdentifiers": {
    "CLOCK_MODE()": "4bf5d7e9",
    "accessManager()": "fdcb6068",
    "addComplianceModule(address,bytes)": "77d2f8d9",
    "allowance(address,address)": "dd62ed3e",
    "approve(address,uint256)": "095ea7b3",
    "balanceOf(address)": "70a08231",
    "balanceOfAt(address,uint256)": "4ee2cd7e",
    "batchBurn(address[],uint256[])": "4a6cc677",
    "batchForcedTransfer(address[],address[],uint256[])": "42a47abc",
    "batchFreezePartialTokens(address[],uint256[])": "fc7e5fa8",
    "batchMint(address[],uint256[])": "68573107",
    "batchSetAddressFrozen(address[],bool[])": "1a7af379",
    "batchTransfer(address[],uint256[])": "88d695b2",
    "batchUnfreezePartialTokens(address[],uint256[])": "4710362d",
    "bondRedeemed(address)": "28d99f31",
    "burn(address,uint256)": "9dc29fac",
    "cap()": "355274ea",
    "clock()": "91ddadf4",
    "compliance()": "6290865d",
    "complianceModules()": "a98ac17a",
    "decimals()": "313ce567",
    "faceValue()": "44fd9caa",
    "forcedRecoverTokens(address,address)": "62b9333e",
    "forcedTransfer(address,address,uint256)": "9fc1d0e7",
    "freezePartialTokens(address,uint256)": "125c4a33",
    "getFrozenTokens(address)": "158b1a57",
    "hasRole(bytes32,address)": "91d14854",
    "identityRegistry()": "134e18f4",
    "initialize(string,string,uint8,address,uint256,uint256,uint256,address,(address,bytes)[],address,address,address)": "ab1fbaa5",
    "isFrozen(address)": "e5839836",
    "isMatured()": "7f2b6a0d",
    "isTrustedForwarder(address)": "572b6c05",
    "mature()": "87b65207",
    "maturityDate()": "d59624b4",
    "mint(address,uint256)": "40c10f19",
    "missingUnderlyingAmount()": "d819dccf",
    "name()": "06fdde03",
    "onchainID()": "aba63705",
    "pause()": "8456cb59",
    "paused()": "5c975abb",
    "recoverERC20(address,address,uint256)": "1171bda9",
    "recoverTokens(address)": "16114acd",
    "redeem(uint256)": "db006a75",
    "redeemAll()": "2f4350c2",
    "removeComplianceModule(address)": "c76f3d9b",
    "setAddressFrozen(address,bool)": "c69c09cf",
    "setCap(uint256)": "47786d37",
    "setCompliance(address)": "f8981789",
    "setIdentityRegistry(address)": "cbf3f861",
    "setOnchainID(address)": "3d1ddc5b",
    "setParametersForComplianceModule(address,bytes)": "1ef5205f",
    "setYieldSchedule(address)": "d5274738",
    "supportsInterface(bytes4)": "01ffc9a7",
    "symbol()": "95d89b41",
    "totalSupply()": "18160ddd",
    "totalSupplyAt(uint256)": "981b24d0",
    "totalUnderlyingNeeded()": "d3d71a17",
    "transfer(address,uint256)": "a9059cbb",
    "transferFrom(address,address,uint256)": "23b872dd",
    "trustedForwarder()": "7da0a877",
    "underlyingAsset()": "7158da7c",
    "underlyingAssetBalance()": "c14e1a18",
    "unfreezePartialTokens(address,uint256)": "1fe56f7d",
    "unpause()": "3f4ba83a",
    "withdrawableUnderlyingAmount()": "2f0004f0",
    "yieldBasisPerUnit(address)": "81e5bc36",
    "yieldSchedule()": "a7fc9e3f",
    "yieldToken()": "76d5de85"
  },
  "userdoc": {
    "version": 1,
    "kind": "user",
    "methods": {
      "CLOCK_MODE()": {
        "notice": "Provides a EIP-5267 EIP-2771-compatible machine-readable description of the clock mechanism."
      },
      "accessManager()": {
        "notice": "Returns the address of the current `SMARTTokenAccessManager`."
      },
      "addComplianceModule(address,bytes)": {
        "notice": "Adds a new compliance module contract to this token's compliance framework and sets its initial configuration parameters."
      },
      "balanceOfAt(address,uint256)": {
        "notice": "Retrieves the token balance of `account` at a specific past `timepoint`."
      },
      "batchBurn(address[],uint256[])": {
        "notice": "Burns (destroys) tokens from multiple user addresses in a single transaction."
      },
      "batchForcedTransfer(address[],address[],uint256[])": {
        "notice": "Forcefully transfers tokens for multiple address pairs in a batch."
      },
      "batchFreezePartialTokens(address[],uint256[])": {
        "notice": "Freezes specific amounts of tokens for multiple addresses in a batch."
      },
      "batchMint(address[],uint256[])": {
        "notice": "Mints tokens to multiple recipient addresses in a single batch transaction."
      },
      "batchSetAddressFrozen(address[],bool[])": {
        "notice": "Freezes or unfreezes multiple addresses in a batch operation."
      },
      "batchTransfer(address[],uint256[])": {
        "notice": "Transfers tokens to multiple recipients in a batch from the effective sender."
      },
      "batchUnfreezePartialTokens(address[],uint256[])": {
        "notice": "Unfreezes specific amounts of tokens for multiple addresses in a batch."
      },
      "bondRedeemed(address)": {
        "notice": "Tracks how many bonds each holder has redeemed"
      },
      "burn(address,uint256)": {
        "notice": "Burns (destroys) a specific amount of tokens from a given user's address."
      },
      "cap()": {
        "notice": "Returns the maximum allowed total supply for this token (the \"cap\")."
      },
      "clock()": {
        "notice": "Returns the current timepoint value used for creating new checkpoints."
      },
      "compliance()": {
        "notice": "Returns the `ISMARTCompliance` contract instance used by this token."
      },
      "complianceModules()": {
        "notice": "Returns a list of all active compliance modules and their current parameters."
      },
      "decimals()": {
        "notice": "Returns the number of decimals for the token."
      },
      "faceValue()": {
        "notice": "Returns the face value of the bond"
      },
      "forcedRecoverTokens(address,address)": {
        "notice": "Forcefully recovers tokens from a lost or compromised wallet to a new wallet belonging to the same         verified identity."
      },
      "forcedTransfer(address,address,uint256)": {
        "notice": "Forcefully transfers tokens from one address to another, bypassing standard transfer restrictions."
      },
      "freezePartialTokens(address,uint256)": {
        "notice": "Freezes a specific amount of tokens for a given address."
      },
      "getFrozenTokens(address)": {
        "notice": "Gets the amount of tokens specifically (partially) frozen for an address."
      },
      "hasRole(bytes32,address)": {
        "notice": "Checks if a given account has a specific role, as defined by the `_accessManager`."
      },
      "identityRegistry()": {
        "notice": "Returns the `ISMARTIdentityRegistry` contract instance used by this token."
      },
      "initialize(string,string,uint8,address,uint256,uint256,uint256,address,(address,bytes)[],address,address,address)": {
        "notice": "Initializes the SMART token contract and its extensions."
      },
      "isFrozen(address)": {
        "notice": "Checks if an address is currently fully frozen."
      },
      "isMatured()": {
        "notice": "Tracks whether the bond has matured"
      },
      "mature()": {
        "notice": "Closes off the bond at maturity"
      },
      "maturityDate()": {
        "notice": "Returns the timestamp when the bond matures"
      },
      "mint(address,uint256)": {
        "notice": "Creates (mints) a specified `_amount` of new tokens and assigns them to the `_to` address."
      },
      "missingUnderlyingAmount()": {
        "notice": "Returns the amount of underlying assets missing for all potential redemptions"
      },
      "onchainID()": {
        "notice": "Returns the on-chain ID address associated with this token."
      },
      "pause()": {
        "notice": "Pauses the contract, which typically prevents certain actions like token transfers."
      },
      "paused()": {
        "notice": "Returns `true` if the contract is currently paused, and `false` otherwise."
      },
      "recoverERC20(address,address,uint256)": {
        "notice": "Allows an authorized account to recover ERC20 tokens that were mistakenly sent to this SMART token contract's address."
      },
      "recoverTokens(address)": {
        "notice": "Recovers SMART tokens from a lost wallet to the caller's address."
      },
      "redeem(uint256)": {
        "notice": "Allows the caller (the token holder) to redeem a specific amount of their own tokens."
      },
      "redeemAll()": {
        "notice": "Allows the caller (the token holder) to redeem all of their own tokens."
      },
      "removeComplianceModule(address)": {
        "notice": "Removes an active compliance module from this token's compliance framework."
      },
      "setAddressFrozen(address,bool)": {
        "notice": "Freezes or unfreezes an entire address, preventing or allowing standard token operations."
      },
      "setCap(uint256)": {
        "notice": "Sets or updates the maximum total supply (cap) for the token."
      },
      "setCompliance(address)": {
        "notice": "Sets or updates the address of the main `ISMARTCompliance` contract used by this token."
      },
      "setIdentityRegistry(address)": {
        "notice": "Sets or updates the address of the `ISMARTIdentityRegistry` contract used by this token."
      },
      "setOnchainID(address)": {
        "notice": "Sets or updates the optional on-chain identifier (e.g., an `IIdentity` contract) associated with the token contract itself."
      },
      "setParametersForComplianceModule(address,bytes)": {
        "notice": "Sets or updates the configuration parameters for a specific, already added compliance module."
      },
      "setYieldSchedule(address)": {
        "notice": "Sets or updates the yield schedule contract for this token."
      },
      "supportsInterface(bytes4)": {
        "notice": "Standard ERC165 function to check interface support in an upgradeable context."
      },
      "totalSupplyAt(uint256)": {
        "notice": "Retrieves the total token supply at a specific past `timepoint`."
      },
      "totalUnderlyingNeeded()": {
        "notice": "Returns the total amount of underlying assets needed for all potential redemptions"
      },
      "underlyingAsset()": {
        "notice": "Returns the underlying asset contract"
      },
      "underlyingAssetBalance()": {
        "notice": "Returns the amount of underlying assets held by the contract"
      },
      "unfreezePartialTokens(address,uint256)": {
        "notice": "Unfreezes a specific amount of previously partially frozen tokens for an address."
      },
      "unpause()": {
        "notice": "Unpauses the contract, resuming normal operations (e.g., allowing token transfers again)."
      },
      "withdrawableUnderlyingAmount()": {
        "notice": "Returns the amount of excess underlying assets that can be withdrawn"
      },
      "yieldSchedule()": {
        "notice": "The address of the smart contract that defines the yield schedule for this token."
      },
      "yieldToken()": {
        "notice": "Returns the ERC20 token contract that is used for paying out the yield."
      }
    },
    "events": {
      "AccessManagerSet(address,address)": {
        "notice": "Emitted when the address of the access manager contract is successfully changed or set."
      },
      "AddressFrozen(address,address,bool)": {
        "notice": "Emitted when an address's full frozen status (i.e., the entire address is frozen or unfrozen)         is changed by an authorized custodian."
      },
      "BondMatured(uint256)": {
        "notice": "Emitted when the bond reaches maturity and is closed"
      },
      "BondRedeemed(address,address,uint256,uint256)": {
        "notice": "Emitted when a bond is redeemed for underlying assets"
      },
      "BurnCompleted(address,address,uint256)": {
        "notice": "Emitted when a token burn operation has been successfully completed."
      },
      "CapSet(address,uint256)": {
        "notice": "Emitted when the cap is set or changed."
      },
      "CheckpointUpdated(address,address,uint256,uint256)": {
        "notice": "Emitted when a new checkpoint is written for an account's balance or for the total supply         due to a token operation (mint, burn, transfer)."
      },
      "ComplianceAdded(address,address)": {
        "notice": "Emitted when the address of the main `ISMARTCompliance` contract, used by this token, is successfully updated."
      },
      "ComplianceModuleAdded(address,address,bytes)": {
        "notice": "Emitted when a new compliance module is successfully added to the token's compliance framework."
      },
      "ComplianceModuleRemoved(address,address)": {
        "notice": "Emitted when an existing compliance module is successfully removed from the token's compliance framework."
      },
      "ERC20TokenRecovered(address,address,address,uint256)": {
        "notice": "Emitted when mistakenly sent ERC20 tokens are recovered from the contract."
      },
      "ForcedTransfer(address,address,address,uint256)": {
        "notice": "Emitted when a forced transfer of tokens is executed by a custodian."
      },
      "IdentityRegistryAdded(address,address)": {
        "notice": "Emitted when the address of the `ISMARTIdentityRegistry` contract, used by this token, is successfully updated."
      },
      "MintCompleted(address,address,uint256)": {
        "notice": "Emitted after a token minting operation has successfully completed, passing all relevant checks."
      },
      "ModuleParametersUpdated(address,address,bytes)": {
        "notice": "Emitted when the configuration parameters for an existing, active compliance module are successfully updated."
      },
      "Paused(address)": {
        "notice": "Emitted when the contract transitions to a paused state."
      },
      "RecoverySuccess(address,address,address,address)": {
        "notice": "Emitted when assets are successfully recovered from a lost or compromised wallet to a new wallet         belonging to the same verified identity."
      },
      "Redeemed(address,uint256)": {
        "notice": "Emitted when tokens are successfully redeemed (burned by the token holder)."
      },
      "TokensFrozen(address,address,uint256)": {
        "notice": "Emitted when a specific amount of tokens is partially frozen for an address."
      },
      "TokensRecovered(address,address,address,uint256)": {
        "notice": "Emitted when tokens are recovered from a lost wallet to the caller's address."
      },
      "TokensUnfrozen(address,address,uint256)": {
        "notice": "Emitted when a specific amount of previously partially frozen tokens is unfrozen for an address."
      },
      "TransferCompleted(address,address,address,uint256)": {
        "notice": "Emitted after a token transfer operation (e.g., via `transfer` or `transferFrom`) has successfully completed,         passing all identity and compliance checks."
      },
      "Unpaused(address)": {
        "notice": "Emitted when the contract transitions out of a paused state (i.e., is unpaused)."
      },
      "UpdatedTokenInformation(address,uint8,address)": {
        "notice": "Emitted when fundamental information about the token, such as its decimals or on-chain ID, is updated."
      },
      "YieldScheduleSet(address,address)": {
        "notice": "Emitted when a new yield schedule is successfully set or updated for a token."
      }
    },
    "errors": {
      "AccessControlUnauthorizedAccount(address,bytes32)": [
        {
          "notice": "This error is functionally identical to `AccessControlUnauthorizedAccount`         defined in OpenZeppelin's `access/AccessControl.sol` contract.         Re-defining it here ensures consistency within the SMART framework and can         help in scenarios where specific error catching is needed for this module."
        }
      ],
      "BondAlreadyMatured()": [
        {
          "notice": "Error an action is attempted on a bond that has already matured."
        }
      ],
      "BondInvalidMaturityDate()": [
        {
          "notice": "Error an invalid maturity date was provided during initialization (e.g., in the past)."
        }
      ],
      "BondNotYetMatured()": [
        {
          "notice": "Error an action is attempted that requires the bond to be matured, but it is not."
        }
      ],
      "CannotRecoverSelf()": [
        {
          "notice": "Error indicating an attempt to recover the token contract's own tokens."
        }
      ],
      "DuplicateModule(address)": [
        {
          "notice": "Error indicating that a compliance module is being added but already exists."
        }
      ],
      "ExceededCap(uint256,uint256)": [
        {
          "notice": "Error: Minting would exceed the maximum token supply cap."
        }
      ],
      "ExpectedPause()": [
        {
          "notice": "Error reverted when an action is attempted that requires the contract to be in a paused state,         but the contract is currently not paused (i.e., it is unpaused)."
        }
      ],
      "FreezeAmountExceedsAvailableBalance(uint256,uint256)": [
        {
          "notice": "Error indicating that the amount requested to be frozen exceeds the user's available (unfrozen) balance."
        }
      ],
      "FutureLookup(uint256,uint48)": [
        {
          "notice": "Error reverted when a historical data lookup (e.g., `balanceOfAt`, `totalSupplyAt`) is attempted         for a `timepoint` that is in the future or is the current `timepoint`."
        }
      ],
      "InsufficientFrozenTokens(uint256,uint256)": [
        {
          "notice": "Error indicating that an attempt to unfreeze or use frozen tokens failed because the         amount requested exceeds the currently frozen token balance for the address."
        }
      ],
      "InsufficientRedeemableBalance(uint256,uint256)": [
        {
          "notice": "Error the caller does not have enough redeemable bond tokens for the operation."
        }
      ],
      "InsufficientTokenBalance()": [
        {
          "notice": "Error indicating that the token balance is insufficient for an operation."
        }
      ],
      "InsufficientUnderlyingBalance(uint256,uint256)": [
        {
          "notice": "Error the contract does not hold enough underlying asset balance for an operation."
        }
      ],
      "InvalidCap(uint256)": [
        {
          "notice": "Error: An invalid cap value was provided."
        }
      ],
      "InvalidDecimals(uint8)": [
        {
          "notice": "Error indicating that the provided decimals value is invalid."
        }
      ],
      "InvalidFaceValue()": [
        {
          "notice": "Error an invalid face value was provided (e.g., zero)."
        }
      ],
      "InvalidLostWallet()": [
        {
          "notice": "Error indicating that the provided lost wallet is not marked as lost."
        }
      ],
      "InvalidRedemptionAmount()": [
        {
          "notice": "Error an invalid redemption amount was specified."
        }
      ],
      "InvalidUnderlyingAsset()": [
        {
          "notice": "Error an invalid underlying asset address was provided (e.g., zero address)."
        }
      ],
      "LengthMismatch()": [
        {
          "notice": "Error: Array Length Mismatch in Batch Operation."
        }
      ],
      "MintNotCompliant()": [
        {
          "notice": "Error indicating that a mint operation failed compliance checks."
        }
      ],
      "ModuleAlreadyAdded()": [
        {
          "notice": "Error indicating that an attempt was made to add a compliance module that is already registered."
        }
      ],
      "ModuleNotFound()": [
        {
          "notice": "Error indicating that a specified compliance module was not found."
        }
      ],
      "NoTokensToRecover()": [
        {
          "notice": "Error indicating that there are no tokens to recover."
        }
      ],
      "RecipientAddressFrozen()": [
        {
          "notice": "Error indicating that an operation (e.g., mint, transfer) cannot proceed because the recipient address is frozen."
        }
      ],
      "SenderAddressFrozen()": [
        {
          "notice": "Error indicating that an operation (e.g., transfer, burn, redeem) cannot proceed because the sender address is frozen."
        }
      ],
      "TokenPaused()": [
        {
          "notice": "Error reverted when an action is attempted that requires the contract to be unpaused (not paused),         but the contract is currently paused."
        }
      ],
      "TransferNotCompliant()": [
        {
          "notice": "Error indicating that a transfer operation failed compliance checks."
        }
      ],
      "YieldScheduleActive()": [
        {
          "notice": "Error indicating that an action cannot be performed because the yield schedule is currently active."
        }
      ],
      "YieldScheduleAlreadySet()": [
        {
          "notice": "Error indicating that a yield schedule has already been set for the token and an attempt was made to set it again."
        }
      ],
      "ZeroAddressNotAllowed()": [
        {
          "notice": "Error: Zero Address Not Allowed."
        }
      ]
    },
    "notice": "An implementation of a bond using the SMART extension framework,         backed by collateral and using custom roles."
  },
  "devdoc": {
    "version": 1,
    "kind": "dev",
    "details": "Combines core SMART features (compliance, verification) with extensions for pausing,      burning, custodian actions, and collateral tracking. Access control uses custom roles.",
    "methods": {
      "CLOCK_MODE()": {
        "details": "For this implementation, it indicates that the `clock()` function uses `block.timestamp`.      This helps off-chain tools and other contracts understand how time is measured for checkpoints.      `solhint-disable-next-line func-name-mixedcase` is used to allow the uppercase `CLOCK_MODE` name      which is a convention for such constants.",
        "returns": {
          "_0": "string memory A string literal \"mode=timestamp\"."
        }
      },
      "accessManager()": {
        "details": "This is an external view function, meaning it can be called from outside the      contract without consuming gas (if called via a node's RPC) and it does not      modify the contract's state.",
        "returns": {
          "_0": "The address of the `_accessManager`."
        }
      },
      "addComplianceModule(address,bytes)": {
        "details": "Before adding, the implementation (or the main `ISMARTCompliance` contract) MUST validate:      1. That `_module` is a valid contract address.      2. That `_module` correctly implements the `ISMARTComplianceModule` interface (e.g., via ERC165 `supportsInterface`).      3. That the provided `_params` are valid for the `_module` (by calling `_module.validateParameters(_params)`).      Typically restricted to an administrative role. Emits `ComplianceModuleAdded`.",
        "params": {
          "_module": "The address of the compliance module contract to add.",
          "_params": "The initial ABI-encoded configuration parameters for this module specific to this token."
        }
      },
      "allowance(address,address)": {
        "details": "See {IERC20-allowance}."
      },
      "approve(address,uint256)": {
        "details": "See {IERC20-approve}. NOTE: If `value` is the maximum `uint256`, the allowance is not updated on `transferFrom`. This is semantically equivalent to an infinite approval. Requirements: - `spender` cannot be the zero address."
      },
      "balanceOf(address)": {
        "details": "See {IERC20-balanceOf}."
      },
      "balanceOfAt(address,uint256)": {
        "details": "It uses `_balanceCheckpoints[account].upperLookupRecent()` from OpenZeppelin's `Checkpoints` library.      `upperLookupRecent` finds the checkpoint value at or before the given `timepoint`.      Reverts with `FutureLookup` error if `timepoint` is not in the past (i.e., >= `clock()`).      `timepoint` is cast to `uint48` to match the `Checkpoints` library's timestamp format.",
        "params": {
          "account": "The address of the account whose historical balance is being queried.",
          "timepoint": "The specific past timepoint (e.g., block number) to retrieve the balance for."
        },
        "returns": {
          "_0": "uint256 The token balance of `account` at the specified `timepoint`."
        }
      },
      "batchBurn(address[],uint256[])": {
        "details": "This function allows for efficient batch processing of token burns, which can save on      transaction fees (gas) compared to calling `burn` multiple times individually.      It requires that the `userAddresses` array and the `amounts` array have the same number of elements,      with each `amounts[i]` corresponding to `userAddresses[i]`.      Similar to the single `burn` function, authorization for each individual burn within the batch      is expected to be handled by the implementing contract (e.g., via an `_authorizeBurn` hook).      If the lengths of the input arrays do not match, the transaction should revert to prevent errors.",
        "params": {
          "amounts": "An array of token quantities to be burned. `amounts[i]` tokens will be burned                from `userAddresses[i]`.",
          "userAddresses": "An array of blockchain addresses from which tokens will be burned."
        }
      },
      "batchForcedTransfer(address[],address[],uint256[])": {
        "details": "A gas-efficient version of `forcedTransfer` for multiple operations.      Requires strong authorization for the entire batch.      Arrays `fromList`, `toList`, and `amounts` must be of the same length.",
        "params": {
          "amounts": "A list of corresponding token amounts to transfer.",
          "fromList": "A list of sender addresses.",
          "toList": "A list of recipient addresses."
        }
      },
      "batchFreezePartialTokens(address[],uint256[])": {
        "details": "Allows freezing different amounts for different users simultaneously.      Requires authorization for each partial freeze operation.      Arrays must be of the same length.",
        "params": {
          "amounts": "A list of corresponding token amounts to freeze.",
          "userAddresses": "A list of target addresses."
        }
      },
      "batchMint(address[],uint256[])": {
        "details": "This is an efficiency function to reduce transaction costs when minting to many users.      Typically restricted to accounts with a specific minter role.      Implementations MUST perform identity verification and compliance checks for *each* recipient in `_toList`.      If any recipient fails checks, the entire batch operation should revert to maintain atomicity.      Emits multiple `MintCompleted` and ERC20 `Transfer` events.",
        "params": {
          "_amounts": "An array of corresponding token quantities to mint for each address in `_toList`. The lengths of `_toList` and `_amounts` MUST be equal.",
          "_toList": "An array of addresses to receive the newly minted tokens."
        }
      },
      "batchSetAddressFrozen(address[],bool[])": {
        "details": "A gas-efficient way to update the frozen status for several addresses at once.      Requires authorization for each underlying freeze/unfreeze operation.      The `userAddresses` and `freeze` arrays must be of the same length.",
        "params": {
          "freeze": "A list of corresponding boolean freeze statuses (`true` for freeze, `false` for unfreeze).",
          "userAddresses": "A list of target addresses."
        }
      },
      "batchTransfer(address[],uint256[])": {
        "details": "Implements `ISMART.batchTransfer` (via `_SMARTExtension`). Delegates to `_smart_batchTransfer`.",
        "params": {
          "amounts": "An array of corresponding token amounts.",
          "toList": "An array of recipient addresses."
        }
      },
      "batchUnfreezePartialTokens(address[],uint256[])": {
        "details": "Allows unfreezing different amounts for different users simultaneously.      Requires authorization for each partial unfreeze operation.      Arrays must be of the same length.",
        "params": {
          "amounts": "A list of corresponding token amounts to unfreeze.",
          "userAddresses": "A list of target addresses."
        }
      },
      "burn(address,uint256)": {
        "details": "This function is intended for an authorized operator (like an admin or a special role)      to burn tokens on behalf of a user, or from a specific account as part of token management.      The actual authorization logic (who can call this) is typically handled by the contract      implementing this interface, often through a mechanism like an `_authorizeBurn` hook.      The function signature and intent are similar to `operatorBurn` as suggested by standards      like ERC3643, where an operator can manage token holdings.",
        "params": {
          "amount": "The quantity of tokens to burn. This should be a non-negative integer.",
          "userAddress": "The blockchain address of the account from which tokens will be burned.                    This is the account whose token balance will decrease."
        }
      },
      "cap()": {
        "details": "This public view function implements the `cap()` function from the `ISMARTCapped` interface.      It allows anyone to query the token's cap.      The `override` keyword is not strictly needed here as it's implementing an interface function      in an abstract contract, but it can be good practice. If ISMARTCapped was a contract, it would be required.",
        "returns": {
          "_0": "uint256 The maximum number of tokens that can be in circulation."
        }
      },
      "clock()": {
        "details": "By default, this implementation uses `block.timestamp` (the timestamp of the current block)      casted to `uint48`. `uint48` is chosen by OpenZeppelin's `Checkpoints` as it's sufficient for      timestamps for many decades and saves storage.      This function can be overridden in derived contracts if a different time source (e.g., `block.number`)      is desired, but `block.timestamp` is generally preferred for time-based logic.",
        "returns": {
          "_0": "uint48 The current timepoint (default: `block.timestamp` as `uint48`)."
        }
      },
      "compliance()": {
        "details": "The Compliance contract is responsible for orchestrating compliance checks for token operations.",
        "returns": {
          "_0": "ISMARTCompliance The current compliance contract."
        }
      },
      "complianceModules()": {
        "details": "Iterates through `__complianceModuleList` and constructs an array of `SMARTComplianceModuleParamPair` structs.",
        "returns": {
          "_0": "SMARTComplianceModuleParamPair[] memory An array of module-parameter pairs."
        }
      },
      "constructor": {
        "params": {
          "forwarder_": "The address of the forwarder contract."
        }
      },
      "decimals()": {
        "details": "Need to explicitly override because ERC20Upgradeable also defines decimals(). Ensures we read the value set by __SMART_init_unchained via _SMARTLogic.",
        "returns": {
          "_0": "uint8 The number of decimals."
        }
      },
      "faceValue()": {
        "returns": {
          "_0": "The bond's face value in underlying asset base units"
        }
      },
      "forcedRecoverTokens(address,address)": {
        "details": "This is a powerful administrative function. It can recover tokens even if addresses are frozen or      if other transfer conditions (like compliance checks) would normally fail.      Requires strong authorization (e.g., a FORCED_TRANSFER_ROLE).",
        "params": {
          "lostWallet": "The address from which tokens will be recovered.",
          "newWallet": "The address to which tokens will be recovered."
        }
      },
      "forcedTransfer(address,address,uint256)": {
        "details": "This is a powerful administrative function. It can move tokens even if addresses are frozen or      if other transfer conditions (like compliance checks) would normally fail.      If the `from` address has partially frozen tokens, this function may automatically unfreeze      the necessary amount to cover the transfer.      The implementation typically uses an internal flag (like `__isForcedUpdate`) to bypass standard hooks      (e.g., `_beforeTransfer`) during the actual token movement.      Requires strong authorization (e.g., a FORCED_TRANSFER_ROLE).",
        "params": {
          "amount": "The quantity of tokens to transfer.",
          "from": "The address from which tokens will be transferred.",
          "to": "The address to which tokens will be transferred."
        },
        "returns": {
          "_0": "bool Returns `true` upon successful execution (should revert on failure)."
        }
      },
      "freezePartialTokens(address,uint256)": {
        "details": "This prevents the specified `amount` of tokens from being used in standard operations by `userAddress`.      The user can still transact with their unfrozen balance.      Reverts if the `amount` to freeze exceeds the user's available (currently unfrozen) balance.      Requires authorization.",
        "params": {
          "amount": "The quantity of tokens to freeze.",
          "userAddress": "The address for which to freeze tokens."
        }
      },
      "getFrozenTokens(address)": {
        "details": "This does not include tokens that are implicitly frozen because the entire address is frozen.",
        "params": {
          "userAddress": "The address to check."
        },
        "returns": {
          "_0": "uint256 The value stored in `__frozenTokens[userAddress]`."
        }
      },
      "hasRole(bytes32,address)": {
        "details": "This function implements the `ISMARTTokenAccessManaged` interface.      It delegates the actual role check to the `hasRole` function of the `_accessManager` contract.      The `virtual` keyword means that this function can be overridden by inheriting contracts.",
        "params": {
          "account": "The address of the account whose roles are being checked.",
          "role": "The `bytes32` identifier of the role to check."
        },
        "returns": {
          "_0": "`true` if the account has the role, `false` otherwise."
        }
      },
      "identityRegistry()": {
        "details": "The Identity Registry is used for verifying token holders against required claims and linking wallets to identities.",
        "returns": {
          "_0": "ISMARTIdentityRegistry The current identity registry contract."
        }
      },
      "initialize(string,string,uint8,address,uint256,uint256,uint256,address,(address,bytes)[],address,address,address)": {
        "params": {
          "accessManager_": "The address of the access manager contract.",
          "cap_": "Token cap",
          "compliance_": "The address of the main compliance contract.",
          "decimals_": "The number of decimals the token uses.",
          "faceValue_": "Bond face value",
          "identityRegistry_": "The address of the Identity Registry contract.",
          "initialModulePairs_": "Initial compliance module configurations.",
          "maturityDate_": "Bond maturity date",
          "name_": "The name of the token.",
          "onchainID_": "Optional address of an existing onchain identity contract. Pass address(0) to create a new one.",
          "symbol_": "The symbol of the token.",
          "underlyingAsset_": "Underlying asset contract address"
        }
      },
      "isFrozen(address)": {
        "details": "A `view` function does not modify blockchain state and does not cost gas when called externally.",
        "params": {
          "userAddress": "The address to check."
        },
        "returns": {
          "_0": "bool `true` if `__frozen[userAddress]` is true, `false` otherwise."
        }
      },
      "isTrustedForwarder(address)": {
        "details": "Indicates whether any particular address is the trusted forwarder."
      },
      "mature()": {
        "details": "Only callable by addresses with SUPPLY_MANAGEMENT_ROLE after maturity dateRequires sufficient underlying assets for all potential redemptionsTODO: check role"
      },
      "maturityDate()": {
        "returns": {
          "_0": "The maturity date timestamp"
        }
      },
      "mint(address,uint256)": {
        "details": "This function is typically restricted to accounts with a specific minter role.      Implementations MUST perform identity verification and compliance checks on the `_to` address before minting.      Failure to meet these checks should result in a revert (e.g., with `RecipientNotVerified` or a compliance error).      Emits `MintCompleted` and the standard ERC20 `Transfer` event (from `address(0)` to `_to`).",
        "params": {
          "_amount": "The quantity of tokens to mint.",
          "_to": "The address that will receive the newly minted tokens."
        }
      },
      "missingUnderlyingAmount()": {
        "returns": {
          "_0": "The amount of underlying assets missing (0 if there's enough or excess)"
        }
      },
      "name()": {
        "details": "Returns the name of the token."
      },
      "onchainID()": {
        "details": "This can represent the token issuer or the token entity.",
        "returns": {
          "_0": "address The current on-chain ID address."
        }
      },
      "pause()": {
        "details": "Implementations should ensure this function can only be called by an authorized address      (e.g., through a modifier like `onlyPauser`). It should revert if the contract is already paused      to prevent redundant operations or event emissions."
      },
      "paused()": {
        "details": "Reads the private `_paused` state variable.",
        "returns": {
          "_0": "bool The current paused state of the contract."
        }
      },
      "recoverERC20(address,address,uint256)": {
        "details": "This function is crucial for retrieving assets that are not the SMART token itself but are held by the contract.      Access to this function MUST be strictly controlled (e.g., via an `_authorizeRecoverERC20` internal hook or role).      It is critical that this function CANNOT be used to recover the SMART token itself, as that could drain the contract or interfere with its logic.      It should use a safe transfer mechanism (like OpenZeppelin's `SafeERC20.safeTransfer`) to prevent issues with non-standard ERC20 tokens.",
        "params": {
          "amount": "The quantity of the `token` to recover and send to `to`.",
          "to": "The address where the recovered tokens will be sent.",
          "token": "The contract address of the ERC20 token to be recovered. This MUST NOT be `address(this)`."
        }
      },
      "recoverTokens(address)": {
        "details": "Implements the `recoverTokens` function from `ISMART` (via `_SMARTExtension`).      Delegates to `_smart_recoverTokens` from `_SMARTLogic` for execution.",
        "params": {
          "lostWallet": "The address of the lost wallet containing tokens to recover."
        }
      },
      "redeem(uint256)": {
        "details": "This function implements the `redeem` function from the `ISMARTRedeemable` interface. It allows a token holder to burn a specific `amount` of their own tokens. It delegates the core logic to the internal `__smart_redeemLogic` function. Marked `external virtual` so it can be called from outside and overridden if necessary.",
        "params": {
          "amount": "The quantity of tokens the caller wishes to redeem. Must be less than or equal to the caller's balance."
        },
        "returns": {
          "_0": "A boolean value indicating whether the redemption was successful (typically `true`)."
        }
      },
      "redeemAll()": {
        "details": "This function implements the `redeemAll` function from the `ISMARTRedeemable` interface. It allows a token holder to burn their entire token balance. First, it retrieves the caller's full balance using `__redeemable_getBalance`. Then, it delegates the core logic to the internal `__smart_redeemLogic` function with the retrieved balance. Marked `external virtual` so it can be called from outside and overridden if necessary.",
        "returns": {
          "_0": "A boolean value indicating whether the redemption of all tokens was successful (typically `true`)."
        }
      },
      "removeComplianceModule(address)": {
        "details": "Once removed, the rules enforced by this `_module` will no longer apply to token operations.      Typically restricted to an administrative role. Emits `ComplianceModuleRemoved`.",
        "params": {
          "_module": "The address of the compliance module contract to remove."
        }
      },
      "setAddressFrozen(address,bool)": {
        "details": "When an address is frozen, typically all standard transfers, mints (to it), and burns (from it)      are blocked. Unfreezing reverses this.      Implementations should ensure this function requires proper authorization (e.g., a FREEZER_ROLE).",
        "params": {
          "freeze": "`true` to freeze the address, `false` to unfreeze it.",
          "userAddress": "The target address whose frozen status is to be changed."
        }
      },
      "setCap(uint256)": {
        "details": "Allows an authorized caller to change the cap. The new cap cannot be zero or less      than the current total supply of the token. Emits a {CapSet} event on success.      The authorization logic for who can call this function is handled by the contract      implementing this interface.",
        "params": {
          "newCap": "The new maximum total supply. Must be >= the current total supply."
        }
      },
      "setCompliance(address)": {
        "details": "The Compliance contract orchestrates checks across various compliance modules to determine transfer legality.      Typically restricted to an administrative role. Emits `ComplianceAdded`.",
        "params": {
          "_compliance": "The address of the new `ISMARTCompliance` contract. Must not be `address(0)`."
        }
      },
      "setIdentityRegistry(address)": {
        "details": "The Identity Registry is responsible for managing associations between investor wallet addresses and their on-chain Identity contracts,      and for verifying identities against required claims.      Typically restricted to an administrative role. Emits `IdentityRegistryAdded`.",
        "params": {
          "_identityRegistry": "The address of the new `ISMARTIdentityRegistry` contract. Must not be `address(0)`."
        }
      },
      "setOnchainID(address)": {
        "details": "This can be used to represent the token issuer or the token itself as an on-chain entity.      Typically, this function is restricted to an administrative role.",
        "params": {
          "_onchainID": "The address of the on-chain ID contract. Pass `address(0)` to remove an existing ID."
        }
      },
      "setParametersForComplianceModule(address,bytes)": {
        "details": "This allows an administrator to change how a particular compliance rule behaves for this token.      The implementing contract (or the `ISMARTCompliance` contract) MUST validate these `_params` by calling      the module's `validateParameters(_params)` function before applying them.      Typically restricted to an administrative role. Emits `ModuleParametersUpdated`.",
        "params": {
          "_module": "The address of the compliance module (must be an active module for this token).",
          "_params": "The new ABI-encoded configuration parameters for the module."
        }
      },
      "setYieldSchedule(address)": {
        "details": "This function is crucial for configuring how yield is generated and distributed for the token. The `schedule` address points to another smart contract that implements the `ISMARTYieldSchedule` interface (or a more specific one like `ISMARTFixedYieldSchedule`). This schedule contract will contain the detailed logic for yield calculation, timing, and distribution. Implementers should consider adding access control to this function (e.g., only allowing an admin or owner role) to prevent unauthorized changes to the yield mechanism.",
        "params": {
          "schedule": "The address of the smart contract that defines the yield schedule. This contract must adhere to `ISMARTYieldSchedule`."
        }
      },
      "supportsInterface(bytes4)": {
        "details": "Combines SMART-specific interface checks (via `__smart_supportsInterface` from `_SMARTLogic`)      with OpenZeppelin's `ERC165Upgradeable.supportsInterface`.      This ensures that interfaces registered by SMART extensions, the core `ISMART` interface, and      standard interfaces like `IERC165Upgradeable` are correctly reported.",
        "params": {
          "interfaceId": "The `bytes4` interface identifier."
        },
        "returns": {
          "_0": "bool `true` if the interface is supported, `false` otherwise."
        }
      },
      "symbol()": {
        "details": "Returns the symbol of the token, usually a shorter version of the name."
      },
      "totalSupply()": {
        "details": "See {IERC20-totalSupply}."
      },
      "totalSupplyAt(uint256)": {
        "details": "Works similarly to `balanceOfAt`, using `_totalSupplyCheckpoints.upperLookupRecent()`.      Reverts with `FutureLookup` for non-past timepoints.",
        "params": {
          "timepoint": "The specific past timepoint (e.g., block number) to retrieve the total supply for."
        },
        "returns": {
          "_0": "uint256 The total token supply at the specified `timepoint`."
        }
      },
      "totalUnderlyingNeeded()": {
        "returns": {
          "_0": "The total amount of underlying assets needed"
        }
      },
      "transferFrom(address,address,uint256)": {
        "details": "See {IERC20-transferFrom}. Skips emitting an {Approval} event indicating an allowance update. This is not required by the ERC. See {xref-ERC20-_approve-address-address-uint256-bool-}[_approve]. NOTE: Does not update the allowance if the current allowance is the maximum `uint256`. Requirements: - `from` and `to` cannot be the zero address. - `from` must have a balance of at least `value`. - the caller must have allowance for ``from``'s tokens of at least `value`."
      },
      "trustedForwarder()": {
        "details": "Returns the address of the trusted forwarder."
      },
      "underlyingAsset()": {
        "returns": {
          "_0": "The ERC20 contract of the underlying asset"
        }
      },
      "underlyingAssetBalance()": {
        "returns": {
          "_0": "The balance of underlying assets"
        }
      },
      "unfreezePartialTokens(address,uint256)": {
        "details": "Reduces the partially frozen amount for `userAddress` by the specified `amount`.      Reverts if `amount` exceeds the currently frozen token amount for that address.      Requires authorization.",
        "params": {
          "amount": "The quantity of tokens to unfreeze.",
          "userAddress": "The address for which to unfreeze tokens."
        }
      },
      "unpause()": {
        "details": "Similar to `pause()`, this function should be restricted to authorized addresses and should      revert if the contract is not currently paused."
      },
      "withdrawableUnderlyingAmount()": {
        "returns": {
          "_0": "The amount of excess underlying assets"
        }
      },
      "yieldToken()": {
        "details": "Yield can be paid in the token itself or in a different token (e.g., a stablecoin). This function specifies which ERC20 token will be transferred to holders when they claim their accrued yield.",
        "returns": {
          "_0": "An `IERC20` interface instance representing the token used for yield payments."
        }
      }
    },
    "events": {
      "AccessManagerSet(address,address)": {
        "details": "This event is crucial for transparency and monitoring. It allows external observers      to know when the authority managing roles and permissions for a token has been updated.      The `indexed` keyword for `sender` and `manager` allows these addresses to be efficiently      searched for in event logs.",
        "params": {
          "manager": "The new address of the `SMARTTokenAccessManager` contract that will now                oversee access control for the token.",
          "sender": "The address of the account that initiated the change of the access manager.               This is typically an administrator or an account with special privileges."
        }
      },
      "AddressFrozen(address,address,bool)": {
        "params": {
          "isFrozen": "The new frozen status: `true` if the address is now frozen, `false` if unfrozen.                 `indexed` to quickly find all freeze or unfreeze events.",
          "sender": "The address (e.g., custodian, admin) that initiated the freeze/unfreeze operation.               `indexed` for easier filtering of operations by a specific admin.",
          "userAddress": "The address whose frozen status was changed. `indexed` for tracking a specific user."
        }
      },
      "Approval(address,address,uint256)": {
        "details": "Emitted when the allowance of a `spender` for an `owner` is set by a call to {approve}. `value` is the new allowance."
      },
      "BondMatured(uint256)": {
        "params": {
          "timestamp": "The block timestamp when the bond matured"
        }
      },
      "BondRedeemed(address,address,uint256,uint256)": {
        "params": {
          "bondAmount": "The amount of bonds redeemed",
          "holder": "The address redeeming the bonds",
          "sender": "The address that initiated the redemption",
          "underlyingAmount": "The amount of underlying assets received"
        }
      },
      "BurnCompleted(address,address,uint256)": {
        "details": "This event signifies that a specified `amount` of tokens has been destroyed from the `from` address,      triggered by the `sender`.      The `indexed` keyword for `sender` and `from` parameters is a special feature in Solidity events.      It allows these parameters to be efficiently searched and filtered by off-chain applications.      Think of them as creating a searchable index for these specific fields in the event logs.",
        "params": {
          "amount": "The quantity of tokens that were burned (destroyed).",
          "from": "The address from which the tokens were actually burned. This is the account whose token balance was reduced.",
          "sender": "The address of the account that initiated or authorized the burn operation.               This could be an administrator, an operator, or under certain rules, the token holder themselves."
        }
      },
      "CapSet(address,uint256)": {
        "params": {
          "cap": "The new cap value.",
          "sender": "The address that set/changed the cap."
        }
      },
      "CheckpointUpdated(address,address,uint256,uint256)": {
        "details": "This event signals that a historical data point has been recorded.      Off-chain services can listen to this event to know when to update their own historical data caches      or to trigger other actions based on balance changes.",
        "params": {
          "account": "The address for which a balance checkpoint was created. If this is `address(0)`,                it signifies that the checkpoint is for the token's `totalSupply`.                `indexed` for tracking specific accounts or total supply updates.",
          "newBalance": "The balance (either of `account` or `totalSupply`) *after* the operation and at the                   time of this checkpoint.",
          "oldBalance": "The balance (either of `account` or `totalSupply`) *before* the operation that triggered                   the checkpoint.",
          "sender": "The address that initiated the token operation (e.g., minter, transferer, burner)               which resulted in this checkpoint update. `indexed` for easier filtering."
        }
      },
      "ComplianceAdded(address,address)": {
        "details": "This event indicates a change in the primary contract responsible for enforcing compliance rules on token transfers.",
        "params": {
          "_compliance": "The address of the newly configured `ISMARTCompliance` contract.",
          "sender": "The address of the account (e.g., admin) that initiated this configuration change."
        }
      },
      "ComplianceModuleAdded(address,address,bytes)": {
        "details": "Compliance modules implement specific rules (e.g., geographic restrictions, holding limits).",
        "params": {
          "_module": "The address of the newly added compliance module contract (which should implement `ISMARTComplianceModule`).",
          "_params": "The ABI-encoded configuration parameters initially set for this module instance on this token.",
          "sender": "The address of the account (e.g., admin) that added the module."
        }
      },
      "ComplianceModuleRemoved(address,address)": {
        "details": "Removing a module means its rules will no longer be applied to token operations.",
        "params": {
          "_module": "The address of the compliance module contract that was removed.",
          "sender": "The address of the account (e.g., admin) that removed the module."
        }
      },
      "ERC20TokenRecovered(address,address,address,uint256)": {
        "params": {
          "amount": "The amount of tokens recovered.",
          "sender": "The address that initiated the recovery operation.",
          "to": "The address to which the tokens were recovered.",
          "token": "The address of the ERC20 token recovered."
        }
      },
      "ForcedTransfer(address,address,address,uint256)": {
        "params": {
          "amount": "The amount of tokens transferred.",
          "from": "The source address of the tokens. `indexed`.",
          "sender": "The address of the custodian who initiated the forced transfer. `indexed`.",
          "to": "The destination address of the tokens. `indexed`."
        }
      },
      "IdentityRegistryAdded(address,address)": {
        "details": "This event signals a change in the system component responsible for managing and verifying user identities.",
        "params": {
          "_identityRegistry": "The address of the newly configured `ISMARTIdentityRegistry` contract.",
          "sender": "The address of the account (e.g., admin) that initiated this configuration change."
        }
      },
      "Initialized(uint64)": {
        "details": "Triggered when the contract has been initialized or reinitialized."
      },
      "MintCompleted(address,address,uint256)": {
        "params": {
          "amount": "The quantity of tokens minted.",
          "sender": "The address of the account (e.g., minter role) that initiated the minting.",
          "to": "The address that received the newly minted tokens."
        }
      },
      "ModuleParametersUpdated(address,address,bytes)": {
        "details": "This allows tweaking the behavior of a module without removing and re-adding it.",
        "params": {
          "_module": "The address of the compliance module whose parameters were updated.",
          "_params": "The new ABI-encoded configuration parameters for the module.",
          "sender": "The address of the account (e.g., admin) that updated the parameters."
        }
      },
      "Paused(address)": {
        "details": "This event signals that standard operations (like transfers) are likely now blocked.",
        "params": {
          "sender": "The address that initiated the `pause` operation. This is typically an authorized               account with a PAUSER_ROLE. `indexed` for easier filtering of events initiated               by a specific admin or pauser address."
        }
      },
      "RecoverySuccess(address,address,address,address)": {
        "params": {
          "investorOnchainID": "The on-chain ID contract address that links the `lostWallet` and `newWallet`,                          confirming they belong to the same beneficial owner.                          Not typically indexed as it might be a shared contract for many users.",
          "lostWallet": "The address from which assets were recovered. `indexed`.",
          "newWallet": "The address to which assets were transferred and identity re-associated. `indexed`.",
          "sender": "The address (e.g., custodian) that initiated the recovery operation. `indexed`."
        }
      },
      "Redeemed(address,uint256)": {
        "details": "This event is crucial for tracking the reduction of token supply due to redemptions. It signifies that a token holder has voluntarily exchanged their tokens to have them permanently removed from circulation. Off-chain services can listen to this event to update balances, statistics, or trigger other processes. The `indexed` keyword for `sender` allows for efficient searching and filtering of these events based on the sender's address.",
        "params": {
          "amount": "The quantity of tokens that were redeemed and thus burned. This is the amount by which the sender's balance and the total supply decreased.",
          "sender": "The address of the token holder who redeemed their tokens. This address initiated the redeem transaction."
        }
      },
      "TokensFrozen(address,address,uint256)": {
        "details": "This refers to freezing a portion of an address's tokens, distinct from freezing the entire address.",
        "params": {
          "amount": "The quantity of tokens that were specifically frozen.",
          "sender": "The address that initiated the partial freeze operation. `indexed`.",
          "user": "The address for which a specific amount of tokens was frozen. `indexed`."
        }
      },
      "TokensRecovered(address,address,address,uint256)": {
        "params": {
          "amount": "The amount of tokens recovered.",
          "lostWallet": "The address of the lost wallet containing tokens to recover.",
          "newWallet": "The address to which the tokens were recovered.",
          "sender": "The address that initiated the recovery operation."
        }
      },
      "TokensUnfrozen(address,address,uint256)": {
        "params": {
          "amount": "The quantity of tokens that were unfrozen from the partial freeze.",
          "sender": "The address that initiated the partial unfreeze operation. `indexed`.",
          "user": "The address for which a specific amount of tokens was unfrozen. `indexed`."
        }
      },
      "Transfer(address,address,uint256)": {
        "details": "Emitted when `value` tokens are moved from one account (`from`) to another (`to`). Note that `value` may be zero."
      },
      "TransferCompleted(address,address,address,uint256)": {
        "params": {
          "amount": "The quantity of tokens transferred.",
          "from": "The address from which tokens were sent.",
          "sender": "The address that initiated the transfer action (could be the `from` address or an operator).",
          "to": "The address to which tokens were received."
        }
      },
      "Unpaused(address)": {
        "details": "This event signals that standard operations are likely resumed.",
        "params": {
          "sender": "The address that initiated the `unpause` operation. Similar to `Paused` event, this is               typically an authorized account. `indexed` for filtering."
        }
      },
      "UpdatedTokenInformation(address,uint8,address)": {
        "details": "Note: While `name` and `symbol` are part of `IERC20Metadata`, their update mechanism isn't explicitly defined here,      but if updatable, would likely also trigger such an event. This event specifically calls out decimals and onchainID.",
        "params": {
          "_newDecimals": "The new number of decimal places the token uses. (Note: Changing decimals post-deployment is highly unusual and complex for ERC20 tokens).",
          "_newOnchainID": "The address of the new on-chain Identity contract representing the token itself (if applicable).",
          "sender": "The address of the account (e.g., admin) that initiated the update."
        }
      },
      "YieldScheduleSet(address,address)": {
        "details": "This event is critical for transparency and tracking changes to how a token generates and distributes yield. When this event is emitted, it signifies that the `schedule` address is now the authoritative contract dictating the terms of yield for this token. The `indexed` keyword for `sender` and `schedule` allows for efficient searching and filtering of these events based on these addresses. For example, one could easily find all tokens for which a specific yield schedule was set, or all schedules set by a particular admin.",
        "params": {
          "schedule": "The address of the newly set yield schedule contract. This contract implements `ISMARTYieldSchedule` and contains the yield logic.",
          "sender": "The address of the account (e.g., an admin or owner) that initiated the transaction to set the yield schedule."
        }
      }
    },
    "errors": {
      "AccessControlUnauthorizedAccount(address,bytes32)": [
        {
          "details": "Error: Account Lacks Required Role.      This error is emitted when an action is attempted by an account (`account`)      that does not possess the necessary authorization role (`neededRole`).      For example, if an account tries to mint new tokens but doesn't have the 'MINTER_ROLE'.",
          "params": {
            "account": "The address of the account that attempted the unauthorized action.",
            "neededRole": "The `bytes32` identifier of the role that the `account` was missing."
          }
        }
      ],
      "CannotRecoverSelf()": [
        {
          "details": "The `recoverERC20` function is designed to recover other ERC20 tokens mistakenly sent to this contract,      not the token this contract itself represents."
        }
      ],
      "CheckpointUnorderedInsertion()": [
        {
          "details": "A value was attempted to be inserted on a past checkpoint."
        }
      ],
      "DuplicateModule(address)": [
        {
          "params": {
            "module": "The address of the duplicate compliance module."
          }
        }
      ],
      "ERC20InsufficientAllowance(address,uint256,uint256)": [
        {
          "details": "Indicates a failure with the `spender`s `allowance`. Used in transfers.",
          "params": {
            "allowance": "Amount of tokens a `spender` is allowed to operate with.",
            "needed": "Minimum amount required to perform a transfer.",
            "spender": "Address that may be allowed to operate on tokens without being their owner."
          }
        }
      ],
      "ERC20InsufficientBalance(address,uint256,uint256)": [
        {
          "details": "Indicates an error related to the current `balance` of a `sender`. Used in transfers.",
          "params": {
            "balance": "Current balance for the interacting account.",
            "needed": "Minimum amount required to perform a transfer.",
            "sender": "Address whose tokens are being transferred."
          }
        }
      ],
      "ERC20InvalidApprover(address)": [
        {
          "details": "Indicates a failure with the `approver` of a token to be approved. Used in approvals.",
          "params": {
            "approver": "Address initiating an approval operation."
          }
        }
      ],
      "ERC20InvalidReceiver(address)": [
        {
          "details": "Indicates a failure with the token `receiver`. Used in transfers.",
          "params": {
            "receiver": "Address to which tokens are being transferred."
          }
        }
      ],
      "ERC20InvalidSender(address)": [
        {
          "details": "Indicates a failure with the token `sender`. Used in transfers.",
          "params": {
            "sender": "Address whose tokens are being transferred."
          }
        }
      ],
      "ERC20InvalidSpender(address)": [
        {
          "details": "Indicates a failure with the `spender` to be approved. Used in approvals.",
          "params": {
            "spender": "Address that may be allowed to operate on tokens without being their owner."
          }
        }
      ],
      "ExceededCap(uint256,uint256)": [
        {
          "details": "This error is thrown when a mint operation (creating new tokens) is attempted, but the      resulting total supply would be greater than the pre-defined `cap`.      For example, if the cap is 1,000,000 tokens and current supply is 990,000, attempting to mint      20,000 more tokens would trigger this error because 990,000 + 20,000 = 1,010,000, which is > 1,000,000.",
          "params": {
            "cap": "The hard-coded maximum allowed total supply for the token.",
            "newSupply": "The total supply that *would have resulted* if the mint operation had proceeded."
          }
        }
      ],
      "ExpectedPause()": [
        {
          "details": "For example, this might be used if an `unpause()` function is called when the contract is already unpaused,      or if a specific admin action is only allowed during a maintenance (paused) period."
        }
      ],
      "FreezeAmountExceedsAvailableBalance(uint256,uint256)": [
        {
          "params": {
            "available": "The available, unfrozen balance of the user.",
            "requested": "The amount of tokens requested to be frozen."
          }
        }
      ],
      "FutureLookup(uint256,uint48)": [
        {
          "details": "Historical data is only available for past timepoints. The `clock()` function in the implementing      contract determines the current reference timepoint.",
          "params": {
            "currentTimepoint": "The current valid timepoint (e.g., current block number) according to the contract's `clock()`.",
            "requestedTimepoint": "The future timepoint (e.g., block number) that was invalidly requested."
          }
        }
      ],
      "InsufficientFrozenTokens(uint256,uint256)": [
        {
          "params": {
            "frozenBalance": "The current amount of tokens specifically frozen for the address.",
            "requested": "The amount requested to be unfrozen or used from the frozen portion."
          }
        }
      ],
      "InsufficientRedeemableBalance(uint256,uint256)": [
        {
          "params": {
            "currentBalance": "The current balance of the redeemable bond tokens in the contract.",
            "requiredBalance": "The required balance of the redeemable bond tokens for the operation."
          }
        }
      ],
      "InsufficientTokenBalance()": [
        {
          "details": "This typically occurs during token recovery if the contract holds less of the target token than the amount requested for recovery."
        }
      ],
      "InsufficientUnderlyingBalance(uint256,uint256)": [
        {
          "params": {
            "currentBalance": "The current balance of the underlying asset in the contract.",
            "requiredBalance": "The required balance of the underlying asset for the operation."
          }
        }
      ],
      "InvalidCap(uint256)": [
        {
          "details": "This error is thrown if the cap is set to an invalid value, either during      initialization or when calling `setCap`. An invalid value is either zero or a      value below the current total supply of tokens.",
          "params": {
            "cap": "The invalid cap value that was attempted to be set."
          }
        }
      ],
      "InvalidDecimals(uint8)": [
        {
          "details": "This error is typically reverted if `decimals` is greater than 18, which is a common upper limit.",
          "params": {
            "decimals": "The invalid decimals value that was provided."
          }
        }
      ],
      "InvalidInitialization()": [
        {
          "details": "The contract is already initialized."
        }
      ],
      "InvalidLostWallet()": [
        {
          "details": "This can occur if the wallet is not associated with any lost identity."
        }
      ],
      "LengthMismatch()": [
        {
          "details": "This error is typically triggered in functions that process multiple items in batches,      such as `batchBurn` or `batchTransfer`, when the input arrays (e.g., an array of addresses      and an array of corresponding amounts) do not have the same number of elements.      For example, if 3 addresses are provided but only 2 amounts, this error would be raised      because it's unclear how to map the amounts to the addresses."
        }
      ],
      "MintNotCompliant()": [
        {
          "details": "This means the conditions required by the active compliance modules for minting were not met."
        }
      ],
      "ModuleNotFound()": [
        {
          "details": "This can occur when trying to remove or update parameters for a non-existent module."
        }
      ],
      "NoTokensToRecover()": [
        {
          "details": "This can occur if the contract holds no tokens to recover."
        }
      ],
      "NotInitializing()": [
        {
          "details": "The contract is not initializing."
        }
      ],
      "ReentrancyGuardReentrantCall()": [
        {
          "details": "Unauthorized reentrant call."
        }
      ],
      "SafeCastOverflowedUintDowncast(uint8,uint256)": [
        {
          "details": "Value doesn't fit in an uint of `bits` size."
        }
      ],
      "SafeERC20FailedOperation(address)": [
        {
          "details": "An operation with an ERC-20 token failed."
        }
      ],
      "TokenPaused()": [
        {
          "details": "For example, this error is typically used in a `whenNotPaused` modifier if a function like `transfer`      is called while the token operations are halted."
        }
      ],
      "TransferNotCompliant()": [
        {
          "details": "This means the conditions required by the active compliance modules for transferring tokens were not met."
        }
      ],
      "YieldScheduleActive()": [
        {
          "details": "For example, this might be reverted if an attempt is made to modify certain parameters of the token or the yield mechanism (like `_beforeMint` in `_SMARTYieldLogic` preventing minting) once the yield schedule has started (i.e., `schedule.startDate() <= block.timestamp`). Some operations might be restricted to only occur before the yield schedule begins distributing rewards."
        }
      ],
      "YieldScheduleAlreadySet()": [
        {
          "details": "This error is typically reverted when a function like `setYieldSchedule` is called but the token already has an active or previously configured yield schedule. To change a schedule, it might need to be unset or updated via a different mechanism if supported."
        }
      ],
      "ZeroAddressNotAllowed()": [
        {
          "details": "This error is used to indicate that an operation or initialization was attempted with the      zero address (`address(0)`), which is often an invalid or disallowed address in many contexts.      For example, setting a critical administrative role to the zero address, or transferring tokens      to the zero address (which can effectively burn them, but should be explicit if intended)."
        }
      ]
    },
    "title": "SMARTBond"
  },
  "id": 3
}