{
  "abi": [
    {
      "type": "constructor",
      "inputs": [
        {
          "name": "forwarder",
          "type": "address",
          "internalType": "address"
        }
      ],
      "stateMutability": "nonpayable"
    },
    {
      "type": "function",
      "name": "DEFAULT_ADMIN_ROLE",
      "inputs": [],
      "outputs": [
        {
          "name": "",
          "type": "bytes32",
          "internalType": "bytes32"
        }
      ],
      "stateMutability": "view"
    },
    {
      "type": "function",
      "name": "createFund",
      "inputs": [
        {
          "name": "name_",
          "type": "string",
          "internalType": "string"
        },
        {
          "name": "symbol_",
          "type": "string",
          "internalType": "string"
        },
        {
          "name": "decimals_",
          "type": "uint8",
          "internalType": "uint8"
        },
        {
          "name": "managementFeeBps_",
          "type": "uint16",
          "internalType": "uint16"
        },
        {
          "name": "requiredClaimTopics_",
          "type": "uint256[]",
          "internalType": "uint256[]"
        },
        {
          "name": "initialModulePairs_",
          "type": "tuple[]",
          "internalType": "struct SMARTComplianceModuleParamPair[]",
          "components": [
            {
              "name": "module",
              "type": "address",
              "internalType": "address"
            },
            {
              "name": "params",
              "type": "bytes",
              "internalType": "bytes"
            }
          ]
        }
      ],
      "outputs": [
        {
          "name": "deployedFundAddress",
          "type": "address",
          "internalType": "address"
        }
      ],
      "stateMutability": "nonpayable"
    },
    {
      "type": "function",
      "name": "getRoleAdmin",
      "inputs": [
        {
          "name": "role",
          "type": "bytes32",
          "internalType": "bytes32"
        }
      ],
      "outputs": [
        {
          "name": "",
          "type": "bytes32",
          "internalType": "bytes32"
        }
      ],
      "stateMutability": "view"
    },
    {
      "type": "function",
      "name": "grantRole",
      "inputs": [
        {
          "name": "role",
          "type": "bytes32",
          "internalType": "bytes32"
        },
        {
          "name": "account",
          "type": "address",
          "internalType": "address"
        }
      ],
      "outputs": [],
      "stateMutability": "nonpayable"
    },
    {
      "type": "function",
      "name": "hasRole",
      "inputs": [
        {
          "name": "role",
          "type": "bytes32",
          "internalType": "bytes32"
        },
        {
          "name": "account",
          "type": "address",
          "internalType": "address"
        }
      ],
      "outputs": [
        {
          "name": "",
          "type": "bool",
          "internalType": "bool"
        }
      ],
      "stateMutability": "view"
    },
    {
      "type": "function",
      "name": "initialize",
      "inputs": [
        {
          "name": "systemAddress",
          "type": "address",
          "internalType": "address"
        },
        {
          "name": "tokenImplementation_",
          "type": "address",
          "internalType": "address"
        },
        {
          "name": "initialAdmin",
          "type": "address",
          "internalType": "address"
        },
        {
          "name": "identityVerificationModule",
          "type": "address",
          "internalType": "address"
        }
      ],
      "outputs": [],
      "stateMutability": "nonpayable"
    },
    {
      "type": "function",
      "name": "isFactoryAccessManager",
      "inputs": [
        {
          "name": "accessManagerAddress",
          "type": "address",
          "internalType": "address"
        }
      ],
      "outputs": [
        {
          "name": "isFactoryAccessManager",
          "type": "bool",
          "internalType": "bool"
        }
      ],
      "stateMutability": "view"
    },
    {
      "type": "function",
      "name": "isFactoryToken",
      "inputs": [
        {
          "name": "tokenAddress",
          "type": "address",
          "internalType": "address"
        }
      ],
      "outputs": [
        {
          "name": "isFactoryToken",
          "type": "bool",
          "internalType": "bool"
        }
      ],
      "stateMutability": "view"
    },
    {
      "type": "function",
      "name": "isTrustedForwarder",
      "inputs": [
        {
          "name": "forwarder",
          "type": "address",
          "internalType": "address"
        }
      ],
      "outputs": [
        {
          "name": "",
          "type": "bool",
          "internalType": "bool"
        }
      ],
      "stateMutability": "view"
    },
    {
      "type": "function",
      "name": "isValidTokenImplementation",
      "inputs": [
        {
          "name": "tokenImplementation_",
          "type": "address",
          "internalType": "address"
        }
      ],
      "outputs": [
        {
          "name": "",
          "type": "bool",
          "internalType": "bool"
        }
      ],
      "stateMutability": "view"
    },
    {
      "type": "function",
      "name": "predictFundAddress",
      "inputs": [
        {
          "name": "name_",
          "type": "string",
          "internalType": "string"
        },
        {
          "name": "symbol_",
          "type": "string",
          "internalType": "string"
        },
        {
          "name": "decimals_",
          "type": "uint8",
          "internalType": "uint8"
        },
        {
          "name": "managementFeeBps_",
          "type": "uint16",
          "internalType": "uint16"
        },
        {
          "name": "requiredClaimTopics_",
          "type": "uint256[]",
          "internalType": "uint256[]"
        },
        {
          "name": "initialModulePairs_",
          "type": "tuple[]",
          "internalType": "struct SMARTComplianceModuleParamPair[]",
          "components": [
            {
              "name": "module",
              "type": "address",
              "internalType": "address"
            },
            {
              "name": "params",
              "type": "bytes",
              "internalType": "bytes"
            }
          ]
        }
      ],
      "outputs": [
        {
          "name": "predictedAddress",
          "type": "address",
          "internalType": "address"
        }
      ],
      "stateMutability": "view"
    },
    {
      "type": "function",
      "name": "renounceRole",
      "inputs": [
        {
          "name": "role",
          "type": "bytes32",
          "internalType": "bytes32"
        },
        {
          "name": "callerConfirmation",
          "type": "address",
          "internalType": "address"
        }
      ],
      "outputs": [],
      "stateMutability": "nonpayable"
    },
    {
      "type": "function",
      "name": "revokeRole",
      "inputs": [
        {
          "name": "role",
          "type": "bytes32",
          "internalType": "bytes32"
        },
        {
          "name": "account",
          "type": "address",
          "internalType": "address"
        }
      ],
      "outputs": [],
      "stateMutability": "nonpayable"
    },
    {
      "type": "function",
      "name": "supportsInterface",
      "inputs": [
        {
          "name": "interfaceId",
          "type": "bytes4",
          "internalType": "bytes4"
        }
      ],
      "outputs": [
        {
          "name": "",
          "type": "bool",
          "internalType": "bool"
        }
      ],
      "stateMutability": "view"
    },
    {
      "type": "function",
      "name": "tokenImplementation",
      "inputs": [],
      "outputs": [
        {
          "name": "",
          "type": "address",
          "internalType": "address"
        }
      ],
      "stateMutability": "view"
    },
    {
      "type": "function",
      "name": "trustedForwarder",
      "inputs": [],
      "outputs": [
        {
          "name": "",
          "type": "address",
          "internalType": "address"
        }
      ],
      "stateMutability": "view"
    },
    {
      "type": "function",
      "name": "updateTokenImplementation",
      "inputs": [
        {
          "name": "newImplementation",
          "type": "address",
          "internalType": "address"
        }
      ],
      "outputs": [],
      "stateMutability": "nonpayable"
    },
    {
      "type": "event",
      "name": "FundCreated",
      "inputs": [
        {
          "name": "sender",
          "type": "address",
          "indexed": true,
          "internalType": "address"
        },
        {
          "name": "tokenAddress",
          "type": "address",
          "indexed": true,
          "internalType": "address"
        },
        {
          "name": "name",
          "type": "string",
          "indexed": false,
          "internalType": "string"
        },
        {
          "name": "symbol",
          "type": "string",
          "indexed": false,
          "internalType": "string"
        },
        {
          "name": "decimals",
          "type": "uint8",
          "indexed": false,
          "internalType": "uint8"
        },
        {
          "name": "managementFeeBps",
          "type": "uint24",
          "indexed": false,
          "internalType": "uint24"
        }
      ],
      "anonymous": false
    },
    {
      "type": "event",
      "name": "Initialized",
      "inputs": [
        {
          "name": "version",
          "type": "uint64",
          "indexed": false,
          "internalType": "uint64"
        }
      ],
      "anonymous": false
    },
    {
      "type": "event",
      "name": "RoleAdminChanged",
      "inputs": [
        {
          "name": "role",
          "type": "bytes32",
          "indexed": true,
          "internalType": "bytes32"
        },
        {
          "name": "previousAdminRole",
          "type": "bytes32",
          "indexed": true,
          "internalType": "bytes32"
        },
        {
          "name": "newAdminRole",
          "type": "bytes32",
          "indexed": true,
          "internalType": "bytes32"
        }
      ],
      "anonymous": false
    },
    {
      "type": "event",
      "name": "RoleGranted",
      "inputs": [
        {
          "name": "role",
          "type": "bytes32",
          "indexed": true,
          "internalType": "bytes32"
        },
        {
          "name": "account",
          "type": "address",
          "indexed": true,
          "internalType": "address"
        },
        {
          "name": "sender",
          "type": "address",
          "indexed": true,
          "internalType": "address"
        }
      ],
      "anonymous": false
    },
    {
      "type": "event",
      "name": "RoleRevoked",
      "inputs": [
        {
          "name": "role",
          "type": "bytes32",
          "indexed": true,
          "internalType": "bytes32"
        },
        {
          "name": "account",
          "type": "address",
          "indexed": true,
          "internalType": "address"
        },
        {
          "name": "sender",
          "type": "address",
          "indexed": true,
          "internalType": "address"
        }
      ],
      "anonymous": false
    },
    {
      "type": "event",
      "name": "TokenAssetCreated",
      "inputs": [
        {
          "name": "sender",
          "type": "address",
          "indexed": true,
          "internalType": "address"
        },
        {
          "name": "tokenAddress",
          "type": "address",
          "indexed": true,
          "internalType": "address"
        },
        {
          "name": "tokenIdentity",
          "type": "address",
          "indexed": true,
          "internalType": "address"
        },
        {
          "name": "accessManager",
          "type": "address",
          "indexed": false,
          "internalType": "address"
        }
      ],
      "anonymous": false
    },
    {
      "type": "event",
      "name": "TokenImplementationUpdated",
      "inputs": [
        {
          "name": "sender",
          "type": "address",
          "indexed": true,
          "internalType": "address"
        },
        {
          "name": "oldImplementation",
          "type": "address",
          "indexed": true,
          "internalType": "address"
        },
        {
          "name": "newImplementation",
          "type": "address",
          "indexed": true,
          "internalType": "address"
        }
      ],
      "anonymous": false
    },
    {
      "type": "error",
      "name": "AccessControlBadConfirmation",
      "inputs": []
    },
    {
      "type": "error",
      "name": "AccessControlUnauthorizedAccount",
      "inputs": [
        {
          "name": "account",
          "type": "address",
          "internalType": "address"
        },
        {
          "name": "neededRole",
          "type": "bytes32",
          "internalType": "bytes32"
        }
      ]
    },
    {
      "type": "error",
      "name": "AccessManagerAlreadyDeployed",
      "inputs": [
        {
          "name": "predictedAddress",
          "type": "address",
          "internalType": "address"
        }
      ]
    },
    {
      "type": "error",
      "name": "AddressAlreadyDeployed",
      "inputs": [
        {
          "name": "predictedAddress",
          "type": "address",
          "internalType": "address"
        }
      ]
    },
    {
      "type": "error",
      "name": "Create2EmptyBytecode",
      "inputs": []
    },
    {
      "type": "error",
      "name": "FailedDeployment",
      "inputs": []
    },
    {
      "type": "error",
      "name": "InsufficientBalance",
      "inputs": [
        {
          "name": "balance",
          "type": "uint256",
          "internalType": "uint256"
        },
        {
          "name": "needed",
          "type": "uint256",
          "internalType": "uint256"
        }
      ]
    },
    {
      "type": "error",
      "name": "InvalidIdentityVerificationModuleAddress",
      "inputs": []
    },
    {
      "type": "error",
      "name": "InvalidImplementationAddress",
      "inputs": []
    },
    {
      "type": "error",
      "name": "InvalidInitialization",
      "inputs": []
    },
    {
      "type": "error",
      "name": "InvalidTokenAddress",
      "inputs": []
    },
    {
      "type": "error",
      "name": "NotInitializing",
      "inputs": []
    },
    {
      "type": "error",
      "name": "ProxyCreationFailed",
      "inputs": []
    },
    {
      "type": "error",
      "name": "TokenIdentityAddressMismatch",
      "inputs": [
        {
          "name": "deployedTokenIdentityAddress",
          "type": "address",
          "internalType": "address"
        },
        {
          "name": "tokenIdentityAddress",
          "type": "address",
          "internalType": "address"
        }
      ]
    }
  ],
  "bytecode": {
    "object": "0x60a03461011057601f61296e38819003918201601f19168301916001600160401b038311848410176101145780849260209460405283398101031261011057516001600160a01b0381168103610110576080525f51602061294e5f395f51905f525460ff8160401c16610101576002600160401b03196001600160401b038216016100ab575b60405161282590816101298239608051818181610b6201528181610e1601526119ff0152f35b6001600160401b0319166001600160401b039081175f51602061294e5f395f51905f52556040519081527fc7f505b2f371ae2175ee4913f4499e1f2633a7b5936321eed1cdaeb6115181d290602090a15f610085565b63f92ee8a960e01b5f5260045ffd5b5f80fd5b634e487b7160e01b5f52604160045260245ffdfe6080806040526004361015610012575f80fd5b5f3560e01c90816301ffc9a714610f8c5750806320ff43ad14610f4f578063248a9ca314610f105780632f2ff15d14610ec65780632f3a3d5d14610e9e57806336568abe14610e4a578063572b6c0514610df65780636b9bc3c514610b915780637da0a87714610b4d57806391d1485414610af8578063995087de14610a77578063a217fddf14610a5d578063a4b7914e14610a21578063ba4dd8c7146104e5578063d20dd34914610408578063d547741f146103b75763f8c8765e146100d7575f80fd5b346103b35760803660031901126103b3576100f0610ff9565b6100f861100f565b6044356001600160a01b03811692908381036103b3576064356001600160a01b03811693908490036103b3575f5160206127f95f395f51905f52549460ff8660401c1615956001600160401b038116801590816103ab575b60011490816103a1575b159081610398575b506103895767ffffffffffffffff1981166001175f5160206127f95f395f51905f52558661035d575b501561034e576001600160a01b0316908115806102f7575b6102e85783158015610275575b61026657806101c16101c79261131e565b506113e0565b506001600160601b0360a01b600354161760035560018060a01b03166001600160601b0360a01b60025416176002556001600160601b0360a01b600454161760045561020f57005b68ff0000000000000000195f5160206127f95f395f51905f5254165f5160206127f95f395f51905f52557fc7f505b2f371ae2175ee4913f4499e1f2633a7b5936321eed1cdaeb6115181d2602060405160018152a1005b635bedad7f60e01b5f5260045ffd5b506040516301ffc9a760e01b8152638c30a94360e01b6004820152602081602481885afa9081156102dd575f916102ae575b50156101b0565b6102d0915060203d6020116102d6575b6102c88183611068565b81019061121c565b5f6102a7565b503d6102be565b6040513d5f823e3d90fd5b63325c055b60e21b5f5260045ffd5b506040516301ffc9a760e01b815263074ece2b60e41b6004820152602081602481865afa9081156102dd575f9161032f575b506101a3565b610348915060203d6020116102d6576102c88183611068565b5f610329565b630f58058360e11b5f5260045ffd5b68ffffffffffffffffff191668010000000000000001175f5160206127f95f395f51905f52555f61018b565b63f92ee8a960e01b5f5260045ffd5b9050155f610162565b303b15915061015a565b889150610150565b5f80fd5b346103b35760403660031901126103b3576104066004356103d661100f565b906104016103fc825f525f5160206127d95f395f51905f52602052600160405f20015490565b6112c2565b61156e565b005b346103b35760203660031901126103b357610421610ff9565b6104296119fc565b6001600160a01b0381165f9081527fb7db2dd08fcb62d0c9e08c51941cae53c267786a0b75803fb7960902fc8ef97d602052604090205460ff16156104c757506001600160a01b031680156102e857600380546001600160a01b0319811683179091556001600160a01b03908116906104a06119fc565b167fe1f3806f643d2e258028ad292fef274cc5cd62ffcd3e4cb5052e0fe2f518317d5f80a4005b63e2517d3f60e01b5f5260018060a01b03166004525f60245260445ffd5b346103b35760c03660031901126103b3576004356001600160401b0381116103b3576105159036906004016110ce565b6024356001600160401b0381116103b3576105349036906004016110ce565b906044359060ff82168083036103b3576064359261ffff8416908185036103b357608435906001600160401b0382116103b357366023830112156103b357816004013591610581836110ec565b9261058f6040519485611068565b8084526024602085019160051b830101913683116103b357602401905b828210610a115750505060a435906001600160401b0382116103b357366023830112156103b35781600401356105e1816110ec565b926105ef6040519485611068565b8184526024602085019260051b820101903682116103b35760248101925b82841061098e5750505050610623818988611617565b9661062c611234565b61063d6106376119fc565b89611a55565b94906001600160a01b036106508b611662565b1695865f52600160205260ff60405f20541661097b576001600160a01b03916106799190611b60565b1694850361095957876106df8661072f958d956106bc6106ed96845f52600160205260405f20600160ff198254161790556106b685858b8a6116a4565b9a6117d8565b6106c461191c565b918a6106ce61197c565b946040519a8b993060208c01611127565b03601f198101835282611068565b6107296107c59860405199610705602082018c611068565b808b52611bab60208c0139610718611234565b6002546001600160a01b0316611b2d565b976119bc565b805160208201206001600160a01b039061074b9030908a611b04565b1696875f525f60205260ff60405f205416610968579061076a91611b60565b6001600160a01b038116969092908703610959575f8781526020818152604091829020805460ff191660011790556002549151633c73911160e11b81529491859060049082906001600160a01b03165afa9384156102dd576108099460209284925f9261093a575b506040516355c759ed60e01b81526001600160a01b03918216600482015292166024830152909485919082905f9082906044820190565b03926001600160a01b03165af19283156102dd5760209388915f9161090d575b507fdbc80e56de8f11ba4bcaab7b4d7dafb41edbd27f6dbd16f83a7b92efebed88c26001600160a01b0361085b6119fc565b169160018060a01b0316958694604051908152a46001600160a01b0316908181036108f85760208680897f51b230a36e7a273e4901ae9b972210c1f940e6edb2ab5eb91ef67acda2d425086108d58a8a8a6108e26001600160a01b036108bf6119fc565b1696604051958695608087526080870190611103565b908582038c870152611103565b91604084015260608301520390a3604051908152f35b631a13f74960e11b5f5260045260245260445ffd5b61092d9150853d8711610933575b6109258183611068565b810190611685565b8a610829565b503d61091b565b610952919250843d8611610933576109258183611068565b908c6107d2565b6335279f5d60e21b5f5260045ffd5b8763d0dc594960e01b5f5260045260245ffd5b86631372e33d60e01b5f5260045260245ffd5b83356001600160401b0381116103b357820190604060231983360301126103b357604051916109bc83611039565b6109c860248201611025565b835260448101356001600160401b0381116103b35760249101019036601f830112156103b357602092610a02849336908581359101611089565b8382015281520193019261060d565b81358152602091820191016105ac565b346103b35760203660031901126103b3576001600160a01b03610a42610ff9565b165f525f602052602060ff60405f2054166040519015158152f35b346103b3575f3660031901126103b35760206040515f8152f35b346103b35760203660031901126103b357602460206001600160a01b03610a9c610ff9565b6040516301ffc9a760e01b8152632d3e4c5360e01b600482015293849290918391165afa80156102dd576020915f91610adb575b506040519015158152f35b610af29150823d84116102d6576102c88183611068565b82610ad0565b346103b35760403660031901126103b357610b1161100f565b6004355f525f5160206127d95f395f51905f5260205260405f209060018060a01b03165f52602052602060ff60405f2054166040519015158152f35b346103b3575f3660031901126103b3576040517f00000000000000000000000000000000000000000000000000000000000000006001600160a01b03168152602090f35b346103b35760c03660031901126103b3576004356001600160401b0381116103b357610bc19036906004016110ce565b6024356001600160401b0381116103b357610be09036906004016110ce565b6044359160ff831683036103b3576064359261ffff841684036103b357608435906001600160401b0382116103b357366023830112156103b357816004013591610c29836110ec565b92610c376040519485611068565b8084526024602085019160051b830101913683116103b357602401905b828210610de65750505060a4356001600160401b0381116103b357366023820112156103b3578060040135610c88816110ec565b91610c966040519384611068565b8183526024602084019260051b820101903682116103b35760248101925b828410610d63576020610d518b610d448c610d0c8d6106df8e8e8e610cda828887611617565b98610cfa610ce78b611662565b94610cf486868c8b6116a4565b936117d8565b90610d0361191c565b926106ce61197c565b610d3e6107c59360405194610d2388820187611068565b808652611bab888701396002546001600160a01b0316611b2d565b926119bc565b8051908401203091611b04565b6040516001600160a01b039091168152f35b83356001600160401b0381116103b357820190604060231983360301126103b35760405191610d9183611039565b610d9d60248201611025565b835260448101356001600160401b0381116103b35760249101019036601f830112156103b357602092610dd7849336908581359101611089565b83820152815201930192610cb4565b8135815260209182019101610c54565b346103b35760203660031901126103b3576020610e11610ff9565b6040517f00000000000000000000000000000000000000000000000000000000000000006001600160a01b039081169216919091148152f35b346103b35760403660031901126103b357610e6361100f565b6001600160a01b03610e736119fc565b166001600160a01b03821603610e8f576104069060043561156e565b63334bd91960e11b5f5260045ffd5b346103b3575f3660031901126103b3576003546040516001600160a01b039091168152602090f35b346103b35760403660031901126103b357610406600435610ee561100f565b90610f0b6103fc825f525f5160206127d95f395f51905f52602052600160405f20015490565b6114bd565b346103b35760203660031901126103b3576020610f476004355f525f5160206127d95f395f51905f52602052600160405f20015490565b604051908152f35b346103b35760203660031901126103b3576001600160a01b03610f70610ff9565b165f526001602052602060ff60405f2054166040519015158152f35b346103b35760203660031901126103b3576004359063ffffffff60e01b82168092036103b357602091634ea2ccdd60e01b8114908115610fce575b5015158152f35b637965db0b60e01b811491508115610fe8575b5083610fc7565b6301ffc9a760e01b14905083610fe1565b600435906001600160a01b03821682036103b357565b602435906001600160a01b03821682036103b357565b35906001600160a01b03821682036103b357565b604081019081106001600160401b0382111761105457604052565b634e487b7160e01b5f52604160045260245ffd5b90601f801991011681019081106001600160401b0382111761105457604052565b9291926001600160401b03821161105457604051916110b2601f8201601f191660200184611068565b8294818452818301116103b3578281602093845f960137010152565b9080601f830112156103b3578160206110e993359101611089565b90565b6001600160401b0381116110545760051b60200190565b805180835260209291819084018484015e5f828201840152601f01601f1916010190565b979996949161ffff949b99969361115b6111699260ff9460018060a01b03168c5261014060208d01526101408c0190611103565b908a820360408c0152611103565b9a1660608801526001600160a01b031660808701521660a085015283870360c085015280518088526020600582901b8901810192810191905f908a015b8282106111d857505050506001600160a01b0395861660e0850152908516610100840152931661012090910152909150565b9091929360208061120e6001938e601f199082030186526040838a51878060a01b03815116845201519181858201520190611103565b9601920192019092916111a6565b908160209103126103b3575180151581036103b35790565b61123c6119fc565b6001600160a01b0381165f9081527f8f7e9a8734279607aeaac474f24949ddc99eae25c0da72edcf5ad21022be2c9e602052604090205460ff161561127e5750565b63e2517d3f60e01b5f9081526001600160a01b03919091166004527ffc425f2263d0df187444b70e47283d622c70181c5baebb1306a01edba1ce184c602452604490fd5b6112ca6119fc565b815f525f5160206127d95f395f51905f5260205260405f2060018060a01b0382165f5260205260ff60405f20541615611301575050565b63e2517d3f60e01b5f5260018060a01b031660045260245260445ffd5b6001600160a01b0381165f9081527fb7db2dd08fcb62d0c9e08c51941cae53c267786a0b75803fb7960902fc8ef97d602052604090205460ff166113db576001600160a01b038181165f9081527fb7db2dd08fcb62d0c9e08c51941cae53c267786a0b75803fb7960902fc8ef97d60205260409020805460ff191660011790556113a66119fc565b16906001600160a01b03165f7f2f8788117e7eff1d82e926ec794901d17c78024a50270940304540a733656f0d8180a4600190565b505f90565b6001600160a01b0381165f9081527f8f7e9a8734279607aeaac474f24949ddc99eae25c0da72edcf5ad21022be2c9e602052604090205460ff166113db576001600160a01b038181165f9081527f8f7e9a8734279607aeaac474f24949ddc99eae25c0da72edcf5ad21022be2c9e60205260409020805460ff191660011790556114686119fc565b16906001600160a01b03167ffc425f2263d0df187444b70e47283d622c70181c5baebb1306a01edba1ce184c7f2f8788117e7eff1d82e926ec794901d17c78024a50270940304540a733656f0d5f80a4600190565b5f8181525f5160206127d95f395f51905f52602090815260408083206001600160a01b038616845290915290205460ff16611568575f8181525f5160206127d95f395f51905f52602090815260408083206001600160a01b0386811685529252909120805460ff191660011790556115336119fc565b16916001600160a01b0316907f2f8788117e7eff1d82e926ec794901d17c78024a50270940304540a733656f0d5f80a4600190565b50505f90565b5f8181525f5160206127d95f395f51905f52602090815260408083206001600160a01b038616845290915290205460ff1615611568575f8181525f5160206127d95f395f51905f52602090815260408083206001600160a01b0386811685529252909120805460ff191690556115e26119fc565b16916001600160a01b0316907ff6391f5c32d9c69d2a47ea670b442974b53935d1edc7fd64eb21e047a839171b5f80a4600190565b61163b9260ff61164d6110e994604051968795606060208801526080870190611103565b858103601f1901604087015290611103565b9116606083015203601f198101835282611068565b6116776110e9916116716119fc565b90611a55565b602081519101203091611b04565b908160209103126103b357516001600160a01b03811681036103b35790565b600254604051633c73911160e11b815293949190602090859060049082906001600160a01b03165afa9081156102dd57611721956020955f93611769575b5061170f929360ff60405198899788968796637a3f5df760e11b8852608060048901526084880190611103565b86810360031901602488015290611103565b921660448401526001600160a01b03908116606484015291900392165afa9081156102dd575f91611750575090565b6110e9915060203d602011610933576109258183611068565b61170f935061178490873d8911610933576109258183611068565b926116e2565b6040519061179782611039565b60606020835f81520152565b8051156117b05760200190565b634e487b7160e01b5f52603260045260245ffd5b80518210156117b05760209160051b010190565b80516001810193929084106118d4576117f0846110ec565b936117fe6040519586611068565b80855261180d601f19916110ec565b015f5b81811061190557505061182161178a565b5060018060a01b0360045416906040519081604081019160208083015280518093526020606083019101925f5b8181106118ec57505061186a925003601f198101835282611068565b6040519161187783611039565b82526020820152611887846117a3565b52611891836117a3565b505f5b81518110156118e8576118a781836117c4565b519060018101918282116118d457826118cd916118c6600195896117c4565b52866117c4565b5001611894565b634e487b7160e01b5f52601160045260245ffd5b5050565b845183526020948501948694509092019160010161184e565b60209061191061178a565b82828901015201611810565b60025460405163d62def8f60e01b815290602090829060049082906001600160a01b03165afa9081156102dd575f9161195d575b506001600160a01b031690565b611976915060203d602011610933576109258183611068565b5f611950565b6002546040516398468e5160e01b815290602090829060049082906001600160a01b03165afa9081156102dd575f9161195d57506001600160a01b031690565b6119fa906020808095946040519684889551918291018487015e8401908282015f8152815193849201905e01015f815203601f198101845283611068565b565b337f00000000000000000000000000000000000000000000000000000000000000006001600160a01b03161480611a4a575b15611a465760131936013681116118d4573560601c90565b3390565b506014361015611a2e565b91906110e990611ae160018060a01b036002541694604051611ab5816106df60208201948a86526060604084015260116080840152701058d8d95cdcd3585b9859d95c94d85b1d607a1b60a084015260a0606084015260c0830190611103565b519020604080516001600160a01b039788166020820152939096169583019590955281606081016106df565b604051610469611af46020820183611068565b80825261237060208301396119bc565b91600b92604051926040840152602083015281520160ff8153605590206001600160a01b031690565b90611b5a6106df91604051928391602083019560018060a01b031686526040808401526060830190611103565b51902090565b90805115611b9b576020815191015ff5903d15198215166102dd576001600160a01b03821615611b8c57565b63b06ebf3d60e01b5f5260045ffd5b631328927760e21b5f5260045ffdfe60806040526107c58038038091610015826100ff565b6080396101408160800191126100e75761002d610168565b60a0516001600160401b0381116100e7578261004b916080016101e3565b60c0516001600160401b0381116100e75783610069916080016101e3565b61007360e0610200565b61007e61010061017e565b61008961012061020e565b610140519091906001600160401b0381116100e7576100d8976100ae9160800161021d565b926100ba61016061017e565b946100c661018061017e565b966100d26101a061017e565b98610412565b604051610149908161065c8239f35b5f80fd5b634e487b7160e01b5f52604160045260245ffd5b6080601f91909101601f19168101906001600160401b0382119082101761012557604052565b6100eb565b604081019081106001600160401b0382111761012557604052565b601f909101601f19168101906001600160401b0382119082101761012557604052565b608051906001600160a01b03821682036100e757565b51906001600160a01b03821682036100e757565b6001600160401b03811161012557601f01601f191660200190565b9291926101b982610192565b916101c76040519384610145565b8294818452818301116100e7578281602093845f96015e010152565b9080601f830112156100e75781516101fd926020016101ad565b90565b519060ff821682036100e757565b519061ffff821682036100e757565b9080601f830112156100e7578151916001600160401b038311610125578260051b91604051936102506020850186610145565b8452602080850193830101918183116100e75760208101935b83851061027857505050505090565b84516001600160401b0381116100e7578201906040828503601f1901126100e757604051916102a68361012a565b6102b26020820161017e565b835260408101516001600160401b0381116100e75760209101019084601f830112156100e7576020926102eb86848680965191016101ad565b83820152815201940193610269565b805180835260209291819084018484015e5f828201840152601f01601f1916010190565b9699989795949161035260ff9161034461ffff9697946101208c526101208c01906102fa565b908a820360208c01526102fa565b941660408801526001600160a01b0316606087015216608085015283810360a085015281518082526020600582901b83018101938101925f918101905b8383106103cd57505050506001600160a01b0396871660c085015250941660e08201526103cb9190610100906001600160a01b03909216910152565b565b9091929394602080610403600193601f198682030187526040838b51878060a01b038151168452015191818582015201906102fa565b9701930193019193929061038f565b939598929690949897919760018060a01b03851680159081156104bd575b506104ae576103cb996104a99761047661049b9760018060a01b031660018060a01b03195f5160206107a55f395f51905f525416175f5160206107a55f395f51905f5255565b61047e610552565b996040519b8c9963224b383d60e21b60208c015260248b0161031e565b03601f198101845283610145565b6105ee565b63fd360a1d60e01b5f5260045ffd5b6040516301ffc9a760e01b8152634ea2ccdd60e01b60048201529150602090829060249082905afa90811561052a575f916104fb575b50155f610430565b61051d915060203d602011610523575b6105158183610145565b81019061052f565b5f6104f3565b503d61050b565b610547565b908160209103126100e7575180151581036100e75790565b6040513d5f823e3d90fd5b5f5160206107a55f395f51905f5254604051632f3a3d5d60e01b815290602090829060049082906001600160a01b03165afa90811561052a575f916105b4575b506001600160a01b038116156105a55790565b63daa2f31f60e01b5f5260045ffd5b90506020813d6020116105e6575b816105cf60209383610145565b810103126100e7576105e09061017e565b5f610592565b3d91506105c2565b6001600160a01b0381161561064c57815f929160208493519201905af43d15610644573d9061061c82610192565b9161062a6040519384610145565b82523d5f602084013e5b1561063c5750565b602081519101fd5b606090610634565b63ee0a129760e01b5f5260045ffdfe608060405236156100a8577f1515746737424785433e0dda020fe774d11e0fab6d980530d355fada133c3c705460209060809060049082906001600160a01b0316632f3a3d5d60e01b82525afa80156100a3575f90610076575b6001600160a01b03811661011f5763daa2f31f60e01b5f5260045ffd5b5060203d60201161009c575b8061008f610097926100b7565b6080016100ee565b610059565b503d610082565b610114565b635d82995b60e01b5f5260045ffd5b601f80199101166080016080811067ffffffffffffffff8211176100da57604052565b634e487b7160e01b5f52604160045260245ffd5b602090607f190112610110576080516001600160a01b03811681036101105790565b5f80fd5b6040513d5f823e3d90fd5b5f8091368280378136915af43d5f803e15610138573d5ff35b3d5ffdfea164736f6c634300081c000a1515746737424785433e0dda020fe774d11e0fab6d980530d355fada133c3c70608060405234610171576040610469803803809161001c82610189565b608039126101715761002c6101d7565b61003660a06101ed565b906001600160a01b03811680159081156100ff575b506100f0577f4ec051ecf420fd16e0db567197da76ec7f1f5f47763970d604b97e75cb0064d380546001600160a01b0319166001600160a01b039290921691821790556100e1916100ce916100dc906100a390610224565b60405163189acdbd60e31b60208201526001600160a01b039093166024840152919283906044820190565b03601f1981018452836101b4565b6102b1565b60405161013b908161032e8239f35b633f997a3760e01b5f5260045ffd5b6040516301ffc9a760e01b8152633d1b15b560e21b60048201529150602090829060249082905afa90811561016c575f9161013d575b50155f61004b565b61015f915060203d602011610165575b61015781836101b4565b810190610201565b5f610135565b503d61014d565b610219565b5f80fd5b634e487b7160e01b5f52604160045260245ffd5b6080601f91909101601f19168101906001600160401b038211908210176101af57604052565b610175565b601f909101601f19168101906001600160401b038211908210176101af57604052565b608051906001600160a01b038216820361017157565b51906001600160a01b038216820361017157565b90816020910312610171575180151581036101715790565b6040513d5f823e3d90fd5b6040516344eecc1760e01b815290602090829060049082906001600160a01b03165afa90811561016c575f91610277575b506001600160a01b038116156102685790565b63099d3e0360e21b5f5260045ffd5b90506020813d6020116102a9575b81610292602093836101b4565b81010312610171576102a3906101ed565b5f610255565b3d9150610285565b6001600160a01b0381161561031e57815f929160208493519201905af43d15610316573d906001600160401b0382116101af57604051916102fc601f8201601f1916602001846101b4565b82523d5f602084013e5b1561030e5750565b602081519101fd5b606090610306565b63ee0a129760e01b5f5260045ffdfe608060405236156100dc577f4ec051ecf420fd16e0db567197da76ec7f1f5f47763970d604b97e75cb0064d3546344eecc1760e01b608090815260209160049082906001600160a01b03165afa80156100d1575f90610076575b6001600160a01b0381166100eb5763099d3e0360e21b5f5260045ffd5b5060203d6020116100ca575b601f19601f820116608001906080821067ffffffffffffffff8311176100b6576100b191604052608001610108565b610059565b634e487b7160e01b5f52604160045260245ffd5b503d610082565b6040513d5f823e3d90fd5b635d82995b60e01b5f5260045ffd5b5f8091368280378136915af43d5f803e15610104573d5ff35b3d5ffd5b602090607f19011261012a576080516001600160a01b038116810361012a5790565b5f80fdfea164736f6c634300081c000a02dd7bc7dec4dceedda775e58dd541e08a116c6c53815c0bd028192f7b626800f0c57e16840df040f15088dc2f81fe391c3923bec73e23a9662efc9c229c6a00a164736f6c634300081c000af0c57e16840df040f15088dc2f81fe391c3923bec73e23a9662efc9c229c6a00",
    "linkReferences": {}
  },
  "methodIdentifiers": {
    "DEFAULT_ADMIN_ROLE()": "a217fddf",
    "createFund(string,string,uint8,uint16,uint256[],(address,bytes)[])": "ba4dd8c7",
    "getRoleAdmin(bytes32)": "248a9ca3",
    "grantRole(bytes32,address)": "2f2ff15d",
    "hasRole(bytes32,address)": "91d14854",
    "initialize(address,address,address,address)": "f8c8765e",
    "isFactoryAccessManager(address)": "20ff43ad",
    "isFactoryToken(address)": "a4b7914e",
    "isTrustedForwarder(address)": "572b6c05",
    "isValidTokenImplementation(address)": "995087de",
    "predictFundAddress(string,string,uint8,uint16,uint256[],(address,bytes)[])": "6b9bc3c5",
    "renounceRole(bytes32,address)": "36568abe",
    "revokeRole(bytes32,address)": "d547741f",
    "supportsInterface(bytes4)": "01ffc9a7",
    "tokenImplementation()": "2f3a3d5d",
    "trustedForwarder()": "7da0a877",
    "updateTokenImplementation(address)": "d20dd349"
  },
  "userdoc": {
    "version": 1,
    "kind": "user",
    "methods": {
      "constructor": {
        "notice": "Constructor for the ATKFundFactoryImplementation."
      },
      "createFund(string,string,uint8,uint16,uint256[],(address,bytes)[])": {
        "notice": "Creates a new ATK Fund."
      },
      "initialize(address,address,address,address)": {
        "notice": "Initializes the token registry."
      },
      "isFactoryAccessManager(address)": {
        "notice": "Mapping indicating whether an access manager address was deployed by this factory."
      },
      "isFactoryToken(address)": {
        "notice": "Mapping indicating whether a token address was deployed by this factory."
      },
      "isValidTokenImplementation(address)": {
        "notice": "Checks if a given address implements the ISMARTFund interface."
      },
      "predictFundAddress(string,string,uint8,uint16,uint256[],(address,bytes)[])": {
        "notice": "Predicts the deployment address of a ATKFundProxy contract."
      },
      "tokenImplementation()": {
        "notice": "Returns the address of the token implementation contract."
      },
      "updateTokenImplementation(address)": {
        "notice": "Updates the address of the token implementation contract."
      }
    },
    "events": {
      "FundCreated(address,address,string,string,uint8,uint24)": {
        "notice": "Emitted when a new fund is created."
      },
      "TokenAssetCreated(address,address,address,address)": {
        "notice": "Emitted when a new proxy contract is created using CREATE2."
      },
      "TokenImplementationUpdated(address,address,address)": {
        "notice": "Emitted when the token implementation address is updated."
      }
    },
    "errors": {
      "AccessManagerAlreadyDeployed(address)": [
        {
          "notice": "Error when a predicted CREATE2 address for an access manager is already marked as deployed by this factory."
        }
      ],
      "AddressAlreadyDeployed(address)": [
        {
          "notice": "Error when a CREATE2 proxy deployment fails."
        }
      ],
      "InvalidIdentityVerificationModuleAddress()": [
        {
          "notice": "Error when the provided identity verification module address is the zero address."
        }
      ],
      "InvalidImplementationAddress()": [
        {
          "notice": "Error for attempting to unregister a token that is not registered."
        }
      ],
      "InvalidTokenAddress()": [
        {
          "notice": "Custom errors for the factory contract"
        }
      ],
      "ProxyCreationFailed()": [
        {
          "notice": "Error for when the provided token implementation address is the zero address."
        }
      ],
      "TokenIdentityAddressMismatch(address,address)": [
        {
          "notice": "Error when a token identity address mismatch is detected."
        }
      ]
    },
    "notice": "This contract is responsible for creating instances of ATK Funds."
  },
  "devdoc": {
    "version": 1,
    "kind": "dev",
    "methods": {
      "constructor": {
        "params": {
          "forwarder": "The address of the trusted forwarder for meta-transactions."
        }
      },
      "createFund(string,string,uint8,uint16,uint256[],(address,bytes)[])": {
        "params": {
          "decimals_": "The number of decimals for the fund tokens.",
          "initialModulePairs_": "An array of initial compliance module and parameter pairs.",
          "managementFeeBps_": "The management fee in basis points.",
          "name_": "The name of the fund.",
          "requiredClaimTopics_": "An array of claim topics required for interacting with the fund.",
          "symbol_": "The symbol of the fund."
        },
        "returns": {
          "deployedFundAddress": "The address of the newly deployed fund contract."
        }
      },
      "getRoleAdmin(bytes32)": {
        "details": "Returns the admin role that controls `role`. See {grantRole} and {revokeRole}. To change a role's admin, use {_setRoleAdmin}."
      },
      "grantRole(bytes32,address)": {
        "details": "Grants `role` to `account`. If `account` had not been already granted `role`, emits a {RoleGranted} event. Requirements: - the caller must have ``role``'s admin role. May emit a {RoleGranted} event."
      },
      "hasRole(bytes32,address)": {
        "details": "Returns `true` if `account` has been granted `role`."
      },
      "initialize(address,address,address,address)": {
        "params": {
          "identityVerificationModule": "The address of the identity verification module.",
          "initialAdmin": "The address to be granted the DEFAULT_ADMIN_ROLE and DEPLOYER_ROLE.",
          "systemAddress": "The address of the `IATKSystem` contract.",
          "tokenImplementation_": "The initial address of the token implementation contract."
        }
      },
      "isTrustedForwarder(address)": {
        "details": "Indicates whether any particular address is the trusted forwarder."
      },
      "isValidTokenImplementation(address)": {
        "params": {
          "tokenImplementation_": "The address of the contract to check."
        },
        "returns": {
          "_0": "bool True if the contract supports the ISMARTFund interface, false otherwise."
        }
      },
      "predictFundAddress(string,string,uint8,uint16,uint256[],(address,bytes)[])": {
        "params": {
          "decimals_": "The decimals of the fund.",
          "initialModulePairs_": "The initial compliance module pairs for the fund.",
          "managementFeeBps_": "The management fee in basis points for the fund.",
          "name_": "The name of the fund.",
          "requiredClaimTopics_": "The required claim topics for the fund.",
          "symbol_": "The symbol of the fund."
        },
        "returns": {
          "predictedAddress": "The predicted address of the fund contract."
        }
      },
      "renounceRole(bytes32,address)": {
        "details": "Revokes `role` from the calling account. Roles are often managed via {grantRole} and {revokeRole}: this function's purpose is to provide a mechanism for accounts to lose their privileges if they are compromised (such as when a trusted device is misplaced). If the calling account had been revoked `role`, emits a {RoleRevoked} event. Requirements: - the caller must be `callerConfirmation`. May emit a {RoleRevoked} event."
      },
      "revokeRole(bytes32,address)": {
        "details": "Revokes `role` from `account`. If `account` had been granted `role`, emits a {RoleRevoked} event. Requirements: - the caller must have ``role``'s admin role. May emit a {RoleRevoked} event."
      },
      "tokenImplementation()": {
        "returns": {
          "_0": "tokenImplementation The address of the token implementation contract."
        }
      },
      "trustedForwarder()": {
        "details": "Returns the address of the trusted forwarder."
      },
      "updateTokenImplementation(address)": {
        "details": "This function can only be called by an account with the DEFAULT_ADMIN_ROLE.      It allows changing the underlying contract that handles token logic.      Emits a {TokenImplementationUpdated} event on success.",
        "params": {
          "newImplementation": "The new address for the token implementation contract. Cannot be the zero address."
        }
      }
    },
    "events": {
      "FundCreated(address,address,string,string,uint8,uint24)": {
        "params": {
          "decimals": "The number of decimals for the fund tokens.",
          "managementFeeBps": "The management fee in basis points.",
          "name": "The name of the fund.",
          "sender": "The address of the sender.",
          "symbol": "The symbol of the fund.",
          "tokenAddress": "The address of the newly created token."
        }
      },
      "Initialized(uint64)": {
        "details": "Triggered when the contract has been initialized or reinitialized."
      },
      "RoleAdminChanged(bytes32,bytes32,bytes32)": {
        "details": "Emitted when `newAdminRole` is set as ``role``'s admin role, replacing `previousAdminRole` `DEFAULT_ADMIN_ROLE` is the starting admin for all roles, despite {RoleAdminChanged} not being emitted to signal this."
      },
      "RoleGranted(bytes32,address,address)": {
        "details": "Emitted when `account` is granted `role`. `sender` is the account that originated the contract call. This account bears the admin role (for the granted role). Expected in cases where the role was granted using the internal {AccessControl-_grantRole}."
      },
      "RoleRevoked(bytes32,address,address)": {
        "details": "Emitted when `account` is revoked `role`. `sender` is the account that originated the contract call:   - if using `revokeRole`, it is the admin role bearer   - if using `renounceRole`, it is the role bearer (i.e. `account`)"
      },
      "TokenAssetCreated(address,address,address,address)": {
        "params": {
          "accessManager": "The address of the access manager.",
          "sender": "The address of the sender.",
          "tokenAddress": "The address of the newly created token.",
          "tokenIdentity": "The address of the token identity."
        }
      },
      "TokenImplementationUpdated(address,address,address)": {
        "params": {
          "newImplementation": "The address of the new token implementation.",
          "oldImplementation": "The address of the old token implementation."
        }
      }
    },
    "errors": {
      "AccessControlBadConfirmation()": [
        {
          "details": "The caller of a function is not the expected one. NOTE: Don't confuse with {AccessControlUnauthorizedAccount}."
        }
      ],
      "AccessControlUnauthorizedAccount(address,bytes32)": [
        {
          "details": "The `account` is missing a role."
        }
      ],
      "Create2EmptyBytecode()": [
        {
          "details": "There's no code to deploy."
        }
      ],
      "FailedDeployment()": [
        {
          "details": "The deployment failed."
        }
      ],
      "InsufficientBalance(uint256,uint256)": [
        {
          "details": "The ETH balance of the account is not enough to perform the operation."
        }
      ],
      "InvalidInitialization()": [
        {
          "details": "The contract is already initialized."
        }
      ],
      "InvalidTokenAddress()": [
        {
          "details": "Defines custom error types used by the contract for various failure conditions."
        }
      ],
      "NotInitializing()": [
        {
          "details": "The contract is not initializing."
        }
      ]
    },
    "title": "Implementation of the ATK Fund Factory"
  },
  "id": 17
}