{
  "abi": [
    {
      "type": "constructor",
      "inputs": [
        {
          "name": "vestingDuration_",
          "type": "uint256",
          "internalType": "uint256"
        },
        {
          "name": "cliffDuration_",
          "type": "uint256",
          "internalType": "uint256"
        }
      ],
      "stateMutability": "nonpayable"
    },
    {
      "type": "function",
      "name": "_cliffDuration",
      "inputs": [],
      "outputs": [
        {
          "name": "",
          "type": "uint256",
          "internalType": "uint256"
        }
      ],
      "stateMutability": "view"
    },
    {
      "type": "function",
      "name": "_vestingDuration",
      "inputs": [],
      "outputs": [
        {
          "name": "",
          "type": "uint256",
          "internalType": "uint256"
        }
      ],
      "stateMutability": "view"
    },
    {
      "type": "function",
      "name": "calculateClaimableAmount",
      "inputs": [
        {
          "name": "account",
          "type": "address",
          "internalType": "address"
        },
        {
          "name": "totalAmount",
          "type": "uint256",
          "internalType": "uint256"
        },
        {
          "name": "vestingStartTime",
          "type": "uint256",
          "internalType": "uint256"
        },
        {
          "name": "claimedAmount",
          "type": "uint256",
          "internalType": "uint256"
        }
      ],
      "outputs": [
        {
          "name": "claimableAmount",
          "type": "uint256",
          "internalType": "uint256"
        }
      ],
      "stateMutability": "view"
    },
    {
      "type": "function",
      "name": "cliffDuration",
      "inputs": [],
      "outputs": [
        {
          "name": "",
          "type": "uint256",
          "internalType": "uint256"
        }
      ],
      "stateMutability": "view"
    },
    {
      "type": "function",
      "name": "supportsMultipleClaims",
      "inputs": [],
      "outputs": [
        {
          "name": "supportsMultiple",
          "type": "bool",
          "internalType": "bool"
        }
      ],
      "stateMutability": "pure"
    },
    {
      "type": "function",
      "name": "vestingDuration",
      "inputs": [],
      "outputs": [
        {
          "name": "",
          "type": "uint256",
          "internalType": "uint256"
        }
      ],
      "stateMutability": "view"
    },
    {
      "type": "error",
      "name": "CliffExceedsVestingDuration",
      "inputs": []
    },
    {
      "type": "error",
      "name": "InvalidVestingDuration",
      "inputs": []
    }
  ],
  "bytecode": {
    "object": "0x60c0346100a457601f6102e438819003918201601f19168301916001600160401b038311848410176100a85780849260409485528339810103126100a45760208151910151908015610095578082116100865760805260a05260405161022790816100bd823960805181818160d9015261018c015260a05181818161011301526101650152f35b63fc1a94fb60e01b5f5260045ffd5b632b39f6cb60e01b5f5260045ffd5b5f80fd5b634e487b7160e01b5f52604160045260245ffdfe60806040526004361015610011575f80fd5b5f3560e01c80630289943d146100c257806307a297ab146100845780631514617e1461007f578063d85349f71461005b578063f826851a146100605763fcfb21b91461005b575f80fd5b6100fc565b3461007b575f36600319011261007b57602060405160018152f35b5f80fd5b6100c2565b3461007b57608036600319011261007b576004356001600160a01b0381160361007b5760206100ba606435604435602435610157565b604051908152f35b3461007b575f36600319011261007b5760206040517f00000000000000000000000000000000000000000000000000000000000000008152f35b3461007b575f36600319011261007b5760206040517f00000000000000000000000000000000000000000000000000000000000000008152f35b9190820391821161014357565b634e487b7160e01b5f52601160045260245ffd5b91906101639042610136565b7f00000000000000000000000000000000000000000000000000000000000000008110610213577f0000000000000000000000000000000000000000000000000000000000000000908181106101e2575050815b8083116101da575b50808211156101d4576101d191610136565b90565b50505f90565b91505f6101bf565b8084029084820414841517156101435781156101ff5704916101b7565b634e487b7160e01b5f52601260045260245ffd5b5050505f9056fea164736f6c634300081c000a",
    "linkReferences": {}
  },
  "methodIdentifiers": {
    "_cliffDuration()": "fcfb21b9",
    "_vestingDuration()": "0289943d",
    "calculateClaimableAmount(address,uint256,uint256,uint256)": "07a297ab",
    "cliffDuration()": "d85349f7",
    "supportsMultipleClaims()": "f826851a",
    "vestingDuration()": "1514617e"
  },
  "userdoc": {
    "version": 1,
    "kind": "user",
    "methods": {
      "_cliffDuration()": {
        "notice": "The cliff duration before any tokens can be claimed, in seconds."
      },
      "_vestingDuration()": {
        "notice": "The total duration of the vesting period in seconds."
      },
      "calculateClaimableAmount(address,uint256,uint256,uint256)": {
        "notice": "Calculates the amount claimable based on linear vesting parameters."
      },
      "cliffDuration()": {
        "notice": "Returns the cliff duration."
      },
      "constructor": {
        "notice": "Initializes the linear vesting strategy with specified parameters."
      },
      "supportsMultipleClaims()": {
        "notice": "Returns whether this strategy supports multiple claims over time."
      },
      "vestingDuration()": {
        "notice": "Returns the total vesting duration."
      }
    },
    "errors": {
      "CliffExceedsVestingDuration()": [
        {
          "notice": "Error indicating that the cliff duration exceeds the vesting duration."
        }
      ],
      "InvalidVestingDuration()": [
        {
          "notice": "Error indicating that an invalid vesting duration was provided."
        }
      ]
    },
    "notice": "Implementation of a linear vesting calculation strategy for ATK airdrop contracts."
  },
  "devdoc": {
    "version": 1,
    "kind": "dev",
    "author": "SettleMint Tokenization Services",
    "details": "This contract implements stateless linear vesting calculations with configurable duration and cliff.      The vesting parameters (duration, cliff) are set at deployment and cannot be changed.      It holds no state about users; all user-specific data is passed in during calculations.",
    "methods": {
      "calculateClaimableAmount(address,uint256,uint256,uint256)": {
        "details": "Implements linear vesting with optional cliff period. No tokens are claimable before cliff.      After cliff, tokens vest linearly until the full vesting duration is reached.",
        "params": {
          "account": "The address of the claimant (unused in this strategy but required by interface).",
          "claimedAmount": "The amount already claimed for this specific index.",
          "totalAmount": "The total allocation for the specific index being claimed.",
          "vestingStartTime": "The timestamp when vesting started for this allocation."
        },
        "returns": {
          "claimableAmount": "The amount that can be claimed now."
        }
      },
      "cliffDuration()": {
        "returns": {
          "_0": "The cliff duration in seconds."
        }
      },
      "constructor": {
        "details": "Sets the vesting duration and cliff duration. Both are immutable after deployment.",
        "params": {
          "cliffDuration_": "The initial cliff duration in seconds (must be <= vestingDuration_).",
          "vestingDuration_": "The total vesting duration in seconds (must be > 0)."
        }
      },
      "supportsMultipleClaims()": {
        "details": "Linear vesting requires multiple claims as tokens become available gradually.",
        "returns": {
          "supportsMultiple": "Always true for linear vesting strategy."
        }
      },
      "vestingDuration()": {
        "returns": {
          "_0": "The vesting duration in seconds."
        }
      }
    },
    "title": "ATK Linear Vesting Strategy"
  },
  "id": 128
}