{
  "abi": [
    {
      "type": "function",
      "name": "CUSTODIAN_ROLE",
      "inputs": [],
      "outputs": [
        {
          "name": "",
          "type": "bytes32",
          "internalType": "bytes32"
        }
      ],
      "stateMutability": "view"
    },
    {
      "type": "function",
      "name": "DEFAULT_ADMIN_ROLE",
      "inputs": [],
      "outputs": [
        {
          "name": "",
          "type": "bytes32",
          "internalType": "bytes32"
        }
      ],
      "stateMutability": "view"
    },
    {
      "type": "function",
      "name": "EMERGENCY_ROLE",
      "inputs": [],
      "outputs": [
        {
          "name": "",
          "type": "bytes32",
          "internalType": "bytes32"
        }
      ],
      "stateMutability": "view"
    },
    {
      "type": "function",
      "name": "SUPPLY_MANAGEMENT_ROLE",
      "inputs": [],
      "outputs": [
        {
          "name": "",
          "type": "bytes32",
          "internalType": "bytes32"
        }
      ],
      "stateMutability": "view"
    },
    {
      "type": "function",
      "name": "TOKEN_GOVERNANCE_ROLE",
      "inputs": [],
      "outputs": [
        {
          "name": "",
          "type": "bytes32",
          "internalType": "bytes32"
        }
      ],
      "stateMutability": "view"
    }
  ],
  "bytecode": {
    "object": "0x6080806040523460195761014b908161001e823930815050f35b5f80fdfe6080806040526004361015610012575f80fd5b5f3560e01c90816320df43591461010b575080639933de0f146100d6578063a217fddf146100c1578063b4ccc7121461008c5763c79445d014610053575f80fd5b5f3660031901126100885760206040517fe28434228950b641dbbc0178de89daa359a87c6ee0d8399aeace52a98fe902b98152f35b5f80fd5b5f3660031901126100885760206040517fb56f7a452f9fa4c6b1640d0352eff0d678b9d7c7618b4f73815657069f341e668152f35b5f3660031901126100885760206040515f8152f35b5f3660031901126100885760206040517f47b7a6ef32f924153c4c0c2f871f8856bd114b4903c167827ef0f0694c583e278152f35b5f36600319011261008857807fbf233dd2aafeb4d50879c4aa5c81e96d92f6e6945c906a58f9f2d1c1631b4b2660209252f3fea164736f6c634300081c000a",
    "linkReferences": {}
  },
  "methodIdentifiers": {
    "CUSTODIAN_ROLE()": "c79445d0",
    "DEFAULT_ADMIN_ROLE()": "a217fddf",
    "EMERGENCY_ROLE()": "20df4359",
    "SUPPLY_MANAGEMENT_ROLE()": "9933de0f",
    "TOKEN_GOVERNANCE_ROLE()": "b4ccc712"
  },
  "userdoc": {
    "version": 1,
    "kind": "user",
    "methods": {
      "CUSTODIAN_ROLE()": {
        "notice": "Role for custodial operations including freezing accounts, forced transfers, and recovery"
      },
      "DEFAULT_ADMIN_ROLE()": {
        "notice": "The default admin role that can grant and revoke other roles"
      },
      "EMERGENCY_ROLE()": {
        "notice": "Role for emergency operations including pausing the contract and ERC20 recovery"
      },
      "SUPPLY_MANAGEMENT_ROLE()": {
        "notice": "Role for managing token supply operations"
      },
      "TOKEN_GOVERNANCE_ROLE()": {
        "notice": "Role for managing token governance, verification, and compliance"
      }
    },
    "notice": "Library defining role constants for the ATK protocol's access control system"
  },
  "devdoc": {
    "version": 1,
    "kind": "dev",
    "details": "These roles are used with OpenZeppelin's AccessControl contract",
    "title": "ATKRoles"
  },
  "id": 6
}