{
  "abi": [
    {
      "type": "constructor",
      "inputs": [
        {
          "name": "forwarder_",
          "type": "address",
          "internalType": "address"
        }
      ],
      "stateMutability": "nonpayable"
    },
    {
      "type": "function",
      "name": "DEFAULT_ADMIN_ROLE",
      "inputs": [],
      "outputs": [
        {
          "name": "",
          "type": "bytes32",
          "internalType": "bytes32"
        }
      ],
      "stateMutability": "view"
    },
    {
      "type": "function",
      "name": "UPGRADE_INTERFACE_VERSION",
      "inputs": [],
      "outputs": [
        {
          "name": "",
          "type": "string",
          "internalType": "string"
        }
      ],
      "stateMutability": "view"
    },
    {
      "type": "function",
      "name": "addonImplementation",
      "inputs": [
        {
          "name": "addonTypeHash",
          "type": "bytes32",
          "internalType": "bytes32"
        }
      ],
      "outputs": [
        {
          "name": "",
          "type": "address",
          "internalType": "address"
        }
      ],
      "stateMutability": "view"
    },
    {
      "type": "function",
      "name": "addonProxy",
      "inputs": [
        {
          "name": "addonTypeHash",
          "type": "bytes32",
          "internalType": "bytes32"
        }
      ],
      "outputs": [
        {
          "name": "",
          "type": "address",
          "internalType": "address"
        }
      ],
      "stateMutability": "view"
    },
    {
      "type": "function",
      "name": "bootstrap",
      "inputs": [],
      "outputs": [],
      "stateMutability": "nonpayable"
    },
    {
      "type": "function",
      "name": "complianceImplementation",
      "inputs": [],
      "outputs": [
        {
          "name": "",
          "type": "address",
          "internalType": "address"
        }
      ],
      "stateMutability": "view"
    },
    {
      "type": "function",
      "name": "complianceProxy",
      "inputs": [],
      "outputs": [
        {
          "name": "",
          "type": "address",
          "internalType": "address"
        }
      ],
      "stateMutability": "view"
    },
    {
      "type": "function",
      "name": "createSystemAddon",
      "inputs": [
        {
          "name": "name",
          "type": "string",
          "internalType": "string"
        },
        {
          "name": "implementation",
          "type": "address",
          "internalType": "address"
        },
        {
          "name": "initializationData",
          "type": "bytes",
          "internalType": "bytes"
        }
      ],
      "outputs": [
        {
          "name": "proxyAddress",
          "type": "address",
          "internalType": "address"
        }
      ],
      "stateMutability": "nonpayable"
    },
    {
      "type": "function",
      "name": "createTokenFactory",
      "inputs": [
        {
          "name": "_name",
          "type": "string",
          "internalType": "string"
        },
        {
          "name": "_factoryImplementation",
          "type": "address",
          "internalType": "address"
        },
        {
          "name": "_tokenImplementation",
          "type": "address",
          "internalType": "address"
        }
      ],
      "outputs": [
        {
          "name": "",
          "type": "address",
          "internalType": "address"
        }
      ],
      "stateMutability": "nonpayable"
    },
    {
      "type": "function",
      "name": "getRoleAdmin",
      "inputs": [
        {
          "name": "role",
          "type": "bytes32",
          "internalType": "bytes32"
        }
      ],
      "outputs": [
        {
          "name": "",
          "type": "bytes32",
          "internalType": "bytes32"
        }
      ],
      "stateMutability": "view"
    },
    {
      "type": "function",
      "name": "grantRole",
      "inputs": [
        {
          "name": "role",
          "type": "bytes32",
          "internalType": "bytes32"
        },
        {
          "name": "account",
          "type": "address",
          "internalType": "address"
        }
      ],
      "outputs": [],
      "stateMutability": "nonpayable"
    },
    {
      "type": "function",
      "name": "hasRole",
      "inputs": [
        {
          "name": "role",
          "type": "bytes32",
          "internalType": "bytes32"
        },
        {
          "name": "account",
          "type": "address",
          "internalType": "address"
        }
      ],
      "outputs": [
        {
          "name": "",
          "type": "bool",
          "internalType": "bool"
        }
      ],
      "stateMutability": "view"
    },
    {
      "type": "function",
      "name": "identityFactoryImplementation",
      "inputs": [],
      "outputs": [
        {
          "name": "",
          "type": "address",
          "internalType": "address"
        }
      ],
      "stateMutability": "view"
    },
    {
      "type": "function",
      "name": "identityFactoryProxy",
      "inputs": [],
      "outputs": [
        {
          "name": "",
          "type": "address",
          "internalType": "address"
        }
      ],
      "stateMutability": "view"
    },
    {
      "type": "function",
      "name": "identityImplementation",
      "inputs": [],
      "outputs": [
        {
          "name": "",
          "type": "address",
          "internalType": "address"
        }
      ],
      "stateMutability": "view"
    },
    {
      "type": "function",
      "name": "identityRegistryImplementation",
      "inputs": [],
      "outputs": [
        {
          "name": "",
          "type": "address",
          "internalType": "address"
        }
      ],
      "stateMutability": "view"
    },
    {
      "type": "function",
      "name": "identityRegistryProxy",
      "inputs": [],
      "outputs": [
        {
          "name": "",
          "type": "address",
          "internalType": "address"
        }
      ],
      "stateMutability": "view"
    },
    {
      "type": "function",
      "name": "identityRegistryStorageImplementation",
      "inputs": [],
      "outputs": [
        {
          "name": "",
          "type": "address",
          "internalType": "address"
        }
      ],
      "stateMutability": "view"
    },
    {
      "type": "function",
      "name": "identityRegistryStorageProxy",
      "inputs": [],
      "outputs": [
        {
          "name": "",
          "type": "address",
          "internalType": "address"
        }
      ],
      "stateMutability": "view"
    },
    {
      "type": "function",
      "name": "identityVerificationModule",
      "inputs": [],
      "outputs": [
        {
          "name": "",
          "type": "address",
          "internalType": "address"
        }
      ],
      "stateMutability": "view"
    },
    {
      "type": "function",
      "name": "initialize",
      "inputs": [
        {
          "name": "initialAdmin_",
          "type": "address",
          "internalType": "address"
        },
        {
          "name": "complianceImplementation_",
          "type": "address",
          "internalType": "address"
        },
        {
          "name": "identityRegistryImplementation_",
          "type": "address",
          "internalType": "address"
        },
        {
          "name": "identityRegistryStorageImplementation_",
          "type": "address",
          "internalType": "address"
        },
        {
          "name": "trustedIssuersRegistryImplementation_",
          "type": "address",
          "internalType": "address"
        },
        {
          "name": "topicSchemeRegistryImplementation_",
          "type": "address",
          "internalType": "address"
        },
        {
          "name": "identityFactoryImplementation_",
          "type": "address",
          "internalType": "address"
        },
        {
          "name": "identityImplementation_",
          "type": "address",
          "internalType": "address"
        },
        {
          "name": "tokenIdentityImplementation_",
          "type": "address",
          "internalType": "address"
        },
        {
          "name": "tokenAccessManagerImplementation_",
          "type": "address",
          "internalType": "address"
        },
        {
          "name": "identityVerificationModule_",
          "type": "address",
          "internalType": "address"
        }
      ],
      "outputs": [],
      "stateMutability": "nonpayable"
    },
    {
      "type": "function",
      "name": "isTrustedForwarder",
      "inputs": [
        {
          "name": "forwarder",
          "type": "address",
          "internalType": "address"
        }
      ],
      "outputs": [
        {
          "name": "",
          "type": "bool",
          "internalType": "bool"
        }
      ],
      "stateMutability": "view"
    },
    {
      "type": "function",
      "name": "proxiableUUID",
      "inputs": [],
      "outputs": [
        {
          "name": "",
          "type": "bytes32",
          "internalType": "bytes32"
        }
      ],
      "stateMutability": "view"
    },
    {
      "type": "function",
      "name": "renounceRole",
      "inputs": [
        {
          "name": "role",
          "type": "bytes32",
          "internalType": "bytes32"
        },
        {
          "name": "callerConfirmation",
          "type": "address",
          "internalType": "address"
        }
      ],
      "outputs": [],
      "stateMutability": "nonpayable"
    },
    {
      "type": "function",
      "name": "revokeRole",
      "inputs": [
        {
          "name": "role",
          "type": "bytes32",
          "internalType": "bytes32"
        },
        {
          "name": "account",
          "type": "address",
          "internalType": "address"
        }
      ],
      "outputs": [],
      "stateMutability": "nonpayable"
    },
    {
      "type": "function",
      "name": "setAddonImplementation",
      "inputs": [
        {
          "name": "addonTypeHash",
          "type": "bytes32",
          "internalType": "bytes32"
        },
        {
          "name": "implementation",
          "type": "address",
          "internalType": "address"
        }
      ],
      "outputs": [],
      "stateMutability": "nonpayable"
    },
    {
      "type": "function",
      "name": "setComplianceImplementation",
      "inputs": [
        {
          "name": "implementation",
          "type": "address",
          "internalType": "address"
        }
      ],
      "outputs": [],
      "stateMutability": "nonpayable"
    },
    {
      "type": "function",
      "name": "setIdentityFactoryImplementation",
      "inputs": [
        {
          "name": "implementation",
          "type": "address",
          "internalType": "address"
        }
      ],
      "outputs": [],
      "stateMutability": "nonpayable"
    },
    {
      "type": "function",
      "name": "setIdentityImplementation",
      "inputs": [
        {
          "name": "implementation",
          "type": "address",
          "internalType": "address"
        }
      ],
      "outputs": [],
      "stateMutability": "nonpayable"
    },
    {
      "type": "function",
      "name": "setIdentityRegistryImplementation",
      "inputs": [
        {
          "name": "implementation",
          "type": "address",
          "internalType": "address"
        }
      ],
      "outputs": [],
      "stateMutability": "nonpayable"
    },
    {
      "type": "function",
      "name": "setIdentityRegistryStorageImplementation",
      "inputs": [
        {
          "name": "implementation",
          "type": "address",
          "internalType": "address"
        }
      ],
      "outputs": [],
      "stateMutability": "nonpayable"
    },
    {
      "type": "function",
      "name": "setTokenAccessManagerImplementation",
      "inputs": [
        {
          "name": "implementation",
          "type": "address",
          "internalType": "address"
        }
      ],
      "outputs": [],
      "stateMutability": "nonpayable"
    },
    {
      "type": "function",
      "name": "setTokenFactoryImplementation",
      "inputs": [
        {
          "name": "factoryTypeHash",
          "type": "bytes32",
          "internalType": "bytes32"
        },
        {
          "name": "implementation",
          "type": "address",
          "internalType": "address"
        }
      ],
      "outputs": [],
      "stateMutability": "nonpayable"
    },
    {
      "type": "function",
      "name": "setTokenIdentityImplementation",
      "inputs": [
        {
          "name": "implementation",
          "type": "address",
          "internalType": "address"
        }
      ],
      "outputs": [],
      "stateMutability": "nonpayable"
    },
    {
      "type": "function",
      "name": "setTopicSchemeRegistryImplementation",
      "inputs": [
        {
          "name": "implementation",
          "type": "address",
          "internalType": "address"
        }
      ],
      "outputs": [],
      "stateMutability": "nonpayable"
    },
    {
      "type": "function",
      "name": "setTrustedIssuersRegistryImplementation",
      "inputs": [
        {
          "name": "implementation",
          "type": "address",
          "internalType": "address"
        }
      ],
      "outputs": [],
      "stateMutability": "nonpayable"
    },
    {
      "type": "function",
      "name": "supportsInterface",
      "inputs": [
        {
          "name": "interfaceId",
          "type": "bytes4",
          "internalType": "bytes4"
        }
      ],
      "outputs": [
        {
          "name": "",
          "type": "bool",
          "internalType": "bool"
        }
      ],
      "stateMutability": "view"
    },
    {
      "type": "function",
      "name": "tokenAccessManagerImplementation",
      "inputs": [],
      "outputs": [
        {
          "name": "",
          "type": "address",
          "internalType": "address"
        }
      ],
      "stateMutability": "view"
    },
    {
      "type": "function",
      "name": "tokenFactoryImplementation",
      "inputs": [
        {
          "name": "factoryTypeHash",
          "type": "bytes32",
          "internalType": "bytes32"
        }
      ],
      "outputs": [
        {
          "name": "",
          "type": "address",
          "internalType": "address"
        }
      ],
      "stateMutability": "view"
    },
    {
      "type": "function",
      "name": "tokenFactoryProxy",
      "inputs": [
        {
          "name": "factoryTypeHash",
          "type": "bytes32",
          "internalType": "bytes32"
        }
      ],
      "outputs": [
        {
          "name": "",
          "type": "address",
          "internalType": "address"
        }
      ],
      "stateMutability": "view"
    },
    {
      "type": "function",
      "name": "tokenIdentityImplementation",
      "inputs": [],
      "outputs": [
        {
          "name": "",
          "type": "address",
          "internalType": "address"
        }
      ],
      "stateMutability": "view"
    },
    {
      "type": "function",
      "name": "topicSchemeRegistryImplementation",
      "inputs": [],
      "outputs": [
        {
          "name": "",
          "type": "address",
          "internalType": "address"
        }
      ],
      "stateMutability": "view"
    },
    {
      "type": "function",
      "name": "topicSchemeRegistryProxy",
      "inputs": [],
      "outputs": [
        {
          "name": "",
          "type": "address",
          "internalType": "address"
        }
      ],
      "stateMutability": "view"
    },
    {
      "type": "function",
      "name": "trustedForwarder",
      "inputs": [],
      "outputs": [
        {
          "name": "",
          "type": "address",
          "internalType": "address"
        }
      ],
      "stateMutability": "view"
    },
    {
      "type": "function",
      "name": "trustedIssuersRegistryImplementation",
      "inputs": [],
      "outputs": [
        {
          "name": "",
          "type": "address",
          "internalType": "address"
        }
      ],
      "stateMutability": "view"
    },
    {
      "type": "function",
      "name": "trustedIssuersRegistryProxy",
      "inputs": [],
      "outputs": [
        {
          "name": "",
          "type": "address",
          "internalType": "address"
        }
      ],
      "stateMutability": "view"
    },
    {
      "type": "function",
      "name": "upgradeToAndCall",
      "inputs": [
        {
          "name": "newImplementation",
          "type": "address",
          "internalType": "address"
        },
        {
          "name": "data",
          "type": "bytes",
          "internalType": "bytes"
        }
      ],
      "outputs": [],
      "stateMutability": "payable"
    },
    {
      "type": "event",
      "name": "AddonImplementationUpdated",
      "inputs": [
        {
          "name": "sender",
          "type": "address",
          "indexed": true,
          "internalType": "address"
        },
        {
          "name": "addonTypeHash",
          "type": "bytes32",
          "indexed": true,
          "internalType": "bytes32"
        },
        {
          "name": "newImplementation",
          "type": "address",
          "indexed": true,
          "internalType": "address"
        }
      ],
      "anonymous": false
    },
    {
      "type": "event",
      "name": "Bootstrapped",
      "inputs": [
        {
          "name": "sender",
          "type": "address",
          "indexed": true,
          "internalType": "address"
        },
        {
          "name": "complianceProxy",
          "type": "address",
          "indexed": true,
          "internalType": "address"
        },
        {
          "name": "identityRegistryProxy",
          "type": "address",
          "indexed": true,
          "internalType": "address"
        },
        {
          "name": "identityRegistryStorageProxy",
          "type": "address",
          "indexed": false,
          "internalType": "address"
        },
        {
          "name": "trustedIssuersRegistryProxy",
          "type": "address",
          "indexed": false,
          "internalType": "address"
        },
        {
          "name": "topicSchemeRegistryProxy",
          "type": "address",
          "indexed": false,
          "internalType": "address"
        },
        {
          "name": "identityFactoryProxy",
          "type": "address",
          "indexed": false,
          "internalType": "address"
        },
        {
          "name": "identityVerificationModule",
          "type": "address",
          "indexed": false,
          "internalType": "address"
        }
      ],
      "anonymous": false
    },
    {
      "type": "event",
      "name": "ComplianceImplementationUpdated",
      "inputs": [
        {
          "name": "sender",
          "type": "address",
          "indexed": true,
          "internalType": "address"
        },
        {
          "name": "newImplementation",
          "type": "address",
          "indexed": true,
          "internalType": "address"
        }
      ],
      "anonymous": false
    },
    {
      "type": "event",
      "name": "IdentityFactoryImplementationUpdated",
      "inputs": [
        {
          "name": "sender",
          "type": "address",
          "indexed": true,
          "internalType": "address"
        },
        {
          "name": "newImplementation",
          "type": "address",
          "indexed": true,
          "internalType": "address"
        }
      ],
      "anonymous": false
    },
    {
      "type": "event",
      "name": "IdentityImplementationUpdated",
      "inputs": [
        {
          "name": "sender",
          "type": "address",
          "indexed": true,
          "internalType": "address"
        },
        {
          "name": "newImplementation",
          "type": "address",
          "indexed": true,
          "internalType": "address"
        }
      ],
      "anonymous": false
    },
    {
      "type": "event",
      "name": "IdentityRegistryImplementationUpdated",
      "inputs": [
        {
          "name": "sender",
          "type": "address",
          "indexed": true,
          "internalType": "address"
        },
        {
          "name": "newImplementation",
          "type": "address",
          "indexed": true,
          "internalType": "address"
        }
      ],
      "anonymous": false
    },
    {
      "type": "event",
      "name": "IdentityRegistryStorageImplementationUpdated",
      "inputs": [
        {
          "name": "sender",
          "type": "address",
          "indexed": true,
          "internalType": "address"
        },
        {
          "name": "newImplementation",
          "type": "address",
          "indexed": true,
          "internalType": "address"
        }
      ],
      "anonymous": false
    },
    {
      "type": "event",
      "name": "Initialized",
      "inputs": [
        {
          "name": "version",
          "type": "uint64",
          "indexed": false,
          "internalType": "uint64"
        }
      ],
      "anonymous": false
    },
    {
      "type": "event",
      "name": "RoleAdminChanged",
      "inputs": [
        {
          "name": "role",
          "type": "bytes32",
          "indexed": true,
          "internalType": "bytes32"
        },
        {
          "name": "previousAdminRole",
          "type": "bytes32",
          "indexed": true,
          "internalType": "bytes32"
        },
        {
          "name": "newAdminRole",
          "type": "bytes32",
          "indexed": true,
          "internalType": "bytes32"
        }
      ],
      "anonymous": false
    },
    {
      "type": "event",
      "name": "RoleGranted",
      "inputs": [
        {
          "name": "role",
          "type": "bytes32",
          "indexed": true,
          "internalType": "bytes32"
        },
        {
          "name": "account",
          "type": "address",
          "indexed": true,
          "internalType": "address"
        },
        {
          "name": "sender",
          "type": "address",
          "indexed": true,
          "internalType": "address"
        }
      ],
      "anonymous": false
    },
    {
      "type": "event",
      "name": "RoleRevoked",
      "inputs": [
        {
          "name": "role",
          "type": "bytes32",
          "indexed": true,
          "internalType": "bytes32"
        },
        {
          "name": "account",
          "type": "address",
          "indexed": true,
          "internalType": "address"
        },
        {
          "name": "sender",
          "type": "address",
          "indexed": true,
          "internalType": "address"
        }
      ],
      "anonymous": false
    },
    {
      "type": "event",
      "name": "SystemAddonCreated",
      "inputs": [
        {
          "name": "sender",
          "type": "address",
          "indexed": true,
          "internalType": "address"
        },
        {
          "name": "name",
          "type": "string",
          "indexed": false,
          "internalType": "string"
        },
        {
          "name": "typeId",
          "type": "bytes32",
          "indexed": false,
          "internalType": "bytes32"
        },
        {
          "name": "proxyAddress",
          "type": "address",
          "indexed": false,
          "internalType": "address"
        },
        {
          "name": "implementation",
          "type": "address",
          "indexed": false,
          "internalType": "address"
        },
        {
          "name": "initializationData",
          "type": "bytes",
          "indexed": false,
          "internalType": "bytes"
        },
        {
          "name": "timestamp",
          "type": "uint256",
          "indexed": false,
          "internalType": "uint256"
        }
      ],
      "anonymous": false
    },
    {
      "type": "event",
      "name": "TokenAccessManagerImplementationUpdated",
      "inputs": [
        {
          "name": "sender",
          "type": "address",
          "indexed": true,
          "internalType": "address"
        },
        {
          "name": "newImplementation",
          "type": "address",
          "indexed": true,
          "internalType": "address"
        }
      ],
      "anonymous": false
    },
    {
      "type": "event",
      "name": "TokenFactoryCreated",
      "inputs": [
        {
          "name": "sender",
          "type": "address",
          "indexed": true,
          "internalType": "address"
        },
        {
          "name": "name",
          "type": "string",
          "indexed": false,
          "internalType": "string"
        },
        {
          "name": "typeId",
          "type": "bytes32",
          "indexed": false,
          "internalType": "bytes32"
        },
        {
          "name": "proxyAddress",
          "type": "address",
          "indexed": false,
          "internalType": "address"
        },
        {
          "name": "implementationAddress",
          "type": "address",
          "indexed": false,
          "internalType": "address"
        },
        {
          "name": "timestamp",
          "type": "uint256",
          "indexed": false,
          "internalType": "uint256"
        }
      ],
      "anonymous": false
    },
    {
      "type": "event",
      "name": "TokenFactoryImplementationUpdated",
      "inputs": [
        {
          "name": "sender",
          "type": "address",
          "indexed": true,
          "internalType": "address"
        },
        {
          "name": "factoryTypeHash",
          "type": "bytes32",
          "indexed": true,
          "internalType": "bytes32"
        },
        {
          "name": "newImplementation",
          "type": "address",
          "indexed": true,
          "internalType": "address"
        }
      ],
      "anonymous": false
    },
    {
      "type": "event",
      "name": "TokenIdentityImplementationUpdated",
      "inputs": [
        {
          "name": "sender",
          "type": "address",
          "indexed": true,
          "internalType": "address"
        },
        {
          "name": "newImplementation",
          "type": "address",
          "indexed": true,
          "internalType": "address"
        }
      ],
      "anonymous": false
    },
    {
      "type": "event",
      "name": "TopicSchemeRegistryImplementationUpdated",
      "inputs": [
        {
          "name": "sender",
          "type": "address",
          "indexed": true,
          "internalType": "address"
        },
        {
          "name": "newImplementation",
          "type": "address",
          "indexed": true,
          "internalType": "address"
        }
      ],
      "anonymous": false
    },
    {
      "type": "event",
      "name": "TrustedIssuersRegistryImplementationUpdated",
      "inputs": [
        {
          "name": "sender",
          "type": "address",
          "indexed": true,
          "internalType": "address"
        },
        {
          "name": "newImplementation",
          "type": "address",
          "indexed": true,
          "internalType": "address"
        }
      ],
      "anonymous": false
    },
    {
      "type": "event",
      "name": "Upgraded",
      "inputs": [
        {
          "name": "implementation",
          "type": "address",
          "indexed": true,
          "internalType": "address"
        }
      ],
      "anonymous": false
    },
    {
      "type": "error",
      "name": "AccessControlBadConfirmation",
      "inputs": []
    },
    {
      "type": "error",
      "name": "AccessControlUnauthorizedAccount",
      "inputs": [
        {
          "name": "account",
          "type": "address",
          "internalType": "address"
        },
        {
          "name": "neededRole",
          "type": "bytes32",
          "internalType": "bytes32"
        }
      ]
    },
    {
      "type": "error",
      "name": "AddonImplementationNotSet",
      "inputs": [
        {
          "name": "addonTypeHash",
          "type": "bytes32",
          "internalType": "bytes32"
        }
      ]
    },
    {
      "type": "error",
      "name": "AddonTypeAlreadyRegistered",
      "inputs": [
        {
          "name": "typeName",
          "type": "string",
          "internalType": "string"
        }
      ]
    },
    {
      "type": "error",
      "name": "AddressEmptyCode",
      "inputs": [
        {
          "name": "target",
          "type": "address",
          "internalType": "address"
        }
      ]
    },
    {
      "type": "error",
      "name": "ComplianceImplementationNotSet",
      "inputs": []
    },
    {
      "type": "error",
      "name": "ERC1967InvalidImplementation",
      "inputs": [
        {
          "name": "implementation",
          "type": "address",
          "internalType": "address"
        }
      ]
    },
    {
      "type": "error",
      "name": "ERC1967NonPayable",
      "inputs": []
    },
    {
      "type": "error",
      "name": "FailedCall",
      "inputs": []
    },
    {
      "type": "error",
      "name": "IdentityFactoryImplementationNotSet",
      "inputs": []
    },
    {
      "type": "error",
      "name": "IdentityImplementationNotSet",
      "inputs": []
    },
    {
      "type": "error",
      "name": "IdentityRegistryImplementationNotSet",
      "inputs": []
    },
    {
      "type": "error",
      "name": "IdentityRegistryStorageImplementationNotSet",
      "inputs": []
    },
    {
      "type": "error",
      "name": "IdentityVerificationModuleNotSet",
      "inputs": []
    },
    {
      "type": "error",
      "name": "InvalidAddonAddress",
      "inputs": []
    },
    {
      "type": "error",
      "name": "InvalidImplementationInterface",
      "inputs": [
        {
          "name": "implAddress",
          "type": "address",
          "internalType": "address"
        },
        {
          "name": "interfaceId",
          "type": "bytes4",
          "internalType": "bytes4"
        }
      ]
    },
    {
      "type": "error",
      "name": "InvalidInitialization",
      "inputs": []
    },
    {
      "type": "error",
      "name": "InvalidTokenFactoryAddress",
      "inputs": []
    },
    {
      "type": "error",
      "name": "InvalidTokenImplementationAddress",
      "inputs": []
    },
    {
      "type": "error",
      "name": "InvalidTokenImplementationInterface",
      "inputs": []
    },
    {
      "type": "error",
      "name": "NotInitializing",
      "inputs": []
    },
    {
      "type": "error",
      "name": "ReentrancyGuardReentrantCall",
      "inputs": []
    },
    {
      "type": "error",
      "name": "SystemAlreadyBootstrapped",
      "inputs": []
    },
    {
      "type": "error",
      "name": "SystemNotBootstrapped",
      "inputs": []
    },
    {
      "type": "error",
      "name": "TokenAccessManagerImplementationNotSet",
      "inputs": []
    },
    {
      "type": "error",
      "name": "TokenFactoryTypeAlreadyRegistered",
      "inputs": [
        {
          "name": "typeName",
          "type": "string",
          "internalType": "string"
        }
      ]
    },
    {
      "type": "error",
      "name": "TokenIdentityImplementationNotSet",
      "inputs": []
    },
    {
      "type": "error",
      "name": "TopicSchemeRegistryImplementationNotSet",
      "inputs": []
    },
    {
      "type": "error",
      "name": "TrustedIssuersRegistryImplementationNotSet",
      "inputs": []
    },
    {
      "type": "error",
      "name": "UUPSUnauthorizedCallContext",
      "inputs": []
    },
    {
      "type": "error",
      "name": "UUPSUnsupportedProxiableUUID",
      "inputs": [
        {
          "name": "slot",
          "type": "bytes32",
          "internalType": "bytes32"
        }
      ]
    }
  ],
  "bytecode": {
    "object": "0x60c03461012457601f615cc038819003918201601f19168301916001600160401b038311848410176101285780849260209460405283398101031261012457516001600160a01b0381168103610124576080523060a0525f516020615ca05f395f51905f525460ff8160401c16610115576002600160401b03196001600160401b038216016100bf575b604051615b63908161013d82396080518181816115fe01528181611e410152613367015260a051818181611e880152611f570152f35b6001600160401b0319166001600160401b039081175f516020615ca05f395f51905f52556040519081527fc7f505b2f371ae2175ee4913f4499e1f2633a7b5936321eed1cdaeb6115181d290602090a15f610089565b63f92ee8a960e01b5f5260045ffd5b5f80fd5b634e487b7160e01b5f52604160045260245ffdfe6080806040526004361015610012575f80fd5b5f905f3560e01c90816301ffc9a7146127be57508063139aca991461278c578063157f11811461244557806316e22778146123b05780631cece55f1461237d578063248a9ca31461233d5780632f2ff15d146122f257806336568abe1461229d57806339b14cdf146122745780633cdbceda1461224b57806344eecc17146122225780634543741c1461218d578063457779a2146120fa5780634f1ef28614611edc57806352d1902d14611e75578063572b6c0514611e20578063588aa30614611df757806363f3d32014611d625780636d7203cb14611d395780636dbe06f514611d1057806372b3f57e14611ce757806376902b831461167f57806378e72222146116565780637d6b252e1461162d5780637da0a877146115e857806380f1d105146115395780638214faf8146114a4578063917fc6291461147d57806391d148541461142757806398468e51146113fe5780639f3b39b114611369578063a10cddc0146112d4578063a18dd9ea146112ab578063a217fddf1461128f578063ad3cb1cc14611242578063b00a0fdc1461120f578063c2deb16b1461117a578063c8b5d91114611151578063d23f1978146110bc578063d547741f14611068578063d62def8f1461103f578063d907c45614611016578063e045d70114610f51578063e155466614610f1e578063e277d07d14610aec578063e32d4b6714610ac35763fb969b0a14610223575f80fd5b34610ac05780600319360112610ac05761023b612a2a565b610243612a62565b60ff600f5460a01c16610ab15780546001600160a01b031615610aa2576002546001600160a01b031615610a93576004546001600160a01b031615610a84576006546001600160a01b031615610a75576008546001600160a01b031615610a6657600a546001600160a01b031615610a57576102bd613364565b9060606040516102cd828261289a565b6002815260208101601f1983013682376102e682612961565b6001600160a01b0386169052306102fc83612982565b526040519161051d808401908482106001600160401b03831117610a0257849392918691613ec8863960408101923082526040602083015251809352019190865b818110610a3557505050039083f08015610a2a57604051610462808201908282106001600160401b03831117610a1657868392610392926143e585393081526001600160a01b03909116602082015260400190565b039084f0801561099a5760018060a01b0316604051610469808201908282106001600160401b03831117610a02578783926103e59261484785393081526001600160a01b03909116602082015260400190565b039085f080156109f75760018060a01b031660405161052a808201908282106001600160401b038311176109e35788839261043892614cb085393081526001600160a01b03909116602082015260400190565b039086f080156109d85760018060a01b03169260405161049b808201908282106001600160401b038311176109c4578685878c86956104a6956151da88393081526001600160a01b039182166020820152918116604083015291821660608201529116608082015260a00190565b039087f080156109a55760018060a01b031691604051610462808201908282106001600160401b038311176109b057899a83926104fe929b9a9b61567585393081526001600160a01b03909116602082015260400190565b039087f09182156109a557600180546001600160a01b03199081166001600160a01b039384161790915560058054821687179055600780548216939093179092556009805483168717905560038054831685179055600b80549092169216919091179055813b1561098157839160248392604051948593849263690a49f960e01b845260048401525af190811561099a578391610985575b50506105a0613300565b60409384516105af868261289a565b60038152626b796360e81b60208201526105c883612961565b526105d282612961565b5084516105df868261289a565b6003815262185b5b60ea1b60208201526105f883612982565b5261060282612982565b50845161060f868261289a565b600a81526918dbdb1b185d195c985b60b21b602082015261062f83612992565b5261063982612992565b508451610646868261289a565b600481526334b9b4b760e11b6020820152610660836129a2565b5261066a826129a2565b508451610677868261289a565b601381527230b9b9b2ba21b630b9b9b4b334b1b0ba34b7b760691b60208201526106a0836129b2565b526106aa826129b2565b5084516106b7868261289a565b600981526862617365507269636560b81b60208201526106d6836129c2565b526106e0826129c2565b506106e9613300565b906106f261333a565b6106fb83612961565b5261070582612961565b5061070e61333a565b61071783612982565b5261072182612982565b50855161072e828261289a565b602781527f75696e7432353620616d6f756e742c2075696e7432353620657870697279546960208201526606d657374616d760cc1b8782015261077083612992565b5261077a82612992565b508551610787878261289a565b600b81526a39ba3934b7339034b9b4b760a91b60208201526107a8836129a2565b526107b2826129a2565b5085516107bf878261289a565b601d81527f737472696e6720636c6173732c20737472696e672063617465676f727900000060208201526107f2836129b2565b526107fc826129b2565b506108098651918261289a565b603381527f75696e7432353620616d6f756e742c20737472696e672063757272656e6379436020820152726f64652c2075696e743820646563696d616c7360681b86820152610857826129c2565b52610861816129c2565b50823b15610981576108a892610896858094885196879586948593630b0501d360e31b85528c600486015260448501906129d2565b838103600319016024850152906129d2565b03925af180156109745761095b575b5050600f805460ff60a01b198116600160a01b17909155906108d7613364565b600154600354600554600754600954600b5496516001600160a01b03938416815291831660208301528216604082015294811660608601529485166080850152841693908116929116907f7a0ba7a03e47f134ef41839f5428a76ccddaa010aa247abc3e1adf2910da5fce9060a090a460015f516020615b175f395f51905f525580f35b816109659161289a565b61097057815f6108b7565b5080fd5b50505051903d90823e3d90fd5b8380fd5b8161098f9161289a565b61097057815f610596565b6040513d85823e3d90fd5b6040513d88823e3d90fd5b634e487b7160e01b8a52604160045260248afd5b634e487b7160e01b89526041600452602489fd5b6040513d87823e3d90fd5b634e487b7160e01b88526041600452602488fd5b6040513d86823e3d90fd5b634e487b7160e01b87526041600452602487fd5b634e487b7160e01b86526041600452602486fd5b6040513d84823e3d90fd5b82516001600160a01b031684528594506020938401939092019160010161033d565b6305b4e73960e51b8152600490fd5b6342f4ff8d60e11b8152600490fd5b630273e4dd60e41b8152600490fd5b63d6cd3aeb60e01b8152600490fd5b6397a22d9360e01b8152600490fd5b63ee30f64f60e01b8152600490fd5b633300a86160e21b8152600490fd5b80fd5b5034610ac05780600319360112610ac057600a546040516001600160a01b039091168152602090f35b5034610ac0576060366003190112610ac0576004356001600160401b03811161097057610b1d90369060040161282b565b9091610b27612858565b92610b30612884565b610b38612a2a565b610b40612a62565b60ff600f5460a01c1615610f0f576001600160a01b038516948515610f0057610b6890613041565b6001600160a01b0316928315610ef157604051634ca843ef60e11b815260048101859052602081602481895afa9081156109f7578491610ec2575b5015610eb357604051602081019082848337610bd260208285810188838201520301601f19810183528261289a565b519020808452601060205260408420549094906001600160a01b0316610e8a5784845260106020526040842080546001600160a01b03191687179055610c16613364565b60018060a01b03600f54166040519261052992838501938585106001600160401b038611176109c4579185939160a0959361399f8639308452600180871b031660208401528960408401526060830152608082015203019084f0801561099a5793835260116020526040832080546001600160a01b0319166001600160a01b03958616908117909155600b54909416803b1561098157838091604460405180948193632f2ff15d60e01b83527f7c42e8dffc95f75177e883ddc14f7ed7caa053d3f0d4e84d6b7f0b0033223dcb60048401528a60248401525af180156109f757908491610e75575b50506001546001600160a01b0316803b1561098157838091604460405180948193632f2ff15d60e01b83527feaeeb45c1b9029a6e392e1e7aa6f4af6bd8111f85c32809598bc9903a16227a360048401528a60248401525af180156109f757908491610e5c575b5050610d6f613364565b94604051638f940f6360e01b8152602081600481855afa948515610e505794610e11575b50906020957fd35354d6b4ceea2cdf8a58e10b4728124e39a8818b349aa07bf0563fa9392b5a9392610dd260405194859460a0865260a08601916128fa565b838901969096526040830187905260608301524260808301526001600160a01b0316930390a260015f516020615b175f395f51905f5255604051908152f35b92919093506020833d602011610e48575b81610e2f6020938361289a565b81010312610e44579151929091906020610d93565b5f80fd5b3d9150610e22565b604051903d90823e3d90fd5b81610e669161289a565b610e7157825f610d65565b8280fd5b81610e7f9161289a565b610e7157825f610cfe565b50610eaf604051928392637a65e7c360e01b84526020600485015260248401916128fa565b0390fd5b634da1d31f60e01b8352600483fd5b610ee4915060203d602011610eea575b610edc818361289a565b810190612949565b5f610ba3565b503d610ed2565b6320a86f3d60e11b8352600483fd5b63fd360a1d60e01b8452600484fd5b637b43badd60e01b8352600483fd5b5034610ac0576020366003190112610ac057602090600435815260128252604060018060a01b0391205416604051908152f35b5034610ac0576040366003190112610ac057600435610f6e612858565b610f76612a62565b6001600160a01b031690811561100757808352601260205260408320546001600160a01b031615610ff55780835260126020526040832080546001600160a01b031916831790556001600160a01b03610fcd613364565b167ff6d6e0c83473ce7eefd91890db594244473d249e63d6537bdbb07c259e54b3838480a480f35b632c35636160e11b8352600452602482fd5b6382b68efb60e01b8352600483fd5b5034610ac05780600319360112610ac0576007546040516001600160a01b039091168152602090f35b5034610ac05780600319360112610ac0576003546040516001600160a01b039091168152602090f35b5034610ac0576040366003190112610ac0576110b8600435611088612858565b906110b36110ae825f525f516020615af75f395f51905f52602052600160405f20015490565b612aca565b613257565b5080f35b5034610ac0576020366003190112610ac0576110d661286e565b6110de612a62565b6001600160a01b038116908115611142576110f890612e58565b600880546001600160a01b031916821790556001600160a01b0361111a613364565b167fce8fc7b69fcc1eda934571831e15bb10f95dddbb09559b28ad712d618f6ca0a98380a380f35b6342f4ff8d60e11b8352600483fd5b5034610ac05780600319360112610ac057600f546040516001600160a01b039091168152602090f35b5034610ac0576020366003190112610ac05761119461286e565b61119c612a62565b6001600160a01b038116908115611200576111b690612db5565b600680546001600160a01b031916821790556001600160a01b036111d8613364565b167fd48b61a9f91ca2b642303e47ebca68d50d9187468daa2268cdd4ec792ade18048380a380f35b630273e4dd60e41b8352600483fd5b5034610ac0576020366003190112610ac057602090600435815260138252604060018060a01b0391205416604051908152f35b5034610ac05780600319360112610ac0575061128b60405161126560408261289a565b60058152640352e302e360dc1b60208201526040519182916020835260208301906128d6565b0390f35b5034610ac05780600319360112610ac057602090604051908152f35b5034610ac05780600319360112610ac0576002546040516001600160a01b039091168152602090f35b5034610ac0576020366003190112610ac0576112ee61286e565b6112f6612a62565b6001600160a01b03811690811561135a5761131090612b26565b600e80546001600160a01b031916821790556001600160a01b03611332613364565b167f96cb65f899c3cf9ec267a022e255746ae585ae6e1bd3fb01601032dbcc58e3838380a380f35b63e26a8ec760e01b8352600483fd5b5034610ac0576020366003190112610ac05761138361286e565b61138b612a62565b6001600160a01b0381169081156113ef576113a590612efb565b600a80546001600160a01b031916821790556001600160a01b036113c7613364565b167f4bcec9d20bb800258ed241271d77077db5d50a6f76f12140c122c883deef79958380a380f35b6305b4e73960e51b8352600483fd5b5034610ac05780600319360112610ac0576001546040516001600160a01b039091168152602090f35b5034610ac0576040366003190112610ac0576040611443612858565b9160043581525f516020615af75f395f51905f52602052209060018060a01b03165f52602052602060ff60405f2054166040519015158152f35b5034610ac05780600319360112610ac057546040516001600160a01b039091168152602090f35b5034610ac0576020366003190112610ac0576114be61286e565b6114c6612a62565b6001600160a01b03811690811561152a576114e090612f9e565b600c80546001600160a01b031916821790556001600160a01b03611502613364565b167f4bd715e9ad4344031fe5194dd335709e8af5fc028d2d990a192615beb3ef11fa8380a380f35b63099d3e0360e21b8352600483fd5b5034610ac0576040366003190112610ac057600435611556612858565b9061155f612a62565b6001600160a01b038216918215610f0057818452601060205260408420546001600160a01b031615610f005761159490613041565b80835260106020526040832080546001600160a01b031916831790556001600160a01b036115c0613364565b167fde9e63ca80621726b8d1a98af923cbf0de3f21a308f9cb973d3d0c2e32dd7a2c8480a480f35b5034610ac05780600319360112610ac0576040517f00000000000000000000000000000000000000000000000000000000000000006001600160a01b03168152602090f35b5034610ac05780600319360112610ac0576009546040516001600160a01b039091168152602090f35b5034610ac05780600319360112610ac057600b546040516001600160a01b039091168152602090f35b5034610ac057610160366003190112610ac05761169a61286e565b6116a2612858565b6116aa612884565b606435926001600160a01b0384168403611ce357608435936001600160a01b0385168503611cdf5760a435906001600160a01b0382168203611cdb5760c4356001600160a01b0381168103611cd75760e435926001600160a01b0384168403611cd35761010435976001600160a01b0389168903611ccf5761012435936001600160a01b0385168503611ccb5761014435976001600160a01b0389168903611cc7575f516020615b375f395f51905f5254996001600160401b038b161580611cb9575b60016001600160401b038d16149081611caf575b159081611ca6575b50611c975760016001600160401b03198c16175f516020615b375f395f51905f525560ff8b60401c1615611c6b575b6117c06133d1565b6117c86133d1565b6117d06133d1565b60015f516020615b175f395f51905f52556117e96133d1565b6117f2896130e4565b506001600160a01b03811615611c5c5761180b81612c6f565b8c546001600160a01b0319166001600160a01b039182169081178e559089167f18ea1177da83ebf23520cb37420841e05033121576c404e09f73db10fea6ac788e80a36001600160a01b03811615611c4d5761186681612d12565b600280546001600160a01b0319166001600160a01b039283169081179091559088167fe8ad049e0ad7908009ae0f7f4364595fd1a499488f22fa486d8542dcc57af4138d80a36001600160a01b03811615611c3e576118c481612bcc565b600480546001600160a01b0319166001600160a01b039283169081179091559087167f81275737702fb4f879c5b1b3ef8d4de980fdb3a2b4462ad24fe8c7832e7d0f478c80a36001600160a01b03811615611c2f5761192281612db5565b600680546001600160a01b0319166001600160a01b039283169081179091559086167fd48b61a9f91ca2b642303e47ebca68d50d9187468daa2268cdd4ec792ade18048b80a36001600160a01b03811615611c205761198081612e58565b600880546001600160a01b0319166001600160a01b039283169081179091559085167fce8fc7b69fcc1eda934571831e15bb10f95dddbb09559b28ad712d618f6ca0a98a80a36001600160a01b03811615611c11576119de81612efb565b600a80546001600160a01b0319166001600160a01b039283169081179091559084167f4bcec9d20bb800258ed241271d77077db5d50a6f76f12140c122c883deef79958980a36001600160a01b03811615611c0257611a3c81612f9e565b600c80546001600160a01b0319166001600160a01b039283169081179091559083167f4bd715e9ad4344031fe5194dd335709e8af5fc028d2d990a192615beb3ef11fa8880a36001600160a01b03811615611bf357611a9a81612b26565b600d80546001600160a01b0319166001600160a01b039283169081179091559082167fefea9f2b39bb4f73b0a1080278a75714ae7d6def44739e209eebe2085b9b62b38780a36001600160a01b03841615611be457611af884612b26565b600e80546001600160a01b0319166001600160a01b03958616908117909155604051949091167f96cb65f899c3cf9ec267a022e255746ae585ae6e1bd3fb01601032dbcc58e3838680a36001600160a01b03811615611bd557600f80546001600160a01b0319166001600160a01b0390921691909117905560401c60ff1615611b7f575080f35b60207fc7f505b2f371ae2175ee4913f4499e1f2633a7b5936321eed1cdaeb6115181d29168ff0000000000000000195f516020615b375f395f51905f5254165f516020615b375f395f51905f525560018152a180f35b633ac2d12960e21b8452600484fd5b63e26a8ec760e01b8552600485fd5b632384fcc160e11b8652600486fd5b63099d3e0360e21b8752600487fd5b6305b4e73960e51b8852600488fd5b6342f4ff8d60e11b8952600489fd5b630273e4dd60e41b8a5260048afd5b63d6cd3aeb60e01b8b5260048bfd5b6397a22d9360e01b8c5260048cfd5b63ee30f64f60e01b8d5260048dfd5b68ffffffffffffffffff198b1668010000000000000001175f516020615b375f395f51905f52556117b8565b63f92ee8a960e01b8d5260048dfd5b9050155f611789565b303b159150611781565b5060ff8b60401c161561176d565b8b80fd5b8a80fd5b8980fd5b8880fd5b8780fd5b8680fd5b8580fd5b8480fd5b5034610ac05780600319360112610ac0576005546040516001600160a01b039091168152602090f35b5034610ac05780600319360112610ac0576004546040516001600160a01b039091168152602090f35b5034610ac05780600319360112610ac057600d546040516001600160a01b039091168152602090f35b5034610ac0576020366003190112610ac057611d7c61286e565b611d84612a62565b6001600160a01b038116908115611de857611d9e90612d12565b600280546001600160a01b031916821790556001600160a01b03611dc0613364565b167fe8ad049e0ad7908009ae0f7f4364595fd1a499488f22fa486d8542dcc57af4138380a380f35b6397a22d9360e01b8352600483fd5b5034610ac05780600319360112610ac0576008546040516001600160a01b039091168152602090f35b5034610ac0576020366003190112610ac0576020611e3c61286e565b6040517f00000000000000000000000000000000000000000000000000000000000000006001600160a01b039081169216919091148152f35b5034610ac05780600319360112610ac0577f00000000000000000000000000000000000000000000000000000000000000006001600160a01b03163003611ecd5760206040515f516020615ad75f395f51905f528152f35b63703e46dd60e11b8152600490fd5b506040366003190112610ac057611ef161286e565b602435906001600160401b038211610e715736602383011215610e715781600401359083611f1e836128bb565b93611f2c604051958661289a565b83855260208501933660248284010111610e7157806024602093018637850101526001600160a01b037f0000000000000000000000000000000000000000000000000000000000000000163081149081156120d8575b506120c957611f8f612a62565b6040516352d1902d60e01b81526001600160a01b0382169390602081600481885afa869181612095575b50611fd257634c9c8ce360e01b86526004859052602486fd5b93845f516020615ad75f395f51905f528796036120835750823b15612071575f516020615ad75f395f51905f5280546001600160a01b031916821790558491907fbc7cd75a20ee27fd9adebab32041f755214dbc6bffa90cc0225b39da2e5c2d3b8380a2805115612056576110b89382915190845af461205061291a565b916133fc565b50505050346120625780f35b63b398979f60e01b8152600490fd5b634c9c8ce360e01b8552600452602484fd5b632a87526960e21b8652600452602485fd5b9091506020813d6020116120c1575b816120b16020938361289a565b81010312610e445751905f611fb9565b3d91506120a4565b63703e46dd60e11b8452600484fd5b5f516020615ad75f395f51905f52546001600160a01b0316141590505f611f82565b5034610ac0576020366003190112610ac05761211461286e565b61211c612a62565b6001600160a01b03811690811561217e5761213690612c6f565b81546001600160a01b031916811782556001600160a01b03612156613364565b167f18ea1177da83ebf23520cb37420841e05033121576c404e09f73db10fea6ac788380a380f35b63ee30f64f60e01b8352600483fd5b5034610ac0576020366003190112610ac0576121a761286e565b6121af612a62565b6001600160a01b038116908115612213576121c990612bcc565b600480546001600160a01b031916821790556001600160a01b036121eb613364565b167f81275737702fb4f879c5b1b3ef8d4de980fdb3a2b4462ad24fe8c7832e7d0f478380a380f35b63d6cd3aeb60e01b8352600483fd5b5034610ac05780600319360112610ac057600c546040516001600160a01b039091168152602090f35b5034610ac05780600319360112610ac057600e546040516001600160a01b039091168152602090f35b5034610ac05780600319360112610ac0576006546040516001600160a01b039091168152602090f35b5034610ac0576040366003190112610ac0576122b7612858565b6001600160a01b036122c7613364565b166001600160a01b038216036122e3576110b890600435613257565b63334bd91960e11b8252600482fd5b5034610ac0576040366003190112610ac0576110b8600435612312612858565b906123386110ae825f525f516020615af75f395f51905f52602052600160405f20015490565b6131a6565b5034610ac0576020366003190112610ac05760206123756004355f525f516020615af75f395f51905f52602052600160405f20015490565b604051908152f35b5034610ac0576020366003190112610ac057602090600435815260108252604060018060a01b0391205416604051908152f35b5034610ac0576020366003190112610ac0576123ca61286e565b6123d2612a62565b6001600160a01b038116908115612436576123ec90612b26565b600d80546001600160a01b031916821790556001600160a01b0361240e613364565b167fefea9f2b39bb4f73b0a1080278a75714ae7d6def44739e209eebe2085b9b62b38380a380f35b632384fcc160e11b8352600483fd5b5034610e44576060366003190112610e44576004356001600160401b038111610e445761247690369060040161282b565b9091612480612858565b926044356001600160401b038111610e44576124a090369060040161282b565b9390946124ab612a2a565b6124b3612a62565b60ff600f5460a01c161561277d576001600160a01b031692831561276e576040516020810190838583376124fa6020828681015f838201520301601f19810183528261289a565b5190205f818152601260205260409020549095906001600160a01b031661274857855f52601260205260405f20856bffffffffffffffffffffffff60a01b8254161790556040516105448082018281106001600160401b0382111761273457606061257d91849361345b85393081528a602082015281604082015201848b6128fa565b03905ff08015612729575f9687526013602052604090962080546001600160a01b0319166001600160a01b03978816908117909155600154909616803b15610e44575f8091604460405180948193632f2ff15d60e01b83527feaeeb45c1b9029a6e392e1e7aa6f4af6bd8111f85c32809598bc9903a16227a360048401528c60248401525af1801561272957612714575b5081806040516020810190638f940f6360e01b82526004815261263260248261289a565b5190895afa9161264061291a565b909280612709575b6126e4575b507f1fd3f5ac3f399fee1f2e1542a21e54419982652427453cc1d8241134888c70479392916126b691602098612681613364565b9761269960405197889760c0895260c08901916128fa565b938b870152896040870152606086015284830360808601526128fa565b4260a08301526001600160a01b03909416930390a260015f516020615b175f395f51905f5255604051908152f35b8051919493925060208082019282019190910312610e4457519192909190602061264d565b506020815114612648565b6127219192505f9061289a565b5f905f61260e565b6040513d5f823e3d90fd5b634e487b7160e01b5f52604160045260245ffd5b5050610eaf604051928392638adab4b760e01b84526020600485015260248401916128fa565b6382b68efb60e01b5f5260045ffd5b637b43badd60e01b5f5260045ffd5b34610e44576020366003190112610e44576004355f526011602052602060018060a01b0360405f205416604051908152f35b34610e44576020366003190112610e44576004359063ffffffff60e01b8216809203610e445760209163d0f808eb60e01b8114908115612800575b5015158152f35b637965db0b60e01b81149150811561281a575b50836127f9565b6301ffc9a760e01b14905083612813565b9181601f84011215610e44578235916001600160401b038311610e445760208381860195010111610e4457565b602435906001600160a01b0382168203610e4457565b600435906001600160a01b0382168203610e4457565b604435906001600160a01b0382168203610e4457565b90601f801991011681019081106001600160401b0382111761273457604052565b6001600160401b03811161273457601f01601f191660200190565b805180835260209291819084018484015e5f828201840152601f01601f1916010190565b908060209392818452848401375f828201840152601f01601f1916010190565b3d15612944573d9061292b826128bb565b91612939604051938461289a565b82523d5f602084013e565b606090565b90816020910312610e4457518015158103610e445790565b80511561296e5760200190565b634e487b7160e01b5f52603260045260245ffd5b80516001101561296e5760400190565b80516002101561296e5760600190565b80516003101561296e5760800190565b80516004101561296e5760a00190565b80516005101561296e5760c00190565b9080602083519182815201916020808360051b8301019401925f915b8383106129fd57505050505090565b9091929394602080612a1b600193601f1986820301875289516128d6565b970193019301919392906129ee565b60025f516020615b175f395f51905f525414612a535760025f516020615b175f395f51905f5255565b633ee5aeb560e01b5f5260045ffd5b612a6a613364565b6001600160a01b0381165f9081527fb7db2dd08fcb62d0c9e08c51941cae53c267786a0b75803fb7960902fc8ef97d602052604090205460ff1615612aac5750565b63e2517d3f60e01b5f5260018060a01b03166004525f60245260445ffd5b612ad2613364565b815f525f516020615af75f395f51905f5260205260405f2060018060a01b0382165f5260205260ff60405f20541615612b09575050565b63e2517d3f60e01b5f5260018060a01b031660045260245260445ffd5b6001600160a01b03168015612bc9576040516301ffc9a760e01b815263604b4d3760e11b6004820152602081602481855afa5f9181612ba8575b50612b8357506327224edf60e01b5f5260045263604b4d3760e11b60245260445ffd5b15612b8b5750565b6327224edf60e01b5f5260045263604b4d3760e11b60245260445ffd5b612bc291925060203d602011610eea57610edc818361289a565b905f612b60565b50565b6001600160a01b03168015612bc9576040516301ffc9a760e01b815263c08590db60e01b6004820152602081602481855afa5f9181612c4e575b50612c2957506327224edf60e01b5f5260045263c08590db60e01b60245260445ffd5b15612c315750565b6327224edf60e01b5f5260045263c08590db60e01b60245260445ffd5b612c6891925060203d602011610eea57610edc818361289a565b905f612c06565b6001600160a01b03168015612bc9576040516301ffc9a760e01b8152637d84485d60e01b6004820152602081602481855afa5f9181612cf1575b50612ccc57506327224edf60e01b5f52600452637d84485d60e01b60245260445ffd5b15612cd45750565b6327224edf60e01b5f52600452637d84485d60e01b60245260445ffd5b612d0b91925060203d602011610eea57610edc818361289a565b905f612ca9565b6001600160a01b03168015612bc9576040516301ffc9a760e01b8152630277b84b60e11b6004820152602081602481855afa5f9181612d94575b50612d6f57506327224edf60e01b5f52600452630277b84b60e11b60245260445ffd5b15612d775750565b6327224edf60e01b5f52600452630277b84b60e11b60245260445ffd5b612dae91925060203d602011610eea57610edc818361289a565b905f612d4c565b6001600160a01b03168015612bc9576040516301ffc9a760e01b815263161eee7760e31b6004820152602081602481855afa5f9181612e37575b50612e1257506327224edf60e01b5f5260045263161eee7760e31b60245260445ffd5b15612e1a5750565b6327224edf60e01b5f5260045263161eee7760e31b60245260445ffd5b612e5191925060203d602011610eea57610edc818361289a565b905f612def565b6001600160a01b03168015612bc9576040516301ffc9a760e01b8152631526bf3960e11b6004820152602081602481855afa5f9181612eda575b50612eb557506327224edf60e01b5f52600452631526bf3960e11b60245260445ffd5b15612ebd5750565b6327224edf60e01b5f52600452631526bf3960e11b60245260445ffd5b612ef491925060203d602011610eea57610edc818361289a565b905f612e92565b6001600160a01b03168015612bc9576040516301ffc9a760e01b815263034e9be160e01b6004820152602081602481855afa5f9181612f7d575b50612f5857506327224edf60e01b5f5260045263034e9be160e01b60245260445ffd5b15612f605750565b6327224edf60e01b5f5260045263034e9be160e01b60245260445ffd5b612f9791925060203d602011610eea57610edc818361289a565b905f612f35565b6001600160a01b03168015612bc9576040516301ffc9a760e01b8152631983557360e21b6004820152602081602481855afa5f9181613020575b50612ffb57506327224edf60e01b5f52600452631983557360e21b60245260445ffd5b156130035750565b6327224edf60e01b5f52600452631983557360e21b60245260445ffd5b61303a91925060203d602011610eea57610edc818361289a565b905f612fd8565b6001600160a01b03168015612bc9576040516301ffc9a760e01b8152634ea2ccdd60e01b6004820152602081602481855afa5f91816130c3575b5061309e57506327224edf60e01b5f52600452634ea2ccdd60e01b60245260445ffd5b156130a65750565b6327224edf60e01b5f52600452634ea2ccdd60e01b60245260445ffd5b6130dd91925060203d602011610eea57610edc818361289a565b905f61307b565b6001600160a01b0381165f9081527fb7db2dd08fcb62d0c9e08c51941cae53c267786a0b75803fb7960902fc8ef97d602052604090205460ff166131a1576001600160a01b038181165f9081527fb7db2dd08fcb62d0c9e08c51941cae53c267786a0b75803fb7960902fc8ef97d60205260409020805460ff1916600117905561316c613364565b16906001600160a01b03165f7f2f8788117e7eff1d82e926ec794901d17c78024a50270940304540a733656f0d8180a4600190565b505f90565b5f8181525f516020615af75f395f51905f52602090815260408083206001600160a01b038616845290915290205460ff16613251575f8181525f516020615af75f395f51905f52602090815260408083206001600160a01b0386811685529252909120805460ff1916600117905561321c613364565b16916001600160a01b0316907f2f8788117e7eff1d82e926ec794901d17c78024a50270940304540a733656f0d5f80a4600190565b50505f90565b5f8181525f516020615af75f395f51905f52602090815260408083206001600160a01b038616845290915290205460ff1615613251575f8181525f516020615af75f395f51905f52602090815260408083206001600160a01b0386811685529252909120805460ff191690556132cb613364565b16916001600160a01b0316907ff6391f5c32d9c69d2a47ea670b442974b53935d1edc7fd64eb21e047a839171b5f80a4600190565b60405160e09190613311838261289a565b6006815291601f1901825f5b82811061332957505050565b80606060208093850101520161331d565b6040519061334960408361289a565b600c82526b737472696e6720636c61696d60a01b6020830152565b337f00000000000000000000000000000000000000000000000000000000000000006001600160a01b031614806133c6575b156133c25760131936013681116133ae573560601c90565b634e487b7160e01b5f52601160045260245ffd5b3390565b506014361015613396565b60ff5f516020615b375f395f51905f525460401c16156133ed57565b631afcd79f60e31b5f5260045ffd5b90613420575080511561341157805190602001fd5b63d6bda27560e01b5f5260045ffd5b81511580613451575b613431575090565b639996b31560e01b5f9081526001600160a01b0391909116600452602490fd5b50803b1561342956fe6080604052346100a457610544803803809161001a826100bc565b60803960608160800191126100a45761003161010a565b60a05160c05192916001600160401b0384116100a45782609f850112156100a457836080015161006081610134565b9361006e60405195866100e7565b81855260a082870101116100a4576020815f9260a061009598018388015e8501015261014f565b60405161017290816103928239f35b5f80fd5b634e487b7160e01b5f52604160045260245ffd5b6080601f91909101601f19168101906001600160401b038211908210176100e257604052565b6100a8565b601f909101601f19168101906001600160401b038211908210176100e257604052565b608051906001600160a01b03821682036100a457565b51906001600160a01b03821682036100a457565b6001600160401b0381116100e257601f01601f191660200190565b9091906001600160a01b03811680159081156101e6575b506101d7575f5160206105245f395f51905f5280546001600160a01b0319166001600160a01b039092169190911790556101d5916101af905f5160206105045f395f51905f5255565b5f5160206105245f395f51905f52546101d0906001600160a01b031661027b565b610324565b565b633f997a3760e01b5f5260045ffd5b6040516301ffc9a760e01b815263d0f808eb60e01b60048201529150602090829060249082905afa908115610253575f91610224575b50155f610166565b610246915060203d60201161024c575b61023e81836100e7565b810190610258565b5f61021c565b503d610234565b610270565b908160209103126100a4575180151581036100a45790565b6040513d5f823e3d90fd5b5f5160206105045f395f51905f52546040516370aaa33360e11b81526004810182905291602090839060249082906001600160a01b03165afa918215610253575f926102e8575b506001600160a01b038216156102d6575090565b632c35636160e11b5f5260045260245ffd5b9091506020813d60201161031c575b81610304602093836100e7565b810103126100a45761031590610120565b905f6102c2565b3d91506102f7565b6001600160a01b0381161561038257815f929160208493519201905af43d1561037a573d9061035282610134565b9161036060405193846100e7565b82523d5f602084013e5b156103725750565b602081519101fd5b60609061036a565b63ee0a129760e01b5f5260045ffdfe608060405236156100dc5760018060a01b037f4ec051ecf420fd16e0db567197da76ec7f1f5f47763970d604b97e75cb0064d35416602060806024817ee3e0cec59b60132eea2c7a5f5ee6f561df7478627a471ef97f7437cc141bee54946370aaa33360e11b8252856084525afa9081156100d1575f916100a2575b6001600160a01b0382161561009057506100eb565b632c35636160e11b5f5260045260245ffd5b905060203d6020116100ca575b806100bc6100c492610108565b60800161013f565b9061007b565b503d6100af565b6040513d5f823e3d90fd5b635d82995b60e01b5f5260045ffd5b5f8091368280378136915af43d5f803e15610104573d5ff35b3d5ffd5b601f80199101166080016080811067ffffffffffffffff82111761012b57604052565b634e487b7160e01b5f52604160045260245ffd5b602090607f190112610161576080516001600160a01b03811681036101615790565b5f80fdfea164736f6c634300081c000a00e3e0cec59b60132eea2c7a5f5ee6f561df7478627a471ef97f7437cc141bee4ec051ecf420fd16e0db567197da76ec7f1f5f47763970d604b97e75cb0064d360806040523461008257610529388190036080601f8201601f19168101906001600160401b038211908210176100865760a0928291604052608039126100825761007361004a6100bd565b61005460a06100d3565b60c05161006160e06100d3565b9161006d6101006100d3565b93610109565b60405161017390816103968239f35b5f80fd5b634e487b7160e01b5f52604160045260245ffd5b601f909101601f19168101906001600160401b0382119082101761008657604052565b608051906001600160a01b038216820361008257565b51906001600160a01b038216820361008257565b90816020910312610082576100fb906100d3565b90565b6040513d5f823e3d90fd5b9493906101158661024b565b61013d837f17947bca0d2c81fdff72d848cf07e6794554f6987d19e262fbc8ebfe6c58aef455565b5f5160206105095f395f51905f525461016c90610160906001600160a01b031681565b6001600160a01b031690565b604051631cece55f60e01b8152600481018590529390602090859060249082905afa938415610246575f94610215575b506001600160a01b038416156102035750604051637c643b2f60e11b60208201526001600160a01b0396871660248201529386166044850152851660648401529093166084808301919091528152909161020191906101fc60a48361009a565b610319565b565b630cc8ce1560e11b5f5260045260245ffd5b61023891945060203d60201161023f575b610230818361009a565b8101906100e7565b925f61019c565b503d610226565b6100fe565b6001600160a01b03811680159081156102a0575b50610291575f5160206105095f395f51905f5280546001600160a01b0319166001600160a01b03909216919091179055565b633f997a3760e01b5f5260045ffd5b6040516301ffc9a760e01b815263d0f808eb60e01b60048201529150602090829060249082905afa908115610246575f916102de575b50155f61025f565b90506020813d602011610311575b816102f96020938361009a565b8101031261008257518015158103610082575f6102d6565b3d91506102ec565b6001600160a01b0381161561038657815f929160208493519201905af43d1561037e573d906001600160401b0382116100865760405191610364601f8201601f19166020018461009a565b82523d5f602084013e5b156103765750565b602081519101fd5b60609061036e565b63ee0a129760e01b5f5260045ffdfe608060405236156100dd5760018060a01b037f4ec051ecf420fd16e0db567197da76ec7f1f5f47763970d604b97e75cb0064d35416602060806024817f17947bca0d2c81fdff72d848cf07e6794554f6987d19e262fbc8ebfe6c58aef45494631cece55f60e01b8252856084525afa9081156100d2575f916100a3575b6001600160a01b0382161561009157506100ec565b630cc8ce1560e11b5f5260045260245ffd5b905060203d6020116100cb575b806100bd6100c592610109565b608001610140565b9061007c565b503d6100b0565b6040513d5f823e3d90fd5b635d82995b60e01b5f5260045ffd5b5f8091368280378136915af43d5f803e15610105573d5ff35b3d5ffd5b601f80199101166080016080811067ffffffffffffffff82111761012c57604052565b634e487b7160e01b5f52604160045260245ffd5b602090607f190112610162576080516001600160a01b03811681036101625790565b5f80fdfea164736f6c634300081c000a4ec051ecf420fd16e0db567197da76ec7f1f5f47763970d604b97e75cb0064d36080604052346100c95761051d803803809161001a826100e1565b60803960408160800191126100c95761003161012a565b60a05191906001600160401b0383116100c95781609f840112156100c9576080830151916001600160401b0383116100cd578260051b93604051936100796020870186610107565b845260a060208501958201019182116100c95760a001935b8185106100b1576100a28484610196565b60405161013b90816103e28239f35b602080916100be87610140565b815201940193610091565b5f80fd5b634e487b7160e01b5f52604160045260245ffd5b6080601f91909101601f19168101906001600160401b038211908210176100cd57604052565b601f909101601f19168101906001600160401b038211908210176100cd57604052565b608051906001600160a01b03821682036100c957565b51906001600160a01b03821682036100c957565b60206040818301928281528451809452019201905f5b8181106101775750505090565b82516001600160a01b031684526020938401939092019160010161016a565b6001600160a01b0381168015908115610243575b50610234577f4ec051ecf420fd16e0db567197da76ec7f1f5f47763970d604b97e75cb0064d380546001600160a01b0319166001600160a01b039290921691821790556102329161021f9161022d90610202906102d8565b9160405193849163a224cee760e01b602084015260248301610154565b03601f198101845283610107565b610365565b565b633f997a3760e01b5f5260045ffd5b6040516301ffc9a760e01b815263d0f808eb60e01b60048201529150602090829060249082905afa9081156102b0575f91610281575b50155f6101aa565b6102a3915060203d6020116102a9575b61029b8183610107565b8101906102b5565b5f610279565b503d610291565b6102cd565b908160209103126100c9575180151581036100c95790565b6040513d5f823e3d90fd5b60405163917fc62960e01b815290602090829060049082906001600160a01b03165afa9081156102b0575f9161032b575b506001600160a01b0381161561031c5790565b63ee30f64f60e01b5f5260045ffd5b90506020813d60201161035d575b8161034660209383610107565b810103126100c95761035790610140565b5f610309565b3d9150610339565b6001600160a01b038116156103d257815f929160208493519201905af43d156103ca573d906001600160401b0382116100cd57604051916103b0601f8201601f191660200184610107565b82523d5f602084013e5b156103c25750565b602081519101fd5b6060906103ba565b63ee0a129760e01b5f5260045ffdfe608060405236156100dc577f4ec051ecf420fd16e0db567197da76ec7f1f5f47763970d604b97e75cb0064d35463917fc62960e01b608090815260209160049082906001600160a01b03165afa80156100d1575f90610076575b6001600160a01b0381166100eb5763ee30f64f60e01b5f5260045ffd5b5060203d6020116100ca575b601f19601f820116608001906080821067ffffffffffffffff8311176100b6576100b191604052608001610108565b610059565b634e487b7160e01b5f52604160045260245ffd5b503d610082565b6040513d5f823e3d90fd5b635d82995b60e01b5f5260045ffd5b5f8091368280378136915af43d5f803e15610104573d5ff35b3d5ffd5b602090607f19011261012a576080516001600160a01b038116810361012a5790565b5f80fdfea164736f6c634300081c000a60806040523461016a576040610462803803809161001c82610182565b6080391261016a5761002c6101d0565b61003660a06101e6565b6001600160a01b03821680159081156100f8575b506100e9577f4ec051ecf420fd16e0db567197da76ec7f1f5f47763970d604b97e75cb0064d380546001600160a01b0319166001600160a01b0384169081179091556100da92906100d59061009e9061021d565b60405163485cc95560e01b60208201526001600160a01b0393841660248201529390921660448085019190915283526064836101ad565b6102aa565b60405161013b90816103278239f35b633f997a3760e01b5f5260045ffd5b6040516301ffc9a760e01b815263d0f808eb60e01b60048201529150602090829060249082905afa908115610165575f91610136575b50155f61004a565b610158915060203d60201161015e575b61015081836101ad565b8101906101fa565b5f61012e565b503d610146565b610212565b5f80fd5b634e487b7160e01b5f52604160045260245ffd5b6080601f91909101601f19168101906001600160401b038211908210176101a857604052565b61016e565b601f909101601f19168101906001600160401b038211908210176101a857604052565b608051906001600160a01b038216820361016a57565b51906001600160a01b038216820361016a57565b9081602091031261016a5751801515810361016a5790565b6040513d5f823e3d90fd5b604051636dbe06f560e01b815290602090829060049082906001600160a01b03165afa908115610165575f91610270575b506001600160a01b038116156102615790565b63d6cd3aeb60e01b5f5260045ffd5b90506020813d6020116102a2575b8161028b602093836101ad565b8101031261016a5761029c906101e6565b5f61024e565b3d915061027e565b6001600160a01b0381161561031757815f929160208493519201905af43d1561030f573d906001600160401b0382116101a857604051916102f5601f8201601f1916602001846101ad565b82523d5f602084013e5b156103075750565b602081519101fd5b6060906102ff565b63ee0a129760e01b5f5260045ffdfe608060405236156100dc577f4ec051ecf420fd16e0db567197da76ec7f1f5f47763970d604b97e75cb0064d354636dbe06f560e01b608090815260209160049082906001600160a01b03165afa80156100d1575f90610076575b6001600160a01b0381166100eb5763d6cd3aeb60e01b5f5260045ffd5b5060203d6020116100ca575b601f19601f820116608001906080821067ffffffffffffffff8311176100b6576100b191604052608001610108565b610059565b634e487b7160e01b5f52604160045260245ffd5b503d610082565b6040513d5f823e3d90fd5b635d82995b60e01b5f5260045ffd5b5f8091368280378136915af43d5f803e15610104573d5ff35b3d5ffd5b602090607f19011261012a576080516001600160a01b038116810361012a5790565b5f80fdfea164736f6c634300081c000a608060405234610171576040610469803803809161001c82610189565b608039126101715761002c6101d7565b61003660a06101ed565b906001600160a01b03811680159081156100ff575b506100f0577f4ec051ecf420fd16e0db567197da76ec7f1f5f47763970d604b97e75cb0064d380546001600160a01b0319166001600160a01b039290921691821790556100e1916100ce916100dc906100a390610224565b60405163189acdbd60e31b60208201526001600160a01b039093166024840152919283906044820190565b03601f1981018452836101b4565b6102b1565b60405161013b908161032e8239f35b633f997a3760e01b5f5260045ffd5b6040516301ffc9a760e01b815263d0f808eb60e01b60048201529150602090829060249082905afa90811561016c575f9161013d575b50155f61004b565b61015f915060203d602011610165575b61015781836101b4565b810190610201565b5f610135565b503d61014d565b610219565b5f80fd5b634e487b7160e01b5f52604160045260245ffd5b6080601f91909101601f19168101906001600160401b038211908210176101af57604052565b610175565b601f909101601f19168101906001600160401b038211908210176101af57604052565b608051906001600160a01b038216820361017157565b51906001600160a01b038216820361017157565b90816020910312610171575180151581036101715790565b6040513d5f823e3d90fd5b6040516339b14cdf60e01b815290602090829060049082906001600160a01b03165afa90811561016c575f91610277575b506001600160a01b038116156102685790565b630273e4dd60e41b5f5260045ffd5b90506020813d6020116102a9575b81610292602093836101b4565b81010312610171576102a3906101ed565b5f610255565b3d9150610285565b6001600160a01b0381161561031e57815f929160208493519201905af43d15610316573d906001600160401b0382116101af57604051916102fc601f8201601f1916602001846101b4565b82523d5f602084013e5b1561030e5750565b602081519101fd5b606090610306565b63ee0a129760e01b5f5260045ffdfe608060405236156100dc577f4ec051ecf420fd16e0db567197da76ec7f1f5f47763970d604b97e75cb0064d3546339b14cdf60e01b608090815260209160049082906001600160a01b03165afa80156100d1575f90610076575b6001600160a01b0381166100eb57630273e4dd60e41b5f5260045ffd5b5060203d6020116100ca575b601f19601f820116608001906080821067ffffffffffffffff8311176100b6576100b191604052608001610108565b610059565b634e487b7160e01b5f52604160045260245ffd5b503d610082565b6040513d5f823e3d90fd5b635d82995b60e01b5f5260045ffd5b5f8091368280378136915af43d5f803e15610104573d5ff35b3d5ffd5b602090607f19011261012a576080516001600160a01b038116810361012a5790565b5f80fdfea164736f6c634300081c000a6080604052604061052a8038038091610017826101a6565b6080391261018e576100276101f4565b61003160a061020a565b906001600160a01b038116801590811561011c575b5061010d577f4ec051ecf420fd16e0db567197da76ec7f1f5f47763970d604b97e75cb0064d380546001600160a01b0319166001600160a01b0383169081179091556100fe92906100f99061009a906102e5565b916100cc6100a661021e565b946100c3836100b488610240565b6001600160a01b039091169052565b6100b486610261565b6100eb60405194859263251b648160e21b602085015260248401610271565b03601f1981018452836101d1565b610372565b60405161013b90816103ef8239f35b633f997a3760e01b5f5260045ffd5b6040516301ffc9a760e01b815263d0f808eb60e01b60048201529150602090829060249082905afa908115610189575f9161015a575b50155f610046565b61017c915060203d602011610182575b61017481836101d1565b8101906102c2565b5f610152565b503d61016a565b6102da565b5f80fd5b634e487b7160e01b5f52604160045260245ffd5b6080601f91909101601f19168101906001600160401b038211908210176101cc57604052565b610192565b601f909101601f19168101906001600160401b038211908210176101cc57604052565b608051906001600160a01b038216820361018e57565b51906001600160a01b038216820361018e57565b6040516060919061022f83826101d1565b6002815291601f1901366020840137565b80511561024d5760200190565b634e487b7160e01b5f52603260045260245ffd5b80516001101561024d5760400190565b6060602091604081019360018060a01b031681526040838201528451809452019201905f5b8181106102a35750505090565b82516001600160a01b0316845260209384019390920191600101610296565b9081602091031261018e5751801515810361018e5790565b6040513d5f823e3d90fd5b604051632c45518360e11b815290602090829060049082906001600160a01b03165afa908115610189575f91610338575b506001600160a01b038116156103295790565b6342f4ff8d60e11b5f5260045ffd5b90506020813d60201161036a575b81610353602093836101d1565b8101031261018e576103649061020a565b5f610316565b3d9150610346565b6001600160a01b038116156103df57815f929160208493519201905af43d156103d7573d906001600160401b0382116101cc57604051916103bd601f8201601f1916602001846101d1565b82523d5f602084013e5b156103cf5750565b602081519101fd5b6060906103c7565b63ee0a129760e01b5f5260045ffdfe608060405236156100dc577f4ec051ecf420fd16e0db567197da76ec7f1f5f47763970d604b97e75cb0064d354632c45518360e11b608090815260209160049082906001600160a01b03165afa80156100d1575f90610076575b6001600160a01b0381166100eb576342f4ff8d60e11b5f5260045ffd5b5060203d6020116100ca575b601f19601f820116608001906080821067ffffffffffffffff8311176100b6576100b191604052608001610108565b610059565b634e487b7160e01b5f52604160045260245ffd5b503d610082565b6040513d5f823e3d90fd5b635d82995b60e01b5f5260045ffd5b5f8091368280378136915af43d5f803e15610104573d5ff35b3d5ffd5b602090607f19011261012a576080516001600160a01b038116810361012a5790565b5f80fdfea164736f6c634300081c000a608060405260a061049b8038038091610017826101bb565b608039126101a357610027610209565b61003160a061021f565b61003b60c061021f565b9061004660e061021f565b9061005261010061021f565b906001600160a01b0385168015908115610131575b50610122577f4ec051ecf420fd16e0db567197da76ec7f1f5f47763970d604b97e75cb0064d380546001600160a01b0319166001600160a01b039690961695861790556101139461010e92610100916100bf90610256565b604051637c643b2f60e11b60208201526001600160a01b039485166024820152968416604488015294831660648701529091166084850152839060a4820190565b03601f1981018452836101e6565b6102e3565b60405161013b90816103608239f35b633f997a3760e01b5f5260045ffd5b6040516301ffc9a760e01b815263d0f808eb60e01b60048201529150602090829060249082905afa90811561019e575f9161016f575b50155f610067565b610191915060203d602011610197575b61018981836101e6565b810190610233565b5f610167565b503d61017f565b61024b565b5f80fd5b634e487b7160e01b5f52604160045260245ffd5b6080601f91909101601f19168101906001600160401b038211908210176101e157604052565b6101a7565b601f909101601f19168101906001600160401b038211908210176101e157604052565b608051906001600160a01b03821682036101a357565b51906001600160a01b03821682036101a357565b908160209103126101a3575180151581036101a35790565b6040513d5f823e3d90fd5b6040516350c6ecf560e11b815290602090829060049082906001600160a01b03165afa90811561019e575f916102a9575b506001600160a01b0381161561029a5790565b6397a22d9360e01b5f5260045ffd5b90506020813d6020116102db575b816102c4602093836101e6565b810103126101a3576102d59061021f565b5f610287565b3d91506102b7565b6001600160a01b0381161561035057815f929160208493519201905af43d15610348573d906001600160401b0382116101e1576040519161032e601f8201601f1916602001846101e6565b82523d5f602084013e5b156103405750565b602081519101fd5b606090610338565b63ee0a129760e01b5f5260045ffdfe608060405236156100dc577f4ec051ecf420fd16e0db567197da76ec7f1f5f47763970d604b97e75cb0064d3546350c6ecf560e11b608090815260209160049082906001600160a01b03165afa80156100d1575f90610076575b6001600160a01b0381166100eb576397a22d9360e01b5f5260045ffd5b5060203d6020116100ca575b601f19601f820116608001906080821067ffffffffffffffff8311176100b6576100b191604052608001610108565b610059565b634e487b7160e01b5f52604160045260245ffd5b503d610082565b6040513d5f823e3d90fd5b635d82995b60e01b5f5260045ffd5b5f8091368280378136915af43d5f803e15610104573d5ff35b3d5ffd5b602090607f19011261012a576080516001600160a01b038116810361012a5790565b5f80fdfea164736f6c634300081c000a60806040523461016a576040610462803803809161001c82610182565b6080391261016a5761002c6101d0565b61003660a06101e6565b6001600160a01b03821680159081156100f8575b506100e9577f4ec051ecf420fd16e0db567197da76ec7f1f5f47763970d604b97e75cb0064d380546001600160a01b0319166001600160a01b0384169081179091556100da92906100d59061009e9061021d565b60405163485cc95560e01b60208201526001600160a01b0393841660248201529390921660448085019190915283526064836101ad565b6102aa565b60405161013b90816103278239f35b633f997a3760e01b5f5260045ffd5b6040516301ffc9a760e01b815263d0f808eb60e01b60048201529150602090829060249082905afa908115610165575f91610136575b50155f61004a565b610158915060203d60201161015e575b61015081836101ad565b8101906101fa565b5f61012e565b503d610146565b610212565b5f80fd5b634e487b7160e01b5f52604160045260245ffd5b6080601f91909101601f19168101906001600160401b038211908210176101a857604052565b61016e565b601f909101601f19168101906001600160401b038211908210176101a857604052565b608051906001600160a01b038216820361016a57565b51906001600160a01b038216820361016a57565b9081602091031261016a5751801515810361016a5790565b6040513d5f823e3d90fd5b60405163e32d4b6760e01b815290602090829060049082906001600160a01b03165afa908115610165575f91610270575b506001600160a01b038116156102615790565b6305b4e73960e51b5f5260045ffd5b90506020813d6020116102a2575b8161028b602093836101ad565b8101031261016a5761029c906101e6565b5f61024e565b3d915061027e565b6001600160a01b0381161561031757815f929160208493519201905af43d1561030f573d906001600160401b0382116101a857604051916102f5601f8201601f1916602001846101ad565b82523d5f602084013e5b156103075750565b602081519101fd5b6060906102ff565b63ee0a129760e01b5f5260045ffdfe608060405236156100dc577f4ec051ecf420fd16e0db567197da76ec7f1f5f47763970d604b97e75cb0064d35463e32d4b6760e01b608090815260209160049082906001600160a01b03165afa80156100d1575f90610076575b6001600160a01b0381166100eb576305b4e73960e51b5f5260045ffd5b5060203d6020116100ca575b601f19601f820116608001906080821067ffffffffffffffff8311176100b6576100b191604052608001610108565b610059565b634e487b7160e01b5f52604160045260245ffd5b503d610082565b6040513d5f823e3d90fd5b635d82995b60e01b5f5260045ffd5b5f8091368280378136915af43d5f803e15610104573d5ff35b3d5ffd5b602090607f19011261012a576080516001600160a01b038116810361012a5790565b5f80fdfea164736f6c634300081c000a360894a13ba1a3210667c828492db98dca3e2076cc3735a920a3ca505d382bbc02dd7bc7dec4dceedda775e58dd541e08a116c6c53815c0bd028192f7b6268009b779b17422d0df92223018b32b4d1fa46e071723d6817e2486d003becc55f00f0c57e16840df040f15088dc2f81fe391c3923bec73e23a9662efc9c229c6a00a164736f6c634300081c000af0c57e16840df040f15088dc2f81fe391c3923bec73e23a9662efc9c229c6a00",
    "linkReferences": {}
  },
  "methodIdentifiers": {
    "DEFAULT_ADMIN_ROLE()": "a217fddf",
    "UPGRADE_INTERFACE_VERSION()": "ad3cb1cc",
    "addonImplementation(bytes32)": "e1554666",
    "addonProxy(bytes32)": "b00a0fdc",
    "bootstrap()": "fb969b0a",
    "complianceImplementation()": "917fc629",
    "complianceProxy()": "98468e51",
    "createSystemAddon(string,address,bytes)": "157f1181",
    "createTokenFactory(string,address,address)": "e277d07d",
    "getRoleAdmin(bytes32)": "248a9ca3",
    "grantRole(bytes32,address)": "2f2ff15d",
    "hasRole(bytes32,address)": "91d14854",
    "identityFactoryImplementation()": "e32d4b67",
    "identityFactoryProxy()": "78e72222",
    "identityImplementation()": "6d7203cb",
    "identityRegistryImplementation()": "a18dd9ea",
    "identityRegistryProxy()": "d62def8f",
    "identityRegistryStorageImplementation()": "6dbe06f5",
    "identityRegistryStorageProxy()": "72b3f57e",
    "identityVerificationModule()": "c8b5d911",
    "initialize(address,address,address,address,address,address,address,address,address,address,address)": "76902b83",
    "isTrustedForwarder(address)": "572b6c05",
    "proxiableUUID()": "52d1902d",
    "renounceRole(bytes32,address)": "36568abe",
    "revokeRole(bytes32,address)": "d547741f",
    "setAddonImplementation(bytes32,address)": "e045d701",
    "setComplianceImplementation(address)": "457779a2",
    "setIdentityFactoryImplementation(address)": "9f3b39b1",
    "setIdentityImplementation(address)": "16e22778",
    "setIdentityRegistryImplementation(address)": "63f3d320",
    "setIdentityRegistryStorageImplementation(address)": "4543741c",
    "setTokenAccessManagerImplementation(address)": "8214faf8",
    "setTokenFactoryImplementation(bytes32,address)": "80f1d105",
    "setTokenIdentityImplementation(address)": "a10cddc0",
    "setTopicSchemeRegistryImplementation(address)": "d23f1978",
    "setTrustedIssuersRegistryImplementation(address)": "c2deb16b",
    "supportsInterface(bytes4)": "01ffc9a7",
    "tokenAccessManagerImplementation()": "44eecc17",
    "tokenFactoryImplementation(bytes32)": "1cece55f",
    "tokenFactoryProxy(bytes32)": "139aca99",
    "tokenIdentityImplementation()": "3cdbceda",
    "topicSchemeRegistryImplementation()": "588aa306",
    "topicSchemeRegistryProxy()": "7d6b252e",
    "trustedForwarder()": "7da0a877",
    "trustedIssuersRegistryImplementation()": "39b14cdf",
    "trustedIssuersRegistryProxy()": "d907c456",
    "upgradeToAndCall(address,bytes)": "4f1ef286"
  },
  "userdoc": {
    "version": 1,
    "kind": "user",
    "methods": {
      "addonImplementation(bytes32)": {
        "notice": "Returns the address of the current system addon implementation."
      },
      "addonProxy(bytes32)": {
        "notice": "Gets the address of the system addon proxy contract for a given addon type hash."
      },
      "bootstrap()": {
        "notice": "Deploys and initializes the proxy contracts for all core ATK modules."
      },
      "complianceImplementation()": {
        "notice": "Gets the current address of the compliance module's implementation (logic) contract."
      },
      "complianceProxy()": {
        "notice": "Gets the address of the compliance module's proxy contract."
      },
      "createSystemAddon(string,address,bytes)": {
        "notice": "Deploys and registers a new system addon with a proxy and initializer."
      },
      "createTokenFactory(string,address,address)": {
        "notice": "Creates a new token factory implementation and proxy."
      },
      "identityFactoryImplementation()": {
        "notice": "Gets the current address of the identity factory module's implementation (logic) contract."
      },
      "identityFactoryProxy()": {
        "notice": "Gets the address of the identity factory module's proxy contract."
      },
      "identityImplementation()": {
        "notice": "Gets the current address of the standard identity contract's implementation (logic template)."
      },
      "identityRegistryImplementation()": {
        "notice": "Gets the current address of the identity registry module's implementation (logic) contract."
      },
      "identityRegistryProxy()": {
        "notice": "Gets the address of the identity registry module's proxy contract."
      },
      "identityRegistryStorageImplementation()": {
        "notice": "Gets the current address of the identity registry storage module's implementation (logic) contract."
      },
      "identityRegistryStorageProxy()": {
        "notice": "Gets the address of the identity registry storage module's proxy contract."
      },
      "identityVerificationModule()": {
        "notice": "Gets the address of the identity verification module's proxy contract."
      },
      "initialize(address,address,address,address,address,address,address,address,address,address,address)": {
        "notice": "Initializes the ATKSystem contract."
      },
      "setAddonImplementation(bytes32,address)": {
        "notice": "Sets (updates) the address of a system addon's implementation (logic) contract."
      },
      "setComplianceImplementation(address)": {
        "notice": "Sets (updates) the address of the compliance module's implementation (logic) contract."
      },
      "setIdentityFactoryImplementation(address)": {
        "notice": "Sets (updates) the address of the identity factory module's implementation (logic) contract."
      },
      "setIdentityImplementation(address)": {
        "notice": "Sets (updates) the address of the standard identity contract's implementation (logic template)."
      },
      "setIdentityRegistryImplementation(address)": {
        "notice": "Sets (updates) the address of the identity registry module's implementation (logic) contract."
      },
      "setIdentityRegistryStorageImplementation(address)": {
        "notice": "Sets (updates) the address of the identity registry storage module's implementation (logic) contract."
      },
      "setTokenAccessManagerImplementation(address)": {
        "notice": "Sets (updates) the address of the token access manager contract's implementation (logic)."
      },
      "setTokenFactoryImplementation(bytes32,address)": {
        "notice": "Sets (updates) the address of a token factory's implementation (logic) contract."
      },
      "setTokenIdentityImplementation(address)": {
        "notice": "Sets (updates) the address of the token identity contract's implementation (logic template)."
      },
      "setTopicSchemeRegistryImplementation(address)": {
        "notice": "Sets (updates) the address of the topic scheme registry module's implementation (logic) contract."
      },
      "setTrustedIssuersRegistryImplementation(address)": {
        "notice": "Sets (updates) the address of the trusted issuers registry module's implementation (logic) contract."
      },
      "supportsInterface(bytes4)": {
        "notice": "Checks if the contract supports a given interface ID, according to ERC165."
      },
      "tokenAccessManagerImplementation()": {
        "notice": "Gets the current address of the token access manager contract's implementation (logic)."
      },
      "tokenFactoryImplementation(bytes32)": {
        "notice": "Returns the address of the current token registry implementation."
      },
      "tokenFactoryProxy(bytes32)": {
        "notice": "Gets the address of the token factory proxy contract for a given factory type hash."
      },
      "tokenIdentityImplementation()": {
        "notice": "Gets the current address of the token identity contract's implementation (logic template)."
      },
      "topicSchemeRegistryImplementation()": {
        "notice": "Gets the current address of the topic scheme registry module's implementation (logic) contract."
      },
      "topicSchemeRegistryProxy()": {
        "notice": "Gets the address of the topic scheme registry module's proxy contract."
      },
      "trustedIssuersRegistryImplementation()": {
        "notice": "Gets the current address of the trusted issuers registry module's implementation (logic) contract."
      },
      "trustedIssuersRegistryProxy()": {
        "notice": "Gets the address of the trusted issuers registry module's proxy contract."
      }
    },
    "events": {
      "AddonImplementationUpdated(address,bytes32,address)": {
        "notice": "Emitted when the implementation (logic contract) for a system addon is updated."
      },
      "Bootstrapped(address,address,address,address,address,address,address,address)": {
        "notice": "Emitted when the `bootstrap` function has been successfully executed, creating and linking proxy contracts for all core modules of the ATKSystem."
      },
      "ComplianceImplementationUpdated(address,address)": {
        "notice": "Emitted when the implementation (logic contract) for the compliance module is updated."
      },
      "IdentityFactoryImplementationUpdated(address,address)": {
        "notice": "Emitted when the implementation (logic contract) for the identity factory module is updated."
      },
      "IdentityImplementationUpdated(address,address)": {
        "notice": "Emitted when the implementation (logic contract) for the standard identity module is updated."
      },
      "IdentityRegistryImplementationUpdated(address,address)": {
        "notice": "Emitted when the implementation (logic contract) for the identity registry module is updated."
      },
      "IdentityRegistryStorageImplementationUpdated(address,address)": {
        "notice": "Emitted when the implementation (logic contract) for the identity registry storage module is updated."
      },
      "SystemAddonCreated(address,string,bytes32,address,address,bytes,uint256)": {
        "notice": "Emitted when a system addon is created."
      },
      "TokenAccessManagerImplementationUpdated(address,address)": {
        "notice": "Emitted when the implementation (logic contract) for the token access manager module is updated."
      },
      "TokenFactoryCreated(address,string,bytes32,address,address,uint256)": {
        "notice": "Emitted when a ATKTokenFactory is registered."
      },
      "TokenFactoryImplementationUpdated(address,bytes32,address)": {
        "notice": "Emitted when the implementation (logic contract) for a token factory is updated."
      },
      "TokenIdentityImplementationUpdated(address,address)": {
        "notice": "Emitted when the implementation (logic contract) for the token identity module is updated."
      },
      "TopicSchemeRegistryImplementationUpdated(address,address)": {
        "notice": "Emitted when the implementation (logic contract) for the topic scheme registry module is updated."
      },
      "TrustedIssuersRegistryImplementationUpdated(address,address)": {
        "notice": "Emitted when the implementation (logic contract) for the trusted issuers registry module is updated."
      }
    },
    "errors": {
      "AddonImplementationNotSet(bytes32)": [
        {
          "notice": "Error indicating that the system addon implementation address has not been set."
        }
      ],
      "AddonTypeAlreadyRegistered(string)": [
        {
          "notice": "Error indicating that a system addon type hash has already been registered."
        }
      ],
      "ComplianceImplementationNotSet()": [
        {
          "notice": "Error indicating that the compliance module implementation address has not been set."
        }
      ],
      "IdentityFactoryImplementationNotSet()": [
        {
          "notice": "Error indicating that the identity factory implementation address has not been set."
        }
      ],
      "IdentityImplementationNotSet()": [
        {
          "notice": "Error indicating that the standard identity contract implementation address has not been set."
        }
      ],
      "IdentityRegistryImplementationNotSet()": [
        {
          "notice": "Error indicating that the identity registry implementation address has not been set."
        }
      ],
      "IdentityRegistryStorageImplementationNotSet()": [
        {
          "notice": "Error indicating that the identity registry storage implementation address has not been set."
        }
      ],
      "IdentityVerificationModuleNotSet()": [
        {
          "notice": "Error indicating that the identity verification module implementation address has not been set."
        }
      ],
      "InvalidAddonAddress()": [
        {
          "notice": "Error indicating that an invalid addon address was provided."
        }
      ],
      "InvalidImplementationInterface(address,bytes4)": [
        {
          "notice": "Error indicating that a provided implementation address does not support a required interface."
        }
      ],
      "InvalidTokenFactoryAddress()": [
        {
          "notice": "Error indicating that an invalid token factory address was provided."
        }
      ],
      "InvalidTokenImplementationAddress()": [
        {
          "notice": "Error indicating that an invalid token implementation address was provided."
        }
      ],
      "InvalidTokenImplementationInterface()": [
        {
          "notice": "Error indicating that an invalid token implementation interface was provided."
        }
      ],
      "SystemAlreadyBootstrapped()": [
        {
          "notice": "Error indicating that the system has already been bootstrapped and cannot be bootstrapped again."
        }
      ],
      "SystemNotBootstrapped()": [
        {
          "notice": "Error indicating that an action is being attempted on a system that has not been bootstrapped yet."
        }
      ],
      "TokenAccessManagerImplementationNotSet()": [
        {
          "notice": "Error indicating that the token access manager contract implementation address has not been set."
        }
      ],
      "TokenFactoryTypeAlreadyRegistered(string)": [
        {
          "notice": "Error indicating that a token factory type hash has already been registered."
        }
      ],
      "TokenIdentityImplementationNotSet()": [
        {
          "notice": "Error indicating that the token identity contract implementation address has not been set."
        }
      ],
      "TopicSchemeRegistryImplementationNotSet()": [
        {
          "notice": "Error indicating that the topic scheme registry implementation address has not been set."
        }
      ],
      "TrustedIssuersRegistryImplementationNotSet()": [
        {
          "notice": "Error indicating that the trusted issuers registry implementation address has not been set."
        }
      ]
    },
    "notice": "This is the main contract for managing the ATK Protocol system components, their implementations (logic contracts), and their proxies. It acts as a central registry and control point for the entire protocol."
  },
  "devdoc": {
    "version": 1,
    "kind": "dev",
    "author": "SettleMint Tokenization Services",
    "details": "This contract handles the deployment of proxy contracts for various modules (like Compliance, Identity Registry, etc.) and manages the addresses of their underlying implementation (logic) contracts. This allows for system upgrades by changing the implementation address without altering the stable proxy addresses that other contracts interact with. It uses OpenZeppelin's ERC2771Context for meta-transaction support (allowing gasless transactions for users if a trusted forwarder is used) and AccessControl for role-based permissions (restricting sensitive functions to authorized administrators). It also inherits ReentrancyGuard to protect against reentrancy attacks on certain functions.",
    "methods": {
      "addonImplementation(bytes32)": {
        "params": {
          "addonTypeHash": "The hash of the addon type."
        },
        "returns": {
          "_0": "The address of the system addon implementation contract."
        }
      },
      "addonProxy(bytes32)": {
        "params": {
          "addonTypeHash": "The hash of the addon type."
        },
        "returns": {
          "_0": "The address of the system addon proxy contract."
        }
      },
      "bootstrap()": {
        "details": "This function is a critical step in setting up the ATKSystem. It should typically be called once by an admin after the `ATKSystem` contract itself is deployed and initial implementation addresses are set. It creates new instances of proxy contracts (e.g., `ATKComplianceProxy`, `ATKIdentityRegistryProxy`) and links them to this `ATKSystem` instance. It also performs necessary bindings between these proxies, such as linking the `IdentityRegistryStorageProxy` to the `IdentityRegistryProxy`. This function is protected by `onlyRole(DEFAULT_ADMIN_ROLE)` (meaning only admins can call it) and `nonReentrant` (preventing it from being called again while it's already executing, which guards against certain attacks). Reverts if any required implementation address (for compliance, identity registry, storage, trusted issuers, factory) is not set (i.e., is the zero address) before calling this function."
      },
      "complianceImplementation()": {
        "returns": {
          "_0": "The address of the compliance logic contract."
        }
      },
      "complianceProxy()": {
        "returns": {
          "_0": "The address of the compliance proxy contract."
        }
      },
      "constructor": {},
      "createSystemAddon(string,address,bytes)": {
        "params": {
          "implementation": "The address of the logic contract to use for the proxy.",
          "initializationData": "Encoded function call to initialize the proxy (e.g., abi.encodeWithSelector(...)).",
          "name": "A human-readable identifier (e.g., \"Swap\", \"YieldContract\")."
        },
        "returns": {
          "proxyAddress": "The address of the newly deployed proxy."
        }
      },
      "createTokenFactory(string,address,address)": {
        "params": {
          "_factoryImplementation": "The address of the token factory implementation contract.",
          "_name": "The human-readable name of the token factory.",
          "_tokenImplementation": "The address of the token implementation contract."
        }
      },
      "getRoleAdmin(bytes32)": {
        "details": "Returns the admin role that controls `role`. See {grantRole} and {revokeRole}. To change a role's admin, use {_setRoleAdmin}."
      },
      "grantRole(bytes32,address)": {
        "details": "Grants `role` to `account`. If `account` had not been already granted `role`, emits a {RoleGranted} event. Requirements: - the caller must have ``role``'s admin role. May emit a {RoleGranted} event."
      },
      "hasRole(bytes32,address)": {
        "details": "Returns `true` if `account` has been granted `role`."
      },
      "identityFactoryImplementation()": {
        "returns": {
          "_0": "The address of the identity factory logic contract."
        }
      },
      "identityFactoryProxy()": {
        "returns": {
          "_0": "The address of the identity factory proxy contract."
        }
      },
      "identityImplementation()": {
        "returns": {
          "_0": "The address of the standard identity logic template."
        }
      },
      "identityRegistryImplementation()": {
        "returns": {
          "_0": "The address of the identity registry logic contract."
        }
      },
      "identityRegistryProxy()": {
        "returns": {
          "_0": "The address of the identity registry proxy contract."
        }
      },
      "identityRegistryStorageImplementation()": {
        "returns": {
          "_0": "The address of the identity registry storage logic contract."
        }
      },
      "identityRegistryStorageProxy()": {
        "returns": {
          "_0": "The address of the identity registry storage proxy contract."
        }
      },
      "identityVerificationModule()": {
        "returns": {
          "_0": "The address of the identity verification module proxy contract."
        }
      },
      "initialize(address,address,address,address,address,address,address,address,address,address,address)": {
        "details": "Sets up the initial administrator, validates and stores the initial implementation addresses for all modules and identity types, and sets the trusted forwarder for meta-transactions. It performs interface checks on all provided implementation addresses to ensure they conform to the required standards.",
        "params": {
          "complianceImplementation_": "The initial address of the compliance module's logic contract.",
          "identityFactoryImplementation_": "The initial address of the identity factory module's logic contract.",
          "identityImplementation_": "The initial address of the standard identity contract's logic (template). Must be IERC734/IIdentity compliant.",
          "identityRegistryImplementation_": "The initial address of the identity registry module's logic contract.",
          "identityRegistryStorageImplementation_": "The initial address of the identity registry storage module's logic contract.",
          "identityVerificationModule_": "The initial address of the identity verification module contract's logic.",
          "initialAdmin_": "The address that will be granted the `DEFAULT_ADMIN_ROLE`, giving it administrative control over this contract.",
          "tokenAccessManagerImplementation_": "The initial address of the token access manager contract's logic. Must be ISMARTTokenAccessManager compliant.",
          "tokenIdentityImplementation_": "The initial address of the token identity contract's logic (template). Must be IERC734/IIdentity compliant.",
          "topicSchemeRegistryImplementation_": "The initial address of the topic scheme registry module's logic contract.",
          "trustedIssuersRegistryImplementation_": "The initial address of the trusted issuers registry module's logic contract."
        }
      },
      "isTrustedForwarder(address)": {
        "details": "Indicates whether any particular address is the trusted forwarder."
      },
      "proxiableUUID()": {
        "details": "Implementation of the ERC-1822 {proxiableUUID} function. This returns the storage slot used by the implementation. It is used to validate the implementation's compatibility when performing an upgrade. IMPORTANT: A proxy pointing at a proxiable contract should not be considered proxiable itself, because this risks bricking a proxy that upgrades to it, by delegating to itself until out of gas. Thus it is critical that this function revert if invoked through a proxy. This is guaranteed by the `notDelegated` modifier."
      },
      "renounceRole(bytes32,address)": {
        "details": "Revokes `role` from the calling account. Roles are often managed via {grantRole} and {revokeRole}: this function's purpose is to provide a mechanism for accounts to lose their privileges if they are compromised (such as when a trusted device is misplaced). If the calling account had been revoked `role`, emits a {RoleRevoked} event. Requirements: - the caller must be `callerConfirmation`. May emit a {RoleRevoked} event."
      },
      "revokeRole(bytes32,address)": {
        "details": "Revokes `role` from `account`. If `account` had been granted `role`, emits a {RoleRevoked} event. Requirements: - the caller must have ``role``'s admin role. May emit a {RoleRevoked} event."
      },
      "setAddonImplementation(bytes32,address)": {
        "details": "Only callable by an address with the `DEFAULT_ADMIN_ROLE`. Reverts if the `implementation` address is zero or if the addon type has not been registered. Emits an `AddonImplementationUpdated` event upon successful update.",
        "params": {
          "addonTypeHash": "The hash of the addon type to update.",
          "implementation": "The new address for the system addon logic contract."
        }
      },
      "setComplianceImplementation(address)": {
        "details": "Only callable by an address with the `DEFAULT_ADMIN_ROLE`. Reverts if the provided `implementation` address is the zero address or does not support the `ISMARTCompliance` interface. Emits a `ComplianceImplementationUpdated` event upon successful update.",
        "params": {
          "implementation": "The new address for the compliance module logic contract."
        }
      },
      "setIdentityFactoryImplementation(address)": {
        "details": "Only callable by an address with the `DEFAULT_ADMIN_ROLE`. Reverts if `implementation` is zero or doesn't support `IATKIdentityFactory`. Emits an `IdentityFactoryImplementationUpdated` event.",
        "params": {
          "implementation": "The new address for the identity factory logic contract."
        }
      },
      "setIdentityImplementation(address)": {
        "details": "Only callable by an address with the `DEFAULT_ADMIN_ROLE`. Reverts if `implementation` is zero or doesn't support `IIdentity` (from OnchainID standard). Emits an `IdentityImplementationUpdated` event.",
        "params": {
          "implementation": "The new address for the standard identity logic template."
        }
      },
      "setIdentityRegistryImplementation(address)": {
        "details": "Only callable by an address with the `DEFAULT_ADMIN_ROLE`. Reverts if the `implementation` address is zero or does not support `ISMARTIdentityRegistry`. Emits an `IdentityRegistryImplementationUpdated` event.",
        "params": {
          "implementation": "The new address for the identity registry logic contract."
        }
      },
      "setIdentityRegistryStorageImplementation(address)": {
        "details": "Only callable by an address with the `DEFAULT_ADMIN_ROLE`. Reverts if `implementation` is zero or doesn't support `ISMARTIdentityRegistryStorage`. Emits an `IdentityRegistryStorageImplementationUpdated` event.",
        "params": {
          "implementation": "The new address for the identity registry storage logic contract."
        }
      },
      "setTokenAccessManagerImplementation(address)": {
        "details": "Only callable by an address with the `DEFAULT_ADMIN_ROLE`. Reverts if `implementation` is zero or doesn't support `ISMARTTokenAccessManager`. Emits a `TokenAccessManagerImplementationUpdated` event.",
        "params": {
          "implementation": "The new address for the token access manager logic contract."
        }
      },
      "setTokenFactoryImplementation(bytes32,address)": {
        "details": "Only callable by an address with the `DEFAULT_ADMIN_ROLE`. Reverts if the `implementation` address is zero or if the factory type has not been registered. Emits a `TokenFactoryImplementationUpdated` event upon successful update.",
        "params": {
          "factoryTypeHash": "The hash of the factory type to update.",
          "implementation": "The new address for the token factory logic contract."
        }
      },
      "setTokenIdentityImplementation(address)": {
        "details": "Only callable by an address with the `DEFAULT_ADMIN_ROLE`. Reverts if `implementation` is zero or doesn't support `IIdentity` (from OnchainID standard). Emits a `TokenIdentityImplementationUpdated` event.",
        "params": {
          "implementation": "The new address for the token identity logic template."
        }
      },
      "setTopicSchemeRegistryImplementation(address)": {
        "details": "Only callable by an address with the `DEFAULT_ADMIN_ROLE`. Reverts if `implementation` is zero or doesn't support `ISMARTTopicSchemeRegistry`. Emits a `TopicSchemeRegistryImplementationUpdated` event.",
        "params": {
          "implementation": "The new address for the topic scheme registry logic contract."
        }
      },
      "setTrustedIssuersRegistryImplementation(address)": {
        "details": "Only callable by an address with the `DEFAULT_ADMIN_ROLE`. Reverts if `implementation` is zero or doesn't support `IERC3643TrustedIssuersRegistry`. Emits a `TrustedIssuersRegistryImplementationUpdated` event.",
        "params": {
          "implementation": "The new address for the trusted issuers registry logic contract."
        }
      },
      "supportsInterface(bytes4)": {
        "details": "This function is part of the ERC165 standard for interface detection. It returns `true` if this contract implements the interface specified by `interfaceId`. It explicitly supports the `IATKSystem` interface and inherits support for other interfaces like `IERC165` (from `ERC165`) and `IAccessControl` (from `AccessControl`).",
        "params": {
          "interfaceId": "The 4-byte interface identifier to check."
        },
        "returns": {
          "_0": "`true` if the contract supports the interface, `false` otherwise."
        }
      },
      "tokenAccessManagerImplementation()": {
        "returns": {
          "_0": "The address of the token access manager logic contract."
        }
      },
      "tokenFactoryImplementation(bytes32)": {
        "params": {
          "factoryTypeHash": "The hash of the factory type."
        },
        "returns": {
          "_0": "The address of the token factory implementation contract."
        }
      },
      "tokenFactoryProxy(bytes32)": {
        "params": {
          "factoryTypeHash": "The hash of the factory type."
        },
        "returns": {
          "_0": "The address of the token factory proxy contract."
        }
      },
      "tokenIdentityImplementation()": {
        "returns": {
          "_0": "The address of the token identity logic template."
        }
      },
      "topicSchemeRegistryImplementation()": {
        "returns": {
          "_0": "The address of the topic scheme registry logic contract."
        }
      },
      "topicSchemeRegistryProxy()": {
        "returns": {
          "_0": "The address of the topic scheme registry proxy contract."
        }
      },
      "trustedForwarder()": {
        "details": "Returns the address of the trusted forwarder."
      },
      "trustedIssuersRegistryImplementation()": {
        "returns": {
          "_0": "The address of the trusted issuers registry logic contract."
        }
      },
      "trustedIssuersRegistryProxy()": {
        "returns": {
          "_0": "The address of the trusted issuers registry proxy contract."
        }
      },
      "upgradeToAndCall(address,bytes)": {
        "details": "Upgrade the implementation of the proxy to `newImplementation`, and subsequently execute the function call encoded in `data`. Calls {_authorizeUpgrade}. Emits an {Upgraded} event."
      }
    },
    "events": {
      "AddonImplementationUpdated(address,bytes32,address)": {
        "params": {
          "addonTypeHash": "The hash of the addon type being updated.",
          "newImplementation": "The address of the new system addon implementation contract.",
          "sender": "The address that called the `setAddonImplementation` function."
        }
      },
      "Bootstrapped(address,address,address,address,address,address,address,address)": {
        "params": {
          "complianceProxy": "The address of the deployed ATKComplianceProxy contract.",
          "identityFactoryProxy": "The address of the deployed ATKIdentityFactoryProxy contract.",
          "identityRegistryProxy": "The address of the deployed ATKIdentityRegistryProxy contract.",
          "identityRegistryStorageProxy": "The address of the deployed ATKIdentityRegistryStorageProxy contract.",
          "identityVerificationModule": "The address of the deployed IdentityVerificationModule contract.",
          "sender": "The address that called the `bootstrap` function.",
          "topicSchemeRegistryProxy": "The address of the deployed ATKTopicSchemeRegistryProxy contract.",
          "trustedIssuersRegistryProxy": "The address of the deployed ATKTrustedIssuersRegistryProxy contract."
        }
      },
      "ComplianceImplementationUpdated(address,address)": {
        "params": {
          "newImplementation": "The address of the new compliance module implementation contract.",
          "sender": "The address that called the `updateComplianceImplementation` function."
        }
      },
      "IdentityFactoryImplementationUpdated(address,address)": {
        "params": {
          "newImplementation": "The address of the new identity factory module implementation contract.",
          "sender": "The address that called the `updateIdentityFactoryImplementation` function."
        }
      },
      "IdentityImplementationUpdated(address,address)": {
        "details": "Standard identity contracts are typically used to represent users or general entities.",
        "params": {
          "newImplementation": "The address of the new standard identity module implementation contract.",
          "sender": "The address that called the `updateIdentityImplementation` function."
        }
      },
      "IdentityRegistryImplementationUpdated(address,address)": {
        "params": {
          "newImplementation": "The address of the new identity registry module implementation contract.",
          "sender": "The address that called the `updateIdentityRegistryImplementation` function."
        }
      },
      "IdentityRegistryStorageImplementationUpdated(address,address)": {
        "params": {
          "newImplementation": "The address of the new identity registry storage module implementation contract.",
          "sender": "The address that called the `updateIdentityRegistryStorageImplementation` function."
        }
      },
      "Initialized(uint64)": {
        "details": "Triggered when the contract has been initialized or reinitialized."
      },
      "RoleAdminChanged(bytes32,bytes32,bytes32)": {
        "details": "Emitted when `newAdminRole` is set as ``role``'s admin role, replacing `previousAdminRole` `DEFAULT_ADMIN_ROLE` is the starting admin for all roles, despite {RoleAdminChanged} not being emitted to signal this."
      },
      "RoleGranted(bytes32,address,address)": {
        "details": "Emitted when `account` is granted `role`. `sender` is the account that originated the contract call. This account bears the admin role (for the granted role). Expected in cases where the role was granted using the internal {AccessControl-_grantRole}."
      },
      "RoleRevoked(bytes32,address,address)": {
        "details": "Emitted when `account` is revoked `role`. `sender` is the account that originated the contract call:   - if using `revokeRole`, it is the admin role bearer   - if using `renounceRole`, it is the role bearer (i.e. `account`)"
      },
      "SystemAddonCreated(address,string,bytes32,address,address,bytes,uint256)": {
        "params": {
          "implementation": "The address of the deployed system addon implementation.",
          "initializationData": "The encoded function call to initialize the system addon.",
          "name": "The human-readable name of the system addon.",
          "proxyAddress": "The address of the deployed system addon proxy.",
          "sender": "The address that created the system addon.",
          "timestamp": "The timestamp of the system addon creation.",
          "typeId": "The type identifier of the system addon."
        }
      },
      "TokenAccessManagerImplementationUpdated(address,address)": {
        "params": {
          "newImplementation": "The address of the new token access manager module implementation contract.",
          "sender": "The address that called the `updateTokenAccessManagerImplementation` function."
        }
      },
      "TokenFactoryCreated(address,string,bytes32,address,address,uint256)": {
        "params": {
          "implementationAddress": "The address of the deployed token factory implementation.",
          "name": "The human-readable name of the token factory.",
          "proxyAddress": "The address of the deployed token factory proxy.",
          "sender": "The address that registered the token factory.",
          "timestamp": "The timestamp of the token factory creation.",
          "typeId": "The type identifier of the token factory."
        }
      },
      "TokenFactoryImplementationUpdated(address,bytes32,address)": {
        "params": {
          "factoryTypeHash": "The hash of the factory type being updated.",
          "newImplementation": "The address of the new token factory implementation contract.",
          "sender": "The address that called the `updateTokenFactoryImplementation` function."
        }
      },
      "TokenIdentityImplementationUpdated(address,address)": {
        "details": "Token identity contracts might be specialized identities associated with specific tokens.",
        "params": {
          "newImplementation": "The address of the new token identity module implementation contract.",
          "sender": "The address that called the `updateTokenIdentityImplementation` function."
        }
      },
      "TopicSchemeRegistryImplementationUpdated(address,address)": {
        "params": {
          "newImplementation": "The address of the new topic scheme registry module implementation contract.",
          "sender": "The address that called the `updateTopicSchemeRegistryImplementation` function."
        }
      },
      "TrustedIssuersRegistryImplementationUpdated(address,address)": {
        "params": {
          "newImplementation": "The address of the new trusted issuers registry module implementation contract.",
          "sender": "The address that called the `updateTrustedIssuersRegistryImplementation` function."
        }
      },
      "Upgraded(address)": {
        "details": "Emitted when the implementation is upgraded."
      }
    },
    "errors": {
      "AccessControlBadConfirmation()": [
        {
          "details": "The caller of a function is not the expected one. NOTE: Don't confuse with {AccessControlUnauthorizedAccount}."
        }
      ],
      "AccessControlUnauthorizedAccount(address,bytes32)": [
        {
          "details": "The `account` is missing a role."
        }
      ],
      "AddonImplementationNotSet(bytes32)": [
        {
          "details": "This error is thrown if an operation requires the system addon implementation, but its logic contract address is zero or has not been configured in the `SMARTSystem`."
        }
      ],
      "AddressEmptyCode(address)": [
        {
          "details": "There's no code at `target` (it is not a contract)."
        }
      ],
      "ComplianceImplementationNotSet()": [
        {
          "details": "This error is thrown if an operation requires the compliance module, but its logic contract address is zero or has not been configured in the `SMARTSystem`."
        }
      ],
      "ERC1967InvalidImplementation(address)": [
        {
          "details": "The `implementation` of the proxy is invalid."
        }
      ],
      "ERC1967NonPayable()": [
        {
          "details": "An upgrade function sees `msg.value > 0` that may be lost."
        }
      ],
      "FailedCall()": [
        {
          "details": "A call to an address target failed. The target may have reverted."
        }
      ],
      "IdentityFactoryImplementationNotSet()": [
        {
          "details": "This error is thrown if an operation requires the identity factory, but its logic contract address is zero or has not been configured in the `SMARTSystem`."
        }
      ],
      "IdentityImplementationNotSet()": [
        {
          "details": "This error is thrown if an operation requires the standard identity implementation (the template for user identities), but its logic contract address is zero or has not been configured in the `SMARTSystem`."
        }
      ],
      "IdentityRegistryImplementationNotSet()": [
        {
          "details": "This error is thrown if an operation requires the identity registry, but its logic contract address is zero or has not been configured in the `SMARTSystem`."
        }
      ],
      "IdentityRegistryStorageImplementationNotSet()": [
        {
          "details": "This error is thrown if an operation requires the identity registry storage, but its logic contract address is zero or has not been configured in the `SMARTSystem`."
        }
      ],
      "IdentityVerificationModuleNotSet()": [
        {
          "details": "This error is thrown if an operation requires the identity verification module, but its logic contract address is zero or has not been configured in the `SMARTSystem`."
        }
      ],
      "InvalidImplementationInterface(address,bytes4)": [
        {
          "details": "When setting implementation addresses for modules (e.g., compliance, identity registry), the `SMARTSystem` checks if these implementations adhere to specific standard interfaces (like `IERC165` and the module-specific interface). If this check fails, this error is thrown.",
          "params": {
            "implAddress": "The address of the implementation contract that failed the interface check.",
            "interfaceId": "The bytes4 identifier of the interface that the `implAddress` was expected to support."
          }
        }
      ],
      "InvalidInitialization()": [
        {
          "details": "The contract is already initialized."
        }
      ],
      "NotInitializing()": [
        {
          "details": "The contract is not initializing."
        }
      ],
      "ReentrancyGuardReentrantCall()": [
        {
          "details": "Unauthorized reentrant call."
        }
      ],
      "SystemAlreadyBootstrapped()": [
        {
          "details": "This error is thrown if the `bootstrap` function is called when the system proxy contracts have already been deployed and initialized."
        }
      ],
      "SystemNotBootstrapped()": [
        {
          "details": "This is thrown when a function requires core proxy contracts to be deployed, but they haven't been."
        }
      ],
      "TokenAccessManagerImplementationNotSet()": [
        {
          "details": "This error is thrown if an operation requires the token access manager implementation, but its logic contract address is zero or has not been configured in the `SMARTSystem`."
        }
      ],
      "TokenIdentityImplementationNotSet()": [
        {
          "details": "This error is thrown if an operation requires the token identity implementation (the template for token-specific identities), but its logic contract address is zero or has not been configured in the `SMARTSystem`."
        }
      ],
      "TopicSchemeRegistryImplementationNotSet()": [
        {
          "details": "This error is thrown if an operation requires the topic scheme registry, but its logic contract address is zero or has not been configured in the `SMARTSystem`."
        }
      ],
      "TrustedIssuersRegistryImplementationNotSet()": [
        {
          "details": "This error is thrown if an operation requires the trusted issuers registry, but its logic contract address is zero or has not been configured in the `SMARTSystem`."
        }
      ],
      "UUPSUnauthorizedCallContext()": [
        {
          "details": "The call is from an unauthorized context."
        }
      ],
      "UUPSUnsupportedProxiableUUID(bytes32)": [
        {
          "details": "The storage `slot` is unsupported as a UUID."
        }
      ]
    },
    "title": "ATKSystem Contract"
  },
  "id": 113
}