{
  "abi": [
    {
      "type": "constructor",
      "inputs": [
        {
          "name": "complianceImplementation_",
          "type": "address",
          "internalType": "address"
        },
        {
          "name": "identityRegistryImplementation_",
          "type": "address",
          "internalType": "address"
        },
        {
          "name": "identityRegistryStorageImplementation_",
          "type": "address",
          "internalType": "address"
        },
        {
          "name": "trustedIssuersRegistryImplementation_",
          "type": "address",
          "internalType": "address"
        },
        {
          "name": "topicSchemeRegistryImplementation_",
          "type": "address",
          "internalType": "address"
        },
        {
          "name": "identityFactoryImplementation_",
          "type": "address",
          "internalType": "address"
        },
        {
          "name": "identityImplementation_",
          "type": "address",
          "internalType": "address"
        },
        {
          "name": "tokenIdentityImplementation_",
          "type": "address",
          "internalType": "address"
        },
        {
          "name": "tokenAccessManagerImplementation_",
          "type": "address",
          "internalType": "address"
        },
        {
          "name": "identityVerificationModule_",
          "type": "address",
          "internalType": "address"
        },
        {
          "name": "forwarder_",
          "type": "address",
          "internalType": "address"
        }
      ],
      "stateMutability": "nonpayable"
    },
    {
      "type": "function",
      "name": "atkSystems",
      "inputs": [
        {
          "name": "",
          "type": "uint256",
          "internalType": "uint256"
        }
      ],
      "outputs": [
        {
          "name": "",
          "type": "address",
          "internalType": "address"
        }
      ],
      "stateMutability": "view"
    },
    {
      "type": "function",
      "name": "createSystem",
      "inputs": [],
      "outputs": [
        {
          "name": "systemAddress",
          "type": "address",
          "internalType": "address"
        }
      ],
      "stateMutability": "nonpayable"
    },
    {
      "type": "function",
      "name": "defaultComplianceImplementation",
      "inputs": [],
      "outputs": [
        {
          "name": "",
          "type": "address",
          "internalType": "address"
        }
      ],
      "stateMutability": "view"
    },
    {
      "type": "function",
      "name": "defaultIdentityFactoryImplementation",
      "inputs": [],
      "outputs": [
        {
          "name": "",
          "type": "address",
          "internalType": "address"
        }
      ],
      "stateMutability": "view"
    },
    {
      "type": "function",
      "name": "defaultIdentityImplementation",
      "inputs": [],
      "outputs": [
        {
          "name": "",
          "type": "address",
          "internalType": "address"
        }
      ],
      "stateMutability": "view"
    },
    {
      "type": "function",
      "name": "defaultIdentityRegistryImplementation",
      "inputs": [],
      "outputs": [
        {
          "name": "",
          "type": "address",
          "internalType": "address"
        }
      ],
      "stateMutability": "view"
    },
    {
      "type": "function",
      "name": "defaultIdentityRegistryStorageImplementation",
      "inputs": [],
      "outputs": [
        {
          "name": "",
          "type": "address",
          "internalType": "address"
        }
      ],
      "stateMutability": "view"
    },
    {
      "type": "function",
      "name": "defaultIdentityVerificationModule",
      "inputs": [],
      "outputs": [
        {
          "name": "",
          "type": "address",
          "internalType": "address"
        }
      ],
      "stateMutability": "view"
    },
    {
      "type": "function",
      "name": "defaultTokenAccessManagerImplementation",
      "inputs": [],
      "outputs": [
        {
          "name": "",
          "type": "address",
          "internalType": "address"
        }
      ],
      "stateMutability": "view"
    },
    {
      "type": "function",
      "name": "defaultTokenIdentityImplementation",
      "inputs": [],
      "outputs": [
        {
          "name": "",
          "type": "address",
          "internalType": "address"
        }
      ],
      "stateMutability": "view"
    },
    {
      "type": "function",
      "name": "defaultTopicSchemeRegistryImplementation",
      "inputs": [],
      "outputs": [
        {
          "name": "",
          "type": "address",
          "internalType": "address"
        }
      ],
      "stateMutability": "view"
    },
    {
      "type": "function",
      "name": "defaultTrustedIssuersRegistryImplementation",
      "inputs": [],
      "outputs": [
        {
          "name": "",
          "type": "address",
          "internalType": "address"
        }
      ],
      "stateMutability": "view"
    },
    {
      "type": "function",
      "name": "factoryForwarder",
      "inputs": [],
      "outputs": [
        {
          "name": "",
          "type": "address",
          "internalType": "address"
        }
      ],
      "stateMutability": "view"
    },
    {
      "type": "function",
      "name": "getSystemAtIndex",
      "inputs": [
        {
          "name": "index",
          "type": "uint256",
          "internalType": "uint256"
        }
      ],
      "outputs": [
        {
          "name": "",
          "type": "address",
          "internalType": "address"
        }
      ],
      "stateMutability": "view"
    },
    {
      "type": "function",
      "name": "getSystemCount",
      "inputs": [],
      "outputs": [
        {
          "name": "",
          "type": "uint256",
          "internalType": "uint256"
        }
      ],
      "stateMutability": "view"
    },
    {
      "type": "function",
      "name": "isTrustedForwarder",
      "inputs": [
        {
          "name": "forwarder",
          "type": "address",
          "internalType": "address"
        }
      ],
      "outputs": [
        {
          "name": "",
          "type": "bool",
          "internalType": "bool"
        }
      ],
      "stateMutability": "view"
    },
    {
      "type": "function",
      "name": "trustedForwarder",
      "inputs": [],
      "outputs": [
        {
          "name": "",
          "type": "address",
          "internalType": "address"
        }
      ],
      "stateMutability": "view"
    },
    {
      "type": "event",
      "name": "ATKSystemCreated",
      "inputs": [
        {
          "name": "sender",
          "type": "address",
          "indexed": true,
          "internalType": "address"
        },
        {
          "name": "systemAddress",
          "type": "address",
          "indexed": true,
          "internalType": "address"
        }
      ],
      "anonymous": false
    },
    {
      "type": "error",
      "name": "ComplianceImplementationNotSet",
      "inputs": []
    },
    {
      "type": "error",
      "name": "IdentityFactoryImplementationNotSet",
      "inputs": []
    },
    {
      "type": "error",
      "name": "IdentityImplementationNotSet",
      "inputs": []
    },
    {
      "type": "error",
      "name": "IdentityRegistryImplementationNotSet",
      "inputs": []
    },
    {
      "type": "error",
      "name": "IdentityRegistryStorageImplementationNotSet",
      "inputs": []
    },
    {
      "type": "error",
      "name": "IdentityVerificationModuleNotSet",
      "inputs": []
    },
    {
      "type": "error",
      "name": "IndexOutOfBounds",
      "inputs": [
        {
          "name": "index",
          "type": "uint256",
          "internalType": "uint256"
        },
        {
          "name": "length",
          "type": "uint256",
          "internalType": "uint256"
        }
      ]
    },
    {
      "type": "error",
      "name": "TokenAccessManagerImplementationNotSet",
      "inputs": []
    },
    {
      "type": "error",
      "name": "TokenIdentityImplementationNotSet",
      "inputs": []
    },
    {
      "type": "error",
      "name": "TopicSchemeRegistryImplementationNotSet",
      "inputs": []
    },
    {
      "type": "error",
      "name": "TrustedIssuersRegistryImplementationNotSet",
      "inputs": []
    }
  ],
  "bytecode": {
    "object": "0x6102003461030057601f615a7e38819003918201601f19168301916001600160401b0383118484101761030457808492610160946040528339810103126103005761004981610318565b61005560208301610318565b61006160408401610318565b61006d60608501610318565b61007960808601610318565b61008560a08701610318565b9061009260c08801610318565b9261009f60e08901610318565b946100ad6101008a01610318565b966100c86101406100c16101208d01610318565b9b01610318565b6080819052986001600160a01b038116156102f1576001600160a01b038216156102e2576001600160a01b038316156102d3576001600160a01b038416156102c4576001600160a01b038516156102b5576001600160a01b038616156102a6576001600160a01b03871615610297576001600160a01b03881615610288576001600160a01b03891615610279576001600160a01b038b161561026a5760a05260c05260e05261010052610120526101405261016052610180526101a0526101c0526101e052604051615751908161032d82396080518181816105950152818161063301526107de015260a0518181816101f801526106fd015260c0518181816102200152610535015260e05181818160ec015261024801526101005181818161027001526104f1015261012051818181610298015261074101526101405181818161013401526102c001526101605181818161017801526102e801526101805181818161031001526104ad01526101a051818181610339015261078201526101c05181818161038b01526106b901526101e05181818161036201526105d90152f35b633ac2d12960e21b5f5260045ffd5b63099d3e0360e21b5f5260045ffd5b63e26a8ec760e01b5f5260045ffd5b632384fcc160e11b5f5260045ffd5b6305b4e73960e51b5f5260045ffd5b6342f4ff8d60e11b5f5260045ffd5b630273e4dd60e41b5f5260045ffd5b63d6cd3aeb60e01b5f5260045ffd5b6397a22d9360e01b5f5260045ffd5b63ee30f64f60e01b5f5260045ffd5b5f80fd5b634e487b7160e01b5f52604160045260245ffd5b51906001600160a01b03821682036103005756fe6080806040526004361015610012575f80fd5b5f3560e01c90816301e08e581461077057508063023fc7291461072c5780630a94adee146106e85780630e5f342c146106a4578063490e805a14610665578063572b6c0514610608578063686b1e03146105c45780637da0a877146105805780637df56b6c146105645780638bb25576146105205780639ca5f9c7146104dc578063cbdd9d5114610498578063cf0da60414610457578063d171da1a146101a7578063e28a140614610163578063e6fea7ac1461011f5763e84b3ceb146100d7575f80fd5b3461011b575f36600319011261011b576040517f00000000000000000000000000000000000000000000000000000000000000006001600160a01b03168152602090f35b5f80fd5b3461011b575f36600319011261011b576040517f00000000000000000000000000000000000000000000000000000000000000006001600160a01b03168152602090f35b3461011b575f36600319011261011b576040517f00000000000000000000000000000000000000000000000000000000000000006001600160a01b03168152602090f35b3461011b575f36600319011261011b576101bf6107db565b604051614efc918282019282841067ffffffffffffffff8511176104385761018091839161084983396001600160a01b039081168086527f0000000000000000000000000000000000000000000000000000000000000000821660208701527f0000000000000000000000000000000000000000000000000000000000000000821660408701527f0000000000000000000000000000000000000000000000000000000000000000821660608701527f0000000000000000000000000000000000000000000000000000000000000000821660808701527f0000000000000000000000000000000000000000000000000000000000000000821660a08701527f0000000000000000000000000000000000000000000000000000000000000000821660c08701527f0000000000000000000000000000000000000000000000000000000000000000821660e08701527f000000000000000000000000000000000000000000000000000000000000000082166101008701527f000000000000000000000000000000000000000000000000000000000000000082166101208701527f000000000000000000000000000000000000000000000000000000000000000082166101408701527f0000000000000000000000000000000000000000000000000000000000000000909116610160860152930301905ff0801561044c575f5491906001600160a01b031668010000000000000000831015610438576103ee836001602095015f556107b1565b81546001600160a01b0360039290921b91821b19169083901b1790556040519181907f87fff1d4a5235e3ed4aadb342e3efabac0e1ea83c57035716c8cee3ee6db525a5f80a38152f35b634e487b7160e01b5f52604160045260245ffd5b6040513d5f823e3d90fd5b3461011b57602036600319011261011b576004355f5481101561011b5761047f6020916107b1565b905460405160039290921b1c6001600160a01b03168152f35b3461011b575f36600319011261011b576040517f00000000000000000000000000000000000000000000000000000000000000006001600160a01b03168152602090f35b3461011b575f36600319011261011b576040517f00000000000000000000000000000000000000000000000000000000000000006001600160a01b03168152602090f35b3461011b575f36600319011261011b576040517f00000000000000000000000000000000000000000000000000000000000000006001600160a01b03168152602090f35b3461011b575f36600319011261011b5760205f54604051908152f35b3461011b575f36600319011261011b576040517f00000000000000000000000000000000000000000000000000000000000000006001600160a01b03168152602090f35b3461011b575f36600319011261011b576040517f00000000000000000000000000000000000000000000000000000000000000006001600160a01b03168152602090f35b3461011b57602036600319011261011b576004356001600160a01b0381169081900361011b576040517f00000000000000000000000000000000000000000000000000000000000000006001600160a01b03169091148152602090f35b3461011b57602036600319011261011b576004355f548082101561068e57602061047f836107b1565b906363a056dd60e01b5f5260045260245260445ffd5b3461011b575f36600319011261011b576040517f00000000000000000000000000000000000000000000000000000000000000006001600160a01b03168152602090f35b3461011b575f36600319011261011b576040517f00000000000000000000000000000000000000000000000000000000000000006001600160a01b03168152602090f35b3461011b575f36600319011261011b576040517f00000000000000000000000000000000000000000000000000000000000000006001600160a01b03168152602090f35b3461011b575f36600319011261011b577f00000000000000000000000000000000000000000000000000000000000000006001600160a01b03168152602090f35b5f548110156107c7575f805260205f2001905f90565b634e487b7160e01b5f52603260045260245ffd5b337f00000000000000000000000000000000000000000000000000000000000000006001600160a01b0316148061083d575b15610839576013193601368111610825573560601c90565b634e487b7160e01b5f52601160045260245ffd5b3390565b50601436101561080d56fe60a080604052346104a95761018081614efc803803809161002082856104ad565b8339810103126104a957610033816104e4565b90610040602082016104e4565b61004c604083016104e4565b90610059606084016104e4565b90610066608085016104e4565b61007260a086016104e4565b61007e60c087016104e4565b9161008b60e088016104e4565b9461009961010089016104e4565b966100a76101208a016104e4565b956100c26101606100bb6101408d016104e4565b9b016104e4565b608052600180556100d28b6104f8565b506001600160a01b0381161561049a576100eb81610594565b60028054610100600160a81b031916600892831b610100600160a81b031617908190556001600160a01b039b8c169b911c168a7f18ea1177da83ebf23520cb37420841e05033121576c404e09f73db10fea6ac785f80a36001600160a01b03811690811561048b5761015c90610656565b600480546001600160a01b03191682179055897fe8ad049e0ad7908009ae0f7f4364595fd1a499488f22fa486d8542dcc57af4135f80a36001600160a01b03811690811561047c576101ad90610715565b600680546001600160a01b03191682179055887f81275737702fb4f879c5b1b3ef8d4de980fdb3a2b4462ad24fe8c7832e7d0f475f80a36001600160a01b03811690811561046d576101fe906107d4565b600880546001600160a01b03191682179055877fd48b61a9f91ca2b642303e47ebca68d50d9187468daa2268cdd4ec792ade18045f80a36001600160a01b03811690811561045e5761024f90610893565b600a80546001600160a01b03191682179055867fce8fc7b69fcc1eda934571831e15bb10f95dddbb09559b28ad712d618f6ca0a95f80a36001600160a01b03811690811561044f576102a090610952565b600c80546001600160a01b03191682179055857f4bcec9d20bb800258ed241271d77077db5d50a6f76f12140c122c883deef79955f80a36001600160a01b038116908115610440576102f190610a11565b600e80546001600160a01b03191682179055847f4bd715e9ad4344031fe5194dd335709e8af5fc028d2d990a192615beb3ef11fa5f80a36001600160a01b0381169081156104315761034290610ad0565b600f80546001600160a01b03191682179055837fefea9f2b39bb4f73b0a1080278a75714ae7d6def44739e209eebe2085b9b62b35f80a36001600160a01b0381169081156104225761039390610ad0565b601080546001600160a01b03191682179055604051927f96cb65f899c3cf9ec267a022e255746ae585ae6e1bd3fb01601032dbcc58e3835f80a36001600160a01b0316801561041357601180546001600160a01b0319169190911790556142fd9081610bdf82396080518181816112a10152818161147301526121ac0152f35b633ac2d12960e21b5f5260045ffd5b63e26a8ec760e01b5f5260045ffd5b632384fcc160e11b5f5260045ffd5b63099d3e0360e21b5f5260045ffd5b6305b4e73960e51b5f5260045ffd5b6342f4ff8d60e11b5f5260045ffd5b630273e4dd60e41b5f5260045ffd5b63d6cd3aeb60e01b5f5260045ffd5b6397a22d9360e01b5f5260045ffd5b63ee30f64f60e01b5f5260045ffd5b5f80fd5b601f909101601f19168101906001600160401b038211908210176104d057604052565b634e487b7160e01b5f52604160045260245ffd5b51906001600160a01b03821682036104a957565b6001600160a01b0381165f9081525f516020614edc5f395f51905f52602052604090205460ff1661058f576001600160a01b038181165f9081525f516020614edc5f395f51905f5260205260409020805460ff1916600117905561055a610b8f565b16906001600160a01b03165f7f2f8788117e7eff1d82e926ec794901d17c78024a50270940304540a733656f0d8180a4600190565b505f90565b6001600160a01b03168015610653576040516301ffc9a760e01b8152637d84485d60e01b6004820152602081602481855afa5f9181610616575b506105f157506327224edf60e01b5f52600452637d84485d60e01b60245260445ffd5b156105f95750565b6327224edf60e01b5f52600452637d84485d60e01b60245260445ffd5b9091506020813d60201161064b575b81610632602093836104ad565b810103126104a9575180151581036104a957905f6105ce565b3d9150610625565b50565b6001600160a01b03168015610653576040516301ffc9a760e01b8152630277b84b60e11b6004820152602081602481855afa5f91816106d8575b506106b357506327224edf60e01b5f52600452630277b84b60e11b60245260445ffd5b156106bb5750565b6327224edf60e01b5f52600452630277b84b60e11b60245260445ffd5b9091506020813d60201161070d575b816106f4602093836104ad565b810103126104a9575180151581036104a957905f610690565b3d91506106e7565b6001600160a01b03168015610653576040516301ffc9a760e01b815263c08590db60e01b6004820152602081602481855afa5f9181610797575b5061077257506327224edf60e01b5f5260045263c08590db60e01b60245260445ffd5b1561077a5750565b6327224edf60e01b5f5260045263c08590db60e01b60245260445ffd5b9091506020813d6020116107cc575b816107b3602093836104ad565b810103126104a9575180151581036104a957905f61074f565b3d91506107a6565b6001600160a01b03168015610653576040516301ffc9a760e01b815263161eee7760e31b6004820152602081602481855afa5f9181610856575b5061083157506327224edf60e01b5f5260045263161eee7760e31b60245260445ffd5b156108395750565b6327224edf60e01b5f5260045263161eee7760e31b60245260445ffd5b9091506020813d60201161088b575b81610872602093836104ad565b810103126104a9575180151581036104a957905f61080e565b3d9150610865565b6001600160a01b03168015610653576040516301ffc9a760e01b8152631526bf3960e11b6004820152602081602481855afa5f9181610915575b506108f057506327224edf60e01b5f52600452631526bf3960e11b60245260445ffd5b156108f85750565b6327224edf60e01b5f52600452631526bf3960e11b60245260445ffd5b9091506020813d60201161094a575b81610931602093836104ad565b810103126104a9575180151581036104a957905f6108cd565b3d9150610924565b6001600160a01b03168015610653576040516301ffc9a760e01b815263034e9be160e01b6004820152602081602481855afa5f91816109d4575b506109af57506327224edf60e01b5f5260045263034e9be160e01b60245260445ffd5b156109b75750565b6327224edf60e01b5f5260045263034e9be160e01b60245260445ffd5b9091506020813d602011610a09575b816109f0602093836104ad565b810103126104a9575180151581036104a957905f61098c565b3d91506109e3565b6001600160a01b03168015610653576040516301ffc9a760e01b8152631983557360e21b6004820152602081602481855afa5f9181610a93575b50610a6e57506327224edf60e01b5f52600452631983557360e21b60245260445ffd5b15610a765750565b6327224edf60e01b5f52600452631983557360e21b60245260445ffd5b9091506020813d602011610ac8575b81610aaf602093836104ad565b810103126104a9575180151581036104a957905f610a4b565b3d9150610aa2565b6001600160a01b03168015610653576040516301ffc9a760e01b815263604b4d3760e11b6004820152602081602481855afa5f9181610b52575b50610b2d57506327224edf60e01b5f5260045263604b4d3760e11b60245260445ffd5b15610b355750565b6327224edf60e01b5f5260045263604b4d3760e11b60245260445ffd5b9091506020813d602011610b87575b81610b6e602093836104ad565b810103126104a9575180151581036104a957905f610b0a565b3d9150610b61565b6080516001600160a01b0316331480610bd3575b15610bcf576013193601368111610bbb573560601c90565b634e487b7160e01b5f52601160045260245ffd5b3390565b506014361015610ba356fe6080806040526004361015610012575f80fd5b5f905f3560e01c90816301ffc9a71461181257508063139aca99146117e057806316e227781461174d5780631cece55f1461171b578063248a9ca3146116e95780632f2ff15d146116ac57806336568abe1461165857806339b14cdf146116305780633cdbceda1461160857806344eecc17146115e05780634543741c1461154d578063457779a2146114a7578063572b6c0514611453578063588aa3061461142b57806363f3d320146113985780636d7203cb146113705780636dbe06f51461134857806372b3f57e1461132057806378e72222146112f85780637d6b252e146112d05780637da0a8771461128c5780638214faf8146111f9578063917fc629146111cd57806391d148541461118557806398468e511461115d5780639f3b39b1146110ca578063a10cddc014611037578063a18dd9ea1461100f578063a217fddf14610ff5578063c2deb16b14610f62578063c8b5d91114610f3a578063d23f197814610ea7578063d547741f14610e63578063d62def8f14610e3b578063d907c45614610e13578063e277d07d14610a29578063e32d4b6714610a005763fb969b0a146101c0575f80fd5b346108ad57806003193601126108ad576101d861214f565b6101e06119b6565b60025460ff81166109f15760081c6001600160a01b0316156109e2576004546001600160a01b0316156109d3576006546001600160a01b0316156109c4576008546001600160a01b0316156109b557600a546001600160a01b0316156109a657600c546001600160a01b031615610997576102596121a9565b906040516102686060826118ab565b6002815260208101604036823761027e826118e5565b6001600160a01b03851690523061029483611906565b526040519161051d8084019084821067ffffffffffffffff83111761094057849392916060916126e2863960408101923082526040602083015251809352019190855b81811061097557505050039082f08015610968576040516104628082019082821067ffffffffffffffff8311176109545785839261032d92612bff85393081526001600160a01b03909116602082015260400190565b039083f080156108b05760018060a01b03166040516104698082019082821067ffffffffffffffff831117610940578683926103819261306185393081526001600160a01b03909116602082015260400190565b039084f080156108d85760018060a01b031660405161052a8082019082821067ffffffffffffffff83111761092c578783926103d5926134ca85393081526001600160a01b03909116602082015260400190565b039085f080156109215760018060a01b03169260405161049b8082019082821067ffffffffffffffff83111761090d578685878b8695610444956139f488393081526001600160a01b039182166020820152918116604083015291821660608201529116608082015260a00190565b039086f080156109025760018060a01b0316916040516104628082019082821067ffffffffffffffff8311176108ee578899839261049a92613e8f85393081526001600160a01b03909116602082015260400190565b039087f09182156108e357600380546001600160a01b03199081166001600160a01b03938416179091556007805482168717905560098054821693909317909255600b805483168717905560058054831685179055600d80549092169216919091179055813b156108bb57839160248392604051948593849263690a49f960e01b845260048401525af19081156108d85783916108c0575b505061053c61216f565b60405161054a6040826118ab565b60038152626b796360e81b6020820152610563826118e5565b5261056d816118e5565b5060405161057c6040826118ab565b6003815262185b5b60ea1b602082015261059582611906565b5261059f81611906565b506040516105ae6040826118ab565b600a81526918dbdb1b185d195c985b60b21b60208201526105ce82611916565b526105d881611916565b506040516105e76040826118ab565b600481526334b9b4b760e11b602082015261060182611926565b5261060b81611926565b5060405161061a6040826118ab565b601381527230b9b9b2ba21b630b9b9b4b334b1b0ba34b7b760691b602082015261064382611936565b5261064d81611936565b5061065661216f565b6040516106646040826118ab565b600c81526b737472696e6720636c61696d60a01b6020820152610686826118e5565b52610690816118e5565b5060405161069f6040826118ab565b600c81526b737472696e6720636c61696d60a01b60208201526106c182611906565b526106cb81611906565b506040516106da6060826118ab565b602781527f75696e7432353620616d6f756e742c2075696e7432353620657870697279546960208201526606d657374616d760cc1b604082015261071d82611916565b5261072781611916565b506040516107366040826118ab565b600b81526a39ba3934b7339034b9b4b760a91b602082015261075782611926565b5261076181611926565b506040516107706040826118ab565b601d81527f737472696e6720636c6173732c20737472696e672063617465676f727900000060208201526107a382611936565b526107ad81611936565b50823b156108bb576107f6926107e485809460405196879586948593630b0501d360e31b8552604060048601526044850190611946565b83810360031901602485015290611946565b03925af180156108b057610898575b50600160ff19600254161760025561081b6121a9565b600354600554600754600954600b54600d54601154604080516001600160a01b0396871681529486166020860152928516928401929092528316606083015282166080820152918116939281169216907f7a0ba7a03e47f134ef41839f5428a76ccddaa010aa247abc3e1adf2910da5fce9060a090a46001805580f35b816108a2916118ab565b6108ad57805f610805565b80fd5b6040513d84823e3d90fd5b505050fd5b816108ca916118ab565b6108d557815f610532565b50fd5b6040513d85823e3d90fd5b6040513d88823e3d90fd5b634e487b7160e01b89526041600452602489fd5b6040513d87823e3d90fd5b634e487b7160e01b88526041600452602488fd5b6040513d86823e3d90fd5b634e487b7160e01b87526041600452602487fd5b634e487b7160e01b86526041600452602486fd5b634e487b7160e01b85526041600452602485fd5b50604051903d90823e3d90fd5b82516001600160a01b03168452859450602093840193909201916001016102d7565b6305b4e73960e51b8152600490fd5b6342f4ff8d60e11b8152600490fd5b630273e4dd60e41b8152600490fd5b63d6cd3aeb60e01b8152600490fd5b6397a22d9360e01b8152600490fd5b63ee30f64f60e01b8152600490fd5b633300a86160e21b8252600482fd5b50346108ad57806003193601126108ad57600c546040516001600160a01b039091168152602090f35b5034610d7d576060366003190112610d7d5760043567ffffffffffffffff8111610d7d5736602382011215610d7d57806004013567ffffffffffffffff8111610d7d5760248201916024823692010111610d7d57610a85611895565b6044356001600160a01b038116939190849003610d7d57610aa461214f565b610aac6119b6565b60ff6002541615610e04576001600160a01b038116908115610df557610ad190611f8a565b8315610de657604051634ca843ef60e11b815260048101859052602081602481855afa908115610d72575f91610db7575b5015610da857604051602081019084848337610b316020828781015f838201520301601f1981018352826118ab565b5190205f818152601260205260409020549094906001600160a01b0316610d95575f85815260126020526040902080546001600160a01b03191683179055610b776121a9565b60018060a01b0360115416604051926104cb918285019185831067ffffffffffffffff841117610d815760a09486946122178639308452600180871b03166020840152896040840152606083015260808201520301905ff08015610d72575f9485526013602052604090942080546001600160a01b0319166001600160a01b03958616908117909155600d54909416803b15610d7d575f8091604460405180948193632f2ff15d60e01b83527f7c42e8dffc95f75177e883ddc14f7ed7caa053d3f0d4e84d6b7f0b0033223dcb60048401528a60248401525af18015610d7257610d5d575b5060035485906001600160a01b0316803b15610d59578190604460405180948193632f2ff15d60e01b83527f536d8a764484a4771b422b2847373c9937c1c6ef07c27fa736a22782b350cf4d60048401528a60248401525af180156108e357610d40575b5060a07f4a7be928fdfa064570084c330f921ec65782af420e3591e3d8b83b39db8d2191926020968593610cf26121a9565b91604051958694608086528160808701528686013783880185015288830188905260408301524260608301525f196001841b011694601f01601f19168101030190a260018055604051908152f35b610d4b8680926118ab565b610d55575f610cc0565b8480fd5b5080fd5b610d6a9195505f906118ab565b5f935f610c5c565b6040513d5f823e3d90fd5b5f80fd5b634e487b7160e01b5f52604160045260245ffd5b8463089e159d60e01b5f5260045260245ffd5b634da1d31f60e01b5f5260045ffd5b610dd9915060203d602011610ddf575b610dd181836118ab565b8101906118cd565b5f610b02565b503d610dc7565b6320a86f3d60e11b5f5260045ffd5b63fd360a1d60e01b5f5260045ffd5b637b43badd60e01b5f5260045ffd5b34610d7d575f366003190112610d7d576009546040516001600160a01b039091168152602090f35b34610d7d575f366003190112610d7d576005546040516001600160a01b039091168152602090f35b34610d7d576040366003190112610d7d57610ea5600435610e82611895565b90610ea0610e9b825f525f602052600160405f20015490565b611a1e565b6120c2565b005b34610d7d576020366003190112610d7d57610ec061187f565b610ec86119b6565b6001600160a01b038116908115610f2b57610ee290611ee7565b600a80546001600160a01b031916821790556001600160a01b03610f046121a9565b167fce8fc7b69fcc1eda934571831e15bb10f95dddbb09559b28ad712d618f6ca0a95f80a3005b6342f4ff8d60e11b5f5260045ffd5b34610d7d575f366003190112610d7d576011546040516001600160a01b039091168152602090f35b34610d7d576020366003190112610d7d57610f7b61187f565b610f836119b6565b6001600160a01b038116908115610fe657610f9d90611e44565b600880546001600160a01b031916821790556001600160a01b03610fbf6121a9565b167fd48b61a9f91ca2b642303e47ebca68d50d9187468daa2268cdd4ec792ade18045f80a3005b630273e4dd60e41b5f5260045ffd5b34610d7d575f366003190112610d7d5760206040515f8152f35b34610d7d575f366003190112610d7d576004546040516001600160a01b039091168152602090f35b34610d7d576020366003190112610d7d5761105061187f565b6110586119b6565b6001600160a01b0381169081156110bb5761107290611a6f565b601080546001600160a01b031916821790556001600160a01b036110946121a9565b167f96cb65f899c3cf9ec267a022e255746ae585ae6e1bd3fb01601032dbcc58e3835f80a3005b63e26a8ec760e01b5f5260045ffd5b34610d7d576020366003190112610d7d576110e361187f565b6110eb6119b6565b6001600160a01b03811690811561114e5761110590611da1565b600c80546001600160a01b031916821790556001600160a01b036111276121a9565b167f4bcec9d20bb800258ed241271d77077db5d50a6f76f12140c122c883deef79955f80a3005b6305b4e73960e51b5f5260045ffd5b34610d7d575f366003190112610d7d576003546040516001600160a01b039091168152602090f35b34610d7d576040366003190112610d7d5761119e611895565b6004355f525f60205260405f209060018060a01b03165f52602052602060ff60405f2054166040519015158152f35b34610d7d575f366003190112610d7d5760025460405160089190911c6001600160a01b03168152602090f35b34610d7d576020366003190112610d7d5761121261187f565b61121a6119b6565b6001600160a01b03811690811561127d5761123490611cfe565b600e80546001600160a01b031916821790556001600160a01b036112566121a9565b167f4bd715e9ad4344031fe5194dd335709e8af5fc028d2d990a192615beb3ef11fa5f80a3005b63099d3e0360e21b5f5260045ffd5b34610d7d575f366003190112610d7d576040517f00000000000000000000000000000000000000000000000000000000000000006001600160a01b03168152602090f35b34610d7d575f366003190112610d7d57600b546040516001600160a01b039091168152602090f35b34610d7d575f366003190112610d7d57600d546040516001600160a01b039091168152602090f35b34610d7d575f366003190112610d7d576007546040516001600160a01b039091168152602090f35b34610d7d575f366003190112610d7d576006546040516001600160a01b039091168152602090f35b34610d7d575f366003190112610d7d57600f546040516001600160a01b039091168152602090f35b34610d7d576020366003190112610d7d576113b161187f565b6113b96119b6565b6001600160a01b03811690811561141c576113d390611c5b565b600480546001600160a01b031916821790556001600160a01b036113f56121a9565b167fe8ad049e0ad7908009ae0f7f4364595fd1a499488f22fa486d8542dcc57af4135f80a3005b6397a22d9360e01b5f5260045ffd5b34610d7d575f366003190112610d7d57600a546040516001600160a01b039091168152602090f35b34610d7d576020366003190112610d7d57602061146e61187f565b6040517f00000000000000000000000000000000000000000000000000000000000000006001600160a01b039081169216919091148152f35b34610d7d576020366003190112610d7d576114c061187f565b6114c86119b6565b6001600160a01b03811690811561153e576114e281611bb8565b60028054610100600160a81b03191660089290921b610100600160a81b03169190911790556001600160a01b036115176121a9565b167f18ea1177da83ebf23520cb37420841e05033121576c404e09f73db10fea6ac785f80a3005b63ee30f64f60e01b5f5260045ffd5b34610d7d576020366003190112610d7d5761156661187f565b61156e6119b6565b6001600160a01b0381169081156115d15761158890611b15565b600680546001600160a01b031916821790556001600160a01b036115aa6121a9565b167f81275737702fb4f879c5b1b3ef8d4de980fdb3a2b4462ad24fe8c7832e7d0f475f80a3005b63d6cd3aeb60e01b5f5260045ffd5b34610d7d575f366003190112610d7d57600e546040516001600160a01b039091168152602090f35b34610d7d575f366003190112610d7d576010546040516001600160a01b039091168152602090f35b34610d7d575f366003190112610d7d576008546040516001600160a01b039091168152602090f35b34610d7d576040366003190112610d7d57611671611895565b6001600160a01b036116816121a9565b166001600160a01b0382160361169d57610ea5906004356120c2565b63334bd91960e11b5f5260045ffd5b34610d7d576040366003190112610d7d57610ea56004356116cb611895565b906116e4610e9b825f525f602052600160405f20015490565b61202d565b34610d7d576020366003190112610d7d5760206117136004355f525f602052600160405f20015490565b604051908152f35b34610d7d576020366003190112610d7d576004355f526012602052602060018060a01b0360405f205416604051908152f35b34610d7d576020366003190112610d7d5761176661187f565b61176e6119b6565b6001600160a01b0381169081156117d15761178890611a6f565b600f80546001600160a01b031916821790556001600160a01b036117aa6121a9565b167fefea9f2b39bb4f73b0a1080278a75714ae7d6def44739e209eebe2085b9b62b35f80a3005b632384fcc160e11b5f5260045ffd5b34610d7d576020366003190112610d7d576004355f526013602052602060018060a01b0360405f205416604051908152f35b34610d7d576020366003190112610d7d576004359063ffffffff60e01b8216809203610d7d57602091633d1b15b560e21b8114908115611854575b5015158152f35b637965db0b60e01b81149150811561186e575b508361184d565b6301ffc9a760e01b14905083611867565b600435906001600160a01b0382168203610d7d57565b602435906001600160a01b0382168203610d7d57565b90601f8019910116810190811067ffffffffffffffff821117610d8157604052565b90816020910312610d7d57518015158103610d7d5790565b8051156118f25760200190565b634e487b7160e01b5f52603260045260245ffd5b8051600110156118f25760400190565b8051600210156118f25760600190565b8051600310156118f25760800190565b8051600410156118f25760a00190565b9080602083519182815201916020808360051b8301019401925f915b83831061197157505050505090565b909192939460208080600193601f19868203018752818a518051918291828552018484015e5f828201840152601f01601f191601019701959491909101920190611962565b6119be6121a9565b6001600160a01b0381165f9081527fad3228b676f7d3cd4284a5443f17f1962b36e491b30a40b2405849e597ba5fb5602052604090205460ff1615611a005750565b63e2517d3f60e01b5f5260018060a01b03166004525f60245260445ffd5b611a266121a9565b5f828152602081815260408083206001600160a01b038516845290915290205460ff1615611a52575050565b63e2517d3f60e01b5f5260018060a01b031660045260245260445ffd5b6001600160a01b03168015611b12576040516301ffc9a760e01b815263604b4d3760e11b6004820152602081602481855afa5f9181611af1575b50611acc57506327224edf60e01b5f5260045263604b4d3760e11b60245260445ffd5b15611ad45750565b6327224edf60e01b5f5260045263604b4d3760e11b60245260445ffd5b611b0b91925060203d602011610ddf57610dd181836118ab565b905f611aa9565b50565b6001600160a01b03168015611b12576040516301ffc9a760e01b815263c08590db60e01b6004820152602081602481855afa5f9181611b97575b50611b7257506327224edf60e01b5f5260045263c08590db60e01b60245260445ffd5b15611b7a5750565b6327224edf60e01b5f5260045263c08590db60e01b60245260445ffd5b611bb191925060203d602011610ddf57610dd181836118ab565b905f611b4f565b6001600160a01b03168015611b12576040516301ffc9a760e01b8152637d84485d60e01b6004820152602081602481855afa5f9181611c3a575b50611c1557506327224edf60e01b5f52600452637d84485d60e01b60245260445ffd5b15611c1d5750565b6327224edf60e01b5f52600452637d84485d60e01b60245260445ffd5b611c5491925060203d602011610ddf57610dd181836118ab565b905f611bf2565b6001600160a01b03168015611b12576040516301ffc9a760e01b8152630277b84b60e11b6004820152602081602481855afa5f9181611cdd575b50611cb857506327224edf60e01b5f52600452630277b84b60e11b60245260445ffd5b15611cc05750565b6327224edf60e01b5f52600452630277b84b60e11b60245260445ffd5b611cf791925060203d602011610ddf57610dd181836118ab565b905f611c95565b6001600160a01b03168015611b12576040516301ffc9a760e01b8152631983557360e21b6004820152602081602481855afa5f9181611d80575b50611d5b57506327224edf60e01b5f52600452631983557360e21b60245260445ffd5b15611d635750565b6327224edf60e01b5f52600452631983557360e21b60245260445ffd5b611d9a91925060203d602011610ddf57610dd181836118ab565b905f611d38565b6001600160a01b03168015611b12576040516301ffc9a760e01b815263034e9be160e01b6004820152602081602481855afa5f9181611e23575b50611dfe57506327224edf60e01b5f5260045263034e9be160e01b60245260445ffd5b15611e065750565b6327224edf60e01b5f5260045263034e9be160e01b60245260445ffd5b611e3d91925060203d602011610ddf57610dd181836118ab565b905f611ddb565b6001600160a01b03168015611b12576040516301ffc9a760e01b815263161eee7760e31b6004820152602081602481855afa5f9181611ec6575b50611ea157506327224edf60e01b5f5260045263161eee7760e31b60245260445ffd5b15611ea95750565b6327224edf60e01b5f5260045263161eee7760e31b60245260445ffd5b611ee091925060203d602011610ddf57610dd181836118ab565b905f611e7e565b6001600160a01b03168015611b12576040516301ffc9a760e01b8152631526bf3960e11b6004820152602081602481855afa5f9181611f69575b50611f4457506327224edf60e01b5f52600452631526bf3960e11b60245260445ffd5b15611f4c5750565b6327224edf60e01b5f52600452631526bf3960e11b60245260445ffd5b611f8391925060203d602011610ddf57610dd181836118ab565b905f611f21565b6001600160a01b03168015611b12576040516301ffc9a760e01b8152634ea2ccdd60e01b6004820152602081602481855afa5f918161200c575b50611fe757506327224edf60e01b5f52600452634ea2ccdd60e01b60245260445ffd5b15611fef5750565b6327224edf60e01b5f52600452634ea2ccdd60e01b60245260445ffd5b61202691925060203d602011610ddf57610dd181836118ab565b905f611fc4565b5f818152602081815260408083206001600160a01b038616845290915290205460ff166120bc575f818152602081815260408083206001600160a01b0386811685529252909120805460ff191660011790556120876121a9565b16916001600160a01b0316907f2f8788117e7eff1d82e926ec794901d17c78024a50270940304540a733656f0d5f80a4600190565b50505f90565b5f818152602081815260408083206001600160a01b038616845290915290205460ff16156120bc575f818152602081815260408083206001600160a01b0386811685529252909120805460ff1916905561211a6121a9565b16916001600160a01b0316907ff6391f5c32d9c69d2a47ea670b442974b53935d1edc7fd64eb21e047a839171b5f80a4600190565b600260015414612160576002600155565b633ee5aeb560e01b5f5260045ffd5b60405160c0919061218083826118ab565b6005815291601f1901825f5b82811061219857505050565b80606060208093850101520161218c565b337f00000000000000000000000000000000000000000000000000000000000000006001600160a01b0316148061220b575b156122075760131936013681116121f3573560601c90565b634e487b7160e01b5f52601160045260245ffd5b3390565b5060143610156121db56fe608060405260a06104cb803803809161001782610273565b6080391261025b576100276102c1565b61003160a06102d7565b60c0519061003f60e06102d7565b61004a6101006102d7565b6001600160a01b038516801580156101f3575b6101e4575f5160206104ab5f395f51905f5280546001600160a01b0319166001600160a01b039092169190911790556100b4847f17947bca0d2c81fdff72d848cf07e6794554f6987d19e262fbc8ebfe6c58aef455565b5f5160206104ab5f395f51905f52546100e3906100d7906001600160a01b031681565b6001600160a01b031690565b604051631cece55f60e01b8152600481018690529490602090869060249082905afa9485156101df575f956101ae575b506001600160a01b0385161561019c57604051637c643b2f60e11b602082019081526001600160a01b03888116602484015285811660448401528681166064840152841660848084019190915282525f918291889161017360a48261029e565b51915af461017f610325565b90156101945760405161014790816103648239f35b602081519101fd5b630cc8ce1560e11b5f5260045260245ffd5b6101d191955060203d6020116101d8575b6101c9818361029e565b81019061030e565b935f610113565b503d6101bf565b610303565b633f997a3760e01b5f5260045ffd5b506040516301ffc9a760e01b8152633d1b15b560e21b6004820152602081602481855afa9081156101df575f9161022c575b501561005d565b61024e915060203d602011610254575b610246818361029e565b8101906102eb565b5f610225565b503d61023c565b5f80fd5b634e487b7160e01b5f52604160045260245ffd5b6080601f91909101601f19168101906001600160401b0382119082101761029957604052565b61025f565b601f909101601f19168101906001600160401b0382119082101761029957604052565b608051906001600160a01b038216820361025b57565b51906001600160a01b038216820361025b57565b9081602091031261025b5751801515810361025b5790565b6040513d5f823e3d90fd5b9081602091031261025b57610322906102d7565b90565b3d1561035e573d906001600160401b0382116102995760405191610353601f8201601f19166020018461029e565b82523d5f602084013e565b60609056fe608060405236156100b1576020608060248160018060a01b037fe8884080cc51c5c292bf466c34183fc7b6d97a0de789d28a4fa18c91a467e8f354167f17947bca0d2c81fdff72d848cf07e6794554f6987d19e262fbc8ebfe6c58aef454631cece55f60e01b83526084525afa80156100a6575f901561011d575060203d60201161009f575b8061009261009a926100c0565b6080016100f7565b61011d565b503d610085565b6040513d5f823e3d90fd5b635d82995b60e01b5f5260045ffd5b601f80199101166080016080811067ffffffffffffffff8211176100e357604052565b634e487b7160e01b5f52604160045260245ffd5b602090607f190112610119576080516001600160a01b03811681036101195790565b5f80fd5b5f8091368280378136915af43d5f803e15610136573d5ff35b3d5ffdfea164736f6c634300081c000ae8884080cc51c5c292bf466c34183fc7b6d97a0de789d28a4fa18c91a467e8f36080604052346100c95761051d803803809161001a826100e1565b60803960408160800191126100c95761003161012a565b60a05191906001600160401b0383116100c95781609f840112156100c9576080830151916001600160401b0383116100cd578260051b93604051936100796020870186610107565b845260a060208501958201019182116100c95760a001935b8185106100b1576100a28484610196565b60405161013b90816103e28239f35b602080916100be87610140565b815201940193610091565b5f80fd5b634e487b7160e01b5f52604160045260245ffd5b6080601f91909101601f19168101906001600160401b038211908210176100cd57604052565b601f909101601f19168101906001600160401b038211908210176100cd57604052565b608051906001600160a01b03821682036100c957565b51906001600160a01b03821682036100c957565b60206040818301928281528451809452019201905f5b8181106101775750505090565b82516001600160a01b031684526020938401939092019160010161016a565b6001600160a01b0381168015908115610243575b50610234577f4ec051ecf420fd16e0db567197da76ec7f1f5f47763970d604b97e75cb0064d380546001600160a01b0319166001600160a01b039290921691821790556102329161021f9161022d90610202906102d8565b9160405193849163a224cee760e01b602084015260248301610154565b03601f198101845283610107565b610365565b565b633f997a3760e01b5f5260045ffd5b6040516301ffc9a760e01b8152633d1b15b560e21b60048201529150602090829060249082905afa9081156102b0575f91610281575b50155f6101aa565b6102a3915060203d6020116102a9575b61029b8183610107565b8101906102b5565b5f610279565b503d610291565b6102cd565b908160209103126100c9575180151581036100c95790565b6040513d5f823e3d90fd5b60405163917fc62960e01b815290602090829060049082906001600160a01b03165afa9081156102b0575f9161032b575b506001600160a01b0381161561031c5790565b63ee30f64f60e01b5f5260045ffd5b90506020813d60201161035d575b8161034660209383610107565b810103126100c95761035790610140565b5f610309565b3d9150610339565b6001600160a01b038116156103d257815f929160208493519201905af43d156103ca573d906001600160401b0382116100cd57604051916103b0601f8201601f191660200184610107565b82523d5f602084013e5b156103c25750565b602081519101fd5b6060906103ba565b63ee0a129760e01b5f5260045ffdfe608060405236156100dc577f4ec051ecf420fd16e0db567197da76ec7f1f5f47763970d604b97e75cb0064d35463917fc62960e01b608090815260209160049082906001600160a01b03165afa80156100d1575f90610076575b6001600160a01b0381166100eb5763ee30f64f60e01b5f5260045ffd5b5060203d6020116100ca575b601f19601f820116608001906080821067ffffffffffffffff8311176100b6576100b191604052608001610108565b610059565b634e487b7160e01b5f52604160045260245ffd5b503d610082565b6040513d5f823e3d90fd5b635d82995b60e01b5f5260045ffd5b5f8091368280378136915af43d5f803e15610104573d5ff35b3d5ffd5b602090607f19011261012a576080516001600160a01b038116810361012a5790565b5f80fdfea164736f6c634300081c000a60806040523461016a576040610462803803809161001c82610182565b6080391261016a5761002c6101d0565b61003660a06101e6565b6001600160a01b03821680159081156100f8575b506100e9577f4ec051ecf420fd16e0db567197da76ec7f1f5f47763970d604b97e75cb0064d380546001600160a01b0319166001600160a01b0384169081179091556100da92906100d59061009e9061021d565b60405163485cc95560e01b60208201526001600160a01b0393841660248201529390921660448085019190915283526064836101ad565b6102aa565b60405161013b90816103278239f35b633f997a3760e01b5f5260045ffd5b6040516301ffc9a760e01b8152633d1b15b560e21b60048201529150602090829060249082905afa908115610165575f91610136575b50155f61004a565b610158915060203d60201161015e575b61015081836101ad565b8101906101fa565b5f61012e565b503d610146565b610212565b5f80fd5b634e487b7160e01b5f52604160045260245ffd5b6080601f91909101601f19168101906001600160401b038211908210176101a857604052565b61016e565b601f909101601f19168101906001600160401b038211908210176101a857604052565b608051906001600160a01b038216820361016a57565b51906001600160a01b038216820361016a57565b9081602091031261016a5751801515810361016a5790565b6040513d5f823e3d90fd5b604051636dbe06f560e01b815290602090829060049082906001600160a01b03165afa908115610165575f91610270575b506001600160a01b038116156102615790565b63d6cd3aeb60e01b5f5260045ffd5b90506020813d6020116102a2575b8161028b602093836101ad565b8101031261016a5761029c906101e6565b5f61024e565b3d915061027e565b6001600160a01b0381161561031757815f929160208493519201905af43d1561030f573d906001600160401b0382116101a857604051916102f5601f8201601f1916602001846101ad565b82523d5f602084013e5b156103075750565b602081519101fd5b6060906102ff565b63ee0a129760e01b5f5260045ffdfe608060405236156100dc577f4ec051ecf420fd16e0db567197da76ec7f1f5f47763970d604b97e75cb0064d354636dbe06f560e01b608090815260209160049082906001600160a01b03165afa80156100d1575f90610076575b6001600160a01b0381166100eb5763d6cd3aeb60e01b5f5260045ffd5b5060203d6020116100ca575b601f19601f820116608001906080821067ffffffffffffffff8311176100b6576100b191604052608001610108565b610059565b634e487b7160e01b5f52604160045260245ffd5b503d610082565b6040513d5f823e3d90fd5b635d82995b60e01b5f5260045ffd5b5f8091368280378136915af43d5f803e15610104573d5ff35b3d5ffd5b602090607f19011261012a576080516001600160a01b038116810361012a5790565b5f80fdfea164736f6c634300081c000a608060405234610171576040610469803803809161001c82610189565b608039126101715761002c6101d7565b61003660a06101ed565b906001600160a01b03811680159081156100ff575b506100f0577f4ec051ecf420fd16e0db567197da76ec7f1f5f47763970d604b97e75cb0064d380546001600160a01b0319166001600160a01b039290921691821790556100e1916100ce916100dc906100a390610224565b60405163189acdbd60e31b60208201526001600160a01b039093166024840152919283906044820190565b03601f1981018452836101b4565b6102b1565b60405161013b908161032e8239f35b633f997a3760e01b5f5260045ffd5b6040516301ffc9a760e01b8152633d1b15b560e21b60048201529150602090829060249082905afa90811561016c575f9161013d575b50155f61004b565b61015f915060203d602011610165575b61015781836101b4565b810190610201565b5f610135565b503d61014d565b610219565b5f80fd5b634e487b7160e01b5f52604160045260245ffd5b6080601f91909101601f19168101906001600160401b038211908210176101af57604052565b610175565b601f909101601f19168101906001600160401b038211908210176101af57604052565b608051906001600160a01b038216820361017157565b51906001600160a01b038216820361017157565b90816020910312610171575180151581036101715790565b6040513d5f823e3d90fd5b6040516339b14cdf60e01b815290602090829060049082906001600160a01b03165afa90811561016c575f91610277575b506001600160a01b038116156102685790565b630273e4dd60e41b5f5260045ffd5b90506020813d6020116102a9575b81610292602093836101b4565b81010312610171576102a3906101ed565b5f610255565b3d9150610285565b6001600160a01b0381161561031e57815f929160208493519201905af43d15610316573d906001600160401b0382116101af57604051916102fc601f8201601f1916602001846101b4565b82523d5f602084013e5b1561030e5750565b602081519101fd5b606090610306565b63ee0a129760e01b5f5260045ffdfe608060405236156100dc577f4ec051ecf420fd16e0db567197da76ec7f1f5f47763970d604b97e75cb0064d3546339b14cdf60e01b608090815260209160049082906001600160a01b03165afa80156100d1575f90610076575b6001600160a01b0381166100eb57630273e4dd60e41b5f5260045ffd5b5060203d6020116100ca575b601f19601f820116608001906080821067ffffffffffffffff8311176100b6576100b191604052608001610108565b610059565b634e487b7160e01b5f52604160045260245ffd5b503d610082565b6040513d5f823e3d90fd5b635d82995b60e01b5f5260045ffd5b5f8091368280378136915af43d5f803e15610104573d5ff35b3d5ffd5b602090607f19011261012a576080516001600160a01b038116810361012a5790565b5f80fdfea164736f6c634300081c000a6080604052604061052a8038038091610017826101a6565b6080391261018e576100276101f4565b61003160a061020a565b906001600160a01b038116801590811561011c575b5061010d577f4ec051ecf420fd16e0db567197da76ec7f1f5f47763970d604b97e75cb0064d380546001600160a01b0319166001600160a01b0383169081179091556100fe92906100f99061009a906102e5565b916100cc6100a661021e565b946100c3836100b488610240565b6001600160a01b039091169052565b6100b486610261565b6100eb60405194859263251b648160e21b602085015260248401610271565b03601f1981018452836101d1565b610372565b60405161013b90816103ef8239f35b633f997a3760e01b5f5260045ffd5b6040516301ffc9a760e01b8152633d1b15b560e21b60048201529150602090829060249082905afa908115610189575f9161015a575b50155f610046565b61017c915060203d602011610182575b61017481836101d1565b8101906102c2565b5f610152565b503d61016a565b6102da565b5f80fd5b634e487b7160e01b5f52604160045260245ffd5b6080601f91909101601f19168101906001600160401b038211908210176101cc57604052565b610192565b601f909101601f19168101906001600160401b038211908210176101cc57604052565b608051906001600160a01b038216820361018e57565b51906001600160a01b038216820361018e57565b6040516060919061022f83826101d1565b6002815291601f1901366020840137565b80511561024d5760200190565b634e487b7160e01b5f52603260045260245ffd5b80516001101561024d5760400190565b6060602091604081019360018060a01b031681526040838201528451809452019201905f5b8181106102a35750505090565b82516001600160a01b0316845260209384019390920191600101610296565b9081602091031261018e5751801515810361018e5790565b6040513d5f823e3d90fd5b604051632c45518360e11b815290602090829060049082906001600160a01b03165afa908115610189575f91610338575b506001600160a01b038116156103295790565b6342f4ff8d60e11b5f5260045ffd5b90506020813d60201161036a575b81610353602093836101d1565b8101031261018e576103649061020a565b5f610316565b3d9150610346565b6001600160a01b038116156103df57815f929160208493519201905af43d156103d7573d906001600160401b0382116101cc57604051916103bd601f8201601f1916602001846101d1565b82523d5f602084013e5b156103cf5750565b602081519101fd5b6060906103c7565b63ee0a129760e01b5f5260045ffdfe608060405236156100dc577f4ec051ecf420fd16e0db567197da76ec7f1f5f47763970d604b97e75cb0064d354632c45518360e11b608090815260209160049082906001600160a01b03165afa80156100d1575f90610076575b6001600160a01b0381166100eb576342f4ff8d60e11b5f5260045ffd5b5060203d6020116100ca575b601f19601f820116608001906080821067ffffffffffffffff8311176100b6576100b191604052608001610108565b610059565b634e487b7160e01b5f52604160045260245ffd5b503d610082565b6040513d5f823e3d90fd5b635d82995b60e01b5f5260045ffd5b5f8091368280378136915af43d5f803e15610104573d5ff35b3d5ffd5b602090607f19011261012a576080516001600160a01b038116810361012a5790565b5f80fdfea164736f6c634300081c000a608060405260a061049b8038038091610017826101bb565b608039126101a357610027610209565b61003160a061021f565b61003b60c061021f565b9061004660e061021f565b9061005261010061021f565b906001600160a01b0385168015908115610131575b50610122577f4ec051ecf420fd16e0db567197da76ec7f1f5f47763970d604b97e75cb0064d380546001600160a01b0319166001600160a01b039690961695861790556101139461010e92610100916100bf90610256565b604051637c643b2f60e11b60208201526001600160a01b039485166024820152968416604488015294831660648701529091166084850152839060a4820190565b03601f1981018452836101e6565b6102e3565b60405161013b90816103608239f35b633f997a3760e01b5f5260045ffd5b6040516301ffc9a760e01b8152633d1b15b560e21b60048201529150602090829060249082905afa90811561019e575f9161016f575b50155f610067565b610191915060203d602011610197575b61018981836101e6565b810190610233565b5f610167565b503d61017f565b61024b565b5f80fd5b634e487b7160e01b5f52604160045260245ffd5b6080601f91909101601f19168101906001600160401b038211908210176101e157604052565b6101a7565b601f909101601f19168101906001600160401b038211908210176101e157604052565b608051906001600160a01b03821682036101a357565b51906001600160a01b03821682036101a357565b908160209103126101a3575180151581036101a35790565b6040513d5f823e3d90fd5b6040516350c6ecf560e11b815290602090829060049082906001600160a01b03165afa90811561019e575f916102a9575b506001600160a01b0381161561029a5790565b6397a22d9360e01b5f5260045ffd5b90506020813d6020116102db575b816102c4602093836101e6565b810103126101a3576102d59061021f565b5f610287565b3d91506102b7565b6001600160a01b0381161561035057815f929160208493519201905af43d15610348573d906001600160401b0382116101e1576040519161032e601f8201601f1916602001846101e6565b82523d5f602084013e5b156103405750565b602081519101fd5b606090610338565b63ee0a129760e01b5f5260045ffdfe608060405236156100dc577f4ec051ecf420fd16e0db567197da76ec7f1f5f47763970d604b97e75cb0064d3546350c6ecf560e11b608090815260209160049082906001600160a01b03165afa80156100d1575f90610076575b6001600160a01b0381166100eb576397a22d9360e01b5f5260045ffd5b5060203d6020116100ca575b601f19601f820116608001906080821067ffffffffffffffff8311176100b6576100b191604052608001610108565b610059565b634e487b7160e01b5f52604160045260245ffd5b503d610082565b6040513d5f823e3d90fd5b635d82995b60e01b5f5260045ffd5b5f8091368280378136915af43d5f803e15610104573d5ff35b3d5ffd5b602090607f19011261012a576080516001600160a01b038116810361012a5790565b5f80fdfea164736f6c634300081c000a60806040523461016a576040610462803803809161001c82610182565b6080391261016a5761002c6101d0565b61003660a06101e6565b6001600160a01b03821680159081156100f8575b506100e9577f4ec051ecf420fd16e0db567197da76ec7f1f5f47763970d604b97e75cb0064d380546001600160a01b0319166001600160a01b0384169081179091556100da92906100d59061009e9061021d565b60405163485cc95560e01b60208201526001600160a01b0393841660248201529390921660448085019190915283526064836101ad565b6102aa565b60405161013b90816103278239f35b633f997a3760e01b5f5260045ffd5b6040516301ffc9a760e01b8152633d1b15b560e21b60048201529150602090829060249082905afa908115610165575f91610136575b50155f61004a565b610158915060203d60201161015e575b61015081836101ad565b8101906101fa565b5f61012e565b503d610146565b610212565b5f80fd5b634e487b7160e01b5f52604160045260245ffd5b6080601f91909101601f19168101906001600160401b038211908210176101a857604052565b61016e565b601f909101601f19168101906001600160401b038211908210176101a857604052565b608051906001600160a01b038216820361016a57565b51906001600160a01b038216820361016a57565b9081602091031261016a5751801515810361016a5790565b6040513d5f823e3d90fd5b60405163e32d4b6760e01b815290602090829060049082906001600160a01b03165afa908115610165575f91610270575b506001600160a01b038116156102615790565b6305b4e73960e51b5f5260045ffd5b90506020813d6020116102a2575b8161028b602093836101ad565b8101031261016a5761029c906101e6565b5f61024e565b3d915061027e565b6001600160a01b0381161561031757815f929160208493519201905af43d1561030f573d906001600160401b0382116101a857604051916102f5601f8201601f1916602001846101ad565b82523d5f602084013e5b156103075750565b602081519101fd5b6060906102ff565b63ee0a129760e01b5f5260045ffdfe608060405236156100dc577f4ec051ecf420fd16e0db567197da76ec7f1f5f47763970d604b97e75cb0064d35463e32d4b6760e01b608090815260209160049082906001600160a01b03165afa80156100d1575f90610076575b6001600160a01b0381166100eb576305b4e73960e51b5f5260045ffd5b5060203d6020116100ca575b601f19601f820116608001906080821067ffffffffffffffff8311176100b6576100b191604052608001610108565b610059565b634e487b7160e01b5f52604160045260245ffd5b503d610082565b6040513d5f823e3d90fd5b635d82995b60e01b5f5260045ffd5b5f8091368280378136915af43d5f803e15610104573d5ff35b3d5ffd5b602090607f19011261012a576080516001600160a01b038116810361012a5790565b5f80fdfea164736f6c634300081c000aa164736f6c634300081c000aad3228b676f7d3cd4284a5443f17f1962b36e491b30a40b2405849e597ba5fb5a164736f6c634300081c000a",
    "linkReferences": {}
  },
  "methodIdentifiers": {
    "atkSystems(uint256)": "cf0da604",
    "createSystem()": "d171da1a",
    "defaultComplianceImplementation()": "0a94adee",
    "defaultIdentityFactoryImplementation()": "e6fea7ac",
    "defaultIdentityImplementation()": "e28a1406",
    "defaultIdentityRegistryImplementation()": "8bb25576",
    "defaultIdentityRegistryStorageImplementation()": "e84b3ceb",
    "defaultIdentityVerificationModule()": "686b1e03",
    "defaultTokenAccessManagerImplementation()": "01e08e58",
    "defaultTokenIdentityImplementation()": "cbdd9d51",
    "defaultTopicSchemeRegistryImplementation()": "023fc729",
    "defaultTrustedIssuersRegistryImplementation()": "9ca5f9c7",
    "factoryForwarder()": "0e5f342c",
    "getSystemAtIndex(uint256)": "490e805a",
    "getSystemCount()": "7df56b6c",
    "isTrustedForwarder(address)": "572b6c05",
    "trustedForwarder()": "7da0a877"
  },
  "userdoc": {
    "version": 1,
    "kind": "user",
    "methods": {
      "atkSystems(uint256)": {
        "notice": "An array storing the addresses of all `ATKSystem` instances that have been created by this factory."
      },
      "constructor": {
        "notice": "Constructs the `ATKSystemFactory` contract."
      },
      "createSystem()": {
        "notice": "Creates and deploys a new `ATKSystem` instance using the factory's stored default implementation addresses."
      },
      "defaultComplianceImplementation()": {
        "notice": "The default contract address for the compliance module's logic (implementation)."
      },
      "defaultIdentityFactoryImplementation()": {
        "notice": "The default contract address for the identity factory module's logic (implementation)."
      },
      "defaultIdentityImplementation()": {
        "notice": "The default contract address for the standard identity contract's logic (template/implementation)."
      },
      "defaultIdentityRegistryImplementation()": {
        "notice": "The default contract address for the identity registry module's logic (implementation)."
      },
      "defaultIdentityRegistryStorageImplementation()": {
        "notice": "The default contract address for the identity registry storage module's logic (implementation)."
      },
      "defaultIdentityVerificationModule()": {
        "notice": "The default contract address for the identity verification module's logic."
      },
      "defaultTokenAccessManagerImplementation()": {
        "notice": "The default contract address for the token access manager contract's logic (implementation)."
      },
      "defaultTokenIdentityImplementation()": {
        "notice": "The default contract address for the token identity contract's logic (template/implementation)."
      },
      "defaultTopicSchemeRegistryImplementation()": {
        "notice": "The default contract address for the topic scheme registry module's logic (implementation)."
      },
      "defaultTrustedIssuersRegistryImplementation()": {
        "notice": "The default contract address for the trusted issuers registry module's logic (implementation)."
      },
      "factoryForwarder()": {
        "notice": "The address of the trusted forwarder contract used by this factory for meta-transactions (ERC2771)."
      },
      "getSystemAtIndex(uint256)": {
        "notice": "Gets the blockchain address of a `ATKSystem` instance at a specific index in the list of created systems."
      },
      "getSystemCount()": {
        "notice": "Gets the total number of `ATKSystem` instances that have been created by this factory."
      }
    },
    "events": {
      "ATKSystemCreated(address,address)": {
        "notice": "Emitted when a new `ATKSystem` instance is successfully created and deployed by this factory."
      }
    },
    "errors": {
      "ComplianceImplementationNotSet()": [
        {
          "notice": "Error indicating that the compliance module implementation address has not been set."
        }
      ],
      "IdentityFactoryImplementationNotSet()": [
        {
          "notice": "Error indicating that the identity factory implementation address has not been set."
        }
      ],
      "IdentityImplementationNotSet()": [
        {
          "notice": "Error indicating that the standard identity contract implementation address has not been set."
        }
      ],
      "IdentityRegistryImplementationNotSet()": [
        {
          "notice": "Error indicating that the identity registry implementation address has not been set."
        }
      ],
      "IdentityRegistryStorageImplementationNotSet()": [
        {
          "notice": "Error indicating that the identity registry storage implementation address has not been set."
        }
      ],
      "IdentityVerificationModuleNotSet()": [
        {
          "notice": "Error indicating that the identity verification module implementation address has not been set."
        }
      ],
      "IndexOutOfBounds(uint256,uint256)": [
        {
          "notice": "Error indicating that an index provided for accessing an array or list is out of its valid range."
        }
      ],
      "TokenAccessManagerImplementationNotSet()": [
        {
          "notice": "Error indicating that the token access manager contract implementation address has not been set."
        }
      ],
      "TokenIdentityImplementationNotSet()": [
        {
          "notice": "Error indicating that the token identity contract implementation address has not been set."
        }
      ],
      "TopicSchemeRegistryImplementationNotSet()": [
        {
          "notice": "Error indicating that the topic scheme registry implementation address has not been set."
        }
      ],
      "TrustedIssuersRegistryImplementationNotSet()": [
        {
          "notice": "Error indicating that the trusted issuers registry implementation address has not been set."
        }
      ]
    },
    "notice": "This contract serves as a factory for deploying new instances of the `ATKSystem` contract."
  },
  "devdoc": {
    "version": 1,
    "kind": "dev",
    "author": "SettleMint Tokenization Services",
    "details": "It simplifies the deployment of `ATKSystem` by using a predefined set of default implementation addresses for the various modules (compliance, identity registry, etc.) that `ATKSystem` manages. This factory also supports meta-transactions through OpenZeppelin's `ERC2771Context`, allowing users to interact with it (e.g., to create a new `ATKSystem`) without paying for gas directly, provided a trusted forwarder is used. The factory keeps track of all `ATKSystem` instances it creates.",
    "methods": {
      "constructor": {
        "details": "This function is called only once when the factory contract is deployed. It initializes the immutable default implementation addresses for all core ATK modules and sets the trusted forwarder address. It performs crucial checks to ensure that none of the provided implementation addresses are the zero address, as these are essential for the proper functioning of the `ATKSystem` instances that will be created.",
        "params": {
          "complianceImplementation_": "The default address for the compliance module's logic contract.",
          "forwarder_": "The address of the trusted forwarder contract to be used for meta-transactions (ERC2771).",
          "identityFactoryImplementation_": "The default address for the identity factory module's logic contract.",
          "identityImplementation_": "The default address for the standard identity contract's logic (template).",
          "identityRegistryImplementation_": "The default address for the identity registry module's logic contract.",
          "identityRegistryStorageImplementation_": "The default address for the identity registry storage module's logic contract.",
          "identityVerificationModule_": "The default address for the identity verification module's logic contract.",
          "tokenAccessManagerImplementation_": "The default address for the token access manager contract's logic (template).",
          "tokenIdentityImplementation_": "The default address for the token identity contract's logic (template).",
          "topicSchemeRegistryImplementation_": "The default address for the topic scheme registry module's logic contract.",
          "trustedIssuersRegistryImplementation_": "The default address for the trusted issuers registry module's logic contract."
        }
      },
      "createSystem()": {
        "details": "When this function is called, a new `ATKSystem` contract is created on the blockchain. The caller of this function (which is `_msgSender()`, resolving to the original user in an ERC2771 meta-transaction context) will be set as the initial administrator (granted `DEFAULT_ADMIN_ROLE`) of the newly created `ATKSystem`. The new system's address is added to the `atkSystems` array for tracking, and a `ATKSystemCreated` event is emitted.",
        "returns": {
          "systemAddress": "The blockchain address of the newly created `ATKSystem` contract."
        }
      },
      "getSystemAtIndex(uint256)": {
        "details": "This allows retrieval of addresses for previously deployed `ATKSystem` contracts. It will revert with an `IndexOutOfBounds` error if the provided `index` is greater than or equal to the current number of created systems (i.e., if `index >= atkSystems.length`). This is a view function.",
        "params": {
          "index": "The zero-based index of the desired `ATKSystem` in the `atkSystems` array."
        },
        "returns": {
          "_0": "address The blockchain address of the `ATKSystem` contract found at the given `index`."
        }
      },
      "getSystemCount()": {
        "details": "This is a view function, meaning it only reads blockchain state and does not cost gas to call (if called externally, not in a transaction).",
        "returns": {
          "_0": "uint256 The count of `ATKSystem` instances currently stored in the `atkSystems` array."
        }
      },
      "isTrustedForwarder(address)": {
        "details": "Indicates whether any particular address is the trusted forwarder."
      },
      "trustedForwarder()": {
        "details": "Returns the address of the trusted forwarder."
      }
    },
    "events": {
      "ATKSystemCreated(address,address)": {
        "params": {
          "sender": "The address that called the `createSystem` function.",
          "systemAddress": "The blockchain address of the newly deployed `ATKSystem` contract."
        }
      }
    },
    "errors": {
      "ComplianceImplementationNotSet()": [
        {
          "details": "This error is thrown if an operation requires the compliance module, but its logic contract address is zero or has not been configured in the `SMARTSystem`."
        }
      ],
      "IdentityFactoryImplementationNotSet()": [
        {
          "details": "This error is thrown if an operation requires the identity factory, but its logic contract address is zero or has not been configured in the `SMARTSystem`."
        }
      ],
      "IdentityImplementationNotSet()": [
        {
          "details": "This error is thrown if an operation requires the standard identity implementation (the template for user identities), but its logic contract address is zero or has not been configured in the `SMARTSystem`."
        }
      ],
      "IdentityRegistryImplementationNotSet()": [
        {
          "details": "This error is thrown if an operation requires the identity registry, but its logic contract address is zero or has not been configured in the `SMARTSystem`."
        }
      ],
      "IdentityRegistryStorageImplementationNotSet()": [
        {
          "details": "This error is thrown if an operation requires the identity registry storage, but its logic contract address is zero or has not been configured in the `SMARTSystem`."
        }
      ],
      "IdentityVerificationModuleNotSet()": [
        {
          "details": "This error is thrown if an operation requires the identity verification module, but its logic contract address is zero or has not been configured in the `SMARTSystem`."
        }
      ],
      "IndexOutOfBounds(uint256,uint256)": [
        {
          "details": "For example, trying to access the 5th element in an array that only has 3 elements.",
          "params": {
            "index": "The invalid index that was attempted to be accessed.",
            "length": "The actual length or size of the array/list."
          }
        }
      ],
      "TokenAccessManagerImplementationNotSet()": [
        {
          "details": "This error is thrown if an operation requires the token access manager implementation, but its logic contract address is zero or has not been configured in the `SMARTSystem`."
        }
      ],
      "TokenIdentityImplementationNotSet()": [
        {
          "details": "This error is thrown if an operation requires the token identity implementation (the template for token-specific identities), but its logic contract address is zero or has not been configured in the `SMARTSystem`."
        }
      ],
      "TopicSchemeRegistryImplementationNotSet()": [
        {
          "details": "This error is thrown if an operation requires the topic scheme registry, but its logic contract address is zero or has not been configured in the `SMARTSystem`."
        }
      ],
      "TrustedIssuersRegistryImplementationNotSet()": [
        {
          "details": "This error is thrown if an operation requires the trusted issuers registry, but its logic contract address is zero or has not been configured in the `SMARTSystem`."
        }
      ]
    },
    "title": "ATKSystemFactory"
  },
  "id": 102
}