{
  "abi": [
    {
      "type": "constructor",
      "inputs": [
        {
          "name": "complianceImplementation_",
          "type": "address",
          "internalType": "address"
        },
        {
          "name": "identityRegistryImplementation_",
          "type": "address",
          "internalType": "address"
        },
        {
          "name": "identityRegistryStorageImplementation_",
          "type": "address",
          "internalType": "address"
        },
        {
          "name": "trustedIssuersRegistryImplementation_",
          "type": "address",
          "internalType": "address"
        },
        {
          "name": "topicSchemeRegistryImplementation_",
          "type": "address",
          "internalType": "address"
        },
        {
          "name": "identityFactoryImplementation_",
          "type": "address",
          "internalType": "address"
        },
        {
          "name": "identityImplementation_",
          "type": "address",
          "internalType": "address"
        },
        {
          "name": "tokenIdentityImplementation_",
          "type": "address",
          "internalType": "address"
        },
        {
          "name": "tokenAccessManagerImplementation_",
          "type": "address",
          "internalType": "address"
        },
        {
          "name": "identityVerificationModule_",
          "type": "address",
          "internalType": "address"
        },
        {
          "name": "forwarder_",
          "type": "address",
          "internalType": "address"
        }
      ],
      "stateMutability": "nonpayable"
    },
    {
      "type": "function",
      "name": "atkSystems",
      "inputs": [
        {
          "name": "",
          "type": "uint256",
          "internalType": "uint256"
        }
      ],
      "outputs": [
        {
          "name": "",
          "type": "address",
          "internalType": "address"
        }
      ],
      "stateMutability": "view"
    },
    {
      "type": "function",
      "name": "createSystem",
      "inputs": [],
      "outputs": [
        {
          "name": "systemAddress",
          "type": "address",
          "internalType": "address"
        }
      ],
      "stateMutability": "nonpayable"
    },
    {
      "type": "function",
      "name": "defaultComplianceImplementation",
      "inputs": [],
      "outputs": [
        {
          "name": "",
          "type": "address",
          "internalType": "address"
        }
      ],
      "stateMutability": "view"
    },
    {
      "type": "function",
      "name": "defaultIdentityFactoryImplementation",
      "inputs": [],
      "outputs": [
        {
          "name": "",
          "type": "address",
          "internalType": "address"
        }
      ],
      "stateMutability": "view"
    },
    {
      "type": "function",
      "name": "defaultIdentityImplementation",
      "inputs": [],
      "outputs": [
        {
          "name": "",
          "type": "address",
          "internalType": "address"
        }
      ],
      "stateMutability": "view"
    },
    {
      "type": "function",
      "name": "defaultIdentityRegistryImplementation",
      "inputs": [],
      "outputs": [
        {
          "name": "",
          "type": "address",
          "internalType": "address"
        }
      ],
      "stateMutability": "view"
    },
    {
      "type": "function",
      "name": "defaultIdentityRegistryStorageImplementation",
      "inputs": [],
      "outputs": [
        {
          "name": "",
          "type": "address",
          "internalType": "address"
        }
      ],
      "stateMutability": "view"
    },
    {
      "type": "function",
      "name": "defaultIdentityVerificationModule",
      "inputs": [],
      "outputs": [
        {
          "name": "",
          "type": "address",
          "internalType": "address"
        }
      ],
      "stateMutability": "view"
    },
    {
      "type": "function",
      "name": "defaultTokenAccessManagerImplementation",
      "inputs": [],
      "outputs": [
        {
          "name": "",
          "type": "address",
          "internalType": "address"
        }
      ],
      "stateMutability": "view"
    },
    {
      "type": "function",
      "name": "defaultTokenIdentityImplementation",
      "inputs": [],
      "outputs": [
        {
          "name": "",
          "type": "address",
          "internalType": "address"
        }
      ],
      "stateMutability": "view"
    },
    {
      "type": "function",
      "name": "defaultTopicSchemeRegistryImplementation",
      "inputs": [],
      "outputs": [
        {
          "name": "",
          "type": "address",
          "internalType": "address"
        }
      ],
      "stateMutability": "view"
    },
    {
      "type": "function",
      "name": "defaultTrustedIssuersRegistryImplementation",
      "inputs": [],
      "outputs": [
        {
          "name": "",
          "type": "address",
          "internalType": "address"
        }
      ],
      "stateMutability": "view"
    },
    {
      "type": "function",
      "name": "factoryForwarder",
      "inputs": [],
      "outputs": [
        {
          "name": "",
          "type": "address",
          "internalType": "address"
        }
      ],
      "stateMutability": "view"
    },
    {
      "type": "function",
      "name": "getSystemAtIndex",
      "inputs": [
        {
          "name": "index",
          "type": "uint256",
          "internalType": "uint256"
        }
      ],
      "outputs": [
        {
          "name": "",
          "type": "address",
          "internalType": "address"
        }
      ],
      "stateMutability": "view"
    },
    {
      "type": "function",
      "name": "getSystemCount",
      "inputs": [],
      "outputs": [
        {
          "name": "",
          "type": "uint256",
          "internalType": "uint256"
        }
      ],
      "stateMutability": "view"
    },
    {
      "type": "function",
      "name": "isTrustedForwarder",
      "inputs": [
        {
          "name": "forwarder",
          "type": "address",
          "internalType": "address"
        }
      ],
      "outputs": [
        {
          "name": "",
          "type": "bool",
          "internalType": "bool"
        }
      ],
      "stateMutability": "view"
    },
    {
      "type": "function",
      "name": "trustedForwarder",
      "inputs": [],
      "outputs": [
        {
          "name": "",
          "type": "address",
          "internalType": "address"
        }
      ],
      "stateMutability": "view"
    },
    {
      "type": "event",
      "name": "ATKSystemCreated",
      "inputs": [
        {
          "name": "sender",
          "type": "address",
          "indexed": true,
          "internalType": "address"
        },
        {
          "name": "systemAddress",
          "type": "address",
          "indexed": true,
          "internalType": "address"
        }
      ],
      "anonymous": false
    },
    {
      "type": "error",
      "name": "ComplianceImplementationNotSet",
      "inputs": []
    },
    {
      "type": "error",
      "name": "IdentityFactoryImplementationNotSet",
      "inputs": []
    },
    {
      "type": "error",
      "name": "IdentityImplementationNotSet",
      "inputs": []
    },
    {
      "type": "error",
      "name": "IdentityRegistryImplementationNotSet",
      "inputs": []
    },
    {
      "type": "error",
      "name": "IdentityRegistryStorageImplementationNotSet",
      "inputs": []
    },
    {
      "type": "error",
      "name": "IdentityVerificationModuleNotSet",
      "inputs": []
    },
    {
      "type": "error",
      "name": "IndexOutOfBounds",
      "inputs": [
        {
          "name": "index",
          "type": "uint256",
          "internalType": "uint256"
        },
        {
          "name": "length",
          "type": "uint256",
          "internalType": "uint256"
        }
      ]
    },
    {
      "type": "error",
      "name": "TokenAccessManagerImplementationNotSet",
      "inputs": []
    },
    {
      "type": "error",
      "name": "TokenIdentityImplementationNotSet",
      "inputs": []
    },
    {
      "type": "error",
      "name": "TopicSchemeRegistryImplementationNotSet",
      "inputs": []
    },
    {
      "type": "error",
      "name": "TrustedIssuersRegistryImplementationNotSet",
      "inputs": []
    }
  ],
  "bytecode": {
    "object": "0x6102003461030057601f615b3138819003918201601f19168301916001600160401b0383118484101761030457808492610160946040528339810103126103005761004981610318565b61005560208301610318565b61006160408401610318565b61006d60608501610318565b61007960808601610318565b61008560a08701610318565b9061009260c08801610318565b9261009f60e08901610318565b946100ad6101008a01610318565b966100c86101406100c16101208d01610318565b9b01610318565b6080819052986001600160a01b038116156102f1576001600160a01b038216156102e2576001600160a01b038316156102d3576001600160a01b038416156102c4576001600160a01b038516156102b5576001600160a01b038616156102a6576001600160a01b03871615610297576001600160a01b03881615610288576001600160a01b03891615610279576001600160a01b038b161561026a5760a05260c05260e05261010052610120526101405261016052610180526101a0526101c0526101e052604051615804908161032d82396080518181816105950152818161063301526107de015260a0518181816101f801526106fd015260c0518181816102200152610535015260e05181818160ec015261024801526101005181818161027001526104f1015261012051818181610298015261074101526101405181818161013401526102c001526101605181818161017801526102e801526101805181818161031001526104ad01526101a051818181610339015261078201526101c05181818161038b01526106b901526101e05181818161036201526105d90152f35b633ac2d12960e21b5f5260045ffd5b63099d3e0360e21b5f5260045ffd5b63e26a8ec760e01b5f5260045ffd5b632384fcc160e11b5f5260045ffd5b6305b4e73960e51b5f5260045ffd5b6342f4ff8d60e11b5f5260045ffd5b630273e4dd60e41b5f5260045ffd5b63d6cd3aeb60e01b5f5260045ffd5b6397a22d9360e01b5f5260045ffd5b63ee30f64f60e01b5f5260045ffd5b5f80fd5b634e487b7160e01b5f52604160045260245ffd5b51906001600160a01b03821682036103005756fe6080806040526004361015610012575f80fd5b5f3560e01c90816301e08e581461077057508063023fc7291461072c5780630a94adee146106e85780630e5f342c146106a4578063490e805a14610665578063572b6c0514610608578063686b1e03146105c45780637da0a877146105805780637df56b6c146105645780638bb25576146105205780639ca5f9c7146104dc578063cbdd9d5114610498578063cf0da60414610457578063d171da1a146101a7578063e28a140614610163578063e6fea7ac1461011f5763e84b3ceb146100d7575f80fd5b3461011b575f36600319011261011b576040517f00000000000000000000000000000000000000000000000000000000000000006001600160a01b03168152602090f35b5f80fd5b3461011b575f36600319011261011b576040517f00000000000000000000000000000000000000000000000000000000000000006001600160a01b03168152602090f35b3461011b575f36600319011261011b576040517f00000000000000000000000000000000000000000000000000000000000000006001600160a01b03168152602090f35b3461011b575f36600319011261011b576101bf6107db565b604051614faf918282019282841067ffffffffffffffff8511176104385761018091839161084983396001600160a01b039081168086527f0000000000000000000000000000000000000000000000000000000000000000821660208701527f0000000000000000000000000000000000000000000000000000000000000000821660408701527f0000000000000000000000000000000000000000000000000000000000000000821660608701527f0000000000000000000000000000000000000000000000000000000000000000821660808701527f0000000000000000000000000000000000000000000000000000000000000000821660a08701527f0000000000000000000000000000000000000000000000000000000000000000821660c08701527f0000000000000000000000000000000000000000000000000000000000000000821660e08701527f000000000000000000000000000000000000000000000000000000000000000082166101008701527f000000000000000000000000000000000000000000000000000000000000000082166101208701527f000000000000000000000000000000000000000000000000000000000000000082166101408701527f0000000000000000000000000000000000000000000000000000000000000000909116610160860152930301905ff0801561044c575f5491906001600160a01b031668010000000000000000831015610438576103ee836001602095015f556107b1565b81546001600160a01b0360039290921b91821b19169083901b1790556040519181907f87fff1d4a5235e3ed4aadb342e3efabac0e1ea83c57035716c8cee3ee6db525a5f80a38152f35b634e487b7160e01b5f52604160045260245ffd5b6040513d5f823e3d90fd5b3461011b57602036600319011261011b576004355f5481101561011b5761047f6020916107b1565b905460405160039290921b1c6001600160a01b03168152f35b3461011b575f36600319011261011b576040517f00000000000000000000000000000000000000000000000000000000000000006001600160a01b03168152602090f35b3461011b575f36600319011261011b576040517f00000000000000000000000000000000000000000000000000000000000000006001600160a01b03168152602090f35b3461011b575f36600319011261011b576040517f00000000000000000000000000000000000000000000000000000000000000006001600160a01b03168152602090f35b3461011b575f36600319011261011b5760205f54604051908152f35b3461011b575f36600319011261011b576040517f00000000000000000000000000000000000000000000000000000000000000006001600160a01b03168152602090f35b3461011b575f36600319011261011b576040517f00000000000000000000000000000000000000000000000000000000000000006001600160a01b03168152602090f35b3461011b57602036600319011261011b576004356001600160a01b0381169081900361011b576040517f00000000000000000000000000000000000000000000000000000000000000006001600160a01b03169091148152602090f35b3461011b57602036600319011261011b576004355f548082101561068e57602061047f836107b1565b906363a056dd60e01b5f5260045260245260445ffd5b3461011b575f36600319011261011b576040517f00000000000000000000000000000000000000000000000000000000000000006001600160a01b03168152602090f35b3461011b575f36600319011261011b576040517f00000000000000000000000000000000000000000000000000000000000000006001600160a01b03168152602090f35b3461011b575f36600319011261011b576040517f00000000000000000000000000000000000000000000000000000000000000006001600160a01b03168152602090f35b3461011b575f36600319011261011b577f00000000000000000000000000000000000000000000000000000000000000006001600160a01b03168152602090f35b5f548110156107c7575f805260205f2001905f90565b634e487b7160e01b5f52603260045260245ffd5b337f00000000000000000000000000000000000000000000000000000000000000006001600160a01b0316148061083d575b15610839576013193601368111610825573560601c90565b634e487b7160e01b5f52601160045260245ffd5b3390565b50601436101561080d56fe60a080604052346104a95761018081614faf803803809161002082856104ad565b8339810103126104a957610033816104e4565b90610040602082016104e4565b61004c604083016104e4565b90610059606084016104e4565b90610066608085016104e4565b61007260a086016104e4565b61007e60c087016104e4565b9161008b60e088016104e4565b9461009961010089016104e4565b966100a76101208a016104e4565b956100c26101606100bb6101408d016104e4565b9b016104e4565b608052600180556100d28b6104f8565b506001600160a01b0381161561049a576100eb81610594565b60028054610100600160a81b031916600892831b610100600160a81b031617908190556001600160a01b039b8c169b911c168a7f18ea1177da83ebf23520cb37420841e05033121576c404e09f73db10fea6ac785f80a36001600160a01b03811690811561048b5761015c90610656565b600480546001600160a01b03191682179055897fe8ad049e0ad7908009ae0f7f4364595fd1a499488f22fa486d8542dcc57af4135f80a36001600160a01b03811690811561047c576101ad90610715565b600680546001600160a01b03191682179055887f81275737702fb4f879c5b1b3ef8d4de980fdb3a2b4462ad24fe8c7832e7d0f475f80a36001600160a01b03811690811561046d576101fe906107d4565b600880546001600160a01b03191682179055877fd48b61a9f91ca2b642303e47ebca68d50d9187468daa2268cdd4ec792ade18045f80a36001600160a01b03811690811561045e5761024f90610893565b600a80546001600160a01b03191682179055867fce8fc7b69fcc1eda934571831e15bb10f95dddbb09559b28ad712d618f6ca0a95f80a36001600160a01b03811690811561044f576102a090610952565b600c80546001600160a01b03191682179055857f4bcec9d20bb800258ed241271d77077db5d50a6f76f12140c122c883deef79955f80a36001600160a01b038116908115610440576102f190610a11565b600e80546001600160a01b03191682179055847f4bd715e9ad4344031fe5194dd335709e8af5fc028d2d990a192615beb3ef11fa5f80a36001600160a01b0381169081156104315761034290610ad0565b600f80546001600160a01b03191682179055837fefea9f2b39bb4f73b0a1080278a75714ae7d6def44739e209eebe2085b9b62b35f80a36001600160a01b0381169081156104225761039390610ad0565b601080546001600160a01b03191682179055604051927f96cb65f899c3cf9ec267a022e255746ae585ae6e1bd3fb01601032dbcc58e3835f80a36001600160a01b0316801561041357601180546001600160a01b0319169190911790556143b09081610bdf823960805181818161134401528181611516015261225f0152f35b633ac2d12960e21b5f5260045ffd5b63e26a8ec760e01b5f5260045ffd5b632384fcc160e11b5f5260045ffd5b63099d3e0360e21b5f5260045ffd5b6305b4e73960e51b5f5260045ffd5b6342f4ff8d60e11b5f5260045ffd5b630273e4dd60e41b5f5260045ffd5b63d6cd3aeb60e01b5f5260045ffd5b6397a22d9360e01b5f5260045ffd5b63ee30f64f60e01b5f5260045ffd5b5f80fd5b601f909101601f19168101906001600160401b038211908210176104d057604052565b634e487b7160e01b5f52604160045260245ffd5b51906001600160a01b03821682036104a957565b6001600160a01b0381165f9081525f516020614f8f5f395f51905f52602052604090205460ff1661058f576001600160a01b038181165f9081525f516020614f8f5f395f51905f5260205260409020805460ff1916600117905561055a610b8f565b16906001600160a01b03165f7f2f8788117e7eff1d82e926ec794901d17c78024a50270940304540a733656f0d8180a4600190565b505f90565b6001600160a01b03168015610653576040516301ffc9a760e01b8152637d84485d60e01b6004820152602081602481855afa5f9181610616575b506105f157506327224edf60e01b5f52600452637d84485d60e01b60245260445ffd5b156105f95750565b6327224edf60e01b5f52600452637d84485d60e01b60245260445ffd5b9091506020813d60201161064b575b81610632602093836104ad565b810103126104a9575180151581036104a957905f6105ce565b3d9150610625565b50565b6001600160a01b03168015610653576040516301ffc9a760e01b8152630277b84b60e11b6004820152602081602481855afa5f91816106d8575b506106b357506327224edf60e01b5f52600452630277b84b60e11b60245260445ffd5b156106bb5750565b6327224edf60e01b5f52600452630277b84b60e11b60245260445ffd5b9091506020813d60201161070d575b816106f4602093836104ad565b810103126104a9575180151581036104a957905f610690565b3d91506106e7565b6001600160a01b03168015610653576040516301ffc9a760e01b815263c08590db60e01b6004820152602081602481855afa5f9181610797575b5061077257506327224edf60e01b5f5260045263c08590db60e01b60245260445ffd5b1561077a5750565b6327224edf60e01b5f5260045263c08590db60e01b60245260445ffd5b9091506020813d6020116107cc575b816107b3602093836104ad565b810103126104a9575180151581036104a957905f61074f565b3d91506107a6565b6001600160a01b03168015610653576040516301ffc9a760e01b815263161eee7760e31b6004820152602081602481855afa5f9181610856575b5061083157506327224edf60e01b5f5260045263161eee7760e31b60245260445ffd5b156108395750565b6327224edf60e01b5f5260045263161eee7760e31b60245260445ffd5b9091506020813d60201161088b575b81610872602093836104ad565b810103126104a9575180151581036104a957905f61080e565b3d9150610865565b6001600160a01b03168015610653576040516301ffc9a760e01b8152631526bf3960e11b6004820152602081602481855afa5f9181610915575b506108f057506327224edf60e01b5f52600452631526bf3960e11b60245260445ffd5b156108f85750565b6327224edf60e01b5f52600452631526bf3960e11b60245260445ffd5b9091506020813d60201161094a575b81610931602093836104ad565b810103126104a9575180151581036104a957905f6108cd565b3d9150610924565b6001600160a01b03168015610653576040516301ffc9a760e01b815263034e9be160e01b6004820152602081602481855afa5f91816109d4575b506109af57506327224edf60e01b5f5260045263034e9be160e01b60245260445ffd5b156109b75750565b6327224edf60e01b5f5260045263034e9be160e01b60245260445ffd5b9091506020813d602011610a09575b816109f0602093836104ad565b810103126104a9575180151581036104a957905f61098c565b3d91506109e3565b6001600160a01b03168015610653576040516301ffc9a760e01b8152631983557360e21b6004820152602081602481855afa5f9181610a93575b50610a6e57506327224edf60e01b5f52600452631983557360e21b60245260445ffd5b15610a765750565b6327224edf60e01b5f52600452631983557360e21b60245260445ffd5b9091506020813d602011610ac8575b81610aaf602093836104ad565b810103126104a9575180151581036104a957905f610a4b565b3d9150610aa2565b6001600160a01b03168015610653576040516301ffc9a760e01b815263604b4d3760e11b6004820152602081602481855afa5f9181610b52575b50610b2d57506327224edf60e01b5f5260045263604b4d3760e11b60245260445ffd5b15610b355750565b6327224edf60e01b5f5260045263604b4d3760e11b60245260445ffd5b9091506020813d602011610b87575b81610b6e602093836104ad565b810103126104a9575180151581036104a957905f610b0a565b3d9150610b61565b6080516001600160a01b0316331480610bd3575b15610bcf576013193601368111610bbb573560601c90565b634e487b7160e01b5f52601160045260245ffd5b3390565b506014361015610ba356fe6080806040526004361015610012575f80fd5b5f905f3560e01c90816301ffc9a7146118b557508063139aca991461188357806316e22778146117f05780631cece55f146117be578063248a9ca31461178c5780632f2ff15d1461174f57806336568abe146116fb57806339b14cdf146116d35780633cdbceda146116ab57806344eecc17146116835780634543741c146115f0578063457779a21461154a578063572b6c05146114f6578063588aa306146114ce57806363f3d3201461143b5780636d7203cb146114135780636dbe06f5146113eb57806372b3f57e146113c357806378e722221461139b5780637d6b252e146113735780637da0a8771461132f5780638214faf81461129c578063917fc6291461127057806391d148541461122857806398468e51146112005780639f3b39b11461116d578063a10cddc0146110da578063a18dd9ea146110b2578063a217fddf14611098578063c2deb16b14611005578063c8b5d91114610fdd578063d23f197814610f4a578063d547741f14610f06578063d62def8f14610ede578063d907c45614610eb6578063e277d07d14610ad0578063e32d4b6714610aa75763fb969b0a146101c0575f80fd5b346109515780600319360112610951576101d8612202565b6101e0611a69565b60025460ff8116610a985760081c6001600160a01b031615610a89576004546001600160a01b031615610a7a576006546001600160a01b031615610a6b576008546001600160a01b031615610a5c57600a546001600160a01b031615610a4d57600c546001600160a01b031615610a3e5761025961225c565b906060604051610269828261194e565b6002815260208101601f19830136823761028282611988565b6001600160a01b038616905230610298836119a9565b526040519161051d8084019084821067ffffffffffffffff8311176109e957849392918691612795863960408101923082526040602083015251809352019190865b818110610a1c57505050039083f0908115610954576040516104628082019082821067ffffffffffffffff831117610a085786839261033192612cb285393081526001600160a01b03909116602082015260400190565b039084f080156109fd5760018060a01b03166040516104698082019082821067ffffffffffffffff8311176109e9578783926103859261311485393081526001600160a01b03909116602082015260400190565b039085f0801561097d5760018060a01b031660405161052a8082019082821067ffffffffffffffff8311176109d5578883926103d99261357d85393081526001600160a01b03909116602082015260400190565b039086f080156109ca5760018060a01b03169360405161049b8082019082821067ffffffffffffffff8311176109b6578785878c869561044895613aa788393081526001600160a01b039182166020820152918116604083015291821660608201529116608082015260a00190565b039087f080156109ab5760018060a01b0316916040516104628082019082821067ffffffffffffffff83111761099757899a839261049e92613f4285393081526001600160a01b03909116602082015260400190565b039088f091821561098c57600380546001600160a01b03199081166001600160a01b03938416179091556007805482168717905560098054821693909317909255600b805483168817905560058054831685179055600d80549092169216919091179055813b1561098857849160248392604051948593849263690a49f960e01b845260048401525af190811561097d578491610964575b5050610540612222565b9060405161054f60408261194e565b60038152626b796360e81b602082015261056883611988565b5261057282611988565b5060405161058160408261194e565b6003815262185b5b60ea1b602082015261059a836119a9565b526105a4826119a9565b506040516105b360408261194e565b600a81526918dbdb1b185d195c985b60b21b60208201526105d3836119b9565b526105dd826119b9565b506040516105ec60408261194e565b600481526334b9b4b760e11b6020820152610606836119c9565b52610610826119c9565b5060405161061f60408261194e565b601381527230b9b9b2ba21b630b9b9b4b334b1b0ba34b7b760691b6020820152610648836119d9565b52610652826119d9565b5060405161066160408261194e565b600981526862617365507269636560b81b6020820152610680836119e9565b5261068a826119e9565b50610693612222565b906040516106a260408261194e565b600c81526b737472696e6720636c61696d60a01b60208201526106c483611988565b526106ce82611988565b506040516106dd60408261194e565b600c81526b737472696e6720636c61696d60a01b60208201526106ff836119a9565b52610709826119a9565b50604051610717828261194e565b602781527f75696e7432353620616d6f756e742c2075696e7432353620657870697279546960208201526606d657374616d760cc1b604082015261075a836119b9565b52610764826119b9565b5060405161077360408261194e565b600b81526a39ba3934b7339034b9b4b760a91b6020820152610794836119c9565b5261079e826119c9565b506040516107ad60408261194e565b601d81527f737472696e6720636c6173732c20737472696e672063617465676f727900000060208201526107e0836119d9565b526107ea826119d9565b506107f8604051918261194e565b603381527f75696e7432353620616d6f756e742c20737472696e672063757272656e6379436020820152726f64652c2075696e743820646563696d616c7360681b6040820152610847826119e9565b52610851816119e9565b50823b1561095f5761089a9261088885809460405196879586948593630b0501d360e31b85526040600486015260448501906119f9565b838103600319016024850152906119f9565b03925af180156109545761093c575b50600160ff1960025416176002556108bf61225c565b600354600554600754600954600b54600d54601154604080516001600160a01b0396871681529486166020860152928516928401929092528316606083015282166080820152918116939281169216907f7a0ba7a03e47f134ef41839f5428a76ccddaa010aa247abc3e1adf2910da5fce9060a090a46001805580f35b816109469161194e565b61095157805f6108a9565b80fd5b6040513d84823e3d90fd5b505050fd5b8161096e9161194e565b61097957825f610536565b5050fd5b6040513d86823e3d90fd5b8480fd5b6040513d89823e3d90fd5b634e487b7160e01b8a52604160045260248afd5b6040513d88823e3d90fd5b634e487b7160e01b89526041600452602489fd5b6040513d87823e3d90fd5b634e487b7160e01b88526041600452602488fd5b634e487b7160e01b87526041600452602487fd5b6040513d85823e3d90fd5b634e487b7160e01b86526041600452602486fd5b82516001600160a01b03168452859450602093840193909201916001016102da565b6305b4e73960e51b8152600490fd5b6342f4ff8d60e11b8152600490fd5b630273e4dd60e41b8152600490fd5b63d6cd3aeb60e01b8152600490fd5b6397a22d9360e01b8152600490fd5b63ee30f64f60e01b8152600490fd5b633300a86160e21b8252600482fd5b5034610951578060031936011261095157600c546040516001600160a01b039091168152602090f35b5034610e20576060366003190112610e205760043567ffffffffffffffff8111610e205736602382011215610e2057806004013567ffffffffffffffff8111610e205760248201916024823692010111610e2057610b2c611938565b6044356001600160a01b038116939190849003610e2057610b4b612202565b610b53611a69565b60ff6002541615610ea7576001600160a01b038116908115610e9857610b789061203d565b8315610e8957604051634ca843ef60e11b815260048101859052602081602481855afa908115610e15575f91610e5a575b5015610e4b57604051602081019084848337610bd86020828781015f838201520301601f19810183528261194e565b5190205f818152601260205260409020549094906001600160a01b0316610e38575f85815260126020526040902080546001600160a01b03191683179055610c1e61225c565b60018060a01b0360115416604051926104cb918285019185831067ffffffffffffffff841117610e245760a09486946122ca8639308452600180871b03166020840152896040840152606083015260808201520301905ff08015610e15575f9485526013602052604090942080546001600160a01b0319166001600160a01b03958616908117909155600d54909416803b15610e20575f8091604460405180948193632f2ff15d60e01b83527f7c42e8dffc95f75177e883ddc14f7ed7caa053d3f0d4e84d6b7f0b0033223dcb60048401528a60248401525af18015610e1557610e00575b5060035485906001600160a01b0316803b15610dfc578190604460405180948193632f2ff15d60e01b83527feaeeb45c1b9029a6e392e1e7aa6f4af6bd8111f85c32809598bc9903a16227a360048401528a60248401525af180156109ab57610de7575b5060a07f4a7be928fdfa064570084c330f921ec65782af420e3591e3d8b83b39db8d2191926020968593610d9961225c565b91604051958694608086528160808701528686013783880185015288830188905260408301524260608301525f196001841b011694601f01601f19168101030190a260018055604051908152f35b610df286809261194e565b610988575f610d67565b5080fd5b610e0d9195505f9061194e565b5f935f610d03565b6040513d5f823e3d90fd5b5f80fd5b634e487b7160e01b5f52604160045260245ffd5b8463089e159d60e01b5f5260045260245ffd5b634da1d31f60e01b5f5260045ffd5b610e7c915060203d602011610e82575b610e74818361194e565b810190611970565b5f610ba9565b503d610e6a565b6320a86f3d60e11b5f5260045ffd5b63fd360a1d60e01b5f5260045ffd5b637b43badd60e01b5f5260045ffd5b34610e20575f366003190112610e20576009546040516001600160a01b039091168152602090f35b34610e20575f366003190112610e20576005546040516001600160a01b039091168152602090f35b34610e20576040366003190112610e2057610f48600435610f25611938565b90610f43610f3e825f525f602052600160405f20015490565b611ad1565b612175565b005b34610e20576020366003190112610e2057610f63611922565b610f6b611a69565b6001600160a01b038116908115610fce57610f8590611f9a565b600a80546001600160a01b031916821790556001600160a01b03610fa761225c565b167fce8fc7b69fcc1eda934571831e15bb10f95dddbb09559b28ad712d618f6ca0a95f80a3005b6342f4ff8d60e11b5f5260045ffd5b34610e20575f366003190112610e20576011546040516001600160a01b039091168152602090f35b34610e20576020366003190112610e205761101e611922565b611026611a69565b6001600160a01b0381169081156110895761104090611ef7565b600880546001600160a01b031916821790556001600160a01b0361106261225c565b167fd48b61a9f91ca2b642303e47ebca68d50d9187468daa2268cdd4ec792ade18045f80a3005b630273e4dd60e41b5f5260045ffd5b34610e20575f366003190112610e205760206040515f8152f35b34610e20575f366003190112610e20576004546040516001600160a01b039091168152602090f35b34610e20576020366003190112610e20576110f3611922565b6110fb611a69565b6001600160a01b03811690811561115e5761111590611b22565b601080546001600160a01b031916821790556001600160a01b0361113761225c565b167f96cb65f899c3cf9ec267a022e255746ae585ae6e1bd3fb01601032dbcc58e3835f80a3005b63e26a8ec760e01b5f5260045ffd5b34610e20576020366003190112610e2057611186611922565b61118e611a69565b6001600160a01b0381169081156111f1576111a890611e54565b600c80546001600160a01b031916821790556001600160a01b036111ca61225c565b167f4bcec9d20bb800258ed241271d77077db5d50a6f76f12140c122c883deef79955f80a3005b6305b4e73960e51b5f5260045ffd5b34610e20575f366003190112610e20576003546040516001600160a01b039091168152602090f35b34610e20576040366003190112610e2057611241611938565b6004355f525f60205260405f209060018060a01b03165f52602052602060ff60405f2054166040519015158152f35b34610e20575f366003190112610e205760025460405160089190911c6001600160a01b03168152602090f35b34610e20576020366003190112610e20576112b5611922565b6112bd611a69565b6001600160a01b038116908115611320576112d790611db1565b600e80546001600160a01b031916821790556001600160a01b036112f961225c565b167f4bd715e9ad4344031fe5194dd335709e8af5fc028d2d990a192615beb3ef11fa5f80a3005b63099d3e0360e21b5f5260045ffd5b34610e20575f366003190112610e20576040517f00000000000000000000000000000000000000000000000000000000000000006001600160a01b03168152602090f35b34610e20575f366003190112610e2057600b546040516001600160a01b039091168152602090f35b34610e20575f366003190112610e2057600d546040516001600160a01b039091168152602090f35b34610e20575f366003190112610e20576007546040516001600160a01b039091168152602090f35b34610e20575f366003190112610e20576006546040516001600160a01b039091168152602090f35b34610e20575f366003190112610e2057600f546040516001600160a01b039091168152602090f35b34610e20576020366003190112610e2057611454611922565b61145c611a69565b6001600160a01b0381169081156114bf5761147690611d0e565b600480546001600160a01b031916821790556001600160a01b0361149861225c565b167fe8ad049e0ad7908009ae0f7f4364595fd1a499488f22fa486d8542dcc57af4135f80a3005b6397a22d9360e01b5f5260045ffd5b34610e20575f366003190112610e2057600a546040516001600160a01b039091168152602090f35b34610e20576020366003190112610e20576020611511611922565b6040517f00000000000000000000000000000000000000000000000000000000000000006001600160a01b039081169216919091148152f35b34610e20576020366003190112610e2057611563611922565b61156b611a69565b6001600160a01b0381169081156115e15761158581611c6b565b60028054610100600160a81b03191660089290921b610100600160a81b03169190911790556001600160a01b036115ba61225c565b167f18ea1177da83ebf23520cb37420841e05033121576c404e09f73db10fea6ac785f80a3005b63ee30f64f60e01b5f5260045ffd5b34610e20576020366003190112610e2057611609611922565b611611611a69565b6001600160a01b0381169081156116745761162b90611bc8565b600680546001600160a01b031916821790556001600160a01b0361164d61225c565b167f81275737702fb4f879c5b1b3ef8d4de980fdb3a2b4462ad24fe8c7832e7d0f475f80a3005b63d6cd3aeb60e01b5f5260045ffd5b34610e20575f366003190112610e2057600e546040516001600160a01b039091168152602090f35b34610e20575f366003190112610e20576010546040516001600160a01b039091168152602090f35b34610e20575f366003190112610e20576008546040516001600160a01b039091168152602090f35b34610e20576040366003190112610e2057611714611938565b6001600160a01b0361172461225c565b166001600160a01b0382160361174057610f4890600435612175565b63334bd91960e11b5f5260045ffd5b34610e20576040366003190112610e2057610f4860043561176e611938565b90611787610f3e825f525f602052600160405f20015490565b6120e0565b34610e20576020366003190112610e205760206117b66004355f525f602052600160405f20015490565b604051908152f35b34610e20576020366003190112610e20576004355f526012602052602060018060a01b0360405f205416604051908152f35b34610e20576020366003190112610e2057611809611922565b611811611a69565b6001600160a01b0381169081156118745761182b90611b22565b600f80546001600160a01b031916821790556001600160a01b0361184d61225c565b167fefea9f2b39bb4f73b0a1080278a75714ae7d6def44739e209eebe2085b9b62b35f80a3005b632384fcc160e11b5f5260045ffd5b34610e20576020366003190112610e20576004355f526013602052602060018060a01b0360405f205416604051908152f35b34610e20576020366003190112610e20576004359063ffffffff60e01b8216809203610e2057602091633d1b15b560e21b81149081156118f7575b5015158152f35b637965db0b60e01b811491508115611911575b50836118f0565b6301ffc9a760e01b1490508361190a565b600435906001600160a01b0382168203610e2057565b602435906001600160a01b0382168203610e2057565b90601f8019910116810190811067ffffffffffffffff821117610e2457604052565b90816020910312610e2057518015158103610e205790565b8051156119955760200190565b634e487b7160e01b5f52603260045260245ffd5b8051600110156119955760400190565b8051600210156119955760600190565b8051600310156119955760800190565b8051600410156119955760a00190565b8051600510156119955760c00190565b9080602083519182815201916020808360051b8301019401925f915b838310611a2457505050505090565b909192939460208080600193601f19868203018752818a518051918291828552018484015e5f828201840152601f01601f191601019701959491909101920190611a15565b611a7161225c565b6001600160a01b0381165f9081527fad3228b676f7d3cd4284a5443f17f1962b36e491b30a40b2405849e597ba5fb5602052604090205460ff1615611ab35750565b63e2517d3f60e01b5f5260018060a01b03166004525f60245260445ffd5b611ad961225c565b5f828152602081815260408083206001600160a01b038516845290915290205460ff1615611b05575050565b63e2517d3f60e01b5f5260018060a01b031660045260245260445ffd5b6001600160a01b03168015611bc5576040516301ffc9a760e01b815263604b4d3760e11b6004820152602081602481855afa5f9181611ba4575b50611b7f57506327224edf60e01b5f5260045263604b4d3760e11b60245260445ffd5b15611b875750565b6327224edf60e01b5f5260045263604b4d3760e11b60245260445ffd5b611bbe91925060203d602011610e8257610e74818361194e565b905f611b5c565b50565b6001600160a01b03168015611bc5576040516301ffc9a760e01b815263c08590db60e01b6004820152602081602481855afa5f9181611c4a575b50611c2557506327224edf60e01b5f5260045263c08590db60e01b60245260445ffd5b15611c2d5750565b6327224edf60e01b5f5260045263c08590db60e01b60245260445ffd5b611c6491925060203d602011610e8257610e74818361194e565b905f611c02565b6001600160a01b03168015611bc5576040516301ffc9a760e01b8152637d84485d60e01b6004820152602081602481855afa5f9181611ced575b50611cc857506327224edf60e01b5f52600452637d84485d60e01b60245260445ffd5b15611cd05750565b6327224edf60e01b5f52600452637d84485d60e01b60245260445ffd5b611d0791925060203d602011610e8257610e74818361194e565b905f611ca5565b6001600160a01b03168015611bc5576040516301ffc9a760e01b8152630277b84b60e11b6004820152602081602481855afa5f9181611d90575b50611d6b57506327224edf60e01b5f52600452630277b84b60e11b60245260445ffd5b15611d735750565b6327224edf60e01b5f52600452630277b84b60e11b60245260445ffd5b611daa91925060203d602011610e8257610e74818361194e565b905f611d48565b6001600160a01b03168015611bc5576040516301ffc9a760e01b8152631983557360e21b6004820152602081602481855afa5f9181611e33575b50611e0e57506327224edf60e01b5f52600452631983557360e21b60245260445ffd5b15611e165750565b6327224edf60e01b5f52600452631983557360e21b60245260445ffd5b611e4d91925060203d602011610e8257610e74818361194e565b905f611deb565b6001600160a01b03168015611bc5576040516301ffc9a760e01b815263034e9be160e01b6004820152602081602481855afa5f9181611ed6575b50611eb157506327224edf60e01b5f5260045263034e9be160e01b60245260445ffd5b15611eb95750565b6327224edf60e01b5f5260045263034e9be160e01b60245260445ffd5b611ef091925060203d602011610e8257610e74818361194e565b905f611e8e565b6001600160a01b03168015611bc5576040516301ffc9a760e01b815263161eee7760e31b6004820152602081602481855afa5f9181611f79575b50611f5457506327224edf60e01b5f5260045263161eee7760e31b60245260445ffd5b15611f5c5750565b6327224edf60e01b5f5260045263161eee7760e31b60245260445ffd5b611f9391925060203d602011610e8257610e74818361194e565b905f611f31565b6001600160a01b03168015611bc5576040516301ffc9a760e01b8152631526bf3960e11b6004820152602081602481855afa5f918161201c575b50611ff757506327224edf60e01b5f52600452631526bf3960e11b60245260445ffd5b15611fff5750565b6327224edf60e01b5f52600452631526bf3960e11b60245260445ffd5b61203691925060203d602011610e8257610e74818361194e565b905f611fd4565b6001600160a01b03168015611bc5576040516301ffc9a760e01b8152634ea2ccdd60e01b6004820152602081602481855afa5f91816120bf575b5061209a57506327224edf60e01b5f52600452634ea2ccdd60e01b60245260445ffd5b156120a25750565b6327224edf60e01b5f52600452634ea2ccdd60e01b60245260445ffd5b6120d991925060203d602011610e8257610e74818361194e565b905f612077565b5f818152602081815260408083206001600160a01b038616845290915290205460ff1661216f575f818152602081815260408083206001600160a01b0386811685529252909120805460ff1916600117905561213a61225c565b16916001600160a01b0316907f2f8788117e7eff1d82e926ec794901d17c78024a50270940304540a733656f0d5f80a4600190565b50505f90565b5f818152602081815260408083206001600160a01b038616845290915290205460ff161561216f575f818152602081815260408083206001600160a01b0386811685529252909120805460ff191690556121cd61225c565b16916001600160a01b0316907ff6391f5c32d9c69d2a47ea670b442974b53935d1edc7fd64eb21e047a839171b5f80a4600190565b600260015414612213576002600155565b633ee5aeb560e01b5f5260045ffd5b60405160e09190612233838261194e565b6006815291601f1901825f5b82811061224b57505050565b80606060208093850101520161223f565b337f00000000000000000000000000000000000000000000000000000000000000006001600160a01b031614806122be575b156122ba5760131936013681116122a6573560601c90565b634e487b7160e01b5f52601160045260245ffd5b3390565b50601436101561228e56fe608060405260a06104cb803803809161001782610273565b6080391261025b576100276102c1565b61003160a06102d7565b60c0519061003f60e06102d7565b61004a6101006102d7565b6001600160a01b038516801580156101f3575b6101e4575f5160206104ab5f395f51905f5280546001600160a01b0319166001600160a01b039092169190911790556100b4847f17947bca0d2c81fdff72d848cf07e6794554f6987d19e262fbc8ebfe6c58aef455565b5f5160206104ab5f395f51905f52546100e3906100d7906001600160a01b031681565b6001600160a01b031690565b604051631cece55f60e01b8152600481018690529490602090869060249082905afa9485156101df575f956101ae575b506001600160a01b0385161561019c57604051637c643b2f60e11b602082019081526001600160a01b03888116602484015285811660448401528681166064840152841660848084019190915282525f918291889161017360a48261029e565b51915af461017f610325565b90156101945760405161014790816103648239f35b602081519101fd5b630cc8ce1560e11b5f5260045260245ffd5b6101d191955060203d6020116101d8575b6101c9818361029e565b81019061030e565b935f610113565b503d6101bf565b610303565b633f997a3760e01b5f5260045ffd5b506040516301ffc9a760e01b8152633d1b15b560e21b6004820152602081602481855afa9081156101df575f9161022c575b501561005d565b61024e915060203d602011610254575b610246818361029e565b8101906102eb565b5f610225565b503d61023c565b5f80fd5b634e487b7160e01b5f52604160045260245ffd5b6080601f91909101601f19168101906001600160401b0382119082101761029957604052565b61025f565b601f909101601f19168101906001600160401b0382119082101761029957604052565b608051906001600160a01b038216820361025b57565b51906001600160a01b038216820361025b57565b9081602091031261025b5751801515810361025b5790565b6040513d5f823e3d90fd5b9081602091031261025b57610322906102d7565b90565b3d1561035e573d906001600160401b0382116102995760405191610353601f8201601f19166020018461029e565b82523d5f602084013e565b60609056fe608060405236156100b1576020608060248160018060a01b037fe8884080cc51c5c292bf466c34183fc7b6d97a0de789d28a4fa18c91a467e8f354167f17947bca0d2c81fdff72d848cf07e6794554f6987d19e262fbc8ebfe6c58aef454631cece55f60e01b83526084525afa80156100a6575f901561011d575060203d60201161009f575b8061009261009a926100c0565b6080016100f7565b61011d565b503d610085565b6040513d5f823e3d90fd5b635d82995b60e01b5f5260045ffd5b601f80199101166080016080811067ffffffffffffffff8211176100e357604052565b634e487b7160e01b5f52604160045260245ffd5b602090607f190112610119576080516001600160a01b03811681036101195790565b5f80fd5b5f8091368280378136915af43d5f803e15610136573d5ff35b3d5ffdfea164736f6c634300081c000ae8884080cc51c5c292bf466c34183fc7b6d97a0de789d28a4fa18c91a467e8f36080604052346100c95761051d803803809161001a826100e1565b60803960408160800191126100c95761003161012a565b60a05191906001600160401b0383116100c95781609f840112156100c9576080830151916001600160401b0383116100cd578260051b93604051936100796020870186610107565b845260a060208501958201019182116100c95760a001935b8185106100b1576100a28484610196565b60405161013b90816103e28239f35b602080916100be87610140565b815201940193610091565b5f80fd5b634e487b7160e01b5f52604160045260245ffd5b6080601f91909101601f19168101906001600160401b038211908210176100cd57604052565b601f909101601f19168101906001600160401b038211908210176100cd57604052565b608051906001600160a01b03821682036100c957565b51906001600160a01b03821682036100c957565b60206040818301928281528451809452019201905f5b8181106101775750505090565b82516001600160a01b031684526020938401939092019160010161016a565b6001600160a01b0381168015908115610243575b50610234577f4ec051ecf420fd16e0db567197da76ec7f1f5f47763970d604b97e75cb0064d380546001600160a01b0319166001600160a01b039290921691821790556102329161021f9161022d90610202906102d8565b9160405193849163a224cee760e01b602084015260248301610154565b03601f198101845283610107565b610365565b565b633f997a3760e01b5f5260045ffd5b6040516301ffc9a760e01b8152633d1b15b560e21b60048201529150602090829060249082905afa9081156102b0575f91610281575b50155f6101aa565b6102a3915060203d6020116102a9575b61029b8183610107565b8101906102b5565b5f610279565b503d610291565b6102cd565b908160209103126100c9575180151581036100c95790565b6040513d5f823e3d90fd5b60405163917fc62960e01b815290602090829060049082906001600160a01b03165afa9081156102b0575f9161032b575b506001600160a01b0381161561031c5790565b63ee30f64f60e01b5f5260045ffd5b90506020813d60201161035d575b8161034660209383610107565b810103126100c95761035790610140565b5f610309565b3d9150610339565b6001600160a01b038116156103d257815f929160208493519201905af43d156103ca573d906001600160401b0382116100cd57604051916103b0601f8201601f191660200184610107565b82523d5f602084013e5b156103c25750565b602081519101fd5b6060906103ba565b63ee0a129760e01b5f5260045ffdfe608060405236156100dc577f4ec051ecf420fd16e0db567197da76ec7f1f5f47763970d604b97e75cb0064d35463917fc62960e01b608090815260209160049082906001600160a01b03165afa80156100d1575f90610076575b6001600160a01b0381166100eb5763ee30f64f60e01b5f5260045ffd5b5060203d6020116100ca575b601f19601f820116608001906080821067ffffffffffffffff8311176100b6576100b191604052608001610108565b610059565b634e487b7160e01b5f52604160045260245ffd5b503d610082565b6040513d5f823e3d90fd5b635d82995b60e01b5f5260045ffd5b5f8091368280378136915af43d5f803e15610104573d5ff35b3d5ffd5b602090607f19011261012a576080516001600160a01b038116810361012a5790565b5f80fdfea164736f6c634300081c000a60806040523461016a576040610462803803809161001c82610182565b6080391261016a5761002c6101d0565b61003660a06101e6565b6001600160a01b03821680159081156100f8575b506100e9577f4ec051ecf420fd16e0db567197da76ec7f1f5f47763970d604b97e75cb0064d380546001600160a01b0319166001600160a01b0384169081179091556100da92906100d59061009e9061021d565b60405163485cc95560e01b60208201526001600160a01b0393841660248201529390921660448085019190915283526064836101ad565b6102aa565b60405161013b90816103278239f35b633f997a3760e01b5f5260045ffd5b6040516301ffc9a760e01b8152633d1b15b560e21b60048201529150602090829060249082905afa908115610165575f91610136575b50155f61004a565b610158915060203d60201161015e575b61015081836101ad565b8101906101fa565b5f61012e565b503d610146565b610212565b5f80fd5b634e487b7160e01b5f52604160045260245ffd5b6080601f91909101601f19168101906001600160401b038211908210176101a857604052565b61016e565b601f909101601f19168101906001600160401b038211908210176101a857604052565b608051906001600160a01b038216820361016a57565b51906001600160a01b038216820361016a57565b9081602091031261016a5751801515810361016a5790565b6040513d5f823e3d90fd5b604051636dbe06f560e01b815290602090829060049082906001600160a01b03165afa908115610165575f91610270575b506001600160a01b038116156102615790565b63d6cd3aeb60e01b5f5260045ffd5b90506020813d6020116102a2575b8161028b602093836101ad565b8101031261016a5761029c906101e6565b5f61024e565b3d915061027e565b6001600160a01b0381161561031757815f929160208493519201905af43d1561030f573d906001600160401b0382116101a857604051916102f5601f8201601f1916602001846101ad565b82523d5f602084013e5b156103075750565b602081519101fd5b6060906102ff565b63ee0a129760e01b5f5260045ffdfe608060405236156100dc577f4ec051ecf420fd16e0db567197da76ec7f1f5f47763970d604b97e75cb0064d354636dbe06f560e01b608090815260209160049082906001600160a01b03165afa80156100d1575f90610076575b6001600160a01b0381166100eb5763d6cd3aeb60e01b5f5260045ffd5b5060203d6020116100ca575b601f19601f820116608001906080821067ffffffffffffffff8311176100b6576100b191604052608001610108565b610059565b634e487b7160e01b5f52604160045260245ffd5b503d610082565b6040513d5f823e3d90fd5b635d82995b60e01b5f5260045ffd5b5f8091368280378136915af43d5f803e15610104573d5ff35b3d5ffd5b602090607f19011261012a576080516001600160a01b038116810361012a5790565b5f80fdfea164736f6c634300081c000a608060405234610171576040610469803803809161001c82610189565b608039126101715761002c6101d7565b61003660a06101ed565b906001600160a01b03811680159081156100ff575b506100f0577f4ec051ecf420fd16e0db567197da76ec7f1f5f47763970d604b97e75cb0064d380546001600160a01b0319166001600160a01b039290921691821790556100e1916100ce916100dc906100a390610224565b60405163189acdbd60e31b60208201526001600160a01b039093166024840152919283906044820190565b03601f1981018452836101b4565b6102b1565b60405161013b908161032e8239f35b633f997a3760e01b5f5260045ffd5b6040516301ffc9a760e01b8152633d1b15b560e21b60048201529150602090829060249082905afa90811561016c575f9161013d575b50155f61004b565b61015f915060203d602011610165575b61015781836101b4565b810190610201565b5f610135565b503d61014d565b610219565b5f80fd5b634e487b7160e01b5f52604160045260245ffd5b6080601f91909101601f19168101906001600160401b038211908210176101af57604052565b610175565b601f909101601f19168101906001600160401b038211908210176101af57604052565b608051906001600160a01b038216820361017157565b51906001600160a01b038216820361017157565b90816020910312610171575180151581036101715790565b6040513d5f823e3d90fd5b6040516339b14cdf60e01b815290602090829060049082906001600160a01b03165afa90811561016c575f91610277575b506001600160a01b038116156102685790565b630273e4dd60e41b5f5260045ffd5b90506020813d6020116102a9575b81610292602093836101b4565b81010312610171576102a3906101ed565b5f610255565b3d9150610285565b6001600160a01b0381161561031e57815f929160208493519201905af43d15610316573d906001600160401b0382116101af57604051916102fc601f8201601f1916602001846101b4565b82523d5f602084013e5b1561030e5750565b602081519101fd5b606090610306565b63ee0a129760e01b5f5260045ffdfe608060405236156100dc577f4ec051ecf420fd16e0db567197da76ec7f1f5f47763970d604b97e75cb0064d3546339b14cdf60e01b608090815260209160049082906001600160a01b03165afa80156100d1575f90610076575b6001600160a01b0381166100eb57630273e4dd60e41b5f5260045ffd5b5060203d6020116100ca575b601f19601f820116608001906080821067ffffffffffffffff8311176100b6576100b191604052608001610108565b610059565b634e487b7160e01b5f52604160045260245ffd5b503d610082565b6040513d5f823e3d90fd5b635d82995b60e01b5f5260045ffd5b5f8091368280378136915af43d5f803e15610104573d5ff35b3d5ffd5b602090607f19011261012a576080516001600160a01b038116810361012a5790565b5f80fdfea164736f6c634300081c000a6080604052604061052a8038038091610017826101a6565b6080391261018e576100276101f4565b61003160a061020a565b906001600160a01b038116801590811561011c575b5061010d577f4ec051ecf420fd16e0db567197da76ec7f1f5f47763970d604b97e75cb0064d380546001600160a01b0319166001600160a01b0383169081179091556100fe92906100f99061009a906102e5565b916100cc6100a661021e565b946100c3836100b488610240565b6001600160a01b039091169052565b6100b486610261565b6100eb60405194859263251b648160e21b602085015260248401610271565b03601f1981018452836101d1565b610372565b60405161013b90816103ef8239f35b633f997a3760e01b5f5260045ffd5b6040516301ffc9a760e01b8152633d1b15b560e21b60048201529150602090829060249082905afa908115610189575f9161015a575b50155f610046565b61017c915060203d602011610182575b61017481836101d1565b8101906102c2565b5f610152565b503d61016a565b6102da565b5f80fd5b634e487b7160e01b5f52604160045260245ffd5b6080601f91909101601f19168101906001600160401b038211908210176101cc57604052565b610192565b601f909101601f19168101906001600160401b038211908210176101cc57604052565b608051906001600160a01b038216820361018e57565b51906001600160a01b038216820361018e57565b6040516060919061022f83826101d1565b6002815291601f1901366020840137565b80511561024d5760200190565b634e487b7160e01b5f52603260045260245ffd5b80516001101561024d5760400190565b6060602091604081019360018060a01b031681526040838201528451809452019201905f5b8181106102a35750505090565b82516001600160a01b0316845260209384019390920191600101610296565b9081602091031261018e5751801515810361018e5790565b6040513d5f823e3d90fd5b604051632c45518360e11b815290602090829060049082906001600160a01b03165afa908115610189575f91610338575b506001600160a01b038116156103295790565b6342f4ff8d60e11b5f5260045ffd5b90506020813d60201161036a575b81610353602093836101d1565b8101031261018e576103649061020a565b5f610316565b3d9150610346565b6001600160a01b038116156103df57815f929160208493519201905af43d156103d7573d906001600160401b0382116101cc57604051916103bd601f8201601f1916602001846101d1565b82523d5f602084013e5b156103cf5750565b602081519101fd5b6060906103c7565b63ee0a129760e01b5f5260045ffdfe608060405236156100dc577f4ec051ecf420fd16e0db567197da76ec7f1f5f47763970d604b97e75cb0064d354632c45518360e11b608090815260209160049082906001600160a01b03165afa80156100d1575f90610076575b6001600160a01b0381166100eb576342f4ff8d60e11b5f5260045ffd5b5060203d6020116100ca575b601f19601f820116608001906080821067ffffffffffffffff8311176100b6576100b191604052608001610108565b610059565b634e487b7160e01b5f52604160045260245ffd5b503d610082565b6040513d5f823e3d90fd5b635d82995b60e01b5f5260045ffd5b5f8091368280378136915af43d5f803e15610104573d5ff35b3d5ffd5b602090607f19011261012a576080516001600160a01b038116810361012a5790565b5f80fdfea164736f6c634300081c000a608060405260a061049b8038038091610017826101bb565b608039126101a357610027610209565b61003160a061021f565b61003b60c061021f565b9061004660e061021f565b9061005261010061021f565b906001600160a01b0385168015908115610131575b50610122577f4ec051ecf420fd16e0db567197da76ec7f1f5f47763970d604b97e75cb0064d380546001600160a01b0319166001600160a01b039690961695861790556101139461010e92610100916100bf90610256565b604051637c643b2f60e11b60208201526001600160a01b039485166024820152968416604488015294831660648701529091166084850152839060a4820190565b03601f1981018452836101e6565b6102e3565b60405161013b90816103608239f35b633f997a3760e01b5f5260045ffd5b6040516301ffc9a760e01b8152633d1b15b560e21b60048201529150602090829060249082905afa90811561019e575f9161016f575b50155f610067565b610191915060203d602011610197575b61018981836101e6565b810190610233565b5f610167565b503d61017f565b61024b565b5f80fd5b634e487b7160e01b5f52604160045260245ffd5b6080601f91909101601f19168101906001600160401b038211908210176101e157604052565b6101a7565b601f909101601f19168101906001600160401b038211908210176101e157604052565b608051906001600160a01b03821682036101a357565b51906001600160a01b03821682036101a357565b908160209103126101a3575180151581036101a35790565b6040513d5f823e3d90fd5b6040516350c6ecf560e11b815290602090829060049082906001600160a01b03165afa90811561019e575f916102a9575b506001600160a01b0381161561029a5790565b6397a22d9360e01b5f5260045ffd5b90506020813d6020116102db575b816102c4602093836101e6565b810103126101a3576102d59061021f565b5f610287565b3d91506102b7565b6001600160a01b0381161561035057815f929160208493519201905af43d15610348573d906001600160401b0382116101e1576040519161032e601f8201601f1916602001846101e6565b82523d5f602084013e5b156103405750565b602081519101fd5b606090610338565b63ee0a129760e01b5f5260045ffdfe608060405236156100dc577f4ec051ecf420fd16e0db567197da76ec7f1f5f47763970d604b97e75cb0064d3546350c6ecf560e11b608090815260209160049082906001600160a01b03165afa80156100d1575f90610076575b6001600160a01b0381166100eb576397a22d9360e01b5f5260045ffd5b5060203d6020116100ca575b601f19601f820116608001906080821067ffffffffffffffff8311176100b6576100b191604052608001610108565b610059565b634e487b7160e01b5f52604160045260245ffd5b503d610082565b6040513d5f823e3d90fd5b635d82995b60e01b5f5260045ffd5b5f8091368280378136915af43d5f803e15610104573d5ff35b3d5ffd5b602090607f19011261012a576080516001600160a01b038116810361012a5790565b5f80fdfea164736f6c634300081c000a60806040523461016a576040610462803803809161001c82610182565b6080391261016a5761002c6101d0565b61003660a06101e6565b6001600160a01b03821680159081156100f8575b506100e9577f4ec051ecf420fd16e0db567197da76ec7f1f5f47763970d604b97e75cb0064d380546001600160a01b0319166001600160a01b0384169081179091556100da92906100d59061009e9061021d565b60405163485cc95560e01b60208201526001600160a01b0393841660248201529390921660448085019190915283526064836101ad565b6102aa565b60405161013b90816103278239f35b633f997a3760e01b5f5260045ffd5b6040516301ffc9a760e01b8152633d1b15b560e21b60048201529150602090829060249082905afa908115610165575f91610136575b50155f61004a565b610158915060203d60201161015e575b61015081836101ad565b8101906101fa565b5f61012e565b503d610146565b610212565b5f80fd5b634e487b7160e01b5f52604160045260245ffd5b6080601f91909101601f19168101906001600160401b038211908210176101a857604052565b61016e565b601f909101601f19168101906001600160401b038211908210176101a857604052565b608051906001600160a01b038216820361016a57565b51906001600160a01b038216820361016a57565b9081602091031261016a5751801515810361016a5790565b6040513d5f823e3d90fd5b60405163e32d4b6760e01b815290602090829060049082906001600160a01b03165afa908115610165575f91610270575b506001600160a01b038116156102615790565b6305b4e73960e51b5f5260045ffd5b90506020813d6020116102a2575b8161028b602093836101ad565b8101031261016a5761029c906101e6565b5f61024e565b3d915061027e565b6001600160a01b0381161561031757815f929160208493519201905af43d1561030f573d906001600160401b0382116101a857604051916102f5601f8201601f1916602001846101ad565b82523d5f602084013e5b156103075750565b602081519101fd5b6060906102ff565b63ee0a129760e01b5f5260045ffdfe608060405236156100dc577f4ec051ecf420fd16e0db567197da76ec7f1f5f47763970d604b97e75cb0064d35463e32d4b6760e01b608090815260209160049082906001600160a01b03165afa80156100d1575f90610076575b6001600160a01b0381166100eb576305b4e73960e51b5f5260045ffd5b5060203d6020116100ca575b601f19601f820116608001906080821067ffffffffffffffff8311176100b6576100b191604052608001610108565b610059565b634e487b7160e01b5f52604160045260245ffd5b503d610082565b6040513d5f823e3d90fd5b635d82995b60e01b5f5260045ffd5b5f8091368280378136915af43d5f803e15610104573d5ff35b3d5ffd5b602090607f19011261012a576080516001600160a01b038116810361012a5790565b5f80fdfea164736f6c634300081c000aa164736f6c634300081c000aad3228b676f7d3cd4284a5443f17f1962b36e491b30a40b2405849e597ba5fb5a164736f6c634300081c000a",
    "linkReferences": {}
  },
  "methodIdentifiers": {
    "atkSystems(uint256)": "cf0da604",
    "createSystem()": "d171da1a",
    "defaultComplianceImplementation()": "0a94adee",
    "defaultIdentityFactoryImplementation()": "e6fea7ac",
    "defaultIdentityImplementation()": "e28a1406",
    "defaultIdentityRegistryImplementation()": "8bb25576",
    "defaultIdentityRegistryStorageImplementation()": "e84b3ceb",
    "defaultIdentityVerificationModule()": "686b1e03",
    "defaultTokenAccessManagerImplementation()": "01e08e58",
    "defaultTokenIdentityImplementation()": "cbdd9d51",
    "defaultTopicSchemeRegistryImplementation()": "023fc729",
    "defaultTrustedIssuersRegistryImplementation()": "9ca5f9c7",
    "factoryForwarder()": "0e5f342c",
    "getSystemAtIndex(uint256)": "490e805a",
    "getSystemCount()": "7df56b6c",
    "isTrustedForwarder(address)": "572b6c05",
    "trustedForwarder()": "7da0a877"
  },
  "userdoc": {
    "version": 1,
    "kind": "user",
    "methods": {
      "atkSystems(uint256)": {
        "notice": "An array storing the addresses of all `ATKSystem` instances that have been created by this factory."
      },
      "constructor": {
        "notice": "Constructs the `ATKSystemFactory` contract."
      },
      "createSystem()": {
        "notice": "Creates and deploys a new `ATKSystem` instance using the factory's stored default implementation addresses."
      },
      "defaultComplianceImplementation()": {
        "notice": "The default contract address for the compliance module's logic (implementation)."
      },
      "defaultIdentityFactoryImplementation()": {
        "notice": "The default contract address for the identity factory module's logic (implementation)."
      },
      "defaultIdentityImplementation()": {
        "notice": "The default contract address for the standard identity contract's logic (template/implementation)."
      },
      "defaultIdentityRegistryImplementation()": {
        "notice": "The default contract address for the identity registry module's logic (implementation)."
      },
      "defaultIdentityRegistryStorageImplementation()": {
        "notice": "The default contract address for the identity registry storage module's logic (implementation)."
      },
      "defaultIdentityVerificationModule()": {
        "notice": "The default contract address for the identity verification module's logic."
      },
      "defaultTokenAccessManagerImplementation()": {
        "notice": "The default contract address for the token access manager contract's logic (implementation)."
      },
      "defaultTokenIdentityImplementation()": {
        "notice": "The default contract address for the token identity contract's logic (template/implementation)."
      },
      "defaultTopicSchemeRegistryImplementation()": {
        "notice": "The default contract address for the topic scheme registry module's logic (implementation)."
      },
      "defaultTrustedIssuersRegistryImplementation()": {
        "notice": "The default contract address for the trusted issuers registry module's logic (implementation)."
      },
      "factoryForwarder()": {
        "notice": "The address of the trusted forwarder contract used by this factory for meta-transactions (ERC2771)."
      },
      "getSystemAtIndex(uint256)": {
        "notice": "Gets the blockchain address of a `ATKSystem` instance at a specific index in the list of created systems."
      },
      "getSystemCount()": {
        "notice": "Gets the total number of `ATKSystem` instances that have been created by this factory."
      }
    },
    "events": {
      "ATKSystemCreated(address,address)": {
        "notice": "Emitted when a new `ATKSystem` instance is successfully created and deployed by this factory."
      }
    },
    "errors": {
      "ComplianceImplementationNotSet()": [
        {
          "notice": "Error indicating that the compliance module implementation address has not been set."
        }
      ],
      "IdentityFactoryImplementationNotSet()": [
        {
          "notice": "Error indicating that the identity factory implementation address has not been set."
        }
      ],
      "IdentityImplementationNotSet()": [
        {
          "notice": "Error indicating that the standard identity contract implementation address has not been set."
        }
      ],
      "IdentityRegistryImplementationNotSet()": [
        {
          "notice": "Error indicating that the identity registry implementation address has not been set."
        }
      ],
      "IdentityRegistryStorageImplementationNotSet()": [
        {
          "notice": "Error indicating that the identity registry storage implementation address has not been set."
        }
      ],
      "IdentityVerificationModuleNotSet()": [
        {
          "notice": "Error indicating that the identity verification module implementation address has not been set."
        }
      ],
      "IndexOutOfBounds(uint256,uint256)": [
        {
          "notice": "Error indicating that an index provided for accessing an array or list is out of its valid range."
        }
      ],
      "TokenAccessManagerImplementationNotSet()": [
        {
          "notice": "Error indicating that the token access manager contract implementation address has not been set."
        }
      ],
      "TokenIdentityImplementationNotSet()": [
        {
          "notice": "Error indicating that the token identity contract implementation address has not been set."
        }
      ],
      "TopicSchemeRegistryImplementationNotSet()": [
        {
          "notice": "Error indicating that the topic scheme registry implementation address has not been set."
        }
      ],
      "TrustedIssuersRegistryImplementationNotSet()": [
        {
          "notice": "Error indicating that the trusted issuers registry implementation address has not been set."
        }
      ]
    },
    "notice": "This contract serves as a factory for deploying new instances of the `ATKSystem` contract."
  },
  "devdoc": {
    "version": 1,
    "kind": "dev",
    "author": "SettleMint Tokenization Services",
    "details": "It simplifies the deployment of `ATKSystem` by using a predefined set of default implementation addresses for the various modules (compliance, identity registry, etc.) that `ATKSystem` manages. This factory also supports meta-transactions through OpenZeppelin's `ERC2771Context`, allowing users to interact with it (e.g., to create a new `ATKSystem`) without paying for gas directly, provided a trusted forwarder is used. The factory keeps track of all `ATKSystem` instances it creates.",
    "methods": {
      "constructor": {
        "details": "This function is called only once when the factory contract is deployed. It initializes the immutable default implementation addresses for all core ATK modules and sets the trusted forwarder address. It performs crucial checks to ensure that none of the provided implementation addresses are the zero address, as these are essential for the proper functioning of the `ATKSystem` instances that will be created.",
        "params": {
          "complianceImplementation_": "The default address for the compliance module's logic contract.",
          "forwarder_": "The address of the trusted forwarder contract to be used for meta-transactions (ERC2771).",
          "identityFactoryImplementation_": "The default address for the identity factory module's logic contract.",
          "identityImplementation_": "The default address for the standard identity contract's logic (template).",
          "identityRegistryImplementation_": "The default address for the identity registry module's logic contract.",
          "identityRegistryStorageImplementation_": "The default address for the identity registry storage module's logic contract.",
          "identityVerificationModule_": "The default address for the identity verification module's logic contract.",
          "tokenAccessManagerImplementation_": "The default address for the token access manager contract's logic (template).",
          "tokenIdentityImplementation_": "The default address for the token identity contract's logic (template).",
          "topicSchemeRegistryImplementation_": "The default address for the topic scheme registry module's logic contract.",
          "trustedIssuersRegistryImplementation_": "The default address for the trusted issuers registry module's logic contract."
        }
      },
      "createSystem()": {
        "details": "When this function is called, a new `ATKSystem` contract is created on the blockchain. The caller of this function (which is `_msgSender()`, resolving to the original user in an ERC2771 meta-transaction context) will be set as the initial administrator (granted `DEFAULT_ADMIN_ROLE`) of the newly created `ATKSystem`. The new system's address is added to the `atkSystems` array for tracking, and a `ATKSystemCreated` event is emitted.",
        "returns": {
          "systemAddress": "The blockchain address of the newly created `ATKSystem` contract."
        }
      },
      "getSystemAtIndex(uint256)": {
        "details": "This allows retrieval of addresses for previously deployed `ATKSystem` contracts. It will revert with an `IndexOutOfBounds` error if the provided `index` is greater than or equal to the current number of created systems (i.e., if `index >= atkSystems.length`). This is a view function.",
        "params": {
          "index": "The zero-based index of the desired `ATKSystem` in the `atkSystems` array."
        },
        "returns": {
          "_0": "address The blockchain address of the `ATKSystem` contract found at the given `index`."
        }
      },
      "getSystemCount()": {
        "details": "This is a view function, meaning it only reads blockchain state and does not cost gas to call (if called externally, not in a transaction).",
        "returns": {
          "_0": "uint256 The count of `ATKSystem` instances currently stored in the `atkSystems` array."
        }
      },
      "isTrustedForwarder(address)": {
        "details": "Indicates whether any particular address is the trusted forwarder."
      },
      "trustedForwarder()": {
        "details": "Returns the address of the trusted forwarder."
      }
    },
    "events": {
      "ATKSystemCreated(address,address)": {
        "params": {
          "sender": "The address that called the `createSystem` function.",
          "systemAddress": "The blockchain address of the newly deployed `ATKSystem` contract."
        }
      }
    },
    "errors": {
      "ComplianceImplementationNotSet()": [
        {
          "details": "This error is thrown if an operation requires the compliance module, but its logic contract address is zero or has not been configured in the `SMARTSystem`."
        }
      ],
      "IdentityFactoryImplementationNotSet()": [
        {
          "details": "This error is thrown if an operation requires the identity factory, but its logic contract address is zero or has not been configured in the `SMARTSystem`."
        }
      ],
      "IdentityImplementationNotSet()": [
        {
          "details": "This error is thrown if an operation requires the standard identity implementation (the template for user identities), but its logic contract address is zero or has not been configured in the `SMARTSystem`."
        }
      ],
      "IdentityRegistryImplementationNotSet()": [
        {
          "details": "This error is thrown if an operation requires the identity registry, but its logic contract address is zero or has not been configured in the `SMARTSystem`."
        }
      ],
      "IdentityRegistryStorageImplementationNotSet()": [
        {
          "details": "This error is thrown if an operation requires the identity registry storage, but its logic contract address is zero or has not been configured in the `SMARTSystem`."
        }
      ],
      "IdentityVerificationModuleNotSet()": [
        {
          "details": "This error is thrown if an operation requires the identity verification module, but its logic contract address is zero or has not been configured in the `SMARTSystem`."
        }
      ],
      "IndexOutOfBounds(uint256,uint256)": [
        {
          "details": "For example, trying to access the 5th element in an array that only has 3 elements.",
          "params": {
            "index": "The invalid index that was attempted to be accessed.",
            "length": "The actual length or size of the array/list."
          }
        }
      ],
      "TokenAccessManagerImplementationNotSet()": [
        {
          "details": "This error is thrown if an operation requires the token access manager implementation, but its logic contract address is zero or has not been configured in the `SMARTSystem`."
        }
      ],
      "TokenIdentityImplementationNotSet()": [
        {
          "details": "This error is thrown if an operation requires the token identity implementation (the template for token-specific identities), but its logic contract address is zero or has not been configured in the `SMARTSystem`."
        }
      ],
      "TopicSchemeRegistryImplementationNotSet()": [
        {
          "details": "This error is thrown if an operation requires the topic scheme registry, but its logic contract address is zero or has not been configured in the `SMARTSystem`."
        }
      ],
      "TrustedIssuersRegistryImplementationNotSet()": [
        {
          "details": "This error is thrown if an operation requires the trusted issuers registry, but its logic contract address is zero or has not been configured in the `SMARTSystem`."
        }
      ]
    },
    "title": "ATKSystemFactory"
  },
  "id": 101
}