{
  "abi": [
    {
      "type": "function",
      "name": "TOPIC_AML",
      "inputs": [],
      "outputs": [
        {
          "name": "",
          "type": "string",
          "internalType": "string"
        }
      ],
      "stateMutability": "view"
    },
    {
      "type": "function",
      "name": "TOPIC_ASSET_CLASSIFICATION",
      "inputs": [],
      "outputs": [
        {
          "name": "",
          "type": "string",
          "internalType": "string"
        }
      ],
      "stateMutability": "view"
    },
    {
      "type": "function",
      "name": "TOPIC_COLLATERAL",
      "inputs": [],
      "outputs": [
        {
          "name": "",
          "type": "string",
          "internalType": "string"
        }
      ],
      "stateMutability": "view"
    },
    {
      "type": "function",
      "name": "TOPIC_ISIN",
      "inputs": [],
      "outputs": [
        {
          "name": "",
          "type": "string",
          "internalType": "string"
        }
      ],
      "stateMutability": "view"
    },
    {
      "type": "function",
      "name": "TOPIC_KYC",
      "inputs": [],
      "outputs": [
        {
          "name": "",
          "type": "string",
          "internalType": "string"
        }
      ],
      "stateMutability": "view"
    }
  ],
  "bytecode": {
    "object": "0x60808060405234601957610216908161001e823930815050f35b5f80fdfe60806040526004361015610011575f80fd5b5f3560e01c80633a39e8f01461016b5780636feda22b1461013d578063835cd4631461010f5780638ef293b0146100c557638fbd724714610050575f80fd5b5f3660031901126100c157604051604081019080821067ffffffffffffffff8311176100ad576100a991604052601381527230b9b9b2ba21b630b9b9b4b334b1b0ba34b7b760691b6020820152604051918291826101df565b0390f35b634e487b7160e01b5f52604160045260245ffd5b5f80fd5b5f3660031901126100c157604051604081019080821067ffffffffffffffff8311176100ad576100a991604052600481526334b9b4b760e11b6020820152604051918291826101df565b5f3660031901126100c1576100a96101256101bb565b62185b5b60ea1b6020820152604051918291826101df565b5f3660031901126100c1576100a96101536101bb565b626b796360e81b6020820152604051918291826101df565b5f3660031901126100c157604051604081019080821067ffffffffffffffff8311176100ad576100a991604052600a81526918dbdb1b185d195c985b60b21b6020820152604051918291826101df565b604051906040820182811067ffffffffffffffff8211176100ad5760405260038252565b602060409281835280519182918282860152018484015e5f828201840152601f01601f191601019056fea164736f6c634300081c000a",
    "linkReferences": {}
  },
  "methodIdentifiers": {
    "TOPIC_AML()": "835cd463",
    "TOPIC_ASSET_CLASSIFICATION()": "8fbd7247",
    "TOPIC_COLLATERAL()": "3a39e8f0",
    "TOPIC_ISIN()": "8ef293b0",
    "TOPIC_KYC()": "6feda22b"
  },
  "userdoc": {
    "version": 1,
    "kind": "user",
    "notice": "Central registry for all claim topics and their schemes used in the ATK protocol"
  },
  "devdoc": {
    "version": 1,
    "kind": "dev",
    "author": "SettleMint Tokenization Services",
    "title": "ATK  Topic Management"
  },
  "id": 105
}