{
  "abi": [
    {
      "type": "constructor",
      "inputs": [
        {
          "name": "forwarder",
          "type": "address",
          "internalType": "address"
        }
      ],
      "stateMutability": "nonpayable"
    },
    {
      "type": "function",
      "name": "DEFAULT_ADMIN_ROLE",
      "inputs": [],
      "outputs": [
        {
          "name": "",
          "type": "bytes32",
          "internalType": "bytes32"
        }
      ],
      "stateMutability": "view"
    },
    {
      "type": "function",
      "name": "allSettlementsLength",
      "inputs": [],
      "outputs": [
        {
          "name": "",
          "type": "uint256",
          "internalType": "uint256"
        }
      ],
      "stateMutability": "view"
    },
    {
      "type": "function",
      "name": "create",
      "inputs": [
        {
          "name": "flows",
          "type": "tuple[]",
          "internalType": "struct IATKXvPSettlement.Flow[]",
          "components": [
            {
              "name": "asset",
              "type": "address",
              "internalType": "address"
            },
            {
              "name": "from",
              "type": "address",
              "internalType": "address"
            },
            {
              "name": "to",
              "type": "address",
              "internalType": "address"
            },
            {
              "name": "amount",
              "type": "uint256",
              "internalType": "uint256"
            }
          ]
        },
        {
          "name": "cutoffDate",
          "type": "uint256",
          "internalType": "uint256"
        },
        {
          "name": "autoExecute",
          "type": "bool",
          "internalType": "bool"
        }
      ],
      "outputs": [
        {
          "name": "contractAddress",
          "type": "address",
          "internalType": "address"
        }
      ],
      "stateMutability": "nonpayable"
    },
    {
      "type": "function",
      "name": "getRoleAdmin",
      "inputs": [
        {
          "name": "role",
          "type": "bytes32",
          "internalType": "bytes32"
        }
      ],
      "outputs": [
        {
          "name": "",
          "type": "bytes32",
          "internalType": "bytes32"
        }
      ],
      "stateMutability": "view"
    },
    {
      "type": "function",
      "name": "grantRole",
      "inputs": [
        {
          "name": "role",
          "type": "bytes32",
          "internalType": "bytes32"
        },
        {
          "name": "account",
          "type": "address",
          "internalType": "address"
        }
      ],
      "outputs": [],
      "stateMutability": "nonpayable"
    },
    {
      "type": "function",
      "name": "hasRole",
      "inputs": [
        {
          "name": "role",
          "type": "bytes32",
          "internalType": "bytes32"
        },
        {
          "name": "account",
          "type": "address",
          "internalType": "address"
        }
      ],
      "outputs": [
        {
          "name": "",
          "type": "bool",
          "internalType": "bool"
        }
      ],
      "stateMutability": "view"
    },
    {
      "type": "function",
      "name": "initialize",
      "inputs": [
        {
          "name": "systemAddress",
          "type": "address",
          "internalType": "address"
        },
        {
          "name": "initialAdmin",
          "type": "address",
          "internalType": "address"
        }
      ],
      "outputs": [],
      "stateMutability": "nonpayable"
    },
    {
      "type": "function",
      "name": "isAddressDeployed",
      "inputs": [
        {
          "name": "settlement",
          "type": "address",
          "internalType": "address"
        }
      ],
      "outputs": [
        {
          "name": "",
          "type": "bool",
          "internalType": "bool"
        }
      ],
      "stateMutability": "view"
    },
    {
      "type": "function",
      "name": "isFactorySystemAddon",
      "inputs": [
        {
          "name": "systemAddonAddress",
          "type": "address",
          "internalType": "address"
        }
      ],
      "outputs": [
        {
          "name": "isFactorySystemAddon",
          "type": "bool",
          "internalType": "bool"
        }
      ],
      "stateMutability": "view"
    },
    {
      "type": "function",
      "name": "isTrustedForwarder",
      "inputs": [
        {
          "name": "forwarder",
          "type": "address",
          "internalType": "address"
        }
      ],
      "outputs": [
        {
          "name": "",
          "type": "bool",
          "internalType": "bool"
        }
      ],
      "stateMutability": "view"
    },
    {
      "type": "function",
      "name": "predictAddress",
      "inputs": [
        {
          "name": "flows",
          "type": "tuple[]",
          "internalType": "struct IATKXvPSettlement.Flow[]",
          "components": [
            {
              "name": "asset",
              "type": "address",
              "internalType": "address"
            },
            {
              "name": "from",
              "type": "address",
              "internalType": "address"
            },
            {
              "name": "to",
              "type": "address",
              "internalType": "address"
            },
            {
              "name": "amount",
              "type": "uint256",
              "internalType": "uint256"
            }
          ]
        },
        {
          "name": "cutoffDate",
          "type": "uint256",
          "internalType": "uint256"
        },
        {
          "name": "autoExecute",
          "type": "bool",
          "internalType": "bool"
        }
      ],
      "outputs": [
        {
          "name": "predicted",
          "type": "address",
          "internalType": "address"
        }
      ],
      "stateMutability": "view"
    },
    {
      "type": "function",
      "name": "renounceRole",
      "inputs": [
        {
          "name": "role",
          "type": "bytes32",
          "internalType": "bytes32"
        },
        {
          "name": "callerConfirmation",
          "type": "address",
          "internalType": "address"
        }
      ],
      "outputs": [],
      "stateMutability": "nonpayable"
    },
    {
      "type": "function",
      "name": "revokeRole",
      "inputs": [
        {
          "name": "role",
          "type": "bytes32",
          "internalType": "bytes32"
        },
        {
          "name": "account",
          "type": "address",
          "internalType": "address"
        }
      ],
      "outputs": [],
      "stateMutability": "nonpayable"
    },
    {
      "type": "function",
      "name": "supportsInterface",
      "inputs": [
        {
          "name": "interfaceId",
          "type": "bytes4",
          "internalType": "bytes4"
        }
      ],
      "outputs": [
        {
          "name": "",
          "type": "bool",
          "internalType": "bool"
        }
      ],
      "stateMutability": "view"
    },
    {
      "type": "function",
      "name": "trustedForwarder",
      "inputs": [],
      "outputs": [
        {
          "name": "",
          "type": "address",
          "internalType": "address"
        }
      ],
      "stateMutability": "view"
    },
    {
      "type": "function",
      "name": "typeId",
      "inputs": [],
      "outputs": [
        {
          "name": "",
          "type": "bytes32",
          "internalType": "bytes32"
        }
      ],
      "stateMutability": "view"
    },
    {
      "type": "function",
      "name": "updateImplementation",
      "inputs": [
        {
          "name": "_newImplementation",
          "type": "address",
          "internalType": "address"
        }
      ],
      "outputs": [],
      "stateMutability": "nonpayable"
    },
    {
      "type": "function",
      "name": "xvpSettlementImplementation",
      "inputs": [],
      "outputs": [
        {
          "name": "",
          "type": "address",
          "internalType": "address"
        }
      ],
      "stateMutability": "view"
    },
    {
      "type": "event",
      "name": "ATKXvPSettlementCreated",
      "inputs": [
        {
          "name": "settlement",
          "type": "address",
          "indexed": true,
          "internalType": "address"
        },
        {
          "name": "creator",
          "type": "address",
          "indexed": true,
          "internalType": "address"
        }
      ],
      "anonymous": false
    },
    {
      "type": "event",
      "name": "ImplementationUpdated",
      "inputs": [
        {
          "name": "oldImplementation",
          "type": "address",
          "indexed": true,
          "internalType": "address"
        },
        {
          "name": "newImplementation",
          "type": "address",
          "indexed": true,
          "internalType": "address"
        }
      ],
      "anonymous": false
    },
    {
      "type": "event",
      "name": "Initialized",
      "inputs": [
        {
          "name": "version",
          "type": "uint64",
          "indexed": false,
          "internalType": "uint64"
        }
      ],
      "anonymous": false
    },
    {
      "type": "event",
      "name": "RoleAdminChanged",
      "inputs": [
        {
          "name": "role",
          "type": "bytes32",
          "indexed": true,
          "internalType": "bytes32"
        },
        {
          "name": "previousAdminRole",
          "type": "bytes32",
          "indexed": true,
          "internalType": "bytes32"
        },
        {
          "name": "newAdminRole",
          "type": "bytes32",
          "indexed": true,
          "internalType": "bytes32"
        }
      ],
      "anonymous": false
    },
    {
      "type": "event",
      "name": "RoleGranted",
      "inputs": [
        {
          "name": "role",
          "type": "bytes32",
          "indexed": true,
          "internalType": "bytes32"
        },
        {
          "name": "account",
          "type": "address",
          "indexed": true,
          "internalType": "address"
        },
        {
          "name": "sender",
          "type": "address",
          "indexed": true,
          "internalType": "address"
        }
      ],
      "anonymous": false
    },
    {
      "type": "event",
      "name": "RoleRevoked",
      "inputs": [
        {
          "name": "role",
          "type": "bytes32",
          "indexed": true,
          "internalType": "bytes32"
        },
        {
          "name": "account",
          "type": "address",
          "indexed": true,
          "internalType": "address"
        },
        {
          "name": "sender",
          "type": "address",
          "indexed": true,
          "internalType": "address"
        }
      ],
      "anonymous": false
    },
    {
      "type": "error",
      "name": "AccessControlBadConfirmation",
      "inputs": []
    },
    {
      "type": "error",
      "name": "AccessControlUnauthorizedAccount",
      "inputs": [
        {
          "name": "account",
          "type": "address",
          "internalType": "address"
        },
        {
          "name": "neededRole",
          "type": "bytes32",
          "internalType": "bytes32"
        }
      ]
    },
    {
      "type": "error",
      "name": "AddressAlreadyDeployed",
      "inputs": [
        {
          "name": "deployedAddress",
          "type": "address",
          "internalType": "address"
        }
      ]
    },
    {
      "type": "error",
      "name": "Create2EmptyBytecode",
      "inputs": []
    },
    {
      "type": "error",
      "name": "EmptyFlows",
      "inputs": []
    },
    {
      "type": "error",
      "name": "FailedDeployment",
      "inputs": []
    },
    {
      "type": "error",
      "name": "InsufficientBalance",
      "inputs": [
        {
          "name": "balance",
          "type": "uint256",
          "internalType": "uint256"
        },
        {
          "name": "needed",
          "type": "uint256",
          "internalType": "uint256"
        }
      ]
    },
    {
      "type": "error",
      "name": "InvalidAddress",
      "inputs": []
    },
    {
      "type": "error",
      "name": "InvalidCutoffDate",
      "inputs": []
    },
    {
      "type": "error",
      "name": "InvalidImplementation",
      "inputs": []
    },
    {
      "type": "error",
      "name": "InvalidInitialization",
      "inputs": []
    },
    {
      "type": "error",
      "name": "NotInitializing",
      "inputs": []
    },
    {
      "type": "error",
      "name": "ProxyCreationFailed",
      "inputs": []
    },
    {
      "type": "error",
      "name": "SameAddress",
      "inputs": []
    },
    {
      "type": "error",
      "name": "ZeroAddressNotAllowed",
      "inputs": []
    }
  ],
  "bytecode": {
    "object": "0x60a03461008f57601f612e5538819003918201601f19168301916001600160401b038311848410176100935780849260209460405283398101031261008f57516001600160a01b038116810361008f5760805261005a6100a7565b6100626100a7565b604051612cf7908161013e82396080518181816101fd01528181610667015281816107de01526114150152f35b5f80fd5b634e487b7160e01b5f52604160045260245ffd5b5f516020612e355f395f51905f525460ff8160401c1661012e576002600160401b03196001600160401b038216016100dc5750565b6001600160401b0319166001600160401b039081175f516020612e355f395f51905f52556040519081527fc7f505b2f371ae2175ee4913f4499e1f2633a7b5936321eed1cdaeb6115181d290602090a1565b63f92ee8a960e01b5f5260045ffdfe6080806040526004361015610012575f80fd5b5f905f3560e01c90816301ffc9a714610bea57508063025b22bc14610a69578063229fff6014610a2c578063248a9ca3146109ed5780632f2ff15d146109a3578063353f9f0f1461098657806336568abe14610930578063485cc955146106c85780634e7f6dea1461069b578063572b6c051461064757806361cdf47a1461061f5780636758889e146102c75780636a8b903d1461022c5780637da0a877146101e75780638f940f63146101ac57806391d1485414610156578063a217fddf1461013a5763d547741f146100e4575f80fd5b3461013757604036600319011261013757610133600435610103610c6d565b9061012e610129825f525f516020612cab5f395f51905f52602052600160405f20015490565b610fae565b6112eb565b5080f35b80fd5b5034610137578060031936011261013757602090604051908152f35b5034610137576040366003190112610137576040610172610c6d565b9160043581525f516020612cab5f395f51905f52602052209060018060a01b03165f52602052602060ff60405f2054166040519015158152f35b503461013757806003193601126101375760206040517f3337e28e53c542b14ebf40e6209e7a8c594728c6454de755f89a199568852b1e8152f35b50346101375780600319360112610137576040517f00000000000000000000000000000000000000000000000000000000000000006001600160a01b03168152602090f35b50346101375760206102b561026961028661029461024936610cb9565b939091610277610257611412565b604051978891888786308f8701610eac565b03601f198101885287610c97565b604051948593308a8601610ef0565b03601f198101835282610c97565b6040516105f96102a686820183610c97565b808252612692868301396113d4565b6040516001600160a01b039091168152f35b5034610514576102d636610cb9565b92916102e0610f20565b4282111561061057805115610601576103189161033661034492610326610305611412565b6040519687918a87863060208701610eac565b03601f198101875286610c97565b6040519687933060208601610ef0565b03601f198101855284610c97565b604051906105f96103586020820184610c97565b808352612692602084013961036e8185846113d4565b610376610f20565b6001600160a01b03165f8181526001602052604090205490949060ff166105ee576103a36103a9926114aa565b92611394565b8051156105df576020815191015ff53d1519811516610509576001600160a01b03169182156105d05782036105c157815f52600160205260405f20600160ff198254161790556004602060018060a01b035f5416604051928380926398468e5160e01b82525afa908115610509575f9161057f575b506001600160a01b031680151580610518575b6104c6575b5060035491680100000000000000008310156104b25761045e83600160209501600355610dce565b81546001600160a01b0360039290921b82811b199091169084901b17909155610485611412565b16817fb2016da2200bca69c20025619ea27a5e6bff1beccb9d2cbd5fa851a816363f2e6040519480a38152f35b634e487b7160e01b82526041600452602482fd5b803b15610514575f8091602460405180948193631105e3d560e31b83528860048401525af1801561050957156104365761050291505f90610c97565b5f5f610436565b6040513d5f823e3d90fd5b5f80fd5b506040516301ffc9a760e01b815263118f21f760e31b6004820152602081602481855afa908115610509575f91610550575b50610431565b610572915060203d602011610578575b61056a8183610c97565b810190610db6565b5f61054a565b503d610560565b90506020813d6020116105b9575b8161059a60209383610c97565b8101031261051457516001600160a01b0381168103610514575f61041e565b3d915061058d565b6335279f5d60e21b5f5260045ffd5b63b06ebf3d60e01b5f5260045ffd5b631328927760e21b5f5260045ffd5b8463d0dc594960e01b5f5260045260245ffd5b63786d930160e11b5f5260045ffd5b6307124c3b60e11b5f5260045ffd5b34610514575f366003190112610514576002546040516001600160a01b039091168152602090f35b34610514576020366003190112610514576020610662610c57565b6040517f00000000000000000000000000000000000000000000000000000000000000006001600160a01b039081169216919091148152f35b346105145760203660031901126105145760206106be6106b9610c57565b610dfa565b6040519015158152f35b34610514576040366003190112610514576106e1610c57565b6106e9610c6d565b5f516020612ccb5f395f51905f52549160ff8360401c16159267ffffffffffffffff811680159081610928575b600114908161091e575b159081610915575b506109065767ffffffffffffffff1981166001175f516020612ccb5f395f51905f5255836108da575b506001600160a01b03169081156108cb576001600160a01b038116156108cb5761079e9061077d61147f565b61078561147f565b61078e8161100a565b50610798816110b9565b50611183565b506bffffffffffffffffffffffff60a01b5f5416175f5560405161119a8082019082821067ffffffffffffffff8311176108b75760209183916114f883397f00000000000000000000000000000000000000000000000000000000000000006001600160a01b031681520301905ff0801561050957600280546001600160a01b0319166001600160a01b0392909216918217905560405191905f7faa3f731066a578e5f39b4215468d826cdd15373cbc0dfc9cb9bdc649718ef7da8180a361086257005b60207fc7f505b2f371ae2175ee4913f4499e1f2633a7b5936321eed1cdaeb6115181d29168ff0000000000000000195f516020612ccb5f395f51905f5254165f516020612ccb5f395f51905f525560018152a1005b634e487b7160e01b5f52604160045260245ffd5b6342bcdf7f60e11b5f5260045ffd5b68ffffffffffffffffff191668010000000000000001175f516020612ccb5f395f51905f525583610751565b63f92ee8a960e01b5f5260045ffd5b90501585610728565b303b159150610720565b859150610716565b3461051457604036600319011261051457610949610c6d565b6001600160a01b03610959611412565b166001600160a01b0382160361097757610975906004356112eb565b005b63334bd91960e11b5f5260045ffd5b34610514575f366003190112610514576020600354604051908152f35b34610514576040366003190112610514576109756004356109c2610c6d565b906109e8610129825f525f516020612cab5f395f51905f52602052600160405f20015490565b61124d565b34610514576020366003190112610514576020610a246004355f525f516020612cab5f395f51905f52602052600160405f20015490565b604051908152f35b34610514576020366003190112610514576001600160a01b03610a4d610c57565b165f526001602052602060ff60405f2054166040519015158152f35b3461051457602036600319011261051457610a82610c57565b610a8a611412565b6001600160a01b0381165f9081527fb121b6c2cfb68d56d259fa39abd93d7a85e352365bbcbddf27041e20d031c3d3602052604090205460ff1615610ba657506001600160a01b03168015610b97576002546001600160a01b03811690828214610b88576040516301ffc9a760e01b81526308f4acd960e41b6004820152602081602481875afa908115610509575f91610b69575b5015610b5a576001600160a01b03191682176002557faa3f731066a578e5f39b4215468d826cdd15373cbc0dfc9cb9bdc649718ef7da5f80a3005b63340aafcd60e11b5f5260045ffd5b610b82915060203d6020116105785761056a8183610c97565b84610b1f565b63367558c360e01b5f5260045ffd5b63e6c4247b60e01b5f5260045ffd5b63e2517d3f60e01b5f9081526001600160a01b03919091166004527fecaefa0171c08a6ded02d98b9432940d3852ef2c7f5007661eb8de37c5a1adc5602452604490fd5b34610514576020366003190112610514576004359063ffffffff60e01b82168092036105145760209163e5a9470560e01b8114908115610c2c575b5015158152f35b637965db0b60e01b811491508115610c46575b5083610c25565b6301ffc9a760e01b14905083610c3f565b600435906001600160a01b038216820361051457565b602435906001600160a01b038216820361051457565b35906001600160a01b038216820361051457565b90601f8019910116810190811067ffffffffffffffff8211176108b757604052565b60606003198201126105145760043567ffffffffffffffff811161051457816023820112156105145780600401359067ffffffffffffffff82116108b75760405192610d0b60208460051b0185610c97565b8284526024602085019360071b8301019181831161051457602401925b828410610d475750505050906024359060443580151581036105145790565b6080848303126105145760405190608082019082821067ffffffffffffffff8311176108b757608092602092604052610d7f87610c83565b8152610d8c838801610c83565b83820152610d9c60408801610c83565b604082015260608701356060820152815201930192610d28565b90816020910312610514575180151581036105145790565b600354811015610de65760035f5260205f2001905f90565b634e487b7160e01b5f52603260045260245ffd5b600354905f5b828110610e0e575050505f90565b610e1781610dce565b905460039190911b1c6001600160a01b0390811690831614610e3b57600101610e00565b505050600190565b90602080835192838152019201905f5b818110610e605750505090565b825180516001600160a01b039081168652602082810151821681880152604080840151909216918701919091526060918201519186019190915260809094019390920191600101610e53565b9390608093969592610ed39160018060a01b0316865260a0602087015260a0860190610e43565b6040850196909652151560608401526001600160a01b0316910152565b9092608092610f1d959460018060a01b031683526020830152151560408201528160608201520190610e43565b90565b610f28611412565b6001600160a01b0381165f9081527f8f7e9a8734279607aeaac474f24949ddc99eae25c0da72edcf5ad21022be2c9e602052604090205460ff1615610f6a5750565b63e2517d3f60e01b5f9081526001600160a01b03919091166004527ffc425f2263d0df187444b70e47283d622c70181c5baebb1306a01edba1ce184c602452604490fd5b610fb6611412565b815f525f516020612cab5f395f51905f5260205260405f2060018060a01b0382165f5260205260ff60405f20541615610fed575050565b63e2517d3f60e01b5f5260018060a01b031660045260245260445ffd5b6001600160a01b0381165f9081527fb7db2dd08fcb62d0c9e08c51941cae53c267786a0b75803fb7960902fc8ef97d602052604090205460ff166110b4576001600160a01b038181165f9081527fb7db2dd08fcb62d0c9e08c51941cae53c267786a0b75803fb7960902fc8ef97d60205260409020805460ff19166001179055611092611412565b16906001600160a01b03165f5f516020612c8b5f395f51905f528180a4600190565b505f90565b6001600160a01b0381165f9081527fb121b6c2cfb68d56d259fa39abd93d7a85e352365bbcbddf27041e20d031c3d3602052604090205460ff166110b4576001600160a01b038181165f9081527fb121b6c2cfb68d56d259fa39abd93d7a85e352365bbcbddf27041e20d031c3d360205260409020805460ff19166001179055611141611412565b16906001600160a01b03167fecaefa0171c08a6ded02d98b9432940d3852ef2c7f5007661eb8de37c5a1adc55f516020612c8b5f395f51905f525f80a4600190565b6001600160a01b0381165f9081527f8f7e9a8734279607aeaac474f24949ddc99eae25c0da72edcf5ad21022be2c9e602052604090205460ff166110b4576001600160a01b038181165f9081527f8f7e9a8734279607aeaac474f24949ddc99eae25c0da72edcf5ad21022be2c9e60205260409020805460ff1916600117905561120b611412565b16906001600160a01b03167ffc425f2263d0df187444b70e47283d622c70181c5baebb1306a01edba1ce184c5f516020612c8b5f395f51905f525f80a4600190565b5f8181525f516020612cab5f395f51905f52602090815260408083206001600160a01b038616845290915290205460ff166112e5575f8181525f516020612cab5f395f51905f52602090815260408083206001600160a01b0386811685529252909120805460ff191660011790556112c3611412565b16916001600160a01b0316905f516020612c8b5f395f51905f525f80a4600190565b50505f90565b5f8181525f516020612cab5f395f51905f52602090815260408083206001600160a01b038616845290915290205460ff16156112e5575f8181525f516020612cab5f395f51905f52602090815260408083206001600160a01b0386811685529252909120805460ff1916905561135f611412565b16916001600160a01b0316907ff6391f5c32d9c69d2a47ea670b442974b53935d1edc7fd64eb21e047a839171b5f80a4600190565b6113d2906020808095946040519684889551918291018487015e8401908282015f8152815193849201905e01015f815203601f198101845283610c97565b565b906113e4906103a3600b946114aa565b602081519101209060405191604083015260208201523081520160ff8153605590206001600160a01b031690565b337f00000000000000000000000000000000000000000000000000000000000000006001600160a01b03161480611474575b1561147057601319360136811161145c573560601c90565b634e487b7160e01b5f52601160045260245ffd5b3390565b506014361015611444565b60ff5f516020612ccb5f395f51905f525460401c161561149b57565b631afcd79f60e31b5f5260045ffd5b6040516114f16080826020808201953087526040808401528051918291826060860152018484015e5f838284010152601f801991011681010301601f198101835282610c97565b5190209056fe60a03461011057601f61119a38819003918201601f19168301916001600160401b038311848410176101145780849260209460405283398101031261011057516001600160a01b0381168103610110576080525f51602061117a5f395f51905f525460ff8160401c16610101576002600160401b03196001600160401b038216016100ab575b6040516110519081610129823960805181818161049f015281816105cb0152610e580152f35b6001600160401b0319166001600160401b039081175f51602061117a5f395f51905f52556040519081527fc7f505b2f371ae2175ee4913f4499e1f2633a7b5936321eed1cdaeb6115181d290602090a15f610085565b63f92ee8a960e01b5f5260045ffd5b5f80fd5b634e487b7160e01b5f52604160045260245ffdfe6080806040526004361015610012575f80fd5b5f3560e01c90816301ffc9a714610cb05750806312424e3f14610a3157806321c912bb1461062457806331a38c89146105ff578063572b6c05146105ab5780635d0341ba1461056e57806361461954146104f25780637bf3b6c5146104ce5780637da0a8771461048a57806390d02b3c146103735780639a82a09a1461034e578063a7dd8a9614610221578063a911f736146101ff578063ca00ed2b146101e3578063cf09e0d0146101c65763ea8a1af0146100cc575f80fd5b346101c2575f3660031901126101c2576100e4610e1d565b60015460ff8160081c166101b3575f5f600254905b818110610177575b5050156101685762ff00001916620100001760015560206001600160a01b03610128610e55565b16604051907f6791a00da5c4f071b344d1ab448dbf07ba707247bc73795dbe2823d93812c3c95f80a260015f5160206110055f395f51905f525560018152f35b637f03d13d60e11b5f5260045ffd5b61018081610d83565b50600101546001600160a01b0390811690610199610e55565b16146101a7576001016100f9565b50505060015f80610101565b630704910f60e31b5f5260045ffd5b5f80fd5b346101c2575f3660031901126101c2576020600454604051908152f35b346101c2575f3660031901126101c25760205f54604051908152f35b346101c2575f3660031901126101c257602060ff600154166040519015158152f35b346101c2575f3660031901126101c25760025461023d81610d41565b9061024b6040519283610d1f565b80825260208201908160025f527f405787fa12a823e0f2b7631cc41b3ba8828b3321ca811111fa75cd3aa3bb5ace5f915b8383106102fd578486604051918291602083019060208452518091526040830191905f5b8181106102ae575050500390f35b825180516001600160a01b0390811686526020828101518216818801526040808401519092169187019190915260609182015191860191909152869550608090940193909201916001016102a0565b6004602060019260405161031081610d03565b855460a086901b869003908116825286860154811684830152600287015416604082015260038601546060820152815294909201939201910161027c565b346101c2575f3660031901126101c257602060ff60015460101c166040519015158152f35b346101c2575f3660031901126101c25761038b610e1d565b5f5f600254905b81811061044e575b505015610168576001600160a01b036103b1610e55565b165f52600360205260ff60405f2054161561043f576001600160a01b036103d6610e55565b165f908152600360209081526040909120805460ff191690556001600160a01b036103ff610e55565b16604051907fb8047ca8c7d296e0b96533ee4f8a135446f5307e7ef32b0313bd8f2dc92b2c785f80a260015f5160206110055f395f51905f525560018152f35b63766bb56f60e01b5f5260045ffd5b61045781610d83565b50600101546001600160a01b0390811690610470610e55565b161461047e57600101610392565b5050506001818061039a565b346101c2575f3660031901126101c2576040517f00000000000000000000000000000000000000000000000000000000000000006001600160a01b03168152602090f35b346101c2575f3660031901126101c25760206104e8610dcf565b6040519015158152f35b346101c2575f3660031901126101c25761050a610e1d565b60015460ff8160081c166101b35760101c60ff1661055f575f54421015610550576020610535610ec2565b60015f5160206110055f395f51905f52556040519015158152f35b631375922f60e21b5f5260045ffd5b63de87c00560e01b5f5260045ffd5b346101c25760203660031901126101c2576001600160a01b0361058f610d59565b165f526003602052602060ff60405f2054166040519015158152f35b346101c25760203660031901126101c25760206105c6610d59565b6040517f00000000000000000000000000000000000000000000000000000000000000006001600160a01b039081169216919091148152f35b346101c2575f3660031901126101c257602060ff60015460081c166040519015158152f35b346101c25760603660031901126101c2576024358015158091036101c25760443567ffffffffffffffff81116101c257366023820112156101c257806004013561066d81610d41565b9161067b6040519384610d1f565b8183526024602084019260071b820101903682116101c257602401915b8183106109d6575050505f5160206110255f395f51905f52549160ff8360401c16159267ffffffffffffffff8116801590816109ce575b60011490816109c4575b1590816109bb575b506109ac5767ffffffffffffffff1981166001175f5160206110255f395f51905f525583610980575b50610713610fd9565b61071b610fd9565b60015f5160206110055f395f51905f5255610734610fd9565b6004355f5560ff80196001541691161760015542600455805115610971575f5b815181101561091357600581901b82016020015180519091906001600160a01b0316156108d1576020820180519092906001600160a01b031615610904576040810180519091906001600160a01b03161561090457606081018051156108f5575f8060018060a01b03845116604051602081019063313ce56760e01b8252600481526107e1602482610d1f565b51915afa3d156108ed573d9067ffffffffffffffff82116108bd5760405191610814601f8201601f191660200184610d1f565b82523d5f602084013e5b159081156108e0575b506108d157600254680100000000000000008110156108bd578060016108509201600255610d83565b9390936108aa57915183546001600160a01b03199081166001600160a01b03928316178555955160018581018054891692841692909217909155925160028501805490971691161790945592516003919091015501610754565b634e487b7160e01b5f525f60045260245ffd5b634e487b7160e01b5f52604160045260245ffd5b63c1ab6dc160e01b5f5260045ffd5b6020915051141588610827565b60609061081e565b631f2a200560e01b5f5260045ffd5b63d92e233d60e01b5f5260045ffd5b8261091a57005b68ff0000000000000000195f5160206110255f395f51905f5254165f5160206110255f395f51905f52557fc7f505b2f371ae2175ee4913f4499e1f2633a7b5936321eed1cdaeb6115181d2602060405160018152a1005b63786d930160e11b5f5260045ffd5b68ffffffffffffffffff191668010000000000000001175f5160206110255f395f51905f52558361070a565b63f92ee8a960e01b5f5260045ffd5b905015856106e1565b303b1591506106d9565b8591506106cf565b6080833603126101c25760206080916040516109f181610d03565b6109fa86610d6f565b8152610a07838701610d6f565b83820152610a1760408701610d6f565b604082015260608601356060820152815201920191610698565b346101c2575f3660031901126101c257610a49610e1d565b60015460ff8160081c166101b35760101c60ff1661055f575f54421015610550576002545f805b828110610c76575b5015610168576001600160a01b03610a8e610e55565b165f52600360205260ff60405f205416610c67575f5b818110610b52576001600160a01b03610abb610e55565b165f908152600360205260409020805460ff191660011790556001600160a01b03610ae4610e55565b167fdf88b71653b43acb580f3e64cb2fc0bd871e638a7a370889986fc0b6c10e5f655f80a260ff6001541680610b44575b610b36575b60015f5160206110055f395f51905f5255602060405160018152f35b610b3e610ec2565b50610b1a565b50610b4d610dcf565b610b15565b610b5b81610d83565b5060018101546001600160a01b0390811690610b75610e55565b1614610b85575b50600101610aa4565b80546001600160a01b031690610b99610e55565b604051636eb1769f60e11b81526001600160a01b03909116600482015230602482015290602082604481865afa918215610c5c575f92610c28575b5060030154808210610be7575050610b7c565b60a49350610bf3610e55565b6040516351750bc760e01b815260048101949094526001600160a01b0316602484015230604484015260648301526084820152fd5b9091506020813d8211610c54575b81610c4360209383610d1f565b810103126101c25751906003610bd4565b3d9150610c36565b6040513d5f823e3d90fd5b63992a9f6f60e01b5f5260045ffd5b610c7f81610d83565b50600101546001600160a01b0390811690610c98610e55565b1614610ca657600101610a70565b5050600182610a78565b346101c25760203660031901126101c2576004359063ffffffff60e01b82168092036101c2576020916308f4acd960e41b8114908115610cf2575b5015158152f35b6301ffc9a760e01b14905083610ceb565b6080810190811067ffffffffffffffff8211176108bd57604052565b90601f8019910116810190811067ffffffffffffffff8211176108bd57604052565b67ffffffffffffffff81116108bd5760051b60200190565b600435906001600160a01b03821682036101c257565b35906001600160a01b03821682036101c257565b600254811015610dbb5760025f81815291901b7f405787fa12a823e0f2b7631cc41b3ba8828b3321ca811111fa75cd3aa3bb5ace0191565b634e487b7160e01b5f52603260045260245ffd5b6002545f5b818110610de2575050600190565b610deb81610d83565b50600101546001600160a01b03165f9081526003602052604090205460ff1615610e1757600101610dd4565b50505f90565b60025f5160206110055f395f51905f525414610e465760025f5160206110055f395f51905f5255565b633ee5aeb560e01b5f5260045ffd5b337f00000000000000000000000000000000000000000000000000000000000000006001600160a01b03161480610eb7575b15610eb3576013193601368111610e9f573560601c90565b634e487b7160e01b5f52601160045260245ffd5b3390565b506014361015610e87565b610eca610dcf565b15610fca575f5b600254811015610f8057610ee481610d83565b508054600182015460028301546003909301546040516323b872dd60e01b60208083019182526001600160a01b03948516602484015295841660448301526064808301939093529181529190921692915f91610f41608482610d1f565b519082855af115610c5c575f513d610f775750803b155b610f655750600101610ed1565b635274afe760e01b5f5260045260245ffd5b60011415610f58565b506001805461ff0019166101001790556001600160a01b03610fa0610e55565b167f56affb24bdcddaa72ae590c2b1b8aa4101e24565bbb5bdb504852f20a3da8cdc5f80a2600190565b630ce40ec160e41b5f5260045ffd5b60ff5f5160206110255f395f51905f525460401c1615610ff557565b631afcd79f60e31b5f5260045ffdfe9b779b17422d0df92223018b32b4d1fa46e071723d6817e2486d003becc55f00f0c57e16840df040f15088dc2f81fe391c3923bec73e23a9662efc9c229c6a00a164736f6c634300081c000af0c57e16840df040f15088dc2f81fe391c3923bec73e23a9662efc9c229c6a00608060405234610122576105f9803803809161001a8261013a565b60803980608001608082126101225761003161019e565b60a05161003e60c06101c8565b60e051939092906001600160401b0385116101225780609f86011215610122576080850151956001600160401b038711610126576040519561008660208960051b018861017b565b87875260a0602088019860071b8201019283116101225760a001965b8288106100c5575050506100b69450610276565b60405161014990816104908239f35b60808089840301126101225760206080916040516100e281610160565b6100eb8b6101b4565b81526100f8838c016101b4565b8382015261010860408c016101b4565b604082015260608b015160608201528152019701966100a2565b5f80fd5b634e487b7160e01b5f52604160045260245ffd5b6080601f91909101601f19168101906001600160401b0382119082101761012657604052565b608081019081106001600160401b0382111761012657604052565b601f909101601f19168101906001600160401b0382119082101761012657604052565b608051906001600160a01b038216820361012257565b51906001600160a01b038216820361012257565b5190811515820361012257565b90816020910312610122576101e9906101c8565b90565b6040513d5f823e3d90fd5b6080906020929360608201948252151583820152606060408201528451809452019201905f5b81811061022a5750505090565b825180516001600160a01b03908116865260208281015182168188015260408084015190921691870191909152606091820151918601919091526080909401939092019160010161021d565b9092906001600160a01b0381168015610334576040516301ffc9a760e01b815263e5a9470560e01b600482015290602090829060249082905afa908115610372575f91610343575b5015610334575f5160206105d95f395f51905f5280546001600160a01b0319166001600160a01b039092169190911790556103329261032d9061031f610302610377565b936040519586936321c912bb60e01b6020860152602485016101f7565b03601f19810184528361017b565b610413565b565b635c7bfbe960e01b5f5260045ffd5b610365915060203d60201161036b575b61035d818361017b565b8101906101d5565b5f6102be565b503d610353565b6101ec565b5f5160206105d95f395f51905f52546040516330e6fa3d60e11b815290602090829060049082906001600160a01b03165afa908115610372575f916103d9575b506001600160a01b038116156103ca5790565b63489aaf0d60e11b5f5260045ffd5b90506020813d60201161040b575b816103f46020938361017b565b8101031261012257610405906101b4565b5f6103b7565b3d91506103e7565b6001600160a01b0381161561048057815f929160208493519201905af43d15610478573d906001600160401b038211610126576040519161045e601f8201601f19166020018461017b565b82523d5f602084013e5b156104705750565b602081519101fd5b606090610468565b63ee0a129760e01b5f5260045ffdfe608060405236156100a8577f1a2b3c4d5e6f7a8b9c0d1e2f3a4b5c6d7e8f9a0b1c2d3e4f5a6b7c8d9e0f1a2b5460209060809060049082906001600160a01b03166330e6fa3d60e11b82525afa80156100a3575f90610076575b6001600160a01b0381166100b75763489aaf0d60e11b5f5260045ffd5b5060203d60201161009c575b8061008f610097926100d4565b60800161010b565b610059565b503d610082565b610131565b635d82995b60e01b5f5260045ffd5b5f8091368280378136915af43d5f803e156100d0573d5ff35b3d5ffd5b601f80199101166080016080811067ffffffffffffffff8211176100f757604052565b634e487b7160e01b5f52604160045260245ffd5b602090607f19011261012d576080516001600160a01b038116810361012d5790565b5f80fd5b6040513d5f823e3d90fdfea164736f6c634300081c000a1a2b3c4d5e6f7a8b9c0d1e2f3a4b5c6d7e8f9a0b1c2d3e4f5a6b7c8d9e0f1a2b2f8788117e7eff1d82e926ec794901d17c78024a50270940304540a733656f0d02dd7bc7dec4dceedda775e58dd541e08a116c6c53815c0bd028192f7b626800f0c57e16840df040f15088dc2f81fe391c3923bec73e23a9662efc9c229c6a00a164736f6c634300081c000af0c57e16840df040f15088dc2f81fe391c3923bec73e23a9662efc9c229c6a00",
    "linkReferences": {}
  },
  "methodIdentifiers": {
    "DEFAULT_ADMIN_ROLE()": "a217fddf",
    "allSettlementsLength()": "353f9f0f",
    "create((address,address,address,uint256)[],uint256,bool)": "6758889e",
    "getRoleAdmin(bytes32)": "248a9ca3",
    "grantRole(bytes32,address)": "2f2ff15d",
    "hasRole(bytes32,address)": "91d14854",
    "initialize(address,address)": "485cc955",
    "isAddressDeployed(address)": "4e7f6dea",
    "isFactorySystemAddon(address)": "229fff60",
    "isTrustedForwarder(address)": "572b6c05",
    "predictAddress((address,address,address,uint256)[],uint256,bool)": "6a8b903d",
    "renounceRole(bytes32,address)": "36568abe",
    "revokeRole(bytes32,address)": "d547741f",
    "supportsInterface(bytes4)": "01ffc9a7",
    "trustedForwarder()": "7da0a877",
    "typeId()": "8f940f63",
    "updateImplementation(address)": "025b22bc",
    "xvpSettlementImplementation()": "61cdf47a"
  },
  "userdoc": {
    "version": 1,
    "kind": "user",
    "methods": {
      "allSettlementsLength()": {
        "notice": "Returns the total number of settlements created by this factory"
      },
      "create((address,address,address,uint256)[],uint256,bool)": {
        "notice": "Creates a new XvPSettlement contract"
      },
      "initialize(address,address)": {
        "notice": "Initializes the factory with system address and admin"
      },
      "isAddressDeployed(address)": {
        "notice": "Checks if an address was deployed by this factory"
      },
      "isFactorySystemAddon(address)": {
        "notice": "Mapping indicating whether an system addon address was deployed by this factory."
      },
      "predictAddress((address,address,address,uint256)[],uint256,bool)": {
        "notice": "Predicts the address where a XvPSettlement contract would be deployed"
      },
      "supportsInterface(bytes4)": {
        "notice": "Checks if the contract implements an interface"
      },
      "updateImplementation(address)": {
        "notice": "Updates the address of the XvPSettlement implementation contract."
      },
      "xvpSettlementImplementation()": {
        "notice": "Address of the current XvPSettlement logic contract (implementation)."
      }
    },
    "events": {
      "ATKXvPSettlementCreated(address,address)": {
        "notice": "Emitted when a new XvPSettlement contract is created"
      },
      "ImplementationUpdated(address,address)": {
        "notice": "Emitted when the implementation is updated"
      }
    },
    "errors": {
      "AddressAlreadyDeployed(address)": [
        {
          "notice": "Error thrown when a CREATE2 address is already deployed."
        }
      ],
      "ProxyCreationFailed()": [
        {
          "notice": "Error thrown when proxy creation fails."
        }
      ],
      "ZeroAddressNotAllowed()": [
        {
          "notice": "Custom errors for the XvPSettlementFactory contract"
        }
      ]
    },
    "notice": "This contract allows the creation of new XvPSettlement contracts with deterministic addresses using CREATE2."
  },
  "devdoc": {
    "version": 1,
    "kind": "dev",
    "details": "Inherits from ERC2771ContextUpgradeable for meta-transaction support and AccessControlUpgradeable for role management. Uses CREATE2 for deterministic deployment addresses and maintains a registry of deployed settlement contracts.",
    "methods": {
      "constructor": {},
      "create((address,address,address,uint256)[],uint256,bool)": {
        "details": "Uses CREATE2 for deterministic addresses and the system addon pattern for deployment.",
        "params": {
          "autoExecute": "If true, settlement executes automatically when all approvals are received",
          "cutoffDate": "Timestamp after which the settlement expires",
          "flows": "The array of token flows to include in the settlement"
        },
        "returns": {
          "contractAddress": "The address of the newly created settlement contract"
        }
      },
      "getRoleAdmin(bytes32)": {
        "details": "Returns the admin role that controls `role`. See {grantRole} and {revokeRole}. To change a role's admin, use {_setRoleAdmin}."
      },
      "grantRole(bytes32,address)": {
        "details": "Grants `role` to `account`. If `account` had not been already granted `role`, emits a {RoleGranted} event. Requirements: - the caller must have ``role``'s admin role. May emit a {RoleGranted} event."
      },
      "hasRole(bytes32,address)": {
        "details": "Returns `true` if `account` has been granted `role`."
      },
      "initialize(address,address)": {
        "details": "Can only be called once, sets up initial roles and system integration",
        "params": {
          "initialAdmin": "The address that will be granted admin role",
          "systemAddress": "The address of the ATK system contract"
        }
      },
      "isAddressDeployed(address)": {
        "details": "Returns true if the address was created by this factory, false otherwise",
        "params": {
          "settlement": "The address to check"
        },
        "returns": {
          "_0": "True if the address was created by this factory, false otherwise"
        }
      },
      "isTrustedForwarder(address)": {
        "details": "Indicates whether any particular address is the trusted forwarder."
      },
      "predictAddress((address,address,address,uint256)[],uint256,bool)": {
        "details": "Calculates the deterministic address using CREATE2 with the same parameters and salt computation as the create function. This allows users to know the contract's address before deployment.",
        "params": {
          "autoExecute": "If true, settlement executes automatically when all approvals are received",
          "cutoffDate": "Timestamp after which the settlement expires",
          "flows": "The array of token flows that will be used in deployment"
        },
        "returns": {
          "predicted": "The address where the settlement contract would be deployed"
        }
      },
      "renounceRole(bytes32,address)": {
        "details": "Revokes `role` from the calling account. Roles are often managed via {grantRole} and {revokeRole}: this function's purpose is to provide a mechanism for accounts to lose their privileges if they are compromised (such as when a trusted device is misplaced). If the calling account had been revoked `role`, emits a {RoleRevoked} event. Requirements: - the caller must be `callerConfirmation`. May emit a {RoleRevoked} event."
      },
      "revokeRole(bytes32,address)": {
        "details": "Revokes `role` from `account`. If `account` had been granted `role`, emits a {RoleRevoked} event. Requirements: - the caller must have ``role``'s admin role. May emit a {RoleRevoked} event."
      },
      "supportsInterface(bytes4)": {
        "params": {
          "interfaceId": "The interface identifier"
        },
        "returns": {
          "_0": "True if the contract implements the interface, false otherwise"
        }
      },
      "trustedForwarder()": {
        "details": "Returns the address of the trusted forwarder."
      },
      "updateImplementation(address)": {
        "details": "Only callable by the implementation manager. New proxies created after this call will use the new implementation. This does NOT automatically upgrade existing proxy instances.",
        "params": {
          "_newImplementation": "The address of the new XvPSettlement logic contract."
        }
      }
    },
    "events": {
      "ATKXvPSettlementCreated(address,address)": {
        "params": {
          "creator": "The address that created the settlement contract",
          "settlement": "The address of the newly created settlement contract"
        }
      },
      "ImplementationUpdated(address,address)": {
        "params": {
          "newImplementation": "The address of the new implementation",
          "oldImplementation": "The address of the previous implementation"
        }
      },
      "Initialized(uint64)": {
        "details": "Triggered when the contract has been initialized or reinitialized."
      },
      "RoleAdminChanged(bytes32,bytes32,bytes32)": {
        "details": "Emitted when `newAdminRole` is set as ``role``'s admin role, replacing `previousAdminRole` `DEFAULT_ADMIN_ROLE` is the starting admin for all roles, despite {RoleAdminChanged} not being emitted to signal this."
      },
      "RoleGranted(bytes32,address,address)": {
        "details": "Emitted when `account` is granted `role`. `sender` is the account that originated the contract call. This account bears the admin role (for the granted role). Expected in cases where the role was granted using the internal {AccessControl-_grantRole}."
      },
      "RoleRevoked(bytes32,address,address)": {
        "details": "Emitted when `account` is revoked `role`. `sender` is the account that originated the contract call:   - if using `revokeRole`, it is the admin role bearer   - if using `renounceRole`, it is the role bearer (i.e. `account`)"
      }
    },
    "errors": {
      "AccessControlBadConfirmation()": [
        {
          "details": "The caller of a function is not the expected one. NOTE: Don't confuse with {AccessControlUnauthorizedAccount}."
        }
      ],
      "AccessControlUnauthorizedAccount(address,bytes32)": [
        {
          "details": "The `account` is missing a role."
        }
      ],
      "Create2EmptyBytecode()": [
        {
          "details": "There's no code to deploy."
        }
      ],
      "FailedDeployment()": [
        {
          "details": "The deployment failed."
        }
      ],
      "InsufficientBalance(uint256,uint256)": [
        {
          "details": "The ETH balance of the account is not enough to perform the operation."
        }
      ],
      "InvalidInitialization()": [
        {
          "details": "The contract is already initialized."
        }
      ],
      "NotInitializing()": [
        {
          "details": "The contract is not initializing."
        }
      ],
      "ZeroAddressNotAllowed()": [
        {
          "details": "These errors provide more gas-efficient and descriptive error handling"
        }
      ]
    },
    "title": "XvPSettlementFactory - A factory contract for creating XvPSettlement contracts"
  },
  "id": 0
}