{
  "abi": [
    {
      "type": "constructor",
      "inputs": [
        {
          "name": "_trustedForwarder",
          "type": "address",
          "internalType": "address"
        }
      ],
      "stateMutability": "nonpayable"
    },
    {
      "type": "function",
      "name": "DEFAULT_ADMIN_ROLE",
      "inputs": [],
      "outputs": [
        {
          "name": "",
          "type": "bytes32",
          "internalType": "bytes32"
        }
      ],
      "stateMutability": "view"
    },
    {
      "type": "function",
      "name": "GLOBAL_LIST_MANAGER_ROLE",
      "inputs": [],
      "outputs": [
        {
          "name": "",
          "type": "bytes32",
          "internalType": "bytes32"
        }
      ],
      "stateMutability": "view"
    },
    {
      "type": "function",
      "name": "canTransfer",
      "inputs": [
        {
          "name": "_token",
          "type": "address",
          "internalType": "address"
        },
        {
          "name": "",
          "type": "address",
          "internalType": "address"
        },
        {
          "name": "_to",
          "type": "address",
          "internalType": "address"
        },
        {
          "name": "",
          "type": "uint256",
          "internalType": "uint256"
        },
        {
          "name": "_params",
          "type": "bytes",
          "internalType": "bytes"
        }
      ],
      "outputs": [],
      "stateMutability": "view"
    },
    {
      "type": "function",
      "name": "created",
      "inputs": [
        {
          "name": "_token",
          "type": "address",
          "internalType": "address"
        },
        {
          "name": "_to",
          "type": "address",
          "internalType": "address"
        },
        {
          "name": "_value",
          "type": "uint256",
          "internalType": "uint256"
        },
        {
          "name": "_params",
          "type": "bytes",
          "internalType": "bytes"
        }
      ],
      "outputs": [],
      "stateMutability": "nonpayable"
    },
    {
      "type": "function",
      "name": "destroyed",
      "inputs": [
        {
          "name": "_token",
          "type": "address",
          "internalType": "address"
        },
        {
          "name": "_from",
          "type": "address",
          "internalType": "address"
        },
        {
          "name": "_value",
          "type": "uint256",
          "internalType": "uint256"
        },
        {
          "name": "_params",
          "type": "bytes",
          "internalType": "bytes"
        }
      ],
      "outputs": [],
      "stateMutability": "nonpayable"
    },
    {
      "type": "function",
      "name": "getGlobalAllowedCountries",
      "inputs": [],
      "outputs": [
        {
          "name": "",
          "type": "uint16[]",
          "internalType": "uint16[]"
        }
      ],
      "stateMutability": "view"
    },
    {
      "type": "function",
      "name": "getRoleAdmin",
      "inputs": [
        {
          "name": "role",
          "type": "bytes32",
          "internalType": "bytes32"
        }
      ],
      "outputs": [
        {
          "name": "",
          "type": "bytes32",
          "internalType": "bytes32"
        }
      ],
      "stateMutability": "view"
    },
    {
      "type": "function",
      "name": "grantRole",
      "inputs": [
        {
          "name": "role",
          "type": "bytes32",
          "internalType": "bytes32"
        },
        {
          "name": "account",
          "type": "address",
          "internalType": "address"
        }
      ],
      "outputs": [],
      "stateMutability": "nonpayable"
    },
    {
      "type": "function",
      "name": "hasRole",
      "inputs": [
        {
          "name": "role",
          "type": "bytes32",
          "internalType": "bytes32"
        },
        {
          "name": "account",
          "type": "address",
          "internalType": "address"
        }
      ],
      "outputs": [
        {
          "name": "",
          "type": "bool",
          "internalType": "bool"
        }
      ],
      "stateMutability": "view"
    },
    {
      "type": "function",
      "name": "isGloballyAllowed",
      "inputs": [
        {
          "name": "_country",
          "type": "uint16",
          "internalType": "uint16"
        }
      ],
      "outputs": [
        {
          "name": "",
          "type": "bool",
          "internalType": "bool"
        }
      ],
      "stateMutability": "view"
    },
    {
      "type": "function",
      "name": "isTrustedForwarder",
      "inputs": [
        {
          "name": "forwarder",
          "type": "address",
          "internalType": "address"
        }
      ],
      "outputs": [
        {
          "name": "",
          "type": "bool",
          "internalType": "bool"
        }
      ],
      "stateMutability": "view"
    },
    {
      "type": "function",
      "name": "name",
      "inputs": [],
      "outputs": [
        {
          "name": "",
          "type": "string",
          "internalType": "string"
        }
      ],
      "stateMutability": "pure"
    },
    {
      "type": "function",
      "name": "renounceRole",
      "inputs": [
        {
          "name": "role",
          "type": "bytes32",
          "internalType": "bytes32"
        },
        {
          "name": "callerConfirmation",
          "type": "address",
          "internalType": "address"
        }
      ],
      "outputs": [],
      "stateMutability": "nonpayable"
    },
    {
      "type": "function",
      "name": "revokeRole",
      "inputs": [
        {
          "name": "role",
          "type": "bytes32",
          "internalType": "bytes32"
        },
        {
          "name": "account",
          "type": "address",
          "internalType": "address"
        }
      ],
      "outputs": [],
      "stateMutability": "nonpayable"
    },
    {
      "type": "function",
      "name": "setGlobalAllowedCountries",
      "inputs": [
        {
          "name": "_countries",
          "type": "uint16[]",
          "internalType": "uint16[]"
        },
        {
          "name": "_allow",
          "type": "bool",
          "internalType": "bool"
        }
      ],
      "outputs": [],
      "stateMutability": "nonpayable"
    },
    {
      "type": "function",
      "name": "supportsInterface",
      "inputs": [
        {
          "name": "interfaceId",
          "type": "bytes4",
          "internalType": "bytes4"
        }
      ],
      "outputs": [
        {
          "name": "",
          "type": "bool",
          "internalType": "bool"
        }
      ],
      "stateMutability": "view"
    },
    {
      "type": "function",
      "name": "transferred",
      "inputs": [
        {
          "name": "_token",
          "type": "address",
          "internalType": "address"
        },
        {
          "name": "_from",
          "type": "address",
          "internalType": "address"
        },
        {
          "name": "_to",
          "type": "address",
          "internalType": "address"
        },
        {
          "name": "_value",
          "type": "uint256",
          "internalType": "uint256"
        },
        {
          "name": "_params",
          "type": "bytes",
          "internalType": "bytes"
        }
      ],
      "outputs": [],
      "stateMutability": "nonpayable"
    },
    {
      "type": "function",
      "name": "trustedForwarder",
      "inputs": [],
      "outputs": [
        {
          "name": "",
          "type": "address",
          "internalType": "address"
        }
      ],
      "stateMutability": "view"
    },
    {
      "type": "function",
      "name": "validateParameters",
      "inputs": [
        {
          "name": "_params",
          "type": "bytes",
          "internalType": "bytes"
        }
      ],
      "outputs": [],
      "stateMutability": "view"
    },
    {
      "type": "event",
      "name": "GlobalAllowedCountriesUpdated",
      "inputs": [
        {
          "name": "countries",
          "type": "uint16[]",
          "indexed": false,
          "internalType": "uint16[]"
        },
        {
          "name": "allowed",
          "type": "bool",
          "indexed": true,
          "internalType": "bool"
        }
      ],
      "anonymous": false
    },
    {
      "type": "event",
      "name": "RoleAdminChanged",
      "inputs": [
        {
          "name": "role",
          "type": "bytes32",
          "indexed": true,
          "internalType": "bytes32"
        },
        {
          "name": "previousAdminRole",
          "type": "bytes32",
          "indexed": true,
          "internalType": "bytes32"
        },
        {
          "name": "newAdminRole",
          "type": "bytes32",
          "indexed": true,
          "internalType": "bytes32"
        }
      ],
      "anonymous": false
    },
    {
      "type": "event",
      "name": "RoleGranted",
      "inputs": [
        {
          "name": "role",
          "type": "bytes32",
          "indexed": true,
          "internalType": "bytes32"
        },
        {
          "name": "account",
          "type": "address",
          "indexed": true,
          "internalType": "address"
        },
        {
          "name": "sender",
          "type": "address",
          "indexed": true,
          "internalType": "address"
        }
      ],
      "anonymous": false
    },
    {
      "type": "event",
      "name": "RoleRevoked",
      "inputs": [
        {
          "name": "role",
          "type": "bytes32",
          "indexed": true,
          "internalType": "bytes32"
        },
        {
          "name": "account",
          "type": "address",
          "indexed": true,
          "internalType": "address"
        },
        {
          "name": "sender",
          "type": "address",
          "indexed": true,
          "internalType": "address"
        }
      ],
      "anonymous": false
    },
    {
      "type": "error",
      "name": "AccessControlBadConfirmation",
      "inputs": []
    },
    {
      "type": "error",
      "name": "AccessControlUnauthorizedAccount",
      "inputs": [
        {
          "name": "account",
          "type": "address",
          "internalType": "address"
        },
        {
          "name": "neededRole",
          "type": "bytes32",
          "internalType": "bytes32"
        }
      ]
    },
    {
      "type": "error",
      "name": "ComplianceCheckFailed",
      "inputs": [
        {
          "name": "reason",
          "type": "string",
          "internalType": "string"
        }
      ]
    },
    {
      "type": "error",
      "name": "InvalidParameters",
      "inputs": [
        {
          "name": "reason",
          "type": "string",
          "internalType": "string"
        }
      ]
    }
  ],
  "bytecode": {
    "object": "0x60a03461009a57601f61145338819003918201601f19168301916001600160401b0383118484101761009e5780849260209460405283398101031261009a57516001600160a01b038116810361009a5760805261006261005d6101df565b6100b2565b5061007361006e6101df565b61013b565b506040516111c4908161022f82396080518181816107e8015281816108b8015261108e0152f35b5f80fd5b634e487b7160e01b5f52604160045260245ffd5b6001600160a01b0381165f9081525f5160206114135f395f51905f52602052604090205460ff16610136576001600160a01b038181165f9081525f5160206114135f395f51905f5260205260409020805460ff191660011790556101146101df565b16906001600160a01b03165f5f5160206113f35f395f51905f528180a4600190565b505f90565b6001600160a01b0381165f9081525f5160206114335f395f51905f52602052604090205460ff16610136576001600160a01b038181165f9081525f5160206114335f395f51905f5260205260409020805460ff1916600117905561019d6101df565b16906001600160a01b03167f9b55cfb75ccf6f1a6d907f6f30122d92666cac147d834990fba3410dfac61ef65f5160206113f35f395f51905f525f80a4600190565b6080516001600160a01b0316331480610223575b1561021f57601319360136811161020b573560601c90565b634e487b7160e01b5f52601160045260245ffd5b3390565b5060143610156101f356fe6080806040526004361015610012575f80fd5b5f3560e01c90816301ffc9a714610a3e5750806306fdde03146109ad57806310efe2a514610731578063248a9ca31461097b5780632f2ff15d1461093e57806336568abe146108ea578063572b6c051461088d5780636974f58e14610851578063771d2f5e146108175780637da0a877146107d357806391d148541461078b578063a217fddf14610771578063a8fa6b0714610736578063c4c104b914610731578063cdd957ce146104e1578063d547741f1461049f578063ddfcf37714610484578063e3f79f28146101015763ea6b97a5146100ed575f80fd5b346100fd576100fb36610b57565b005b5f80fd5b346100fd575f3660031901126100fd57604051806020600254918281520190828260025f527f405787fa12a823e0f2b7631cc41b3ba8828b3321ca811111fa75cd3aa3bb5ace925f905b80600f83011061039c576101e4945491818110610387575b81811061036f575b818110610358575b818110610340575b818110610328575b818110610310575b8181106102f8575b8181106102e0575b8181106102c8575b8181106102b0575b818110610298575b818110610280575b818110610268575b818110610250575b818110610238575b1061022a575b509392930382610bc6565b604051918291602083019060208452518091526040830191905f5b81811061020d575050500390f35b825161ffff168452859450602093840193909201916001016101ff565b60f01c8152602001856101d9565b92602060019161ffff8560e01c1681520193016101d3565b92602060019161ffff8560d01c1681520193016101cb565b92602060019161ffff8560c01c1681520193016101c3565b92602060019161ffff8560b01c1681520193016101bb565b92602060019161ffff8560a01c1681520193016101b3565b92602060019161ffff8560901c1681520193016101ab565b92602060019161ffff8560801c1681520193016101a3565b92602060019161ffff8560701c16815201930161019b565b92602060019161ffff8560601c168152019301610193565b92602060019161ffff8560501c16815201930161018b565b92602060019161ffff8560401c168152019301610183565b92602060019161ffff8560301c16815201930161017b565b92602060019161ffff85831c168152019301610173565b92602060019161ffff8560101c16815201930161016b565b92602060019161ffff85168152019301610163565b916010919350610200600191865461ffff8116825261ffff81861c16602083015261ffff8160201c16604083015261ffff8160301c16606083015261ffff8160401c16608083015261ffff8160501c1660a083015261ffff8160601c1660c083015261ffff8160701c1660e083015261ffff8160801c1661010083015261ffff8160901c1661012083015261ffff8160a01c1661014083015261ffff8160b01c1661016083015261ffff8160c01c1661018083015261ffff8160d01c166101a083015261ffff8160e01c166101c083015260f01c6101e082015201940192018592939161014b565b346100fd576100fb61049536610b57565b9491509250610c75565b346100fd5760403660031901126100fd576100fb6004356104be610aab565b906104dc6104d7825f525f602052600160405f20015490565b610d61565b610e47565b346100fd5760403660031901126100fd5760043567ffffffffffffffff81116100fd57366023820112156100fd5780600401359067ffffffffffffffff82116100fd573660248360051b830101116100fd5760243580158015928383036100fd5761054a61108b565b6001600160a01b0381165f9081527f9b6046957f41cb9d409aa8cdf012eb36129daef06a27f14d4eed5f0368318d1f602052604090205460ff16156106ed575060ff841694935f5b858110156106815760248160051b840101359061ffff82168083036100fd575f818152600160205260409020805460ff1981168b17909155869060ff168880610679575b1561064b575050600254680100000000000000008110156106375760019361060682866106209401600255610ed4565b90919061ffff8084549260031b9316831b921b1916179055565b600254905f52600360205260405f20555b01610592565b634e487b7160e01b5f52604160045260245ffd5b600194925081610671575b50610662575b50610631565b61066b906110f8565b8861065c565b90508a610656565b5080156105d6565b50604080516020808252810187905290810160248401875f5b8181106106ca57857f1b1ffd8f98b3dfb6faf0b0b22f6c7b676386940ec578fb49bf7c33ffb0c433ae86860387a2005b90919260208060019261ffff6106df88610b48565b16815201940192910161069a565b63e2517d3f60e01b5f9081526001600160a01b03919091166004527f9b55cfb75ccf6f1a6d907f6f30122d92666cac147d834990fba3410dfac61ef6602452604490fd5b610aef565b346100fd5760203660031901126100fd5760043561ffff81168091036100fd575f526001602052602060ff60405f2054166040519015158152f35b346100fd575f3660031901126100fd5760206040515f8152f35b346100fd5760403660031901126100fd576107a4610aab565b6004355f525f60205260405f209060018060a01b03165f52602052602060ff60405f2054166040519015158152f35b346100fd575f3660031901126100fd576040517f00000000000000000000000000000000000000000000000000000000000000006001600160a01b03168152602090f35b346100fd575f3660031901126100fd5760206040517f9b55cfb75ccf6f1a6d907f6f30122d92666cac147d834990fba3410dfac61ef68152f35b346100fd5760203660031901126100fd5760043567ffffffffffffffff81116100fd576108856100fb913690600401610ac1565b810190610be8565b346100fd5760203660031901126100fd576004356001600160a01b038116908190036100fd576040517f00000000000000000000000000000000000000000000000000000000000000006001600160a01b03169091148152602090f35b346100fd5760403660031901126100fd57610903610aab565b6001600160a01b0361091361108b565b166001600160a01b0382160361092f576100fb90600435610e47565b63334bd91960e11b5f5260045ffd5b346100fd5760403660031901126100fd576100fb60043561095d610aab565b906109766104d7825f525f602052600160405f20015490565b610db2565b346100fd5760203660031901126100fd5760206109a56004355f525f602052600160405f20015490565b604051908152f35b346100fd575f3660031901126100fd576040516060810181811067ffffffffffffffff8211176106375760405260238152604060208201917f436f756e74727920416c6c6f774c69737420436f6d706c69616e6365204d6f64835262756c6560e81b828201528151928391602083525180918160208501528484015e5f828201840152601f01601f19168101030190f35b346100fd5760203660031901126100fd576004359063ffffffff60e01b82168092036100fd57602091638c30a94360e01b8114908115610a80575b5015158152f35b637965db0b60e01b811491508115610a9a575b5083610a79565b6301ffc9a760e01b14905083610a93565b602435906001600160a01b03821682036100fd57565b9181601f840112156100fd5782359167ffffffffffffffff83116100fd57602083818601950101116100fd57565b346100fd5760803660031901126100fd576004356001600160a01b03811681036100fd57506024356001600160a01b03811681036100fd575060643567ffffffffffffffff81116100fd576100fb903690600401610ac1565b359061ffff821682036100fd57565b60a06003198201126100fd576004356001600160a01b03811681036100fd57916024356001600160a01b03811681036100fd57916044356001600160a01b03811681036100fd5791606435916084359067ffffffffffffffff82116100fd57610bc291600401610ac1565b9091565b90601f8019910116810190811067ffffffffffffffff82111761063757604052565b6020818303126100fd5780359067ffffffffffffffff82116100fd57019080601f830112156100fd5781359167ffffffffffffffff8311610637578260051b9060405193610c396020840186610bc6565b84526020808501928201019283116100fd57602001905b828210610c5d5750505090565b60208091610c6a84610b48565b815201910190610c50565b90610c8291939293610f14565b90158015610d55575b610d505761ffff1691825f52600160205260ff60405f205416610d5057610cb491810190610be8565b908151915f5b838110610d115760405163327d269360e01b815260206004820152602160248201527f526563656976657220636f756e747279206e6f7420696e20616c6c6f776c69736044820152601d60fa1b6064820152608490fd5b8151811015610d3c578261ffff60208360051b850101511614610d3657600101610cba565b50505050565b634e487b7160e01b5f52603260045260245ffd5b505050565b5061ffff811615610c8b565b610d6961108b565b5f828152602081815260408083206001600160a01b038516845290915290205460ff1615610d95575050565b63e2517d3f60e01b5f5260018060a01b031660045260245260445ffd5b5f818152602081815260408083206001600160a01b038616845290915290205460ff16610e41575f818152602081815260408083206001600160a01b0386811685529252909120805460ff19166001179055610e0c61108b565b16916001600160a01b0316907f2f8788117e7eff1d82e926ec794901d17c78024a50270940304540a733656f0d5f80a4600190565b50505f90565b5f818152602081815260408083206001600160a01b038616845290915290205460ff1615610e41575f818152602081815260408083206001600160a01b0386811685529252909120805460ff19169055610e9f61108b565b16916001600160a01b0316907ff6391f5c32d9c69d2a47ea670b442974b53935d1edc7fd64eb21e047a839171b5f80a4600190565b90600254821015610d3c5760025f52600482901c7f405787fa12a823e0f2b7631cc41b3ba8828b3321ca811111fa75cd3aa3bb5ace019160011b601e1690565b6040516304d3863d60e21b815291929190602090829060049082906001600160a01b03165afa908115610ffb575f91611049575b50604051630bb7c8fd60e31b81526001600160a01b03938416600482018190529190931692602081602481875afa908115610ffb575f9161100e575b501561100657602090602460405180958193637e42683b60e01b835260048301525afa918215610ffb575f92610fbc575b5060019190565b9091506020813d602011610ff3575b81610fd860209383610bc6565b810103126100fd575161ffff811681036100fd57905f610fb5565b3d9150610fcb565b6040513d5f823e3d90fd5b505f91508190565b90506020813d602011611041575b8161102960209383610bc6565b810103126100fd575180151581036100fd575f610f84565b3d915061101c565b90506020813d602011611083575b8161106460209383610bc6565b810103126100fd57516001600160a01b03811681036100fd575f610f48565b3d9150611057565b337f00000000000000000000000000000000000000000000000000000000000000006001600160a01b031614806110ed575b156110e95760131936013681116110d5573560601c90565b634e487b7160e01b5f52601160045260245ffd5b3390565b5060143610156110bd565b61ffff16805f52600360205260405f205480156111b3575f1981018181116110d5576002545f1981019081116110d55780820361117c575b5050506002548015611168575f190161114881610ed4565b61ffff82549160031b1b191690556002555f5260036020525f6040812055565b634e487b7160e01b5f52603160045260245ffd5b6106069161ffff61118f61119f93610ed4565b90549060031b1c16928391610ed4565b5f52600360205260405f20555f8080611130565b505056fea164736f6c634300081c000a2f8788117e7eff1d82e926ec794901d17c78024a50270940304540a733656f0dad3228b676f7d3cd4284a5443f17f1962b36e491b30a40b2405849e597ba5fb59b6046957f41cb9d409aa8cdf012eb36129daef06a27f14d4eed5f0368318d1f",
    "linkReferences": {}
  },
  "methodIdentifiers": {
    "DEFAULT_ADMIN_ROLE()": "a217fddf",
    "GLOBAL_LIST_MANAGER_ROLE()": "771d2f5e",
    "canTransfer(address,address,address,uint256,bytes)": "ddfcf377",
    "created(address,address,uint256,bytes)": "c4c104b9",
    "destroyed(address,address,uint256,bytes)": "10efe2a5",
    "getGlobalAllowedCountries()": "e3f79f28",
    "getRoleAdmin(bytes32)": "248a9ca3",
    "grantRole(bytes32,address)": "2f2ff15d",
    "hasRole(bytes32,address)": "91d14854",
    "isGloballyAllowed(uint16)": "a8fa6b07",
    "isTrustedForwarder(address)": "572b6c05",
    "name()": "06fdde03",
    "renounceRole(bytes32,address)": "36568abe",
    "revokeRole(bytes32,address)": "d547741f",
    "setGlobalAllowedCountries(uint16[],bool)": "cdd957ce",
    "supportsInterface(bytes4)": "01ffc9a7",
    "transferred(address,address,address,uint256,bytes)": "ea6b97a5",
    "trustedForwarder()": "7da0a877",
    "validateParameters(bytes)": "6974f58e"
  },
  "userdoc": {
    "version": 1,
    "kind": "user",
    "methods": {
      "GLOBAL_LIST_MANAGER_ROLE()": {
        "notice": "Role identifier for addresses authorized to manage a global list of countries within a specific instance of a derived country compliance module."
      },
      "canTransfer(address,address,address,uint256,bytes)": {
        "notice": "Determines if a transfer to a recipient is allowed based on their country's presence in the combined allow-lists."
      },
      "constructor": {
        "notice": "Constructor for the `CountryAllowListComplianceModule`."
      },
      "created(address,address,uint256,bytes)": {
        "notice": "This function is a hook called by the main `SMARTComplianceImplementation` contract *after* new tokens have been created (minted)."
      },
      "destroyed(address,address,uint256,bytes)": {
        "notice": "This function is a hook called by the main `SMARTComplianceImplementation` contract *after* tokens have been destroyed (burned)."
      },
      "getGlobalAllowedCountries()": {
        "notice": "Returns an array of all globally allowed country codes for this module instance."
      },
      "isGloballyAllowed(uint16)": {
        "notice": "Checks if a specific country code is present in this module instance's global allow-list."
      },
      "name()": {
        "notice": "Returns the human-readable name of this compliance module."
      },
      "setGlobalAllowedCountries(uint16[],bool)": {
        "notice": "Adds or removes multiple countries from this module instance's global allow-list."
      },
      "supportsInterface(bytes4)": {
        "notice": "Checks if the contract supports a given interface ID."
      },
      "transferred(address,address,address,uint256,bytes)": {
        "notice": "This function is a hook called by the main `ATKComplianceImplementation` contract *after* a token transfer has occurred."
      },
      "validateParameters(bytes)": {
        "notice": "Validates that the provided parameters (`_params`) conform to the expected format for country-based modules."
      }
    },
    "events": {
      "GlobalAllowedCountriesUpdated(uint16[],bool)": {
        "notice": "Emitted when one or more countries are added to or removed from this module instance's global allow-list."
      }
    },
    "errors": {
      "ComplianceCheckFailed(string)": [
        {
          "notice": "Emitted when a compliance check performed by the `canTransfer` function fails."
        }
      ],
      "InvalidParameters(string)": [
        {
          "notice": "Emitted by the `validateParameters` function if the provided configuration parameters are invalid for this module."
        }
      ]
    },
    "notice": "This compliance module restricts token transfers *to* users unless their registered country is on an approved list."
  },
  "devdoc": {
    "version": 1,
    "kind": "dev",
    "author": "SettleMint Tokenization Services",
    "details": "It inherits from `AbstractCountryComplianceModule` and implements a country-based allow-list logic. The module combines two sources for the allow-list: 1. **Global Allow-List**: A list of country codes maintained within this specific module instance.    This list can be managed by addresses holding the `GLOBAL_LIST_MANAGER_ROLE` (inherited from `AbstractCountryComplianceModule`). 2. **Token-Specific Allow-List**: An additional list of country codes provided via the `_params` argument when this module    is registered with a particular `ISMART` token. The format for these parameters is `abi.encode(uint16[] memory additionalAllowedCountries)`. A transfer *to* a recipient is PERMITTED if:    - The recipient has no identity registered in the token's `ISMARTIdentityRegistry`, or their country code is 0.      (In this case, the module cannot determine the country, so it defaults to allowing the transfer).    - OR the recipient's registered country code is present in this module instance's global allow-list.    - OR the recipient's registered country code is present in the token-specific list of allowed countries passed via `_params`. If none of these conditions are met, the `canTransfer` function will revert with a `ComplianceCheckFailed` error, effectively blocking the transfer.",
    "methods": {
      "canTransfer(address,address,address,uint256,bytes)": {
        "details": "This function implements the core compliance logic for the `CountryAllowListComplianceModule`. It is called by the `SMARTComplianceImplementation` before a token transfer. The logic is as follows: 1. Retrieve the recipient's (`_to`) country code using `_getUserCountry` (from `AbstractCountryComplianceModule`). 2. If the recipient has no identity or their country code is 0, the transfer is allowed (return without reverting).    This is because the module cannot enforce an allow-list if the country is unknown. 3. If the recipient's country is in this module's global allow-list (checked via `isGloballyAllowed`), the transfer is allowed. 4. If not globally allowed, decode the token-specific `additionalAllowedCountries` from `_params` (using `_decodeParams`). 5. Check if the recipient's country is present in this `additionalAllowedCountries` list. If yes, the transfer is allowed. 6. If none of the above conditions are met (i.e., recipient has a known country, and it's not in the global list, and it's not in the token-specific list),    the function reverts with `ComplianceCheckFailed(\"Receiver country not in allowlist\")`.",
        "params": {
          "_params": "ABI-encoded `uint16[]` of additional country codes allowed specifically for this `_token`,                in addition to the module's global allow-list.",
          "_to": "Address of the recipient whose country is being checked against the allow-list.",
          "_token": "Address of the `ISMART` token contract for which the compliance check is being performed."
        }
      },
      "constructor": {
        "details": "When a contract inheriting from `CountryAllowListComplianceModule` is deployed, this constructor is called. It calls the constructor of `AbstractCountryComplianceModule` with the `_trustedForwarder` address."
      },
      "created(address,address,uint256,bytes)": {
        "details": "This is an empty `virtual` implementation. Inheriting contracts can `override` this function if they need to perform actions or update state based on successful token creation. If a module doesn't need to react to token creation, it doesn't need to override this.",
        "params": {
          "_params": "The parameters that were configured for this module when it was added to the `_token`.",
          "_to": "The address that received the newly created tokens.",
          "_token": "The address of the `ISMART` token contract where tokens were created.",
          "_value": "The amount of tokens created."
        }
      },
      "destroyed(address,address,uint256,bytes)": {
        "details": "This is an empty `virtual` implementation. Inheriting contracts can `override` this function if they need to perform actions or update state based on successful token destruction. If a module doesn't need to react to token destruction, it doesn't need to override this.",
        "params": {
          "_from": "The address whose tokens were destroyed.",
          "_params": "The parameters that were configured for this module when it was added to the `_token`.",
          "_token": "The address of the `ISMART` token contract from which tokens were destroyed.",
          "_value": "The amount of tokens destroyed."
        }
      },
      "getGlobalAllowedCountries()": {
        "details": "This function provides a way to enumerate all countries that are currently allowed in the global allow-list. It's useful for administrative purposes, auditing, or for front-ends that need to display the current list of allowed countries.",
        "returns": {
          "_0": "An array of `uint16` country codes representing all globally allowed countries. The array will be empty if no countries are currently in the global allow-list."
        }
      },
      "getRoleAdmin(bytes32)": {
        "details": "Returns the admin role that controls `role`. See {grantRole} and {revokeRole}. To change a role's admin, use {_setRoleAdmin}."
      },
      "grantRole(bytes32,address)": {
        "details": "Grants `role` to `account`. If `account` had not been already granted `role`, emits a {RoleGranted} event. Requirements: - the caller must have ``role``'s admin role. May emit a {RoleGranted} event."
      },
      "hasRole(bytes32,address)": {
        "details": "Returns `true` if `account` has been granted `role`."
      },
      "isGloballyAllowed(uint16)": {
        "params": {
          "_country": "The country code (ISO 3166-1 numeric) to check."
        },
        "returns": {
          "_0": "`true` if the `_country` is part of the global allow-list for this module instance, `false` otherwise."
        }
      },
      "isTrustedForwarder(address)": {
        "details": "Indicates whether any particular address is the trusted forwarder."
      },
      "name()": {
        "details": "This function MUST be a `pure` function, meaning it does not read from or modify the contract state.      The name helps identify the module's purpose (e.g., \"KYC Module\", \"Country Restriction Module\").",
        "returns": {
          "_0": "The string \"Country AllowList Compliance Module\"."
        }
      },
      "renounceRole(bytes32,address)": {
        "details": "Revokes `role` from the calling account. Roles are often managed via {grantRole} and {revokeRole}: this function's purpose is to provide a mechanism for accounts to lose their privileges if they are compromised (such as when a trusted device is misplaced). If the calling account had been revoked `role`, emits a {RoleRevoked} event. Requirements: - the caller must be `callerConfirmation`. May emit a {RoleRevoked} event."
      },
      "revokeRole(bytes32,address)": {
        "details": "Revokes `role` from `account`. If `account` had been granted `role`, emits a {RoleRevoked} event. Requirements: - the caller must have ``role``'s admin role. May emit a {RoleRevoked} event."
      },
      "setGlobalAllowedCountries(uint16[],bool)": {
        "details": "This function can only be called by addresses that have been granted the `GLOBAL_LIST_MANAGER_ROLE` for this module instance. It iterates through the `_countries` array and sets their status in the global country list. When adding countries, they are added to both the mapping and the enumerable array. When removing countries, they are removed from both the mapping and the array using the swap-and-pop technique.",
        "params": {
          "_allow": "If `true`, the specified `_countries` will be added to the global allow-list (or updated if already present).               If `false`, the specified `_countries` will be removed from the global allow-list.",
          "_countries": "An array of country codes (ISO 3166-1 numeric) to be added or removed."
        }
      },
      "supportsInterface(bytes4)": {
        "details": "This function is part of the ERC165 standard, allowing other contracts to discover what interfaces this contract implements. It explicitly states that this module (and any inheriting contract) supports the `ISMARTComplianceModule` interface. It also calls `super.supportsInterface(interfaceId)` to include support for interfaces from parent contracts (like `AccessControl` which also implements `IERC165`).",
        "params": {
          "interfaceId": "The interface identifier (bytes4) to check."
        },
        "returns": {
          "_0": "`true` if the contract supports the `interfaceId`, `false` otherwise."
        }
      },
      "transferred(address,address,address,uint256,bytes)": {
        "details": "This is an empty `virtual` implementation. Inheriting contracts can `override` this function if they need to perform actions or update state based on a successful transfer. For example, a module might log transfer details or update internal counters. If a module doesn't need to react to transfers, it doesn't need to override this.",
        "params": {
          "_from": "The address from which tokens were transferred.",
          "_params": "The parameters that were configured for this module when it was added to the `_token`.",
          "_to": "The address to which tokens were transferred.",
          "_token": "The address of the `ISMART` token contract that performed the transfer.",
          "_value": "The amount of tokens transferred."
        }
      },
      "trustedForwarder()": {
        "details": "Returns the address of the trusted forwarder."
      },
      "validateParameters(bytes)": {
        "details": "This function overrides `validateParameters` from `AbstractComplianceModule`. It specifically checks if `_params` can be successfully decoded as a dynamic array of `uint16` (country codes). If the decoding fails (i.e., `_params` are not in the format `abi.encode(uint16[])`), the function will revert. Note: This function *only* validates the format of `_params`. It does *not* validate the individual country codes within the array (e.g., checking if they are valid ISO 3166-1 numeric codes). Such specific validation might be done by the concrete module if needed.",
        "params": {
          "_params": "The ABI-encoded parameters to validate. Expected to be `abi.encode(uint16[] memory countryCodes)`."
        }
      }
    },
    "events": {
      "GlobalAllowedCountriesUpdated(uint16[],bool)": {
        "params": {
          "allowed": "A boolean indicating whether the specified `countries` were added (`true`) to or removed (`false`) from the global allow-list.",
          "countries": "An array of country codes (ISO 3166-1 numeric) that were updated."
        }
      },
      "RoleAdminChanged(bytes32,bytes32,bytes32)": {
        "details": "Emitted when `newAdminRole` is set as ``role``'s admin role, replacing `previousAdminRole` `DEFAULT_ADMIN_ROLE` is the starting admin for all roles, despite {RoleAdminChanged} not being emitted to signal this."
      },
      "RoleGranted(bytes32,address,address)": {
        "details": "Emitted when `account` is granted `role`. `sender` is the account that originated the contract call. This account bears the admin role (for the granted role). Expected in cases where the role was granted using the internal {AccessControl-_grantRole}."
      },
      "RoleRevoked(bytes32,address,address)": {
        "details": "Emitted when `account` is revoked `role`. `sender` is the account that originated the contract call:   - if using `revokeRole`, it is the admin role bearer   - if using `renounceRole`, it is the role bearer (i.e. `account`)"
      }
    },
    "errors": {
      "AccessControlBadConfirmation()": [
        {
          "details": "The caller of a function is not the expected one. NOTE: Don't confuse with {AccessControlUnauthorizedAccount}."
        }
      ],
      "AccessControlUnauthorizedAccount(address,bytes32)": [
        {
          "details": "The `account` is missing a role."
        }
      ],
      "ComplianceCheckFailed(string)": [
        {
          "details": "This error indicates that a proposed token transfer, mint, or burn operation violates      the rules enforced by this specific compliance module.",
          "params": {
            "reason": "A descriptive string explaining why the compliance check failed (e.g., \"Sender not allow listed\", \"Transfer exceeds daily limit\")."
          }
        }
      ],
      "InvalidParameters(string)": [
        {
          "details": "This error signals that the data supplied to configure or update the module is malformed, out of expected range,      or otherwise unsuitable for the module's intended operation.",
          "params": {
            "reason": "A descriptive string explaining why the parameters are considered invalid (e.g., \"Invalid country code format\", \"Limit parameter cannot be zero\")."
          }
        }
      ]
    },
    "title": "Country Allow-List Compliance Module"
  },
  "id": 105
}