{
  "abi": [
    {
      "type": "constructor",
      "inputs": [
        {
          "name": "forwarder",
          "type": "address",
          "internalType": "address"
        }
      ],
      "stateMutability": "nonpayable"
    },
    {
      "type": "function",
      "name": "DEFAULT_ADMIN_ROLE",
      "inputs": [],
      "outputs": [
        {
          "name": "",
          "type": "bytes32",
          "internalType": "bytes32"
        }
      ],
      "stateMutability": "view"
    },
    {
      "type": "function",
      "name": "RATE_BASIS_POINTS",
      "inputs": [],
      "outputs": [
        {
          "name": "",
          "type": "uint256",
          "internalType": "uint256"
        }
      ],
      "stateMutability": "view"
    },
    {
      "type": "function",
      "name": "allPeriods",
      "inputs": [],
      "outputs": [
        {
          "name": "",
          "type": "uint256[]",
          "internalType": "uint256[]"
        }
      ],
      "stateMutability": "view"
    },
    {
      "type": "function",
      "name": "calculateAccruedYield",
      "inputs": [],
      "outputs": [
        {
          "name": "",
          "type": "uint256",
          "internalType": "uint256"
        }
      ],
      "stateMutability": "view"
    },
    {
      "type": "function",
      "name": "calculateAccruedYield",
      "inputs": [
        {
          "name": "holder",
          "type": "address",
          "internalType": "address"
        }
      ],
      "outputs": [
        {
          "name": "",
          "type": "uint256",
          "internalType": "uint256"
        }
      ],
      "stateMutability": "view"
    },
    {
      "type": "function",
      "name": "claimYield",
      "inputs": [],
      "outputs": [],
      "stateMutability": "nonpayable"
    },
    {
      "type": "function",
      "name": "currentPeriod",
      "inputs": [],
      "outputs": [
        {
          "name": "",
          "type": "uint256",
          "internalType": "uint256"
        }
      ],
      "stateMutability": "view"
    },
    {
      "type": "function",
      "name": "endDate",
      "inputs": [],
      "outputs": [
        {
          "name": "",
          "type": "uint256",
          "internalType": "uint256"
        }
      ],
      "stateMutability": "view"
    },
    {
      "type": "function",
      "name": "getRoleAdmin",
      "inputs": [
        {
          "name": "role",
          "type": "bytes32",
          "internalType": "bytes32"
        }
      ],
      "outputs": [
        {
          "name": "",
          "type": "bytes32",
          "internalType": "bytes32"
        }
      ],
      "stateMutability": "view"
    },
    {
      "type": "function",
      "name": "grantRole",
      "inputs": [
        {
          "name": "role",
          "type": "bytes32",
          "internalType": "bytes32"
        },
        {
          "name": "account",
          "type": "address",
          "internalType": "address"
        }
      ],
      "outputs": [],
      "stateMutability": "nonpayable"
    },
    {
      "type": "function",
      "name": "hasRole",
      "inputs": [
        {
          "name": "role",
          "type": "bytes32",
          "internalType": "bytes32"
        },
        {
          "name": "account",
          "type": "address",
          "internalType": "address"
        }
      ],
      "outputs": [
        {
          "name": "",
          "type": "bool",
          "internalType": "bool"
        }
      ],
      "stateMutability": "view"
    },
    {
      "type": "function",
      "name": "initialize",
      "inputs": [
        {
          "name": "tokenAddress_",
          "type": "address",
          "internalType": "address"
        },
        {
          "name": "startDate_",
          "type": "uint256",
          "internalType": "uint256"
        },
        {
          "name": "endDate_",
          "type": "uint256",
          "internalType": "uint256"
        },
        {
          "name": "rate_",
          "type": "uint256",
          "internalType": "uint256"
        },
        {
          "name": "interval_",
          "type": "uint256",
          "internalType": "uint256"
        },
        {
          "name": "initialOwner_",
          "type": "address",
          "internalType": "address"
        }
      ],
      "outputs": [],
      "stateMutability": "nonpayable"
    },
    {
      "type": "function",
      "name": "interval",
      "inputs": [],
      "outputs": [
        {
          "name": "",
          "type": "uint256",
          "internalType": "uint256"
        }
      ],
      "stateMutability": "view"
    },
    {
      "type": "function",
      "name": "isTrustedForwarder",
      "inputs": [
        {
          "name": "forwarder",
          "type": "address",
          "internalType": "address"
        }
      ],
      "outputs": [
        {
          "name": "",
          "type": "bool",
          "internalType": "bool"
        }
      ],
      "stateMutability": "view"
    },
    {
      "type": "function",
      "name": "lastClaimedPeriod",
      "inputs": [
        {
          "name": "holder",
          "type": "address",
          "internalType": "address"
        }
      ],
      "outputs": [
        {
          "name": "",
          "type": "uint256",
          "internalType": "uint256"
        }
      ],
      "stateMutability": "view"
    },
    {
      "type": "function",
      "name": "lastClaimedPeriod",
      "inputs": [],
      "outputs": [
        {
          "name": "",
          "type": "uint256",
          "internalType": "uint256"
        }
      ],
      "stateMutability": "view"
    },
    {
      "type": "function",
      "name": "lastCompletedPeriod",
      "inputs": [],
      "outputs": [
        {
          "name": "",
          "type": "uint256",
          "internalType": "uint256"
        }
      ],
      "stateMutability": "view"
    },
    {
      "type": "function",
      "name": "pause",
      "inputs": [],
      "outputs": [],
      "stateMutability": "nonpayable"
    },
    {
      "type": "function",
      "name": "paused",
      "inputs": [],
      "outputs": [
        {
          "name": "",
          "type": "bool",
          "internalType": "bool"
        }
      ],
      "stateMutability": "view"
    },
    {
      "type": "function",
      "name": "periodEnd",
      "inputs": [
        {
          "name": "period",
          "type": "uint256",
          "internalType": "uint256"
        }
      ],
      "outputs": [
        {
          "name": "",
          "type": "uint256",
          "internalType": "uint256"
        }
      ],
      "stateMutability": "view"
    },
    {
      "type": "function",
      "name": "rate",
      "inputs": [],
      "outputs": [
        {
          "name": "",
          "type": "uint256",
          "internalType": "uint256"
        }
      ],
      "stateMutability": "view"
    },
    {
      "type": "function",
      "name": "renounceRole",
      "inputs": [
        {
          "name": "role",
          "type": "bytes32",
          "internalType": "bytes32"
        },
        {
          "name": "callerConfirmation",
          "type": "address",
          "internalType": "address"
        }
      ],
      "outputs": [],
      "stateMutability": "nonpayable"
    },
    {
      "type": "function",
      "name": "revokeRole",
      "inputs": [
        {
          "name": "role",
          "type": "bytes32",
          "internalType": "bytes32"
        },
        {
          "name": "account",
          "type": "address",
          "internalType": "address"
        }
      ],
      "outputs": [],
      "stateMutability": "nonpayable"
    },
    {
      "type": "function",
      "name": "startDate",
      "inputs": [],
      "outputs": [
        {
          "name": "",
          "type": "uint256",
          "internalType": "uint256"
        }
      ],
      "stateMutability": "view"
    },
    {
      "type": "function",
      "name": "supportsInterface",
      "inputs": [
        {
          "name": "interfaceId",
          "type": "bytes4",
          "internalType": "bytes4"
        }
      ],
      "outputs": [
        {
          "name": "",
          "type": "bool",
          "internalType": "bool"
        }
      ],
      "stateMutability": "view"
    },
    {
      "type": "function",
      "name": "timeUntilNextPeriod",
      "inputs": [],
      "outputs": [
        {
          "name": "",
          "type": "uint256",
          "internalType": "uint256"
        }
      ],
      "stateMutability": "view"
    },
    {
      "type": "function",
      "name": "token",
      "inputs": [],
      "outputs": [
        {
          "name": "",
          "type": "address",
          "internalType": "contract ISMARTYield"
        }
      ],
      "stateMutability": "view"
    },
    {
      "type": "function",
      "name": "topUpUnderlyingAsset",
      "inputs": [
        {
          "name": "amount",
          "type": "uint256",
          "internalType": "uint256"
        }
      ],
      "outputs": [],
      "stateMutability": "nonpayable"
    },
    {
      "type": "function",
      "name": "totalUnclaimedYield",
      "inputs": [],
      "outputs": [
        {
          "name": "",
          "type": "uint256",
          "internalType": "uint256"
        }
      ],
      "stateMutability": "view"
    },
    {
      "type": "function",
      "name": "totalYieldForNextPeriod",
      "inputs": [],
      "outputs": [
        {
          "name": "",
          "type": "uint256",
          "internalType": "uint256"
        }
      ],
      "stateMutability": "view"
    },
    {
      "type": "function",
      "name": "trustedForwarder",
      "inputs": [],
      "outputs": [
        {
          "name": "",
          "type": "address",
          "internalType": "address"
        }
      ],
      "stateMutability": "view"
    },
    {
      "type": "function",
      "name": "underlyingAsset",
      "inputs": [],
      "outputs": [
        {
          "name": "",
          "type": "address",
          "internalType": "contract IERC20"
        }
      ],
      "stateMutability": "view"
    },
    {
      "type": "function",
      "name": "unpause",
      "inputs": [],
      "outputs": [],
      "stateMutability": "nonpayable"
    },
    {
      "type": "function",
      "name": "withdrawAllUnderlyingAsset",
      "inputs": [
        {
          "name": "to",
          "type": "address",
          "internalType": "address"
        }
      ],
      "outputs": [],
      "stateMutability": "nonpayable"
    },
    {
      "type": "function",
      "name": "withdrawUnderlyingAsset",
      "inputs": [
        {
          "name": "to",
          "type": "address",
          "internalType": "address"
        },
        {
          "name": "amount",
          "type": "uint256",
          "internalType": "uint256"
        }
      ],
      "outputs": [],
      "stateMutability": "nonpayable"
    },
    {
      "type": "event",
      "name": "FixedYieldScheduleSet",
      "inputs": [
        {
          "name": "startDate",
          "type": "uint256",
          "indexed": false,
          "internalType": "uint256"
        },
        {
          "name": "endDate",
          "type": "uint256",
          "indexed": false,
          "internalType": "uint256"
        },
        {
          "name": "rate",
          "type": "uint256",
          "indexed": false,
          "internalType": "uint256"
        },
        {
          "name": "interval",
          "type": "uint256",
          "indexed": false,
          "internalType": "uint256"
        },
        {
          "name": "periodEndTimestamps",
          "type": "uint256[]",
          "indexed": false,
          "internalType": "uint256[]"
        },
        {
          "name": "underlyingAsset",
          "type": "address",
          "indexed": false,
          "internalType": "contract IERC20"
        },
        {
          "name": "yieldForNextPeriod",
          "type": "uint256",
          "indexed": false,
          "internalType": "uint256"
        }
      ],
      "anonymous": false
    },
    {
      "type": "event",
      "name": "Initialized",
      "inputs": [
        {
          "name": "version",
          "type": "uint64",
          "indexed": false,
          "internalType": "uint64"
        }
      ],
      "anonymous": false
    },
    {
      "type": "event",
      "name": "Paused",
      "inputs": [
        {
          "name": "account",
          "type": "address",
          "indexed": false,
          "internalType": "address"
        }
      ],
      "anonymous": false
    },
    {
      "type": "event",
      "name": "RoleAdminChanged",
      "inputs": [
        {
          "name": "role",
          "type": "bytes32",
          "indexed": true,
          "internalType": "bytes32"
        },
        {
          "name": "previousAdminRole",
          "type": "bytes32",
          "indexed": true,
          "internalType": "bytes32"
        },
        {
          "name": "newAdminRole",
          "type": "bytes32",
          "indexed": true,
          "internalType": "bytes32"
        }
      ],
      "anonymous": false
    },
    {
      "type": "event",
      "name": "RoleGranted",
      "inputs": [
        {
          "name": "role",
          "type": "bytes32",
          "indexed": true,
          "internalType": "bytes32"
        },
        {
          "name": "account",
          "type": "address",
          "indexed": true,
          "internalType": "address"
        },
        {
          "name": "sender",
          "type": "address",
          "indexed": true,
          "internalType": "address"
        }
      ],
      "anonymous": false
    },
    {
      "type": "event",
      "name": "RoleRevoked",
      "inputs": [
        {
          "name": "role",
          "type": "bytes32",
          "indexed": true,
          "internalType": "bytes32"
        },
        {
          "name": "account",
          "type": "address",
          "indexed": true,
          "internalType": "address"
        },
        {
          "name": "sender",
          "type": "address",
          "indexed": true,
          "internalType": "address"
        }
      ],
      "anonymous": false
    },
    {
      "type": "event",
      "name": "UnderlyingAssetTopUp",
      "inputs": [
        {
          "name": "from",
          "type": "address",
          "indexed": true,
          "internalType": "address"
        },
        {
          "name": "amount",
          "type": "uint256",
          "indexed": false,
          "internalType": "uint256"
        }
      ],
      "anonymous": false
    },
    {
      "type": "event",
      "name": "UnderlyingAssetWithdrawn",
      "inputs": [
        {
          "name": "to",
          "type": "address",
          "indexed": true,
          "internalType": "address"
        },
        {
          "name": "amount",
          "type": "uint256",
          "indexed": false,
          "internalType": "uint256"
        }
      ],
      "anonymous": false
    },
    {
      "type": "event",
      "name": "Unpaused",
      "inputs": [
        {
          "name": "account",
          "type": "address",
          "indexed": false,
          "internalType": "address"
        }
      ],
      "anonymous": false
    },
    {
      "type": "event",
      "name": "YieldClaimed",
      "inputs": [
        {
          "name": "holder",
          "type": "address",
          "indexed": true,
          "internalType": "address"
        },
        {
          "name": "claimedAmount",
          "type": "uint256",
          "indexed": false,
          "internalType": "uint256"
        },
        {
          "name": "fromPeriod",
          "type": "uint256",
          "indexed": false,
          "internalType": "uint256"
        },
        {
          "name": "toPeriod",
          "type": "uint256",
          "indexed": false,
          "internalType": "uint256"
        },
        {
          "name": "periodAmounts",
          "type": "uint256[]",
          "indexed": false,
          "internalType": "uint256[]"
        },
        {
          "name": "periodYields",
          "type": "uint256[]",
          "indexed": false,
          "internalType": "uint256[]"
        },
        {
          "name": "totalUnclaimedYield",
          "type": "uint256",
          "indexed": false,
          "internalType": "uint256"
        },
        {
          "name": "yieldForNextPeriod",
          "type": "uint256",
          "indexed": false,
          "internalType": "uint256"
        }
      ],
      "anonymous": false
    },
    {
      "type": "error",
      "name": "AccessControlBadConfirmation",
      "inputs": []
    },
    {
      "type": "error",
      "name": "AccessControlUnauthorizedAccount",
      "inputs": [
        {
          "name": "account",
          "type": "address",
          "internalType": "address"
        },
        {
          "name": "neededRole",
          "type": "bytes32",
          "internalType": "bytes32"
        }
      ]
    },
    {
      "type": "error",
      "name": "AlreadyInitialized",
      "inputs": []
    },
    {
      "type": "error",
      "name": "CannotInitializeLogicContract",
      "inputs": []
    },
    {
      "type": "error",
      "name": "EnforcedPause",
      "inputs": []
    },
    {
      "type": "error",
      "name": "ExpectedPause",
      "inputs": []
    },
    {
      "type": "error",
      "name": "InsufficientUnderlyingBalance",
      "inputs": [
        {
          "name": "currentBalance",
          "type": "uint256",
          "internalType": "uint256"
        },
        {
          "name": "requiredBalance",
          "type": "uint256",
          "internalType": "uint256"
        }
      ]
    },
    {
      "type": "error",
      "name": "InvalidAmount",
      "inputs": []
    },
    {
      "type": "error",
      "name": "InvalidEndDate",
      "inputs": []
    },
    {
      "type": "error",
      "name": "InvalidInitialization",
      "inputs": []
    },
    {
      "type": "error",
      "name": "InvalidInterval",
      "inputs": []
    },
    {
      "type": "error",
      "name": "InvalidPeriod",
      "inputs": []
    },
    {
      "type": "error",
      "name": "InvalidRate",
      "inputs": []
    },
    {
      "type": "error",
      "name": "InvalidStartDate",
      "inputs": []
    },
    {
      "type": "error",
      "name": "InvalidToken",
      "inputs": []
    },
    {
      "type": "error",
      "name": "InvalidUnderlyingAsset",
      "inputs": []
    },
    {
      "type": "error",
      "name": "NoUnderlyingBalance",
      "inputs": []
    },
    {
      "type": "error",
      "name": "NoYieldAvailable",
      "inputs": []
    },
    {
      "type": "error",
      "name": "NotInitializing",
      "inputs": []
    },
    {
      "type": "error",
      "name": "ReentrancyGuardReentrantCall",
      "inputs": []
    },
    {
      "type": "error",
      "name": "ReentrantInitialization",
      "inputs": []
    },
    {
      "type": "error",
      "name": "SafeERC20FailedOperation",
      "inputs": [
        {
          "name": "token",
          "type": "address",
          "internalType": "address"
        }
      ]
    },
    {
      "type": "error",
      "name": "ScheduleNotActive",
      "inputs": []
    }
  ],
  "bytecode": {
    "object": "0x60a034607457601f61200e38819003918201601f19168301916001600160401b03831184841017607857808492602094604052833981010312607457516001600160a01b0381168103607457608052604051611f81908161008d823960805181818161065d01528181610be60152611e1b0152f35b5f80fd5b634e487b7160e01b5f52604160045260245ffdfe6080806040526004361015610012575f80fd5b5f3560e01c90816301ffc9a7146112f15750806306040618146112d75780630898c949146112bd5780630b97bc86146112a05780631cf7e1491461118c5780631f28d52c14611172578063248a9ca31461113b57806327614ec4146110db5780632c4e722e146110be5780632f2ff15d1461107457806336568abe146110205780633f4ba83a14610fa3578063406cf22914610c1a578063572b6c0514610bc65780635c975abb14610b985780635df5f96f146106d15780637158da7c146106a95780637b07882e1461068c5780637da0a87714610648578063817ea1441461062a5780638456cb59146105a757806391d1485414610552578063947a36fb14610535578063978fd53b1461051b5780639a95299a146104f85780639fc2f65a146104de578063a206b55014610412578063a217fddf146103f8578063c24a0f8b146103db578063c54293aa14610399578063d1ae38b81461037d578063d547741f1461032c578063e0ecad5a14610207578063f68e5218146101c85763fc0c546a1461019d575f80fd5b346101c4575f3660031901126101c4575f546040516001600160a01b039091168152602090f35b5f80fd5b346101c4575f3660031901126101c45760206101ff6101e5611e18565b6001600160a01b03165f9081526007602052604090205490565b604051908152f35b346101c45760203660031901126101c457610220611344565b610228611a48565b610230611a80565b610238611b44565b6001600160a01b03811690811561031d576001546040516370a0823160e01b81523060048201526001600160a01b0390911690602081602481855afa908115610312575f916102e0575b5080156102d1576102b7817f6f50cd6d1a8ee055bfba8d1998a1e71e64c3a0791f04001b50f038e3c106590994602094611dda565b604051908152a260015f516020611f355f395f51905f5255005b630bc0b2c560e21b5f5260045ffd5b90506020813d60201161030a575b816102fb60209383611460565b810103126101c4575184610282565b3d91506102ee565b6040513d5f823e3d90fd5b634e81208360e01b5f5260045ffd5b346101c45760403660031901126101c45761037b60043561034b61135a565b90610376610371825f525f516020611ef55f395f51905f52602052600160405f20015490565b611ae8565b611cd3565b005b346101c4575f3660031901126101c45760206040516127108152f35b346101c4575f3660031901126101c4576103d76040516103c3816103bc81611a0f565b0382611460565b604051918291602083526020830190611370565b0390f35b346101c4575f3660031901126101c4576020600354604051908152f35b346101c4575f3660031901126101c45760206040515f8152f35b346101c45760203660031901126101c45760043561042e611a48565b610436611b44565b60015461048f906001600160a01b031661044e611e18565b6040516323b872dd60e01b60208201526001600160a01b039091166024820152306044820152606480820185905281529061048a608483611460565b611e9c565b7fabda30aae4846dafeb67b57e0f9fb5af47de85525570e48ced61a3c99a4f8daf60206001600160a01b036104c2611e18565b1692604051908152a260015f516020611f355f395f51905f5255005b346101c4575f3660031901126101c45760206101ff611923565b346101c45760203660031901126101c45760206101ff610516611344565b611660565b346101c4575f3660031901126101c45760206101ff61162a565b346101c4575f3660031901126101c4576020600554604051908152f35b346101c45760403660031901126101c45761056b61135a565b6004355f525f516020611ef55f395f51905f5260205260405f209060018060a01b03165f52602052602060ff60405f2054166040519015158152f35b346101c4575f3660031901126101c4576105bf611a80565b6105c7611b44565b600160ff195f516020611f155f395f51905f525416175f516020611f155f395f51905f52557f62e78cea01bee320cd4e420270b5ea74000d11b0c9f74754ebdbfc544b05a2586020610617611e18565b6040516001600160a01b039091168152a1005b346101c45760203660031901126101c45760206101ff6101e5611344565b346101c4575f3660031901126101c4576040517f00000000000000000000000000000000000000000000000000000000000000006001600160a01b03168152602090f35b346101c4575f3660031901126101c45760206101ff610516611e18565b346101c4575f3660031901126101c4576001546040516001600160a01b039091168152602090f35b346101c45760c03660031901126101c4576106ea611344565b60a4356044356024356064356084356001600160a01b03851685036101c4575f516020611f555f395f51905f52549560ff8760401c16159667ffffffffffffffff811680159081610b90575b6001149081610b86575b159081610b7d575b50610b6e5767ffffffffffffffff1981166001175f516020611f555f395f51905f525587610b42575b5061077a611e71565b610782611e71565b61078a611e71565b610792611e71565b60015f516020611f355f395f51905f52556001600160a01b03168015610b33574284111580610b29575b610b1a5783851115610b0b578215610afc578115610aed575f80546001600160a01b031916821790556040516376d5de8560e01b815290602090829060049082905afa908115610312575f91610aab575b50600180546001600160a01b0319166001600160a01b039290921691821790551561031d57826002558360035581600455806005556108558161085085876113a3565b6113b0565b600181018091116109f15761086981611d94565b80519067ffffffffffffffff8211610a9757680100000000000000008211610a975760065482600655808310610a39575b5060200160065f525f5b828110610a05575050505f5b8181106109915787610933887f257d94ac1c207cc7e5778ea325814452897ee07f059fea0c16b7b6f347be78b1898989896108e9611923565b9060018060a01b036001541692604051958695865260208601526040850152606084015260e0608084015261092060e08401611a0f565b9160a084015260c08301520390a1611b6b565b5061093a57005b68ff0000000000000000195f516020611f555f395f51905f5254165f516020611f555f395f51905f52557fc7f505b2f371ae2175ee4913f4499e1f2633a7b5936321eed1cdaeb6115181d2602060405160018152a1005b60025490600181018082116109f1576001926109b36109b992600554906114bc565b906113ce565b6003548082116109e9575b506109ce82611490565b819291549060031b91821b915f19901b1916179055016108b0565b90508a6109c4565b634e487b7160e01b5f52601160045260245ffd5b60019060208351930192817ff652222313e28459528d920b65115c16c04f3efc82aaedc97be59f3f377c0d3f0155016108a4565b7ff652222313e28459528d920b65115c16c04f3efc82aaedc97be59f3f377c0d3f01827ff652222313e28459528d920b65115c16c04f3efc82aaedc97be59f3f377c0d3f015b818110610a8c575061089a565b5f8155600101610a7f565b634e487b7160e01b5f52604160045260245ffd5b90506020813d602011610ae5575b81610ac660209383611460565b810103126101c457516001600160a01b03811681036101c4578761080d565b3d9150610ab9565b6305fabb6160e41b5f5260045ffd5b636a43f8d160e01b5f5260045ffd5b63398145cf60e11b5f5260045ffd5b630bf784c760e01b5f5260045ffd5b50600254156107bc565b63c1ab6dc160e01b5f5260045ffd5b68ffffffffffffffffff191668010000000000000001175f516020611f555f395f51905f525587610771565b63f92ee8a960e01b5f5260045ffd5b90501589610748565b303b159150610740565b899150610736565b346101c4575f3660031901126101c457602060ff5f516020611f155f395f51905f5254166040519015158152f35b346101c45760203660031901126101c4576020610be1611344565b6040517f00000000000000000000000000000000000000000000000000000000000000006001600160a01b039081169216919091148152f35b346101c4575f3660031901126101c457610c32611a48565b610c3a611b44565b610c4261162a565b60018110610dcc57610c52611e18565b6001600160a01b0381165f81815260076020526040902054909291600182019182106109f157828211610dcc575f546040516340f2de1b60e11b815260048101869052936001600160a01b0390911690602085602481855afa948515610312575f95610f6f575b505f92610cc685836113a3565b600181018091116109f157610cda90611d94565b92610ce586846113a3565b600181018091116109f157610cf990611d94565b96865b84811115610ddb575050508315610dcc577fb119cb4f54a2303fcdbc4f7a2c39dc38eb1368d94ac4571f4eddac9c4f0c28ba95610d6585610dab938a5f5260076020528560405f2055610d51826008546113ce565b6008556001546001600160a01b0316611dda565b610d9d610d706114cf565b94610d79611923565b9460405198899889526020890152604088015260e0606088015260e0870190611370565b908582036080870152611370565b9160a084015260c08301520390a260015f516020611f355f395f51905f5255005b633dfa692b60e11b5f5260045ffd5b5f1981018181116109f157806020610df5610e2b93611490565b905460405163277166bf60e11b81526001600160a01b038a16600482015260039290921b1c602482015292839081906044820190565b0381885afa80156103125784905f90610f3a575b610e51935080610f03575b5050611490565b9054604051630981b24d60e41b815260039290921b1c600482015290602082602481875afa8015610312575f90610ed0575b610e9692508381610e9b575b5050611482565b610cfc565b610eab610eb491612710936114bc565b600454906114bc565b04610ec8610ec28b846113a3565b8c611dc6565b528b83610e8f565b506020823d8211610efb575b81610ee960209383611460565b810103126101c457610e969151610e83565b3d9150610edc565b610f16610eab610f1e93612710936114bc565b04809a6113ce565b98610f32610f2c8c866113a3565b8a611dc6565b52838d610e4a565b50506020823d8211610f67575b81610f5460209383611460565b810103126101c45783610e519251610e3f565b3d9150610f47565b9094506020813d602011610f9b575b81610f8b60209383611460565b810103126101c457519386610cb9565b3d9150610f7e565b346101c4575f3660031901126101c457610fbb611a80565b5f516020611f155f395f51905f525460ff8116156110115760ff19165f516020611f155f395f51905f52557f5db9ee0a495bf2e6ff9c91a7834c1ba4fdd244a5e8aa4e537bd38aeae4b073aa6020610617611e18565b638dfc202b60e01b5f5260045ffd5b346101c45760403660031901126101c45761103961135a565b6001600160a01b03611049611e18565b166001600160a01b038216036110655761037b90600435611cd3565b63334bd91960e11b5f5260045ffd5b346101c45760403660031901126101c45761037b60043561109361135a565b906110b9610371825f525f516020611ef55f395f51905f52602052600160405f20015490565b611c28565b346101c4575f3660031901126101c4576020600454604051908152f35b346101c45760203660031901126101c45760043580158015611130575b611121575f1981019081116109f157611112602091611490565b90549060031b1c604051908152f35b6302e8f35960e31b5f5260045ffd5b5060065481116110f8565b346101c45760203660031901126101c45760206101ff6004355f525f516020611ef55f395f51905f52602052600160405f20015490565b346101c4575f3660031901126101c45760206101ff6114cf565b346101c45760403660031901126101c4576111a5611344565b6024356111b0611a48565b6111b8611a80565b6111c0611b44565b6001600160a01b03821691821561031d578115611291576001546040516370a0823160e01b81523060048201526001600160a01b0390911690602081602481855afa908115610312575f9161125f575b508084116112485750916102b7816020937f6f50cd6d1a8ee055bfba8d1998a1e71e64c3a0791f04001b50f038e3c106590995611dda565b8390630c9f8b8560e01b5f5260045260245260445ffd5b90506020813d602011611289575b8161127a60209383611460565b810103126101c4575185611210565b3d915061126d565b63162908e360e11b5f5260045ffd5b346101c4575f3660031901126101c4576020600254604051908152f35b346101c4575f3660031901126101c45760206101ff61141f565b346101c4575f3660031901126101c45760206101ff6113db565b346101c45760203660031901126101c4576004359063ffffffff60e01b82168092036101c457602091637965db0b60e01b8114908115611333575b5015158152f35b6301ffc9a760e01b1490508361132c565b600435906001600160a01b03821682036101c457565b602435906001600160a01b03821682036101c457565b90602080835192838152019201905f5b81811061138d5750505090565b8251845260209384019390920191600101611380565b919082039182116109f157565b81156113ba570490565b634e487b7160e01b5f52601260045260245ffd5b919082018092116109f157565b60025480421061141a57600354421015611413576113fc61140591426113a3565b600554906113b0565b600181018091116109f15790565b5060065490565b505f90565b6002548042106114555760035442101561141a5761143d90426113a3565b60055480156113ba57806114529206906113a3565b90565b6114529042906113a3565b90601f8019910116810190811067ffffffffffffffff821117610a9757604052565b5f1981146109f15760010190565b6006548110156114a85760065f5260205f2001905f90565b634e487b7160e01b5f52603260045260245ffd5b818102929181159184041417156109f157565b6114d761162a565b6001811061141a575f80546040516340f2de1b60e11b81526004810183905291926001600160a01b0390911691602081602481865afa908115610312575f916115f8575b5060015b8281111561154557505050506008548082111561153f57611452916113a3565b50505f90565b5f1981018181116109f15761155990611490565b9054604051630981b24d60e41b815260039290921b1c6004820152602081602481885afa908115610312575f916115c7575b50806115a1575b5061159c90611482565b61151f565b61159c91956127106115b9610eab866115c0956114bc565b04906113ce565b9490611592565b90506020813d82116115f0575b816115e160209383611460565b810103126101c457515f61158b565b3d91506115d4565b90506020813d602011611622575b8161161360209383611460565b810103126101c457515f61151b565b3d9150611606565b6002548042111561141a57600354421015611413576113fc61164c91426113a3565b6006548082101561165b575090565b905090565b6116686113db565b6001811080611918575b611909575f546040516340f2de1b60e11b81526001600160a01b03848116600483018190529391921690602083602481855afa928315610312575f936118d5575b50835f52600760205260405f205494600186018096116109f1576116d561162a565b905f9682811115611806575b5050505f93811515806117fb575b611701575b50505050611452916113ce565b6020906024604051809581936370a0823160e01b835260048301525afa918215610312575f926117c7575b5081611739575b806116f4565b91925090600181036117985750611763610eab6117689361175d6002545b426113a3565b936114bc565b6114bc565b906005549161271083029280840461271014901517156109f1576114529261178f916113b0565b90915f80611733565b6001198101929083116109f157610eab6117639161175d6117bb61176896611490565b90549060031b1c611757565b9091506020813d6020116117f3575b816117e360209383611460565b810103126101c45751905f61172c565b3d91506117d6565b5060035442106116ef565b8281116116e1575f1981018181116109f157602061182661185c92611490565b905460405163277166bf60e11b81526001600160a01b038716600482015260039290921b1c602482015291829081906044820190565b0381895afa908115610312575f916118a4575b5080611885575b5061188090611482565b611806565b61188091986127106115b9610eab8a61189d956114bc565b9790611876565b90506020813d82116118cd575b816118be60209383611460565b810103126101c457515f61186f565b3d91506118b1565b9092506020813d602011611901575b816118f160209383611460565b810103126101c45751915f6116b3565b3d91506118e4565b63b27f716560e01b5f5260045ffd5b506002544210611672565b600354421015611a0b575f546040516318160ddd60e01b8152906001600160a01b0316602082600481845afa918215610312575f926119d6575b50906020602492604051938480926340f2de1b60e11b82525f60048301525afa918215610312575f926119a0575b50610eab6127109261199c926114bc565b0490565b91506020823d6020116119ce575b816119bb60209383611460565b810103126101c457905190610eab61198b565b3d91506119ae565b91506020823d602011611a03575b816119f160209383611460565b810103126101c457905190602061195d565b3d91506119e4565b5f90565b602060065491828152019060065f5260205f20905f5b818110611a325750505090565b8254845260209093019260019283019201611a25565b60025f516020611f355f395f51905f525414611a715760025f516020611f355f395f51905f5255565b633ee5aeb560e01b5f5260045ffd5b611a88611e18565b6001600160a01b0381165f9081527fb7db2dd08fcb62d0c9e08c51941cae53c267786a0b75803fb7960902fc8ef97d602052604090205460ff1615611aca5750565b63e2517d3f60e01b5f5260018060a01b03166004525f60245260445ffd5b611af0611e18565b815f525f516020611ef55f395f51905f5260205260405f2060018060a01b0382165f5260205260ff60405f20541615611b27575050565b63e2517d3f60e01b5f5260018060a01b031660045260245260445ffd5b60ff5f516020611f155f395f51905f525416611b5c57565b63d93c066560e01b5f5260045ffd5b6001600160a01b0381165f9081527fb7db2dd08fcb62d0c9e08c51941cae53c267786a0b75803fb7960902fc8ef97d602052604090205460ff1661141a576001600160a01b038181165f9081527fb7db2dd08fcb62d0c9e08c51941cae53c267786a0b75803fb7960902fc8ef97d60205260409020805460ff19166001179055611bf3611e18565b16906001600160a01b03165f7f2f8788117e7eff1d82e926ec794901d17c78024a50270940304540a733656f0d8180a4600190565b5f8181525f516020611ef55f395f51905f52602090815260408083206001600160a01b038616845290915290205460ff1661153f575f8181525f516020611ef55f395f51905f52602090815260408083206001600160a01b0386811685529252909120805460ff19166001179055611c9e611e18565b16916001600160a01b0316907f2f8788117e7eff1d82e926ec794901d17c78024a50270940304540a733656f0d5f80a4600190565b5f8181525f516020611ef55f395f51905f52602090815260408083206001600160a01b038616845290915290205460ff161561153f575f8181525f516020611ef55f395f51905f52602090815260408083206001600160a01b0386811685529252909120805460ff19169055611d47611e18565b16916001600160a01b0316907ff6391f5c32d9c69d2a47ea670b442974b53935d1edc7fd64eb21e047a839171b5f80a4600190565b67ffffffffffffffff8111610a975760051b60200190565b90611d9e82611d7c565b611dab6040519182611460565b8281528092611dbc601f1991611d7c565b0190602036910137565b80518210156114a85760209160051b010190565b60405163a9059cbb60e01b60208201526001600160a01b03929092166024830152604480830193909352918152611e169161048a606483611460565b565b337f00000000000000000000000000000000000000000000000000000000000000006001600160a01b03161480611e66575b15611e625760131936013681116109f1573560601c90565b3390565b506014361015611e4a565b60ff5f516020611f555f395f51905f525460401c1615611e8d57565b631afcd79f60e31b5f5260045ffd5b905f602091828151910182855af115610312575f513d611eeb57506001600160a01b0381163b155b611ecb5750565b635274afe760e01b5f9081526001600160a01b0391909116600452602490fd5b60011415611ec456fe02dd7bc7dec4dceedda775e58dd541e08a116c6c53815c0bd028192f7b626800cd5ed15c6e187e77e9aee88184c21f4f2182ab5827cb3b7e07fbedcd63f033009b779b17422d0df92223018b32b4d1fa46e071723d6817e2486d003becc55f00f0c57e16840df040f15088dc2f81fe391c3923bec73e23a9662efc9c229c6a00a164736f6c634300081c000a",
    "linkReferences": {}
  },
  "methodIdentifiers": {
    "DEFAULT_ADMIN_ROLE()": "a217fddf",
    "RATE_BASIS_POINTS()": "d1ae38b8",
    "allPeriods()": "c54293aa",
    "calculateAccruedYield()": "7b07882e",
    "calculateAccruedYield(address)": "9a95299a",
    "claimYield()": "406cf229",
    "currentPeriod()": "06040618",
    "endDate()": "c24a0f8b",
    "getRoleAdmin(bytes32)": "248a9ca3",
    "grantRole(bytes32,address)": "2f2ff15d",
    "hasRole(bytes32,address)": "91d14854",
    "initialize(address,uint256,uint256,uint256,uint256,address)": "5df5f96f",
    "interval()": "947a36fb",
    "isTrustedForwarder(address)": "572b6c05",
    "lastClaimedPeriod()": "f68e5218",
    "lastClaimedPeriod(address)": "817ea144",
    "lastCompletedPeriod()": "978fd53b",
    "pause()": "8456cb59",
    "paused()": "5c975abb",
    "periodEnd(uint256)": "27614ec4",
    "rate()": "2c4e722e",
    "renounceRole(bytes32,address)": "36568abe",
    "revokeRole(bytes32,address)": "d547741f",
    "startDate()": "0b97bc86",
    "supportsInterface(bytes4)": "01ffc9a7",
    "timeUntilNextPeriod()": "0898c949",
    "token()": "fc0c546a",
    "topUpUnderlyingAsset(uint256)": "a206b550",
    "totalUnclaimedYield()": "1f28d52c",
    "totalYieldForNextPeriod()": "9fc2f65a",
    "trustedForwarder()": "7da0a877",
    "underlyingAsset()": "7158da7c",
    "unpause()": "3f4ba83a",
    "withdrawAllUnderlyingAsset(address)": "e0ecad5a",
    "withdrawUnderlyingAsset(address,uint256)": "1cf7e149"
  },
  "userdoc": {
    "version": 1,
    "kind": "user",
    "methods": {
      "RATE_BASIS_POINTS()": {
        "notice": "The denominator used for rate calculations. `10_000` represents 100% (since rate is in basis points)."
      },
      "allPeriods()": {
        "notice": "Returns an array of all period end timestamps for this yield schedule."
      },
      "calculateAccruedYield()": {
        "notice": "Calculates the total accrued yield for the message sender (`_msgSender()`), including any pro-rata share for the current period."
      },
      "calculateAccruedYield(address)": {
        "notice": "Calculates the total accrued yield for a specific token holder up to the current moment, including any pro-rata share for the ongoing period."
      },
      "claimYield()": {
        "notice": "Allows the caller (a token holder) to claim all their available (accrued and unclaimed) yield from completed periods."
      },
      "currentPeriod()": {
        "notice": "Returns the current, ongoing period number of the yield schedule."
      },
      "endDate()": {
        "notice": "Returns the timestamp representing the end date and time of the entire yield schedule."
      },
      "initialize(address,uint256,uint256,uint256,uint256,address)": {
        "notice": "Initializes the contract when used as an upgradeable proxy."
      },
      "interval()": {
        "notice": "Returns the duration of each distribution interval or period in seconds."
      },
      "lastClaimedPeriod()": {
        "notice": "Returns the last claimed period for the message sender (`_msgSender()`)."
      },
      "lastClaimedPeriod(address)": {
        "notice": "Returns the last period number for which a specific token holder has successfully claimed their yield."
      },
      "lastCompletedPeriod()": {
        "notice": "Returns the most recent period number that has been fully completed and is eligible for yield claims."
      },
      "periodEnd(uint256)": {
        "notice": "Returns the end timestamp for a specific yield distribution period."
      },
      "rate()": {
        "notice": "Returns the yield rate for the schedule."
      },
      "startDate()": {
        "notice": "Returns the Unix timestamp (seconds since epoch) when the yield schedule starts."
      },
      "timeUntilNextPeriod()": {
        "notice": "Returns the remaining time in seconds until the start of the next yield distribution period."
      },
      "token()": {
        "notice": "Returns the address of the SMART token contract for which this yield schedule is defined."
      },
      "topUpUnderlyingAsset(uint256)": {
        "notice": "Allows anyone to deposit (top-up) the underlying asset into the schedule contract to fund yield payments."
      },
      "totalUnclaimedYield()": {
        "notice": "Calculates the total amount of yield that has been accrued by all token holders across all completed periods but has not yet been claimed."
      },
      "totalYieldForNextPeriod()": {
        "notice": "Calculates the total amount of yield that will be required to cover all token holders for the next upcoming distribution period."
      },
      "underlyingAsset()": {
        "notice": "Returns the ERC20 token contract that is used for making yield payments."
      },
      "withdrawAllUnderlyingAsset(address)": {
        "notice": "Allows an authorized administrator to withdraw all available `underlyingAsset` tokens from the schedule contract."
      },
      "withdrawUnderlyingAsset(address,uint256)": {
        "notice": "Allows an authorized administrator to withdraw a specific `amount` of the `underlyingAsset` from the schedule contract."
      }
    },
    "events": {
      "FixedYieldScheduleSet(uint256,uint256,uint256,uint256,uint256[],address,uint256)": {
        "notice": "Emitted when a new fixed yield schedule is set."
      },
      "UnderlyingAssetTopUp(address,uint256)": {
        "notice": "Emitted when an administrator or funder successfully deposits `_underlyingAsset` into the contract to fund yield payments."
      },
      "UnderlyingAssetWithdrawn(address,uint256)": {
        "notice": "Emitted when an administrator successfully withdraws `_underlyingAsset` from the contract."
      },
      "YieldClaimed(address,uint256,uint256,uint256,uint256[],uint256[],uint256,uint256)": {
        "notice": "Emitted when a token holder successfully claims their accrued yield."
      }
    }
  },
  "devdoc": {
    "version": 1,
    "kind": "dev",
    "methods": {
      "allPeriods()": {
        "details": "Each timestamp in the array marks the conclusion of a yield distribution period. The number of elements in this array corresponds to the total number of periods in the schedule. This is useful for understanding the full timeline of the yield schedule.",
        "returns": {
          "_0": "An array of Unix timestamps, each representing the end of a distribution period."
        }
      },
      "calculateAccruedYield()": {
        "details": "Convenience function so callers don't have to pass their own address.",
        "returns": {
          "_0": "The total accrued yield amount for the caller."
        }
      },
      "calculateAccruedYield(address)": {
        "details": "Calculates yield for completed, unclaimed periods using historical balances (`balanceOfAt`). For the current, ongoing period, it calculates a pro-rata share based on the holder's current balance and time elapsed in the period.",
        "params": {
          "holder": "The address of the token holder for whom to calculate accrued yield."
        },
        "returns": {
          "_0": "The total amount of yield tokens accrued by the `holder`."
        }
      },
      "claimYield()": {
        "details": "This function will typically: 1. Determine the periods for which the caller has not yet claimed yield. 2. Calculate the yield owed for those periods based on their historical token balance at the end of each respective period. 3. Transfer the total calculated yield (in `underlyingAsset()`) to the caller. 4. Update the caller's `lastClaimedPeriod`. This is a state-changing function and will emit events (e.g., `YieldClaimed`)."
      },
      "currentPeriod()": {
        "details": "If the schedule has not yet started (`block.timestamp < startDate()`), this might return 0. If the schedule has ended (`block.timestamp >= endDate()`), this might return the total number of periods. Otherwise, it returns the 1-indexed number of the period that is currently in progress.",
        "returns": {
          "_0": "The current period number (1-indexed), or 0 if not started / an indicator if ended."
        }
      },
      "endDate()": {
        "details": "After this timestamp, no more yield will typically accrue or be distributed by this schedule.",
        "returns": {
          "_0": "The Unix timestamp indicating when the yield schedule concludes."
        }
      },
      "getRoleAdmin(bytes32)": {
        "details": "Returns the admin role that controls `role`. See {grantRole} and {revokeRole}. To change a role's admin, use {_setRoleAdmin}."
      },
      "grantRole(bytes32,address)": {
        "details": "Grants `role` to `account`. If `account` had not been already granted `role`, emits a {RoleGranted} event. Requirements: - the caller must have ``role``'s admin role. May emit a {RoleGranted} event."
      },
      "hasRole(bytes32,address)": {
        "details": "Returns `true` if `account` has been granted `role`."
      },
      "initialize(address,uint256,uint256,uint256,uint256,address)": {
        "details": "This function should be called by the proxy contract after deployment to set all configuration.",
        "params": {
          "endDate_": "End date of the yield schedule.",
          "initialOwner_": "The address to be granted `DEFAULT_ADMIN_ROLE`.",
          "interval_": "Duration of each yield interval.",
          "rate_": "Yield rate in basis points.",
          "startDate_": "Start date of the yield schedule.",
          "tokenAddress_": "Address of the `ISMARTYield` token."
        }
      },
      "interval()": {
        "details": "For example, if yield is distributed daily, the interval would be `86400` seconds. This, along with `startDate` and `endDate`, defines the periodicity of the schedule.",
        "returns": {
          "_0": "The length of each yield period in seconds."
        }
      },
      "isTrustedForwarder(address)": {
        "details": "Indicates whether any particular address is the trusted forwarder."
      },
      "lastClaimedPeriod()": {
        "details": "Convenience function so callers don't have to pass their own address.",
        "returns": {
          "_0": "The last period number (1-indexed) claimed by the caller."
        }
      },
      "lastClaimedPeriod(address)": {
        "details": "This is crucial for tracking individual claim statuses. If a holder has never claimed, this might return 0.",
        "params": {
          "holder": "The address of the token holder whose last claimed period is being queried."
        },
        "returns": {
          "_0": "The 1-indexed number of the last period claimed by the `holder`."
        }
      },
      "lastCompletedPeriod()": {
        "details": "This indicates up to which period users can typically claim their accrued yield. If no periods have completed (e.g., `block.timestamp < periodEnd(1)`), this might return 0.",
        "returns": {
          "_0": "The 1-indexed number of the last fully completed period."
        }
      },
      "pause()": {
        "details": "Pause the contract."
      },
      "paused()": {
        "details": "Returns true if the contract is paused, and false otherwise."
      },
      "periodEnd(uint256)": {
        "details": "Periods are 1-indexed. Accessing `_periodEndTimestamps` requires 0-indexed access (`period - 1`).",
        "params": {
          "period": "The period number (e.g., 1 for the first period, 2 for the second, etc.) whose end timestamp is being queried."
        },
        "returns": {
          "_0": "The Unix timestamp marking the end of the specified `period`."
        }
      },
      "rate()": {
        "details": "The interpretation of this rate (e.g., annual percentage rate, per period rate) and its precision (e.g., basis points) depends on the specific implementation of the schedule contract. For a fixed schedule, this rate is a key parameter in calculating yield per period.",
        "returns": {
          "_0": "The configured yield rate (e.g., in basis points, where 100 basis points = 1%)."
        }
      },
      "renounceRole(bytes32,address)": {
        "details": "Revokes `role` from the calling account. Roles are often managed via {grantRole} and {revokeRole}: this function's purpose is to provide a mechanism for accounts to lose their privileges if they are compromised (such as when a trusted device is misplaced). If the calling account had been revoked `role`, emits a {RoleRevoked} event. Requirements: - the caller must be `callerConfirmation`. May emit a {RoleRevoked} event."
      },
      "revokeRole(bytes32,address)": {
        "details": "Revokes `role` from `account`. If `account` had been granted `role`, emits a {RoleRevoked} event. Requirements: - the caller must have ``role``'s admin role. May emit a {RoleRevoked} event."
      },
      "startDate()": {
        "details": "This is an immutable value set in the constructor. It defines the beginning of the yield accrual period. This function fulfills the `startDate()` requirement from the `ISMARTFixedYieldSchedule` interface (which itself inherits it from `ISMARTYieldSchedule`)."
      },
      "timeUntilNextPeriod()": {
        "details": "If the schedule has not started, this could be time until `startDate()`. If the schedule is ongoing, this is the time left in the `currentPeriod()`. If the schedule has ended, this might return 0.",
        "returns": {
          "_0": "The time in seconds until the next period begins or current period ends."
        }
      },
      "token()": {
        "details": "The schedule contract needs to interact with this token contract to query historical balances (e.g., `balanceOfAt`) and total supplies (`totalSupplyAt`). The returned token contract should implement the `ISMARTYield` interface.",
        "returns": {
          "_0": "The `ISMARTYield` compliant token contract address."
        }
      },
      "topUpUnderlyingAsset(uint256)": {
        "details": "This function is used to ensure the contract has sufficient reserves of the `underlyingAsset()` to pay out accrued yield. It typically involves the caller first approving the schedule contract to spend their `underlyingAsset` tokens, then this function calls `transferFrom`.",
        "params": {
          "amount": "The quantity of the `underlyingAsset` to deposit into the schedule contract."
        }
      },
      "totalUnclaimedYield()": {
        "details": "This calculation can be gas-intensive as it iterates through all completed periods and queries historical total supply for each. It assumes `_token.yieldBasisPerUnit(address(0))` provides a generic or representative basis if it varies by holder.",
        "returns": {
          "_0": "The total sum of unclaimed yield tokens."
        }
      },
      "totalYieldForNextPeriod()": {
        "details": "This calculation uses the current total supply. For a more precise estimate if supply changes rapidly, one might need a more complex projection. Assumes a generic basis from `_token.yieldBasisPerUnit(address(0))`.",
        "returns": {
          "_0": "The estimated total yield tokens needed for the next period's distribution."
        }
      },
      "trustedForwarder()": {
        "details": "Returns the address of the trusted forwarder."
      },
      "underlyingAsset()": {
        "details": "This is the actual token that holders will receive when they claim their yield. It can be the same as `token()` or a different token (e.g., a stablecoin).",
        "returns": {
          "_0": "The `IERC20` compliant token contract address used for payments."
        }
      },
      "unpause()": {
        "details": "Unpause the contract."
      },
      "withdrawAllUnderlyingAsset(address)": {
        "details": "Similar to `withdrawUnderlyingAsset`, but withdraws the entire balance of `underlyingAsset` held by the contract. Should also be strictly access-controlled.",
        "params": {
          "to": "The address to which all `underlyingAsset` tokens will be sent."
        }
      },
      "withdrawUnderlyingAsset(address,uint256)": {
        "details": "This is an administrative function and should be strictly access-controlled (e.g., `onlyRole(ADMIN_ROLE)`). Useful for managing excess funds or in emergency situations.",
        "params": {
          "amount": "The quantity of `underlyingAsset` tokens to withdraw.",
          "to": "The address to which the withdrawn `underlyingAsset` tokens will be sent."
        }
      }
    },
    "events": {
      "FixedYieldScheduleSet(uint256,uint256,uint256,uint256,uint256[],address,uint256)": {
        "params": {
          "endDate": "The end date of the yield schedule.",
          "interval": "The interval of the yield schedule.",
          "periodEndTimestamps": "The timestamps of the end of each period.",
          "rate": "The rate of the yield schedule.",
          "startDate": "The start date of the yield schedule.",
          "underlyingAsset": "The underlying asset of the yield schedule.",
          "yieldForNextPeriod": "The yield for the next period."
        }
      },
      "Initialized(uint64)": {
        "details": "Triggered when the contract has been initialized or reinitialized."
      },
      "Paused(address)": {
        "details": "Emitted when the pause is triggered by `account`."
      },
      "RoleAdminChanged(bytes32,bytes32,bytes32)": {
        "details": "Emitted when `newAdminRole` is set as ``role``'s admin role, replacing `previousAdminRole` `DEFAULT_ADMIN_ROLE` is the starting admin for all roles, despite {RoleAdminChanged} not being emitted to signal this."
      },
      "RoleGranted(bytes32,address,address)": {
        "details": "Emitted when `account` is granted `role`. `sender` is the account that originated the contract call. This account bears the admin role (for the granted role). Expected in cases where the role was granted using the internal {AccessControl-_grantRole}."
      },
      "RoleRevoked(bytes32,address,address)": {
        "details": "Emitted when `account` is revoked `role`. `sender` is the account that originated the contract call:   - if using `revokeRole`, it is the admin role bearer   - if using `renounceRole`, it is the role bearer (i.e. `account`)"
      },
      "UnderlyingAssetTopUp(address,uint256)": {
        "params": {
          "amount": "The quantity of `_underlyingAsset` tokens deposited.",
          "from": "The address that sent the `_underlyingAsset` tokens (the funder)."
        }
      },
      "UnderlyingAssetWithdrawn(address,uint256)": {
        "params": {
          "amount": "The quantity of `_underlyingAsset` tokens withdrawn.",
          "to": "The address that received the withdrawn `_underlyingAsset` tokens."
        }
      },
      "Unpaused(address)": {
        "details": "Emitted when the pause is lifted by `account`."
      },
      "YieldClaimed(address,uint256,uint256,uint256,uint256[],uint256[],uint256,uint256)": {
        "params": {
          "claimedAmount": "The total quantity of `_underlyingAsset` transferred to the holder in this claim.",
          "fromPeriod": "The first period number (1-indexed) included in this claim.",
          "holder": "The address of the token holder who claimed the yield.",
          "periodAmounts": "An array containing the amount of yield claimed for each specific period within the `fromPeriod` to `toPeriod` range. The length of this array is `toPeriod - fromPeriod + 1`.",
          "periodYields": "An array containing the total yield for each specific period within the `fromPeriod` to `toPeriod` range. The length of this array is `toPeriod - fromPeriod + 1`.",
          "toPeriod": "The last period number (1-indexed) included in this claim.",
          "totalUnclaimedYield": "The total amount of unclaimed yield remaining in the contract across all holders after this claim.",
          "yieldForNextPeriod": "The yield for the next period."
        }
      }
    },
    "errors": {
      "AccessControlBadConfirmation()": [
        {
          "details": "The caller of a function is not the expected one. NOTE: Don't confuse with {AccessControlUnauthorizedAccount}."
        }
      ],
      "AccessControlUnauthorizedAccount(address,bytes32)": [
        {
          "details": "The `account` is missing a role."
        }
      ],
      "AlreadyInitialized()": [
        {
          "details": "Reverted if the `initialize` function is called more than once."
        }
      ],
      "CannotInitializeLogicContract()": [
        {
          "details": "Reverted if `initialize` is called directly on a logic contract that was configured via constructor."
        }
      ],
      "EnforcedPause()": [
        {
          "details": "The operation failed because the contract is paused."
        }
      ],
      "ExpectedPause()": [
        {
          "details": "The operation failed because the contract is not paused."
        }
      ],
      "InsufficientUnderlyingBalance(uint256,uint256)": [
        {
          "details": "Reverted by `topUpUnderlyingAsset` or `withdrawUnderlyingAsset` if the underlying asset transfer fails or if there's not enough balance.",
          "params": {
            "currentBalance": "The current balance of the underlying asset in the contract.",
            "requiredBalance": "The required balance of the underlying asset for the operation."
          }
        }
      ],
      "InvalidAmount()": [
        {
          "details": "Reverted by `withdrawUnderlyingAsset` if the withdrawal `amount` is zero."
        }
      ],
      "InvalidEndDate()": [
        {
          "details": "Reverted if the `endDate_` provided in the constructor is not after the `startDate_`."
        }
      ],
      "InvalidInitialization()": [
        {
          "details": "The contract is already initialized."
        }
      ],
      "InvalidInterval()": [
        {
          "details": "Reverted if the `interval_` (distribution interval in seconds) provided in the constructor is zero."
        }
      ],
      "InvalidPeriod()": [
        {
          "details": "Reverted by `periodEnd` if an invalid period number (0 or out of bounds) is requested."
        }
      ],
      "InvalidRate()": [
        {
          "details": "Reverted if the `rate_` (yield rate in basis points) provided in the constructor is zero."
        }
      ],
      "InvalidStartDate()": [
        {
          "details": "Reverted if the `startDate_` provided in the constructor is not in the future (i.e., less than or equal to `block.timestamp`)."
        }
      ],
      "InvalidToken()": [
        {
          "details": "Reverted if the `tokenAddress` provided in the constructor is the zero address."
        }
      ],
      "InvalidUnderlyingAsset()": [
        {
          "details": "Reverted if the `_underlyingAsset` (derived from `_token.yieldToken()`) is the zero address, or if `to` address in withdrawal is zero."
        }
      ],
      "NoUnderlyingBalance()": [
        {
          "details": "Reverted by `withdrawUnderlyingAsset` if the underlying asset balance is zero."
        }
      ],
      "NoYieldAvailable()": [
        {
          "details": "Reverted by `claimYield` if there is no accumulated yield for the caller to claim for completed periods."
        }
      ],
      "NotInitializing()": [
        {
          "details": "The contract is not initializing."
        }
      ],
      "ReentrancyGuardReentrantCall()": [
        {
          "details": "Unauthorized reentrant call."
        }
      ],
      "ReentrantInitialization()": [
        {
          "details": "Reverted if a re-entrant call occurs during the initialization process."
        }
      ],
      "SafeERC20FailedOperation(address)": [
        {
          "details": "An operation with an ERC-20 token failed."
        }
      ],
      "ScheduleNotActive()": [
        {
          "details": "Reverted by `calculateAccruedYield` if the schedule has not yet started (i.e., `block.timestamp < _startDate`)."
        }
      ]
    }
  },
  "id": 85
}