{
  "_format": "hh-sol-artifact-1",
  "contractName": "SMARTIdentityRegistry",
  "sourceName": "smart-protocol/contracts/SMARTIdentityRegistry.sol",
  "abi": [
    {
      "inputs": [
        {
          "internalType": "address",
          "name": "trustedForwarder",
          "type": "address"
        }
      ],
      "stateMutability": "nonpayable",
      "type": "constructor"
    },
    {
      "inputs": [],
      "name": "AccessControlBadConfirmation",
      "type": "error"
    },
    {
      "inputs": [
        {
          "internalType": "address",
          "name": "account",
          "type": "address"
        },
        {
          "internalType": "bytes32",
          "name": "neededRole",
          "type": "bytes32"
        }
      ],
      "name": "AccessControlUnauthorizedAccount",
      "type": "error"
    },
    {
      "inputs": [
        {
          "internalType": "address",
          "name": "target",
          "type": "address"
        }
      ],
      "name": "AddressEmptyCode",
      "type": "error"
    },
    {
      "inputs": [],
      "name": "ArrayLengthMismatch",
      "type": "error"
    },
    {
      "inputs": [
        {
          "internalType": "address",
          "name": "implementation",
          "type": "address"
        }
      ],
      "name": "ERC1967InvalidImplementation",
      "type": "error"
    },
    {
      "inputs": [],
      "name": "ERC1967NonPayable",
      "type": "error"
    },
    {
      "inputs": [],
      "name": "FailedCall",
      "type": "error"
    },
    {
      "inputs": [
        {
          "internalType": "address",
          "name": "userAddress",
          "type": "address"
        }
      ],
      "name": "IdentityAlreadyRegistered",
      "type": "error"
    },
    {
      "inputs": [
        {
          "internalType": "address",
          "name": "userAddress",
          "type": "address"
        }
      ],
      "name": "IdentityNotRegistered",
      "type": "error"
    },
    {
      "inputs": [],
      "name": "InvalidIdentityAddress",
      "type": "error"
    },
    {
      "inputs": [],
      "name": "InvalidInitialization",
      "type": "error"
    },
    {
      "inputs": [],
      "name": "InvalidRegistryAddress",
      "type": "error"
    },
    {
      "inputs": [],
      "name": "InvalidStorageAddress",
      "type": "error"
    },
    {
      "inputs": [],
      "name": "InvalidUserAddress",
      "type": "error"
    },
    {
      "inputs": [],
      "name": "NotInitializing",
      "type": "error"
    },
    {
      "inputs": [],
      "name": "UUPSUnauthorizedCallContext",
      "type": "error"
    },
    {
      "inputs": [
        {
          "internalType": "bytes32",
          "name": "slot",
          "type": "bytes32"
        }
      ],
      "name": "UUPSUnsupportedProxiableUUID",
      "type": "error"
    },
    {
      "anonymous": false,
      "inputs": [
        {
          "indexed": true,
          "internalType": "address",
          "name": "sender",
          "type": "address"
        },
        {
          "indexed": true,
          "internalType": "address",
          "name": "_investorAddress",
          "type": "address"
        },
        {
          "indexed": true,
          "internalType": "uint16",
          "name": "_country",
          "type": "uint16"
        }
      ],
      "name": "CountryUpdated",
      "type": "event"
    },
    {
      "anonymous": false,
      "inputs": [
        {
          "indexed": true,
          "internalType": "address",
          "name": "sender",
          "type": "address"
        },
        {
          "indexed": true,
          "internalType": "address",
          "name": "_investorAddress",
          "type": "address"
        },
        {
          "indexed": true,
          "internalType": "contract IIdentity",
          "name": "_identity",
          "type": "address"
        }
      ],
      "name": "IdentityRegistered",
      "type": "event"
    },
    {
      "anonymous": false,
      "inputs": [
        {
          "indexed": true,
          "internalType": "address",
          "name": "sender",
          "type": "address"
        },
        {
          "indexed": true,
          "internalType": "address",
          "name": "_investorAddress",
          "type": "address"
        },
        {
          "indexed": true,
          "internalType": "contract IIdentity",
          "name": "_identity",
          "type": "address"
        }
      ],
      "name": "IdentityRemoved",
      "type": "event"
    },
    {
      "anonymous": false,
      "inputs": [
        {
          "indexed": true,
          "internalType": "address",
          "name": "sender",
          "type": "address"
        },
        {
          "indexed": true,
          "internalType": "address",
          "name": "_identityStorage",
          "type": "address"
        }
      ],
      "name": "IdentityStorageSet",
      "type": "event"
    },
    {
      "anonymous": false,
      "inputs": [
        {
          "indexed": true,
          "internalType": "address",
          "name": "sender",
          "type": "address"
        },
        {
          "indexed": true,
          "internalType": "contract IIdentity",
          "name": "_oldIdentity",
          "type": "address"
        },
        {
          "indexed": true,
          "internalType": "contract IIdentity",
          "name": "_newIdentity",
          "type": "address"
        }
      ],
      "name": "IdentityUpdated",
      "type": "event"
    },
    {
      "anonymous": false,
      "inputs": [
        {
          "indexed": false,
          "internalType": "uint64",
          "name": "version",
          "type": "uint64"
        }
      ],
      "name": "Initialized",
      "type": "event"
    },
    {
      "anonymous": false,
      "inputs": [
        {
          "indexed": true,
          "internalType": "bytes32",
          "name": "role",
          "type": "bytes32"
        },
        {
          "indexed": true,
          "internalType": "bytes32",
          "name": "previousAdminRole",
          "type": "bytes32"
        },
        {
          "indexed": true,
          "internalType": "bytes32",
          "name": "newAdminRole",
          "type": "bytes32"
        }
      ],
      "name": "RoleAdminChanged",
      "type": "event"
    },
    {
      "anonymous": false,
      "inputs": [
        {
          "indexed": true,
          "internalType": "bytes32",
          "name": "role",
          "type": "bytes32"
        },
        {
          "indexed": true,
          "internalType": "address",
          "name": "account",
          "type": "address"
        },
        {
          "indexed": true,
          "internalType": "address",
          "name": "sender",
          "type": "address"
        }
      ],
      "name": "RoleGranted",
      "type": "event"
    },
    {
      "anonymous": false,
      "inputs": [
        {
          "indexed": true,
          "internalType": "bytes32",
          "name": "role",
          "type": "bytes32"
        },
        {
          "indexed": true,
          "internalType": "address",
          "name": "account",
          "type": "address"
        },
        {
          "indexed": true,
          "internalType": "address",
          "name": "sender",
          "type": "address"
        }
      ],
      "name": "RoleRevoked",
      "type": "event"
    },
    {
      "anonymous": false,
      "inputs": [
        {
          "indexed": true,
          "internalType": "address",
          "name": "sender",
          "type": "address"
        },
        {
          "indexed": true,
          "internalType": "address",
          "name": "_trustedIssuersRegistry",
          "type": "address"
        }
      ],
      "name": "TrustedIssuersRegistrySet",
      "type": "event"
    },
    {
      "anonymous": false,
      "inputs": [
        {
          "indexed": true,
          "internalType": "address",
          "name": "implementation",
          "type": "address"
        }
      ],
      "name": "Upgraded",
      "type": "event"
    },
    {
      "inputs": [],
      "name": "DEFAULT_ADMIN_ROLE",
      "outputs": [
        {
          "internalType": "bytes32",
          "name": "",
          "type": "bytes32"
        }
      ],
      "stateMutability": "view",
      "type": "function"
    },
    {
      "inputs": [],
      "name": "REGISTRAR_ROLE",
      "outputs": [
        {
          "internalType": "bytes32",
          "name": "",
          "type": "bytes32"
        }
      ],
      "stateMutability": "view",
      "type": "function"
    },
    {
      "inputs": [],
      "name": "UPGRADE_INTERFACE_VERSION",
      "outputs": [
        {
          "internalType": "string",
          "name": "",
          "type": "string"
        }
      ],
      "stateMutability": "view",
      "type": "function"
    },
    {
      "inputs": [
        {
          "internalType": "address[]",
          "name": "_userAddresses",
          "type": "address[]"
        },
        {
          "internalType": "contract IIdentity[]",
          "name": "_identities",
          "type": "address[]"
        },
        {
          "internalType": "uint16[]",
          "name": "_countries",
          "type": "uint16[]"
        }
      ],
      "name": "batchRegisterIdentity",
      "outputs": [],
      "stateMutability": "nonpayable",
      "type": "function"
    },
    {
      "inputs": [
        {
          "internalType": "address",
          "name": "_userAddress",
          "type": "address"
        }
      ],
      "name": "contains",
      "outputs": [
        {
          "internalType": "bool",
          "name": "",
          "type": "bool"
        }
      ],
      "stateMutability": "view",
      "type": "function"
    },
    {
      "inputs": [
        {
          "internalType": "address",
          "name": "_userAddress",
          "type": "address"
        }
      ],
      "name": "deleteIdentity",
      "outputs": [],
      "stateMutability": "nonpayable",
      "type": "function"
    },
    {
      "inputs": [
        {
          "internalType": "bytes32",
          "name": "role",
          "type": "bytes32"
        }
      ],
      "name": "getRoleAdmin",
      "outputs": [
        {
          "internalType": "bytes32",
          "name": "",
          "type": "bytes32"
        }
      ],
      "stateMutability": "view",
      "type": "function"
    },
    {
      "inputs": [
        {
          "internalType": "bytes32",
          "name": "role",
          "type": "bytes32"
        },
        {
          "internalType": "uint256",
          "name": "index",
          "type": "uint256"
        }
      ],
      "name": "getRoleMember",
      "outputs": [
        {
          "internalType": "address",
          "name": "",
          "type": "address"
        }
      ],
      "stateMutability": "view",
      "type": "function"
    },
    {
      "inputs": [
        {
          "internalType": "bytes32",
          "name": "role",
          "type": "bytes32"
        }
      ],
      "name": "getRoleMemberCount",
      "outputs": [
        {
          "internalType": "uint256",
          "name": "",
          "type": "uint256"
        }
      ],
      "stateMutability": "view",
      "type": "function"
    },
    {
      "inputs": [
        {
          "internalType": "bytes32",
          "name": "role",
          "type": "bytes32"
        }
      ],
      "name": "getRoleMembers",
      "outputs": [
        {
          "internalType": "address[]",
          "name": "",
          "type": "address[]"
        }
      ],
      "stateMutability": "view",
      "type": "function"
    },
    {
      "inputs": [
        {
          "internalType": "bytes32",
          "name": "role",
          "type": "bytes32"
        },
        {
          "internalType": "address",
          "name": "account",
          "type": "address"
        }
      ],
      "name": "grantRole",
      "outputs": [],
      "stateMutability": "nonpayable",
      "type": "function"
    },
    {
      "inputs": [
        {
          "internalType": "bytes32",
          "name": "role",
          "type": "bytes32"
        },
        {
          "internalType": "address",
          "name": "account",
          "type": "address"
        }
      ],
      "name": "hasRole",
      "outputs": [
        {
          "internalType": "bool",
          "name": "",
          "type": "bool"
        }
      ],
      "stateMutability": "view",
      "type": "function"
    },
    {
      "inputs": [
        {
          "internalType": "address",
          "name": "_userAddress",
          "type": "address"
        }
      ],
      "name": "identity",
      "outputs": [
        {
          "internalType": "contract IIdentity",
          "name": "",
          "type": "address"
        }
      ],
      "stateMutability": "view",
      "type": "function"
    },
    {
      "inputs": [],
      "name": "identityStorage",
      "outputs": [
        {
          "internalType": "contract IERC3643IdentityRegistryStorage",
          "name": "",
          "type": "address"
        }
      ],
      "stateMutability": "view",
      "type": "function"
    },
    {
      "inputs": [
        {
          "internalType": "address",
          "name": "initialAdmin",
          "type": "address"
        },
        {
          "internalType": "address",
          "name": "identityStorage_",
          "type": "address"
        },
        {
          "internalType": "address",
          "name": "trustedIssuersRegistry_",
          "type": "address"
        }
      ],
      "name": "initialize",
      "outputs": [],
      "stateMutability": "nonpayable",
      "type": "function"
    },
    {
      "inputs": [
        {
          "internalType": "address",
          "name": "_userAddress",
          "type": "address"
        }
      ],
      "name": "investorCountry",
      "outputs": [
        {
          "internalType": "uint16",
          "name": "",
          "type": "uint16"
        }
      ],
      "stateMutability": "view",
      "type": "function"
    },
    {
      "inputs": [
        {
          "internalType": "address",
          "name": "forwarder",
          "type": "address"
        }
      ],
      "name": "isTrustedForwarder",
      "outputs": [
        {
          "internalType": "bool",
          "name": "",
          "type": "bool"
        }
      ],
      "stateMutability": "view",
      "type": "function"
    },
    {
      "inputs": [
        {
          "internalType": "address",
          "name": "_userAddress",
          "type": "address"
        },
        {
          "internalType": "uint256[]",
          "name": "requiredClaimTopics",
          "type": "uint256[]"
        }
      ],
      "name": "isVerified",
      "outputs": [
        {
          "internalType": "bool",
          "name": "",
          "type": "bool"
        }
      ],
      "stateMutability": "view",
      "type": "function"
    },
    {
      "inputs": [],
      "name": "issuersRegistry",
      "outputs": [
        {
          "internalType": "contract IERC3643TrustedIssuersRegistry",
          "name": "",
          "type": "address"
        }
      ],
      "stateMutability": "view",
      "type": "function"
    },
    {
      "inputs": [],
      "name": "proxiableUUID",
      "outputs": [
        {
          "internalType": "bytes32",
          "name": "",
          "type": "bytes32"
        }
      ],
      "stateMutability": "view",
      "type": "function"
    },
    {
      "inputs": [
        {
          "internalType": "address",
          "name": "_userAddress",
          "type": "address"
        },
        {
          "internalType": "contract IIdentity",
          "name": "_identity",
          "type": "address"
        },
        {
          "internalType": "uint16",
          "name": "_country",
          "type": "uint16"
        }
      ],
      "name": "registerIdentity",
      "outputs": [],
      "stateMutability": "nonpayable",
      "type": "function"
    },
    {
      "inputs": [
        {
          "internalType": "bytes32",
          "name": "role",
          "type": "bytes32"
        },
        {
          "internalType": "address",
          "name": "callerConfirmation",
          "type": "address"
        }
      ],
      "name": "renounceRole",
      "outputs": [],
      "stateMutability": "nonpayable",
      "type": "function"
    },
    {
      "inputs": [
        {
          "internalType": "bytes32",
          "name": "role",
          "type": "bytes32"
        },
        {
          "internalType": "address",
          "name": "account",
          "type": "address"
        }
      ],
      "name": "revokeRole",
      "outputs": [],
      "stateMutability": "nonpayable",
      "type": "function"
    },
    {
      "inputs": [
        {
          "internalType": "address",
          "name": "identityStorage_",
          "type": "address"
        }
      ],
      "name": "setIdentityRegistryStorage",
      "outputs": [],
      "stateMutability": "nonpayable",
      "type": "function"
    },
    {
      "inputs": [
        {
          "internalType": "address",
          "name": "trustedIssuersRegistry_",
          "type": "address"
        }
      ],
      "name": "setTrustedIssuersRegistry",
      "outputs": [],
      "stateMutability": "nonpayable",
      "type": "function"
    },
    {
      "inputs": [
        {
          "internalType": "bytes4",
          "name": "interfaceId",
          "type": "bytes4"
        }
      ],
      "name": "supportsInterface",
      "outputs": [
        {
          "internalType": "bool",
          "name": "",
          "type": "bool"
        }
      ],
      "stateMutability": "view",
      "type": "function"
    },
    {
      "inputs": [],
      "name": "trustedForwarder",
      "outputs": [
        {
          "internalType": "address",
          "name": "",
          "type": "address"
        }
      ],
      "stateMutability": "view",
      "type": "function"
    },
    {
      "inputs": [
        {
          "internalType": "address",
          "name": "_userAddress",
          "type": "address"
        },
        {
          "internalType": "uint16",
          "name": "_country",
          "type": "uint16"
        }
      ],
      "name": "updateCountry",
      "outputs": [],
      "stateMutability": "nonpayable",
      "type": "function"
    },
    {
      "inputs": [
        {
          "internalType": "address",
          "name": "_userAddress",
          "type": "address"
        },
        {
          "internalType": "contract IIdentity",
          "name": "_identity",
          "type": "address"
        }
      ],
      "name": "updateIdentity",
      "outputs": [],
      "stateMutability": "nonpayable",
      "type": "function"
    },
    {
      "inputs": [
        {
          "internalType": "address",
          "name": "newImplementation",
          "type": "address"
        },
        {
          "internalType": "bytes",
          "name": "data",
          "type": "bytes"
        }
      ],
      "name": "upgradeToAndCall",
      "outputs": [],
      "stateMutability": "payable",
      "type": "function"
    }
  ],
  "bytecode": "0x60c03461014c57601f6125d938819003918201601f19168301916001600160401b038311848410176101515780849260209460405283398101031261014c57516001600160a01b038116810361014c576080523060a0527ff0c57e16840df040f15088dc2f81fe391c3923bec73e23a9662efc9c229c6a005460ff8160401c1661013b576002600160401b03196001600160401b038216016100d2575b60405161247190816101688239608051818181610c7d01528181610eb30152611e56015260a051818181610efa0152610fca0152f35b6001600160401b0319166001600160401b039081177ff0c57e16840df040f15088dc2f81fe391c3923bec73e23a9662efc9c229c6a00556040519081527fc7f505b2f371ae2175ee4913f4499e1f2633a7b5936321eed1cdaeb6115181d290602090a13861009c565b63f92ee8a960e01b60005260046000fd5b600080fd5b634e487b7160e01b600052604160045260246000fdfe608080604052600436101561001357600080fd5b600090813560e01c90816301ffc9a71461144557508063248a9ca31461141e57806326d941ae146113965780632f2ff15d1461136457806336568abe1461130f5780633b239a7f146111e0578063454a03e01461119b5780634f1ef28614610f4f57806352d1902d14610ee7578063572b6c0514610e925780635dbe47e814610e6e578063653dc9f114610d4e5780637a76ac7814610cac5780637da0a87714610c675780637e42683b14610b675780638e098ca1146109b45780639010d07c1461096157806391d1485414610908578063a217fddf146108ec578063a3246ad31461082f578063a8d29d1d14610694578063ad3cb1cc14610647578063b4f3fcb71461061e578063c0c53b8b1461035b578063ca15c87314610324578063d547741f146102e9578063e744d7891461025f578063f0eb5e54146101bd578063f11abfd8146101965763f68e95531461016b57600080fd5b3461019357806003193601126101935760206040516000805160206123fc8339815191528152f35b80fd5b5034610193578060031936011261019357546040516001600160a01b039091168152602090f35b5034610193576020366003190112610193576101d76114b4565b8154604051637988d3a560e01b81526001600160a01b0392831660048201529160209183916024918391165afa9081156102545760209291610227575b506040516001600160a01b039091168152f35b6102479150823d841161024d575b61023f81836114e5565b8101906115ff565b38610214565b503d610235565b6040513d84823e3d90fd5b5034610193576020366003190112610193576102796114b4565b610281611b3f565b6001600160a01b031680156102da57600180546001600160a01b031916821790556001600160a01b036102b2611e53565b167f7ec3793f0e267d1612c4a7fb68844d126c179c3a64da837c4e2952b27bcb9d308380a380f35b637bfd2e8360e01b8252600482fd5b5034610193576040366003190112610193576103206004356103096114cf565b9061031b610316826115c6565b611c29565b611cd4565b5080f35b5034610193576020366003190112610193576040602091600435815260008051602061239c83398151915283522054604051908152f35b5034610193576060366003190112610193576103756114b4565b61037d6114cf565b6044356001600160a01b038116929083900361061a5760008051602061241c833981519152549160ff8360401c1615926001600160401b03811680159081610612575b6001149081610608575b1590816105ff575b506105f05767ffffffffffffffff19811660011760008051602061241c83398151915255836105c3575b506104056121cc565b61040e82611ec2565b610590575b61041b6121cc565b6001600160a01b03169081156105815783156105725761043a81611f88565b610531575b5083546001600160a01b031916811784556001600160a01b03610460611e53565b167f06ac29c7967f16f84307d77e8e8961d6f064f072486dc83f5b7ebd0ba878485e8580a3600180546001600160a01b031916831790556001600160a01b036104a7611e53565b1691604051927f7ec3793f0e267d1612c4a7fb68844d126c179c3a64da837c4e2952b27bcb9d308580a36104d9575080f35b60207fc7f505b2f371ae2175ee4913f4499e1f2633a7b5936321eed1cdaeb6115181d29168ff00000000000000001960008051602061241c833981519152541660008051602061241c8339815191525560018152a180f35b6000805160206123fc833981519152855260008051602061239c8339815191526020526040852061056b916001600160a01b0316906121fa565b503861043f565b637bfd2e8360e01b8552600485fd5b63f359d7f760e01b8552600485fd5b84805260008051602061239c833981519152602052604085206105bd906001600160a01b038416906121fa565b50610413565b68ffffffffffffffffff1916680100000000000000011760008051602061241c83398151915255386103fc565b63f92ee8a960e01b8652600486fd5b905015386103d2565b303b1591506103ca565b8591506103c0565b8380fd5b50346101935780600319360112610193576001546040516001600160a01b039091168152602090f35b50346101935780600319360112610193575061069060405161066a6040826114e5565b60058152640352e302e360dc1b60208201526040519182916020835260208301906115a1565b0390f35b5034610193576020366003190112610193576106ae6114b4565b6106b6611bab565b604051630bb7c8fd60e31b81526001600160a01b039091166004820181905290602081602481305afa9081156108245783916107f5575b50156107e3578154604051637988d3a560e01b815260048101839052919083906001600160a01b0316602084602481845afa9384156102545782946107c2575b50803b156107be5781809160246040518094819363cf191bcd60e01b83528860048401525af18015610254576107a5575b506001600160a01b039050610771611e53565b6001600160a01b0390931692167fe08c9a3c1d21f02066d00c9f7a9b2423a12b17569c3bc0cb4e84ca48d38e4a568480a480f35b816107af916114e5565b6107ba57823861075e565b8280fd5b5080fd5b6107dc91945060203d60201161024d5761023f81836114e5565b923861072d565b63fa9b64eb60e01b8252600452602490fd5b610817915060203d60201161081d575b61080f81836114e5565b8101906115e7565b386106ed565b503d610805565b6040513d85823e3d90fd5b503461019357602036600319011261019357600435815260008051602061239c83398151915260205260408120604051908160208254918281520190819285526020852090855b8181106108d6575050508261088c9103836114e5565b604051928392602084019060208552518091526040840192915b8181106108b4575050500390f35b82516001600160a01b03168452859450602093840193909201916001016108a6565b8254845260209093019260019283019201610876565b5034610193578060031936011261019357602090604051908152f35b50346101935760403660031901126101935760406109246114cf565b9160043581526000805160206123dc833981519152602052209060018060a01b0316600052602052602060ff604060002054166040519015158152f35b50346101935760403660031901126101935761099b602091600435815260008051602061239c8339815191528352604060243591206121b4565b905460405160039290921b1c6001600160a01b03168152f35b5034610193576040366003190112610193576109ce6114b4565b6109d66114cf565b6109de611bab565b604051630bb7c8fd60e31b81526001600160a01b039092166004830181905291602081602481305afa908115610b5c578491610b3d575b5015610b29576001600160a01b0316908115610b1a578254604051637988d3a560e01b8152600481018390529184916001600160a01b031690602084602481855afa938415610824578394610af9575b50813b156107ba578291604483926040519485938492637402e7c360e11b845260048401528960248401525af1801561025457610ae4575b506001600160a01b039050610ab0611e53565b6001600160a01b0390921691167f9e8fe855fb89edef1315cb1d05f3b5e083450023e05286452fe6bee9179aca8c8480a480f35b81610aee916114e5565b6107ba578238610a9d565b610b1391945060203d60201161024d5761023f81836114e5565b9238610a65565b63a28c79a960e01b8352600483fd5b63fa9b64eb60e01b83526004829052602483fd5b610b56915060203d60201161081d5761080f81836114e5565b38610a15565b6040513d86823e3d90fd5b503461019357602036600319011261019357610b816114b4565b604051630bb7c8fd60e31b81526001600160a01b039091166004820181905290602081602481305afa908115610824578391610c48575b50156107e3578154604051631c9f84ef60e21b81526004810192909252602090829060249082906001600160a01b03165afa908115610254578291610c07575b60208261ffff60405191168152f35b90506020813d602011610c40575b81610c22602093836114e5565b810103126107be575161ffff811681036107be576020915038610bf8565b3d9150610c15565b610c61915060203d60201161081d5761080f81836114e5565b38610bb8565b50346101935780600319360112610193576040517f00000000000000000000000000000000000000000000000000000000000000006001600160a01b03168152602090f35b503461019357604036600319011261019357610cc66114b4565b90602435916001600160401b0383116107be57366023840112156107be57826004013590610cf382611567565b91610d0160405193846114e5565b8083526024602084019160051b860101933685116101935750602460209501905b848210610d3f575050610d35925061170d565b6040519015158152f35b81358152908501908501610d22565b5034610193576060366003190112610193576004356001600160401b0381116107be57610d7f903690600401611537565b6024356001600160401b03811161061a57610d9e903690600401611537565b6044356001600160401b038111610e6a57610dbd903690600401611537565b919093610dc8611bab565b81811480610e61575b15610e5257865b818110610de3578780f35b610dee81838961167f565b35906001600160a01b0382168203610e4e57610e0b81858861167f565b35916001600160a01b0383168303610e4a57610e2882878a61167f565b3561ffff81168103610e4657600193610e4092611d18565b01610dd8565b8a80fd5b8980fd5b8880fd5b63512509d360e11b8752600487fd5b50828214610dd1565b8580fd5b5034610193576020366003190112610193576020610d35610e8d6114b4565b61161e565b5034610193576020366003190112610193576020610eae6114b4565b6040517f00000000000000000000000000000000000000000000000000000000000000006001600160a01b039081169216919091148152f35b50346101935780600319360112610193577f00000000000000000000000000000000000000000000000000000000000000006001600160a01b03163003610f405760206040516000805160206123bc8339815191528152f35b63703e46dd60e11b8152600490fd5b50604036600319011261019357610f646114b4565b602435906001600160401b0382116107ba57366023830112156107ba5781600401359083610f918361151c565b93610f9f60405195866114e5565b838552602085019336602482840101116107ba57806024602093018637850101526001600160a01b037f000000000000000000000000000000000000000000000000000000000000000016308114908115611178575b5061116957611002611b3f565b6040516352d1902d60e01b81526001600160a01b0382169390602081600481885afa869181611131575b5061104557634c9c8ce360e01b86526004859052602486fd5b93846000805160206123bc83398151915287960361111f5750823b1561110d576000805160206123bc83398151915280546001600160a01b031916821790558491907fbc7cd75a20ee27fd9adebab32041f755214dbc6bffa90cc0225b39da2e5c2d3b8380a28051156110f2576103209382915190845af43d156110ea573d916110ce8361151c565b926110dc60405194856114e5565b83523d85602085013e61233a565b60609161233a565b50505050346110fe5780f35b63b398979f60e01b8152600490fd5b634c9c8ce360e01b8552600452602484fd5b632a87526960e21b8652600452602485fd5b9091506020813d602011611161575b8161114d602093836114e5565b8101031261115d5751903861102c565b8680fd5b3d9150611140565b63703e46dd60e11b8452600484fd5b6000805160206123bc833981519152546001600160a01b03161415905038610ff5565b5034610193576060366003190112610193576111b56114b4565b6111bd6114cf565b6044359061ffff8216820361061a576111dd926111d8611bab565b611d18565b80f35b5034610193576040366003190112610193576111fa6114b4565b6024359061ffff82168092036107ba57611212611bab565b604051630bb7c8fd60e31b81526001600160a01b039091166004820181905290602081602481305afa908115610b5c5784916112f0575b50156112de57825483906001600160a01b0316803b156107be578190604460405180948193639f3418d560e01b83528760048401528860248401525af18015610b5c576112ca575b506001600160a01b036112a2611e53565b167fcac7061b6cbeaa6b9ac84616fd7af5e7d0e57e1b4b028d18261698d29a5054ba8480a480f35b836112d7919492946114e5565b9138611291565b63fa9b64eb60e01b8352600452602482fd5b611309915060203d60201161081d5761080f81836114e5565b38611249565b5034610193576040366003190112610193576113296114cf565b6001600160a01b03611339611e53565b166001600160a01b038216036113555761032090600435611cd4565b63334bd91960e11b8252600482fd5b5034610193576040366003190112610193576103206004356113846114cf565b90611391610316826115c6565b611c8c565b5034610193576020366003190112610193576113b06114b4565b6113b8611b3f565b6001600160a01b0316801561140f5781546001600160a01b031916811782556001600160a01b036113e7611e53565b167f06ac29c7967f16f84307d77e8e8961d6f064f072486dc83f5b7ebd0ba878485e8380a380f35b63f359d7f760e01b8252600482fd5b503461019357602036600319011261019357602061143d6004356115c6565b604051908152f35b9050346107be5760203660031901126107be5760043563ffffffff60e01b81168091036107ba5760209250635a05180f60e01b8114908115611489575b5015158152f35b637965db0b60e01b8114915081156114a3575b5038611482565b6301ffc9a760e01b1490503861149c565b600435906001600160a01b03821682036114ca57565b600080fd5b602435906001600160a01b03821682036114ca57565b90601f801991011681019081106001600160401b0382111761150657604052565b634e487b7160e01b600052604160045260246000fd5b6001600160401b03811161150657601f01601f191660200190565b9181601f840112156114ca578235916001600160401b0383116114ca576020808501948460051b0101116114ca57565b6001600160401b0381116115065760051b60200190565b60005b8381106115915750506000910152565b8181015183820152602001611581565b906020916115ba8151809281855285808601910161157e565b601f01601f1916010190565b6000526000805160206123dc83398151915260205260016040600020015490565b908160209103126114ca575180151581036114ca5790565b908160209103126114ca57516001600160a01b03811681036114ca5790565b600054604051637988d3a560e01b81526001600160a01b0392831660048201529160209183916024918391165afa9081611662575b5061165d57600090565b600190565b61167a9060203d60201161024d5761023f81836114e5565b611653565b919081101561168f5760051b0190565b634e487b7160e01b600052603260045260246000fd5b805182101561168f5760209160051b010190565b909291926116c68161151c565b916116d460405193846114e5565b8294828452828201116114ca5760206116ee93019061157e565b565b9080601f830112156114ca57815161170a926020016116b9565b90565b604051630bb7c8fd60e31b81526001600160a01b039091166004820181905290602081602481305afa908115611b0657600091611b20575b5015611b1957815115611b1257600054604051637988d3a560e01b81526004810192909252602090829060249082906001600160a01b03165afa908115611b0657600091611ae7575b50600154600091906001600160a01b03165b8351831015611ade576117b383856116a5565b51908115611ad357600094604051916352c111d160e01b83528360048401528683602481845afa928315611ac8578793611a21575b50865b8351811015611a15576001600160a01b0361180682866116a5565b51166040516020810190828252876040820152604081526118286060826114e5565b51902060405163c9100bcb60e01b81526004810191909152906001600160a01b038816600083602481845afa90600091828184968593611960575b50611878575050505050506001905b016117eb565b6001600160a01b0316841480611957575b61189b575b5050505050600190611872565b91602093916118e96118d796946040519788968795869563604b4d3760e11b8752600487015260248601526080604486015260848501906115a1565b838103600319016064850152906115a1565b03915afa60009181611937575b506119045750600190611872565b6119135760013880808061188e565b5095509391505060015b1561192e576001905b0191926117a0565b50505050600090565b61195091925060203d811161081d5761080f81836114e5565b90386118f6565b50898314611889565b96509150503d8084873e61197481876114e5565b85019260c0868503126101935785516040870151946001600160a01b03861686036107ba5760608801516001600160401b03811161061a57816119b8918a016116f0565b9260808901516001600160401b0381116107be57826119d8918b016116f0565b9860a0810151906001600160401b0382116107ba57019082601f8301121561019357508051611a0a92916020016116b9565b509390959138611863565b5095915093915061191d565b9092503d8088833e611a3381836114e5565b810190602081830312611ac4578051906001600160401b038211610e4e57019080601f83011215611ac457815190611a6a82611567565b92611a7860405194856114e5565b82845260208085019360051b820101918211610e4a57602001915b818310611aa45750505091386117e8565b82516001600160a01b0381168103610e4657815260209283019201611a93565b8780fd5b6040513d89823e3d90fd5b939260019150611926565b50505050600190565b611b00915060203d60201161024d5761023f81836114e5565b3861178e565b6040513d6000823e3d90fd5b5050600190565b5050600090565b611b39915060203d60201161081d5761080f81836114e5565b38611745565b611b47611e53565b6001600160a01b03811660009081527fb7db2dd08fcb62d0c9e08c51941cae53c267786a0b75803fb7960902fc8ef97d602052604090205460ff1615611b8a5750565b63e2517d3f60e01b60005260018060a01b0316600452600060245260446000fd5b611bb3611e53565b6001600160a01b03811660009081527f07966f2ab141347034724e9b2a472c2f77f5cd745aeba27cacba797b8fcb7086602052604090205460ff1615611bf65750565b63e2517d3f60e01b60009081526001600160a01b03919091166004526000805160206123fc833981519152602452604490fd5b611c31611e53565b816000526000805160206123dc833981519152602052604060002060018060a01b03821660005260205260ff6040600020541615611c6d575050565b63e2517d3f60e01b60005260018060a01b031660045260245260446000fd5b611c968282612056565b9182611ca157505090565b600091825260008051602061239c8339815191526020526040909120611cd0916001600160a01b0316906121fa565b5090565b611cde8282612106565b9182611ce957505090565b600091825260008051602061239c8339815191526020526040909120611cd0916001600160a01b031690612270565b6001600160a01b0316906000908215611e44576001600160a01b0316928315611e3557604051630bb7c8fd60e31b815260048101849052602081602481305afa908115610824578391611e16575b50611e035781546001600160a01b031690813b156107ba5761ffff6064849283604051958694859363a53410dd60e01b85528a60048601528b60248601521660448401525af18015610254578290611df3575b507f8496217326c6eb20676e25071094a44135f09bfe491de757a3332dd8a433a3e590506001600160a01b03611ded611e53565b169180a4565b611dfc916114e5565b3881611db9565b506024916345052f4560e01b8252600452fd5b611e2f915060203d60201161081d5761080f81836114e5565b38611d66565b63a28c79a960e01b8252600482fd5b630702b3d960e41b8252600482fd5b337f00000000000000000000000000000000000000000000000000000000000000006001600160a01b03161480611eb7575b15611eb3576013193601368111611e9d573560601c90565b634e487b7160e01b600052601160045260246000fd5b3390565b506014361015611e85565b6001600160a01b03811660009081527fb7db2dd08fcb62d0c9e08c51941cae53c267786a0b75803fb7960902fc8ef97d602052604090205460ff16611f82576001600160a01b0381811660009081527fb7db2dd08fcb62d0c9e08c51941cae53c267786a0b75803fb7960902fc8ef97d60205260409020805460ff19166001179055611f4c611e53565b16906001600160a01b031660007f2f8788117e7eff1d82e926ec794901d17c78024a50270940304540a733656f0d8180a4600190565b50600090565b6001600160a01b03811660009081527f07966f2ab141347034724e9b2a472c2f77f5cd745aeba27cacba797b8fcb7086602052604090205460ff16611f82576001600160a01b0381811660009081527f07966f2ab141347034724e9b2a472c2f77f5cd745aeba27cacba797b8fcb708660205260409020805460ff19166001179055612012611e53565b16906001600160a01b03166000805160206123fc8339815191527f2f8788117e7eff1d82e926ec794901d17c78024a50270940304540a733656f0d600080a4600190565b60008181526000805160206123dc833981519152602090815260408083206001600160a01b038616845290915290205460ff16611b195760008181526000805160206123dc833981519152602090815260408083206001600160a01b0386811685529252909120805460ff191660011790556120d0611e53565b16916001600160a01b0316907f2f8788117e7eff1d82e926ec794901d17c78024a50270940304540a733656f0d600080a4600190565b60008181526000805160206123dc833981519152602090815260408083206001600160a01b038616845290915290205460ff1615611b195760008181526000805160206123dc833981519152602090815260408083206001600160a01b0386811685529252909120805460ff1916905561217e611e53565b16916001600160a01b0316907ff6391f5c32d9c69d2a47ea670b442974b53935d1edc7fd64eb21e047a839171b600080a4600190565b805482101561168f5760005260206000200190600090565b60ff60008051602061241c8339815191525460401c16156121e957565b631afcd79f60e31b60005260046000fd5b6001810190826000528160205260406000205415600014612268578054680100000000000000008110156115065761225361223c8260018794018555846121b4565b819391549060031b91821b91600019901b19161790565b90555491600052602052604060002055600190565b505050600090565b906001820191816000528260205260406000205480151560001461192e576000198101818111611e9d578254600019810191908211611e9d57818103612303575b505050805480156122ed5760001901906122cb82826121b4565b8154906000199060031b1b191690555560005260205260006040812055600190565b634e487b7160e01b600052603160045260246000fd5b61232361231361223c93866121b4565b90549060031b1c928392866121b4565b9055600052836020526040600020553880806122b1565b90612360575080511561234f57805190602001fd5b63d6bda27560e01b60005260046000fd5b81511580612392575b612371575090565b639996b31560e01b60009081526001600160a01b0391909116600452602490fd5b50803b1561236956fec1f6fe24621ce81ec5827caf0253cadb74709b061630e6b55e82371705932000360894a13ba1a3210667c828492db98dca3e2076cc3735a920a3ca505d382bbc02dd7bc7dec4dceedda775e58dd541e08a116c6c53815c0bd028192f7b626800edcc084d3dcd65a1f7f23c65c46722faca6953d28e43150a467cf43e5c309238f0c57e16840df040f15088dc2f81fe391c3923bec73e23a9662efc9c229c6a00a26469706673582212208686ec7097c7cd5b1002506c7a09287b1e9e4366dacff76f335789f24afa68cc64736f6c634300081c0033",
  "linkReferences": {},
  "deployedLinkReferences": {}
}