{
  "_format": "hh-sol-artifact-1",
  "contractName": "ATKTopicSchemeRegistryImplementation",
  "sourceName": "contracts/system/topic-scheme-registry/ATKTopicSchemeRegistryImplementation.sol",
  "abi": [
    {
      "inputs": [
        {
          "internalType": "address",
          "name": "trustedForwarder",
          "type": "address"
        }
      ],
      "stateMutability": "nonpayable",
      "type": "constructor"
    },
    {
      "inputs": [],
      "name": "AccessControlBadConfirmation",
      "type": "error"
    },
    {
      "inputs": [
        {
          "internalType": "address",
          "name": "account",
          "type": "address"
        },
        {
          "internalType": "bytes32",
          "name": "neededRole",
          "type": "bytes32"
        }
      ],
      "name": "AccessControlUnauthorizedAccount",
      "type": "error"
    },
    {
      "inputs": [
        {
          "internalType": "uint256",
          "name": "namesLength",
          "type": "uint256"
        },
        {
          "internalType": "uint256",
          "name": "signaturesLength",
          "type": "uint256"
        }
      ],
      "name": "ArrayLengthMismatch",
      "type": "error"
    },
    {
      "inputs": [],
      "name": "EmptyArraysProvided",
      "type": "error"
    },
    {
      "inputs": [],
      "name": "EmptyName",
      "type": "error"
    },
    {
      "inputs": [],
      "name": "EmptySignature",
      "type": "error"
    },
    {
      "inputs": [],
      "name": "InvalidInitialization",
      "type": "error"
    },
    {
      "inputs": [],
      "name": "NotInitializing",
      "type": "error"
    },
    {
      "inputs": [
        {
          "internalType": "string",
          "name": "name",
          "type": "string"
        },
        {
          "internalType": "string",
          "name": "signature",
          "type": "string"
        }
      ],
      "name": "SignatureUnchanged",
      "type": "error"
    },
    {
      "inputs": [
        {
          "internalType": "uint256",
          "name": "topicId",
          "type": "uint256"
        }
      ],
      "name": "TopicIdNotFoundInArray",
      "type": "error"
    },
    {
      "inputs": [
        {
          "internalType": "string",
          "name": "name",
          "type": "string"
        }
      ],
      "name": "TopicSchemeAlreadyExists",
      "type": "error"
    },
    {
      "inputs": [
        {
          "internalType": "uint256",
          "name": "topicId",
          "type": "uint256"
        }
      ],
      "name": "TopicSchemeDoesNotExist",
      "type": "error"
    },
    {
      "inputs": [
        {
          "internalType": "string",
          "name": "name",
          "type": "string"
        }
      ],
      "name": "TopicSchemeDoesNotExistByName",
      "type": "error"
    },
    {
      "anonymous": false,
      "inputs": [
        {
          "indexed": false,
          "internalType": "uint64",
          "name": "version",
          "type": "uint64"
        }
      ],
      "name": "Initialized",
      "type": "event"
    },
    {
      "anonymous": false,
      "inputs": [
        {
          "indexed": true,
          "internalType": "bytes32",
          "name": "role",
          "type": "bytes32"
        },
        {
          "indexed": true,
          "internalType": "bytes32",
          "name": "previousAdminRole",
          "type": "bytes32"
        },
        {
          "indexed": true,
          "internalType": "bytes32",
          "name": "newAdminRole",
          "type": "bytes32"
        }
      ],
      "name": "RoleAdminChanged",
      "type": "event"
    },
    {
      "anonymous": false,
      "inputs": [
        {
          "indexed": true,
          "internalType": "bytes32",
          "name": "role",
          "type": "bytes32"
        },
        {
          "indexed": true,
          "internalType": "address",
          "name": "account",
          "type": "address"
        },
        {
          "indexed": true,
          "internalType": "address",
          "name": "sender",
          "type": "address"
        }
      ],
      "name": "RoleGranted",
      "type": "event"
    },
    {
      "anonymous": false,
      "inputs": [
        {
          "indexed": true,
          "internalType": "bytes32",
          "name": "role",
          "type": "bytes32"
        },
        {
          "indexed": true,
          "internalType": "address",
          "name": "account",
          "type": "address"
        },
        {
          "indexed": true,
          "internalType": "address",
          "name": "sender",
          "type": "address"
        }
      ],
      "name": "RoleRevoked",
      "type": "event"
    },
    {
      "anonymous": false,
      "inputs": [
        {
          "indexed": true,
          "internalType": "address",
          "name": "sender",
          "type": "address"
        },
        {
          "indexed": true,
          "internalType": "uint256",
          "name": "topicId",
          "type": "uint256"
        },
        {
          "indexed": false,
          "internalType": "string",
          "name": "name",
          "type": "string"
        },
        {
          "indexed": false,
          "internalType": "string",
          "name": "signature",
          "type": "string"
        }
      ],
      "name": "TopicSchemeRegistered",
      "type": "event"
    },
    {
      "anonymous": false,
      "inputs": [
        {
          "indexed": true,
          "internalType": "address",
          "name": "sender",
          "type": "address"
        },
        {
          "indexed": true,
          "internalType": "uint256",
          "name": "topicId",
          "type": "uint256"
        },
        {
          "indexed": false,
          "internalType": "string",
          "name": "name",
          "type": "string"
        }
      ],
      "name": "TopicSchemeRemoved",
      "type": "event"
    },
    {
      "anonymous": false,
      "inputs": [
        {
          "indexed": true,
          "internalType": "address",
          "name": "sender",
          "type": "address"
        },
        {
          "indexed": true,
          "internalType": "uint256",
          "name": "topicId",
          "type": "uint256"
        },
        {
          "indexed": false,
          "internalType": "string",
          "name": "name",
          "type": "string"
        },
        {
          "indexed": false,
          "internalType": "string",
          "name": "oldSignature",
          "type": "string"
        },
        {
          "indexed": false,
          "internalType": "string",
          "name": "newSignature",
          "type": "string"
        }
      ],
      "name": "TopicSchemeUpdated",
      "type": "event"
    },
    {
      "anonymous": false,
      "inputs": [
        {
          "indexed": true,
          "internalType": "address",
          "name": "sender",
          "type": "address"
        },
        {
          "indexed": false,
          "internalType": "uint256[]",
          "name": "topicIds",
          "type": "uint256[]"
        },
        {
          "indexed": false,
          "internalType": "string[]",
          "name": "names",
          "type": "string[]"
        },
        {
          "indexed": false,
          "internalType": "string[]",
          "name": "signatures",
          "type": "string[]"
        }
      ],
      "name": "TopicSchemesBatchRegistered",
      "type": "event"
    },
    {
      "inputs": [],
      "name": "DEFAULT_ADMIN_ROLE",
      "outputs": [
        {
          "internalType": "bytes32",
          "name": "",
          "type": "bytes32"
        }
      ],
      "stateMutability": "view",
      "type": "function"
    },
    {
      "inputs": [
        {
          "internalType": "string[]",
          "name": "names",
          "type": "string[]"
        },
        {
          "internalType": "string[]",
          "name": "signatures",
          "type": "string[]"
        }
      ],
      "name": "batchRegisterTopicSchemes",
      "outputs": [],
      "stateMutability": "nonpayable",
      "type": "function"
    },
    {
      "inputs": [],
      "name": "getAllTopicIds",
      "outputs": [
        {
          "internalType": "uint256[]",
          "name": "topicIds",
          "type": "uint256[]"
        }
      ],
      "stateMutability": "view",
      "type": "function"
    },
    {
      "inputs": [
        {
          "internalType": "bytes32",
          "name": "role",
          "type": "bytes32"
        }
      ],
      "name": "getRoleAdmin",
      "outputs": [
        {
          "internalType": "bytes32",
          "name": "",
          "type": "bytes32"
        }
      ],
      "stateMutability": "view",
      "type": "function"
    },
    {
      "inputs": [
        {
          "internalType": "string",
          "name": "name",
          "type": "string"
        }
      ],
      "name": "getTopicId",
      "outputs": [
        {
          "internalType": "uint256",
          "name": "topicId",
          "type": "uint256"
        }
      ],
      "stateMutability": "pure",
      "type": "function"
    },
    {
      "inputs": [],
      "name": "getTopicSchemeCount",
      "outputs": [
        {
          "internalType": "uint256",
          "name": "count",
          "type": "uint256"
        }
      ],
      "stateMutability": "view",
      "type": "function"
    },
    {
      "inputs": [
        {
          "internalType": "uint256",
          "name": "topicId",
          "type": "uint256"
        }
      ],
      "name": "getTopicSchemeSignature",
      "outputs": [
        {
          "internalType": "string",
          "name": "signature",
          "type": "string"
        }
      ],
      "stateMutability": "view",
      "type": "function"
    },
    {
      "inputs": [
        {
          "internalType": "string",
          "name": "name",
          "type": "string"
        }
      ],
      "name": "getTopicSchemeSignatureByName",
      "outputs": [
        {
          "internalType": "string",
          "name": "signature",
          "type": "string"
        }
      ],
      "stateMutability": "view",
      "type": "function"
    },
    {
      "inputs": [
        {
          "internalType": "bytes32",
          "name": "role",
          "type": "bytes32"
        },
        {
          "internalType": "address",
          "name": "account",
          "type": "address"
        }
      ],
      "name": "grantRole",
      "outputs": [],
      "stateMutability": "nonpayable",
      "type": "function"
    },
    {
      "inputs": [
        {
          "internalType": "bytes32",
          "name": "role",
          "type": "bytes32"
        },
        {
          "internalType": "address",
          "name": "account",
          "type": "address"
        }
      ],
      "name": "hasRole",
      "outputs": [
        {
          "internalType": "bool",
          "name": "",
          "type": "bool"
        }
      ],
      "stateMutability": "view",
      "type": "function"
    },
    {
      "inputs": [
        {
          "internalType": "uint256",
          "name": "topicId",
          "type": "uint256"
        }
      ],
      "name": "hasTopicScheme",
      "outputs": [
        {
          "internalType": "bool",
          "name": "exists",
          "type": "bool"
        }
      ],
      "stateMutability": "view",
      "type": "function"
    },
    {
      "inputs": [
        {
          "internalType": "string",
          "name": "name",
          "type": "string"
        }
      ],
      "name": "hasTopicSchemeByName",
      "outputs": [
        {
          "internalType": "bool",
          "name": "exists",
          "type": "bool"
        }
      ],
      "stateMutability": "view",
      "type": "function"
    },
    {
      "inputs": [
        {
          "internalType": "address",
          "name": "initialAdmin",
          "type": "address"
        },
        {
          "internalType": "address[]",
          "name": "initialRegistrars",
          "type": "address[]"
        }
      ],
      "name": "initialize",
      "outputs": [],
      "stateMutability": "nonpayable",
      "type": "function"
    },
    {
      "inputs": [
        {
          "internalType": "address",
          "name": "forwarder",
          "type": "address"
        }
      ],
      "name": "isTrustedForwarder",
      "outputs": [
        {
          "internalType": "bool",
          "name": "",
          "type": "bool"
        }
      ],
      "stateMutability": "view",
      "type": "function"
    },
    {
      "inputs": [
        {
          "internalType": "string",
          "name": "name",
          "type": "string"
        },
        {
          "internalType": "string",
          "name": "signature",
          "type": "string"
        }
      ],
      "name": "registerTopicScheme",
      "outputs": [],
      "stateMutability": "nonpayable",
      "type": "function"
    },
    {
      "inputs": [
        {
          "internalType": "string",
          "name": "name",
          "type": "string"
        }
      ],
      "name": "removeTopicScheme",
      "outputs": [],
      "stateMutability": "nonpayable",
      "type": "function"
    },
    {
      "inputs": [
        {
          "internalType": "bytes32",
          "name": "role",
          "type": "bytes32"
        },
        {
          "internalType": "address",
          "name": "callerConfirmation",
          "type": "address"
        }
      ],
      "name": "renounceRole",
      "outputs": [],
      "stateMutability": "nonpayable",
      "type": "function"
    },
    {
      "inputs": [
        {
          "internalType": "bytes32",
          "name": "role",
          "type": "bytes32"
        },
        {
          "internalType": "address",
          "name": "account",
          "type": "address"
        }
      ],
      "name": "revokeRole",
      "outputs": [],
      "stateMutability": "nonpayable",
      "type": "function"
    },
    {
      "inputs": [
        {
          "internalType": "bytes4",
          "name": "interfaceId",
          "type": "bytes4"
        }
      ],
      "name": "supportsInterface",
      "outputs": [
        {
          "internalType": "bool",
          "name": "",
          "type": "bool"
        }
      ],
      "stateMutability": "view",
      "type": "function"
    },
    {
      "inputs": [],
      "name": "trustedForwarder",
      "outputs": [
        {
          "internalType": "address",
          "name": "",
          "type": "address"
        }
      ],
      "stateMutability": "view",
      "type": "function"
    },
    {
      "inputs": [
        {
          "internalType": "string",
          "name": "name",
          "type": "string"
        },
        {
          "internalType": "string",
          "name": "newSignature",
          "type": "string"
        }
      ],
      "name": "updateTopicScheme",
      "outputs": [],
      "stateMutability": "nonpayable",
      "type": "function"
    }
  ],
  "bytecode": "0x60a03461011057601f611d8f38819003918201601f19168301916001600160401b038311848410176101145780849260209460405283398101031261011057516001600160a01b0381168103610110576080525f516020611d6f5f395f51905f525460ff8160401c16610101576002600160401b03196001600160401b038216016100ab575b604051611c4690816101298239608051818181610c58015281816110d10152611b4f0152f35b6001600160401b0319166001600160401b039081175f516020611d6f5f395f51905f52556040519081527fc7f505b2f371ae2175ee4913f4499e1f2633a7b5936321eed1cdaeb6115181d290602090a15f610085565b63f92ee8a960e01b5f5260045ffd5b5f80fd5b634e487b7160e01b5f52604160045260245ffdfe6080806040526004361015610012575f80fd5b5f3560e01c90816301ffc9a71461126257508063138309b7146111ff578063172a0ddb146111e2578063248a9ca3146111a35780632f2ff15d1461115957806336568abe14611105578063572b6c05146110b157806358280e9814610d6a5780636aa085eb14610cb85780636cc45eca14610c875780637da0a87714610c4357806391d1485414610bee578063946d9204146109ef578063a217fddf146109d5578063bd2716b51461096c578063c4456bda146108e0578063c6f1bf231461068f578063d547741f1461063e578063dafb0ca314610402578063e7a3d72b1461038b5763f263b66314610103575f80fd5b346103875761011136611402565b9161011d939193611769565b8015610378578215610369576040516020810190828483376101526020828581015f838201520301601f198101835282611397565b51902093845f525f60205260ff600260405f200154161561034457845f525f602052610183600160405f20016116cb565b93845160208601206101963683856114db565b602081519101201461032157855f525f602052600160405f20016001600160401b03821161030d576101d2826101cc8354611520565b8361156e565b5f601f831160011461028257917fb8a96f0d94f26765140c549819b353cecb77b033cb6e3098b0ce28f5059787ba959493916102278280610272965f91610277575b508160011b915f199060031b1c19161790565b90555b6102646001600160a01b0361023d611b4c565b16976102566040519788976060895260608901916114bb565b908682036020880152611358565b9184830360408601526114bb565b0390a3005b90508501355f610214565b601f19831690825f5260205f20915f5b8181106102f55750917fb8a96f0d94f26765140c549819b353cecb77b033cb6e3098b0ce28f5059787ba9796959391856102729694106102dc575b5050600182811b01905561022a565b8401355f19600385901b60f8161c191690555f806102cd565b9192602060018192868a013581550194019201610292565b634e487b7160e01b5f52604160045260245ffd5b60405163d38f72b360e01b81529283926103409291866004860161161c565b0390fd5b5061034060405192839263b6549bc360e01b84526020600485015260248401916114bb565b63ac241e1160e01b5f5260045ffd5b632ef1310560e01b5f5260045ffd5b5f80fd5b34610387576020366003190112610387576004356001600160401b038111610387576103bb9036906004016112cf565b6103e2602060405183819483830196873781015f838201520301601f198101835282611397565b5190205f525f602052602060ff600260405f200154166040519015158152f35b346103875761041036611402565b929161041a611769565b80156103785783156103695760405160208101908285833761044f6020828581015f838201520301601f198101835282611397565b51902092835f525f60205260ff600260405f2001541661061957604051946104768661137c565b8486526104843682866114db565b95602081019687526040810160018152865f525f60205260405f20915182556001820197519788516001600160401b03811161030d576104ce816104c88454611520565b8461156e565b6020601f8211600114610588579261027295949261052c83600294610545977f09e70994ce281f8a63bb36732f8d2df907074776eee02f8af110938bc4e477a59d9e9f5f9261057d575b50508160011b915f199060031b1c19161790565b90555b51151591019060ff801983541691151516179055565b61054e876115cb565b6001545f888152600260205260409020556001600160a01b0361056f611b4c565b16956040519485948561161c565b015190508f80610518565b601f1982169a835f52815f209b5f5b8181106106015750837f09e70994ce281f8a63bb36732f8d2df907074776eee02f8af110938bc4e477a59b9c9d61054597946102729a999794600297600195106105e9575b505050811b01905561052f565b01515f1960f88460031b161c191690558e80806105dc565b838301518e556001909d019c60209384019301610597565b60405163510e797760e11b8152602060048201529182916103409160248401916114bb565b346103875760403660031901126103875761068d60043561065d6112fc565b90610688610683825f525f516020611bd15f395f51905f52602052600160405f20015490565b6117f7565b611aa3565b005b34610387576020366003190112610387576004356001600160401b038111610387576106bf9036906004016112cf565b6106c7611769565b8015610378576040516020810190828483376106f66020828581015f838201520301601f198101835282611397565b51902091825f525f60205260ff600260405f20015416156108bb57825f52600260205260405f205480156108a8575f198101818111610894576001545f19810190811161089457808203610849575b505050600154908115610835577f6ae52b3fe6d4919b329e8314788041384cae2d045707c2983ae594c7cad27cd3915f1901610780816115b3565b8154905f199060031b1b19169055600155835f5260026020525f6040812055835f525f6020525f600260408220828155600181016107be8154611520565b90816107f2575b505001556001600160a01b036107d9611b4c565b16926102726040519283926020845260208401916114bb565b81601f8693116001146108095750555b87806107c5565b8183526020832061082591601f0160051c810190600101611558565b8082528160208120915555610802565b634e487b7160e01b5f52603160045260245ffd5b61086891610859610880926115b3565b90549060031b1c9283916115b3565b90919082549060031b91821b915f19901b1916179055565b5f52600260205260405f2055838080610745565b634e487b7160e01b5f52601160045260245ffd5b836322cd5b3360e11b5f5260045260245ffd5b60405163b6549bc360e01b8152602060048201529182916103409160248401916114bb565b34610387575f3660031901126103875760405180602060015491828152019060015f527fb10e2d527612073b26eecdfd717e6a320cf44b4afac2b0732d9fcbe2b7fa0cf6905f5b818110610956576109528561093e81870382611397565b6040519182916020835260208301906113cf565b0390f35b8254845260209093019260019283019201610927565b3461038757602036600319011261038757600435805f525f60205260ff600260405f20015416156109c3575f525f6020526109526109af600160405f20016116cb565b604051918291602083526020830190611358565b6310ebeb9b60e21b5f5260045260245ffd5b34610387575f3660031901126103875760206040515f8152f35b3461038757604036600319011261038757610a08611312565b6024356001600160401b0381116103875736602382011215610387578060040135610a32816113b8565b91610a406040519384611397565b8183526024602084019260051b8201019036821161038757602401915b818310610bce575050505f516020611bf15f395f51905f525460ff8160401c1615926001600160401b03821680159081610bc6575b6001149081610bbc575b159081610bb3575b50610ba45767ffffffffffffffff1982166001175f516020611bf15f395f51905f5255610ae79184610b78575b50610ada611ba5565b610ae2611ba5565b611853565b508051905f5b828110610b525783610afb57005b68ff0000000000000000195f516020611bf15f395f51905f5254165f516020611bf15f395f51905f52557fc7f505b2f371ae2175ee4913f4499e1f2633a7b5936321eed1cdaeb6115181d2602060405160018152a1005b600190610b716001600160a01b03610b6a83866114a7565b5116611915565b5001610aed565b68ffffffffffffffffff191668010000000000000001175f516020611bf15f395f51905f525584610ad1565b63f92ee8a960e01b5f5260045ffd5b90501585610aa4565b303b159150610a9c565b859150610a92565b82356001600160a01b038116810361038757815260209283019201610a5d565b3461038757604036600319011261038757610c076112fc565b6004355f525f516020611bd15f395f51905f5260205260405f209060018060a01b03165f52602052602060ff60405f2054166040519015158152f35b34610387575f366003190112610387576040517f00000000000000000000000000000000000000000000000000000000000000006001600160a01b03168152602090f35b34610387576020366003190112610387576004355f525f602052602060ff600260405f200154166040519015158152f35b34610387576020366003190112610387576004356001600160401b03811161038757610ce89036906004016112cf565b90604051602081019083838337610d126020828681015f838201520301601f198101835282611397565b51902091825f525f60205260ff600260405f2001541615610d4657825f525f6020526109526109af600160405f20016116cb565b61034060405192839263b6549bc360e01b84526020600485015260248401916114bb565b34610387576040366003190112610387576004356001600160401b03811161038757610d9a903690600401611328565b6024356001600160401b03811161038757610db9903690600401611328565b90610dc2611769565b82156110a25781830361108b5760015491610ddc846113b8565b92610dea6040519485611397565b848452601f19610df9866113b8565b013660208601375f5b858110610e7f57857fcae12d0ba7b14d1ec9f693a507cb7e312550184c818ade2163b8ace4fed013dc610e5e87610e7a8888610e6c8e6001600160a01b03610e48611b4c565b16986040519788976060895260608901906113cf565b918783036020890152611646565b918483036040860152611646565b0390a2005b610e8a818789611452565b610e98838688959495611452565b94821561037857851561036957604051602081019084878337610ece6020828781015f838201520301601f198101835282611397565b5190209283610edd868c6114a7565b52835f525f60205260ff600260405f2001541661106557604051610f008161137c565b848152610f0e3689866114db565b60208201908152604082019060018252865f525f60205260405f20925183556001830190518051906001600160401b03821161030d57610f5882610f528554611520565b8561156e565b602090601f8311600114610ffb5782610f8f9695936002959361052c935f92610ff05750508160011b915f199060031b1c19161790565b610f98846115cb565b5f19821461089457600195610fe7877f09e70994ce281f8a63bb36732f8d2df907074776eee02f8af110938bc4e477a5940198865f5260026020528960405f2055888060a01b0361056f611b4c565b0390a301610e02565b015190505f80610518565b90601f19831691845f52815f20925f5b81811061104d5750926001928592610f8f999896600298961061103557505050811b01905561052f565b01515f1960f88460031b161c191690555f80806105dc565b9293602060018192878601518155019501930161100b565b60405163510e797760e11b815260206004820152908190610340906024830190896114bb565b5090631f4bb7c160e31b5f5260045260245260445ffd5b63d213204160e01b5f5260045ffd5b346103875760203660031901126103875760206110cc611312565b6040517f00000000000000000000000000000000000000000000000000000000000000006001600160a01b039081169216919091148152f35b346103875760403660031901126103875761111e6112fc565b6001600160a01b0361112e611b4c565b166001600160a01b0382160361114a5761068d90600435611aa3565b63334bd91960e11b5f5260045ffd5b346103875760403660031901126103875761068d6004356111786112fc565b9061119e610683825f525f516020611bd15f395f51905f52602052600160405f20015490565b6119f2565b346103875760203660031901126103875760206111da6004355f525f516020611bd15f395f51905f52602052600160405f20015490565b604051908152f35b34610387575f366003190112610387576020600154604051908152f35b34610387576020366003190112610387576004356001600160401b0381116103875761123160209136906004016112cf565b6112578360405183819483830196873781015f838201520301601f198101835282611397565b519020604051908152f35b34610387576020366003190112610387576004359063ffffffff60e01b821680920361038757602091631526bf3960e11b81149081156112a4575b5015158152f35b637965db0b60e01b8114915081156112be575b508361129d565b6301ffc9a760e01b149050836112b7565b9181601f84011215610387578235916001600160401b038311610387576020838186019501011161038757565b602435906001600160a01b038216820361038757565b600435906001600160a01b038216820361038757565b9181601f84011215610387578235916001600160401b038311610387576020808501948460051b01011161038757565b805180835260209291819084018484015e5f828201840152601f01601f1916010190565b606081019081106001600160401b0382111761030d57604052565b90601f801991011681019081106001600160401b0382111761030d57604052565b6001600160401b03811161030d5760051b60200190565b90602080835192838152019201905f5b8181106113ec5750505090565b82518452602093840193909201916001016113df565b6040600319820112610387576004356001600160401b038111610387578161142c916004016112cf565b92909291602435906001600160401b0382116103875761144e916004016112cf565b9091565b91908110156114935760051b81013590601e19813603018212156103875701908135916001600160401b038311610387576020018236038113610387579190565b634e487b7160e01b5f52603260045260245ffd5b80518210156114935760209160051b010190565b908060209392818452848401375f828201840152601f01601f1916010190565b9291926001600160401b03821161030d5760405191611504601f8201601f191660200184611397565b829481845281830111610387578281602093845f960137010152565b90600182811c9216801561154e575b602083101461153a57565b634e487b7160e01b5f52602260045260245ffd5b91607f169161152f565b818110611563575050565b5f8155600101611558565b9190601f811161157d57505050565b6115a7925f5260205f20906020601f840160051c830193106115a9575b601f0160051c0190611558565b565b909150819061159a565b6001548110156114935760015f5260205f2001905f90565b600154906801000000000000000082101561030d57600182016001556001548210156114935760015f527fb10e2d527612073b26eecdfd717e6a320cf44b4afac2b0732d9fcbe2b7fa0cf690910155565b92906116359061164395936040865260408601916114bb565b9260208185039101526114bb565b90565b90602083828152019060208160051b85010193835f915b83831061166d5750505050505090565b909192939495601f198282030186528635601e198436030181121561038757830190602082359201916001600160401b038111610387578036038313610387576116bd60209283926001956114bb565b98019601949301919061165d565b9060405191825f8254926116de84611520565b80845293600181169081156117475750600114611703575b506115a792500383611397565b90505f9291925260205f20905f915b81831061172b5750509060206115a7928201015f6116f6565b6020919350806001915483858901015201910190918492611712565b9050602092506115a794915060ff191682840152151560051b8201015f6116f6565b611771611b4c565b6001600160a01b0381165f9081527f07966f2ab141347034724e9b2a472c2f77f5cd745aeba27cacba797b8fcb7086602052604090205460ff16156117b35750565b63e2517d3f60e01b5f9081526001600160a01b03919091166004527fedcc084d3dcd65a1f7f23c65c46722faca6953d28e43150a467cf43e5c309238602452604490fd5b6117ff611b4c565b815f525f516020611bd15f395f51905f5260205260405f2060018060a01b0382165f5260205260ff60405f20541615611836575050565b63e2517d3f60e01b5f5260018060a01b031660045260245260445ffd5b6001600160a01b0381165f9081527fb7db2dd08fcb62d0c9e08c51941cae53c267786a0b75803fb7960902fc8ef97d602052604090205460ff16611910576001600160a01b038181165f9081527fb7db2dd08fcb62d0c9e08c51941cae53c267786a0b75803fb7960902fc8ef97d60205260409020805460ff191660011790556118db611b4c565b16906001600160a01b03165f7f2f8788117e7eff1d82e926ec794901d17c78024a50270940304540a733656f0d8180a4600190565b505f90565b6001600160a01b0381165f9081527f07966f2ab141347034724e9b2a472c2f77f5cd745aeba27cacba797b8fcb7086602052604090205460ff16611910576001600160a01b038181165f9081527f07966f2ab141347034724e9b2a472c2f77f5cd745aeba27cacba797b8fcb708660205260409020805460ff1916600117905561199d611b4c565b16906001600160a01b03167fedcc084d3dcd65a1f7f23c65c46722faca6953d28e43150a467cf43e5c3092387f2f8788117e7eff1d82e926ec794901d17c78024a50270940304540a733656f0d5f80a4600190565b5f8181525f516020611bd15f395f51905f52602090815260408083206001600160a01b038616845290915290205460ff16611a9d575f8181525f516020611bd15f395f51905f52602090815260408083206001600160a01b0386811685529252909120805460ff19166001179055611a68611b4c565b16916001600160a01b0316907f2f8788117e7eff1d82e926ec794901d17c78024a50270940304540a733656f0d5f80a4600190565b50505f90565b5f8181525f516020611bd15f395f51905f52602090815260408083206001600160a01b038616845290915290205460ff1615611a9d575f8181525f516020611bd15f395f51905f52602090815260408083206001600160a01b0386811685529252909120805460ff19169055611b17611b4c565b16916001600160a01b0316907ff6391f5c32d9c69d2a47ea670b442974b53935d1edc7fd64eb21e047a839171b5f80a4600190565b337f00000000000000000000000000000000000000000000000000000000000000006001600160a01b03161480611b9a575b15611b96576013193601368111610894573560601c90565b3390565b506014361015611b7e565b60ff5f516020611bf15f395f51905f525460401c1615611bc157565b631afcd79f60e31b5f5260045ffdfe02dd7bc7dec4dceedda775e58dd541e08a116c6c53815c0bd028192f7b626800f0c57e16840df040f15088dc2f81fe391c3923bec73e23a9662efc9c229c6a00a2646970667358221220a46fb89c38eca4591f1a5fd8e5d3930851681741bd76dffb182ad86d0008d90b64736f6c634300081c0033f0c57e16840df040f15088dc2f81fe391c3923bec73e23a9662efc9c229c6a00",
  "linkReferences": {},
  "deployedLinkReferences": {}
}