{
  "_format": "hh-sol-artifact-1",
  "contractName": "ATKLinearVestingStrategy",
  "sourceName": "contracts/addons/airdrop/vesting-airdrop/ATKLinearVestingStrategy.sol",
  "abi": [
    {
      "inputs": [
        {
          "internalType": "uint256",
          "name": "vestingDuration_",
          "type": "uint256"
        },
        {
          "internalType": "uint256",
          "name": "cliffDuration_",
          "type": "uint256"
        }
      ],
      "stateMutability": "nonpayable",
      "type": "constructor"
    },
    {
      "inputs": [],
      "name": "CliffExceedsVestingDuration",
      "type": "error"
    },
    {
      "inputs": [],
      "name": "InvalidVestingDuration",
      "type": "error"
    },
    {
      "inputs": [],
      "name": "_cliffDuration",
      "outputs": [
        {
          "internalType": "uint256",
          "name": "",
          "type": "uint256"
        }
      ],
      "stateMutability": "view",
      "type": "function"
    },
    {
      "inputs": [],
      "name": "_vestingDuration",
      "outputs": [
        {
          "internalType": "uint256",
          "name": "",
          "type": "uint256"
        }
      ],
      "stateMutability": "view",
      "type": "function"
    },
    {
      "inputs": [
        {
          "internalType": "address",
          "name": "account",
          "type": "address"
        },
        {
          "internalType": "uint256",
          "name": "totalAmount",
          "type": "uint256"
        },
        {
          "internalType": "uint256",
          "name": "vestingStartTime",
          "type": "uint256"
        },
        {
          "internalType": "uint256",
          "name": "claimedAmount",
          "type": "uint256"
        }
      ],
      "name": "calculateClaimableAmount",
      "outputs": [
        {
          "internalType": "uint256",
          "name": "claimableAmount",
          "type": "uint256"
        }
      ],
      "stateMutability": "view",
      "type": "function"
    },
    {
      "inputs": [],
      "name": "cliffDuration",
      "outputs": [
        {
          "internalType": "uint256",
          "name": "",
          "type": "uint256"
        }
      ],
      "stateMutability": "view",
      "type": "function"
    },
    {
      "inputs": [],
      "name": "supportsMultipleClaims",
      "outputs": [
        {
          "internalType": "bool",
          "name": "supportsMultiple",
          "type": "bool"
        }
      ],
      "stateMutability": "pure",
      "type": "function"
    },
    {
      "inputs": [],
      "name": "vestingDuration",
      "outputs": [
        {
          "internalType": "uint256",
          "name": "",
          "type": "uint256"
        }
      ],
      "stateMutability": "view",
      "type": "function"
    }
  ],
  "bytecode": "0x60c0346100a457601f61030d38819003918201601f19168301916001600160401b038311848410176100a85780849260409485528339810103126100a45760208151910151908015610095578082116100865760805260a05260405161025090816100bd823960805181818160d9015261018c015260a05181818161011301526101650152f35b63fc1a94fb60e01b5f5260045ffd5b632b39f6cb60e01b5f5260045ffd5b5f80fd5b634e487b7160e01b5f52604160045260245ffdfe60806040526004361015610011575f80fd5b5f3560e01c80630289943d146100c257806307a297ab146100845780631514617e1461007f578063d85349f71461005b578063f826851a146100605763fcfb21b91461005b575f80fd5b6100fc565b3461007b575f36600319011261007b57602060405160018152f35b5f80fd5b6100c2565b3461007b57608036600319011261007b576004356001600160a01b0381160361007b5760206100ba606435604435602435610157565b604051908152f35b3461007b575f36600319011261007b5760206040517f00000000000000000000000000000000000000000000000000000000000000008152f35b3461007b575f36600319011261007b5760206040517f00000000000000000000000000000000000000000000000000000000000000008152f35b9190820391821161014357565b634e487b7160e01b5f52601160045260245ffd5b91906101639042610136565b7f00000000000000000000000000000000000000000000000000000000000000008110610213577f0000000000000000000000000000000000000000000000000000000000000000908181106101e2575050815b8083116101da575b50808211156101d4576101d191610136565b90565b50505f90565b91505f6101bf565b8084029084820414841517156101435781156101ff5704916101b7565b634e487b7160e01b5f52601260045260245ffd5b5050505f9056fea2646970667358221220ab2765929b411dbb5841b3abf5ef88494948da14b3a01c2516d8be2f23be1d9564736f6c634300081c0033",
  "linkReferences": {},
  "deployedLinkReferences": {}
}