{
  "_format": "hh-sol-artifact-1",
  "contractName": "EAS",
  "sourceName": "@ethereum-attestation-service/eas-contracts/EAS.sol",
  "abi": [
    {
      "inputs": [
        {
          "internalType": "contract ISchemaRegistry",
          "name": "registry",
          "type": "address"
        }
      ],
      "stateMutability": "nonpayable",
      "type": "constructor"
    },
    {
      "inputs": [],
      "name": "AccessDenied",
      "type": "error"
    },
    {
      "inputs": [],
      "name": "AlreadyRevoked",
      "type": "error"
    },
    {
      "inputs": [],
      "name": "AlreadyRevokedOffchain",
      "type": "error"
    },
    {
      "inputs": [],
      "name": "AlreadyTimestamped",
      "type": "error"
    },
    {
      "inputs": [],
      "name": "DeadlineExpired",
      "type": "error"
    },
    {
      "inputs": [],
      "name": "FailedCall",
      "type": "error"
    },
    {
      "inputs": [
        {
          "internalType": "uint256",
          "name": "balance",
          "type": "uint256"
        },
        {
          "internalType": "uint256",
          "name": "needed",
          "type": "uint256"
        }
      ],
      "name": "InsufficientBalance",
      "type": "error"
    },
    {
      "inputs": [],
      "name": "InsufficientValue",
      "type": "error"
    },
    {
      "inputs": [],
      "name": "InvalidAttestation",
      "type": "error"
    },
    {
      "inputs": [],
      "name": "InvalidAttestations",
      "type": "error"
    },
    {
      "inputs": [],
      "name": "InvalidExpirationTime",
      "type": "error"
    },
    {
      "inputs": [],
      "name": "InvalidLength",
      "type": "error"
    },
    {
      "inputs": [],
      "name": "InvalidNonce",
      "type": "error"
    },
    {
      "inputs": [],
      "name": "InvalidOffset",
      "type": "error"
    },
    {
      "inputs": [],
      "name": "InvalidRegistry",
      "type": "error"
    },
    {
      "inputs": [],
      "name": "InvalidRevocation",
      "type": "error"
    },
    {
      "inputs": [],
      "name": "InvalidRevocations",
      "type": "error"
    },
    {
      "inputs": [],
      "name": "InvalidSchema",
      "type": "error"
    },
    {
      "inputs": [],
      "name": "InvalidShortString",
      "type": "error"
    },
    {
      "inputs": [],
      "name": "InvalidSignature",
      "type": "error"
    },
    {
      "inputs": [],
      "name": "InvalidVerifier",
      "type": "error"
    },
    {
      "inputs": [],
      "name": "Irrevocable",
      "type": "error"
    },
    {
      "inputs": [],
      "name": "NotFound",
      "type": "error"
    },
    {
      "inputs": [],
      "name": "NotPayable",
      "type": "error"
    },
    {
      "inputs": [
        {
          "internalType": "string",
          "name": "str",
          "type": "string"
        }
      ],
      "name": "StringTooLong",
      "type": "error"
    },
    {
      "inputs": [],
      "name": "WrongSchema",
      "type": "error"
    },
    {
      "anonymous": false,
      "inputs": [
        {
          "indexed": true,
          "internalType": "address",
          "name": "recipient",
          "type": "address"
        },
        {
          "indexed": true,
          "internalType": "address",
          "name": "attester",
          "type": "address"
        },
        {
          "indexed": false,
          "internalType": "bytes32",
          "name": "uid",
          "type": "bytes32"
        },
        {
          "indexed": true,
          "internalType": "bytes32",
          "name": "schemaUID",
          "type": "bytes32"
        }
      ],
      "name": "Attested",
      "type": "event"
    },
    {
      "anonymous": false,
      "inputs": [],
      "name": "EIP712DomainChanged",
      "type": "event"
    },
    {
      "anonymous": false,
      "inputs": [
        {
          "indexed": false,
          "internalType": "uint256",
          "name": "oldNonce",
          "type": "uint256"
        },
        {
          "indexed": false,
          "internalType": "uint256",
          "name": "newNonce",
          "type": "uint256"
        }
      ],
      "name": "NonceIncreased",
      "type": "event"
    },
    {
      "anonymous": false,
      "inputs": [
        {
          "indexed": true,
          "internalType": "address",
          "name": "recipient",
          "type": "address"
        },
        {
          "indexed": true,
          "internalType": "address",
          "name": "attester",
          "type": "address"
        },
        {
          "indexed": false,
          "internalType": "bytes32",
          "name": "uid",
          "type": "bytes32"
        },
        {
          "indexed": true,
          "internalType": "bytes32",
          "name": "schemaUID",
          "type": "bytes32"
        }
      ],
      "name": "Revoked",
      "type": "event"
    },
    {
      "anonymous": false,
      "inputs": [
        {
          "indexed": true,
          "internalType": "address",
          "name": "revoker",
          "type": "address"
        },
        {
          "indexed": true,
          "internalType": "bytes32",
          "name": "data",
          "type": "bytes32"
        },
        {
          "indexed": true,
          "internalType": "uint64",
          "name": "timestamp",
          "type": "uint64"
        }
      ],
      "name": "RevokedOffchain",
      "type": "event"
    },
    {
      "anonymous": false,
      "inputs": [
        {
          "indexed": true,
          "internalType": "bytes32",
          "name": "data",
          "type": "bytes32"
        },
        {
          "indexed": true,
          "internalType": "uint64",
          "name": "timestamp",
          "type": "uint64"
        }
      ],
      "name": "Timestamped",
      "type": "event"
    },
    {
      "inputs": [
        {
          "components": [
            {
              "internalType": "bytes32",
              "name": "schema",
              "type": "bytes32"
            },
            {
              "components": [
                {
                  "internalType": "address",
                  "name": "recipient",
                  "type": "address"
                },
                {
                  "internalType": "uint64",
                  "name": "expirationTime",
                  "type": "uint64"
                },
                {
                  "internalType": "bool",
                  "name": "revocable",
                  "type": "bool"
                },
                {
                  "internalType": "bytes32",
                  "name": "refUID",
                  "type": "bytes32"
                },
                {
                  "internalType": "bytes",
                  "name": "data",
                  "type": "bytes"
                },
                {
                  "internalType": "uint256",
                  "name": "value",
                  "type": "uint256"
                }
              ],
              "internalType": "struct AttestationRequestData",
              "name": "data",
              "type": "tuple"
            }
          ],
          "internalType": "struct AttestationRequest",
          "name": "request",
          "type": "tuple"
        }
      ],
      "name": "attest",
      "outputs": [
        {
          "internalType": "bytes32",
          "name": "",
          "type": "bytes32"
        }
      ],
      "stateMutability": "payable",
      "type": "function"
    },
    {
      "inputs": [
        {
          "components": [
            {
              "internalType": "bytes32",
              "name": "schema",
              "type": "bytes32"
            },
            {
              "components": [
                {
                  "internalType": "address",
                  "name": "recipient",
                  "type": "address"
                },
                {
                  "internalType": "uint64",
                  "name": "expirationTime",
                  "type": "uint64"
                },
                {
                  "internalType": "bool",
                  "name": "revocable",
                  "type": "bool"
                },
                {
                  "internalType": "bytes32",
                  "name": "refUID",
                  "type": "bytes32"
                },
                {
                  "internalType": "bytes",
                  "name": "data",
                  "type": "bytes"
                },
                {
                  "internalType": "uint256",
                  "name": "value",
                  "type": "uint256"
                }
              ],
              "internalType": "struct AttestationRequestData",
              "name": "data",
              "type": "tuple"
            },
            {
              "components": [
                {
                  "internalType": "uint8",
                  "name": "v",
                  "type": "uint8"
                },
                {
                  "internalType": "bytes32",
                  "name": "r",
                  "type": "bytes32"
                },
                {
                  "internalType": "bytes32",
                  "name": "s",
                  "type": "bytes32"
                }
              ],
              "internalType": "struct Signature",
              "name": "signature",
              "type": "tuple"
            },
            {
              "internalType": "address",
              "name": "attester",
              "type": "address"
            },
            {
              "internalType": "uint64",
              "name": "deadline",
              "type": "uint64"
            }
          ],
          "internalType": "struct DelegatedAttestationRequest",
          "name": "delegatedRequest",
          "type": "tuple"
        }
      ],
      "name": "attestByDelegation",
      "outputs": [
        {
          "internalType": "bytes32",
          "name": "",
          "type": "bytes32"
        }
      ],
      "stateMutability": "payable",
      "type": "function"
    },
    {
      "inputs": [],
      "name": "eip712Domain",
      "outputs": [
        {
          "internalType": "bytes1",
          "name": "fields",
          "type": "bytes1"
        },
        {
          "internalType": "string",
          "name": "name",
          "type": "string"
        },
        {
          "internalType": "string",
          "name": "version",
          "type": "string"
        },
        {
          "internalType": "uint256",
          "name": "chainId",
          "type": "uint256"
        },
        {
          "internalType": "address",
          "name": "verifyingContract",
          "type": "address"
        },
        {
          "internalType": "bytes32",
          "name": "salt",
          "type": "bytes32"
        },
        {
          "internalType": "uint256[]",
          "name": "extensions",
          "type": "uint256[]"
        }
      ],
      "stateMutability": "view",
      "type": "function"
    },
    {
      "inputs": [],
      "name": "getAttestTypeHash",
      "outputs": [
        {
          "internalType": "bytes32",
          "name": "",
          "type": "bytes32"
        }
      ],
      "stateMutability": "pure",
      "type": "function"
    },
    {
      "inputs": [
        {
          "internalType": "bytes32",
          "name": "uid",
          "type": "bytes32"
        }
      ],
      "name": "getAttestation",
      "outputs": [
        {
          "components": [
            {
              "internalType": "bytes32",
              "name": "uid",
              "type": "bytes32"
            },
            {
              "internalType": "bytes32",
              "name": "schema",
              "type": "bytes32"
            },
            {
              "internalType": "uint64",
              "name": "time",
              "type": "uint64"
            },
            {
              "internalType": "uint64",
              "name": "expirationTime",
              "type": "uint64"
            },
            {
              "internalType": "uint64",
              "name": "revocationTime",
              "type": "uint64"
            },
            {
              "internalType": "bytes32",
              "name": "refUID",
              "type": "bytes32"
            },
            {
              "internalType": "address",
              "name": "recipient",
              "type": "address"
            },
            {
              "internalType": "address",
              "name": "attester",
              "type": "address"
            },
            {
              "internalType": "bool",
              "name": "revocable",
              "type": "bool"
            },
            {
              "internalType": "bytes",
              "name": "data",
              "type": "bytes"
            }
          ],
          "internalType": "struct Attestation",
          "name": "",
          "type": "tuple"
        }
      ],
      "stateMutability": "view",
      "type": "function"
    },
    {
      "inputs": [],
      "name": "getDomainSeparator",
      "outputs": [
        {
          "internalType": "bytes32",
          "name": "",
          "type": "bytes32"
        }
      ],
      "stateMutability": "view",
      "type": "function"
    },
    {
      "inputs": [],
      "name": "getName",
      "outputs": [
        {
          "internalType": "string",
          "name": "",
          "type": "string"
        }
      ],
      "stateMutability": "view",
      "type": "function"
    },
    {
      "inputs": [
        {
          "internalType": "address",
          "name": "account",
          "type": "address"
        }
      ],
      "name": "getNonce",
      "outputs": [
        {
          "internalType": "uint256",
          "name": "",
          "type": "uint256"
        }
      ],
      "stateMutability": "view",
      "type": "function"
    },
    {
      "inputs": [
        {
          "internalType": "address",
          "name": "revoker",
          "type": "address"
        },
        {
          "internalType": "bytes32",
          "name": "data",
          "type": "bytes32"
        }
      ],
      "name": "getRevokeOffchain",
      "outputs": [
        {
          "internalType": "uint64",
          "name": "",
          "type": "uint64"
        }
      ],
      "stateMutability": "view",
      "type": "function"
    },
    {
      "inputs": [],
      "name": "getRevokeTypeHash",
      "outputs": [
        {
          "internalType": "bytes32",
          "name": "",
          "type": "bytes32"
        }
      ],
      "stateMutability": "pure",
      "type": "function"
    },
    {
      "inputs": [],
      "name": "getSchemaRegistry",
      "outputs": [
        {
          "internalType": "contract ISchemaRegistry",
          "name": "",
          "type": "address"
        }
      ],
      "stateMutability": "view",
      "type": "function"
    },
    {
      "inputs": [
        {
          "internalType": "bytes32",
          "name": "data",
          "type": "bytes32"
        }
      ],
      "name": "getTimestamp",
      "outputs": [
        {
          "internalType": "uint64",
          "name": "",
          "type": "uint64"
        }
      ],
      "stateMutability": "view",
      "type": "function"
    },
    {
      "inputs": [
        {
          "internalType": "uint256",
          "name": "newNonce",
          "type": "uint256"
        }
      ],
      "name": "increaseNonce",
      "outputs": [],
      "stateMutability": "nonpayable",
      "type": "function"
    },
    {
      "inputs": [
        {
          "internalType": "bytes32",
          "name": "uid",
          "type": "bytes32"
        }
      ],
      "name": "isAttestationValid",
      "outputs": [
        {
          "internalType": "bool",
          "name": "",
          "type": "bool"
        }
      ],
      "stateMutability": "view",
      "type": "function"
    },
    {
      "inputs": [
        {
          "components": [
            {
              "internalType": "bytes32",
              "name": "schema",
              "type": "bytes32"
            },
            {
              "components": [
                {
                  "internalType": "address",
                  "name": "recipient",
                  "type": "address"
                },
                {
                  "internalType": "uint64",
                  "name": "expirationTime",
                  "type": "uint64"
                },
                {
                  "internalType": "bool",
                  "name": "revocable",
                  "type": "bool"
                },
                {
                  "internalType": "bytes32",
                  "name": "refUID",
                  "type": "bytes32"
                },
                {
                  "internalType": "bytes",
                  "name": "data",
                  "type": "bytes"
                },
                {
                  "internalType": "uint256",
                  "name": "value",
                  "type": "uint256"
                }
              ],
              "internalType": "struct AttestationRequestData[]",
              "name": "data",
              "type": "tuple[]"
            }
          ],
          "internalType": "struct MultiAttestationRequest[]",
          "name": "multiRequests",
          "type": "tuple[]"
        }
      ],
      "name": "multiAttest",
      "outputs": [
        {
          "internalType": "bytes32[]",
          "name": "",
          "type": "bytes32[]"
        }
      ],
      "stateMutability": "payable",
      "type": "function"
    },
    {
      "inputs": [
        {
          "components": [
            {
              "internalType": "bytes32",
              "name": "schema",
              "type": "bytes32"
            },
            {
              "components": [
                {
                  "internalType": "address",
                  "name": "recipient",
                  "type": "address"
                },
                {
                  "internalType": "uint64",
                  "name": "expirationTime",
                  "type": "uint64"
                },
                {
                  "internalType": "bool",
                  "name": "revocable",
                  "type": "bool"
                },
                {
                  "internalType": "bytes32",
                  "name": "refUID",
                  "type": "bytes32"
                },
                {
                  "internalType": "bytes",
                  "name": "data",
                  "type": "bytes"
                },
                {
                  "internalType": "uint256",
                  "name": "value",
                  "type": "uint256"
                }
              ],
              "internalType": "struct AttestationRequestData[]",
              "name": "data",
              "type": "tuple[]"
            },
            {
              "components": [
                {
                  "internalType": "uint8",
                  "name": "v",
                  "type": "uint8"
                },
                {
                  "internalType": "bytes32",
                  "name": "r",
                  "type": "bytes32"
                },
                {
                  "internalType": "bytes32",
                  "name": "s",
                  "type": "bytes32"
                }
              ],
              "internalType": "struct Signature[]",
              "name": "signatures",
              "type": "tuple[]"
            },
            {
              "internalType": "address",
              "name": "attester",
              "type": "address"
            },
            {
              "internalType": "uint64",
              "name": "deadline",
              "type": "uint64"
            }
          ],
          "internalType": "struct MultiDelegatedAttestationRequest[]",
          "name": "multiDelegatedRequests",
          "type": "tuple[]"
        }
      ],
      "name": "multiAttestByDelegation",
      "outputs": [
        {
          "internalType": "bytes32[]",
          "name": "",
          "type": "bytes32[]"
        }
      ],
      "stateMutability": "payable",
      "type": "function"
    },
    {
      "inputs": [
        {
          "components": [
            {
              "internalType": "bytes32",
              "name": "schema",
              "type": "bytes32"
            },
            {
              "components": [
                {
                  "internalType": "bytes32",
                  "name": "uid",
                  "type": "bytes32"
                },
                {
                  "internalType": "uint256",
                  "name": "value",
                  "type": "uint256"
                }
              ],
              "internalType": "struct RevocationRequestData[]",
              "name": "data",
              "type": "tuple[]"
            }
          ],
          "internalType": "struct MultiRevocationRequest[]",
          "name": "multiRequests",
          "type": "tuple[]"
        }
      ],
      "name": "multiRevoke",
      "outputs": [],
      "stateMutability": "payable",
      "type": "function"
    },
    {
      "inputs": [
        {
          "components": [
            {
              "internalType": "bytes32",
              "name": "schema",
              "type": "bytes32"
            },
            {
              "components": [
                {
                  "internalType": "bytes32",
                  "name": "uid",
                  "type": "bytes32"
                },
                {
                  "internalType": "uint256",
                  "name": "value",
                  "type": "uint256"
                }
              ],
              "internalType": "struct RevocationRequestData[]",
              "name": "data",
              "type": "tuple[]"
            },
            {
              "components": [
                {
                  "internalType": "uint8",
                  "name": "v",
                  "type": "uint8"
                },
                {
                  "internalType": "bytes32",
                  "name": "r",
                  "type": "bytes32"
                },
                {
                  "internalType": "bytes32",
                  "name": "s",
                  "type": "bytes32"
                }
              ],
              "internalType": "struct Signature[]",
              "name": "signatures",
              "type": "tuple[]"
            },
            {
              "internalType": "address",
              "name": "revoker",
              "type": "address"
            },
            {
              "internalType": "uint64",
              "name": "deadline",
              "type": "uint64"
            }
          ],
          "internalType": "struct MultiDelegatedRevocationRequest[]",
          "name": "multiDelegatedRequests",
          "type": "tuple[]"
        }
      ],
      "name": "multiRevokeByDelegation",
      "outputs": [],
      "stateMutability": "payable",
      "type": "function"
    },
    {
      "inputs": [
        {
          "internalType": "bytes32[]",
          "name": "data",
          "type": "bytes32[]"
        }
      ],
      "name": "multiRevokeOffchain",
      "outputs": [
        {
          "internalType": "uint64",
          "name": "",
          "type": "uint64"
        }
      ],
      "stateMutability": "nonpayable",
      "type": "function"
    },
    {
      "inputs": [
        {
          "internalType": "bytes32[]",
          "name": "data",
          "type": "bytes32[]"
        }
      ],
      "name": "multiTimestamp",
      "outputs": [
        {
          "internalType": "uint64",
          "name": "",
          "type": "uint64"
        }
      ],
      "stateMutability": "nonpayable",
      "type": "function"
    },
    {
      "inputs": [
        {
          "components": [
            {
              "internalType": "bytes32",
              "name": "schema",
              "type": "bytes32"
            },
            {
              "components": [
                {
                  "internalType": "bytes32",
                  "name": "uid",
                  "type": "bytes32"
                },
                {
                  "internalType": "uint256",
                  "name": "value",
                  "type": "uint256"
                }
              ],
              "internalType": "struct RevocationRequestData",
              "name": "data",
              "type": "tuple"
            }
          ],
          "internalType": "struct RevocationRequest",
          "name": "request",
          "type": "tuple"
        }
      ],
      "name": "revoke",
      "outputs": [],
      "stateMutability": "payable",
      "type": "function"
    },
    {
      "inputs": [
        {
          "components": [
            {
              "internalType": "bytes32",
              "name": "schema",
              "type": "bytes32"
            },
            {
              "components": [
                {
                  "internalType": "bytes32",
                  "name": "uid",
                  "type": "bytes32"
                },
                {
                  "internalType": "uint256",
                  "name": "value",
                  "type": "uint256"
                }
              ],
              "internalType": "struct RevocationRequestData",
              "name": "data",
              "type": "tuple"
            },
            {
              "components": [
                {
                  "internalType": "uint8",
                  "name": "v",
                  "type": "uint8"
                },
                {
                  "internalType": "bytes32",
                  "name": "r",
                  "type": "bytes32"
                },
                {
                  "internalType": "bytes32",
                  "name": "s",
                  "type": "bytes32"
                }
              ],
              "internalType": "struct Signature",
              "name": "signature",
              "type": "tuple"
            },
            {
              "internalType": "address",
              "name": "revoker",
              "type": "address"
            },
            {
              "internalType": "uint64",
              "name": "deadline",
              "type": "uint64"
            }
          ],
          "internalType": "struct DelegatedRevocationRequest",
          "name": "delegatedRequest",
          "type": "tuple"
        }
      ],
      "name": "revokeByDelegation",
      "outputs": [],
      "stateMutability": "payable",
      "type": "function"
    },
    {
      "inputs": [
        {
          "internalType": "bytes32",
          "name": "data",
          "type": "bytes32"
        }
      ],
      "name": "revokeOffchain",
      "outputs": [
        {
          "internalType": "uint64",
          "name": "",
          "type": "uint64"
        }
      ],
      "stateMutability": "nonpayable",
      "type": "function"
    },
    {
      "inputs": [
        {
          "internalType": "bytes32",
          "name": "data",
          "type": "bytes32"
        }
      ],
      "name": "timestamp",
      "outputs": [
        {
          "internalType": "uint64",
          "name": "",
          "type": "uint64"
        }
      ],
      "stateMutability": "nonpayable",
      "type": "function"
    },
    {
      "inputs": [],
      "name": "version",
      "outputs": [
        {
          "internalType": "string",
          "name": "",
          "type": "string"
        }
      ],
      "stateMutability": "view",
      "type": "function"
    }
  ],
  "bytecode": "0x6101e0806040523461033b5760208161405b80380380916100208285610340565b83398101031261033b57516001600160a01b0381169081810361033b576040519161004c604084610340565b60038352602083016245415360e81b81526040519061006c604083610340565b600582526020820190640312e342e360dc1b82526001608052600460a052600060c05261009886610363565b610180526100a58361050f565b6101a05285519020918261014052519020806101605246610100526040519060208201927f8b73c3c69bb8fe3d512ecc4cf759cc79239f7b179b0ffacaa9a75d522b39400f8452604083015260608201524660808201523060a082015260a0815261011160c082610340565b51902060e052306101205282516001600160401b03811161032557600254600181811c9116801561031b575b602082101461030557601f81116102a0575b506020601f8211600114610239578192939460009261022e575b50508160011b916000199060031b1c1916176002555b1561021d576101c0526040516139ad90816106ae823960805181610836015260a05181610864015260c0518161088f015260e05181612f660152610100518161302301526101205181612f3001526101405181612fb501526101605181612fdb015261018051816106e501526101a0518161071101526101c0518181816101d201528181611b6c01528181611dac0152818161216b01526127680152f35b6311a1e69760e01b60005260046000fd5b015190503880610169565b601f198216906002600052806000209160005b8181106102885750958360019596971061026f575b505050811b0160025561017f565b015160001960f88460031b161c19169055388080610261565b9192602060018192868b01518155019401920161024c565b60026000527f405787fa12a823e0f2b7631cc41b3ba8828b3321ca811111fa75cd3aa3bb5ace601f830160051c810191602084106102fb575b601f0160051c01905b8181106102ef575061014f565b600081556001016102e2565b90915081906102d9565b634e487b7160e01b600052602260045260246000fd5b90607f169061013d565b634e487b7160e01b600052604160045260246000fd5b600080fd5b601f909101601f19168101906001600160401b0382119082101761032557604052565b908151602081106000146103fb575090601f81511161039f57602081519101516020821061038f571790565b6000198260200360031b1b161790565b6040519063305a27a960e01b8252602060048301528181519182602483015260005b8381106103e35750508160006044809484010152601f80199101168101030190fd5b602082820181015160448784010152859350016103c1565b6001600160401b03811161032557600054600181811c91168015610505575b602082101461030557601f81116104d0575b50602092601f821160011461046c5792819293600092610461575b50508160011b916000199060031b1c19161760005560ff90565b015190503880610447565b601f1982169360008052806000209160005b8681106104b8575083600195961061049f575b505050811b0160005560ff90565b015160001960f88460031b161c19169055388080610491565b9192602060018192868501518155019401920161047e565b60008052601f6020600020910160051c810190601f830160051c015b8181106104f9575061042c565b600081556001016104ec565b90607f169061041a565b90815160208110600014610597575090601f81511161053b57602081519101516020821061038f571790565b6040519063305a27a960e01b8252602060048301528181519182602483015260005b83811061057f5750508160006044809484010152601f80199101168101030190fd5b6020828201810151604487840101528593500161055d565b6001600160401b03811161032557600154600181811c911680156106a3575b602082101461030557601f811161066d575b50602092601f821160011461060857928192936000926105fd575b50508160011b916000199060031b1c19161760015560ff90565b0151905038806105e3565b601f198216936001600052806000209160005b868110610655575083600195961061063c575b505050811b0160015560ff90565b015160001960f88460031b161c1916905538808061062e565b9192602060018192868501518155019401920161061b565b6001600052601f6020600020910160051c810190601f830160051c015b81811061069757506105c8565b6000815560010161068a565b90607f16906105b656fe610120604052600436101561001357600080fd5b60003560e01c80630eabf66014610dc757806312b11a1714610d8c57806313893f6114610d1c57806317d7de7c14610c4f5780632d0335ab14610c155780633c04271514610b2557806344adc90e14610a4b5780634692626714610a0b5780634cb7e9e5146109585780634d0030701461092f57806354fd4d501461081d57806379f7573a1461079f57806384b0196e146106cd57806395411525146104d8578063a3112a641461048b578063a6d4dbc7146103b4578063b469318d14610363578063b83010d314610328578063cf190f34146102fe578063d45c4435146102c9578063e30bb56314610293578063e71ff36514610224578063ed24911d14610201578063f10b5cc8146101bc5763f17325e71461013057600080fd5b60203660031901126101b7576004356001600160401b0381116101b75780600401604060031983360301126101b75760206101a781936101ae93610189610175611560565b926101846024369201846115cb565b6114a3565b61019283611377565b5261019c82611377565b503491339135612123565b0151611377565b51604051908152f35b600080fd5b346101b75760003660031901126101b7576040517f00000000000000000000000000000000000000000000000000000000000000006001600160a01b03168152602090f35b346101b75760003660031901126101b757602061021c612f2d565b604051908152f35b346101b75760203660031901126101b7576004356001600160401b0381116101b757610254903690600401610fcb565b906001600160401b0342169160005b81811061027557602084604051908152f35b8061028d8561028760019486886113bb565b35612d45565b01610263565b346101b75760203660031901126101b75760206102bf6004356000526004602052604060002054151590565b6040519015158152f35b346101b75760203660031901126101b757600435600052600560205260206001600160401b0360406000205416604051908152f35b346101b75760203660031901126101b75760206001600160401b03421661021c8160043533611f52565b346101b75760003660031901126101b75760206040517fb5d556f07587ec0f08cf386545cc4362c702a001650c2058002615ee5c9d1e758152f35b346101b75760403660031901126101b7576001600160a01b03610384611043565b166000526006602052604060002060243560005260205260206001600160401b0360406000205416604051908152f35b6101003660031901126101b7576040516103cd816111b5565b6004358082526103dc3661128b565b602083015260603660631901126101b7576040516103f981611201565b60643560ff811681036101b7578152608435602082015260a43560408083019190915283015260c4356001600160a01b03811681036101b75780606084015260e4356001600160401b03811681036101b7578361045d9160806104899601526118be565b610465611700565b61046e3661128b565b61047782611377565b5261048181611377565b503492611b4e565b005b346101b75760203660031901126101b7576104a46117b6565b5060043560005260046020526104d46104c06040600020611809565b6040519182916020835260208301906110db565b0390f35b60203660031901126101b7576004356001600160401b0381116101b757610503903690600401610fcb565b9061050d826115f4565b916000913460005b838110610535576104d46105298688612cda565b6040519182918261106d565b9091929361054482868661117d565b956105526020880188611660565b809591951580156106b5575b6106a45760808901359660005b828110156106345760006105848260051b8a018a6115cb565b61059160408e018e611781565b849291921015610620576105a760608f016115e0565b926001600160401b038d168d0361061d5750600193926105f28f92936105e161061795604051956105d7876111b5565b35865236906114a3565b602085015236906060870201611325565b6040830152848060a01b031660608201526001600160401b038c166080820152611fdf565b0161056b565b80fd5b634e487b7160e01b83526032600452602483fd5b50949860019493989750829660209361067a936106719361066a8e8d600019011494610662606084016115e0565b933691611695565b9035612717565b95865190611398565b940180516106888989611384565b526106938888611384565b505151019501949394919091610515565b63251f56a160e21b60005260046000fd5b506106c360408a018a611781565b905081141561055e565b346101b75760003660031901126101b75760e06107097f00000000000000000000000000000000000000000000000000000000000000006135aa565b6104d46107357f000000000000000000000000000000000000000000000000000000000000000061360e565b9161077e6020936107706040519361074d8786611253565b600085526000368137604051978897600f60f81b895288015260e087019061101e565b90858203604087015261101e565b90466060850152306080850152600060a085015283820360c08501526110a7565b346101b75760203660031901126101b757600435336000526003602052604060002054908181111561080c577f57b09af877df9068fd60a69d7b21f5576b8b38955812d6ae4ac52942f1e38fb79160409133600052600360205280836000205582519182526020820152a1005b633ab3447f60e11b60005260046000fd5b346101b75760003660031901126101b7576104d461085a7f0000000000000000000000000000000000000000000000000000000000000000612dbe565b61091b60016108887f0000000000000000000000000000000000000000000000000000000000000000612dbe565b92816108b37f0000000000000000000000000000000000000000000000000000000000000000612dbe565b602060405196846108cd899651809285808a019101610ffb565b8501601760f91b838201526108eb8251809385602185019101610ffb565b0101601760f91b8382015261090a825180936020600285019101610ffb565b01010301601f198101835282611253565b60405191829160208352602083019061101e565b346101b75760203660031901126101b75760206001600160401b03421661021c81600435612d45565b60203660031901126101b7576004356001600160401b0381116101b757610983903690600401610fcb565b60001981019190600090345b81831061099857005b6109a383838661163e565b6020810135601e19823603018112156101b7578101918235926001600160401b0384116101b757602001928060061b360384136101b757600193826109fd92610a03956109f68c8b1494339336916112b3565b9035611d8a565b90611398565b92019161098f565b60603660031901126101b757610489610a22611700565b610a2b3661128b565b610a3482611377565b52610a3e81611377565b5034903390600435611b4e565b60203660031901126101b7576004356001600160401b0381116101b757610a76903690600401610fcb565b90610a80826115f4565b9160009134906000926000198101905b808510610aa4576104d46105298789612cda565b9091929394610ab486838661163e565b906020820191610ac48382611660565b9050156106a457610afd610af48989888561066a610ae660019a602099611660565b939095149433933691611695565b97885190611398565b96018051610b0b898b611384565b52610b16888a611384565b50515101950193929190610a90565b60203660031901126101b7576004356001600160401b0381116101b757806004019060e060031982360301126101b757604051610b61816111b5565b82359283825260248301938435946001600160401b0386116101b757610c0d6101ae95610bf46101a795610be160209a98610ba38c9a600436918801016114a3565b8a820152610bb43660448701611325565b6040820152610bd760c460a4870196610bcc88611059565b606085015201611363565b6080820152611fdf565b610184610bec611560565b9536926115cb565b610bfd84611377565b52610c0783611377565b506115e0565b903492612123565b346101b75760203660031901126101b7576001600160a01b03610c36611043565b1660005260036020526020604060002054604051908152f35b346101b75760003660031901126101b7576040516000600254610c71816113cb565b8084529060018116908115610cf85750600114610c99575b6104d48361091b81850382611253565b600260009081527f405787fa12a823e0f2b7631cc41b3ba8828b3321ca811111fa75cd3aa3bb5ace939250905b808210610cde5750909150810160200161091b610c89565b919260018160209254838588010152019101909291610cc6565b60ff191660208086019190915291151560051b8401909101915061091b9050610c89565b346101b75760203660031901126101b7576004356001600160401b0381116101b757610d4c903690600401610fcb565b906001600160401b0342169160005b818110610d6d57602084604051908152f35b80610d8685610d7f60019486886113bb565b3533611f52565b01610d5b565b346101b75760003660031901126101b75760206040517ffeb2925a02bae3dae48d424a0437a2b6ac939aa9230ddc55a1a76f065d9880768152f35b60203660031901126101b7576004356001600160401b0381116101b757610df2903690600401610fcb565b600019810191600091345b818410610e0657005b610e1184838561117d565b60a0813603126101b757604051610e27816111b5565b8135815260208201356001600160401b0381116101b757820136601f820112156101b757610e5c9036906020813591016112b3565b906020810191825260408301356001600160401b0381116101b757830136601f820112156101b757803590610e9082611274565b91610e9e6040519384611253565b808352602060608185019202830101913683116101b757602001905b828210610fb15750505060408201818152610eea6080610edc60608801611059565b966060860197885201611363565b936080840194855251938451928315908115610fa5575b506106a45760005b838110610f4257505091519351600195610f3a9590946109fd94508a8c14935085926001600160a01b031691611d8a565b930192610dfd565b600190610f9f8651610f54838a611384565b51610f60848851611384565b51858060a01b038c5116906001600160401b038851169260405194610f84866111b5565b855260208501526040840152606083015260808201526118be565b01610f09565b9050518314158c610f01565b6020606091610fc03685611325565b815201910190610eba565b9181601f840112156101b7578235916001600160401b0383116101b7576020808501948460051b0101116101b757565b60005b83811061100e5750506000910152565b8181015183820152602001610ffe565b9060209161103781518092818552858086019101610ffb565b601f01601f1916010190565b600435906001600160a01b03821682036101b757565b35906001600160a01b03821682036101b757565b602060408183019282815284518094520192019060005b8181106110915750505090565b8251845260209384019390920191600101611084565b906020808351928381520192019060005b8181106110c55750505090565b82518452602093840193909201916001016110b8565b9061014061012061117a9380518452602081015160208501526001600160401b0360408201511660408501526001600160401b0360608201511660608501526001600160401b03608082015116608085015260a081015160a085015260018060a01b0360c08201511660c085015260018060a01b0360e08201511660e0850152610100810151151561010085015201519181610120820152019061101e565b90565b919081101561119f5760051b81013590609e19813603018212156101b7570190565b634e487b7160e01b600052603260045260246000fd5b60a081019081106001600160401b038211176111d057604052565b634e487b7160e01b600052604160045260246000fd5b604081019081106001600160401b038211176111d057604052565b606081019081106001600160401b038211176111d057604052565b60c081019081106001600160401b038211176111d057604052565b61014081019081106001600160401b038211176111d057604052565b90601f801991011681019081106001600160401b038211176111d057604052565b6001600160401b0381116111d05760051b60200190565b60409060231901126101b757604051906112a4826111e6565b60243582526044356020830152565b9291926112bf82611274565b936112cd6040519586611253565b602085848152019260061b8201918183116101b757925b8284106112f15750505050565b600060408584031261061d57506020604091825161130e816111e6565b8635815282870135838201528152019301926112e4565b91908260609103126101b75760405161133d81611201565b8092803560ff811681036101b75760409182918452602081013560208501520135910152565b35906001600160401b03821682036101b757565b80511561119f5760200190565b805182101561119f5760209160051b010190565b919082039182116113a557565b634e487b7160e01b600052601160045260246000fd5b919081101561119f5760051b0190565b90600182811c921680156113fb575b60208310146113e557565b634e487b7160e01b600052602260045260246000fd5b91607f16916113da565b60009291815491611415836113cb565b808352926001811690811561146b575060011461143157505050565b60009081526020812093945091925b838310611451575060209250010190565b600181602092949394548385870101520191019190611440565b915050602093945060ff929192191683830152151560051b010190565b6001600160401b0381116111d057601f01601f191660200190565b919060c0838203126101b757604051906114bc8261121c565b81936114c781611059565b83526114d560208201611363565b6020840152604081013580151581036101b75760408401526060810135606084015260808101356001600160401b0381116101b75781019082601f830112156101b75781359261152484611488565b906115326040519283611253565b848252602085850101116101b757600060208560a09682889701838601378301015260808501520135910152565b604080519091906115718382611253565b6001815291601f19018260005b82811061158a57505050565b6020906040516115998161121c565b60008152600083820152600060408201526000606082015260606080820152600060a08201528282850101520161157e565b90359060be19813603018212156101b7570190565b356001600160a01b03811681036101b75790565b906115fe82611274565b61160b6040519182611253565b828152809261161c601f1991611274565b019060005b82811061162d57505050565b806060602080938501015201611621565b919081101561119f5760051b81013590603e19813603018212156101b7570190565b903590601e19813603018212156101b757018035906001600160401b0382116101b757602001918160051b360383136101b757565b9291906116a181611274565b936116af6040519586611253565b602085838152019160051b8101918383116101b75781905b8382106116d5575050505050565b81356001600160401b0381116101b7576020916116f587849387016114a3565b8152019101906116c7565b604080519091906117118382611253565b6001815291601f19018260005b82811061172a57505050565b602090604051611739816111e6565b600081526000838201528282850101520161171e565b9061175982611274565b6117666040519182611253565b8281528092611777601f1991611274565b0190602036910137565b903590601e19813603018212156101b757018035906001600160401b0382116101b7576020019160608202360383136101b757565b604051906117c382611237565b60606101208360008152600060208201526000604082015260008382015260006080820152600060a0820152600060c0820152600060e082015260006101008201520152565b90600661012060405161181b81611237565b6118ab819580548352600181015460208401526001600160401b0360028201548181166040860152818160401c16606086015260801c166080840152600381015460a084015260018060a01b0360048201541660c084015260ff600582015460018060a01b03811660e086015260a01c1615156101008401526118a46040518096819301611405565b0384611253565b0152565b60001981146113a55760010190565b608081016001600160401b038151168015159081611a0c575b506119fb578161199260206119e394015191604081015193606082019360018060a01b03855116925191602082519201518460005260036020526001600160401b0360406000209283549361192b856118af565b90555116926040519460208601967fb5d556f07587ec0f08cf386545cc4362c702a001650c2058002615ee5c9d1e75885260408701526060860152608085015260a084015260c083015260e082015260e0815261198a61010082611253565b519020613049565b9051602083810151604080860151955181519384019290925282019490945260f89390931b6001600160f81b0319166060840152604183526001600160a01b03166119de606184611253565b61306f565b156119ea57565b638baa579f60e01b60005260046000fd5b631ab7da6b60e01b60005260046000fd5b90506001600160401b03421611386118d7565b519081151582036101b757565b6020818303126101b7578051906001600160401b0382116101b75701906080828203126101b75760405191608083018381106001600160401b038211176111d0576040528051835260208101516001600160a01b03811681036101b7576020840152611a9a60408201611a1f565b60408401526060810151906001600160401b0382116101b7570181601f820112156101b7578051611aca81611488565b92611ad86040519485611253565b818452602082840101116101b757611af69160208085019101610ffb565b606082015290565b90611b0882611274565b611b156040519182611253565b8281528092611b26601f1991611274565b019060005b828110611b3757505050565b602090611b426117b6565b82828501015201611b2b565b6040516351753e3760e11b81526004810182905290916000826024817f00000000000000000000000000000000000000000000000000000000000000006001600160a01b03165afa918215611d7e57600092611d59575b50815115611d37578051611bb881611afe565b93611bc28261174f565b95426001600160401b03169360005b848110611bec575050505050509161117a93916001936131bb565b611bf68183611384565b519081516000526004602052604060002091825415611d485785600184015403611d375760058301546001600160a01b0386811691908116829003611d265760a01c60ff1615611d155760028401916001600160401b03835460801c16611d0457825467ffffffffffffffff60801b191660808b901b67ffffffffffffffff60801b16179092556001938792908c90611c9f908690611c9990611809565b611809565b92611384565b52611caa848d611384565b506020810151611cba858f611384565b527ff930a6e2523c9cc298691873087a740550b8fc85a0680830414c148ed927f61560208d60c0611cf1888a8060a01b0393611384565b510151169251604051908152a401611bd1565b63905e710760e01b60005260046000fd5b63157bd4c360e01b60005260046000fd5b634ca8886760e01b60005260046000fd5b635f9bd90760e11b60005260046000fd5b63c5723b5160e01b60005260046000fd5b611d779192503d806000833e611d6f8183611253565b810190611a2c565b9038611ba5565b6040513d6000823e3d90fd5b6040516351753e3760e11b8152600481018290529195949392916000816024817f00000000000000000000000000000000000000000000000000000000000000006001600160a01b03165afa908115611d7e57600091611f37575b50805115611d37578651611df881611afe565b92611e028261174f565b946000996001600160401b0342169a5b848110611e2957505050505061117a9596506131bb565b611e338183611384565b519081516000526004602052604060002091825415611d485785600184015403611d375760058301546001600160a01b0386811691908116829003611d265760a01c60ff1615611d155760028401916001600160401b03835460801c16611d04578f600195611c94611ec8928b96908154906001600160401b0360801b9060801b16906001600160401b0360801b1916179055565b611ed2858d611384565b52611edd848c611384565b506020810151611eed858e611384565b527ff930a6e2523c9cc298691873087a740550b8fc85a0680830414c148ed927f61560208c60c0611f24888a8060a01b0393611384565b510151169251604051908152a401611e12565b611f4c91503d806000833e611d6f8183611253565b38611de5565b60018060a01b03169182600052600660205260406000209082600052816020526001600160401b0360406000205416611fce576001600160401b0391836000526020526040600020828216831982541617905516917f92a1f7a41a7c585a8b09e25b195e225b1d43248daca46b0faf9e0792777a2229600080a4565b63ec9d6eeb60e01b60005260046000fd5b608081016001600160401b0381511680151590816120f6575b506119fb578161199260206119e394015191604081015193606082019360018060a01b0385511692519160018060a01b03825116916001600160401b03602082015116906040810151151560608201519060a0608084015160208151910120930151938860005260036020526001600160401b0360406000209687549761207e896118af565b90555116966040519860208a019a7ffeb2925a02bae3dae48d424a0437a2b6ac939aa9230ddc55a1a76f065d9880768c5260408b015260608a0152608089015260a088015260c087015260e0860152610100850152610120840152610140830152610160820152610160815261198a61018082611253565b90506001600160401b0342161138611ff8565b60405190612116826111e6565b6060602083600081520152565b919260c052612130612109565b5080519061213c612109565b60e0526121488261174f565b60e051602001526040516351753e3760e11b8152600481018490526000816024817f00000000000000000000000000000000000000000000000000000000000000006001600160a01b03165afa8015611d7e5760006080526126fa575b506080515115611d375790916121ba83611afe565b610100526121c78361174f565b60a0526000915b8383106121fb5750505050506121f1600160c05160a051610100516080516133c1565b60e0515260e05190565b61220b8382979394959697611384565b51916001600160401b0360208401511680151590816126e6575b506126d5576040608051015115806126c8575b611d15576060830151956001600160401b036020850151169660018060a01b0385511660408601511515906080870151926040519a6122768c611237565b60008c528960208d01526001600160401b03421660408d015260608c0152600060808c015260a08b015260c08a015260018060a01b038a1660e08a015261010089015261012088015260005b602088015160c089015161239a6004609960e08d0151938d604081015190606081015161010082015115159061012060a084015193015193604051998a96602088019c8d526001600160601b03199060601b1660408801526001600160601b03199060601b1660548701526001600160401b0360c01b9060c01b1660688601526001600160401b0360c01b9060c01b16607085015260f81b607884015260798301526123778151809260208686019101610ffb565b810163ffffffff60e01b8860e01b16838201520301601b19810184520182611253565b519020806000526004602052604060002054156123c0575060010163ffffffff166122c2565b9050979690949591979392938082528060005260046020526040600020918051835560208101516001840155612470600284016001600160401b0380604085015116166001600160401b0319825416178155606083015167ffffffffffffffff60401b82549160401b169067ffffffffffffffff60401b19161781556001600160401b036080840151168154906001600160401b0360801b9060801b16906001600160401b0360801b1916179055565b60a081810151600385015560c08201516004850180546001600160a01b0319166001600160a01b0392831617905560e08301516005860180546101008601516001600160a81b0319909116929093169190911791151590921b60ff60a01b1617905561012081015180519093906001600160401b0381116111d05789946124fa60068401546113cb565b601f811161266d575b50602090601f83116001146125fb5760069291600091836125f0575b50508160011b916000199060031b1c1916179101555b6060850151806125ca575b50936001946125528561010051611384565b526125608461010051611384565b5060a08101516125728560a051611384565b528161258485602060e0510151611384565b52848060a01b039051166040519182527f8bf46bf4cfd674fa735a3d63ec1c9ad4153f033c290341f3a588b75685141b356020868060a01b038b1693a4019192906121ce565b6125e39193506000526004602052604060002054151590565b15611d4857869138612540565b01519050388061251f565b9060068401600052806000209160005b601f19851681106126525750918391600193600695601f19811610612639575b505050811b01910155612535565b015160001960f88460031b161c1916905538808061262b565b8183015184558d98506001909301926020928301920161260b565b90919293949550600684016000526020600020601f840160051c8101602085106126c1575b908c979695949392915b601f830160051c820181106126b2575050612503565b600081558d985060010161269c565b5080612692565b5060408301511515612238565b6308e8b93760e01b60005260046000fd5b90506001600160401b034216101538612225565b61270e903d806000833e611d6f8183611253565b608052386121a5565b919293909360c05260e05261272a612109565b50825190612736612109565b610100526127438261174f565b61010051602001526040516351753e3760e11b815260048101829052936000856024817f00000000000000000000000000000000000000000000000000000000000000006001600160a01b03165afa948515611d7e57600095612cbd575b50845115611d3757906127b383611afe565b6080526127bf8361174f565b60a0526000915b8383106127f75750505050506127eb9060e0519060c0519060a05190608051906133c1565b61010051526101005190565b9092949193956128078583611384565b51926001600160401b036020850151168015159081612ca9575b506126d55760408101511580612c9c575b611d155760209660608501516001600160401b0389870151169060018060a01b0387511660408801511515916080890151938a6040519d8e61287381611237565b6000815201528c60406001600160401b03421691015260608d0152600060808d015260a08c015260c08b015260018060a01b038b1660e08b01526101008a015261012089015260005b6020890151896129716004609960c084015160e085015194604081015190606081015161010082015115159061012060a084015193015193604051998a96602088019c8d526001600160601b03199060601b1660408801526001600160601b03199060601b1660548701526001600160401b0360c01b9060c01b1660688601526001600160401b0360c01b9060c01b16607085015260f81b607884015260798301526123778151809260208686019101610ffb565b51902080600052600460205260406000205415612997575060010163ffffffff166128bc565b90509896919790959492988082528060005260046020526040600020918051835560208101516001840155612a46600284016001600160401b0380604085015116166001600160401b0319825416178155606083015167ffffffffffffffff60401b82549160401b169067ffffffffffffffff60401b19161781556001600160401b036080840151168154906001600160401b0360801b9060801b16906001600160401b0360801b1916179055565b60a081810151600385015560c08201516004850180546001600160a01b0319166001600160a01b0392831617905560e08301516005860180546101008601516001600160a81b0319909116929093169190911791151590921b60ff60a01b1617905561012081015180519093906001600160401b0381116111d0578894612ad060068401546113cb565b601f8111612c41575b50602090601f8311600114612bcf576006929160009183612bc4575b50508160011b916000199060031b1c1916179101555b606085015180612b9e575b5093600194612b2785608051611384565b52612b3484608051611384565b5060a0810151612b468560a051611384565b5281612b59856020610100510151611384565b52848060a01b039051166040519182527f8bf46bf4cfd674fa735a3d63ec1c9ad4153f033c290341f3a588b75685141b356020868060a01b038b1693a40191906127c6565b612bb79193506000526004602052604060002054151590565b15611d4857859138612b16565b015190503880612af5565b9060068401600052806000209160005b601f1985168110612c265750918391600193600695601f19811610612c0d575b505050811b01910155612b0b565b015160001960f88460031b161c19169055388080612bff565b8183015184558c985060019093019260209283019201612bdf565b90919293949550600684016000526020600020601f840160051c810160208510612c95575b908b979695949392915b601f830160051c82018110612c86575050612ad9565b600081558c9850600101612c70565b5080612c66565b5060408401511515612832565b90506001600160401b034216101538612821565b612cd39195503d806000833e611d6f8183611253565b93386127a1565b90612ce49061174f565b90600081519160005b838110612cfb575050505090565b612d058183611384565b5180516000915b818310612d1e57505050600101612ced565b90919460018091612d2f8885611384565b51612d3a828c611384565b520195019190612d0c565b908160005260056020526001600160401b0360406000205416612dad576001600160401b03908260005260056020526040600020828216831982541617905516907f5aafceeb1c7ad58e4a84898bdee37c02c0fc46e7d24e6b60e8209449f183459f600080a3565b6317133ca360e11b60005260046000fd5b8060009172184f03e93ff9f4daa797ed6e38ed64bf6a1f0160401b821015612f0a575b806d04ee2d6d415b85acef8100000000600a921015612eef575b662386f26fc10000811015612edb575b6305f5e100811015612eca575b612710811015612ebb575b6064811015612ead575b1015612ea2575b600a60216001840193612e4685611488565b94612e546040519687611253565b808652612e63601f1991611488565b013660208701378401015b60001901916f181899199a1a9b1b9c1cb0b131b232b360811b8282061a8353048015612e9d57600a9091612e6e565b505090565b600190910190612e34565b606460029104930192612e2d565b61271060049104930192612e23565b6305f5e10060089104930192612e18565b662386f26fc1000060109104930192612e0b565b6d04ee2d6d415b85acef810000000060209104930192612dfb565b506040915072184f03e93ff9f4daa797ed6e38ed64bf6a1f0160401b8104612de1565b307f00000000000000000000000000000000000000000000000000000000000000006001600160a01b03161480613020575b15612f88577f000000000000000000000000000000000000000000000000000000000000000090565b60405160208101907f8b73c3c69bb8fe3d512ecc4cf759cc79239f7b179b0ffacaa9a75d522b39400f82527f000000000000000000000000000000000000000000000000000000000000000060408201527f000000000000000000000000000000000000000000000000000000000000000060608201524660808201523060a082015260a0815261301a60c082611253565b51902090565b507f00000000000000000000000000000000000000000000000000000000000000004614612f5f565b604290613054612f2d565b906040519161190160f01b8352600283015260228201522090565b9190823b6130c0579061308191613675565b5060048110156130aa5715918261309757505090565b6001600160a01b03918216911614919050565b634e487b7160e01b600052602160045260246000fd5b916000926130f761310585946040519283916020830195630b135d3f60e11b8752602484015260406044840152606483019061101e565b03601f198101835282611253565b51915afa613111613645565b8161313f575b81613120575090565b90506020818051810103126101b75760200151630b135d3f60e11b1490565b905060208151101590613117565b929160408401936040815282518095526060810194602060608260051b84010194019060005b8181106131905750505061117a93945060208184039101526110a7565b9091946020806131ac600193605f19888203018c5289516110db565b97019801910196919096613173565b9391908051946001861461339b57602001516001600160a01b031690811561335757604051636723702360e11b815260009690602081600481875afa90811561334c57889161330e575b509087915b8183106132ae575050509160209161323993876040518096819582946388e5b2d960e01b84526004840161314d565b03925af1908115611d7e57600091613274575b50156132635761325a575090565b61117a9061388d565b63bf2f3a8b60e01b60005260046000fd5b90506020813d6020116132a6575b8161328f60209383611253565b810103126101b7576132a090611a1f565b3861324c565b3d9150613282565b909197966132bc8987611384565b5180156133035782156132f2578181116132e15780600192039801985b01919061320a565b63044044a560e21b60005260046000fd5b631574f9f360e01b60005260046000fd5b5096976001906132d9565b90506020813d602011613344575b8161332960209383611253565b810103126133405761333a90611a1f565b38613205565b8780fd5b3d915061331c565b6040513d8a823e3d90fd5b50506000939192935b82811061338457505050613375575b50600090565b61337e9061388d565b3861336f565b61338e8183611384565b516132f257600101613360565b9061117a9550916133ba6133b3600194969596611377565b5191611377565b51916136b1565b81519492916000916001871461359357602001516001600160a01b0316918215613554578096604051636723702360e11b8152602081600481885afa90811561354957839161350b575b509082915b8183106134ad5750505091613441939160209350876040518096819582946348ed85bf60e11b84526004840161314d565b03925af1908115611d7e57600091613473575b50156134625761325a575090565b63e8bee83960e01b60005260046000fd5b90506020813d6020116134a5575b8161348e60209383611253565b810103126101b75761349f90611a1f565b38613454565b3d9150613481565b909198976134bb8a88611384565b519081156135005782156134f1578082116134e2579080600192039901995b019190613410565b63044044a560e21b8552600485fd5b631574f9f360e01b8552600485fd5b9899600191506134da565b90506020813d602011613541575b8161352660209383611253565b8101031261353d5761353790611a1f565b3861340b565b8280fd5b3d9150613519565b6040513d85823e3d90fd5b9592915050845b82811061356d5750505061325a575090565b6135778183611384565b516135845760010161355b565b631574f9f360e01b8652600486fd5b91929061117a96506133b36133ba91969596611377565b60ff81146135f45760ff811690601f82116135e35760408051926135ce8285611253565b6020808552840191601f190136833783525290565b632cd44ac360e21b60005260046000fd5b5060405161117a81613607816000611405565b0382611253565b60ff81146136325760ff811690601f82116135e35760408051926135ce8285611253565b5060405161117a81613607816001611405565b3d15613670573d9061365682611488565b916136646040519384611253565b82523d6000602084013e565b606090565b81519190604183036136a65761369f92506020820151906060604084015193015160001a906138ee565b9192909190565b505060009160029190565b6020015191949290916001600160a01b031690811561387a5790859291836137fc575b602092919015613772576137059160405194858094819363e49617e160e01b835287600484015260248301906110db565b03925af1908115611d7e57600091613738575b5015613727575b61325a575090565b63ccf3bb2760e01b60005260046000fd5b90506020813d60201161376a575b8161375360209383611253565b810103126101b75761376490611a1f565b38613718565b3d9150613746565b6137999160405194858094819363e60c350560e01b835287600484015260248301906110db565b03925af1908115611d7e576000916137c2575b5061371f5763bd8ba84d60e01b60005260046000fd5b90506020813d6020116137f4575b816137dd60209383611253565b810103126101b7576137ee90611a1f565b386137ac565b3d91506137d0565b9491909250604051636723702360e11b8152602081600481875afa908115611d7e57600091613840575b50156132f2578186116132e15790859003938592906136d4565b90506020813d602011613872575b8161385b60209383611253565b810103126101b75761386c90611a1f565b38613826565b3d915061384e565b50505090916132f2576133755750600090565b806138955750565b8047106138d657600080808093335af16138ad613645565b90156138b65750565b8051156138c557805190602001fd5b63d6bda27560e01b60005260046000fd5b4763cf47918160e01b60005260045260245260446000fd5b91907f7fffffffffffffffffffffffffffffff5d576e7357a4501ddfe92f46681b20a0841161396b579160209360809260ff60009560405194855216868401526040830152606082015282805260015afa15611d7e576000516001600160a01b0381161561395f5790600090600090565b50600090600190600090565b5050506000916003919056fea2646970667358221220a73ad4a2a77a0cca697753a590dbef88bca346355f6a0d8bd323782688f39d9064736f6c634300081c0033",
  "linkReferences": {},
  "deployedLinkReferences": {}
}