{
  "_format": "hh-sol-artifact-1",
  "contractName": "Identity",
  "sourceName": "@onchainid/contracts/Identity.sol",
  "abi": [
    {
      "inputs": [
        {
          "internalType": "address",
          "name": "initialManagementKey",
          "type": "address"
        },
        {
          "internalType": "bool",
          "name": "_isLibrary",
          "type": "bool"
        }
      ],
      "stateMutability": "nonpayable",
      "type": "constructor"
    },
    {
      "anonymous": false,
      "inputs": [
        {
          "indexed": true,
          "internalType": "uint256",
          "name": "executionId",
          "type": "uint256"
        },
        {
          "indexed": false,
          "internalType": "bool",
          "name": "approved",
          "type": "bool"
        }
      ],
      "name": "Approved",
      "type": "event"
    },
    {
      "anonymous": false,
      "inputs": [
        {
          "indexed": true,
          "internalType": "bytes32",
          "name": "claimId",
          "type": "bytes32"
        },
        {
          "indexed": true,
          "internalType": "uint256",
          "name": "topic",
          "type": "uint256"
        },
        {
          "indexed": false,
          "internalType": "uint256",
          "name": "scheme",
          "type": "uint256"
        },
        {
          "indexed": true,
          "internalType": "address",
          "name": "issuer",
          "type": "address"
        },
        {
          "indexed": false,
          "internalType": "bytes",
          "name": "signature",
          "type": "bytes"
        },
        {
          "indexed": false,
          "internalType": "bytes",
          "name": "data",
          "type": "bytes"
        },
        {
          "indexed": false,
          "internalType": "string",
          "name": "uri",
          "type": "string"
        }
      ],
      "name": "ClaimAdded",
      "type": "event"
    },
    {
      "anonymous": false,
      "inputs": [
        {
          "indexed": true,
          "internalType": "bytes32",
          "name": "claimId",
          "type": "bytes32"
        },
        {
          "indexed": true,
          "internalType": "uint256",
          "name": "topic",
          "type": "uint256"
        },
        {
          "indexed": false,
          "internalType": "uint256",
          "name": "scheme",
          "type": "uint256"
        },
        {
          "indexed": true,
          "internalType": "address",
          "name": "issuer",
          "type": "address"
        },
        {
          "indexed": false,
          "internalType": "bytes",
          "name": "signature",
          "type": "bytes"
        },
        {
          "indexed": false,
          "internalType": "bytes",
          "name": "data",
          "type": "bytes"
        },
        {
          "indexed": false,
          "internalType": "string",
          "name": "uri",
          "type": "string"
        }
      ],
      "name": "ClaimChanged",
      "type": "event"
    },
    {
      "anonymous": false,
      "inputs": [
        {
          "indexed": true,
          "internalType": "bytes32",
          "name": "claimId",
          "type": "bytes32"
        },
        {
          "indexed": true,
          "internalType": "uint256",
          "name": "topic",
          "type": "uint256"
        },
        {
          "indexed": false,
          "internalType": "uint256",
          "name": "scheme",
          "type": "uint256"
        },
        {
          "indexed": true,
          "internalType": "address",
          "name": "issuer",
          "type": "address"
        },
        {
          "indexed": false,
          "internalType": "bytes",
          "name": "signature",
          "type": "bytes"
        },
        {
          "indexed": false,
          "internalType": "bytes",
          "name": "data",
          "type": "bytes"
        },
        {
          "indexed": false,
          "internalType": "string",
          "name": "uri",
          "type": "string"
        }
      ],
      "name": "ClaimRemoved",
      "type": "event"
    },
    {
      "anonymous": false,
      "inputs": [
        {
          "indexed": true,
          "internalType": "uint256",
          "name": "executionId",
          "type": "uint256"
        },
        {
          "indexed": true,
          "internalType": "address",
          "name": "to",
          "type": "address"
        },
        {
          "indexed": true,
          "internalType": "uint256",
          "name": "value",
          "type": "uint256"
        },
        {
          "indexed": false,
          "internalType": "bytes",
          "name": "data",
          "type": "bytes"
        }
      ],
      "name": "Executed",
      "type": "event"
    },
    {
      "anonymous": false,
      "inputs": [
        {
          "indexed": true,
          "internalType": "uint256",
          "name": "executionId",
          "type": "uint256"
        },
        {
          "indexed": true,
          "internalType": "address",
          "name": "to",
          "type": "address"
        },
        {
          "indexed": true,
          "internalType": "uint256",
          "name": "value",
          "type": "uint256"
        },
        {
          "indexed": false,
          "internalType": "bytes",
          "name": "data",
          "type": "bytes"
        }
      ],
      "name": "ExecutionFailed",
      "type": "event"
    },
    {
      "anonymous": false,
      "inputs": [
        {
          "indexed": true,
          "internalType": "uint256",
          "name": "executionId",
          "type": "uint256"
        },
        {
          "indexed": true,
          "internalType": "address",
          "name": "to",
          "type": "address"
        },
        {
          "indexed": true,
          "internalType": "uint256",
          "name": "value",
          "type": "uint256"
        },
        {
          "indexed": false,
          "internalType": "bytes",
          "name": "data",
          "type": "bytes"
        }
      ],
      "name": "ExecutionRequested",
      "type": "event"
    },
    {
      "anonymous": false,
      "inputs": [
        {
          "indexed": true,
          "internalType": "bytes32",
          "name": "key",
          "type": "bytes32"
        },
        {
          "indexed": true,
          "internalType": "uint256",
          "name": "purpose",
          "type": "uint256"
        },
        {
          "indexed": true,
          "internalType": "uint256",
          "name": "keyType",
          "type": "uint256"
        }
      ],
      "name": "KeyAdded",
      "type": "event"
    },
    {
      "anonymous": false,
      "inputs": [
        {
          "indexed": true,
          "internalType": "bytes32",
          "name": "key",
          "type": "bytes32"
        },
        {
          "indexed": true,
          "internalType": "uint256",
          "name": "purpose",
          "type": "uint256"
        },
        {
          "indexed": true,
          "internalType": "uint256",
          "name": "keyType",
          "type": "uint256"
        }
      ],
      "name": "KeyRemoved",
      "type": "event"
    },
    {
      "inputs": [
        {
          "internalType": "uint256",
          "name": "_topic",
          "type": "uint256"
        },
        {
          "internalType": "uint256",
          "name": "_scheme",
          "type": "uint256"
        },
        {
          "internalType": "address",
          "name": "_issuer",
          "type": "address"
        },
        {
          "internalType": "bytes",
          "name": "_signature",
          "type": "bytes"
        },
        {
          "internalType": "bytes",
          "name": "_data",
          "type": "bytes"
        },
        {
          "internalType": "string",
          "name": "_uri",
          "type": "string"
        }
      ],
      "name": "addClaim",
      "outputs": [
        {
          "internalType": "bytes32",
          "name": "claimRequestId",
          "type": "bytes32"
        }
      ],
      "stateMutability": "nonpayable",
      "type": "function"
    },
    {
      "inputs": [
        {
          "internalType": "bytes32",
          "name": "_key",
          "type": "bytes32"
        },
        {
          "internalType": "uint256",
          "name": "_purpose",
          "type": "uint256"
        },
        {
          "internalType": "uint256",
          "name": "_type",
          "type": "uint256"
        }
      ],
      "name": "addKey",
      "outputs": [
        {
          "internalType": "bool",
          "name": "success",
          "type": "bool"
        }
      ],
      "stateMutability": "nonpayable",
      "type": "function"
    },
    {
      "inputs": [
        {
          "internalType": "uint256",
          "name": "_id",
          "type": "uint256"
        },
        {
          "internalType": "bool",
          "name": "_approve",
          "type": "bool"
        }
      ],
      "name": "approve",
      "outputs": [
        {
          "internalType": "bool",
          "name": "success",
          "type": "bool"
        }
      ],
      "stateMutability": "nonpayable",
      "type": "function"
    },
    {
      "inputs": [
        {
          "internalType": "address",
          "name": "_to",
          "type": "address"
        },
        {
          "internalType": "uint256",
          "name": "_value",
          "type": "uint256"
        },
        {
          "internalType": "bytes",
          "name": "_data",
          "type": "bytes"
        }
      ],
      "name": "execute",
      "outputs": [
        {
          "internalType": "uint256",
          "name": "executionId",
          "type": "uint256"
        }
      ],
      "stateMutability": "payable",
      "type": "function"
    },
    {
      "inputs": [
        {
          "internalType": "bytes32",
          "name": "_claimId",
          "type": "bytes32"
        }
      ],
      "name": "getClaim",
      "outputs": [
        {
          "internalType": "uint256",
          "name": "topic",
          "type": "uint256"
        },
        {
          "internalType": "uint256",
          "name": "scheme",
          "type": "uint256"
        },
        {
          "internalType": "address",
          "name": "issuer",
          "type": "address"
        },
        {
          "internalType": "bytes",
          "name": "signature",
          "type": "bytes"
        },
        {
          "internalType": "bytes",
          "name": "data",
          "type": "bytes"
        },
        {
          "internalType": "string",
          "name": "uri",
          "type": "string"
        }
      ],
      "stateMutability": "view",
      "type": "function"
    },
    {
      "inputs": [
        {
          "internalType": "uint256",
          "name": "_topic",
          "type": "uint256"
        }
      ],
      "name": "getClaimIdsByTopic",
      "outputs": [
        {
          "internalType": "bytes32[]",
          "name": "claimIds",
          "type": "bytes32[]"
        }
      ],
      "stateMutability": "view",
      "type": "function"
    },
    {
      "inputs": [
        {
          "internalType": "bytes32",
          "name": "_key",
          "type": "bytes32"
        }
      ],
      "name": "getKey",
      "outputs": [
        {
          "internalType": "uint256[]",
          "name": "purposes",
          "type": "uint256[]"
        },
        {
          "internalType": "uint256",
          "name": "keyType",
          "type": "uint256"
        },
        {
          "internalType": "bytes32",
          "name": "key",
          "type": "bytes32"
        }
      ],
      "stateMutability": "view",
      "type": "function"
    },
    {
      "inputs": [
        {
          "internalType": "bytes32",
          "name": "_key",
          "type": "bytes32"
        }
      ],
      "name": "getKeyPurposes",
      "outputs": [
        {
          "internalType": "uint256[]",
          "name": "_purposes",
          "type": "uint256[]"
        }
      ],
      "stateMutability": "view",
      "type": "function"
    },
    {
      "inputs": [
        {
          "internalType": "uint256",
          "name": "_purpose",
          "type": "uint256"
        }
      ],
      "name": "getKeysByPurpose",
      "outputs": [
        {
          "internalType": "bytes32[]",
          "name": "keys",
          "type": "bytes32[]"
        }
      ],
      "stateMutability": "view",
      "type": "function"
    },
    {
      "inputs": [
        {
          "internalType": "bytes",
          "name": "sig",
          "type": "bytes"
        },
        {
          "internalType": "bytes32",
          "name": "dataHash",
          "type": "bytes32"
        }
      ],
      "name": "getRecoveredAddress",
      "outputs": [
        {
          "internalType": "address",
          "name": "addr",
          "type": "address"
        }
      ],
      "stateMutability": "pure",
      "type": "function"
    },
    {
      "inputs": [
        {
          "internalType": "address",
          "name": "initialManagementKey",
          "type": "address"
        }
      ],
      "name": "initialize",
      "outputs": [],
      "stateMutability": "nonpayable",
      "type": "function"
    },
    {
      "inputs": [
        {
          "internalType": "contract IIdentity",
          "name": "_identity",
          "type": "address"
        },
        {
          "internalType": "uint256",
          "name": "claimTopic",
          "type": "uint256"
        },
        {
          "internalType": "bytes",
          "name": "sig",
          "type": "bytes"
        },
        {
          "internalType": "bytes",
          "name": "data",
          "type": "bytes"
        }
      ],
      "name": "isClaimValid",
      "outputs": [
        {
          "internalType": "bool",
          "name": "claimValid",
          "type": "bool"
        }
      ],
      "stateMutability": "view",
      "type": "function"
    },
    {
      "inputs": [
        {
          "internalType": "bytes32",
          "name": "_key",
          "type": "bytes32"
        },
        {
          "internalType": "uint256",
          "name": "_purpose",
          "type": "uint256"
        }
      ],
      "name": "keyHasPurpose",
      "outputs": [
        {
          "internalType": "bool",
          "name": "result",
          "type": "bool"
        }
      ],
      "stateMutability": "view",
      "type": "function"
    },
    {
      "inputs": [
        {
          "internalType": "bytes32",
          "name": "_claimId",
          "type": "bytes32"
        }
      ],
      "name": "removeClaim",
      "outputs": [
        {
          "internalType": "bool",
          "name": "success",
          "type": "bool"
        }
      ],
      "stateMutability": "nonpayable",
      "type": "function"
    },
    {
      "inputs": [
        {
          "internalType": "bytes32",
          "name": "_key",
          "type": "bytes32"
        },
        {
          "internalType": "uint256",
          "name": "_purpose",
          "type": "uint256"
        }
      ],
      "name": "removeKey",
      "outputs": [
        {
          "internalType": "bool",
          "name": "success",
          "type": "bool"
        }
      ],
      "stateMutability": "nonpayable",
      "type": "function"
    },
    {
      "inputs": [],
      "name": "version",
      "outputs": [
        {
          "internalType": "string",
          "name": "",
          "type": "string"
        }
      ],
      "stateMutability": "pure",
      "type": "function"
    }
  ],
  "bytecode": "0x608080604052346102a45760408161279f803803809161001f82856102a9565b8339810103126102a45780516001600160a01b03811691908290036102a457602001518015908115036102a45761ffff19600654169081600655600014610298575080156102535760065460ff811615801561024a575b15610205576101019061ffff19161760065560405160208101918252602081526100a16040826102a9565b519020806000526001602052806002604060002001556040516020810181811060018060401b038211176101ae5760405260018152816000526001602052604060002090815460018355806001106101db575b509060005260206000209060005b600181106101c4575050508060005260016020526001806040600020015560016000526002602052604060002090815490680100000000000000008210156101ae57600182018084558210156101985780600193928493600052602060002001557f480000bb1edad8ca1470381cc334b1917fbd51c6531f3a623ea8e0ec7e38a6e9600080a45b6040516124d290816102cd8239f35b634e487b7160e01b600052603260045260246000fd5b634e487b7160e01b600052604160045260246000fd5b600190602060ff8451169301928185015501610102565b826000526001602060002091820191015b8181106101f957506100f4565b600081556001016101ec565b60405162461bcd60e51b815260206004820152601e60248201527f496e697469616c206b65792077617320616c72656164792073657475702e00006044820152606490fd5b50303b15610076565b60405162461bcd60e51b815260206004820152601f60248201527f696e76616c696420617267756d656e74202d207a65726f2061646472657373006044820152606490fd5b60011760065550610189565b600080fd5b601f909101601f19168101906001600160401b038211908210176101ae5760405256fe6080604052600436101561001257600080fd5b60003560e01c806312aaac70146101175780631d381240146101125780634eee424a1461010d57806353d413c51461010857806354fd4d5014610103578063747442d3146100fe57806380e9e9e1146100f95780639010f726146100f4578063b1a34e0d146100ef578063b61d27f6146100ea578063c0969a6e146100e5578063c3b129e3146100e0578063c4d66de8146100db578063c9100bcb146100d6578063d202158d146100d15763fb307b34146100cc57600080fd5b611176565b611155565b6110e4565b610ef2565b610ea1565b610e32565b610c7f565b610bcc565b610a78565b610a03565b61097f565b61092e565b610654565b6103aa565b6101b4565b610150565b906020808351928381520192019060005b81811061013a5750505090565b825184526020938401939092019160010161012d565b346101af5760203660031901126101af576101a060043560009081526001602081905260409091209081015460028201549161018b906111b6565b9160405193849360608552606085019061011c565b91602084015260408301520390f35b600080fd5b346101af5760603660031901126101af57600435602435604435916101e5600160ff60065460081c16151514611201565b303314801561037a575b6101f890611269565b80600261020f826000526001602052604060002090565b0154036103185761023261022d826000526001602052604060002090565b6111b6565b9060005b82518110156102a7578361024a8285611391565b511461025857600101610236565b60405162461bcd60e51b815260206004820152602160248201527f436f6e666c6963743a204b657920616c72656164792068617320707572706f736044820152606560f81b6064820152608490fd5b50929190506102c9816102c4856000526001602052604060002090565b6113c2565b6102e1836102c4836000526002602052604060002090565b604051927f480000bb1edad8ca1470381cc334b1917fbd51c6531f3a623ea8e0ec7e38a6e9600080a46001815280602081015b0390f35b9190826002610331826000526001602052604060002090565b015561035c6103406020610b4b565b828152610357856000526001602052604060002090565b611343565b816001610373856000526001602052604060002090565b01556102c9565b506101f86103a360405160208101903382526020815261039b604082610b29565b519020612203565b90506101ef565b346101af5760203660031901126101af576004356103d4600160ff60065460081c16151514611201565b3033148015610624575b6103e7906113fb565b6103fb816000526004602052604060002090565b5480156105cb57600091610419826000526005602052604060002090565b54925b8161044761043d83610438876000526005602052604060002090565b6113aa565b90549060031b1c90565b146105b15761045590611462565b83811061041c57916104b06105a0936104aa61049561043d6105a5985b61048f610489886000526005602052604060002090565b91611476565b906113aa565b91610438856000526005602052604060002090565b906112e4565b6104cc6104c7826000526005602052604060002090565b61149b565b60016104e2836000526004602052604060002090565b015490827f3cf57863a89432c61c4a27073c6ee39e8a764bff5a05aebfbcdcdc80b2e6130a61052e6002610520846000526004602052604060002090565b01546001600160a01b031690565b6003610544846000526004602052604060002090565b019061058d600461055f866000526004602052604060002090565b016005610576876000526004602052604060002090565b019060405194859460018060a01b0316998561158e565b0390a46000526004602052604060002090565b611623565b60405160018152602090f35b916104b06105a0936104aa61049561043d6105a598610472565b60405162461bcd60e51b815260206004820152602b60248201527f4e6f6e4578697374696e673a205468657265206973206e6f20636c61696d207760448201526a1a5d1a081d1a1a5cc8125160aa1b6064820152608490fd5b506103e761064d604051602081019033825260208152610645604082610b29565b51902061228a565b90506103de565b346101af5760403660031901126101af57600435602435610681600160ff60065460081c16151514611201565b30331480156108c5575b61069490611269565b6106b68260026106ae826000526001602052604060002090565b01541461165b565b6106cd61022d836000526001602052604060002090565b9060005b816106dc8285611391565b5114610752576106eb90611462565b90825182146106fa57906106d1565b60405162461bcd60e51b815260206004820152602a60248201527f4e6f6e4578697374696e673a204b657920646f65736e27742068617665207375604482015269636820707572706f736560b01b6064820152608490fd5b6107706107686107628551611476565b85611391565b519184611391565b5261078e82610789856000526001602052604060002090565b6116b1565b6107a56104c7846000526001602052604060002090565b600081815260026020526040812054905b846107d261043d83610438876000526002602052604060002090565b146108b3576107e090611462565b8181106107b6576104aa61080c61043d610821945b61048f610489886000526002602052604060002090565b91610438856000526002602052604060002090565b6108386104c7826000526002602052604060002090565b61085a6001610851856000526001602052604060002090565b01549251611476565b15610892575b604051927f585a4aef50f8267a92b32412b331b20f7f8b96f2245b253b9cc50dcc621d3397600080a460018152602090f35b6108ae6108a9846000526001602052604060002090565b61172a565b610860565b6104aa61080c61043d610821946107f5565b506106946108e660405160208101903382526020815261039b604082610b29565b905061068b565b919082519283825260005b848110610919575050826000602080949584010152601f8019910116010190565b806020809284010151828286010152016108f8565b346101af5760003660031901126101af5761031460408051906109518183610b29565b6005825264322e322e3160d81b6020830152519182916020835260208301906108ed565b801515036101af57565b346101af5760403660031901126101af5760206109bf6024356004356109a482610975565b6109ba600160ff60065460081c16151514611201565b611974565b6040519015158152f35b602060408183019282815284518094520192019060005b8181106109ed5750505090565b82518452602093840193909201916001016109e0565b346101af5760203660031901126101af576004356000526005602052604060002060405190816020825491828152019160005260206000209060005b818110610a625761031485610a5681870382610b29565b604051918291826109c9565b8254845260209093019260019283019201610a3f565b346101af5760203660031901126101af576004356000526002602052604060002060405190816020825491828152019160005260206000209060005b818110610acb5761031485610a5681870382610b29565b8254845260209093019260019283019201610ab4565b6001600160a01b038116036101af57565b634e487b7160e01b600052604160045260246000fd5b6060810190811067ffffffffffffffff821117610b2457604052565b610af2565b90601f8019910116810190811067ffffffffffffffff821117610b2457604052565b90610b596040519283610b29565b565b67ffffffffffffffff8111610b2457601f01601f191660200190565b929192610b8382610b5b565b91610b916040519384610b29565b8294818452818301116101af578281602093846000960137010152565b9080601f830112156101af57816020610bc993359101610b77565b90565b346101af5760c03660031901126101af57602435604435600435610bef82610ae1565b60643567ffffffffffffffff81116101af57610c0f903690600401610bae565b60843567ffffffffffffffff81116101af57610c2f903690600401610bae565b9060a4359367ffffffffffffffff85116101af57366023860112156101af5761031495610c69610c6f963690602481600401359101610b77565b94611c59565b6040519081529081906020820190565b60603660031901126101af57600435610c9781610ae1565b6024359060443567ffffffffffffffff81116101af57610314927f8afcfabcb00e47a53a8fc3e9f23ff47ee1926194bb1350dd007c50b412a6cee892610ce4610d9a933690600401610bae565b90610cfb600160ff60065460081c16151514611201565b6000549481610d388793610d19856000526003602052604060002090565b80546001600160a01b0319166001600160a01b03909216919091179055565b846001610d4f856000526003602052604060002090565b0155610d71846002610d6b866000526003602052604060002090565b01611fa9565b610d7c600054611462565b6000556040516001600160a01b0391909116958694829190826120a5565b0390a4604080513360208201908152610dc79290919061039b90829081015b03601f198101835282610b29565b15610de75750610dd68161175e565b506040519081529081906020820190565b30141580610e04575b15610c6f57610dfe8161175e565b50610c6f565b50604080513360208201908152610e2d92909190610e259082908101610db9565b519020612305565b610df0565b346101af5760803660031901126101af57600435610e4f81610ae1565b6024359060443567ffffffffffffffff81116101af57610e73903690600401610bae565b906064359167ffffffffffffffff83116101af57602093610e9b6109bf943690600401610bae565b926120b6565b346101af5760403660031901126101af5760043567ffffffffffffffff81116101af57610ee0610ed76020923690600401610bae565b6024359061216d565b6040516001600160a01b039091168152f35b346101af5760203660031901126101af57600435610f0f81610ae1565b6001600160a01b0381161561104e57600654600191829160ff16158015611045575b610f3a90612415565b610f4c600160ff196006541617600655565b610f6061010061ff00196006541617600655565b604080516001600160a01b03909216602083019081529190610f859082908101610db9565b519020806002610f9f826000526001602052604060002090565b0155610fcb610fae6020610b4b565b60018152610fc6836000526001602052604060002090565b612461565b610fea82610fe3836000526001602052604060002090565b0160019055565b6001600052600260205261101e817fe90b7bceb6e7df5418fb78d8ee546e97c83a08bbccc01a0644d599ccd2a7c2e06113c2565b7f480000bb1edad8ca1470381cc334b1917fbd51c6531f3a623ea8e0ec7e38a6e9600080a4005b50303b15610f31565b60405162461bcd60e51b815260206004820152601f60248201527f696e76616c696420617267756d656e74202d207a65726f2061646472657373006044820152606490fd5b9491936110d693610bc997956110c8938852602088015260018060a01b0316604087015260c0606087015260c08601906108ed565b9084820360808601526108ed565b9160a08184039101526108ed565b346101af5760203660031901126101af5760048035600090815260208290526040902080546001820154600283015490939192610314926001600160a01b0390921691600582019190810190611148906111429081906003016121e8565b926121e8565b9260405196879687611093565b346101af5760403660031901126101af5760206109bf602435600435612380565b346101af5760203660031901126101af5760043560005260016020526103146111a260406000206111b6565b60405191829160208352602083019061011c565b906040519182815491828252602082019060005260206000209260005b8181106111e8575050610b5992500383610b29565b84548352600194850194879450602090930192016111d3565b1561120857565b60405162461bcd60e51b815260206004820152603360248201527f496e746572616374696e67207769746820746865206c69627261727920636f6e6044820152723a3930b1ba1034b9903337b93134b23232b71760691b6064820152608490fd5b1561127057565b60405162461bcd60e51b815260206004820152603060248201527f5065726d697373696f6e733a2053656e64657220646f6573206e6f742068617660448201526f65206d616e6167656d656e74206b657960801b6064820152608490fd5b634e487b7160e01b600052601160045260246000fd5b916112fe9183549060031b91821b91600019901b19161790565b9055565b81811061130d575050565b60008155600101611302565b8054600182558060011061132b575050565b610b5991600052600160206000209182019101611302565b9061134d82611319565b9060005260206000209060005b6001811061136757505050565b60019060208351930192818501550161135a565b634e487b7160e01b600052603260045260246000fd5b80518210156113a55760209160051b010190565b61137b565b80548210156113a55760005260206000200190600090565b805490600160401b821015610b2457816113e49160016112fe940181556113aa565b819391549060031b91821b91600019901b19161790565b1561140257565b60405162461bcd60e51b815260206004820152603260248201527f5065726d697373696f6e733a2053656e64657220646f6573206e6f74206861766044820152716520636c61696d207369676e6572206b657960701b6064820152608490fd5b60001981146114715760010190565b6112ce565b60001981019190821161147157565b634e487b7160e01b600052603160045260246000fd5b805480156114cc5760001901906114c76114b583836113aa565b81929154906000199060031b1b191690565b905555565b611485565b90600182811c92168015611501575b60208310146114eb57565b634e487b7160e01b600052602260045260246000fd5b91607f16916114e0565b6000929181549161151b836114d1565b8083529260018116908115611571575060011461153757505050565b60009081526020812093945091925b838310611557575060209250010190565b600181602092949394548385870101520191019190611546565b915050602093945060ff929192191683830152151560051b010190565b926115ae610bc995936115bc93865260806020870152608086019061150b565b90848203604086015261150b565b91606081840391015261150b565b6115d481546114d1565b90816115de575050565b601f82116001146115f0576000905550565b611612610b5992826000526001601f6020600020920160051c82019101611302565b600081815260208120918190559055565b600590600081556000600182015560006002820155611644600382016115ca565b611650600482016115ca565b016115d481546114d1565b1561166257565b60405162461bcd60e51b815260206004820152602160248201527f4e6f6e4578697374696e673a204b65792069736e2774207265676973746572656044820152601960fa1b6064820152608490fd5b81519167ffffffffffffffff8311610b2457600160401b8311610b2457602090825484845580851061170d575b500190600052602060002060005b8381106116f95750505050565b6001906020845194019381840155016116ec565b611724908460005285846000209182019101611302565b386116de565b6002600091805483825580611745575b508260018201550155565b8184526020842061175891810190611302565b3861173a565b6001610bc9916109ba8260ff60065460081c16151514611201565b1561178057565b60405162461bcd60e51b815260206004820152602760248201527f43616e6e6f7420617070726f76652061206e6f6e2d6578697374696e6720657860448201526632b1baba34b7b760c91b6064820152608490fd5b156117dc57565b60405162461bcd60e51b815260206004820152601860248201527f5265717565737420616c726561647920657865637574656400000000000000006044820152606490fd5b1561182857565b60405162461bcd60e51b815260206004820152601f60248201527f53656e64657220646f6573206e6f74206861766520616374696f6e206b6579006044820152606490fd5b1561187457565b60405162461bcd60e51b815260206004820152602360248201527f53656e64657220646f6573206e6f742068617665206d616e6167656d656e74206044820152626b657960e81b6064820152608490fd5b600092918154916118d5836114d1565b926001811690811561192057506001146118ee57505050565b909192935060005260206000206000905b83821061190c5750500190565b6001816020925484860152019101906118ff565b60ff191683525050811515909102019150565b3d1561195e573d9061194482610b5b565b916119526040519384610b29565b82523d6000602084013e565b606090565b906020610bc992818152019061150b565b906001906119856000548410611779565b6119b86119b36119af60036119a4876000526003602052604060002090565b015460081c60ff1690565b1590565b6117d5565b6119dc6119cf846000526003602052604060002090565b546001600160a01b031690565b3090838060a01b031614600014611c2d57604080513360208201908152611a1492611a0f929061039b9082908101610db9565b61186d565b604051811515815283907fb3932da477fe5d6c8ff2eafef050c0f3a1af18fc07121001482600f36f3715d890602090a2151503611c0457611a726003611a64836000526003602052604060002090565b01805460ff19166001179055565b600080611a8c6119cf846000526003602052604060002090565b611aca6001611aa5866000526003602052604060002090565b01546002611abd876000526003602052604060002090565b01604051928380926118c5565b03925af1611ad6611933565b5015611b9257611b056003611af5836000526003602052604060002090565b01805461ff001916610100179055565b611b1c6119cf826000526003602052604060002090565b6001611b32836000526003602052604060002090565b0154917f1f920dbda597d7bf95035464170fa58d0a4b57f13a1c315ace6793b9f63688b8611b8a6002611b6f846000526003602052604060002090565b6040516001600160a01b039096169592839290910182611963565b0390a4600190565b611ba96119cf826000526003602052604060002090565b6001611bbf836000526003602052604060002090565b0154917fe10c49d9f7c71da23262367013434763cfdb2332267641728d25cd712c5c6a68611bfc6002611b6f846000526003602052604060002090565b0390a4600090565b6003611c1d611c28926000526003602052604060002090565b01805460ff19169055565b600090565b604080513360208201908152611c5492611c4f9290610e259082908101610db9565b611821565b611a14565b9294909394611c74600160ff60065460081c16151514611201565b3033148015611ea7575b611c87906113fb565b6001600160a01b03831694308603611e30575b604080516001600160a01b03861660208201908152918101879052611cc28160608101610db9565b51902096879486611cdd876000526004602052604060002090565b55826001611cf5886000526004602052604060002090565b0155611d11846003610d6b896000526004602052604060002090565b611d2b826004610d6b896000526004602052604060002090565b611d45856005610d6b896000526004602052604060002090565b87611d6e611d6260026105208a6000526004602052604060002090565b6001600160a01b031690565b14611dfd5793611df791611deb7f46149b18aa084502c3f12bc75e19eda8bda8d102b82cce8474677a6d0d5f43c596611db5896102c48c6000526005602052604060002090565b6002611dcb8a6000526004602052604060002090565b0180546001600160a01b0319166001600160a01b03909216919091179055565b60405194859485612077565b0390a490565b507f3bab293fc00db832d7619a9299914251b8747c036867ec056cbd506f60135b1393611df79160405194859485612077565b60405163604b4d3760e11b815260208180611e518b878b3060048601611ee4565b03818a5afa8015611ea257611e6e91600091611e73575b50611f28565b611c9a565b611e95915060203d602011611e9b575b611e8d8183610b29565b810190611ecf565b38611e68565b503d611e83565b611f1c565b50611c87611ec8604051602081019033825260208152610645604082610b29565b9050611c7e565b908160209103126101af5751610bc981610975565b92610bc99492611f0e9260018060a01b0316855260208501526080604085015260808401906108ed565b9160608184039101526108ed565b6040513d6000823e3d90fd5b15611f2f57565b60405162461bcd60e51b815260206004820152600d60248201526c696e76616c696420636c61696d60981b6044820152606490fd5b9190601f8111611f7357505050565b610b59926000526020600020906020601f840160051c83019310611f9f575b601f0160051c0190611302565b9091508190611f92565b919091825167ffffffffffffffff8111610b2457611fd181611fcb84546114d1565b84611f64565b6020601f821160011461200e5781906112fe939495600092612003575b50508160011b916000199060031b1c19161790565b015190503880611fee565b601f1982169061202384600052602060002090565b9160005b81811061205f57509583600195969710612046575b505050811b019055565b015160001960f88460031b161c1916905538808061203c565b9192602060018192868b015181550194019201612027565b92612097610bc99593611f0e9386526080602087015260808601906108ed565b9084820360408601526108ed565b906020610bc99281815201906108ed565b61215f936120ef61213a9493610db9604051938492602084019660018060a01b03168752604084015260608084015260808301906108ed565b51902060405161213181610db9602082019485603c917f19457468657265756d205369676e6564204d6573736167653a0a3332000000008252601c8201520190565b5190209061216d565b604080516001600160a01b039092166020830190815291906106459082908101610db9565b61216857600090565b600190565b60009060418151036121e25760208101519160606040830151920151901a91601b83106121cc575b6040805194855260ff9093166020858101919091529284015260608301526000808052909160809060015afa15611ea25760005190565b9091601b019060ff821161147157909190612195565b50905090565b90610b596121fc926040519384809261150b565b0383610b29565b6000526001602052604060002060026040519161221f83610b08565b612228816111b6565b8352600181015460208401520154806040830152156122845760005b8151805182101561227c5761225b82600192611391565b51148015612277575b61227057600101612244565b5050600190565b612264565b505050600090565b50600090565b600052600160205260406000206002604051916122a683610b08565b6122af816111b6565b8352600181015460208401520154806040830152156122845760005b8151805182101561227c57816122e091611391565b51600181149081156122fa575b50612270576001016122cb565b6003915014386122ed565b6000526001602052604060002060026040519161232183610b08565b61232a816111b6565b8352600181015460208401520154806040830152156122845760005b8151805182101561227c578161235b91611391565b5160018114908115612375575b5061227057600101612346565b600291501438612368565b600052600160205260406000209060026040519261239d84610b08565b6123a6816111b6565b84526001810154602085015201548060408401521561240e5760005b8251805182101561240557816123d791611391565b5182600182149182156123fb575b50506123f3576001016123c2565b505050600190565b14905082386123e5565b50505050600090565b5050600090565b1561241c57565b60405162461bcd60e51b815260206004820152601e60248201527f496e697469616c206b65792077617320616c72656164792073657475702e00006044820152606490fd5b9061246b82611319565b9060005260206000209060005b6001811061248557505050565b600190602060ff845116930192818501550161247856fea2646970667358221220fddfb2373bb268d85d269be1383eb0ea7cc3fc46041db9b6adb50c1616d3982e64736f6c634300081c0033",
  "linkReferences": {},
  "deployedLinkReferences": {}
}