{
  "_format": "hh-sol-artifact-1",
  "contractName": "SMARTFixedYieldSchedule",
  "sourceName": "contracts/smart/extensions/yield/schedules/fixed/SMARTFixedYieldSchedule.sol",
  "abi": [
    {
      "inputs": [
        {
          "internalType": "address",
          "name": "tokenAddress_",
          "type": "address"
        },
        {
          "internalType": "uint256",
          "name": "startDate_",
          "type": "uint256"
        },
        {
          "internalType": "uint256",
          "name": "endDate_",
          "type": "uint256"
        },
        {
          "internalType": "uint256",
          "name": "rate_",
          "type": "uint256"
        },
        {
          "internalType": "uint256",
          "name": "interval_",
          "type": "uint256"
        },
        {
          "internalType": "address",
          "name": "initialOwner_",
          "type": "address"
        },
        {
          "internalType": "address",
          "name": "forwarder",
          "type": "address"
        }
      ],
      "stateMutability": "nonpayable",
      "type": "constructor"
    },
    {
      "inputs": [],
      "name": "AccessControlBadConfirmation",
      "type": "error"
    },
    {
      "inputs": [
        {
          "internalType": "address",
          "name": "account",
          "type": "address"
        },
        {
          "internalType": "bytes32",
          "name": "neededRole",
          "type": "bytes32"
        }
      ],
      "name": "AccessControlUnauthorizedAccount",
      "type": "error"
    },
    {
      "inputs": [],
      "name": "AlreadyInitialized",
      "type": "error"
    },
    {
      "inputs": [],
      "name": "CannotInitializeLogicContract",
      "type": "error"
    },
    {
      "inputs": [],
      "name": "EnforcedPause",
      "type": "error"
    },
    {
      "inputs": [],
      "name": "ExpectedPause",
      "type": "error"
    },
    {
      "inputs": [
        {
          "internalType": "uint256",
          "name": "currentBalance",
          "type": "uint256"
        },
        {
          "internalType": "uint256",
          "name": "requiredBalance",
          "type": "uint256"
        }
      ],
      "name": "InsufficientUnderlyingBalance",
      "type": "error"
    },
    {
      "inputs": [],
      "name": "InvalidAmount",
      "type": "error"
    },
    {
      "inputs": [],
      "name": "InvalidEndDate",
      "type": "error"
    },
    {
      "inputs": [],
      "name": "InvalidInterval",
      "type": "error"
    },
    {
      "inputs": [],
      "name": "InvalidPeriod",
      "type": "error"
    },
    {
      "inputs": [],
      "name": "InvalidRate",
      "type": "error"
    },
    {
      "inputs": [],
      "name": "InvalidStartDate",
      "type": "error"
    },
    {
      "inputs": [],
      "name": "InvalidToken",
      "type": "error"
    },
    {
      "inputs": [],
      "name": "InvalidUnderlyingAsset",
      "type": "error"
    },
    {
      "inputs": [],
      "name": "NoUnderlyingBalance",
      "type": "error"
    },
    {
      "inputs": [],
      "name": "NoYieldAvailable",
      "type": "error"
    },
    {
      "inputs": [],
      "name": "ReentrancyGuardReentrantCall",
      "type": "error"
    },
    {
      "inputs": [],
      "name": "ReentrantInitialization",
      "type": "error"
    },
    {
      "inputs": [
        {
          "internalType": "address",
          "name": "token",
          "type": "address"
        }
      ],
      "name": "SafeERC20FailedOperation",
      "type": "error"
    },
    {
      "inputs": [],
      "name": "ScheduleNotActive",
      "type": "error"
    },
    {
      "anonymous": false,
      "inputs": [
        {
          "indexed": false,
          "internalType": "uint256",
          "name": "startDate",
          "type": "uint256"
        },
        {
          "indexed": false,
          "internalType": "uint256",
          "name": "endDate",
          "type": "uint256"
        },
        {
          "indexed": false,
          "internalType": "uint256",
          "name": "rate",
          "type": "uint256"
        },
        {
          "indexed": false,
          "internalType": "uint256",
          "name": "interval",
          "type": "uint256"
        },
        {
          "indexed": false,
          "internalType": "uint256[]",
          "name": "periodEndTimestamps",
          "type": "uint256[]"
        },
        {
          "indexed": false,
          "internalType": "contract IERC20",
          "name": "underlyingAsset",
          "type": "address"
        },
        {
          "indexed": false,
          "internalType": "uint256",
          "name": "yieldForNextPeriod",
          "type": "uint256"
        }
      ],
      "name": "FixedYieldScheduleSet",
      "type": "event"
    },
    {
      "anonymous": false,
      "inputs": [
        {
          "indexed": false,
          "internalType": "address",
          "name": "account",
          "type": "address"
        }
      ],
      "name": "Paused",
      "type": "event"
    },
    {
      "anonymous": false,
      "inputs": [
        {
          "indexed": true,
          "internalType": "bytes32",
          "name": "role",
          "type": "bytes32"
        },
        {
          "indexed": true,
          "internalType": "bytes32",
          "name": "previousAdminRole",
          "type": "bytes32"
        },
        {
          "indexed": true,
          "internalType": "bytes32",
          "name": "newAdminRole",
          "type": "bytes32"
        }
      ],
      "name": "RoleAdminChanged",
      "type": "event"
    },
    {
      "anonymous": false,
      "inputs": [
        {
          "indexed": true,
          "internalType": "bytes32",
          "name": "role",
          "type": "bytes32"
        },
        {
          "indexed": true,
          "internalType": "address",
          "name": "account",
          "type": "address"
        },
        {
          "indexed": true,
          "internalType": "address",
          "name": "sender",
          "type": "address"
        }
      ],
      "name": "RoleGranted",
      "type": "event"
    },
    {
      "anonymous": false,
      "inputs": [
        {
          "indexed": true,
          "internalType": "bytes32",
          "name": "role",
          "type": "bytes32"
        },
        {
          "indexed": true,
          "internalType": "address",
          "name": "account",
          "type": "address"
        },
        {
          "indexed": true,
          "internalType": "address",
          "name": "sender",
          "type": "address"
        }
      ],
      "name": "RoleRevoked",
      "type": "event"
    },
    {
      "anonymous": false,
      "inputs": [
        {
          "indexed": true,
          "internalType": "address",
          "name": "from",
          "type": "address"
        },
        {
          "indexed": false,
          "internalType": "uint256",
          "name": "amount",
          "type": "uint256"
        }
      ],
      "name": "UnderlyingAssetTopUp",
      "type": "event"
    },
    {
      "anonymous": false,
      "inputs": [
        {
          "indexed": true,
          "internalType": "address",
          "name": "to",
          "type": "address"
        },
        {
          "indexed": false,
          "internalType": "uint256",
          "name": "amount",
          "type": "uint256"
        }
      ],
      "name": "UnderlyingAssetWithdrawn",
      "type": "event"
    },
    {
      "anonymous": false,
      "inputs": [
        {
          "indexed": false,
          "internalType": "address",
          "name": "account",
          "type": "address"
        }
      ],
      "name": "Unpaused",
      "type": "event"
    },
    {
      "anonymous": false,
      "inputs": [
        {
          "indexed": true,
          "internalType": "address",
          "name": "holder",
          "type": "address"
        },
        {
          "indexed": false,
          "internalType": "uint256",
          "name": "claimedAmount",
          "type": "uint256"
        },
        {
          "indexed": false,
          "internalType": "uint256",
          "name": "fromPeriod",
          "type": "uint256"
        },
        {
          "indexed": false,
          "internalType": "uint256",
          "name": "toPeriod",
          "type": "uint256"
        },
        {
          "indexed": false,
          "internalType": "uint256[]",
          "name": "periodAmounts",
          "type": "uint256[]"
        },
        {
          "indexed": false,
          "internalType": "uint256[]",
          "name": "periodYields",
          "type": "uint256[]"
        },
        {
          "indexed": false,
          "internalType": "uint256",
          "name": "totalUnclaimedYield",
          "type": "uint256"
        },
        {
          "indexed": false,
          "internalType": "uint256",
          "name": "yieldForNextPeriod",
          "type": "uint256"
        }
      ],
      "name": "YieldClaimed",
      "type": "event"
    },
    {
      "inputs": [],
      "name": "DEFAULT_ADMIN_ROLE",
      "outputs": [
        {
          "internalType": "bytes32",
          "name": "",
          "type": "bytes32"
        }
      ],
      "stateMutability": "view",
      "type": "function"
    },
    {
      "inputs": [],
      "name": "RATE_BASIS_POINTS",
      "outputs": [
        {
          "internalType": "uint256",
          "name": "",
          "type": "uint256"
        }
      ],
      "stateMutability": "view",
      "type": "function"
    },
    {
      "inputs": [],
      "name": "allPeriods",
      "outputs": [
        {
          "internalType": "uint256[]",
          "name": "",
          "type": "uint256[]"
        }
      ],
      "stateMutability": "view",
      "type": "function"
    },
    {
      "inputs": [],
      "name": "calculateAccruedYield",
      "outputs": [
        {
          "internalType": "uint256",
          "name": "",
          "type": "uint256"
        }
      ],
      "stateMutability": "view",
      "type": "function"
    },
    {
      "inputs": [
        {
          "internalType": "address",
          "name": "holder",
          "type": "address"
        }
      ],
      "name": "calculateAccruedYield",
      "outputs": [
        {
          "internalType": "uint256",
          "name": "",
          "type": "uint256"
        }
      ],
      "stateMutability": "view",
      "type": "function"
    },
    {
      "inputs": [],
      "name": "claimYield",
      "outputs": [],
      "stateMutability": "nonpayable",
      "type": "function"
    },
    {
      "inputs": [],
      "name": "currentPeriod",
      "outputs": [
        {
          "internalType": "uint256",
          "name": "",
          "type": "uint256"
        }
      ],
      "stateMutability": "view",
      "type": "function"
    },
    {
      "inputs": [],
      "name": "endDate",
      "outputs": [
        {
          "internalType": "uint256",
          "name": "",
          "type": "uint256"
        }
      ],
      "stateMutability": "view",
      "type": "function"
    },
    {
      "inputs": [
        {
          "internalType": "bytes32",
          "name": "role",
          "type": "bytes32"
        }
      ],
      "name": "getRoleAdmin",
      "outputs": [
        {
          "internalType": "bytes32",
          "name": "",
          "type": "bytes32"
        }
      ],
      "stateMutability": "view",
      "type": "function"
    },
    {
      "inputs": [
        {
          "internalType": "bytes32",
          "name": "role",
          "type": "bytes32"
        },
        {
          "internalType": "address",
          "name": "account",
          "type": "address"
        }
      ],
      "name": "grantRole",
      "outputs": [],
      "stateMutability": "nonpayable",
      "type": "function"
    },
    {
      "inputs": [
        {
          "internalType": "bytes32",
          "name": "role",
          "type": "bytes32"
        },
        {
          "internalType": "address",
          "name": "account",
          "type": "address"
        }
      ],
      "name": "hasRole",
      "outputs": [
        {
          "internalType": "bool",
          "name": "",
          "type": "bool"
        }
      ],
      "stateMutability": "view",
      "type": "function"
    },
    {
      "inputs": [],
      "name": "interval",
      "outputs": [
        {
          "internalType": "uint256",
          "name": "",
          "type": "uint256"
        }
      ],
      "stateMutability": "view",
      "type": "function"
    },
    {
      "inputs": [
        {
          "internalType": "address",
          "name": "forwarder",
          "type": "address"
        }
      ],
      "name": "isTrustedForwarder",
      "outputs": [
        {
          "internalType": "bool",
          "name": "",
          "type": "bool"
        }
      ],
      "stateMutability": "view",
      "type": "function"
    },
    {
      "inputs": [
        {
          "internalType": "address",
          "name": "holder",
          "type": "address"
        }
      ],
      "name": "lastClaimedPeriod",
      "outputs": [
        {
          "internalType": "uint256",
          "name": "",
          "type": "uint256"
        }
      ],
      "stateMutability": "view",
      "type": "function"
    },
    {
      "inputs": [],
      "name": "lastClaimedPeriod",
      "outputs": [
        {
          "internalType": "uint256",
          "name": "",
          "type": "uint256"
        }
      ],
      "stateMutability": "view",
      "type": "function"
    },
    {
      "inputs": [],
      "name": "lastCompletedPeriod",
      "outputs": [
        {
          "internalType": "uint256",
          "name": "",
          "type": "uint256"
        }
      ],
      "stateMutability": "view",
      "type": "function"
    },
    {
      "inputs": [],
      "name": "pause",
      "outputs": [],
      "stateMutability": "nonpayable",
      "type": "function"
    },
    {
      "inputs": [],
      "name": "paused",
      "outputs": [
        {
          "internalType": "bool",
          "name": "",
          "type": "bool"
        }
      ],
      "stateMutability": "view",
      "type": "function"
    },
    {
      "inputs": [
        {
          "internalType": "uint256",
          "name": "period",
          "type": "uint256"
        }
      ],
      "name": "periodEnd",
      "outputs": [
        {
          "internalType": "uint256",
          "name": "",
          "type": "uint256"
        }
      ],
      "stateMutability": "view",
      "type": "function"
    },
    {
      "inputs": [],
      "name": "rate",
      "outputs": [
        {
          "internalType": "uint256",
          "name": "",
          "type": "uint256"
        }
      ],
      "stateMutability": "view",
      "type": "function"
    },
    {
      "inputs": [
        {
          "internalType": "bytes32",
          "name": "role",
          "type": "bytes32"
        },
        {
          "internalType": "address",
          "name": "callerConfirmation",
          "type": "address"
        }
      ],
      "name": "renounceRole",
      "outputs": [],
      "stateMutability": "nonpayable",
      "type": "function"
    },
    {
      "inputs": [
        {
          "internalType": "bytes32",
          "name": "role",
          "type": "bytes32"
        },
        {
          "internalType": "address",
          "name": "account",
          "type": "address"
        }
      ],
      "name": "revokeRole",
      "outputs": [],
      "stateMutability": "nonpayable",
      "type": "function"
    },
    {
      "inputs": [],
      "name": "startDate",
      "outputs": [
        {
          "internalType": "uint256",
          "name": "",
          "type": "uint256"
        }
      ],
      "stateMutability": "view",
      "type": "function"
    },
    {
      "inputs": [
        {
          "internalType": "bytes4",
          "name": "interfaceId",
          "type": "bytes4"
        }
      ],
      "name": "supportsInterface",
      "outputs": [
        {
          "internalType": "bool",
          "name": "",
          "type": "bool"
        }
      ],
      "stateMutability": "view",
      "type": "function"
    },
    {
      "inputs": [],
      "name": "timeUntilNextPeriod",
      "outputs": [
        {
          "internalType": "uint256",
          "name": "",
          "type": "uint256"
        }
      ],
      "stateMutability": "view",
      "type": "function"
    },
    {
      "inputs": [],
      "name": "token",
      "outputs": [
        {
          "internalType": "contract ISMARTYield",
          "name": "",
          "type": "address"
        }
      ],
      "stateMutability": "view",
      "type": "function"
    },
    {
      "inputs": [
        {
          "internalType": "uint256",
          "name": "amount",
          "type": "uint256"
        }
      ],
      "name": "topUpUnderlyingAsset",
      "outputs": [],
      "stateMutability": "nonpayable",
      "type": "function"
    },
    {
      "inputs": [],
      "name": "totalUnclaimedYield",
      "outputs": [
        {
          "internalType": "uint256",
          "name": "",
          "type": "uint256"
        }
      ],
      "stateMutability": "view",
      "type": "function"
    },
    {
      "inputs": [],
      "name": "totalYieldForNextPeriod",
      "outputs": [
        {
          "internalType": "uint256",
          "name": "",
          "type": "uint256"
        }
      ],
      "stateMutability": "view",
      "type": "function"
    },
    {
      "inputs": [],
      "name": "trustedForwarder",
      "outputs": [
        {
          "internalType": "address",
          "name": "",
          "type": "address"
        }
      ],
      "stateMutability": "view",
      "type": "function"
    },
    {
      "inputs": [],
      "name": "underlyingAsset",
      "outputs": [
        {
          "internalType": "contract IERC20",
          "name": "",
          "type": "address"
        }
      ],
      "stateMutability": "view",
      "type": "function"
    },
    {
      "inputs": [],
      "name": "unpause",
      "outputs": [],
      "stateMutability": "nonpayable",
      "type": "function"
    },
    {
      "inputs": [
        {
          "internalType": "address",
          "name": "to",
          "type": "address"
        }
      ],
      "name": "withdrawAllUnderlyingAsset",
      "outputs": [],
      "stateMutability": "nonpayable",
      "type": "function"
    },
    {
      "inputs": [
        {
          "internalType": "address",
          "name": "to",
          "type": "address"
        },
        {
          "internalType": "uint256",
          "name": "amount",
          "type": "uint256"
        }
      ],
      "name": "withdrawUnderlyingAsset",
      "outputs": [],
      "stateMutability": "nonpayable",
      "type": "function"
    }
  ],
  "bytecode": "0x60a0806040523461039f5760e081611f12803803809161001f828561040b565b83398101031261039f576100328161042e565b906020810151604082015192606083015160808401519161006160c061005a60a0880161042e565b960161042e565b6080526001600b556001600160a01b031680156103fc5742841115806103f2575b6103e357838611156103d45781156103c55782156103b6575f80546001600160a01b031916821790556040516376d5de8560e01b815290602090829060049082905afa9081156103ab575f91610365575b50600180546001600160a01b0319166001600160a01b039290921691821790551561035657826002558460035580600455816005558285038581116102d657829004600181018091116102d65761012981610442565b610136604051918261040b565b81815261014282610442565b602082019190601f190136833751906001600160401b0382116103425768010000000000000000821161034257600654826006558083106102fe575b5060065f5260205f205f5b8381106102ea57505050505f5b81811061026c5750506101a7610508565b9160018060a01b0360015416916040519660e0880195885260208801526040870152606086015260e0608086015260065480935261010085019260065f5260205f20905f5b8181106102565761022f877f257d94ac1c207cc7e5778ea325814452897ee07f059fea0c16b7b6f347be78b18a808a8a8a60a084015260c08301520390a161046c565b506040516118b9908161063982396080518181816106540152818161070a01526117d50152f35b82548652602090950194600192830192016101ec565b60025490600181018082116102d65760055461028791610459565b82018092116102d6576003548083116102ce575b506006548110156102ba5760019160065f528160205f20015501610196565b634e487b7160e01b5f52603260045260245ffd5b91505f61029b565b634e487b7160e01b5f52601160045260245ffd5b600190602084519401938184015501610189565b60065f527ff652222313e28459528d920b65115c16c04f3efc82aaedc97be59f3f377c0d3f9081019083015b818110610337575061017e565b5f815560010161032a565b634e487b7160e01b5f52604160045260245ffd5b634e81208360e01b5f5260045ffd5b90506020813d6020116103a3575b816103806020938361040b565b8101031261039f57516001600160a01b038116810361039f575f6100d3565b5f80fd5b3d9150610373565b6040513d5f823e3d90fd5b6305fabb6160e41b5f5260045ffd5b636a43f8d160e01b5f5260045ffd5b63398145cf60e11b5f5260045ffd5b630bf784c760e01b5f5260045ffd5b5060025415610082565b63c1ab6dc160e01b5f5260045ffd5b601f909101601f19168101906001600160401b0382119082101761034257604052565b51906001600160a01b038216820361039f57565b6001600160401b0381116103425760051b60200190565b818102929181159184041417156102d657565b6001600160a01b0381165f9081525f516020611ef25f395f51905f52602052604090205460ff16610503576001600160a01b038181165f9081525f516020611ef25f395f51905f5260205260409020805460ff191660011790556104ce6105fd565b16906001600160a01b03165f7f2f8788117e7eff1d82e926ec794901d17c78024a50270940304540a733656f0d8180a4600190565b505f90565b6003544210156105f9575f546040516318160ddd60e01b8152906001600160a01b0316602082600481845afa9182156103ab575f926105c4575b50906020602492604051938480926340f2de1b60e11b82525f60048301525afa9182156103ab575f9261058e575b506105816127109261058a92610459565b60045490610459565b0490565b91506020823d6020116105bc575b816105a96020938361040b565b8101031261039f57905190610581610570565b3d915061059c565b91506020823d6020116105f1575b816105df6020938361040b565b8101031261039f579051906020610542565b3d91506105d2565b5f90565b6080516001600160a01b031633148061062d575b156106295760131936013681116102d6573560601c90565b3390565b50601436101561061156fe6080806040526004361015610012575f80fd5b5f3560e01c90816301ffc9a714610ded575080630604061814610dd35780630898c94914610db95780630b97bc8614610d9c5780631cf7e14914610c885780631f28d52c14610c6e578063248a9ca314610c4357806327614ec414610be35780632c4e722e14610bc65780632f2ff15d14610b8857806336568abe14610b345780633f4ba83a14610acf578063406cf2291461073e578063572b6c05146106ea5780635c975abb146106c85780637158da7c146106a05780637b07882e146106835780637da0a8771461063f578063817ea144146106215780638456cb59146105b657806391d148541461056d578063947a36fb14610550578063978fd53b146105365780639a95299a146105135780639fc2f65a146104f9578063a206b55014610439578063a217fddf1461041f578063c24a0f8b14610402578063c54293aa14610376578063d1ae38b81461035a578063d547741f14610315578063e0ecad5a146101fc578063f68e5218146101bd5763fc0c546a14610192575f80fd5b346101b9575f3660031901126101b9575f546040516001600160a01b039091168152602090f35b5f80fd5b346101b9575f3660031901126101b95760206101f46101da6117d2565b6001600160a01b03165f9081526007602052604090205490565b604051908152f35b346101b95760203660031901126101b957610215610e40565b61021d61151f565b61022561153f565b61022d6115f7565b6001600160a01b038116908115610306576001546040516370a0823160e01b81523060048201526001600160a01b0390911690602081602481855afa9081156102fb575f916102c9575b5080156102ba576102ac817f6f50cd6d1a8ee055bfba8d1998a1e71e64c3a0791f04001b50f038e3c106590994602094611794565b604051908152a26001600b55005b630bc0b2c560e21b5f5260045ffd5b90506020813d6020116102f3575b816102e460209383610f5c565b810103126101b9575184610277565b3d91506102d7565b6040513d5f823e3d90fd5b634e81208360e01b5f5260045ffd5b346101b95760403660031901126101b957610358600435610334610e56565b9061035361034e825f526009602052600160405f20015490565b6115a7565b6116a5565b005b346101b9575f3660031901126101b95760206040516127108152f35b346101b9575f3660031901126101b95760405180602060065491828152019060065f527ff652222313e28459528d920b65115c16c04f3efc82aaedc97be59f3f377c0d3f905f5b8181106103ec576103e8856103d481870382610f5c565b604051918291602083526020830190610e6c565b0390f35b82548452602090930192600192830192016103bd565b346101b9575f3660031901126101b9576020600354604051908152f35b346101b9575f3660031901126101b95760206040515f8152f35b346101b95760203660031901126101b95760043561045561151f565b61045d6115f7565b6001546104b6906001600160a01b03166104756117d2565b6040516323b872dd60e01b60208201526001600160a01b03909116602482015230604482015260648082018590528152906104b1608483610f5c565b61182b565b7fabda30aae4846dafeb67b57e0f9fb5af47de85525570e48ced61a3c99a4f8daf60206001600160a01b036104e96117d2565b1692604051908152a26001600b55005b346101b9575f3660031901126101b95760206101f4611433565b346101b95760203660031901126101b95760206101f4610531610e40565b611170565b346101b9575f3660031901126101b95760206101f461113a565b346101b9575f3660031901126101b9576020600554604051908152f35b346101b95760403660031901126101b957610586610e56565b6004355f52600960205260405f209060018060a01b03165f52602052602060ff60405f2054166040519015158152f35b346101b9575f3660031901126101b9576105ce61153f565b6105d66115f7565b600160ff19600a541617600a557f62e78cea01bee320cd4e420270b5ea74000d11b0c9f74754ebdbfc544b05a258602061060e6117d2565b6040516001600160a01b039091168152a1005b346101b95760203660031901126101b95760206101f46101da610e40565b346101b9575f3660031901126101b9576040517f00000000000000000000000000000000000000000000000000000000000000006001600160a01b03168152602090f35b346101b9575f3660031901126101b95760206101f46105316117d2565b346101b9575f3660031901126101b9576001546040516001600160a01b039091168152602090f35b346101b9575f3660031901126101b957602060ff600a54166040519015158152f35b346101b95760203660031901126101b9576020610705610e40565b6040517f00000000000000000000000000000000000000000000000000000000000000006001600160a01b039081169216919091148152f35b346101b9575f3660031901126101b95761075661151f565b61075e6115f7565b61076661113a565b600181106108e4576107766117d2565b6001600160a01b0381165f8181526007602052604090205490929160018201918210610a87578282116108e4575f546040516340f2de1b60e11b815260048101869052936001600160a01b0390911690602085602481855afa9485156102fb575f95610a9b575b505f926107ea8583610e9f565b60018101809111610a87576107fe9061174e565b926108098684610e9f565b60018101809111610a875761081d9061174e565b96865b848111156108f35750505083156108e4577fb119cb4f54a2303fcdbc4f7a2c39dc38eb1368d94ac4571f4eddac9c4f0c28ba95610889856108cf938a5f5260076020528560405f205561087582600854610eca565b6008556001546001600160a01b0316611794565b6108c1610894610fdf565b9461089d611433565b9460405198899889526020890152604088015260e0606088015260e0870190610e6c565b908582036080870152610e6c565b9160a084015260c08301520390a26001600b55005b633dfa692b60e11b5f5260045ffd5b5f198101818111610a875780602061090d61094393610fa0565b905460405163277166bf60e11b81526001600160a01b038a16600482015260039290921b1c602482015292839081906044820190565b0381885afa80156102fb5784905f90610a52575b610969935080610a1b575b5050610fa0565b9054604051630981b24d60e41b815260039290921b1c600482015290602082602481875afa80156102fb575f906109e8575b6109ae925083816109b3575b5050610f92565b610820565b6109c36109cc9161271093610fcc565b60045490610fcc565b046109e06109da8b84610e9f565b8c611780565b528b836109a7565b506020823d8211610a13575b81610a0160209383610f5c565b810103126101b9576109ae915161099b565b3d91506109f4565b610a2e6109c3610a369361271093610fcc565b04809a610eca565b98610a4a610a448c86610e9f565b8a611780565b52838d610962565b50506020823d8211610a7f575b81610a6c60209383610f5c565b810103126101b957836109699251610957565b3d9150610a5f565b634e487b7160e01b5f52601160045260245ffd5b9094506020813d602011610ac7575b81610ab760209383610f5c565b810103126101b9575193866107dd565b3d9150610aaa565b346101b9575f3660031901126101b957610ae761153f565b600a5460ff811615610b255760ff1916600a557f5db9ee0a495bf2e6ff9c91a7834c1ba4fdd244a5e8aa4e537bd38aeae4b073aa602061060e6117d2565b638dfc202b60e01b5f5260045ffd5b346101b95760403660031901126101b957610b4d610e56565b6001600160a01b03610b5d6117d2565b166001600160a01b03821603610b7957610358906004356116a5565b63334bd91960e11b5f5260045ffd5b346101b95760403660031901126101b957610358600435610ba7610e56565b90610bc161034e825f526009602052600160405f20015490565b611612565b346101b9575f3660031901126101b9576020600454604051908152f35b346101b95760203660031901126101b95760043580158015610c38575b610c29575f198101908111610a8757610c1a602091610fa0565b90549060031b1c604051908152f35b6302e8f35960e31b5f5260045ffd5b506006548111610c00565b346101b95760203660031901126101b95760206101f46004355f526009602052600160405f20015490565b346101b9575f3660031901126101b95760206101f4610fdf565b346101b95760403660031901126101b957610ca1610e40565b602435610cac61151f565b610cb461153f565b610cbc6115f7565b6001600160a01b038216918215610306578115610d8d576001546040516370a0823160e01b81523060048201526001600160a01b0390911690602081602481855afa9081156102fb575f91610d5b575b50808411610d445750916102ac816020937f6f50cd6d1a8ee055bfba8d1998a1e71e64c3a0791f04001b50f038e3c106590995611794565b8390630c9f8b8560e01b5f5260045260245260445ffd5b90506020813d602011610d85575b81610d7660209383610f5c565b810103126101b9575185610d0c565b3d9150610d69565b63162908e360e11b5f5260045ffd5b346101b9575f3660031901126101b9576020600254604051908152f35b346101b9575f3660031901126101b95760206101f4610f1b565b346101b9575f3660031901126101b95760206101f4610ed7565b346101b95760203660031901126101b9576004359063ffffffff60e01b82168092036101b957602091637965db0b60e01b8114908115610e2f575b5015158152f35b6301ffc9a760e01b14905083610e28565b600435906001600160a01b03821682036101b957565b602435906001600160a01b03821682036101b957565b90602080835192838152019201905f5b818110610e895750505090565b8251845260209384019390920191600101610e7c565b91908203918211610a8757565b8115610eb6570490565b634e487b7160e01b5f52601260045260245ffd5b91908201809211610a8757565b600254804210610f1657600354421015610f0f57610ef8610f019142610e9f565b60055490610eac565b60018101809111610a875790565b5060065490565b505f90565b600254804210610f5157600354421015610f1657610f399042610e9f565b6005548015610eb65780610f4e920690610e9f565b90565b610f4e904290610e9f565b90601f8019910116810190811067ffffffffffffffff821117610f7e57604052565b634e487b7160e01b5f52604160045260245ffd5b5f198114610a875760010190565b600654811015610fb85760065f5260205f2001905f90565b634e487b7160e01b5f52603260045260245ffd5b81810292918115918404141715610a8757565b610fe761113a565b60018110610f16575f80546040516340f2de1b60e11b81526004810183905291926001600160a01b0390911691602081602481865afa9081156102fb575f91611108575b5060015b8281111561105557505050506008548082111561104f57610f4e91610e9f565b50505f90565b5f198101818111610a875761106990610fa0565b9054604051630981b24d60e41b815260039290921b1c6004820152602081602481885afa9081156102fb575f916110d7575b50806110b1575b506110ac90610f92565b61102f565b6110ac91956127106110c96109c3866110d095610fcc565b0490610eca565b94906110a2565b90506020813d8211611100575b816110f160209383610f5c565b810103126101b957515f61109b565b3d91506110e4565b90506020813d602011611132575b8161112360209383610f5c565b810103126101b957515f61102b565b3d9150611116565b60025480421115610f1657600354421015610f0f57610ef861115c9142610e9f565b6006548082101561116b575090565b905090565b611178610ed7565b6001811080611428575b611419575f546040516340f2de1b60e11b81526001600160a01b03848116600483018190529391921690602083602481855afa9283156102fb575f936113e5575b50835f52600760205260405f20549460018601809611610a87576111e561113a565b905f9682811115611316575b5050505f938115158061130b575b611211575b50505050610f4e91610eca565b6020906024604051809581936370a0823160e01b835260048301525afa9182156102fb575f926112d7575b5081611249575b80611204565b91925090600181036112a857506112736109c36112789361126d6002545b42610e9f565b93610fcc565b610fcc565b90600554916127108302928084046127101490151715610a8757610f4e9261129f91610eac565b90915f80611243565b600119810192908311610a87576109c36112739161126d6112cb61127896610fa0565b90549060031b1c611267565b9091506020813d602011611303575b816112f360209383610f5c565b810103126101b95751905f61123c565b3d91506112e6565b5060035442106111ff565b8281116111f1575f198101818111610a8757602061133661136c92610fa0565b905460405163277166bf60e11b81526001600160a01b038716600482015260039290921b1c602482015291829081906044820190565b0381895afa9081156102fb575f916113b4575b5080611395575b5061139090610f92565b611316565b61139091986127106110c96109c38a6113ad95610fcc565b9790611386565b90506020813d82116113dd575b816113ce60209383610f5c565b810103126101b957515f61137f565b3d91506113c1565b9092506020813d602011611411575b8161140160209383610f5c565b810103126101b95751915f6111c3565b3d91506113f4565b63b27f716560e01b5f5260045ffd5b506002544210611182565b60035442101561151b575f546040516318160ddd60e01b8152906001600160a01b0316602082600481845afa9182156102fb575f926114e6575b50906020602492604051938480926340f2de1b60e11b82525f60048301525afa9182156102fb575f926114b0575b506109c3612710926114ac92610fcc565b0490565b91506020823d6020116114de575b816114cb60209383610f5c565b810103126101b9579051906109c361149b565b3d91506114be565b91506020823d602011611513575b8161150160209383610f5c565b810103126101b957905190602061146d565b3d91506114f4565b5f90565b6002600b5414611530576002600b55565b633ee5aeb560e01b5f5260045ffd5b6115476117d2565b6001600160a01b0381165f9081527fec8156718a8372b1db44bb411437d0870f3e3790d4a08526d024ce1b0b668f6b602052604090205460ff16156115895750565b63e2517d3f60e01b5f5260018060a01b03166004525f60245260445ffd5b6115af6117d2565b815f52600960205260405f2060018060a01b0382165f5260205260ff60405f205416156115da575050565b63e2517d3f60e01b5f5260018060a01b031660045260245260445ffd5b60ff600a541661160357565b63d93c066560e01b5f5260045ffd5b5f8181526009602090815260408083206001600160a01b038616845290915290205460ff1661104f575f8181526009602090815260408083206001600160a01b0386811685529252909120805460ff191660011790556116706117d2565b16916001600160a01b0316907f2f8788117e7eff1d82e926ec794901d17c78024a50270940304540a733656f0d5f80a4600190565b5f8181526009602090815260408083206001600160a01b038616845290915290205460ff161561104f575f8181526009602090815260408083206001600160a01b0386811685529252909120805460ff191690556117016117d2565b16916001600160a01b0316907ff6391f5c32d9c69d2a47ea670b442974b53935d1edc7fd64eb21e047a839171b5f80a4600190565b67ffffffffffffffff8111610f7e5760051b60200190565b9061175882611736565b6117656040519182610f5c565b8281528092611776601f1991611736565b0190602036910137565b8051821015610fb85760209160051b010190565b60405163a9059cbb60e01b60208201526001600160a01b039290921660248301526044808301939093529181526117d0916104b1606483610f5c565b565b337f00000000000000000000000000000000000000000000000000000000000000006001600160a01b03161480611820575b1561181c576013193601368111610a87573560601c90565b3390565b506014361015611804565b905f602091828151910182855af1156102fb575f513d61187a57506001600160a01b0381163b155b61185a5750565b635274afe760e01b5f9081526001600160a01b0391909116600452602490fd5b6001141561185356fea264697066735822122063fb188c8822527b0dee8ede30d9dd94936ea8f85774ac4c200f5062e54dfd1f64736f6c634300081c0033ec8156718a8372b1db44bb411437d0870f3e3790d4a08526d024ce1b0b668f6b",
  "linkReferences": {},
  "deployedLinkReferences": {}
}