{
  "_format": "hh-sol-artifact-1",
  "contractName": "ATKFundFactoryImplementation",
  "sourceName": "contracts/assets/fund/ATKFundFactoryImplementation.sol",
  "abi": [
    {
      "inputs": [
        {
          "internalType": "address",
          "name": "forwarder",
          "type": "address"
        }
      ],
      "stateMutability": "nonpayable",
      "type": "constructor"
    },
    {
      "inputs": [],
      "name": "AccessControlBadConfirmation",
      "type": "error"
    },
    {
      "inputs": [
        {
          "internalType": "address",
          "name": "account",
          "type": "address"
        },
        {
          "internalType": "bytes32",
          "name": "neededRole",
          "type": "bytes32"
        }
      ],
      "name": "AccessControlUnauthorizedAccount",
      "type": "error"
    },
    {
      "inputs": [
        {
          "internalType": "address",
          "name": "predictedAddress",
          "type": "address"
        }
      ],
      "name": "AccessManagerAlreadyDeployed",
      "type": "error"
    },
    {
      "inputs": [
        {
          "internalType": "address",
          "name": "predictedAddress",
          "type": "address"
        }
      ],
      "name": "AddressAlreadyDeployed",
      "type": "error"
    },
    {
      "inputs": [],
      "name": "Create2EmptyBytecode",
      "type": "error"
    },
    {
      "inputs": [],
      "name": "FailedDeployment",
      "type": "error"
    },
    {
      "inputs": [
        {
          "internalType": "uint256",
          "name": "balance",
          "type": "uint256"
        },
        {
          "internalType": "uint256",
          "name": "needed",
          "type": "uint256"
        }
      ],
      "name": "InsufficientBalance",
      "type": "error"
    },
    {
      "inputs": [],
      "name": "InvalidIdentityVerificationModuleAddress",
      "type": "error"
    },
    {
      "inputs": [],
      "name": "InvalidImplementationAddress",
      "type": "error"
    },
    {
      "inputs": [],
      "name": "InvalidInitialization",
      "type": "error"
    },
    {
      "inputs": [],
      "name": "InvalidTokenAddress",
      "type": "error"
    },
    {
      "inputs": [],
      "name": "NotInitializing",
      "type": "error"
    },
    {
      "inputs": [],
      "name": "ProxyCreationFailed",
      "type": "error"
    },
    {
      "inputs": [
        {
          "internalType": "address",
          "name": "deployedTokenIdentityAddress",
          "type": "address"
        },
        {
          "internalType": "address",
          "name": "tokenIdentityAddress",
          "type": "address"
        }
      ],
      "name": "TokenIdentityAddressMismatch",
      "type": "error"
    },
    {
      "anonymous": false,
      "inputs": [
        {
          "indexed": false,
          "internalType": "uint64",
          "name": "version",
          "type": "uint64"
        }
      ],
      "name": "Initialized",
      "type": "event"
    },
    {
      "anonymous": false,
      "inputs": [
        {
          "indexed": true,
          "internalType": "bytes32",
          "name": "role",
          "type": "bytes32"
        },
        {
          "indexed": true,
          "internalType": "bytes32",
          "name": "previousAdminRole",
          "type": "bytes32"
        },
        {
          "indexed": true,
          "internalType": "bytes32",
          "name": "newAdminRole",
          "type": "bytes32"
        }
      ],
      "name": "RoleAdminChanged",
      "type": "event"
    },
    {
      "anonymous": false,
      "inputs": [
        {
          "indexed": true,
          "internalType": "bytes32",
          "name": "role",
          "type": "bytes32"
        },
        {
          "indexed": true,
          "internalType": "address",
          "name": "account",
          "type": "address"
        },
        {
          "indexed": true,
          "internalType": "address",
          "name": "sender",
          "type": "address"
        }
      ],
      "name": "RoleGranted",
      "type": "event"
    },
    {
      "anonymous": false,
      "inputs": [
        {
          "indexed": true,
          "internalType": "bytes32",
          "name": "role",
          "type": "bytes32"
        },
        {
          "indexed": true,
          "internalType": "address",
          "name": "account",
          "type": "address"
        },
        {
          "indexed": true,
          "internalType": "address",
          "name": "sender",
          "type": "address"
        }
      ],
      "name": "RoleRevoked",
      "type": "event"
    },
    {
      "anonymous": false,
      "inputs": [
        {
          "indexed": true,
          "internalType": "address",
          "name": "sender",
          "type": "address"
        },
        {
          "indexed": true,
          "internalType": "address",
          "name": "tokenAddress",
          "type": "address"
        },
        {
          "indexed": true,
          "internalType": "address",
          "name": "tokenIdentity",
          "type": "address"
        },
        {
          "indexed": false,
          "internalType": "address",
          "name": "accessManager",
          "type": "address"
        }
      ],
      "name": "TokenAssetCreated",
      "type": "event"
    },
    {
      "anonymous": false,
      "inputs": [
        {
          "indexed": true,
          "internalType": "address",
          "name": "sender",
          "type": "address"
        },
        {
          "indexed": true,
          "internalType": "address",
          "name": "oldImplementation",
          "type": "address"
        },
        {
          "indexed": true,
          "internalType": "address",
          "name": "newImplementation",
          "type": "address"
        }
      ],
      "name": "TokenImplementationUpdated",
      "type": "event"
    },
    {
      "inputs": [],
      "name": "DEFAULT_ADMIN_ROLE",
      "outputs": [
        {
          "internalType": "bytes32",
          "name": "",
          "type": "bytes32"
        }
      ],
      "stateMutability": "view",
      "type": "function"
    },
    {
      "inputs": [
        {
          "internalType": "string",
          "name": "name_",
          "type": "string"
        },
        {
          "internalType": "string",
          "name": "symbol_",
          "type": "string"
        },
        {
          "internalType": "uint8",
          "name": "decimals_",
          "type": "uint8"
        },
        {
          "internalType": "uint16",
          "name": "managementFeeBps_",
          "type": "uint16"
        },
        {
          "internalType": "uint256[]",
          "name": "requiredClaimTopics_",
          "type": "uint256[]"
        },
        {
          "components": [
            {
              "internalType": "address",
              "name": "module",
              "type": "address"
            },
            {
              "internalType": "bytes",
              "name": "params",
              "type": "bytes"
            }
          ],
          "internalType": "struct SMARTComplianceModuleParamPair[]",
          "name": "initialModulePairs_",
          "type": "tuple[]"
        }
      ],
      "name": "createFund",
      "outputs": [
        {
          "internalType": "address",
          "name": "deployedFundAddress",
          "type": "address"
        }
      ],
      "stateMutability": "nonpayable",
      "type": "function"
    },
    {
      "inputs": [
        {
          "internalType": "bytes32",
          "name": "role",
          "type": "bytes32"
        }
      ],
      "name": "getRoleAdmin",
      "outputs": [
        {
          "internalType": "bytes32",
          "name": "",
          "type": "bytes32"
        }
      ],
      "stateMutability": "view",
      "type": "function"
    },
    {
      "inputs": [
        {
          "internalType": "bytes32",
          "name": "role",
          "type": "bytes32"
        },
        {
          "internalType": "address",
          "name": "account",
          "type": "address"
        }
      ],
      "name": "grantRole",
      "outputs": [],
      "stateMutability": "nonpayable",
      "type": "function"
    },
    {
      "inputs": [
        {
          "internalType": "bytes32",
          "name": "role",
          "type": "bytes32"
        },
        {
          "internalType": "address",
          "name": "account",
          "type": "address"
        }
      ],
      "name": "hasRole",
      "outputs": [
        {
          "internalType": "bool",
          "name": "",
          "type": "bool"
        }
      ],
      "stateMutability": "view",
      "type": "function"
    },
    {
      "inputs": [
        {
          "internalType": "address",
          "name": "systemAddress",
          "type": "address"
        },
        {
          "internalType": "address",
          "name": "tokenImplementation_",
          "type": "address"
        },
        {
          "internalType": "address",
          "name": "initialAdmin",
          "type": "address"
        },
        {
          "internalType": "address",
          "name": "identityVerificationModule",
          "type": "address"
        }
      ],
      "name": "initialize",
      "outputs": [],
      "stateMutability": "nonpayable",
      "type": "function"
    },
    {
      "inputs": [
        {
          "internalType": "address",
          "name": "accessManagerAddress",
          "type": "address"
        }
      ],
      "name": "isFactoryAccessManager",
      "outputs": [
        {
          "internalType": "bool",
          "name": "isFactoryAccessManager",
          "type": "bool"
        }
      ],
      "stateMutability": "view",
      "type": "function"
    },
    {
      "inputs": [
        {
          "internalType": "address",
          "name": "tokenAddress",
          "type": "address"
        }
      ],
      "name": "isFactoryToken",
      "outputs": [
        {
          "internalType": "bool",
          "name": "isFactoryToken",
          "type": "bool"
        }
      ],
      "stateMutability": "view",
      "type": "function"
    },
    {
      "inputs": [
        {
          "internalType": "address",
          "name": "forwarder",
          "type": "address"
        }
      ],
      "name": "isTrustedForwarder",
      "outputs": [
        {
          "internalType": "bool",
          "name": "",
          "type": "bool"
        }
      ],
      "stateMutability": "view",
      "type": "function"
    },
    {
      "inputs": [
        {
          "internalType": "address",
          "name": "tokenImplementation_",
          "type": "address"
        }
      ],
      "name": "isValidTokenImplementation",
      "outputs": [
        {
          "internalType": "bool",
          "name": "",
          "type": "bool"
        }
      ],
      "stateMutability": "view",
      "type": "function"
    },
    {
      "inputs": [
        {
          "internalType": "string",
          "name": "name_",
          "type": "string"
        },
        {
          "internalType": "string",
          "name": "symbol_",
          "type": "string"
        },
        {
          "internalType": "uint8",
          "name": "decimals_",
          "type": "uint8"
        },
        {
          "internalType": "uint16",
          "name": "managementFeeBps_",
          "type": "uint16"
        },
        {
          "internalType": "uint256[]",
          "name": "requiredClaimTopics_",
          "type": "uint256[]"
        },
        {
          "components": [
            {
              "internalType": "address",
              "name": "module",
              "type": "address"
            },
            {
              "internalType": "bytes",
              "name": "params",
              "type": "bytes"
            }
          ],
          "internalType": "struct SMARTComplianceModuleParamPair[]",
          "name": "initialModulePairs_",
          "type": "tuple[]"
        }
      ],
      "name": "predictFundAddress",
      "outputs": [
        {
          "internalType": "address",
          "name": "predictedAddress",
          "type": "address"
        }
      ],
      "stateMutability": "view",
      "type": "function"
    },
    {
      "inputs": [
        {
          "internalType": "bytes32",
          "name": "role",
          "type": "bytes32"
        },
        {
          "internalType": "address",
          "name": "callerConfirmation",
          "type": "address"
        }
      ],
      "name": "renounceRole",
      "outputs": [],
      "stateMutability": "nonpayable",
      "type": "function"
    },
    {
      "inputs": [
        {
          "internalType": "bytes32",
          "name": "role",
          "type": "bytes32"
        },
        {
          "internalType": "address",
          "name": "account",
          "type": "address"
        }
      ],
      "name": "revokeRole",
      "outputs": [],
      "stateMutability": "nonpayable",
      "type": "function"
    },
    {
      "inputs": [
        {
          "internalType": "bytes4",
          "name": "interfaceId",
          "type": "bytes4"
        }
      ],
      "name": "supportsInterface",
      "outputs": [
        {
          "internalType": "bool",
          "name": "",
          "type": "bool"
        }
      ],
      "stateMutability": "view",
      "type": "function"
    },
    {
      "inputs": [],
      "name": "tokenImplementation",
      "outputs": [
        {
          "internalType": "address",
          "name": "",
          "type": "address"
        }
      ],
      "stateMutability": "view",
      "type": "function"
    },
    {
      "inputs": [],
      "name": "trustedForwarder",
      "outputs": [
        {
          "internalType": "address",
          "name": "",
          "type": "address"
        }
      ],
      "stateMutability": "view",
      "type": "function"
    },
    {
      "inputs": [
        {
          "internalType": "address",
          "name": "newImplementation",
          "type": "address"
        }
      ],
      "name": "updateTokenImplementation",
      "outputs": [],
      "stateMutability": "nonpayable",
      "type": "function"
    }
  ],
  "bytecode": "0x60a03461011057601f6127da38819003918201601f19168301916001600160401b038311848410176101145780849260209460405283398101031261011057516001600160a01b0381168103610110576080525f5160206127ba5f395f51905f525460ff8160401c16610101576002600160401b03196001600160401b038216016100ab575b6040516126919081610129823960805181818161094101528181610a4701526117f00152f35b6001600160401b0319166001600160401b039081175f5160206127ba5f395f51905f52556040519081527fc7f505b2f371ae2175ee4913f4499e1f2633a7b5936321eed1cdaeb6115181d290602090a15f610085565b63f92ee8a960e01b5f5260045ffd5b5f80fd5b634e487b7160e01b5f52604160045260245ffdfe6080806040526004361015610012575f80fd5b5f3560e01c90816301ffc9a714610bbd5750806320ff43ad14610b80578063248a9ca314610b415780632f2ff15d14610af75780632f3a3d5d14610acf57806336568abe14610a7b578063572b6c0514610a275780636b9bc3c5146109705780637da0a8771461092c57806391d14854146108d7578063995087de14610856578063a217fddf1461083c578063a4b7914e14610800578063ba4dd8c7146104e6578063d20dd34914610409578063d547741f146103b85763f8c8765e146100d7575f80fd5b346103b45760803660031901126103b4576100f0610c2a565b6100f8610c40565b6044356001600160a01b03811692908381036103b4576064356001600160a01b03811693908490036103b4575f51602061263c5f395f51905f52549460ff8660401c16159567ffffffffffffffff8116801590816103ac575b60011490816103a2575b159081610399575b5061038a5767ffffffffffffffff1981166001175f51602061263c5f395f51905f52558661035e575b501561034f576001600160a01b0316908115806102f8575b6102e95783158015610276575b61026757806101c26101c89261110f565b506111d1565b506001600160601b0360a01b600354161760035560018060a01b03166001600160601b0360a01b60025416176002556001600160601b0360a01b600454161760045561021057005b68ff0000000000000000195f51602061263c5f395f51905f5254165f51602061263c5f395f51905f52557fc7f505b2f371ae2175ee4913f4499e1f2633a7b5936321eed1cdaeb6115181d2602060405160018152a1005b635bedad7f60e01b5f5260045ffd5b506040516301ffc9a760e01b8152638c30a94360e01b6004820152602081602481885afa9081156102de575f916102af575b50156101b1565b6102d1915060203d6020116102d7575b6102c98183610c86565b81019061100d565b5f6102a8565b503d6102bf565b6040513d5f823e3d90fd5b63325c055b60e21b5f5260045ffd5b506040516301ffc9a760e01b815263074ece2b60e41b6004820152602081602481865afa9081156102de575f91610330575b506101a4565b610349915060203d6020116102d7576102c98183610c86565b5f61032a565b630f58058360e11b5f5260045ffd5b68ffffffffffffffffff191668010000000000000001175f51602061263c5f395f51905f52555f61018c565b63f92ee8a960e01b5f5260045ffd5b9050155f610163565b303b15915061015b565b889150610151565b5f80fd5b346103b45760403660031901126103b4576104076004356103d7610c40565b906104026103fd825f525f51602061261c5f395f51905f52602052600160405f20015490565b6110b3565b61135f565b005b346103b45760203660031901126103b457610422610c2a565b61042a6117ed565b6001600160a01b0381165f9081527fb7db2dd08fcb62d0c9e08c51941cae53c267786a0b75803fb7960902fc8ef97d602052604090205460ff16156104c857506001600160a01b031680156102e957600380546001600160a01b0319811683179091556001600160a01b03908116906104a16117ed565b167fe1f3806f643d2e258028ad292fef274cc5cd62ffcd3e4cb5052e0fe2f518317d5f80a4005b63e2517d3f60e01b5f5260018060a01b03166004525f60245260445ffd5b346103b4576104f436610d24565b9261050481868897949598611408565b9461050d611025565b61051e6105186117ed565b87611846565b97906001600160a01b0361053189611453565b1698895f52600160205260ff60405f2054166107ed576001600160a01b039161055a9190611951565b169788036107cb57876105cc936105be9261059b61060e98845f52600160205260405f20600160ff1982541617905561059585858b8a611495565b9a6115c9565b6105a361170d565b918a6105ad61176d565b946040519a8b993060208c01610f18565b03601f198101835282610c86565b6106086107ee94604051956105e46020820188610c86565b80875261199c60208801396105f7611025565b6002546001600160a01b031661191e565b936117ad565b805160208201206001600160a01b039061062a903090866118f5565b1692835f525f60205260ff60405f2054166107da579061064991611951565b926001600160a01b0384169283036107cb575f8381526020818152604091829020805460ff191660011790556002549151633c73911160e11b81529591869060049082906001600160a01b03165afa9485156102de576106e69560209284925f926107ac575b506040516355c759ed60e01b81526001600160a01b03918216600482015292166024830152909586919082905f9082906044820190565b03926001600160a01b03165af19384156102de5760209484915f9161077f575b507fdbc80e56de8f11ba4bcaab7b4d7dafb41edbd27f6dbd16f83a7b92efebed88c26001600160a01b036107386117ed565b169160018060a01b0316968794604051908152a46001600160a01b03169182810361076857602082604051908152f35b9050631a13f74960e11b5f5260045260245260445ffd5b61079f9150863d88116107a5575b6107978183610c86565b810190611476565b86610706565b503d61078d565b6107c4919250843d86116107a5576107978183610c86565b90886106af565b6335279f5d60e21b5f5260045ffd5b8363d0dc594960e01b5f5260045260245ffd5b89631372e33d60e01b5f5260045260245ffd5b346103b45760203660031901126103b4576001600160a01b03610821610c2a565b165f525f602052602060ff60405f2054166040519015158152f35b346103b4575f3660031901126103b45760206040515f8152f35b346103b45760203660031901126103b457602460206001600160a01b0361087b610c2a565b6040516301ffc9a760e01b8152632d3e4c5360e01b600482015293849290918391165afa80156102de576020915f916108ba575b506040519015158152f35b6108d19150823d84116102d7576102c98183610c86565b826108af565b346103b45760403660031901126103b4576108f0610c40565b6004355f525f51602061261c5f395f51905f5260205260405f209060018060a01b03165f52602052602060ff60405f2054166040519015158152f35b346103b4575f3660031901126103b4576040517f00000000000000000000000000000000000000000000000000000000000000006001600160a01b03168152602090f35b346103b4576020610a156109d0610a086105be61098c36610d24565b61099e84868897999694959b98611408565b986109be6109ab8b611453565b946109b886868c8b611495565b936115c9565b906109c761170d565b926105ad61176d565b610a026107ee93604051946109e788820187610c86565b80865261199c888701396002546001600160a01b031661191e565b926117ad565b80519084012030916118f5565b6040516001600160a01b039091168152f35b346103b45760203660031901126103b4576020610a42610c2a565b6040517f00000000000000000000000000000000000000000000000000000000000000006001600160a01b039081169216919091148152f35b346103b45760403660031901126103b457610a94610c40565b6001600160a01b03610aa46117ed565b166001600160a01b03821603610ac0576104079060043561135f565b63334bd91960e11b5f5260045ffd5b346103b4575f3660031901126103b4576003546040516001600160a01b039091168152602090f35b346103b45760403660031901126103b457610407600435610b16610c40565b90610b3c6103fd825f525f51602061261c5f395f51905f52602052600160405f20015490565b6112ae565b346103b45760203660031901126103b4576020610b786004355f525f51602061261c5f395f51905f52602052600160405f20015490565b604051908152f35b346103b45760203660031901126103b4576001600160a01b03610ba1610c2a565b165f526001602052602060ff60405f2054166040519015158152f35b346103b45760203660031901126103b4576004359063ffffffff60e01b82168092036103b457602091634ea2ccdd60e01b8114908115610bff575b5015158152f35b637965db0b60e01b811491508115610c19575b5083610bf8565b6301ffc9a760e01b14905083610c12565b600435906001600160a01b03821682036103b457565b602435906001600160a01b03821682036103b457565b6040810190811067ffffffffffffffff821117610c7257604052565b634e487b7160e01b5f52604160045260245ffd5b90601f8019910116810190811067ffffffffffffffff821117610c7257604052565b92919267ffffffffffffffff8211610c725760405191610cd2601f8201601f191660200184610c86565b8294818452818301116103b4578281602093845f960137010152565b9080601f830112156103b457816020610d0993359101610ca8565b90565b67ffffffffffffffff8111610c725760051b60200190565b9060c06003198301126103b45760043567ffffffffffffffff81116103b45782610d5091600401610cee565b9160243567ffffffffffffffff81116103b45781610d7091600401610cee565b9160443560ff811681036103b4579160643561ffff811681036103b4579160843567ffffffffffffffff81116103b457826023820112156103b457806004013590610dba82610d0c565b91610dc86040519384610c86565b8083526024602084019160051b830101918583116103b457602401905b828210610ee4575050509160a43567ffffffffffffffff81116103b457816023820112156103b457806004013590610e1c82610d0c565b92610e2a6040519485610c86565b8284526024602085019360051b830101918183116103b45760248101935b838510610e5757505050505090565b843567ffffffffffffffff81116103b457820190604082850360231901126103b45760405191610e8683610c56565b60248101356001600160a01b03811681036103b4578352604481013567ffffffffffffffff81116103b45760249101019084601f830112156103b457602092610ed58684868096359101610ca8565b83820152815201940193610e48565b8135815260209182019101610de5565b805180835260209291819084018484015e5f828201840152601f01601f1916010190565b979996949161ffff949b999693610f4c610f5a9260ff9460018060a01b03168c5261014060208d01526101408c0190610ef4565b908a820360408c0152610ef4565b9a1660608801526001600160a01b031660808701521660a085015283870360c085015280518088526020600582901b8901810192810191905f908a015b828210610fc957505050506001600160a01b0395861660e0850152908516610100840152931661012090910152909150565b90919293602080610fff6001938e601f199082030186526040838a51878060a01b03815116845201519181858201520190610ef4565b960192019201909291610f97565b908160209103126103b4575180151581036103b45790565b61102d6117ed565b6001600160a01b0381165f9081527f8f7e9a8734279607aeaac474f24949ddc99eae25c0da72edcf5ad21022be2c9e602052604090205460ff161561106f5750565b63e2517d3f60e01b5f9081526001600160a01b03919091166004527ffc425f2263d0df187444b70e47283d622c70181c5baebb1306a01edba1ce184c602452604490fd5b6110bb6117ed565b815f525f51602061261c5f395f51905f5260205260405f2060018060a01b0382165f5260205260ff60405f205416156110f2575050565b63e2517d3f60e01b5f5260018060a01b031660045260245260445ffd5b6001600160a01b0381165f9081527fb7db2dd08fcb62d0c9e08c51941cae53c267786a0b75803fb7960902fc8ef97d602052604090205460ff166111cc576001600160a01b038181165f9081527fb7db2dd08fcb62d0c9e08c51941cae53c267786a0b75803fb7960902fc8ef97d60205260409020805460ff191660011790556111976117ed565b16906001600160a01b03165f7f2f8788117e7eff1d82e926ec794901d17c78024a50270940304540a733656f0d8180a4600190565b505f90565b6001600160a01b0381165f9081527f8f7e9a8734279607aeaac474f24949ddc99eae25c0da72edcf5ad21022be2c9e602052604090205460ff166111cc576001600160a01b038181165f9081527f8f7e9a8734279607aeaac474f24949ddc99eae25c0da72edcf5ad21022be2c9e60205260409020805460ff191660011790556112596117ed565b16906001600160a01b03167ffc425f2263d0df187444b70e47283d622c70181c5baebb1306a01edba1ce184c7f2f8788117e7eff1d82e926ec794901d17c78024a50270940304540a733656f0d5f80a4600190565b5f8181525f51602061261c5f395f51905f52602090815260408083206001600160a01b038616845290915290205460ff16611359575f8181525f51602061261c5f395f51905f52602090815260408083206001600160a01b0386811685529252909120805460ff191660011790556113246117ed565b16916001600160a01b0316907f2f8788117e7eff1d82e926ec794901d17c78024a50270940304540a733656f0d5f80a4600190565b50505f90565b5f8181525f51602061261c5f395f51905f52602090815260408083206001600160a01b038616845290915290205460ff1615611359575f8181525f51602061261c5f395f51905f52602090815260408083206001600160a01b0386811685529252909120805460ff191690556113d36117ed565b16916001600160a01b0316907ff6391f5c32d9c69d2a47ea670b442974b53935d1edc7fd64eb21e047a839171b5f80a4600190565b61142c9260ff61143e610d0994604051968795606060208801526080870190610ef4565b858103601f1901604087015290610ef4565b9116606083015203601f198101835282610c86565b611468610d09916114626117ed565b90611846565b6020815191012030916118f5565b908160209103126103b457516001600160a01b03811681036103b45790565b600254604051633c73911160e11b815293949190602090859060049082906001600160a01b03165afa9081156102de57611512956020955f9361155a575b50611500929360ff60405198899788968796637a3f5df760e11b8852608060048901526084880190610ef4565b86810360031901602488015290610ef4565b921660448401526001600160a01b03908116606484015291900392165afa9081156102de575f91611541575090565b610d09915060203d6020116107a5576107978183610c86565b611500935061157590873d89116107a5576107978183610c86565b926114d3565b6040519061158882610c56565b60606020835f81520152565b8051156115a15760200190565b634e487b7160e01b5f52603260045260245ffd5b80518210156115a15760209160051b010190565b80516001810193929084106116c5576115e184610d0c565b936115ef6040519586610c86565b8085526115fe601f1991610d0c565b015f5b8181106116f657505061161261157b565b5060018060a01b0360045416906040519081604081019160208083015280518093526020606083019101925f5b8181106116dd57505061165b925003601f198101835282610c86565b6040519161166883610c56565b8252602082015261167884611594565b5261168283611594565b505f5b81518110156116d95761169881836115b5565b519060018101918282116116c557826116be916116b7600195896115b5565b52866115b5565b5001611685565b634e487b7160e01b5f52601160045260245ffd5b5050565b845183526020948501948694509092019160010161163f565b60209061170161157b565b82828901015201611601565b60025460405163d62def8f60e01b815290602090829060049082906001600160a01b03165afa9081156102de575f9161174e575b506001600160a01b031690565b611767915060203d6020116107a5576107978183610c86565b5f611741565b6002546040516398468e5160e01b815290602090829060049082906001600160a01b03165afa9081156102de575f9161174e57506001600160a01b031690565b6117eb906020808095946040519684889551918291018487015e8401908282015f8152815193849201905e01015f815203601f198101845283610c86565b565b337f00000000000000000000000000000000000000000000000000000000000000006001600160a01b0316148061183b575b156118375760131936013681116116c5573560601c90565b3390565b50601436101561181f565b9190610d09906118d260018060a01b0360025416946040516118a6816105be60208201948a86526060604084015260116080840152701058d8d95cdcd3585b9859d95c94d85b1d607a1b60a084015260a0606084015260c0830190610ef4565b519020604080516001600160a01b039788166020820152939096169583019590955281606081016105be565b6040516104926118e56020820183610c86565b80825261218a60208301396117ad565b91600b92604051926040840152602083015281520160ff8153605590206001600160a01b031690565b9061194b6105be91604051928391602083019560018060a01b031686526040808401526060830190610ef4565b51902090565b9080511561198c576020815191015ff5903d15198215166102de576001600160a01b0382161561197d57565b63b06ebf3d60e01b5f5260045ffd5b631328927760e21b5f5260045ffdfe60806040526107ee8038038091610015826100ff565b6080396101408160800191126100e75761002d610168565b60a0516001600160401b0381116100e7578261004b916080016101e3565b60c0516001600160401b0381116100e75783610069916080016101e3565b61007360e0610200565b61007e61010061017e565b61008961012061020e565b610140519091906001600160401b0381116100e7576100d8976100ae9160800161021d565b926100ba61016061017e565b946100c661018061017e565b966100d26101a061017e565b98610412565b604051610172908161065c8239f35b5f80fd5b634e487b7160e01b5f52604160045260245ffd5b6080601f91909101601f19168101906001600160401b0382119082101761012557604052565b6100eb565b604081019081106001600160401b0382111761012557604052565b601f909101601f19168101906001600160401b0382119082101761012557604052565b608051906001600160a01b03821682036100e757565b51906001600160a01b03821682036100e757565b6001600160401b03811161012557601f01601f191660200190565b9291926101b982610192565b916101c76040519384610145565b8294818452818301116100e7578281602093845f96015e010152565b9080601f830112156100e75781516101fd926020016101ad565b90565b519060ff821682036100e757565b519061ffff821682036100e757565b9080601f830112156100e7578151916001600160401b038311610125578260051b91604051936102506020850186610145565b8452602080850193830101918183116100e75760208101935b83851061027857505050505090565b84516001600160401b0381116100e7578201906040828503601f1901126100e757604051916102a68361012a565b6102b26020820161017e565b835260408101516001600160401b0381116100e75760209101019084601f830112156100e7576020926102eb86848680965191016101ad565b83820152815201940193610269565b805180835260209291819084018484015e5f828201840152601f01601f1916010190565b9699989795949161035260ff9161034461ffff9697946101208c526101208c01906102fa565b908a820360208c01526102fa565b941660408801526001600160a01b0316606087015216608085015283810360a085015281518082526020600582901b83018101938101925f918101905b8383106103cd57505050506001600160a01b0396871660c085015250941660e08201526103cb9190610100906001600160a01b03909216910152565b565b9091929394602080610403600193601f198682030187526040838b51878060a01b038151168452015191818582015201906102fa565b9701930193019193929061038f565b939598929690949897919760018060a01b03851680159081156104bd575b506104ae576103cb996104a99761047661049b9760018060a01b031660018060a01b03195f5160206107ce5f395f51905f525416175f5160206107ce5f395f51905f5255565b61047e610552565b996040519b8c9963224b383d60e21b60208c015260248b0161031e565b03601f198101845283610145565b6105ee565b63fd360a1d60e01b5f5260045ffd5b6040516301ffc9a760e01b8152634ea2ccdd60e01b60048201529150602090829060249082905afa90811561052a575f916104fb575b50155f610430565b61051d915060203d602011610523575b6105158183610145565b81019061052f565b5f6104f3565b503d61050b565b610547565b908160209103126100e7575180151581036100e75790565b6040513d5f823e3d90fd5b5f5160206107ce5f395f51905f5254604051632f3a3d5d60e01b815290602090829060049082906001600160a01b03165afa90811561052a575f916105b4575b506001600160a01b038116156105a55790565b63daa2f31f60e01b5f5260045ffd5b90506020813d6020116105e6575b816105cf60209383610145565b810103126100e7576105e09061017e565b5f610592565b3d91506105c2565b6001600160a01b0381161561064c57815f929160208493519201905af43d15610644573d9061061c82610192565b9161062a6040519384610145565b82523d5f602084013e5b1561063c5750565b602081519101fd5b606090610634565b63ee0a129760e01b5f5260045ffdfe608060405236156100a8577f1515746737424785433e0dda020fe774d11e0fab6d980530d355fada133c3c705460209060809060049082906001600160a01b0316632f3a3d5d60e01b82525afa80156100a3575f90610076575b6001600160a01b03811661011f5763daa2f31f60e01b5f5260045ffd5b5060203d60201161009c575b8061008f610097926100b7565b6080016100ee565b610059565b503d610082565b610114565b635d82995b60e01b5f5260045ffd5b601f80199101166080016080811067ffffffffffffffff8211176100da57604052565b634e487b7160e01b5f52604160045260245ffd5b602090607f190112610110576080516001600160a01b03811681036101105790565b5f80fd5b6040513d5f823e3d90fd5b5f8091368280378136915af43d5f803e15610138573d5ff35b3d5ffdfea26469706673582212204e41abbdfe42465c78b03bfc6c1a7aa2add46efb1ba6d5cfc859682c11727dd064736f6c634300081c00331515746737424785433e0dda020fe774d11e0fab6d980530d355fada133c3c70608060405234610171576040610492803803809161001c82610189565b608039126101715761002c6101d7565b61003660a06101ed565b906001600160a01b03811680159081156100ff575b506100f0577f4ec051ecf420fd16e0db567197da76ec7f1f5f47763970d604b97e75cb0064d380546001600160a01b0319166001600160a01b039290921691821790556100e1916100ce916100dc906100a390610224565b60405163189acdbd60e31b60208201526001600160a01b039093166024840152919283906044820190565b03601f1981018452836101b4565b6102b1565b604051610164908161032e8239f35b633f997a3760e01b5f5260045ffd5b6040516301ffc9a760e01b8152633d1b15b560e21b60048201529150602090829060249082905afa90811561016c575f9161013d575b50155f61004b565b61015f915060203d602011610165575b61015781836101b4565b810190610201565b5f610135565b503d61014d565b610219565b5f80fd5b634e487b7160e01b5f52604160045260245ffd5b6080601f91909101601f19168101906001600160401b038211908210176101af57604052565b610175565b601f909101601f19168101906001600160401b038211908210176101af57604052565b608051906001600160a01b038216820361017157565b51906001600160a01b038216820361017157565b90816020910312610171575180151581036101715790565b6040513d5f823e3d90fd5b6040516344eecc1760e01b815290602090829060049082906001600160a01b03165afa90811561016c575f91610277575b506001600160a01b038116156102685790565b63099d3e0360e21b5f5260045ffd5b90506020813d6020116102a9575b81610292602093836101b4565b81010312610171576102a3906101ed565b5f610255565b3d9150610285565b6001600160a01b0381161561031e57815f929160208493519201905af43d15610316573d906001600160401b0382116101af57604051916102fc601f8201601f1916602001846101b4565b82523d5f602084013e5b1561030e5750565b602081519101fd5b606090610306565b63ee0a129760e01b5f5260045ffdfe608060405236156100dc577f4ec051ecf420fd16e0db567197da76ec7f1f5f47763970d604b97e75cb0064d3546344eecc1760e01b608090815260209160049082906001600160a01b03165afa80156100d1575f90610076575b6001600160a01b0381166100eb5763099d3e0360e21b5f5260045ffd5b5060203d6020116100ca575b601f19601f820116608001906080821067ffffffffffffffff8311176100b6576100b191604052608001610108565b610059565b634e487b7160e01b5f52604160045260245ffd5b503d610082565b6040513d5f823e3d90fd5b635d82995b60e01b5f5260045ffd5b5f8091368280378136915af43d5f803e15610104573d5ff35b3d5ffd5b602090607f19011261012a576080516001600160a01b038116810361012a5790565b5f80fdfea26469706673582212200e42f5e6836131c0aaf35292b0c6b7e8498f6d6d7ea58c3c201a96446839d0db64736f6c634300081c003302dd7bc7dec4dceedda775e58dd541e08a116c6c53815c0bd028192f7b626800f0c57e16840df040f15088dc2f81fe391c3923bec73e23a9662efc9c229c6a00a26469706673582212201edeee73eadc6d102c06d6c41778b8b19bdbbcc1e8725c78d533339f296e642064736f6c634300081c0033f0c57e16840df040f15088dc2f81fe391c3923bec73e23a9662efc9c229c6a00",
  "linkReferences": {},
  "deployedLinkReferences": {}
}