{
  "_format": "hh-sol-artifact-1",
  "contractName": "ATKEquityFactoryImplementation",
  "sourceName": "contracts/assets/equity/ATKEquityFactoryImplementation.sol",
  "abi": [
    {
      "inputs": [
        {
          "internalType": "address",
          "name": "forwarder",
          "type": "address"
        }
      ],
      "stateMutability": "nonpayable",
      "type": "constructor"
    },
    {
      "inputs": [],
      "name": "AccessControlBadConfirmation",
      "type": "error"
    },
    {
      "inputs": [
        {
          "internalType": "address",
          "name": "account",
          "type": "address"
        },
        {
          "internalType": "bytes32",
          "name": "neededRole",
          "type": "bytes32"
        }
      ],
      "name": "AccessControlUnauthorizedAccount",
      "type": "error"
    },
    {
      "inputs": [
        {
          "internalType": "address",
          "name": "predictedAddress",
          "type": "address"
        }
      ],
      "name": "AccessManagerAlreadyDeployed",
      "type": "error"
    },
    {
      "inputs": [
        {
          "internalType": "address",
          "name": "predictedAddress",
          "type": "address"
        }
      ],
      "name": "AddressAlreadyDeployed",
      "type": "error"
    },
    {
      "inputs": [],
      "name": "Create2EmptyBytecode",
      "type": "error"
    },
    {
      "inputs": [],
      "name": "FailedDeployment",
      "type": "error"
    },
    {
      "inputs": [
        {
          "internalType": "uint256",
          "name": "balance",
          "type": "uint256"
        },
        {
          "internalType": "uint256",
          "name": "needed",
          "type": "uint256"
        }
      ],
      "name": "InsufficientBalance",
      "type": "error"
    },
    {
      "inputs": [],
      "name": "InvalidIdentityVerificationModuleAddress",
      "type": "error"
    },
    {
      "inputs": [],
      "name": "InvalidImplementationAddress",
      "type": "error"
    },
    {
      "inputs": [],
      "name": "InvalidInitialization",
      "type": "error"
    },
    {
      "inputs": [],
      "name": "InvalidTokenAddress",
      "type": "error"
    },
    {
      "inputs": [],
      "name": "NotInitializing",
      "type": "error"
    },
    {
      "inputs": [],
      "name": "ProxyCreationFailed",
      "type": "error"
    },
    {
      "inputs": [
        {
          "internalType": "address",
          "name": "deployedTokenIdentityAddress",
          "type": "address"
        },
        {
          "internalType": "address",
          "name": "tokenIdentityAddress",
          "type": "address"
        }
      ],
      "name": "TokenIdentityAddressMismatch",
      "type": "error"
    },
    {
      "anonymous": false,
      "inputs": [
        {
          "indexed": false,
          "internalType": "uint64",
          "name": "version",
          "type": "uint64"
        }
      ],
      "name": "Initialized",
      "type": "event"
    },
    {
      "anonymous": false,
      "inputs": [
        {
          "indexed": true,
          "internalType": "bytes32",
          "name": "role",
          "type": "bytes32"
        },
        {
          "indexed": true,
          "internalType": "bytes32",
          "name": "previousAdminRole",
          "type": "bytes32"
        },
        {
          "indexed": true,
          "internalType": "bytes32",
          "name": "newAdminRole",
          "type": "bytes32"
        }
      ],
      "name": "RoleAdminChanged",
      "type": "event"
    },
    {
      "anonymous": false,
      "inputs": [
        {
          "indexed": true,
          "internalType": "bytes32",
          "name": "role",
          "type": "bytes32"
        },
        {
          "indexed": true,
          "internalType": "address",
          "name": "account",
          "type": "address"
        },
        {
          "indexed": true,
          "internalType": "address",
          "name": "sender",
          "type": "address"
        }
      ],
      "name": "RoleGranted",
      "type": "event"
    },
    {
      "anonymous": false,
      "inputs": [
        {
          "indexed": true,
          "internalType": "bytes32",
          "name": "role",
          "type": "bytes32"
        },
        {
          "indexed": true,
          "internalType": "address",
          "name": "account",
          "type": "address"
        },
        {
          "indexed": true,
          "internalType": "address",
          "name": "sender",
          "type": "address"
        }
      ],
      "name": "RoleRevoked",
      "type": "event"
    },
    {
      "anonymous": false,
      "inputs": [
        {
          "indexed": true,
          "internalType": "address",
          "name": "sender",
          "type": "address"
        },
        {
          "indexed": true,
          "internalType": "address",
          "name": "tokenAddress",
          "type": "address"
        },
        {
          "indexed": true,
          "internalType": "address",
          "name": "tokenIdentity",
          "type": "address"
        },
        {
          "indexed": false,
          "internalType": "address",
          "name": "accessManager",
          "type": "address"
        }
      ],
      "name": "TokenAssetCreated",
      "type": "event"
    },
    {
      "anonymous": false,
      "inputs": [
        {
          "indexed": true,
          "internalType": "address",
          "name": "sender",
          "type": "address"
        },
        {
          "indexed": true,
          "internalType": "address",
          "name": "oldImplementation",
          "type": "address"
        },
        {
          "indexed": true,
          "internalType": "address",
          "name": "newImplementation",
          "type": "address"
        }
      ],
      "name": "TokenImplementationUpdated",
      "type": "event"
    },
    {
      "inputs": [],
      "name": "DEFAULT_ADMIN_ROLE",
      "outputs": [
        {
          "internalType": "bytes32",
          "name": "",
          "type": "bytes32"
        }
      ],
      "stateMutability": "view",
      "type": "function"
    },
    {
      "inputs": [
        {
          "internalType": "string",
          "name": "name_",
          "type": "string"
        },
        {
          "internalType": "string",
          "name": "symbol_",
          "type": "string"
        },
        {
          "internalType": "uint8",
          "name": "decimals_",
          "type": "uint8"
        },
        {
          "internalType": "uint256[]",
          "name": "requiredClaimTopics_",
          "type": "uint256[]"
        },
        {
          "components": [
            {
              "internalType": "address",
              "name": "module",
              "type": "address"
            },
            {
              "internalType": "bytes",
              "name": "params",
              "type": "bytes"
            }
          ],
          "internalType": "struct SMARTComplianceModuleParamPair[]",
          "name": "initialModulePairs_",
          "type": "tuple[]"
        }
      ],
      "name": "createEquity",
      "outputs": [
        {
          "internalType": "address",
          "name": "deployedEquityAddress",
          "type": "address"
        }
      ],
      "stateMutability": "nonpayable",
      "type": "function"
    },
    {
      "inputs": [
        {
          "internalType": "bytes32",
          "name": "role",
          "type": "bytes32"
        }
      ],
      "name": "getRoleAdmin",
      "outputs": [
        {
          "internalType": "bytes32",
          "name": "",
          "type": "bytes32"
        }
      ],
      "stateMutability": "view",
      "type": "function"
    },
    {
      "inputs": [
        {
          "internalType": "bytes32",
          "name": "role",
          "type": "bytes32"
        },
        {
          "internalType": "address",
          "name": "account",
          "type": "address"
        }
      ],
      "name": "grantRole",
      "outputs": [],
      "stateMutability": "nonpayable",
      "type": "function"
    },
    {
      "inputs": [
        {
          "internalType": "bytes32",
          "name": "role",
          "type": "bytes32"
        },
        {
          "internalType": "address",
          "name": "account",
          "type": "address"
        }
      ],
      "name": "hasRole",
      "outputs": [
        {
          "internalType": "bool",
          "name": "",
          "type": "bool"
        }
      ],
      "stateMutability": "view",
      "type": "function"
    },
    {
      "inputs": [
        {
          "internalType": "address",
          "name": "systemAddress",
          "type": "address"
        },
        {
          "internalType": "address",
          "name": "tokenImplementation_",
          "type": "address"
        },
        {
          "internalType": "address",
          "name": "initialAdmin",
          "type": "address"
        },
        {
          "internalType": "address",
          "name": "identityVerificationModule",
          "type": "address"
        }
      ],
      "name": "initialize",
      "outputs": [],
      "stateMutability": "nonpayable",
      "type": "function"
    },
    {
      "inputs": [
        {
          "internalType": "address",
          "name": "accessManagerAddress",
          "type": "address"
        }
      ],
      "name": "isFactoryAccessManager",
      "outputs": [
        {
          "internalType": "bool",
          "name": "isFactoryAccessManager",
          "type": "bool"
        }
      ],
      "stateMutability": "view",
      "type": "function"
    },
    {
      "inputs": [
        {
          "internalType": "address",
          "name": "tokenAddress",
          "type": "address"
        }
      ],
      "name": "isFactoryToken",
      "outputs": [
        {
          "internalType": "bool",
          "name": "isFactoryToken",
          "type": "bool"
        }
      ],
      "stateMutability": "view",
      "type": "function"
    },
    {
      "inputs": [
        {
          "internalType": "address",
          "name": "forwarder",
          "type": "address"
        }
      ],
      "name": "isTrustedForwarder",
      "outputs": [
        {
          "internalType": "bool",
          "name": "",
          "type": "bool"
        }
      ],
      "stateMutability": "view",
      "type": "function"
    },
    {
      "inputs": [
        {
          "internalType": "address",
          "name": "tokenImplementation_",
          "type": "address"
        }
      ],
      "name": "isValidTokenImplementation",
      "outputs": [
        {
          "internalType": "bool",
          "name": "",
          "type": "bool"
        }
      ],
      "stateMutability": "view",
      "type": "function"
    },
    {
      "inputs": [
        {
          "internalType": "string",
          "name": "name_",
          "type": "string"
        },
        {
          "internalType": "string",
          "name": "symbol_",
          "type": "string"
        },
        {
          "internalType": "uint8",
          "name": "decimals_",
          "type": "uint8"
        },
        {
          "internalType": "uint256[]",
          "name": "requiredClaimTopics_",
          "type": "uint256[]"
        },
        {
          "components": [
            {
              "internalType": "address",
              "name": "module",
              "type": "address"
            },
            {
              "internalType": "bytes",
              "name": "params",
              "type": "bytes"
            }
          ],
          "internalType": "struct SMARTComplianceModuleParamPair[]",
          "name": "initialModulePairs_",
          "type": "tuple[]"
        }
      ],
      "name": "predictEquityAddress",
      "outputs": [
        {
          "internalType": "address",
          "name": "predictedAddress",
          "type": "address"
        }
      ],
      "stateMutability": "view",
      "type": "function"
    },
    {
      "inputs": [
        {
          "internalType": "bytes32",
          "name": "role",
          "type": "bytes32"
        },
        {
          "internalType": "address",
          "name": "callerConfirmation",
          "type": "address"
        }
      ],
      "name": "renounceRole",
      "outputs": [],
      "stateMutability": "nonpayable",
      "type": "function"
    },
    {
      "inputs": [
        {
          "internalType": "bytes32",
          "name": "role",
          "type": "bytes32"
        },
        {
          "internalType": "address",
          "name": "account",
          "type": "address"
        }
      ],
      "name": "revokeRole",
      "outputs": [],
      "stateMutability": "nonpayable",
      "type": "function"
    },
    {
      "inputs": [
        {
          "internalType": "bytes4",
          "name": "interfaceId",
          "type": "bytes4"
        }
      ],
      "name": "supportsInterface",
      "outputs": [
        {
          "internalType": "bool",
          "name": "",
          "type": "bool"
        }
      ],
      "stateMutability": "view",
      "type": "function"
    },
    {
      "inputs": [],
      "name": "tokenImplementation",
      "outputs": [
        {
          "internalType": "address",
          "name": "",
          "type": "address"
        }
      ],
      "stateMutability": "view",
      "type": "function"
    },
    {
      "inputs": [],
      "name": "trustedForwarder",
      "outputs": [
        {
          "internalType": "address",
          "name": "",
          "type": "address"
        }
      ],
      "stateMutability": "view",
      "type": "function"
    },
    {
      "inputs": [
        {
          "internalType": "address",
          "name": "newImplementation",
          "type": "address"
        }
      ],
      "name": "updateTokenImplementation",
      "outputs": [],
      "stateMutability": "nonpayable",
      "type": "function"
    }
  ],
  "bytecode": "0x60a03461011057601f61278d38819003918201601f19168301916001600160401b038311848410176101145780849260209460405283398101031261011057516001600160a01b0381168103610110576080525f51602061276d5f395f51905f525460ff8160401c16610101576002600160401b03196001600160401b038216016100ab575b604051612644908161012982396080518181816109f201528181610a4101526117ce0152f35b6001600160401b0319166001600160401b039081175f51602061276d5f395f51905f52556040519081527fc7f505b2f371ae2175ee4913f4499e1f2633a7b5936321eed1cdaeb6115181d290602090a15f610085565b63f92ee8a960e01b5f5260045ffd5b5f80fd5b634e487b7160e01b5f52604160045260245ffdfe6080806040526004361015610012575f80fd5b5f3560e01c90816301ffc9a714610bb75750806320ff43ad14610b7a578063248a9ca314610b3b5780632f2ff15d14610af15780632f3a3d5d14610ac957806336568abe14610a75578063572b6c0514610a215780637da0a877146109dd57806391d1485414610988578063995087de14610907578063a217fddf146108ed578063a4b7914e146108b1578063aea75007146107fd578063d20dd34914610720578063d547741f146106cf578063f6a68fe3146103b85763f8c8765e146100d7575f80fd5b346103b45760803660031901126103b4576100f0610c24565b6100f8610c3a565b6044356001600160a01b03811692908381036103b4576064356001600160a01b03811693908490036103b4575f5160206125ef5f395f51905f52549460ff8660401c16159567ffffffffffffffff8116801590816103ac575b60011490816103a2575b159081610399575b5061038a5767ffffffffffffffff1981166001175f5160206125ef5f395f51905f52558661035e575b501561034f576001600160a01b0316908115806102f8575b6102e95783158015610276575b61026757806101c26101c8926110ed565b506111af565b506001600160601b0360a01b600354161760035560018060a01b03166001600160601b0360a01b60025416176002556001600160601b0360a01b600454161760045561021057005b68ff0000000000000000195f5160206125ef5f395f51905f5254165f5160206125ef5f395f51905f52557fc7f505b2f371ae2175ee4913f4499e1f2633a7b5936321eed1cdaeb6115181d2602060405160018152a1005b635bedad7f60e01b5f5260045ffd5b506040516301ffc9a760e01b8152638c30a94360e01b6004820152602081602481885afa9081156102de575f916102af575b50156101b1565b6102d1915060203d6020116102d7575b6102c98183610c80565b810190610ede565b5f6102a8565b503d6102bf565b6040513d5f823e3d90fd5b63325c055b60e21b5f5260045ffd5b506040516301ffc9a760e01b815263074ece2b60e41b6004820152602081602481865afa9081156102de575f91610330575b506101a4565b610349915060203d6020116102d7576102c98183610c80565b5f61032a565b630f58058360e11b5f5260045ffd5b68ffffffffffffffffff191668010000000000000001175f5160206125ef5f395f51905f52555f61018c565b63f92ee8a960e01b5f5260045ffd5b9050155f610163565b303b15915061015b565b889150610151565b5f80fd5b346103b4576103c636610d1e565b9190926103d48282876113e6565b936103dd611003565b6103ee6103e86117cb565b86611824565b96906001600160a01b0361040188611431565b1697885f52600160205260ff60405f2054166106bc576001600160a01b039161042a919061192f565b1696870361069a5761048d876104dd9561046a61049b95835f52600160205260405f20600160ff1982541617905561046484848a89611473565b996115a7565b6104726116eb565b908961047c61174b565b93604051998a983060208b01610f1a565b03601f198101835282610c80565b6104d76107c394604051956104b36020820188610c80565b80875261197a60208801396104c6611003565b6002546001600160a01b03166118fc565b9361178b565b805160208201206001600160a01b03906104f9903090866118d3565b1692835f525f60205260ff60405f2054166106a957906105189161192f565b926001600160a01b03841692830361069a575f8381526020818152604091829020805460ff191660011790556002549151633c73911160e11b81529591869060049082906001600160a01b03165afa9485156102de576105b59560209284925f9261067b575b506040516355c759ed60e01b81526001600160a01b03918216600482015292166024830152909586919082905f9082906044820190565b03926001600160a01b03165af19384156102de5760209484915f9161064e575b507fdbc80e56de8f11ba4bcaab7b4d7dafb41edbd27f6dbd16f83a7b92efebed88c26001600160a01b036106076117cb565b169160018060a01b0316968794604051908152a46001600160a01b03169182810361063757602082604051908152f35b9050631a13f74960e11b5f5260045260245260445ffd5b61066e9150863d8811610674575b6106668183610c80565b810190611454565b866105d5565b503d61065c565b610693919250843d8611610674576106668183610c80565b908861057e565b6335279f5d60e21b5f5260045ffd5b8363d0dc594960e01b5f5260045260245ffd5b88631372e33d60e01b5f5260045260245ffd5b346103b45760403660031901126103b45761071e6004356106ee610c3a565b90610719610714825f525f5160206125cf5f395f51905f52602052600160405f20015490565b611091565b61133d565b005b346103b45760203660031901126103b457610739610c24565b6107416117cb565b6001600160a01b0381165f9081527fb7db2dd08fcb62d0c9e08c51941cae53c267786a0b75803fb7960902fc8ef97d602052604090205460ff16156107df57506001600160a01b031680156102e957600380546001600160a01b0319811683179091556001600160a01b03908116906107b86117cb565b167fe1f3806f643d2e258028ad292fef274cc5cd62ffcd3e4cb5052e0fe2f518317d5f80a4005b63e2517d3f60e01b5f5260018060a01b03166004525f60245260445ffd5b346103b457602061089f61085a61089261048d61081936610d1e565b96939294916108298187866113e6565b976108496108368a611431565b9361084385858b8a611473565b926115a7565b6108516116eb565b9161047c61174b565b61088c6107c3936040519461087188820187610c80565b80865261197a888701396002546001600160a01b03166118fc565b9261178b565b80519084012030916118d3565b6040516001600160a01b039091168152f35b346103b45760203660031901126103b4576001600160a01b036108d2610c24565b165f525f602052602060ff60405f2054166040519015158152f35b346103b4575f3660031901126103b45760206040515f8152f35b346103b45760203660031901126103b457602460206001600160a01b0361092c610c24565b6040516301ffc9a760e01b81526329a50b7560e21b600482015293849290918391165afa80156102de576020915f9161096b575b506040519015158152f35b6109829150823d84116102d7576102c98183610c80565b82610960565b346103b45760403660031901126103b4576109a1610c3a565b6004355f525f5160206125cf5f395f51905f5260205260405f209060018060a01b03165f52602052602060ff60405f2054166040519015158152f35b346103b4575f3660031901126103b4576040517f00000000000000000000000000000000000000000000000000000000000000006001600160a01b03168152602090f35b346103b45760203660031901126103b4576020610a3c610c24565b6040517f00000000000000000000000000000000000000000000000000000000000000006001600160a01b039081169216919091148152f35b346103b45760403660031901126103b457610a8e610c3a565b6001600160a01b03610a9e6117cb565b166001600160a01b03821603610aba5761071e9060043561133d565b63334bd91960e11b5f5260045ffd5b346103b4575f3660031901126103b4576003546040516001600160a01b039091168152602090f35b346103b45760403660031901126103b45761071e600435610b10610c3a565b90610b36610714825f525f5160206125cf5f395f51905f52602052600160405f20015490565b61128c565b346103b45760203660031901126103b4576020610b726004355f525f5160206125cf5f395f51905f52602052600160405f20015490565b604051908152f35b346103b45760203660031901126103b4576001600160a01b03610b9b610c24565b165f526001602052602060ff60405f2054166040519015158152f35b346103b45760203660031901126103b4576004359063ffffffff60e01b82168092036103b457602091634ea2ccdd60e01b8114908115610bf9575b5015158152f35b637965db0b60e01b811491508115610c13575b5083610bf2565b6301ffc9a760e01b14905083610c0c565b600435906001600160a01b03821682036103b457565b602435906001600160a01b03821682036103b457565b6040810190811067ffffffffffffffff821117610c6c57604052565b634e487b7160e01b5f52604160045260245ffd5b90601f8019910116810190811067ffffffffffffffff821117610c6c57604052565b92919267ffffffffffffffff8211610c6c5760405191610ccc601f8201601f191660200184610c80565b8294818452818301116103b4578281602093845f960137010152565b9080601f830112156103b457816020610d0393359101610ca2565b90565b67ffffffffffffffff8111610c6c5760051b60200190565b60a06003198201126103b45760043567ffffffffffffffff81116103b45781610d4991600401610ce8565b9160243567ffffffffffffffff81116103b45782610d6991600401610ce8565b9160443560ff811681036103b4579160643567ffffffffffffffff81116103b457826023820112156103b457806004013590610da482610d06565b91610db26040519384610c80565b8083526024602084019160051b830101918583116103b457602401905b828210610ece575050509160843567ffffffffffffffff81116103b457816023820112156103b457806004013590610e0682610d06565b92610e146040519485610c80565b8284526024602085019360051b830101918183116103b45760248101935b838510610e4157505050505090565b843567ffffffffffffffff81116103b457820190604082850360231901126103b45760405191610e7083610c50565b60248101356001600160a01b03811681036103b4578352604481013567ffffffffffffffff81116103b45760249101019084601f830112156103b457602092610ebf8684868096359101610ca2565b83820152815201940193610e32565b8135815260209182019101610dcf565b908160209103126103b4575180151581036103b45790565b805180835260209291819084018484015e5f828201840152601f01601f1916010190565b9698959399979492610f4960ff93610f579360018060a01b03168a5261012060208b01526101208a0190610ef6565b9088820360408a0152610ef6565b981660608601526001600160a01b0316608085015283870360a085015280518088526020600582901b8901810192810191905f908a015b828210610fbf57505050506001600160a01b0395861660c085015290851660e0840152931661010090910152909150565b90919293602080610ff56001938e601f199082030186526040838a51878060a01b03815116845201519181858201520190610ef6565b960192019201909291610f8e565b61100b6117cb565b6001600160a01b0381165f9081527f8f7e9a8734279607aeaac474f24949ddc99eae25c0da72edcf5ad21022be2c9e602052604090205460ff161561104d5750565b63e2517d3f60e01b5f9081526001600160a01b03919091166004527ffc425f2263d0df187444b70e47283d622c70181c5baebb1306a01edba1ce184c602452604490fd5b6110996117cb565b815f525f5160206125cf5f395f51905f5260205260405f2060018060a01b0382165f5260205260ff60405f205416156110d0575050565b63e2517d3f60e01b5f5260018060a01b031660045260245260445ffd5b6001600160a01b0381165f9081527fb7db2dd08fcb62d0c9e08c51941cae53c267786a0b75803fb7960902fc8ef97d602052604090205460ff166111aa576001600160a01b038181165f9081527fb7db2dd08fcb62d0c9e08c51941cae53c267786a0b75803fb7960902fc8ef97d60205260409020805460ff191660011790556111756117cb565b16906001600160a01b03165f7f2f8788117e7eff1d82e926ec794901d17c78024a50270940304540a733656f0d8180a4600190565b505f90565b6001600160a01b0381165f9081527f8f7e9a8734279607aeaac474f24949ddc99eae25c0da72edcf5ad21022be2c9e602052604090205460ff166111aa576001600160a01b038181165f9081527f8f7e9a8734279607aeaac474f24949ddc99eae25c0da72edcf5ad21022be2c9e60205260409020805460ff191660011790556112376117cb565b16906001600160a01b03167ffc425f2263d0df187444b70e47283d622c70181c5baebb1306a01edba1ce184c7f2f8788117e7eff1d82e926ec794901d17c78024a50270940304540a733656f0d5f80a4600190565b5f8181525f5160206125cf5f395f51905f52602090815260408083206001600160a01b038616845290915290205460ff16611337575f8181525f5160206125cf5f395f51905f52602090815260408083206001600160a01b0386811685529252909120805460ff191660011790556113026117cb565b16916001600160a01b0316907f2f8788117e7eff1d82e926ec794901d17c78024a50270940304540a733656f0d5f80a4600190565b50505f90565b5f8181525f5160206125cf5f395f51905f52602090815260408083206001600160a01b038616845290915290205460ff1615611337575f8181525f5160206125cf5f395f51905f52602090815260408083206001600160a01b0386811685529252909120805460ff191690556113b16117cb565b16916001600160a01b0316907ff6391f5c32d9c69d2a47ea670b442974b53935d1edc7fd64eb21e047a839171b5f80a4600190565b61140a9260ff61141c610d0394604051968795606060208801526080870190610ef6565b858103601f1901604087015290610ef6565b9116606083015203601f198101835282610c80565b611446610d03916114406117cb565b90611824565b6020815191012030916118d3565b908160209103126103b457516001600160a01b03811681036103b45790565b600254604051633c73911160e11b815293949190602090859060049082906001600160a01b03165afa9081156102de576114f0956020955f93611538575b506114de929360ff60405198899788968796637a3f5df760e11b8852608060048901526084880190610ef6565b86810360031901602488015290610ef6565b921660448401526001600160a01b03908116606484015291900392165afa9081156102de575f9161151f575090565b610d03915060203d602011610674576106668183610c80565b6114de935061155390873d8911610674576106668183610c80565b926114b1565b6040519061156682610c50565b60606020835f81520152565b80511561157f5760200190565b634e487b7160e01b5f52603260045260245ffd5b805182101561157f5760209160051b010190565b80516001810193929084106116a3576115bf84610d06565b936115cd6040519586610c80565b8085526115dc601f1991610d06565b015f5b8181106116d45750506115f0611559565b5060018060a01b0360045416906040519081604081019160208083015280518093526020606083019101925f5b8181106116bb575050611639925003601f198101835282610c80565b6040519161164683610c50565b8252602082015261165684611572565b5261166083611572565b505f5b81518110156116b7576116768183611593565b519060018101918282116116a3578261169c9161169560019589611593565b5286611593565b5001611663565b634e487b7160e01b5f52601160045260245ffd5b5050565b845183526020948501948694509092019160010161161d565b6020906116df611559565b828289010152016115df565b60025460405163d62def8f60e01b815290602090829060049082906001600160a01b03165afa9081156102de575f9161172c575b506001600160a01b031690565b611745915060203d602011610674576106668183610c80565b5f61171f565b6002546040516398468e5160e01b815290602090829060049082906001600160a01b03165afa9081156102de575f9161172c57506001600160a01b031690565b6117c9906020808095946040519684889551918291018487015e8401908282015f8152815193849201905e01015f815203601f198101845283610c80565b565b337f00000000000000000000000000000000000000000000000000000000000000006001600160a01b03161480611819575b156118155760131936013681116116a3573560601c90565b3390565b5060143610156117fd565b9190610d03906118b060018060a01b0360025416946040516118848161048d60208201948a86526060604084015260116080840152701058d8d95cdcd3585b9859d95c94d85b1d607a1b60a084015260a0606084015260c0830190610ef6565b519020604080516001600160a01b0397881660208201529390961695830195909552816060810161048d565b6040516104926118c36020820183610c80565b80825261213d602083013961178b565b91600b92604051926040840152602083015281520160ff8153605590206001600160a01b031690565b9061192961048d91604051928391602083019560018060a01b031686526040808401526060830190610ef6565b51902090565b9080511561196a576020815191015ff5903d15198215166102de576001600160a01b0382161561195b57565b63b06ebf3d60e01b5f5260045ffd5b631328927760e21b5f5260045ffdfe60806040526107c38038038091610015826100f1565b6080396101208160800191126100d95761002d61015a565b60a0516001600160401b0381116100d9578261004b916080016101d5565b60c0516001600160401b0381116100d95783610069916080016101d5565b61007360e06101f2565b61007e610100610170565b610120516001600160401b0381116100d9576100ca966100a091608001610200565b916100ac610140610170565b936100b8610160610170565b956100c4610180610170565b976103e9565b60405161017290816106318239f35b5f80fd5b634e487b7160e01b5f52604160045260245ffd5b6080601f91909101601f19168101906001600160401b0382119082101761011757604052565b6100dd565b604081019081106001600160401b0382111761011757604052565b601f909101601f19168101906001600160401b0382119082101761011757604052565b608051906001600160a01b03821682036100d957565b51906001600160a01b03821682036100d957565b6001600160401b03811161011757601f01601f191660200190565b9291926101ab82610184565b916101b96040519384610137565b8294818452818301116100d9578281602093845f96015e010152565b9080601f830112156100d95781516101ef9260200161019f565b90565b519060ff821682036100d957565b9080601f830112156100d9578151916001600160401b038311610117578260051b91604051936102336020850186610137565b8452602080850193830101918183116100d95760208101935b83851061025b57505050505090565b84516001600160401b0381116100d9578201906040828503601f1901126100d957604051916102898361011c565b61029560208201610170565b835260408101516001600160401b0381116100d95760209101019084601f830112156100d9576020926102ce868486809651910161019f565b8382015281520194019361024c565b805180835260209291819084018484015e5f828201840152601f01601f1916010190565b959897969493916103309061032260ff936101008a526101008a01906102dd565b9088820360208a01526102dd565b921660408601526001600160a01b03166060850152838103608085015281518082526020600582901b83018101938101925f918101905b8383106103a457505050506001600160a01b0396871660a085015250941660c08201526103a2919060e0906001600160a01b03909216910152565b565b90919293946020806103da600193601f198682030187526040838b51878060a01b038151168452015191818582015201906102dd565b97019301930191939290610367565b92959791969093949760018060a01b0384168015908115610492575b50610483576103a29861047e9661044b6104709660018060a01b031660018060a01b03195f5160206107a35f395f51905f525416175f5160206107a35f395f51905f5255565b610453610527565b986040519a8b986329a50b7560e21b60208b015260248a01610301565b03601f198101845283610137565b6105c3565b63fd360a1d60e01b5f5260045ffd5b6040516301ffc9a760e01b8152634ea2ccdd60e01b60048201529150602090829060249082905afa9081156104ff575f916104d0575b50155f610405565b6104f2915060203d6020116104f8575b6104ea8183610137565b810190610504565b5f6104c8565b503d6104e0565b61051c565b908160209103126100d9575180151581036100d95790565b6040513d5f823e3d90fd5b5f5160206107a35f395f51905f5254604051632f3a3d5d60e01b815290602090829060049082906001600160a01b03165afa9081156104ff575f91610589575b506001600160a01b0381161561057a5790565b63daa2f31f60e01b5f5260045ffd5b90506020813d6020116105bb575b816105a460209383610137565b810103126100d9576105b590610170565b5f610567565b3d9150610597565b6001600160a01b0381161561062157815f929160208493519201905af43d15610619573d906105f182610184565b916105ff6040519384610137565b82523d5f602084013e5b156106115750565b602081519101fd5b606090610609565b63ee0a129760e01b5f5260045ffdfe608060405236156100a8577f1515746737424785433e0dda020fe774d11e0fab6d980530d355fada133c3c705460209060809060049082906001600160a01b0316632f3a3d5d60e01b82525afa80156100a3575f90610076575b6001600160a01b03811661011f5763daa2f31f60e01b5f5260045ffd5b5060203d60201161009c575b8061008f610097926100b7565b6080016100ee565b610059565b503d610082565b610114565b635d82995b60e01b5f5260045ffd5b601f80199101166080016080811067ffffffffffffffff8211176100da57604052565b634e487b7160e01b5f52604160045260245ffd5b602090607f190112610110576080516001600160a01b03811681036101105790565b5f80fd5b6040513d5f823e3d90fd5b5f8091368280378136915af43d5f803e15610138573d5ff35b3d5ffdfea2646970667358221220a2e77f23be7d0eda1a0549008c102cccf4712b9c97dfec0a71c3bd26bcde7ce964736f6c634300081c00331515746737424785433e0dda020fe774d11e0fab6d980530d355fada133c3c70608060405234610171576040610492803803809161001c82610189565b608039126101715761002c6101d7565b61003660a06101ed565b906001600160a01b03811680159081156100ff575b506100f0577f4ec051ecf420fd16e0db567197da76ec7f1f5f47763970d604b97e75cb0064d380546001600160a01b0319166001600160a01b039290921691821790556100e1916100ce916100dc906100a390610224565b60405163189acdbd60e31b60208201526001600160a01b039093166024840152919283906044820190565b03601f1981018452836101b4565b6102b1565b604051610164908161032e8239f35b633f997a3760e01b5f5260045ffd5b6040516301ffc9a760e01b8152633d1b15b560e21b60048201529150602090829060249082905afa90811561016c575f9161013d575b50155f61004b565b61015f915060203d602011610165575b61015781836101b4565b810190610201565b5f610135565b503d61014d565b610219565b5f80fd5b634e487b7160e01b5f52604160045260245ffd5b6080601f91909101601f19168101906001600160401b038211908210176101af57604052565b610175565b601f909101601f19168101906001600160401b038211908210176101af57604052565b608051906001600160a01b038216820361017157565b51906001600160a01b038216820361017157565b90816020910312610171575180151581036101715790565b6040513d5f823e3d90fd5b6040516344eecc1760e01b815290602090829060049082906001600160a01b03165afa90811561016c575f91610277575b506001600160a01b038116156102685790565b63099d3e0360e21b5f5260045ffd5b90506020813d6020116102a9575b81610292602093836101b4565b81010312610171576102a3906101ed565b5f610255565b3d9150610285565b6001600160a01b0381161561031e57815f929160208493519201905af43d15610316573d906001600160401b0382116101af57604051916102fc601f8201601f1916602001846101b4565b82523d5f602084013e5b1561030e5750565b602081519101fd5b606090610306565b63ee0a129760e01b5f5260045ffdfe608060405236156100dc577f4ec051ecf420fd16e0db567197da76ec7f1f5f47763970d604b97e75cb0064d3546344eecc1760e01b608090815260209160049082906001600160a01b03165afa80156100d1575f90610076575b6001600160a01b0381166100eb5763099d3e0360e21b5f5260045ffd5b5060203d6020116100ca575b601f19601f820116608001906080821067ffffffffffffffff8311176100b6576100b191604052608001610108565b610059565b634e487b7160e01b5f52604160045260245ffd5b503d610082565b6040513d5f823e3d90fd5b635d82995b60e01b5f5260045ffd5b5f8091368280378136915af43d5f803e15610104573d5ff35b3d5ffd5b602090607f19011261012a576080516001600160a01b038116810361012a5790565b5f80fdfea26469706673582212200e42f5e6836131c0aaf35292b0c6b7e8498f6d6d7ea58c3c201a96446839d0db64736f6c634300081c003302dd7bc7dec4dceedda775e58dd541e08a116c6c53815c0bd028192f7b626800f0c57e16840df040f15088dc2f81fe391c3923bec73e23a9662efc9c229c6a00a264697066735822122021ded5087abccda5bc7ee909750b9bced426babdd03d4128c31775c86f9347e564736f6c634300081c0033f0c57e16840df040f15088dc2f81fe391c3923bec73e23a9662efc9c229c6a00",
  "linkReferences": {},
  "deployedLinkReferences": {}
}