{
  "_format": "hh-sol-artifact-1",
  "contractName": "ATKSystem",
  "sourceName": "contracts/system/ATKSystem.sol",
  "abi": [
    {
      "inputs": [
        {
          "internalType": "address",
          "name": "initialAdmin_",
          "type": "address"
        },
        {
          "internalType": "address",
          "name": "complianceImplementation_",
          "type": "address"
        },
        {
          "internalType": "address",
          "name": "identityRegistryImplementation_",
          "type": "address"
        },
        {
          "internalType": "address",
          "name": "identityRegistryStorageImplementation_",
          "type": "address"
        },
        {
          "internalType": "address",
          "name": "trustedIssuersRegistryImplementation_",
          "type": "address"
        },
        {
          "internalType": "address",
          "name": "topicSchemeRegistryImplementation_",
          "type": "address"
        },
        {
          "internalType": "address",
          "name": "identityFactoryImplementation_",
          "type": "address"
        },
        {
          "internalType": "address",
          "name": "identityImplementation_",
          "type": "address"
        },
        {
          "internalType": "address",
          "name": "tokenIdentityImplementation_",
          "type": "address"
        },
        {
          "internalType": "address",
          "name": "tokenAccessManagerImplementation_",
          "type": "address"
        },
        {
          "internalType": "address",
          "name": "identityVerificationModule_",
          "type": "address"
        },
        {
          "internalType": "address",
          "name": "forwarder_",
          "type": "address"
        }
      ],
      "stateMutability": "nonpayable",
      "type": "constructor"
    },
    {
      "inputs": [],
      "name": "AccessControlBadConfirmation",
      "type": "error"
    },
    {
      "inputs": [
        {
          "internalType": "address",
          "name": "account",
          "type": "address"
        },
        {
          "internalType": "bytes32",
          "name": "neededRole",
          "type": "bytes32"
        }
      ],
      "name": "AccessControlUnauthorizedAccount",
      "type": "error"
    },
    {
      "inputs": [],
      "name": "ComplianceImplementationNotSet",
      "type": "error"
    },
    {
      "inputs": [],
      "name": "IdentityFactoryImplementationNotSet",
      "type": "error"
    },
    {
      "inputs": [],
      "name": "IdentityImplementationNotSet",
      "type": "error"
    },
    {
      "inputs": [],
      "name": "IdentityRegistryImplementationNotSet",
      "type": "error"
    },
    {
      "inputs": [],
      "name": "IdentityRegistryStorageImplementationNotSet",
      "type": "error"
    },
    {
      "inputs": [],
      "name": "IdentityVerificationModuleNotSet",
      "type": "error"
    },
    {
      "inputs": [
        {
          "internalType": "address",
          "name": "implAddress",
          "type": "address"
        },
        {
          "internalType": "bytes4",
          "name": "interfaceId",
          "type": "bytes4"
        }
      ],
      "name": "InvalidImplementationInterface",
      "type": "error"
    },
    {
      "inputs": [],
      "name": "InvalidTokenFactoryAddress",
      "type": "error"
    },
    {
      "inputs": [],
      "name": "InvalidTokenImplementationAddress",
      "type": "error"
    },
    {
      "inputs": [],
      "name": "InvalidTokenImplementationInterface",
      "type": "error"
    },
    {
      "inputs": [],
      "name": "ReentrancyGuardReentrantCall",
      "type": "error"
    },
    {
      "inputs": [],
      "name": "SystemAlreadyBootstrapped",
      "type": "error"
    },
    {
      "inputs": [],
      "name": "TokenAccessManagerImplementationNotSet",
      "type": "error"
    },
    {
      "inputs": [
        {
          "internalType": "bytes32",
          "name": "registryTypeHash",
          "type": "bytes32"
        }
      ],
      "name": "TokenFactoryTypeAlreadyRegistered",
      "type": "error"
    },
    {
      "inputs": [],
      "name": "TokenIdentityImplementationNotSet",
      "type": "error"
    },
    {
      "inputs": [],
      "name": "TopicSchemeRegistryImplementationNotSet",
      "type": "error"
    },
    {
      "inputs": [],
      "name": "TrustedIssuersRegistryImplementationNotSet",
      "type": "error"
    },
    {
      "anonymous": false,
      "inputs": [
        {
          "indexed": true,
          "internalType": "address",
          "name": "sender",
          "type": "address"
        },
        {
          "indexed": true,
          "internalType": "address",
          "name": "complianceProxy",
          "type": "address"
        },
        {
          "indexed": true,
          "internalType": "address",
          "name": "identityRegistryProxy",
          "type": "address"
        },
        {
          "indexed": false,
          "internalType": "address",
          "name": "identityRegistryStorageProxy",
          "type": "address"
        },
        {
          "indexed": false,
          "internalType": "address",
          "name": "trustedIssuersRegistryProxy",
          "type": "address"
        },
        {
          "indexed": false,
          "internalType": "address",
          "name": "topicSchemeRegistryProxy",
          "type": "address"
        },
        {
          "indexed": false,
          "internalType": "address",
          "name": "identityFactoryProxy",
          "type": "address"
        },
        {
          "indexed": false,
          "internalType": "address",
          "name": "identityVerificationModule",
          "type": "address"
        }
      ],
      "name": "Bootstrapped",
      "type": "event"
    },
    {
      "anonymous": false,
      "inputs": [
        {
          "indexed": true,
          "internalType": "address",
          "name": "sender",
          "type": "address"
        },
        {
          "indexed": true,
          "internalType": "address",
          "name": "newImplementation",
          "type": "address"
        }
      ],
      "name": "ComplianceImplementationUpdated",
      "type": "event"
    },
    {
      "anonymous": false,
      "inputs": [
        {
          "indexed": true,
          "internalType": "address",
          "name": "sender",
          "type": "address"
        },
        {
          "indexed": true,
          "internalType": "address",
          "name": "newImplementation",
          "type": "address"
        }
      ],
      "name": "IdentityFactoryImplementationUpdated",
      "type": "event"
    },
    {
      "anonymous": false,
      "inputs": [
        {
          "indexed": true,
          "internalType": "address",
          "name": "sender",
          "type": "address"
        },
        {
          "indexed": true,
          "internalType": "address",
          "name": "newImplementation",
          "type": "address"
        }
      ],
      "name": "IdentityImplementationUpdated",
      "type": "event"
    },
    {
      "anonymous": false,
      "inputs": [
        {
          "indexed": true,
          "internalType": "address",
          "name": "sender",
          "type": "address"
        },
        {
          "indexed": true,
          "internalType": "address",
          "name": "newImplementation",
          "type": "address"
        }
      ],
      "name": "IdentityRegistryImplementationUpdated",
      "type": "event"
    },
    {
      "anonymous": false,
      "inputs": [
        {
          "indexed": true,
          "internalType": "address",
          "name": "sender",
          "type": "address"
        },
        {
          "indexed": true,
          "internalType": "address",
          "name": "newImplementation",
          "type": "address"
        }
      ],
      "name": "IdentityRegistryStorageImplementationUpdated",
      "type": "event"
    },
    {
      "anonymous": false,
      "inputs": [
        {
          "indexed": true,
          "internalType": "bytes32",
          "name": "role",
          "type": "bytes32"
        },
        {
          "indexed": true,
          "internalType": "bytes32",
          "name": "previousAdminRole",
          "type": "bytes32"
        },
        {
          "indexed": true,
          "internalType": "bytes32",
          "name": "newAdminRole",
          "type": "bytes32"
        }
      ],
      "name": "RoleAdminChanged",
      "type": "event"
    },
    {
      "anonymous": false,
      "inputs": [
        {
          "indexed": true,
          "internalType": "bytes32",
          "name": "role",
          "type": "bytes32"
        },
        {
          "indexed": true,
          "internalType": "address",
          "name": "account",
          "type": "address"
        },
        {
          "indexed": true,
          "internalType": "address",
          "name": "sender",
          "type": "address"
        }
      ],
      "name": "RoleGranted",
      "type": "event"
    },
    {
      "anonymous": false,
      "inputs": [
        {
          "indexed": true,
          "internalType": "bytes32",
          "name": "role",
          "type": "bytes32"
        },
        {
          "indexed": true,
          "internalType": "address",
          "name": "account",
          "type": "address"
        },
        {
          "indexed": true,
          "internalType": "address",
          "name": "sender",
          "type": "address"
        }
      ],
      "name": "RoleRevoked",
      "type": "event"
    },
    {
      "anonymous": false,
      "inputs": [
        {
          "indexed": true,
          "internalType": "address",
          "name": "sender",
          "type": "address"
        },
        {
          "indexed": true,
          "internalType": "address",
          "name": "newImplementation",
          "type": "address"
        }
      ],
      "name": "TokenAccessManagerImplementationUpdated",
      "type": "event"
    },
    {
      "anonymous": false,
      "inputs": [
        {
          "indexed": true,
          "internalType": "address",
          "name": "sender",
          "type": "address"
        },
        {
          "indexed": false,
          "internalType": "string",
          "name": "typeName",
          "type": "string"
        },
        {
          "indexed": false,
          "internalType": "address",
          "name": "proxyAddress",
          "type": "address"
        },
        {
          "indexed": false,
          "internalType": "address",
          "name": "implementationAddress",
          "type": "address"
        },
        {
          "indexed": false,
          "internalType": "uint256",
          "name": "timestamp",
          "type": "uint256"
        }
      ],
      "name": "TokenFactoryCreated",
      "type": "event"
    },
    {
      "anonymous": false,
      "inputs": [
        {
          "indexed": true,
          "internalType": "address",
          "name": "sender",
          "type": "address"
        },
        {
          "indexed": true,
          "internalType": "address",
          "name": "newImplementation",
          "type": "address"
        }
      ],
      "name": "TokenIdentityImplementationUpdated",
      "type": "event"
    },
    {
      "anonymous": false,
      "inputs": [
        {
          "indexed": true,
          "internalType": "address",
          "name": "sender",
          "type": "address"
        },
        {
          "indexed": true,
          "internalType": "address",
          "name": "newImplementation",
          "type": "address"
        }
      ],
      "name": "TopicSchemeRegistryImplementationUpdated",
      "type": "event"
    },
    {
      "anonymous": false,
      "inputs": [
        {
          "indexed": true,
          "internalType": "address",
          "name": "sender",
          "type": "address"
        },
        {
          "indexed": true,
          "internalType": "address",
          "name": "newImplementation",
          "type": "address"
        }
      ],
      "name": "TrustedIssuersRegistryImplementationUpdated",
      "type": "event"
    },
    {
      "inputs": [],
      "name": "DEFAULT_ADMIN_ROLE",
      "outputs": [
        {
          "internalType": "bytes32",
          "name": "",
          "type": "bytes32"
        }
      ],
      "stateMutability": "view",
      "type": "function"
    },
    {
      "inputs": [],
      "name": "bootstrap",
      "outputs": [],
      "stateMutability": "nonpayable",
      "type": "function"
    },
    {
      "inputs": [],
      "name": "complianceImplementation",
      "outputs": [
        {
          "internalType": "address",
          "name": "",
          "type": "address"
        }
      ],
      "stateMutability": "view",
      "type": "function"
    },
    {
      "inputs": [],
      "name": "complianceProxy",
      "outputs": [
        {
          "internalType": "address",
          "name": "",
          "type": "address"
        }
      ],
      "stateMutability": "view",
      "type": "function"
    },
    {
      "inputs": [
        {
          "internalType": "string",
          "name": "_typeName",
          "type": "string"
        },
        {
          "internalType": "address",
          "name": "_factoryImplementation",
          "type": "address"
        },
        {
          "internalType": "address",
          "name": "_tokenImplementation",
          "type": "address"
        }
      ],
      "name": "createTokenFactory",
      "outputs": [
        {
          "internalType": "address",
          "name": "",
          "type": "address"
        }
      ],
      "stateMutability": "nonpayable",
      "type": "function"
    },
    {
      "inputs": [
        {
          "internalType": "bytes32",
          "name": "role",
          "type": "bytes32"
        }
      ],
      "name": "getRoleAdmin",
      "outputs": [
        {
          "internalType": "bytes32",
          "name": "",
          "type": "bytes32"
        }
      ],
      "stateMutability": "view",
      "type": "function"
    },
    {
      "inputs": [
        {
          "internalType": "bytes32",
          "name": "role",
          "type": "bytes32"
        },
        {
          "internalType": "address",
          "name": "account",
          "type": "address"
        }
      ],
      "name": "grantRole",
      "outputs": [],
      "stateMutability": "nonpayable",
      "type": "function"
    },
    {
      "inputs": [
        {
          "internalType": "bytes32",
          "name": "role",
          "type": "bytes32"
        },
        {
          "internalType": "address",
          "name": "account",
          "type": "address"
        }
      ],
      "name": "hasRole",
      "outputs": [
        {
          "internalType": "bool",
          "name": "",
          "type": "bool"
        }
      ],
      "stateMutability": "view",
      "type": "function"
    },
    {
      "inputs": [],
      "name": "identityFactoryImplementation",
      "outputs": [
        {
          "internalType": "address",
          "name": "",
          "type": "address"
        }
      ],
      "stateMutability": "view",
      "type": "function"
    },
    {
      "inputs": [],
      "name": "identityFactoryProxy",
      "outputs": [
        {
          "internalType": "address",
          "name": "",
          "type": "address"
        }
      ],
      "stateMutability": "view",
      "type": "function"
    },
    {
      "inputs": [],
      "name": "identityImplementation",
      "outputs": [
        {
          "internalType": "address",
          "name": "",
          "type": "address"
        }
      ],
      "stateMutability": "view",
      "type": "function"
    },
    {
      "inputs": [],
      "name": "identityRegistryImplementation",
      "outputs": [
        {
          "internalType": "address",
          "name": "",
          "type": "address"
        }
      ],
      "stateMutability": "view",
      "type": "function"
    },
    {
      "inputs": [],
      "name": "identityRegistryProxy",
      "outputs": [
        {
          "internalType": "address",
          "name": "",
          "type": "address"
        }
      ],
      "stateMutability": "view",
      "type": "function"
    },
    {
      "inputs": [],
      "name": "identityRegistryStorageImplementation",
      "outputs": [
        {
          "internalType": "address",
          "name": "",
          "type": "address"
        }
      ],
      "stateMutability": "view",
      "type": "function"
    },
    {
      "inputs": [],
      "name": "identityRegistryStorageProxy",
      "outputs": [
        {
          "internalType": "address",
          "name": "",
          "type": "address"
        }
      ],
      "stateMutability": "view",
      "type": "function"
    },
    {
      "inputs": [],
      "name": "identityVerificationModule",
      "outputs": [
        {
          "internalType": "address",
          "name": "",
          "type": "address"
        }
      ],
      "stateMutability": "view",
      "type": "function"
    },
    {
      "inputs": [
        {
          "internalType": "address",
          "name": "forwarder",
          "type": "address"
        }
      ],
      "name": "isTrustedForwarder",
      "outputs": [
        {
          "internalType": "bool",
          "name": "",
          "type": "bool"
        }
      ],
      "stateMutability": "view",
      "type": "function"
    },
    {
      "inputs": [
        {
          "internalType": "bytes32",
          "name": "role",
          "type": "bytes32"
        },
        {
          "internalType": "address",
          "name": "callerConfirmation",
          "type": "address"
        }
      ],
      "name": "renounceRole",
      "outputs": [],
      "stateMutability": "nonpayable",
      "type": "function"
    },
    {
      "inputs": [
        {
          "internalType": "bytes32",
          "name": "role",
          "type": "bytes32"
        },
        {
          "internalType": "address",
          "name": "account",
          "type": "address"
        }
      ],
      "name": "revokeRole",
      "outputs": [],
      "stateMutability": "nonpayable",
      "type": "function"
    },
    {
      "inputs": [
        {
          "internalType": "address",
          "name": "implementation",
          "type": "address"
        }
      ],
      "name": "setComplianceImplementation",
      "outputs": [],
      "stateMutability": "nonpayable",
      "type": "function"
    },
    {
      "inputs": [
        {
          "internalType": "address",
          "name": "implementation",
          "type": "address"
        }
      ],
      "name": "setIdentityFactoryImplementation",
      "outputs": [],
      "stateMutability": "nonpayable",
      "type": "function"
    },
    {
      "inputs": [
        {
          "internalType": "address",
          "name": "implementation",
          "type": "address"
        }
      ],
      "name": "setIdentityImplementation",
      "outputs": [],
      "stateMutability": "nonpayable",
      "type": "function"
    },
    {
      "inputs": [
        {
          "internalType": "address",
          "name": "implementation",
          "type": "address"
        }
      ],
      "name": "setIdentityRegistryImplementation",
      "outputs": [],
      "stateMutability": "nonpayable",
      "type": "function"
    },
    {
      "inputs": [
        {
          "internalType": "address",
          "name": "implementation",
          "type": "address"
        }
      ],
      "name": "setIdentityRegistryStorageImplementation",
      "outputs": [],
      "stateMutability": "nonpayable",
      "type": "function"
    },
    {
      "inputs": [
        {
          "internalType": "address",
          "name": "implementation",
          "type": "address"
        }
      ],
      "name": "setTokenAccessManagerImplementation",
      "outputs": [],
      "stateMutability": "nonpayable",
      "type": "function"
    },
    {
      "inputs": [
        {
          "internalType": "address",
          "name": "implementation",
          "type": "address"
        }
      ],
      "name": "setTokenIdentityImplementation",
      "outputs": [],
      "stateMutability": "nonpayable",
      "type": "function"
    },
    {
      "inputs": [
        {
          "internalType": "address",
          "name": "implementation",
          "type": "address"
        }
      ],
      "name": "setTopicSchemeRegistryImplementation",
      "outputs": [],
      "stateMutability": "nonpayable",
      "type": "function"
    },
    {
      "inputs": [
        {
          "internalType": "address",
          "name": "implementation",
          "type": "address"
        }
      ],
      "name": "setTrustedIssuersRegistryImplementation",
      "outputs": [],
      "stateMutability": "nonpayable",
      "type": "function"
    },
    {
      "inputs": [
        {
          "internalType": "bytes4",
          "name": "interfaceId",
          "type": "bytes4"
        }
      ],
      "name": "supportsInterface",
      "outputs": [
        {
          "internalType": "bool",
          "name": "",
          "type": "bool"
        }
      ],
      "stateMutability": "view",
      "type": "function"
    },
    {
      "inputs": [],
      "name": "tokenAccessManagerImplementation",
      "outputs": [
        {
          "internalType": "address",
          "name": "",
          "type": "address"
        }
      ],
      "stateMutability": "view",
      "type": "function"
    },
    {
      "inputs": [
        {
          "internalType": "bytes32",
          "name": "factoryTypeHash",
          "type": "bytes32"
        }
      ],
      "name": "tokenFactoryImplementation",
      "outputs": [
        {
          "internalType": "address",
          "name": "",
          "type": "address"
        }
      ],
      "stateMutability": "view",
      "type": "function"
    },
    {
      "inputs": [
        {
          "internalType": "bytes32",
          "name": "factoryTypeHash",
          "type": "bytes32"
        }
      ],
      "name": "tokenFactoryProxy",
      "outputs": [
        {
          "internalType": "address",
          "name": "",
          "type": "address"
        }
      ],
      "stateMutability": "view",
      "type": "function"
    },
    {
      "inputs": [],
      "name": "tokenIdentityImplementation",
      "outputs": [
        {
          "internalType": "address",
          "name": "",
          "type": "address"
        }
      ],
      "stateMutability": "view",
      "type": "function"
    },
    {
      "inputs": [],
      "name": "topicSchemeRegistryImplementation",
      "outputs": [
        {
          "internalType": "address",
          "name": "",
          "type": "address"
        }
      ],
      "stateMutability": "view",
      "type": "function"
    },
    {
      "inputs": [],
      "name": "topicSchemeRegistryProxy",
      "outputs": [
        {
          "internalType": "address",
          "name": "",
          "type": "address"
        }
      ],
      "stateMutability": "view",
      "type": "function"
    },
    {
      "inputs": [],
      "name": "trustedForwarder",
      "outputs": [
        {
          "internalType": "address",
          "name": "",
          "type": "address"
        }
      ],
      "stateMutability": "view",
      "type": "function"
    },
    {
      "inputs": [],
      "name": "trustedIssuersRegistryImplementation",
      "outputs": [
        {
          "internalType": "address",
          "name": "",
          "type": "address"
        }
      ],
      "stateMutability": "view",
      "type": "function"
    },
    {
      "inputs": [],
      "name": "trustedIssuersRegistryProxy",
      "outputs": [
        {
          "internalType": "address",
          "name": "",
          "type": "address"
        }
      ],
      "stateMutability": "view",
      "type": "function"
    }
  ],
  "bytecode": "0x60a0806040523461049657610180816150818038038091610020828561049a565b83398101031261049657610033816104d1565b90610040602082016104d1565b9161004d604083016104d1565b9061005a606084016104d1565b90610067608085016104d1565b61007360a086016104d1565b61007f60c087016104d1565b9161008c60e088016104d1565b9461009a61010089016104d1565b966100a86101208a016104d1565b956100c36101606100bc6101408d016104d1565b9b016104d1565b608052600180556100d3816104e5565b506001600160a01b038b169a8b15610487576100ee90610581565b600280546001600160a01b0319168c1790556001600160a01b0316998a7f18ea1177da83ebf23520cb37420841e05033121576c404e09f73db10fea6ac785f80a36001600160a01b0381169081156104785761014990610643565b600480546001600160a01b03191682179055897fe8ad049e0ad7908009ae0f7f4364595fd1a499488f22fa486d8542dcc57af4135f80a36001600160a01b0381169081156104695761019a90610702565b600680546001600160a01b03191682179055887f81275737702fb4f879c5b1b3ef8d4de980fdb3a2b4462ad24fe8c7832e7d0f475f80a36001600160a01b03811690811561045a576101eb906107c1565b600880546001600160a01b03191682179055877fd48b61a9f91ca2b642303e47ebca68d50d9187468daa2268cdd4ec792ade18045f80a36001600160a01b03811690811561044b5761023c90610880565b600a80546001600160a01b03191682179055867fce8fc7b69fcc1eda934571831e15bb10f95dddbb09559b28ad712d618f6ca0a95f80a36001600160a01b03811690811561043c5761028d9061093f565b600c80546001600160a01b03191682179055857f4bcec9d20bb800258ed241271d77077db5d50a6f76f12140c122c883deef79955f80a36001600160a01b03811690811561042d576102de906109fe565b600e80546001600160a01b03191682179055847f4bd715e9ad4344031fe5194dd335709e8af5fc028d2d990a192615beb3ef11fa5f80a36001600160a01b03811690811561041e5761032f90610abd565b600f80546001600160a01b03191682179055837fefea9f2b39bb4f73b0a1080278a75714ae7d6def44739e209eebe2085b9b62b35f80a36001600160a01b03811690811561040f5761038090610abd565b601080546001600160a01b03191682179055604051927f96cb65f899c3cf9ec267a022e255746ae585ae6e1bd3fb01601032dbcc58e3835f80a36001600160a01b0316801561040057601180546001600160a01b0319169190911790556144959081610bcc8239608051818181611304015281816114d601526121fc0152f35b633ac2d12960e21b5f5260045ffd5b63e26a8ec760e01b5f5260045ffd5b632384fcc160e11b5f5260045ffd5b63099d3e0360e21b5f5260045ffd5b6305b4e73960e51b5f5260045ffd5b6342f4ff8d60e11b5f5260045ffd5b630273e4dd60e41b5f5260045ffd5b63d6cd3aeb60e01b5f5260045ffd5b6397a22d9360e01b5f5260045ffd5b63ee30f64f60e01b5f5260045ffd5b5f80fd5b601f909101601f19168101906001600160401b038211908210176104bd57604052565b634e487b7160e01b5f52604160045260245ffd5b51906001600160a01b038216820361049657565b6001600160a01b0381165f9081525f5160206150615f395f51905f52602052604090205460ff1661057c576001600160a01b038181165f9081525f5160206150615f395f51905f5260205260409020805460ff19166001179055610547610b7c565b16906001600160a01b03165f7f2f8788117e7eff1d82e926ec794901d17c78024a50270940304540a733656f0d8180a4600190565b505f90565b6001600160a01b03168015610640576040516301ffc9a760e01b8152637d84485d60e01b6004820152602081602481855afa5f9181610603575b506105de57506327224edf60e01b5f52600452637d84485d60e01b60245260445ffd5b156105e65750565b6327224edf60e01b5f52600452637d84485d60e01b60245260445ffd5b9091506020813d602011610638575b8161061f6020938361049a565b810103126104965751801515810361049657905f6105bb565b3d9150610612565b50565b6001600160a01b03168015610640576040516301ffc9a760e01b8152630277b84b60e11b6004820152602081602481855afa5f91816106c5575b506106a057506327224edf60e01b5f52600452630277b84b60e11b60245260445ffd5b156106a85750565b6327224edf60e01b5f52600452630277b84b60e11b60245260445ffd5b9091506020813d6020116106fa575b816106e16020938361049a565b810103126104965751801515810361049657905f61067d565b3d91506106d4565b6001600160a01b03168015610640576040516301ffc9a760e01b815263c08590db60e01b6004820152602081602481855afa5f9181610784575b5061075f57506327224edf60e01b5f5260045263c08590db60e01b60245260445ffd5b156107675750565b6327224edf60e01b5f5260045263c08590db60e01b60245260445ffd5b9091506020813d6020116107b9575b816107a06020938361049a565b810103126104965751801515810361049657905f61073c565b3d9150610793565b6001600160a01b03168015610640576040516301ffc9a760e01b815263161eee7760e31b6004820152602081602481855afa5f9181610843575b5061081e57506327224edf60e01b5f5260045263161eee7760e31b60245260445ffd5b156108265750565b6327224edf60e01b5f5260045263161eee7760e31b60245260445ffd5b9091506020813d602011610878575b8161085f6020938361049a565b810103126104965751801515810361049657905f6107fb565b3d9150610852565b6001600160a01b03168015610640576040516301ffc9a760e01b8152631526bf3960e11b6004820152602081602481855afa5f9181610902575b506108dd57506327224edf60e01b5f52600452631526bf3960e11b60245260445ffd5b156108e55750565b6327224edf60e01b5f52600452631526bf3960e11b60245260445ffd5b9091506020813d602011610937575b8161091e6020938361049a565b810103126104965751801515810361049657905f6108ba565b3d9150610911565b6001600160a01b03168015610640576040516301ffc9a760e01b815263034e9be160e01b6004820152602081602481855afa5f91816109c1575b5061099c57506327224edf60e01b5f5260045263034e9be160e01b60245260445ffd5b156109a45750565b6327224edf60e01b5f5260045263034e9be160e01b60245260445ffd5b9091506020813d6020116109f6575b816109dd6020938361049a565b810103126104965751801515810361049657905f610979565b3d91506109d0565b6001600160a01b03168015610640576040516301ffc9a760e01b8152631983557360e21b6004820152602081602481855afa5f9181610a80575b50610a5b57506327224edf60e01b5f52600452631983557360e21b60245260445ffd5b15610a635750565b6327224edf60e01b5f52600452631983557360e21b60245260445ffd5b9091506020813d602011610ab5575b81610a9c6020938361049a565b810103126104965751801515810361049657905f610a38565b3d9150610a8f565b6001600160a01b03168015610640576040516301ffc9a760e01b815263604b4d3760e11b6004820152602081602481855afa5f9181610b3f575b50610b1a57506327224edf60e01b5f5260045263604b4d3760e11b60245260445ffd5b15610b225750565b6327224edf60e01b5f5260045263604b4d3760e11b60245260445ffd5b9091506020813d602011610b74575b81610b5b6020938361049a565b810103126104965751801515810361049657905f610af7565b3d9150610b4e565b6080516001600160a01b0316331480610bc0575b15610bbc576013193601368111610ba8573560601c90565b634e487b7160e01b5f52601160045260245ffd5b3390565b506014361015610b9056fe6080806040526004361015610012575f80fd5b5f905f3560e01c90816301ffc9a71461186257508063139aca991461183057806316e227781461179d5780631cece55f1461176b578063248a9ca3146117395780632f2ff15d146116fc57806336568abe146116a857806339b14cdf146116805780633cdbceda1461165857806344eecc17146116305780634543741c1461159d578063457779a21461150a578063572b6c05146114b6578063588aa3061461148e57806363f3d320146113fb5780636d7203cb146113d35780636dbe06f5146113ab57806372b3f57e1461138357806378e722221461135b5780637d6b252e146113335780637da0a877146112ef5780638214faf81461125c578063917fc6291461123457806391d14854146111ec57806398468e51146111c45780639f3b39b114611131578063a10cddc01461109e578063a18dd9ea14611076578063a217fddf1461105c578063c2deb16b14610fc9578063c8b5d91114610fa1578063d23f197814610f0e578063d547741f14610eca578063d62def8f14610ea2578063d907c45614610e7a578063e277d07d14610aaa578063e32d4b6714610a815763fb969b0a146101c0575f80fd5b346108ca57806003193601126108ca576101d861219f565b6101e0611a06565b6003546001600160a01b031615801590610a6d575b8015610a59575b8015610a45575b8015610a31575b8015610a1d575b610a0e576002546001600160a01b0316156109ff576004546001600160a01b0316156109f0576006546001600160a01b0316156109e1576008546001600160a01b0316156109d257600a546001600160a01b0316156109c357600c546001600160a01b0316156109b4576102836121f9565b906040516102926060826118fb565b600281526020810160403682376102a882611935565b6001600160a01b0385169052306102be83611956565b52604051916105468084019084821067ffffffffffffffff83111761095d578493929160609161275b863960408101923082526040602083015251809352019190855b81811061099257505050039082f080156109855760405161048b8082019082821067ffffffffffffffff8311176109715785839261035792612ca185393081526001600160a01b03909116602082015260400190565b039083f080156108cd5760018060a01b03166040516104928082019082821067ffffffffffffffff83111761095d578683926103ab9261312c85393081526001600160a01b03909116602082015260400190565b039084f080156108f55760018060a01b03166040516105538082019082821067ffffffffffffffff831117610949578783926103ff926135be85393081526001600160a01b03909116602082015260400190565b039085f0801561093e5760018060a01b0316926040516104c48082019082821067ffffffffffffffff83111761092a578685878b869561046e95613b1188393081526001600160a01b039182166020820152918116604083015291821660608201529116608082015260a00190565b039086f0801561091f5760018060a01b03169160405161048b8082019082821067ffffffffffffffff83111761090b57889983926104c492613fd585393081526001600160a01b03909116602082015260400190565b039087f091821561090057600380546001600160a01b03199081166001600160a01b03938416179091556007805482168717905560098054821693909317909255600b805483168717905560058054831685179055600d80549092169216919091179055813b156108d857839160248392604051948593849263690a49f960e01b845260048401525af19081156108f55783916108dd575b50506105666121bf565b6040516105746040826118fb565b60038152626b796360e81b602082015261058d82611935565b5261059781611935565b506040516105a66040826118fb565b6003815262185b5b60ea1b60208201526105bf82611956565b526105c981611956565b506040516105d86040826118fb565b600a81526918dbdb1b185d195c985b60b21b60208201526105f882611966565b5261060281611966565b506040516106116040826118fb565b600481526334b9b4b760e11b602082015261062b82611976565b5261063581611976565b506040516106446040826118fb565b601381527230b9b9b2ba21b630b9b9b4b334b1b0ba34b7b760691b602082015261066d82611986565b5261067781611986565b506106806121bf565b60405161068e6040826118fb565b600c81526b737472696e6720636c61696d60a01b60208201526106b082611935565b526106ba81611935565b506040516106c96040826118fb565b600c81526b737472696e6720636c61696d60a01b60208201526106eb82611956565b526106f581611956565b506040516107046060826118fb565b602781527f75696e7432353620616d6f756e742c2075696e7432353620657870697279546960208201526606d657374616d760cc1b604082015261074782611966565b5261075181611966565b506040516107606040826118fb565b600b81526a39ba3934b7339034b9b4b760a91b602082015261078182611976565b5261078b81611976565b5060405161079a6040826118fb565b601d81527f737472696e6720636c6173732c20737472696e672063617465676f727900000060208201526107cd82611986565b526107d781611986565b50823b156108d8576108209261080e85809460405196879586948593630b0501d360e31b8552604060048601526044850190611996565b83810360031901602485015290611996565b03925af180156108cd576108b5575b506108386121f9565b600354600554600754600954600b54600d54601154604080516001600160a01b0396871681529486166020860152928516928401929092528316606083015282166080820152918116939281169216907f7a0ba7a03e47f134ef41839f5428a76ccddaa010aa247abc3e1adf2910da5fce9060a090a46001805580f35b816108bf916118fb565b6108ca57805f61082f565b80fd5b6040513d84823e3d90fd5b505050fd5b816108e7916118fb565b6108f257815f61055c565b50fd5b6040513d85823e3d90fd5b6040513d88823e3d90fd5b634e487b7160e01b89526041600452602489fd5b6040513d87823e3d90fd5b634e487b7160e01b88526041600452602488fd5b6040513d86823e3d90fd5b634e487b7160e01b87526041600452602487fd5b634e487b7160e01b86526041600452602486fd5b634e487b7160e01b85526041600452602485fd5b50604051903d90823e3d90fd5b82516001600160a01b0316845285945060209384019390920191600101610301565b6305b4e73960e51b8152600490fd5b6342f4ff8d60e11b8152600490fd5b630273e4dd60e41b8152600490fd5b63d6cd3aeb60e01b8152600490fd5b6397a22d9360e01b8152600490fd5b63ee30f64f60e01b8152600490fd5b633300a86160e21b8152600490fd5b50600d546001600160a01b03161515610211565b50600b546001600160a01b0316151561020a565b506009546001600160a01b03161515610203565b506007546001600160a01b031615156101fc565b506005546001600160a01b031615156101f5565b50346108ca57806003193601126108ca57600c546040516001600160a01b039091168152602090f35b5034610df3576060366003190112610df35760043567ffffffffffffffff8111610df35736602382011215610df357806004013567ffffffffffffffff8111610df35760248201916024823692010111610df357610b066118e5565b6044356001600160a01b038116939190849003610df357610b2561219f565b610b2d611a06565b6001600160a01b038116908115610e6b57610b4790611fda565b8315610e5c57604051634ca843ef60e11b815260048101859052602081602481855afa908115610de8575f91610e2d575b5015610e1e57604051602081019084848337610ba76020828781015f838201520301601f1981018352826118fb565b5190205f818152601260205260409020549094906001600160a01b0316610e0b575f85815260126020526040902080546001600160a01b03191683179055610bed6121f9565b60018060a01b0360115416604051926104f4918285019185831067ffffffffffffffff841117610df75760a09486946122678639308452600180871b03166020840152896040840152606083015260808201520301905ff08015610de8575f9485526013602052604090942080546001600160a01b0319166001600160a01b03958616908117909155600d54909416803b15610df3575f8091604460405180948193632f2ff15d60e01b83527f7c42e8dffc95f75177e883ddc14f7ed7caa053d3f0d4e84d6b7f0b0033223dcb60048401528a60248401525af18015610de857610dd3575b5060035485906001600160a01b0316803b15610dcf578190604460405180948193632f2ff15d60e01b83527f536d8a764484a4771b422b2847373c9937c1c6ef07c27fa736a22782b350cf4d60048401528a60248401525af1801561090057610db6575b5060a07f4a7be928fdfa064570084c330f921ec65782af420e3591e3d8b83b39db8d2191926020968593610d686121f9565b91604051958694608086528160808701528686013783880185015288830188905260408301524260608301525f196001841b011694601f01601f19168101030190a260018055604051908152f35b610dc18680926118fb565b610dcb575f610d36565b8480fd5b5080fd5b610de09195505f906118fb565b5f935f610cd2565b6040513d5f823e3d90fd5b5f80fd5b634e487b7160e01b5f52604160045260245ffd5b8463089e159d60e01b5f5260045260245ffd5b634da1d31f60e01b5f5260045ffd5b610e4f915060203d602011610e55575b610e4781836118fb565b81019061191d565b5f610b78565b503d610e3d565b6320a86f3d60e11b5f5260045ffd5b63fd360a1d60e01b5f5260045ffd5b34610df3575f366003190112610df3576009546040516001600160a01b039091168152602090f35b34610df3575f366003190112610df3576005546040516001600160a01b039091168152602090f35b34610df3576040366003190112610df357610f0c600435610ee96118e5565b90610f07610f02825f525f602052600160405f20015490565b611a6e565b612112565b005b34610df3576020366003190112610df357610f276118cf565b610f2f611a06565b6001600160a01b038116908115610f9257610f4990611f37565b600a80546001600160a01b031916821790556001600160a01b03610f6b6121f9565b167fce8fc7b69fcc1eda934571831e15bb10f95dddbb09559b28ad712d618f6ca0a95f80a3005b6342f4ff8d60e11b5f5260045ffd5b34610df3575f366003190112610df3576011546040516001600160a01b039091168152602090f35b34610df3576020366003190112610df357610fe26118cf565b610fea611a06565b6001600160a01b03811690811561104d5761100490611e94565b600880546001600160a01b031916821790556001600160a01b036110266121f9565b167fd48b61a9f91ca2b642303e47ebca68d50d9187468daa2268cdd4ec792ade18045f80a3005b630273e4dd60e41b5f5260045ffd5b34610df3575f366003190112610df35760206040515f8152f35b34610df3575f366003190112610df3576004546040516001600160a01b039091168152602090f35b34610df3576020366003190112610df3576110b76118cf565b6110bf611a06565b6001600160a01b038116908115611122576110d990611abf565b601080546001600160a01b031916821790556001600160a01b036110fb6121f9565b167f96cb65f899c3cf9ec267a022e255746ae585ae6e1bd3fb01601032dbcc58e3835f80a3005b63e26a8ec760e01b5f5260045ffd5b34610df3576020366003190112610df35761114a6118cf565b611152611a06565b6001600160a01b0381169081156111b55761116c90611df1565b600c80546001600160a01b031916821790556001600160a01b0361118e6121f9565b167f4bcec9d20bb800258ed241271d77077db5d50a6f76f12140c122c883deef79955f80a3005b6305b4e73960e51b5f5260045ffd5b34610df3575f366003190112610df3576003546040516001600160a01b039091168152602090f35b34610df3576040366003190112610df3576112056118e5565b6004355f525f60205260405f209060018060a01b03165f52602052602060ff60405f2054166040519015158152f35b34610df3575f366003190112610df3576002546040516001600160a01b039091168152602090f35b34610df3576020366003190112610df3576112756118cf565b61127d611a06565b6001600160a01b0381169081156112e05761129790611d4e565b600e80546001600160a01b031916821790556001600160a01b036112b96121f9565b167f4bd715e9ad4344031fe5194dd335709e8af5fc028d2d990a192615beb3ef11fa5f80a3005b63099d3e0360e21b5f5260045ffd5b34610df3575f366003190112610df3576040517f00000000000000000000000000000000000000000000000000000000000000006001600160a01b03168152602090f35b34610df3575f366003190112610df357600b546040516001600160a01b039091168152602090f35b34610df3575f366003190112610df357600d546040516001600160a01b039091168152602090f35b34610df3575f366003190112610df3576007546040516001600160a01b039091168152602090f35b34610df3575f366003190112610df3576006546040516001600160a01b039091168152602090f35b34610df3575f366003190112610df357600f546040516001600160a01b039091168152602090f35b34610df3576020366003190112610df3576114146118cf565b61141c611a06565b6001600160a01b03811690811561147f5761143690611cab565b600480546001600160a01b031916821790556001600160a01b036114586121f9565b167fe8ad049e0ad7908009ae0f7f4364595fd1a499488f22fa486d8542dcc57af4135f80a3005b6397a22d9360e01b5f5260045ffd5b34610df3575f366003190112610df357600a546040516001600160a01b039091168152602090f35b34610df3576020366003190112610df35760206114d16118cf565b6040517f00000000000000000000000000000000000000000000000000000000000000006001600160a01b039081169216919091148152f35b34610df3576020366003190112610df3576115236118cf565b61152b611a06565b6001600160a01b03811690811561158e5761154590611c08565b600280546001600160a01b031916821790556001600160a01b036115676121f9565b167f18ea1177da83ebf23520cb37420841e05033121576c404e09f73db10fea6ac785f80a3005b63ee30f64f60e01b5f5260045ffd5b34610df3576020366003190112610df3576115b66118cf565b6115be611a06565b6001600160a01b038116908115611621576115d890611b65565b600680546001600160a01b031916821790556001600160a01b036115fa6121f9565b167f81275737702fb4f879c5b1b3ef8d4de980fdb3a2b4462ad24fe8c7832e7d0f475f80a3005b63d6cd3aeb60e01b5f5260045ffd5b34610df3575f366003190112610df357600e546040516001600160a01b039091168152602090f35b34610df3575f366003190112610df3576010546040516001600160a01b039091168152602090f35b34610df3575f366003190112610df3576008546040516001600160a01b039091168152602090f35b34610df3576040366003190112610df3576116c16118e5565b6001600160a01b036116d16121f9565b166001600160a01b038216036116ed57610f0c90600435612112565b63334bd91960e11b5f5260045ffd5b34610df3576040366003190112610df357610f0c60043561171b6118e5565b90611734610f02825f525f602052600160405f20015490565b61207d565b34610df3576020366003190112610df35760206117636004355f525f602052600160405f20015490565b604051908152f35b34610df3576020366003190112610df3576004355f526012602052602060018060a01b0360405f205416604051908152f35b34610df3576020366003190112610df3576117b66118cf565b6117be611a06565b6001600160a01b038116908115611821576117d890611abf565b600f80546001600160a01b031916821790556001600160a01b036117fa6121f9565b167fefea9f2b39bb4f73b0a1080278a75714ae7d6def44739e209eebe2085b9b62b35f80a3005b632384fcc160e11b5f5260045ffd5b34610df3576020366003190112610df3576004355f526013602052602060018060a01b0360405f205416604051908152f35b34610df3576020366003190112610df3576004359063ffffffff60e01b8216809203610df357602091633d1b15b560e21b81149081156118a4575b5015158152f35b637965db0b60e01b8114915081156118be575b508361189d565b6301ffc9a760e01b149050836118b7565b600435906001600160a01b0382168203610df357565b602435906001600160a01b0382168203610df357565b90601f8019910116810190811067ffffffffffffffff821117610df757604052565b90816020910312610df357518015158103610df35790565b8051156119425760200190565b634e487b7160e01b5f52603260045260245ffd5b8051600110156119425760400190565b8051600210156119425760600190565b8051600310156119425760800190565b8051600410156119425760a00190565b9080602083519182815201916020808360051b8301019401925f915b8383106119c157505050505090565b909192939460208080600193601f19868203018752818a518051918291828552018484015e5f828201840152601f01601f1916010197019594919091019201906119b2565b611a0e6121f9565b6001600160a01b0381165f9081527fad3228b676f7d3cd4284a5443f17f1962b36e491b30a40b2405849e597ba5fb5602052604090205460ff1615611a505750565b63e2517d3f60e01b5f5260018060a01b03166004525f60245260445ffd5b611a766121f9565b5f828152602081815260408083206001600160a01b038516845290915290205460ff1615611aa2575050565b63e2517d3f60e01b5f5260018060a01b031660045260245260445ffd5b6001600160a01b03168015611b62576040516301ffc9a760e01b815263604b4d3760e11b6004820152602081602481855afa5f9181611b41575b50611b1c57506327224edf60e01b5f5260045263604b4d3760e11b60245260445ffd5b15611b245750565b6327224edf60e01b5f5260045263604b4d3760e11b60245260445ffd5b611b5b91925060203d602011610e5557610e4781836118fb565b905f611af9565b50565b6001600160a01b03168015611b62576040516301ffc9a760e01b815263c08590db60e01b6004820152602081602481855afa5f9181611be7575b50611bc257506327224edf60e01b5f5260045263c08590db60e01b60245260445ffd5b15611bca5750565b6327224edf60e01b5f5260045263c08590db60e01b60245260445ffd5b611c0191925060203d602011610e5557610e4781836118fb565b905f611b9f565b6001600160a01b03168015611b62576040516301ffc9a760e01b8152637d84485d60e01b6004820152602081602481855afa5f9181611c8a575b50611c6557506327224edf60e01b5f52600452637d84485d60e01b60245260445ffd5b15611c6d5750565b6327224edf60e01b5f52600452637d84485d60e01b60245260445ffd5b611ca491925060203d602011610e5557610e4781836118fb565b905f611c42565b6001600160a01b03168015611b62576040516301ffc9a760e01b8152630277b84b60e11b6004820152602081602481855afa5f9181611d2d575b50611d0857506327224edf60e01b5f52600452630277b84b60e11b60245260445ffd5b15611d105750565b6327224edf60e01b5f52600452630277b84b60e11b60245260445ffd5b611d4791925060203d602011610e5557610e4781836118fb565b905f611ce5565b6001600160a01b03168015611b62576040516301ffc9a760e01b8152631983557360e21b6004820152602081602481855afa5f9181611dd0575b50611dab57506327224edf60e01b5f52600452631983557360e21b60245260445ffd5b15611db35750565b6327224edf60e01b5f52600452631983557360e21b60245260445ffd5b611dea91925060203d602011610e5557610e4781836118fb565b905f611d88565b6001600160a01b03168015611b62576040516301ffc9a760e01b815263034e9be160e01b6004820152602081602481855afa5f9181611e73575b50611e4e57506327224edf60e01b5f5260045263034e9be160e01b60245260445ffd5b15611e565750565b6327224edf60e01b5f5260045263034e9be160e01b60245260445ffd5b611e8d91925060203d602011610e5557610e4781836118fb565b905f611e2b565b6001600160a01b03168015611b62576040516301ffc9a760e01b815263161eee7760e31b6004820152602081602481855afa5f9181611f16575b50611ef157506327224edf60e01b5f5260045263161eee7760e31b60245260445ffd5b15611ef95750565b6327224edf60e01b5f5260045263161eee7760e31b60245260445ffd5b611f3091925060203d602011610e5557610e4781836118fb565b905f611ece565b6001600160a01b03168015611b62576040516301ffc9a760e01b8152631526bf3960e11b6004820152602081602481855afa5f9181611fb9575b50611f9457506327224edf60e01b5f52600452631526bf3960e11b60245260445ffd5b15611f9c5750565b6327224edf60e01b5f52600452631526bf3960e11b60245260445ffd5b611fd391925060203d602011610e5557610e4781836118fb565b905f611f71565b6001600160a01b03168015611b62576040516301ffc9a760e01b8152634ea2ccdd60e01b6004820152602081602481855afa5f918161205c575b5061203757506327224edf60e01b5f52600452634ea2ccdd60e01b60245260445ffd5b1561203f5750565b6327224edf60e01b5f52600452634ea2ccdd60e01b60245260445ffd5b61207691925060203d602011610e5557610e4781836118fb565b905f612014565b5f818152602081815260408083206001600160a01b038616845290915290205460ff1661210c575f818152602081815260408083206001600160a01b0386811685529252909120805460ff191660011790556120d76121f9565b16916001600160a01b0316907f2f8788117e7eff1d82e926ec794901d17c78024a50270940304540a733656f0d5f80a4600190565b50505f90565b5f818152602081815260408083206001600160a01b038616845290915290205460ff161561210c575f818152602081815260408083206001600160a01b0386811685529252909120805460ff1916905561216a6121f9565b16916001600160a01b0316907ff6391f5c32d9c69d2a47ea670b442974b53935d1edc7fd64eb21e047a839171b5f80a4600190565b6002600154146121b0576002600155565b633ee5aeb560e01b5f5260045ffd5b60405160c091906121d083826118fb565b6005815291601f1901825f5b8281106121e857505050565b8060606020809385010152016121dc565b337f00000000000000000000000000000000000000000000000000000000000000006001600160a01b0316148061225b575b15612257576013193601368111612243573560601c90565b634e487b7160e01b5f52601160045260245ffd5b3390565b50601436101561222b56fe608060405260a06104f4803803809161001782610273565b6080391261025b576100276102c1565b61003160a06102d7565b60c0519061003f60e06102d7565b61004a6101006102d7565b6001600160a01b038516801580156101f3575b6101e4575f5160206104d45f395f51905f5280546001600160a01b0319166001600160a01b039092169190911790556100b4847f17947bca0d2c81fdff72d848cf07e6794554f6987d19e262fbc8ebfe6c58aef455565b5f5160206104d45f395f51905f52546100e3906100d7906001600160a01b031681565b6001600160a01b031690565b604051631cece55f60e01b8152600481018690529490602090869060249082905afa9485156101df575f956101ae575b506001600160a01b0385161561019c57604051637c643b2f60e11b602082019081526001600160a01b03888116602484015285811660448401528681166064840152841660848084019190915282525f918291889161017360a48261029e565b51915af461017f610325565b90156101945760405161017090816103648239f35b602081519101fd5b630cc8ce1560e11b5f5260045260245ffd5b6101d191955060203d6020116101d8575b6101c9818361029e565b81019061030e565b935f610113565b503d6101bf565b610303565b633f997a3760e01b5f5260045ffd5b506040516301ffc9a760e01b8152633d1b15b560e21b6004820152602081602481855afa9081156101df575f9161022c575b501561005d565b61024e915060203d602011610254575b610246818361029e565b8101906102eb565b5f610225565b503d61023c565b5f80fd5b634e487b7160e01b5f52604160045260245ffd5b6080601f91909101601f19168101906001600160401b0382119082101761029957604052565b61025f565b601f909101601f19168101906001600160401b0382119082101761029957604052565b608051906001600160a01b038216820361025b57565b51906001600160a01b038216820361025b57565b9081602091031261025b5751801515810361025b5790565b6040513d5f823e3d90fd5b9081602091031261025b57610322906102d7565b90565b3d1561035e573d906001600160401b0382116102995760405191610353601f8201601f19166020018461029e565b82523d5f602084013e565b60609056fe608060405236156100b1576020608060248160018060a01b037fe8884080cc51c5c292bf466c34183fc7b6d97a0de789d28a4fa18c91a467e8f354167f17947bca0d2c81fdff72d848cf07e6794554f6987d19e262fbc8ebfe6c58aef454631cece55f60e01b83526084525afa80156100a6575f901561011d575060203d60201161009f575b8061009261009a926100c0565b6080016100f7565b61011d565b503d610085565b6040513d5f823e3d90fd5b635d82995b60e01b5f5260045ffd5b601f80199101166080016080811067ffffffffffffffff8211176100e357604052565b634e487b7160e01b5f52604160045260245ffd5b602090607f190112610119576080516001600160a01b03811681036101195790565b5f80fd5b5f8091368280378136915af43d5f803e15610136573d5ff35b3d5ffdfea2646970667358221220b0ef5120b2d54024fc5b00a88ee9b9298a944ad5c7e015ae5712ac8418b439cc64736f6c634300081c0033e8884080cc51c5c292bf466c34183fc7b6d97a0de789d28a4fa18c91a467e8f36080604052346100c957610546803803809161001a826100e1565b60803960408160800191126100c95761003161012a565b60a05191906001600160401b0383116100c95781609f840112156100c9576080830151916001600160401b0383116100cd578260051b93604051936100796020870186610107565b845260a060208501958201019182116100c95760a001935b8185106100b1576100a28484610196565b60405161016490816103e28239f35b602080916100be87610140565b815201940193610091565b5f80fd5b634e487b7160e01b5f52604160045260245ffd5b6080601f91909101601f19168101906001600160401b038211908210176100cd57604052565b601f909101601f19168101906001600160401b038211908210176100cd57604052565b608051906001600160a01b03821682036100c957565b51906001600160a01b03821682036100c957565b60206040818301928281528451809452019201905f5b8181106101775750505090565b82516001600160a01b031684526020938401939092019160010161016a565b6001600160a01b0381168015908115610243575b50610234577f4ec051ecf420fd16e0db567197da76ec7f1f5f47763970d604b97e75cb0064d380546001600160a01b0319166001600160a01b039290921691821790556102329161021f9161022d90610202906102d8565b9160405193849163a224cee760e01b602084015260248301610154565b03601f198101845283610107565b610365565b565b633f997a3760e01b5f5260045ffd5b6040516301ffc9a760e01b8152633d1b15b560e21b60048201529150602090829060249082905afa9081156102b0575f91610281575b50155f6101aa565b6102a3915060203d6020116102a9575b61029b8183610107565b8101906102b5565b5f610279565b503d610291565b6102cd565b908160209103126100c9575180151581036100c95790565b6040513d5f823e3d90fd5b60405163917fc62960e01b815290602090829060049082906001600160a01b03165afa9081156102b0575f9161032b575b506001600160a01b0381161561031c5790565b63ee30f64f60e01b5f5260045ffd5b90506020813d60201161035d575b8161034660209383610107565b810103126100c95761035790610140565b5f610309565b3d9150610339565b6001600160a01b038116156103d257815f929160208493519201905af43d156103ca573d906001600160401b0382116100cd57604051916103b0601f8201601f191660200184610107565b82523d5f602084013e5b156103c25750565b602081519101fd5b6060906103ba565b63ee0a129760e01b5f5260045ffdfe608060405236156100dc577f4ec051ecf420fd16e0db567197da76ec7f1f5f47763970d604b97e75cb0064d35463917fc62960e01b608090815260209160049082906001600160a01b03165afa80156100d1575f90610076575b6001600160a01b0381166100eb5763ee30f64f60e01b5f5260045ffd5b5060203d6020116100ca575b601f19601f820116608001906080821067ffffffffffffffff8311176100b6576100b191604052608001610108565b610059565b634e487b7160e01b5f52604160045260245ffd5b503d610082565b6040513d5f823e3d90fd5b635d82995b60e01b5f5260045ffd5b5f8091368280378136915af43d5f803e15610104573d5ff35b3d5ffd5b602090607f19011261012a576080516001600160a01b038116810361012a5790565b5f80fdfea2646970667358221220880a0d55566f4e8240e3205e30eef09c990f884a8765cba2f3aa6c474fd8151964736f6c634300081c003360806040523461016a57604061048b803803809161001c82610182565b6080391261016a5761002c6101d0565b61003660a06101e6565b6001600160a01b03821680159081156100f8575b506100e9577f4ec051ecf420fd16e0db567197da76ec7f1f5f47763970d604b97e75cb0064d380546001600160a01b0319166001600160a01b0384169081179091556100da92906100d59061009e9061021d565b60405163485cc95560e01b60208201526001600160a01b0393841660248201529390921660448085019190915283526064836101ad565b6102aa565b60405161016490816103278239f35b633f997a3760e01b5f5260045ffd5b6040516301ffc9a760e01b8152633d1b15b560e21b60048201529150602090829060249082905afa908115610165575f91610136575b50155f61004a565b610158915060203d60201161015e575b61015081836101ad565b8101906101fa565b5f61012e565b503d610146565b610212565b5f80fd5b634e487b7160e01b5f52604160045260245ffd5b6080601f91909101601f19168101906001600160401b038211908210176101a857604052565b61016e565b601f909101601f19168101906001600160401b038211908210176101a857604052565b608051906001600160a01b038216820361016a57565b51906001600160a01b038216820361016a57565b9081602091031261016a5751801515810361016a5790565b6040513d5f823e3d90fd5b604051636dbe06f560e01b815290602090829060049082906001600160a01b03165afa908115610165575f91610270575b506001600160a01b038116156102615790565b63d6cd3aeb60e01b5f5260045ffd5b90506020813d6020116102a2575b8161028b602093836101ad565b8101031261016a5761029c906101e6565b5f61024e565b3d915061027e565b6001600160a01b0381161561031757815f929160208493519201905af43d1561030f573d906001600160401b0382116101a857604051916102f5601f8201601f1916602001846101ad565b82523d5f602084013e5b156103075750565b602081519101fd5b6060906102ff565b63ee0a129760e01b5f5260045ffdfe608060405236156100dc577f4ec051ecf420fd16e0db567197da76ec7f1f5f47763970d604b97e75cb0064d354636dbe06f560e01b608090815260209160049082906001600160a01b03165afa80156100d1575f90610076575b6001600160a01b0381166100eb5763d6cd3aeb60e01b5f5260045ffd5b5060203d6020116100ca575b601f19601f820116608001906080821067ffffffffffffffff8311176100b6576100b191604052608001610108565b610059565b634e487b7160e01b5f52604160045260245ffd5b503d610082565b6040513d5f823e3d90fd5b635d82995b60e01b5f5260045ffd5b5f8091368280378136915af43d5f803e15610104573d5ff35b3d5ffd5b602090607f19011261012a576080516001600160a01b038116810361012a5790565b5f80fdfea2646970667358221220de0dcc9d9de93a65c353fe366082c0b061091c238dd1d13503bc43bd57f66a0564736f6c634300081c0033608060405234610171576040610492803803809161001c82610189565b608039126101715761002c6101d7565b61003660a06101ed565b906001600160a01b03811680159081156100ff575b506100f0577f4ec051ecf420fd16e0db567197da76ec7f1f5f47763970d604b97e75cb0064d380546001600160a01b0319166001600160a01b039290921691821790556100e1916100ce916100dc906100a390610224565b60405163189acdbd60e31b60208201526001600160a01b039093166024840152919283906044820190565b03601f1981018452836101b4565b6102b1565b604051610164908161032e8239f35b633f997a3760e01b5f5260045ffd5b6040516301ffc9a760e01b8152633d1b15b560e21b60048201529150602090829060249082905afa90811561016c575f9161013d575b50155f61004b565b61015f915060203d602011610165575b61015781836101b4565b810190610201565b5f610135565b503d61014d565b610219565b5f80fd5b634e487b7160e01b5f52604160045260245ffd5b6080601f91909101601f19168101906001600160401b038211908210176101af57604052565b610175565b601f909101601f19168101906001600160401b038211908210176101af57604052565b608051906001600160a01b038216820361017157565b51906001600160a01b038216820361017157565b90816020910312610171575180151581036101715790565b6040513d5f823e3d90fd5b6040516339b14cdf60e01b815290602090829060049082906001600160a01b03165afa90811561016c575f91610277575b506001600160a01b038116156102685790565b630273e4dd60e41b5f5260045ffd5b90506020813d6020116102a9575b81610292602093836101b4565b81010312610171576102a3906101ed565b5f610255565b3d9150610285565b6001600160a01b0381161561031e57815f929160208493519201905af43d15610316573d906001600160401b0382116101af57604051916102fc601f8201601f1916602001846101b4565b82523d5f602084013e5b1561030e5750565b602081519101fd5b606090610306565b63ee0a129760e01b5f5260045ffdfe608060405236156100dc577f4ec051ecf420fd16e0db567197da76ec7f1f5f47763970d604b97e75cb0064d3546339b14cdf60e01b608090815260209160049082906001600160a01b03165afa80156100d1575f90610076575b6001600160a01b0381166100eb57630273e4dd60e41b5f5260045ffd5b5060203d6020116100ca575b601f19601f820116608001906080821067ffffffffffffffff8311176100b6576100b191604052608001610108565b610059565b634e487b7160e01b5f52604160045260245ffd5b503d610082565b6040513d5f823e3d90fd5b635d82995b60e01b5f5260045ffd5b5f8091368280378136915af43d5f803e15610104573d5ff35b3d5ffd5b602090607f19011261012a576080516001600160a01b038116810361012a5790565b5f80fdfea264697066735822122030f1f9fb5b667154efa68852a7cc13cfcf314c258165a5dbc79a7ce991021ec764736f6c634300081c0033608060405260406105538038038091610017826101a6565b6080391261018e576100276101f4565b61003160a061020a565b906001600160a01b038116801590811561011c575b5061010d577f4ec051ecf420fd16e0db567197da76ec7f1f5f47763970d604b97e75cb0064d380546001600160a01b0319166001600160a01b0383169081179091556100fe92906100f99061009a906102e5565b916100cc6100a661021e565b946100c3836100b488610240565b6001600160a01b039091169052565b6100b486610261565b6100eb60405194859263251b648160e21b602085015260248401610271565b03601f1981018452836101d1565b610372565b60405161016490816103ef8239f35b633f997a3760e01b5f5260045ffd5b6040516301ffc9a760e01b8152633d1b15b560e21b60048201529150602090829060249082905afa908115610189575f9161015a575b50155f610046565b61017c915060203d602011610182575b61017481836101d1565b8101906102c2565b5f610152565b503d61016a565b6102da565b5f80fd5b634e487b7160e01b5f52604160045260245ffd5b6080601f91909101601f19168101906001600160401b038211908210176101cc57604052565b610192565b601f909101601f19168101906001600160401b038211908210176101cc57604052565b608051906001600160a01b038216820361018e57565b51906001600160a01b038216820361018e57565b6040516060919061022f83826101d1565b6002815291601f1901366020840137565b80511561024d5760200190565b634e487b7160e01b5f52603260045260245ffd5b80516001101561024d5760400190565b6060602091604081019360018060a01b031681526040838201528451809452019201905f5b8181106102a35750505090565b82516001600160a01b0316845260209384019390920191600101610296565b9081602091031261018e5751801515810361018e5790565b6040513d5f823e3d90fd5b604051632c45518360e11b815290602090829060049082906001600160a01b03165afa908115610189575f91610338575b506001600160a01b038116156103295790565b6342f4ff8d60e11b5f5260045ffd5b90506020813d60201161036a575b81610353602093836101d1565b8101031261018e576103649061020a565b5f610316565b3d9150610346565b6001600160a01b038116156103df57815f929160208493519201905af43d156103d7573d906001600160401b0382116101cc57604051916103bd601f8201601f1916602001846101d1565b82523d5f602084013e5b156103cf5750565b602081519101fd5b6060906103c7565b63ee0a129760e01b5f5260045ffdfe608060405236156100dc577f4ec051ecf420fd16e0db567197da76ec7f1f5f47763970d604b97e75cb0064d354632c45518360e11b608090815260209160049082906001600160a01b03165afa80156100d1575f90610076575b6001600160a01b0381166100eb576342f4ff8d60e11b5f5260045ffd5b5060203d6020116100ca575b601f19601f820116608001906080821067ffffffffffffffff8311176100b6576100b191604052608001610108565b610059565b634e487b7160e01b5f52604160045260245ffd5b503d610082565b6040513d5f823e3d90fd5b635d82995b60e01b5f5260045ffd5b5f8091368280378136915af43d5f803e15610104573d5ff35b3d5ffd5b602090607f19011261012a576080516001600160a01b038116810361012a5790565b5f80fdfea26469706673582212206224833a6c188523d321717125d58058777e16937e324a4523d716565660248f64736f6c634300081c0033608060405260a06104c48038038091610017826101bb565b608039126101a357610027610209565b61003160a061021f565b61003b60c061021f565b9061004660e061021f565b9061005261010061021f565b906001600160a01b0385168015908115610131575b50610122577f4ec051ecf420fd16e0db567197da76ec7f1f5f47763970d604b97e75cb0064d380546001600160a01b0319166001600160a01b039690961695861790556101139461010e92610100916100bf90610256565b604051637c643b2f60e11b60208201526001600160a01b039485166024820152968416604488015294831660648701529091166084850152839060a4820190565b03601f1981018452836101e6565b6102e3565b60405161016490816103608239f35b633f997a3760e01b5f5260045ffd5b6040516301ffc9a760e01b8152633d1b15b560e21b60048201529150602090829060249082905afa90811561019e575f9161016f575b50155f610067565b610191915060203d602011610197575b61018981836101e6565b810190610233565b5f610167565b503d61017f565b61024b565b5f80fd5b634e487b7160e01b5f52604160045260245ffd5b6080601f91909101601f19168101906001600160401b038211908210176101e157604052565b6101a7565b601f909101601f19168101906001600160401b038211908210176101e157604052565b608051906001600160a01b03821682036101a357565b51906001600160a01b03821682036101a357565b908160209103126101a3575180151581036101a35790565b6040513d5f823e3d90fd5b6040516350c6ecf560e11b815290602090829060049082906001600160a01b03165afa90811561019e575f916102a9575b506001600160a01b0381161561029a5790565b6397a22d9360e01b5f5260045ffd5b90506020813d6020116102db575b816102c4602093836101e6565b810103126101a3576102d59061021f565b5f610287565b3d91506102b7565b6001600160a01b0381161561035057815f929160208493519201905af43d15610348573d906001600160401b0382116101e1576040519161032e601f8201601f1916602001846101e6565b82523d5f602084013e5b156103405750565b602081519101fd5b606090610338565b63ee0a129760e01b5f5260045ffdfe608060405236156100dc577f4ec051ecf420fd16e0db567197da76ec7f1f5f47763970d604b97e75cb0064d3546350c6ecf560e11b608090815260209160049082906001600160a01b03165afa80156100d1575f90610076575b6001600160a01b0381166100eb576397a22d9360e01b5f5260045ffd5b5060203d6020116100ca575b601f19601f820116608001906080821067ffffffffffffffff8311176100b6576100b191604052608001610108565b610059565b634e487b7160e01b5f52604160045260245ffd5b503d610082565b6040513d5f823e3d90fd5b635d82995b60e01b5f5260045ffd5b5f8091368280378136915af43d5f803e15610104573d5ff35b3d5ffd5b602090607f19011261012a576080516001600160a01b038116810361012a5790565b5f80fdfea26469706673582212204623c6574b3e5b0a25f098b2dfb8cdff952eba50434dcffdaa3f83c63048c25f64736f6c634300081c003360806040523461016a57604061048b803803809161001c82610182565b6080391261016a5761002c6101d0565b61003660a06101e6565b6001600160a01b03821680159081156100f8575b506100e9577f4ec051ecf420fd16e0db567197da76ec7f1f5f47763970d604b97e75cb0064d380546001600160a01b0319166001600160a01b0384169081179091556100da92906100d59061009e9061021d565b60405163485cc95560e01b60208201526001600160a01b0393841660248201529390921660448085019190915283526064836101ad565b6102aa565b60405161016490816103278239f35b633f997a3760e01b5f5260045ffd5b6040516301ffc9a760e01b8152633d1b15b560e21b60048201529150602090829060249082905afa908115610165575f91610136575b50155f61004a565b610158915060203d60201161015e575b61015081836101ad565b8101906101fa565b5f61012e565b503d610146565b610212565b5f80fd5b634e487b7160e01b5f52604160045260245ffd5b6080601f91909101601f19168101906001600160401b038211908210176101a857604052565b61016e565b601f909101601f19168101906001600160401b038211908210176101a857604052565b608051906001600160a01b038216820361016a57565b51906001600160a01b038216820361016a57565b9081602091031261016a5751801515810361016a5790565b6040513d5f823e3d90fd5b60405163e32d4b6760e01b815290602090829060049082906001600160a01b03165afa908115610165575f91610270575b506001600160a01b038116156102615790565b6305b4e73960e51b5f5260045ffd5b90506020813d6020116102a2575b8161028b602093836101ad565b8101031261016a5761029c906101e6565b5f61024e565b3d915061027e565b6001600160a01b0381161561031757815f929160208493519201905af43d1561030f573d906001600160401b0382116101a857604051916102f5601f8201601f1916602001846101ad565b82523d5f602084013e5b156103075750565b602081519101fd5b6060906102ff565b63ee0a129760e01b5f5260045ffdfe608060405236156100dc577f4ec051ecf420fd16e0db567197da76ec7f1f5f47763970d604b97e75cb0064d35463e32d4b6760e01b608090815260209160049082906001600160a01b03165afa80156100d1575f90610076575b6001600160a01b0381166100eb576305b4e73960e51b5f5260045ffd5b5060203d6020116100ca575b601f19601f820116608001906080821067ffffffffffffffff8311176100b6576100b191604052608001610108565b610059565b634e487b7160e01b5f52604160045260245ffd5b503d610082565b6040513d5f823e3d90fd5b635d82995b60e01b5f5260045ffd5b5f8091368280378136915af43d5f803e15610104573d5ff35b3d5ffd5b602090607f19011261012a576080516001600160a01b038116810361012a5790565b5f80fdfea26469706673582212202c1f3084a8052618822f0612d11c8013893c6f13c6a3aca73972575bcc81036c64736f6c634300081c0033a2646970667358221220372585a734f070f7b3444ef02bd2484fbca2a7ffafeae53b2f6e09983ce2f6fd64736f6c634300081c0033ad3228b676f7d3cd4284a5443f17f1962b36e491b30a40b2405849e597ba5fb5",
  "linkReferences": {},
  "deployedLinkReferences": {}
}