{
  "_format": "hh-sol-artifact-1",
  "contractName": "ATKStableCoinFactoryImplementation",
  "sourceName": "contracts/assets/stable-coin/ATKStableCoinFactoryImplementation.sol",
  "abi": [
    {
      "inputs": [
        {
          "internalType": "address",
          "name": "forwarder",
          "type": "address"
        }
      ],
      "stateMutability": "nonpayable",
      "type": "constructor"
    },
    {
      "inputs": [],
      "name": "AccessControlBadConfirmation",
      "type": "error"
    },
    {
      "inputs": [
        {
          "internalType": "address",
          "name": "account",
          "type": "address"
        },
        {
          "internalType": "bytes32",
          "name": "neededRole",
          "type": "bytes32"
        }
      ],
      "name": "AccessControlUnauthorizedAccount",
      "type": "error"
    },
    {
      "inputs": [
        {
          "internalType": "address",
          "name": "predictedAddress",
          "type": "address"
        }
      ],
      "name": "AccessManagerAlreadyDeployed",
      "type": "error"
    },
    {
      "inputs": [
        {
          "internalType": "address",
          "name": "predictedAddress",
          "type": "address"
        }
      ],
      "name": "AddressAlreadyDeployed",
      "type": "error"
    },
    {
      "inputs": [],
      "name": "Create2EmptyBytecode",
      "type": "error"
    },
    {
      "inputs": [],
      "name": "FailedDeployment",
      "type": "error"
    },
    {
      "inputs": [
        {
          "internalType": "uint256",
          "name": "balance",
          "type": "uint256"
        },
        {
          "internalType": "uint256",
          "name": "needed",
          "type": "uint256"
        }
      ],
      "name": "InsufficientBalance",
      "type": "error"
    },
    {
      "inputs": [],
      "name": "InvalidIdentityVerificationModuleAddress",
      "type": "error"
    },
    {
      "inputs": [],
      "name": "InvalidImplementationAddress",
      "type": "error"
    },
    {
      "inputs": [],
      "name": "InvalidInitialization",
      "type": "error"
    },
    {
      "inputs": [],
      "name": "InvalidTokenAddress",
      "type": "error"
    },
    {
      "inputs": [],
      "name": "NotInitializing",
      "type": "error"
    },
    {
      "inputs": [],
      "name": "ProxyCreationFailed",
      "type": "error"
    },
    {
      "inputs": [
        {
          "internalType": "address",
          "name": "deployedTokenIdentityAddress",
          "type": "address"
        },
        {
          "internalType": "address",
          "name": "tokenIdentityAddress",
          "type": "address"
        }
      ],
      "name": "TokenIdentityAddressMismatch",
      "type": "error"
    },
    {
      "anonymous": false,
      "inputs": [
        {
          "indexed": false,
          "internalType": "uint64",
          "name": "version",
          "type": "uint64"
        }
      ],
      "name": "Initialized",
      "type": "event"
    },
    {
      "anonymous": false,
      "inputs": [
        {
          "indexed": true,
          "internalType": "bytes32",
          "name": "role",
          "type": "bytes32"
        },
        {
          "indexed": true,
          "internalType": "bytes32",
          "name": "previousAdminRole",
          "type": "bytes32"
        },
        {
          "indexed": true,
          "internalType": "bytes32",
          "name": "newAdminRole",
          "type": "bytes32"
        }
      ],
      "name": "RoleAdminChanged",
      "type": "event"
    },
    {
      "anonymous": false,
      "inputs": [
        {
          "indexed": true,
          "internalType": "bytes32",
          "name": "role",
          "type": "bytes32"
        },
        {
          "indexed": true,
          "internalType": "address",
          "name": "account",
          "type": "address"
        },
        {
          "indexed": true,
          "internalType": "address",
          "name": "sender",
          "type": "address"
        }
      ],
      "name": "RoleGranted",
      "type": "event"
    },
    {
      "anonymous": false,
      "inputs": [
        {
          "indexed": true,
          "internalType": "bytes32",
          "name": "role",
          "type": "bytes32"
        },
        {
          "indexed": true,
          "internalType": "address",
          "name": "account",
          "type": "address"
        },
        {
          "indexed": true,
          "internalType": "address",
          "name": "sender",
          "type": "address"
        }
      ],
      "name": "RoleRevoked",
      "type": "event"
    },
    {
      "anonymous": false,
      "inputs": [
        {
          "indexed": true,
          "internalType": "address",
          "name": "sender",
          "type": "address"
        },
        {
          "indexed": true,
          "internalType": "address",
          "name": "tokenAddress",
          "type": "address"
        },
        {
          "indexed": true,
          "internalType": "address",
          "name": "tokenIdentity",
          "type": "address"
        },
        {
          "indexed": false,
          "internalType": "address",
          "name": "accessManager",
          "type": "address"
        }
      ],
      "name": "TokenAssetCreated",
      "type": "event"
    },
    {
      "anonymous": false,
      "inputs": [
        {
          "indexed": true,
          "internalType": "address",
          "name": "sender",
          "type": "address"
        },
        {
          "indexed": true,
          "internalType": "address",
          "name": "oldImplementation",
          "type": "address"
        },
        {
          "indexed": true,
          "internalType": "address",
          "name": "newImplementation",
          "type": "address"
        }
      ],
      "name": "TokenImplementationUpdated",
      "type": "event"
    },
    {
      "inputs": [],
      "name": "DEFAULT_ADMIN_ROLE",
      "outputs": [
        {
          "internalType": "bytes32",
          "name": "",
          "type": "bytes32"
        }
      ],
      "stateMutability": "view",
      "type": "function"
    },
    {
      "inputs": [
        {
          "internalType": "string",
          "name": "name_",
          "type": "string"
        },
        {
          "internalType": "string",
          "name": "symbol_",
          "type": "string"
        },
        {
          "internalType": "uint8",
          "name": "decimals_",
          "type": "uint8"
        },
        {
          "internalType": "uint256[]",
          "name": "requiredClaimTopics_",
          "type": "uint256[]"
        },
        {
          "components": [
            {
              "internalType": "address",
              "name": "module",
              "type": "address"
            },
            {
              "internalType": "bytes",
              "name": "params",
              "type": "bytes"
            }
          ],
          "internalType": "struct SMARTComplianceModuleParamPair[]",
          "name": "initialModulePairs_",
          "type": "tuple[]"
        }
      ],
      "name": "createStableCoin",
      "outputs": [
        {
          "internalType": "address",
          "name": "deployedStableCoinAddress",
          "type": "address"
        }
      ],
      "stateMutability": "nonpayable",
      "type": "function"
    },
    {
      "inputs": [
        {
          "internalType": "bytes32",
          "name": "role",
          "type": "bytes32"
        }
      ],
      "name": "getRoleAdmin",
      "outputs": [
        {
          "internalType": "bytes32",
          "name": "",
          "type": "bytes32"
        }
      ],
      "stateMutability": "view",
      "type": "function"
    },
    {
      "inputs": [
        {
          "internalType": "bytes32",
          "name": "role",
          "type": "bytes32"
        },
        {
          "internalType": "address",
          "name": "account",
          "type": "address"
        }
      ],
      "name": "grantRole",
      "outputs": [],
      "stateMutability": "nonpayable",
      "type": "function"
    },
    {
      "inputs": [
        {
          "internalType": "bytes32",
          "name": "role",
          "type": "bytes32"
        },
        {
          "internalType": "address",
          "name": "account",
          "type": "address"
        }
      ],
      "name": "hasRole",
      "outputs": [
        {
          "internalType": "bool",
          "name": "",
          "type": "bool"
        }
      ],
      "stateMutability": "view",
      "type": "function"
    },
    {
      "inputs": [
        {
          "internalType": "address",
          "name": "systemAddress",
          "type": "address"
        },
        {
          "internalType": "address",
          "name": "tokenImplementation_",
          "type": "address"
        },
        {
          "internalType": "address",
          "name": "initialAdmin",
          "type": "address"
        },
        {
          "internalType": "address",
          "name": "identityVerificationModule_",
          "type": "address"
        }
      ],
      "name": "initialize",
      "outputs": [],
      "stateMutability": "nonpayable",
      "type": "function"
    },
    {
      "inputs": [
        {
          "internalType": "address",
          "name": "accessManagerAddress",
          "type": "address"
        }
      ],
      "name": "isFactoryAccessManager",
      "outputs": [
        {
          "internalType": "bool",
          "name": "isFactoryAccessManager",
          "type": "bool"
        }
      ],
      "stateMutability": "view",
      "type": "function"
    },
    {
      "inputs": [
        {
          "internalType": "address",
          "name": "tokenAddress",
          "type": "address"
        }
      ],
      "name": "isFactoryToken",
      "outputs": [
        {
          "internalType": "bool",
          "name": "isFactoryToken",
          "type": "bool"
        }
      ],
      "stateMutability": "view",
      "type": "function"
    },
    {
      "inputs": [
        {
          "internalType": "address",
          "name": "forwarder",
          "type": "address"
        }
      ],
      "name": "isTrustedForwarder",
      "outputs": [
        {
          "internalType": "bool",
          "name": "",
          "type": "bool"
        }
      ],
      "stateMutability": "view",
      "type": "function"
    },
    {
      "inputs": [
        {
          "internalType": "address",
          "name": "tokenImplementation_",
          "type": "address"
        }
      ],
      "name": "isValidTokenImplementation",
      "outputs": [
        {
          "internalType": "bool",
          "name": "",
          "type": "bool"
        }
      ],
      "stateMutability": "view",
      "type": "function"
    },
    {
      "inputs": [
        {
          "internalType": "string",
          "name": "name_",
          "type": "string"
        },
        {
          "internalType": "string",
          "name": "symbol_",
          "type": "string"
        },
        {
          "internalType": "uint8",
          "name": "decimals_",
          "type": "uint8"
        },
        {
          "internalType": "uint256[]",
          "name": "requiredClaimTopics_",
          "type": "uint256[]"
        },
        {
          "components": [
            {
              "internalType": "address",
              "name": "module",
              "type": "address"
            },
            {
              "internalType": "bytes",
              "name": "params",
              "type": "bytes"
            }
          ],
          "internalType": "struct SMARTComplianceModuleParamPair[]",
          "name": "initialModulePairs_",
          "type": "tuple[]"
        }
      ],
      "name": "predictStableCoinAddress",
      "outputs": [
        {
          "internalType": "address",
          "name": "predictedAddress",
          "type": "address"
        }
      ],
      "stateMutability": "view",
      "type": "function"
    },
    {
      "inputs": [
        {
          "internalType": "bytes32",
          "name": "role",
          "type": "bytes32"
        },
        {
          "internalType": "address",
          "name": "callerConfirmation",
          "type": "address"
        }
      ],
      "name": "renounceRole",
      "outputs": [],
      "stateMutability": "nonpayable",
      "type": "function"
    },
    {
      "inputs": [
        {
          "internalType": "bytes32",
          "name": "role",
          "type": "bytes32"
        },
        {
          "internalType": "address",
          "name": "account",
          "type": "address"
        }
      ],
      "name": "revokeRole",
      "outputs": [],
      "stateMutability": "nonpayable",
      "type": "function"
    },
    {
      "inputs": [
        {
          "internalType": "bytes4",
          "name": "interfaceId",
          "type": "bytes4"
        }
      ],
      "name": "supportsInterface",
      "outputs": [
        {
          "internalType": "bool",
          "name": "",
          "type": "bool"
        }
      ],
      "stateMutability": "view",
      "type": "function"
    },
    {
      "inputs": [],
      "name": "tokenImplementation",
      "outputs": [
        {
          "internalType": "address",
          "name": "",
          "type": "address"
        }
      ],
      "stateMutability": "view",
      "type": "function"
    },
    {
      "inputs": [],
      "name": "trustedForwarder",
      "outputs": [
        {
          "internalType": "address",
          "name": "",
          "type": "address"
        }
      ],
      "stateMutability": "view",
      "type": "function"
    },
    {
      "inputs": [
        {
          "internalType": "address",
          "name": "newImplementation",
          "type": "address"
        }
      ],
      "name": "updateTokenImplementation",
      "outputs": [],
      "stateMutability": "nonpayable",
      "type": "function"
    }
  ],
  "bytecode": "0x60a03461011057601f61299b38819003918201601f19168301916001600160401b038311848410176101145780849260209460405283398101031261011057516001600160a01b0381168103610110576080525f51602061297b5f395f51905f525460ff8160401c16610101576002600160401b03196001600160401b038216016100ab575b60405161285290816101298239608051818181610bc401528181610c1301526119cb0152f35b6001600160401b0319166001600160401b039081175f51602061297b5f395f51905f52556040519081527fc7f505b2f371ae2175ee4913f4499e1f2633a7b5936321eed1cdaeb6115181d290602090a15f610085565b63f92ee8a960e01b5f5260045ffd5b5f80fd5b634e487b7160e01b5f52604160045260245ffdfe6080806040526004361015610012575f80fd5b5f3560e01c90816301ffc9a714610d895750806320ff43ad14610d4c578063248a9ca314610d0d5780632f2ff15d14610cc35780632f3a3d5d14610c9b57806336568abe14610c47578063572b6c0514610bf35780637da0a87714610baf57806391d1485414610b5a578063995087de14610ad9578063a217fddf14610abf578063a4b7914e14610a83578063b11bdb7e146109c9578063d20dd349146108ec578063d547741f1461089b578063f2ce51f41461058f5763f8c8765e146100d7575f80fd5b34610358576080366003190112610358576100f0610df6565b6100f8610e0c565b6044356001600160a01b038116808203610358576064356001600160a01b0381169190829003610358575f5160206127fd5f395f51905f5254936001600160401b0360ff8660401c1615951680159081610587575b600114908161057d575b159081610574575b5061051a578461016d6111d3565b610544575b5f5160206127fd5f395f51905f5254916001600160401b0360ff8460401c161593168015908161053c575b6001149081610532575b159081610529575b5061051a57826101bd6111d3565b6104ea575b156104db576001600160a01b031694851580610484575b610475578215801561040d575b6103fe57600495610202856101fc602097611309565b506113cb565b506001600160601b0360a01b600354161760035560018060a01b031691826001600160601b0360a01b60025416176002556001600160601b0360a01b8654161785556103aa575b604051633eb5929760e11b815293849182905afa91821561039f575f9261036e575b506102b860206040938451906102818683610e51565b600a82526918dbdb1b185d195c985b60b21b838301528551808095819463138309b760e01b835286600484015260248301906110be565b03916001600160a01b03165afa908115610364575f9161032e575b506005556102dd57005b60207fc7f505b2f371ae2175ee4913f4499e1f2633a7b5936321eed1cdaeb6115181d29160ff60401b195f5160206127fd5f395f51905f5254165f5160206127fd5f395f51905f52555160018152a1005b90506020813d60201161035c575b8161034960209383610e51565b8101031261035857515f6102d3565b5f80fd5b3d915061033c565b83513d5f823e3d90fd5b61039191925060203d602011610398575b6103898183610e51565b810190611200565b905f61026b565b503d61037f565b6040513d5f823e3d90fd5b60ff60401b195f5160206127fd5f395f51905f5254165f5160206127fd5f395f51905f52557fc7f505b2f371ae2175ee4913f4499e1f2633a7b5936321eed1cdaeb6115181d28260405160018152a1610249565b635bedad7f60e01b5f5260045ffd5b506040516301ffc9a760e01b8152638c30a94360e01b6004820152602081602481875afa90811561039f575f91610446575b50156101e6565b610468915060203d60201161046e575b6104608183610e51565b8101906110a6565b5f61043f565b503d610456565b63325c055b60e21b5f5260045ffd5b506040516301ffc9a760e01b815263074ece2b60e41b60048201526020816024818a5afa90811561039f575f916104bc575b506101d9565b6104d5915060203d60201161046e576104608183610e51565b5f6104b6565b630f58058360e11b5f5260045ffd5b600160401b60ff60401b195f5160206127fd5f395f51905f525416175f5160206127fd5f395f51905f52556101c2565b63f92ee8a960e01b5f5260045ffd5b9050155f6101af565b303b1591506101a7565b84915061019d565b600160401b60ff60401b195f5160206127fd5f395f51905f525416175f5160206127fd5f395f51905f5255610172565b9050155f61015f565b303b159150610157565b86915061014d565b346103585761059d36610eec565b926105ac838287959495611602565b936105b561121f565b6105c66105c06119c8565b86611a21565b96906001600160a01b036105d98861164d565b1697885f52600160205260ff60405f205416610888576001600160a01b03916106029190611b2c565b1696870361086657610669876106b99561067794825f52600160205260405f20600160ff1982541617905561064661063c84848a89611670565b99600554926117a4565b61064e6118e8565b918a610658611948565b946040519a8b993060208c016110e2565b03601f198101835282610e51565b6106b36107d4946040519561068f6020820188610e51565b808752611b7760208801396106a261121f565b6002546001600160a01b0316611af9565b93611988565b805160208201206001600160a01b03906106d590309086611ad0565b1692835f525f60205260ff60405f20541661087557906106f491611b2c565b926001600160a01b038416928303610866575f8381526020818152604091829020805460ff191660011790556002549151633c73911160e11b81529591869060049082906001600160a01b03165afa94851561039f576107919560209284925f92610847575b506040516355c759ed60e01b81526001600160a01b03918216600482015292166024830152909586919082905f9082906044820190565b03926001600160a01b03165af193841561039f5760209484915f9161082a575b507fdbc80e56de8f11ba4bcaab7b4d7dafb41edbd27f6dbd16f83a7b92efebed88c26001600160a01b036107e36119c8565b169160018060a01b0316968794604051908152a46001600160a01b03169182810361081357602082604051908152f35b9050631a13f74960e11b5f5260045260245260445ffd5b6108419150863d8811610398576103898183610e51565b866107b1565b61085f919250843d8611610398576103898183610e51565b908861075a565b6335279f5d60e21b5f5260045ffd5b8363d0dc594960e01b5f5260045260245ffd5b88631372e33d60e01b5f5260045260245ffd5b34610358576040366003190112610358576108ea6004356108ba610e0c565b906108e56108e0825f525f5160206127dd5f395f51905f52602052600160405f20015490565b6112ad565b611559565b005b3461035857602036600319011261035857610905610df6565b61090d6119c8565b6001600160a01b0381165f9081527fb7db2dd08fcb62d0c9e08c51941cae53c267786a0b75803fb7960902fc8ef97d602052604090205460ff16156109ab57506001600160a01b0316801561047557600380546001600160a01b0319811683179091556001600160a01b03908116906109846119c8565b167fe1f3806f643d2e258028ad292fef274cc5cd62ffcd3e4cb5052e0fe2f518317d5f80a4005b63e2517d3f60e01b5f5260018060a01b03166004525f60245260445ffd5b34610358576020610a71610a2c610a646106696109e536610eec565b9096939294916109f6818786611602565b97610a008961164d565b92610a1a610a1085858b8a611670565b92600554926117a4565b90610a236118e8565b92610658611948565b610a5e6107d49360405194610a4388820187610e51565b808652611b77888701396002546001600160a01b0316611af9565b92611988565b8051908401203091611ad0565b6040516001600160a01b039091168152f35b34610358576020366003190112610358576001600160a01b03610aa4610df6565b165f525f602052602060ff60405f2054166040519015158152f35b34610358575f3660031901126103585760206040515f8152f35b3461035857602036600319011261035857602460206001600160a01b03610afe610df6565b6040516301ffc9a760e01b815263205062b960e21b600482015293849290918391165afa801561039f576020915f91610b3d575b506040519015158152f35b610b549150823d841161046e576104608183610e51565b82610b32565b3461035857604036600319011261035857610b73610e0c565b6004355f525f5160206127dd5f395f51905f5260205260405f209060018060a01b03165f52602052602060ff60405f2054166040519015158152f35b34610358575f366003190112610358576040517f00000000000000000000000000000000000000000000000000000000000000006001600160a01b03168152602090f35b34610358576020366003190112610358576020610c0e610df6565b6040517f00000000000000000000000000000000000000000000000000000000000000006001600160a01b039081169216919091148152f35b3461035857604036600319011261035857610c60610e0c565b6001600160a01b03610c706119c8565b166001600160a01b03821603610c8c576108ea90600435611559565b63334bd91960e11b5f5260045ffd5b34610358575f366003190112610358576003546040516001600160a01b039091168152602090f35b34610358576040366003190112610358576108ea600435610ce2610e0c565b90610d086108e0825f525f5160206127dd5f395f51905f52602052600160405f20015490565b6114a8565b34610358576020366003190112610358576020610d446004355f525f5160206127dd5f395f51905f52602052600160405f20015490565b604051908152f35b34610358576020366003190112610358576001600160a01b03610d6d610df6565b165f526001602052602060ff60405f2054166040519015158152f35b34610358576020366003190112610358576004359063ffffffff60e01b821680920361035857602091634ea2ccdd60e01b8114908115610dcb575b5015158152f35b637965db0b60e01b811491508115610de5575b5083610dc4565b6301ffc9a760e01b14905083610dde565b600435906001600160a01b038216820361035857565b602435906001600160a01b038216820361035857565b604081019081106001600160401b03821117610e3d57604052565b634e487b7160e01b5f52604160045260245ffd5b90601f801991011681019081106001600160401b03821117610e3d57604052565b9291926001600160401b038211610e3d5760405191610e9b601f8201601f191660200184610e51565b829481845281830111610358578281602093845f960137010152565b9080601f8301121561035857816020610ed293359101610e72565b90565b6001600160401b038111610e3d5760051b60200190565b60a0600319820112610358576004356001600160401b0381116103585781610f1691600401610eb7565b916024356001600160401b0381116103585782610f3591600401610eb7565b9160443560ff8116810361035857916064356001600160401b038111610358578260238201121561035857806004013590610f6f82610ed5565b91610f7d6040519384610e51565b8083526024602084019160051b8301019185831161035857602401905b82821061109657505050916084356001600160401b038111610358578160238201121561035857806004013590610fd082610ed5565b92610fde6040519485610e51565b8284526024602085019360051b830101918183116103585760248101935b83851061100b57505050505090565b84356001600160401b0381116103585782019060408285036023190112610358576040519161103983610e22565b60248101356001600160a01b038116810361035857835260448101356001600160401b0381116103585760249101019084601f83011215610358576020926110878684868096359101610e72565b83820152815201940193610ffc565b8135815260209182019101610f9a565b90816020910312610358575180151581036103585790565b805180835260209291819084018484015e5f828201840152601f01601f1916010190565b979996949261111360ff93611121939d9b98969d60018060a01b03168b5261014060208c01526101408b01906110be565b9089820360408b01526110be565b991660608701526001600160a01b0316608086015260a085015283870360c085015280518088526020600582901b8901810192810191905f908a015b82821061118f57505050506001600160a01b0395861660e0850152908516610100840152931661012090910152909150565b909192936020806111c56001938e601f199082030186526040838a51878060a01b038151168452015191818582015201906110be565b96019201920190929161115d565b60016001600160401b03195f5160206127fd5f395f51905f525416175f5160206127fd5f395f51905f5255565b9081602091031261035857516001600160a01b03811681036103585790565b6112276119c8565b6001600160a01b0381165f9081527f8f7e9a8734279607aeaac474f24949ddc99eae25c0da72edcf5ad21022be2c9e602052604090205460ff16156112695750565b63e2517d3f60e01b5f9081526001600160a01b03919091166004527ffc425f2263d0df187444b70e47283d622c70181c5baebb1306a01edba1ce184c602452604490fd5b6112b56119c8565b815f525f5160206127dd5f395f51905f5260205260405f2060018060a01b0382165f5260205260ff60405f205416156112ec575050565b63e2517d3f60e01b5f5260018060a01b031660045260245260445ffd5b6001600160a01b0381165f9081527fb7db2dd08fcb62d0c9e08c51941cae53c267786a0b75803fb7960902fc8ef97d602052604090205460ff166113c6576001600160a01b038181165f9081527fb7db2dd08fcb62d0c9e08c51941cae53c267786a0b75803fb7960902fc8ef97d60205260409020805460ff191660011790556113916119c8565b16906001600160a01b03165f7f2f8788117e7eff1d82e926ec794901d17c78024a50270940304540a733656f0d8180a4600190565b505f90565b6001600160a01b0381165f9081527f8f7e9a8734279607aeaac474f24949ddc99eae25c0da72edcf5ad21022be2c9e602052604090205460ff166113c6576001600160a01b038181165f9081527f8f7e9a8734279607aeaac474f24949ddc99eae25c0da72edcf5ad21022be2c9e60205260409020805460ff191660011790556114536119c8565b16906001600160a01b03167ffc425f2263d0df187444b70e47283d622c70181c5baebb1306a01edba1ce184c7f2f8788117e7eff1d82e926ec794901d17c78024a50270940304540a733656f0d5f80a4600190565b5f8181525f5160206127dd5f395f51905f52602090815260408083206001600160a01b038616845290915290205460ff16611553575f8181525f5160206127dd5f395f51905f52602090815260408083206001600160a01b0386811685529252909120805460ff1916600117905561151e6119c8565b16916001600160a01b0316907f2f8788117e7eff1d82e926ec794901d17c78024a50270940304540a733656f0d5f80a4600190565b50505f90565b5f8181525f5160206127dd5f395f51905f52602090815260408083206001600160a01b038616845290915290205460ff1615611553575f8181525f5160206127dd5f395f51905f52602090815260408083206001600160a01b0386811685529252909120805460ff191690556115cd6119c8565b16916001600160a01b0316907ff6391f5c32d9c69d2a47ea670b442974b53935d1edc7fd64eb21e047a839171b5f80a4600190565b6116269260ff611638610ed2946040519687956060602088015260808701906110be565b858103601f19016040870152906110be565b9116606083015203601f198101835282610e51565b611662610ed29161165c6119c8565b90611a21565b602081519101203091611ad0565b600254604051633c73911160e11b815293949190602090859060049082906001600160a01b03165afa90811561039f576116ed956020955f93611735575b506116db929360ff60405198899788968796637a3f5df760e11b88526080600489015260848801906110be565b868103600319016024880152906110be565b921660448401526001600160a01b03908116606484015291900392165afa90811561039f575f9161171c575090565b610ed2915060203d602011610398576103898183610e51565b6116db935061175090873d8911610398576103898183610e51565b926116ae565b6040519061176382610e22565b60606020835f81520152565b80511561177c5760200190565b634e487b7160e01b5f52603260045260245ffd5b805182101561177c5760209160051b010190565b80516001810193929084106118a0576117bc84610ed5565b936117ca6040519586610e51565b8085526117d9601f1991610ed5565b015f5b8181106118d15750506117ed611756565b5060018060a01b0360045416906040519081604081019160208083015280518093526020606083019101925f5b8181106118b8575050611836925003601f198101835282610e51565b6040519161184383610e22565b825260208201526118538461176f565b5261185d8361176f565b505f5b81518110156118b4576118738183611790565b519060018101918282116118a057826118999161189260019589611790565b5286611790565b5001611860565b634e487b7160e01b5f52601160045260245ffd5b5050565b845183526020948501948694509092019160010161181a565b6020906118dc611756565b828289010152016117dc565b60025460405163d62def8f60e01b815290602090829060049082906001600160a01b03165afa90811561039f575f91611929575b506001600160a01b031690565b611942915060203d602011610398576103898183610e51565b5f61191c565b6002546040516398468e5160e01b815290602090829060049082906001600160a01b03165afa90811561039f575f9161192957506001600160a01b031690565b6119c6906020808095946040519684889551918291018487015e8401908282015f8152815193849201905e01015f815203601f198101845283610e51565b565b337f00000000000000000000000000000000000000000000000000000000000000006001600160a01b03161480611a16575b15611a125760131936013681116118a0573560601c90565b3390565b5060143610156119fa565b9190610ed290611aad60018060a01b036002541694604051611a818161066960208201948a86526060604084015260116080840152701058d8d95cdcd3585b9859d95c94d85b1d607a1b60a084015260a0606084015260c08301906110be565b519020604080516001600160a01b03978816602082015293909616958301959095528160608101610669565b604051610492611ac06020820183610e51565b80825261234b6020830139611988565b91600b92604051926040840152602083015281520160ff8153605590206001600160a01b031690565b90611b2661066991604051928391602083019560018060a01b0316865260408084015260608301906110be565b51902090565b90805115611b67576020815191015ff5903d151982151661039f576001600160a01b03821615611b5857565b63b06ebf3d60e01b5f5260045ffd5b631328927760e21b5f5260045ffdfe60806040526107d48038038091610015826100f8565b6080396101408160800191126100e05761002d610161565b60a0516001600160401b0381116100e0578261004b916080016101dc565b60c0516001600160401b0381116100e05783610069916080016101dc565b61007360e06101f9565b61007e610100610177565b61012051610140519091906001600160401b0381116100e0576100d1976100a791608001610207565b926100b3610160610177565b946100bf610180610177565b966100cb6101a0610177565b986103f8565b60405161017290816106428239f35b5f80fd5b634e487b7160e01b5f52604160045260245ffd5b6080601f91909101601f19168101906001600160401b0382119082101761011e57604052565b6100e4565b604081019081106001600160401b0382111761011e57604052565b601f909101601f19168101906001600160401b0382119082101761011e57604052565b608051906001600160a01b03821682036100e057565b51906001600160a01b03821682036100e057565b6001600160401b03811161011e57601f01601f191660200190565b9291926101b28261018b565b916101c0604051938461013e565b8294818452818301116100e0578281602093845f96015e010152565b9080601f830112156100e05781516101f6926020016101a6565b90565b519060ff821682036100e057565b9080601f830112156100e0578151916001600160401b03831161011e578260051b916040519361023a602085018661013e565b8452602080850193830101918183116100e05760208101935b83851061026257505050505090565b84516001600160401b0381116100e0578201906040828503601f1901126100e0576040519161029083610123565b61029c60208201610177565b835260408101516001600160401b0381116100e05760209101019084601f830112156100e0576020926102d586848680965191016101a6565b83820152815201940193610253565b805180835260209291819084018484015e5f828201840152601f01601f1916010190565b9699989795949293916103399061032b60ff936101208b526101208b01906102e4565b9089820360208b01526102e4565b931660408701526001600160a01b03166060860152608085015283810360a085015281518082526020600582901b83018101938101925f918101905b8383106103b357505050506001600160a01b0396871660c085015250941660e08201526103b19190610100906001600160a01b03909216910152565b565b90919293946020806103e9600193601f198682030187526040838b51878060a01b038151168452015191818582015201906102e4565b97019301930191939290610375565b939598929690949897919760018060a01b03851680159081156104a3575b50610494576103b19961048f9761045c6104819760018060a01b031660018060a01b03195f5160206107b45f395f51905f525416175f5160206107b45f395f51905f5255565b610464610538565b996040519b8c9963205062b960e21b60208c015260248b01610308565b03601f19810184528361013e565b6105d4565b63fd360a1d60e01b5f5260045ffd5b6040516301ffc9a760e01b8152634ea2ccdd60e01b60048201529150602090829060249082905afa908115610510575f916104e1575b50155f610416565b610503915060203d602011610509575b6104fb818361013e565b810190610515565b5f6104d9565b503d6104f1565b61052d565b908160209103126100e0575180151581036100e05790565b6040513d5f823e3d90fd5b5f5160206107b45f395f51905f5254604051632f3a3d5d60e01b815290602090829060049082906001600160a01b03165afa908115610510575f9161059a575b506001600160a01b0381161561058b5790565b63daa2f31f60e01b5f5260045ffd5b90506020813d6020116105cc575b816105b56020938361013e565b810103126100e0576105c690610177565b5f610578565b3d91506105a8565b6001600160a01b0381161561063257815f929160208493519201905af43d1561062a573d906106028261018b565b91610610604051938461013e565b82523d5f602084013e5b156106225750565b602081519101fd5b60609061061a565b63ee0a129760e01b5f5260045ffdfe608060405236156100a8577f1515746737424785433e0dda020fe774d11e0fab6d980530d355fada133c3c705460209060809060049082906001600160a01b0316632f3a3d5d60e01b82525afa80156100a3575f90610076575b6001600160a01b03811661011f5763daa2f31f60e01b5f5260045ffd5b5060203d60201161009c575b8061008f610097926100b7565b6080016100ee565b610059565b503d610082565b610114565b635d82995b60e01b5f5260045ffd5b601f80199101166080016080811067ffffffffffffffff8211176100da57604052565b634e487b7160e01b5f52604160045260245ffd5b602090607f190112610110576080516001600160a01b03811681036101105790565b5f80fd5b6040513d5f823e3d90fd5b5f8091368280378136915af43d5f803e15610138573d5ff35b3d5ffdfea264697066735822122092acdd642f8f76840b86494de5462740c37da0558f17a7a939b609c25258416664736f6c634300081c00331515746737424785433e0dda020fe774d11e0fab6d980530d355fada133c3c70608060405234610171576040610492803803809161001c82610189565b608039126101715761002c6101d7565b61003660a06101ed565b906001600160a01b03811680159081156100ff575b506100f0577f4ec051ecf420fd16e0db567197da76ec7f1f5f47763970d604b97e75cb0064d380546001600160a01b0319166001600160a01b039290921691821790556100e1916100ce916100dc906100a390610224565b60405163189acdbd60e31b60208201526001600160a01b039093166024840152919283906044820190565b03601f1981018452836101b4565b6102b1565b604051610164908161032e8239f35b633f997a3760e01b5f5260045ffd5b6040516301ffc9a760e01b8152633d1b15b560e21b60048201529150602090829060249082905afa90811561016c575f9161013d575b50155f61004b565b61015f915060203d602011610165575b61015781836101b4565b810190610201565b5f610135565b503d61014d565b610219565b5f80fd5b634e487b7160e01b5f52604160045260245ffd5b6080601f91909101601f19168101906001600160401b038211908210176101af57604052565b610175565b601f909101601f19168101906001600160401b038211908210176101af57604052565b608051906001600160a01b038216820361017157565b51906001600160a01b038216820361017157565b90816020910312610171575180151581036101715790565b6040513d5f823e3d90fd5b6040516344eecc1760e01b815290602090829060049082906001600160a01b03165afa90811561016c575f91610277575b506001600160a01b038116156102685790565b63099d3e0360e21b5f5260045ffd5b90506020813d6020116102a9575b81610292602093836101b4565b81010312610171576102a3906101ed565b5f610255565b3d9150610285565b6001600160a01b0381161561031e57815f929160208493519201905af43d15610316573d906001600160401b0382116101af57604051916102fc601f8201601f1916602001846101b4565b82523d5f602084013e5b1561030e5750565b602081519101fd5b606090610306565b63ee0a129760e01b5f5260045ffdfe608060405236156100dc577f4ec051ecf420fd16e0db567197da76ec7f1f5f47763970d604b97e75cb0064d3546344eecc1760e01b608090815260209160049082906001600160a01b03165afa80156100d1575f90610076575b6001600160a01b0381166100eb5763099d3e0360e21b5f5260045ffd5b5060203d6020116100ca575b601f19601f820116608001906080821067ffffffffffffffff8311176100b6576100b191604052608001610108565b610059565b634e487b7160e01b5f52604160045260245ffd5b503d610082565b6040513d5f823e3d90fd5b635d82995b60e01b5f5260045ffd5b5f8091368280378136915af43d5f803e15610104573d5ff35b3d5ffd5b602090607f19011261012a576080516001600160a01b038116810361012a5790565b5f80fdfea26469706673582212200e42f5e6836131c0aaf35292b0c6b7e8498f6d6d7ea58c3c201a96446839d0db64736f6c634300081c003302dd7bc7dec4dceedda775e58dd541e08a116c6c53815c0bd028192f7b626800f0c57e16840df040f15088dc2f81fe391c3923bec73e23a9662efc9c229c6a00a26469706673582212205b1ece53cd1c767a5535acc35a6b17ebffc755953e11e6cd138ced72940879ed64736f6c634300081c0033f0c57e16840df040f15088dc2f81fe391c3923bec73e23a9662efc9c229c6a00",
  "linkReferences": {},
  "deployedLinkReferences": {}
}