{
  "_format": "hh-sol-artifact-1",
  "contractName": "ATKBondFactoryImplementation",
  "sourceName": "contracts/assets/bond/ATKBondFactoryImplementation.sol",
  "abi": [
    {
      "inputs": [
        {
          "internalType": "address",
          "name": "forwarder",
          "type": "address"
        }
      ],
      "stateMutability": "nonpayable",
      "type": "constructor"
    },
    {
      "inputs": [],
      "name": "AccessControlBadConfirmation",
      "type": "error"
    },
    {
      "inputs": [
        {
          "internalType": "address",
          "name": "account",
          "type": "address"
        },
        {
          "internalType": "bytes32",
          "name": "neededRole",
          "type": "bytes32"
        }
      ],
      "name": "AccessControlUnauthorizedAccount",
      "type": "error"
    },
    {
      "inputs": [
        {
          "internalType": "address",
          "name": "predictedAddress",
          "type": "address"
        }
      ],
      "name": "AccessManagerAlreadyDeployed",
      "type": "error"
    },
    {
      "inputs": [
        {
          "internalType": "address",
          "name": "predictedAddress",
          "type": "address"
        }
      ],
      "name": "AddressAlreadyDeployed",
      "type": "error"
    },
    {
      "inputs": [],
      "name": "Create2EmptyBytecode",
      "type": "error"
    },
    {
      "inputs": [],
      "name": "FailedDeployment",
      "type": "error"
    },
    {
      "inputs": [
        {
          "internalType": "uint256",
          "name": "balance",
          "type": "uint256"
        },
        {
          "internalType": "uint256",
          "name": "needed",
          "type": "uint256"
        }
      ],
      "name": "InsufficientBalance",
      "type": "error"
    },
    {
      "inputs": [],
      "name": "InvalidIdentityVerificationModuleAddress",
      "type": "error"
    },
    {
      "inputs": [],
      "name": "InvalidImplementationAddress",
      "type": "error"
    },
    {
      "inputs": [],
      "name": "InvalidInitialization",
      "type": "error"
    },
    {
      "inputs": [],
      "name": "InvalidTokenAddress",
      "type": "error"
    },
    {
      "inputs": [],
      "name": "NotInitializing",
      "type": "error"
    },
    {
      "inputs": [],
      "name": "ProxyCreationFailed",
      "type": "error"
    },
    {
      "inputs": [
        {
          "internalType": "address",
          "name": "deployedTokenIdentityAddress",
          "type": "address"
        },
        {
          "internalType": "address",
          "name": "tokenIdentityAddress",
          "type": "address"
        }
      ],
      "name": "TokenIdentityAddressMismatch",
      "type": "error"
    },
    {
      "anonymous": false,
      "inputs": [
        {
          "indexed": false,
          "internalType": "uint64",
          "name": "version",
          "type": "uint64"
        }
      ],
      "name": "Initialized",
      "type": "event"
    },
    {
      "anonymous": false,
      "inputs": [
        {
          "indexed": true,
          "internalType": "bytes32",
          "name": "role",
          "type": "bytes32"
        },
        {
          "indexed": true,
          "internalType": "bytes32",
          "name": "previousAdminRole",
          "type": "bytes32"
        },
        {
          "indexed": true,
          "internalType": "bytes32",
          "name": "newAdminRole",
          "type": "bytes32"
        }
      ],
      "name": "RoleAdminChanged",
      "type": "event"
    },
    {
      "anonymous": false,
      "inputs": [
        {
          "indexed": true,
          "internalType": "bytes32",
          "name": "role",
          "type": "bytes32"
        },
        {
          "indexed": true,
          "internalType": "address",
          "name": "account",
          "type": "address"
        },
        {
          "indexed": true,
          "internalType": "address",
          "name": "sender",
          "type": "address"
        }
      ],
      "name": "RoleGranted",
      "type": "event"
    },
    {
      "anonymous": false,
      "inputs": [
        {
          "indexed": true,
          "internalType": "bytes32",
          "name": "role",
          "type": "bytes32"
        },
        {
          "indexed": true,
          "internalType": "address",
          "name": "account",
          "type": "address"
        },
        {
          "indexed": true,
          "internalType": "address",
          "name": "sender",
          "type": "address"
        }
      ],
      "name": "RoleRevoked",
      "type": "event"
    },
    {
      "anonymous": false,
      "inputs": [
        {
          "indexed": true,
          "internalType": "address",
          "name": "sender",
          "type": "address"
        },
        {
          "indexed": true,
          "internalType": "address",
          "name": "tokenAddress",
          "type": "address"
        },
        {
          "indexed": true,
          "internalType": "address",
          "name": "tokenIdentity",
          "type": "address"
        },
        {
          "indexed": false,
          "internalType": "address",
          "name": "accessManager",
          "type": "address"
        }
      ],
      "name": "TokenAssetCreated",
      "type": "event"
    },
    {
      "anonymous": false,
      "inputs": [
        {
          "indexed": true,
          "internalType": "address",
          "name": "sender",
          "type": "address"
        },
        {
          "indexed": true,
          "internalType": "address",
          "name": "oldImplementation",
          "type": "address"
        },
        {
          "indexed": true,
          "internalType": "address",
          "name": "newImplementation",
          "type": "address"
        }
      ],
      "name": "TokenImplementationUpdated",
      "type": "event"
    },
    {
      "inputs": [],
      "name": "DEFAULT_ADMIN_ROLE",
      "outputs": [
        {
          "internalType": "bytes32",
          "name": "",
          "type": "bytes32"
        }
      ],
      "stateMutability": "view",
      "type": "function"
    },
    {
      "inputs": [
        {
          "internalType": "string",
          "name": "name_",
          "type": "string"
        },
        {
          "internalType": "string",
          "name": "symbol_",
          "type": "string"
        },
        {
          "internalType": "uint8",
          "name": "decimals_",
          "type": "uint8"
        },
        {
          "internalType": "uint256",
          "name": "cap_",
          "type": "uint256"
        },
        {
          "internalType": "uint256",
          "name": "maturityDate_",
          "type": "uint256"
        },
        {
          "internalType": "uint256",
          "name": "faceValue_",
          "type": "uint256"
        },
        {
          "internalType": "address",
          "name": "underlyingAsset_",
          "type": "address"
        },
        {
          "internalType": "uint256[]",
          "name": "requiredClaimTopics_",
          "type": "uint256[]"
        },
        {
          "components": [
            {
              "internalType": "address",
              "name": "module",
              "type": "address"
            },
            {
              "internalType": "bytes",
              "name": "params",
              "type": "bytes"
            }
          ],
          "internalType": "struct SMARTComplianceModuleParamPair[]",
          "name": "initialModulePairs_",
          "type": "tuple[]"
        }
      ],
      "name": "createBond",
      "outputs": [
        {
          "internalType": "address",
          "name": "deployedBondAddress",
          "type": "address"
        }
      ],
      "stateMutability": "nonpayable",
      "type": "function"
    },
    {
      "inputs": [
        {
          "internalType": "bytes32",
          "name": "role",
          "type": "bytes32"
        }
      ],
      "name": "getRoleAdmin",
      "outputs": [
        {
          "internalType": "bytes32",
          "name": "",
          "type": "bytes32"
        }
      ],
      "stateMutability": "view",
      "type": "function"
    },
    {
      "inputs": [
        {
          "internalType": "bytes32",
          "name": "role",
          "type": "bytes32"
        },
        {
          "internalType": "address",
          "name": "account",
          "type": "address"
        }
      ],
      "name": "grantRole",
      "outputs": [],
      "stateMutability": "nonpayable",
      "type": "function"
    },
    {
      "inputs": [
        {
          "internalType": "bytes32",
          "name": "role",
          "type": "bytes32"
        },
        {
          "internalType": "address",
          "name": "account",
          "type": "address"
        }
      ],
      "name": "hasRole",
      "outputs": [
        {
          "internalType": "bool",
          "name": "",
          "type": "bool"
        }
      ],
      "stateMutability": "view",
      "type": "function"
    },
    {
      "inputs": [
        {
          "internalType": "address",
          "name": "systemAddress",
          "type": "address"
        },
        {
          "internalType": "address",
          "name": "tokenImplementation_",
          "type": "address"
        },
        {
          "internalType": "address",
          "name": "initialAdmin",
          "type": "address"
        },
        {
          "internalType": "address",
          "name": "identityVerificationModule",
          "type": "address"
        }
      ],
      "name": "initialize",
      "outputs": [],
      "stateMutability": "nonpayable",
      "type": "function"
    },
    {
      "inputs": [
        {
          "internalType": "address",
          "name": "accessManagerAddress",
          "type": "address"
        }
      ],
      "name": "isFactoryAccessManager",
      "outputs": [
        {
          "internalType": "bool",
          "name": "isFactoryAccessManager",
          "type": "bool"
        }
      ],
      "stateMutability": "view",
      "type": "function"
    },
    {
      "inputs": [
        {
          "internalType": "address",
          "name": "tokenAddress",
          "type": "address"
        }
      ],
      "name": "isFactoryToken",
      "outputs": [
        {
          "internalType": "bool",
          "name": "isFactoryToken",
          "type": "bool"
        }
      ],
      "stateMutability": "view",
      "type": "function"
    },
    {
      "inputs": [
        {
          "internalType": "address",
          "name": "forwarder",
          "type": "address"
        }
      ],
      "name": "isTrustedForwarder",
      "outputs": [
        {
          "internalType": "bool",
          "name": "",
          "type": "bool"
        }
      ],
      "stateMutability": "view",
      "type": "function"
    },
    {
      "inputs": [
        {
          "internalType": "address",
          "name": "tokenImplementation_",
          "type": "address"
        }
      ],
      "name": "isValidTokenImplementation",
      "outputs": [
        {
          "internalType": "bool",
          "name": "",
          "type": "bool"
        }
      ],
      "stateMutability": "view",
      "type": "function"
    },
    {
      "inputs": [
        {
          "internalType": "string",
          "name": "name_",
          "type": "string"
        },
        {
          "internalType": "string",
          "name": "symbol_",
          "type": "string"
        },
        {
          "internalType": "uint8",
          "name": "decimals_",
          "type": "uint8"
        },
        {
          "internalType": "uint256",
          "name": "cap_",
          "type": "uint256"
        },
        {
          "internalType": "uint256",
          "name": "maturityDate_",
          "type": "uint256"
        },
        {
          "internalType": "uint256",
          "name": "faceValue_",
          "type": "uint256"
        },
        {
          "internalType": "address",
          "name": "underlyingAsset_",
          "type": "address"
        },
        {
          "internalType": "uint256[]",
          "name": "requiredClaimTopics_",
          "type": "uint256[]"
        },
        {
          "components": [
            {
              "internalType": "address",
              "name": "module",
              "type": "address"
            },
            {
              "internalType": "bytes",
              "name": "params",
              "type": "bytes"
            }
          ],
          "internalType": "struct SMARTComplianceModuleParamPair[]",
          "name": "initialModulePairs_",
          "type": "tuple[]"
        }
      ],
      "name": "predictBondAddress",
      "outputs": [
        {
          "internalType": "address",
          "name": "predictedAddress",
          "type": "address"
        }
      ],
      "stateMutability": "view",
      "type": "function"
    },
    {
      "inputs": [
        {
          "internalType": "bytes32",
          "name": "role",
          "type": "bytes32"
        },
        {
          "internalType": "address",
          "name": "callerConfirmation",
          "type": "address"
        }
      ],
      "name": "renounceRole",
      "outputs": [],
      "stateMutability": "nonpayable",
      "type": "function"
    },
    {
      "inputs": [
        {
          "internalType": "bytes32",
          "name": "role",
          "type": "bytes32"
        },
        {
          "internalType": "address",
          "name": "account",
          "type": "address"
        }
      ],
      "name": "revokeRole",
      "outputs": [],
      "stateMutability": "nonpayable",
      "type": "function"
    },
    {
      "inputs": [
        {
          "internalType": "bytes4",
          "name": "interfaceId",
          "type": "bytes4"
        }
      ],
      "name": "supportsInterface",
      "outputs": [
        {
          "internalType": "bool",
          "name": "",
          "type": "bool"
        }
      ],
      "stateMutability": "view",
      "type": "function"
    },
    {
      "inputs": [],
      "name": "tokenImplementation",
      "outputs": [
        {
          "internalType": "address",
          "name": "",
          "type": "address"
        }
      ],
      "stateMutability": "view",
      "type": "function"
    },
    {
      "inputs": [],
      "name": "trustedForwarder",
      "outputs": [
        {
          "internalType": "address",
          "name": "",
          "type": "address"
        }
      ],
      "stateMutability": "view",
      "type": "function"
    },
    {
      "inputs": [
        {
          "internalType": "address",
          "name": "newImplementation",
          "type": "address"
        }
      ],
      "name": "updateTokenImplementation",
      "outputs": [],
      "stateMutability": "nonpayable",
      "type": "function"
    }
  ],
  "bytecode": "0x60a03461011057601f6128bb38819003918201601f19168301916001600160401b038311848410176101145780849260209460405283398101031261011057516001600160a01b0381168103610110576080525f51602061289b5f395f51905f525460ff8160401c16610101576002600160401b03196001600160401b038216016100ab575b60405161277290816101298239608051818181610a7c01528181610acb015261189b0152f35b6001600160401b0319166001600160401b039081175f51602061289b5f395f51905f52556040519081527fc7f505b2f371ae2175ee4913f4499e1f2633a7b5936321eed1cdaeb6115181d290602090a15f610085565b63f92ee8a960e01b5f5260045ffd5b5f80fd5b634e487b7160e01b5f52604160045260245ffdfe6080806040526004361015610012575f80fd5b5f3560e01c90816301ffc9a714610c415750806320ff43ad14610c04578063248a9ca314610bc55780632f2ff15d14610b7b5780632f3a3d5d14610b5357806336568abe14610aff578063572b6c0514610aab5780637da0a87714610a6757806391d1485414610a12578063995087de14610991578063a217fddf14610977578063a4b7914e1461093b578063d20dd3491461085e578063d547741f1461080d578063ddedbbce1461072a578063f8c8765e146104585763fb482bcc146100d7575f80fd5b346103be576100e536610da8565b95979192906100f98989859a97989a6114b3565b986101026110d0565b61011361010d611898565b8b6118f1565b99906001600160a01b036101268d6114fe565b169a8b5f52600160205260ff60405f205416610445576001600160a01b039161014f91906119fc565b16998a0361042357610206976101c4966101b6956101918d9661018b88888e825f52600160205260405f20600160ff198254161790558d611540565b9d611674565b9261019a6117b8565b948d6101a4611818565b976040519d8e9c8d6020309101610fc6565b03601f198101835282610d0a565b61020061082495604051966101dc6020820189610d0a565b808852611a4760208901396101ef6110d0565b6002546001600160a01b03166119c9565b94611858565b9260018060a01b0361021f3086516020880120846119a0565b1693845f525f60205260ff60405f2054166104325761023d916119fc565b6001600160a01b038116939092908403610423575f8481526020818152604091829020805460ff191660011790556002549151633c73911160e11b81529491859060049082906001600160a01b03165afa9384156103b3576102dc9460209284925f92610404575b506040516355c759ed60e01b81526001600160a01b03918216600482015292166024830152909485919082905f9082906044820190565b03926001600160a01b03165af19283156103b35760209385915f916103d7575b507fdbc80e56de8f11ba4bcaab7b4d7dafb41edbd27f6dbd16f83a7b92efebed88c26001600160a01b0361032e611898565b169160018060a01b0316958694604051908152a46001600160a01b0316908181036103c257826001600160a01b03610364611818565b1690813b156103be575f80926024604051809581936318fac88160e11b83528660048401525af19182156103b3576020926103a3575b50604051908152f35b5f6103ad91610d0a565b5f61039a565b6040513d5f823e3d90fd5b5f80fd5b631a13f74960e11b5f5260045260245260445ffd5b6103f79150853d87116103fd575b6103ef8183610d0a565b810190611521565b5f6102fc565b503d6103e5565b61041c919250843d86116103fd576103ef8183610d0a565b905f6102a5565b6335279f5d60e21b5f5260045ffd5b8463d0dc594960e01b5f5260045260245ffd5b8b631372e33d60e01b5f5260045260245ffd5b346103be5760803660031901126103be57610471610cae565b610479610cc4565b6044356001600160a01b03811692908381036103be576064356001600160a01b03811693908490036103be575f51602061271d5f395f51905f52549460ff8660401c16159567ffffffffffffffff811680159081610722575b6001149081610718575b15908161070f575b506107005767ffffffffffffffff1981166001175f51602061271d5f395f51905f5255866106d4575b50156106c5576001600160a01b03169081158061066e575b61065f57831580156105f7575b6105e85780610543610549926111ba565b5061127c565b506001600160601b0360a01b600354161760035560018060a01b03166001600160601b0360a01b60025416176002556001600160601b0360a01b600454161760045561059157005b68ff0000000000000000195f51602061271d5f395f51905f5254165f51602061271d5f395f51905f52557fc7f505b2f371ae2175ee4913f4499e1f2633a7b5936321eed1cdaeb6115181d2602060405160018152a1005b635bedad7f60e01b5f5260045ffd5b506040516301ffc9a760e01b8152638c30a94360e01b6004820152602081602481885afa9081156103b3575f91610630575b5015610532565b610652915060203d602011610658575b61064a8183610d0a565b810190610f8a565b86610629565b503d610640565b63325c055b60e21b5f5260045ffd5b506040516301ffc9a760e01b815263074ece2b60e41b6004820152602081602481865afa9081156103b3575f916106a6575b50610525565b6106bf915060203d6020116106585761064a8183610d0a565b866106a0565b630f58058360e11b5f5260045ffd5b68ffffffffffffffffff191668010000000000000001175f51602061271d5f395f51905f52558661050d565b63f92ee8a960e01b5f5260045ffd5b905015886104e4565b303b1591506104dc565b8891506104d2565b346103be5761073836610da8565b939092969597949161074b8988886114b3565b97610755896114fe565b95610762878c8b8b611540565b9561076c91611674565b926107756117b8565b9461077e611818565b6040519c8d9b6107959b9299923060208f01610fc6565b03601f19810183526107a79083610d0a565b604051906108246107bb6020820184610d0a565b808352611a4760208401396002546107dc91906001600160a01b03166119c9565b916107e691611858565b3090805190602001206107f8926119a0565b6040516001600160a01b039091168152602090f35b346103be5760403660031901126103be5761085c60043561082c610cc4565b90610857610852825f525f5160206126fd5f395f51905f52602052600160405f20015490565b61115e565b61140a565b005b346103be5760203660031901126103be57610877610cae565b61087f611898565b6001600160a01b0381165f9081527fb7db2dd08fcb62d0c9e08c51941cae53c267786a0b75803fb7960902fc8ef97d602052604090205460ff161561091d57506001600160a01b0316801561065f57600380546001600160a01b0319811683179091556001600160a01b03908116906108f6611898565b167fe1f3806f643d2e258028ad292fef274cc5cd62ffcd3e4cb5052e0fe2f518317d5f80a4005b63e2517d3f60e01b5f5260018060a01b03166004525f60245260445ffd5b346103be5760203660031901126103be576001600160a01b0361095c610cae565b165f525f602052602060ff60405f2054166040519015158152f35b346103be575f3660031901126103be5760206040515f8152f35b346103be5760203660031901126103be57602460206001600160a01b036109b6610cae565b6040516301ffc9a760e01b815263563138fd60e01b600482015293849290918391165afa80156103b3576020915f916109f5575b506040519015158152f35b610a0c9150823d84116106585761064a8183610d0a565b826109ea565b346103be5760403660031901126103be57610a2b610cc4565b6004355f525f5160206126fd5f395f51905f5260205260405f209060018060a01b03165f52602052602060ff60405f2054166040519015158152f35b346103be575f3660031901126103be576040517f00000000000000000000000000000000000000000000000000000000000000006001600160a01b03168152602090f35b346103be5760203660031901126103be576020610ac6610cae565b6040517f00000000000000000000000000000000000000000000000000000000000000006001600160a01b039081169216919091148152f35b346103be5760403660031901126103be57610b18610cc4565b6001600160a01b03610b28611898565b166001600160a01b03821603610b445761085c9060043561140a565b63334bd91960e11b5f5260045ffd5b346103be575f3660031901126103be576003546040516001600160a01b039091168152602090f35b346103be5760403660031901126103be5761085c600435610b9a610cc4565b90610bc0610852825f525f5160206126fd5f395f51905f52602052600160405f20015490565b611359565b346103be5760203660031901126103be576020610bfc6004355f525f5160206126fd5f395f51905f52602052600160405f20015490565b604051908152f35b346103be5760203660031901126103be576001600160a01b03610c25610cae565b165f526001602052602060ff60405f2054166040519015158152f35b346103be5760203660031901126103be576004359063ffffffff60e01b82168092036103be57602091634ea2ccdd60e01b8114908115610c83575b5015158152f35b637965db0b60e01b811491508115610c9d575b5083610c7c565b6301ffc9a760e01b14905083610c96565b600435906001600160a01b03821682036103be57565b602435906001600160a01b03821682036103be57565b6040810190811067ffffffffffffffff821117610cf657604052565b634e487b7160e01b5f52604160045260245ffd5b90601f8019910116810190811067ffffffffffffffff821117610cf657604052565b92919267ffffffffffffffff8211610cf65760405191610d56601f8201601f191660200184610d0a565b8294818452818301116103be578281602093845f960137010152565b9080601f830112156103be57816020610d8d93359101610d2c565b90565b67ffffffffffffffff8111610cf65760051b60200190565b6101206003198201126103be5760043567ffffffffffffffff81116103be5781610dd491600401610d72565b9160243567ffffffffffffffff81116103be5782610df491600401610d72565b9160443560ff811681036103be5791606435916084359160a4359160c4356001600160a01b03811681036103be579160e43567ffffffffffffffff81116103be57826023820112156103be57806004013590610e4f82610d90565b91610e5d6040519384610d0a565b8083526024602084019160051b830101918583116103be57602401905b828210610f7a57505050916101043567ffffffffffffffff81116103be57816023820112156103be57806004013590610eb282610d90565b92610ec06040519485610d0a565b8284526024602085019360051b830101918183116103be5760248101935b838510610eed57505050505090565b843567ffffffffffffffff81116103be57820190604082850360231901126103be5760405191610f1c83610cda565b60248101356001600160a01b03811681036103be578352604481013567ffffffffffffffff81116103be5760249101019084601f830112156103be57602092610f6b8684868096359101610d2c565b83820152815201940193610ede565b8135815260209182019101610e7a565b908160209103126103be575180151581036103be5790565b805180835260209291819084018484015e5f828201840152601f01601f1916010190565b9a9c999795939d9b98969492610ff760ff936101a08e6110059560018060a01b031681528160208201520190610fa2565b8c810360408e015290610fa2565b9c1660608a015260018060a01b0316608089015260a088015260c087015260e086015260018060a01b0316610100850152838703610120850152805180885260208801906020808260051b8b01019301915f905b82821061108c57505050506001600160a01b03958616610140850152908516610160840152931661018090910152909150565b909192936020806110c26001938e601f199082030186526040838a51878060a01b03815116845201519181858201520190610fa2565b960192019201909291611059565b6110d8611898565b6001600160a01b0381165f9081527f8f7e9a8734279607aeaac474f24949ddc99eae25c0da72edcf5ad21022be2c9e602052604090205460ff161561111a5750565b63e2517d3f60e01b5f9081526001600160a01b03919091166004527ffc425f2263d0df187444b70e47283d622c70181c5baebb1306a01edba1ce184c602452604490fd5b611166611898565b815f525f5160206126fd5f395f51905f5260205260405f2060018060a01b0382165f5260205260ff60405f2054161561119d575050565b63e2517d3f60e01b5f5260018060a01b031660045260245260445ffd5b6001600160a01b0381165f9081527fb7db2dd08fcb62d0c9e08c51941cae53c267786a0b75803fb7960902fc8ef97d602052604090205460ff16611277576001600160a01b038181165f9081527fb7db2dd08fcb62d0c9e08c51941cae53c267786a0b75803fb7960902fc8ef97d60205260409020805460ff19166001179055611242611898565b16906001600160a01b03165f7f2f8788117e7eff1d82e926ec794901d17c78024a50270940304540a733656f0d8180a4600190565b505f90565b6001600160a01b0381165f9081527f8f7e9a8734279607aeaac474f24949ddc99eae25c0da72edcf5ad21022be2c9e602052604090205460ff16611277576001600160a01b038181165f9081527f8f7e9a8734279607aeaac474f24949ddc99eae25c0da72edcf5ad21022be2c9e60205260409020805460ff19166001179055611304611898565b16906001600160a01b03167ffc425f2263d0df187444b70e47283d622c70181c5baebb1306a01edba1ce184c7f2f8788117e7eff1d82e926ec794901d17c78024a50270940304540a733656f0d5f80a4600190565b5f8181525f5160206126fd5f395f51905f52602090815260408083206001600160a01b038616845290915290205460ff16611404575f8181525f5160206126fd5f395f51905f52602090815260408083206001600160a01b0386811685529252909120805460ff191660011790556113cf611898565b16916001600160a01b0316907f2f8788117e7eff1d82e926ec794901d17c78024a50270940304540a733656f0d5f80a4600190565b50505f90565b5f8181525f5160206126fd5f395f51905f52602090815260408083206001600160a01b038616845290915290205460ff1615611404575f8181525f5160206126fd5f395f51905f52602090815260408083206001600160a01b0386811685529252909120805460ff1916905561147e611898565b16916001600160a01b0316907ff6391f5c32d9c69d2a47ea670b442974b53935d1edc7fd64eb21e047a839171b5f80a4600190565b6114d79260ff6114e9610d8d94604051968795606060208801526080870190610fa2565b858103601f1901604087015290610fa2565b9116606083015203601f198101835282610d0a565b611513610d8d9161150d611898565b906118f1565b6020815191012030916119a0565b908160209103126103be57516001600160a01b03811681036103be5790565b600254604051633c73911160e11b815293949190602090859060049082906001600160a01b03165afa9081156103b3576115bd956020955f93611605575b506115ab929360ff60405198899788968796637a3f5df760e11b8852608060048901526084880190610fa2565b86810360031901602488015290610fa2565b921660448401526001600160a01b03908116606484015291900392165afa9081156103b3575f916115ec575090565b610d8d915060203d6020116103fd576103ef8183610d0a565b6115ab935061162090873d89116103fd576103ef8183610d0a565b9261157e565b6040519061163382610cda565b60606020835f81520152565b80511561164c5760200190565b634e487b7160e01b5f52603260045260245ffd5b805182101561164c5760209160051b010190565b80516001810193929084106117705761168c84610d90565b9361169a6040519586610d0a565b8085526116a9601f1991610d90565b015f5b8181106117a15750506116bd611626565b5060018060a01b0360045416906040519081604081019160208083015280518093526020606083019101925f5b818110611788575050611706925003601f198101835282610d0a565b6040519161171383610cda565b825260208201526117238461163f565b5261172d8361163f565b505f5b8151811015611784576117438183611660565b5190600181019182821161177057826117699161176260019589611660565b5286611660565b5001611730565b634e487b7160e01b5f52601160045260245ffd5b5050565b84518352602094850194869450909201916001016116ea565b6020906117ac611626565b828289010152016116ac565b60025460405163d62def8f60e01b815290602090829060049082906001600160a01b03165afa9081156103b3575f916117f9575b506001600160a01b031690565b611812915060203d6020116103fd576103ef8183610d0a565b5f6117ec565b6002546040516398468e5160e01b815290602090829060049082906001600160a01b03165afa9081156103b3575f916117f957506001600160a01b031690565b611896906020808095946040519684889551918291018487015e8401908282015f8152815193849201905e01015f815203601f198101845283610d0a565b565b337f00000000000000000000000000000000000000000000000000000000000000006001600160a01b031614806118e6575b156118e2576013193601368111611770573560601c90565b3390565b5060143610156118ca565b9190610d8d9061197d60018060a01b036002541694604051611951816101b660208201948a86526060604084015260116080840152701058d8d95cdcd3585b9859d95c94d85b1d607a1b60a084015260a0606084015260c0830190610fa2565b519020604080516001600160a01b039788166020820152939096169583019590955281606081016101b6565b6040516104926119906020820183610d0a565b80825261226b6020830139611858565b91600b92604051926040840152602083015281520160ff8153605590206001600160a01b031690565b906119f66101b691604051928391602083019560018060a01b031686526040808401526060830190610fa2565b51902090565b90805115611a37576020815191015ff5903d15198215166103b3576001600160a01b03821615611a2857565b63b06ebf3d60e01b5f5260045ffd5b631328927760e21b5f5260045ffdfe608060405261082480380380916100158261010c565b6080396101a08160800191126100f45761002d610175565b60a0516001600160401b0381116100f4578261004b916080016101f0565b60c0516001600160401b0381116100f45783610069916080016101f0565b61007360e061020d565b61007e61010061018b565b6101205161014051610160519161009661018061018b565b6101a0519094906001600160401b0381116100f4576100e59a6100bb9160800161021b565b956100c76101c061018b565b976100d36101e061018b565b996100df61020061018b565b9b61044b565b60405161017290816106928239f35b5f80fd5b634e487b7160e01b5f52604160045260245ffd5b6080601f91909101601f19168101906001600160401b0382119082101761013257604052565b6100f8565b604081019081106001600160401b0382111761013257604052565b601f909101601f19168101906001600160401b0382119082101761013257604052565b608051906001600160a01b03821682036100f457565b51906001600160a01b03821682036100f457565b6001600160401b03811161013257601f01601f191660200190565b9291926101c68261019f565b916101d46040519384610152565b8294818452818301116100f4578281602093845f96015e010152565b9080601f830112156100f457815161020a926020016101ba565b90565b519060ff821682036100f457565b9080601f830112156100f4578151916001600160401b038311610132578260051b916040519361024e6020850186610152565b8452602080850193830101918183116100f45760208101935b83851061027657505050505090565b84516001600160401b0381116100f4578201906040828503601f1901126100f457604051916102a483610137565b6102b06020820161018b565b835260408101516001600160401b0381116100f45760209101019084601f830112156100f4576020926102e986848680965191016101ba565b83820152815201940193610267565b805180835260209291819084018484015e5f828201840152601f01601f1916010190565b9080602083519182815201916020808360051b8301019401925f915b83831061034757505050505090565b909192939460208061037d600193601f198682030187526040838b51878060a01b038151168452015191818582015201906102f8565b97019301930191939290610338565b97610439976104499c979b9e9d9b61042897610415978c60406101609f986103d560ff916103c76104079b61018087526101808701906102f8565b9085820360208701526102f8565b9a1691015260018060a01b031660608d015260808c015260a08b015260c08a015260e089019060018060a01b03169052565b86820361010088015261031c565b6001600160a01b03909916610120850152565b6001600160a01b0316610140830152565b6001600160a01b03909216910152565b565b9b97939b9a96929a999591999894909860018060a01b03811680159081156104f3575b506104e4575f5160206108045f395f51905f5280546001600160a01b0319166001600160a01b039092169190911790556104a6610588565b60405163ab1fbaa560e01b6020820152909c909b8c9b6104c99b60248e0161038c565b03601f19810182526104db9082610152565b61044991610624565b63fd360a1d60e01b5f5260045ffd5b6040516301ffc9a760e01b8152634ea2ccdd60e01b60048201529150602090829060249082905afa908115610560575f91610531575b50155f61046e565b610553915060203d602011610559575b61054b8183610152565b810190610565565b5f610529565b503d610541565b61057d565b908160209103126100f4575180151581036100f45790565b6040513d5f823e3d90fd5b5f5160206108045f395f51905f5254604051632f3a3d5d60e01b815290602090829060049082906001600160a01b03165afa908115610560575f916105ea575b506001600160a01b038116156105db5790565b63daa2f31f60e01b5f5260045ffd5b90506020813d60201161061c575b8161060560209383610152565b810103126100f4576106169061018b565b5f6105c8565b3d91506105f8565b6001600160a01b0381161561068257815f929160208493519201905af43d1561067a573d906106528261019f565b916106606040519384610152565b82523d5f602084013e5b156106725750565b602081519101fd5b60609061066a565b63ee0a129760e01b5f5260045ffdfe608060405236156100a8577f1515746737424785433e0dda020fe774d11e0fab6d980530d355fada133c3c705460209060809060049082906001600160a01b0316632f3a3d5d60e01b82525afa80156100a3575f90610076575b6001600160a01b03811661011f5763daa2f31f60e01b5f5260045ffd5b5060203d60201161009c575b8061008f610097926100b7565b6080016100ee565b610059565b503d610082565b610114565b635d82995b60e01b5f5260045ffd5b601f80199101166080016080811067ffffffffffffffff8211176100da57604052565b634e487b7160e01b5f52604160045260245ffd5b602090607f190112610110576080516001600160a01b03811681036101105790565b5f80fd5b6040513d5f823e3d90fd5b5f8091368280378136915af43d5f803e15610138573d5ff35b3d5ffdfea2646970667358221220388da2f3c3d6ded0e13e2418a38f167543bcc9db7bf808a1a80858369b7e92ee64736f6c634300081c00331515746737424785433e0dda020fe774d11e0fab6d980530d355fada133c3c70608060405234610171576040610492803803809161001c82610189565b608039126101715761002c6101d7565b61003660a06101ed565b906001600160a01b03811680159081156100ff575b506100f0577f4ec051ecf420fd16e0db567197da76ec7f1f5f47763970d604b97e75cb0064d380546001600160a01b0319166001600160a01b039290921691821790556100e1916100ce916100dc906100a390610224565b60405163189acdbd60e31b60208201526001600160a01b039093166024840152919283906044820190565b03601f1981018452836101b4565b6102b1565b604051610164908161032e8239f35b633f997a3760e01b5f5260045ffd5b6040516301ffc9a760e01b8152633d1b15b560e21b60048201529150602090829060249082905afa90811561016c575f9161013d575b50155f61004b565b61015f915060203d602011610165575b61015781836101b4565b810190610201565b5f610135565b503d61014d565b610219565b5f80fd5b634e487b7160e01b5f52604160045260245ffd5b6080601f91909101601f19168101906001600160401b038211908210176101af57604052565b610175565b601f909101601f19168101906001600160401b038211908210176101af57604052565b608051906001600160a01b038216820361017157565b51906001600160a01b038216820361017157565b90816020910312610171575180151581036101715790565b6040513d5f823e3d90fd5b6040516344eecc1760e01b815290602090829060049082906001600160a01b03165afa90811561016c575f91610277575b506001600160a01b038116156102685790565b63099d3e0360e21b5f5260045ffd5b90506020813d6020116102a9575b81610292602093836101b4565b81010312610171576102a3906101ed565b5f610255565b3d9150610285565b6001600160a01b0381161561031e57815f929160208493519201905af43d15610316573d906001600160401b0382116101af57604051916102fc601f8201601f1916602001846101b4565b82523d5f602084013e5b1561030e5750565b602081519101fd5b606090610306565b63ee0a129760e01b5f5260045ffdfe608060405236156100dc577f4ec051ecf420fd16e0db567197da76ec7f1f5f47763970d604b97e75cb0064d3546344eecc1760e01b608090815260209160049082906001600160a01b03165afa80156100d1575f90610076575b6001600160a01b0381166100eb5763099d3e0360e21b5f5260045ffd5b5060203d6020116100ca575b601f19601f820116608001906080821067ffffffffffffffff8311176100b6576100b191604052608001610108565b610059565b634e487b7160e01b5f52604160045260245ffd5b503d610082565b6040513d5f823e3d90fd5b635d82995b60e01b5f5260045ffd5b5f8091368280378136915af43d5f803e15610104573d5ff35b3d5ffd5b602090607f19011261012a576080516001600160a01b038116810361012a5790565b5f80fdfea26469706673582212200e42f5e6836131c0aaf35292b0c6b7e8498f6d6d7ea58c3c201a96446839d0db64736f6c634300081c003302dd7bc7dec4dceedda775e58dd541e08a116c6c53815c0bd028192f7b626800f0c57e16840df040f15088dc2f81fe391c3923bec73e23a9662efc9c229c6a00a264697066735822122099b44ad8b1001df8a9753503be96671582dc61d3fded63834f93ce588b8fb3d264736f6c634300081c0033f0c57e16840df040f15088dc2f81fe391c3923bec73e23a9662efc9c229c6a00",
  "linkReferences": {},
  "deployedLinkReferences": {}
}