{
  "_format": "hh-sol-artifact-1",
  "contractName": "ATKFixedYieldScheduleFactory",
  "sourceName": "contracts/system/yield/ATKFixedYieldScheduleFactory.sol",
  "abi": [
    {
      "inputs": [
        {
          "internalType": "address",
          "name": "systemAddress_",
          "type": "address"
        },
        {
          "internalType": "address",
          "name": "forwarder",
          "type": "address"
        }
      ],
      "stateMutability": "nonpayable",
      "type": "constructor"
    },
    {
      "inputs": [],
      "name": "AccessControlBadConfirmation",
      "type": "error"
    },
    {
      "inputs": [
        {
          "internalType": "address",
          "name": "account",
          "type": "address"
        },
        {
          "internalType": "bytes32",
          "name": "neededRole",
          "type": "bytes32"
        }
      ],
      "name": "AccessControlUnauthorizedAccount",
      "type": "error"
    },
    {
      "inputs": [],
      "name": "InvalidAddress",
      "type": "error"
    },
    {
      "inputs": [],
      "name": "InvalidImplementation",
      "type": "error"
    },
    {
      "inputs": [],
      "name": "SameAddress",
      "type": "error"
    },
    {
      "anonymous": false,
      "inputs": [
        {
          "indexed": true,
          "internalType": "address",
          "name": "schedule",
          "type": "address"
        },
        {
          "indexed": true,
          "internalType": "address",
          "name": "creator",
          "type": "address"
        }
      ],
      "name": "ATKFixedYieldScheduleCreated",
      "type": "event"
    },
    {
      "anonymous": false,
      "inputs": [
        {
          "indexed": true,
          "internalType": "address",
          "name": "oldImplementation",
          "type": "address"
        },
        {
          "indexed": true,
          "internalType": "address",
          "name": "newImplementation",
          "type": "address"
        }
      ],
      "name": "ImplementationUpdated",
      "type": "event"
    },
    {
      "anonymous": false,
      "inputs": [
        {
          "indexed": true,
          "internalType": "bytes32",
          "name": "role",
          "type": "bytes32"
        },
        {
          "indexed": true,
          "internalType": "bytes32",
          "name": "previousAdminRole",
          "type": "bytes32"
        },
        {
          "indexed": true,
          "internalType": "bytes32",
          "name": "newAdminRole",
          "type": "bytes32"
        }
      ],
      "name": "RoleAdminChanged",
      "type": "event"
    },
    {
      "anonymous": false,
      "inputs": [
        {
          "indexed": true,
          "internalType": "bytes32",
          "name": "role",
          "type": "bytes32"
        },
        {
          "indexed": true,
          "internalType": "address",
          "name": "account",
          "type": "address"
        },
        {
          "indexed": true,
          "internalType": "address",
          "name": "sender",
          "type": "address"
        }
      ],
      "name": "RoleGranted",
      "type": "event"
    },
    {
      "anonymous": false,
      "inputs": [
        {
          "indexed": true,
          "internalType": "bytes32",
          "name": "role",
          "type": "bytes32"
        },
        {
          "indexed": true,
          "internalType": "address",
          "name": "account",
          "type": "address"
        },
        {
          "indexed": true,
          "internalType": "address",
          "name": "sender",
          "type": "address"
        }
      ],
      "name": "RoleRevoked",
      "type": "event"
    },
    {
      "inputs": [],
      "name": "DEFAULT_ADMIN_ROLE",
      "outputs": [
        {
          "internalType": "bytes32",
          "name": "",
          "type": "bytes32"
        }
      ],
      "stateMutability": "view",
      "type": "function"
    },
    {
      "inputs": [],
      "name": "allSchedulesLength",
      "outputs": [
        {
          "internalType": "uint256",
          "name": "count",
          "type": "uint256"
        }
      ],
      "stateMutability": "view",
      "type": "function"
    },
    {
      "inputs": [],
      "name": "atkFixedYieldScheduleImplementation",
      "outputs": [
        {
          "internalType": "address",
          "name": "",
          "type": "address"
        }
      ],
      "stateMutability": "view",
      "type": "function"
    },
    {
      "inputs": [
        {
          "internalType": "contract ISMARTYield",
          "name": "token",
          "type": "address"
        },
        {
          "internalType": "uint256",
          "name": "startTime",
          "type": "uint256"
        },
        {
          "internalType": "uint256",
          "name": "endTime",
          "type": "uint256"
        },
        {
          "internalType": "uint256",
          "name": "rate",
          "type": "uint256"
        },
        {
          "internalType": "uint256",
          "name": "interval",
          "type": "uint256"
        }
      ],
      "name": "create",
      "outputs": [
        {
          "internalType": "address",
          "name": "scheduleProxyAddress",
          "type": "address"
        }
      ],
      "stateMutability": "nonpayable",
      "type": "function"
    },
    {
      "inputs": [
        {
          "internalType": "bytes32",
          "name": "role",
          "type": "bytes32"
        }
      ],
      "name": "getRoleAdmin",
      "outputs": [
        {
          "internalType": "bytes32",
          "name": "",
          "type": "bytes32"
        }
      ],
      "stateMutability": "view",
      "type": "function"
    },
    {
      "inputs": [
        {
          "internalType": "bytes32",
          "name": "role",
          "type": "bytes32"
        },
        {
          "internalType": "address",
          "name": "account",
          "type": "address"
        }
      ],
      "name": "grantRole",
      "outputs": [],
      "stateMutability": "nonpayable",
      "type": "function"
    },
    {
      "inputs": [
        {
          "internalType": "bytes32",
          "name": "role",
          "type": "bytes32"
        },
        {
          "internalType": "address",
          "name": "account",
          "type": "address"
        }
      ],
      "name": "hasRole",
      "outputs": [
        {
          "internalType": "bool",
          "name": "",
          "type": "bool"
        }
      ],
      "stateMutability": "view",
      "type": "function"
    },
    {
      "inputs": [
        {
          "internalType": "address",
          "name": "forwarder",
          "type": "address"
        }
      ],
      "name": "isTrustedForwarder",
      "outputs": [
        {
          "internalType": "bool",
          "name": "",
          "type": "bool"
        }
      ],
      "stateMutability": "view",
      "type": "function"
    },
    {
      "inputs": [
        {
          "internalType": "bytes32",
          "name": "role",
          "type": "bytes32"
        },
        {
          "internalType": "address",
          "name": "callerConfirmation",
          "type": "address"
        }
      ],
      "name": "renounceRole",
      "outputs": [],
      "stateMutability": "nonpayable",
      "type": "function"
    },
    {
      "inputs": [
        {
          "internalType": "bytes32",
          "name": "role",
          "type": "bytes32"
        },
        {
          "internalType": "address",
          "name": "account",
          "type": "address"
        }
      ],
      "name": "revokeRole",
      "outputs": [],
      "stateMutability": "nonpayable",
      "type": "function"
    },
    {
      "inputs": [
        {
          "internalType": "bytes4",
          "name": "interfaceId",
          "type": "bytes4"
        }
      ],
      "name": "supportsInterface",
      "outputs": [
        {
          "internalType": "bool",
          "name": "",
          "type": "bool"
        }
      ],
      "stateMutability": "view",
      "type": "function"
    },
    {
      "inputs": [],
      "name": "trustedForwarder",
      "outputs": [
        {
          "internalType": "address",
          "name": "",
          "type": "address"
        }
      ],
      "stateMutability": "view",
      "type": "function"
    },
    {
      "inputs": [
        {
          "internalType": "address",
          "name": "_newImplementation",
          "type": "address"
        }
      ],
      "name": "updateImplementation",
      "outputs": [],
      "stateMutability": "nonpayable",
      "type": "function"
    }
  ],
  "bytecode": "0x60a03461017057601f61341238819003918201601f19168301916001600160401b0383118484101761015c57808492604094855283398101031261017057610052602061004b83610174565b9201610174565b9081608052610067610062610359565b610188565b50610078610073610359565b610211565b50610089610084610359565b6102b5565b50600280546001600160a01b0319166001600160a01b03929092169190911790556040519061201f8083016001600160401b0381118482101761015c57602092849261137384396001600160a01b031681520301905ff0801561015157600180546001600160a01b0319166001600160a01b03929092169182179055604051905f7faa3f731066a578e5f39b4215468d826cdd15373cbc0dfc9cb9bdc649718ef7da8180a3610fca90816103a982396080518181816104de015281816105550152610a330152f35b6040513d5f823e3d90fd5b634e487b7160e01b5f52604160045260245ffd5b5f80fd5b51906001600160a01b038216820361017057565b6001600160a01b0381165f9081525f5160206133f25f395f51905f52602052604090205460ff1661020c576001600160a01b038181165f9081525f5160206133f25f395f51905f5260205260409020805460ff191660011790556101ea610359565b16906001600160a01b03165f5f5160206133925f395f51905f528180a4600190565b505f90565b6001600160a01b0381165f9081525f5160206133b25f395f51905f52602052604090205460ff1661020c576001600160a01b038181165f9081525f5160206133b25f395f51905f5260205260409020805460ff19166001179055610273610359565b16906001600160a01b03167fecaefa0171c08a6ded02d98b9432940d3852ef2c7f5007661eb8de37c5a1adc55f5160206133925f395f51905f525f80a4600190565b6001600160a01b0381165f9081525f5160206133d25f395f51905f52602052604090205460ff1661020c576001600160a01b038181165f9081525f5160206133d25f395f51905f5260205260409020805460ff19166001179055610317610359565b16906001600160a01b03167ffc425f2263d0df187444b70e47283d622c70181c5baebb1306a01edba1ce184c5f5160206133925f395f51905f525f80a4600190565b6080516001600160a01b031633148061039d575b15610399576013193601368111610385573560601c90565b634e487b7160e01b5f52601160045260245ffd5b3390565b50601436101561036d56fe6080806040526004361015610012575f80fd5b5f3560e01c90816301ffc9a7146107ea57508063025b22bc14610669578063248a9ca3146106375780632f2ff15d146105fa57806336568abe146105a657806353ace7d714610589578063572b6c0514610535578063766c65721461050d5780637da0a877146104c957806391d1485414610481578063a217fddf14610467578063d547741f146104235763f9b6b0c4146100ab575f80fd5b3461030a5760a036600319011261030a576004356001600160a01b0381169081900361030a5760843590606435906044356024356100e7610a30565b6001600160a01b0381165f9081527f740c5e3e456bed56f053f960110118ba9b95a1f5359a82283516fb2e81b6e37e602052604090205460ff16156103df575060405160208101903082528460408201528260608201528360808201528560a08201528660c082015260c0815261015f60e082610883565b5190209461016b610a30565b90604051956104f7948588019488861067ffffffffffffffff8711176103cb5760e0978997610a9e8939308752602087015260408601526060850152608084015260a08301526001600160a01b031660c08201520301905ff580156102ff576001600160a01b03908116906101de610a30565b1660405190827f7dfedf0c1cb80fb57932ed59463008b17751cadef1ad1a5135a594bb7ae8768b5f80a3600354680100000000000000008110156103cb5760018101806003558110156103b75760035f527fc2575a0e9e593c00f959f8c92f12db2869c3395a3b0502d05e2516446f71f85b0180546001600160a01b031916831790556002546398468e5160e01b8252602090829060049082906001600160a01b03165afa9081156102ff575f91610375575b506001600160a01b0316908115158061030e575b6102b5575b602090604051908152f35b813b1561030a575f80926024604051809581936318fac88160e11b83528660048401525af19182156102ff576020926102ef575b506102aa565b5f6102f991610883565b5f6102e9565b6040513d5f823e3d90fd5b5f80fd5b506040516301ffc9a760e01b8152632986275d60e01b6004820152602081602481865afa9081156102ff575f91610346575b506102a5565b610368915060203d60201161036e575b6103608183610883565b8101906108a5565b5f610340565b503d610356565b90506020813d6020116103af575b8161039060209383610883565b8101031261030a57516001600160a01b038116810361030a575f610291565b3d9150610383565b634e487b7160e01b5f52603260045260245ffd5b634e487b7160e01b5f52604160045260245ffd5b63e2517d3f60e01b5f9081526001600160a01b03919091166004527ffc425f2263d0df187444b70e47283d622c70181c5baebb1306a01edba1ce184c602452604490fd5b3461030a57604036600319011261030a5761046560043561044261086d565b9061046061045b825f525f602052600160405f20015490565b6108bd565b6109a3565b005b3461030a575f36600319011261030a5760206040515f8152f35b3461030a57604036600319011261030a5761049a61086d565b6004355f525f60205260405f209060018060a01b03165f52602052602060ff60405f2054166040519015158152f35b3461030a575f36600319011261030a576040517f00000000000000000000000000000000000000000000000000000000000000006001600160a01b03168152602090f35b3461030a575f36600319011261030a576001546040516001600160a01b039091168152602090f35b3461030a57602036600319011261030a576020610550610857565b6040517f00000000000000000000000000000000000000000000000000000000000000006001600160a01b039081169216919091148152f35b3461030a575f36600319011261030a576020600354604051908152f35b3461030a57604036600319011261030a576105bf61086d565b6001600160a01b036105cf610a30565b166001600160a01b038216036105eb57610465906004356109a3565b63334bd91960e11b5f5260045ffd5b3461030a57604036600319011261030a5761046560043561061961086d565b9061063261045b825f525f602052600160405f20015490565b61090e565b3461030a57602036600319011261030a5760206106616004355f525f602052600160405f20015490565b604051908152f35b3461030a57602036600319011261030a57610682610857565b61068a610a30565b6001600160a01b0381165f9081527f9769bfd38a157c2a6815164fb8b55dc0fc22aaad03cfdf5386bb2759016cf74a602052604090205460ff16156107a657506001600160a01b03168015610797576001546001600160a01b03811690828214610788576040516301ffc9a760e01b81526304b5514760e11b6004820152602081602481875afa9081156102ff575f91610769575b501561075a576001600160a01b03191682176001557faa3f731066a578e5f39b4215468d826cdd15373cbc0dfc9cb9bdc649718ef7da5f80a3005b63340aafcd60e11b5f5260045ffd5b610782915060203d60201161036e576103608183610883565b8461071f565b63367558c360e01b5f5260045ffd5b63e6c4247b60e01b5f5260045ffd5b63e2517d3f60e01b5f9081526001600160a01b03919091166004527fecaefa0171c08a6ded02d98b9432940d3852ef2c7f5007661eb8de37c5a1adc5602452604490fd5b3461030a57602036600319011261030a576004359063ffffffff60e01b821680920361030a576020916347ed6adb60e11b811490811561082c575b5015158152f35b637965db0b60e01b811491508115610846575b5083610825565b6301ffc9a760e01b1490508361083f565b600435906001600160a01b038216820361030a57565b602435906001600160a01b038216820361030a57565b90601f8019910116810190811067ffffffffffffffff8211176103cb57604052565b9081602091031261030a5751801515810361030a5790565b6108c5610a30565b5f828152602081815260408083206001600160a01b038516845290915290205460ff16156108f1575050565b63e2517d3f60e01b5f5260018060a01b031660045260245260445ffd5b5f818152602081815260408083206001600160a01b038616845290915290205460ff1661099d575f818152602081815260408083206001600160a01b0386811685529252909120805460ff19166001179055610968610a30565b16916001600160a01b0316907f2f8788117e7eff1d82e926ec794901d17c78024a50270940304540a733656f0d5f80a4600190565b50505f90565b5f818152602081815260408083206001600160a01b038616845290915290205460ff161561099d575f818152602081815260408083206001600160a01b0386811685529252909120805460ff191690556109fb610a30565b16916001600160a01b0316907ff6391f5c32d9c69d2a47ea670b442974b53935d1edc7fd64eb21e047a839171b5f80a4600190565b337f00000000000000000000000000000000000000000000000000000000000000006001600160a01b03161480610a92575b15610a8e576013193601368111610a7a573560601c90565b634e487b7160e01b5f52601160045260245ffd5b3390565b506014361015610a6256fe608060405234610084576104f7388190036080601f8201601f19168101906001600160401b038211908210176100885760e0928291604052608039126100845761007561004a6100bf565b61005460a06100d5565b60c05160e0516101005191610120519361006f6101406100d5565b9561010c565b60405161017290816103658239f35b5f80fd5b634e487b7160e01b5f52604160045260245ffd5b601f909101601f19168101906001600160401b0382119082101761008857604052565b608051906001600160a01b038216820361008457565b51906001600160a01b038216820361008457565b90816020910312610084575180151581036100845790565b6040513d5f823e3d90fd5b9495919492939290916001600160a01b0382168015610209576040516301ffc9a760e01b81526347ed6adb60e11b600482015290602090829060249082905afa908115610247575f91610218575b50156102095761020796610202946101a16101f49460018060a01b031660018060a01b03195f5160206104d75f395f51905f525416175f5160206104d75f395f51905f5255565b6101a961024c565b604051635df5f96f60e01b60208201526001600160a01b03968716602482015260448101999099526064890197909752608488015260a487015290911660c4850152839060e4820190565b03601f19810184528361009c565b6102e8565b565b635c7bfbe960e01b5f5260045ffd5b61023a915060203d602011610240575b610232818361009c565b8101906100e9565b5f61015a565b503d610228565b610101565b5f5160206104d75f395f51905f5254604051633b3632b960e11b815290602090829060049082906001600160a01b03165afa908115610247575f916102ae575b506001600160a01b0381161561029f5790565b63489aaf0d60e11b5f5260045ffd5b90506020813d6020116102e0575b816102c96020938361009c565b81010312610084576102da906100d5565b5f61028c565b3d91506102bc565b6001600160a01b0381161561035557815f929160208493519201905af43d1561034d573d906001600160401b0382116100885760405191610333601f8201601f19166020018461009c565b82523d5f602084013e5b156103455750565b602081519101fd5b60609061033d565b63ee0a129760e01b5f5260045ffdfe608060405236156100a8577f89ed739d9295d62aeed983d930b6f4ecdc2f2725b67843de6f01647c76d87d7a5460209060809060049082906001600160a01b0316633b3632b960e11b82525afa80156100a3575f90610076575b6001600160a01b0381166100b75763489aaf0d60e11b5f5260045ffd5b5060203d60201161009c575b8061008f610097926100d4565b60800161010b565b610059565b503d610082565b610131565b635d82995b60e01b5f5260045ffd5b5f8091368280378136915af43d5f803e156100d0573d5ff35b3d5ffd5b601f80199101166080016080811067ffffffffffffffff8211176100f757604052565b634e487b7160e01b5f52604160045260245ffd5b602090607f19011261012d576080516001600160a01b038116810361012d5790565b5f80fd5b6040513d5f823e3d90fdfea26469706673582212208f004b6ceedaa12f2ffc259a6edf3c62190ff6c64fd004a34bebd687fca527ba64736f6c634300081c003389ed739d9295d62aeed983d930b6f4ecdc2f2725b67843de6f01647c76d87d7aa2646970667358221220ddb9f8cb9df625844ebc4a9ddecfc3a2a9aa2dc1df854a99c2b9c5d1e16df4bd64736f6c634300081c003360a034607457601f61201f38819003918201601f19168301916001600160401b03831184841017607857808492602094604052833981010312607457516001600160a01b0381168103607457608052604051611f92908161008d823960805181818161065d01528181610be60152611e030152f35b5f80fd5b634e487b7160e01b5f52604160045260245ffdfe6080806040526004361015610012575f80fd5b5f3560e01c90816301ffc9a7146112d95750806306040618146112bf5780630898c949146112a55780630b97bc86146112885780631cf7e1491461118c5780631f28d52c14611172578063248a9ca31461113b57806327614ec4146110db5780632c4e722e146110be5780632f2ff15d1461107457806336568abe146110205780633f4ba83a14610fa3578063406cf22914610c1a578063572b6c0514610bc65780635c975abb14610b985780635df5f96f146106d15780637158da7c146106a95780637b07882e1461068c5780637da0a87714610648578063817ea1441461062a5780638456cb59146105a757806391d1485414610552578063947a36fb14610535578063978fd53b1461051b5780639a95299a146104f85780639fc2f65a146104de578063a206b55014610412578063a217fddf146103f8578063c24a0f8b146103db578063c54293aa14610399578063d1ae38b81461037d578063d547741f1461032c578063e0ecad5a14610207578063f68e5218146101c85763fc0c546a1461019d575f80fd5b346101c4575f3660031901126101c4575f546040516001600160a01b039091168152602090f35b5f80fd5b346101c4575f3660031901126101c45760206101ff6101e5611e00565b6001600160a01b03165f9081526007602052604090205490565b604051908152f35b346101c45760203660031901126101c45761022061132c565b610228611a30565b610230611a68565b610238611b2c565b6001600160a01b03811690811561031d576001546040516370a0823160e01b81523060048201526001600160a01b0390911690602081602481855afa908115610312575f916102e0575b5080156102d1576102b7817f6f50cd6d1a8ee055bfba8d1998a1e71e64c3a0791f04001b50f038e3c106590994602094611dc2565b604051908152a260015f516020611f1d5f395f51905f5255005b6354ed247f60e11b5f5260045ffd5b90506020813d60201161030a575b816102fb60209383611448565b810103126101c4575184610282565b3d91506102ee565b6040513d5f823e3d90fd5b634e81208360e01b5f5260045ffd5b346101c45760403660031901126101c45761037b60043561034b611342565b90610376610371825f525f516020611edd5f395f51905f52602052600160405f20015490565b611ad0565b611cbb565b005b346101c4575f3660031901126101c45760206040516127108152f35b346101c4575f3660031901126101c4576103d76040516103c3816103bc816119f7565b0382611448565b604051918291602083526020830190611358565b0390f35b346101c4575f3660031901126101c4576020600354604051908152f35b346101c4575f3660031901126101c45760206040515f8152f35b346101c45760203660031901126101c45760043561042e611a30565b610436611b2c565b60015461048f906001600160a01b031661044e611e00565b6040516323b872dd60e01b60208201526001600160a01b039091166024820152306044820152606480820185905281529061048a608483611448565b611e84565b7fabda30aae4846dafeb67b57e0f9fb5af47de85525570e48ced61a3c99a4f8daf60206001600160a01b036104c2611e00565b1692604051908152a260015f516020611f1d5f395f51905f5255005b346101c4575f3660031901126101c45760206101ff61190b565b346101c45760203660031901126101c45760206101ff61051661132c565b611648565b346101c4575f3660031901126101c45760206101ff611612565b346101c4575f3660031901126101c4576020600554604051908152f35b346101c45760403660031901126101c45761056b611342565b6004355f525f516020611edd5f395f51905f5260205260405f209060018060a01b03165f52602052602060ff60405f2054166040519015158152f35b346101c4575f3660031901126101c4576105bf611a68565b6105c7611b2c565b600160ff195f516020611efd5f395f51905f525416175f516020611efd5f395f51905f52557f62e78cea01bee320cd4e420270b5ea74000d11b0c9f74754ebdbfc544b05a2586020610617611e00565b6040516001600160a01b039091168152a1005b346101c45760203660031901126101c45760206101ff6101e561132c565b346101c4575f3660031901126101c4576040517f00000000000000000000000000000000000000000000000000000000000000006001600160a01b03168152602090f35b346101c4575f3660031901126101c45760206101ff610516611e00565b346101c4575f3660031901126101c4576001546040516001600160a01b039091168152602090f35b346101c45760c03660031901126101c4576106ea61132c565b60a4356044356024356064356084356001600160a01b03851685036101c4575f516020611f3d5f395f51905f52549560ff8760401c16159667ffffffffffffffff811680159081610b90575b6001149081610b86575b159081610b7d575b50610b6e5767ffffffffffffffff1981166001175f516020611f3d5f395f51905f525587610b42575b5061077a611e59565b610782611e59565b61078a611e59565b610792611e59565b60015f516020611f1d5f395f51905f52556001600160a01b03168015610b33574284111580610b29575b610b1a5783851115610b0b578215610afc578115610aed575f80546001600160a01b031916821790556040516376d5de8560e01b815290602090829060049082905afa908115610312575f91610aab575b50600180546001600160a01b0319166001600160a01b039290921691821790551561031d578260025583600355816004558060055561085581610850858761138b565b611398565b600181018091116109f15761086981611d7c565b80519067ffffffffffffffff8211610a9757680100000000000000008211610a975760065482600655808310610a39575b5060200160065f525f5b828110610a05575050505f5b8181106109915787610933887f257d94ac1c207cc7e5778ea325814452897ee07f059fea0c16b7b6f347be78b1898989896108e961190b565b9060018060a01b036001541692604051958695865260208601526040850152606084015260e0608084015261092060e084016119f7565b9160a084015260c08301520390a1611b53565b5061093a57005b68ff0000000000000000195f516020611f3d5f395f51905f5254165f516020611f3d5f395f51905f52557fc7f505b2f371ae2175ee4913f4499e1f2633a7b5936321eed1cdaeb6115181d2602060405160018152a1005b60025490600181018082116109f1576001926109b36109b992600554906114a4565b906113b6565b6003548082116109e9575b506109ce82611478565b819291549060031b91821b915f19901b1916179055016108b0565b90508a6109c4565b634e487b7160e01b5f52601160045260245ffd5b60019060208351930192817ff652222313e28459528d920b65115c16c04f3efc82aaedc97be59f3f377c0d3f0155016108a4565b7ff652222313e28459528d920b65115c16c04f3efc82aaedc97be59f3f377c0d3f01827ff652222313e28459528d920b65115c16c04f3efc82aaedc97be59f3f377c0d3f015b818110610a8c575061089a565b5f8155600101610a7f565b634e487b7160e01b5f52604160045260245ffd5b90506020813d602011610ae5575b81610ac660209383611448565b810103126101c457516001600160a01b03811681036101c4578761080d565b3d9150610ab9565b6305fabb6160e41b5f5260045ffd5b636a43f8d160e01b5f5260045ffd5b63398145cf60e11b5f5260045ffd5b630bf784c760e01b5f5260045ffd5b50600254156107bc565b63c1ab6dc160e01b5f5260045ffd5b68ffffffffffffffffff191668010000000000000001175f516020611f3d5f395f51905f525587610771565b63f92ee8a960e01b5f5260045ffd5b90501589610748565b303b159150610740565b899150610736565b346101c4575f3660031901126101c457602060ff5f516020611efd5f395f51905f5254166040519015158152f35b346101c45760203660031901126101c4576020610be161132c565b6040517f00000000000000000000000000000000000000000000000000000000000000006001600160a01b039081169216919091148152f35b346101c4575f3660031901126101c457610c32611a30565b610c3a611b2c565b610c42611612565b60018110610dcc57610c52611e00565b6001600160a01b0381165f81815260076020526040902054909291600182019182106109f157828211610dcc575f546040516340f2de1b60e11b815260048101869052936001600160a01b0390911690602085602481855afa948515610312575f95610f6f575b505f92610cc6858361138b565b600181018091116109f157610cda90611d7c565b92610ce5868461138b565b600181018091116109f157610cf990611d7c565b96865b84811115610ddb575050508315610dcc577fb119cb4f54a2303fcdbc4f7a2c39dc38eb1368d94ac4571f4eddac9c4f0c28ba95610d6585610dab938a5f5260076020528560405f2055610d51826008546113b6565b6008556001546001600160a01b0316611dc2565b610d9d610d706114b7565b94610d7961190b565b9460405198899889526020890152604088015260e0606088015260e0870190611358565b908582036080870152611358565b9160a084015260c08301520390a260015f516020611f1d5f395f51905f5255005b633dfa692b60e11b5f5260045ffd5b5f1981018181116109f157806020610df5610e2b93611478565b905460405163277166bf60e11b81526001600160a01b038a16600482015260039290921b1c602482015292839081906044820190565b0381885afa80156103125784905f90610f3a575b610e51935080610f03575b5050611478565b9054604051630981b24d60e41b815260039290921b1c600482015290602082602481875afa8015610312575f90610ed0575b610e9692508381610e9b575b505061146a565b610cfc565b610eab610eb491612710936114a4565b600454906114a4565b04610ec8610ec28b8461138b565b8c611dae565b528b83610e8f565b506020823d8211610efb575b81610ee960209383611448565b810103126101c457610e969151610e83565b3d9150610edc565b610f16610eab610f1e93612710936114a4565b04809a6113b6565b98610f32610f2c8c8661138b565b8a611dae565b52838d610e4a565b50506020823d8211610f67575b81610f5460209383611448565b810103126101c45783610e519251610e3f565b3d9150610f47565b9094506020813d602011610f9b575b81610f8b60209383611448565b810103126101c457519386610cb9565b3d9150610f7e565b346101c4575f3660031901126101c457610fbb611a68565b5f516020611efd5f395f51905f525460ff8116156110115760ff19165f516020611efd5f395f51905f52557f5db9ee0a495bf2e6ff9c91a7834c1ba4fdd244a5e8aa4e537bd38aeae4b073aa6020610617611e00565b638dfc202b60e01b5f5260045ffd5b346101c45760403660031901126101c457611039611342565b6001600160a01b03611049611e00565b166001600160a01b038216036110655761037b90600435611cbb565b63334bd91960e11b5f5260045ffd5b346101c45760403660031901126101c45761037b600435611093611342565b906110b9610371825f525f516020611edd5f395f51905f52602052600160405f20015490565b611c10565b346101c4575f3660031901126101c4576020600454604051908152f35b346101c45760203660031901126101c45760043580158015611130575b611121575f1981019081116109f157611112602091611478565b90549060031b1c604051908152f35b6302e8f35960e31b5f5260045ffd5b5060065481116110f8565b346101c45760203660031901126101c45760206101ff6004355f525f516020611edd5f395f51905f52602052600160405f20015490565b346101c4575f3660031901126101c45760206101ff6114b7565b346101c45760403660031901126101c4576111a561132c565b602435906111b1611a30565b6111b9611a68565b6111c1611b2c565b6001600160a01b03811691821561031d578015611279576001546040516370a0823160e01b81523060048201526001600160a01b039091169190602081602481865afa908115610312575f91611247575b5081116102d1576102b7817f6f50cd6d1a8ee055bfba8d1998a1e71e64c3a0791f04001b50f038e3c106590994602094611dc2565b90506020813d602011611271575b8161126260209383611448565b810103126101c4575185611212565b3d9150611255565b63162908e360e11b5f5260045ffd5b346101c4575f3660031901126101c4576020600254604051908152f35b346101c4575f3660031901126101c45760206101ff611407565b346101c4575f3660031901126101c45760206101ff6113c3565b346101c45760203660031901126101c4576004359063ffffffff60e01b82168092036101c457602091637965db0b60e01b811490811561131b575b5015158152f35b6301ffc9a760e01b14905083611314565b600435906001600160a01b03821682036101c457565b602435906001600160a01b03821682036101c457565b90602080835192838152019201905f5b8181106113755750505090565b8251845260209384019390920191600101611368565b919082039182116109f157565b81156113a2570490565b634e487b7160e01b5f52601260045260245ffd5b919082018092116109f157565b600254804210611402576003544210156113fb576113e46113ed914261138b565b60055490611398565b600181018091116109f15790565b5060065490565b505f90565b60025480421061143d5760035442101561140257611425904261138b565b60055480156113a2578061143a92069061138b565b90565b61143a90429061138b565b90601f8019910116810190811067ffffffffffffffff821117610a9757604052565b5f1981146109f15760010190565b6006548110156114905760065f5260205f2001905f90565b634e487b7160e01b5f52603260045260245ffd5b818102929181159184041417156109f157565b6114bf611612565b60018110611402575f80546040516340f2de1b60e11b81526004810183905291926001600160a01b0390911691602081602481865afa908115610312575f916115e0575b5060015b8281111561152d5750505050600854808211156115275761143a9161138b565b50505f90565b5f1981018181116109f15761154190611478565b9054604051630981b24d60e41b815260039290921b1c6004820152602081602481885afa908115610312575f916115af575b5080611589575b506115849061146a565b611507565b61158491956127106115a1610eab866115a8956114a4565b04906113b6565b949061157a565b90506020813d82116115d8575b816115c960209383611448565b810103126101c457515f611573565b3d91506115bc565b90506020813d60201161160a575b816115fb60209383611448565b810103126101c457515f611503565b3d91506115ee565b60025480421115611402576003544210156113fb576113e4611634914261138b565b60065480821015611643575090565b905090565b6116506113c3565b6001811080611900575b6118f1575f546040516340f2de1b60e11b81526001600160a01b03848116600483018190529391921690602083602481855afa928315610312575f936118bd575b50835f52600760205260405f205494600186018096116109f1576116bd611612565b905f96828111156117ee575b5050505f93811515806117e3575b6116e9575b5050505061143a916113b6565b6020906024604051809581936370a0823160e01b835260048301525afa918215610312575f926117af575b5081611721575b806116dc565b9192509060018103611780575061174b610eab611750936117456002545b4261138b565b936114a4565b6114a4565b906005549161271083029280840461271014901517156109f15761143a9261177791611398565b90915f8061171b565b6001198101929083116109f157610eab61174b916117456117a361175096611478565b90549060031b1c61173f565b9091506020813d6020116117db575b816117cb60209383611448565b810103126101c45751905f611714565b3d91506117be565b5060035442106116d7565b8281116116c9575f1981018181116109f157602061180e61184492611478565b905460405163277166bf60e11b81526001600160a01b038716600482015260039290921b1c602482015291829081906044820190565b0381895afa908115610312575f9161188c575b508061186d575b506118689061146a565b6117ee565b61186891986127106115a1610eab8a611885956114a4565b979061185e565b90506020813d82116118b5575b816118a660209383611448565b810103126101c457515f611857565b3d9150611899565b9092506020813d6020116118e9575b816118d960209383611448565b810103126101c45751915f61169b565b3d91506118cc565b63b27f716560e01b5f5260045ffd5b50600254421061165a565b6003544210156119f3575f546040516318160ddd60e01b8152906001600160a01b0316602082600481845afa918215610312575f926119be575b50906020602492604051938480926340f2de1b60e11b82525f60048301525afa918215610312575f92611988575b50610eab61271092611984926114a4565b0490565b91506020823d6020116119b6575b816119a360209383611448565b810103126101c457905190610eab611973565b3d9150611996565b91506020823d6020116119eb575b816119d960209383611448565b810103126101c4579051906020611945565b3d91506119cc565b5f90565b602060065491828152019060065f5260205f20905f5b818110611a1a5750505090565b8254845260209093019260019283019201611a0d565b60025f516020611f1d5f395f51905f525414611a595760025f516020611f1d5f395f51905f5255565b633ee5aeb560e01b5f5260045ffd5b611a70611e00565b6001600160a01b0381165f9081527fb7db2dd08fcb62d0c9e08c51941cae53c267786a0b75803fb7960902fc8ef97d602052604090205460ff1615611ab25750565b63e2517d3f60e01b5f5260018060a01b03166004525f60245260445ffd5b611ad8611e00565b815f525f516020611edd5f395f51905f5260205260405f2060018060a01b0382165f5260205260ff60405f20541615611b0f575050565b63e2517d3f60e01b5f5260018060a01b031660045260245260445ffd5b60ff5f516020611efd5f395f51905f525416611b4457565b63d93c066560e01b5f5260045ffd5b6001600160a01b0381165f9081527fb7db2dd08fcb62d0c9e08c51941cae53c267786a0b75803fb7960902fc8ef97d602052604090205460ff16611402576001600160a01b038181165f9081527fb7db2dd08fcb62d0c9e08c51941cae53c267786a0b75803fb7960902fc8ef97d60205260409020805460ff19166001179055611bdb611e00565b16906001600160a01b03165f7f2f8788117e7eff1d82e926ec794901d17c78024a50270940304540a733656f0d8180a4600190565b5f8181525f516020611edd5f395f51905f52602090815260408083206001600160a01b038616845290915290205460ff16611527575f8181525f516020611edd5f395f51905f52602090815260408083206001600160a01b0386811685529252909120805460ff19166001179055611c86611e00565b16916001600160a01b0316907f2f8788117e7eff1d82e926ec794901d17c78024a50270940304540a733656f0d5f80a4600190565b5f8181525f516020611edd5f395f51905f52602090815260408083206001600160a01b038616845290915290205460ff1615611527575f8181525f516020611edd5f395f51905f52602090815260408083206001600160a01b0386811685529252909120805460ff19169055611d2f611e00565b16916001600160a01b0316907ff6391f5c32d9c69d2a47ea670b442974b53935d1edc7fd64eb21e047a839171b5f80a4600190565b67ffffffffffffffff8111610a975760051b60200190565b90611d8682611d64565b611d936040519182611448565b8281528092611da4601f1991611d64565b0190602036910137565b80518210156114905760209160051b010190565b60405163a9059cbb60e01b60208201526001600160a01b03929092166024830152604480830193909352918152611dfe9161048a606483611448565b565b337f00000000000000000000000000000000000000000000000000000000000000006001600160a01b03161480611e4e575b15611e4a5760131936013681116109f1573560601c90565b3390565b506014361015611e32565b60ff5f516020611f3d5f395f51905f525460401c1615611e7557565b631afcd79f60e31b5f5260045ffd5b905f602091828151910182855af115610312575f513d611ed357506001600160a01b0381163b155b611eb35750565b635274afe760e01b5f9081526001600160a01b0391909116600452602490fd5b60011415611eac56fe02dd7bc7dec4dceedda775e58dd541e08a116c6c53815c0bd028192f7b626800cd5ed15c6e187e77e9aee88184c21f4f2182ab5827cb3b7e07fbedcd63f033009b779b17422d0df92223018b32b4d1fa46e071723d6817e2486d003becc55f00f0c57e16840df040f15088dc2f81fe391c3923bec73e23a9662efc9c229c6a00a2646970667358221220906e6b1a71f9468555fb8ca9d42655070af37454fb5a8fc4a4dd4909129134bb64736f6c634300081c00332f8788117e7eff1d82e926ec794901d17c78024a50270940304540a733656f0d9769bfd38a157c2a6815164fb8b55dc0fc22aaad03cfdf5386bb2759016cf74a740c5e3e456bed56f053f960110118ba9b95a1f5359a82283516fb2e81b6e37ead3228b676f7d3cd4284a5443f17f1962b36e491b30a40b2405849e597ba5fb5",
  "linkReferences": {},
  "deployedLinkReferences": {}
}