{
  "_format": "hh-sol-artifact-1",
  "contractName": "ATKBondImplementation",
  "sourceName": "contracts/assets/bond/ATKBondImplementation.sol",
  "abi": [
    {
      "inputs": [
        {
          "internalType": "address",
          "name": "forwarder_",
          "type": "address"
        }
      ],
      "stateMutability": "nonpayable",
      "type": "constructor"
    },
    {
      "inputs": [
        {
          "internalType": "address",
          "name": "account",
          "type": "address"
        },
        {
          "internalType": "bytes32",
          "name": "neededRole",
          "type": "bytes32"
        }
      ],
      "name": "AccessControlUnauthorizedAccount",
      "type": "error"
    },
    {
      "inputs": [],
      "name": "BondAlreadyMatured",
      "type": "error"
    },
    {
      "inputs": [],
      "name": "BondInvalidMaturityDate",
      "type": "error"
    },
    {
      "inputs": [],
      "name": "BondNotYetMatured",
      "type": "error"
    },
    {
      "inputs": [],
      "name": "CannotRecoverSelf",
      "type": "error"
    },
    {
      "inputs": [],
      "name": "CheckpointUnorderedInsertion",
      "type": "error"
    },
    {
      "inputs": [
        {
          "internalType": "address",
          "name": "module",
          "type": "address"
        }
      ],
      "name": "DuplicateModule",
      "type": "error"
    },
    {
      "inputs": [
        {
          "internalType": "address",
          "name": "spender",
          "type": "address"
        },
        {
          "internalType": "uint256",
          "name": "allowance",
          "type": "uint256"
        },
        {
          "internalType": "uint256",
          "name": "needed",
          "type": "uint256"
        }
      ],
      "name": "ERC20InsufficientAllowance",
      "type": "error"
    },
    {
      "inputs": [
        {
          "internalType": "address",
          "name": "sender",
          "type": "address"
        },
        {
          "internalType": "uint256",
          "name": "balance",
          "type": "uint256"
        },
        {
          "internalType": "uint256",
          "name": "needed",
          "type": "uint256"
        }
      ],
      "name": "ERC20InsufficientBalance",
      "type": "error"
    },
    {
      "inputs": [
        {
          "internalType": "address",
          "name": "approver",
          "type": "address"
        }
      ],
      "name": "ERC20InvalidApprover",
      "type": "error"
    },
    {
      "inputs": [
        {
          "internalType": "address",
          "name": "receiver",
          "type": "address"
        }
      ],
      "name": "ERC20InvalidReceiver",
      "type": "error"
    },
    {
      "inputs": [
        {
          "internalType": "address",
          "name": "sender",
          "type": "address"
        }
      ],
      "name": "ERC20InvalidSender",
      "type": "error"
    },
    {
      "inputs": [
        {
          "internalType": "address",
          "name": "spender",
          "type": "address"
        }
      ],
      "name": "ERC20InvalidSpender",
      "type": "error"
    },
    {
      "inputs": [
        {
          "internalType": "uint256",
          "name": "newSupply",
          "type": "uint256"
        },
        {
          "internalType": "uint256",
          "name": "cap",
          "type": "uint256"
        }
      ],
      "name": "ExceededCap",
      "type": "error"
    },
    {
      "inputs": [],
      "name": "ExpectedPause",
      "type": "error"
    },
    {
      "inputs": [
        {
          "internalType": "uint256",
          "name": "available",
          "type": "uint256"
        },
        {
          "internalType": "uint256",
          "name": "requested",
          "type": "uint256"
        }
      ],
      "name": "FreezeAmountExceedsAvailableBalance",
      "type": "error"
    },
    {
      "inputs": [
        {
          "internalType": "uint256",
          "name": "requestedTimepoint",
          "type": "uint256"
        },
        {
          "internalType": "uint48",
          "name": "currentTimepoint",
          "type": "uint48"
        }
      ],
      "name": "FutureLookup",
      "type": "error"
    },
    {
      "inputs": [
        {
          "internalType": "uint256",
          "name": "frozenBalance",
          "type": "uint256"
        },
        {
          "internalType": "uint256",
          "name": "requested",
          "type": "uint256"
        }
      ],
      "name": "InsufficientFrozenTokens",
      "type": "error"
    },
    {
      "inputs": [],
      "name": "InsufficientRedeemableBalance",
      "type": "error"
    },
    {
      "inputs": [],
      "name": "InsufficientTokenBalance",
      "type": "error"
    },
    {
      "inputs": [],
      "name": "InsufficientUnderlyingBalance",
      "type": "error"
    },
    {
      "inputs": [
        {
          "internalType": "uint256",
          "name": "cap",
          "type": "uint256"
        }
      ],
      "name": "InvalidCap",
      "type": "error"
    },
    {
      "inputs": [
        {
          "internalType": "uint8",
          "name": "decimals",
          "type": "uint8"
        }
      ],
      "name": "InvalidDecimals",
      "type": "error"
    },
    {
      "inputs": [],
      "name": "InvalidFaceValue",
      "type": "error"
    },
    {
      "inputs": [],
      "name": "InvalidInitialization",
      "type": "error"
    },
    {
      "inputs": [],
      "name": "InvalidLostWallet",
      "type": "error"
    },
    {
      "inputs": [],
      "name": "InvalidRedemptionAmount",
      "type": "error"
    },
    {
      "inputs": [],
      "name": "InvalidUnderlyingAsset",
      "type": "error"
    },
    {
      "inputs": [],
      "name": "LengthMismatch",
      "type": "error"
    },
    {
      "inputs": [],
      "name": "MintNotCompliant",
      "type": "error"
    },
    {
      "inputs": [],
      "name": "ModuleAlreadyAdded",
      "type": "error"
    },
    {
      "inputs": [],
      "name": "ModuleNotFound",
      "type": "error"
    },
    {
      "inputs": [],
      "name": "NoTokensToRecover",
      "type": "error"
    },
    {
      "inputs": [],
      "name": "NotInitializing",
      "type": "error"
    },
    {
      "inputs": [],
      "name": "RecipientAddressFrozen",
      "type": "error"
    },
    {
      "inputs": [],
      "name": "ReentrancyGuardReentrantCall",
      "type": "error"
    },
    {
      "inputs": [
        {
          "internalType": "uint8",
          "name": "bits",
          "type": "uint8"
        },
        {
          "internalType": "uint256",
          "name": "value",
          "type": "uint256"
        }
      ],
      "name": "SafeCastOverflowedUintDowncast",
      "type": "error"
    },
    {
      "inputs": [
        {
          "internalType": "address",
          "name": "token",
          "type": "address"
        }
      ],
      "name": "SafeERC20FailedOperation",
      "type": "error"
    },
    {
      "inputs": [],
      "name": "SenderAddressFrozen",
      "type": "error"
    },
    {
      "inputs": [],
      "name": "TokenPaused",
      "type": "error"
    },
    {
      "inputs": [],
      "name": "TransferNotCompliant",
      "type": "error"
    },
    {
      "inputs": [],
      "name": "YieldScheduleActive",
      "type": "error"
    },
    {
      "inputs": [],
      "name": "YieldScheduleAlreadySet",
      "type": "error"
    },
    {
      "inputs": [],
      "name": "ZeroAddressNotAllowed",
      "type": "error"
    },
    {
      "anonymous": false,
      "inputs": [
        {
          "indexed": true,
          "internalType": "address",
          "name": "sender",
          "type": "address"
        },
        {
          "indexed": true,
          "internalType": "address",
          "name": "manager",
          "type": "address"
        }
      ],
      "name": "AccessManagerSet",
      "type": "event"
    },
    {
      "anonymous": false,
      "inputs": [
        {
          "indexed": true,
          "internalType": "address",
          "name": "sender",
          "type": "address"
        },
        {
          "indexed": true,
          "internalType": "address",
          "name": "userAddress",
          "type": "address"
        },
        {
          "indexed": true,
          "internalType": "bool",
          "name": "isFrozen",
          "type": "bool"
        }
      ],
      "name": "AddressFrozen",
      "type": "event"
    },
    {
      "anonymous": false,
      "inputs": [
        {
          "indexed": true,
          "internalType": "address",
          "name": "owner",
          "type": "address"
        },
        {
          "indexed": true,
          "internalType": "address",
          "name": "spender",
          "type": "address"
        },
        {
          "indexed": false,
          "internalType": "uint256",
          "name": "value",
          "type": "uint256"
        }
      ],
      "name": "Approval",
      "type": "event"
    },
    {
      "anonymous": false,
      "inputs": [
        {
          "indexed": true,
          "internalType": "uint256",
          "name": "timestamp",
          "type": "uint256"
        }
      ],
      "name": "BondMatured",
      "type": "event"
    },
    {
      "anonymous": false,
      "inputs": [
        {
          "indexed": true,
          "internalType": "address",
          "name": "sender",
          "type": "address"
        },
        {
          "indexed": true,
          "internalType": "address",
          "name": "holder",
          "type": "address"
        },
        {
          "indexed": false,
          "internalType": "uint256",
          "name": "bondAmount",
          "type": "uint256"
        },
        {
          "indexed": false,
          "internalType": "uint256",
          "name": "underlyingAmount",
          "type": "uint256"
        }
      ],
      "name": "BondRedeemed",
      "type": "event"
    },
    {
      "anonymous": false,
      "inputs": [
        {
          "indexed": true,
          "internalType": "address",
          "name": "sender",
          "type": "address"
        },
        {
          "indexed": true,
          "internalType": "address",
          "name": "from",
          "type": "address"
        },
        {
          "indexed": false,
          "internalType": "uint256",
          "name": "amount",
          "type": "uint256"
        }
      ],
      "name": "BurnCompleted",
      "type": "event"
    },
    {
      "anonymous": false,
      "inputs": [
        {
          "indexed": true,
          "internalType": "address",
          "name": "sender",
          "type": "address"
        },
        {
          "indexed": false,
          "internalType": "uint256",
          "name": "cap",
          "type": "uint256"
        }
      ],
      "name": "CapSet",
      "type": "event"
    },
    {
      "anonymous": false,
      "inputs": [
        {
          "indexed": true,
          "internalType": "address",
          "name": "sender",
          "type": "address"
        },
        {
          "indexed": true,
          "internalType": "address",
          "name": "account",
          "type": "address"
        },
        {
          "indexed": false,
          "internalType": "uint256",
          "name": "oldBalance",
          "type": "uint256"
        },
        {
          "indexed": false,
          "internalType": "uint256",
          "name": "newBalance",
          "type": "uint256"
        }
      ],
      "name": "CheckpointUpdated",
      "type": "event"
    },
    {
      "anonymous": false,
      "inputs": [
        {
          "indexed": true,
          "internalType": "address",
          "name": "sender",
          "type": "address"
        },
        {
          "indexed": true,
          "internalType": "address",
          "name": "_compliance",
          "type": "address"
        }
      ],
      "name": "ComplianceAdded",
      "type": "event"
    },
    {
      "anonymous": false,
      "inputs": [
        {
          "indexed": true,
          "internalType": "address",
          "name": "sender",
          "type": "address"
        },
        {
          "indexed": true,
          "internalType": "address",
          "name": "_module",
          "type": "address"
        },
        {
          "indexed": false,
          "internalType": "bytes",
          "name": "_params",
          "type": "bytes"
        }
      ],
      "name": "ComplianceModuleAdded",
      "type": "event"
    },
    {
      "anonymous": false,
      "inputs": [
        {
          "indexed": true,
          "internalType": "address",
          "name": "sender",
          "type": "address"
        },
        {
          "indexed": true,
          "internalType": "address",
          "name": "_module",
          "type": "address"
        }
      ],
      "name": "ComplianceModuleRemoved",
      "type": "event"
    },
    {
      "anonymous": false,
      "inputs": [
        {
          "indexed": true,
          "internalType": "address",
          "name": "sender",
          "type": "address"
        },
        {
          "indexed": true,
          "internalType": "address",
          "name": "token",
          "type": "address"
        },
        {
          "indexed": true,
          "internalType": "address",
          "name": "to",
          "type": "address"
        },
        {
          "indexed": false,
          "internalType": "uint256",
          "name": "amount",
          "type": "uint256"
        }
      ],
      "name": "ERC20TokenRecovered",
      "type": "event"
    },
    {
      "anonymous": false,
      "inputs": [
        {
          "indexed": true,
          "internalType": "address",
          "name": "sender",
          "type": "address"
        },
        {
          "indexed": true,
          "internalType": "address",
          "name": "_identityRegistry",
          "type": "address"
        }
      ],
      "name": "IdentityRegistryAdded",
      "type": "event"
    },
    {
      "anonymous": false,
      "inputs": [
        {
          "indexed": false,
          "internalType": "uint64",
          "name": "version",
          "type": "uint64"
        }
      ],
      "name": "Initialized",
      "type": "event"
    },
    {
      "anonymous": false,
      "inputs": [
        {
          "indexed": true,
          "internalType": "address",
          "name": "sender",
          "type": "address"
        },
        {
          "indexed": true,
          "internalType": "address",
          "name": "to",
          "type": "address"
        },
        {
          "indexed": false,
          "internalType": "uint256",
          "name": "amount",
          "type": "uint256"
        }
      ],
      "name": "MintCompleted",
      "type": "event"
    },
    {
      "anonymous": false,
      "inputs": [
        {
          "indexed": true,
          "internalType": "address",
          "name": "sender",
          "type": "address"
        },
        {
          "indexed": true,
          "internalType": "address",
          "name": "_module",
          "type": "address"
        },
        {
          "indexed": false,
          "internalType": "bytes",
          "name": "_params",
          "type": "bytes"
        }
      ],
      "name": "ModuleParametersUpdated",
      "type": "event"
    },
    {
      "anonymous": false,
      "inputs": [
        {
          "indexed": true,
          "internalType": "address",
          "name": "sender",
          "type": "address"
        }
      ],
      "name": "Paused",
      "type": "event"
    },
    {
      "anonymous": false,
      "inputs": [
        {
          "indexed": true,
          "internalType": "address",
          "name": "sender",
          "type": "address"
        },
        {
          "indexed": true,
          "internalType": "address",
          "name": "lostWallet",
          "type": "address"
        },
        {
          "indexed": true,
          "internalType": "address",
          "name": "newWallet",
          "type": "address"
        },
        {
          "indexed": false,
          "internalType": "address",
          "name": "investorOnchainID",
          "type": "address"
        }
      ],
      "name": "RecoverySuccess",
      "type": "event"
    },
    {
      "anonymous": false,
      "inputs": [
        {
          "indexed": true,
          "internalType": "address",
          "name": "sender",
          "type": "address"
        },
        {
          "indexed": false,
          "internalType": "uint256",
          "name": "amount",
          "type": "uint256"
        }
      ],
      "name": "Redeemed",
      "type": "event"
    },
    {
      "anonymous": false,
      "inputs": [
        {
          "indexed": true,
          "internalType": "address",
          "name": "sender",
          "type": "address"
        },
        {
          "indexed": true,
          "internalType": "address",
          "name": "user",
          "type": "address"
        },
        {
          "indexed": false,
          "internalType": "uint256",
          "name": "amount",
          "type": "uint256"
        }
      ],
      "name": "TokensFrozen",
      "type": "event"
    },
    {
      "anonymous": false,
      "inputs": [
        {
          "indexed": true,
          "internalType": "address",
          "name": "sender",
          "type": "address"
        },
        {
          "indexed": true,
          "internalType": "address",
          "name": "lostWallet",
          "type": "address"
        },
        {
          "indexed": true,
          "internalType": "address",
          "name": "newWallet",
          "type": "address"
        },
        {
          "indexed": false,
          "internalType": "uint256",
          "name": "amount",
          "type": "uint256"
        }
      ],
      "name": "TokensRecovered",
      "type": "event"
    },
    {
      "anonymous": false,
      "inputs": [
        {
          "indexed": true,
          "internalType": "address",
          "name": "sender",
          "type": "address"
        },
        {
          "indexed": true,
          "internalType": "address",
          "name": "user",
          "type": "address"
        },
        {
          "indexed": false,
          "internalType": "uint256",
          "name": "amount",
          "type": "uint256"
        }
      ],
      "name": "TokensUnfrozen",
      "type": "event"
    },
    {
      "anonymous": false,
      "inputs": [
        {
          "indexed": true,
          "internalType": "address",
          "name": "from",
          "type": "address"
        },
        {
          "indexed": true,
          "internalType": "address",
          "name": "to",
          "type": "address"
        },
        {
          "indexed": false,
          "internalType": "uint256",
          "name": "value",
          "type": "uint256"
        }
      ],
      "name": "Transfer",
      "type": "event"
    },
    {
      "anonymous": false,
      "inputs": [
        {
          "indexed": true,
          "internalType": "address",
          "name": "sender",
          "type": "address"
        },
        {
          "indexed": true,
          "internalType": "address",
          "name": "from",
          "type": "address"
        },
        {
          "indexed": true,
          "internalType": "address",
          "name": "to",
          "type": "address"
        },
        {
          "indexed": false,
          "internalType": "uint256",
          "name": "amount",
          "type": "uint256"
        }
      ],
      "name": "TransferCompleted",
      "type": "event"
    },
    {
      "anonymous": false,
      "inputs": [
        {
          "indexed": true,
          "internalType": "address",
          "name": "sender",
          "type": "address"
        }
      ],
      "name": "Unpaused",
      "type": "event"
    },
    {
      "anonymous": false,
      "inputs": [
        {
          "indexed": true,
          "internalType": "address",
          "name": "sender",
          "type": "address"
        },
        {
          "indexed": false,
          "internalType": "uint8",
          "name": "_newDecimals",
          "type": "uint8"
        },
        {
          "indexed": true,
          "internalType": "address",
          "name": "_newOnchainID",
          "type": "address"
        }
      ],
      "name": "UpdatedTokenInformation",
      "type": "event"
    },
    {
      "anonymous": false,
      "inputs": [
        {
          "indexed": true,
          "internalType": "address",
          "name": "sender",
          "type": "address"
        },
        {
          "indexed": true,
          "internalType": "address",
          "name": "schedule",
          "type": "address"
        }
      ],
      "name": "YieldScheduleSet",
      "type": "event"
    },
    {
      "inputs": [],
      "name": "CLOCK_MODE",
      "outputs": [
        {
          "internalType": "string",
          "name": "",
          "type": "string"
        }
      ],
      "stateMutability": "view",
      "type": "function"
    },
    {
      "inputs": [],
      "name": "accessManager",
      "outputs": [
        {
          "internalType": "address",
          "name": "",
          "type": "address"
        }
      ],
      "stateMutability": "view",
      "type": "function"
    },
    {
      "inputs": [
        {
          "internalType": "address",
          "name": "_module",
          "type": "address"
        },
        {
          "internalType": "bytes",
          "name": "_params",
          "type": "bytes"
        }
      ],
      "name": "addComplianceModule",
      "outputs": [],
      "stateMutability": "nonpayable",
      "type": "function"
    },
    {
      "inputs": [
        {
          "internalType": "address",
          "name": "owner",
          "type": "address"
        },
        {
          "internalType": "address",
          "name": "spender",
          "type": "address"
        }
      ],
      "name": "allowance",
      "outputs": [
        {
          "internalType": "uint256",
          "name": "",
          "type": "uint256"
        }
      ],
      "stateMutability": "view",
      "type": "function"
    },
    {
      "inputs": [
        {
          "internalType": "address",
          "name": "spender",
          "type": "address"
        },
        {
          "internalType": "uint256",
          "name": "value",
          "type": "uint256"
        }
      ],
      "name": "approve",
      "outputs": [
        {
          "internalType": "bool",
          "name": "",
          "type": "bool"
        }
      ],
      "stateMutability": "nonpayable",
      "type": "function"
    },
    {
      "inputs": [
        {
          "internalType": "address",
          "name": "account",
          "type": "address"
        }
      ],
      "name": "balanceOf",
      "outputs": [
        {
          "internalType": "uint256",
          "name": "",
          "type": "uint256"
        }
      ],
      "stateMutability": "view",
      "type": "function"
    },
    {
      "inputs": [
        {
          "internalType": "address",
          "name": "account",
          "type": "address"
        },
        {
          "internalType": "uint256",
          "name": "timepoint",
          "type": "uint256"
        }
      ],
      "name": "balanceOfAt",
      "outputs": [
        {
          "internalType": "uint256",
          "name": "",
          "type": "uint256"
        }
      ],
      "stateMutability": "view",
      "type": "function"
    },
    {
      "inputs": [
        {
          "internalType": "address[]",
          "name": "userAddresses",
          "type": "address[]"
        },
        {
          "internalType": "uint256[]",
          "name": "amounts",
          "type": "uint256[]"
        }
      ],
      "name": "batchBurn",
      "outputs": [],
      "stateMutability": "nonpayable",
      "type": "function"
    },
    {
      "inputs": [
        {
          "internalType": "address[]",
          "name": "fromList",
          "type": "address[]"
        },
        {
          "internalType": "address[]",
          "name": "toList",
          "type": "address[]"
        },
        {
          "internalType": "uint256[]",
          "name": "amounts",
          "type": "uint256[]"
        }
      ],
      "name": "batchForcedTransfer",
      "outputs": [],
      "stateMutability": "nonpayable",
      "type": "function"
    },
    {
      "inputs": [
        {
          "internalType": "address[]",
          "name": "userAddresses",
          "type": "address[]"
        },
        {
          "internalType": "uint256[]",
          "name": "amounts",
          "type": "uint256[]"
        }
      ],
      "name": "batchFreezePartialTokens",
      "outputs": [],
      "stateMutability": "nonpayable",
      "type": "function"
    },
    {
      "inputs": [
        {
          "internalType": "address[]",
          "name": "_toList",
          "type": "address[]"
        },
        {
          "internalType": "uint256[]",
          "name": "_amounts",
          "type": "uint256[]"
        }
      ],
      "name": "batchMint",
      "outputs": [],
      "stateMutability": "nonpayable",
      "type": "function"
    },
    {
      "inputs": [
        {
          "internalType": "address[]",
          "name": "userAddresses",
          "type": "address[]"
        },
        {
          "internalType": "bool[]",
          "name": "freeze",
          "type": "bool[]"
        }
      ],
      "name": "batchSetAddressFrozen",
      "outputs": [],
      "stateMutability": "nonpayable",
      "type": "function"
    },
    {
      "inputs": [
        {
          "internalType": "address[]",
          "name": "toList",
          "type": "address[]"
        },
        {
          "internalType": "uint256[]",
          "name": "amounts",
          "type": "uint256[]"
        }
      ],
      "name": "batchTransfer",
      "outputs": [],
      "stateMutability": "nonpayable",
      "type": "function"
    },
    {
      "inputs": [
        {
          "internalType": "address[]",
          "name": "userAddresses",
          "type": "address[]"
        },
        {
          "internalType": "uint256[]",
          "name": "amounts",
          "type": "uint256[]"
        }
      ],
      "name": "batchUnfreezePartialTokens",
      "outputs": [],
      "stateMutability": "nonpayable",
      "type": "function"
    },
    {
      "inputs": [
        {
          "internalType": "address",
          "name": "holder",
          "type": "address"
        }
      ],
      "name": "bondRedeemed",
      "outputs": [
        {
          "internalType": "uint256",
          "name": "redeemed",
          "type": "uint256"
        }
      ],
      "stateMutability": "view",
      "type": "function"
    },
    {
      "inputs": [
        {
          "internalType": "address",
          "name": "userAddress",
          "type": "address"
        },
        {
          "internalType": "uint256",
          "name": "amount",
          "type": "uint256"
        }
      ],
      "name": "burn",
      "outputs": [],
      "stateMutability": "nonpayable",
      "type": "function"
    },
    {
      "inputs": [],
      "name": "cap",
      "outputs": [
        {
          "internalType": "uint256",
          "name": "",
          "type": "uint256"
        }
      ],
      "stateMutability": "view",
      "type": "function"
    },
    {
      "inputs": [],
      "name": "clock",
      "outputs": [
        {
          "internalType": "uint48",
          "name": "",
          "type": "uint48"
        }
      ],
      "stateMutability": "view",
      "type": "function"
    },
    {
      "inputs": [],
      "name": "compliance",
      "outputs": [
        {
          "internalType": "contract ISMARTCompliance",
          "name": "",
          "type": "address"
        }
      ],
      "stateMutability": "view",
      "type": "function"
    },
    {
      "inputs": [],
      "name": "complianceModules",
      "outputs": [
        {
          "components": [
            {
              "internalType": "address",
              "name": "module",
              "type": "address"
            },
            {
              "internalType": "bytes",
              "name": "params",
              "type": "bytes"
            }
          ],
          "internalType": "struct SMARTComplianceModuleParamPair[]",
          "name": "",
          "type": "tuple[]"
        }
      ],
      "stateMutability": "view",
      "type": "function"
    },
    {
      "inputs": [],
      "name": "decimals",
      "outputs": [
        {
          "internalType": "uint8",
          "name": "",
          "type": "uint8"
        }
      ],
      "stateMutability": "view",
      "type": "function"
    },
    {
      "inputs": [],
      "name": "faceValue",
      "outputs": [
        {
          "internalType": "uint256",
          "name": "",
          "type": "uint256"
        }
      ],
      "stateMutability": "view",
      "type": "function"
    },
    {
      "inputs": [
        {
          "internalType": "address",
          "name": "lostWallet",
          "type": "address"
        },
        {
          "internalType": "address",
          "name": "newWallet",
          "type": "address"
        }
      ],
      "name": "forcedRecoverTokens",
      "outputs": [],
      "stateMutability": "nonpayable",
      "type": "function"
    },
    {
      "inputs": [
        {
          "internalType": "address",
          "name": "from",
          "type": "address"
        },
        {
          "internalType": "address",
          "name": "to",
          "type": "address"
        },
        {
          "internalType": "uint256",
          "name": "amount",
          "type": "uint256"
        }
      ],
      "name": "forcedTransfer",
      "outputs": [
        {
          "internalType": "bool",
          "name": "",
          "type": "bool"
        }
      ],
      "stateMutability": "nonpayable",
      "type": "function"
    },
    {
      "inputs": [
        {
          "internalType": "address",
          "name": "userAddress",
          "type": "address"
        },
        {
          "internalType": "uint256",
          "name": "amount",
          "type": "uint256"
        }
      ],
      "name": "freezePartialTokens",
      "outputs": [],
      "stateMutability": "nonpayable",
      "type": "function"
    },
    {
      "inputs": [
        {
          "internalType": "address",
          "name": "userAddress",
          "type": "address"
        }
      ],
      "name": "getFrozenTokens",
      "outputs": [
        {
          "internalType": "uint256",
          "name": "",
          "type": "uint256"
        }
      ],
      "stateMutability": "view",
      "type": "function"
    },
    {
      "inputs": [
        {
          "internalType": "bytes32",
          "name": "role",
          "type": "bytes32"
        },
        {
          "internalType": "address",
          "name": "account",
          "type": "address"
        }
      ],
      "name": "hasRole",
      "outputs": [
        {
          "internalType": "bool",
          "name": "",
          "type": "bool"
        }
      ],
      "stateMutability": "view",
      "type": "function"
    },
    {
      "inputs": [],
      "name": "identityRegistry",
      "outputs": [
        {
          "internalType": "contract ISMARTIdentityRegistry",
          "name": "",
          "type": "address"
        }
      ],
      "stateMutability": "view",
      "type": "function"
    },
    {
      "inputs": [
        {
          "internalType": "string",
          "name": "name_",
          "type": "string"
        },
        {
          "internalType": "string",
          "name": "symbol_",
          "type": "string"
        },
        {
          "internalType": "uint8",
          "name": "decimals_",
          "type": "uint8"
        },
        {
          "internalType": "address",
          "name": "onchainID_",
          "type": "address"
        },
        {
          "internalType": "uint256",
          "name": "cap_",
          "type": "uint256"
        },
        {
          "internalType": "uint256",
          "name": "maturityDate_",
          "type": "uint256"
        },
        {
          "internalType": "uint256",
          "name": "faceValue_",
          "type": "uint256"
        },
        {
          "internalType": "address",
          "name": "underlyingAsset_",
          "type": "address"
        },
        {
          "components": [
            {
              "internalType": "address",
              "name": "module",
              "type": "address"
            },
            {
              "internalType": "bytes",
              "name": "params",
              "type": "bytes"
            }
          ],
          "internalType": "struct SMARTComplianceModuleParamPair[]",
          "name": "initialModulePairs_",
          "type": "tuple[]"
        },
        {
          "internalType": "address",
          "name": "identityRegistry_",
          "type": "address"
        },
        {
          "internalType": "address",
          "name": "compliance_",
          "type": "address"
        },
        {
          "internalType": "address",
          "name": "accessManager_",
          "type": "address"
        }
      ],
      "name": "initialize",
      "outputs": [],
      "stateMutability": "nonpayable",
      "type": "function"
    },
    {
      "inputs": [
        {
          "internalType": "address",
          "name": "userAddress",
          "type": "address"
        }
      ],
      "name": "isFrozen",
      "outputs": [
        {
          "internalType": "bool",
          "name": "",
          "type": "bool"
        }
      ],
      "stateMutability": "view",
      "type": "function"
    },
    {
      "inputs": [],
      "name": "isMatured",
      "outputs": [
        {
          "internalType": "bool",
          "name": "",
          "type": "bool"
        }
      ],
      "stateMutability": "view",
      "type": "function"
    },
    {
      "inputs": [
        {
          "internalType": "address",
          "name": "forwarder",
          "type": "address"
        }
      ],
      "name": "isTrustedForwarder",
      "outputs": [
        {
          "internalType": "bool",
          "name": "",
          "type": "bool"
        }
      ],
      "stateMutability": "view",
      "type": "function"
    },
    {
      "inputs": [],
      "name": "mature",
      "outputs": [],
      "stateMutability": "nonpayable",
      "type": "function"
    },
    {
      "inputs": [],
      "name": "maturityDate",
      "outputs": [
        {
          "internalType": "uint256",
          "name": "",
          "type": "uint256"
        }
      ],
      "stateMutability": "view",
      "type": "function"
    },
    {
      "inputs": [
        {
          "internalType": "address",
          "name": "_to",
          "type": "address"
        },
        {
          "internalType": "uint256",
          "name": "_amount",
          "type": "uint256"
        }
      ],
      "name": "mint",
      "outputs": [],
      "stateMutability": "nonpayable",
      "type": "function"
    },
    {
      "inputs": [],
      "name": "missingUnderlyingAmount",
      "outputs": [
        {
          "internalType": "uint256",
          "name": "",
          "type": "uint256"
        }
      ],
      "stateMutability": "view",
      "type": "function"
    },
    {
      "inputs": [],
      "name": "name",
      "outputs": [
        {
          "internalType": "string",
          "name": "",
          "type": "string"
        }
      ],
      "stateMutability": "view",
      "type": "function"
    },
    {
      "inputs": [],
      "name": "onchainID",
      "outputs": [
        {
          "internalType": "address",
          "name": "",
          "type": "address"
        }
      ],
      "stateMutability": "view",
      "type": "function"
    },
    {
      "inputs": [],
      "name": "pause",
      "outputs": [],
      "stateMutability": "nonpayable",
      "type": "function"
    },
    {
      "inputs": [],
      "name": "paused",
      "outputs": [
        {
          "internalType": "bool",
          "name": "",
          "type": "bool"
        }
      ],
      "stateMutability": "view",
      "type": "function"
    },
    {
      "inputs": [
        {
          "internalType": "address",
          "name": "token",
          "type": "address"
        },
        {
          "internalType": "address",
          "name": "to",
          "type": "address"
        },
        {
          "internalType": "uint256",
          "name": "amount",
          "type": "uint256"
        }
      ],
      "name": "recoverERC20",
      "outputs": [],
      "stateMutability": "nonpayable",
      "type": "function"
    },
    {
      "inputs": [
        {
          "internalType": "address",
          "name": "lostWallet",
          "type": "address"
        }
      ],
      "name": "recoverTokens",
      "outputs": [],
      "stateMutability": "nonpayable",
      "type": "function"
    },
    {
      "inputs": [
        {
          "internalType": "uint256",
          "name": "amount",
          "type": "uint256"
        }
      ],
      "name": "redeem",
      "outputs": [
        {
          "internalType": "bool",
          "name": "",
          "type": "bool"
        }
      ],
      "stateMutability": "nonpayable",
      "type": "function"
    },
    {
      "inputs": [],
      "name": "redeemAll",
      "outputs": [
        {
          "internalType": "bool",
          "name": "",
          "type": "bool"
        }
      ],
      "stateMutability": "nonpayable",
      "type": "function"
    },
    {
      "inputs": [
        {
          "internalType": "address",
          "name": "_module",
          "type": "address"
        }
      ],
      "name": "removeComplianceModule",
      "outputs": [],
      "stateMutability": "nonpayable",
      "type": "function"
    },
    {
      "inputs": [
        {
          "internalType": "address",
          "name": "userAddress",
          "type": "address"
        },
        {
          "internalType": "bool",
          "name": "freeze",
          "type": "bool"
        }
      ],
      "name": "setAddressFrozen",
      "outputs": [],
      "stateMutability": "nonpayable",
      "type": "function"
    },
    {
      "inputs": [
        {
          "internalType": "address",
          "name": "_compliance",
          "type": "address"
        }
      ],
      "name": "setCompliance",
      "outputs": [],
      "stateMutability": "nonpayable",
      "type": "function"
    },
    {
      "inputs": [
        {
          "internalType": "address",
          "name": "_identityRegistry",
          "type": "address"
        }
      ],
      "name": "setIdentityRegistry",
      "outputs": [],
      "stateMutability": "nonpayable",
      "type": "function"
    },
    {
      "inputs": [
        {
          "internalType": "address",
          "name": "_onchainID",
          "type": "address"
        }
      ],
      "name": "setOnchainID",
      "outputs": [],
      "stateMutability": "nonpayable",
      "type": "function"
    },
    {
      "inputs": [
        {
          "internalType": "address",
          "name": "_module",
          "type": "address"
        },
        {
          "internalType": "bytes",
          "name": "_params",
          "type": "bytes"
        }
      ],
      "name": "setParametersForComplianceModule",
      "outputs": [],
      "stateMutability": "nonpayable",
      "type": "function"
    },
    {
      "inputs": [
        {
          "internalType": "address",
          "name": "schedule",
          "type": "address"
        }
      ],
      "name": "setYieldSchedule",
      "outputs": [],
      "stateMutability": "nonpayable",
      "type": "function"
    },
    {
      "inputs": [
        {
          "internalType": "bytes4",
          "name": "interfaceId",
          "type": "bytes4"
        }
      ],
      "name": "supportsInterface",
      "outputs": [
        {
          "internalType": "bool",
          "name": "",
          "type": "bool"
        }
      ],
      "stateMutability": "view",
      "type": "function"
    },
    {
      "inputs": [],
      "name": "symbol",
      "outputs": [
        {
          "internalType": "string",
          "name": "",
          "type": "string"
        }
      ],
      "stateMutability": "view",
      "type": "function"
    },
    {
      "inputs": [],
      "name": "totalSupply",
      "outputs": [
        {
          "internalType": "uint256",
          "name": "",
          "type": "uint256"
        }
      ],
      "stateMutability": "view",
      "type": "function"
    },
    {
      "inputs": [
        {
          "internalType": "uint256",
          "name": "timepoint",
          "type": "uint256"
        }
      ],
      "name": "totalSupplyAt",
      "outputs": [
        {
          "internalType": "uint256",
          "name": "",
          "type": "uint256"
        }
      ],
      "stateMutability": "view",
      "type": "function"
    },
    {
      "inputs": [],
      "name": "totalUnderlyingNeeded",
      "outputs": [
        {
          "internalType": "uint256",
          "name": "",
          "type": "uint256"
        }
      ],
      "stateMutability": "view",
      "type": "function"
    },
    {
      "inputs": [
        {
          "internalType": "address",
          "name": "_to",
          "type": "address"
        },
        {
          "internalType": "uint256",
          "name": "_amount",
          "type": "uint256"
        }
      ],
      "name": "transfer",
      "outputs": [
        {
          "internalType": "bool",
          "name": "",
          "type": "bool"
        }
      ],
      "stateMutability": "nonpayable",
      "type": "function"
    },
    {
      "inputs": [
        {
          "internalType": "address",
          "name": "from",
          "type": "address"
        },
        {
          "internalType": "address",
          "name": "to",
          "type": "address"
        },
        {
          "internalType": "uint256",
          "name": "value",
          "type": "uint256"
        }
      ],
      "name": "transferFrom",
      "outputs": [
        {
          "internalType": "bool",
          "name": "",
          "type": "bool"
        }
      ],
      "stateMutability": "nonpayable",
      "type": "function"
    },
    {
      "inputs": [],
      "name": "trustedForwarder",
      "outputs": [
        {
          "internalType": "address",
          "name": "",
          "type": "address"
        }
      ],
      "stateMutability": "view",
      "type": "function"
    },
    {
      "inputs": [],
      "name": "underlyingAsset",
      "outputs": [
        {
          "internalType": "contract IERC20",
          "name": "",
          "type": "address"
        }
      ],
      "stateMutability": "view",
      "type": "function"
    },
    {
      "inputs": [],
      "name": "underlyingAssetBalance",
      "outputs": [
        {
          "internalType": "uint256",
          "name": "",
          "type": "uint256"
        }
      ],
      "stateMutability": "view",
      "type": "function"
    },
    {
      "inputs": [
        {
          "internalType": "address",
          "name": "userAddress",
          "type": "address"
        },
        {
          "internalType": "uint256",
          "name": "amount",
          "type": "uint256"
        }
      ],
      "name": "unfreezePartialTokens",
      "outputs": [],
      "stateMutability": "nonpayable",
      "type": "function"
    },
    {
      "inputs": [],
      "name": "unpause",
      "outputs": [],
      "stateMutability": "nonpayable",
      "type": "function"
    },
    {
      "inputs": [],
      "name": "withdrawableUnderlyingAmount",
      "outputs": [
        {
          "internalType": "uint256",
          "name": "",
          "type": "uint256"
        }
      ],
      "stateMutability": "view",
      "type": "function"
    },
    {
      "inputs": [
        {
          "internalType": "address",
          "name": "",
          "type": "address"
        }
      ],
      "name": "yieldBasisPerUnit",
      "outputs": [
        {
          "internalType": "uint256",
          "name": "",
          "type": "uint256"
        }
      ],
      "stateMutability": "view",
      "type": "function"
    },
    {
      "inputs": [],
      "name": "yieldSchedule",
      "outputs": [
        {
          "internalType": "address",
          "name": "",
          "type": "address"
        }
      ],
      "stateMutability": "view",
      "type": "function"
    },
    {
      "inputs": [],
      "name": "yieldToken",
      "outputs": [
        {
          "internalType": "contract IERC20",
          "name": "",
          "type": "address"
        }
      ],
      "stateMutability": "view",
      "type": "function"
    }
  ],
  "bytecode": "0x60a03461008857601f61529238819003918201601f19168301916001600160401b0383118484101761008c5780849260209460405283398101031261008857516001600160a01b0381168103610088576100576100a0565b6080526100626100a0565b60405161513b90816101378239608051818181611152015281816113db01526139a40152f35b5f80fd5b634e487b7160e01b5f52604160045260245ffd5b5f5160206152725f395f51905f525460ff8160401c16610127576002600160401b03196001600160401b038216016100d55750565b6001600160401b0319166001600160401b039081175f5160206152725f395f51905f52556040519081527fc7f505b2f371ae2175ee4913f4499e1f2633a7b5936321eed1cdaeb6115181d290602090a1565b63f92ee8a960e01b5f5260045ffdfe60806040526004361015610011575f80fd5b5f3560e01c806301ffc9a71461043f57806306fdde031461043a578063095ea7b3146104355780631171bda914610430578063125c4a331461042b578063134e18f414610426578063158b1a571461042157806316114acd1461041c57806318160ddd146104175780631a7af379146104125780631ef5205f1461040d5780631fe56f7d1461040857806323b872dd1461040357806328d99f31146103fe5780632f0004f0146103f95780632f4350c2146103f4578063313ce567146103ef578063355274ea146103ea5780633d1ddc5b146103e55780633f4ba83a146103e057806340c10f19146103db57806342a47abc146103d657806344fd9caa146103d15780634710362d146103cc5780634a6cc677146103c75780634bf5d7e9146103c25780634ee2cd7e146103bd578063572b6c05146103b85780635c975abb146103b35780636290865d146103ae57806362b9333e146103a957806368573107146103a457806370a082311461039f5780637158da7c1461039a57806376d5de851461039a57806377d2f8d9146103955780637da0a877146103905780637f2b6a0d1461038b57806381e5bc36146103865780638456cb591461038157806387b652071461037c57806388d695b21461037757806391d148541461037257806391ddadf41461036d57806395d89b4114610368578063981b24d0146103635780639dc29fac1461035e5780639fc1d0e714610359578063a7fc9e3f14610354578063a9059cbb1461034f578063a98ac17a1461034a578063ab1fbaa514610345578063aba6370514610340578063c14e1a181461033b578063c69c09cf14610336578063c76f3d9b14610331578063cbf3f8611461032c578063d3d71a1714610327578063d527473814610322578063d59624b41461031d578063d819dccf14610318578063db006a7514610313578063dd62ed3e1461030e578063e583983614610309578063f898178914610304578063fc7e5fa8146102ff5763fdcb6068146102fa575f80fd5b61216e565b61210f565b61208f565b61204f565b612029565b61200d565b611fc2565b611fa5565b611f08565b611edf565b611e50565b611d0c565b611cd4565b611cb0565b611c84565b611bc9565b61190a565b611867565b61183f565b61181b565b6117e7565b6116f4565b611637565b61160c565b6115d8565b61157c565b6114cb565b611455565b61142c565b61140a565b6113c6565b6112c0565b611298565b611276565b611217565b6111f5565b6111a8565b611186565b61112e565b611096565b611046565b610fe7565b610f88565b610f6b565b610e8d565b610e54565b610de0565b610d3e565b610d21565b610d01565b610cd9565b610c7d565b610c42565b610b37565b610b03565b6109cb565b6108f9565b610850565b610822565b6107e7565b6107bf565b610786565b61075d565b610666565b610521565b346104db5760203660031901126104db5760043563ffffffff60e01b81168091036104db5761048d9063563138fd60e01b8114908115610491575b5060405190151581529081906020820190565b0390f35b8091505f52600160205260ff60405f2054169081156104ca575b81156104b9575b505f61047a565b6301ffc9a760e01b1490505f6104b2565b63074ece2b60e41b811491506104ab565b5f80fd5b5f9103126104db57565b805180835260209291819084018484015e5f828201840152601f01601f1916010190565b90602061051e9281815201906104e9565b90565b346104db575f3660031901126104db576040515f5f5160206150065f395f51905f525461054d8161221c565b80845290600181169081156105eb5750600114610581575b61048d8361057581850382611a3d565b6040519182918261050d565b5f5160206150065f395f51905f525f9081527f2ae08a8e29253f69ac5d979a101956ab8f8d9d7ded63fa7a83b16fc47648eab0939250905b8082106105d157509091508101602001610575610565565b9192600181602092548385880101520191019092916105b9565b60ff191660208086019190915291151560051b840190910191506105759050610565565b6001600160a01b038116036104db57565b6064359061062d8261060f565b565b60e4359061062d8261060f565b610124359061062d8261060f565b610144359061062d8261060f565b610164359061062d8261060f565b346104db5760403660031901126104db576004356106838161060f565b6024359061068f6139a1565b6001600160a01b0381169190821561071e576001600160a01b03821693841561070b57806106f87f8c5be1e5ebec7d5bd14f71427d1e84f3dd0314c0f7b2291e5b200ac8c7c3b925946106e3602095610be5565b9060018060a01b03165f5260205260405f2090565b55604051908152a3602060405160018152f35b634a1406b160e11b5f525f60045260245ffd5b63e602df0560e01b5f525f60045260245ffd5b60609060031901126104db576004356107498161060f565b906024356107568161060f565b9060443590565b346104db5761078461076e36610731565b9161077f61077a6139a1565b612616565b6127ee565b005b346104db5760403660031901126104db576107846004356107a68161060f565b602435906107ba6107b56139a1565b61268c565b612905565b346104db575f3660031901126104db576003546040516001600160a01b039091168152602090f35b346104db5760203660031901126104db576004356108048161060f565b60018060a01b03165f52600a602052602060405f2054604051908152f35b346104db5760203660031901126104db576107846004356108428161060f565b61084a6139a1565b906129dc565b346104db575f3660031901126104db5760205f5160206150665f395f51905f5254604051908152f35b9181601f840112156104db578235916001600160401b0383116104db576020808501948460051b0101116104db57565b60406003198201126104db576004356001600160401b0381116104db57816108d391600401610879565b92909291602435906001600160401b0382116104db576108f591600401610879565b9091565b346104db57610907366108a9565b906109136107b56139a1565b818303610961575f5b83811061092557005b8061095b6109366001938789612bb5565b356109408161060f565b61094b838787612bb5565b359061095682611cca565b613845565b0161091c565b631fec674760e31b5f5260045ffd5b60406003198201126104db576004356109888161060f565b916024356001600160401b0381116104db57826023820112156104db578060040135926001600160401b0384116104db57602484830101116104db576024019190565b346104db576109d936610970565b6109ec6109e79392936139a1565b612702565b6001600160a01b0382165f9081526005602052604090205415610af457600454610a26906001600160a01b03165b6001600160a01b031690565b90813b156104db575f604051809363e50bcad360e01b82528180610a4f868a8a60048501612be5565b03915afa918215610aef577f8191c9e77ca554fa2d71249ed7be789e36d034b36dbf87dbe2a03dd92483cd1592610ad5575b50610aa68185610aa18660018060a01b03165f52600660205260405f2090565b612ca4565b6001600160a01b03610ab66139a1565b1692610ad060405192839260018060a01b03169683612d6c565b0390a3005b80610ae35f610ae993611a3d565b806104df565b5f610a81565b612477565b631c94b02360e21b5f5260045ffd5b346104db5760403660031901126104db57610784600435610b238161060f565b60243590610b326107b56139a1565b612d7d565b346104db57610b4536610731565b90610b4e6139a1565b92610b5c846106e383610be5565b54935f198510610b7d575b50610b729350612dfc565b602060405160018152f35b838510610bbc576001600160a01b0382161561071e576001600160a01b0381161561070b57610bb584610b729603916106e384610be5565b555f610b67565b637dc7a0d960e11b5f9081526001600160a01b0390911660045260248590526044849052606490fd5b6001600160a01b03165f9081527f52c63247e1f47db19d5ce0460030c497f067ca4cebf71ba98eeadabe20bace016020526040902090565b6001600160a01b03165f9081525f5160206150265f395f51905f526020526040902090565b346104db5760203660031901126104db57600435610c5f8161060f565b60018060a01b03165f526014602052602060405f2054604051908152f35b346104db575f3660031901126104db57610ca45f5160206150665f395f51905f5254613971565b610cac6125c0565b9080821115610ccf578103908111610cca576020905b604051908152f35b612196565b505060205f610cc2565b346104db575f3660031901126104db57610b72610cfc610cf76139a1565b6121c5565b612f48565b346104db575f3660031901126104db57602060ff60025416604051908152f35b346104db575f3660031901126104db576020600f54604051908152f35b346104db5760203660031901126104db57610d90600435610d5e8161060f565b610d696109e76139a1565b60028054610100600160a81b03191660089290921b610100600160a81b0316919091179055565b610d986139a1565b60025460405160ff8216815260089190911c6001600160a01b039081169216907fc5e2e9318498e1a253726df4112345358bfcbadd5aab57c99d8c7f590ab0d32a90602090a3005b346104db575f3660031901126104db57610dfb61077a6139a1565b600b5460ff811615610e455760ff1916600b556001600160a01b03610e1e6139a1565b167f5db9ee0a495bf2e6ff9c91a7834c1ba4fdd244a5e8aa4e537bd38aeae4b073aa5f80a2005b63e779249560e01b5f5260045ffd5b346104db5760403660031901126104db57610784600435610e748161060f565b60243590610e88610e836139a1565b612778565b613030565b346104db5760603660031901126104db576004356001600160401b0381116104db57610ebd903690600401610879565b6024356001600160401b0381116104db57610edc903690600401610879565b91906044356001600160401b0381116104db57610efd903690600401610879565b94610f096107b56139a1565b84840361096157858503610961575f5b848110610f2257005b80610f64610f336001938886612bb5565b35610f3d8161060f565b610f48838a89612bb5565b35610f528161060f565b610f5d848c89612bb5565b35916132c8565b5001610f19565b346104db575f3660031901126104db576020601254604051908152f35b346104db57610f96366108a9565b90610fa26107b56139a1565b818303610961575f5b838110610fb457005b80610fe1610fc56001938789612bb5565b35610fcf8161060f565b610fda838787612bb5565b3590612d7d565b01610fab565b346104db57610ff5366108a9565b90611001610e836139a1565b818303610961575f5b83811061101357005b806110406110246001938789612bb5565b3561102e8161060f565b611039838787612bb5565b3590613273565b0161100a565b346104db575f3660031901126104db5761048d604051611067604082611a3d565b600e81526d06d6f64653d74696d657374616d760941b60208201526040519182916020835260208301906104e9565b346104db5760403660031901126104db576004356110b38161060f565b60243565ffffffffffff6110c6426130ea565b1691828211611118576001600160a01b03165f908152600c6020526040902061048d92506001600160d01b03916111079190611101906130ea565b90613119565b604051911681529081906020820190565b5063895c4c5160e01b5f5260045260245260445ffd5b346104db5760203660031901126104db57602060043561114d8161060f565b6040517f00000000000000000000000000000000000000000000000000000000000000006001600160a01b039081169216919091148152f35b346104db575f3660031901126104db57602060ff600b54166040519015158152f35b346104db575f3660031901126104db576004546040516001600160a01b039091168152602090f35b60409060031901126104db576004356111e88161060f565b9060243561051e8161060f565b346104db57610784611206366111d0565b906112126107b56139a1565b6129dc565b346104db57611225366108a9565b90611231610e836139a1565b818303610961575f5b83811061124357005b806112706112546001938789612bb5565b3561125e8161060f565b611269838787612bb5565b3590613030565b0161123a565b346104db5760203660031901126104db576020610cc2600435610cf78161060f565b346104db575f3660031901126104db576013546040516001600160a01b039091168152602090f35b346104db576112ce36610970565b6112dc6109e79392936139a1565b6004546112f1906001600160a01b0316610a1a565b803b156104db575f604051809263e50bcad360e01b82528180611319878a8a60048501612be5565b03915afa8015610aef576113b2575b506001600160a01b0382165f908152600560205260409020546113a3577f4df30bfa3ec06fecb039a1a7f419067e9ae43dae6bccbbe724bf4dedcca740b390611370836131aa565b6007546001600160a01b0384165f908152600560209081526040808320939093556006905220610aa69082908690612ca4565b63079f102d60e51b5f5260045ffd5b80610ae35f6113c093611a3d565b5f611328565b346104db575f3660031901126104db576040517f00000000000000000000000000000000000000000000000000000000000000006001600160a01b03168152602090f35b346104db575f3660031901126104db57602060ff601154166040519015158152f35b346104db5760203660031901126104db5761144860043561060f565b6020601254604051908152f35b346104db575f3660031901126104db5761147061077a6139a1565b600b5460ff81166114bc5760ff1916600117600b556001600160a01b036114956139a1565b167f62e78cea01bee320cd4e420270b5ea74000d11b0c9f74754ebdbfc544b05a2585f80a2005b638dfc202b60e01b5f5260045ffd5b346104db575f3660031901126104db576114e66109e76139a1565b601054421061156d5760115460ff811661155e576115115f5160206150665f395f51905f5254613971565b6115196125c0565b1061154f5760ff1916600117601155427f649a42f6e04f3cd15f744ac4027df1cd581ff8c96253f889690027aaf11591ca5f80a2005b6354ed247f60e11b5f5260045ffd5b632b75c76f60e11b5f5260045ffd5b6344f1048160e11b5f5260045ffd5b346104db5761158a366108a9565b90818303610961575f5b83811061159d57005b806115d26115ae6001938789612bb5565b356115b88161060f565b6115c3838787612bb5565b35906115cd6139a1565b612dfc565b01611594565b346104db5760403660031901126104db5760206116026024356115fa8161060f565b600435613212565b6040519015158152f35b346104db575f3660031901126104db576020611627426130ea565b65ffffffffffff60405191168152f35b346104db575f3660031901126104db576040515f5f5160206150465f395f51905f52546116638161221c565b80845290600181169081156105eb575060011461168a5761048d8361057581850382611a3d565b5f5160206150465f395f51905f525f9081527f46a2803e59a4de4e7a4c574b1243f25977ac4c77d5a1a4a609b5394cebb4a2aa939250905b8082106116da57509091508101602001610575610565565b9192600181602092548385880101520191019092916116c2565b346104db5760203660031901126104db5760043565ffffffffffff611718426130ea565b16908181116117d25761172a906130ea565b600d54905f82916005841161177e575b6117469350600d613d25565b80611762575060205f5b6040516001600160d01b039091168152f35b61176d6020916121aa565b600d5f52815f20015460301c611750565b919261178981613bc7565b8103908111610cca5761174693600d5f5265ffffffffffff8260205f2001541665ffffffffffff8516105f146117c057509161173a565b9291506117cc906128ea565b9061173a565b63895c4c5160e01b5f5260045260245260445ffd5b346104db5760403660031901126104db576107846004356118078161060f565b60243590611816610e836139a1565b613273565b346104db57602061160261182e36610731565b9161183a6107b56139a1565b6132c8565b346104db575f3660031901126104db57600e546040516001600160a01b039091168152602090f35b346104db5760403660031901126104db57610b726004356118878161060f565b602435906115cd6139a1565b602081016020825282518091526040820191602060408360051b8301019401925f915b8383106118c557505050505090565b90919293946020806118fb600193603f198682030187526040838b51878060a01b038151168452015191818582015201906104e9565b970193019301919392906118b6565b346104db575f3660031901126104db5760075461192681611add565b906119346040519283611a3d565b808252601f1961194382611add565b015f5b8181106119e55750505f5b818110611966576040518061048d8582611893565b8061198a6119756001936121ff565b905460039190911b1c6001600160a01b031690565b6001600160a01b0381165f9081526006602052604090206119c4906119bf6119b0611a5e565b6001600160a01b039094168452565b612254565b60208201526119d382866122f2565b526119de81856122f2565b5001611951565b6020906040516119f481611a1d565b5f815260608382015282828701015201611946565b634e487b7160e01b5f52604160045260245ffd5b604081019081106001600160401b03821117611a3857604052565b611a09565b90601f801991011681019081106001600160401b03821117611a3857604052565b6040519061062d604083611a3d565b9291926001600160401b038211611a385760405191611a96601f8201601f191660200184611a3d565b8294818452818301116104db578281602093845f960137010152565b9080601f830112156104db5781602061051e93359101611a6d565b6044359060ff821682036104db57565b6001600160401b038111611a385760051b60200190565b81601f820112156104db57803590611b0b82611add565b92611b196040519485611a3d565b82845260208085019360051b830101918183116104db5760208101935b838510611b4557505050505090565b84356001600160401b0381116104db578201906040828503601f1901126104db5760405191611b7383611a1d565b6020810135611b818161060f565b835260408101356001600160401b0381116104db5760209101019084601f830112156104db57602092611bba8684868096359101611a6d565b83820152815201940193611b36565b346104db576101803660031901126104db576004356001600160401b0381116104db57611bfa903690600401611ab2565b6024356001600160401b0381116104db57611c19903690600401611ab2565b90611c22611acd565b91611c2b610620565b926084359360a43560c435611c3e61062f565b9161010435976001600160401b0389116104db57611c63610784993690600401611af4565b94611c6c61063c565b96611c7561064a565b98611c7e610658565b9a612306565b346104db575f3660031901126104db5760025460405160089190911c6001600160a01b03168152602090f35b346104db575f3660031901126104db576020610cc26125c0565b801515036104db57565b346104db5760403660031901126104db57610784600435611cf48161060f565b60243590611d0182611cca565b6109566107b56139a1565b346104db5760203660031901126104db57600435611d298161060f565b611d346109e76139a1565b6001600160a01b0381165f818152600560205260409020549091908015610af457611dad91611d65611da8926121aa565b611d706007546121aa565b808203611de4575b5050611d8261388d565b6001600160a01b03165f9081526005602090815260408083208390556006909152902090565b6138f4565b6001600160a01b03611dbd6139a1565b167f34edd82cbb989f04be4723e96eec51ffb91f506ef585c7f28ce53110782f5f5e5f80a3005b611e2d611df6611975611e48936121ff565b92611e2884611e04836121ff565b81546001600160a01b0393841660039290921b91821b9390911b1916919091179055565b6128ea565b6001600160a01b039092165f90815260056020526040902090565b555f80611d78565b346104db5760203660031901126104db57600435611e6d8161060f565b611e786109e76139a1565b6001600160a01b03168015611ed057600380546001600160a01b031916821790556001600160a01b03611ea96139a1565b167f95d78da2896224ccde884cbed0572281fdb51e155034d0012fc6593806df69765f80a3005b6342bcdf7f60e11b5f5260045ffd5b346104db575f3660031901126104db576020610cc25f5160206150665f395f51905f5254613971565b346104db5760203660031901126104db57600435611f258161060f565b611f306109e76139a1565b6001600160a01b03168015611ed057600e546001600160a01b038116611f96576001600160a01b0319168117600e556001600160a01b03611f6f6139a1565b167fc2afdd630a73ef7841fa2db10620caf28b524409da9adc30af74fa601639d6225f80a3005b6311a37d6960e01b5f5260045ffd5b346104db575f3660031901126104db576020601054604051908152f35b346104db575f3660031901126104db57611fe95f5160206150665f395f51905f5254613971565b611ff16125c0565b80821115610ccf578103908111610cca57602090604051908152f35b346104db5760203660031901126104db57610b72600435612f48565b346104db5760206120466106e361203f366111d0565b9190610be5565b54604051908152f35b346104db5760203660031901126104db5760043561206c8161060f565b60018060a01b03165f526009602052602060ff60405f2054166040519015158152f35b346104db5760203660031901126104db576004356120ac8161060f565b6120b76109e76139a1565b6001600160a01b03168015611ed057600480546001600160a01b031916821790556001600160a01b036120e86139a1565b167f4cd146021d85ad5de55052ad32d44b8b6e496b3436cf6acdfcb5e82b7b3bccb35f80a3005b346104db5761211d366108a9565b906121296107b56139a1565b818303610961575f5b83811061213b57005b8061216861214c6001938789612bb5565b356121568161060f565b612161838787612bb5565b3590612905565b01612132565b346104db575f3660031901126104db576008546040516001600160a01b039091168152602090f35b634e487b7160e01b5f52601160045260245ffd5b5f19810191908211610cca57565b91908203918211610cca57565b6001600160a01b03165f9081525f5160206150265f395f51905f52602052604090205490565b634e487b7160e01b5f52603260045260245ffd5b6007548110156122175760075f5260205f2001905f90565b6121eb565b90600182811c9216801561224a575b602083101461223657565b634e487b7160e01b5f52602260045260245ffd5b91607f169161222b565b9060405191825f8254926122678461221c565b80845293600181169081156122d0575060011461228c575b5061062d92500383611a3d565b90505f9291925260205f20905f915b8183106122b457505090602061062d928201015f61227f565b602091935080600191548385890101520191019091849261229b565b90506020925061062d94915060ff191682840152151560051b8201015f61227f565b80518210156122175760209160051b010190565b999795939161234a9b99979593915f5160206150e65f395f51905f52546001600160401b0361233b60ff8360401c1615151590565b9e8f926001600160401b031690565b1680159182612460575b506001149081612456575b15908161244d575b5061243e576123aa9b8d6123a160016001600160401b03195f5160206150e65f395f51905f525416175f5160206150e65f395f51905f5255565b61240957612482565b6123b057565b6123da60ff60401b195f5160206150e65f395f51905f5254165f5160206150e65f395f51905f5255565b604051600181527fc7f505b2f371ae2175ee4913f4499e1f2633a7b5936321eed1cdaeb6115181d290602090a1565b612439600160401b60ff60401b195f5160206150e65f395f51905f525416175f5160206150e65f395f51905f5255565b612482565b63f92ee8a960e01b5f5260045ffd5b9050155f612367565b303b15915061235f565b91508e612354565b908160209103126104db575190565b6040513d5f823e3d90fd5b9092969a91949597999a428711156125b15788156125a2576001600160a01b0316998a15612593576040516318160ddd60e01b81526020816004818f5afa9081612566575b506124db57634e81208360e01b5f5260045ffd5b61062d9b6125449a61253f99612532986124fd976124f8966133f0565b61353b565b6125056135d8565b61250d61361f565b612515613666565b61251d6136ad565b6125256136f4565b61252d61373b565b613782565b61253a613822565b601055565b601255565b60018060a01b03166bffffffffffffffffffffffff60a01b6013541617601355565b6125879060203d60201161258c575b61257f8183611a3d565b810190612468565b6124c7565b503d612575565b634e81208360e01b5f5260045ffd5b631e8b6b6f60e21b5f5260045ffd5b6358f33ed360e11b5f5260045ffd5b6013546040516370a0823160e01b815230600482015290602090829060249082906001600160a01b03165afa908115610aef575f916125fd575090565b61051e915060203d60201161258c5761257f8183611a3d565b612640817fbf233dd2aafeb4d50879c4aa5c81e96d92f6e6945c906a58f9f2d1c1631b4b26613212565b156126485750565b63e2517d3f60e01b5f9081526001600160a01b03919091166004527fbf233dd2aafeb4d50879c4aa5c81e96d92f6e6945c906a58f9f2d1c1631b4b26602452604490fd5b6126b6817fe28434228950b641dbbc0178de89daa359a87c6ee0d8399aeace52a98fe902b9613212565b156126be5750565b63e2517d3f60e01b5f9081526001600160a01b03919091166004527fe28434228950b641dbbc0178de89daa359a87c6ee0d8399aeace52a98fe902b9602452604490fd5b61272c817fb56f7a452f9fa4c6b1640d0352eff0d678b9d7c7618b4f73815657069f341e66613212565b156127345750565b63e2517d3f60e01b5f9081526001600160a01b03919091166004527fb56f7a452f9fa4c6b1640d0352eff0d678b9d7c7618b4f73815657069f341e66602452604490fd5b6127a2817f47b7a6ef32f924153c4c0c2f871f8856bd114b4903c167827ef0f0694c583e27613212565b156127aa5750565b63e2517d3f60e01b5f9081526001600160a01b03919091166004527f47b7a6ef32f924153c4c0c2f871f8856bd114b4903c167827ef0f0694c583e27602452604490fd5b90916001600160a01b03909116903082146128db578115611ed0576001600160a01b038316928315611ed05781156128d5576040516370a0823160e01b8152306004820152602081602481875afa8015610aef5783915f916128b6575b50106128a7578161285c91846139fa565b7f66687834c8f406fef81052eb9008377ceb4e7305caa93f726591af6e44bcc9046128a26001600160a01b036128906139a1565b60405194855216929081906020820190565b0390a4565b637222ae5760e11b5f5260045ffd5b6128cf915060203d60201161258c5761257f8183611a3d565b5f61284b565b50505050565b63817fbb3560e01b5f5260045ffd5b9060018201809211610cca57565b91908201809211610cca57565b6001600160a01b0381165f818152600a6020526040902054909291612929816121c5565b828103908111610cca5783811061299b5750828201809211610cca576001600160a01b03165f908152600a60205260409020557f1bcfa03a03a5a801acedbac92e4c327445cae41571bdd6cf9b6988685c038e866001600160a01b0361298d6139a1565b6040519384521691602090a3565b8390637e5a39b960e01b5f5260045260245260445ffd5b908160209103126104db575161051e8161060f565b908160209103126104db575161051e81611cca565b6001600160a01b038116908115611ed0573082146128db576129fd816121c5565b908115612ba6576040516304d3863d60e21b8152602081600481305afa908115610aef575f91612b87575b5060405163084bb03360e41b81526001600160a01b03838116600483015290959116602086602481845afa958615610aef575f96612b56575b506001600160a01b038281169616869003612b1857604051633f8ed17360e01b81526001600160a01b038416600482015290602090829060249082905afa908115610aef575f91612b27575b5015612b1857612ae491612ac7600160ff195f5416175f55565b612ad2848383612dfc565b612adf60ff195f54165f55565b6143fc565b7fa2231b10d9b4e4166c8a827c99f97691b05aa88fb04e009a4e499005b5c50fcc6128a26001600160a01b036128906139a1565b630e7bebe360e01b5f5260045ffd5b612b49915060203d602011612b4f575b612b418183611a3d565b8101906129c7565b5f612aad565b503d612b37565b612b7991965060203d602011612b80575b612b718183611a3d565b8101906129b2565b945f612a61565b503d612b67565b612ba0915060203d602011612b8057612b718183611a3d565b5f612a28565b635e4f582160e11b5f5260045ffd5b91908110156122175760051b0190565b908060209392818452848401375f828201840152601f01601f1916010190565b6001600160a01b03909116815260406020820181905261051e93910191612bc5565b818110612c12575050565b5f8155600101612c07565b90601f8211612c2a575050565b61062d915f5160206150065f395f51905f525f5260205f20906020601f840160051c83019310612c62575b601f0160051c0190612c07565b9091508190612c55565b9190601f8111612c7b57505050565b61062d925f5260205f20906020601f840160051c83019310612c6257601f0160051c0190612c07565b9092916001600160401b038111611a3857612cc981612cc3845461221c565b84612c6c565b5f601f8211600114612d07578190612cf89394955f92612cfc575b50508160011b915f199060031b1c19161790565b9055565b013590505f80612ce4565b601f19821694612d1a845f5260205f2090565b915f5b878110612d54575083600195969710612d3b575b505050811b019055565b01355f19600384901b60f8161c191690555f8080612d31565b90926020600181928686013581550194019101612d1d565b91602061051e938181520191612bc5565b6001600160a01b03165f818152600a6020526040902054909190818110612de757818103908111610cca575f838152600a60205260409020557f81aa4332c9e93af00ae5fdbed32b01fbc5d01ac7755a05d0962acd19030bd5546001600160a01b0361298d6139a1565b639f6422a960e01b5f5260045260245260445ffd5b6001600160a01b0381168015612f35576001600160a01b03831615612f225760ff600b5416610e455760ff6011541680612f1a575b61155e5760ff5f541615612e62575b509081612e52848361062d9695614bfc565b612e5d83838361461b565b61470f565b5f526009602052612e7860405f2060ff90541690565b612f0b576001600160a01b0382165f908152600960205260409020612e9f905b5460ff1690565b612efc576001600160a01b0381165f908152600a60205260409020612ecf905b54612ec983610c1d565b546121b8565b83811015612e405763391434e360e21b5f526001600160a01b03909116600452602452604482905260645ffd5b637f3447d360e01b5f5260045ffd5b633928b55960e01b5f5260045ffd5b506001612e31565b63ec442f0560e01b5f525f60045260245ffd5b634b637e8f60e11b5f525f60045260245ffd5b612f506139a1565b9060ff601154161561156d578015613021576001600160a01b0382165f8181526009602052604090205490929060ff16612f0b57825f52600a602052612fb260405f2054845f525f5160206150265f395f51905f5260205260405f20546121b8565b828110612ffe575081612fe97f4896181ff8f4543cc00db9fe9b6fb7e6f032b7eb772c72ab1ec1b4d2e03b936993612ff993613a88565b6040519081529081906020820190565b0390a2565b63391434e360e21b5f526001600160a01b0390911660045260245260445260645ffd5b6393be1eef60e01b5f5260045ffd5b6001600160a01b03811691908215612f225760ff600b5416610e45576130568282614815565b5f5160206150665f395f51905f5254828101809111610cca576130b19183915f5160206150665f395f51905f525561308d81610c1d565b828154019055845f5f5160206150865f395f51905f526020604051868152a36149e0565b7fe06a64fbf06d35586ace9c9da7a5c34ca3f2c0fd07e34e80be6d0341357795a86130e56001600160a01b036128906139a1565b0390a3565b65ffffffffffff81116131025765ffffffffffff1690565b6306dfcc6560e41b5f52603060045260245260445ffd5b908154905f829160058411613157575b613134935084613d25565b8061313f5750505f90565b613148906121aa565b905f5260205f20015460301c90565b919261316281613bc7565b8103908111610cca5761313493855f5265ffffffffffff8260205f2001541665ffffffffffff8516105f14613198575091613129565b9291506131a4906128ea565b90613129565b60075490600160401b821015611a3857600182016007556007548210156122175760075f527fa66cc928b5edb82af9bd49922954155ab7b0942694bea4ce44661d9a8736c68890910180546001600160a01b0319166001600160a01b03909216919091179055565b600854604051632474521560e21b815260048101929092526001600160a01b039283166024830152909160209183916044918391165afa908115610aef575f9161325a575090565b61051e915060203d602011612b4f57612b418183611a3d565b61327d828261421c565b7f92eda58db715be76693c72f2b6c1ffec1f5d9fa127f24d7d26acaefa731a52fa60206001600160a01b036132b06139a1565b6040519586526001600160a01b0390941694931692a3565b6001600160a01b0381165f8181525f5160206150265f395f51905f526020526040902054939291908385106133ca576001600160a01b0382165f908152600a602052604090205480613343575b5050613331935061332c600160ff195f5416175f55565b61410e565b61333e60ff195f54165f55565b600190565b808603958611610cca578561333196861161335f575b50613315565b61336c61337391876121b8565b80926121b8565b6001600160a01b0384165f908152600a60205260409020557f81aa4332c9e93af00ae5fdbed32b01fbc5d01ac7755a05d0962acd19030bd5546133bf6001600160a01b036128906139a1565b0390a35f8080613359565b63391434e360e21b5f526001600160a01b0382166004526024859052604484905260645ffd5b969594939291906133ff613d89565b613407613d89565b61340f613d89565b87516001600160401b038111611a385761343f8161343a5f5160206150065f395f51905f525461221c565b612c1d565b6020601f8211600114613499578161348993926134759261062d9b9c5f9261348e5750508160011b915f199060031b1c19161790565b5f5160206150065f395f51905f52556142e9565b613e68565b015190505f80612ce4565b5f5160206150065f395f51905f525f52601f198216997f2ae08a8e29253f69ac5d979a101956ab8f8d9d7ded63fa7a83b16fc47648eab09a5f5b81811061352357509a6001928492613489969561062d9d9e1061350b575b505050811b015f5160206150065f395f51905f52556142e9565b01515f1960f88460031b161c191690555f80806134f1565b838301518d556001909c019b602093840193016134d3565b613543613d89565b6001600160a01b03168015611ed057600880546001600160a01b03191682179055631b068a0f60e21b5f52600160208190527f5b1d71439ee90610fff1d6a60b00dc7a4ee0ded11d07e51974b1acc64b9be08e805460ff191690911790556001600160a01b036135b16139a1565b167f2ddabd343e5cc7a71d4628054d3292636fc1bf21d5faef22c2dcad9f96554f175f80a3565b6135e0613d89565b6325e5ad7960e01b5f52600160208190527fa95a251725c23bd0099784928ce43cd88abd472824bf8e53c6e97652f71612cb805460ff19169091179055565b613627613d89565b63d7ae59db60e01b5f52600160208190527fe92f7df0563d5f295cbc68f7426d3d1f988e5baa1988db154d4e66d8dc096e59805460ff19169091179055565b61366e613d89565b631cf1473b60e31b5f52600160208190527f03a9083f0ea60978e486a8c7f5a6a055893f5daf93e78b76320e1edada64572f805460ff19169091179055565b6136b5613d89565b63217aeeed60e21b5f52600160208190527fe1b697cd820d4a782635f97707720bb92ec26a81195c9f1f506c4d1faada6fc0805460ff19169091179055565b6136fc613d89565b63f4433ab760e01b5f52600160208190527f76f72b95771776e0b57036686cb3f96cb76379c6ff48e342001021707dea57f8805460ff19169091179055565b613743613d89565b636b7cf4d760e11b5f52600160208190527fefd40211d495f15744149c202ee1f63567e4237ef6a874e28676a9793b985209805460ff19169091179055565b61378a613d89565b801561381057600f819055631aa93a7560e11b5f52600160208181527f1d9e233b6a37feb4357293d34ca22e61107dad4bb3ceab383242787831ad8efc805460ff19169092179091557f1c9182333abe71fddddd188f90cabb1c34182de0b0ac74c87944a196460a2d6c906001600160a01b036138056139a1565b1692604051908152a2565b6330c2ba0360e01b5f5260045260245ffd5b61382a613d89565b613832613d89565b60015f5160206150a65f395f51905f5255565b6001600160a01b039081165f818152600960205260409020805460ff191693151560ff8116949094179055906138796139a1565b165f5160206150c65f395f51905f525f80a4565b60075480156138e0575f198101906007548210156122175760075f8190527fa66cc928b5edb82af9bd49922954155ab7b0942694bea4ce44661d9a8736c68790910180546001600160a01b031916905555565b634e487b7160e01b5f52603160045260245ffd5b6138fe815461221c565b9081613908575050565b81601f5f9311600114613919575055565b8183526020832061393591601f0160051c810190600101612c07565b808252602082209081548360011b9084198560031b1c191617905555565b811561395d570490565b634e487b7160e01b5f52601260045260245ffd5b60125490818102918183041490151715610cca5760ff6002541690604d8211610cca5761051e91600a0a90613953565b337f00000000000000000000000000000000000000000000000000000000000000006001600160a01b031614806139ef575b156139eb576013193601368111610cca573560601c90565b3390565b5060143610156139d3565b60405163a9059cbb60e01b60208281019182526001600160a01b03909416602483015260448083019590955293815290925f91613a38606482611a3d565b519082855af115612477575f513d613a7f57506001600160a01b0381163b155b613a5f5750565b635274afe760e01b5f9081526001600160a01b0391909116600452602490fd5b60011415613a58565b9060025f5160206150a65f395f51905f525414613bb85760025f5160206150a65f395f51905f52556001600160a01b0382165f8181525f5160206150265f395f51905f5260205260409020549092908211613ba957613ae682613971565b80613aef6125c0565b1061154f57613b718183613b3e86613b387f8263c61290285bc15c0ad432033ebd7654fb1d0f9711960e66c4e1f5c92820519760018060a01b03165f52601460205260405f2090565b546128f8565b6001600160a01b0382165f90815260146020526040902055613b60868261421c565b6013546001600160a01b03166139fa565b6001600160a01b03613b816139a1565b6040805195865260208601939093521692a361062d60015f5160206150a65f395f51905f5255565b631a3cd61560e11b5f5260045ffd5b633ee5aeb560e01b5f5260045ffd5b600181111561051e57806001600160801b821015613ce8575b613c8e613c84613c7a613c70613c66613c5c613c4b613c959760048a600160401b613c9a9c1015613cdb575b640100000000811015613cce575b62010000811015613cc1575b610100811015613cb4575b6010811015613ca7575b1015613c9f575b60030260011c90565b613c55818b613953565b0160011c90565b613c55818a613953565b613c558189613953565b613c558188613953565b613c558187613953565b613c558186613953565b8093613953565b821190565b900390565b60011b613c42565b60041c9160021b91613c3b565b60081c9160041b91613c31565b60101c9160081b91613c26565b60201c9160101b91613c1a565b60401c9160201b91613c0c565b5050613c9a613c95613c8e613c84613c7a613c70613c66613c5c613c4b613d0f8a60801c90565b9850600160401b9750613be09650505050505050565b91905b838210613d355750505090565b9091928083169080841860011c8201809211610cca57845f5265ffffffffffff8260205f2001541665ffffffffffff8416105f14613d775750925b9190613d28565b939250613d83906128ea565b91613d70565b60ff5f5160206150e65f395f51905f525460401c1615613da557565b631afcd79f60e31b5f5260045ffd5b91909182516001600160401b038111611a3857613dd581612cc3845461221c565b6020601f8211600114613e04578190612cf89394955f9261348e5750508160011b915f199060031b1c19161790565b601f19821690613e17845f5260205f2090565b915f5b818110613e5057509583600195969710613e3857505050811b019055565b01515f1960f88460031b161c191690555f8080612d31565b9192602060018192868b015181550194019201613e1a565b93926001600160a01b0316918215611ed0576001600160a01b0316908115611ed057601260ff8616116140f857613ea98560ff1660ff196002541617600255565b60028054610100600160a81b031916600883901b610100600160a81b0316179055600380546001600160a01b0319166001600160a01b038416179055600480546001600160a01b0319166001600160a01b038516179055600454613f15906001600160a01b0316610a1a565b803b156104db575f604051809262fdecdb60e01b82528180613f3a8a60048301611893565b03915afa8015610aef576140e4575b50613f526139a1565b84516001600160a01b0390911694905f5b818110613fff57505050906130e57fc5e2e9318498e1a253726df4112345358bfcbadd5aab57c99d8c7f590ab0d32a9392604051938493877f95d78da2896224ccde884cbed0572281fdb51e155034d0012fc6593806df69765f80a3867f4cd146021d85ad5de55052ad32d44b8b6e496b3436cf6acdfcb5e82b7b3bccb35f80a360ff90961682526001600160a01b0395909516946020820190565b61401a61400c82856122f2565b51516001600160a01b031690565b602061402683866122f2565b5101516001600160a01b0382165f908152600560205260409020909190546140c95790887f4df30bfa3ec06fecb039a1a7f419067e9ae43dae6bccbbe724bf4dedcca740b36140c08461407b600197966131aa565b6007546001600160a01b0382165f9081526005602090815260408083209390935560069052206140ac908690613db4565b604051918291888060a01b0316958261050d565b0390a301613f63565b630da3f63f60e41b5f526001600160a01b031660045260245ffd5b80610ae35f6140f293611a3d565b5f613f49565b63ca95039160e01b5f5260ff851660045260245ffd5b60ff600b5416610e45576001600160a01b038116806141385750908291612e5261062d9483614815565b6001600160a01b03831661415c575090816141578461062d9594614aa5565b612e52565b60ff6011541680614214575b61155e5760ff5f541615614189575b509081614157848361062d9695614bfc565b5f52600960205261419f60405f2060ff90541690565b612f0b576001600160a01b0382165f9081526009602052604090206141c390612e98565b612efc576001600160a01b0381165f908152600a602052604090206141e790612ebf565b838110156141775763391434e360e21b5f526001600160a01b03909116600452602452604482905260645ffd5b506001614168565b6001600160a01b03811691908215612f355760ff600b5416610e45576142428282614aa5565b826142bd575f5160206150665f395f51905f5254828101809111610cca5761062d9361427a5f925f5160206150665f395f51905f5255565b61429f845f5160206150665f395f51905f5254035f5160206150665f395f51905f5255565b6040518481525f5160206150865f395f51905f5290602090a36146ec565b6142c981949394610c1d565b54828110612ffe5761062d9394835f92036142e384610c1d565b5561427a565b9081516001600160401b038111611a3857614328816143155f5160206150465f395f51905f525461221c565b5f5160206150465f395f51905f52612c6c565b602092601f821160011461436857614357929382915f9261348e5750508160011b915f199060031b1c19161790565b5f5160206150465f395f51905f5255565b5f5160206150465f395f51905f525f52601f198216937f46a2803e59a4de4e7a4c574b1243f25977ac4c77d5a1a4a609b5394cebb4a2aa915f5b8681106143e457508360019596106143cc575b505050811b015f5160206150465f395f51905f5255565b01515f1960f88460031b161c191690555f80806143b5565b919260206001819286850151815501940192016143a2565b6001600160a01b0381165f908152600a602052604090205480614561575b506001600160a01b0381165f90815260096020526040902061443b90612e98565b156144e6576001600160a01b0382165f908152600960205260408120909260019161446d90805460ff19166001179055565b6001600160a01b0383165f908152600960205260409020614493905b805460ff19169055565b818060a01b036144a16139a1565b1690828060a01b0316905f5160206150c65f395f51905f528580a46144c7610a1a6139a1565b6001600160a01b03909116905f5160206150c65f395f51905f528380a4565b506001600160a01b0381165f90815260096020526040902061450790612e98565b61450e5750565b6001600160a01b0381165f90815260096020526040812090919061453190614489565b6001600160a01b036145416139a1565b6001600160a01b0390921691165f5160206150c65f395f51905f528380a4565b6001600160a01b036145716139a1565b6040518381526001600160a01b0385169291909116907f81aa4332c9e93af00ae5fdbed32b01fbc5d01ac7755a05d0962acd19030bd55490602090a36001600160a01b038281165f908152600a6020526040808220829055858316825290208290556145db6139a1565b6040519283526001600160a01b038516929116907f1bcfa03a03a5a801acedbac92e4c327445cae41571bdd6cf9b6988685c038e8690602090a35f61441a565b90916001600160a01b03821691826146b657506130e58161466c61465b5f5160206150865f395f51905f52945f5160206150665f395f51905f52546128f8565b5f5160206150665f395f51905f5255565b6001600160a01b03851694856146a25750612fe9815f5160206150665f395f51905f5254035f5160206150665f395f51905f5255565b6146ab90610c1d565b818154019055612fe9565b6146bf81610c1d565b54828110612ffe57916130e5916146e6825f5160206150865f395f51905f52950391610c1d565b5561466c565b906001600160a01b0382166147065761062d91505f6149e0565b61062d916148e3565b91906001600160a01b0383168061472b575061062d92506149e0565b6001600160a01b03821690816147475750505061062d916148e3565b6001600160a01b036147576139a1565b167f0d8423425ea24ce801d57e1af368c7ca24b3a31b719c058675916f436635eea26040518061478c88829190602083019252565b0390a46004546147a4906001600160a01b0316610a1a565b92833b156104db57604051631f2d7a6560e11b81523060048201526001600160a01b0382811660248301528316604482015260648101849052935f908590608490829084905af1938415610aef5761062d94614801575b50614b49565b80610ae35f61480f93611a3d565b5f6147fb565b905f5160206150665f395f51905f5254818101809111610cca57600f54908181116148ce575050600e546001600160a01b031680614858575b5061062d91614cb7565b600490602090614870906001600160a01b0316610a1a565b6040516305cbde4360e11b815292839182905afa908115610aef575f916148af575b504210156148a0575f61484e565b6336a891ab60e01b5f5260045ffd5b6148c8915060203d60201161258c5761257f8183611a3d565b5f614892565b630f2cfd7360e11b5f5260045260245260445ffd5b6004545f92906001600160a01b0316803b156104db5760405163292d480360e01b81523060048201526001600160a01b038416602482015260448101839052905f908290606490829084905af18015610aef576149b5575b505f516020614fe65f395f51905f5291604061495961497d93614d96565b9161496383614dc7565b50506001600160a01b0316808652600c6020529420614e02565b9091906001600160a01b036149906139a1565b604080516001600160d01b0396871681529390951660208401521692819081016130e5565b61497d919350916149d45f5f516020614fe65f395f51905f5294611a3d565b5f93909290915061493b565b6004545f92906001600160a01b0316803b156104db57604051637133bb3160e11b81523060048201526001600160a01b038416602482015260448101839052905f908290606490829084905af18015610aef57614a7a575b505f516020614fe65f395f51905f52916040614a5661497d93614d96565b91614a6083614e39565b50506001600160a01b0316808652600c6020529420614e67565b61497d91935091614a995f5f516020614fe65f395f51905f5294611a3d565b5f939092909150614a38565b9060018060a01b038216805f525f5160206150265f395f51905f5260205260405f20549060ff5f541615614b29575b506001600160a01b0383165f908152600a602052604090205480614af85750505050565b8103908111610cca57808211614b0f575b806128d5565b8103908111610cca57614b2191612d7d565b5f8080614b09565b82821015614ad45763391434e360e21b5f5260045260245260445260645ffd5b91614bd95f516020614fe65f395f51905f5292614b668493614d96565b94614b6f6139a1565b9060018060a01b031690815f52600c602052614b8e8760405f20614e02565b604080516001600160d01b0393841681529190921660208201526001600160a01b0392909216968792909190a36001600160a01b03165f818152600c60205260409020909490614e67565b604080516001600160d01b039384168152929091166020830152819081016130e5565b5f5490929060ff1615614c0e57505050565b600454614c6f936020939091614c2c906001600160a01b0316610a1a565b6040516336b1527f60e11b81523060048201526001600160a01b039384166024820152929091166044830152606482019290925292839190829081906084820190565b03915afa908115610aef575f91614c98575b5015614c8957565b6310a151f560e01b5f5260045ffd5b614cb1915060203d602011612b4f57612b418183611a3d565b5f614c81565b6001600160a01b0381165f9081526009602052604090205460ff16612efc57614ce8614ce45f5460ff1690565b1590565b614cf0575050565b600454614d4e926020929091614d0e906001600160a01b0316610a1a565b6040516336b1527f60e11b81523060048201525f60248201526001600160a01b039092166044830152606482019290925292839190829081906084820190565b03915afa908115610aef575f91614d77575b5015614d6857565b639b3b575b60e01b5f5260045ffd5b614d90915060203d602011612b4f57612b418183611a3d565b5f614d60565b6001600160d01b038111614db0576001600160d01b031690565b6306dfcc6560e41b5f5260d060045260245260445ffd5b90614dd2600d614e98565b6001600160d01b0392831683821603928311610cca57614dfc83614df5426130ea565b600d614f0f565b50509190565b9190614e0d83614e98565b6001600160d01b03918216828216039390918411610cca5783614dfc91614e33426130ea565b90614f0f565b90614e44600d614e98565b6001600160d01b0392831681841601928311610cca57614dfc83614df5426130ea565b9190614e7283614e98565b6001600160d01b03918216818316019390918411610cca5783614dfc91614e33426130ea565b80549081614ea65750505f90565b815f19810111610cca575f525f199060205f2001015460301c90565b805490600160401b821015611a385760018201808255821015612217575f9081526020902001815160209092015160301b65ffffffffffff191665ffffffffffff92909216919091179055565b80549293928015614fbb57614f26614f31916121aa565b825f5260205f200190565b8054603081901c9365ffffffffffff91821692918116808411614fac57879303614f785750614f7492509065ffffffffffff82549181199060301b169116179055565b9190565b915050614f7491614f98614f8a611a5e565b65ffffffffffff9093168352565b6001600160d01b0386166020830152614ec2565b632520601d60e01b5f5260045ffd5b5090614fe091614fcc614f8a611a5e565b6001600160d01b0385166020830152614ec2565b5f919056fe945151deb15d9798476ee613ad93afce90e31486b37e79ac6b713cdda797ffe452c63247e1f47db19d5ce0460030c497f067ca4cebf71ba98eeadabe20bace0352c63247e1f47db19d5ce0460030c497f067ca4cebf71ba98eeadabe20bace0052c63247e1f47db19d5ce0460030c497f067ca4cebf71ba98eeadabe20bace0452c63247e1f47db19d5ce0460030c497f067ca4cebf71ba98eeadabe20bace02ddf252ad1be2c89b69c2b068fc378daa952ba7f163c4a11628f55a4df523b3ef9b779b17422d0df92223018b32b4d1fa46e071723d6817e2486d003becc55f0017ec2643977f0865dd45350e9efdcdfead258c9220974e67d1a37ca144772293f0c57e16840df040f15088dc2f81fe391c3923bec73e23a9662efc9c229c6a00a26469706673582212209d9a80e5f511f95d68ca3df58407fe41f7c0ebcde468ad6fdff5d0bb951f5c6064736f6c634300081c0033f0c57e16840df040f15088dc2f81fe391c3923bec73e23a9662efc9c229c6a00",
  "linkReferences": {},
  "deployedLinkReferences": {}
}