{
  "_format": "hh-sol-artifact-1",
  "contractName": "ATKComplianceImplementation",
  "sourceName": "contracts/system/compliance/ATKComplianceImplementation.sol",
  "abi": [
    {
      "inputs": [
        {
          "internalType": "address",
          "name": "trustedForwarder",
          "type": "address"
        }
      ],
      "stateMutability": "nonpayable",
      "type": "constructor"
    },
    {
      "inputs": [],
      "name": "AccessControlBadConfirmation",
      "type": "error"
    },
    {
      "inputs": [
        {
          "internalType": "address",
          "name": "account",
          "type": "address"
        },
        {
          "internalType": "bytes32",
          "name": "neededRole",
          "type": "bytes32"
        }
      ],
      "name": "AccessControlUnauthorizedAccount",
      "type": "error"
    },
    {
      "inputs": [
        {
          "internalType": "address",
          "name": "account",
          "type": "address"
        }
      ],
      "name": "AddressAlreadyAllowListed",
      "type": "error"
    },
    {
      "inputs": [
        {
          "internalType": "address",
          "name": "account",
          "type": "address"
        }
      ],
      "name": "AddressNotAllowListed",
      "type": "error"
    },
    {
      "inputs": [],
      "name": "InvalidInitialization",
      "type": "error"
    },
    {
      "inputs": [],
      "name": "InvalidModule",
      "type": "error"
    },
    {
      "inputs": [],
      "name": "NotInitializing",
      "type": "error"
    },
    {
      "inputs": [],
      "name": "ZeroAddressNotAllowed",
      "type": "error"
    },
    {
      "anonymous": false,
      "inputs": [
        {
          "indexed": true,
          "internalType": "address",
          "name": "account",
          "type": "address"
        },
        {
          "indexed": true,
          "internalType": "address",
          "name": "manager",
          "type": "address"
        }
      ],
      "name": "AddressAllowListed",
      "type": "event"
    },
    {
      "anonymous": false,
      "inputs": [
        {
          "indexed": true,
          "internalType": "address",
          "name": "account",
          "type": "address"
        },
        {
          "indexed": true,
          "internalType": "address",
          "name": "manager",
          "type": "address"
        }
      ],
      "name": "AddressRemovedFromAllowList",
      "type": "event"
    },
    {
      "anonymous": false,
      "inputs": [
        {
          "indexed": false,
          "internalType": "uint64",
          "name": "version",
          "type": "uint64"
        }
      ],
      "name": "Initialized",
      "type": "event"
    },
    {
      "anonymous": false,
      "inputs": [
        {
          "indexed": true,
          "internalType": "bytes32",
          "name": "role",
          "type": "bytes32"
        },
        {
          "indexed": true,
          "internalType": "bytes32",
          "name": "previousAdminRole",
          "type": "bytes32"
        },
        {
          "indexed": true,
          "internalType": "bytes32",
          "name": "newAdminRole",
          "type": "bytes32"
        }
      ],
      "name": "RoleAdminChanged",
      "type": "event"
    },
    {
      "anonymous": false,
      "inputs": [
        {
          "indexed": true,
          "internalType": "bytes32",
          "name": "role",
          "type": "bytes32"
        },
        {
          "indexed": true,
          "internalType": "address",
          "name": "account",
          "type": "address"
        },
        {
          "indexed": true,
          "internalType": "address",
          "name": "sender",
          "type": "address"
        }
      ],
      "name": "RoleGranted",
      "type": "event"
    },
    {
      "anonymous": false,
      "inputs": [
        {
          "indexed": true,
          "internalType": "bytes32",
          "name": "role",
          "type": "bytes32"
        },
        {
          "indexed": true,
          "internalType": "address",
          "name": "account",
          "type": "address"
        },
        {
          "indexed": true,
          "internalType": "address",
          "name": "sender",
          "type": "address"
        }
      ],
      "name": "RoleRevoked",
      "type": "event"
    },
    {
      "inputs": [],
      "name": "DEFAULT_ADMIN_ROLE",
      "outputs": [
        {
          "internalType": "bytes32",
          "name": "",
          "type": "bytes32"
        }
      ],
      "stateMutability": "view",
      "type": "function"
    },
    {
      "inputs": [
        {
          "internalType": "address[]",
          "name": "accounts",
          "type": "address[]"
        }
      ],
      "name": "addMultipleToAllowList",
      "outputs": [],
      "stateMutability": "nonpayable",
      "type": "function"
    },
    {
      "inputs": [
        {
          "internalType": "address",
          "name": "account",
          "type": "address"
        }
      ],
      "name": "addToAllowList",
      "outputs": [],
      "stateMutability": "nonpayable",
      "type": "function"
    },
    {
      "inputs": [
        {
          "components": [
            {
              "internalType": "address",
              "name": "module",
              "type": "address"
            },
            {
              "internalType": "bytes",
              "name": "params",
              "type": "bytes"
            }
          ],
          "internalType": "struct SMARTComplianceModuleParamPair[]",
          "name": "_pairs",
          "type": "tuple[]"
        }
      ],
      "name": "areValidComplianceModules",
      "outputs": [],
      "stateMutability": "view",
      "type": "function"
    },
    {
      "inputs": [
        {
          "internalType": "address",
          "name": "_token",
          "type": "address"
        },
        {
          "internalType": "address",
          "name": "_from",
          "type": "address"
        },
        {
          "internalType": "address",
          "name": "_to",
          "type": "address"
        },
        {
          "internalType": "uint256",
          "name": "_amount",
          "type": "uint256"
        }
      ],
      "name": "canTransfer",
      "outputs": [
        {
          "internalType": "bool",
          "name": "",
          "type": "bool"
        }
      ],
      "stateMutability": "view",
      "type": "function"
    },
    {
      "inputs": [
        {
          "internalType": "address",
          "name": "_token",
          "type": "address"
        },
        {
          "internalType": "address",
          "name": "_to",
          "type": "address"
        },
        {
          "internalType": "uint256",
          "name": "_amount",
          "type": "uint256"
        }
      ],
      "name": "created",
      "outputs": [],
      "stateMutability": "nonpayable",
      "type": "function"
    },
    {
      "inputs": [
        {
          "internalType": "address",
          "name": "_token",
          "type": "address"
        },
        {
          "internalType": "address",
          "name": "_from",
          "type": "address"
        },
        {
          "internalType": "uint256",
          "name": "_amount",
          "type": "uint256"
        }
      ],
      "name": "destroyed",
      "outputs": [],
      "stateMutability": "nonpayable",
      "type": "function"
    },
    {
      "inputs": [
        {
          "internalType": "bytes32",
          "name": "role",
          "type": "bytes32"
        }
      ],
      "name": "getRoleAdmin",
      "outputs": [
        {
          "internalType": "bytes32",
          "name": "",
          "type": "bytes32"
        }
      ],
      "stateMutability": "view",
      "type": "function"
    },
    {
      "inputs": [
        {
          "internalType": "bytes32",
          "name": "role",
          "type": "bytes32"
        },
        {
          "internalType": "address",
          "name": "account",
          "type": "address"
        }
      ],
      "name": "grantRole",
      "outputs": [],
      "stateMutability": "nonpayable",
      "type": "function"
    },
    {
      "inputs": [
        {
          "internalType": "bytes32",
          "name": "role",
          "type": "bytes32"
        },
        {
          "internalType": "address",
          "name": "account",
          "type": "address"
        }
      ],
      "name": "hasRole",
      "outputs": [
        {
          "internalType": "bool",
          "name": "",
          "type": "bool"
        }
      ],
      "stateMutability": "view",
      "type": "function"
    },
    {
      "inputs": [
        {
          "internalType": "address[]",
          "name": "initialAdmins",
          "type": "address[]"
        }
      ],
      "name": "initialize",
      "outputs": [],
      "stateMutability": "nonpayable",
      "type": "function"
    },
    {
      "inputs": [
        {
          "internalType": "address",
          "name": "account",
          "type": "address"
        }
      ],
      "name": "isAllowListed",
      "outputs": [
        {
          "internalType": "bool",
          "name": "",
          "type": "bool"
        }
      ],
      "stateMutability": "view",
      "type": "function"
    },
    {
      "inputs": [
        {
          "internalType": "address",
          "name": "forwarder",
          "type": "address"
        }
      ],
      "name": "isTrustedForwarder",
      "outputs": [
        {
          "internalType": "bool",
          "name": "",
          "type": "bool"
        }
      ],
      "stateMutability": "view",
      "type": "function"
    },
    {
      "inputs": [
        {
          "internalType": "address",
          "name": "_module",
          "type": "address"
        },
        {
          "internalType": "bytes",
          "name": "_params",
          "type": "bytes"
        }
      ],
      "name": "isValidComplianceModule",
      "outputs": [],
      "stateMutability": "view",
      "type": "function"
    },
    {
      "inputs": [
        {
          "internalType": "address",
          "name": "account",
          "type": "address"
        }
      ],
      "name": "removeFromAllowList",
      "outputs": [],
      "stateMutability": "nonpayable",
      "type": "function"
    },
    {
      "inputs": [
        {
          "internalType": "address[]",
          "name": "accounts",
          "type": "address[]"
        }
      ],
      "name": "removeMultipleFromAllowList",
      "outputs": [],
      "stateMutability": "nonpayable",
      "type": "function"
    },
    {
      "inputs": [
        {
          "internalType": "bytes32",
          "name": "role",
          "type": "bytes32"
        },
        {
          "internalType": "address",
          "name": "callerConfirmation",
          "type": "address"
        }
      ],
      "name": "renounceRole",
      "outputs": [],
      "stateMutability": "nonpayable",
      "type": "function"
    },
    {
      "inputs": [
        {
          "internalType": "bytes32",
          "name": "role",
          "type": "bytes32"
        },
        {
          "internalType": "address",
          "name": "account",
          "type": "address"
        }
      ],
      "name": "revokeRole",
      "outputs": [],
      "stateMutability": "nonpayable",
      "type": "function"
    },
    {
      "inputs": [
        {
          "internalType": "bytes4",
          "name": "interfaceId",
          "type": "bytes4"
        }
      ],
      "name": "supportsInterface",
      "outputs": [
        {
          "internalType": "bool",
          "name": "",
          "type": "bool"
        }
      ],
      "stateMutability": "view",
      "type": "function"
    },
    {
      "inputs": [
        {
          "internalType": "address",
          "name": "_token",
          "type": "address"
        },
        {
          "internalType": "address",
          "name": "_from",
          "type": "address"
        },
        {
          "internalType": "address",
          "name": "_to",
          "type": "address"
        },
        {
          "internalType": "uint256",
          "name": "_amount",
          "type": "uint256"
        }
      ],
      "name": "transferred",
      "outputs": [],
      "stateMutability": "nonpayable",
      "type": "function"
    },
    {
      "inputs": [],
      "name": "trustedForwarder",
      "outputs": [
        {
          "internalType": "address",
          "name": "",
          "type": "address"
        }
      ],
      "stateMutability": "view",
      "type": "function"
    }
  ],
  "bytecode": "0x60a03461011057601f61178538819003918201601f19168301916001600160401b038311848410176101145780849260209460405283398101031261011057516001600160a01b0381168103610110576080525f5160206117655f395f51905f525460ff8160401c16610101576002600160401b03196001600160401b038216016100ab575b60405161163c908161012982396080518181816106850152818161082401526115310152f35b6001600160401b0319166001600160401b039081175f5160206117655f395f51905f52556040519081527fc7f505b2f371ae2175ee4913f4499e1f2633a7b5936321eed1cdaeb6115181d290602090a15f610085565b63f92ee8a960e01b5f5260045ffd5b5f80fd5b634e487b7160e01b5f52604160045260245ffdfe60806040526004361015610011575f80fd5b5f3560e01c8062fdecdb14610c1b57806301ffc9a714610b93578063248a9ca314610b54578063292d480314610a6f5780632f2ff15d14610a2557806331f591021461099257806336568abe1461093e5780633e5af4ca14610858578063572b6c05146108045780635d69086f146107165780636d62a4fe146106f057806370dd8d2e146106b45780637da0a8771461067057806391d148541461061b578063a217fddf14610601578063a224cee714610417578063d547741f146103c8578063de6fe9a2146102ff578063e267766214610207578063e50bcad3146101a25763eba8dabc146100ff575f80fd5b3461019e57602036600319011261019e57610118610cfc565b610120611228565b6001600160a01b03165f8181526020819052604090205460ff161561018c575f818152602081905260409020805460ff191690556001600160a01b0361016461152e565b16907fed1c006359597e4b6ae445e9bb35cc5642d34f87c1ac44035edd426171c651945f80a3005b63b1bcda3f60e01b5f5260045260245ffd5b5f80fd5b3461019e57604036600319011261019e576101bb610cfc565b602435906001600160401b03821161019e573660238301121561019e578160040135906001600160401b03821161019e57366024838501011161019e576024610205930190611128565b005b3461019e5761021536610d12565b6040516354c560bd60e11b81529192905f836004816001600160a01b0386165afa9283156102d0575f936102db575b508251925f5b84811061025357005b6001600160a01b036102658284610f6f565b5151169060206102758285610f6f565b51015191803b1561019e57845f918983896102a66040519889968795869463c4c104b960e01b865260048601610fa7565b03925af19182156102d0576001926102c0575b500161024a565b5f6102ca91610d9a565b876102b9565b6040513d5f823e3d90fd5b6102f89193503d805f833e6102f08183610d9a565b810190610e30565b9184610244565b3461019e57602036600319011261019e576004356001600160401b03811161019e5761032f903690600401610cb6565b90610338611228565b5f5b82811061034357005b6001600160a01b0361035e610359838686611015565b610e1c565b16805f525f60205260ff60405f2054161561018c575f818152602081905260409020805460ff19169055600191906001600160a01b0361039c61152e565b16907fed1c006359597e4b6ae445e9bb35cc5642d34f87c1ac44035edd426171c651945f80a30161033a565b3461019e57604036600319011261019e576102056004356103e7610ce6565b9061041261040d825f525f5160206115c75f395f51905f52602052600160405f20015490565b6112b6565b611485565b3461019e57602036600319011261019e576004356001600160401b03811161019e573660238201121561019e57806004013561045281610dcf565b916104606040519384610d9a565b8183526024602084019260051b8201019036821161019e57602401915b8183106105e157835f5160206115e75f395f51905f525460ff8160401c1615906001600160401b038116801590816105d9575b60011490816105cf575b1590816105c6575b506105b75767ffffffffffffffff1981166001175f5160206115e75f395f51905f52558161058b575b506104f461159b565b6104fc61159b565b5f5b825181101561052d576001906105266001600160a01b0361051f8387610f6f565b5116611312565b50016104fe565b5061053457005b68ff0000000000000000195f5160206115e75f395f51905f5254165f5160206115e75f395f51905f52557fc7f505b2f371ae2175ee4913f4499e1f2633a7b5936321eed1cdaeb6115181d2602060405160018152a1005b68ffffffffffffffffff191668010000000000000001175f5160206115e75f395f51905f5255826104eb565b63f92ee8a960e01b5f5260045ffd5b905015846104c2565b303b1591506104ba565b8391506104b0565b82356001600160a01b038116810361019e5781526020928301920161047d565b3461019e575f36600319011261019e5760206040515f8152f35b3461019e57604036600319011261019e57610634610ce6565b6004355f525f5160206115c75f395f51905f5260205260405f209060018060a01b03165f52602052602060ff60405f2054166040519015158152f35b3461019e575f36600319011261019e576040517f00000000000000000000000000000000000000000000000000000000000000006001600160a01b03168152602090f35b3461019e57602036600319011261019e576001600160a01b036106d5610cfc565b165f525f602052602060ff60405f2054166040519015158152f35b3461019e57602061070c61070336610d4c565b92919091611025565b6040519015158152f35b3461019e57602036600319011261019e576004356001600160401b03811161019e57610746903690600401610cb6565b9061074f611228565b5f5b82811061075a57005b6001600160a01b03610770610359838686611015565b1680156107f557805f525f60205260ff60405f2054166107e3575f818152602081905260409020805460ff1916600190811790915591906001600160a01b036107b761152e565b16907fa15b5ac34bacd14dd6f65af7567c6ecbf86fc9c599ae6d37d19d3d62420301225f80a301610751565b63187fe66f60e31b5f5260045260245ffd5b6342bcdf7f60e11b5f5260045ffd5b3461019e57602036600319011261019e57602061081f610cfc565b6040517f00000000000000000000000000000000000000000000000000000000000000006001600160a01b039081169216919091148152f35b3461019e5761086636610d4c565b6040516354c560bd60e11b8152909391905f816004816001600160a01b0387165afa9081156102d0575f91610924575b508051935f5b8581106108a557005b6001600160a01b036108b78285610f6f565b5151169060206108c78286610f6f565b51015191803b1561019e57855f9185838a6108fa8e98604051998a978896879563ea6b97a560e01b875260048701610fdb565b03925af19182156102d057600192610914575b500161089c565b5f61091e91610d9a565b8861090d565b61093891503d805f833e6102f08183610d9a565b85610896565b3461019e57604036600319011261019e57610957610ce6565b6001600160a01b0361096761152e565b166001600160a01b038216036109835761020590600435611485565b63334bd91960e11b5f5260045ffd5b3461019e57602036600319011261019e576109ab610cfc565b6109b3611228565b6001600160a01b031680156107f557805f525f60205260ff60405f2054166107e3575f818152602081905260409020805460ff191660011790556001600160a01b036109fd61152e565b16907fa15b5ac34bacd14dd6f65af7567c6ecbf86fc9c599ae6d37d19d3d62420301225f80a3005b3461019e57604036600319011261019e57610205600435610a44610ce6565b90610a6a61040d825f525f5160206115c75f395f51905f52602052600160405f20015490565b6113d4565b3461019e57610a7d36610d12565b6040516354c560bd60e11b81529192905f836004816001600160a01b0386165afa9283156102d0575f93610b38575b508251925f5b848110610abb57005b6001600160a01b03610acd8284610f6f565b515116906020610add8285610f6f565b51015191803b1561019e57845f91898389610b0e604051988996879586946310efe2a560e01b865260048601610fa7565b03925af19182156102d057600192610b28575b5001610ab2565b5f610b3291610d9a565b87610b21565b610b4d9193503d805f833e6102f08183610d9a565b9184610aac565b3461019e57602036600319011261019e576020610b8b6004355f525f5160206115c75f395f51905f52602052600160405f20015490565b604051908152f35b3461019e57602036600319011261019e5760043563ffffffff60e01b811680910361019e57602090637d84485d60e01b8114908115610c0a575b8115610bdf575b506040519015158152f35b637965db0b60e01b811491508115610bf9575b5082610bd4565b6301ffc9a760e01b14905082610bf2565b632986275d60e01b81149150610bcd565b3461019e57602036600319011261019e576004356001600160401b03811161019e57610c4b903690600401610cb6565b5f5b818110610c5657005b610c64610359828486610de6565b90610c70818486610de6565b602081013590601e198136030182121561019e5701918235926001600160401b03841161019e5760200192803603841361019e57600193610cb092611128565b01610c4d565b9181601f8401121561019e578235916001600160401b03831161019e576020808501948460051b01011161019e57565b602435906001600160a01b038216820361019e57565b600435906001600160a01b038216820361019e57565b606090600319011261019e576004356001600160a01b038116810361019e57906024356001600160a01b038116810361019e579060443590565b608090600319011261019e576004356001600160a01b038116810361019e57906024356001600160a01b038116810361019e57906044356001600160a01b038116810361019e579060643590565b90601f801991011681019081106001600160401b03821117610dbb57604052565b634e487b7160e01b5f52604160045260245ffd5b6001600160401b038111610dbb5760051b60200190565b9190811015610e085760051b81013590603e198136030182121561019e570190565b634e487b7160e01b5f52603260045260245ffd5b356001600160a01b038116810361019e5790565b60208183031261019e578051906001600160401b03821161019e57019080601f8301121561019e57815191610e6483610dcf565b92610e726040519485610d9a565b80845260208085019160051b8301019183831161019e5760208101915b838310610e9e57505050505090565b82516001600160401b03811161019e578201906040828703601f19011261019e5760405191604083018381106001600160401b03821117610dbb5760405260208101516001600160a01b038116810361019e57835260408101516001600160401b03811161019e5760209101019086601f8301121561019e578151926001600160401b038411610dbb57604051610f3f601f8601601f191660200182610d9a565b848152886020868601011161019e575f6020868197828098018386015e8301015283820152815201920191610e8f565b8051821015610e085760209160051b010190565b805180835260209291819084018484015e5f828201840152601f01601f1916010190565b6001600160a01b039182168152911660208201526040810191909152608060608201819052610fd892910190610f83565b90565b6001600160a01b03918216815291811660208301529091166040820152606081019190915260a060808201819052610fd892910190610f83565b9190811015610e085760051b0190565b909160018060a01b0381165f525f60205260ff60405f20541661111f576040516354c560bd60e11b81525f816004816001600160a01b0387165afa9081156102d0575f91611105575b508051935f5b8581106110875750505050505050600190565b6001600160a01b036110998285610f6f565b5151169060206110a98286610f6f565b51015191803b1561019e5760405163ddfcf37760e01b8152925f918491829081906110db908e8c8b8f60048701610fdb565b03915afa9182156102d0576001926110f5575b5001611074565b5f6110ff91610d9a565b5f6110ee565b61111991503d805f833e6102f08183610d9a565b5f61106e565b50505050600190565b6001600160a01b03169081156107f5576040516301ffc9a760e01b8152638c30a94360e01b6004820152602081602481865afa5f91816111eb575b5061117757631bb2296560e31b5f5260045ffd5b156111dc57813b1561019e575f91839160446040518096819582946334ba7ac760e11b845260206004850152816024850152848401378181018301879052601f01601f191681010301915afa80156102d0576111d05750565b5f6111da91610d9a565b565b631bb2296560e31b5f5260045ffd5b9091506020813d602011611220575b8161120760209383610d9a565b8101031261019e5751801515810361019e57905f611163565b3d91506111fa565b61123061152e565b6001600160a01b0381165f9081527f5487618d460918225465c6086f9d713b3e7966d7f3d9813f56baddc249389d60602052604090205460ff16156112725750565b63e2517d3f60e01b5f9081526001600160a01b03919091166004527f536d8a764484a4771b422b2847373c9937c1c6ef07c27fa736a22782b350cf4d602452604490fd5b6112be61152e565b815f525f5160206115c75f395f51905f5260205260405f2060018060a01b0382165f5260205260ff60405f205416156112f5575050565b63e2517d3f60e01b5f5260018060a01b031660045260245260445ffd5b6001600160a01b0381165f9081527fb7db2dd08fcb62d0c9e08c51941cae53c267786a0b75803fb7960902fc8ef97d602052604090205460ff166113cf576001600160a01b038181165f9081527fb7db2dd08fcb62d0c9e08c51941cae53c267786a0b75803fb7960902fc8ef97d60205260409020805460ff1916600117905561139a61152e565b16906001600160a01b03165f7f2f8788117e7eff1d82e926ec794901d17c78024a50270940304540a733656f0d8180a4600190565b505f90565b5f8181525f5160206115c75f395f51905f52602090815260408083206001600160a01b038616845290915290205460ff1661147f575f8181525f5160206115c75f395f51905f52602090815260408083206001600160a01b0386811685529252909120805460ff1916600117905561144a61152e565b16916001600160a01b0316907f2f8788117e7eff1d82e926ec794901d17c78024a50270940304540a733656f0d5f80a4600190565b50505f90565b5f8181525f5160206115c75f395f51905f52602090815260408083206001600160a01b038616845290915290205460ff161561147f575f8181525f5160206115c75f395f51905f52602090815260408083206001600160a01b0386811685529252909120805460ff191690556114f961152e565b16916001600160a01b0316907ff6391f5c32d9c69d2a47ea670b442974b53935d1edc7fd64eb21e047a839171b5f80a4600190565b337f00000000000000000000000000000000000000000000000000000000000000006001600160a01b03161480611590575b1561158c576013193601368111611578573560601c90565b634e487b7160e01b5f52601160045260245ffd5b3390565b506014361015611560565b60ff5f5160206115e75f395f51905f525460401c16156115b757565b631afcd79f60e31b5f5260045ffdfe02dd7bc7dec4dceedda775e58dd541e08a116c6c53815c0bd028192f7b626800f0c57e16840df040f15088dc2f81fe391c3923bec73e23a9662efc9c229c6a00a2646970667358221220e5a42749bb9c8bbea4751b376f689b45bafd9e8db809491e2ba6fb2b189886f564736f6c634300081c0033f0c57e16840df040f15088dc2f81fe391c3923bec73e23a9662efc9c229c6a00",
  "linkReferences": {},
  "deployedLinkReferences": {}
}