{
  "_format": "hh-sol-artifact-1",
  "contractName": "ATKStableCoinImplementation",
  "sourceName": "contracts/assets/stable-coin/ATKStableCoinImplementation.sol",
  "abi": [
    {
      "inputs": [
        {
          "internalType": "address",
          "name": "forwarder_",
          "type": "address"
        }
      ],
      "stateMutability": "nonpayable",
      "type": "constructor"
    },
    {
      "inputs": [
        {
          "internalType": "address",
          "name": "account",
          "type": "address"
        },
        {
          "internalType": "bytes32",
          "name": "neededRole",
          "type": "bytes32"
        }
      ],
      "name": "AccessControlUnauthorizedAccount",
      "type": "error"
    },
    {
      "inputs": [],
      "name": "CannotRecoverSelf",
      "type": "error"
    },
    {
      "inputs": [
        {
          "internalType": "address",
          "name": "module",
          "type": "address"
        }
      ],
      "name": "DuplicateModule",
      "type": "error"
    },
    {
      "inputs": [
        {
          "internalType": "address",
          "name": "spender",
          "type": "address"
        },
        {
          "internalType": "uint256",
          "name": "allowance",
          "type": "uint256"
        },
        {
          "internalType": "uint256",
          "name": "needed",
          "type": "uint256"
        }
      ],
      "name": "ERC20InsufficientAllowance",
      "type": "error"
    },
    {
      "inputs": [
        {
          "internalType": "address",
          "name": "sender",
          "type": "address"
        },
        {
          "internalType": "uint256",
          "name": "balance",
          "type": "uint256"
        },
        {
          "internalType": "uint256",
          "name": "needed",
          "type": "uint256"
        }
      ],
      "name": "ERC20InsufficientBalance",
      "type": "error"
    },
    {
      "inputs": [
        {
          "internalType": "address",
          "name": "approver",
          "type": "address"
        }
      ],
      "name": "ERC20InvalidApprover",
      "type": "error"
    },
    {
      "inputs": [
        {
          "internalType": "address",
          "name": "receiver",
          "type": "address"
        }
      ],
      "name": "ERC20InvalidReceiver",
      "type": "error"
    },
    {
      "inputs": [
        {
          "internalType": "address",
          "name": "sender",
          "type": "address"
        }
      ],
      "name": "ERC20InvalidSender",
      "type": "error"
    },
    {
      "inputs": [
        {
          "internalType": "address",
          "name": "spender",
          "type": "address"
        }
      ],
      "name": "ERC20InvalidSpender",
      "type": "error"
    },
    {
      "inputs": [],
      "name": "ExpectedPause",
      "type": "error"
    },
    {
      "inputs": [
        {
          "internalType": "uint256",
          "name": "available",
          "type": "uint256"
        },
        {
          "internalType": "uint256",
          "name": "requested",
          "type": "uint256"
        }
      ],
      "name": "FreezeAmountExceedsAvailableBalance",
      "type": "error"
    },
    {
      "inputs": [
        {
          "internalType": "uint256",
          "name": "required",
          "type": "uint256"
        },
        {
          "internalType": "uint256",
          "name": "available",
          "type": "uint256"
        }
      ],
      "name": "InsufficientCollateral",
      "type": "error"
    },
    {
      "inputs": [
        {
          "internalType": "uint256",
          "name": "frozenBalance",
          "type": "uint256"
        },
        {
          "internalType": "uint256",
          "name": "requested",
          "type": "uint256"
        }
      ],
      "name": "InsufficientFrozenTokens",
      "type": "error"
    },
    {
      "inputs": [],
      "name": "InsufficientTokenBalance",
      "type": "error"
    },
    {
      "inputs": [
        {
          "internalType": "uint256",
          "name": "topicId",
          "type": "uint256"
        }
      ],
      "name": "InvalidCollateralTopic",
      "type": "error"
    },
    {
      "inputs": [
        {
          "internalType": "uint8",
          "name": "decimals",
          "type": "uint8"
        }
      ],
      "name": "InvalidDecimals",
      "type": "error"
    },
    {
      "inputs": [],
      "name": "InvalidInitialization",
      "type": "error"
    },
    {
      "inputs": [],
      "name": "InvalidLostWallet",
      "type": "error"
    },
    {
      "inputs": [],
      "name": "LengthMismatch",
      "type": "error"
    },
    {
      "inputs": [],
      "name": "MintNotCompliant",
      "type": "error"
    },
    {
      "inputs": [],
      "name": "ModuleAlreadyAdded",
      "type": "error"
    },
    {
      "inputs": [],
      "name": "ModuleNotFound",
      "type": "error"
    },
    {
      "inputs": [],
      "name": "NoTokensToRecover",
      "type": "error"
    },
    {
      "inputs": [],
      "name": "NotInitializing",
      "type": "error"
    },
    {
      "inputs": [],
      "name": "RecipientAddressFrozen",
      "type": "error"
    },
    {
      "inputs": [
        {
          "internalType": "address",
          "name": "token",
          "type": "address"
        }
      ],
      "name": "SafeERC20FailedOperation",
      "type": "error"
    },
    {
      "inputs": [],
      "name": "SenderAddressFrozen",
      "type": "error"
    },
    {
      "inputs": [],
      "name": "TokenPaused",
      "type": "error"
    },
    {
      "inputs": [],
      "name": "TransferNotCompliant",
      "type": "error"
    },
    {
      "inputs": [],
      "name": "ZeroAddressNotAllowed",
      "type": "error"
    },
    {
      "anonymous": false,
      "inputs": [
        {
          "indexed": true,
          "internalType": "address",
          "name": "sender",
          "type": "address"
        },
        {
          "indexed": true,
          "internalType": "address",
          "name": "manager",
          "type": "address"
        }
      ],
      "name": "AccessManagerSet",
      "type": "event"
    },
    {
      "anonymous": false,
      "inputs": [
        {
          "indexed": true,
          "internalType": "address",
          "name": "sender",
          "type": "address"
        },
        {
          "indexed": true,
          "internalType": "address",
          "name": "userAddress",
          "type": "address"
        },
        {
          "indexed": true,
          "internalType": "bool",
          "name": "isFrozen",
          "type": "bool"
        }
      ],
      "name": "AddressFrozen",
      "type": "event"
    },
    {
      "anonymous": false,
      "inputs": [
        {
          "indexed": true,
          "internalType": "address",
          "name": "owner",
          "type": "address"
        },
        {
          "indexed": true,
          "internalType": "address",
          "name": "spender",
          "type": "address"
        },
        {
          "indexed": false,
          "internalType": "uint256",
          "name": "value",
          "type": "uint256"
        }
      ],
      "name": "Approval",
      "type": "event"
    },
    {
      "anonymous": false,
      "inputs": [
        {
          "indexed": true,
          "internalType": "address",
          "name": "sender",
          "type": "address"
        },
        {
          "indexed": true,
          "internalType": "address",
          "name": "from",
          "type": "address"
        },
        {
          "indexed": false,
          "internalType": "uint256",
          "name": "amount",
          "type": "uint256"
        }
      ],
      "name": "BurnCompleted",
      "type": "event"
    },
    {
      "anonymous": false,
      "inputs": [
        {
          "indexed": true,
          "internalType": "address",
          "name": "sender",
          "type": "address"
        },
        {
          "indexed": true,
          "internalType": "address",
          "name": "_compliance",
          "type": "address"
        }
      ],
      "name": "ComplianceAdded",
      "type": "event"
    },
    {
      "anonymous": false,
      "inputs": [
        {
          "indexed": true,
          "internalType": "address",
          "name": "sender",
          "type": "address"
        },
        {
          "indexed": true,
          "internalType": "address",
          "name": "_module",
          "type": "address"
        },
        {
          "indexed": false,
          "internalType": "bytes",
          "name": "_params",
          "type": "bytes"
        }
      ],
      "name": "ComplianceModuleAdded",
      "type": "event"
    },
    {
      "anonymous": false,
      "inputs": [
        {
          "indexed": true,
          "internalType": "address",
          "name": "sender",
          "type": "address"
        },
        {
          "indexed": true,
          "internalType": "address",
          "name": "_module",
          "type": "address"
        }
      ],
      "name": "ComplianceModuleRemoved",
      "type": "event"
    },
    {
      "anonymous": false,
      "inputs": [
        {
          "indexed": true,
          "internalType": "address",
          "name": "sender",
          "type": "address"
        },
        {
          "indexed": true,
          "internalType": "address",
          "name": "token",
          "type": "address"
        },
        {
          "indexed": true,
          "internalType": "address",
          "name": "to",
          "type": "address"
        },
        {
          "indexed": false,
          "internalType": "uint256",
          "name": "amount",
          "type": "uint256"
        }
      ],
      "name": "ERC20TokenRecovered",
      "type": "event"
    },
    {
      "anonymous": false,
      "inputs": [
        {
          "indexed": true,
          "internalType": "address",
          "name": "sender",
          "type": "address"
        },
        {
          "indexed": true,
          "internalType": "address",
          "name": "_identityRegistry",
          "type": "address"
        }
      ],
      "name": "IdentityRegistryAdded",
      "type": "event"
    },
    {
      "anonymous": false,
      "inputs": [
        {
          "indexed": false,
          "internalType": "uint64",
          "name": "version",
          "type": "uint64"
        }
      ],
      "name": "Initialized",
      "type": "event"
    },
    {
      "anonymous": false,
      "inputs": [
        {
          "indexed": true,
          "internalType": "address",
          "name": "sender",
          "type": "address"
        },
        {
          "indexed": true,
          "internalType": "address",
          "name": "to",
          "type": "address"
        },
        {
          "indexed": false,
          "internalType": "uint256",
          "name": "amount",
          "type": "uint256"
        }
      ],
      "name": "MintCompleted",
      "type": "event"
    },
    {
      "anonymous": false,
      "inputs": [
        {
          "indexed": true,
          "internalType": "address",
          "name": "sender",
          "type": "address"
        },
        {
          "indexed": true,
          "internalType": "address",
          "name": "_module",
          "type": "address"
        },
        {
          "indexed": false,
          "internalType": "bytes",
          "name": "_params",
          "type": "bytes"
        }
      ],
      "name": "ModuleParametersUpdated",
      "type": "event"
    },
    {
      "anonymous": false,
      "inputs": [
        {
          "indexed": true,
          "internalType": "address",
          "name": "sender",
          "type": "address"
        }
      ],
      "name": "Paused",
      "type": "event"
    },
    {
      "anonymous": false,
      "inputs": [
        {
          "indexed": true,
          "internalType": "address",
          "name": "sender",
          "type": "address"
        },
        {
          "indexed": true,
          "internalType": "address",
          "name": "lostWallet",
          "type": "address"
        },
        {
          "indexed": true,
          "internalType": "address",
          "name": "newWallet",
          "type": "address"
        },
        {
          "indexed": false,
          "internalType": "address",
          "name": "investorOnchainID",
          "type": "address"
        }
      ],
      "name": "RecoverySuccess",
      "type": "event"
    },
    {
      "anonymous": false,
      "inputs": [
        {
          "indexed": true,
          "internalType": "address",
          "name": "sender",
          "type": "address"
        },
        {
          "indexed": true,
          "internalType": "address",
          "name": "user",
          "type": "address"
        },
        {
          "indexed": false,
          "internalType": "uint256",
          "name": "amount",
          "type": "uint256"
        }
      ],
      "name": "TokensFrozen",
      "type": "event"
    },
    {
      "anonymous": false,
      "inputs": [
        {
          "indexed": true,
          "internalType": "address",
          "name": "sender",
          "type": "address"
        },
        {
          "indexed": true,
          "internalType": "address",
          "name": "lostWallet",
          "type": "address"
        },
        {
          "indexed": true,
          "internalType": "address",
          "name": "newWallet",
          "type": "address"
        },
        {
          "indexed": false,
          "internalType": "uint256",
          "name": "amount",
          "type": "uint256"
        }
      ],
      "name": "TokensRecovered",
      "type": "event"
    },
    {
      "anonymous": false,
      "inputs": [
        {
          "indexed": true,
          "internalType": "address",
          "name": "sender",
          "type": "address"
        },
        {
          "indexed": true,
          "internalType": "address",
          "name": "user",
          "type": "address"
        },
        {
          "indexed": false,
          "internalType": "uint256",
          "name": "amount",
          "type": "uint256"
        }
      ],
      "name": "TokensUnfrozen",
      "type": "event"
    },
    {
      "anonymous": false,
      "inputs": [
        {
          "indexed": true,
          "internalType": "address",
          "name": "from",
          "type": "address"
        },
        {
          "indexed": true,
          "internalType": "address",
          "name": "to",
          "type": "address"
        },
        {
          "indexed": false,
          "internalType": "uint256",
          "name": "value",
          "type": "uint256"
        }
      ],
      "name": "Transfer",
      "type": "event"
    },
    {
      "anonymous": false,
      "inputs": [
        {
          "indexed": true,
          "internalType": "address",
          "name": "sender",
          "type": "address"
        },
        {
          "indexed": true,
          "internalType": "address",
          "name": "from",
          "type": "address"
        },
        {
          "indexed": true,
          "internalType": "address",
          "name": "to",
          "type": "address"
        },
        {
          "indexed": false,
          "internalType": "uint256",
          "name": "amount",
          "type": "uint256"
        }
      ],
      "name": "TransferCompleted",
      "type": "event"
    },
    {
      "anonymous": false,
      "inputs": [
        {
          "indexed": true,
          "internalType": "address",
          "name": "sender",
          "type": "address"
        }
      ],
      "name": "Unpaused",
      "type": "event"
    },
    {
      "anonymous": false,
      "inputs": [
        {
          "indexed": true,
          "internalType": "address",
          "name": "sender",
          "type": "address"
        },
        {
          "indexed": false,
          "internalType": "uint8",
          "name": "_newDecimals",
          "type": "uint8"
        },
        {
          "indexed": true,
          "internalType": "address",
          "name": "_newOnchainID",
          "type": "address"
        }
      ],
      "name": "UpdatedTokenInformation",
      "type": "event"
    },
    {
      "inputs": [],
      "name": "accessManager",
      "outputs": [
        {
          "internalType": "address",
          "name": "",
          "type": "address"
        }
      ],
      "stateMutability": "view",
      "type": "function"
    },
    {
      "inputs": [
        {
          "internalType": "address",
          "name": "_module",
          "type": "address"
        },
        {
          "internalType": "bytes",
          "name": "_params",
          "type": "bytes"
        }
      ],
      "name": "addComplianceModule",
      "outputs": [],
      "stateMutability": "nonpayable",
      "type": "function"
    },
    {
      "inputs": [
        {
          "internalType": "address",
          "name": "owner",
          "type": "address"
        },
        {
          "internalType": "address",
          "name": "spender",
          "type": "address"
        }
      ],
      "name": "allowance",
      "outputs": [
        {
          "internalType": "uint256",
          "name": "",
          "type": "uint256"
        }
      ],
      "stateMutability": "view",
      "type": "function"
    },
    {
      "inputs": [
        {
          "internalType": "address",
          "name": "spender",
          "type": "address"
        },
        {
          "internalType": "uint256",
          "name": "value",
          "type": "uint256"
        }
      ],
      "name": "approve",
      "outputs": [
        {
          "internalType": "bool",
          "name": "",
          "type": "bool"
        }
      ],
      "stateMutability": "nonpayable",
      "type": "function"
    },
    {
      "inputs": [
        {
          "internalType": "address",
          "name": "account",
          "type": "address"
        }
      ],
      "name": "balanceOf",
      "outputs": [
        {
          "internalType": "uint256",
          "name": "",
          "type": "uint256"
        }
      ],
      "stateMutability": "view",
      "type": "function"
    },
    {
      "inputs": [
        {
          "internalType": "address[]",
          "name": "userAddresses",
          "type": "address[]"
        },
        {
          "internalType": "uint256[]",
          "name": "amounts",
          "type": "uint256[]"
        }
      ],
      "name": "batchBurn",
      "outputs": [],
      "stateMutability": "nonpayable",
      "type": "function"
    },
    {
      "inputs": [
        {
          "internalType": "address[]",
          "name": "fromList",
          "type": "address[]"
        },
        {
          "internalType": "address[]",
          "name": "toList",
          "type": "address[]"
        },
        {
          "internalType": "uint256[]",
          "name": "amounts",
          "type": "uint256[]"
        }
      ],
      "name": "batchForcedTransfer",
      "outputs": [],
      "stateMutability": "nonpayable",
      "type": "function"
    },
    {
      "inputs": [
        {
          "internalType": "address[]",
          "name": "userAddresses",
          "type": "address[]"
        },
        {
          "internalType": "uint256[]",
          "name": "amounts",
          "type": "uint256[]"
        }
      ],
      "name": "batchFreezePartialTokens",
      "outputs": [],
      "stateMutability": "nonpayable",
      "type": "function"
    },
    {
      "inputs": [
        {
          "internalType": "address[]",
          "name": "_toList",
          "type": "address[]"
        },
        {
          "internalType": "uint256[]",
          "name": "_amounts",
          "type": "uint256[]"
        }
      ],
      "name": "batchMint",
      "outputs": [],
      "stateMutability": "nonpayable",
      "type": "function"
    },
    {
      "inputs": [
        {
          "internalType": "address[]",
          "name": "userAddresses",
          "type": "address[]"
        },
        {
          "internalType": "bool[]",
          "name": "freeze",
          "type": "bool[]"
        }
      ],
      "name": "batchSetAddressFrozen",
      "outputs": [],
      "stateMutability": "nonpayable",
      "type": "function"
    },
    {
      "inputs": [
        {
          "internalType": "address[]",
          "name": "toList",
          "type": "address[]"
        },
        {
          "internalType": "uint256[]",
          "name": "amounts",
          "type": "uint256[]"
        }
      ],
      "name": "batchTransfer",
      "outputs": [],
      "stateMutability": "nonpayable",
      "type": "function"
    },
    {
      "inputs": [
        {
          "internalType": "address[]",
          "name": "userAddresses",
          "type": "address[]"
        },
        {
          "internalType": "uint256[]",
          "name": "amounts",
          "type": "uint256[]"
        }
      ],
      "name": "batchUnfreezePartialTokens",
      "outputs": [],
      "stateMutability": "nonpayable",
      "type": "function"
    },
    {
      "inputs": [
        {
          "internalType": "address",
          "name": "userAddress",
          "type": "address"
        },
        {
          "internalType": "uint256",
          "name": "amount",
          "type": "uint256"
        }
      ],
      "name": "burn",
      "outputs": [],
      "stateMutability": "nonpayable",
      "type": "function"
    },
    {
      "inputs": [],
      "name": "compliance",
      "outputs": [
        {
          "internalType": "contract ISMARTCompliance",
          "name": "",
          "type": "address"
        }
      ],
      "stateMutability": "view",
      "type": "function"
    },
    {
      "inputs": [],
      "name": "complianceModules",
      "outputs": [
        {
          "components": [
            {
              "internalType": "address",
              "name": "module",
              "type": "address"
            },
            {
              "internalType": "bytes",
              "name": "params",
              "type": "bytes"
            }
          ],
          "internalType": "struct SMARTComplianceModuleParamPair[]",
          "name": "",
          "type": "tuple[]"
        }
      ],
      "stateMutability": "view",
      "type": "function"
    },
    {
      "inputs": [],
      "name": "decimals",
      "outputs": [
        {
          "internalType": "uint8",
          "name": "",
          "type": "uint8"
        }
      ],
      "stateMutability": "view",
      "type": "function"
    },
    {
      "inputs": [],
      "name": "findValidCollateralClaim",
      "outputs": [
        {
          "internalType": "uint256",
          "name": "amount",
          "type": "uint256"
        },
        {
          "internalType": "address",
          "name": "issuer",
          "type": "address"
        },
        {
          "internalType": "uint256",
          "name": "expiryTimestamp",
          "type": "uint256"
        }
      ],
      "stateMutability": "view",
      "type": "function"
    },
    {
      "inputs": [
        {
          "internalType": "address",
          "name": "lostWallet",
          "type": "address"
        },
        {
          "internalType": "address",
          "name": "newWallet",
          "type": "address"
        }
      ],
      "name": "forcedRecoverTokens",
      "outputs": [],
      "stateMutability": "nonpayable",
      "type": "function"
    },
    {
      "inputs": [
        {
          "internalType": "address",
          "name": "from",
          "type": "address"
        },
        {
          "internalType": "address",
          "name": "to",
          "type": "address"
        },
        {
          "internalType": "uint256",
          "name": "amount",
          "type": "uint256"
        }
      ],
      "name": "forcedTransfer",
      "outputs": [
        {
          "internalType": "bool",
          "name": "",
          "type": "bool"
        }
      ],
      "stateMutability": "nonpayable",
      "type": "function"
    },
    {
      "inputs": [
        {
          "internalType": "address",
          "name": "userAddress",
          "type": "address"
        },
        {
          "internalType": "uint256",
          "name": "amount",
          "type": "uint256"
        }
      ],
      "name": "freezePartialTokens",
      "outputs": [],
      "stateMutability": "nonpayable",
      "type": "function"
    },
    {
      "inputs": [
        {
          "internalType": "address",
          "name": "userAddress",
          "type": "address"
        }
      ],
      "name": "getFrozenTokens",
      "outputs": [
        {
          "internalType": "uint256",
          "name": "",
          "type": "uint256"
        }
      ],
      "stateMutability": "view",
      "type": "function"
    },
    {
      "inputs": [
        {
          "internalType": "bytes32",
          "name": "role",
          "type": "bytes32"
        },
        {
          "internalType": "address",
          "name": "account",
          "type": "address"
        }
      ],
      "name": "hasRole",
      "outputs": [
        {
          "internalType": "bool",
          "name": "",
          "type": "bool"
        }
      ],
      "stateMutability": "view",
      "type": "function"
    },
    {
      "inputs": [],
      "name": "identityRegistry",
      "outputs": [
        {
          "internalType": "contract ISMARTIdentityRegistry",
          "name": "",
          "type": "address"
        }
      ],
      "stateMutability": "view",
      "type": "function"
    },
    {
      "inputs": [
        {
          "internalType": "string",
          "name": "name_",
          "type": "string"
        },
        {
          "internalType": "string",
          "name": "symbol_",
          "type": "string"
        },
        {
          "internalType": "uint8",
          "name": "decimals_",
          "type": "uint8"
        },
        {
          "internalType": "address",
          "name": "onchainID_",
          "type": "address"
        },
        {
          "internalType": "uint256",
          "name": "collateralTopicId_",
          "type": "uint256"
        },
        {
          "components": [
            {
              "internalType": "address",
              "name": "module",
              "type": "address"
            },
            {
              "internalType": "bytes",
              "name": "params",
              "type": "bytes"
            }
          ],
          "internalType": "struct SMARTComplianceModuleParamPair[]",
          "name": "initialModulePairs_",
          "type": "tuple[]"
        },
        {
          "internalType": "address",
          "name": "identityRegistry_",
          "type": "address"
        },
        {
          "internalType": "address",
          "name": "compliance_",
          "type": "address"
        },
        {
          "internalType": "address",
          "name": "accessManager_",
          "type": "address"
        }
      ],
      "name": "initialize",
      "outputs": [],
      "stateMutability": "nonpayable",
      "type": "function"
    },
    {
      "inputs": [
        {
          "internalType": "address",
          "name": "userAddress",
          "type": "address"
        }
      ],
      "name": "isFrozen",
      "outputs": [
        {
          "internalType": "bool",
          "name": "",
          "type": "bool"
        }
      ],
      "stateMutability": "view",
      "type": "function"
    },
    {
      "inputs": [
        {
          "internalType": "address",
          "name": "forwarder",
          "type": "address"
        }
      ],
      "name": "isTrustedForwarder",
      "outputs": [
        {
          "internalType": "bool",
          "name": "",
          "type": "bool"
        }
      ],
      "stateMutability": "view",
      "type": "function"
    },
    {
      "inputs": [
        {
          "internalType": "address",
          "name": "_to",
          "type": "address"
        },
        {
          "internalType": "uint256",
          "name": "_amount",
          "type": "uint256"
        }
      ],
      "name": "mint",
      "outputs": [],
      "stateMutability": "nonpayable",
      "type": "function"
    },
    {
      "inputs": [],
      "name": "name",
      "outputs": [
        {
          "internalType": "string",
          "name": "",
          "type": "string"
        }
      ],
      "stateMutability": "view",
      "type": "function"
    },
    {
      "inputs": [],
      "name": "onchainID",
      "outputs": [
        {
          "internalType": "address",
          "name": "",
          "type": "address"
        }
      ],
      "stateMutability": "view",
      "type": "function"
    },
    {
      "inputs": [],
      "name": "pause",
      "outputs": [],
      "stateMutability": "nonpayable",
      "type": "function"
    },
    {
      "inputs": [],
      "name": "paused",
      "outputs": [
        {
          "internalType": "bool",
          "name": "",
          "type": "bool"
        }
      ],
      "stateMutability": "view",
      "type": "function"
    },
    {
      "inputs": [
        {
          "internalType": "address",
          "name": "token",
          "type": "address"
        },
        {
          "internalType": "address",
          "name": "to",
          "type": "address"
        },
        {
          "internalType": "uint256",
          "name": "amount",
          "type": "uint256"
        }
      ],
      "name": "recoverERC20",
      "outputs": [],
      "stateMutability": "nonpayable",
      "type": "function"
    },
    {
      "inputs": [
        {
          "internalType": "address",
          "name": "lostWallet",
          "type": "address"
        }
      ],
      "name": "recoverTokens",
      "outputs": [],
      "stateMutability": "nonpayable",
      "type": "function"
    },
    {
      "inputs": [
        {
          "internalType": "address",
          "name": "_module",
          "type": "address"
        }
      ],
      "name": "removeComplianceModule",
      "outputs": [],
      "stateMutability": "nonpayable",
      "type": "function"
    },
    {
      "inputs": [
        {
          "internalType": "address",
          "name": "userAddress",
          "type": "address"
        },
        {
          "internalType": "bool",
          "name": "freeze",
          "type": "bool"
        }
      ],
      "name": "setAddressFrozen",
      "outputs": [],
      "stateMutability": "nonpayable",
      "type": "function"
    },
    {
      "inputs": [
        {
          "internalType": "address",
          "name": "_compliance",
          "type": "address"
        }
      ],
      "name": "setCompliance",
      "outputs": [],
      "stateMutability": "nonpayable",
      "type": "function"
    },
    {
      "inputs": [
        {
          "internalType": "address",
          "name": "_identityRegistry",
          "type": "address"
        }
      ],
      "name": "setIdentityRegistry",
      "outputs": [],
      "stateMutability": "nonpayable",
      "type": "function"
    },
    {
      "inputs": [
        {
          "internalType": "address",
          "name": "_onchainID",
          "type": "address"
        }
      ],
      "name": "setOnchainID",
      "outputs": [],
      "stateMutability": "nonpayable",
      "type": "function"
    },
    {
      "inputs": [
        {
          "internalType": "address",
          "name": "_module",
          "type": "address"
        },
        {
          "internalType": "bytes",
          "name": "_params",
          "type": "bytes"
        }
      ],
      "name": "setParametersForComplianceModule",
      "outputs": [],
      "stateMutability": "nonpayable",
      "type": "function"
    },
    {
      "inputs": [
        {
          "internalType": "bytes4",
          "name": "interfaceId",
          "type": "bytes4"
        }
      ],
      "name": "supportsInterface",
      "outputs": [
        {
          "internalType": "bool",
          "name": "",
          "type": "bool"
        }
      ],
      "stateMutability": "view",
      "type": "function"
    },
    {
      "inputs": [],
      "name": "symbol",
      "outputs": [
        {
          "internalType": "string",
          "name": "",
          "type": "string"
        }
      ],
      "stateMutability": "view",
      "type": "function"
    },
    {
      "inputs": [],
      "name": "totalSupply",
      "outputs": [
        {
          "internalType": "uint256",
          "name": "",
          "type": "uint256"
        }
      ],
      "stateMutability": "view",
      "type": "function"
    },
    {
      "inputs": [
        {
          "internalType": "address",
          "name": "_to",
          "type": "address"
        },
        {
          "internalType": "uint256",
          "name": "_amount",
          "type": "uint256"
        }
      ],
      "name": "transfer",
      "outputs": [
        {
          "internalType": "bool",
          "name": "",
          "type": "bool"
        }
      ],
      "stateMutability": "nonpayable",
      "type": "function"
    },
    {
      "inputs": [
        {
          "internalType": "address",
          "name": "from",
          "type": "address"
        },
        {
          "internalType": "address",
          "name": "to",
          "type": "address"
        },
        {
          "internalType": "uint256",
          "name": "value",
          "type": "uint256"
        }
      ],
      "name": "transferFrom",
      "outputs": [
        {
          "internalType": "bool",
          "name": "",
          "type": "bool"
        }
      ],
      "stateMutability": "nonpayable",
      "type": "function"
    },
    {
      "inputs": [],
      "name": "trustedForwarder",
      "outputs": [
        {
          "internalType": "address",
          "name": "",
          "type": "address"
        }
      ],
      "stateMutability": "view",
      "type": "function"
    },
    {
      "inputs": [
        {
          "internalType": "address",
          "name": "userAddress",
          "type": "address"
        },
        {
          "internalType": "uint256",
          "name": "amount",
          "type": "uint256"
        }
      ],
      "name": "unfreezePartialTokens",
      "outputs": [],
      "stateMutability": "nonpayable",
      "type": "function"
    },
    {
      "inputs": [],
      "name": "unpause",
      "outputs": [],
      "stateMutability": "nonpayable",
      "type": "function"
    }
  ],
  "bytecode": "0x60a03461008857601f6143d738819003918201601f19168301916001600160401b0383118484101761008c5780849260209460405283398101031261008857516001600160a01b0381168103610088576100576100a0565b6080526100626100a0565b60405161428090816101378239608051818181611510015281816118560152613f8a0152f35b5f80fd5b634e487b7160e01b5f52604160045260245ffd5b5f5160206143b75f395f51905f525460ff8160401c16610127576002600160401b03196001600160401b038216016100d55750565b6001600160401b0319166001600160401b039081175f5160206143b75f395f51905f52556040519081527fc7f505b2f371ae2175ee4913f4499e1f2633a7b5936321eed1cdaeb6115181d290602090a1565b63f92ee8a960e01b5f5260045ffdfe6080806040526004361015610012575f80fd5b5f905f3560e01c90816301ffc9a71461214f5750806306fdde031461206d578063095ea7b314611fb65780631171bda914611f94578063125c4a3314611f64578063134e18f414611f3c578063158b1a5714611f0457806316114acd14611ed857806318160ddd14611eaf5780631a7af37914611e3a5780631ef5205f14611ca45780631fe56f7d14611c7357806323b872dd14611b8d578063313ce56714611b6c5780633d1ddc5b14611ad15780633f4ba83a14611a5b57806340c10f1914611a2a57806342a47abc146119425780634710362d146118e65780634a6cc6771461188a578063572b6c05146118355780635c975abb146118125780636290865d146117e957806362b9333e146117b3578063685731071461175757806370a082311461172b57806377d2f8d91461153f5780637da0a877146114fa57806381418ae414610b025780638456cb5914610a8557806388d695b214610a3157806391d1485414610a0a57806395d89b411461090f5780639dc29fac146108d95780639fc1d0e7146108aa578063a9059cbb14610871578063a98ac17a146106ea578063aba63705146106bd578063b5cb9db314610685578063c69c09cf14610644578063c76f3d9b1461045d578063cbf3f861146103df578063dd62ed3e14610397578063e583983614610358578063f8981789146102c6578063fc7e5fa81461024e5763fdcb606814610223575f80fd5b3461024b578060031936011261024b576008546040516001600160a01b039091168152602090f35b80fd5b503461024b5761025d36612294565b909161026f61026a613f87565b612934565b8181036102b457845b818110610283578580f35b806102ae61029c610297600194868a613036565b613046565b6102a7838789613036565b3590612c2d565b01610278565b6001621398b960e31b03198552600485fd5b503461024b57602036600319011261024b576102e06121fe565b6102f06102eb613f87565b6129aa565b6001600160a01b0316801561034957600480546001600160a01b031916821790556001600160a01b03610321613f87565b167f4cd146021d85ad5de55052ad32d44b8b6e496b3436cf6acdfcb5e82b7b3bccb38380a380f35b6342bcdf7f60e11b8252600482fd5b503461024b57602036600319011261024b5760209060ff906040906001600160a01b036103836121fe565b168152600a84522054166040519015158152f35b503461024b57604036600319011261024b576103b16121fe565b6103c26103bc612214565b91612493565b9060018060a01b03165f52602052602060405f2054604051908152f35b503461024b57602036600319011261024b576103f96121fe565b6104046102eb613f87565b6001600160a01b0316801561034957600380546001600160a01b031916821790556001600160a01b03610435613f87565b167f95d78da2896224ccde884cbed0572281fdb51e155034d0012fc6593806df69768380a380f35b503461024b57602036600319011261024b576104776121fe565b6104826102eb613f87565b6001600160a01b0316808252600560205260408220548015610635575f198101818111610621576007545f19810190811161060d578082036105ab575b5050506007548015610597575f19016104d7816124f1565b81549060018060a01b039060031b1b19169055600755808252600560205281604081205580825260066020528160408120610512815461251d565b80610555575b506001600160a01b03915061052d9050613f87565b167f34edd82cbb989f04be4723e96eec51ffb91f506ef585c7f28ce53110782f5f5e8380a380f35b601f811160011461056b5750555b815f80610518565b8183526020832061058791601f0160051c81019060010161309c565b8082528160208120915555610563565b634e487b7160e01b83526031600452602483fd5b6105d5916105bb6105f9926124f1565b905460039190911b1c6001600160a01b03169283916124f1565b81546001600160a01b0393841660039290921b91821b9390911b1916919091179055565b8352600560205260408320555f80806104bf565b634e487b7160e01b85526011600452602485fd5b634e487b7160e01b84526011600452602484fd5b631c94b02360e21b8352600483fd5b503461024b57604036600319011261024b5761065e6121fe565b60243580151581036106815761067e9161067961026a613f87565b613f3f565b80f35b8280fd5b503461024b578060031936011261024b5760606106a061259c565b604080519384526001600160a01b03909216602084015290820152f35b503461024b578060031936011261024b5760025460405160089190911c6001600160a01b03168152602090f35b503461024b578060031936011261024b576007549061070882612405565b906107166040519283612375565b828252601f1961072584612405565b01815b81811061084757505080925b80841061074d5760405180610749858261241c565b0390f35b610759849392936124f1565b905460039190911b1c6001600160a01b031680845260066020526040808520905190959161078682612346565b815260405195859080549061079a8261251d565b808a52916001811690811561082057506001146107e9575b5050956107c6816001959697980382612375565b60208201526107d58286612555565b526107e08185612555565b50019290610734565b8752602087208792505b81831061080a57505086016020016107c6876107b2565b6001816020925483868d010152019201916107f3565b60ff19166020808c019190915292151560051b8a0190920192506107c691508890506107b2565b60209060409593955161085981612346565b86815260608382015282828701015201939193610728565b503461024b57604036600319011261024b5761089f61088e6121fe565b6024359061089a613f87565b61316b565b602060405160018152f35b503461024b5760206108cf6108be3661222a565b916108ca61026a613f87565b61389f565b6040519015158152f35b503461024b57604036600319011261024b5761067e6108f66121fe565b610906610901613f87565b612a20565b602435906136cd565b503461024b578060031936011261024b5760405190805f5160206141ab5f395f51905f52549061093e8261251d565b80855291600181169081156109e3575060011461097a575b6107498461096681860382612375565b6040519182916020835260208301906121da565b5f5160206141ab5f395f51905f5281527f46a2803e59a4de4e7a4c574b1243f25977ac4c77d5a1a4a609b5394cebb4a2aa939250905b8082106109c95750909150810160200161096682610956565b9192600181602092548385880101520191019092916109b0565b60ff191660208087019190915292151560051b850190920192506109669150839050610956565b503461024b57604036600319011261024b5760206108cf610a29612214565b60043561366c565b503461024b57610a4036612294565b90918181036102b457845b818110610a56578580f35b80610a7f610a6a610297600194868a613036565b610a75838789613036565b359061089a613f87565b01610a4b565b503461024b578060031936011261024b57610aa6610aa1613f87565b6128be565b600c5460ff8116610af35760ff1916600117600c556001600160a01b03610acb613f87565b167f62e78cea01bee320cd4e420270b5ea74000d11b0c9f74754ebdbfc544b05a2588280a280f35b638dfc202b60e01b8252600482fd5b503461024b5761012036600319011261024b576004356001600160401b0381116114f657610b349036906004016123e7565b6024356001600160401b03811161068157610b539036906004016123e7565b6044359060ff82168092036114f257606435916001600160a01b038316908184036114ee576084359360a435916001600160401b0383116114ea57366023840112156114ea57826004013592610ba884612405565b93610bb66040519586612375565b8085526024602086019160051b830101913683116114465760248101915b83831061144e5750505060c4356001600160a01b03811693915083900361120e5760e4356001600160a01b038116919082900361144a57610104356001600160a01b0381169790889003611446575f51602061422b5f395f51905f52549960ff8b60401c16159a6001600160401b0381168015908161143e575b6001149081611434575b15908161142b575b5061141c5767ffffffffffffffff1981166001175f51602061422b5f395f51905f52558b6113f0575b50610c92613fe0565b610c9a613fe0565b610ca2613fe0565b80516001600160401b0381116113dc578c610cca5f51602061416b5f395f51905f525461251d565b601f811161139f575b505060208d601f83116001146113235790610d029383611240575b50508160011b915f199060031b1c19161790565b5f51602061416b5f395f51905f52555b80516001600160401b03811161130f578b610d3a5f5160206141ab5f395f51905f525461251d565b601f81116112c7575b505060208c601f831160011461124b5790610d7193836112405750508160011b915f199060031b1c19161790565b5f5160206141ab5f395f51905f52555b8115611231578315611231576012831161121d578260025491610100600160a81b039060081b16916affffffffffffffffffffff60a81b161717600255826bffffffffffffffffffffffff60a01b6003541617600355806bffffffffffffffffffffffff60a01b6004541617600455803b1561120e5760405162fdecdb60e01b81528990818180610e15896004830161241c565b0381865afa8015611212576111f9575b5050610e2f613f87565b84516001600160a01b03909116948a805b8381106110585750505050916020917fc5e2e9318498e1a253726df4112345358bfcbadd5aab57c99d8c7f590ab0d32a9360405192867f95d78da2896224ccde884cbed0572281fdb51e155034d0012fc6593806df69768d80a3857f4cd146021d85ad5de55052ad32d44b8b6e496b3436cf6acdfcb5e82b7b3bccb38c80a38152a3610eca613fe0565b6325e5ad7960e01b8452600160205260408420600160ff19825416179055610ef0613fe0565b63d7ae59db60e01b8452600160205260408420600160ff19825416179055610f16613fe0565b631cf1473b60e31b8452600160205260408420600160ff19825416179055610f3c613fe0565b801561104957600880546001600160a01b03191682179055631b068a0f60e21b84526001602081905260408520805460ff191690911790556001600160a01b03610f84613f87565b167f2ddabd343e5cc7a71d4628054d3292636fc1bf21d5faef22c2dcad9f96554f178580a3610fb1613fe0565b80156110375760095563b5cb9db360e01b8252600160205260408220600160ff19825416179055610fdf5780f35b68ff0000000000000000195f51602061422b5f395f51905f5254165f51602061422b5f395f51905f52557fc7f505b2f371ae2175ee4913f4499e1f2633a7b5936321eed1cdaeb6115181d2602060405160018152a180f35b632a73165b60e11b8352600452602482fd5b6342bcdf7f60e11b8452600484fd5b6001600160a01b0361106a8285612555565b5151166040602061107b8487612555565b51015193828152600560205220546111e75760408e611099836135ff565b6007548382526005602052828220558281526006602052209280516001600160401b0381116111d257908f918b926110db826110d5895461251d565b896130b2565b602090601f831160011461114a579661111e83611134945f51602061414b5f395f51905f52969460019b9161113f575b508160011b915f199060031b1c19161790565b90556040519182916020835260208301906121da565b0390a3018b90610e40565b90508401515f61110b565b601f97929197198216838252888220915b8181106111a8575082611134949260019a5f51602061414b5f395f51905f5297958c9410611190575b5050811b019055610966565b8501515f1960f88460031b161c191690555f80611184565b929496979893955090602060018192868a015181550194019201908e95939198979694929861115b565b50634e487b7160e01b8f52604160045260248ffd5b630da3f63f60e41b8e5260045260248dfd5b8161120391612375565b61120e57885f610e25565b8880fd5b6040513d84823e3d90fd5b63ca95039160e01b8a52600483905260248afd5b6342bcdf7f60e11b8a5260048afd5b015190505f80610cee565b9192601f1984165f5160206141ab5f395f51905f528452828420935b8181106112af5750908460019594939210611297575b505050811b015f5160206141ab5f395f51905f5255610d81565b01515f1960f88460031b161c191690555f808061127d565b92936020600181928786015181550195019301611267565b6020825f5160206141ab5f395f51905f526112fe945220601f840160051c81019160208510611305575b601f0160051c019061309c565b8b5f610d43565b90915081906112f1565b634e487b7160e01b8c52604160045260248cfd5b9192601f1984165f51602061416b5f395f51905f528452828420935b818110611387575090846001959493921061136f575b505050811b015f51602061416b5f395f51905f5255610d12565b01515f1960f88460031b161c191690555f8080611355565b9293602060018192878601518155019501930161133f565b6020825f51602061416b5f395f51905f526113d5945220601f840160051c8101916020851061130557601f0160051c019061309c565b8c5f610cd3565b634e487b7160e01b8d52604160045260248dfd5b68ffffffffffffffffff191668010000000000000001175f51602061422b5f395f51905f52555f610c89565b63f92ee8a960e01b8d5260048dfd5b9050155f610c60565b303b159150610c58565b8d9150610c4e565b8a80fd5b8980fd5b82356001600160401b0381116114e657820190604060231983360301126114e6576040519161147c83612346565b60248101356001600160a01b03811681036114e257835260448101356001600160401b0381116114de5760249101019036601f830112156114da576020926114cb8493369085813591016123b1565b83820152815201920191610bd4565b8d80fd5b8e80fd5b5f80fd5b8c80fd5b8780fd5b8580fd5b8380fd5b5080fd5b503461024b578060031936011261024b576040517f00000000000000000000000000000000000000000000000000000000000000006001600160a01b03168152602090f35b503461024b5761154e366122e4565b9061155a6102eb613f87565b60045484906001600160a01b0316803b156114f65781604051809263e50bcad360e01b8252818061159089898c6004850161307a565b03915afa801561121257611716575b50506001600160a01b03831680855260056020526040852054909390611707576115c8906135ff565b60075483855260056020526040852055828452600660205260408420906001600160401b0383116116f35761160783611601845461251d565b846130b2565b849183601f811160011461167f5780611642915f51602061414b5f395f51905f5295899161167457508160011b915f199060031b1c19161790565b90555b6001600160a01b03611655613f87565b169261166e60405192839260208452602084019161305a565b0390a380f35b90508401355f61110b565b5080865260208620869385601f1981165b8087106116d5575f51602061414b5f395f51905f529650106116bc575b5050600184811b019055611645565b8301355f19600387901b60f8161c191690555f806116ad565b85830135845560209687019660019094019390920191879150611690565b634e487b7160e01b85526041600452602485fd5b63079f102d60e51b8552600485fd5b8161172091612375565b6114f257835f61159f565b503461024b57602036600319011261024b57602061174f61174a6121fe565b6124cb565b604051908152f35b503461024b5761176636612294565b9091611773610901613f87565b8181036102b457845b818110611787578580f35b806117ad61179b610297600194868a613036565b6117a6838789613036565b3590613408565b0161177c565b503461024b57604036600319011261024b5761067e6117d06121fe565b6117d8612214565b906117e461026a613f87565b612ce7565b503461024b578060031936011261024b576004546040516001600160a01b039091168152602090f35b503461024b578060031936011261024b57602060ff600c54166040519015158152f35b503461024b57602036600319011261024b5760206118516121fe565b6040517f00000000000000000000000000000000000000000000000000000000000000006001600160a01b039081169216919091148152f35b503461024b5761189936612294565b90916118a6610901613f87565b8181036102b457845b8181106118ba578580f35b806118e06118ce610297600194868a613036565b6118d9838789613036565b35906136cd565b016118af565b503461024b576118f536612294565b909161190261026a613f87565b8181036102b457845b818110611916578580f35b8061193c61192a610297600194868a613036565b611935838789613036565b35906130ec565b0161190b565b503461024b57606036600319011261024b576004356001600160401b0381116114f657611973903690600401612264565b6024356001600160401b0381116114f257611992903690600401612264565b6044929192356001600160401b0381116114ee576119b4903690600401612264565b9190926119c261026a613f87565b818103611a1857828203611a1857865b8181106119dd578780f35b80611a116119f1610297600194868c613036565b6119ff61029784888c613036565b611a0a84898b613036565b359161389f565b50016119d2565b6001621398b960e31b03198752600487fd5b503461024b57604036600319011261024b5761067e611a476121fe565b611a52610901613f87565b60243590613408565b503461024b578060031936011261024b57611a77610aa1613f87565b600c5460ff811615611ac25760ff1916600c556001600160a01b03611a9a613f87565b167f5db9ee0a495bf2e6ff9c91a7834c1ba4fdd244a5e8aa4e537bd38aeae4b073aa8280a280f35b63e779249560e01b8252600482fd5b503461024b57602036600319011261024b57611aeb6121fe565b611af66102eb613f87565b60028054610100600160a81b0319811660089390931b610100600160a81b03169290921790819055907fc5e2e9318498e1a253726df4112345358bfcbadd5aab57c99d8c7f590ab0d32a6020611b4a613f87565b60405160ff9490941684526001600160a01b0360089590951c8516941692a380f35b503461024b578060031936011261024b57602060ff60025416604051908152f35b503461024b57611b9c3661222a565b91611ba5613f87565b611bae82612493565b60018060a01b0382165f5260205260405f2054905f198210611bd7575b505061089f935061316b565b848210611c50576001600160a01b03831615611c3c576001600160a01b03811615611c285761089f9550611c0a83612493565b9060018060a01b03165f526020528360405f20910390555f80611bcb565b634a1406b160e11b86526004869052602486fd5b63e602df0560e01b86526004869052602486fd5b637dc7a0d960e11b86526001600160a01b03166004526024526044839052606484fd5b503461024b57604036600319011261024b5761067e611c906121fe565b611c9b61026a613f87565b602435906130ec565b50346114e257611cb3366122e4565b90611cbf6102eb613f87565b6001600160a01b0383165f8181526005602052604090205490939015611e2b576004546001600160a01b0316803b156114e257835f9184611d17946040519586948593849363e50bcad360e01b85526004850161307a565b03915afa8015611e2057611e0b575b50828452600660205260408420906001600160401b0383116116f357611d5083611601845461251d565b849183601f8111600114611d9e5780611642917f8191c9e77ca554fa2d71249ed7be789e36d034b36dbf87dbe2a03dd92483cd1595899161167457508160011b915f199060031b1c19161790565b5080865260208620869385601f1981165b808710611ded577f8191c9e77ca554fa2d71249ed7be789e36d034b36dbf87dbe2a03dd92483cd159650106116bc575050600184811b019055611645565b85830135845560209687019660019094019390920191879150611daf565b611e189194505f90612375565b5f925f611d26565b6040513d5f823e3d90fd5b631c94b02360e21b5f5260045ffd5b346114e257611e4836612294565b91611e5761026a949294613f87565b828103611ea0575f5b818110611e6957005b611e77610297828486613036565b90611e83818688613036565b359182151583036114e257600192611e9a91613f3f565b01611e60565b631fec674760e31b5f5260045ffd5b346114e2575f3660031901126114e25760205f5160206141cb5f395f51905f5254604051908152f35b346114e25760203660031901126114e257611f02611ef46121fe565b611efc613f87565b90612ce7565b005b346114e25760203660031901126114e2576001600160a01b03611f256121fe565b165f52600b602052602060405f2054604051908152f35b346114e2575f3660031901126114e2576003546040516001600160a01b039091168152602090f35b346114e25760403660031901126114e257611f02611f806121fe565b611f8b61026a613f87565b60243590612c2d565b346114e257611f02611fa53661222a565b91611fb1610aa1613f87565b612a96565b346114e25760403660031901126114e257611fcf6121fe565b60243590611fdb613f87565b916001600160a01b03831691821561205a576001600160a01b0316928315612047577f8c5be1e5ebec7d5bd14f71427d1e84f3dd0314c0f7b2291e5b200ac8c7c3b9259161202a602092612493565b855f5282528060405f2055604051908152a3602060405160018152f35b634a1406b160e11b5f525f60045260245ffd5b63e602df0560e01b5f525f60045260245ffd5b346114e2575f3660031901126114e2576040515f5f51602061416b5f395f51905f52546120998161251d565b808452906001811690811561212b57506001146120c1575b6107498361096681850382612375565b5f51602061416b5f395f51905f525f9081527f2ae08a8e29253f69ac5d979a101956ab8f8d9d7ded63fa7a83b16fc47648eab0939250905b808210612111575090915081016020016109666120b1565b9192600181602092548385880101520191019092916120f9565b60ff191660208086019190915291151560051b8401909101915061096690506120b1565b346114e25760203660031901126114e2576004359063ffffffff60e01b82168092036114e25760209163205062b960e21b8114908115612191575b5015158152f35b8091505f526001835260ff60405f2054169081156121c9575b81156121b8575b508361218a565b6301ffc9a760e01b149050836121b1565b63074ece2b60e41b811491506121aa565b805180835260209291819084018484015e5f828201840152601f01601f1916010190565b600435906001600160a01b03821682036114e257565b602435906001600160a01b03821682036114e257565b60609060031901126114e2576004356001600160a01b03811681036114e257906024356001600160a01b03811681036114e2579060443590565b9181601f840112156114e2578235916001600160401b0383116114e2576020808501948460051b0101116114e257565b60406003198201126114e2576004356001600160401b0381116114e257816122be91600401612264565b92909291602435906001600160401b0382116114e2576122e091600401612264565b9091565b60406003198201126114e2576004356001600160a01b03811681036114e257916024356001600160401b0381116114e257826023820112156114e2578060040135926001600160401b0384116114e257602484830101116114e2576024019190565b604081019081106001600160401b0382111761236157604052565b634e487b7160e01b5f52604160045260245ffd5b90601f801991011681019081106001600160401b0382111761236157604052565b6001600160401b03811161236157601f01601f191660200190565b9291926123bd82612396565b916123cb6040519384612375565b8294818452818301116114e2578281602093845f960137010152565b9080601f830112156114e257816020612402933591016123b1565b90565b6001600160401b0381116123615760051b60200190565b602081016020825282518091526040820191602060408360051b8301019401925f915b83831061244e57505050505090565b9091929394602080612484600193603f198682030187526040838b51878060a01b038151168452015191818582015201906121da565b9701930193019193929061243f565b6001600160a01b03165f9081527f52c63247e1f47db19d5ce0460030c497f067ca4cebf71ba98eeadabe20bace016020526040902090565b6001600160a01b03165f9081525f51602061418b5f395f51905f52602052604090205490565b6007548110156125095760075f5260205f2001905f90565b634e487b7160e01b5f52603260045260245ffd5b90600182811c9216801561254b575b602083101461253757565b634e487b7160e01b5f52602260045260245ffd5b91607f169161252c565b80518210156125095760209160051b010190565b908160209103126114e257516001600160a01b03811681036114e25790565b51906001600160a01b03821682036114e257565b6040516304d3863d60e21b8152602081600481305afa908115611e20576004916020915f91612891575b5060405163b4f3fcb760e01b815292839182906001600160a01b03165afa908115611e20575f9161284f575b5060405163aba6370560e01b8152602081600481305afa908115611e20575f91612815575b506009546040516352c111d160e01b8152600481018290526001600160a01b0392831693919290915f9183916024918391165afa908115611e20575f91612774575b5080511561276957604051916380e9e9e160e01b835260048301525f82602481865afa918215611e20575f926126d7575b508151925f5b8481106126a45750505050505f905f905f90565b6126b9836126b28387612555565b5184613dd0565b9190926126cb57505050600101612690565b97919650945092505050565b9091503d805f833e6126e98183612375565b8101906020818303126114e2578051906001600160401b0382116114e257019080601f830112156114e257815161271f81612405565b9261272d6040519485612375565b81845260208085019260051b8201019283116114e257602001905b82821061275957505050905f61268a565b8151815260209182019101612748565b5050505f905f905f90565b90503d805f833e6127858183612375565b8101906020818303126114e2578051906001600160401b0382116114e257019080601f830112156114e2578151906127bc82612405565b926127ca6040519485612375565b82845260208085019360051b8201019182116114e257602001915b8183106127f5575050505f612659565b82516001600160a01b03811681036114e2578152602092830192016127e5565b90506020813d602011612847575b8161283060209383612375565b810103126114e25761284190612588565b5f612617565b3d9150612823565b90506020813d602011612889575b8161286a60209383612375565b810103126114e257516001600160a01b03811681036114e2575f6125f2565b3d915061285d565b6128b19150823d84116128b7575b6128a98183612375565b810190612569565b5f6125c6565b503d61289f565b6128e8817fbf233dd2aafeb4d50879c4aa5c81e96d92f6e6945c906a58f9f2d1c1631b4b2661366c565b156128f05750565b63e2517d3f60e01b5f9081526001600160a01b03919091166004527fbf233dd2aafeb4d50879c4aa5c81e96d92f6e6945c906a58f9f2d1c1631b4b26602452604490fd5b61295e817fe28434228950b641dbbc0178de89daa359a87c6ee0d8399aeace52a98fe902b961366c565b156129665750565b63e2517d3f60e01b5f9081526001600160a01b03919091166004527fe28434228950b641dbbc0178de89daa359a87c6ee0d8399aeace52a98fe902b9602452604490fd5b6129d4817fb56f7a452f9fa4c6b1640d0352eff0d678b9d7c7618b4f73815657069f341e6661366c565b156129dc5750565b63e2517d3f60e01b5f9081526001600160a01b03919091166004527fb56f7a452f9fa4c6b1640d0352eff0d678b9d7c7618b4f73815657069f341e66602452604490fd5b612a4a817f47b7a6ef32f924153c4c0c2f871f8856bd114b4903c167827ef0f0694c583e2761366c565b15612a525750565b63e2517d3f60e01b5f9081526001600160a01b03919091166004527f47b7a6ef32f924153c4c0c2f871f8856bd114b4903c167827ef0f0694c583e27602452604490fd5b6001600160a01b031690308214612bf0578115612be1576001600160a01b0316918215612be1578015612bdc576040516370a0823160e01b8152306004820152602081602481865afa8015611e205782915f91612ba7575b5010612b985760205f6040518281019063a9059cbb60e01b825286602482015284604482015260448152612b23606482612375565b519082865af115611e20575f513d612b8f5750813b155b612b7c577f66687834c8f406fef81052eb9008377ceb4e7305caa93f726591af6e44bcc90460206001600160a01b03612b71613f87565b1692604051908152a4565b50635274afe760e01b5f5260045260245ffd5b60011415612b3a565b637222ae5760e11b5f5260045ffd5b9150506020813d602011612bd4575b81612bc360209383612375565b810103126114e2578190515f612aee565b3d9150612bb6565b505050565b6342bcdf7f60e11b5f5260045ffd5b63817fbb3560e01b5f5260045ffd5b91908203918211612c0c57565b634e487b7160e01b5f52601160045260245ffd5b91908201809211612c0c57565b6001600160a01b0381165f818152600b6020526040902054909291612c5c908290612c57906124cb565b612bff565b828110612cb8575081612c6e91612c20565b825f52600b60205260405f20557f1bcfa03a03a5a801acedbac92e4c327445cae41571bdd6cf9b6988685c038e86602060018060a01b03612cad613f87565b1692604051908152a3565b9050637e5a39b960e01b5f5260045260245260445ffd5b908160209103126114e2575180151581036114e25790565b906001600160a01b038216908115612be157308214612bf057612d09836124cb565b908115613027576040516304d3863d60e21b8152602081600481305afa908115611e20575f91613008575b5060405163084bb03360e41b81526004810185905294906001600160a01b0316602086602481845afa958615611e20575f96612fcc575b506001600160a01b038381169616869003612f8e57602060249160405192838092633f8ed17360e01b82528960048301525afa908115611e20575f91612f9d575b5015612f8e57612dc8918391600160ff195f5416175f5561316b565b60ff195f54165f55815f52600b6020528260405f205480612ef4575b5050815f52600a60205260ff60405f2054165f14612ea2575f838152600a60205260408082208054600160ff1991821681179092558584529190922080549091169055836001600160a01b03612e38613f87565b165f51602061420b5f395f51905f525f80a45f826001600160a01b03612e5c613f87565b165f51602061420b5f395f51905f528380a45b7fa2231b10d9b4e4166c8a827c99f97691b05aa88fb04e009a4e499005b5c50fcc60206001600160a01b03612b71613f87565b825f52600a60205260ff60405f20541615612e6f575f838152600a60205260408120805460ff19169055836001600160a01b03612edd613f87565b165f51602061420b5f395f51905f528380a4612e6f565b836001600160a01b03612f05613f87565b167f81aa4332c9e93af00ae5fdbed32b01fbc5d01ac7755a05d0962acd19030bd5546020604051858152a35f848152600b602090815260408083208390558483529091208290557f1bcfa03a03a5a801acedbac92e4c327445cae41571bdd6cf9b6988685c038e86906001600160a01b03612f7e613f87565b1692604051908152a3825f612de4565b630e7bebe360e01b5f5260045ffd5b612fbf915060203d602011612fc5575b612fb78183612375565b810190612ccf565b5f612dac565b503d612fad565b9095506020813d602011613000575b81612fe860209383612375565b810103126114e257612ff990612588565b945f612d6b565b3d9150612fdb565b613021915060203d6020116128b7576128a98183612375565b5f612d34565b635e4f582160e11b5f5260045ffd5b91908110156125095760051b0190565b356001600160a01b03811681036114e25790565b908060209392818452848401375f828201840152601f01601f1916010190565b6001600160a01b0390911681526040602082018190526124029391019161305a565b8181106130a7575050565b5f815560010161309c565b9190601f81116130c157505050565b6130ea925f5260205f20906020601f840160051c8301931061130557601f0160051c019061309c565b565b6001600160a01b03165f818152600b6020526040902054909190818110613156578161311791612bff565b825f52600b60205260405f20557f81aa4332c9e93af00ae5fdbed32b01fbc5d01ac7755a05d0962acd19030bd554602060018060a01b03612cad613f87565b639f6422a960e01b5f5260045260245260445ffd5b90916001600160a01b03821680156133f5576001600160a01b0384169081156133e25760ff600c54166133d35760ff5f54161580613337575b6132c4575b805f525f51602061418b5f395f51905f5260205260405f20548381106132aa578390825f525f51602061418b5f395f51905f526020520360405f2055815f525f51602061418b5f395f51905f5260205260405f2083815401905581815f5160206141eb5f395f51905f526020604051878152a36001600160a01b0361322c613f87565b167f0d8423425ea24ce801d57e1af368c7ca24b3a31b719c058675916f436635eea26020604051868152a46004546001600160a01b0316803b156114e25761328f935f809460405196879586948593631f2d7a6560e11b8552306004860161411f565b03925af18015611e20576132a05750565b5f6130ea91612375565b915063391434e360e21b5f5260045260245260445260645ffd5b60018060a01b0360045416602060405180926336b1527f60e11b825281806132f2898c8c306004860161411f565b03915afa908115611e20575f91613318575b506131a9576310a151f560e01b5f5260045ffd5b613331915060203d602011612fc557612fb78183612375565b5f613304565b815f52600a60205260ff60405f2054166133c457825f52600a60205260ff60405f2054166133b557815f52600b60205261338d60405f2054835f525f51602061418b5f395f51905f5260205260405f2054612bff565b84811061339a57506131a4565b92505063391434e360e21b5f5260045260245260445260645ffd5b637f3447d360e01b5f5260045ffd5b633928b55960e01b5f5260045ffd5b63e779249560e01b5f5260045ffd5b63ec442f0560e01b5f525f60045260245ffd5b634b637e8f60e11b5f525f60045260245ffd5b6001600160a01b038116919082156133e25760ff600c54166133d357825f52600a60205260ff60405f2054166133b55761344061259c565b505061345a835f5160206141cb5f395f51905f5254612c20565b8082106135ea57505060ff5f541615613566575b613486825f5160206141cb5f395f51905f5254612c20565b5f5160206141cb5f395f51905f5255825f525f51602061418b5f395f51905f5260205260405f20828154019055825f5f5160206141eb5f395f51905f526020604051868152a36004546001600160a01b0316803b156114e257604051637133bb3160e11b81523060048201526001600160a01b03929092166024830152604482018390525f908290606490829084905af18015611e2057613556575b507fe06a64fbf06d35586ace9c9da7a5c34ca3f2c0fd07e34e80be6d0341357795a860206001600160a01b03612cad613f87565b5f61356091612375565b5f613522565b600480546040516336b1527f60e11b815230928101929092525f60248301526001600160a01b0383811660448401526064830185905260209183916084918391165afa908115611e20575f916135cb575b5061346e57639b3b575b60e01b5f5260045ffd5b6135e4915060203d602011612fc557612fb78183612375565b5f6135b7565b632c1f8ef160e21b5f5260045260245260445ffd5b600754906801000000000000000082101561236157600182016007556007548210156125095760075f527fa66cc928b5edb82af9bd49922954155ab7b0942694bea4ce44661d9a8736c68890910180546001600160a01b0319166001600160a01b03909216919091179055565b600854604051632474521560e21b815260048101929092526001600160a01b039283166024830152909160209183916044918391165afa908115611e20575f916136b4575090565b612402915060203d602011612fc557612fb78183612375565b6001600160a01b038116919082156133f55760ff600c54166133d357825f525f51602061418b5f395f51905f5260205260405f205460ff5f54161561387c575b835f52600b60205260405f20548061384c575b5050825f525f51602061418b5f395f51905f5260205260405f2054828110613831578290845f525f51602061418b5f395f51905f526020520360405f2055815f5160206141cb5f395f51905f5254035f5160206141cb5f395f51905f52555f835f5160206141eb5f395f51905f526020604051868152a36004546001600160a01b0316803b156114e25760405163292d480360e01b81523060048201526001600160a01b03929092166024830152604482018390525f908290606490829084905af18015611e2057613821575b507f92eda58db715be76693c72f2b6c1ffec1f5d9fa127f24d7d26acaefa731a52fa60206001600160a01b03612cad613f87565b5f61382b91612375565b5f6137ed565b90508263391434e360e21b5f5260045260245260445260645ffd5b61385591612bff565b808311613863575b80613720565b6138706138769184612bff565b826130ec565b5f61385d565b8281101561370d5790508263391434e360e21b5f5260045260245260445260645ffd5b9190916138ab816124cb565b92828410613d5d576001600160a01b0382165f818152600b6020526040812054909582919081613ce7575b505050600160ff195f5416175f5560ff600c54166133d3578015908115613c71576001600160a01b0383165f908152600a602052604090205460ff166133b55761391e61259c565b5050613938865f5160206141cb5f395f51905f5254612c20565b8082106135ea57505060ff5f541615613bed575b8115613b925761396a855f5160206141cb5f395f51905f5254612c20565b5f5160206141cb5f395f51905f52555b6001600160a01b038316918215908115613b6f57865f5160206141cb5f395f51905f5254035f5160206141cb5f395f51905f52555b83835f5160206141eb5f395f51905f5260206040518b8152a315613a515750506004546001600160a01b0316925050813b156114f257604051637133bb3160e11b81523060048201526001600160a01b03919091166024820152604481019290925282908290606490829084905af1801561121257908291613a3c575b50505b805460ff19169055600190565b81613a4691612375565b61024b57805f613a2c565b15613ad15750506004546001600160a01b0316919050813b156114f25760405163292d480360e01b81523060048201526001600160a01b03919091166024820152604481019290925282908290606490829084905af1801561121257908291613abc575b5050613a2f565b81613ac691612375565b61024b57805f613ab5565b9193916001600160a01b03613ae4613f87565b167f0d8423425ea24ce801d57e1af368c7ca24b3a31b719c058675916f436635eea26020604051868152a46004546001600160a01b0316803b156114e257613b47935f809460405196879586948593631f2d7a6560e11b8552306004860161411f565b03925af18015611e2057613b5c575b50613a2f565b613b6891505f90612375565b5f5f613b56565b835f525f51602061418b5f395f51905f5260205260405f208781540190556139af565b805f525f51602061418b5f395f51905f5260205260405f2054858110613bd3578590825f525f51602061418b5f395f51905f526020520360405f205561397a565b859163391434e360e21b5f5260045260245260445260645ffd5b600480546040516336b1527f60e11b815230928101929092525f60248301526001600160a01b0385811660448401526064830188905260209183916084918391165afa908115611e20575f91613c52575b5061394c57639b3b575b60e01b5f5260045ffd5b613c6b915060203d602011612fc557612fb78183612375565b5f613c3e565b6001600160a01b038316613ce257805f525f51602061418b5f395f51905f5260205260405f2054815f52600b60205260405f205480613cb2575b505061394c565b613cbb91612bff565b808611613cc9575b80613cab565b613cd6613cdc9187612bff565b856130ec565b5f613cc3565b61394c565b81613cf191612bff565b808711156138d657613d06613d0d9188612bff565b8092612bff565b825f52600b60205260405f20557f81aa4332c9e93af00ae5fdbed32b01fbc5d01ac7755a05d0962acd19030bd554602060018060a01b03613d4c613f87565b1692604051908152a3805f806138d6565b50829063391434e360e21b5f5260018060a01b031660045260245260445260645ffd5b929192613d8c82612396565b91613d9a6040519384612375565b8294818452818301116114e2578281602093845f96015e010152565b9080601f830112156114e257815161240292602001613d80565b60405163c9100bcb60e01b81526004810192909252919291905f816024816001600160a01b0386165afa905f5f93835f935f95613e92575b50613e1f575b505050505090505f905f905f905f90565b6009548203613e0e578651965f905b888210613e3d575b5050613e0e565b6001600160a01b03613e4f8383612555565b5116916001600160a01b038816839003613e88575050613e719596975061400b565b909291613e8357808080808796613e36565b600193565b6001019150613e2e565b935093509350503d805f833e613ea88183612375565b81019260c0828503126114e257815190613ec460408401612588565b9160608401516001600160401b0381116114e25786613ee4918601613db6565b9560808501516001600160401b0381116114e25781613f04918701613db6565b9460a0810151906001600160401b0382116114e257019080601f830112156114e2578151613f3492602001613d80565b50919492935f613e08565b6001600160a01b039081165f818152600a60205260409020805460ff191693151560ff811694909417905590613f73613f87565b165f51602061420b5f395f51905f525f80a4565b337f00000000000000000000000000000000000000000000000000000000000000006001600160a01b03161480613fd5575b15613fd1576013193601368111612c0c573560601c90565b3390565b506014361015613fb9565b60ff5f51602061422b5f395f51905f525460401c1615613ffc57565b631afcd79f60e31b5f5260045ffd5b9161401893918593614049565b1561404057614026906140e4565b9192909215614036576001929190565b5f92508291508190565b505f905f905f90565b60405163604b4d3760e11b81526001600160a01b03909216600483015260248201929092526080604482015292602092849291839182916140a4916140929060848501906121da565b838103600319016064850152906121da565b03916001600160a01b03165afa5f91816140c3575b5061240257505f90565b6140dd91925060203d602011612fc557612fb78183612375565b905f6140b9565b8051604081036141155781604091810103126114e25760406020820151910151909142821115614036576001929190565b50505f905f905f90565b6001600160a01b0391821681529181166020830152909116604082015260608101919091526080019056fe4df30bfa3ec06fecb039a1a7f419067e9ae43dae6bccbbe724bf4dedcca740b352c63247e1f47db19d5ce0460030c497f067ca4cebf71ba98eeadabe20bace0352c63247e1f47db19d5ce0460030c497f067ca4cebf71ba98eeadabe20bace0052c63247e1f47db19d5ce0460030c497f067ca4cebf71ba98eeadabe20bace0452c63247e1f47db19d5ce0460030c497f067ca4cebf71ba98eeadabe20bace02ddf252ad1be2c89b69c2b068fc378daa952ba7f163c4a11628f55a4df523b3ef17ec2643977f0865dd45350e9efdcdfead258c9220974e67d1a37ca144772293f0c57e16840df040f15088dc2f81fe391c3923bec73e23a9662efc9c229c6a00a2646970667358221220c456f1cf2621938a0d9c7e66a86adb488b7a647658bb8da1bdbe97b49926923664736f6c634300081c0033f0c57e16840df040f15088dc2f81fe391c3923bec73e23a9662efc9c229c6a00",
  "linkReferences": {},
  "deployedLinkReferences": {}
}