{
  "_format": "hh-sol-artifact-1",
  "contractName": "IdentityProxy",
  "sourceName": "@onchainid/contracts/proxy/IdentityProxy.sol",
  "abi": [
    {
      "inputs": [
        {
          "internalType": "address",
          "name": "_implementationAuthority",
          "type": "address"
        },
        {
          "internalType": "address",
          "name": "initialManagementKey",
          "type": "address"
        }
      ],
      "stateMutability": "nonpayable",
      "type": "constructor"
    },
    {
      "stateMutability": "payable",
      "type": "fallback"
    },
    {
      "inputs": [],
      "name": "implementationAuthority",
      "outputs": [
        {
          "internalType": "address",
          "name": "",
          "type": "address"
        }
      ],
      "stateMutability": "view",
      "type": "function"
    }
  ],
  "bytecode": "0x608080604052346101c757604081610418803803809161001f82856101e0565b8339810103126101c7578060206100428161003b600495610203565b9301610203565b6001600160a01b03831690610058821515610217565b6001600160a01b03169261006d841515610217565b7f821f3e4d3d679f19eacc940c87acf846ea6eae24a63058ea750304437a62aafc5560405163557887a160e11b815293849182905afa9182156101d45760009261018e575b506000918291604051602081019163189acdbd60e31b83526024820152602481526100de6044826101e0565b51915af43d15610189573d6001600160401b038111610173576040519061010f601f8201601f1916602001836101e0565b8152600060203d92013e5b1561012e576040516101b490816102648239f35b60405162461bcd60e51b815260206004820152601660248201527f496e697469616c697a6174696f6e206661696c65642e000000000000000000006044820152606490fd5b634e487b7160e01b600052604160045260246000fd5b61011a565b9091506020813d6020116101cc575b816101aa602093836101e0565b810103126101c7576000916101bf8392610203565b9250906100b2565b600080fd5b3d915061019d565b6040513d6000823e3d90fd5b601f909101601f19168101906001600160401b0382119082101761017357604052565b51906001600160a01b03821682036101c757565b1561021e57565b60405162461bcd60e51b815260206004820152601f60248201527f696e76616c696420617267756d656e74202d207a65726f2061646472657373006044820152606490fdfe608060405260043610156100bc575b7f821f3e4d3d679f19eacc940c87acf846ea6eae24a63058ea750304437a62aafc5460209060809060049082906001600160a01b031663557887a160e11b82525afa80156100b757600090610084575b600080913682803781369161270f195a01f43d90816000803e15610080576000f35b6000fd5b5060203d6020116100b0575b60006100a8826100a08394610117565b608001610150565b91505061005e565b503d610090565b610172565b60003560e01c632307f8820361000e5734610112576000366003190112610112577f821f3e4d3d679f19eacc940c87acf846ea6eae24a63058ea750304437a62aafc546001600160a01b03166080908152602090f35b600080fd5b601f80199101166080016080811067ffffffffffffffff82111761013a57604052565b634e487b7160e01b600052604160045260246000fd5b602090607f190112610112576080516001600160a01b03811681036101125790565b6040513d6000823e3d90fdfea264697066735822122052a9a0f08b698924294a012126ba89ecd07c2c974f7b9d270dc3c50ef8a5e15864736f6c634300081c0033",
  "linkReferences": {},
  "deployedLinkReferences": {}
}