{
  "abi": [
    {
      "type": "constructor",
      "inputs": [
        {
          "name": "_trustedForwarder",
          "type": "address",
          "internalType": "address"
        }
      ],
      "stateMutability": "nonpayable"
    },
    {
      "type": "function",
      "name": "DEFAULT_ADMIN_ROLE",
      "inputs": [],
      "outputs": [
        {
          "name": "",
          "type": "bytes32",
          "internalType": "bytes32"
        }
      ],
      "stateMutability": "view"
    },
    {
      "type": "function",
      "name": "GLOBAL_LIST_MANAGER_ROLE",
      "inputs": [],
      "outputs": [
        {
          "name": "",
          "type": "bytes32",
          "internalType": "bytes32"
        }
      ],
      "stateMutability": "view"
    },
    {
      "type": "function",
      "name": "canTransfer",
      "inputs": [
        {
          "name": "",
          "type": "address",
          "internalType": "address"
        },
        {
          "name": "",
          "type": "address",
          "internalType": "address"
        },
        {
          "name": "_to",
          "type": "address",
          "internalType": "address"
        },
        {
          "name": "",
          "type": "uint256",
          "internalType": "uint256"
        },
        {
          "name": "_params",
          "type": "bytes",
          "internalType": "bytes"
        }
      ],
      "outputs": [],
      "stateMutability": "view"
    },
    {
      "type": "function",
      "name": "created",
      "inputs": [
        {
          "name": "_token",
          "type": "address",
          "internalType": "address"
        },
        {
          "name": "_to",
          "type": "address",
          "internalType": "address"
        },
        {
          "name": "_value",
          "type": "uint256",
          "internalType": "uint256"
        },
        {
          "name": "_params",
          "type": "bytes",
          "internalType": "bytes"
        }
      ],
      "outputs": [],
      "stateMutability": "nonpayable"
    },
    {
      "type": "function",
      "name": "destroyed",
      "inputs": [
        {
          "name": "_token",
          "type": "address",
          "internalType": "address"
        },
        {
          "name": "_from",
          "type": "address",
          "internalType": "address"
        },
        {
          "name": "_value",
          "type": "uint256",
          "internalType": "uint256"
        },
        {
          "name": "_params",
          "type": "bytes",
          "internalType": "bytes"
        }
      ],
      "outputs": [],
      "stateMutability": "nonpayable"
    },
    {
      "type": "function",
      "name": "getGlobalBlockedAddresses",
      "inputs": [],
      "outputs": [
        {
          "name": "",
          "type": "address[]",
          "internalType": "address[]"
        }
      ],
      "stateMutability": "view"
    },
    {
      "type": "function",
      "name": "getRoleAdmin",
      "inputs": [
        {
          "name": "role",
          "type": "bytes32",
          "internalType": "bytes32"
        }
      ],
      "outputs": [
        {
          "name": "",
          "type": "bytes32",
          "internalType": "bytes32"
        }
      ],
      "stateMutability": "view"
    },
    {
      "type": "function",
      "name": "grantRole",
      "inputs": [
        {
          "name": "role",
          "type": "bytes32",
          "internalType": "bytes32"
        },
        {
          "name": "account",
          "type": "address",
          "internalType": "address"
        }
      ],
      "outputs": [],
      "stateMutability": "nonpayable"
    },
    {
      "type": "function",
      "name": "hasRole",
      "inputs": [
        {
          "name": "role",
          "type": "bytes32",
          "internalType": "bytes32"
        },
        {
          "name": "account",
          "type": "address",
          "internalType": "address"
        }
      ],
      "outputs": [
        {
          "name": "",
          "type": "bool",
          "internalType": "bool"
        }
      ],
      "stateMutability": "view"
    },
    {
      "type": "function",
      "name": "isGloballyBlocked",
      "inputs": [
        {
          "name": "_addr",
          "type": "address",
          "internalType": "address"
        }
      ],
      "outputs": [
        {
          "name": "",
          "type": "bool",
          "internalType": "bool"
        }
      ],
      "stateMutability": "view"
    },
    {
      "type": "function",
      "name": "isTrustedForwarder",
      "inputs": [
        {
          "name": "forwarder",
          "type": "address",
          "internalType": "address"
        }
      ],
      "outputs": [
        {
          "name": "",
          "type": "bool",
          "internalType": "bool"
        }
      ],
      "stateMutability": "view"
    },
    {
      "type": "function",
      "name": "name",
      "inputs": [],
      "outputs": [
        {
          "name": "",
          "type": "string",
          "internalType": "string"
        }
      ],
      "stateMutability": "pure"
    },
    {
      "type": "function",
      "name": "renounceRole",
      "inputs": [
        {
          "name": "role",
          "type": "bytes32",
          "internalType": "bytes32"
        },
        {
          "name": "callerConfirmation",
          "type": "address",
          "internalType": "address"
        }
      ],
      "outputs": [],
      "stateMutability": "nonpayable"
    },
    {
      "type": "function",
      "name": "revokeRole",
      "inputs": [
        {
          "name": "role",
          "type": "bytes32",
          "internalType": "bytes32"
        },
        {
          "name": "account",
          "type": "address",
          "internalType": "address"
        }
      ],
      "outputs": [],
      "stateMutability": "nonpayable"
    },
    {
      "type": "function",
      "name": "setGlobalBlockedAddresses",
      "inputs": [
        {
          "name": "_addresses",
          "type": "address[]",
          "internalType": "address[]"
        },
        {
          "name": "_block",
          "type": "bool",
          "internalType": "bool"
        }
      ],
      "outputs": [],
      "stateMutability": "nonpayable"
    },
    {
      "type": "function",
      "name": "supportsInterface",
      "inputs": [
        {
          "name": "interfaceId",
          "type": "bytes4",
          "internalType": "bytes4"
        }
      ],
      "outputs": [
        {
          "name": "",
          "type": "bool",
          "internalType": "bool"
        }
      ],
      "stateMutability": "view"
    },
    {
      "type": "function",
      "name": "transferred",
      "inputs": [
        {
          "name": "_token",
          "type": "address",
          "internalType": "address"
        },
        {
          "name": "_from",
          "type": "address",
          "internalType": "address"
        },
        {
          "name": "_to",
          "type": "address",
          "internalType": "address"
        },
        {
          "name": "_value",
          "type": "uint256",
          "internalType": "uint256"
        },
        {
          "name": "_params",
          "type": "bytes",
          "internalType": "bytes"
        }
      ],
      "outputs": [],
      "stateMutability": "nonpayable"
    },
    {
      "type": "function",
      "name": "trustedForwarder",
      "inputs": [],
      "outputs": [
        {
          "name": "",
          "type": "address",
          "internalType": "address"
        }
      ],
      "stateMutability": "view"
    },
    {
      "type": "function",
      "name": "validateParameters",
      "inputs": [
        {
          "name": "_params",
          "type": "bytes",
          "internalType": "bytes"
        }
      ],
      "outputs": [],
      "stateMutability": "view"
    },
    {
      "type": "event",
      "name": "GlobalBlockedAddressesUpdated",
      "inputs": [
        {
          "name": "addresses",
          "type": "address[]",
          "indexed": false,
          "internalType": "address[]"
        },
        {
          "name": "blocked",
          "type": "bool",
          "indexed": true,
          "internalType": "bool"
        }
      ],
      "anonymous": false
    },
    {
      "type": "event",
      "name": "RoleAdminChanged",
      "inputs": [
        {
          "name": "role",
          "type": "bytes32",
          "indexed": true,
          "internalType": "bytes32"
        },
        {
          "name": "previousAdminRole",
          "type": "bytes32",
          "indexed": true,
          "internalType": "bytes32"
        },
        {
          "name": "newAdminRole",
          "type": "bytes32",
          "indexed": true,
          "internalType": "bytes32"
        }
      ],
      "anonymous": false
    },
    {
      "type": "event",
      "name": "RoleGranted",
      "inputs": [
        {
          "name": "role",
          "type": "bytes32",
          "indexed": true,
          "internalType": "bytes32"
        },
        {
          "name": "account",
          "type": "address",
          "indexed": true,
          "internalType": "address"
        },
        {
          "name": "sender",
          "type": "address",
          "indexed": true,
          "internalType": "address"
        }
      ],
      "anonymous": false
    },
    {
      "type": "event",
      "name": "RoleRevoked",
      "inputs": [
        {
          "name": "role",
          "type": "bytes32",
          "indexed": true,
          "internalType": "bytes32"
        },
        {
          "name": "account",
          "type": "address",
          "indexed": true,
          "internalType": "address"
        },
        {
          "name": "sender",
          "type": "address",
          "indexed": true,
          "internalType": "address"
        }
      ],
      "anonymous": false
    },
    {
      "type": "error",
      "name": "AccessControlBadConfirmation",
      "inputs": []
    },
    {
      "type": "error",
      "name": "AccessControlUnauthorizedAccount",
      "inputs": [
        {
          "name": "account",
          "type": "address",
          "internalType": "address"
        },
        {
          "name": "neededRole",
          "type": "bytes32",
          "internalType": "bytes32"
        }
      ]
    },
    {
      "type": "error",
      "name": "ComplianceCheckFailed",
      "inputs": [
        {
          "name": "reason",
          "type": "string",
          "internalType": "string"
        }
      ]
    },
    {
      "type": "error",
      "name": "InvalidParameters",
      "inputs": [
        {
          "name": "reason",
          "type": "string",
          "internalType": "string"
        }
      ]
    }
  ],
  "bytecode": {
    "object": "0x60a03461009a57601f61105638819003918201601f19168301916001600160401b0383118484101761009e5780849260209460405283398101031261009a57516001600160a01b038116810361009a5760805261006261005d6101df565b6100b2565b5061007361006e6101df565b61013b565b50604051610dc7908161022f8239608051818181610652015281816107170152610c7f0152f35b5f80fd5b634e487b7160e01b5f52604160045260245ffd5b6001600160a01b0381165f9081525f5160206110165f395f51905f52602052604090205460ff16610136576001600160a01b038181165f9081525f5160206110165f395f51905f5260205260409020805460ff191660011790556101146101df565b16906001600160a01b03165f5f516020610ff65f395f51905f528180a4600190565b505f90565b6001600160a01b0381165f9081525f5160206110365f395f51905f52602052604090205460ff16610136576001600160a01b038181165f9081525f5160206110365f395f51905f5260205260409020805460ff1916600117905561019d6101df565b16906001600160a01b03167f9b55cfb75ccf6f1a6d907f6f30122d92666cac147d834990fba3410dfac61ef65f516020610ff65f395f51905f525f80a4600190565b6080516001600160a01b0316331480610223575b1561021f57601319360136811161020b573560601c90565b634e487b7160e01b5f52601160045260245ffd5b3390565b5060143610156101f356fe6080806040526004361015610012575f80fd5b5f3560e01c90816301ffc9a71461089f5750806306fdde031461080e57806310efe2a514610336578063248a9ca3146107dc5780632f2ff15d1461079f57806336568abe1461074b578063572b6c05146106f75780636974f58e146106bb578063771d2f5e146106815780637da0a8771461063d57806389dd5325146103da57806391d1485414610392578063a217fddf14610378578063bec4eb201461033b578063c4c104b914610336578063d547741f146102f4578063ddfcf377146101c9578063ea6b97a5146101b95763fd9899ec146100ed575f80fd5b346101b5575f3660031901126101b5576040518060206002549283815201809260025f527f405787fa12a823e0f2b7631cc41b3ba8828b3321ca811111fa75cd3aa3bb5ace905f5b818110610196575050508161014b910382610a42565b604051918291602083019060208452518091526040830191905f5b818110610174575050500390f35b82516001600160a01b0316845285945060209384019390920191600101610166565b82546001600160a01b0316845260209093019260019283019201610135565b5f80fd5b346101b5576101c7366109d3565b005b346101b5576101d7366109d3565b935093505060018060a01b031691825f52600160205260ff60405f2054166102a45761020591810190610a64565b908151915f5b83811061021457005b815181101561029057600581901b8201602001516001600160a01b0316831461023f5760010161020b565b60405163327d269360e01b815260206004820152602260248201527f5265636569766572206164647265737320626c6f636b656420666f7220746f6b60448201526132b760f11b6064820152608490fd5b634e487b7160e01b5f52603260045260245ffd5b60405163327d269360e01b815260206004820152602160248201527f5265636569766572206164647265737320676c6f62616c6c7920626c6f636b656044820152601960fa1b6064820152608490fd5b346101b55760403660031901126101b5576101c760043561031361090c565b9061033161032c825f525f602052600160405f20015490565b610af1565b610bd7565b61097a565b346101b55760203660031901126101b5576001600160a01b0361035c610922565b165f526001602052602060ff60405f2054166040519015158152f35b346101b5575f3660031901126101b55760206040515f8152f35b346101b55760403660031901126101b5576103ab61090c565b6004355f525f60205260405f209060018060a01b03165f52602052602060ff60405f2054166040519015158152f35b346101b55760403660031901126101b55760043567ffffffffffffffff81116101b557366023820112156101b55780600401359067ffffffffffffffff82116101b5573660248360051b830101116101b55760243580158015928383036101b557610443610c7c565b6001600160a01b0381165f9081527f9b6046957f41cb9d409aa8cdf012eb36129daef06a27f14d4eed5f0368318d1f602052604090205460ff16156105f9575060ff841694935f5b8581101561058a57600581901b830160240135906001600160a01b0382168083036101b5575f818152600160205260409020805460ff1981168b17909155869060ff168880610582575b15610554575050600254680100000000000000008110156105405760019361050582866105299401600255610c64565b81546001600160a01b0393841660039290921b91821b9390911b1916919091179055565b600254905f52600360205260405f20555b0161048b565b634e487b7160e01b5f52604160045260245ffd5b60019492508161057a575b5061056b575b5061053a565b61057490610ce9565b88610565565b90508a61055f565b5080156104d5565b50604080516020808252810187905290810160248401875f5b8181106105d357857f8f85e0a0338c9138b848b97cf16aa2e0ece58bbae8d6f5049f4316a669cba4e586860387a2005b909192602080600192838060a01b036105eb88610938565b1681520194019291016105a3565b63e2517d3f60e01b5f9081526001600160a01b03919091166004527f9b55cfb75ccf6f1a6d907f6f30122d92666cac147d834990fba3410dfac61ef6602452604490fd5b346101b5575f3660031901126101b5576040517f00000000000000000000000000000000000000000000000000000000000000006001600160a01b03168152602090f35b346101b5575f3660031901126101b55760206040517f9b55cfb75ccf6f1a6d907f6f30122d92666cac147d834990fba3410dfac61ef68152f35b346101b55760203660031901126101b55760043567ffffffffffffffff81116101b5576106ef6101c791369060040161094c565b810190610a64565b346101b55760203660031901126101b5576020610712610922565b6040517f00000000000000000000000000000000000000000000000000000000000000006001600160a01b039081169216919091148152f35b346101b55760403660031901126101b55761076461090c565b6001600160a01b03610774610c7c565b166001600160a01b03821603610790576101c790600435610bd7565b63334bd91960e11b5f5260045ffd5b346101b55760403660031901126101b5576101c76004356107be61090c565b906107d761032c825f525f602052600160405f20015490565b610b42565b346101b55760203660031901126101b55760206108066004355f525f602052600160405f20015490565b604051908152f35b346101b5575f3660031901126101b5576040516060810181811067ffffffffffffffff8211176105405760405260238152604060208201917f4164647265737320426c6f636b4c69737420436f6d706c69616e6365204d6f64835262756c6560e81b828201528151928391602083525180918160208501528484015e5f828201840152601f01601f19168101030190f35b346101b55760203660031901126101b5576004359063ffffffff60e01b82168092036101b557602091638c30a94360e01b81149081156108e1575b5015158152f35b637965db0b60e01b8114915081156108fb575b50836108da565b6301ffc9a760e01b149050836108f4565b602435906001600160a01b03821682036101b557565b600435906001600160a01b03821682036101b557565b35906001600160a01b03821682036101b557565b9181601f840112156101b55782359167ffffffffffffffff83116101b557602083818601950101116101b557565b346101b55760803660031901126101b5576004356001600160a01b03811681036101b557506024356001600160a01b03811681036101b5575060643567ffffffffffffffff81116101b5576101c790369060040161094c565b60a06003198201126101b5576004356001600160a01b03811681036101b557916024356001600160a01b03811681036101b557916044356001600160a01b03811681036101b55791606435916084359067ffffffffffffffff82116101b557610a3e9160040161094c565b9091565b90601f8019910116810190811067ffffffffffffffff82111761054057604052565b6020818303126101b55780359067ffffffffffffffff82116101b557019080601f830112156101b55781359167ffffffffffffffff8311610540578260051b9060405193610ab56020840186610a42565b84526020808501928201019283116101b557602001905b828210610ad95750505090565b60208091610ae684610938565b815201910190610acc565b610af9610c7c565b5f828152602081815260408083206001600160a01b038516845290915290205460ff1615610b25575050565b63e2517d3f60e01b5f5260018060a01b031660045260245260445ffd5b5f818152602081815260408083206001600160a01b038616845290915290205460ff16610bd1575f818152602081815260408083206001600160a01b0386811685529252909120805460ff19166001179055610b9c610c7c565b16916001600160a01b0316907f2f8788117e7eff1d82e926ec794901d17c78024a50270940304540a733656f0d5f80a4600190565b50505f90565b5f818152602081815260408083206001600160a01b038616845290915290205460ff1615610bd1575f818152602081815260408083206001600160a01b0386811685529252909120805460ff19169055610c2f610c7c565b16916001600160a01b0316907ff6391f5c32d9c69d2a47ea670b442974b53935d1edc7fd64eb21e047a839171b5f80a4600190565b6002548110156102905760025f5260205f2001905f90565b337f00000000000000000000000000000000000000000000000000000000000000006001600160a01b03161480610cde575b15610cda576013193601368111610cc6573560601c90565b634e487b7160e01b5f52601160045260245ffd5b3390565b506014361015610cae565b6001600160a01b03165f818152600360205260409020548015610db6575f198101818111610cc6576002545f198101908111610cc657808203610d78575b5050506002548015610d64575f1901610d3f81610c64565b81549060018060a01b039060031b1b191690556002555f5260036020525f6040812055565b634e487b7160e01b5f52603160045260245ffd5b61050591610d88610da292610c64565b905460039190911b1c6001600160a01b0316928391610c64565b5f52600360205260405f20555f8080610d27565b505056fea164736f6c634300081c000a2f8788117e7eff1d82e926ec794901d17c78024a50270940304540a733656f0dad3228b676f7d3cd4284a5443f17f1962b36e491b30a40b2405849e597ba5fb59b6046957f41cb9d409aa8cdf012eb36129daef06a27f14d4eed5f0368318d1f",
    "linkReferences": {}
  },
  "methodIdentifiers": {
    "DEFAULT_ADMIN_ROLE()": "a217fddf",
    "GLOBAL_LIST_MANAGER_ROLE()": "771d2f5e",
    "canTransfer(address,address,address,uint256,bytes)": "ddfcf377",
    "created(address,address,uint256,bytes)": "c4c104b9",
    "destroyed(address,address,uint256,bytes)": "10efe2a5",
    "getGlobalBlockedAddresses()": "fd9899ec",
    "getRoleAdmin(bytes32)": "248a9ca3",
    "grantRole(bytes32,address)": "2f2ff15d",
    "hasRole(bytes32,address)": "91d14854",
    "isGloballyBlocked(address)": "bec4eb20",
    "isTrustedForwarder(address)": "572b6c05",
    "name()": "06fdde03",
    "renounceRole(bytes32,address)": "36568abe",
    "revokeRole(bytes32,address)": "d547741f",
    "setGlobalBlockedAddresses(address[],bool)": "89dd5325",
    "supportsInterface(bytes4)": "01ffc9a7",
    "transferred(address,address,address,uint256,bytes)": "ea6b97a5",
    "trustedForwarder()": "7da0a877",
    "validateParameters(bytes)": "6974f58e"
  },
  "userdoc": {
    "version": 1,
    "kind": "user",
    "methods": {
      "created(address,address,uint256,bytes)": {
        "notice": "This function is a hook called by the main `SMARTComplianceImplementation` contract *after* new tokens have been created (minted)."
      },
      "destroyed(address,address,uint256,bytes)": {
        "notice": "This function is a hook called by the main `SMARTComplianceImplementation` contract *after* tokens have been destroyed (burned)."
      },
      "name()": {
        "notice": "Concrete compliance modules MUST implement this function to return a human-readable name for the module."
      },
      "supportsInterface(bytes4)": {
        "notice": "Checks if the contract supports a given interface ID."
      },
      "transferred(address,address,address,uint256,bytes)": {
        "notice": "This function is a hook called by the main `ATKComplianceImplementation` contract *after* a token transfer has occurred."
      },
      "validateParameters(bytes)": {
        "notice": "Concrete compliance modules MUST implement this function to validate their specific parameters."
      }
    },
    "errors": {
      "ComplianceCheckFailed(string)": [
        {
          "notice": "Emitted when a compliance check performed by the `canTransfer` function fails."
        }
      ],
      "InvalidParameters(string)": [
        {
          "notice": "Emitted by the `validateParameters` function if the provided configuration parameters are invalid for this module."
        }
      ]
    },
    "notice": "This compliance module restricts token transfers *to* specific wallet addresses."
  },
  "devdoc": {
    "version": 1,
    "kind": "dev",
    "author": "SettleMint Tokenization Services",
    "methods": {
      "created(address,address,uint256,bytes)": {
        "details": "This is an empty `virtual` implementation. Inheriting contracts can `override` this function if they need to perform actions or update state based on successful token creation. If a module doesn't need to react to token creation, it doesn't need to override this.",
        "params": {
          "_params": "The parameters that were configured for this module when it was added to the `_token`.",
          "_to": "The address that received the newly created tokens.",
          "_token": "The address of the `ISMART` token contract where tokens were created.",
          "_value": "The amount of tokens created."
        }
      },
      "destroyed(address,address,uint256,bytes)": {
        "details": "This is an empty `virtual` implementation. Inheriting contracts can `override` this function if they need to perform actions or update state based on successful token destruction. If a module doesn't need to react to token destruction, it doesn't need to override this.",
        "params": {
          "_from": "The address whose tokens were destroyed.",
          "_params": "The parameters that were configured for this module when it was added to the `_token`.",
          "_token": "The address of the `ISMART` token contract from which tokens were destroyed.",
          "_value": "The amount of tokens destroyed."
        }
      },
      "getRoleAdmin(bytes32)": {
        "details": "Returns the admin role that controls `role`. See {grantRole} and {revokeRole}. To change a role's admin, use {_setRoleAdmin}."
      },
      "grantRole(bytes32,address)": {
        "details": "Grants `role` to `account`. If `account` had not been already granted `role`, emits a {RoleGranted} event. Requirements: - the caller must have ``role``'s admin role. May emit a {RoleGranted} event."
      },
      "hasRole(bytes32,address)": {
        "details": "Returns `true` if `account` has been granted `role`."
      },
      "isTrustedForwarder(address)": {
        "details": "Indicates whether any particular address is the trusted forwarder."
      },
      "name()": {
        "details": "This function is used to identify the type or purpose of the compliance module. For example, \"Country Allow List Module\". It should be a `pure` function as the name is typically hardcoded and doesn't depend on state.",
        "returns": {
          "_0": "A string representing the name of the compliance module."
        }
      },
      "renounceRole(bytes32,address)": {
        "details": "Revokes `role` from the calling account. Roles are often managed via {grantRole} and {revokeRole}: this function's purpose is to provide a mechanism for accounts to lose their privileges if they are compromised (such as when a trusted device is misplaced). If the calling account had been revoked `role`, emits a {RoleRevoked} event. Requirements: - the caller must be `callerConfirmation`. May emit a {RoleRevoked} event."
      },
      "revokeRole(bytes32,address)": {
        "details": "Revokes `role` from `account`. If `account` had been granted `role`, emits a {RoleRevoked} event. Requirements: - the caller must have ``role``'s admin role. May emit a {RoleRevoked} event."
      },
      "supportsInterface(bytes4)": {
        "details": "This function is part of the ERC165 standard, allowing other contracts to discover what interfaces this contract implements. It explicitly states that this module (and any inheriting contract) supports the `ISMARTComplianceModule` interface. It also calls `super.supportsInterface(interfaceId)` to include support for interfaces from parent contracts (like `AccessControl` which also implements `IERC165`).",
        "params": {
          "interfaceId": "The interface identifier (bytes4) to check."
        },
        "returns": {
          "_0": "`true` if the contract supports the `interfaceId`, `false` otherwise."
        }
      },
      "transferred(address,address,address,uint256,bytes)": {
        "details": "This is an empty `virtual` implementation. Inheriting contracts can `override` this function if they need to perform actions or update state based on a successful transfer. For example, a module might log transfer details or update internal counters. If a module doesn't need to react to transfers, it doesn't need to override this.",
        "params": {
          "_from": "The address from which tokens were transferred.",
          "_params": "The parameters that were configured for this module when it was added to the `_token`.",
          "_to": "The address to which tokens were transferred.",
          "_token": "The address of the `ISMART` token contract that performed the transfer.",
          "_value": "The amount of tokens transferred."
        }
      },
      "trustedForwarder()": {
        "details": "Returns the address of the trusted forwarder."
      },
      "validateParameters(bytes)": {
        "details": "This function is called by the `SMARTComplianceImplementation` (via `_validateModuleAndParams`) when a module is being registered with a token or when checking if a module is valid. The implementation in the inheriting module should: 1. Attempt to decode `_params` according to the expected format for that module. 2. Validate the decoded parameters (e.g., check for valid ranges, correct array lengths, non-zero addresses etc.). - If the parameters ARE valid, this function should simply return. - If the parameters ARE NOT valid, this function MUST `revert` (e.g., `revert InvalidParameters(\"Reason\");`). This function is a `view` function.",
        "params": {
          "_params": "The ABI-encoded parameters that need to be validated. The format is specific to each concrete module."
        }
      }
    },
    "events": {
      "RoleAdminChanged(bytes32,bytes32,bytes32)": {
        "details": "Emitted when `newAdminRole` is set as ``role``'s admin role, replacing `previousAdminRole` `DEFAULT_ADMIN_ROLE` is the starting admin for all roles, despite {RoleAdminChanged} not being emitted to signal this."
      },
      "RoleGranted(bytes32,address,address)": {
        "details": "Emitted when `account` is granted `role`. `sender` is the account that originated the contract call. This account bears the admin role (for the granted role). Expected in cases where the role was granted using the internal {AccessControl-_grantRole}."
      },
      "RoleRevoked(bytes32,address,address)": {
        "details": "Emitted when `account` is revoked `role`. `sender` is the account that originated the contract call:   - if using `revokeRole`, it is the admin role bearer   - if using `renounceRole`, it is the role bearer (i.e. `account`)"
      }
    },
    "errors": {
      "AccessControlBadConfirmation()": [
        {
          "details": "The caller of a function is not the expected one. NOTE: Don't confuse with {AccessControlUnauthorizedAccount}."
        }
      ],
      "AccessControlUnauthorizedAccount(address,bytes32)": [
        {
          "details": "The `account` is missing a role."
        }
      ],
      "ComplianceCheckFailed(string)": [
        {
          "details": "This error indicates that a proposed token transfer, mint, or burn operation violates      the rules enforced by this specific compliance module.",
          "params": {
            "reason": "A descriptive string explaining why the compliance check failed (e.g., \"Sender not allow listed\", \"Transfer exceeds daily limit\")."
          }
        }
      ],
      "InvalidParameters(string)": [
        {
          "details": "This error signals that the data supplied to configure or update the module is malformed, out of expected range,      or otherwise unsuitable for the module's intended operation.",
          "params": {
            "reason": "A descriptive string explaining why the parameters are considered invalid (e.g., \"Invalid country code format\", \"Limit parameter cannot be zero\")."
          }
        }
      ]
    },
    "title": "Address Block-List Compliance Module"
  },
  "id": 131
}