{
  "abi": [
    {
      "type": "constructor",
      "inputs": [
        {
          "name": "owner_",
          "type": "address",
          "internalType": "address"
        }
      ],
      "stateMutability": "nonpayable"
    },
    {
      "type": "function",
      "name": "getClaimedAmount",
      "inputs": [
        {
          "name": "index",
          "type": "uint256",
          "internalType": "uint256"
        }
      ],
      "outputs": [
        {
          "name": "claimedAmount",
          "type": "uint256",
          "internalType": "uint256"
        }
      ],
      "stateMutability": "view"
    },
    {
      "type": "function",
      "name": "isClaimAmountValid",
      "inputs": [
        {
          "name": "index",
          "type": "uint256",
          "internalType": "uint256"
        },
        {
          "name": "",
          "type": "uint256",
          "internalType": "uint256"
        },
        {
          "name": "",
          "type": "uint256",
          "internalType": "uint256"
        }
      ],
      "outputs": [
        {
          "name": "isValid",
          "type": "bool",
          "internalType": "bool"
        }
      ],
      "stateMutability": "view"
    },
    {
      "type": "function",
      "name": "isClaimed",
      "inputs": [
        {
          "name": "index",
          "type": "uint256",
          "internalType": "uint256"
        },
        {
          "name": "",
          "type": "uint256",
          "internalType": "uint256"
        }
      ],
      "outputs": [
        {
          "name": "claimed",
          "type": "bool",
          "internalType": "bool"
        }
      ],
      "stateMutability": "view"
    },
    {
      "type": "function",
      "name": "owner",
      "inputs": [],
      "outputs": [
        {
          "name": "",
          "type": "address",
          "internalType": "address"
        }
      ],
      "stateMutability": "view"
    },
    {
      "type": "function",
      "name": "recordClaim",
      "inputs": [
        {
          "name": "index",
          "type": "uint256",
          "internalType": "uint256"
        },
        {
          "name": "claimedAmount",
          "type": "uint256",
          "internalType": "uint256"
        },
        {
          "name": "totalAmount",
          "type": "uint256",
          "internalType": "uint256"
        }
      ],
      "outputs": [],
      "stateMutability": "nonpayable"
    },
    {
      "type": "function",
      "name": "renounceOwnership",
      "inputs": [],
      "outputs": [],
      "stateMutability": "nonpayable"
    },
    {
      "type": "function",
      "name": "transferOwnership",
      "inputs": [
        {
          "name": "newOwner",
          "type": "address",
          "internalType": "address"
        }
      ],
      "outputs": [],
      "stateMutability": "nonpayable"
    },
    {
      "type": "event",
      "name": "ClaimRecorded",
      "inputs": [
        {
          "name": "index",
          "type": "uint256",
          "indexed": true,
          "internalType": "uint256"
        },
        {
          "name": "claimedAmount",
          "type": "uint256",
          "indexed": false,
          "internalType": "uint256"
        },
        {
          "name": "totalAmount",
          "type": "uint256",
          "indexed": false,
          "internalType": "uint256"
        }
      ],
      "anonymous": false
    },
    {
      "type": "event",
      "name": "OwnershipTransferred",
      "inputs": [
        {
          "name": "previousOwner",
          "type": "address",
          "indexed": true,
          "internalType": "address"
        },
        {
          "name": "newOwner",
          "type": "address",
          "indexed": true,
          "internalType": "address"
        }
      ],
      "anonymous": false
    },
    {
      "type": "error",
      "name": "OwnableInvalidOwner",
      "inputs": [
        {
          "name": "owner",
          "type": "address",
          "internalType": "address"
        }
      ]
    },
    {
      "type": "error",
      "name": "OwnableUnauthorizedAccount",
      "inputs": [
        {
          "name": "account",
          "type": "address",
          "internalType": "address"
        }
      ]
    }
  ],
  "bytecode": {
    "object": "0x60803460b857601f6103bb38819003918201601f19168301916001600160401b0383118484101760bc5780849260209460405283398101031260b857516001600160a01b0381169081900360b857801560a5575f80546001600160a01b031981168317825560405192916001600160a01b03909116907f8be0079c531659141344cd1fd0a4f28419497f9722a3daafe3b4186f6b6457e09080a36102ea90816100d18239f35b631e4fbdf760e01b5f525f60045260245ffd5b5f80fd5b634e487b7160e01b5f52604160045260245ffdfe60806040526004361015610011575f80fd5b5f3560e01c8063429c6e5b1461024f578063715018a6146101f85780638da5cb5b146101d1578063bd40bde614610196578063ec5747fe14610133578063f2fde38b146100aa5763f364c90c14610066575f80fd5b346100a65760403660031901126100a657602061009c6004358060081c5f526001602052600160ff60405f205492161b16151590565b6040519015158152f35b5f80fd5b346100a65760203660031901126100a6576004356001600160a01b038116908190036100a6576100d86102b7565b8015610120575f80546001600160a01b03198116831782556001600160a01b0316907f8be0079c531659141344cd1fd0a4f28419497f9722a3daafe3b4186f6b6457e09080a3005b631e4fbdf760e01b5f525f60045260245ffd5b346100a65760407f08401774913e94f43659333293c99fdfdea868c488d679967e054abc8b5ae8346101643661029d565b61016f9492946102b7565b8460081c5f526001602052825f20600160ff87161b815417905582519182526020820152a2005b346100a65760206101c86101a93661029d565b50508060081c5f526001602052600160ff60405f205492161b16151590565b15604051908152f35b346100a6575f3660031901126100a6575f546040516001600160a01b039091168152602090f35b346100a6575f3660031901126100a6576102106102b7565b5f80546001600160a01b0319811682556001600160a01b03167f8be0079c531659141344cd1fd0a4f28419497f9722a3daafe3b4186f6b6457e08280a3005b346100a65760203660031901126100a6576102836004358060081c5f526001602052600160ff60405f205492161b16151590565b156102955760205f195b604051908152f35b60205f61028d565b60609060031901126100a657600435906024359060443590565b5f546001600160a01b031633036102ca57565b63118cdaa760e01b5f523360045260245ffdfea164736f6c634300081c000a",
    "linkReferences": {}
  },
  "methodIdentifiers": {
    "getClaimedAmount(uint256)": "429c6e5b",
    "isClaimAmountValid(uint256,uint256,uint256)": "bd40bde6",
    "isClaimed(uint256,uint256)": "f364c90c",
    "owner()": "8da5cb5b",
    "recordClaim(uint256,uint256,uint256)": "ec5747fe",
    "renounceOwnership()": "715018a6",
    "transferOwnership(address)": "f2fde38b"
  },
  "userdoc": {
    "version": 1,
    "kind": "user",
    "methods": {
      "constructor": {
        "notice": "Initializes the claim tracker with the specified owner."
      },
      "getClaimedAmount(uint256)": {
        "notice": "Gets the amount already claimed for a specific index."
      },
      "isClaimAmountValid(uint256,uint256,uint256)": {
        "notice": "Checks if a new claim amount is valid for a specific index."
      },
      "isClaimed(uint256,uint256)": {
        "notice": "Checks if a claim has been fully claimed for a specific index."
      },
      "recordClaim(uint256,uint256,uint256)": {
        "notice": "Records a claim for a specific index."
      }
    },
    "events": {
      "ClaimRecorded(uint256,uint256,uint256)": {
        "notice": "Emitted when a claim is recorded for a specific index."
      }
    },
    "notice": "Implementation of binary claim tracking using bitmaps for ATK airdrop contracts."
  },
  "devdoc": {
    "version": 1,
    "kind": "dev",
    "author": "SettleMint Tokenization Services",
    "details": "This contract implements claim tracking for airdrops where users can only claim their full      allocation in a single transaction (all-or-nothing claims). It uses a bitmap for gas-efficient      storage, tracking claimed status as binary flags.      This implementation is optimized for scenarios with fixed allocation amounts and single claims.      Only the owner (typically the airdrop contract) can record claims to prevent unauthorized manipulation.",
    "methods": {
      "constructor": {
        "params": {
          "owner_": "The address that will own this claim tracker (typically the airdrop contract)."
        }
      },
      "getClaimedAmount(uint256)": {
        "details": "For bitmap tracking, returns either 0 (not claimed) or the total amount (fully claimed).",
        "params": {
          "index": "The index to check."
        },
        "returns": {
          "claimedAmount": "0 if not claimed, or a very large number to indicate fully claimed."
        }
      },
      "isClaimAmountValid(uint256,uint256,uint256)": {
        "details": "For bitmap tracking, only valid if the index hasn't been claimed yet.",
        "params": {
          "index": "The index to check."
        },
        "returns": {
          "isValid": "True if the index hasn't been claimed yet, false otherwise."
        }
      },
      "isClaimed(uint256,uint256)": {
        "details": "For bitmap tracking, once claimed, the full amount is always claimed.      The totalAmount parameter is kept for interface compatibility but not used in logic.",
        "params": {
          "index": "The index to check in the Merkle tree."
        },
        "returns": {
          "claimed": "True if the index has been claimed, false otherwise."
        }
      },
      "owner()": {
        "details": "Returns the address of the current owner."
      },
      "recordClaim(uint256,uint256,uint256)": {
        "details": "Only the owner (airdrop contract) can record claims to prevent unauthorized manipulation.      For bitmap tracking, any claim marks the index as fully claimed.",
        "params": {
          "claimedAmount": "The amount being claimed.",
          "index": "The index of the claim in the Merkle tree.",
          "totalAmount": "The total amount allocated for this index."
        }
      },
      "renounceOwnership()": {
        "details": "Leaves the contract without owner. It will not be possible to call `onlyOwner` functions. Can only be called by the current owner. NOTE: Renouncing ownership will leave the contract without an owner, thereby disabling any functionality that is only available to the owner."
      },
      "transferOwnership(address)": {
        "details": "Transfers ownership of the contract to a new account (`newOwner`). Can only be called by the current owner."
      }
    },
    "events": {
      "ClaimRecorded(uint256,uint256,uint256)": {
        "params": {
          "claimedAmount": "The amount claimed.",
          "index": "The index of the claim in the Merkle tree.",
          "totalAmount": "The total amount allocated for this index."
        }
      }
    },
    "errors": {
      "OwnableInvalidOwner(address)": [
        {
          "details": "The owner is not a valid owner account. (eg. `address(0)`)"
        }
      ],
      "OwnableUnauthorizedAccount(address)": [
        {
          "details": "The caller account is not authorized to perform an operation."
        }
      ]
    },
    "title": "ATK Bitmap Claim Tracker"
  },
  "id": 4
}