{
  "abi": [
    {
      "type": "constructor",
      "inputs": [
        {
          "name": "trustedForwarder",
          "type": "address",
          "internalType": "address"
        }
      ],
      "stateMutability": "nonpayable"
    },
    {
      "type": "function",
      "name": "DEFAULT_ADMIN_ROLE",
      "inputs": [],
      "outputs": [
        {
          "name": "",
          "type": "bytes32",
          "internalType": "bytes32"
        }
      ],
      "stateMutability": "view"
    },
    {
      "type": "function",
      "name": "complianceModule",
      "inputs": [
        {
          "name": "moduleTypeHash",
          "type": "bytes32",
          "internalType": "bytes32"
        }
      ],
      "outputs": [
        {
          "name": "",
          "type": "address",
          "internalType": "address"
        }
      ],
      "stateMutability": "view"
    },
    {
      "type": "function",
      "name": "getRoleAdmin",
      "inputs": [
        {
          "name": "role",
          "type": "bytes32",
          "internalType": "bytes32"
        }
      ],
      "outputs": [
        {
          "name": "",
          "type": "bytes32",
          "internalType": "bytes32"
        }
      ],
      "stateMutability": "view"
    },
    {
      "type": "function",
      "name": "grantRole",
      "inputs": [
        {
          "name": "role",
          "type": "bytes32",
          "internalType": "bytes32"
        },
        {
          "name": "account",
          "type": "address",
          "internalType": "address"
        }
      ],
      "outputs": [],
      "stateMutability": "nonpayable"
    },
    {
      "type": "function",
      "name": "hasRole",
      "inputs": [
        {
          "name": "role",
          "type": "bytes32",
          "internalType": "bytes32"
        },
        {
          "name": "account",
          "type": "address",
          "internalType": "address"
        }
      ],
      "outputs": [
        {
          "name": "",
          "type": "bool",
          "internalType": "bool"
        }
      ],
      "stateMutability": "view"
    },
    {
      "type": "function",
      "name": "initialize",
      "inputs": [
        {
          "name": "initialAdmins",
          "type": "address[]",
          "internalType": "address[]"
        }
      ],
      "outputs": [],
      "stateMutability": "nonpayable"
    },
    {
      "type": "function",
      "name": "isTrustedForwarder",
      "inputs": [
        {
          "name": "forwarder",
          "type": "address",
          "internalType": "address"
        }
      ],
      "outputs": [
        {
          "name": "",
          "type": "bool",
          "internalType": "bool"
        }
      ],
      "stateMutability": "view"
    },
    {
      "type": "function",
      "name": "registerComplianceModule",
      "inputs": [
        {
          "name": "moduleAddress",
          "type": "address",
          "internalType": "address"
        }
      ],
      "outputs": [],
      "stateMutability": "nonpayable"
    },
    {
      "type": "function",
      "name": "renounceRole",
      "inputs": [
        {
          "name": "role",
          "type": "bytes32",
          "internalType": "bytes32"
        },
        {
          "name": "callerConfirmation",
          "type": "address",
          "internalType": "address"
        }
      ],
      "outputs": [],
      "stateMutability": "nonpayable"
    },
    {
      "type": "function",
      "name": "revokeRole",
      "inputs": [
        {
          "name": "role",
          "type": "bytes32",
          "internalType": "bytes32"
        },
        {
          "name": "account",
          "type": "address",
          "internalType": "address"
        }
      ],
      "outputs": [],
      "stateMutability": "nonpayable"
    },
    {
      "type": "function",
      "name": "supportsInterface",
      "inputs": [
        {
          "name": "interfaceId",
          "type": "bytes4",
          "internalType": "bytes4"
        }
      ],
      "outputs": [
        {
          "name": "",
          "type": "bool",
          "internalType": "bool"
        }
      ],
      "stateMutability": "view"
    },
    {
      "type": "function",
      "name": "trustedForwarder",
      "inputs": [],
      "outputs": [
        {
          "name": "",
          "type": "address",
          "internalType": "address"
        }
      ],
      "stateMutability": "view"
    },
    {
      "type": "event",
      "name": "ComplianceModuleRegistered",
      "inputs": [
        {
          "name": "sender",
          "type": "address",
          "indexed": true,
          "internalType": "address"
        },
        {
          "name": "name",
          "type": "string",
          "indexed": false,
          "internalType": "string"
        },
        {
          "name": "typeId",
          "type": "bytes32",
          "indexed": false,
          "internalType": "bytes32"
        },
        {
          "name": "moduleAddress",
          "type": "address",
          "indexed": true,
          "internalType": "address"
        },
        {
          "name": "timestamp",
          "type": "uint256",
          "indexed": false,
          "internalType": "uint256"
        }
      ],
      "anonymous": false
    },
    {
      "type": "event",
      "name": "Initialized",
      "inputs": [
        {
          "name": "version",
          "type": "uint64",
          "indexed": false,
          "internalType": "uint64"
        }
      ],
      "anonymous": false
    },
    {
      "type": "event",
      "name": "RoleAdminChanged",
      "inputs": [
        {
          "name": "role",
          "type": "bytes32",
          "indexed": true,
          "internalType": "bytes32"
        },
        {
          "name": "previousAdminRole",
          "type": "bytes32",
          "indexed": true,
          "internalType": "bytes32"
        },
        {
          "name": "newAdminRole",
          "type": "bytes32",
          "indexed": true,
          "internalType": "bytes32"
        }
      ],
      "anonymous": false
    },
    {
      "type": "event",
      "name": "RoleGranted",
      "inputs": [
        {
          "name": "role",
          "type": "bytes32",
          "indexed": true,
          "internalType": "bytes32"
        },
        {
          "name": "account",
          "type": "address",
          "indexed": true,
          "internalType": "address"
        },
        {
          "name": "sender",
          "type": "address",
          "indexed": true,
          "internalType": "address"
        }
      ],
      "anonymous": false
    },
    {
      "type": "event",
      "name": "RoleRevoked",
      "inputs": [
        {
          "name": "role",
          "type": "bytes32",
          "indexed": true,
          "internalType": "bytes32"
        },
        {
          "name": "account",
          "type": "address",
          "indexed": true,
          "internalType": "address"
        },
        {
          "name": "sender",
          "type": "address",
          "indexed": true,
          "internalType": "address"
        }
      ],
      "anonymous": false
    },
    {
      "type": "error",
      "name": "AccessControlBadConfirmation",
      "inputs": []
    },
    {
      "type": "error",
      "name": "AccessControlUnauthorizedAccount",
      "inputs": [
        {
          "name": "account",
          "type": "address",
          "internalType": "address"
        },
        {
          "name": "neededRole",
          "type": "bytes32",
          "internalType": "bytes32"
        }
      ]
    },
    {
      "type": "error",
      "name": "ComplianceModuleAlreadyRegistered",
      "inputs": [
        {
          "name": "name",
          "type": "string",
          "internalType": "string"
        }
      ]
    },
    {
      "type": "error",
      "name": "InvalidComplianceModuleAddress",
      "inputs": []
    },
    {
      "type": "error",
      "name": "InvalidImplementationInterface",
      "inputs": [
        {
          "name": "implAddress",
          "type": "address",
          "internalType": "address"
        },
        {
          "name": "interfaceId",
          "type": "bytes4",
          "internalType": "bytes4"
        }
      ]
    },
    {
      "type": "error",
      "name": "InvalidInitialization",
      "inputs": []
    },
    {
      "type": "error",
      "name": "NotInitializing",
      "inputs": []
    },
    {
      "type": "error",
      "name": "ReentrancyGuardReentrantCall",
      "inputs": []
    }
  ],
  "bytecode": {
    "object": "0x60a03461011057601f610e5c38819003918201601f19168301916001600160401b038311848410176101145780849260209460405283398101031261011057516001600160a01b0381168103610110576080525f516020610e3c5f395f51905f525460ff8160401c16610101576002600160401b03196001600160401b038216016100ab575b604051610d1390816101298239608051818181610695015281816106e40152610c110152f35b6001600160401b0319166001600160401b039081175f516020610e3c5f395f51905f52556040519081527fc7f505b2f371ae2175ee4913f4499e1f2633a7b5936321eed1cdaeb6115181d290602090a15f610085565b63f92ee8a960e01b5f5260045ffd5b5f80fd5b634e487b7160e01b5f52604160045260245ffdfe6080806040526004361015610012575f80fd5b5f3560e01c90816301ffc9a7146107f557508063248a9ca3146107b65780632f2ff15d1461076c57806336568abe14610718578063572b6c05146106c45780637da0a8771461068057806391d148541461062b578063a217fddf14610611578063a224cee7146103ff578063a3daf30514610126578063d547741f146100d55763f02455fc146100a0575f80fd5b346100d15760203660031901126100d1576004355f525f602052602060018060a01b0360405f205416604051908152f35b5f80fd5b346100d15760403660031901126100d1576101246004356100f4610862565b9061011f61011a825f525f516020610ca75f395f51905f52602052600160405f20015490565b6108d4565b610aa3565b005b346100d15760203660031901126100d15761013f610878565b60025f516020610cc75f395f51905f5254146103f05760025f516020610cc75f395f51905f525561016e610c0e565b6001600160a01b0381165f9081527fb7db2dd08fcb62d0c9e08c51941cae53c267786a0b75803fb7960902fc8ef97d602052604090205460ff16156103d257506001600160a01b0381169081156103c3576101c890610b4c565b6040516306fdde0360e01b81525f81600481855afa90811561031a575f91610325575b50604051638f940f6360e01b815290602082600481865afa91821561031a575f926102e6575b505f828152602081905260409020546001600160a01b03166102be576102907fd6bc745fa9cf98aaae501f68dc6269bd1419b7ef0a25f115fe1ac2d6c89a6f5a91835f525f60205260405f20856bffffffffffffffffffffffff60a01b82541617905561027c610c0e565b6040519283926060845260608401906108b0565b60208301959095524260408301526001600160a01b0316930390a360015f516020610cc75f395f51905f5255005b60405162f9a04160e01b8152602060048201529081906102e29060248301906108b0565b0390fd5b9091506020813d602011610312575b816103026020938361088e565b810103126100d157519083610211565b3d91506102f5565b6040513d5f823e3d90fd5b90503d805f833e610336818361088e565b8101906020818303126100d15780519067ffffffffffffffff82116100d1570181601f820112156100d15780519067ffffffffffffffff82116103af576040519261038b601f8401601f19166020018561088e565b828452602083830101116100d157815f9260208093018386015e83010152826101eb565b634e487b7160e01b5f52604160045260245ffd5b631da58bcf60e21b5f5260045ffd5b63e2517d3f60e01b5f5260018060a01b03166004525f60245260445ffd5b633ee5aeb560e01b5f5260045ffd5b346100d15760203660031901126100d15760043567ffffffffffffffff81116100d157366023820112156100d15780600401359067ffffffffffffffff82116103af578160051b9060405192610458602084018561088e565b835260246020840192820101903682116100d157602401915b8183106105f157835f516020610ce75f395f51905f525460ff8160401c16159067ffffffffffffffff8116801590816105e9575b60011490816105df575b1590816105d6575b506105c75767ffffffffffffffff1981166001175f516020610ce75f395f51905f52558161059b575b506104e9610c7b565b6104f1610c7b565b6104f9610c7b565b60015f516020610cc75f395f51905f52555f5b825181101561053d57600581901b83016020015160019190610536906001600160a01b0316610930565b500161050c565b5061054457005b68ff0000000000000000195f516020610ce75f395f51905f5254165f516020610ce75f395f51905f52557fc7f505b2f371ae2175ee4913f4499e1f2633a7b5936321eed1cdaeb6115181d2602060405160018152a1005b68ffffffffffffffffff191668010000000000000001175f516020610ce75f395f51905f5255826104e0565b63f92ee8a960e01b5f5260045ffd5b905015846104b7565b303b1591506104af565b8391506104a5565b82356001600160a01b03811681036100d157815260209283019201610471565b346100d1575f3660031901126100d15760206040515f8152f35b346100d15760403660031901126100d157610644610862565b6004355f525f516020610ca75f395f51905f5260205260405f209060018060a01b03165f52602052602060ff60405f2054166040519015158152f35b346100d1575f3660031901126100d1576040517f00000000000000000000000000000000000000000000000000000000000000006001600160a01b03168152602090f35b346100d15760203660031901126100d15760206106df610878565b6040517f00000000000000000000000000000000000000000000000000000000000000006001600160a01b039081169216919091148152f35b346100d15760403660031901126100d157610731610862565b6001600160a01b03610741610c0e565b166001600160a01b0382160361075d5761012490600435610aa3565b63334bd91960e11b5f5260045ffd5b346100d15760403660031901126100d15761012460043561078b610862565b906107b161011a825f525f516020610ca75f395f51905f52602052600160405f20015490565b6109f2565b346100d15760203660031901126100d15760206107ed6004355f525f516020610ca75f395f51905f52602052600160405f20015490565b604051908152f35b346100d15760203660031901126100d1576004359063ffffffff60e01b82168092036100d1576020916378ed340f60e11b8114908115610837575b5015158152f35b637965db0b60e01b811491508115610851575b5083610830565b6301ffc9a760e01b1490508361084a565b602435906001600160a01b03821682036100d157565b600435906001600160a01b03821682036100d157565b90601f8019910116810190811067ffffffffffffffff8211176103af57604052565b805180835260209291819084018484015e5f828201840152601f01601f1916010190565b6108dc610c0e565b815f525f516020610ca75f395f51905f5260205260405f2060018060a01b0382165f5260205260ff60405f20541615610913575050565b63e2517d3f60e01b5f5260018060a01b031660045260245260445ffd5b6001600160a01b0381165f9081527fb7db2dd08fcb62d0c9e08c51941cae53c267786a0b75803fb7960902fc8ef97d602052604090205460ff166109ed576001600160a01b038181165f9081527fb7db2dd08fcb62d0c9e08c51941cae53c267786a0b75803fb7960902fc8ef97d60205260409020805460ff191660011790556109b8610c0e565b16906001600160a01b03165f7f2f8788117e7eff1d82e926ec794901d17c78024a50270940304540a733656f0d8180a4600190565b505f90565b5f8181525f516020610ca75f395f51905f52602090815260408083206001600160a01b038616845290915290205460ff16610a9d575f8181525f516020610ca75f395f51905f52602090815260408083206001600160a01b0386811685529252909120805460ff19166001179055610a68610c0e565b16916001600160a01b0316907f2f8788117e7eff1d82e926ec794901d17c78024a50270940304540a733656f0d5f80a4600190565b50505f90565b5f8181525f516020610ca75f395f51905f52602090815260408083206001600160a01b038616845290915290205460ff1615610a9d575f8181525f516020610ca75f395f51905f52602090815260408083206001600160a01b0386811685529252909120805460ff19169055610b17610c0e565b16916001600160a01b0316907ff6391f5c32d9c69d2a47ea670b442974b53935d1edc7fd64eb21e047a839171b5f80a4600190565b6001600160a01b03168015610c0b576040516301ffc9a760e01b8152638c30a94360e01b6004820152602081602481855afa5f9181610bce575b50610ba957506327224edf60e01b5f52600452638c30a94360e01b60245260445ffd5b15610bb15750565b6327224edf60e01b5f52600452638c30a94360e01b60245260445ffd5b9091506020813d602011610c03575b81610bea6020938361088e565b810103126100d1575180151581036100d157905f610b86565b3d9150610bdd565b50565b337f00000000000000000000000000000000000000000000000000000000000000006001600160a01b03161480610c70575b15610c6c576013193601368111610c58573560601c90565b634e487b7160e01b5f52601160045260245ffd5b3390565b506014361015610c40565b60ff5f516020610ce75f395f51905f525460401c1615610c9757565b631afcd79f60e31b5f5260045ffdfe02dd7bc7dec4dceedda775e58dd541e08a116c6c53815c0bd028192f7b6268009b779b17422d0df92223018b32b4d1fa46e071723d6817e2486d003becc55f00f0c57e16840df040f15088dc2f81fe391c3923bec73e23a9662efc9c229c6a00a164736f6c634300081c000af0c57e16840df040f15088dc2f81fe391c3923bec73e23a9662efc9c229c6a00",
    "linkReferences": {}
  },
  "methodIdentifiers": {
    "DEFAULT_ADMIN_ROLE()": "a217fddf",
    "complianceModule(bytes32)": "f02455fc",
    "getRoleAdmin(bytes32)": "248a9ca3",
    "grantRole(bytes32,address)": "2f2ff15d",
    "hasRole(bytes32,address)": "91d14854",
    "initialize(address[])": "a224cee7",
    "isTrustedForwarder(address)": "572b6c05",
    "registerComplianceModule(address)": "a3daf305",
    "renounceRole(bytes32,address)": "36568abe",
    "revokeRole(bytes32,address)": "d547741f",
    "supportsInterface(bytes4)": "01ffc9a7",
    "trustedForwarder()": "7da0a877"
  },
  "userdoc": {
    "version": 1,
    "kind": "user",
    "errors": {
      "ComplianceModuleAlreadyRegistered(string)": [
        {
          "notice": "Error indicating that a compliance module has already been registered with the given name."
        }
      ],
      "InvalidComplianceModuleAddress()": [
        {
          "notice": "Error indicating that an invalid compliance module address was provided."
        }
      ],
      "InvalidImplementationInterface(address,bytes4)": [
        {
          "notice": "Error indicating that a provided implementation address does not support a required interface."
        }
      ]
    }
  },
  "devdoc": {
    "version": 1,
    "kind": "dev",
    "methods": {
      "constructor": {},
      "getRoleAdmin(bytes32)": {
        "details": "Returns the admin role that controls `role`. See {grantRole} and {revokeRole}. To change a role's admin, use {_setRoleAdmin}."
      },
      "grantRole(bytes32,address)": {
        "details": "Grants `role` to `account`. If `account` had not been already granted `role`, emits a {RoleGranted} event. Requirements: - the caller must have ``role``'s admin role. May emit a {RoleGranted} event."
      },
      "hasRole(bytes32,address)": {
        "details": "Returns `true` if `account` has been granted `role`."
      },
      "isTrustedForwarder(address)": {
        "details": "Indicates whether any particular address is the trusted forwarder."
      },
      "renounceRole(bytes32,address)": {
        "details": "Revokes `role` from the calling account. Roles are often managed via {grantRole} and {revokeRole}: this function's purpose is to provide a mechanism for accounts to lose their privileges if they are compromised (such as when a trusted device is misplaced). If the calling account had been revoked `role`, emits a {RoleRevoked} event. Requirements: - the caller must be `callerConfirmation`. May emit a {RoleRevoked} event."
      },
      "revokeRole(bytes32,address)": {
        "details": "Revokes `role` from `account`. If `account` had been granted `role`, emits a {RoleRevoked} event. Requirements: - the caller must have ``role``'s admin role. May emit a {RoleRevoked} event."
      },
      "supportsInterface(bytes4)": {
        "details": "See {IERC165-supportsInterface}."
      },
      "trustedForwarder()": {
        "details": "Returns the address of the trusted forwarder."
      }
    },
    "events": {
      "Initialized(uint64)": {
        "details": "Triggered when the contract has been initialized or reinitialized."
      },
      "RoleAdminChanged(bytes32,bytes32,bytes32)": {
        "details": "Emitted when `newAdminRole` is set as ``role``'s admin role, replacing `previousAdminRole` `DEFAULT_ADMIN_ROLE` is the starting admin for all roles, despite {RoleAdminChanged} not being emitted to signal this."
      },
      "RoleGranted(bytes32,address,address)": {
        "details": "Emitted when `account` is granted `role`. `sender` is the account that originated the contract call. This account bears the admin role (for the granted role). Expected in cases where the role was granted using the internal {AccessControl-_grantRole}."
      },
      "RoleRevoked(bytes32,address,address)": {
        "details": "Emitted when `account` is revoked `role`. `sender` is the account that originated the contract call:   - if using `revokeRole`, it is the admin role bearer   - if using `renounceRole`, it is the role bearer (i.e. `account`)"
      }
    },
    "errors": {
      "AccessControlBadConfirmation()": [
        {
          "details": "The caller of a function is not the expected one. NOTE: Don't confuse with {AccessControlUnauthorizedAccount}."
        }
      ],
      "AccessControlUnauthorizedAccount(address,bytes32)": [
        {
          "details": "The `account` is missing a role."
        }
      ],
      "ComplianceModuleAlreadyRegistered(string)": [
        {
          "params": {
            "name": "The name of the compliance module that was already registered."
          }
        }
      ],
      "InvalidImplementationInterface(address,bytes4)": [
        {
          "details": "When setting implementation addresses for modules (e.g., compliance, identity registry), the `SMARTSystem` checks if these implementations adhere to specific standard interfaces (like `IERC165` and the module-specific interface). If this check fails, this error is thrown.",
          "params": {
            "implAddress": "The address of the implementation contract that failed the interface check.",
            "interfaceId": "The bytes4 identifier of the interface that the `implAddress` was expected to support."
          }
        }
      ],
      "InvalidInitialization()": [
        {
          "details": "The contract is already initialized."
        }
      ],
      "NotInitializing()": [
        {
          "details": "The contract is not initializing."
        }
      ],
      "ReentrancyGuardReentrantCall()": [
        {
          "details": "Unauthorized reentrant call."
        }
      ]
    }
  },
  "id": 150
}