{
  "abi": [
    {
      "type": "constructor",
      "inputs": [
        {
          "name": "trustedForwarder",
          "type": "address",
          "internalType": "address"
        }
      ],
      "stateMutability": "nonpayable"
    },
    {
      "type": "function",
      "name": "DEFAULT_ADMIN_ROLE",
      "inputs": [],
      "outputs": [
        {
          "name": "",
          "type": "bytes32",
          "internalType": "bytes32"
        }
      ],
      "stateMutability": "view"
    },
    {
      "type": "function",
      "name": "addMultipleToBypassList",
      "inputs": [
        {
          "name": "accounts",
          "type": "address[]",
          "internalType": "address[]"
        }
      ],
      "outputs": [],
      "stateMutability": "nonpayable"
    },
    {
      "type": "function",
      "name": "addToBypassList",
      "inputs": [
        {
          "name": "account",
          "type": "address",
          "internalType": "address"
        }
      ],
      "outputs": [],
      "stateMutability": "nonpayable"
    },
    {
      "type": "function",
      "name": "areValidComplianceModules",
      "inputs": [
        {
          "name": "_pairs",
          "type": "tuple[]",
          "internalType": "struct SMARTComplianceModuleParamPair[]",
          "components": [
            {
              "name": "module",
              "type": "address",
              "internalType": "address"
            },
            {
              "name": "params",
              "type": "bytes",
              "internalType": "bytes"
            }
          ]
        }
      ],
      "outputs": [],
      "stateMutability": "view"
    },
    {
      "type": "function",
      "name": "canTransfer",
      "inputs": [
        {
          "name": "_token",
          "type": "address",
          "internalType": "address"
        },
        {
          "name": "_from",
          "type": "address",
          "internalType": "address"
        },
        {
          "name": "_to",
          "type": "address",
          "internalType": "address"
        },
        {
          "name": "_amount",
          "type": "uint256",
          "internalType": "uint256"
        }
      ],
      "outputs": [
        {
          "name": "",
          "type": "bool",
          "internalType": "bool"
        }
      ],
      "stateMutability": "view"
    },
    {
      "type": "function",
      "name": "created",
      "inputs": [
        {
          "name": "_token",
          "type": "address",
          "internalType": "address"
        },
        {
          "name": "_to",
          "type": "address",
          "internalType": "address"
        },
        {
          "name": "_amount",
          "type": "uint256",
          "internalType": "uint256"
        }
      ],
      "outputs": [],
      "stateMutability": "nonpayable"
    },
    {
      "type": "function",
      "name": "destroyed",
      "inputs": [
        {
          "name": "_token",
          "type": "address",
          "internalType": "address"
        },
        {
          "name": "_from",
          "type": "address",
          "internalType": "address"
        },
        {
          "name": "_amount",
          "type": "uint256",
          "internalType": "uint256"
        }
      ],
      "outputs": [],
      "stateMutability": "nonpayable"
    },
    {
      "type": "function",
      "name": "getRoleAdmin",
      "inputs": [
        {
          "name": "role",
          "type": "bytes32",
          "internalType": "bytes32"
        }
      ],
      "outputs": [
        {
          "name": "",
          "type": "bytes32",
          "internalType": "bytes32"
        }
      ],
      "stateMutability": "view"
    },
    {
      "type": "function",
      "name": "grantRole",
      "inputs": [
        {
          "name": "role",
          "type": "bytes32",
          "internalType": "bytes32"
        },
        {
          "name": "account",
          "type": "address",
          "internalType": "address"
        }
      ],
      "outputs": [],
      "stateMutability": "nonpayable"
    },
    {
      "type": "function",
      "name": "hasRole",
      "inputs": [
        {
          "name": "role",
          "type": "bytes32",
          "internalType": "bytes32"
        },
        {
          "name": "account",
          "type": "address",
          "internalType": "address"
        }
      ],
      "outputs": [
        {
          "name": "",
          "type": "bool",
          "internalType": "bool"
        }
      ],
      "stateMutability": "view"
    },
    {
      "type": "function",
      "name": "initialize",
      "inputs": [
        {
          "name": "initialAdmin",
          "type": "address",
          "internalType": "address"
        },
        {
          "name": "initialBypassListManagerAdmins",
          "type": "address[]",
          "internalType": "address[]"
        }
      ],
      "outputs": [],
      "stateMutability": "nonpayable"
    },
    {
      "type": "function",
      "name": "isBypassed",
      "inputs": [
        {
          "name": "account",
          "type": "address",
          "internalType": "address"
        }
      ],
      "outputs": [
        {
          "name": "",
          "type": "bool",
          "internalType": "bool"
        }
      ],
      "stateMutability": "view"
    },
    {
      "type": "function",
      "name": "isTrustedForwarder",
      "inputs": [
        {
          "name": "forwarder",
          "type": "address",
          "internalType": "address"
        }
      ],
      "outputs": [
        {
          "name": "",
          "type": "bool",
          "internalType": "bool"
        }
      ],
      "stateMutability": "view"
    },
    {
      "type": "function",
      "name": "isValidComplianceModule",
      "inputs": [
        {
          "name": "_module",
          "type": "address",
          "internalType": "address"
        },
        {
          "name": "_params",
          "type": "bytes",
          "internalType": "bytes"
        }
      ],
      "outputs": [],
      "stateMutability": "view"
    },
    {
      "type": "function",
      "name": "removeFromBypassList",
      "inputs": [
        {
          "name": "account",
          "type": "address",
          "internalType": "address"
        }
      ],
      "outputs": [],
      "stateMutability": "nonpayable"
    },
    {
      "type": "function",
      "name": "removeMultipleFromBypassList",
      "inputs": [
        {
          "name": "accounts",
          "type": "address[]",
          "internalType": "address[]"
        }
      ],
      "outputs": [],
      "stateMutability": "nonpayable"
    },
    {
      "type": "function",
      "name": "renounceRole",
      "inputs": [
        {
          "name": "role",
          "type": "bytes32",
          "internalType": "bytes32"
        },
        {
          "name": "callerConfirmation",
          "type": "address",
          "internalType": "address"
        }
      ],
      "outputs": [],
      "stateMutability": "nonpayable"
    },
    {
      "type": "function",
      "name": "revokeRole",
      "inputs": [
        {
          "name": "role",
          "type": "bytes32",
          "internalType": "bytes32"
        },
        {
          "name": "account",
          "type": "address",
          "internalType": "address"
        }
      ],
      "outputs": [],
      "stateMutability": "nonpayable"
    },
    {
      "type": "function",
      "name": "supportsInterface",
      "inputs": [
        {
          "name": "interfaceId",
          "type": "bytes4",
          "internalType": "bytes4"
        }
      ],
      "outputs": [
        {
          "name": "",
          "type": "bool",
          "internalType": "bool"
        }
      ],
      "stateMutability": "view"
    },
    {
      "type": "function",
      "name": "transferred",
      "inputs": [
        {
          "name": "_token",
          "type": "address",
          "internalType": "address"
        },
        {
          "name": "_from",
          "type": "address",
          "internalType": "address"
        },
        {
          "name": "_to",
          "type": "address",
          "internalType": "address"
        },
        {
          "name": "_amount",
          "type": "uint256",
          "internalType": "uint256"
        }
      ],
      "outputs": [],
      "stateMutability": "nonpayable"
    },
    {
      "type": "function",
      "name": "trustedForwarder",
      "inputs": [],
      "outputs": [
        {
          "name": "",
          "type": "address",
          "internalType": "address"
        }
      ],
      "stateMutability": "view"
    },
    {
      "type": "event",
      "name": "AddressAddedToBypassList",
      "inputs": [
        {
          "name": "account",
          "type": "address",
          "indexed": true,
          "internalType": "address"
        },
        {
          "name": "manager",
          "type": "address",
          "indexed": true,
          "internalType": "address"
        }
      ],
      "anonymous": false
    },
    {
      "type": "event",
      "name": "AddressRemovedFromBypassList",
      "inputs": [
        {
          "name": "account",
          "type": "address",
          "indexed": true,
          "internalType": "address"
        },
        {
          "name": "manager",
          "type": "address",
          "indexed": true,
          "internalType": "address"
        }
      ],
      "anonymous": false
    },
    {
      "type": "event",
      "name": "Initialized",
      "inputs": [
        {
          "name": "version",
          "type": "uint64",
          "indexed": false,
          "internalType": "uint64"
        }
      ],
      "anonymous": false
    },
    {
      "type": "event",
      "name": "RoleAdminChanged",
      "inputs": [
        {
          "name": "role",
          "type": "bytes32",
          "indexed": true,
          "internalType": "bytes32"
        },
        {
          "name": "previousAdminRole",
          "type": "bytes32",
          "indexed": true,
          "internalType": "bytes32"
        },
        {
          "name": "newAdminRole",
          "type": "bytes32",
          "indexed": true,
          "internalType": "bytes32"
        }
      ],
      "anonymous": false
    },
    {
      "type": "event",
      "name": "RoleGranted",
      "inputs": [
        {
          "name": "role",
          "type": "bytes32",
          "indexed": true,
          "internalType": "bytes32"
        },
        {
          "name": "account",
          "type": "address",
          "indexed": true,
          "internalType": "address"
        },
        {
          "name": "sender",
          "type": "address",
          "indexed": true,
          "internalType": "address"
        }
      ],
      "anonymous": false
    },
    {
      "type": "event",
      "name": "RoleRevoked",
      "inputs": [
        {
          "name": "role",
          "type": "bytes32",
          "indexed": true,
          "internalType": "bytes32"
        },
        {
          "name": "account",
          "type": "address",
          "indexed": true,
          "internalType": "address"
        },
        {
          "name": "sender",
          "type": "address",
          "indexed": true,
          "internalType": "address"
        }
      ],
      "anonymous": false
    },
    {
      "type": "error",
      "name": "AccessControlBadConfirmation",
      "inputs": []
    },
    {
      "type": "error",
      "name": "AccessControlUnauthorizedAccount",
      "inputs": [
        {
          "name": "account",
          "type": "address",
          "internalType": "address"
        },
        {
          "name": "neededRole",
          "type": "bytes32",
          "internalType": "bytes32"
        }
      ]
    },
    {
      "type": "error",
      "name": "AddressAlreadyOnBypassList",
      "inputs": [
        {
          "name": "account",
          "type": "address",
          "internalType": "address"
        }
      ]
    },
    {
      "type": "error",
      "name": "AddressNotOnBypassList",
      "inputs": [
        {
          "name": "account",
          "type": "address",
          "internalType": "address"
        }
      ]
    },
    {
      "type": "error",
      "name": "InvalidInitialization",
      "inputs": []
    },
    {
      "type": "error",
      "name": "InvalidModule",
      "inputs": []
    },
    {
      "type": "error",
      "name": "NotInitializing",
      "inputs": []
    },
    {
      "type": "error",
      "name": "ZeroAddressNotAllowed",
      "inputs": []
    }
  ],
  "bytecode": {
    "object": "0x60a03461011057601f6119c038819003918201601f19168301916001600160401b038311848410176101145780849260209460405283398101031261011057516001600160a01b0381168103610110576080525f5160206119a05f395f51905f525460ff8160401c16610101576002600160401b03196001600160401b038216016100ab575b6040516118779081610129823960805181818161080f0152818161088401526117750152f35b6001600160401b0319166001600160401b039081175f5160206119a05f395f51905f52556040519081527fc7f505b2f371ae2175ee4913f4499e1f2633a7b5936321eed1cdaeb6115181d290602090a15f610085565b63f92ee8a960e01b5f5260045ffd5b5f80fd5b634e487b7160e01b5f52604160045260245ffdfe60806040526004361015610011575f80fd5b5f3560e01c8062fdecdb14610cf157806301ffc9a714610c695780630379210414610b9c578063204b600114610b60578063248a9ca314610b21578063292d480314610a3c5780632f2ff15d146109f257806336568abe1461099e5780633e5af4ca146108b8578063572b6c05146108645780636d62a4fe1461083e5780637da0a877146107fa578063882f1ea8146107465780638a668634146106b957806391d1485414610664578063946d9204146103a4578063a217fddf1461038a578063ad02d621146102af578063d547741f14610260578063e2677662146101685763e50bcad3146100ff575f80fd5b3461016457604036600319011261016457610118610dbc565b602435906001600160401b0382116101645736602383011215610164578160040135906001600160401b0382116101645736602483850101116101645760246101629301906111fe565b005b5f80fd5b346101645761017636610de8565b6040516354c560bd60e11b81529192905f836004816001600160a01b0386165afa928315610231575f9361023c575b508251925f5b8481106101b457005b6001600160a01b036101c68284611055565b5151169060206101d68285611055565b51015191803b1561016457845f918983896102076040519889968795869463c4c104b960e01b86526004860161108d565b03925af191821561023157600192610221575b50016101ab565b5f61022b91610e70565b8761021a565b6040513d5f823e3d90fd5b6102599193503d805f833e6102518183610e70565b810190610f16565b91846101a5565b346101645760403660031901126101645761016260043561027f610dd2565b906102aa6102a5825f525f51602061182b5f395f51905f52602052600160405f20015490565b61138c565b6116c9565b34610164576020366003190112610164576004356001600160401b038111610164576102df903690600401610d8c565b906102e86112fe565b5f5b8281106102f357005b6001600160a01b0361030e610309838686610f06565b610ef2565b16805f525f60205260ff60405f20541615610378575f818152602081905260409020805460ff19169055600191906001600160a01b0361034c611772565b16907f128fb3593d4d8a8ca29b7babc9136572a1e28c525fa35c4bb4ea14b20742c8635f80a3016102ea565b632cf22ae160e21b5f5260045260245ffd5b34610164575f3660031901126101645760206040515f8152f35b34610164576040366003190112610164576103bd610dbc565b602435906001600160401b03821161016457366023830112156101645781600401356103e881610ea5565b926103f66040519485610e70565b8184526024602085019260051b8201019036821161016457602401915b818310610644575050505f51602061184b5f395f51905f525460ff8160401c1615916001600160401b0382168015908161063c575b6001149081610632575b159081610629575b5061061a5767ffffffffffffffff1982166001175f51602061184b5f395f51905f525561054391836105ee575b506104906117df565b6104986117df565b7feaeeb45c1b9029a6e392e1e7aa6f4af6bd8111f85c32809598bc9903a16227a35f8181525f51602061182b5f395f51905f526020527fe8bf0762f5377f8b8340c486ee15f5ce9fad20a5b6c8702048ea00d950b82bd380547f587f842bf72b8481152c2910f9bf09a453fec88f98663fc036e48fe3a2f141cb91829055909290917fbd79b86ffe0ab8e8776151514217cd7cacd52c909f66475c3af44e129f0b00ff9080a46113e8565b505f5b82518110156105905760019061056e6001600160a01b036105678387611055565b5116611497565b50610589828060a01b036105828387611055565b5116611561565b5001610546565b5061059757005b68ff0000000000000000195f51602061184b5f395f51905f5254165f51602061184b5f395f51905f52557fc7f505b2f371ae2175ee4913f4499e1f2633a7b5936321eed1cdaeb6115181d2602060405160018152a1005b68ffffffffffffffffff191668010000000000000001175f51602061184b5f395f51905f525584610487565b63f92ee8a960e01b5f5260045ffd5b9050158561045a565b303b159150610452565b849150610448565b82356001600160a01b038116810361016457815260209283019201610413565b346101645760403660031901126101645761067d610dd2565b6004355f525f51602061182b5f395f51905f5260205260405f209060018060a01b03165f52602052602060ff60405f2054166040519015158152f35b34610164576020366003190112610164576106d2610dbc565b6106da6112fe565b6001600160a01b03165f8181526020819052604090205460ff1615610378575f818152602081905260409020805460ff191690556001600160a01b0361071e611772565b16907f128fb3593d4d8a8ca29b7babc9136572a1e28c525fa35c4bb4ea14b20742c8635f80a3005b346101645760203660031901126101645761075f610dbc565b6107676112fe565b6001600160a01b031680156107eb57805f525f60205260ff60405f2054166107d9575f818152602081905260409020805460ff191660011790556001600160a01b036107b1611772565b16907f0f3a9500f0f26c009c928e123e0f7bee0ecd4caa7b6010581f85e7b28794c1275f80a3005b630237252360e11b5f5260045260245ffd5b6342bcdf7f60e11b5f5260045ffd5b34610164575f366003190112610164576040517f00000000000000000000000000000000000000000000000000000000000000006001600160a01b03168152602090f35b3461016457602061085a61085136610e22565b929190916110fb565b6040519015158152f35b3461016457602036600319011261016457602061087f610dbc565b6040517f00000000000000000000000000000000000000000000000000000000000000006001600160a01b039081169216919091148152f35b34610164576108c636610e22565b6040516354c560bd60e11b8152909391905f816004816001600160a01b0387165afa908115610231575f91610984575b508051935f5b85811061090557005b6001600160a01b036109178285611055565b5151169060206109278286611055565b51015191803b1561016457855f9185838a61095a8e98604051998a978896879563ea6b97a560e01b8752600487016110c1565b03925af191821561023157600192610974575b50016108fc565b5f61097e91610e70565b8861096d565b61099891503d805f833e6102518183610e70565b856108f6565b34610164576040366003190112610164576109b7610dd2565b6001600160a01b036109c7611772565b166001600160a01b038216036109e357610162906004356116c9565b63334bd91960e11b5f5260045ffd5b3461016457604036600319011261016457610162600435610a11610dd2565b90610a376102a5825f525f51602061182b5f395f51905f52602052600160405f20015490565b61162b565b3461016457610a4a36610de8565b6040516354c560bd60e11b81529192905f836004816001600160a01b0386165afa928315610231575f93610b05575b508251925f5b848110610a8857005b6001600160a01b03610a9a8284611055565b515116906020610aaa8285611055565b51015191803b1561016457845f91898389610adb604051988996879586946310efe2a560e01b86526004860161108d565b03925af191821561023157600192610af5575b5001610a7f565b5f610aff91610e70565b87610aee565b610b1a9193503d805f833e6102518183610e70565b9184610a79565b34610164576020366003190112610164576020610b586004355f525f51602061182b5f395f51905f52602052600160405f20015490565b604051908152f35b34610164576020366003190112610164576001600160a01b03610b81610dbc565b165f525f602052602060ff60405f2054166040519015158152f35b34610164576020366003190112610164576004356001600160401b03811161016457610bcc903690600401610d8c565b90610bd56112fe565b5f5b828110610be057005b6001600160a01b03610bf6610309838686610f06565b1680156107eb57805f525f60205260ff60405f2054166107d9575f818152602081905260409020805460ff1916600190811790915591906001600160a01b03610c3d611772565b16907f0f3a9500f0f26c009c928e123e0f7bee0ecd4caa7b6010581f85e7b28794c1275f80a301610bd7565b346101645760203660031901126101645760043563ffffffff60e01b811680910361016457602090637d84485d60e01b8114908115610ce0575b8115610cb5575b506040519015158152f35b637965db0b60e01b811491508115610ccf575b5082610caa565b6301ffc9a760e01b14905082610cc8565b630605276f60e21b81149150610ca3565b34610164576020366003190112610164576004356001600160401b03811161016457610d21903690600401610d8c565b5f5b818110610d2c57005b610d3a610309828486610ebc565b90610d46818486610ebc565b602081013590601e19813603018212156101645701918235926001600160401b0384116101645760200192803603841361016457600193610d86926111fe565b01610d23565b9181601f84011215610164578235916001600160401b038311610164576020808501948460051b01011161016457565b600435906001600160a01b038216820361016457565b602435906001600160a01b038216820361016457565b6060906003190112610164576004356001600160a01b038116810361016457906024356001600160a01b0381168103610164579060443590565b6080906003190112610164576004356001600160a01b038116810361016457906024356001600160a01b038116810361016457906044356001600160a01b0381168103610164579060643590565b90601f801991011681019081106001600160401b03821117610e9157604052565b634e487b7160e01b5f52604160045260245ffd5b6001600160401b038111610e915760051b60200190565b9190811015610ede5760051b81013590603e1981360301821215610164570190565b634e487b7160e01b5f52603260045260245ffd5b356001600160a01b03811681036101645790565b9190811015610ede5760051b0190565b602081830312610164578051906001600160401b03821161016457019080601f8301121561016457815191610f4a83610ea5565b92610f586040519485610e70565b80845260208085019160051b830101918383116101645760208101915b838310610f8457505050505090565b82516001600160401b038111610164578201906040828703601f1901126101645760405191604083018381106001600160401b03821117610e915760405260208101516001600160a01b038116810361016457835260408101516001600160401b0381116101645760209101019086601f83011215610164578151926001600160401b038411610e9157604051611025601f8601601f191660200182610e70565b8481528860208686010111610164575f6020868197828098018386015e8301015283820152815201920191610f75565b8051821015610ede5760209160051b010190565b805180835260209291819084018484015e5f828201840152601f01601f1916010190565b6001600160a01b0391821681529116602082015260408101919091526080606082018190526110be92910190611069565b90565b6001600160a01b03918216815291811660208301529091166040820152606081019190915260a0608082018190526110be92910190611069565b909160018060a01b0381165f525f60205260ff60405f2054166111f5576040516354c560bd60e11b81525f816004816001600160a01b0387165afa908115610231575f916111db575b508051935f5b85811061115d5750505050505050600190565b6001600160a01b0361116f8285611055565b51511690602061117f8286611055565b51015191803b156101645760405163ddfcf37760e01b8152925f918491829081906111b1908e8c8b8f600487016110c1565b03915afa918215610231576001926111cb575b500161114a565b5f6111d591610e70565b5f6111c4565b6111ef91503d805f833e6102518183610e70565b5f611144565b50505050600190565b6001600160a01b03169081156107eb576040516301ffc9a760e01b8152638c30a94360e01b6004820152602081602481865afa5f91816112c1575b5061124d57631bb2296560e31b5f5260045ffd5b156112b257813b15610164575f91839160446040518096819582946334ba7ac760e11b845260206004850152816024850152848401378181018301879052601f01601f191681010301915afa8015610231576112a65750565b5f6112b091610e70565b565b631bb2296560e31b5f5260045ffd5b9091506020813d6020116112f6575b816112dd60209383610e70565b810103126101645751801515810361016457905f611239565b3d91506112d0565b611306611772565b6001600160a01b0381165f9081527fe8bf0762f5377f8b8340c486ee15f5ce9fad20a5b6c8702048ea00d950b82bd2602052604090205460ff16156113485750565b63e2517d3f60e01b5f9081526001600160a01b03919091166004527feaeeb45c1b9029a6e392e1e7aa6f4af6bd8111f85c32809598bc9903a16227a3602452604490fd5b611394611772565b815f525f51602061182b5f395f51905f5260205260405f2060018060a01b0382165f5260205260ff60405f205416156113cb575050565b63e2517d3f60e01b5f5260018060a01b031660045260245260445ffd5b6001600160a01b0381165f9081527fb7db2dd08fcb62d0c9e08c51941cae53c267786a0b75803fb7960902fc8ef97d602052604090205460ff16611492576001600160a01b038181165f9081527fb7db2dd08fcb62d0c9e08c51941cae53c267786a0b75803fb7960902fc8ef97d60205260409020805460ff19166001179055611470611772565b16906001600160a01b03165f5f51602061180b5f395f51905f528180a4600190565b505f90565b6001600160a01b0381165f9081527fe8bf0762f5377f8b8340c486ee15f5ce9fad20a5b6c8702048ea00d950b82bd2602052604090205460ff16611492576001600160a01b038181165f9081527fe8bf0762f5377f8b8340c486ee15f5ce9fad20a5b6c8702048ea00d950b82bd260205260409020805460ff1916600117905561151f611772565b16906001600160a01b03167feaeeb45c1b9029a6e392e1e7aa6f4af6bd8111f85c32809598bc9903a16227a35f51602061180b5f395f51905f525f80a4600190565b6001600160a01b0381165f9081527fdf7a34b546d3d4bf826fe37f33efed6fbeacc71e60921f8a1ce3066917f46343602052604090205460ff16611492576001600160a01b038181165f9081527fdf7a34b546d3d4bf826fe37f33efed6fbeacc71e60921f8a1ce3066917f4634360205260409020805460ff191660011790556115e9611772565b16906001600160a01b03167f587f842bf72b8481152c2910f9bf09a453fec88f98663fc036e48fe3a2f141cb5f51602061180b5f395f51905f525f80a4600190565b5f8181525f51602061182b5f395f51905f52602090815260408083206001600160a01b038616845290915290205460ff166116c3575f8181525f51602061182b5f395f51905f52602090815260408083206001600160a01b0386811685529252909120805460ff191660011790556116a1611772565b16916001600160a01b0316905f51602061180b5f395f51905f525f80a4600190565b50505f90565b5f8181525f51602061182b5f395f51905f52602090815260408083206001600160a01b038616845290915290205460ff16156116c3575f8181525f51602061182b5f395f51905f52602090815260408083206001600160a01b0386811685529252909120805460ff1916905561173d611772565b16916001600160a01b0316907ff6391f5c32d9c69d2a47ea670b442974b53935d1edc7fd64eb21e047a839171b5f80a4600190565b337f00000000000000000000000000000000000000000000000000000000000000006001600160a01b031614806117d4575b156117d05760131936013681116117bc573560601c90565b634e487b7160e01b5f52601160045260245ffd5b3390565b5060143610156117a4565b60ff5f51602061184b5f395f51905f525460401c16156117fb57565b631afcd79f60e31b5f5260045ffdfe2f8788117e7eff1d82e926ec794901d17c78024a50270940304540a733656f0d02dd7bc7dec4dceedda775e58dd541e08a116c6c53815c0bd028192f7b626800f0c57e16840df040f15088dc2f81fe391c3923bec73e23a9662efc9c229c6a00a164736f6c634300081c000af0c57e16840df040f15088dc2f81fe391c3923bec73e23a9662efc9c229c6a00",
    "linkReferences": {}
  },
  "methodIdentifiers": {
    "DEFAULT_ADMIN_ROLE()": "a217fddf",
    "addMultipleToBypassList(address[])": "03792104",
    "addToBypassList(address)": "882f1ea8",
    "areValidComplianceModules((address,bytes)[])": "00fdecdb",
    "canTransfer(address,address,address,uint256)": "6d62a4fe",
    "created(address,address,uint256)": "e2677662",
    "destroyed(address,address,uint256)": "292d4803",
    "getRoleAdmin(bytes32)": "248a9ca3",
    "grantRole(bytes32,address)": "2f2ff15d",
    "hasRole(bytes32,address)": "91d14854",
    "initialize(address,address[])": "946d9204",
    "isBypassed(address)": "204b6001",
    "isTrustedForwarder(address)": "572b6c05",
    "isValidComplianceModule(address,bytes)": "e50bcad3",
    "removeFromBypassList(address)": "8a668634",
    "removeMultipleFromBypassList(address[])": "ad02d621",
    "renounceRole(bytes32,address)": "36568abe",
    "revokeRole(bytes32,address)": "d547741f",
    "supportsInterface(bytes4)": "01ffc9a7",
    "transferred(address,address,address,uint256)": "3e5af4ca",
    "trustedForwarder()": "7da0a877"
  },
  "userdoc": {
    "version": 1,
    "kind": "user",
    "methods": {
      "addMultipleToBypassList(address[])": {
        "notice": "Adds multiple addresses to the compliance bypass list in a single transaction"
      },
      "addToBypassList(address)": {
        "notice": "Adds an address to the compliance bypass list"
      },
      "areValidComplianceModules((address,bytes)[])": {
        "notice": "Checks if an array of compliance module and parameter pairs are all valid."
      },
      "canTransfer(address,address,address,uint256)": {
        "notice": "Checks if a proposed token transfer is compliant with all registered modules for a given token."
      },
      "constructor": {
        "notice": "Constructor for the compliance implementation contract."
      },
      "created(address,address,uint256)": {
        "notice": "Called by an `ISMART` token contract after new tokens have been successfully created (minted)."
      },
      "destroyed(address,address,uint256)": {
        "notice": "Called by an `ISMART` token contract after tokens have been successfully destroyed (burned)."
      },
      "initialize(address,address[])": {
        "notice": "Initializes the compliance contract after it has been deployed (typically via a proxy)."
      },
      "isBypassed(address)": {
        "notice": "Checks if an address is on the bypass list"
      },
      "isValidComplianceModule(address,bytes)": {
        "notice": "Checks if a single given module address and its associated parameters are valid."
      },
      "removeFromBypassList(address)": {
        "notice": "Removes an address from the compliance bypass list"
      },
      "removeMultipleFromBypassList(address[])": {
        "notice": "Removes multiple addresses from the compliance bypass list in a single transaction"
      },
      "supportsInterface(bytes4)": {
        "notice": "Override supportsInterface to support ERC165 interface detection"
      },
      "transferred(address,address,address,uint256)": {
        "notice": "Called by an `ISMART` token contract after a token transfer has successfully occurred."
      }
    },
    "events": {
      "AddressAddedToBypassList(address,address)": {
        "notice": "Emitted when an address is added to the compliance bypass list."
      },
      "AddressRemovedFromBypassList(address,address)": {
        "notice": "Emitted when an address is removed from the compliance bypass list."
      }
    },
    "errors": {
      "AddressAlreadyOnBypassList(address)": [
        {
          "notice": "Error thrown when trying to add an address that is already on the bypass list."
        }
      ],
      "AddressNotOnBypassList(address)": [
        {
          "notice": "Error thrown when trying to remove an address that is not on the bypass list."
        }
      ],
      "InvalidModule()": [
        {
          "notice": "Error indicating that a provided address is not a valid compliance module."
        }
      ],
      "ZeroAddressNotAllowed()": [
        {
          "notice": "Error indicating that a provided address is not a valid compliance module."
        }
      ]
    },
    "notice": "This contract is the upgradeable logic implementation for the main compliance functionality within the ATK Protocol."
  },
  "devdoc": {
    "version": 1,
    "kind": "dev",
    "author": "SettleMint Tokenization Services",
    "details": "It acts as a central orchestrator for compliance checks related to ATK tokens (which implement the `IATK` interface). When a ATK token operation occurs (like a transfer, creation, or destruction of tokens), this compliance contract is notified. It then iterates through all compliance modules registered with that specific token and calls the relevant functions (hooks) on each module. For example, before a transfer, it checks `canTransfer` on all modules. After a transfer, it calls `transferred`. This contract is designed to be used behind a proxy (like `SMARTComplianceProxy`) to allow its logic to be upgraded. It supports meta-transactions via `ERC2771ContextUpgradeable` allowing a trusted forwarder to pay for gas fees. It also implements `ERC165Upgradeable` for interface detection. Additionally, it implements a bypass list functionality that allows certain addresses (mainly contracts) to bypass compliance checks when they are the sender or receiver of a transfer.",
    "methods": {
      "addMultipleToBypassList(address[])": {
        "details": "Only addresses with BYPASS_LIST_MANAGER_ROLE can call this function. This is a gas-efficient way to add multiple addresses to the bypass list at once.",
        "params": {
          "accounts": "Array of addresses to add to the bypass list"
        }
      },
      "addToBypassList(address)": {
        "details": "Only addresses with BYPASS_LIST_MANAGER_ROLE can call this function. Bypassed addresses can bypass compliance checks in canTransfer function.",
        "params": {
          "account": "The address to add to the bypass list"
        }
      },
      "areValidComplianceModules((address,bytes)[])": {
        "details": "This function iterates through the provided array and calls `_validateModuleAndParams` for each pair. If any module/parameter pair in the array is invalid, the entire function call will revert. This is useful for validating a set of modules before registering them with a token.",
        "params": {
          "_pairs": "An array of `SMARTComplianceModuleParamPair` structs. Each struct contains a module address and its ABI-encoded parameters."
        }
      },
      "canTransfer(address,address,address,uint256)": {
        "details": "This function is typically called by an `ISMART` token contract *before* a transfer is executed. It first checks if either the sender or receiver is on the bypass list - if so, the transfer is automatically allowed. Otherwise, it retrieves all compliance modules registered for the `_token` and calls the `canTransfer` view function on each module. If *any* of the modules revert during their `canTransfer` check (indicating the transfer is not allowed by that module), this entire function call will also revert, signaling that the transfer is not compliant. If all modules allow the transfer (i.e., none of them revert), this function returns `true`.",
        "params": {
          "_amount": "The quantity of tokens proposed to be transferred.",
          "_from": "The address from which tokens would be transferred.",
          "_to": "The address to which tokens would be transferred.",
          "_token": "The address of the `ISMART` token contract for which the compliance check is being performed."
        },
        "returns": {
          "_0": "`true` if all registered compliance modules allow the transfer, otherwise the function reverts."
        }
      },
      "constructor": {
        "details": "This constructor is specific to OpenZeppelin's upgradeable contracts pattern. It initializes the `ERC2771ContextUpgradeable` with the address of a trusted forwarder for meta-transactions. The `_disableInitializers()` call is crucial for upgradeable contracts; it ensures that the `initialize` function cannot be called on the implementation contract directly after deployment, reserving it for the proxy context.",
        "params": {
          "trustedForwarder": "The address of the ERC-2771 trusted forwarder contract. This allows users to interact with this contract without paying gas fees directly, if the forwarder is set up to relay their transactions."
        }
      },
      "created(address,address,uint256)": {
        "details": "This function iterates through all compliance modules registered with the given `_token`. For each module, it calls the module's `created` function, passing along the creation details. This allows modules to react to token creation events. It is critical that this function is only callable by the `ISMART` token contract.",
        "params": {
          "_amount": "The quantity of tokens that were created.",
          "_to": "The address to which the new tokens were minted.",
          "_token": "The address of the `ISMART` token contract where tokens were created."
        }
      },
      "destroyed(address,address,uint256)": {
        "details": "This function iterates through all compliance modules registered with the given `_token`. For each module, it calls the module's `destroyed` function, passing along the destruction details. This allows modules to react to token destruction events. It is critical that this function is only callable by the `ISMART` token contract.",
        "params": {
          "_amount": "The quantity of tokens that were destroyed.",
          "_from": "The address from which tokens were burned.",
          "_token": "The address of the `ISMART` token contract from which tokens were destroyed."
        }
      },
      "getRoleAdmin(bytes32)": {
        "details": "Returns the admin role that controls `role`. See {grantRole} and {revokeRole}. To change a role's admin, use {_setRoleAdmin}."
      },
      "grantRole(bytes32,address)": {
        "details": "Grants `role` to `account`. If `account` had not been already granted `role`, emits a {RoleGranted} event. Requirements: - the caller must have ``role``'s admin role. May emit a {RoleGranted} event."
      },
      "hasRole(bytes32,address)": {
        "details": "Returns `true` if `account` has been granted `role`."
      },
      "initialize(address,address[])": {
        "details": "This function is called once to set up the initial state of the contract. It initializes the ERC165 interface detection capability and sets up AccessControl with the deployer as the default admin. For upgradeable contracts, initializers replace constructors for setup logic. The `initializer` modifier ensures this function can only be called once.",
        "params": {
          "initialAdmin": "The address of the initial admin.",
          "initialBypassListManagerAdmins": "The addresses of the initial bypass list manager admins."
        }
      },
      "isBypassed(address)": {
        "params": {
          "account": "The address to check"
        },
        "returns": {
          "_0": "True if the address is on the bypass list, false otherwise"
        }
      },
      "isTrustedForwarder(address)": {
        "details": "Indicates whether any particular address is the trusted forwarder."
      },
      "isValidComplianceModule(address,bytes)": {
        "details": "This function calls the internal `_validateModuleAndParams` helper. It's a view function, meaning it doesn't change state and can be called without gas costs (if called externally). It will revert if the module is invalid (e.g., doesn't support `ISMARTComplianceModule` interface or parameters are incorrect for the module).",
        "params": {
          "_module": "The address of the compliance module contract to validate.",
          "_params": "The ABI-encoded parameters intended for this specific module. Each module defines how its parameters should be structured and validated."
        }
      },
      "removeFromBypassList(address)": {
        "details": "Only addresses with BYPASS_LIST_MANAGER_ROLE can call this function.",
        "params": {
          "account": "The address to remove from the bypass list"
        }
      },
      "removeMultipleFromBypassList(address[])": {
        "details": "Only addresses with BYPASS_LIST_MANAGER_ROLE can call this function.",
        "params": {
          "accounts": "Array of addresses to remove from the bypass list"
        }
      },
      "renounceRole(bytes32,address)": {
        "details": "Revokes `role` from the calling account. Roles are often managed via {grantRole} and {revokeRole}: this function's purpose is to provide a mechanism for accounts to lose their privileges if they are compromised (such as when a trusted device is misplaced). If the calling account had been revoked `role`, emits a {RoleRevoked} event. Requirements: - the caller must be `callerConfirmation`. May emit a {RoleRevoked} event."
      },
      "revokeRole(bytes32,address)": {
        "details": "Revokes `role` from `account`. If `account` had been granted `role`, emits a {RoleRevoked} event. Requirements: - the caller must have ``role``'s admin role. May emit a {RoleRevoked} event."
      },
      "supportsInterface(bytes4)": {
        "details": "Announces support for ISMARTCompliance and IATKCompliance interfaces",
        "params": {
          "interfaceId": "The interface identifier to check"
        },
        "returns": {
          "_0": "True if the interface is supported, false otherwise"
        }
      },
      "transferred(address,address,address,uint256)": {
        "details": "This function iterates through all compliance modules registered with the given `_token`. For each module, it calls the module's `transferred` function, passing along the transfer details. This allows modules to react to transfers, for example, by updating internal state or logging. It is critical that this function is only callable by the `ISMART` token contract it is associated with to prevent unauthorized notifications. The current implementation assumes this restriction is handled by the token contract itself.",
        "params": {
          "_amount": "The quantity of tokens that were transferred.",
          "_from": "The address from which tokens were transferred. This will be `address(0)` for token minting/creation events.",
          "_to": "The address to which tokens were transferred. This will be `address(0)` for token burning/destruction events.",
          "_token": "The address of the `ISMART` token contract that performed the transfer."
        }
      },
      "trustedForwarder()": {
        "details": "Returns the address of the trusted forwarder."
      }
    },
    "events": {
      "AddressAddedToBypassList(address,address)": {
        "params": {
          "account": "The address that was added to the bypass list.",
          "manager": "The address that performed the addition."
        }
      },
      "AddressRemovedFromBypassList(address,address)": {
        "params": {
          "account": "The address that was removed from the bypass list.",
          "manager": "The address that performed the removal."
        }
      },
      "Initialized(uint64)": {
        "details": "Triggered when the contract has been initialized or reinitialized."
      },
      "RoleAdminChanged(bytes32,bytes32,bytes32)": {
        "details": "Emitted when `newAdminRole` is set as ``role``'s admin role, replacing `previousAdminRole` `DEFAULT_ADMIN_ROLE` is the starting admin for all roles, despite {RoleAdminChanged} not being emitted to signal this."
      },
      "RoleGranted(bytes32,address,address)": {
        "details": "Emitted when `account` is granted `role`. `sender` is the account that originated the contract call. This account bears the admin role (for the granted role). Expected in cases where the role was granted using the internal {AccessControl-_grantRole}."
      },
      "RoleRevoked(bytes32,address,address)": {
        "details": "Emitted when `account` is revoked `role`. `sender` is the account that originated the contract call:   - if using `revokeRole`, it is the admin role bearer   - if using `renounceRole`, it is the role bearer (i.e. `account`)"
      }
    },
    "errors": {
      "AccessControlBadConfirmation()": [
        {
          "details": "The caller of a function is not the expected one. NOTE: Don't confuse with {AccessControlUnauthorizedAccount}."
        }
      ],
      "AccessControlUnauthorizedAccount(address,bytes32)": [
        {
          "details": "The `account` is missing a role."
        }
      ],
      "InvalidInitialization()": [
        {
          "details": "The contract is already initialized."
        }
      ],
      "InvalidModule()": [
        {
          "details": "This error is typically reverted when a contract address provided as a compliance module does not correctly implement the `ISMARTComplianceModule` interface, or if the interface check fails."
        }
      ],
      "NotInitializing()": [
        {
          "details": "The contract is not initializing."
        }
      ],
      "ZeroAddressNotAllowed()": [
        {
          "details": "This error is typically reverted when a contract address provided as a compliance module does not correctly implement the `ISMARTComplianceModule` interface, or if the interface check fails."
        }
      ]
    },
    "title": "ATK Compliance Contract Implementation"
  },
  "id": 149
}