{
  "abi": [
    {
      "type": "constructor",
      "inputs": [
        {
          "name": "forwarder",
          "type": "address",
          "internalType": "address"
        }
      ],
      "stateMutability": "nonpayable"
    },
    {
      "type": "function",
      "name": "DEFAULT_ADMIN_ROLE",
      "inputs": [],
      "outputs": [
        {
          "name": "",
          "type": "bytes32",
          "internalType": "bytes32"
        }
      ],
      "stateMutability": "view"
    },
    {
      "type": "function",
      "name": "createEquity",
      "inputs": [
        {
          "name": "name_",
          "type": "string",
          "internalType": "string"
        },
        {
          "name": "symbol_",
          "type": "string",
          "internalType": "string"
        },
        {
          "name": "decimals_",
          "type": "uint8",
          "internalType": "uint8"
        },
        {
          "name": "requiredClaimTopics_",
          "type": "uint256[]",
          "internalType": "uint256[]"
        },
        {
          "name": "initialModulePairs_",
          "type": "tuple[]",
          "internalType": "struct SMARTComplianceModuleParamPair[]",
          "components": [
            {
              "name": "module",
              "type": "address",
              "internalType": "address"
            },
            {
              "name": "params",
              "type": "bytes",
              "internalType": "bytes"
            }
          ]
        }
      ],
      "outputs": [
        {
          "name": "deployedEquityAddress",
          "type": "address",
          "internalType": "address"
        }
      ],
      "stateMutability": "nonpayable"
    },
    {
      "type": "function",
      "name": "getRoleAdmin",
      "inputs": [
        {
          "name": "role",
          "type": "bytes32",
          "internalType": "bytes32"
        }
      ],
      "outputs": [
        {
          "name": "",
          "type": "bytes32",
          "internalType": "bytes32"
        }
      ],
      "stateMutability": "view"
    },
    {
      "type": "function",
      "name": "grantRole",
      "inputs": [
        {
          "name": "role",
          "type": "bytes32",
          "internalType": "bytes32"
        },
        {
          "name": "account",
          "type": "address",
          "internalType": "address"
        }
      ],
      "outputs": [],
      "stateMutability": "nonpayable"
    },
    {
      "type": "function",
      "name": "hasRole",
      "inputs": [
        {
          "name": "role",
          "type": "bytes32",
          "internalType": "bytes32"
        },
        {
          "name": "account",
          "type": "address",
          "internalType": "address"
        }
      ],
      "outputs": [
        {
          "name": "",
          "type": "bool",
          "internalType": "bool"
        }
      ],
      "stateMutability": "view"
    },
    {
      "type": "function",
      "name": "initialize",
      "inputs": [
        {
          "name": "systemAddress",
          "type": "address",
          "internalType": "address"
        },
        {
          "name": "tokenImplementation_",
          "type": "address",
          "internalType": "address"
        },
        {
          "name": "initialAdmin",
          "type": "address",
          "internalType": "address"
        },
        {
          "name": "identityVerificationModule",
          "type": "address",
          "internalType": "address"
        }
      ],
      "outputs": [],
      "stateMutability": "nonpayable"
    },
    {
      "type": "function",
      "name": "isFactoryAccessManager",
      "inputs": [
        {
          "name": "accessManagerAddress",
          "type": "address",
          "internalType": "address"
        }
      ],
      "outputs": [
        {
          "name": "isFactoryAccessManager",
          "type": "bool",
          "internalType": "bool"
        }
      ],
      "stateMutability": "view"
    },
    {
      "type": "function",
      "name": "isFactoryToken",
      "inputs": [
        {
          "name": "tokenAddress",
          "type": "address",
          "internalType": "address"
        }
      ],
      "outputs": [
        {
          "name": "isFactoryToken",
          "type": "bool",
          "internalType": "bool"
        }
      ],
      "stateMutability": "view"
    },
    {
      "type": "function",
      "name": "isTrustedForwarder",
      "inputs": [
        {
          "name": "forwarder",
          "type": "address",
          "internalType": "address"
        }
      ],
      "outputs": [
        {
          "name": "",
          "type": "bool",
          "internalType": "bool"
        }
      ],
      "stateMutability": "view"
    },
    {
      "type": "function",
      "name": "isValidTokenImplementation",
      "inputs": [
        {
          "name": "tokenImplementation_",
          "type": "address",
          "internalType": "address"
        }
      ],
      "outputs": [
        {
          "name": "",
          "type": "bool",
          "internalType": "bool"
        }
      ],
      "stateMutability": "view"
    },
    {
      "type": "function",
      "name": "predictEquityAddress",
      "inputs": [
        {
          "name": "name_",
          "type": "string",
          "internalType": "string"
        },
        {
          "name": "symbol_",
          "type": "string",
          "internalType": "string"
        },
        {
          "name": "decimals_",
          "type": "uint8",
          "internalType": "uint8"
        },
        {
          "name": "requiredClaimTopics_",
          "type": "uint256[]",
          "internalType": "uint256[]"
        },
        {
          "name": "initialModulePairs_",
          "type": "tuple[]",
          "internalType": "struct SMARTComplianceModuleParamPair[]",
          "components": [
            {
              "name": "module",
              "type": "address",
              "internalType": "address"
            },
            {
              "name": "params",
              "type": "bytes",
              "internalType": "bytes"
            }
          ]
        }
      ],
      "outputs": [
        {
          "name": "predictedAddress",
          "type": "address",
          "internalType": "address"
        }
      ],
      "stateMutability": "view"
    },
    {
      "type": "function",
      "name": "renounceRole",
      "inputs": [
        {
          "name": "role",
          "type": "bytes32",
          "internalType": "bytes32"
        },
        {
          "name": "callerConfirmation",
          "type": "address",
          "internalType": "address"
        }
      ],
      "outputs": [],
      "stateMutability": "nonpayable"
    },
    {
      "type": "function",
      "name": "revokeRole",
      "inputs": [
        {
          "name": "role",
          "type": "bytes32",
          "internalType": "bytes32"
        },
        {
          "name": "account",
          "type": "address",
          "internalType": "address"
        }
      ],
      "outputs": [],
      "stateMutability": "nonpayable"
    },
    {
      "type": "function",
      "name": "supportsInterface",
      "inputs": [
        {
          "name": "interfaceId",
          "type": "bytes4",
          "internalType": "bytes4"
        }
      ],
      "outputs": [
        {
          "name": "",
          "type": "bool",
          "internalType": "bool"
        }
      ],
      "stateMutability": "view"
    },
    {
      "type": "function",
      "name": "tokenImplementation",
      "inputs": [],
      "outputs": [
        {
          "name": "",
          "type": "address",
          "internalType": "address"
        }
      ],
      "stateMutability": "view"
    },
    {
      "type": "function",
      "name": "trustedForwarder",
      "inputs": [],
      "outputs": [
        {
          "name": "",
          "type": "address",
          "internalType": "address"
        }
      ],
      "stateMutability": "view"
    },
    {
      "type": "function",
      "name": "typeId",
      "inputs": [],
      "outputs": [
        {
          "name": "",
          "type": "bytes32",
          "internalType": "bytes32"
        }
      ],
      "stateMutability": "view"
    },
    {
      "type": "function",
      "name": "updateTokenImplementation",
      "inputs": [
        {
          "name": "newImplementation",
          "type": "address",
          "internalType": "address"
        }
      ],
      "outputs": [],
      "stateMutability": "nonpayable"
    },
    {
      "type": "event",
      "name": "Initialized",
      "inputs": [
        {
          "name": "version",
          "type": "uint64",
          "indexed": false,
          "internalType": "uint64"
        }
      ],
      "anonymous": false
    },
    {
      "type": "event",
      "name": "RoleAdminChanged",
      "inputs": [
        {
          "name": "role",
          "type": "bytes32",
          "indexed": true,
          "internalType": "bytes32"
        },
        {
          "name": "previousAdminRole",
          "type": "bytes32",
          "indexed": true,
          "internalType": "bytes32"
        },
        {
          "name": "newAdminRole",
          "type": "bytes32",
          "indexed": true,
          "internalType": "bytes32"
        }
      ],
      "anonymous": false
    },
    {
      "type": "event",
      "name": "RoleGranted",
      "inputs": [
        {
          "name": "role",
          "type": "bytes32",
          "indexed": true,
          "internalType": "bytes32"
        },
        {
          "name": "account",
          "type": "address",
          "indexed": true,
          "internalType": "address"
        },
        {
          "name": "sender",
          "type": "address",
          "indexed": true,
          "internalType": "address"
        }
      ],
      "anonymous": false
    },
    {
      "type": "event",
      "name": "RoleRevoked",
      "inputs": [
        {
          "name": "role",
          "type": "bytes32",
          "indexed": true,
          "internalType": "bytes32"
        },
        {
          "name": "account",
          "type": "address",
          "indexed": true,
          "internalType": "address"
        },
        {
          "name": "sender",
          "type": "address",
          "indexed": true,
          "internalType": "address"
        }
      ],
      "anonymous": false
    },
    {
      "type": "event",
      "name": "TokenAssetCreated",
      "inputs": [
        {
          "name": "sender",
          "type": "address",
          "indexed": true,
          "internalType": "address"
        },
        {
          "name": "tokenAddress",
          "type": "address",
          "indexed": true,
          "internalType": "address"
        },
        {
          "name": "tokenIdentity",
          "type": "address",
          "indexed": true,
          "internalType": "address"
        },
        {
          "name": "interfaces",
          "type": "bytes4[]",
          "indexed": false,
          "internalType": "bytes4[]"
        },
        {
          "name": "accessManager",
          "type": "address",
          "indexed": false,
          "internalType": "address"
        }
      ],
      "anonymous": false
    },
    {
      "type": "event",
      "name": "TokenImplementationUpdated",
      "inputs": [
        {
          "name": "sender",
          "type": "address",
          "indexed": true,
          "internalType": "address"
        },
        {
          "name": "oldImplementation",
          "type": "address",
          "indexed": true,
          "internalType": "address"
        },
        {
          "name": "newImplementation",
          "type": "address",
          "indexed": true,
          "internalType": "address"
        }
      ],
      "anonymous": false
    },
    {
      "type": "error",
      "name": "AccessControlBadConfirmation",
      "inputs": []
    },
    {
      "type": "error",
      "name": "AccessControlUnauthorizedAccount",
      "inputs": [
        {
          "name": "account",
          "type": "address",
          "internalType": "address"
        },
        {
          "name": "neededRole",
          "type": "bytes32",
          "internalType": "bytes32"
        }
      ]
    },
    {
      "type": "error",
      "name": "AccessManagerAlreadyDeployed",
      "inputs": [
        {
          "name": "predictedAddress",
          "type": "address",
          "internalType": "address"
        }
      ]
    },
    {
      "type": "error",
      "name": "AddressAlreadyDeployed",
      "inputs": [
        {
          "name": "predictedAddress",
          "type": "address",
          "internalType": "address"
        }
      ]
    },
    {
      "type": "error",
      "name": "Create2EmptyBytecode",
      "inputs": []
    },
    {
      "type": "error",
      "name": "FailedDeployment",
      "inputs": []
    },
    {
      "type": "error",
      "name": "InsufficientBalance",
      "inputs": [
        {
          "name": "balance",
          "type": "uint256",
          "internalType": "uint256"
        },
        {
          "name": "needed",
          "type": "uint256",
          "internalType": "uint256"
        }
      ]
    },
    {
      "type": "error",
      "name": "InvalidIdentityVerificationModuleAddress",
      "inputs": []
    },
    {
      "type": "error",
      "name": "InvalidImplementationAddress",
      "inputs": []
    },
    {
      "type": "error",
      "name": "InvalidInitialization",
      "inputs": []
    },
    {
      "type": "error",
      "name": "InvalidTokenAddress",
      "inputs": []
    },
    {
      "type": "error",
      "name": "NotInitializing",
      "inputs": []
    },
    {
      "type": "error",
      "name": "ProxyCreationFailed",
      "inputs": []
    },
    {
      "type": "error",
      "name": "TokenIdentityAddressMismatch",
      "inputs": [
        {
          "name": "deployedTokenIdentityAddress",
          "type": "address",
          "internalType": "address"
        },
        {
          "name": "tokenIdentityAddress",
          "type": "address",
          "internalType": "address"
        }
      ]
    }
  ],
  "bytecode": {
    "object": "0x60a03461011057601f61289238819003918201601f19168301916001600160401b038311848410176101145780849260209460405283398101031261011057516001600160a01b0381168103610110576080525f5160206128725f395f51905f525460ff8160401c16610101576002600160401b03196001600160401b038216016100ab575b60405161274990816101298239608051818181610b5501528181610ba4015261194b0152f35b6001600160401b0319166001600160401b039081175f5160206128725f395f51905f52556040519081527fc7f505b2f371ae2175ee4913f4499e1f2633a7b5936321eed1cdaeb6115181d290602090a15f610085565b63f92ee8a960e01b5f5260045ffd5b5f80fd5b634e487b7160e01b5f52604160045260245ffdfe6080806040526004361015610012575f80fd5b5f3560e01c90816301ffc9a714610d1a5750806320ff43ad14610cdd578063248a9ca314610c9e5780632f2ff15d14610c545780632f3a3d5d14610c2c57806336568abe14610bd8578063572b6c0514610b845780637da0a87714610b405780638f940f6314610b0657806391d1485414610ab1578063995087de14610a30578063a217fddf14610a16578063a4b7914e146109da578063aea7500714610926578063d20dd34914610849578063d547741f146107f8578063f6a68fe3146103c35763f8c8765e146100e2575f80fd5b346103bf5760803660031901126103bf576100fb610da1565b610103610db7565b6044356001600160a01b03811692908381036103bf576064356001600160a01b03811693908490036103bf575f51602061271d5f395f51905f52549460ff8660401c16159567ffffffffffffffff8116801590816103b7575b60011490816103ad575b1590816103a4575b506103955767ffffffffffffffff1981166001175f51602061271d5f395f51905f525586610369575b501561035a576001600160a01b031690811580610303575b6102f45783158015610281575b61027257806101cd6101d39261126a565b5061132c565b506001600160601b0360a01b600354161760035560018060a01b03166001600160601b0360a01b60025416176002556001600160601b0360a01b600454161760045561021b57005b68ff0000000000000000195f51602061271d5f395f51905f5254165f51602061271d5f395f51905f52557fc7f505b2f371ae2175ee4913f4499e1f2633a7b5936321eed1cdaeb6115181d2602060405160018152a1005b635bedad7f60e01b5f5260045ffd5b506040516301ffc9a760e01b8152638c30a94360e01b6004820152602081602481885afa9081156102e9575f916102ba575b50156101bc565b6102dc915060203d6020116102e2575b6102d48183610dfd565b81019061105b565b5f6102b3565b503d6102ca565b6040513d5f823e3d90fd5b63325c055b60e21b5f5260045ffd5b506040516301ffc9a760e01b8152630d67380360e31b6004820152602081602481865afa9081156102e9575f9161033b575b506101af565b610354915060203d6020116102e2576102d48183610dfd565b5f610335565b630f58058360e11b5f5260045ffd5b68ffffffffffffffffff191668010000000000000001175f51602061271d5f395f51905f52555f610197565b63f92ee8a960e01b5f5260045ffd5b9050155f61016e565b303b159150610166565b88915061015c565b5f80fd5b346103bf576103d136610e9b565b9190926103df828287611563565b936103e8611180565b6103f96103f3611948565b866119a1565b96906001600160a01b0361040c886115ae565b1697885f52600160205260ff60405f2054166107e5576001600160a01b03916104359190611aac565b169687036107c357610498876104e8956104756104a695835f52600160205260405f20600160ff1982541617905561046f84848a896115f0565b99611724565b61047d611868565b90896104876118c8565b93604051998a983060208b01611097565b03601f198101835282610dfd565b6104e261079a94604051956104be6020820188610dfd565b808752611af760208801396104d1611180565b6002546001600160a01b0316611a79565b93611908565b805160208201206001600160a01b039061050490309086611a50565b1692835f525f60205260ff60405f2054166107d2579061052391611aac565b6001600160a01b0381169283036107c3575f8381526020818152604091829020805460ff1916600117905560025491516372f861a960e11b81529291839060049082906001600160a01b03165afa9182156102e9576105bf9260209287925f926107a4575b506040516355c759ed60e01b81526001600160a01b03918216600482015292166024830152909283919082905f9082906044820190565b03926001600160a01b03165af19081156102e9575f91610775575b506105e3611948565b93604051916303faa45560e31b83525f83600481885afa9283156102e9575f936106d0575b506040805181815284519181018290526001600160a01b0390921696879487946060850194939091602001905f5b8181106106aa5750505060208301526001600160a01b0316917f32100191aac720b586d5e0c2e7856cb5cec1e145c75639b03f4b0d4d17d05435919081900390a46001600160a01b03169182810361069357602082604051908152f35b9050631a13f74960e11b5f5260045260245260445ffd5b82516001600160e01b03191687528b98508a975060209687019690920191600101610636565b9092503d805f833e6106e28183610dfd565b8101906020818303126103bf5780519067ffffffffffffffff82116103bf57019080601f830112156103bf5781519061071a82610e83565b926107286040519485610dfd565b82845260208085019360051b8201019182116103bf57602001915b818310610754575050509186610608565b82516001600160e01b0319811681036103bf57815260209283019201610743565b610797915060203d60201161079d575b61078f8183610dfd565b8101906115d1565b846105da565b503d610785565b6107bc919250843d861161079d5761078f8183610dfd565b9088610588565b6335279f5d60e21b5f5260045ffd5b8363d0dc594960e01b5f5260045260245ffd5b88631372e33d60e01b5f5260045260245ffd5b346103bf5760403660031901126103bf57610847600435610817610db7565b9061084261083d825f525f5160206126fd5f395f51905f52602052600160405f20015490565b61120e565b6114ba565b005b346103bf5760203660031901126103bf57610862610da1565b61086a611948565b6001600160a01b0381165f9081527fb7db2dd08fcb62d0c9e08c51941cae53c267786a0b75803fb7960902fc8ef97d602052604090205460ff161561090857506001600160a01b031680156102f457600380546001600160a01b0319811683179091556001600160a01b03908116906108e1611948565b167fe1f3806f643d2e258028ad292fef274cc5cd62ffcd3e4cb5052e0fe2f518317d5f80a4005b63e2517d3f60e01b5f5260018060a01b03166004525f60245260445ffd5b346103bf5760206109c86109836109bb61049861094236610e9b565b9693929491610952818786611563565b9761097261095f8a6115ae565b9361096c85858b8a6115f0565b92611724565b61097a611868565b916104876118c8565b6109b561079a936040519461099a88820187610dfd565b808652611af7888701396002546001600160a01b0316611a79565b92611908565b8051908401203091611a50565b6040516001600160a01b039091168152f35b346103bf5760203660031901126103bf576001600160a01b036109fb610da1565b165f525f602052602060ff60405f2054166040519015158152f35b346103bf575f3660031901126103bf5760206040515f8152f35b346103bf5760203660031901126103bf57602460206001600160a01b03610a55610da1565b6040516301ffc9a760e01b81526329a50b7560e21b600482015293849290918391165afa80156102e9576020915f91610a94575b506040519015158152f35b610aab9150823d84116102e2576102d48183610dfd565b82610a89565b346103bf5760403660031901126103bf57610aca610db7565b6004355f525f5160206126fd5f395f51905f5260205260405f209060018060a01b03165f52602052602060ff60405f2054166040519015158152f35b346103bf575f3660031901126103bf5760206040517f269d82833a73476edd3eb6aa149afedba412aafd0f61a29941e934f38ee99f508152f35b346103bf575f3660031901126103bf576040517f00000000000000000000000000000000000000000000000000000000000000006001600160a01b03168152602090f35b346103bf5760203660031901126103bf576020610b9f610da1565b6040517f00000000000000000000000000000000000000000000000000000000000000006001600160a01b039081169216919091148152f35b346103bf5760403660031901126103bf57610bf1610db7565b6001600160a01b03610c01611948565b166001600160a01b03821603610c1d57610847906004356114ba565b63334bd91960e11b5f5260045ffd5b346103bf575f3660031901126103bf576003546040516001600160a01b039091168152602090f35b346103bf5760403660031901126103bf57610847600435610c73610db7565b90610c9961083d825f525f5160206126fd5f395f51905f52602052600160405f20015490565b611409565b346103bf5760203660031901126103bf576020610cd56004355f525f5160206126fd5f395f51905f52602052600160405f20015490565b604051908152f35b346103bf5760203660031901126103bf576001600160a01b03610cfe610da1565b165f526001602052602060ff60405f2054166040519015158152f35b346103bf5760203660031901126103bf576004359063ffffffff60e01b82168092036103bf5760209163160077f960e21b8114908115610d5c575b5015158152f35b634ea2ccdd60e01b811491508115610d76575b5083610d55565b637965db0b60e01b811491508115610d90575b5083610d6f565b6301ffc9a760e01b14905083610d89565b600435906001600160a01b03821682036103bf57565b602435906001600160a01b03821682036103bf57565b6040810190811067ffffffffffffffff821117610de957604052565b634e487b7160e01b5f52604160045260245ffd5b90601f8019910116810190811067ffffffffffffffff821117610de957604052565b92919267ffffffffffffffff8211610de95760405191610e49601f8201601f191660200184610dfd565b8294818452818301116103bf578281602093845f960137010152565b9080601f830112156103bf57816020610e8093359101610e1f565b90565b67ffffffffffffffff8111610de95760051b60200190565b60a06003198201126103bf5760043567ffffffffffffffff81116103bf5781610ec691600401610e65565b9160243567ffffffffffffffff81116103bf5782610ee691600401610e65565b9160443560ff811681036103bf579160643567ffffffffffffffff81116103bf57826023820112156103bf57806004013590610f2182610e83565b91610f2f6040519384610dfd565b8083526024602084019160051b830101918583116103bf57602401905b82821061104b575050509160843567ffffffffffffffff81116103bf57816023820112156103bf57806004013590610f8382610e83565b92610f916040519485610dfd565b8284526024602085019360051b830101918183116103bf5760248101935b838510610fbe57505050505090565b843567ffffffffffffffff81116103bf57820190604082850360231901126103bf5760405191610fed83610dcd565b60248101356001600160a01b03811681036103bf578352604481013567ffffffffffffffff81116103bf5760249101019084601f830112156103bf5760209261103c8684868096359101610e1f565b83820152815201940193610faf565b8135815260209182019101610f4c565b908160209103126103bf575180151581036103bf5790565b805180835260209291819084018484015e5f828201840152601f01601f1916010190565b96989593999794926110c660ff936110d49360018060a01b03168a5261012060208b01526101208a0190611073565b9088820360408a0152611073565b981660608601526001600160a01b0316608085015283870360a085015280518088526020600582901b8901810192810191905f908a015b82821061113c57505050506001600160a01b0395861660c085015290851660e0840152931661010090910152909150565b909192936020806111726001938e601f199082030186526040838a51878060a01b03815116845201519181858201520190611073565b96019201920190929161110b565b611188611948565b6001600160a01b0381165f9081527f8f7e9a8734279607aeaac474f24949ddc99eae25c0da72edcf5ad21022be2c9e602052604090205460ff16156111ca5750565b63e2517d3f60e01b5f9081526001600160a01b03919091166004527ffc425f2263d0df187444b70e47283d622c70181c5baebb1306a01edba1ce184c602452604490fd5b611216611948565b815f525f5160206126fd5f395f51905f5260205260405f2060018060a01b0382165f5260205260ff60405f2054161561124d575050565b63e2517d3f60e01b5f5260018060a01b031660045260245260445ffd5b6001600160a01b0381165f9081527fb7db2dd08fcb62d0c9e08c51941cae53c267786a0b75803fb7960902fc8ef97d602052604090205460ff16611327576001600160a01b038181165f9081527fb7db2dd08fcb62d0c9e08c51941cae53c267786a0b75803fb7960902fc8ef97d60205260409020805460ff191660011790556112f2611948565b16906001600160a01b03165f7f2f8788117e7eff1d82e926ec794901d17c78024a50270940304540a733656f0d8180a4600190565b505f90565b6001600160a01b0381165f9081527f8f7e9a8734279607aeaac474f24949ddc99eae25c0da72edcf5ad21022be2c9e602052604090205460ff16611327576001600160a01b038181165f9081527f8f7e9a8734279607aeaac474f24949ddc99eae25c0da72edcf5ad21022be2c9e60205260409020805460ff191660011790556113b4611948565b16906001600160a01b03167ffc425f2263d0df187444b70e47283d622c70181c5baebb1306a01edba1ce184c7f2f8788117e7eff1d82e926ec794901d17c78024a50270940304540a733656f0d5f80a4600190565b5f8181525f5160206126fd5f395f51905f52602090815260408083206001600160a01b038616845290915290205460ff166114b4575f8181525f5160206126fd5f395f51905f52602090815260408083206001600160a01b0386811685529252909120805460ff1916600117905561147f611948565b16916001600160a01b0316907f2f8788117e7eff1d82e926ec794901d17c78024a50270940304540a733656f0d5f80a4600190565b50505f90565b5f8181525f5160206126fd5f395f51905f52602090815260408083206001600160a01b038616845290915290205460ff16156114b4575f8181525f5160206126fd5f395f51905f52602090815260408083206001600160a01b0386811685529252909120805460ff1916905561152e611948565b16916001600160a01b0316907ff6391f5c32d9c69d2a47ea670b442974b53935d1edc7fd64eb21e047a839171b5f80a4600190565b6115879260ff611599610e8094604051968795606060208801526080870190611073565b858103601f1901604087015290611073565b9116606083015203601f198101835282610dfd565b6115c3610e80916115bd611948565b906119a1565b602081519101203091611a50565b908160209103126103bf57516001600160a01b03811681036103bf5790565b6002546040516372f861a960e11b815293949190602090859060049082906001600160a01b03165afa9081156102e95761166d956020955f936116b5575b5061165b929360ff60405198899788968796637a3f5df760e11b8852608060048901526084880190611073565b86810360031901602488015290611073565b921660448401526001600160a01b03908116606484015291900392165afa9081156102e9575f9161169c575090565b610e80915060203d60201161079d5761078f8183610dfd565b61165b93506116d090873d891161079d5761078f8183610dfd565b9261162e565b604051906116e382610dcd565b60606020835f81520152565b8051156116fc5760200190565b634e487b7160e01b5f52603260045260245ffd5b80518210156116fc5760209160051b010190565b80516001810193929084106118205761173c84610e83565b9361174a6040519586610dfd565b808552611759601f1991610e83565b015f5b81811061185157505061176d6116d6565b5060018060a01b0360045416906040519081604081019160208083015280518093526020606083019101925f5b8181106118385750506117b6925003601f198101835282610dfd565b604051916117c383610dcd565b825260208201526117d3846116ef565b526117dd836116ef565b505f5b8151811015611834576117f38183611710565b5190600181019182821161182057826118199161181260019589611710565b5286611710565b50016117e0565b634e487b7160e01b5f52601160045260245ffd5b5050565b845183526020948501948694509092019160010161179a565b60209061185c6116d6565b8282890101520161175c565b6002546040516304d3863d60e21b815290602090829060049082906001600160a01b03165afa9081156102e9575f916118a9575b506001600160a01b031690565b6118c2915060203d60201161079d5761078f8183610dfd565b5f61189c565b600254604051636290865d60e01b815290602090829060049082906001600160a01b03165afa9081156102e9575f916118a957506001600160a01b031690565b611946906020808095946040519684889551918291018487015e8401908282015f8152815193849201905e01015f815203601f198101845283610dfd565b565b337f00000000000000000000000000000000000000000000000000000000000000006001600160a01b03161480611996575b15611992576013193601368111611820573560601c90565b3390565b50601436101561197a565b9190610e8090611a2d60018060a01b036002541694604051611a018161049860208201948a86526060604084015260116080840152701058d8d95cdcd3585b9859d95c94d85b1d607a1b60a084015260a0606084015260c0830190611073565b519020604080516001600160a01b03978816602082015293909616958301959095528160608101610498565b60405161046c611a406020820183610dfd565b8082526122916020830139611908565b91600b92604051926040840152602083015281520160ff8153605590206001600160a01b031690565b90611aa661049891604051928391602083019560018060a01b031686526040808401526060830190611073565b51902090565b90805115611ae7576020815191015ff5903d15198215166102e9576001600160a01b03821615611ad857565b63b06ebf3d60e01b5f5260045ffd5b631328927760e21b5f5260045ffdfe608060405261079a8038038091610015826100f1565b6080396101208160800191126100d95761002d61015a565b60a0516001600160401b0381116100d9578261004b916080016101d5565b60c0516001600160401b0381116100d95783610069916080016101d5565b61007360e06101f2565b61007e610100610170565b610120516001600160401b0381116100d9576100ca966100a091608001610200565b916100ac610140610170565b936100b8610160610170565b956100c4610180610170565b976103e9565b60405161014990816106318239f35b5f80fd5b634e487b7160e01b5f52604160045260245ffd5b6080601f91909101601f19168101906001600160401b0382119082101761011757604052565b6100dd565b604081019081106001600160401b0382111761011757604052565b601f909101601f19168101906001600160401b0382119082101761011757604052565b608051906001600160a01b03821682036100d957565b51906001600160a01b03821682036100d957565b6001600160401b03811161011757601f01601f191660200190565b9291926101ab82610184565b916101b96040519384610137565b8294818452818301116100d9578281602093845f96015e010152565b9080601f830112156100d95781516101ef9260200161019f565b90565b519060ff821682036100d957565b9080601f830112156100d9578151916001600160401b038311610117578260051b91604051936102336020850186610137565b8452602080850193830101918183116100d95760208101935b83851061025b57505050505090565b84516001600160401b0381116100d9578201906040828503601f1901126100d957604051916102898361011c565b61029560208201610170565b835260408101516001600160401b0381116100d95760209101019084601f830112156100d9576020926102ce868486809651910161019f565b8382015281520194019361024c565b805180835260209291819084018484015e5f828201840152601f01601f1916010190565b959897969493916103309061032260ff936101008a526101008a01906102dd565b9088820360208a01526102dd565b921660408601526001600160a01b03166060850152838103608085015281518082526020600582901b83018101938101925f918101905b8383106103a457505050506001600160a01b0396871660a085015250941660c08201526103a2919060e0906001600160a01b03909216910152565b565b90919293946020806103da600193601f198682030187526040838b51878060a01b038151168452015191818582015201906102dd565b97019301930191939290610367565b92959791969093949760018060a01b0384168015908115610492575b50610483576103a29861047e9661044b6104709660018060a01b031660018060a01b03195f51602061077a5f395f51905f525416175f51602061077a5f395f51905f5255565b610453610527565b986040519a8b986329a50b7560e21b60208b015260248a01610301565b03601f198101845283610137565b6105c3565b63fd360a1d60e01b5f5260045ffd5b6040516301ffc9a760e01b8152634ea2ccdd60e01b60048201529150602090829060249082905afa9081156104ff575f916104d0575b50155f610405565b6104f2915060203d6020116104f8575b6104ea8183610137565b810190610504565b5f6104c8565b503d6104e0565b61051c565b908160209103126100d9575180151581036100d95790565b6040513d5f823e3d90fd5b5f51602061077a5f395f51905f5254604051632f3a3d5d60e01b815290602090829060049082906001600160a01b03165afa9081156104ff575f91610589575b506001600160a01b0381161561057a5790565b63daa2f31f60e01b5f5260045ffd5b90506020813d6020116105bb575b816105a460209383610137565b810103126100d9576105b590610170565b5f610567565b3d9150610597565b6001600160a01b0381161561062157815f929160208493519201905af43d15610619573d906105f182610184565b916105ff6040519384610137565b82523d5f602084013e5b156106115750565b602081519101fd5b606090610609565b63ee0a129760e01b5f5260045ffdfe608060405236156100a8577f1515746737424785433e0dda020fe774d11e0fab6d980530d355fada133c3c705460209060809060049082906001600160a01b0316632f3a3d5d60e01b82525afa80156100a3575f90610076575b6001600160a01b03811661011f5763daa2f31f60e01b5f5260045ffd5b5060203d60201161009c575b8061008f610097926100b7565b6080016100ee565b610059565b503d610082565b610114565b635d82995b60e01b5f5260045ffd5b601f80199101166080016080811067ffffffffffffffff8211176100da57604052565b634e487b7160e01b5f52604160045260245ffd5b602090607f190112610110576080516001600160a01b03811681036101105790565b5f80fd5b6040513d5f823e3d90fd5b5f8091368280378136915af43d5f803e15610138573d5ff35b3d5ffdfea164736f6c634300081c000a1515746737424785433e0dda020fe774d11e0fab6d980530d355fada133c3c7060806040523461017457604061046c803803809161001c8261018c565b608039126101745761002c6101da565b61003660a06101f0565b906001600160a01b03811680159081156100ff575b506100f0577f6430307501c2cc3d2d4fb0a554183112a402a38cdc96135a87867e0457146f9680546001600160a01b0319166001600160a01b039290921691821790556100e1916100ce916100dc906100a390610227565b60405163189acdbd60e31b60208201526001600160a01b039093166024840152919283906044820190565b03601f1981018452836101b7565b6102b4565b60405161013b90816103318239f35b633f997a3760e01b5f5260045ffd5b6040516301ffc9a760e01b815260016223dac160e01b031960048201529150602090829060249082905afa90811561016f575f91610140575b50155f61004b565b610162915060203d602011610168575b61015a81836101b7565b810190610204565b5f610138565b503d610150565b61021c565b5f80fd5b634e487b7160e01b5f52604160045260245ffd5b6080601f91909101601f19168101906001600160401b038211908210176101b257604052565b610178565b601f909101601f19168101906001600160401b038211908210176101b257604052565b608051906001600160a01b038216820361017457565b51906001600160a01b038216820361017457565b90816020910312610174575180151581036101745790565b6040513d5f823e3d90fd5b6040516344eecc1760e01b815290602090829060049082906001600160a01b03165afa90811561016f575f9161027a575b506001600160a01b0381161561026b5790565b63099d3e0360e21b5f5260045ffd5b90506020813d6020116102ac575b81610295602093836101b7565b81010312610174576102a6906101f0565b5f610258565b3d9150610288565b6001600160a01b0381161561032157815f929160208493519201905af43d15610319573d906001600160401b0382116101b257604051916102ff601f8201601f1916602001846101b7565b82523d5f602084013e5b156103115750565b602081519101fd5b606090610309565b63ee0a129760e01b5f5260045ffdfe608060405236156100dc577f6430307501c2cc3d2d4fb0a554183112a402a38cdc96135a87867e0457146f96546344eecc1760e01b608090815260209160049082906001600160a01b03165afa80156100d1575f90610076575b6001600160a01b0381166100eb5763099d3e0360e21b5f5260045ffd5b5060203d6020116100ca575b601f19601f820116608001906080821067ffffffffffffffff8311176100b6576100b191604052608001610108565b610059565b634e487b7160e01b5f52604160045260245ffd5b503d610082565b6040513d5f823e3d90fd5b635d82995b60e01b5f5260045ffd5b5f8091368280378136915af43d5f803e15610104573d5ff35b3d5ffd5b602090607f19011261012a576080516001600160a01b038116810361012a5790565b5f80fdfea164736f6c634300081c000a02dd7bc7dec4dceedda775e58dd541e08a116c6c53815c0bd028192f7b626800f0c57e16840df040f15088dc2f81fe391c3923bec73e23a9662efc9c229c6a00a164736f6c634300081c000af0c57e16840df040f15088dc2f81fe391c3923bec73e23a9662efc9c229c6a00",
    "linkReferences": {}
  },
  "methodIdentifiers": {
    "DEFAULT_ADMIN_ROLE()": "a217fddf",
    "createEquity(string,string,uint8,uint256[],(address,bytes)[])": "f6a68fe3",
    "getRoleAdmin(bytes32)": "248a9ca3",
    "grantRole(bytes32,address)": "2f2ff15d",
    "hasRole(bytes32,address)": "91d14854",
    "initialize(address,address,address,address)": "f8c8765e",
    "isFactoryAccessManager(address)": "20ff43ad",
    "isFactoryToken(address)": "a4b7914e",
    "isTrustedForwarder(address)": "572b6c05",
    "isValidTokenImplementation(address)": "995087de",
    "predictEquityAddress(string,string,uint8,uint256[],(address,bytes)[])": "aea75007",
    "renounceRole(bytes32,address)": "36568abe",
    "revokeRole(bytes32,address)": "d547741f",
    "supportsInterface(bytes4)": "01ffc9a7",
    "tokenImplementation()": "2f3a3d5d",
    "trustedForwarder()": "7da0a877",
    "typeId()": "8f940f63",
    "updateTokenImplementation(address)": "d20dd349"
  },
  "userdoc": {
    "version": 1,
    "kind": "user",
    "methods": {
      "constructor": {
        "notice": "Constructor for the ATKEquityFactoryImplementation."
      },
      "createEquity(string,string,uint8,uint256[],(address,bytes)[])": {
        "notice": "Creates a new ATK Equity token."
      },
      "initialize(address,address,address,address)": {
        "notice": "Initializes the token registry."
      },
      "isFactoryAccessManager(address)": {
        "notice": "Mapping indicating whether an access manager address was deployed by this factory."
      },
      "isFactoryToken(address)": {
        "notice": "Mapping indicating whether a token address was deployed by this factory."
      },
      "isValidTokenImplementation(address)": {
        "notice": "Checks if a given address implements the ISMARTEquity interface."
      },
      "predictEquityAddress(string,string,uint8,uint256[],(address,bytes)[])": {
        "notice": "Predicts the deployment address of a ATKEquityProxy contract."
      },
      "tokenImplementation()": {
        "notice": "Returns the address of the token implementation contract."
      },
      "typeId()": {
        "notice": "Returns a unique identifier for the type of this contract."
      },
      "updateTokenImplementation(address)": {
        "notice": "Updates the address of the token implementation contract."
      }
    },
    "events": {
      "TokenAssetCreated(address,address,address,bytes4[],address)": {
        "notice": "Emitted when a new proxy contract is created using CREATE2."
      },
      "TokenImplementationUpdated(address,address,address)": {
        "notice": "Emitted when the token implementation address is updated."
      }
    },
    "errors": {
      "AccessManagerAlreadyDeployed(address)": [
        {
          "notice": "Error when a predicted CREATE2 address for an access manager is already marked as deployed by this factory."
        }
      ],
      "AddressAlreadyDeployed(address)": [
        {
          "notice": "Error when a CREATE2 proxy deployment fails."
        }
      ],
      "InvalidIdentityVerificationModuleAddress()": [
        {
          "notice": "Error when the provided identity verification module address is the zero address."
        }
      ],
      "InvalidImplementationAddress()": [
        {
          "notice": "Error for attempting to unregister a token that is not registered."
        }
      ],
      "InvalidTokenAddress()": [
        {
          "notice": "Custom errors for the factory contract"
        }
      ],
      "ProxyCreationFailed()": [
        {
          "notice": "Error for when the provided token implementation address is the zero address."
        }
      ],
      "TokenIdentityAddressMismatch(address,address)": [
        {
          "notice": "Error when a token identity address mismatch is detected."
        }
      ]
    },
    "notice": "This contract is responsible for creating instances of ATK Equity tokens."
  },
  "devdoc": {
    "version": 1,
    "kind": "dev",
    "methods": {
      "constructor": {
        "params": {
          "forwarder": "The address of the trusted forwarder for meta-transactions."
        }
      },
      "createEquity(string,string,uint8,uint256[],(address,bytes)[])": {
        "params": {
          "decimals_": "The number of decimals for the equity token.",
          "initialModulePairs_": "An array of initial compliance module and parameter pairs.",
          "name_": "The name of the equity token.",
          "requiredClaimTopics_": "An array of claim topics required for interacting with the equity token.",
          "symbol_": "The symbol of the equity token."
        },
        "returns": {
          "deployedEquityAddress": "The address of the newly deployed equity token contract."
        }
      },
      "getRoleAdmin(bytes32)": {
        "details": "Returns the admin role that controls `role`. See {grantRole} and {revokeRole}. To change a role's admin, use {_setRoleAdmin}."
      },
      "grantRole(bytes32,address)": {
        "details": "Grants `role` to `account`. If `account` had not been already granted `role`, emits a {RoleGranted} event. Requirements: - the caller must have ``role``'s admin role. May emit a {RoleGranted} event."
      },
      "hasRole(bytes32,address)": {
        "details": "Returns `true` if `account` has been granted `role`."
      },
      "initialize(address,address,address,address)": {
        "params": {
          "identityVerificationModule": "The address of the identity verification module.",
          "initialAdmin": "The address to be granted the DEFAULT_ADMIN_ROLE and DEPLOYER_ROLE.",
          "systemAddress": "The address of the `IATKSystem` contract.",
          "tokenImplementation_": "The initial address of the token implementation contract."
        }
      },
      "isTrustedForwarder(address)": {
        "details": "Indicates whether any particular address is the trusted forwarder."
      },
      "isValidTokenImplementation(address)": {
        "params": {
          "tokenImplementation_": "The address of the contract to check."
        },
        "returns": {
          "_0": "bool True if the contract supports the ISMARTEquity interface, false otherwise."
        }
      },
      "predictEquityAddress(string,string,uint8,uint256[],(address,bytes)[])": {
        "params": {
          "decimals_": "The decimals of the equity.",
          "initialModulePairs_": "The initial compliance module pairs for the equity.",
          "name_": "The name of the equity.",
          "requiredClaimTopics_": "The required claim topics for the equity.",
          "symbol_": "The symbol of the equity."
        },
        "returns": {
          "predictedAddress": "The predicted address of the equity contract."
        }
      },
      "renounceRole(bytes32,address)": {
        "details": "Revokes `role` from the calling account. Roles are often managed via {grantRole} and {revokeRole}: this function's purpose is to provide a mechanism for accounts to lose their privileges if they are compromised (such as when a trusted device is misplaced). If the calling account had been revoked `role`, emits a {RoleRevoked} event. Requirements: - the caller must be `callerConfirmation`. May emit a {RoleRevoked} event."
      },
      "revokeRole(bytes32,address)": {
        "details": "Revokes `role` from `account`. If `account` had been granted `role`, emits a {RoleRevoked} event. Requirements: - the caller must have ``role``'s admin role. May emit a {RoleRevoked} event."
      },
      "tokenImplementation()": {
        "returns": {
          "_0": "tokenImplementation The address of the token implementation contract."
        }
      },
      "trustedForwarder()": {
        "details": "Returns the address of the trusted forwarder."
      },
      "updateTokenImplementation(address)": {
        "details": "This function can only be called by an account with the DEFAULT_ADMIN_ROLE.      It allows changing the underlying contract that handles token logic.      Emits a {TokenImplementationUpdated} event on success.",
        "params": {
          "newImplementation": "The new address for the token implementation contract. Cannot be the zero address."
        }
      }
    },
    "events": {
      "Initialized(uint64)": {
        "details": "Triggered when the contract has been initialized or reinitialized."
      },
      "RoleAdminChanged(bytes32,bytes32,bytes32)": {
        "details": "Emitted when `newAdminRole` is set as ``role``'s admin role, replacing `previousAdminRole` `DEFAULT_ADMIN_ROLE` is the starting admin for all roles, despite {RoleAdminChanged} not being emitted to signal this."
      },
      "RoleGranted(bytes32,address,address)": {
        "details": "Emitted when `account` is granted `role`. `sender` is the account that originated the contract call. This account bears the admin role (for the granted role). Expected in cases where the role was granted using the internal {AccessControl-_grantRole}."
      },
      "RoleRevoked(bytes32,address,address)": {
        "details": "Emitted when `account` is revoked `role`. `sender` is the account that originated the contract call:   - if using `revokeRole`, it is the admin role bearer   - if using `renounceRole`, it is the role bearer (i.e. `account`)"
      },
      "TokenAssetCreated(address,address,address,bytes4[],address)": {
        "params": {
          "accessManager": "The address of the access manager.",
          "interfaces": "The array of interfaces that the token supports.",
          "sender": "The address of the sender.",
          "tokenAddress": "The address of the newly created token.",
          "tokenIdentity": "The address of the token identity."
        }
      },
      "TokenImplementationUpdated(address,address,address)": {
        "params": {
          "newImplementation": "The address of the new token implementation.",
          "oldImplementation": "The address of the old token implementation."
        }
      }
    },
    "errors": {
      "AccessControlBadConfirmation()": [
        {
          "details": "The caller of a function is not the expected one. NOTE: Don't confuse with {AccessControlUnauthorizedAccount}."
        }
      ],
      "AccessControlUnauthorizedAccount(address,bytes32)": [
        {
          "details": "The `account` is missing a role."
        }
      ],
      "Create2EmptyBytecode()": [
        {
          "details": "There's no code to deploy."
        }
      ],
      "FailedDeployment()": [
        {
          "details": "The deployment failed."
        }
      ],
      "InsufficientBalance(uint256,uint256)": [
        {
          "details": "The ETH balance of the account is not enough to perform the operation."
        }
      ],
      "InvalidInitialization()": [
        {
          "details": "The contract is already initialized."
        }
      ],
      "InvalidTokenAddress()": [
        {
          "details": "Defines custom error types used by the contract for various failure conditions."
        }
      ],
      "NotInitializing()": [
        {
          "details": "The contract is not initializing."
        }
      ]
    },
    "title": "Implementation of the ATK Equity Factory"
  },
  "id": 46
}