{
  "abi": [
    {
      "type": "constructor",
      "inputs": [
        {
          "name": "trustedForwarder",
          "type": "address",
          "internalType": "address"
        }
      ],
      "stateMutability": "nonpayable"
    },
    {
      "type": "function",
      "name": "DEFAULT_ADMIN_ROLE",
      "inputs": [],
      "outputs": [
        {
          "name": "",
          "type": "bytes32",
          "internalType": "bytes32"
        }
      ],
      "stateMutability": "view"
    },
    {
      "type": "function",
      "name": "TOKEN_METADATA_SALT_PREFIX",
      "inputs": [],
      "outputs": [
        {
          "name": "",
          "type": "string",
          "internalType": "string"
        }
      ],
      "stateMutability": "view"
    },
    {
      "type": "function",
      "name": "TOKEN_SALT_PREFIX",
      "inputs": [],
      "outputs": [
        {
          "name": "",
          "type": "string",
          "internalType": "string"
        }
      ],
      "stateMutability": "view"
    },
    {
      "type": "function",
      "name": "WALLET_SALT_PREFIX",
      "inputs": [],
      "outputs": [
        {
          "name": "",
          "type": "string",
          "internalType": "string"
        }
      ],
      "stateMutability": "view"
    },
    {
      "type": "function",
      "name": "calculateTokenIdentityAddress",
      "inputs": [
        {
          "name": "_name",
          "type": "string",
          "internalType": "string"
        },
        {
          "name": "_symbol",
          "type": "string",
          "internalType": "string"
        },
        {
          "name": "_decimals",
          "type": "uint8",
          "internalType": "uint8"
        },
        {
          "name": "_initialManager",
          "type": "address",
          "internalType": "address"
        }
      ],
      "outputs": [
        {
          "name": "",
          "type": "address",
          "internalType": "address"
        }
      ],
      "stateMutability": "view"
    },
    {
      "type": "function",
      "name": "calculateWalletIdentityAddress",
      "inputs": [
        {
          "name": "_walletAddress",
          "type": "address",
          "internalType": "address"
        },
        {
          "name": "_initialManager",
          "type": "address",
          "internalType": "address"
        }
      ],
      "outputs": [
        {
          "name": "",
          "type": "address",
          "internalType": "address"
        }
      ],
      "stateMutability": "view"
    },
    {
      "type": "function",
      "name": "createIdentity",
      "inputs": [
        {
          "name": "_wallet",
          "type": "address",
          "internalType": "address"
        },
        {
          "name": "_managementKeys",
          "type": "bytes32[]",
          "internalType": "bytes32[]"
        }
      ],
      "outputs": [
        {
          "name": "",
          "type": "address",
          "internalType": "address"
        }
      ],
      "stateMutability": "nonpayable"
    },
    {
      "type": "function",
      "name": "createTokenIdentity",
      "inputs": [
        {
          "name": "_token",
          "type": "address",
          "internalType": "address"
        },
        {
          "name": "_accessManager",
          "type": "address",
          "internalType": "address"
        }
      ],
      "outputs": [
        {
          "name": "",
          "type": "address",
          "internalType": "address"
        }
      ],
      "stateMutability": "nonpayable"
    },
    {
      "type": "function",
      "name": "getIdentity",
      "inputs": [
        {
          "name": "_wallet",
          "type": "address",
          "internalType": "address"
        }
      ],
      "outputs": [
        {
          "name": "",
          "type": "address",
          "internalType": "address"
        }
      ],
      "stateMutability": "view"
    },
    {
      "type": "function",
      "name": "getRoleAdmin",
      "inputs": [
        {
          "name": "role",
          "type": "bytes32",
          "internalType": "bytes32"
        }
      ],
      "outputs": [
        {
          "name": "",
          "type": "bytes32",
          "internalType": "bytes32"
        }
      ],
      "stateMutability": "view"
    },
    {
      "type": "function",
      "name": "getSystem",
      "inputs": [],
      "outputs": [
        {
          "name": "",
          "type": "address",
          "internalType": "address"
        }
      ],
      "stateMutability": "view"
    },
    {
      "type": "function",
      "name": "getTokenIdentity",
      "inputs": [
        {
          "name": "_token",
          "type": "address",
          "internalType": "address"
        }
      ],
      "outputs": [
        {
          "name": "",
          "type": "address",
          "internalType": "address"
        }
      ],
      "stateMutability": "view"
    },
    {
      "type": "function",
      "name": "grantRole",
      "inputs": [
        {
          "name": "role",
          "type": "bytes32",
          "internalType": "bytes32"
        },
        {
          "name": "account",
          "type": "address",
          "internalType": "address"
        }
      ],
      "outputs": [],
      "stateMutability": "nonpayable"
    },
    {
      "type": "function",
      "name": "hasRole",
      "inputs": [
        {
          "name": "role",
          "type": "bytes32",
          "internalType": "bytes32"
        },
        {
          "name": "account",
          "type": "address",
          "internalType": "address"
        }
      ],
      "outputs": [
        {
          "name": "",
          "type": "bool",
          "internalType": "bool"
        }
      ],
      "stateMutability": "view"
    },
    {
      "type": "function",
      "name": "initialize",
      "inputs": [
        {
          "name": "systemAddress",
          "type": "address",
          "internalType": "address"
        },
        {
          "name": "initialAdmin",
          "type": "address",
          "internalType": "address"
        },
        {
          "name": "initialIdentityIssuerAdmins",
          "type": "address[]",
          "internalType": "address[]"
        },
        {
          "name": "initialTokenIdentityIssuerAdmins",
          "type": "address[]",
          "internalType": "address[]"
        }
      ],
      "outputs": [],
      "stateMutability": "nonpayable"
    },
    {
      "type": "function",
      "name": "isTrustedForwarder",
      "inputs": [
        {
          "name": "forwarder",
          "type": "address",
          "internalType": "address"
        }
      ],
      "outputs": [
        {
          "name": "",
          "type": "bool",
          "internalType": "bool"
        }
      ],
      "stateMutability": "view"
    },
    {
      "type": "function",
      "name": "renounceRole",
      "inputs": [
        {
          "name": "role",
          "type": "bytes32",
          "internalType": "bytes32"
        },
        {
          "name": "callerConfirmation",
          "type": "address",
          "internalType": "address"
        }
      ],
      "outputs": [],
      "stateMutability": "nonpayable"
    },
    {
      "type": "function",
      "name": "revokeRole",
      "inputs": [
        {
          "name": "role",
          "type": "bytes32",
          "internalType": "bytes32"
        },
        {
          "name": "account",
          "type": "address",
          "internalType": "address"
        }
      ],
      "outputs": [],
      "stateMutability": "nonpayable"
    },
    {
      "type": "function",
      "name": "supportsInterface",
      "inputs": [
        {
          "name": "interfaceId",
          "type": "bytes4",
          "internalType": "bytes4"
        }
      ],
      "outputs": [
        {
          "name": "",
          "type": "bool",
          "internalType": "bool"
        }
      ],
      "stateMutability": "view"
    },
    {
      "type": "function",
      "name": "trustedForwarder",
      "inputs": [],
      "outputs": [
        {
          "name": "",
          "type": "address",
          "internalType": "address"
        }
      ],
      "stateMutability": "view"
    },
    {
      "type": "event",
      "name": "IdentityCreated",
      "inputs": [
        {
          "name": "sender",
          "type": "address",
          "indexed": true,
          "internalType": "address"
        },
        {
          "name": "identity",
          "type": "address",
          "indexed": true,
          "internalType": "address"
        },
        {
          "name": "wallet",
          "type": "address",
          "indexed": true,
          "internalType": "address"
        }
      ],
      "anonymous": false
    },
    {
      "type": "event",
      "name": "Initialized",
      "inputs": [
        {
          "name": "version",
          "type": "uint64",
          "indexed": false,
          "internalType": "uint64"
        }
      ],
      "anonymous": false
    },
    {
      "type": "event",
      "name": "RoleAdminChanged",
      "inputs": [
        {
          "name": "role",
          "type": "bytes32",
          "indexed": true,
          "internalType": "bytes32"
        },
        {
          "name": "previousAdminRole",
          "type": "bytes32",
          "indexed": true,
          "internalType": "bytes32"
        },
        {
          "name": "newAdminRole",
          "type": "bytes32",
          "indexed": true,
          "internalType": "bytes32"
        }
      ],
      "anonymous": false
    },
    {
      "type": "event",
      "name": "RoleGranted",
      "inputs": [
        {
          "name": "role",
          "type": "bytes32",
          "indexed": true,
          "internalType": "bytes32"
        },
        {
          "name": "account",
          "type": "address",
          "indexed": true,
          "internalType": "address"
        },
        {
          "name": "sender",
          "type": "address",
          "indexed": true,
          "internalType": "address"
        }
      ],
      "anonymous": false
    },
    {
      "type": "event",
      "name": "RoleRevoked",
      "inputs": [
        {
          "name": "role",
          "type": "bytes32",
          "indexed": true,
          "internalType": "bytes32"
        },
        {
          "name": "account",
          "type": "address",
          "indexed": true,
          "internalType": "address"
        },
        {
          "name": "sender",
          "type": "address",
          "indexed": true,
          "internalType": "address"
        }
      ],
      "anonymous": false
    },
    {
      "type": "event",
      "name": "TokenIdentityCreated",
      "inputs": [
        {
          "name": "sender",
          "type": "address",
          "indexed": true,
          "internalType": "address"
        },
        {
          "name": "identity",
          "type": "address",
          "indexed": true,
          "internalType": "address"
        },
        {
          "name": "token",
          "type": "address",
          "indexed": true,
          "internalType": "address"
        }
      ],
      "anonymous": false
    },
    {
      "type": "event",
      "name": "TokenRegistrarRoleGranted",
      "inputs": [
        {
          "name": "account",
          "type": "address",
          "indexed": true,
          "internalType": "address"
        },
        {
          "name": "sender",
          "type": "address",
          "indexed": true,
          "internalType": "address"
        }
      ],
      "anonymous": false
    },
    {
      "type": "event",
      "name": "TokenRegistrarRoleRevoked",
      "inputs": [
        {
          "name": "account",
          "type": "address",
          "indexed": true,
          "internalType": "address"
        },
        {
          "name": "sender",
          "type": "address",
          "indexed": true,
          "internalType": "address"
        }
      ],
      "anonymous": false
    },
    {
      "type": "error",
      "name": "AccessControlBadConfirmation",
      "inputs": []
    },
    {
      "type": "error",
      "name": "AccessControlUnauthorizedAccount",
      "inputs": [
        {
          "name": "account",
          "type": "address",
          "internalType": "address"
        },
        {
          "name": "neededRole",
          "type": "bytes32",
          "internalType": "bytes32"
        }
      ]
    },
    {
      "type": "error",
      "name": "Create2EmptyBytecode",
      "inputs": []
    },
    {
      "type": "error",
      "name": "DeploymentAddressMismatch",
      "inputs": []
    },
    {
      "type": "error",
      "name": "FailedDeployment",
      "inputs": []
    },
    {
      "type": "error",
      "name": "InsufficientBalance",
      "inputs": [
        {
          "name": "balance",
          "type": "uint256",
          "internalType": "uint256"
        },
        {
          "name": "needed",
          "type": "uint256",
          "internalType": "uint256"
        }
      ]
    },
    {
      "type": "error",
      "name": "InvalidIdentityImplementation",
      "inputs": []
    },
    {
      "type": "error",
      "name": "InvalidInitialization",
      "inputs": []
    },
    {
      "type": "error",
      "name": "InvalidSystemAddress",
      "inputs": []
    },
    {
      "type": "error",
      "name": "InvalidTokenIdentityImplementation",
      "inputs": []
    },
    {
      "type": "error",
      "name": "NotInitializing",
      "inputs": []
    },
    {
      "type": "error",
      "name": "SaltAlreadyTaken",
      "inputs": [
        {
          "name": "salt",
          "type": "string",
          "internalType": "string"
        }
      ]
    },
    {
      "type": "error",
      "name": "StringsInsufficientHexLength",
      "inputs": [
        {
          "name": "value",
          "type": "uint256",
          "internalType": "uint256"
        },
        {
          "name": "length",
          "type": "uint256",
          "internalType": "uint256"
        }
      ]
    },
    {
      "type": "error",
      "name": "TokenAlreadyLinked",
      "inputs": [
        {
          "name": "token",
          "type": "address",
          "internalType": "address"
        }
      ]
    },
    {
      "type": "error",
      "name": "WalletAlreadyLinked",
      "inputs": [
        {
          "name": "wallet",
          "type": "address",
          "internalType": "address"
        }
      ]
    },
    {
      "type": "error",
      "name": "WalletInManagementKeys",
      "inputs": []
    },
    {
      "type": "error",
      "name": "ZeroAddressNotAllowed",
      "inputs": []
    }
  ],
  "bytecode": {
    "object": "0x60a03461011057601f61294338819003918201601f19168301916001600160401b038311848410176101145780849260209460405283398101031261011057516001600160a01b0381168103610110576080525f5160206129235f395f51905f525460ff8160401c16610101576002600160401b03196001600160401b038216016100ab575b6040516127fa908161012982396080518181816106d201528181610c520152611c1c0152f35b6001600160401b0319166001600160401b039081175f5160206129235f395f51905f52556040519081527fc7f505b2f371ae2175ee4913f4499e1f2633a7b5936321eed1cdaeb6115181d290602090a15f610085565b63f92ee8a960e01b5f5260045ffd5b5f80fd5b634e487b7160e01b5f52604160045260245ffdfe6080806040526004361015610012575f80fd5b5f3560e01c90816301ffc9a71461105257508063248a9ca3146110135780632f2ff15d14610fc95780632fea7b8114610f8957806336568abe14610f3557806355c759ed14610c86578063572b6c0514610c325780636d752616146107015780637da0a877146106bd57806391d14854146106685780639df2a6941461064d578063a217fddf14610633578063a4e4fa9814610604578063ad0ca906146105dd578063ad70bdd7146105a5578063c6c7fb5614610565578063c9828cd51461051a578063d547741f146104c9578063e6aa44e2146101b85763f47ebbee146100f8575f80fd5b346101b45760803660031901126101b45760043567ffffffffffffffff81116101b457610129903690600401611220565b9060243567ffffffffffffffff81116101b45761014a903690600401611220565b929060443560ff811681036101b457606435926001600160a01b03841684036101b45760209561019661019c9461018e6101a2986101866111b4565b9536916112bd565b9236916112bd565b91611a43565b50611c08565b6040516001600160a01b039091168152f35b5f80fd5b346101b45760403660031901126101b4576101d16110d5565b6024359067ffffffffffffffff82116101b457366023830112156101b457816004013567ffffffffffffffff81116101b4576024830192602436918360051b0101116101b45761021f611c19565b6001600160a01b0381165f9081527f3d7bd0e883bad19d498b61127c4b24592990340db3e3d0dab8ce989302e5dbbb602052604090205460ff161561048557506001600160a01b038216918215610476575f838152600260205260409020546001600160a01b03166104635761029c816102976111ff565b6118d0565b815f52600160205260ff60405f20541661043a57506102ce816102bf84826119eb565b6102c885611cde565b91611da0565b905f52600160205260405f20600160ff1982541617905560018060a01b03169180610355575b5f84815260026020908152604090912080546001600160a01b0319168517905584846001600160a01b03610326611c19565b169181604051937f8f2e597fd6e795e9851eea530f987cceb641315e3c7c9d484b798e3159d420955f80a48152f35b5f916bffffffffffffffffffffffff199060601b16915b81811061037957506102f4565b6103848183886112ad565b3560405160208101908582526014815261039f6034826110eb565b5190201461042b576103b28183886112ad565b6040516274e04960e61b8152903560048201526001602482018190526044820152906020826064815f895af1918215610420576001926103f4575b500161036c565b6104149060203d8111610419575b61040c81836110eb565b81019061126d565b6103ed565b503d610402565b6040513d5f823e3d90fd5b63a9abb9cf60e01b5f5260045ffd5b6040516304d2fa9b60e41b81526020600482015290819061045f9060248301906111db565b0390fd5b82630195dd1b60e31b5f5260045260245ffd5b6342bcdf7f60e11b5f5260045ffd5b63e2517d3f60e01b5f9081526001600160a01b03919091166004527f5d6fb899ea6f7759b4c48caf04de64c7c9bd9cbb87888fa6007adffafe90bb85602452604490fd5b346101b45760403660031901126101b4576105186004356104e86110bf565b9061051361050e825f525f5160206127ae5f395f51905f52602052600160405f20015490565b6112f3565b6117c4565b005b346101b4575f3660031901126101b45761056160405161053b6040826110eb565b60058152642a37b5b2b760d91b60208201526040519182916020835260208301906111db565b0390f35b346101b45760203660031901126101b4576001600160a01b036105866110d5565b165f526003602052602060018060a01b0360405f205416604051908152f35b346101b45760403660031901126101b45760206101a26105c36110d5565b6105d76105ce6110bf565b916102976111ff565b506119eb565b346101b4575f3660031901126101b4575f546040516001600160a01b039091168152602090f35b346101b4575f3660031901126101b45761056161061f6111ff565b6040519182916020835260208301906111db565b346101b4575f3660031901126101b45760206040515f8152f35b346101b4575f3660031901126101b45761056161061f6111b4565b346101b45760403660031901126101b4576106816110bf565b6004355f525f5160206127ae5f395f51905f5260205260405f209060018060a01b03165f52602052602060ff60405f2054166040519015158152f35b346101b4575f3660031901126101b4576040517f00000000000000000000000000000000000000000000000000000000000000006001600160a01b03168152602090f35b346101b45760803660031901126101b45761071a6110d5565b6107226110bf565b9060443567ffffffffffffffff81116101b457610743903690600401611121565b9160643567ffffffffffffffff81116101b457610764903690600401611121565b905f5160206127ce5f395f51905f52549260ff8460401c16159367ffffffffffffffff811680159081610c2a575b6001149081610c20575b159081610c17575b50610c085767ffffffffffffffff1981166001175f5160206127ce5f395f51905f525584610bdc575b506001600160a01b0316908115610bcd576107e6611c72565b6107ee611c72565b604051636d7203cb60e01b8152602081600481865afa908115610420576024916020915f91610bb0575b506040516301ffc9a760e01b815263189acdbd60e31b600482015292839182906001600160a01b03165afa908115610420575f91610b91575b5015610b8257604051631e6de76d60e11b8152602081600481865afa908115610420576024916020915f91610b55575b506040516301ffc9a760e01b815263189acdbd60e31b600482015292839182906001600160a01b03165afa908115610420575f91610b36575b5015610b27577f5d6fb899ea6f7759b4c48caf04de64c7c9bd9cbb87888fa6007adffafe90bb855f8181525f5160206127ae5f395f51905f526020527f3d7bd0e883bad19d498b61127c4b24592990340db3e3d0dab8ce989302e5dbbc80547f3a303b8cb0c4ee296f6a2a8aae92535cb6a5147b05540b62111942e1c353b2e991829055610a17949391929091907fbd79b86ffe0ab8e8776151514217cd7cacd52c909f66475c3af44e129f0b00ff9080a47f7c42e8dffc95f75177e883ddc14f7ed7caa053d3f0d4e84d6b7f0b0033223dcb5f8181525f5160206127ae5f395f51905f526020527f6e31da13781af3f8e64873c7b2f7d3b858ccea7969da480f63c614ffed4d961980547fab55121422db2e83f3da68f1a86ef03984cbd0d4c289dad3bc39e9ccee18e41191829055909290917fbd79b86ffe0ab8e8776151514217cd7cacd52c909f66475c3af44e129f0b00ff9080a461134f565b505f5b8451811015610a6457600190610a426001600160a01b03610a3b8389611285565b51166113fe565b50610a5d828060a01b03610a568389611285565b51166114c8565b5001610a1a565b50825f5b8351811015610ab257600190610a906001600160a01b03610a898388611285565b5116611592565b50610aab828060a01b03610aa48388611285565b511661165c565b5001610a68565b50906bffffffffffffffffffffffff60a01b5f5416175f55610ad057005b68ff0000000000000000195f5160206127ce5f395f51905f5254165f5160206127ce5f395f51905f52557fc7f505b2f371ae2175ee4913f4499e1f2633a7b5936321eed1cdaeb6115181d2602060405160018152a1005b63966fe0d960e01b5f5260045ffd5b610b4f915060203d6020116104195761040c81836110eb565b866108ba565b610b759150823d8411610b7b575b610b6d81836110eb565b81019061124e565b88610881565b503d610b63565b6301e5de5560e41b5f5260045ffd5b610baa915060203d6020116104195761040c81836110eb565b86610851565b610bc79150823d8411610b7b57610b6d81836110eb565b88610818565b633f997a3760e01b5f5260045ffd5b68ffffffffffffffffff191668010000000000000001175f5160206127ce5f395f51905f5255856107cd565b63f92ee8a960e01b5f5260045ffd5b905015876107a4565b303b15915061079c565b869150610792565b346101b45760203660031901126101b4576020610c4d6110d5565b6040517f00000000000000000000000000000000000000000000000000000000000000006001600160a01b039081169216919091148152f35b346101b45760403660031901126101b457610c9f6110d5565b610ca76110bf565b90610cb0611c19565b6001600160a01b0381165f9081527f6e31da13781af3f8e64873c7b2f7d3b858ccea7969da480f63c614ffed4d9618602052604090205460ff1615610ef157506001600160a01b03168015610476576001600160a01b03821615610476575f818152600360205260409020546001600160a01b0316610edf576040516306fdde0360e01b81525f81600481855afa908115610420575f91610ec5575b506040516395d89b4160e01b8152905f82600481865afa918215610420575f92610ea1575b5060405163313ce56760e01b815291602083600481875afa918215610420575f92610e5f575b610da99350610da46111b4565b611a43565b815f93929352600160205260ff60405f20541661043a5750610ddb82846102c8610dd560209784611c08565b91611d54565b5f92835260018085526040808520805460ff19169092179091558284526003855290922080546001600160a01b0319166001600160a01b0380851691909117909155610e25611c19565b604051936001600160a01b031692918391167fbfb80e4490f93265711078bc7aa5476dc4edfd6c61b12612ea310063c20d35a85f80a48152f35b9150916020813d602011610e99575b81610e7b602093836110eb565b810103126101b457519160ff831683036101b457610da99291610d97565b3d9150610e6e565b610ebe9192503d805f833e610eb681836110eb565b81019061186d565b9084610d71565b610ed991503d805f833e610eb681836110eb565b83610d4c565b634b8f68dd60e11b5f5260045260245ffd5b63e2517d3f60e01b5f9081526001600160a01b03919091166004527f7c42e8dffc95f75177e883ddc14f7ed7caa053d3f0d4e84d6b7f0b0033223dcb602452604490fd5b346101b45760403660031901126101b457610f4e6110bf565b6001600160a01b03610f5e611c19565b166001600160a01b03821603610f7a57610518906004356117c4565b63334bd91960e11b5f5260045ffd5b346101b45760203660031901126101b4576001600160a01b03610faa6110d5565b165f526002602052602060018060a01b0360405f205416604051908152f35b346101b45760403660031901126101b457610518600435610fe86110bf565b9061100e61050e825f525f5160206127ae5f395f51905f52602052600160405f20015490565b611726565b346101b45760203660031901126101b457602061104a6004355f525f5160206127ae5f395f51905f52602052600160405f20015490565b604051908152f35b346101b45760203660031901126101b4576004359063ffffffff60e01b82168092036101b457602091636e3bbdf760e01b8114908115611094575b5015158152f35b637965db0b60e01b8114915081156110ae575b508361108d565b6301ffc9a760e01b149050836110a7565b602435906001600160a01b03821682036101b457565b600435906001600160a01b03821682036101b457565b90601f8019910116810190811067ffffffffffffffff82111761110d57604052565b634e487b7160e01b5f52604160045260245ffd5b81601f820112156101b45780359167ffffffffffffffff831161110d578260051b916040519361115460208501866110eb565b84526020808501938201019182116101b457602001915b8183106111785750505090565b82356001600160a01b03811681036101b45781526020928301920161116b565b67ffffffffffffffff811161110d57601f01601f191660200190565b604051906111c36040836110eb565b6009825268546f6b656e4d65746160b81b6020830152565b805180835260209291819084018484015e5f828201840152601f01601f1916010190565b6040519061120e6040836110eb565b600382526213d25160ea1b6020830152565b9181601f840112156101b45782359167ffffffffffffffff83116101b457602083818601950101116101b457565b908160209103126101b457516001600160a01b03811681036101b45790565b908160209103126101b4575180151581036101b45790565b80518210156112995760209160051b010190565b634e487b7160e01b5f52603260045260245ffd5b91908110156112995760051b0190565b9291926112c982611198565b916112d760405193846110eb565b8294818452818301116101b4578281602093845f960137010152565b6112fb611c19565b815f525f5160206127ae5f395f51905f5260205260405f2060018060a01b0382165f5260205260ff60405f20541615611332575050565b63e2517d3f60e01b5f5260018060a01b031660045260245260445ffd5b6001600160a01b0381165f9081527fb7db2dd08fcb62d0c9e08c51941cae53c267786a0b75803fb7960902fc8ef97d602052604090205460ff166113f9576001600160a01b038181165f9081527fb7db2dd08fcb62d0c9e08c51941cae53c267786a0b75803fb7960902fc8ef97d60205260409020805460ff191660011790556113d7611c19565b16906001600160a01b03165f5f51602061278e5f395f51905f528180a4600190565b505f90565b6001600160a01b0381165f9081527f3d7bd0e883bad19d498b61127c4b24592990340db3e3d0dab8ce989302e5dbbb602052604090205460ff166113f9576001600160a01b038181165f9081527f3d7bd0e883bad19d498b61127c4b24592990340db3e3d0dab8ce989302e5dbbb60205260409020805460ff19166001179055611486611c19565b16906001600160a01b03167f5d6fb899ea6f7759b4c48caf04de64c7c9bd9cbb87888fa6007adffafe90bb855f51602061278e5f395f51905f525f80a4600190565b6001600160a01b0381165f9081527fc611aefd8b1e4b2d6607d66c7ce1ee8200e02c6d6c87dc6a9f30a19095358d2e602052604090205460ff166113f9576001600160a01b038181165f9081527fc611aefd8b1e4b2d6607d66c7ce1ee8200e02c6d6c87dc6a9f30a19095358d2e60205260409020805460ff19166001179055611550611c19565b16906001600160a01b03167f3a303b8cb0c4ee296f6a2a8aae92535cb6a5147b05540b62111942e1c353b2e95f51602061278e5f395f51905f525f80a4600190565b6001600160a01b0381165f9081527f6e31da13781af3f8e64873c7b2f7d3b858ccea7969da480f63c614ffed4d9618602052604090205460ff166113f9576001600160a01b038181165f9081527f6e31da13781af3f8e64873c7b2f7d3b858ccea7969da480f63c614ffed4d961860205260409020805460ff1916600117905561161a611c19565b16906001600160a01b03167f7c42e8dffc95f75177e883ddc14f7ed7caa053d3f0d4e84d6b7f0b0033223dcb5f51602061278e5f395f51905f525f80a4600190565b6001600160a01b0381165f9081527f3e19f57d0902d19afdd822f408eaf6ac1a60ce12cbc5f0a5e45384c9abd1778f602052604090205460ff166113f9576001600160a01b038181165f9081527f3e19f57d0902d19afdd822f408eaf6ac1a60ce12cbc5f0a5e45384c9abd1778f60205260409020805460ff191660011790556116e4611c19565b16906001600160a01b03167fab55121422db2e83f3da68f1a86ef03984cbd0d4c289dad3bc39e9ccee18e4115f51602061278e5f395f51905f525f80a4600190565b5f8181525f5160206127ae5f395f51905f52602090815260408083206001600160a01b038616845290915290205460ff166117be575f8181525f5160206127ae5f395f51905f52602090815260408083206001600160a01b0386811685529252909120805460ff1916600117905561179c611c19565b16916001600160a01b0316905f51602061278e5f395f51905f525f80a4600190565b50505f90565b5f8181525f5160206127ae5f395f51905f52602090815260408083206001600160a01b038616845290915290205460ff16156117be575f8181525f5160206127ae5f395f51905f52602090815260408083206001600160a01b0386811685529252909120805460ff19169055611838611c19565b16916001600160a01b0316907ff6391f5c32d9c69d2a47ea670b442974b53935d1edc7fd64eb21e047a839171b5f80a4600190565b6020818303126101b45780519067ffffffffffffffff82116101b4570181601f820112156101b4578051906118a182611198565b926118af60405194856110eb565b828452602083830101116101b457815f9260208093018386015e8301015290565b60405190916001600160a01b031690816118eb6060836110eb565b602a8252602082019260403685378251156112995760308453825160011015611299576078602184015360295b60018111611991575061197a57509160206119619281946040519584879551918291018587015e840190838201905f8252519283915e01015f815203601f1981018352826110eb565b5f546119779082906001600160a01b0316611c9d565b91565b63e22e27eb60e01b5f52600452601460245260445ffd5b90600f81166010811015611299578451831015611299576f181899199a1a9b1b9c1cb0b131b232b360811b901a8483016020015360041c9080156119d7575f1901611918565b634e487b7160e01b5f52601160045260245ffd5b611a3760206119fc611a4094611cde565b826040949294519384928180850197805191829101895e8401908282015f8152815193849201905e01015f815203601f1981018352826110eb565b51902090611d2a565b90565b909260ff16805f9172184f03e93ff9f4daa797ed6e38ed64bf6a1f0160401b821015611be5575b806d04ee2d6d415b85acef8100000000600a921015611bca575b662386f26fc10000811015611bb6575b6305f5e100811015611ba5575b612710811015611b96575b6064811015611b88575b1015611b7e575b6001820190600a6021611ae8611ad285611198565b94611ae060405196876110eb565b808652611198565b602085019590601f19013687378401015b5f1901916f181899199a1a9b1b9c1cb0b131b232b360811b8282061a835304908115611b2757600a90611af9565b50506020611961948180809860405199888b995191829101848b015e8801908282015f8152815193849201905e0101905f8252805192839101825e01905f8252518092825e015f815203601f1981018352826110eb565b9060010190611abd565b606460029104930192611ab6565b61271060049104930192611aac565b6305f5e10060089104930192611aa1565b662386f26fc1000060109104930192611a94565b6d04ee2d6d415b85acef810000000060209104930192611a84565b506040915072184f03e93ff9f4daa797ed6e38ed64bf6a1f0160401b8104611a6a565b611a3760206119fc611a4094611d54565b337f00000000000000000000000000000000000000000000000000000000000000006001600160a01b03161480611c67575b15611c635760131936013681116119d7573560601c90565b3390565b506014361015611c4b565b60ff5f5160206127ce5f395f51905f525460401c1615611c8e57565b631afcd79f60e31b5f5260045ffd5b90611cd8611cca91604051928391602083019560018060a01b0316865260408084015260608301906111db565b03601f1981018352826110eb565b51902090565b906104a460405190611cf360208201836110eb565b808252611e4660208301395f54604080516001600160a01b039283166020820152949091169084015291611a408160608101611cca565b90600b9160405191604083015260208201523081520160ff8153605590206001600160a01b031690565b906104a460405190611d6960208201836110eb565b8082526122ea60208301395f54604080516001600160a01b039283166020820152949091169084015291611a408160608101611cca565b9291611de0602091826040519384928180850197805191829101895e8401908282015f8152815193849201905e01015f815203601f1981018352826110eb565b805115611e365751905ff5903d1519821516610420576001600160a01b038216908115611e27576001600160a01b031603611e185790565b6362ec206960e01b5f5260045ffd5b63b06ebf3d60e01b5f5260045ffd5b631328927760e21b5f5260045ffdfe60806040523461018c5760406104a4803803809161001c826101a4565b6080391261018c5761002c6101f2565b61003660a0610208565b906001600160a01b0381168015908115610117575b50610108575f5160206104845f395f51905f5280546001600160a01b0319166001600160a01b039283161790558116156100f9575f5160206104845f395f51905f52546100ea916100d7916100e5906100ac906001600160a01b031661023f565b60405163189acdbd60e31b60208201526001600160a01b039093166024840152919283906044820190565b03601f1981018452836101cf565b6102cc565b60405161013b90816103498239f35b6342bcdf7f60e11b5f5260045ffd5b633f997a3760e01b5f5260045ffd5b6040516301ffc9a760e01b815260016223dac160e01b031960048201529150602090829060249082905afa908115610187575f91610158575b50155f61004b565b61017a915060203d602011610180575b61017281836101cf565b81019061021c565b5f610150565b503d610168565b610234565b5f80fd5b634e487b7160e01b5f52604160045260245ffd5b6080601f91909101601f19168101906001600160401b038211908210176101ca57604052565b610190565b601f909101601f19168101906001600160401b038211908210176101ca57604052565b608051906001600160a01b038216820361018c57565b51906001600160a01b038216820361018c57565b9081602091031261018c5751801515810361018c5790565b6040513d5f823e3d90fd5b604051636d7203cb60e01b815290602090829060049082906001600160a01b03165afa908115610187575f91610292575b506001600160a01b038116156102835790565b632384fcc160e11b5f5260045ffd5b90506020813d6020116102c4575b816102ad602093836101cf565b8101031261018c576102be90610208565b5f610270565b3d91506102a0565b6001600160a01b0381161561033957815f929160208493519201905af43d15610331573d906001600160401b0382116101ca5760405191610317601f8201601f1916602001846101cf565b82523d5f602084013e5b156103295750565b602081519101fd5b606090610321565b63ee0a129760e01b5f5260045ffdfe608060405236156100dc577f6430307501c2cc3d2d4fb0a554183112a402a38cdc96135a87867e0457146f9654636d7203cb60e01b608090815260209160049082906001600160a01b03165afa80156100d1575f90610076575b6001600160a01b0381166100eb57632384fcc160e11b5f5260045ffd5b5060203d6020116100ca575b601f19601f820116608001906080821067ffffffffffffffff8311176100b6576100b191604052608001610108565b610059565b634e487b7160e01b5f52604160045260245ffd5b503d610082565b6040513d5f823e3d90fd5b635d82995b60e01b5f5260045ffd5b5f8091368280378136915af43d5f803e15610104573d5ff35b3d5ffd5b602090607f19011261012a576080516001600160a01b038116810361012a5790565b5f80fdfea164736f6c634300081c000a6430307501c2cc3d2d4fb0a554183112a402a38cdc96135a87867e0457146f9660806040523461018c5760406104a4803803809161001c826101a4565b6080391261018c5761002c6101f2565b61003660a0610208565b906001600160a01b0381168015908115610117575b50610108575f5160206104845f395f51905f5280546001600160a01b0319166001600160a01b039283161790558116156100f9575f5160206104845f395f51905f52546100ea916100d7916100e5906100ac906001600160a01b031661023f565b60405163189acdbd60e31b60208201526001600160a01b039093166024840152919283906044820190565b03601f1981018452836101cf565b6102cc565b60405161013b90816103498239f35b6342bcdf7f60e11b5f5260045ffd5b633f997a3760e01b5f5260045ffd5b6040516301ffc9a760e01b815260016223dac160e01b031960048201529150602090829060249082905afa908115610187575f91610158575b50155f61004b565b61017a915060203d602011610180575b61017281836101cf565b81019061021c565b5f610150565b503d610168565b610234565b5f80fd5b634e487b7160e01b5f52604160045260245ffd5b6080601f91909101601f19168101906001600160401b038211908210176101ca57604052565b610190565b601f909101601f19168101906001600160401b038211908210176101ca57604052565b608051906001600160a01b038216820361018c57565b51906001600160a01b038216820361018c57565b9081602091031261018c5751801515810361018c5790565b6040513d5f823e3d90fd5b604051631e6de76d60e11b815290602090829060049082906001600160a01b03165afa908115610187575f91610292575b506001600160a01b038116156102835790565b632384fcc160e11b5f5260045ffd5b90506020813d6020116102c4575b816102ad602093836101cf565b8101031261018c576102be90610208565b5f610270565b3d91506102a0565b6001600160a01b0381161561033957815f929160208493519201905af43d15610331573d906001600160401b0382116101ca5760405191610317601f8201601f1916602001846101cf565b82523d5f602084013e5b156103295750565b602081519101fd5b606090610321565b63ee0a129760e01b5f5260045ffdfe608060405236156100dc577f6430307501c2cc3d2d4fb0a554183112a402a38cdc96135a87867e0457146f9654631e6de76d60e11b608090815260209160049082906001600160a01b03165afa80156100d1575f90610076575b6001600160a01b0381166100eb57632384fcc160e11b5f5260045ffd5b5060203d6020116100ca575b601f19601f820116608001906080821067ffffffffffffffff8311176100b6576100b191604052608001610108565b610059565b634e487b7160e01b5f52604160045260245ffd5b503d610082565b6040513d5f823e3d90fd5b635d82995b60e01b5f5260045ffd5b5f8091368280378136915af43d5f803e15610104573d5ff35b3d5ffd5b602090607f19011261012a576080516001600160a01b038116810361012a5790565b5f80fdfea164736f6c634300081c000a6430307501c2cc3d2d4fb0a554183112a402a38cdc96135a87867e0457146f962f8788117e7eff1d82e926ec794901d17c78024a50270940304540a733656f0d02dd7bc7dec4dceedda775e58dd541e08a116c6c53815c0bd028192f7b626800f0c57e16840df040f15088dc2f81fe391c3923bec73e23a9662efc9c229c6a00a164736f6c634300081c000af0c57e16840df040f15088dc2f81fe391c3923bec73e23a9662efc9c229c6a00",
    "linkReferences": {}
  },
  "methodIdentifiers": {
    "DEFAULT_ADMIN_ROLE()": "a217fddf",
    "TOKEN_METADATA_SALT_PREFIX()": "9df2a694",
    "TOKEN_SALT_PREFIX()": "c9828cd5",
    "WALLET_SALT_PREFIX()": "a4e4fa98",
    "calculateTokenIdentityAddress(string,string,uint8,address)": "f47ebbee",
    "calculateWalletIdentityAddress(address,address)": "ad70bdd7",
    "createIdentity(address,bytes32[])": "e6aa44e2",
    "createTokenIdentity(address,address)": "55c759ed",
    "getIdentity(address)": "2fea7b81",
    "getRoleAdmin(bytes32)": "248a9ca3",
    "getSystem()": "ad0ca906",
    "getTokenIdentity(address)": "c6c7fb56",
    "grantRole(bytes32,address)": "2f2ff15d",
    "hasRole(bytes32,address)": "91d14854",
    "initialize(address,address,address[],address[])": "6d752616",
    "isTrustedForwarder(address)": "572b6c05",
    "renounceRole(bytes32,address)": "36568abe",
    "revokeRole(bytes32,address)": "d547741f",
    "supportsInterface(bytes4)": "01ffc9a7",
    "trustedForwarder()": "7da0a877"
  },
  "userdoc": {
    "version": 1,
    "kind": "user",
    "methods": {
      "TOKEN_METADATA_SALT_PREFIX()": {
        "notice": "Prefix used in salt calculation for creating token identities with metadata-based salts."
      },
      "TOKEN_SALT_PREFIX()": {
        "notice": "Prefix used in salt calculation for creating token identities to ensure unique salt generation."
      },
      "WALLET_SALT_PREFIX()": {
        "notice": "Prefix used in salt calculation for creating wallet identities to ensure unique salt generation."
      },
      "calculateTokenIdentityAddress(string,string,uint8,address)": {
        "notice": "Computes the deterministic address at which a `ATKTokenIdentityProxy` for a token contract will be deployed (or was deployed) using metadata-based salt."
      },
      "calculateWalletIdentityAddress(address,address)": {
        "notice": "Computes the deterministic address at which a `ATKIdentityProxy` for an investor wallet will be deployed (or was deployed)."
      },
      "constructor": {
        "notice": "Constructor for the identity factory implementation."
      },
      "createIdentity(address,bytes32[])": {
        "notice": "Creates a deterministic on-chain identity (a `ATKIdentityProxy`) for a given investor wallet address."
      },
      "createTokenIdentity(address,address)": {
        "notice": "Creates a deterministic on-chain identity (a `ATKTokenIdentityProxy`) for a given token contract."
      },
      "getIdentity(address)": {
        "notice": "Retrieves the deployed `ATKIdentityProxy` address associated with a given investor wallet."
      },
      "getSystem()": {
        "notice": "Returns the address of the `IATKSystem` contract that this factory uses."
      },
      "getTokenIdentity(address)": {
        "notice": "Retrieves the deployed `ATKTokenIdentityProxy` address associated with a given token contract."
      },
      "initialize(address,address,address[],address[])": {
        "notice": "Initializes the `ATKIdentityFactoryImplementation` contract, typically called once by the proxy after deployment."
      },
      "supportsInterface(bytes4)": {
        "notice": "Checks if the contract supports a given interface ID."
      }
    },
    "events": {
      "IdentityCreated(address,address,address)": {
        "notice": "Emitted when a new identity contract is successfully created and registered for an investor wallet."
      },
      "TokenIdentityCreated(address,address,address)": {
        "notice": "Emitted when a new identity contract is successfully created and registered for a token contract."
      },
      "TokenRegistrarRoleGranted(address,address)": {
        "notice": "Emitted when the TOKEN_REGISTRAR_ROLE is granted to an account."
      },
      "TokenRegistrarRoleRevoked(address,address)": {
        "notice": "Emitted when the TOKEN_REGISTRAR_ROLE is revoked from an account."
      }
    },
    "errors": {
      "DeploymentAddressMismatch()": [
        {
          "notice": "Indicates that the address deployed via CREATE2 does not match the pre-calculated predicted address."
        }
      ],
      "InvalidIdentityImplementation()": [
        {
          "notice": "Indicates that the identity implementation is invalid."
        }
      ],
      "InvalidSystemAddress()": [
        {
          "notice": "Error indicating that an invalid system address was provided or encountered."
        }
      ],
      "InvalidTokenIdentityImplementation()": [
        {
          "notice": "Indicates that the token identity implementation is invalid."
        }
      ],
      "SaltAlreadyTaken(string)": [
        {
          "notice": "Indicates that a deterministic deployment (CREATE2) was attempted with a salt that has already been used."
        }
      ],
      "TokenAlreadyLinked(address)": [
        {
          "notice": "Indicates an attempt to create an identity for a token that already has one linked in this factory."
        }
      ],
      "WalletAlreadyLinked(address)": [
        {
          "notice": "Indicates an attempt to create an identity for a wallet that already has one linked in this factory."
        }
      ],
      "WalletInManagementKeys()": [
        {
          "notice": "Indicates that a wallet address was found within the list of management keys being added to its own identity."
        }
      ],
      "ZeroAddressNotAllowed()": [
        {
          "notice": "Indicates that an operation was attempted with the zero address (address(0))         where a valid, non-zero address was expected (e.g., for a wallet or token owner)."
        }
      ]
    },
    "notice": "This contract is the upgradeable logic implementation for creating and managing on-chain identities         for both user wallets and token contracts within the ATK Protocol."
  },
  "devdoc": {
    "version": 1,
    "kind": "dev",
    "author": "SettleMint Tokenization Services",
    "details": "It leverages OpenZeppelin's `Create2` library to deploy identity proxy contracts (`ATKIdentityProxy` for wallets,      `ATKTokenIdentityProxy` for tokens) at deterministic addresses. These proxies point to logic implementations      whose addresses are provided by the central `IATKSystem` contract, enabling upgradeability of the identity logic.      The factory uses `AccessControlUpgradeable` for role-based access control, notably the `REGISTRAR_ROLE`      for creating identities. It is also `ERC2771ContextUpgradeable` for meta-transaction support.      The identities created are based on the ERC725 (OnchainID) standard, managed via ERC734 for key management.",
    "methods": {
      "calculateTokenIdentityAddress(string,string,uint8,address)": {
        "details": "Uses token metadata (name, symbol, decimals) combined with token address to calculate deployment address.      It calls `_computeTokenProxyAddress` with the calculated metadata-based salt and `_initialManager`.",
        "params": {
          "_decimals": "The decimals of the token used in salt generation.",
          "_initialManager": "The address that would be (or was) set as the initial management key for the token identity's proxy constructor.",
          "_name": "The name of the token used in salt generation.",
          "_symbol": "The symbol of the token used in salt generation."
        },
        "returns": {
          "_0": "address The pre-computed CREATE2 deployment address for the token's identity contract."
        }
      },
      "calculateWalletIdentityAddress(address,address)": {
        "details": "This function uses the `CREATE2` address calculation logic. It first calculates a unique salt using      the `WALLET_SALT_PREFIX` and the `_walletAddress`. Then, it calls `_computeWalletProxyAddress` with this salt      and the `_initialManager` (which is part of the proxy's constructor arguments, affecting its creation code hash).      This allows prediction of the identity address before actual deployment.",
        "params": {
          "_initialManager": "The address that would be (or was) set as the initial management key for the identity's proxy constructor.",
          "_walletAddress": "The investor wallet address for which to calculate the potential identity contract address."
        },
        "returns": {
          "_0": "address The pre-computed CREATE2 deployment address for the wallet's identity contract."
        }
      },
      "constructor": {
        "details": "This is part of OpenZeppelin's upgradeable contracts pattern. It initializes `ERC2771ContextUpgradeable` with the `trustedForwarder` address for meta-transactions. `_disableInitializers()` prevents the `initialize` function from being called on the implementation contract directly, reserving it for the proxy context during deployment or upgrade.",
        "params": {
          "trustedForwarder": "The address of the ERC-2771 trusted forwarder for gasless transactions."
        }
      },
      "createIdentity(address,bytes32[])": {
        "details": "This function can only be called by an address with the `REGISTRAR_ROLE`. It performs several steps: 1. Validates that `_wallet` is not the zero address and that an identity doesn't already exist for this wallet. 2. Calls `_createAndRegisterWalletIdentity` to handle the deterministic deployment of the `ATKIdentityProxy`.    The `_wallet` itself is passed as the `_initialManager` to the proxy constructor. 3. Interacts with the newly deployed identity contract (as `IERC734`) to add any additional `_managementKeys` provided.    It ensures a management key is not the wallet itself (which is already a manager). 4. Stores the mapping from the `_wallet` address to the new `identity` contract address. 5. Emits an `IdentityCreated` event.",
        "params": {
          "_managementKeys": "An array of `bytes32` values representing additional management keys (keccak256 hashes of public keys or addresses) to be added to the identity.                        These keys are granted `MANAGEMENT_KEY` purpose (purpose 1) according to ERC734.",
          "_wallet": "The investor wallet address for which the identity is being created. This address will also be set as an initial manager of the identity."
        },
        "returns": {
          "_0": "address The address of the newly created and registered `ATKIdentityProxy` contract."
        }
      },
      "createTokenIdentity(address,address)": {
        "details": "This function can only be called by an address with the `REGISTRAR_ROLE`. It performs several steps: 1. Validates that `_token` and `_tokenOwner` are not zero addresses and that an identity doesn't already exist for this token. 2. Calls `_createAndRegisterTokenIdentityWithMetadata` to handle the deterministic deployment of the `ATKTokenIdentityProxy`.    The `_tokenOwner` is passed as the `_initialManager` to the proxy constructor. 3. Stores the mapping from the `_token` address to the new `identity` contract address. 4. Emits a `TokenIdentityCreated` event.",
        "params": {
          "_accessManager": "The address of the access manager contract that will be set as the initial owner/manager of the token's identity.",
          "_token": "The address of the token contract for which the identity is being created."
        },
        "returns": {
          "_0": "address The address of the newly created and registered `ATKTokenIdentityProxy` contract."
        }
      },
      "getIdentity(address)": {
        "params": {
          "_wallet": "The investor wallet address to query."
        },
        "returns": {
          "_0": "address The address of the `ATKIdentityProxy` if one has been created for the `_wallet`, otherwise `address(0)`."
        }
      },
      "getRoleAdmin(bytes32)": {
        "details": "Returns the admin role that controls `role`. See {grantRole} and {revokeRole}. To change a role's admin, use {_setRoleAdmin}."
      },
      "getSystem()": {
        "details": "The `IATKSystem` contract provides the addresses for the actual logic implementations      of `ATKIdentity` and `ATKTokenIdentity` that the deployed proxies will delegate to.",
        "returns": {
          "_0": "address The address of the configured `IATKSystem` contract."
        }
      },
      "getTokenIdentity(address)": {
        "params": {
          "_token": "The token contract address to query."
        },
        "returns": {
          "_0": "address The address of the `ATKTokenIdentityProxy` if one has been created for the `_token`, otherwise `address(0)`."
        }
      },
      "grantRole(bytes32,address)": {
        "details": "Grants `role` to `account`. If `account` had not been already granted `role`, emits a {RoleGranted} event. Requirements: - the caller must have ``role``'s admin role. May emit a {RoleGranted} event."
      },
      "hasRole(bytes32,address)": {
        "details": "Returns `true` if `account` has been granted `role`."
      },
      "initialize(address,address,address[],address[])": {
        "details": "Sets up essential state for the factory: 1. Validates that `systemAddress` is not the zero address. 2. Initializes ERC165 for interface detection. 3. Initializes AccessControl, granting `DEFAULT_ADMIN_ROLE` and `REGISTRAR_ROLE` to `initialAdmin`.    The `DEFAULT_ADMIN_ROLE` can manage other roles, while `REGISTRAR_ROLE` allows identity creation. 4. Stores the `systemAddress` which provides identity logic implementations.The `initializer` modifier ensures this function can only be called once.",
        "params": {
          "initialAdmin": "The address that will be granted initial administrative and registrar privileges over this factory.",
          "initialIdentityIssuerAdmins": "The addresses that will be granted initial administrative and registrar privileges over this factory for identity issuers.",
          "initialTokenIdentityIssuerAdmins": "The addresses that will be granted initial administrative and registrar privileges over this factory for token identity issuers.",
          "systemAddress": "The address of the central `IATKSystem` contract. This contract is crucial as it dictates                      which identity logic implementation contracts the new identity proxies will point to."
        }
      },
      "isTrustedForwarder(address)": {
        "details": "Indicates whether any particular address is the trusted forwarder."
      },
      "renounceRole(bytes32,address)": {
        "details": "Revokes `role` from the calling account. Roles are often managed via {grantRole} and {revokeRole}: this function's purpose is to provide a mechanism for accounts to lose their privileges if they are compromised (such as when a trusted device is misplaced). If the calling account had been revoked `role`, emits a {RoleRevoked} event. Requirements: - the caller must be `callerConfirmation`. May emit a {RoleRevoked} event."
      },
      "revokeRole(bytes32,address)": {
        "details": "Revokes `role` from `account`. If `account` had been granted `role`, emits a {RoleRevoked} event. Requirements: - the caller must have ``role``'s admin role. May emit a {RoleRevoked} event."
      },
      "supportsInterface(bytes4)": {
        "details": "This function is part of the ERC165 standard, allowing other contracts to query what interfaces this contract implements. It declares support for the `IATKIdentityFactory` interface and any interfaces supported by its parent contracts (like `AccessControlUpgradeable` and `ERC165Upgradeable`).",
        "params": {
          "interfaceId": "The interface identifier (bytes4) to check."
        },
        "returns": {
          "_0": "`true` if the contract supports the `interfaceId`, `false` otherwise."
        }
      },
      "trustedForwarder()": {
        "details": "Returns the address of the trusted forwarder."
      }
    },
    "events": {
      "IdentityCreated(address,address,address)": {
        "params": {
          "identity": "The address of the newly deployed `ATKIdentityProxy` contract.",
          "sender": "The address that initiated the identity creation (e.g., an address with `REGISTRAR_ROLE`).",
          "wallet": "The investor wallet address for which the identity was created."
        }
      },
      "Initialized(uint64)": {
        "details": "Triggered when the contract has been initialized or reinitialized."
      },
      "RoleAdminChanged(bytes32,bytes32,bytes32)": {
        "details": "Emitted when `newAdminRole` is set as ``role``'s admin role, replacing `previousAdminRole` `DEFAULT_ADMIN_ROLE` is the starting admin for all roles, despite {RoleAdminChanged} not being emitted to signal this."
      },
      "RoleGranted(bytes32,address,address)": {
        "details": "Emitted when `account` is granted `role`. `sender` is the account that originated the contract call. This account bears the admin role (for the granted role). Expected in cases where the role was granted using the internal {AccessControl-_grantRole}."
      },
      "RoleRevoked(bytes32,address,address)": {
        "details": "Emitted when `account` is revoked `role`. `sender` is the account that originated the contract call:   - if using `revokeRole`, it is the admin role bearer   - if using `renounceRole`, it is the role bearer (i.e. `account`)"
      },
      "TokenIdentityCreated(address,address,address)": {
        "params": {
          "identity": "The address of the newly deployed `ATKTokenIdentityProxy` contract.",
          "sender": "The address that initiated the token identity creation (e.g., an address with `REGISTRAR_ROLE`).",
          "token": "The address of the token contract for which the identity was created."
        }
      },
      "TokenRegistrarRoleGranted(address,address)": {
        "params": {
          "account": "The account that was granted the role.",
          "sender": "The account that granted the role."
        }
      },
      "TokenRegistrarRoleRevoked(address,address)": {
        "params": {
          "account": "The account that had the role revoked.",
          "sender": "The account that revoked the role."
        }
      }
    },
    "errors": {
      "AccessControlBadConfirmation()": [
        {
          "details": "The caller of a function is not the expected one. NOTE: Don't confuse with {AccessControlUnauthorizedAccount}."
        }
      ],
      "AccessControlUnauthorizedAccount(address,bytes32)": [
        {
          "details": "The `account` is missing a role."
        }
      ],
      "Create2EmptyBytecode()": [
        {
          "details": "There's no code to deploy."
        }
      ],
      "DeploymentAddressMismatch()": [
        {
          "details": "This is a critical error suggesting a potential issue in the CREATE2 computation, salt, or deployment bytecode, or an unexpected change in blockchain state between prediction and deployment."
        }
      ],
      "FailedDeployment()": [
        {
          "details": "The deployment failed."
        }
      ],
      "InsufficientBalance(uint256,uint256)": [
        {
          "details": "The ETH balance of the account is not enough to perform the operation."
        }
      ],
      "InvalidInitialization()": [
        {
          "details": "The contract is already initialized."
        }
      ],
      "InvalidSystemAddress()": [
        {
          "details": "This typically means an address expected to be a core system component (like a module proxy or implementation) was found to be the zero address or an otherwise incorrect address during a critical operation."
        }
      ],
      "NotInitializing()": [
        {
          "details": "The contract is not initializing."
        }
      ],
      "SaltAlreadyTaken(string)": [
        {
          "details": "Salts must be unique for each CREATE2 deployment from the same factory to ensure unique addresses.",
          "params": {
            "salt": "The string representation of the salt that was already taken."
          }
        }
      ],
      "StringsInsufficientHexLength(uint256,uint256)": [
        {
          "details": "The `value` string doesn't fit in the specified `length`."
        }
      ],
      "TokenAlreadyLinked(address)": [
        {
          "params": {
            "token": "The address of the token contract that is already linked to an identity."
          }
        }
      ],
      "WalletAlreadyLinked(address)": [
        {
          "params": {
            "wallet": "The address of the wallet that is already linked to an identity."
          }
        }
      ],
      "WalletInManagementKeys()": [
        {
          "details": "An identity's own wallet address (if it represents a user) typically has management capabilities by default or through specific key types; explicitly adding it as a generic management key might be redundant or an error."
        }
      ]
    },
    "title": "ATK Identity Factory Implementation"
  },
  "id": 160
}