{
  "abi": [
    {
      "type": "constructor",
      "inputs": [
        {
          "name": "forwarder",
          "type": "address",
          "internalType": "address"
        }
      ],
      "stateMutability": "nonpayable"
    },
    {
      "type": "function",
      "name": "DEFAULT_ADMIN_ROLE",
      "inputs": [],
      "outputs": [
        {
          "name": "",
          "type": "bytes32",
          "internalType": "bytes32"
        }
      ],
      "stateMutability": "view"
    },
    {
      "type": "function",
      "name": "allAirdropsLength",
      "inputs": [],
      "outputs": [
        {
          "name": "count",
          "type": "uint256",
          "internalType": "uint256"
        }
      ],
      "stateMutability": "view"
    },
    {
      "type": "function",
      "name": "atkPushAirdropImplementation",
      "inputs": [],
      "outputs": [
        {
          "name": "",
          "type": "address",
          "internalType": "address"
        }
      ],
      "stateMutability": "view"
    },
    {
      "type": "function",
      "name": "create",
      "inputs": [
        {
          "name": "token",
          "type": "address",
          "internalType": "address"
        },
        {
          "name": "root",
          "type": "bytes32",
          "internalType": "bytes32"
        },
        {
          "name": "owner",
          "type": "address",
          "internalType": "address"
        },
        {
          "name": "distributionCap",
          "type": "uint256",
          "internalType": "uint256"
        }
      ],
      "outputs": [
        {
          "name": "airdropProxyAddress",
          "type": "address",
          "internalType": "address"
        }
      ],
      "stateMutability": "nonpayable"
    },
    {
      "type": "function",
      "name": "getRoleAdmin",
      "inputs": [
        {
          "name": "role",
          "type": "bytes32",
          "internalType": "bytes32"
        }
      ],
      "outputs": [
        {
          "name": "",
          "type": "bytes32",
          "internalType": "bytes32"
        }
      ],
      "stateMutability": "view"
    },
    {
      "type": "function",
      "name": "grantRole",
      "inputs": [
        {
          "name": "role",
          "type": "bytes32",
          "internalType": "bytes32"
        },
        {
          "name": "account",
          "type": "address",
          "internalType": "address"
        }
      ],
      "outputs": [],
      "stateMutability": "nonpayable"
    },
    {
      "type": "function",
      "name": "hasRole",
      "inputs": [
        {
          "name": "role",
          "type": "bytes32",
          "internalType": "bytes32"
        },
        {
          "name": "account",
          "type": "address",
          "internalType": "address"
        }
      ],
      "outputs": [
        {
          "name": "",
          "type": "bool",
          "internalType": "bool"
        }
      ],
      "stateMutability": "view"
    },
    {
      "type": "function",
      "name": "initialize",
      "inputs": [
        {
          "name": "systemAddress_",
          "type": "address",
          "internalType": "address"
        },
        {
          "name": "initialAdmin_",
          "type": "address",
          "internalType": "address"
        }
      ],
      "outputs": [],
      "stateMutability": "nonpayable"
    },
    {
      "type": "function",
      "name": "isFactorySystemAddon",
      "inputs": [
        {
          "name": "systemAddonAddress",
          "type": "address",
          "internalType": "address"
        }
      ],
      "outputs": [
        {
          "name": "isFactorySystemAddon",
          "type": "bool",
          "internalType": "bool"
        }
      ],
      "stateMutability": "view"
    },
    {
      "type": "function",
      "name": "isTrustedForwarder",
      "inputs": [
        {
          "name": "forwarder",
          "type": "address",
          "internalType": "address"
        }
      ],
      "outputs": [
        {
          "name": "",
          "type": "bool",
          "internalType": "bool"
        }
      ],
      "stateMutability": "view"
    },
    {
      "type": "function",
      "name": "predictPushAirdropAddress",
      "inputs": [
        {
          "name": "token",
          "type": "address",
          "internalType": "address"
        },
        {
          "name": "root",
          "type": "bytes32",
          "internalType": "bytes32"
        },
        {
          "name": "owner",
          "type": "address",
          "internalType": "address"
        },
        {
          "name": "distributionCap",
          "type": "uint256",
          "internalType": "uint256"
        }
      ],
      "outputs": [
        {
          "name": "predictedAddress",
          "type": "address",
          "internalType": "address"
        }
      ],
      "stateMutability": "view"
    },
    {
      "type": "function",
      "name": "renounceRole",
      "inputs": [
        {
          "name": "role",
          "type": "bytes32",
          "internalType": "bytes32"
        },
        {
          "name": "callerConfirmation",
          "type": "address",
          "internalType": "address"
        }
      ],
      "outputs": [],
      "stateMutability": "nonpayable"
    },
    {
      "type": "function",
      "name": "revokeRole",
      "inputs": [
        {
          "name": "role",
          "type": "bytes32",
          "internalType": "bytes32"
        },
        {
          "name": "account",
          "type": "address",
          "internalType": "address"
        }
      ],
      "outputs": [],
      "stateMutability": "nonpayable"
    },
    {
      "type": "function",
      "name": "supportsInterface",
      "inputs": [
        {
          "name": "interfaceId",
          "type": "bytes4",
          "internalType": "bytes4"
        }
      ],
      "outputs": [
        {
          "name": "",
          "type": "bool",
          "internalType": "bool"
        }
      ],
      "stateMutability": "view"
    },
    {
      "type": "function",
      "name": "trustedForwarder",
      "inputs": [],
      "outputs": [
        {
          "name": "",
          "type": "address",
          "internalType": "address"
        }
      ],
      "stateMutability": "view"
    },
    {
      "type": "function",
      "name": "typeId",
      "inputs": [],
      "outputs": [
        {
          "name": "",
          "type": "bytes32",
          "internalType": "bytes32"
        }
      ],
      "stateMutability": "view"
    },
    {
      "type": "function",
      "name": "updateImplementation",
      "inputs": [
        {
          "name": "_newImplementation",
          "type": "address",
          "internalType": "address"
        }
      ],
      "outputs": [],
      "stateMutability": "nonpayable"
    },
    {
      "type": "event",
      "name": "ATKPushAirdropCreated",
      "inputs": [
        {
          "name": "airdropAddress",
          "type": "address",
          "indexed": true,
          "internalType": "address"
        },
        {
          "name": "creator",
          "type": "address",
          "indexed": true,
          "internalType": "address"
        }
      ],
      "anonymous": false
    },
    {
      "type": "event",
      "name": "ImplementationUpdated",
      "inputs": [
        {
          "name": "oldImplementation",
          "type": "address",
          "indexed": true,
          "internalType": "address"
        },
        {
          "name": "newImplementation",
          "type": "address",
          "indexed": true,
          "internalType": "address"
        }
      ],
      "anonymous": false
    },
    {
      "type": "event",
      "name": "Initialized",
      "inputs": [
        {
          "name": "version",
          "type": "uint64",
          "indexed": false,
          "internalType": "uint64"
        }
      ],
      "anonymous": false
    },
    {
      "type": "event",
      "name": "RoleAdminChanged",
      "inputs": [
        {
          "name": "role",
          "type": "bytes32",
          "indexed": true,
          "internalType": "bytes32"
        },
        {
          "name": "previousAdminRole",
          "type": "bytes32",
          "indexed": true,
          "internalType": "bytes32"
        },
        {
          "name": "newAdminRole",
          "type": "bytes32",
          "indexed": true,
          "internalType": "bytes32"
        }
      ],
      "anonymous": false
    },
    {
      "type": "event",
      "name": "RoleGranted",
      "inputs": [
        {
          "name": "role",
          "type": "bytes32",
          "indexed": true,
          "internalType": "bytes32"
        },
        {
          "name": "account",
          "type": "address",
          "indexed": true,
          "internalType": "address"
        },
        {
          "name": "sender",
          "type": "address",
          "indexed": true,
          "internalType": "address"
        }
      ],
      "anonymous": false
    },
    {
      "type": "event",
      "name": "RoleRevoked",
      "inputs": [
        {
          "name": "role",
          "type": "bytes32",
          "indexed": true,
          "internalType": "bytes32"
        },
        {
          "name": "account",
          "type": "address",
          "indexed": true,
          "internalType": "address"
        },
        {
          "name": "sender",
          "type": "address",
          "indexed": true,
          "internalType": "address"
        }
      ],
      "anonymous": false
    },
    {
      "type": "error",
      "name": "AccessControlBadConfirmation",
      "inputs": []
    },
    {
      "type": "error",
      "name": "AccessControlUnauthorizedAccount",
      "inputs": [
        {
          "name": "account",
          "type": "address",
          "internalType": "address"
        },
        {
          "name": "neededRole",
          "type": "bytes32",
          "internalType": "bytes32"
        }
      ]
    },
    {
      "type": "error",
      "name": "AddressAlreadyDeployed",
      "inputs": [
        {
          "name": "deployedAddress",
          "type": "address",
          "internalType": "address"
        }
      ]
    },
    {
      "type": "error",
      "name": "Create2EmptyBytecode",
      "inputs": []
    },
    {
      "type": "error",
      "name": "FailedDeployment",
      "inputs": []
    },
    {
      "type": "error",
      "name": "InsufficientBalance",
      "inputs": [
        {
          "name": "balance",
          "type": "uint256",
          "internalType": "uint256"
        },
        {
          "name": "needed",
          "type": "uint256",
          "internalType": "uint256"
        }
      ]
    },
    {
      "type": "error",
      "name": "InvalidAddress",
      "inputs": []
    },
    {
      "type": "error",
      "name": "InvalidImplementation",
      "inputs": []
    },
    {
      "type": "error",
      "name": "InvalidInitialization",
      "inputs": []
    },
    {
      "type": "error",
      "name": "NotInitializing",
      "inputs": []
    },
    {
      "type": "error",
      "name": "ProxyCreationFailed",
      "inputs": []
    },
    {
      "type": "error",
      "name": "SameAddress",
      "inputs": []
    }
  ],
  "bytecode": {
    "object": "0x60a03461011757601f6131d838819003918201601f19168301916001600160401b0383118484101761011b5780849260209460405283398101031261011757516001600160a01b0381168103610117576080525f5160206131b85f395f51905f525460ff8160401c16610108576002600160401b03196001600160401b038216016100b2575b604051613088908161013082396080518181816105ca015281816106410152818161077f01526111c30152f35b6001600160401b0319166001600160401b039081175f5160206131b85f395f51905f52556040519081527fc7f505b2f371ae2175ee4913f4499e1f2633a7b5936321eed1cdaeb6115181d290602090a15f610085565b63f92ee8a960e01b5f5260045ffd5b5f80fd5b634e487b7160e01b5f52604160045260245ffdfe6080806040526004361015610012575f80fd5b5f905f3560e01c90816301ffc9a714610b8b57508063025b22bc14610a0a578063150117bd146109ed578063229fff60146109b0578063248a9ca3146109715780632f2ff15d1461092757806336568abe146108d1578063485cc95514610675578063572b6c05146106215780637bbbcb05146105f95780637da0a877146105b55780638f940f631461057b57806391d1485414610526578063a217fddf1461050c578063b442bc11146101c6578063d547741f146101725763e480318a146100d9575f80fd5b3461016f57602061015d61013c61012e6100f236610c24565b6040959392949195519561011f8761011184848a893060208701610c9c565b03601f198101895288610c62565b604051958694308b8701610c9c565b03601f198101835282610c62565b6040516104af61014e86820183610c62565b808252612b6d86830139611182565b6040516001600160a01b039091168152f35b80fd5b503461016f57604036600319011261016f576101c2600435610192610c0e565b906101bd6101b8825f525f51602061303c5f395f51905f52602052600160405f20015490565b610d5c565b611099565b5080f35b503461041f5761021261012e6101db36610c24565b6101e9959392949195610cce565b604051956102028761011184848a893060208701610c9c565b6040519586943060208701610c9c565b604051906104af6102266020820184610c62565b808352612b6d602084013961023c838284611182565b610244610cce565b6001600160a01b03165f8181526001602052604090205490939060ff166104f957906102726102789261122d565b92611142565b8051156104ea576020815191015ff53d1519811516610414576001600160a01b03169081156104db5781036104cc57805f52600160205260405f20600160ff198254161790556004602060018060a01b035f5416604051928380926398468e5160e01b82525afa908115610414575f9161048a575b506001600160a01b031680151580610423575b6103cf575b506001600160a01b036103166111c0565b169060405191817f0927396ad213079c2892f36ac2dfff1d2acf5ec683425fc659a4bb61fae3ca1a8580a3600354680100000000000000008110156103bb5760018101806003558110156103a7576003602094527fc2575a0e9e593c00f959f8c92f12db2869c3395a3b0502d05e2516446f71f85b01816bffffffffffffffffffffffff60a01b8254161790558152f35b634e487b7160e01b84526032600452602484fd5b634e487b7160e01b84526041600452602484fd5b803b1561041f575f8091602460405180948193631105e3d560e31b83528760048401525af1801561041457156103055761040c9192505f90610c62565b5f905f610305565b6040513d5f823e3d90fd5b5f80fd5b506040516301ffc9a760e01b815263118f21f760e31b6004820152602081602481855afa908115610414575f9161045b575b50610300565b61047d915060203d602011610483575b6104758183610c62565b810190610c84565b5f610455565b503d61046b565b90506020813d6020116104c4575b816104a560209383610c62565b8101031261041f57516001600160a01b038116810361041f575f6102ed565b3d9150610498565b6335279f5d60e21b5f5260045ffd5b63b06ebf3d60e01b5f5260045ffd5b631328927760e21b5f5260045ffd5b8363d0dc594960e01b5f5260045260245ffd5b3461041f575f36600319011261041f5760206040515f8152f35b3461041f57604036600319011261041f5761053f610c0e565b6004355f525f51602061303c5f395f51905f5260205260405f209060018060a01b03165f52602052602060ff60405f2054166040519015158152f35b3461041f575f36600319011261041f5760206040517fe6442bc18db034e2c9ffc087440db5ea3b749ed065ef937ea7f503d585607e128152f35b3461041f575f36600319011261041f576040517f00000000000000000000000000000000000000000000000000000000000000006001600160a01b03168152602090f35b3461041f575f36600319011261041f576002546040516001600160a01b039091168152602090f35b3461041f57602036600319011261041f57602061063c610bf8565b6040517f00000000000000000000000000000000000000000000000000000000000000006001600160a01b039081169216919091148152f35b3461041f57604036600319011261041f5761068e610bf8565b610696610c0e565b905f51602061305c5f395f51905f52549160ff8360401c16159267ffffffffffffffff8116801590816108c9575b60011490816108bf575b1590816108b6575b506108a75767ffffffffffffffff1981166001175f51602061305c5f395f51905f52558361087b575b5060ff5f51602061305c5f395f51905f525460401c161561086c578061072761073792610db8565b5061073181610e67565b50610f31565b5060018060a01b03166bffffffffffffffffffffffff60a01b5f5416175f556040516118f28082019082821067ffffffffffffffff83111761085857602091839161127b83397f00000000000000000000000000000000000000000000000000000000000000006001600160a01b031681520301905ff0801561041457600280546001600160a01b0319166001600160a01b0392909216918217905560405191905f7faa3f731066a578e5f39b4215468d826cdd15373cbc0dfc9cb9bdc649718ef7da8180a361080357005b60207fc7f505b2f371ae2175ee4913f4499e1f2633a7b5936321eed1cdaeb6115181d29168ff0000000000000000195f51602061305c5f395f51905f5254165f51602061305c5f395f51905f525560018152a1005b634e487b7160e01b5f52604160045260245ffd5b631afcd79f60e31b5f5260045ffd5b68ffffffffffffffffff191668010000000000000001175f51602061305c5f395f51905f5255836106ff565b63f92ee8a960e01b5f5260045ffd5b905015856106d6565b303b1591506106ce565b8591506106c4565b3461041f57604036600319011261041f576108ea610c0e565b6001600160a01b036108fa6111c0565b166001600160a01b038216036109185761091690600435611099565b005b63334bd91960e11b5f5260045ffd5b3461041f57604036600319011261041f57610916600435610946610c0e565b9061096c6101b8825f525f51602061303c5f395f51905f52602052600160405f20015490565b610ffb565b3461041f57602036600319011261041f5760206109a86004355f525f51602061303c5f395f51905f52602052600160405f20015490565b604051908152f35b3461041f57602036600319011261041f576001600160a01b036109d1610bf8565b165f526001602052602060ff60405f2054166040519015158152f35b3461041f575f36600319011261041f576020600354604051908152f35b3461041f57602036600319011261041f57610a23610bf8565b610a2b6111c0565b6001600160a01b0381165f9081527fb121b6c2cfb68d56d259fa39abd93d7a85e352365bbcbddf27041e20d031c3d3602052604090205460ff1615610b4757506001600160a01b03168015610b38576002546001600160a01b03811690828214610b29576040516301ffc9a760e01b8152631798692160e21b6004820152602081602481875afa908115610414575f91610b0a575b5015610afb576001600160a01b03191682176002557faa3f731066a578e5f39b4215468d826cdd15373cbc0dfc9cb9bdc649718ef7da5f80a3005b63340aafcd60e11b5f5260045ffd5b610b23915060203d602011610483576104758183610c62565b84610ac0565b63367558c360e01b5f5260045ffd5b63e6c4247b60e01b5f5260045ffd5b63e2517d3f60e01b5f9081526001600160a01b03919091166004527fecaefa0171c08a6ded02d98b9432940d3852ef2c7f5007661eb8de37c5a1adc5602452604490fd5b3461041f57602036600319011261041f576004359063ffffffff60e01b821680920361041f57602091633e78512360e01b8114908115610bcd575b5015158152f35b637965db0b60e01b811491508115610be7575b5083610bc6565b6301ffc9a760e01b14905083610be0565b600435906001600160a01b038216820361041f57565b602435906001600160a01b038216820361041f57565b608090600319011261041f576004356001600160a01b038116810361041f5790602435906044356001600160a01b038116810361041f579060643590565b90601f8019910116810190811067ffffffffffffffff82111761085857604052565b9081602091031261041f5751801515810361041f5790565b6001600160a01b0391821681529181166020830152604082019290925291166060820152608081019190915260a00190565b610cd66111c0565b6001600160a01b0381165f9081527f8f7e9a8734279607aeaac474f24949ddc99eae25c0da72edcf5ad21022be2c9e602052604090205460ff1615610d185750565b63e2517d3f60e01b5f9081526001600160a01b03919091166004527ffc425f2263d0df187444b70e47283d622c70181c5baebb1306a01edba1ce184c602452604490fd5b610d646111c0565b815f525f51602061303c5f395f51905f5260205260405f2060018060a01b0382165f5260205260ff60405f20541615610d9b575050565b63e2517d3f60e01b5f5260018060a01b031660045260245260445ffd5b6001600160a01b0381165f9081527fb7db2dd08fcb62d0c9e08c51941cae53c267786a0b75803fb7960902fc8ef97d602052604090205460ff16610e62576001600160a01b038181165f9081527fb7db2dd08fcb62d0c9e08c51941cae53c267786a0b75803fb7960902fc8ef97d60205260409020805460ff19166001179055610e406111c0565b16906001600160a01b03165f5f51602061301c5f395f51905f528180a4600190565b505f90565b6001600160a01b0381165f9081527fb121b6c2cfb68d56d259fa39abd93d7a85e352365bbcbddf27041e20d031c3d3602052604090205460ff16610e62576001600160a01b038181165f9081527fb121b6c2cfb68d56d259fa39abd93d7a85e352365bbcbddf27041e20d031c3d360205260409020805460ff19166001179055610eef6111c0565b16906001600160a01b03167fecaefa0171c08a6ded02d98b9432940d3852ef2c7f5007661eb8de37c5a1adc55f51602061301c5f395f51905f525f80a4600190565b6001600160a01b0381165f9081527f8f7e9a8734279607aeaac474f24949ddc99eae25c0da72edcf5ad21022be2c9e602052604090205460ff16610e62576001600160a01b038181165f9081527f8f7e9a8734279607aeaac474f24949ddc99eae25c0da72edcf5ad21022be2c9e60205260409020805460ff19166001179055610fb96111c0565b16906001600160a01b03167ffc425f2263d0df187444b70e47283d622c70181c5baebb1306a01edba1ce184c5f51602061301c5f395f51905f525f80a4600190565b5f8181525f51602061303c5f395f51905f52602090815260408083206001600160a01b038616845290915290205460ff16611093575f8181525f51602061303c5f395f51905f52602090815260408083206001600160a01b0386811685529252909120805460ff191660011790556110716111c0565b16916001600160a01b0316905f51602061301c5f395f51905f525f80a4600190565b50505f90565b5f8181525f51602061303c5f395f51905f52602090815260408083206001600160a01b038616845290915290205460ff1615611093575f8181525f51602061303c5f395f51905f52602090815260408083206001600160a01b0386811685529252909120805460ff1916905561110d6111c0565b16916001600160a01b0316907ff6391f5c32d9c69d2a47ea670b442974b53935d1edc7fd64eb21e047a839171b5f80a4600190565b611180906020808095946040519684889551918291018487015e8401908282015f8152815193849201905e01015f815203601f198101845283610c62565b565b9061119290610272600b9461122d565b602081519101209060405191604083015260208201523081520160ff8153605590206001600160a01b031690565b337f00000000000000000000000000000000000000000000000000000000000000006001600160a01b03161480611222575b1561121e57601319360136811161120a573560601c90565b634e487b7160e01b5f52601160045260245ffd5b3390565b5060143610156111f2565b6040516112746080826020808201953087526040808401528051918291826060860152018484015e5f838284010152601f801991011681010301601f198101835282610c62565b5190209056fe60a03461008857601f6118f238819003918201601f19168301916001600160401b0383118484101761008c5780849260209460405283398101031261008857516001600160a01b03811681036100885760805261005a6100a0565b6100626100a0565b60405161179b90816101378239608051818181610a4801528181610b2a015261131d0152f35b5f80fd5b634e487b7160e01b5f52604160045260245ffd5b5f5160206118d25f395f51905f525460ff8160401c16610127576002600160401b03196001600160401b038216016100d55750565b6001600160401b0319166001600160401b039081175f5160206118d25f395f51905f52556040519081527fc7f505b2f371ae2175ee4913f4499e1f2633a7b5936321eed1cdaeb6115181d290602090a1565b63f92ee8a960e01b5f5260045ffdfe6080806040526004361015610012575f80fd5b5f905f3560e01c908163222abc1114610ef7575080632eb4a7ab14610eda578063429c6e5b14610eb457806349df728c14610dcb5780634b32102a14610bd35780634be7adee14610b5e578063572b6c0514610b095780636f62c3a614610ae0578063715018a614610a775780637da0a87714610a325780638da5cb5b146109fd578063ae0b51df146109bc578063b7f1aca814610966578063cd63d93014610948578063cfdbf2541461092c578063e2b4b2f714610606578063ef692c7d14610214578063efca2eed146101f6578063f2fde38b146101c9578063f364c90c1461012e5763fc0c546a14610105575f80fd5b3461012b578060031936011261012b57546040516001600160a01b039091168152602090f35b80fd5b503461012b57604036600319011261012b57600254604051633cd9324360e21b81526004803590820152602480359082015290602090829060449082906001600160a01b03165afa9081156101be5760209291610191575b506040519015158152f35b6101b19150823d84116101b7575b6101a98183610f60565b8101906110cc565b5f610186565b503d61019f565b6040513d84823e3d90fd5b503461012b57602036600319011261012b576101f36101e6610f1a565b6101ee6110e4565b61105b565b80f35b503461012b578060031936011261012b576020600354604051908152f35b503461012b57608036600319011261012b576004356001600160401b0381116104c857610245903690600401610f30565b906024356001600160401b03811161038f57610265903690600401610f30565b6044929192356001600160401b03811161060257610287903690600401610f30565b906064356001600160401b0381116105fe576102a7903690600401610f30565b9190956102b26110e4565b6102ba6111c5565b606488116105ef578488148015906105e5575b80156105db575b6105cc57889489978a5b8a81106105205750600454801515908161050b575b506104fc57909436829003601e190191908b5b8b8110610393578c8c8c8c8c61031e81600354611002565b60035560405192835260208301526060604083015282606083015260018060fb1b03831161038f57816080917fcb717668fc2be4cb2b22f131f5c0055a75ad81c1cb5003da116c8e8f0407c58c9460051b8091848401378101030190a160015f51602061174f5f395f51905f525580f35b8380fd5b61039e818d8c611023565b35906103b36103ae828b89611023565b611047565b916103bf82858a611023565b3590898310156104e7578260051b860135878112156104e25786018035906001600160401b0382116104dc57602001908060051b360382136104dc57610407918487856111fd565b156104cc578f60018060a01b0360025416803b156104c85760405163762ba3ff60e11b81526004810184905260248101859052604481018590529082908290606490829084905af180156101be576104b3575b50546001947ff75d5c8724380d126d0ce1ef2c57b7e856e7fe00051f6184966b31323463cf129260409261049a90869084906001600160a01b0316611137565b82519485526020850152858060a01b031692a201610306565b6104be828092610f60565b61012b575f61045a565b5080fd5b5063582f497d60e11b8f5260048ffd5b50508f80fd5b508f80fd5b50634e487b7160e01b8f52603260045260248ffd5b636fd8707b60e11b8b5260048bfd5b905061051988600354611002565b115f6102f3565b989661052d8a8c8b611023565b359061053d6103ae8c8688611023565b916105498c8a89611023565b35926001600160a01b0316156105bd5782156105ae5761056890610f95565b61059f579061057691611002565b965f19811461058b57600180910199016102de565b634e487b7160e01b8c52601160045260248cfd5b63cce553a960e01b8d5260048dfd5b63a68332cd60e01b8e5260048efd5b637e59fcff60e01b8e5260048efd5b632c635df560e11b8952600489fd5b50828414156102d4565b50838514156102cd565b632a8677b560e21b8952600489fd5b8780fd5b8580fd5b503461012b57608036600319011261012b57610620610f1a565b604435906024356001600160a01b038316830361038f575f51602061176f5f395f51905f52549260ff8460401c1615936001600160401b03811680159081610924575b600114908161091a575b159081610911575b506109025767ffffffffffffffff1981166001175f51602061176f5f395f51905f5255846108d6575b506040516103bb808201908282106001600160401b038311176108c2576020918391611374833930815203019086f080156108b7576001600160a01b0316926106e56112ef565b6001600160a01b03169081156108a857821561089957831561088a576040516318160ddd60e01b8152602081600481865afa9081610857575b5061073257630f58058360e11b8652600486fd5b604051633cd9324360e21b8152866004820152866024820152602081604481885afa908161083a575b5061076f57632b58d96960e01b8652600486fd5b6107839061077b6112ef565b6101ee6112ef565b6bffffffffffffffffffffffff60a01b8554161784556001556bffffffffffffffffffffffff60a01b60025416176002556107bc6112ef565b6107c46112ef565b60015f51602061174f5f395f51905f52556064356004556107e25780f35b68ff0000000000000000195f51602061176f5f395f51905f5254165f51602061176f5f395f51905f52557fc7f505b2f371ae2175ee4913f4499e1f2633a7b5936321eed1cdaeb6115181d2602060405160018152a180f35b6108529060203d6020116101b7576101a98183610f60565b61075b565b6020813d602011610882575b8161087060209383610f60565b8101031261087e575161071e565b5f80fd5b3d9150610863565b632b58d96960e01b8652600486fd5b639dd854d360e01b8652600486fd5b630f58058360e11b8652600486fd5b6040513d87823e3d90fd5b634e487b7160e01b88526041600452602488fd5b68ffffffffffffffffff191668010000000000000001175f51602061176f5f395f51905f52555f61069e565b63f92ee8a960e01b8652600486fd5b9050155f610675565b303b15915061066d565b869150610663565b503461012b578060031936011261012b57602060405160648152f35b503461012b578060031936011261012b576020600454604051908152f35b503461012b57602036600319011261012b577f64687926ea82d024193ae2d49d2c6e63089c2caf9cba13ff897d094f1526f01760406004356109a66110e4565b600454908060045582519182526020820152a180f35b503461012b57606036600319011261012b576044356001600160401b0381116104c857906109ef60049236908401610f30565b50506341cbd5e560e11b8152fd5b503461012b578060031936011261012b575f51602061172f5f395f51905f52546040516001600160a01b039091168152602090f35b503461012b578060031936011261012b576040517f00000000000000000000000000000000000000000000000000000000000000006001600160a01b03168152602090f35b503461012b578060031936011261012b57610a906110e4565b5f51602061172f5f395f51905f5280546001600160a01b0319811690915581906001600160a01b03167f8be0079c531659141344cd1fd0a4f28419497f9722a3daafe3b4186f6b6457e08280a380f35b503461012b57602036600319011261012b576020610aff600435610f95565b1515604051908152f35b503461012b57602036600319011261012b576020610b25610f1a565b6040517f00000000000000000000000000000000000000000000000000000000000000006001600160a01b039081169216919091148152f35b503461012b57606036600319011261012b576004356001600160401b0381116104c857610b8f903690600401610f30565b50506024356001600160401b0381116104c857610bb0903690600401610f30565b50506044356001600160401b0381116104c857906109ef60049236908401610f30565b503461087e57608036600319011261087e576024356001600160a01b0381169060043582820361087e57604435916064356001600160401b03811161087e57610c20903690600401610f30565b610c286110e4565b610c306111c5565b8515610dbc578415610dad576004548015159081610d98575b50610d8957610c5784610f95565b610d7a57610c67918584866111fd565b15610d6b576002546001600160a01b0316803b1561087e5760405163762ba3ff60e11b8152600481018490526024810185905260448101859052905f908290606490829084905af18015610d6057610d23575b5091604091610d04827ff75d5c8724380d126d0ce1ef2c57b7e856e7fe00051f6184966b31323463cf1295610cf182600354611002565b60035588546001600160a01b0316611137565b82519182526020820152a260015f51602061174f5f395f51905f525580f35b7ff75d5c8724380d126d0ce1ef2c57b7e856e7fe00051f6184966b31323463cf129391955091610d555f604094610f60565b5f9591935091610cba565b6040513d5f823e3d90fd5b63582f497d60e11b5f5260045ffd5b63cce553a960e01b5f5260045ffd5b636fd8707b60e11b5f5260045ffd5b9050610da686600354611002565b115f610c49565b63a68332cd60e01b5f5260045ffd5b637e59fcff60e01b5f5260045ffd5b3461087e57602036600319011261087e57610de4610f1a565b610dec6110e4565b6001600160a01b038116908115610ea5575f546040516370a0823160e01b815230600482015291906001600160a01b0316602083602481845afa928315610d60575f93610e6d575b5091610e64816020937f6352c5382c4a4578e712449ca65e83cdb392d045dfcf1cad9615189db2da244b95611137565b604051908152a2005b9250906020833d602011610e9d575b81610e8960209383610f60565b8101031261087e5791519190610e64610e34565b3d9150610e7c565b634261081360e11b5f5260045ffd5b3461087e57602036600319011261087e576020610ed2600435610f95565b604051908152f35b3461087e575f36600319011261087e576020600154604051908152f35b3461087e575f36600319011261087e576002546001600160a01b03168152602090f35b600435906001600160a01b038216820361087e57565b9181601f8401121561087e578235916001600160401b03831161087e576020808501948460051b01011161087e57565b90601f801991011681019081106001600160401b03821117610f8157604052565b634e487b7160e01b5f52604160045260245ffd5b60025460405163429c6e5b60e01b81526004810192909252602090829060249082906001600160a01b03165afa908115610d60575f91610fd3575090565b90506020813d602011610ffa575b81610fee60209383610f60565b8101031261087e575190565b3d9150610fe1565b9190820180921161100f57565b634e487b7160e01b5f52601160045260245ffd5b91908110156110335760051b0190565b634e487b7160e01b5f52603260045260245ffd5b356001600160a01b038116810361087e5790565b6001600160a01b031680156110b9575f51602061172f5f395f51905f5280546001600160a01b0319811683179091556001600160a01b03167f8be0079c531659141344cd1fd0a4f28419497f9722a3daafe3b4186f6b6457e05f80a3565b631e4fbdf760e01b5f525f60045260245ffd5b9081602091031261087e5751801515810361087e5790565b5f51602061172f5f395f51905f52546001600160a01b039081169061110761131a565b160361110f57565b61111761131a565b63118cdaa760e01b5f9081526001600160a01b0391909116600452602490fd5b60405163a9059cbb60e01b60208281019182526001600160a01b03909416602483015260448083019590955293815290925f91611175606482610f60565b519082855af115610d60575f513d6111bc57506001600160a01b0381163b155b61119c5750565b635274afe760e01b5f9081526001600160a01b0391909116600452602490fd5b60011415611195565b60025f51602061174f5f395f51905f5254146111ee5760025f51602061174f5f395f51905f5255565b633ee5aeb560e01b5f5260045ffd5b9194929394604051916020830193845260018060a01b0316604083015260608201526060815261122e608082610f60565b519020604051602081019182526020815261124a604082610f60565b519020600154926001600160401b038511610f81578460051b604051956112746020830188610f60565b8652602086019082019136831161087e57905b8282106112df57505050905f915b84518310156112d75760208360051b86010151908181105f146112c6575f52602052600160405f205b920191611295565b905f52602052600160405f206112be565b915092501490565b8135815260209182019101611287565b60ff5f51602061176f5f395f51905f525460401c161561130b57565b631afcd79f60e31b5f5260045ffd5b337f00000000000000000000000000000000000000000000000000000000000000006001600160a01b03161480611368575b1561136457601319360136811161100f573560601c90565b3390565b50601436101561134c56fe60803460b857601f6103bb38819003918201601f19168301916001600160401b0383118484101760bc5780849260209460405283398101031260b857516001600160a01b0381169081900360b857801560a5575f80546001600160a01b031981168317825560405192916001600160a01b03909116907f8be0079c531659141344cd1fd0a4f28419497f9722a3daafe3b4186f6b6457e09080a36102ea90816100d18239f35b631e4fbdf760e01b5f525f60045260245ffd5b5f80fd5b634e487b7160e01b5f52604160045260245ffdfe60806040526004361015610011575f80fd5b5f3560e01c8063429c6e5b1461024f578063715018a6146101f85780638da5cb5b146101d1578063bd40bde614610196578063ec5747fe14610133578063f2fde38b146100aa5763f364c90c14610066575f80fd5b346100a65760403660031901126100a657602061009c6004358060081c5f526001602052600160ff60405f205492161b16151590565b6040519015158152f35b5f80fd5b346100a65760203660031901126100a6576004356001600160a01b038116908190036100a6576100d86102b7565b8015610120575f80546001600160a01b03198116831782556001600160a01b0316907f8be0079c531659141344cd1fd0a4f28419497f9722a3daafe3b4186f6b6457e09080a3005b631e4fbdf760e01b5f525f60045260245ffd5b346100a65760407f08401774913e94f43659333293c99fdfdea868c488d679967e054abc8b5ae8346101643661029d565b61016f9492946102b7565b8460081c5f526001602052825f20600160ff87161b815417905582519182526020820152a2005b346100a65760206101c86101a93661029d565b50508060081c5f526001602052600160ff60405f205492161b16151590565b15604051908152f35b346100a6575f3660031901126100a6575f546040516001600160a01b039091168152602090f35b346100a6575f3660031901126100a6576102106102b7565b5f80546001600160a01b0319811682556001600160a01b03167f8be0079c531659141344cd1fd0a4f28419497f9722a3daafe3b4186f6b6457e08280a3005b346100a65760203660031901126100a6576102836004358060081c5f526001602052600160ff60405f205492161b16151590565b156102955760205f195b604051908152f35b60205f61028d565b60609060031901126100a657600435906024359060443590565b5f546001600160a01b031633036102ca57565b63118cdaa760e01b5f523360045260245ffdfea164736f6c634300081c000a9016d09d72d40fdae2fd8ceac6b6234c7706214fd39c1cd1e609a0528c1993009b779b17422d0df92223018b32b4d1fa46e071723d6817e2486d003becc55f00f0c57e16840df040f15088dc2f81fe391c3923bec73e23a9662efc9c229c6a00a164736f6c634300081c000af0c57e16840df040f15088dc2f81fe391c3923bec73e23a9662efc9c229c6a0060806040523461007b576104af388190036080601f8201601f19168101906001600160401b0382119082101761007f5760a09282916040526080391261007b5761006c61004a6100b6565b61005460a06100cc565b60c05161006160e06100cc565b916101005193610103565b60405161014990816103468239f35b5f80fd5b634e487b7160e01b5f52604160045260245ffd5b601f909101601f19168101906001600160401b0382119082101761007f57604052565b608051906001600160a01b038216820361007b57565b51906001600160a01b038216820361007b57565b9081602091031261007b5751801515810361007b5790565b6040513d5f823e3d90fd5b93919291906001600160a01b03851680156101ea576040516301ffc9a760e01b8152633e78512360e01b600482015290602090829060249082905afa908115610228575f916101f9575b50156101ea575f51602061048f5f395f51905f5280546001600160a01b0319166001600160a01b03909616959095179094556101e8936101e3916101d59061019361022d565b60405163e2b4b2f760e01b60208201526001600160a01b03948516602482015260448101979097529490921660648601526084850191909152839060a4820190565b03601f198101845283610093565b6102c9565b565b635c7bfbe960e01b5f5260045ffd5b61021b915060203d602011610221575b6102138183610093565b8101906100e0565b5f61014d565b503d610209565b6100f8565b5f51602061048f5f395f51905f5254604051637bbbcb0560e01b815290602090829060049082906001600160a01b03165afa908115610228575f9161028f575b506001600160a01b038116156102805790565b63489aaf0d60e11b5f5260045ffd5b90506020813d6020116102c1575b816102aa60209383610093565b8101031261007b576102bb906100cc565b5f61026d565b3d915061029d565b6001600160a01b0381161561033657815f929160208493519201905af43d1561032e573d906001600160401b03821161007f5760405191610314601f8201601f191660200184610093565b82523d5f602084013e5b156103265750565b602081519101fd5b60609061031e565b63ee0a129760e01b5f5260045ffdfe608060405236156100a8577f13d1d4a8f07d9c8a456b07fb81827712a7d862be074b1dc4f3c9fbbdab8268695460209060809060049082906001600160a01b0316637bbbcb0560e01b82525afa80156100a3575f90610076575b6001600160a01b0381166100b75763489aaf0d60e11b5f5260045ffd5b5060203d60201161009c575b8061008f610097926100d4565b60800161010b565b610059565b503d610082565b610131565b635d82995b60e01b5f5260045ffd5b5f8091368280378136915af43d5f803e156100d0573d5ff35b3d5ffd5b601f80199101166080016080811067ffffffffffffffff8211176100f757604052565b634e487b7160e01b5f52604160045260245ffd5b602090607f19011261012d576080516001600160a01b038116810361012d5790565b5f80fd5b6040513d5f823e3d90fdfea164736f6c634300081c000a13d1d4a8f07d9c8a456b07fb81827712a7d862be074b1dc4f3c9fbbdab8268692f8788117e7eff1d82e926ec794901d17c78024a50270940304540a733656f0d02dd7bc7dec4dceedda775e58dd541e08a116c6c53815c0bd028192f7b626800f0c57e16840df040f15088dc2f81fe391c3923bec73e23a9662efc9c229c6a00a164736f6c634300081c000af0c57e16840df040f15088dc2f81fe391c3923bec73e23a9662efc9c229c6a00",
    "linkReferences": {}
  },
  "methodIdentifiers": {
    "DEFAULT_ADMIN_ROLE()": "a217fddf",
    "allAirdropsLength()": "150117bd",
    "atkPushAirdropImplementation()": "7bbbcb05",
    "create(address,bytes32,address,uint256)": "b442bc11",
    "getRoleAdmin(bytes32)": "248a9ca3",
    "grantRole(bytes32,address)": "2f2ff15d",
    "hasRole(bytes32,address)": "91d14854",
    "initialize(address,address)": "485cc955",
    "isFactorySystemAddon(address)": "229fff60",
    "isTrustedForwarder(address)": "572b6c05",
    "predictPushAirdropAddress(address,bytes32,address,uint256)": "e480318a",
    "renounceRole(bytes32,address)": "36568abe",
    "revokeRole(bytes32,address)": "d547741f",
    "supportsInterface(bytes4)": "01ffc9a7",
    "trustedForwarder()": "7da0a877",
    "typeId()": "8f940f63",
    "updateImplementation(address)": "025b22bc"
  },
  "userdoc": {
    "version": 1,
    "kind": "user",
    "methods": {
      "allAirdropsLength()": {
        "notice": "Returns the total number of push airdrop proxy contracts created by this factory."
      },
      "atkPushAirdropImplementation()": {
        "notice": "Address of the current `ATKPushAirdrop` logic contract (implementation)."
      },
      "create(address,bytes32,address,uint256)": {
        "notice": "Creates and deploys a new `ATKPushAirdropProxy` contract for a given configuration. The proxy will point to the current `atkPushAirdropImplementation`."
      },
      "initialize(address,address)": {
        "notice": "Initializes the `ATKPushAirdropFactory`."
      },
      "isFactorySystemAddon(address)": {
        "notice": "Mapping indicating whether an system addon address was deployed by this factory."
      },
      "predictPushAirdropAddress(address,bytes32,address,uint256)": {
        "notice": "Predicts the deployment address of a push airdrop proxy."
      },
      "supportsInterface(bytes4)": {
        "notice": "Returns the address of the current `ATKPushAirdrop` logic contract (implementation)."
      },
      "typeId()": {
        "notice": "Returns a unique identifier for the type of this contract."
      },
      "updateImplementation(address)": {
        "notice": "Updates the address of the `ATKPushAirdrop` implementation contract."
      }
    },
    "events": {
      "ATKPushAirdropCreated(address,address)": {
        "notice": "Emitted when a new push airdrop proxy is created"
      },
      "ImplementationUpdated(address,address)": {
        "notice": "Emitted when the implementation contract is updated"
      }
    },
    "errors": {
      "AddressAlreadyDeployed(address)": [
        {
          "notice": "Error thrown when a CREATE2 address is already deployed."
        }
      ],
      "InvalidAddress()": [
        {
          "notice": "Custom error for invalid address parameter."
        }
      ],
      "InvalidImplementation()": [
        {
          "notice": "Custom error for invalid implementation address."
        }
      ],
      "ProxyCreationFailed()": [
        {
          "notice": "Error thrown when proxy creation fails."
        }
      ],
      "SameAddress()": [
        {
          "notice": "Custom error when attempting to set the same address."
        }
      ]
    },
    "notice": "This contract serves as a factory to deploy new UUPS proxy instances of `ATKPushAirdrop` contracts. It manages a single implementation contract and allows for updating this implementation."
  },
  "devdoc": {
    "version": 1,
    "kind": "dev",
    "details": "Key features of this factory: - **Deployment of Proxies**: Provides a `create` function to deploy new `ATKPushAirdropProxy` instances,   which point to a shared `ATKPushAirdrop` implementation. - **CREATE2**: Leverages `CREATE2` for deploying proxies, allowing their addresses to be pre-calculated. - **Implementation Management**: Deploys an initial implementation and allows the owner to update it. - **Authorization**: The `create` function requires the `DEPLOYER_ROLE` for proper access control. - **Registry**: Maintains an array `allAirdrops` to keep track of all airdrop proxies created. - **Meta-transactions**: Inherits `ERC2771Context` to support gasless operations if a trusted forwarder is configured.",
    "methods": {
      "constructor": {},
      "create(address,bytes32,address,uint256)": {
        "details": "This function performs the following steps: 1. **Authorization Check**: Verifies the caller has the `DEPLOYER_ROLE`. 2. **Salt Generation**: Computes a unique `salt` for CREATE2. 3. **Initialization Data**: Prepares the `initData` for the proxy to call `initialize` on the implementation. 4. **Proxy Deployment**: Deploys a `ATKPushAirdropProxy` using CREATE2. 5. **Event Emission**: Emits `ATKPushAirdropCreated`. 6. **Registry Update**: Adds the new proxy to `allAirdrops`.",
        "params": {
          "distributionCap": "The maximum tokens that can be distributed (0 for no cap).",
          "owner": "The initial owner of the contract (admin who can distribute tokens).",
          "root": "The Merkle root for verifying distributions.",
          "token": "The address of the ERC20 token to be distributed."
        },
        "returns": {
          "airdropProxyAddress": "The address of the newly created `ATKPushAirdropProxy` contract."
        }
      },
      "getRoleAdmin(bytes32)": {
        "details": "Returns the admin role that controls `role`. See {grantRole} and {revokeRole}. To change a role's admin, use {_setRoleAdmin}."
      },
      "grantRole(bytes32,address)": {
        "details": "Grants `role` to `account`. If `account` had not been already granted `role`, emits a {RoleGranted} event. Requirements: - the caller must have ``role``'s admin role. May emit a {RoleGranted} event."
      },
      "hasRole(bytes32,address)": {
        "details": "Returns `true` if `account` has been granted `role`."
      },
      "initialize(address,address)": {
        "details": "Initializes the factory, deploys the initial `ATKPushAirdrop` implementation, and sets up support for meta-transactions via ERC2771Context.",
        "params": {
          "initialAdmin_": "The address of the initial admin.",
          "systemAddress_": "The address of the `IATKSystem` contract."
        }
      },
      "isTrustedForwarder(address)": {
        "details": "Indicates whether any particular address is the trusted forwarder."
      },
      "predictPushAirdropAddress(address,bytes32,address,uint256)": {
        "params": {
          "distributionCap": "The maximum tokens that can be distributed.",
          "owner": "The initial owner of the contract.",
          "root": "The Merkle root for verifying distributions.",
          "token": "The address of the ERC20 token to be distributed."
        },
        "returns": {
          "predictedAddress": "The predicted address of the push airdrop proxy."
        }
      },
      "renounceRole(bytes32,address)": {
        "details": "Revokes `role` from the calling account. Roles are often managed via {grantRole} and {revokeRole}: this function's purpose is to provide a mechanism for accounts to lose their privileges if they are compromised (such as when a trusted device is misplaced). If the calling account had been revoked `role`, emits a {RoleRevoked} event. Requirements: - the caller must be `callerConfirmation`. May emit a {RoleRevoked} event."
      },
      "revokeRole(bytes32,address)": {
        "details": "Revokes `role` from `account`. If `account` had been granted `role`, emits a {RoleRevoked} event. Requirements: - the caller must have ``role``'s admin role. May emit a {RoleRevoked} event."
      },
      "trustedForwarder()": {
        "details": "Returns the address of the trusted forwarder."
      },
      "updateImplementation(address)": {
        "details": "Only callable by the factory owner. New proxies created after this call will use the new implementation. This does NOT automatically upgrade existing proxy instances.",
        "params": {
          "_newImplementation": "The address of the new `ATKPushAirdrop` logic contract."
        }
      }
    },
    "events": {
      "ATKPushAirdropCreated(address,address)": {
        "params": {
          "airdropAddress": "The address of the newly created push airdrop proxy",
          "creator": "The address that created the push airdrop"
        }
      },
      "ImplementationUpdated(address,address)": {
        "params": {
          "newImplementation": "The address of the new implementation",
          "oldImplementation": "The address of the previous implementation"
        }
      },
      "Initialized(uint64)": {
        "details": "Triggered when the contract has been initialized or reinitialized."
      },
      "RoleAdminChanged(bytes32,bytes32,bytes32)": {
        "details": "Emitted when `newAdminRole` is set as ``role``'s admin role, replacing `previousAdminRole` `DEFAULT_ADMIN_ROLE` is the starting admin for all roles, despite {RoleAdminChanged} not being emitted to signal this."
      },
      "RoleGranted(bytes32,address,address)": {
        "details": "Emitted when `account` is granted `role`. `sender` is the account that originated the contract call. This account bears the admin role (for the granted role). Expected in cases where the role was granted using the internal {AccessControl-_grantRole}."
      },
      "RoleRevoked(bytes32,address,address)": {
        "details": "Emitted when `account` is revoked `role`. `sender` is the account that originated the contract call:   - if using `revokeRole`, it is the admin role bearer   - if using `renounceRole`, it is the role bearer (i.e. `account`)"
      }
    },
    "errors": {
      "AccessControlBadConfirmation()": [
        {
          "details": "The caller of a function is not the expected one. NOTE: Don't confuse with {AccessControlUnauthorizedAccount}."
        }
      ],
      "AccessControlUnauthorizedAccount(address,bytes32)": [
        {
          "details": "The `account` is missing a role."
        }
      ],
      "Create2EmptyBytecode()": [
        {
          "details": "There's no code to deploy."
        }
      ],
      "FailedDeployment()": [
        {
          "details": "The deployment failed."
        }
      ],
      "InsufficientBalance(uint256,uint256)": [
        {
          "details": "The ETH balance of the account is not enough to perform the operation."
        }
      ],
      "InvalidInitialization()": [
        {
          "details": "The contract is already initialized."
        }
      ],
      "NotInitializing()": [
        {
          "details": "The contract is not initializing."
        }
      ]
    },
    "title": "Factory for Creating ATKPushAirdrop Proxies"
  },
  "id": 7
}