{
  "abi": [
    {
      "type": "constructor",
      "inputs": [
        {
          "name": "forwarder_",
          "type": "address",
          "internalType": "address"
        }
      ],
      "stateMutability": "nonpayable"
    },
    {
      "type": "function",
      "name": "MAX_BATCH_SIZE",
      "inputs": [],
      "outputs": [
        {
          "name": "",
          "type": "uint256",
          "internalType": "uint256"
        }
      ],
      "stateMutability": "view"
    },
    {
      "type": "function",
      "name": "batchClaim",
      "inputs": [
        {
          "name": "",
          "type": "uint256[]",
          "internalType": "uint256[]"
        },
        {
          "name": "",
          "type": "uint256[]",
          "internalType": "uint256[]"
        },
        {
          "name": "",
          "type": "bytes32[][]",
          "internalType": "bytes32[][]"
        }
      ],
      "outputs": [],
      "stateMutability": "pure"
    },
    {
      "type": "function",
      "name": "batchDistribute",
      "inputs": [
        {
          "name": "indices",
          "type": "uint256[]",
          "internalType": "uint256[]"
        },
        {
          "name": "recipients",
          "type": "address[]",
          "internalType": "address[]"
        },
        {
          "name": "amounts",
          "type": "uint256[]",
          "internalType": "uint256[]"
        },
        {
          "name": "merkleProofs",
          "type": "bytes32[][]",
          "internalType": "bytes32[][]"
        }
      ],
      "outputs": [],
      "stateMutability": "nonpayable"
    },
    {
      "type": "function",
      "name": "claim",
      "inputs": [
        {
          "name": "",
          "type": "uint256",
          "internalType": "uint256"
        },
        {
          "name": "",
          "type": "uint256",
          "internalType": "uint256"
        },
        {
          "name": "",
          "type": "bytes32[]",
          "internalType": "bytes32[]"
        }
      ],
      "outputs": [],
      "stateMutability": "pure"
    },
    {
      "type": "function",
      "name": "claimTracker",
      "inputs": [],
      "outputs": [
        {
          "name": "",
          "type": "address",
          "internalType": "contract IATKClaimTracker"
        }
      ],
      "stateMutability": "view"
    },
    {
      "type": "function",
      "name": "distribute",
      "inputs": [
        {
          "name": "index",
          "type": "uint256",
          "internalType": "uint256"
        },
        {
          "name": "recipient",
          "type": "address",
          "internalType": "address"
        },
        {
          "name": "amount",
          "type": "uint256",
          "internalType": "uint256"
        },
        {
          "name": "merkleProof",
          "type": "bytes32[]",
          "internalType": "bytes32[]"
        }
      ],
      "outputs": [],
      "stateMutability": "nonpayable"
    },
    {
      "type": "function",
      "name": "distributionCap",
      "inputs": [],
      "outputs": [
        {
          "name": "",
          "type": "uint256",
          "internalType": "uint256"
        }
      ],
      "stateMutability": "view"
    },
    {
      "type": "function",
      "name": "getClaimedAmount",
      "inputs": [
        {
          "name": "index",
          "type": "uint256",
          "internalType": "uint256"
        }
      ],
      "outputs": [
        {
          "name": "",
          "type": "uint256",
          "internalType": "uint256"
        }
      ],
      "stateMutability": "view"
    },
    {
      "type": "function",
      "name": "initialize",
      "inputs": [
        {
          "name": "name_",
          "type": "string",
          "internalType": "string"
        },
        {
          "name": "token_",
          "type": "address",
          "internalType": "address"
        },
        {
          "name": "root_",
          "type": "bytes32",
          "internalType": "bytes32"
        },
        {
          "name": "owner_",
          "type": "address",
          "internalType": "address"
        },
        {
          "name": "distributionCap_",
          "type": "uint256",
          "internalType": "uint256"
        }
      ],
      "outputs": [],
      "stateMutability": "nonpayable"
    },
    {
      "type": "function",
      "name": "isClaimed",
      "inputs": [
        {
          "name": "index",
          "type": "uint256",
          "internalType": "uint256"
        },
        {
          "name": "totalAmount",
          "type": "uint256",
          "internalType": "uint256"
        }
      ],
      "outputs": [
        {
          "name": "",
          "type": "bool",
          "internalType": "bool"
        }
      ],
      "stateMutability": "view"
    },
    {
      "type": "function",
      "name": "isDistributed",
      "inputs": [
        {
          "name": "index",
          "type": "uint256",
          "internalType": "uint256"
        }
      ],
      "outputs": [
        {
          "name": "",
          "type": "bool",
          "internalType": "bool"
        }
      ],
      "stateMutability": "view"
    },
    {
      "type": "function",
      "name": "isTrustedForwarder",
      "inputs": [
        {
          "name": "forwarder",
          "type": "address",
          "internalType": "address"
        }
      ],
      "outputs": [
        {
          "name": "",
          "type": "bool",
          "internalType": "bool"
        }
      ],
      "stateMutability": "view"
    },
    {
      "type": "function",
      "name": "merkleRoot",
      "inputs": [],
      "outputs": [
        {
          "name": "",
          "type": "bytes32",
          "internalType": "bytes32"
        }
      ],
      "stateMutability": "view"
    },
    {
      "type": "function",
      "name": "name",
      "inputs": [],
      "outputs": [
        {
          "name": "",
          "type": "string",
          "internalType": "string"
        }
      ],
      "stateMutability": "view"
    },
    {
      "type": "function",
      "name": "owner",
      "inputs": [],
      "outputs": [
        {
          "name": "",
          "type": "address",
          "internalType": "address"
        }
      ],
      "stateMutability": "view"
    },
    {
      "type": "function",
      "name": "renounceOwnership",
      "inputs": [],
      "outputs": [],
      "stateMutability": "nonpayable"
    },
    {
      "type": "function",
      "name": "setDistributionCap",
      "inputs": [
        {
          "name": "newDistributionCap_",
          "type": "uint256",
          "internalType": "uint256"
        }
      ],
      "outputs": [],
      "stateMutability": "nonpayable"
    },
    {
      "type": "function",
      "name": "token",
      "inputs": [],
      "outputs": [
        {
          "name": "",
          "type": "address",
          "internalType": "contract IERC20"
        }
      ],
      "stateMutability": "view"
    },
    {
      "type": "function",
      "name": "totalDistributed",
      "inputs": [],
      "outputs": [
        {
          "name": "",
          "type": "uint256",
          "internalType": "uint256"
        }
      ],
      "stateMutability": "view"
    },
    {
      "type": "function",
      "name": "transferOwnership",
      "inputs": [
        {
          "name": "newOwner",
          "type": "address",
          "internalType": "address"
        }
      ],
      "outputs": [],
      "stateMutability": "nonpayable"
    },
    {
      "type": "function",
      "name": "trustedForwarder",
      "inputs": [],
      "outputs": [
        {
          "name": "",
          "type": "address",
          "internalType": "address"
        }
      ],
      "stateMutability": "view"
    },
    {
      "type": "function",
      "name": "withdrawTokens",
      "inputs": [
        {
          "name": "to",
          "type": "address",
          "internalType": "address"
        }
      ],
      "outputs": [],
      "stateMutability": "nonpayable"
    },
    {
      "type": "event",
      "name": "BatchClaimed",
      "inputs": [
        {
          "name": "claimant",
          "type": "address",
          "indexed": true,
          "internalType": "address"
        },
        {
          "name": "totalAmount",
          "type": "uint256",
          "indexed": false,
          "internalType": "uint256"
        },
        {
          "name": "indices",
          "type": "uint256[]",
          "indexed": false,
          "internalType": "uint256[]"
        },
        {
          "name": "amounts",
          "type": "uint256[]",
          "indexed": false,
          "internalType": "uint256[]"
        }
      ],
      "anonymous": false
    },
    {
      "type": "event",
      "name": "BatchTokensDistributed",
      "inputs": [
        {
          "name": "recipientCount",
          "type": "uint256",
          "indexed": false,
          "internalType": "uint256"
        },
        {
          "name": "totalAmount",
          "type": "uint256",
          "indexed": false,
          "internalType": "uint256"
        },
        {
          "name": "indices",
          "type": "uint256[]",
          "indexed": false,
          "internalType": "uint256[]"
        }
      ],
      "anonymous": false
    },
    {
      "type": "event",
      "name": "Claimed",
      "inputs": [
        {
          "name": "claimant",
          "type": "address",
          "indexed": true,
          "internalType": "address"
        },
        {
          "name": "amount",
          "type": "uint256",
          "indexed": false,
          "internalType": "uint256"
        },
        {
          "name": "index",
          "type": "uint256",
          "indexed": false,
          "internalType": "uint256"
        }
      ],
      "anonymous": false
    },
    {
      "type": "event",
      "name": "DistributionCapUpdated",
      "inputs": [
        {
          "name": "oldCap",
          "type": "uint256",
          "indexed": false,
          "internalType": "uint256"
        },
        {
          "name": "newCap",
          "type": "uint256",
          "indexed": false,
          "internalType": "uint256"
        }
      ],
      "anonymous": false
    },
    {
      "type": "event",
      "name": "Initialized",
      "inputs": [
        {
          "name": "version",
          "type": "uint64",
          "indexed": false,
          "internalType": "uint64"
        }
      ],
      "anonymous": false
    },
    {
      "type": "event",
      "name": "OwnershipTransferred",
      "inputs": [
        {
          "name": "previousOwner",
          "type": "address",
          "indexed": true,
          "internalType": "address"
        },
        {
          "name": "newOwner",
          "type": "address",
          "indexed": true,
          "internalType": "address"
        }
      ],
      "anonymous": false
    },
    {
      "type": "event",
      "name": "TokensDistributed",
      "inputs": [
        {
          "name": "recipient",
          "type": "address",
          "indexed": true,
          "internalType": "address"
        },
        {
          "name": "amount",
          "type": "uint256",
          "indexed": false,
          "internalType": "uint256"
        },
        {
          "name": "index",
          "type": "uint256",
          "indexed": false,
          "internalType": "uint256"
        }
      ],
      "anonymous": false
    },
    {
      "type": "event",
      "name": "TokensWithdrawn",
      "inputs": [
        {
          "name": "to",
          "type": "address",
          "indexed": true,
          "internalType": "address"
        },
        {
          "name": "amount",
          "type": "uint256",
          "indexed": false,
          "internalType": "uint256"
        }
      ],
      "anonymous": false
    },
    {
      "type": "error",
      "name": "AlreadyDistributed",
      "inputs": []
    },
    {
      "type": "error",
      "name": "BatchSizeExceedsLimit",
      "inputs": []
    },
    {
      "type": "error",
      "name": "DistributionCapExceeded",
      "inputs": []
    },
    {
      "type": "error",
      "name": "InvalidAirdropName",
      "inputs": []
    },
    {
      "type": "error",
      "name": "InvalidClaimTrackerAddress",
      "inputs": []
    },
    {
      "type": "error",
      "name": "InvalidDistributionAddress",
      "inputs": []
    },
    {
      "type": "error",
      "name": "InvalidInitialization",
      "inputs": []
    },
    {
      "type": "error",
      "name": "InvalidInputArrayLengths",
      "inputs": []
    },
    {
      "type": "error",
      "name": "InvalidMerkleProof",
      "inputs": []
    },
    {
      "type": "error",
      "name": "InvalidMerkleRoot",
      "inputs": []
    },
    {
      "type": "error",
      "name": "InvalidTokenAddress",
      "inputs": []
    },
    {
      "type": "error",
      "name": "InvalidWithdrawalAddress",
      "inputs": []
    },
    {
      "type": "error",
      "name": "NotInitializing",
      "inputs": []
    },
    {
      "type": "error",
      "name": "OwnableInvalidOwner",
      "inputs": [
        {
          "name": "owner",
          "type": "address",
          "internalType": "address"
        }
      ]
    },
    {
      "type": "error",
      "name": "OwnableUnauthorizedAccount",
      "inputs": [
        {
          "name": "account",
          "type": "address",
          "internalType": "address"
        }
      ]
    },
    {
      "type": "error",
      "name": "PushAirdropClaimNotAllowed",
      "inputs": []
    },
    {
      "type": "error",
      "name": "ReentrancyGuardReentrantCall",
      "inputs": []
    },
    {
      "type": "error",
      "name": "SafeERC20FailedOperation",
      "inputs": [
        {
          "name": "token",
          "type": "address",
          "internalType": "address"
        }
      ]
    },
    {
      "type": "error",
      "name": "ZeroAmountToDistribute",
      "inputs": []
    }
  ],
  "bytecode": {
    "object": "0x60a03461008857601f611c3338819003918201601f19168301916001600160401b0383118484101761008c5780849260209460405283398101031261008857516001600160a01b03811681036100885760805261005a6100a0565b6100626100a0565b604051611adc90816101378239608051818181610c3a01528181610d1c015261163e0152f35b5f80fd5b634e487b7160e01b5f52604160045260245ffd5b5f516020611c135f395f51905f525460ff8160401c16610127576002600160401b03196001600160401b038216016100d55750565b6001600160401b0319166001600160401b039081175f516020611c135f395f51905f52556040519081527fc7f505b2f371ae2175ee4913f4499e1f2633a7b5936321eed1cdaeb6115181d290602090a1565b63f92ee8a960e01b5f5260045ffdfe6080806040526004361015610012575f80fd5b5f905f3560e01c90816306fdde031461111457508063222abc11146110ec5780632eb4a7ab146110cf578063429c6e5b146110a957806349df728c14610fbf5780634b32102a14610dc55780634be7adee14610d50578063572b6c0514610cfb5780636f62c3a614610cd2578063715018a614610c695780637da0a87714610c245780638da5cb5b14610bef578063ae0b51df14610bae578063b026a47f146106a0578063b7f1aca81461064a578063cd63d9301461062c578063cfdbf25414610610578063ef692c7d14610221578063efca2eed14610203578063f2fde38b146101d6578063f364c90c1461013b5763fc0c546a14610110575f80fd5b346101385780600319360112610138576001546040516001600160a01b039091168152602090f35b80fd5b503461013857604036600319011261013857600354604051633cd9324360e21b81526004803590820152602480359082015290602090829060449082906001600160a01b03165afa9081156101cb576020929161019e575b506040519015158152f35b6101be9150823d84116101c4575b6101b68183611249565b8101906113ed565b5f610193565b503d6101ac565b6040513d84823e3d90fd5b5034610138576020366003190112610138576102006101f36111ed565b6101fb611405565b61137c565b80f35b50346101385780600319360112610138576020600454604051908152f35b5034610138576080366003190112610138576004356001600160401b0381116104d257610252903690600401611219565b906024356001600160401b03811161039a57610272903690600401611219565b6044929192356001600160401b03811161060c57610294903690600401611219565b6064356001600160401b038111610608576102b3903690600401611219565b90956102bd611405565b6102c56114e6565b606488116105f9578488148015906105ef575b80156105e5575b6105d657889489978a5b8a811061052a57506005548015159081610515575b5061050657909336829003601e190191908b5b8b811061039e578c8c8c8c8c61032981600454611323565b60045560405192835260208301526060604083015282606083015260018060fb1b03831161039a57816080917fcb717668fc2be4cb2b22f131f5c0055a75ad81c1cb5003da116c8e8f0407c58c9460051b8091848401378101030190a160015f516020611a905f395f51905f525580f35b8380fd5b6103a9818d8c611344565b35906103be6103b9828a89611344565b611368565b6103c982858c611344565b3590888310156104f1578260051b860135878112156104ec5786018035906001600160401b0382116104e657602001908060051b360382136104e6576104119184848861151e565b156104d6578f60018060a01b0360035416803b156104d25760405163762ba3ff60e11b81526004810187905260248101859052604481018590529082908290606490829084905af180156101cb576104b9575b50506040816001956104a0857ff75d5c8724380d126d0ce1ef2c57b7e856e7fe00051f6184966b31323463cf1295898060a01b038a5416611458565b82519485526020850152858060a01b031692a201610311565b816104c391611249565b6104ce578f5f610464565b8f80fd5b5080fd5b5063582f497d60e11b8f5260048ffd5b50508f80fd5b508f80fd5b50634e487b7160e01b8f52603260045260248ffd5b636fd8707b60e11b8b5260048bfd5b905061052388600454611323565b115f6102fe565b98966105378a8c8b611344565b35906105476103b98c8688611344565b916105538c898b611344565b35926001600160a01b0316156105c75782156105b857610572906112b6565b6105a9579061058091611323565b965f19811461059557600180910199016102e9565b634e487b7160e01b8c52601160045260248cfd5b63cce553a960e01b8d5260048dfd5b63a68332cd60e01b8e5260048efd5b637e59fcff60e01b8e5260048efd5b632c635df560e11b8952600489fd5b50818314156102df565b50828514156102d8565b632a8677b560e21b8952600489fd5b8780fd5b8580fd5b5034610138578060031936011261013857602060405160648152f35b50346101385780600319360112610138576020600554604051908152f35b5034610138576020366003190112610138577f64687926ea82d024193ae2d49d2c6e63089c2caf9cba13ff897d094f1526f017604060043561068a611405565b600554908060055582519182526020820152a180f35b50346101385760a0366003190112610138576004356001600160401b0381116104d257366023820112156104d2578060040135906001600160401b038211610b9a578290604051926106fc6020601f19601f8401160185611249565b8084523660248284010111610b9657806024602093018386013783010152610722611203565b6044356064356001600160a01b0381168103610b92575f516020611ab05f395f51905f52549360ff8560401c1615946001600160401b03811680159081610b8a575b6001149081610b80575b159081610b77575b50610b685767ffffffffffffffff1981166001175f516020611ab05f395f51905f525585610b3c575b506040516103bb808201908282106001600160401b03831117610b28576020918391611695833930815203019087f08015610b1d576001600160a01b0316936107e6611610565b815115610b0e576001600160a01b0316918215610aff578315610af0578415610ae1576040516318160ddd60e01b8152602081600481875afa9081610aae575b5061083a57630f58058360e11b8752600487fd5b604051633cd9324360e21b8152876004820152876024820152602081604481895afa9081610a91575b5061087757632b58d96960e01b8752600487fd5b61088b90610883611610565b6101fb611610565b8051906001600160401b038211610a7d5781906108a8885461127e565b601f8111610a0c575b50602090601f831160011461099f578892610994575b50508160011b915f199060031b1c19161785555b6bffffffffffffffffffffffff60a01b60015416176001556002556bffffffffffffffffffffffff60a01b6003541617600355610916611610565b61091e611610565b60015f516020611a905f395f51905f525560843560055561093c5780f35b68ff0000000000000000195f516020611ab05f395f51905f5254165f516020611ab05f395f51905f52557fc7f505b2f371ae2175ee4913f4499e1f2633a7b5936321eed1cdaeb6115181d2602060405160018152a180f35b015190505f806108c7565b8880525f516020611a705f395f51905f529250601f198416895b8181106109f457509084600195949392106109dc575b505050811b0185556108db565b01515f1960f88460031b161c191690555f80806109cf565b929360206001819287860151815501950193016109b9565b909150878052601f830160051c5f516020611a705f395f51905f52019060208410610a68575b90601f8493920160051c5f516020611a705f395f51905f5201905b818110610a5a57506108b1565b898155849350600101610a4d565b5f516020611a705f395f51905f529150610a32565b634e487b7160e01b87526041600452602487fd5b610aa99060203d6020116101c4576101b68183611249565b610863565b6020813d602011610ad9575b81610ac760209383611249565b81010312610ad55751610826565b5f80fd5b3d9150610aba565b632b58d96960e01b8752600487fd5b639dd854d360e01b8752600487fd5b630f58058360e11b8752600487fd5b632e43296560e01b8752600487fd5b6040513d88823e3d90fd5b634e487b7160e01b89526041600452602489fd5b68ffffffffffffffffff191668010000000000000001175f516020611ab05f395f51905f52555f61079f565b63f92ee8a960e01b8752600487fd5b9050155f610776565b303b15915061076e565b879150610764565b8480fd5b8280fd5b634e487b7160e01b83526041600452602483fd5b5034610138576060366003190112610138576044356001600160401b0381116104d25790610be160049236908401611219565b50506341cbd5e560e11b8152fd5b50346101385780600319360112610138575f516020611a505f395f51905f52546040516001600160a01b039091168152602090f35b50346101385780600319360112610138576040517f00000000000000000000000000000000000000000000000000000000000000006001600160a01b03168152602090f35b5034610138578060031936011261013857610c82611405565b5f516020611a505f395f51905f5280546001600160a01b0319811690915581906001600160a01b03167f8be0079c531659141344cd1fd0a4f28419497f9722a3daafe3b4186f6b6457e08280a380f35b5034610138576020366003190112610138576020610cf16004356112b6565b1515604051908152f35b5034610138576020366003190112610138576020610d176111ed565b6040517f00000000000000000000000000000000000000000000000000000000000000006001600160a01b039081169216919091148152f35b5034610138576060366003190112610138576004356001600160401b0381116104d257610d81903690600401611219565b50506024356001600160401b0381116104d257610da2903690600401611219565b50506044356001600160401b0381116104d25790610be160049236908401611219565b5034610ad5576080366003190112610ad557600435610de2611203565b90604435906064356001600160401b038111610ad557610e06903690600401611219565b9390610e10611405565b610e186114e6565b6001600160a01b038216948515610fb0578415610fa1576005548015159081610f8c575b50610f7d57610e4a846112b6565b610f6e57610e5a9185848661151e565b15610f5f576003546001600160a01b0316803b15610ad55760405163762ba3ff60e11b8152600481018490526024810185905260448101859052905f908290606490829084905af18015610f5457610f17575b5091604091610ef8827ff75d5c8724380d126d0ce1ef2c57b7e856e7fe00051f6184966b31323463cf1295610ee482600454611323565b6004556001546001600160a01b0316611458565b82519182526020820152a260015f516020611a905f395f51905f525580f35b7ff75d5c8724380d126d0ce1ef2c57b7e856e7fe00051f6184966b31323463cf129391955091610f495f604094611249565b5f9591935091610ead565b6040513d5f823e3d90fd5b63582f497d60e11b5f5260045ffd5b63cce553a960e01b5f5260045ffd5b636fd8707b60e11b5f5260045ffd5b9050610f9a86600454611323565b115f610e3c565b63a68332cd60e01b5f5260045ffd5b637e59fcff60e01b5f5260045ffd5b34610ad5576020366003190112610ad557610fd86111ed565b610fe0611405565b6001600160a01b03811690811561109a576001546040516370a0823160e01b815230600482015291906001600160a01b0316602083602481845afa928315610f54575f93611062575b5091611059816020937f6352c5382c4a4578e712449ca65e83cdb392d045dfcf1cad9615189db2da244b95611458565b604051908152a2005b9250906020833d602011611092575b8161107e60209383611249565b81010312610ad55791519190611059611029565b3d9150611071565b634261081360e11b5f5260045ffd5b34610ad5576020366003190112610ad55760206110c76004356112b6565b604051908152f35b34610ad5575f366003190112610ad5576020600254604051908152f35b34610ad5575f366003190112610ad5576003546040516001600160a01b039091168152602090f35b34610ad5575f366003190112610ad5575f905f54916111328361127e565b8083526020830193600181169081156111d25750600114611189575b509061115e816040930382611249565b8151928391602083525180918160208501528484015e5f828201840152601f01601f19168101030190f35b5f8080525f516020611a705f395f51905f52939250905b8082106111b85750909150810160200161115e61114e565b9192600181602092548385880101520191019092916111a0565b60ff1916855250151560051b8201602001905061115e61114e565b600435906001600160a01b0382168203610ad557565b602435906001600160a01b0382168203610ad557565b9181601f84011215610ad5578235916001600160401b038311610ad5576020808501948460051b010111610ad557565b90601f801991011681019081106001600160401b0382111761126a57604052565b634e487b7160e01b5f52604160045260245ffd5b90600182811c921680156112ac575b602083101461129857565b634e487b7160e01b5f52602260045260245ffd5b91607f169161128d565b60035460405163429c6e5b60e01b81526004810192909252602090829060249082906001600160a01b03165afa908115610f54575f916112f4575090565b90506020813d60201161131b575b8161130f60209383611249565b81010312610ad5575190565b3d9150611302565b9190820180921161133057565b634e487b7160e01b5f52601160045260245ffd5b91908110156113545760051b0190565b634e487b7160e01b5f52603260045260245ffd5b356001600160a01b0381168103610ad55790565b6001600160a01b031680156113da575f516020611a505f395f51905f5280546001600160a01b0319811683179091556001600160a01b03167f8be0079c531659141344cd1fd0a4f28419497f9722a3daafe3b4186f6b6457e05f80a3565b631e4fbdf760e01b5f525f60045260245ffd5b90816020910312610ad557518015158103610ad55790565b5f516020611a505f395f51905f52546001600160a01b039081169061142861163b565b160361143057565b61143861163b565b63118cdaa760e01b5f9081526001600160a01b0391909116600452602490fd5b60405163a9059cbb60e01b60208281019182526001600160a01b03909416602483015260448083019590955293815290925f91611496606482611249565b519082855af115610f54575f513d6114dd57506001600160a01b0381163b155b6114bd5750565b635274afe760e01b5f9081526001600160a01b0391909116600452602490fd5b600114156114b6565b60025f516020611a905f395f51905f52541461150f5760025f516020611a905f395f51905f5255565b633ee5aeb560e01b5f5260045ffd5b9194929394604051916020830193845260018060a01b0316604083015260608201526060815261154f608082611249565b519020604051602081019182526020815261156b604082611249565b519020600254926001600160401b03851161126a578460051b604051956115956020830188611249565b86526020860190820191368311610ad557905b82821061160057505050905f915b84518310156115f85760208360051b86010151908181105f146115e7575f52602052600160405f205b9201916115b6565b905f52602052600160405f206115df565b915092501490565b81358152602091820191016115a8565b60ff5f516020611ab05f395f51905f525460401c161561162c57565b631afcd79f60e31b5f5260045ffd5b337f00000000000000000000000000000000000000000000000000000000000000006001600160a01b03161480611689575b15611685576013193601368111611330573560601c90565b3390565b50601436101561166d56fe60803460b857601f6103bb38819003918201601f19168301916001600160401b0383118484101760bc5780849260209460405283398101031260b857516001600160a01b0381169081900360b857801560a5575f80546001600160a01b031981168317825560405192916001600160a01b03909116907f8be0079c531659141344cd1fd0a4f28419497f9722a3daafe3b4186f6b6457e09080a36102ea90816100d18239f35b631e4fbdf760e01b5f525f60045260245ffd5b5f80fd5b634e487b7160e01b5f52604160045260245ffdfe60806040526004361015610011575f80fd5b5f3560e01c8063429c6e5b1461024f578063715018a6146101f85780638da5cb5b146101d1578063bd40bde614610196578063ec5747fe14610133578063f2fde38b146100aa5763f364c90c14610066575f80fd5b346100a65760403660031901126100a657602061009c6004358060081c5f526001602052600160ff60405f205492161b16151590565b6040519015158152f35b5f80fd5b346100a65760203660031901126100a6576004356001600160a01b038116908190036100a6576100d86102b7565b8015610120575f80546001600160a01b03198116831782556001600160a01b0316907f8be0079c531659141344cd1fd0a4f28419497f9722a3daafe3b4186f6b6457e09080a3005b631e4fbdf760e01b5f525f60045260245ffd5b346100a65760407f08401774913e94f43659333293c99fdfdea868c488d679967e054abc8b5ae8346101643661029d565b61016f9492946102b7565b8460081c5f526001602052825f20600160ff87161b815417905582519182526020820152a2005b346100a65760206101c86101a93661029d565b50508060081c5f526001602052600160ff60405f205492161b16151590565b15604051908152f35b346100a6575f3660031901126100a6575f546040516001600160a01b039091168152602090f35b346100a6575f3660031901126100a6576102106102b7565b5f80546001600160a01b0319811682556001600160a01b03167f8be0079c531659141344cd1fd0a4f28419497f9722a3daafe3b4186f6b6457e08280a3005b346100a65760203660031901126100a6576102836004358060081c5f526001602052600160ff60405f205492161b16151590565b156102955760205f195b604051908152f35b60205f61028d565b60609060031901126100a657600435906024359060443590565b5f546001600160a01b031633036102ca57565b63118cdaa760e01b5f523360045260245ffdfea164736f6c634300081c000a9016d09d72d40fdae2fd8ceac6b6234c7706214fd39c1cd1e609a0528c199300290decd9548b62a8d60345a988386fc84ba6bc95484008f6362f93160ef3e5639b779b17422d0df92223018b32b4d1fa46e071723d6817e2486d003becc55f00f0c57e16840df040f15088dc2f81fe391c3923bec73e23a9662efc9c229c6a00a164736f6c634300081c000af0c57e16840df040f15088dc2f81fe391c3923bec73e23a9662efc9c229c6a00",
    "linkReferences": {}
  },
  "methodIdentifiers": {
    "MAX_BATCH_SIZE()": "cfdbf254",
    "batchClaim(uint256[],uint256[],bytes32[][])": "4be7adee",
    "batchDistribute(uint256[],address[],uint256[],bytes32[][])": "ef692c7d",
    "claim(uint256,uint256,bytes32[])": "ae0b51df",
    "claimTracker()": "222abc11",
    "distribute(uint256,address,uint256,bytes32[])": "4b32102a",
    "distributionCap()": "cd63d930",
    "getClaimedAmount(uint256)": "429c6e5b",
    "initialize(string,address,bytes32,address,uint256)": "b026a47f",
    "isClaimed(uint256,uint256)": "f364c90c",
    "isDistributed(uint256)": "6f62c3a6",
    "isTrustedForwarder(address)": "572b6c05",
    "merkleRoot()": "2eb4a7ab",
    "name()": "06fdde03",
    "owner()": "8da5cb5b",
    "renounceOwnership()": "715018a6",
    "setDistributionCap(uint256)": "b7f1aca8",
    "token()": "fc0c546a",
    "totalDistributed()": "efca2eed",
    "transferOwnership(address)": "f2fde38b",
    "trustedForwarder()": "7da0a877",
    "withdrawTokens(address)": "49df728c"
  },
  "userdoc": {
    "version": 1,
    "kind": "user",
    "methods": {
      "MAX_BATCH_SIZE()": {
        "notice": "Maximum number of items allowed in batch operations to prevent OOM and gas limit issues."
      },
      "batchClaim(uint256[],uint256[],bytes32[][])": {
        "notice": "Claims tokens for multiple recipients - NOT ALLOWED in push airdrops."
      },
      "batchDistribute(uint256[],address[],uint256[],bytes32[][])": {
        "notice": "Distributes tokens to multiple recipients in a single transaction."
      },
      "claim(uint256,uint256,bytes32[])": {
        "notice": "Claims tokens for a recipient - NOT ALLOWED in push airdrops."
      },
      "claimTracker()": {
        "notice": "Returns the claim tracker contract."
      },
      "distribute(uint256,address,uint256,bytes32[])": {
        "notice": "Distributes tokens to a single recipient with Merkle proof verification."
      },
      "distributionCap()": {
        "notice": "Returns the distribution cap."
      },
      "getClaimedAmount(uint256)": {
        "notice": "Gets the amount already claimed for a specific index."
      },
      "initialize(string,address,bytes32,address,uint256)": {
        "notice": "Initializes the push airdrop contract with specified parameters."
      },
      "isClaimed(uint256,uint256)": {
        "notice": "Checks if a claim has been fully claimed for a specific index."
      },
      "isDistributed(uint256)": {
        "notice": "Checks if tokens have been distributed to a specific index."
      },
      "merkleRoot()": {
        "notice": "Returns the Merkle root for verifying airdrop claims."
      },
      "name()": {
        "notice": "Returns the name of this airdrop."
      },
      "setDistributionCap(uint256)": {
        "notice": "Updates the distribution cap."
      },
      "token()": {
        "notice": "Returns the token being distributed in this airdrop."
      },
      "totalDistributed()": {
        "notice": "Returns the total amount of tokens distributed so far."
      },
      "withdrawTokens(address)": {
        "notice": "Allows the owner to withdraw any tokens remaining in the contract."
      }
    },
    "events": {
      "BatchClaimed(address,uint256,uint256[],uint256[])": {
        "notice": "Emitted when a user claims multiple allocations in a single transaction."
      },
      "BatchTokensDistributed(uint256,uint256,uint256[])": {
        "notice": "Emitted when tokens are distributed to multiple recipients in a batch."
      },
      "Claimed(address,uint256,uint256)": {
        "notice": "Emitted when a user successfully claims their airdrop allocation."
      },
      "DistributionCapUpdated(uint256,uint256)": {
        "notice": "Emitted when the distribution cap is updated."
      },
      "TokensDistributed(address,uint256,uint256)": {
        "notice": "Emitted when tokens are distributed to a recipient."
      },
      "TokensWithdrawn(address,uint256)": {
        "notice": "Emitted when the contract owner withdraws unclaimed tokens."
      }
    },
    "errors": {
      "AlreadyDistributed()": [
        {
          "notice": "Thrown when tokens have already been distributed to a specific index."
        }
      ],
      "BatchSizeExceedsLimit()": [
        {
          "notice": "Error indicating that the batch size exceeds the maximum allowed limit."
        }
      ],
      "DistributionCapExceeded()": [
        {
          "notice": "Thrown when a distribution would exceed the configured distribution cap."
        }
      ],
      "InvalidAirdropName()": [
        {
          "notice": "Thrown when the airdrop name is empty or invalid."
        }
      ],
      "InvalidClaimTrackerAddress()": [
        {
          "notice": "Error indicating that an invalid claim tracker address was provided."
        }
      ],
      "InvalidDistributionAddress()": [
        {
          "notice": "Thrown when attempting to distribute to an invalid address."
        }
      ],
      "InvalidInputArrayLengths()": [
        {
          "notice": "Error indicating that input array lengths do not match in batch operations."
        }
      ],
      "InvalidMerkleProof()": [
        {
          "notice": "Error indicating that a provided Merkle proof is invalid for the claim parameters."
        }
      ],
      "InvalidMerkleRoot()": [
        {
          "notice": "Error indicating that a provided Merkle root is invalid."
        }
      ],
      "InvalidTokenAddress()": [
        {
          "notice": "Error indicating that an invalid token address was provided."
        }
      ],
      "InvalidWithdrawalAddress()": [
        {
          "notice": "Error indicating that an invalid withdrawal address was provided."
        }
      ],
      "PushAirdropClaimNotAllowed()": [
        {
          "notice": "Thrown when attempting to claim tokens from a push airdrop."
        }
      ],
      "ZeroAmountToDistribute()": [
        {
          "notice": "Thrown when attempting to distribute zero tokens."
        }
      ]
    },
    "notice": "Implementation of a push airdrop contract where only the admin can distribute tokens to recipients in the ATK Protocol."
  },
  "devdoc": {
    "version": 1,
    "kind": "dev",
    "author": "SettleMint Tokenization Services",
    "details": "This contract implements an admin-controlled distribution system where:      - Only the contract owner can distribute tokens to recipients      - Recipients cannot claim tokens themselves - they must be pushed by the admin      - Uses Merkle proof verification for secure distribution validation      - Tracks distributed status using ATKBitmapClaimTracker      - Supports both single and batch distributions      - Includes optional distribution cap for controlling total distributions      The contract extends ATKAirdrop but overrides claim functions to prevent user-initiated claims.",
    "methods": {
      "batchClaim(uint256[],uint256[],bytes32[][])": {
        "details": "Overrides the abstract batchClaim function from ATKAirdrop to prevent user-initiated claims.      In push airdrops, only the admin can distribute tokens.      All parameters are unused as this function always reverts."
      },
      "batchDistribute(uint256[],address[],uint256[],bytes32[][])": {
        "details": "Only the contract owner can distribute tokens. Batch version for gas efficiency.",
        "params": {
          "amounts": "The amounts of tokens to distribute to each recipient.",
          "indices": "The indices of the distributions in the Merkle tree.",
          "merkleProofs": "The Merkle proof arrays for verification of each distribution.",
          "recipients": "The addresses to receive tokens."
        }
      },
      "claim(uint256,uint256,bytes32[])": {
        "details": "Overrides the abstract claim function from ATKAirdrop to prevent user-initiated claims.      In push airdrops, only the admin can distribute tokens.      All parameters are unused as this function always reverts."
      },
      "claimTracker()": {
        "returns": {
          "_0": "The claim tracker contract."
        }
      },
      "constructor": {
        "params": {
          "forwarder_": "The address of the forwarder contract."
        }
      },
      "distribute(uint256,address,uint256,bytes32[])": {
        "details": "Only the contract owner can distribute tokens. Verifies Merkle proof and distribution cap.",
        "params": {
          "amount": "The amount of tokens to distribute.",
          "index": "The index of the distribution in the Merkle tree.",
          "merkleProof": "The Merkle proof array for verification.",
          "recipient": "The address to receive tokens."
        }
      },
      "distributionCap()": {
        "returns": {
          "_0": "The maximum tokens that can be distributed (0 for no cap)."
        }
      },
      "getClaimedAmount(uint256)": {
        "params": {
          "index": "The index to check."
        },
        "returns": {
          "_0": "claimedAmount The amount already claimed for this index."
        }
      },
      "initialize(string,address,bytes32,address,uint256)": {
        "details": "Sets up the base airdrop functionality and push-specific parameters.      Deploys its own bitmap claim tracker for efficient distribution tracking.",
        "params": {
          "distributionCap_": "The maximum tokens that can be distributed (0 for no cap).",
          "name_": "The human-readable name for this airdrop.",
          "owner_": "The initial owner of the contract (admin who can distribute tokens).",
          "root_": "The Merkle root for verifying distributions.",
          "token_": "The address of the ERC20 token to be distributed."
        }
      },
      "isClaimed(uint256,uint256)": {
        "params": {
          "index": "The index to check in the Merkle tree.",
          "totalAmount": "The total amount allocated for this index."
        },
        "returns": {
          "_0": "claimed True if the index has been fully claimed, false otherwise."
        }
      },
      "isDistributed(uint256)": {
        "params": {
          "index": "The index to check."
        },
        "returns": {
          "_0": "distributed True if tokens have been distributed for this index."
        }
      },
      "isTrustedForwarder(address)": {
        "details": "Indicates whether any particular address is the trusted forwarder."
      },
      "merkleRoot()": {
        "returns": {
          "_0": "The Merkle root for verifying airdrop claims."
        }
      },
      "name()": {
        "returns": {
          "_0": "The human-readable name of the airdrop."
        }
      },
      "owner()": {
        "details": "Returns the address of the current owner."
      },
      "renounceOwnership()": {
        "details": "Leaves the contract without owner. It will not be possible to call `onlyOwner` functions. Can only be called by the current owner. NOTE: Renouncing ownership will leave the contract without an owner, thereby disabling any functionality that is only available to the owner."
      },
      "setDistributionCap(uint256)": {
        "details": "Only the owner can update the distribution cap.",
        "params": {
          "newDistributionCap_": "The new distribution cap (0 for no cap)."
        }
      },
      "token()": {
        "returns": {
          "_0": "The ERC20 token being distributed."
        }
      },
      "totalDistributed()": {
        "returns": {
          "_0": "The total amount distributed."
        }
      },
      "transferOwnership(address)": {
        "details": "Transfers ownership of the contract to a new account (`newOwner`). Can only be called by the current owner."
      },
      "trustedForwarder()": {
        "details": "Returns the address of the trusted forwarder."
      },
      "withdrawTokens(address)": {
        "params": {
          "to": "The address to send the withdrawn tokens to."
        }
      }
    },
    "events": {
      "BatchClaimed(address,uint256,uint256[],uint256[])": {
        "params": {
          "amounts": "The amounts claimed for each index.",
          "claimant": "The address that claimed the tokens.",
          "indices": "The indices of the claims in the Merkle tree.",
          "totalAmount": "The total amount of tokens claimed in the batch."
        }
      },
      "BatchTokensDistributed(uint256,uint256,uint256[])": {
        "params": {
          "indices": "The indices of the distributions in the Merkle tree.",
          "recipientCount": "The number of recipients in the batch.",
          "totalAmount": "The total amount of tokens distributed in the batch."
        }
      },
      "Claimed(address,uint256,uint256)": {
        "params": {
          "amount": "The amount of tokens claimed.",
          "claimant": "The address that claimed the tokens.",
          "index": "The index of the claim in the Merkle tree."
        }
      },
      "DistributionCapUpdated(uint256,uint256)": {
        "params": {
          "newCap": "The new distribution cap.",
          "oldCap": "The previous distribution cap."
        }
      },
      "Initialized(uint64)": {
        "details": "Triggered when the contract has been initialized or reinitialized."
      },
      "TokensDistributed(address,uint256,uint256)": {
        "params": {
          "amount": "The amount of tokens distributed.",
          "index": "The index of the distribution in the Merkle tree.",
          "recipient": "The address that received the tokens."
        }
      },
      "TokensWithdrawn(address,uint256)": {
        "params": {
          "amount": "The amount of tokens withdrawn.",
          "to": "The address receiving the withdrawn tokens."
        }
      }
    },
    "errors": {
      "InvalidInitialization()": [
        {
          "details": "The contract is already initialized."
        }
      ],
      "NotInitializing()": [
        {
          "details": "The contract is not initializing."
        }
      ],
      "OwnableInvalidOwner(address)": [
        {
          "details": "The owner is not a valid owner account. (eg. `address(0)`)"
        }
      ],
      "OwnableUnauthorizedAccount(address)": [
        {
          "details": "The caller account is not authorized to perform an operation."
        }
      ],
      "PushAirdropClaimNotAllowed()": [
        {
          "details": "Push airdrops only allow admin-initiated distributions, not user claims."
        }
      ],
      "ReentrancyGuardReentrantCall()": [
        {
          "details": "Unauthorized reentrant call."
        }
      ],
      "SafeERC20FailedOperation(address)": [
        {
          "details": "An operation with an ERC-20 token failed."
        }
      ]
    },
    "title": "ATK Push Airdrop Implementation"
  },
  "id": 8
}