{
  "abi": [
    {
      "type": "constructor",
      "inputs": [
        {
          "name": "forwarder",
          "type": "address",
          "internalType": "address"
        }
      ],
      "stateMutability": "nonpayable"
    },
    {
      "type": "function",
      "name": "DEFAULT_ADMIN_ROLE",
      "inputs": [],
      "outputs": [
        {
          "name": "",
          "type": "bytes32",
          "internalType": "bytes32"
        }
      ],
      "stateMutability": "view"
    },
    {
      "type": "function",
      "name": "allAirdropsLength",
      "inputs": [],
      "outputs": [
        {
          "name": "count",
          "type": "uint256",
          "internalType": "uint256"
        }
      ],
      "stateMutability": "view"
    },
    {
      "type": "function",
      "name": "atkPushAirdropImplementation",
      "inputs": [],
      "outputs": [
        {
          "name": "",
          "type": "address",
          "internalType": "address"
        }
      ],
      "stateMutability": "view"
    },
    {
      "type": "function",
      "name": "create",
      "inputs": [
        {
          "name": "name",
          "type": "string",
          "internalType": "string"
        },
        {
          "name": "token",
          "type": "address",
          "internalType": "address"
        },
        {
          "name": "root",
          "type": "bytes32",
          "internalType": "bytes32"
        },
        {
          "name": "owner",
          "type": "address",
          "internalType": "address"
        },
        {
          "name": "distributionCap",
          "type": "uint256",
          "internalType": "uint256"
        }
      ],
      "outputs": [
        {
          "name": "airdropProxyAddress",
          "type": "address",
          "internalType": "address"
        }
      ],
      "stateMutability": "nonpayable"
    },
    {
      "type": "function",
      "name": "getRoleAdmin",
      "inputs": [
        {
          "name": "role",
          "type": "bytes32",
          "internalType": "bytes32"
        }
      ],
      "outputs": [
        {
          "name": "",
          "type": "bytes32",
          "internalType": "bytes32"
        }
      ],
      "stateMutability": "view"
    },
    {
      "type": "function",
      "name": "grantRole",
      "inputs": [
        {
          "name": "role",
          "type": "bytes32",
          "internalType": "bytes32"
        },
        {
          "name": "account",
          "type": "address",
          "internalType": "address"
        }
      ],
      "outputs": [],
      "stateMutability": "nonpayable"
    },
    {
      "type": "function",
      "name": "hasRole",
      "inputs": [
        {
          "name": "role",
          "type": "bytes32",
          "internalType": "bytes32"
        },
        {
          "name": "account",
          "type": "address",
          "internalType": "address"
        }
      ],
      "outputs": [
        {
          "name": "",
          "type": "bool",
          "internalType": "bool"
        }
      ],
      "stateMutability": "view"
    },
    {
      "type": "function",
      "name": "initialize",
      "inputs": [
        {
          "name": "systemAddress_",
          "type": "address",
          "internalType": "address"
        },
        {
          "name": "initialAdmin_",
          "type": "address",
          "internalType": "address"
        }
      ],
      "outputs": [],
      "stateMutability": "nonpayable"
    },
    {
      "type": "function",
      "name": "isFactorySystemAddon",
      "inputs": [
        {
          "name": "systemAddonAddress",
          "type": "address",
          "internalType": "address"
        }
      ],
      "outputs": [
        {
          "name": "isFactorySystemAddon",
          "type": "bool",
          "internalType": "bool"
        }
      ],
      "stateMutability": "view"
    },
    {
      "type": "function",
      "name": "isTrustedForwarder",
      "inputs": [
        {
          "name": "forwarder",
          "type": "address",
          "internalType": "address"
        }
      ],
      "outputs": [
        {
          "name": "",
          "type": "bool",
          "internalType": "bool"
        }
      ],
      "stateMutability": "view"
    },
    {
      "type": "function",
      "name": "predictPushAirdropAddress",
      "inputs": [
        {
          "name": "name",
          "type": "string",
          "internalType": "string"
        },
        {
          "name": "token",
          "type": "address",
          "internalType": "address"
        },
        {
          "name": "root",
          "type": "bytes32",
          "internalType": "bytes32"
        },
        {
          "name": "owner",
          "type": "address",
          "internalType": "address"
        },
        {
          "name": "distributionCap",
          "type": "uint256",
          "internalType": "uint256"
        }
      ],
      "outputs": [
        {
          "name": "predictedAddress",
          "type": "address",
          "internalType": "address"
        }
      ],
      "stateMutability": "view"
    },
    {
      "type": "function",
      "name": "renounceRole",
      "inputs": [
        {
          "name": "role",
          "type": "bytes32",
          "internalType": "bytes32"
        },
        {
          "name": "callerConfirmation",
          "type": "address",
          "internalType": "address"
        }
      ],
      "outputs": [],
      "stateMutability": "nonpayable"
    },
    {
      "type": "function",
      "name": "revokeRole",
      "inputs": [
        {
          "name": "role",
          "type": "bytes32",
          "internalType": "bytes32"
        },
        {
          "name": "account",
          "type": "address",
          "internalType": "address"
        }
      ],
      "outputs": [],
      "stateMutability": "nonpayable"
    },
    {
      "type": "function",
      "name": "supportsInterface",
      "inputs": [
        {
          "name": "interfaceId",
          "type": "bytes4",
          "internalType": "bytes4"
        }
      ],
      "outputs": [
        {
          "name": "",
          "type": "bool",
          "internalType": "bool"
        }
      ],
      "stateMutability": "view"
    },
    {
      "type": "function",
      "name": "trustedForwarder",
      "inputs": [],
      "outputs": [
        {
          "name": "",
          "type": "address",
          "internalType": "address"
        }
      ],
      "stateMutability": "view"
    },
    {
      "type": "function",
      "name": "typeId",
      "inputs": [],
      "outputs": [
        {
          "name": "",
          "type": "bytes32",
          "internalType": "bytes32"
        }
      ],
      "stateMutability": "view"
    },
    {
      "type": "function",
      "name": "updateImplementation",
      "inputs": [
        {
          "name": "_newImplementation",
          "type": "address",
          "internalType": "address"
        }
      ],
      "outputs": [],
      "stateMutability": "nonpayable"
    },
    {
      "type": "event",
      "name": "ATKPushAirdropCreated",
      "inputs": [
        {
          "name": "airdropAddress",
          "type": "address",
          "indexed": true,
          "internalType": "address"
        },
        {
          "name": "creator",
          "type": "address",
          "indexed": true,
          "internalType": "address"
        }
      ],
      "anonymous": false
    },
    {
      "type": "event",
      "name": "ImplementationUpdated",
      "inputs": [
        {
          "name": "oldImplementation",
          "type": "address",
          "indexed": true,
          "internalType": "address"
        },
        {
          "name": "newImplementation",
          "type": "address",
          "indexed": true,
          "internalType": "address"
        }
      ],
      "anonymous": false
    },
    {
      "type": "event",
      "name": "Initialized",
      "inputs": [
        {
          "name": "version",
          "type": "uint64",
          "indexed": false,
          "internalType": "uint64"
        }
      ],
      "anonymous": false
    },
    {
      "type": "event",
      "name": "RoleAdminChanged",
      "inputs": [
        {
          "name": "role",
          "type": "bytes32",
          "indexed": true,
          "internalType": "bytes32"
        },
        {
          "name": "previousAdminRole",
          "type": "bytes32",
          "indexed": true,
          "internalType": "bytes32"
        },
        {
          "name": "newAdminRole",
          "type": "bytes32",
          "indexed": true,
          "internalType": "bytes32"
        }
      ],
      "anonymous": false
    },
    {
      "type": "event",
      "name": "RoleGranted",
      "inputs": [
        {
          "name": "role",
          "type": "bytes32",
          "indexed": true,
          "internalType": "bytes32"
        },
        {
          "name": "account",
          "type": "address",
          "indexed": true,
          "internalType": "address"
        },
        {
          "name": "sender",
          "type": "address",
          "indexed": true,
          "internalType": "address"
        }
      ],
      "anonymous": false
    },
    {
      "type": "event",
      "name": "RoleRevoked",
      "inputs": [
        {
          "name": "role",
          "type": "bytes32",
          "indexed": true,
          "internalType": "bytes32"
        },
        {
          "name": "account",
          "type": "address",
          "indexed": true,
          "internalType": "address"
        },
        {
          "name": "sender",
          "type": "address",
          "indexed": true,
          "internalType": "address"
        }
      ],
      "anonymous": false
    },
    {
      "type": "error",
      "name": "AccessControlBadConfirmation",
      "inputs": []
    },
    {
      "type": "error",
      "name": "AccessControlUnauthorizedAccount",
      "inputs": [
        {
          "name": "account",
          "type": "address",
          "internalType": "address"
        },
        {
          "name": "neededRole",
          "type": "bytes32",
          "internalType": "bytes32"
        }
      ]
    },
    {
      "type": "error",
      "name": "AddressAlreadyDeployed",
      "inputs": [
        {
          "name": "deployedAddress",
          "type": "address",
          "internalType": "address"
        }
      ]
    },
    {
      "type": "error",
      "name": "Create2EmptyBytecode",
      "inputs": []
    },
    {
      "type": "error",
      "name": "FailedDeployment",
      "inputs": []
    },
    {
      "type": "error",
      "name": "InsufficientBalance",
      "inputs": [
        {
          "name": "balance",
          "type": "uint256",
          "internalType": "uint256"
        },
        {
          "name": "needed",
          "type": "uint256",
          "internalType": "uint256"
        }
      ]
    },
    {
      "type": "error",
      "name": "InvalidAddress",
      "inputs": []
    },
    {
      "type": "error",
      "name": "InvalidImplementation",
      "inputs": []
    },
    {
      "type": "error",
      "name": "InvalidInitialization",
      "inputs": []
    },
    {
      "type": "error",
      "name": "NotInitializing",
      "inputs": []
    },
    {
      "type": "error",
      "name": "ProxyCreationFailed",
      "inputs": []
    },
    {
      "type": "error",
      "name": "SameAddress",
      "inputs": []
    }
  ],
  "bytecode": {
    "object": "0x60a03461011757601f61366f38819003918201601f19168301916001600160401b0383118484101761011b5780849260209460405283398101031261011757516001600160a01b0381168103610117576080525f51602061364f5f395f51905f525460ff8160401c16610108576002600160401b03196001600160401b038216016100b2575b60405161351f908161013082396080518181816101f2015281816103040152818161044001526112bc0152f35b6001600160401b0319166001600160401b039081175f51602061364f5f395f51905f52556040519081527fc7f505b2f371ae2175ee4913f4499e1f2633a7b5936321eed1cdaeb6115181d290602090a15f610085565b63f92ee8a960e01b5f5260045ffd5b5f80fd5b634e487b7160e01b5f52604160045260245ffdfe6080806040526004361015610012575f80fd5b5f905f3560e01c90816301ffc9a714610ba357508063025b22bc14610a22578063150117bd14610a05578063229fff60146109c8578063248a9ca3146109895780632f2ff15d1461093d57806336049ba4146105f557806336568abe146105a0578063485cc95514610338578063572b6c05146102e3578063780785fe1461024a5780637bbbcb05146102215780637da0a877146101dc5780638f940f63146101a157806391d148541461014b578063a217fddf1461012f5763d547741f146100d9575f80fd5b3461012c57604036600319011261012c576101286004356100f8610c26565b9061012361011e825f525f5160206134d35f395f51905f52602052600160405f20015490565b610e2d565b6111e8565b5080f35b80fd5b503461012c578060031936011261012c57602090604051908152f35b503461012c57604036600319011261012c576040610167610c26565b9160043581525f5160206134d35f395f51905f52602052209060018060a01b03165f52602052602060ff60405f2054166040519015158152f35b503461012c578060031936011261012c5760206040517fe6442bc18db034e2c9ffc087440db5ea3b749ed065ef937ea7f503d585607e128152f35b503461012c578060031936011261012c576040517f00000000000000000000000000000000000000000000000000000000000000006001600160a01b03168152602090f35b503461012c578060031936011261012c576002546040516001600160a01b039091168152602090f35b503461012c5760206102d16102b06102a261026436610c72565b9060409694939592965196610293886102858585858c8b3060208801610d56565b03601f1981018a5289610c3c565b604051968795308c8801610d56565b03601f198101835282610c3c565b6040516105596102c286820183610c3c565b808252611327868301396111aa565b6040516001600160a01b039091168152f35b503461012c57602036600319011261012c5760206102ff610c10565b6040517f00000000000000000000000000000000000000000000000000000000000000006001600160a01b039081169216919091148152f35b503461012c57604036600319011261012c57610352610c10565b61035a610c26565b905f5160206134f35f395f51905f52549160ff8360401c16159267ffffffffffffffff811680159081610598575b600114908161058e575b159081610585575b506105765767ffffffffffffffff1981166001175f5160206134f35f395f51905f52558361054a575b5060ff5f5160206134f35f395f51905f525460401c161561053b57806103eb6103fb92610e89565b506103f581610f38565b50611002565b5082546001600160a01b0319166001600160a01b0391909116178255604051611c338082019067ffffffffffffffff82118383101761052757602091839161188083397f00000000000000000000000000000000000000000000000000000000000000006001600160a01b0316815203019083f0801561051c57600280546001600160a01b0319166001600160a01b039290921691821790556040519190837faa3f731066a578e5f39b4215468d826cdd15373cbc0dfc9cb9bdc649718ef7da8180a36104c6575080f35b60207fc7f505b2f371ae2175ee4913f4499e1f2633a7b5936321eed1cdaeb6115181d29168ff0000000000000000195f5160206134f35f395f51905f5254165f5160206134f35f395f51905f525560018152a180f35b6040513d84823e3d90fd5b634e487b7160e01b85526041600452602485fd5b631afcd79f60e31b8452600484fd5b68ffffffffffffffffff191668010000000000000001175f5160206134f35f395f51905f52555f6103c3565b63f92ee8a960e01b8552600485fd5b9050155f61039a565b303b159150610392565b859150610388565b503461012c57604036600319011261012c576105ba610c26565b6001600160a01b036105ca6112b9565b166001600160a01b038216036105e657610128906004356111e8565b63334bd91960e11b8252600482fd5b5034610850576106436102a261060a36610c72565b90610619969493959296610d9f565b60405196610633886102858585858c8b3060208801610d56565b6040519687953060208801610d56565b604051906105596106576020820184610c3c565b808352611327602084013961066d8382846111aa565b610675610d9f565b6001600160a01b03165f8181526001602052604090205490939060ff1661092a57906106a36106a992611291565b9261116a565b80511561091b576020815191015ff53d1519811516610845576001600160a01b031690811561090c5781036108fd57805f52600160205260405f20600160ff198254161790556004602060018060a01b035f5416604051928380926398468e5160e01b82525afa908115610845575f916108bb575b506001600160a01b031680151580610854575b610800575b506001600160a01b036107476112b9565b169060405191817f0927396ad213079c2892f36ac2dfff1d2acf5ec683425fc659a4bb61fae3ca1a8580a3600354680100000000000000008110156107ec5760018101806003558110156107d8576003602094527fc2575a0e9e593c00f959f8c92f12db2869c3395a3b0502d05e2516446f71f85b01816bffffffffffffffffffffffff60a01b8254161790558152f35b634e487b7160e01b84526032600452602484fd5b634e487b7160e01b84526041600452602484fd5b803b15610850575f8091602460405180948193631105e3d560e31b83528760048401525af1801561084557156107365761083d9192505f90610c3c565b5f905f610736565b6040513d5f823e3d90fd5b5f80fd5b506040516301ffc9a760e01b815263118f21f760e31b6004820152602081602481855afa908115610845575f9161088c575b50610731565b6108ae915060203d6020116108b4575b6108a68183610c3c565b810190610d1a565b5f610886565b503d61089c565b90506020813d6020116108f5575b816108d660209383610c3c565b8101031261085057516001600160a01b0381168103610850575f61071e565b3d91506108c9565b6335279f5d60e21b5f5260045ffd5b63b06ebf3d60e01b5f5260045ffd5b631328927760e21b5f5260045ffd5b8363d0dc594960e01b5f5260045260245ffd5b346108505760403660031901126108505761098760043561095c610c26565b9061098261011e825f525f5160206134d35f395f51905f52602052600160405f20015490565b6110cc565b005b346108505760203660031901126108505760206109c06004355f525f5160206134d35f395f51905f52602052600160405f20015490565b604051908152f35b34610850576020366003190112610850576001600160a01b036109e9610c10565b165f526001602052602060ff60405f2054166040519015158152f35b34610850575f366003190112610850576020600354604051908152f35b3461085057602036600319011261085057610a3b610c10565b610a436112b9565b6001600160a01b0381165f9081527fb121b6c2cfb68d56d259fa39abd93d7a85e352365bbcbddf27041e20d031c3d3602052604090205460ff1615610b5f57506001600160a01b03168015610b50576002546001600160a01b03811690828214610b41576040516301ffc9a760e01b8152631798692160e21b6004820152602081602481875afa908115610845575f91610b22575b5015610b13576001600160a01b03191682176002557faa3f731066a578e5f39b4215468d826cdd15373cbc0dfc9cb9bdc649718ef7da5f80a3005b63340aafcd60e11b5f5260045ffd5b610b3b915060203d6020116108b4576108a68183610c3c565b84610ad8565b63367558c360e01b5f5260045ffd5b63e6c4247b60e01b5f5260045ffd5b63e2517d3f60e01b5f9081526001600160a01b03919091166004527fecaefa0171c08a6ded02d98b9432940d3852ef2c7f5007661eb8de37c5a1adc5602452604490fd5b34610850576020366003190112610850576004359063ffffffff60e01b82168092036108505760209163105ce17160e11b8114908115610be5575b5015158152f35b637965db0b60e01b811491508115610bff575b5083610bde565b6301ffc9a760e01b14905083610bf8565b600435906001600160a01b038216820361085057565b602435906001600160a01b038216820361085057565b90601f8019910116810190811067ffffffffffffffff821117610c5e57604052565b634e487b7160e01b5f52604160045260245ffd5b60a06003198201126108505760043567ffffffffffffffff811161085057816023820112156108505780600401359067ffffffffffffffff8211610c5e5760405192610cc8601f8401601f191660200185610c3c565b8284526024838301011161085057815f926024602093018386013783010152906024356001600160a01b03811681036108505790604435906064356001600160a01b0381168103610850579060843590565b90816020910312610850575180151581036108505790565b805180835260209291819084018484015e5f828201840152601f01601f1916010190565b9296959491610d7d9060a09592600180881b0316855260c0602086015260c0850190610d32565b96600180861b031660408401526060830152600180841b031660808201520152565b610da76112b9565b6001600160a01b0381165f9081527f8f7e9a8734279607aeaac474f24949ddc99eae25c0da72edcf5ad21022be2c9e602052604090205460ff1615610de95750565b63e2517d3f60e01b5f9081526001600160a01b03919091166004527ffc425f2263d0df187444b70e47283d622c70181c5baebb1306a01edba1ce184c602452604490fd5b610e356112b9565b815f525f5160206134d35f395f51905f5260205260405f2060018060a01b0382165f5260205260ff60405f20541615610e6c575050565b63e2517d3f60e01b5f5260018060a01b031660045260245260445ffd5b6001600160a01b0381165f9081527fb7db2dd08fcb62d0c9e08c51941cae53c267786a0b75803fb7960902fc8ef97d602052604090205460ff16610f33576001600160a01b038181165f9081527fb7db2dd08fcb62d0c9e08c51941cae53c267786a0b75803fb7960902fc8ef97d60205260409020805460ff19166001179055610f116112b9565b16906001600160a01b03165f5f5160206134b35f395f51905f528180a4600190565b505f90565b6001600160a01b0381165f9081527fb121b6c2cfb68d56d259fa39abd93d7a85e352365bbcbddf27041e20d031c3d3602052604090205460ff16610f33576001600160a01b038181165f9081527fb121b6c2cfb68d56d259fa39abd93d7a85e352365bbcbddf27041e20d031c3d360205260409020805460ff19166001179055610fc06112b9565b16906001600160a01b03167fecaefa0171c08a6ded02d98b9432940d3852ef2c7f5007661eb8de37c5a1adc55f5160206134b35f395f51905f525f80a4600190565b6001600160a01b0381165f9081527f8f7e9a8734279607aeaac474f24949ddc99eae25c0da72edcf5ad21022be2c9e602052604090205460ff16610f33576001600160a01b038181165f9081527f8f7e9a8734279607aeaac474f24949ddc99eae25c0da72edcf5ad21022be2c9e60205260409020805460ff1916600117905561108a6112b9565b16906001600160a01b03167ffc425f2263d0df187444b70e47283d622c70181c5baebb1306a01edba1ce184c5f5160206134b35f395f51905f525f80a4600190565b5f8181525f5160206134d35f395f51905f52602090815260408083206001600160a01b038616845290915290205460ff16611164575f8181525f5160206134d35f395f51905f52602090815260408083206001600160a01b0386811685529252909120805460ff191660011790556111426112b9565b16916001600160a01b0316905f5160206134b35f395f51905f525f80a4600190565b50505f90565b6111a8906020808095946040519684889551918291018487015e8401908282015f8152815193849201905e01015f815203601f198101845283610c3c565b565b906111ba906106a3600b94611291565b602081519101209060405191604083015260208201523081520160ff8153605590206001600160a01b031690565b5f8181525f5160206134d35f395f51905f52602090815260408083206001600160a01b038616845290915290205460ff1615611164575f8181525f5160206134d35f395f51905f52602090815260408083206001600160a01b0386811685529252909120805460ff1916905561125c6112b9565b16916001600160a01b0316907ff6391f5c32d9c69d2a47ea670b442974b53935d1edc7fd64eb21e047a839171b5f80a4600190565b6040516112b3816102a260208201943086526040808401526060830190610d32565b51902090565b337f00000000000000000000000000000000000000000000000000000000000000006001600160a01b0316148061131b575b15611317576013193601368111611303573560601c90565b634e487b7160e01b5f52601160045260245ffd5b3390565b5060143610156112eb56fe6080604052346100bf57610559803803809161001a826100d7565b60803960c08160800191126100bf57610031610125565b60a051916001600160401b0383116100bf5780609f840112156100bf57826080015161005c8161014f565b9161006a6040519384610102565b81835260a082860101116100bf576020815f9260a06100b097018386015e8301015261009660c061013b565b60e051906100a561010061013b565b9261012051946101e3565b60405161014990816103f08239f35b5f80fd5b634e487b7160e01b5f52604160045260245ffd5b6080601f91909101601f19168101906001600160401b038211908210176100fd57604052565b6100c3565b601f909101601f19168101906001600160401b038211908210176100fd57604052565b608051906001600160a01b03821682036100bf57565b51906001600160a01b03821682036100bf57565b6001600160401b0381116100fd57601f01601f191660200190565b908160209103126100bf575180151581036100bf5790565b6040513d5f823e3d90fd5b91959493909260c0602060809560a0865280519182918260a0890152018387015e5f828287010152601f80199101168401019660018060a01b03166020840152604083015260018060a01b031660608201520152565b9193916001600160a01b03811680156102a3576040516301ffc9a760e01b815263105ce17160e11b600482015290602090829060249082905afa9081156102e1575f916102b2575b50156102a3575f5160206105395f395f51905f5280546001600160a01b0319166001600160a01b039092169190911790556102a19461029c9261028e91906102716102e6565b9560405197889563b026a47f60e01b60208801526024870161018d565b03601f198101845283610102565b610382565b565b635c7bfbe960e01b5f5260045ffd5b6102d4915060203d6020116102da575b6102cc8183610102565b81019061016a565b5f61022b565b503d6102c2565b610182565b5f5160206105395f395f51905f5254604051637bbbcb0560e01b815290602090829060049082906001600160a01b03165afa9081156102e1575f91610348575b506001600160a01b038116156103395790565b63489aaf0d60e11b5f5260045ffd5b90506020813d60201161037a575b8161036360209383610102565b810103126100bf576103749061013b565b5f610326565b3d9150610356565b6001600160a01b038116156103e057815f929160208493519201905af43d156103d8573d906103b08261014f565b916103be6040519384610102565b82523d5f602084013e5b156103d05750565b602081519101fd5b6060906103c8565b63ee0a129760e01b5f5260045ffdfe608060405236156100a8577f13d1d4a8f07d9c8a456b07fb81827712a7d862be074b1dc4f3c9fbbdab8268695460209060809060049082906001600160a01b0316637bbbcb0560e01b82525afa80156100a3575f90610076575b6001600160a01b0381166100b75763489aaf0d60e11b5f5260045ffd5b5060203d60201161009c575b8061008f610097926100d4565b60800161010b565b610059565b503d610082565b610131565b635d82995b60e01b5f5260045ffd5b5f8091368280378136915af43d5f803e156100d0573d5ff35b3d5ffd5b601f80199101166080016080811067ffffffffffffffff8211176100f757604052565b634e487b7160e01b5f52604160045260245ffd5b602090607f19011261012d576080516001600160a01b038116810361012d5790565b5f80fd5b6040513d5f823e3d90fdfea164736f6c634300081c000a13d1d4a8f07d9c8a456b07fb81827712a7d862be074b1dc4f3c9fbbdab82686960a03461008857601f611c3338819003918201601f19168301916001600160401b0383118484101761008c5780849260209460405283398101031261008857516001600160a01b03811681036100885760805261005a6100a0565b6100626100a0565b604051611adc90816101378239608051818181610c3a01528181610d1c015261163e0152f35b5f80fd5b634e487b7160e01b5f52604160045260245ffd5b5f516020611c135f395f51905f525460ff8160401c16610127576002600160401b03196001600160401b038216016100d55750565b6001600160401b0319166001600160401b039081175f516020611c135f395f51905f52556040519081527fc7f505b2f371ae2175ee4913f4499e1f2633a7b5936321eed1cdaeb6115181d290602090a1565b63f92ee8a960e01b5f5260045ffdfe6080806040526004361015610012575f80fd5b5f905f3560e01c90816306fdde031461111457508063222abc11146110ec5780632eb4a7ab146110cf578063429c6e5b146110a957806349df728c14610fbf5780634b32102a14610dc55780634be7adee14610d50578063572b6c0514610cfb5780636f62c3a614610cd2578063715018a614610c695780637da0a87714610c245780638da5cb5b14610bef578063ae0b51df14610bae578063b026a47f146106a0578063b7f1aca81461064a578063cd63d9301461062c578063cfdbf25414610610578063ef692c7d14610221578063efca2eed14610203578063f2fde38b146101d6578063f364c90c1461013b5763fc0c546a14610110575f80fd5b346101385780600319360112610138576001546040516001600160a01b039091168152602090f35b80fd5b503461013857604036600319011261013857600354604051633cd9324360e21b81526004803590820152602480359082015290602090829060449082906001600160a01b03165afa9081156101cb576020929161019e575b506040519015158152f35b6101be9150823d84116101c4575b6101b68183611249565b8101906113ed565b5f610193565b503d6101ac565b6040513d84823e3d90fd5b5034610138576020366003190112610138576102006101f36111ed565b6101fb611405565b61137c565b80f35b50346101385780600319360112610138576020600454604051908152f35b5034610138576080366003190112610138576004356001600160401b0381116104d257610252903690600401611219565b906024356001600160401b03811161039a57610272903690600401611219565b6044929192356001600160401b03811161060c57610294903690600401611219565b6064356001600160401b038111610608576102b3903690600401611219565b90956102bd611405565b6102c56114e6565b606488116105f9578488148015906105ef575b80156105e5575b6105d657889489978a5b8a811061052a57506005548015159081610515575b5061050657909336829003601e190191908b5b8b811061039e578c8c8c8c8c61032981600454611323565b60045560405192835260208301526060604083015282606083015260018060fb1b03831161039a57816080917fcb717668fc2be4cb2b22f131f5c0055a75ad81c1cb5003da116c8e8f0407c58c9460051b8091848401378101030190a160015f516020611a905f395f51905f525580f35b8380fd5b6103a9818d8c611344565b35906103be6103b9828a89611344565b611368565b6103c982858c611344565b3590888310156104f1578260051b860135878112156104ec5786018035906001600160401b0382116104e657602001908060051b360382136104e6576104119184848861151e565b156104d6578f60018060a01b0360035416803b156104d25760405163762ba3ff60e11b81526004810187905260248101859052604481018590529082908290606490829084905af180156101cb576104b9575b50506040816001956104a0857ff75d5c8724380d126d0ce1ef2c57b7e856e7fe00051f6184966b31323463cf1295898060a01b038a5416611458565b82519485526020850152858060a01b031692a201610311565b816104c391611249565b6104ce578f5f610464565b8f80fd5b5080fd5b5063582f497d60e11b8f5260048ffd5b50508f80fd5b508f80fd5b50634e487b7160e01b8f52603260045260248ffd5b636fd8707b60e11b8b5260048bfd5b905061052388600454611323565b115f6102fe565b98966105378a8c8b611344565b35906105476103b98c8688611344565b916105538c898b611344565b35926001600160a01b0316156105c75782156105b857610572906112b6565b6105a9579061058091611323565b965f19811461059557600180910199016102e9565b634e487b7160e01b8c52601160045260248cfd5b63cce553a960e01b8d5260048dfd5b63a68332cd60e01b8e5260048efd5b637e59fcff60e01b8e5260048efd5b632c635df560e11b8952600489fd5b50818314156102df565b50828514156102d8565b632a8677b560e21b8952600489fd5b8780fd5b8580fd5b5034610138578060031936011261013857602060405160648152f35b50346101385780600319360112610138576020600554604051908152f35b5034610138576020366003190112610138577f64687926ea82d024193ae2d49d2c6e63089c2caf9cba13ff897d094f1526f017604060043561068a611405565b600554908060055582519182526020820152a180f35b50346101385760a0366003190112610138576004356001600160401b0381116104d257366023820112156104d2578060040135906001600160401b038211610b9a578290604051926106fc6020601f19601f8401160185611249565b8084523660248284010111610b9657806024602093018386013783010152610722611203565b6044356064356001600160a01b0381168103610b92575f516020611ab05f395f51905f52549360ff8560401c1615946001600160401b03811680159081610b8a575b6001149081610b80575b159081610b77575b50610b685767ffffffffffffffff1981166001175f516020611ab05f395f51905f525585610b3c575b506040516103bb808201908282106001600160401b03831117610b28576020918391611695833930815203019087f08015610b1d576001600160a01b0316936107e6611610565b815115610b0e576001600160a01b0316918215610aff578315610af0578415610ae1576040516318160ddd60e01b8152602081600481875afa9081610aae575b5061083a57630f58058360e11b8752600487fd5b604051633cd9324360e21b8152876004820152876024820152602081604481895afa9081610a91575b5061087757632b58d96960e01b8752600487fd5b61088b90610883611610565b6101fb611610565b8051906001600160401b038211610a7d5781906108a8885461127e565b601f8111610a0c575b50602090601f831160011461099f578892610994575b50508160011b915f199060031b1c19161785555b6bffffffffffffffffffffffff60a01b60015416176001556002556bffffffffffffffffffffffff60a01b6003541617600355610916611610565b61091e611610565b60015f516020611a905f395f51905f525560843560055561093c5780f35b68ff0000000000000000195f516020611ab05f395f51905f5254165f516020611ab05f395f51905f52557fc7f505b2f371ae2175ee4913f4499e1f2633a7b5936321eed1cdaeb6115181d2602060405160018152a180f35b015190505f806108c7565b8880525f516020611a705f395f51905f529250601f198416895b8181106109f457509084600195949392106109dc575b505050811b0185556108db565b01515f1960f88460031b161c191690555f80806109cf565b929360206001819287860151815501950193016109b9565b909150878052601f830160051c5f516020611a705f395f51905f52019060208410610a68575b90601f8493920160051c5f516020611a705f395f51905f5201905b818110610a5a57506108b1565b898155849350600101610a4d565b5f516020611a705f395f51905f529150610a32565b634e487b7160e01b87526041600452602487fd5b610aa99060203d6020116101c4576101b68183611249565b610863565b6020813d602011610ad9575b81610ac760209383611249565b81010312610ad55751610826565b5f80fd5b3d9150610aba565b632b58d96960e01b8752600487fd5b639dd854d360e01b8752600487fd5b630f58058360e11b8752600487fd5b632e43296560e01b8752600487fd5b6040513d88823e3d90fd5b634e487b7160e01b89526041600452602489fd5b68ffffffffffffffffff191668010000000000000001175f516020611ab05f395f51905f52555f61079f565b63f92ee8a960e01b8752600487fd5b9050155f610776565b303b15915061076e565b879150610764565b8480fd5b8280fd5b634e487b7160e01b83526041600452602483fd5b5034610138576060366003190112610138576044356001600160401b0381116104d25790610be160049236908401611219565b50506341cbd5e560e11b8152fd5b50346101385780600319360112610138575f516020611a505f395f51905f52546040516001600160a01b039091168152602090f35b50346101385780600319360112610138576040517f00000000000000000000000000000000000000000000000000000000000000006001600160a01b03168152602090f35b5034610138578060031936011261013857610c82611405565b5f516020611a505f395f51905f5280546001600160a01b0319811690915581906001600160a01b03167f8be0079c531659141344cd1fd0a4f28419497f9722a3daafe3b4186f6b6457e08280a380f35b5034610138576020366003190112610138576020610cf16004356112b6565b1515604051908152f35b5034610138576020366003190112610138576020610d176111ed565b6040517f00000000000000000000000000000000000000000000000000000000000000006001600160a01b039081169216919091148152f35b5034610138576060366003190112610138576004356001600160401b0381116104d257610d81903690600401611219565b50506024356001600160401b0381116104d257610da2903690600401611219565b50506044356001600160401b0381116104d25790610be160049236908401611219565b5034610ad5576080366003190112610ad557600435610de2611203565b90604435906064356001600160401b038111610ad557610e06903690600401611219565b9390610e10611405565b610e186114e6565b6001600160a01b038216948515610fb0578415610fa1576005548015159081610f8c575b50610f7d57610e4a846112b6565b610f6e57610e5a9185848661151e565b15610f5f576003546001600160a01b0316803b15610ad55760405163762ba3ff60e11b8152600481018490526024810185905260448101859052905f908290606490829084905af18015610f5457610f17575b5091604091610ef8827ff75d5c8724380d126d0ce1ef2c57b7e856e7fe00051f6184966b31323463cf1295610ee482600454611323565b6004556001546001600160a01b0316611458565b82519182526020820152a260015f516020611a905f395f51905f525580f35b7ff75d5c8724380d126d0ce1ef2c57b7e856e7fe00051f6184966b31323463cf129391955091610f495f604094611249565b5f9591935091610ead565b6040513d5f823e3d90fd5b63582f497d60e11b5f5260045ffd5b63cce553a960e01b5f5260045ffd5b636fd8707b60e11b5f5260045ffd5b9050610f9a86600454611323565b115f610e3c565b63a68332cd60e01b5f5260045ffd5b637e59fcff60e01b5f5260045ffd5b34610ad5576020366003190112610ad557610fd86111ed565b610fe0611405565b6001600160a01b03811690811561109a576001546040516370a0823160e01b815230600482015291906001600160a01b0316602083602481845afa928315610f54575f93611062575b5091611059816020937f6352c5382c4a4578e712449ca65e83cdb392d045dfcf1cad9615189db2da244b95611458565b604051908152a2005b9250906020833d602011611092575b8161107e60209383611249565b81010312610ad55791519190611059611029565b3d9150611071565b634261081360e11b5f5260045ffd5b34610ad5576020366003190112610ad55760206110c76004356112b6565b604051908152f35b34610ad5575f366003190112610ad5576020600254604051908152f35b34610ad5575f366003190112610ad5576003546040516001600160a01b039091168152602090f35b34610ad5575f366003190112610ad5575f905f54916111328361127e565b8083526020830193600181169081156111d25750600114611189575b509061115e816040930382611249565b8151928391602083525180918160208501528484015e5f828201840152601f01601f19168101030190f35b5f8080525f516020611a705f395f51905f52939250905b8082106111b85750909150810160200161115e61114e565b9192600181602092548385880101520191019092916111a0565b60ff1916855250151560051b8201602001905061115e61114e565b600435906001600160a01b0382168203610ad557565b602435906001600160a01b0382168203610ad557565b9181601f84011215610ad5578235916001600160401b038311610ad5576020808501948460051b010111610ad557565b90601f801991011681019081106001600160401b0382111761126a57604052565b634e487b7160e01b5f52604160045260245ffd5b90600182811c921680156112ac575b602083101461129857565b634e487b7160e01b5f52602260045260245ffd5b91607f169161128d565b60035460405163429c6e5b60e01b81526004810192909252602090829060249082906001600160a01b03165afa908115610f54575f916112f4575090565b90506020813d60201161131b575b8161130f60209383611249565b81010312610ad5575190565b3d9150611302565b9190820180921161133057565b634e487b7160e01b5f52601160045260245ffd5b91908110156113545760051b0190565b634e487b7160e01b5f52603260045260245ffd5b356001600160a01b0381168103610ad55790565b6001600160a01b031680156113da575f516020611a505f395f51905f5280546001600160a01b0319811683179091556001600160a01b03167f8be0079c531659141344cd1fd0a4f28419497f9722a3daafe3b4186f6b6457e05f80a3565b631e4fbdf760e01b5f525f60045260245ffd5b90816020910312610ad557518015158103610ad55790565b5f516020611a505f395f51905f52546001600160a01b039081169061142861163b565b160361143057565b61143861163b565b63118cdaa760e01b5f9081526001600160a01b0391909116600452602490fd5b60405163a9059cbb60e01b60208281019182526001600160a01b03909416602483015260448083019590955293815290925f91611496606482611249565b519082855af115610f54575f513d6114dd57506001600160a01b0381163b155b6114bd5750565b635274afe760e01b5f9081526001600160a01b0391909116600452602490fd5b600114156114b6565b60025f516020611a905f395f51905f52541461150f5760025f516020611a905f395f51905f5255565b633ee5aeb560e01b5f5260045ffd5b9194929394604051916020830193845260018060a01b0316604083015260608201526060815261154f608082611249565b519020604051602081019182526020815261156b604082611249565b519020600254926001600160401b03851161126a578460051b604051956115956020830188611249565b86526020860190820191368311610ad557905b82821061160057505050905f915b84518310156115f85760208360051b86010151908181105f146115e7575f52602052600160405f205b9201916115b6565b905f52602052600160405f206115df565b915092501490565b81358152602091820191016115a8565b60ff5f516020611ab05f395f51905f525460401c161561162c57565b631afcd79f60e31b5f5260045ffd5b337f00000000000000000000000000000000000000000000000000000000000000006001600160a01b03161480611689575b15611685576013193601368111611330573560601c90565b3390565b50601436101561166d56fe60803460b857601f6103bb38819003918201601f19168301916001600160401b0383118484101760bc5780849260209460405283398101031260b857516001600160a01b0381169081900360b857801560a5575f80546001600160a01b031981168317825560405192916001600160a01b03909116907f8be0079c531659141344cd1fd0a4f28419497f9722a3daafe3b4186f6b6457e09080a36102ea90816100d18239f35b631e4fbdf760e01b5f525f60045260245ffd5b5f80fd5b634e487b7160e01b5f52604160045260245ffdfe60806040526004361015610011575f80fd5b5f3560e01c8063429c6e5b1461024f578063715018a6146101f85780638da5cb5b146101d1578063bd40bde614610196578063ec5747fe14610133578063f2fde38b146100aa5763f364c90c14610066575f80fd5b346100a65760403660031901126100a657602061009c6004358060081c5f526001602052600160ff60405f205492161b16151590565b6040519015158152f35b5f80fd5b346100a65760203660031901126100a6576004356001600160a01b038116908190036100a6576100d86102b7565b8015610120575f80546001600160a01b03198116831782556001600160a01b0316907f8be0079c531659141344cd1fd0a4f28419497f9722a3daafe3b4186f6b6457e09080a3005b631e4fbdf760e01b5f525f60045260245ffd5b346100a65760407f08401774913e94f43659333293c99fdfdea868c488d679967e054abc8b5ae8346101643661029d565b61016f9492946102b7565b8460081c5f526001602052825f20600160ff87161b815417905582519182526020820152a2005b346100a65760206101c86101a93661029d565b50508060081c5f526001602052600160ff60405f205492161b16151590565b15604051908152f35b346100a6575f3660031901126100a6575f546040516001600160a01b039091168152602090f35b346100a6575f3660031901126100a6576102106102b7565b5f80546001600160a01b0319811682556001600160a01b03167f8be0079c531659141344cd1fd0a4f28419497f9722a3daafe3b4186f6b6457e08280a3005b346100a65760203660031901126100a6576102836004358060081c5f526001602052600160ff60405f205492161b16151590565b156102955760205f195b604051908152f35b60205f61028d565b60609060031901126100a657600435906024359060443590565b5f546001600160a01b031633036102ca57565b63118cdaa760e01b5f523360045260245ffdfea164736f6c634300081c000a9016d09d72d40fdae2fd8ceac6b6234c7706214fd39c1cd1e609a0528c199300290decd9548b62a8d60345a988386fc84ba6bc95484008f6362f93160ef3e5639b779b17422d0df92223018b32b4d1fa46e071723d6817e2486d003becc55f00f0c57e16840df040f15088dc2f81fe391c3923bec73e23a9662efc9c229c6a00a164736f6c634300081c000af0c57e16840df040f15088dc2f81fe391c3923bec73e23a9662efc9c229c6a002f8788117e7eff1d82e926ec794901d17c78024a50270940304540a733656f0d02dd7bc7dec4dceedda775e58dd541e08a116c6c53815c0bd028192f7b626800f0c57e16840df040f15088dc2f81fe391c3923bec73e23a9662efc9c229c6a00a164736f6c634300081c000af0c57e16840df040f15088dc2f81fe391c3923bec73e23a9662efc9c229c6a00",
    "linkReferences": {}
  },
  "methodIdentifiers": {
    "DEFAULT_ADMIN_ROLE()": "a217fddf",
    "allAirdropsLength()": "150117bd",
    "atkPushAirdropImplementation()": "7bbbcb05",
    "create(string,address,bytes32,address,uint256)": "36049ba4",
    "getRoleAdmin(bytes32)": "248a9ca3",
    "grantRole(bytes32,address)": "2f2ff15d",
    "hasRole(bytes32,address)": "91d14854",
    "initialize(address,address)": "485cc955",
    "isFactorySystemAddon(address)": "229fff60",
    "isTrustedForwarder(address)": "572b6c05",
    "predictPushAirdropAddress(string,address,bytes32,address,uint256)": "780785fe",
    "renounceRole(bytes32,address)": "36568abe",
    "revokeRole(bytes32,address)": "d547741f",
    "supportsInterface(bytes4)": "01ffc9a7",
    "trustedForwarder()": "7da0a877",
    "typeId()": "8f940f63",
    "updateImplementation(address)": "025b22bc"
  },
  "userdoc": {
    "version": 1,
    "kind": "user",
    "methods": {
      "allAirdropsLength()": {
        "notice": "Returns the total number of push airdrop proxy contracts created by this factory."
      },
      "atkPushAirdropImplementation()": {
        "notice": "Address of the current `ATKPushAirdrop` logic contract (implementation)."
      },
      "create(string,address,bytes32,address,uint256)": {
        "notice": "Creates and deploys a new `ATKPushAirdropProxy` contract for a given configuration. The proxy will point to the current `atkPushAirdropImplementation`."
      },
      "initialize(address,address)": {
        "notice": "Initializes the `ATKPushAirdropFactory`."
      },
      "isFactorySystemAddon(address)": {
        "notice": "Mapping indicating whether an system addon address was deployed by this factory."
      },
      "predictPushAirdropAddress(string,address,bytes32,address,uint256)": {
        "notice": "Predicts the deployment address of a push airdrop proxy."
      },
      "supportsInterface(bytes4)": {
        "notice": "Returns the address of the current `ATKPushAirdrop` logic contract (implementation)."
      },
      "typeId()": {
        "notice": "Returns a unique identifier for the type of this contract."
      },
      "updateImplementation(address)": {
        "notice": "Updates the address of the `ATKPushAirdrop` implementation contract."
      }
    },
    "events": {
      "ATKPushAirdropCreated(address,address)": {
        "notice": "Emitted when a new push airdrop proxy is created"
      },
      "ImplementationUpdated(address,address)": {
        "notice": "Emitted when the implementation contract is updated"
      }
    },
    "errors": {
      "AddressAlreadyDeployed(address)": [
        {
          "notice": "Error thrown when a CREATE2 address is already deployed."
        }
      ],
      "InvalidAddress()": [
        {
          "notice": "Custom error for invalid address parameter."
        }
      ],
      "InvalidImplementation()": [
        {
          "notice": "Custom error for invalid implementation address."
        }
      ],
      "ProxyCreationFailed()": [
        {
          "notice": "Error thrown when proxy creation fails."
        }
      ],
      "SameAddress()": [
        {
          "notice": "Custom error when attempting to set the same address."
        }
      ]
    },
    "notice": "This contract serves as a factory to deploy new UUPS proxy instances of `ATKPushAirdrop` contracts. It manages a single implementation contract and allows for updating this implementation."
  },
  "devdoc": {
    "version": 1,
    "kind": "dev",
    "details": "Key features of this factory: - **Deployment of Proxies**: Provides a `create` function to deploy new `ATKPushAirdropProxy` instances,   which point to a shared `ATKPushAirdrop` implementation. - **CREATE2**: Leverages `CREATE2` for deploying proxies, allowing their addresses to be pre-calculated. - **Implementation Management**: Deploys an initial implementation and allows the owner to update it. - **Authorization**: The `create` function requires the `DEPLOYER_ROLE` for proper access control. - **Registry**: Maintains an array `allAirdrops` to keep track of all airdrop proxies created. - **Meta-transactions**: Inherits `ERC2771Context` to support gasless operations if a trusted forwarder is configured.",
    "methods": {
      "constructor": {},
      "create(string,address,bytes32,address,uint256)": {
        "details": "This function performs the following steps: 1. **Authorization Check**: Verifies the caller has the `DEPLOYER_ROLE`. 2. **Salt Generation**: Computes a unique `salt` for CREATE2. 3. **Initialization Data**: Prepares the `initData` for the proxy to call `initialize` on the implementation. 4. **Proxy Deployment**: Deploys a `ATKPushAirdropProxy` using CREATE2. 5. **Event Emission**: Emits `ATKPushAirdropCreated`. 6. **Registry Update**: Adds the new proxy to `allAirdrops`.",
        "params": {
          "distributionCap": "The maximum tokens that can be distributed (0 for no cap).",
          "name": "The human-readable name for the airdrop.",
          "owner": "The initial owner of the contract (admin who can distribute tokens).",
          "root": "The Merkle root for verifying distributions.",
          "token": "The address of the ERC20 token to be distributed."
        },
        "returns": {
          "airdropProxyAddress": "The address of the newly created `ATKPushAirdropProxy` contract."
        }
      },
      "getRoleAdmin(bytes32)": {
        "details": "Returns the admin role that controls `role`. See {grantRole} and {revokeRole}. To change a role's admin, use {_setRoleAdmin}."
      },
      "grantRole(bytes32,address)": {
        "details": "Grants `role` to `account`. If `account` had not been already granted `role`, emits a {RoleGranted} event. Requirements: - the caller must have ``role``'s admin role. May emit a {RoleGranted} event."
      },
      "hasRole(bytes32,address)": {
        "details": "Returns `true` if `account` has been granted `role`."
      },
      "initialize(address,address)": {
        "details": "Initializes the factory, deploys the initial `ATKPushAirdrop` implementation, and sets up support for meta-transactions via ERC2771Context.",
        "params": {
          "initialAdmin_": "The address of the initial admin.",
          "systemAddress_": "The address of the `IATKSystem` contract."
        }
      },
      "isTrustedForwarder(address)": {
        "details": "Indicates whether any particular address is the trusted forwarder."
      },
      "predictPushAirdropAddress(string,address,bytes32,address,uint256)": {
        "params": {
          "distributionCap": "The maximum tokens that can be distributed.",
          "name": "The human-readable name for the airdrop.",
          "owner": "The initial owner of the contract.",
          "root": "The Merkle root for verifying distributions.",
          "token": "The address of the ERC20 token to be distributed."
        },
        "returns": {
          "predictedAddress": "The predicted address of the push airdrop proxy."
        }
      },
      "renounceRole(bytes32,address)": {
        "details": "Revokes `role` from the calling account. Roles are often managed via {grantRole} and {revokeRole}: this function's purpose is to provide a mechanism for accounts to lose their privileges if they are compromised (such as when a trusted device is misplaced). If the calling account had been revoked `role`, emits a {RoleRevoked} event. Requirements: - the caller must be `callerConfirmation`. May emit a {RoleRevoked} event."
      },
      "revokeRole(bytes32,address)": {
        "details": "Revokes `role` from `account`. If `account` had been granted `role`, emits a {RoleRevoked} event. Requirements: - the caller must have ``role``'s admin role. May emit a {RoleRevoked} event."
      },
      "trustedForwarder()": {
        "details": "Returns the address of the trusted forwarder."
      },
      "updateImplementation(address)": {
        "details": "Only callable by the factory owner. New proxies created after this call will use the new implementation. This does NOT automatically upgrade existing proxy instances.",
        "params": {
          "_newImplementation": "The address of the new `ATKPushAirdrop` logic contract."
        }
      }
    },
    "events": {
      "ATKPushAirdropCreated(address,address)": {
        "params": {
          "airdropAddress": "The address of the newly created push airdrop proxy",
          "creator": "The address that created the push airdrop"
        }
      },
      "ImplementationUpdated(address,address)": {
        "params": {
          "newImplementation": "The address of the new implementation",
          "oldImplementation": "The address of the previous implementation"
        }
      },
      "Initialized(uint64)": {
        "details": "Triggered when the contract has been initialized or reinitialized."
      },
      "RoleAdminChanged(bytes32,bytes32,bytes32)": {
        "details": "Emitted when `newAdminRole` is set as ``role``'s admin role, replacing `previousAdminRole` `DEFAULT_ADMIN_ROLE` is the starting admin for all roles, despite {RoleAdminChanged} not being emitted to signal this."
      },
      "RoleGranted(bytes32,address,address)": {
        "details": "Emitted when `account` is granted `role`. `sender` is the account that originated the contract call. This account bears the admin role (for the granted role). Expected in cases where the role was granted using the internal {AccessControl-_grantRole}."
      },
      "RoleRevoked(bytes32,address,address)": {
        "details": "Emitted when `account` is revoked `role`. `sender` is the account that originated the contract call:   - if using `revokeRole`, it is the admin role bearer   - if using `renounceRole`, it is the role bearer (i.e. `account`)"
      }
    },
    "errors": {
      "AccessControlBadConfirmation()": [
        {
          "details": "The caller of a function is not the expected one. NOTE: Don't confuse with {AccessControlUnauthorizedAccount}."
        }
      ],
      "AccessControlUnauthorizedAccount(address,bytes32)": [
        {
          "details": "The `account` is missing a role."
        }
      ],
      "Create2EmptyBytecode()": [
        {
          "details": "There's no code to deploy."
        }
      ],
      "FailedDeployment()": [
        {
          "details": "The deployment failed."
        }
      ],
      "InsufficientBalance(uint256,uint256)": [
        {
          "details": "The ETH balance of the account is not enough to perform the operation."
        }
      ],
      "InvalidInitialization()": [
        {
          "details": "The contract is already initialized."
        }
      ],
      "NotInitializing()": [
        {
          "details": "The contract is not initializing."
        }
      ]
    },
    "title": "Factory for Creating ATKPushAirdrop Proxies"
  },
  "id": 7
}