{
  "abi": [
    {
      "type": "constructor",
      "inputs": [
        {
          "name": "forwarder_",
          "type": "address",
          "internalType": "address"
        }
      ],
      "stateMutability": "nonpayable"
    },
    {
      "type": "function",
      "name": "DEFAULT_ADMIN_ROLE",
      "inputs": [],
      "outputs": [
        {
          "name": "",
          "type": "bytes32",
          "internalType": "bytes32"
        }
      ],
      "stateMutability": "view"
    },
    {
      "type": "function",
      "name": "UPGRADE_INTERFACE_VERSION",
      "inputs": [],
      "outputs": [
        {
          "name": "",
          "type": "string",
          "internalType": "string"
        }
      ],
      "stateMutability": "view"
    },
    {
      "type": "function",
      "name": "bootstrap",
      "inputs": [],
      "outputs": [],
      "stateMutability": "nonpayable"
    },
    {
      "type": "function",
      "name": "compliance",
      "inputs": [],
      "outputs": [
        {
          "name": "",
          "type": "address",
          "internalType": "address"
        }
      ],
      "stateMutability": "view"
    },
    {
      "type": "function",
      "name": "complianceModuleRegistry",
      "inputs": [],
      "outputs": [
        {
          "name": "",
          "type": "address",
          "internalType": "address"
        }
      ],
      "stateMutability": "view"
    },
    {
      "type": "function",
      "name": "getRoleAdmin",
      "inputs": [
        {
          "name": "role",
          "type": "bytes32",
          "internalType": "bytes32"
        }
      ],
      "outputs": [
        {
          "name": "",
          "type": "bytes32",
          "internalType": "bytes32"
        }
      ],
      "stateMutability": "view"
    },
    {
      "type": "function",
      "name": "grantRole",
      "inputs": [
        {
          "name": "role",
          "type": "bytes32",
          "internalType": "bytes32"
        },
        {
          "name": "account",
          "type": "address",
          "internalType": "address"
        }
      ],
      "outputs": [],
      "stateMutability": "nonpayable"
    },
    {
      "type": "function",
      "name": "hasRole",
      "inputs": [
        {
          "name": "role",
          "type": "bytes32",
          "internalType": "bytes32"
        },
        {
          "name": "account",
          "type": "address",
          "internalType": "address"
        }
      ],
      "outputs": [
        {
          "name": "",
          "type": "bool",
          "internalType": "bool"
        }
      ],
      "stateMutability": "view"
    },
    {
      "type": "function",
      "name": "identityFactory",
      "inputs": [],
      "outputs": [
        {
          "name": "",
          "type": "address",
          "internalType": "address"
        }
      ],
      "stateMutability": "view"
    },
    {
      "type": "function",
      "name": "identityImplementation",
      "inputs": [],
      "outputs": [
        {
          "name": "",
          "type": "address",
          "internalType": "address"
        }
      ],
      "stateMutability": "view"
    },
    {
      "type": "function",
      "name": "identityRegistry",
      "inputs": [],
      "outputs": [
        {
          "name": "",
          "type": "address",
          "internalType": "address"
        }
      ],
      "stateMutability": "view"
    },
    {
      "type": "function",
      "name": "identityRegistryStorage",
      "inputs": [],
      "outputs": [
        {
          "name": "",
          "type": "address",
          "internalType": "address"
        }
      ],
      "stateMutability": "view"
    },
    {
      "type": "function",
      "name": "identityVerificationModule",
      "inputs": [],
      "outputs": [
        {
          "name": "",
          "type": "address",
          "internalType": "address"
        }
      ],
      "stateMutability": "view"
    },
    {
      "type": "function",
      "name": "implementation",
      "inputs": [
        {
          "name": "moduleType",
          "type": "bytes32",
          "internalType": "bytes32"
        }
      ],
      "outputs": [
        {
          "name": "",
          "type": "address",
          "internalType": "address"
        }
      ],
      "stateMutability": "view"
    },
    {
      "type": "function",
      "name": "initialize",
      "inputs": [
        {
          "name": "initialAdmin_",
          "type": "address",
          "internalType": "address"
        },
        {
          "name": "complianceImplementation_",
          "type": "address",
          "internalType": "address"
        },
        {
          "name": "identityRegistryImplementation_",
          "type": "address",
          "internalType": "address"
        },
        {
          "name": "identityRegistryStorageImplementation_",
          "type": "address",
          "internalType": "address"
        },
        {
          "name": "trustedIssuersRegistryImplementation_",
          "type": "address",
          "internalType": "address"
        },
        {
          "name": "topicSchemeRegistryImplementation_",
          "type": "address",
          "internalType": "address"
        },
        {
          "name": "identityFactoryImplementation_",
          "type": "address",
          "internalType": "address"
        },
        {
          "name": "identityImplementation_",
          "type": "address",
          "internalType": "address"
        },
        {
          "name": "tokenIdentityImplementation_",
          "type": "address",
          "internalType": "address"
        },
        {
          "name": "tokenAccessManagerImplementation_",
          "type": "address",
          "internalType": "address"
        },
        {
          "name": "identityVerificationModule_",
          "type": "address",
          "internalType": "address"
        },
        {
          "name": "tokenFactoryRegistryImplementation_",
          "type": "address",
          "internalType": "address"
        },
        {
          "name": "complianceModuleRegistryImplementation_",
          "type": "address",
          "internalType": "address"
        },
        {
          "name": "addonRegistryImplementation_",
          "type": "address",
          "internalType": "address"
        }
      ],
      "outputs": [],
      "stateMutability": "nonpayable"
    },
    {
      "type": "function",
      "name": "isTrustedForwarder",
      "inputs": [
        {
          "name": "forwarder",
          "type": "address",
          "internalType": "address"
        }
      ],
      "outputs": [
        {
          "name": "",
          "type": "bool",
          "internalType": "bool"
        }
      ],
      "stateMutability": "view"
    },
    {
      "type": "function",
      "name": "proxiableUUID",
      "inputs": [],
      "outputs": [
        {
          "name": "",
          "type": "bytes32",
          "internalType": "bytes32"
        }
      ],
      "stateMutability": "view"
    },
    {
      "type": "function",
      "name": "renounceRole",
      "inputs": [
        {
          "name": "role",
          "type": "bytes32",
          "internalType": "bytes32"
        },
        {
          "name": "callerConfirmation",
          "type": "address",
          "internalType": "address"
        }
      ],
      "outputs": [],
      "stateMutability": "nonpayable"
    },
    {
      "type": "function",
      "name": "revokeRole",
      "inputs": [
        {
          "name": "role",
          "type": "bytes32",
          "internalType": "bytes32"
        },
        {
          "name": "account",
          "type": "address",
          "internalType": "address"
        }
      ],
      "outputs": [],
      "stateMutability": "nonpayable"
    },
    {
      "type": "function",
      "name": "setAddonRegistryImplementation",
      "inputs": [
        {
          "name": "implementation_",
          "type": "address",
          "internalType": "address"
        }
      ],
      "outputs": [],
      "stateMutability": "nonpayable"
    },
    {
      "type": "function",
      "name": "setComplianceImplementation",
      "inputs": [
        {
          "name": "implementation_",
          "type": "address",
          "internalType": "address"
        }
      ],
      "outputs": [],
      "stateMutability": "nonpayable"
    },
    {
      "type": "function",
      "name": "setComplianceModuleRegistryImplementation",
      "inputs": [
        {
          "name": "implementation_",
          "type": "address",
          "internalType": "address"
        }
      ],
      "outputs": [],
      "stateMutability": "nonpayable"
    },
    {
      "type": "function",
      "name": "setIdentityFactoryImplementation",
      "inputs": [
        {
          "name": "implementation_",
          "type": "address",
          "internalType": "address"
        }
      ],
      "outputs": [],
      "stateMutability": "nonpayable"
    },
    {
      "type": "function",
      "name": "setIdentityImplementation",
      "inputs": [
        {
          "name": "implementation_",
          "type": "address",
          "internalType": "address"
        }
      ],
      "outputs": [],
      "stateMutability": "nonpayable"
    },
    {
      "type": "function",
      "name": "setIdentityRegistryImplementation",
      "inputs": [
        {
          "name": "implementation_",
          "type": "address",
          "internalType": "address"
        }
      ],
      "outputs": [],
      "stateMutability": "nonpayable"
    },
    {
      "type": "function",
      "name": "setIdentityRegistryStorageImplementation",
      "inputs": [
        {
          "name": "implementation_",
          "type": "address",
          "internalType": "address"
        }
      ],
      "outputs": [],
      "stateMutability": "nonpayable"
    },
    {
      "type": "function",
      "name": "setTokenAccessManagerImplementation",
      "inputs": [
        {
          "name": "implementation_",
          "type": "address",
          "internalType": "address"
        }
      ],
      "outputs": [],
      "stateMutability": "nonpayable"
    },
    {
      "type": "function",
      "name": "setTokenFactoryRegistryImplementation",
      "inputs": [
        {
          "name": "implementation_",
          "type": "address",
          "internalType": "address"
        }
      ],
      "outputs": [],
      "stateMutability": "nonpayable"
    },
    {
      "type": "function",
      "name": "setTokenIdentityImplementation",
      "inputs": [
        {
          "name": "implementation_",
          "type": "address",
          "internalType": "address"
        }
      ],
      "outputs": [],
      "stateMutability": "nonpayable"
    },
    {
      "type": "function",
      "name": "setTopicSchemeRegistryImplementation",
      "inputs": [
        {
          "name": "implementation_",
          "type": "address",
          "internalType": "address"
        }
      ],
      "outputs": [],
      "stateMutability": "nonpayable"
    },
    {
      "type": "function",
      "name": "setTrustedIssuersRegistryImplementation",
      "inputs": [
        {
          "name": "implementation_",
          "type": "address",
          "internalType": "address"
        }
      ],
      "outputs": [],
      "stateMutability": "nonpayable"
    },
    {
      "type": "function",
      "name": "supportsInterface",
      "inputs": [
        {
          "name": "interfaceId",
          "type": "bytes4",
          "internalType": "bytes4"
        }
      ],
      "outputs": [
        {
          "name": "",
          "type": "bool",
          "internalType": "bool"
        }
      ],
      "stateMutability": "view"
    },
    {
      "type": "function",
      "name": "systemAddonRegistry",
      "inputs": [],
      "outputs": [
        {
          "name": "",
          "type": "address",
          "internalType": "address"
        }
      ],
      "stateMutability": "view"
    },
    {
      "type": "function",
      "name": "tokenAccessManagerImplementation",
      "inputs": [],
      "outputs": [
        {
          "name": "",
          "type": "address",
          "internalType": "address"
        }
      ],
      "stateMutability": "view"
    },
    {
      "type": "function",
      "name": "tokenFactoryRegistry",
      "inputs": [],
      "outputs": [
        {
          "name": "",
          "type": "address",
          "internalType": "address"
        }
      ],
      "stateMutability": "view"
    },
    {
      "type": "function",
      "name": "tokenIdentityImplementation",
      "inputs": [],
      "outputs": [
        {
          "name": "",
          "type": "address",
          "internalType": "address"
        }
      ],
      "stateMutability": "view"
    },
    {
      "type": "function",
      "name": "topicSchemeRegistry",
      "inputs": [],
      "outputs": [
        {
          "name": "",
          "type": "address",
          "internalType": "address"
        }
      ],
      "stateMutability": "view"
    },
    {
      "type": "function",
      "name": "trustedForwarder",
      "inputs": [],
      "outputs": [
        {
          "name": "",
          "type": "address",
          "internalType": "address"
        }
      ],
      "stateMutability": "view"
    },
    {
      "type": "function",
      "name": "trustedIssuersRegistry",
      "inputs": [],
      "outputs": [
        {
          "name": "",
          "type": "address",
          "internalType": "address"
        }
      ],
      "stateMutability": "view"
    },
    {
      "type": "function",
      "name": "upgradeToAndCall",
      "inputs": [
        {
          "name": "newImplementation",
          "type": "address",
          "internalType": "address"
        },
        {
          "name": "data",
          "type": "bytes",
          "internalType": "bytes"
        }
      ],
      "outputs": [],
      "stateMutability": "payable"
    },
    {
      "type": "event",
      "name": "Bootstrapped",
      "inputs": [
        {
          "name": "sender",
          "type": "address",
          "indexed": true,
          "internalType": "address"
        },
        {
          "name": "complianceProxy",
          "type": "address",
          "indexed": true,
          "internalType": "address"
        },
        {
          "name": "identityRegistryProxy",
          "type": "address",
          "indexed": true,
          "internalType": "address"
        },
        {
          "name": "identityRegistryStorageProxy",
          "type": "address",
          "indexed": false,
          "internalType": "address"
        },
        {
          "name": "trustedIssuersRegistryProxy",
          "type": "address",
          "indexed": false,
          "internalType": "address"
        },
        {
          "name": "topicSchemeRegistryProxy",
          "type": "address",
          "indexed": false,
          "internalType": "address"
        },
        {
          "name": "identityFactoryProxy",
          "type": "address",
          "indexed": false,
          "internalType": "address"
        },
        {
          "name": "tokenFactoryRegistryProxy",
          "type": "address",
          "indexed": false,
          "internalType": "address"
        },
        {
          "name": "systemAddonRegistryProxy",
          "type": "address",
          "indexed": false,
          "internalType": "address"
        },
        {
          "name": "complianceModuleRegistryProxy",
          "type": "address",
          "indexed": false,
          "internalType": "address"
        },
        {
          "name": "identityVerificationModule",
          "type": "address",
          "indexed": false,
          "internalType": "address"
        }
      ],
      "anonymous": false
    },
    {
      "type": "event",
      "name": "ComplianceImplementationUpdated",
      "inputs": [
        {
          "name": "sender",
          "type": "address",
          "indexed": true,
          "internalType": "address"
        },
        {
          "name": "newImplementation",
          "type": "address",
          "indexed": true,
          "internalType": "address"
        }
      ],
      "anonymous": false
    },
    {
      "type": "event",
      "name": "ComplianceModuleRegistered",
      "inputs": [
        {
          "name": "sender",
          "type": "address",
          "indexed": true,
          "internalType": "address"
        },
        {
          "name": "name",
          "type": "string",
          "indexed": false,
          "internalType": "string"
        },
        {
          "name": "moduleTypeHash",
          "type": "bytes32",
          "indexed": true,
          "internalType": "bytes32"
        },
        {
          "name": "module",
          "type": "address",
          "indexed": true,
          "internalType": "address"
        },
        {
          "name": "timestamp",
          "type": "uint256",
          "indexed": false,
          "internalType": "uint256"
        }
      ],
      "anonymous": false
    },
    {
      "type": "event",
      "name": "ComplianceModuleRegistryImplementationUpdated",
      "inputs": [
        {
          "name": "sender",
          "type": "address",
          "indexed": true,
          "internalType": "address"
        },
        {
          "name": "newImplementation",
          "type": "address",
          "indexed": true,
          "internalType": "address"
        }
      ],
      "anonymous": false
    },
    {
      "type": "event",
      "name": "IdentityFactoryImplementationUpdated",
      "inputs": [
        {
          "name": "sender",
          "type": "address",
          "indexed": true,
          "internalType": "address"
        },
        {
          "name": "newImplementation",
          "type": "address",
          "indexed": true,
          "internalType": "address"
        }
      ],
      "anonymous": false
    },
    {
      "type": "event",
      "name": "IdentityImplementationUpdated",
      "inputs": [
        {
          "name": "sender",
          "type": "address",
          "indexed": true,
          "internalType": "address"
        },
        {
          "name": "newImplementation",
          "type": "address",
          "indexed": true,
          "internalType": "address"
        }
      ],
      "anonymous": false
    },
    {
      "type": "event",
      "name": "IdentityRegistryImplementationUpdated",
      "inputs": [
        {
          "name": "sender",
          "type": "address",
          "indexed": true,
          "internalType": "address"
        },
        {
          "name": "newImplementation",
          "type": "address",
          "indexed": true,
          "internalType": "address"
        }
      ],
      "anonymous": false
    },
    {
      "type": "event",
      "name": "IdentityRegistryStorageImplementationUpdated",
      "inputs": [
        {
          "name": "sender",
          "type": "address",
          "indexed": true,
          "internalType": "address"
        },
        {
          "name": "newImplementation",
          "type": "address",
          "indexed": true,
          "internalType": "address"
        }
      ],
      "anonymous": false
    },
    {
      "type": "event",
      "name": "Initialized",
      "inputs": [
        {
          "name": "version",
          "type": "uint64",
          "indexed": false,
          "internalType": "uint64"
        }
      ],
      "anonymous": false
    },
    {
      "type": "event",
      "name": "RoleAdminChanged",
      "inputs": [
        {
          "name": "role",
          "type": "bytes32",
          "indexed": true,
          "internalType": "bytes32"
        },
        {
          "name": "previousAdminRole",
          "type": "bytes32",
          "indexed": true,
          "internalType": "bytes32"
        },
        {
          "name": "newAdminRole",
          "type": "bytes32",
          "indexed": true,
          "internalType": "bytes32"
        }
      ],
      "anonymous": false
    },
    {
      "type": "event",
      "name": "RoleGranted",
      "inputs": [
        {
          "name": "role",
          "type": "bytes32",
          "indexed": true,
          "internalType": "bytes32"
        },
        {
          "name": "account",
          "type": "address",
          "indexed": true,
          "internalType": "address"
        },
        {
          "name": "sender",
          "type": "address",
          "indexed": true,
          "internalType": "address"
        }
      ],
      "anonymous": false
    },
    {
      "type": "event",
      "name": "RoleRevoked",
      "inputs": [
        {
          "name": "role",
          "type": "bytes32",
          "indexed": true,
          "internalType": "bytes32"
        },
        {
          "name": "account",
          "type": "address",
          "indexed": true,
          "internalType": "address"
        },
        {
          "name": "sender",
          "type": "address",
          "indexed": true,
          "internalType": "address"
        }
      ],
      "anonymous": false
    },
    {
      "type": "event",
      "name": "SystemAddonRegistryImplementationUpdated",
      "inputs": [
        {
          "name": "sender",
          "type": "address",
          "indexed": true,
          "internalType": "address"
        },
        {
          "name": "newImplementation",
          "type": "address",
          "indexed": true,
          "internalType": "address"
        }
      ],
      "anonymous": false
    },
    {
      "type": "event",
      "name": "TokenAccessManagerImplementationUpdated",
      "inputs": [
        {
          "name": "sender",
          "type": "address",
          "indexed": true,
          "internalType": "address"
        },
        {
          "name": "newImplementation",
          "type": "address",
          "indexed": true,
          "internalType": "address"
        }
      ],
      "anonymous": false
    },
    {
      "type": "event",
      "name": "TokenFactoryRegistryImplementationUpdated",
      "inputs": [
        {
          "name": "sender",
          "type": "address",
          "indexed": true,
          "internalType": "address"
        },
        {
          "name": "newImplementation",
          "type": "address",
          "indexed": true,
          "internalType": "address"
        }
      ],
      "anonymous": false
    },
    {
      "type": "event",
      "name": "TokenIdentityImplementationUpdated",
      "inputs": [
        {
          "name": "sender",
          "type": "address",
          "indexed": true,
          "internalType": "address"
        },
        {
          "name": "newImplementation",
          "type": "address",
          "indexed": true,
          "internalType": "address"
        }
      ],
      "anonymous": false
    },
    {
      "type": "event",
      "name": "TopicSchemeRegistryImplementationUpdated",
      "inputs": [
        {
          "name": "sender",
          "type": "address",
          "indexed": true,
          "internalType": "address"
        },
        {
          "name": "newImplementation",
          "type": "address",
          "indexed": true,
          "internalType": "address"
        }
      ],
      "anonymous": false
    },
    {
      "type": "event",
      "name": "TrustedIssuersRegistryImplementationUpdated",
      "inputs": [
        {
          "name": "sender",
          "type": "address",
          "indexed": true,
          "internalType": "address"
        },
        {
          "name": "newImplementation",
          "type": "address",
          "indexed": true,
          "internalType": "address"
        }
      ],
      "anonymous": false
    },
    {
      "type": "event",
      "name": "Upgraded",
      "inputs": [
        {
          "name": "implementation",
          "type": "address",
          "indexed": true,
          "internalType": "address"
        }
      ],
      "anonymous": false
    },
    {
      "type": "error",
      "name": "AccessControlBadConfirmation",
      "inputs": []
    },
    {
      "type": "error",
      "name": "AccessControlUnauthorizedAccount",
      "inputs": [
        {
          "name": "account",
          "type": "address",
          "internalType": "address"
        },
        {
          "name": "neededRole",
          "type": "bytes32",
          "internalType": "bytes32"
        }
      ]
    },
    {
      "type": "error",
      "name": "AddonRegistryImplementationNotSet",
      "inputs": []
    },
    {
      "type": "error",
      "name": "AddressEmptyCode",
      "inputs": [
        {
          "name": "target",
          "type": "address",
          "internalType": "address"
        }
      ]
    },
    {
      "type": "error",
      "name": "ComplianceImplementationNotSet",
      "inputs": []
    },
    {
      "type": "error",
      "name": "ComplianceModuleRegistryImplementationNotSet",
      "inputs": []
    },
    {
      "type": "error",
      "name": "ERC1967InvalidImplementation",
      "inputs": [
        {
          "name": "implementation",
          "type": "address",
          "internalType": "address"
        }
      ]
    },
    {
      "type": "error",
      "name": "ERC1967NonPayable",
      "inputs": []
    },
    {
      "type": "error",
      "name": "FailedCall",
      "inputs": []
    },
    {
      "type": "error",
      "name": "IdentityFactoryImplementationNotSet",
      "inputs": []
    },
    {
      "type": "error",
      "name": "IdentityImplementationNotSet",
      "inputs": []
    },
    {
      "type": "error",
      "name": "IdentityRegistryImplementationNotSet",
      "inputs": []
    },
    {
      "type": "error",
      "name": "IdentityRegistryStorageImplementationNotSet",
      "inputs": []
    },
    {
      "type": "error",
      "name": "IdentityVerificationModuleNotSet",
      "inputs": []
    },
    {
      "type": "error",
      "name": "InvalidImplementationInterface",
      "inputs": [
        {
          "name": "implAddress",
          "type": "address",
          "internalType": "address"
        },
        {
          "name": "interfaceId",
          "type": "bytes4",
          "internalType": "bytes4"
        }
      ]
    },
    {
      "type": "error",
      "name": "InvalidInitialization",
      "inputs": []
    },
    {
      "type": "error",
      "name": "NotInitializing",
      "inputs": []
    },
    {
      "type": "error",
      "name": "ReentrancyGuardReentrantCall",
      "inputs": []
    },
    {
      "type": "error",
      "name": "SystemAlreadyBootstrapped",
      "inputs": []
    },
    {
      "type": "error",
      "name": "TokenAccessManagerImplementationNotSet",
      "inputs": []
    },
    {
      "type": "error",
      "name": "TokenFactoryRegistryImplementationNotSet",
      "inputs": []
    },
    {
      "type": "error",
      "name": "TokenIdentityImplementationNotSet",
      "inputs": []
    },
    {
      "type": "error",
      "name": "TopicSchemeRegistryImplementationNotSet",
      "inputs": []
    },
    {
      "type": "error",
      "name": "TrustedIssuersRegistryImplementationNotSet",
      "inputs": []
    },
    {
      "type": "error",
      "name": "UUPSUnauthorizedCallContext",
      "inputs": []
    },
    {
      "type": "error",
      "name": "UUPSUnsupportedProxiableUUID",
      "inputs": [
        {
          "name": "slot",
          "type": "bytes32",
          "internalType": "bytes32"
        }
      ]
    }
  ],
  "bytecode": {
    "object": "0x60c03461012457601f61436b38819003918201601f19168301916001600160401b038311848410176101285780849260209460405283398101031261012457516001600160a01b0381168103610124576080523060a0525f51602061434b5f395f51905f525460ff8160401c16610115576002600160401b03196001600160401b038216016100bf575b60405161420e908161013d823960805181818161187f015281816125080152613a99015260a05181818161257f015261264e0152f35b6001600160401b0319166001600160401b039081175f51602061434b5f395f51905f52556040519081527fc7f505b2f371ae2175ee4913f4499e1f2633a7b5936321eed1cdaeb6115181d290602090a15f610089565b63f92ee8a960e01b5f5260045ffd5b5f80fd5b634e487b7160e01b5f52604160045260245ffdfe6080806040526004361015610012575f80fd5b5f905f3560e01c90816301ffc9a714612c1f57508063134e18f414612bf757806316e2277814612b2c578063248a9ca314612aed5780632f2ff15d14612aa357806336568abe14612a4f5780633cdbceda146129e157806344eecc17146129735780634543741c146128bb578063457779a2146128035780634f1ef286146125d357806352d1902d1461256d57806353c41dea1461253c578063572b6c05146124e85780635f513eb4146124c05780636290865d14612498578063636ad552146123e057806363f3d320146123285780636668f95d146123005780636d7203cb1461229257806371302627146118ae5780637da0a8771461186a5780638214faf81461179057806384c9f8a1146117685780638f2e797d146116b057806391d148541461165b57806397da9999146116335780639ccca7731461160b5780639f3b39b114611553578063a10cddc014611479578063a217fddf1461145f578063ab770a87146113a7578063ad3cb1cc1461135c578063c2deb16b146112a4578063c8b5d9111461127c578063d23f1978146111c4578063d547741f14611173578063e5f0c3521461114b578063fb703a7b146111235763fb969b0a146101d6575f80fd5b34611042575f3660031901126110425760025f5160206141425f395f51905f5254146111145760025f5160206141425f395f51905f5255610215612e5b565b60075460ff8160a01c16611105575f5160206140a25f395f51905f525f9081526020527f8d65314c3900695785ce78f1806391d11681664a099321050cf543bfca9e1b30546001600160a01b0316156110f6575f5160206140825f395f51905f525f9081526020527f896817d1019a4d7efb5946af5338f4244675c44d5278f05fb8b8b9c5f8e3b56a546001600160a01b0316156110e7575f5160206140625f395f51905f525f9081526020527fe0f7ac86480a30a323dc9ab8d31cbaa48451defb9f4792b786303b2f15223138546001600160a01b0316156110d8575f5160206141025f395f51905f525f9081526020527fcc1d1d7efa7742b21ee0986d0d5db0f763d35b4737dcf515a1acb5037f8b39ee546001600160a01b0316156110c9575f5160206141a25f395f51905f525f9081526020527f4a910b8d4e8aa9c658e530b4448a2175d17c5dfd5a07c9f502c136587157681d546001600160a01b0316156110ba575f5160206140c25f395f51905f525f9081526020527fc626997e3026fe2ea8f5b63a9c14ce909b942cae8fd0e6ef52d86c5c8cd10a3f546001600160a01b0316156110ab576001600160a01b03161561109c575f5160206141825f395f51905f525f9081526020527f3d5fde6976d6a4c60de0161e79b55e9bc08e415462e58164955dc4c240954617546001600160a01b03161561108d575f5160206141625f395f51905f525f9081526020527f0bd8335bbb04587d9d91998b1cfbf32482d1148490c3edebacc2a92f6114c09f546001600160a01b03161561107e575f5160206141e25f395f51905f525f9081526020527f6d1bd0eb09c27c503bc513398096c2e3aa28bff2c88b163e0cd34347cb06d66a546001600160a01b03161561106f576104a6613a96565b6105136060916040516104b98482612cd1565b60028152601f198401803660208401376105216104d583612d31565b6001600160a01b0385169081905292306104ee82612d52565b5260405195869163a224cee760e01b6020840152602060248401526044830190612da2565b03601f198101865285612cd1565b604051916104d592838101958187106001600160401b0388111761105057610570829189613b8d99888b86393081525f5160206141825f395f51905f5260208201528160408201520190612d0d565b03905ff080156110645760405163485cc95560e01b60208201526001600160a01b0386811660248301523060448301529190911694906105bd81606481015b03601f198101835282612cd1565b604051908582018281106001600160401b038211176110505782918a61060492898c86393081525f5160206141e25f395f51905f5260208201528160408201520190612d0d565b03905ff080156110645760405163485cc95560e01b60208201526001600160a01b038381166024830152306044830152919091169061064681606481016105af565b604051908682018281106001600160401b038211176110505782918b61068d928a8d86393081525f5160206141625f395f51905f5260208201528160408201520190612d0d565b03905ff080156110645760018060a01b0316916105af6106fe6040516106b4608082612cd1565b600381526060366020830137866106ca82612d31565b52846106d582612d52565b52856106e082612d62565b5260405163251b648160e21b60208201529283918560248401612dde565b604051908782018281106001600160401b038211176110505782918c610745928b8e86393081525f5160206140a25f395f51905f5260208201528160408201520190612d0d565b03905ff09081156110645760405163485cc95560e01b60208201523060248201526001600160a01b038216604482015261078281606481016105af565b604051908882018281106001600160401b038211176110505782918d6107c9928c8f86393081525f5160206140625f395f51905f5260208201528160408201520190612d0d565b03905ff080156110645760405163189acdbd60e31b6020820152602480820188905281526001600160a01b03919091169690610806604482612cd1565b604051908982018281106001600160401b038211176110505782918e61084e928f8e9086393081525f5160206141025f395f51905f5260208201528160408201520190612d0d565b03905ff08015611064576040516001600160a01b03909116926108b5906108758e84612cd1565b60028352833660208501378861088a84612d31565b523061089584612d52565b526105af60405193849263251b648160e21b602085015260248401612dde565b604051908982018281106001600160401b038211176110505782918e6108fd928f8e9086393081525f5160206141a25f395f51905f5260208201528160408201520190612d0d565b03905ff080156110645760018060a01b031697604051637c643b2f60e11b60208201528760248201528860448201528360648201528960848201526084815261094760a482612cd1565b604051908282018281106001600160401b038211176110505782918f8f928661098f9486393081525f5160206140825f395f51905f5260208201528160408201520190612d0d565b03905ff09a8b156110645760408051909c6001600160a01b03169890938e908e6109b98188612cd1565b60018752601f198101366020890137836109d288612d31565b5251916109df9083612cd1565b60028252366020830137816109f382612d31565b52876109fe82612d52565b528d519485926336ba930b60e11b60208501523060248501526044840152606483016080905260a48301610a3191612da2565b828103602319016084840152610a4691612da2565b03601f1981018452610a589084612cd1565b8b5192828401928484106001600160401b038511176110505784938f8f8193610a9d9688393083525f5160206140c25f395f51905f5260208401528201520190612d0d565b03905ff09182156110465760018060a01b03166001600160601b0360a01b6001541617600155856001600160601b0360a01b60035416176003556001600160601b0360a01b6004541617600455856001600160601b0360a01b6005541617600555836001600160601b0360a01b600254161760025560018060a01b03166001600160601b0360a01b6006541617600655856001600160601b0360a01b60085416176008556001600160601b0360a01b600a541617600a556001600160601b0360a01b6009541617600955813b15611042575f91602483928751948593849263690a49f960e01b845260048401525af1801561103857611021575b50908491610ba3613a32565b8451610baf8682612cd1565b60038152626b796360e81b6020820152610bc882612d31565b52610bd281612d31565b508451610bdf8682612cd1565b6003815262185b5b60ea1b6020820152610bf882612d52565b52610c0281612d52565b508451610c0f8682612cd1565b600a81526918dbdb1b185d195c985b60b21b6020820152610c2f82612d62565b52610c3981612d62565b508451610c468682612cd1565b600481526334b9b4b760e11b6020820152610c6082612d72565b52610c6a81612d72565b508451610c778682612cd1565b601381527230b9b9b2ba21b630b9b9b4b334b1b0ba34b7b760691b6020820152610ca082612d82565b52610caa81612d82565b508451610cb78682612cd1565b600981526862617365507269636560b81b6020820152610cd682612d92565b52610ce081612d92565b50610ce9613a32565b610cf1613a6c565b610cfa82612d31565b52610d0481612d31565b50610d0d613a6c565b610d1682612d52565b52610d2081612d52565b508551610d2d8882612cd1565b602781527f75696e7432353620616d6f756e742c2075696e7432353620657870697279546960208201526606d657374616d760cc1b87820152610d6f82612d62565b52610d7981612d62565b508551610d868782612cd1565b600b81526a39ba3934b7339034b9b4b760a91b6020820152610da782612d72565b52610db181612d72565b508551610dbe8782612cd1565b601d81527f737472696e6720636c6173732c20737472696e672063617465676f72790000006020820152610df182612d82565b52610dfb81612d82565b508551610e088882612cd1565b603381527f75696e7432353620616d6f756e742c20737472696e672063757272656e6379436020820152726f64652c2075696e743820646563696d616c7360681b87820152610e5682612d92565b52610e6081612d92565b50823b1561101d57610ea792610e95868094895196879586948593630b0501d360e31b85528d60048601526044850190612e03565b83810360031901602485015290612e03565b03925af1801561101357908391610ffa575b50506007546001600160a01b031680610f98575b50506007805460ff60a01b198116600160a01b179091559190507fbd5d495fa48fdac292e37ecd18a919158f7b3e289d9f1ead4356e95ac9aa607e610100610f13613a96565b600154600254600354600454600554600654600a546009546008548c516001600160a01b03978816815295871660208701529386169b85019b909b529084169b83019b909b52998216608082015296811660a088015297881660c087015295871660e086015294861695948516941692a460015f5160206141425f395f51905f525580f35b610fa181613757565b813b15610fec578291602483928651948593849263a3daf30560e01b845260048401525af18015610ff057610fd7575b80610ecd565b81610fe191612cd1565b610fec57825f610fd1565b8280fd5b83513d84823e3d90fd5b8161100491612cd1565b61100f57815f610eb9565b5080fd5b84513d85823e3d90fd5b8480fd5b61102f919295505f90612cd1565b5f93905f610b97565b84513d5f823e3d90fd5b5f80fd5b89513d5f823e3d90fd5b634e487b7160e01b5f52604160045260245ffd5b6040513d5f823e3d90fd5b6308f160e760e21b5f5260045ffd5b63d45619f160e01b5f5260045ffd5b6302a7933960e41b5f5260045ffd5b633ac2d12960e21b5f5260045ffd5b6305b4e73960e51b5f5260045ffd5b6342f4ff8d60e11b5f5260045ffd5b630273e4dd60e41b5f5260045ffd5b63d6cd3aeb60e01b5f5260045ffd5b6397a22d9360e01b5f5260045ffd5b63ee30f64f60e01b5f5260045ffd5b633300a86160e21b5f5260045ffd5b633ee5aeb560e01b5f5260045ffd5b34611042575f366003190112611042576004546040516001600160a01b039091168152602090f35b34611042575f366003190112611042576006546040516001600160a01b039091168152602090f35b34611042576040366003190112611042576111c2600435611192612cbb565b906111bd6111b8825f525f5160206141225f395f51905f52602052600160405f20015490565b612ec3565b613989565b005b34611042576020366003190112611042576111dd612ca5565b6111e5612e5b565b6001600160a01b0381169081156110ba576111ff9061339c565b5f5160206141a25f395f51905f525f9081526020527f4a910b8d4e8aa9c658e530b4448a2175d17c5dfd5a07c9f502c136587157681d80546001600160a01b031916821790556001600160a01b03611255613a96565b167fce8fc7b69fcc1eda934571831e15bb10f95dddbb09559b28ad712d618f6ca0a95f80a3005b34611042575f366003190112611042576007546040516001600160a01b039091168152602090f35b34611042576020366003190112611042576112bd612ca5565b6112c5612e5b565b6001600160a01b0381169081156110c9576112df906132dd565b5f5160206141025f395f51905f525f9081526020527fcc1d1d7efa7742b21ee0986d0d5db0f763d35b4737dcf515a1acb5037f8b39ee80546001600160a01b031916821790556001600160a01b03611335613a96565b167fd48b61a9f91ca2b642303e47ebca68d50d9187468daa2268cdd4ec792ade18045f80a3005b34611042575f366003190112611042576113a360405161137d604082612cd1565b60058152640352e302e360dc1b6020820152604051918291602083526020830190612d0d565b0390f35b34611042576020366003190112611042576113c0612ca5565b6113c8612e5b565b6001600160a01b03811690811561108d576113e2906135d9565b5f5160206141825f395f51905f525f9081526020527f3d5fde6976d6a4c60de0161e79b55e9bc08e415462e58164955dc4c24095461780546001600160a01b031916821790556001600160a01b03611438613a96565b167fe72675c6924bd73b3dcc3a57f2172427325aeec6cad924c1030b84b09c02c5a25f80a3005b34611042575f3660031901126110425760206040515f8152f35b3461104257602036600319011261104257611492612ca5565b61149a612e5b565b6001600160a01b038116908115611544576114b490612f1f565b7f2a9b287c9f7935b85853683e4441fb80d22a0e25a632542e34006259a6fb5cd45f9081526020527fc0afde40bb7e2db83346ddda7f2d314ec324c0da0a370aaec78da0129e9fa47080546001600160a01b031916821790556001600160a01b0361151d613a96565b167f96cb65f899c3cf9ec267a022e255746ae585ae6e1bd3fb01601032dbcc58e3835f80a3005b63e26a8ec760e01b5f5260045ffd5b346110425760203660031901126110425761156c612ca5565b611574612e5b565b6001600160a01b0381169081156110ab5761158e9061345b565b5f5160206140c25f395f51905f525f9081526020527fc626997e3026fe2ea8f5b63a9c14ce909b942cae8fd0e6ef52d86c5c8cd10a3f80546001600160a01b031916821790556001600160a01b036115e4613a96565b167f4bcec9d20bb800258ed241271d77077db5d50a6f76f12140c122c883deef79955f80a3005b34611042575f366003190112611042576008546040516001600160a01b039091168152602090f35b34611042575f36600319011261104257600a546040516001600160a01b039091168152602090f35b3461104257604036600319011261104257611674612cbb565b6004355f525f5160206141225f395f51905f5260205260405f209060018060a01b03165f52602052602060ff60405f2054166040519015158152f35b34611042576020366003190112611042576116c9612ca5565b6116d1612e5b565b6001600160a01b03811690811561106f576116eb90613698565b5f5160206141e25f395f51905f525f9081526020527f6d1bd0eb09c27c503bc513398096c2e3aa28bff2c88b163e0cd34347cb06d66a80546001600160a01b031916821790556001600160a01b03611741613a96565b167f03ed28ab96bd3bf8b572c9ca8f603a061fe45559dae0af29eec5be0c9afab1ef5f80a3005b34611042575f366003190112611042576005546040516001600160a01b039091168152602090f35b34611042576020366003190112611042576117a9612ca5565b6117b1612e5b565b6001600160a01b03811690811561185b576117cb9061351a565b7ffd0848d3b3d5097709c8a358c5ce1cac68b5e00ab286dbc73128b45b54b2c77f5f9081526020527f3c7de5c8674d8b73f9b203f26107eb2ab33374d6613ecd4012a58e0aee16c18080546001600160a01b031916821790556001600160a01b03611834613a96565b167f4bd715e9ad4344031fe5194dd335709e8af5fc028d2d990a192615beb3ef11fa5f80a3005b63099d3e0360e21b5f5260045ffd5b34611042575f366003190112611042576040517f00000000000000000000000000000000000000000000000000000000000000006001600160a01b03168152602090f35b34611042576101c0366003190112611042576118c8612ca5565b6118d0612cbb565b60443591906001600160a01b038316830361104257606435926001600160a01b038416840361104257608435936001600160a01b03851685036110425760a4356001600160a01b03811681036110425760c4356001600160a01b03811681036110425760e4356001600160a01b03811681036110425761010435916001600160a01b03831683036110425761012435906001600160a01b03821682036110425761014435946001600160a01b038616860361104257610164359a6001600160a01b038c168c036110425761018435976001600160a01b0389168903611042576101a435996001600160a01b038b168b03611042575f5160206141c25f395f51905f52549b8c6001600160401b03811680159182612283575b506001149081612279575b159081612270575b5061226157611a668e8e60016001600160401b03198216175f5160206141c25f395f51905f525560ff8160401c1615612235575b50611a38613b03565b611a40613b03565b611a48613b03565b60015f5160206141425f395f51905f5255611a61613b03565b613816565b506001600160a01b038116156110f657611a7f816130a0565b5f5160206140a25f395f51905f525f90815260208190527f8d65314c3900695785ce78f1806391d11681664a099321050cf543bfca9e1b3080546001600160a01b0319166001600160a01b03938416908117909155918f16907f18ea1177da83ebf23520cb37420841e05033121576c404e09f73db10fea6ac789080a36001600160a01b038116156110e757611b148161321e565b5f5160206140825f395f51905f525f90815260208190527f896817d1019a4d7efb5946af5338f4244675c44d5278f05fb8b8b9c5f8e3b56a80546001600160a01b0319166001600160a01b03938416908117909155918e16907fe8ad049e0ad7908009ae0f7f4364595fd1a499488f22fa486d8542dcc57af4139080a36001600160a01b038116156110d857611ba981612fe1565b5f5160206140625f395f51905f525f90815260208190527fe0f7ac86480a30a323dc9ab8d31cbaa48451defb9f4792b786303b2f1522313880546001600160a01b0319166001600160a01b03938416908117909155918d16907f81275737702fb4f879c5b1b3ef8d4de980fdb3a2b4462ad24fe8c7832e7d0f479080a36001600160a01b038116156110c957611c3e816132dd565b5f5160206141025f395f51905f525f90815260208190527fcc1d1d7efa7742b21ee0986d0d5db0f763d35b4737dcf515a1acb5037f8b39ee80546001600160a01b0319166001600160a01b03938416908117909155918c16907fd48b61a9f91ca2b642303e47ebca68d50d9187468daa2268cdd4ec792ade18049080a36001600160a01b038116156110ba57611cd38161339c565b5f5160206141a25f395f51905f525f90815260208190527f4a910b8d4e8aa9c658e530b4448a2175d17c5dfd5a07c9f502c136587157681d80546001600160a01b0319166001600160a01b03938416908117909155918b16907fce8fc7b69fcc1eda934571831e15bb10f95dddbb09559b28ad712d618f6ca0a99080a36001600160a01b038116156110ab57611d688161345b565b5f5160206140c25f395f51905f525f90815260208190527fc626997e3026fe2ea8f5b63a9c14ce909b942cae8fd0e6ef52d86c5c8cd10a3f80546001600160a01b0319166001600160a01b03938416908117909155918a16907f4bcec9d20bb800258ed241271d77077db5d50a6f76f12140c122c883deef79959080a36001600160a01b0381161561185b57611dfd8161351a565b7ffd0848d3b3d5097709c8a358c5ce1cac68b5e00ab286dbc73128b45b54b2c77f5f90815260208190527f3c7de5c8674d8b73f9b203f26107eb2ab33374d6613ecd4012a58e0aee16c18080546001600160a01b0319166001600160a01b03938416908117909155918916907f4bd715e9ad4344031fe5194dd335709e8af5fc028d2d990a192615beb3ef11fa9080a36001600160a01b0381161561222657611ea581612f1f565b7f377799b22fba826cf24c3f07e6731c67676765addcee33415a2c80d453d4ed6e5f90815260208190527f49013ba1a4f206ec277136d5491ad1e86dad742fe84891165cee08608aeb427780546001600160a01b0319166001600160a01b03938416908117909155918816907fefea9f2b39bb4f73b0a1080278a75714ae7d6def44739e209eebe2085b9b62b39080a36001600160a01b0381161561154457611f4d81612f1f565b7f2a9b287c9f7935b85853683e4441fb80d22a0e25a632542e34006259a6fb5cd45f90815260208190527fc0afde40bb7e2db83346ddda7f2d314ec324c0da0a370aaec78da0129e9fa47080546001600160a01b0319166001600160a01b03938416908117909155918716907f96cb65f899c3cf9ec267a022e255746ae585ae6e1bd3fb01601032dbcc58e3839080a36001600160a01b0381161561109c57600780546001600160a01b0319166001600160a01b0392831617905581161561108d57612018816135d9565b5f5160206141825f395f51905f525f90815260208190527f3d5fde6976d6a4c60de0161e79b55e9bc08e415462e58164955dc4c24095461780546001600160a01b0319166001600160a01b03938416908117909155918516907fe72675c6924bd73b3dcc3a57f2172427325aeec6cad924c1030b84b09c02c5a29080a36001600160a01b0381161561107e576120ad8161315f565b5f5160206141625f395f51905f525f90815260208190527f0bd8335bbb04587d9d91998b1cfbf32482d1148490c3edebacc2a92f6114c09f80546001600160a01b0319166001600160a01b03938416908117909155918416907f6f78da7b29726029241937f8e3d223920d67289c660eb9518d4f346239189a999080a36001600160a01b0383161561106f5760ff9161214584613698565b5f5160206141e25f395f51905f525f90815260208190527f6d1bd0eb09c27c503bc513398096c2e3aa28bff2c88b163e0cd34347cb06d66a80546001600160a01b0319166001600160a01b0396871690811790915560405195909216907f03ed28ab96bd3bf8b572c9ca8f603a061fe45559dae0af29eec5be0c9afab1ef9080a360401c16156121d157005b60207fc7f505b2f371ae2175ee4913f4499e1f2633a7b5936321eed1cdaeb6115181d29168ff0000000000000000195f5160206141c25f395f51905f5254165f5160206141c25f395f51905f525560018152a1005b632384fcc160e11b5f5260045ffd5b68ffffffffffffffffff191668010000000000000001175f5160206141c25f395f51905f52558e611a2f565b63f92ee8a960e01b5f5260045ffd5b9050155f6119fb565b303b1591506119f3565b60401c60ff161591508e6119e8565b34611042575f366003190112611042577f377799b22fba826cf24c3f07e6731c67676765addcee33415a2c80d453d4ed6e5f90815260209081527f49013ba1a4f206ec277136d5491ad1e86dad742fe84891165cee08608aeb4277546040516001600160a01b039091168152f35b34611042575f366003190112611042576009546040516001600160a01b039091168152602090f35b3461104257602036600319011261104257612341612ca5565b612349612e5b565b6001600160a01b0381169081156110e7576123639061321e565b5f5160206140825f395f51905f525f9081526020527f896817d1019a4d7efb5946af5338f4244675c44d5278f05fb8b8b9c5f8e3b56a80546001600160a01b031916821790556001600160a01b036123b9613a96565b167fe8ad049e0ad7908009ae0f7f4364595fd1a499488f22fa486d8542dcc57af4135f80a3005b34611042576020366003190112611042576123f9612ca5565b612401612e5b565b6001600160a01b03811690811561107e5761241b9061315f565b5f5160206141625f395f51905f525f9081526020527f0bd8335bbb04587d9d91998b1cfbf32482d1148490c3edebacc2a92f6114c09f80546001600160a01b031916821790556001600160a01b03612471613a96565b167f6f78da7b29726029241937f8e3d223920d67289c660eb9518d4f346239189a995f80a3005b34611042575f366003190112611042576001546040516001600160a01b039091168152602090f35b34611042575f366003190112611042576003546040516001600160a01b039091168152602090f35b34611042576020366003190112611042576020612503612ca5565b6040517f00000000000000000000000000000000000000000000000000000000000000006001600160a01b039081169216919091148152f35b34611042576020366003190112611042576004355f525f602052602060018060a01b0360405f205416604051908152f35b34611042575f366003190112611042577f00000000000000000000000000000000000000000000000000000000000000006001600160a01b031630036125c45760206040515f5160206140e25f395f51905f528152f35b63703e46dd60e11b5f5260045ffd5b6040366003190112611042576125e7612ca5565b602435906001600160401b03821161104257366023830112156110425781600401359061261382612cf2565b916126216040519384612cd1565b8083526020830193366024838301011161104257815f926024602093018737840101526001600160a01b037f0000000000000000000000000000000000000000000000000000000000000000163081149081156127e1575b506125c457612686612e5b565b6040516352d1902d60e01b81526001600160a01b0382169390602081600481885afa5f91816127ad575b506126c85784634c9c8ce360e01b5f5260045260245ffd5b805f5160206140e25f395f51905f5286920361279b5750823b15612789575f5160206140e25f395f51905f5280546001600160a01b031916821790557fbc7cd75a20ee27fd9adebab32041f755214dbc6bffa90cc0225b39da2e5c2d3b5f80a2825115612770575f80916111c2945190845af43d15612768573d9161274c83612cf2565b9261275a6040519485612cd1565b83523d5f602085013e613b2e565b606091613b2e565b5050503461277a57005b63b398979f60e01b5f5260045ffd5b634c9c8ce360e01b5f5260045260245ffd5b632a87526960e21b5f5260045260245ffd5b9091506020813d6020116127d9575b816127c960209383612cd1565b81010312611042575190866126b0565b3d91506127bc565b5f5160206140e25f395f51905f52546001600160a01b03161415905084612679565b346110425760203660031901126110425761281c612ca5565b612824612e5b565b6001600160a01b0381169081156110f65761283e906130a0565b5f5160206140a25f395f51905f525f9081526020527f8d65314c3900695785ce78f1806391d11681664a099321050cf543bfca9e1b3080546001600160a01b031916821790556001600160a01b03612894613a96565b167f18ea1177da83ebf23520cb37420841e05033121576c404e09f73db10fea6ac785f80a3005b34611042576020366003190112611042576128d4612ca5565b6128dc612e5b565b6001600160a01b0381169081156110d8576128f690612fe1565b5f5160206140625f395f51905f525f9081526020527fe0f7ac86480a30a323dc9ab8d31cbaa48451defb9f4792b786303b2f1522313880546001600160a01b031916821790556001600160a01b0361294c613a96565b167f81275737702fb4f879c5b1b3ef8d4de980fdb3a2b4462ad24fe8c7832e7d0f475f80a3005b34611042575f366003190112611042577ffd0848d3b3d5097709c8a358c5ce1cac68b5e00ab286dbc73128b45b54b2c77f5f90815260209081527f3c7de5c8674d8b73f9b203f26107eb2ab33374d6613ecd4012a58e0aee16c180546040516001600160a01b039091168152f35b34611042575f366003190112611042577f2a9b287c9f7935b85853683e4441fb80d22a0e25a632542e34006259a6fb5cd45f90815260209081527fc0afde40bb7e2db83346ddda7f2d314ec324c0da0a370aaec78da0129e9fa470546040516001600160a01b039091168152f35b3461104257604036600319011261104257612a68612cbb565b6001600160a01b03612a78613a96565b166001600160a01b03821603612a94576111c290600435613989565b63334bd91960e11b5f5260045ffd5b34611042576040366003190112611042576111c2600435612ac2612cbb565b90612ae86111b8825f525f5160206141225f395f51905f52602052600160405f20015490565b6138d8565b34611042576020366003190112611042576020612b246004355f525f5160206141225f395f51905f52602052600160405f20015490565b604051908152f35b3461104257602036600319011261104257612b45612ca5565b612b4d612e5b565b6001600160a01b03811690811561222657612b6790612f1f565b7f377799b22fba826cf24c3f07e6731c67676765addcee33415a2c80d453d4ed6e5f9081526020527f49013ba1a4f206ec277136d5491ad1e86dad742fe84891165cee08608aeb427780546001600160a01b031916821790556001600160a01b03612bd0613a96565b167fefea9f2b39bb4f73b0a1080278a75714ae7d6def44739e209eebe2085b9b62b35f80a3005b34611042575f366003190112611042576002546040516001600160a01b039091168152602090f35b34611042576020366003190112611042576004359063ffffffff60e01b821680920361104257602091637965db0b60e01b8114908115612c94575b8115612c80575b8115612c6f575b5015158152f35b6329e20ef560e11b14905083612c68565b60016223dac160e01b031981149150612c61565b6301ffc9a760e01b81149150612c5a565b600435906001600160a01b038216820361104257565b602435906001600160a01b038216820361104257565b90601f801991011681019081106001600160401b0382111761105057604052565b6001600160401b03811161105057601f01601f191660200190565b805180835260209291819084018484015e5f828201840152601f01601f1916010190565b805115612d3e5760200190565b634e487b7160e01b5f52603260045260245ffd5b805160011015612d3e5760400190565b805160021015612d3e5760600190565b805160031015612d3e5760800190565b805160041015612d3e5760a00190565b805160051015612d3e5760c00190565b90602080835192838152019201905f5b818110612dbf5750505090565b82516001600160a01b0316845260209384019390920191600101612db2565b6001600160a01b039091168152604060208201819052612e0092910190612da2565b90565b9080602083519182815201916020808360051b8301019401925f915b838310612e2e57505050505090565b9091929394602080612e4c600193601f198682030187528951612d0d565b97019301930191939290612e1f565b612e63613a96565b6001600160a01b0381165f9081527fb7db2dd08fcb62d0c9e08c51941cae53c267786a0b75803fb7960902fc8ef97d602052604090205460ff1615612ea55750565b63e2517d3f60e01b5f5260018060a01b03166004525f60245260445ffd5b612ecb613a96565b815f525f5160206141225f395f51905f5260205260405f2060018060a01b0382165f5260205260ff60405f20541615612f02575050565b63e2517d3f60e01b5f5260018060a01b031660045260245260445ffd5b6001600160a01b03168015612fde576040516301ffc9a760e01b815263604b4d3760e11b6004820152602081602481855afa5f9181612fa1575b50612f7c57506327224edf60e01b5f5260045263604b4d3760e11b60245260445ffd5b15612f845750565b6327224edf60e01b5f5260045263604b4d3760e11b60245260445ffd5b9091506020813d602011612fd6575b81612fbd60209383612cd1565b810103126110425751801515810361104257905f612f59565b3d9150612fb0565b50565b6001600160a01b03168015612fde576040516301ffc9a760e01b815263485cc95560e01b6004820152602081602481855afa5f9181613063575b5061303e57506327224edf60e01b5f5260045263485cc95560e01b60245260445ffd5b156130465750565b6327224edf60e01b5f5260045263485cc95560e01b60245260445ffd5b9091506020813d602011613098575b8161307f60209383612cd1565b810103126110425751801515810361104257905f61301b565b3d9150613072565b6001600160a01b03168015612fde576040516301ffc9a760e01b8152630605276f60e21b6004820152602081602481855afa5f9181613122575b506130fd57506327224edf60e01b5f52600452630605276f60e21b60245260445ffd5b156131055750565b6327224edf60e01b5f52600452630605276f60e21b60245260445ffd5b9091506020813d602011613157575b8161313e60209383612cd1565b810103126110425751801515810361104257905f6130da565b3d9150613131565b6001600160a01b03168015612fde576040516301ffc9a760e01b81526313ea42db60e11b6004820152602081602481855afa5f91816131e1575b506131bc57506327224edf60e01b5f526004526313ea42db60e11b60245260445ffd5b156131c45750565b6327224edf60e01b5f526004526313ea42db60e11b60245260445ffd5b9091506020813d602011613216575b816131fd60209383612cd1565b810103126110425751801515810361104257905f613199565b3d91506131f0565b6001600160a01b03168015612fde576040516301ffc9a760e01b8152637c643b2f60e11b6004820152602081602481855afa5f91816132a0575b5061327b57506327224edf60e01b5f52600452637c643b2f60e11b60245260445ffd5b156132835750565b6327224edf60e01b5f52600452637c643b2f60e11b60245260445ffd5b9091506020813d6020116132d5575b816132bc60209383612cd1565b810103126110425751801515810361104257905f613258565b3d91506132af565b6001600160a01b03168015612fde576040516301ffc9a760e01b815263189acdbd60e31b6004820152602081602481855afa5f918161335f575b5061333a57506327224edf60e01b5f5260045263189acdbd60e31b60245260445ffd5b156133425750565b6327224edf60e01b5f5260045263189acdbd60e31b60245260445ffd5b9091506020813d602011613394575b8161337b60209383612cd1565b810103126110425751801515810361104257905f613317565b3d915061336e565b6001600160a01b03168015612fde576040516301ffc9a760e01b815263251b648160e21b6004820152602081602481855afa5f918161341e575b506133f957506327224edf60e01b5f5260045263251b648160e21b60245260445ffd5b156134015750565b6327224edf60e01b5f5260045263251b648160e21b60245260445ffd5b9091506020813d602011613453575b8161343a60209383612cd1565b810103126110425751801515810361104257905f6133d6565b3d915061342d565b6001600160a01b03168015612fde576040516301ffc9a760e01b8152636e3bbdf760e01b6004820152602081602481855afa5f91816134dd575b506134b857506327224edf60e01b5f52600452636e3bbdf760e01b60245260445ffd5b156134c05750565b6327224edf60e01b5f52600452636e3bbdf760e01b60245260445ffd5b9091506020813d602011613512575b816134f960209383612cd1565b810103126110425751801515810361104257905f613495565b3d91506134ec565b6001600160a01b03168015612fde576040516301ffc9a760e01b8152631983557360e21b6004820152602081602481855afa5f918161359c575b5061357757506327224edf60e01b5f52600452631983557360e21b60245260445ffd5b1561357f5750565b6327224edf60e01b5f52600452631983557360e21b60245260445ffd5b9091506020813d6020116135d1575b816135b860209383612cd1565b810103126110425751801515810361104257905f613554565b3d91506135ab565b6001600160a01b03168015612fde576040516301ffc9a760e01b81526378ed340f60e11b6004820152602081602481855afa5f918161365b575b5061363657506327224edf60e01b5f526004526378ed340f60e11b60245260445ffd5b1561363e5750565b6327224edf60e01b5f526004526378ed340f60e11b60245260445ffd5b9091506020813d602011613690575b8161367760209383612cd1565b810103126110425751801515810361104257905f613613565b3d915061366a565b6001600160a01b03168015612fde576040516301ffc9a760e01b815263062b3d7360e11b6004820152602081602481855afa5f918161371a575b506136f557506327224edf60e01b5f5260045263062b3d7360e11b60245260445ffd5b156136fd5750565b6327224edf60e01b5f5260045263062b3d7360e11b60245260445ffd5b9091506020813d60201161374f575b8161373660209383612cd1565b810103126110425751801515810361104257905f6136d2565b3d9150613729565b6001600160a01b03168015612fde576040516301ffc9a760e01b8152638c30a94360e01b6004820152602081602481855afa5f91816137d9575b506137b457506327224edf60e01b5f52600452638c30a94360e01b60245260445ffd5b156137bc5750565b6327224edf60e01b5f52600452638c30a94360e01b60245260445ffd5b9091506020813d60201161380e575b816137f560209383612cd1565b810103126110425751801515810361104257905f613791565b3d91506137e8565b6001600160a01b0381165f9081527fb7db2dd08fcb62d0c9e08c51941cae53c267786a0b75803fb7960902fc8ef97d602052604090205460ff166138d3576001600160a01b038181165f9081527fb7db2dd08fcb62d0c9e08c51941cae53c267786a0b75803fb7960902fc8ef97d60205260409020805460ff1916600117905561389e613a96565b16906001600160a01b03165f7f2f8788117e7eff1d82e926ec794901d17c78024a50270940304540a733656f0d8180a4600190565b505f90565b5f8181525f5160206141225f395f51905f52602090815260408083206001600160a01b038616845290915290205460ff16613983575f8181525f5160206141225f395f51905f52602090815260408083206001600160a01b0386811685529252909120805460ff1916600117905561394e613a96565b16916001600160a01b0316907f2f8788117e7eff1d82e926ec794901d17c78024a50270940304540a733656f0d5f80a4600190565b50505f90565b5f8181525f5160206141225f395f51905f52602090815260408083206001600160a01b038616845290915290205460ff1615613983575f8181525f5160206141225f395f51905f52602090815260408083206001600160a01b0386811685529252909120805460ff191690556139fd613a96565b16916001600160a01b0316907ff6391f5c32d9c69d2a47ea670b442974b53935d1edc7fd64eb21e047a839171b5f80a4600190565b60405160e09190613a438382612cd1565b6006815291601f1901825f5b828110613a5b57505050565b806060602080938501015201613a4f565b60405190613a7b604083612cd1565b600c82526b737472696e6720636c61696d60a01b6020830152565b337f00000000000000000000000000000000000000000000000000000000000000006001600160a01b03161480613af8575b15613af4576013193601368111613ae0573560601c90565b634e487b7160e01b5f52601160045260245ffd5b3390565b506014361015613ac8565b60ff5f5160206141c25f395f51905f525460401c1615613b1f57565b631afcd79f60e31b5f5260045ffd5b90613b525750805115613b4357805190602001fd5b63d6bda27560e01b5f5260045ffd5b81511580613b83575b613b63575090565b639996b31560e01b5f9081526001600160a01b0391909116600452602490fd5b50803b15613b5b56fe6080604052346100a4576104d5803803809161001a826100bc565b60803960608160800191126100a45761003161010a565b60a05160c05192916001600160401b0384116100a45782609f850112156100a457836080015161006081610120565b9361006e60405195866100e7565b81855260a082870101116100a4576020815f9260a061009598018388015e8501015261015e565b604051610147908161034e8239f35b5f80fd5b634e487b7160e01b5f52604160045260245ffd5b6080601f91909101601f19168101906001600160401b038211908210176100e257604052565b6100a8565b601f909101601f19168101906001600160401b038211908210176100e257604052565b608051906001600160a01b03821682036100a457565b6001600160401b0381116100e257601f01601f191660200190565b908160209103126100a4575180151581036100a45790565b6040513d5f823e3d90fd5b9091906001600160a01b03811680159081156101dc575b506101cd575f5160206104b55f395f51905f5280546001600160a01b0319166001600160a01b039092169190911790556101cb916101be905f5160206104955f395f51905f5255565b6101c661024e565b6102e0565b565b637bfd2e8360e01b5f5260045ffd5b6040516301ffc9a760e01b81526329e20ef560e11b60048201529150602090829060249082905afa908115610249575f9161021a575b50155f610175565b61023c915060203d602011610242575b61023481836100e7565b81019061013b565b5f610212565b503d61022a565b610153565b60018060a01b035f5160206104b55f395f51905f52541660205f5160206104955f395f51905f52546024604051809481936329e20ef560e11b835260048301525afa908115610249575f916102a1575090565b90506020813d6020116102d8575b816102bc602093836100e7565b810103126100a457516001600160a01b03811681036100a45790565b3d91506102af565b6001600160a01b0381161561033e57815f929160208493519201905af43d15610336573d9061030e82610120565b9161031c60405193846100e7565b82523d5f602084013e5b1561032e5750565b602081519101fd5b606090610326565b63ee0a129760e01b5f5260045ffdfe608060405236156100b1576020608060248160018060a01b037fa31119ed2f30cf540b9f48eb7e1890285b3a2287937a099a1e0f359fc5ce172b54167f2a94c78684c8756e2c9669f50cc2acf3b762274c5f6f55e8495bba510078ce48546329e20ef560e11b83526084525afa80156100a6575f901561011d575060203d60201161009f575b8061009261009a926100c0565b6080016100f7565b61011d565b503d610085565b6040513d5f823e3d90fd5b635d82995b60e01b5f5260045ffd5b601f80199101166080016080811067ffffffffffffffff8211176100e357604052565b634e487b7160e01b5f52604160045260245ffd5b602090607f190112610119576080516001600160a01b03811681036101195790565b5f80fd5b5f8091368280378136915af43d5f803e15610136573d5ff35b3d5ffdfea164736f6c634300081c000a2a94c78684c8756e2c9669f50cc2acf3b762274c5f6f55e8495bba510078ce48a31119ed2f30cf540b9f48eb7e1890285b3a2287937a099a1e0f359fc5ce172be6851a07912dd9a4f09145aaaaafc846311e4f9484fe76fe56ad30860a81178d3996d91349e7a673ed7b0e52e2ca432e52722f468cbd3f26bac1c0d9d3f0a17ea67a057d728d16e162a15912cbf6e8d4fcd69e5b7b0d1f849a0a10ca6e14741c34c426c3e8d04545c7ef079c741965aa11b87af2d15db215a02b8276d6081d05360894a13ba1a3210667c828492db98dca3e2076cc3735a920a3ca505d382bbc1039a321b40254935399572139eba4a4713697a8f37a79899ca634081a3dd77202dd7bc7dec4dceedda775e58dd541e08a116c6c53815c0bd028192f7b6268009b779b17422d0df92223018b32b4d1fa46e071723d6817e2486d003becc55f002cd614944b91db7697eb22f403c197d74f4136c29af75ecab4f7899ac0b5d7a793b7e046e6fe6186da050a81035578c7e3ec76e85f4783c222c3b106fcd88d44ecc8ffb560fe323c430bbcac015919dd0f4f71c02a739cad18de91b60218d214f0c57e16840df040f15088dc2f81fe391c3923bec73e23a9662efc9c229c6a0022a1e31d7b5d1d6548f942932438bc54b4df1f3b4be72bc233e4fb449e7043bda164736f6c634300081c000af0c57e16840df040f15088dc2f81fe391c3923bec73e23a9662efc9c229c6a00",
    "linkReferences": {}
  },
  "methodIdentifiers": {
    "DEFAULT_ADMIN_ROLE()": "a217fddf",
    "UPGRADE_INTERFACE_VERSION()": "ad3cb1cc",
    "bootstrap()": "fb969b0a",
    "compliance()": "6290865d",
    "complianceModuleRegistry()": "9ccca773",
    "getRoleAdmin(bytes32)": "248a9ca3",
    "grantRole(bytes32,address)": "2f2ff15d",
    "hasRole(bytes32,address)": "91d14854",
    "identityFactory()": "e5f0c352",
    "identityImplementation()": "6d7203cb",
    "identityRegistry()": "134e18f4",
    "identityRegistryStorage()": "5f513eb4",
    "identityVerificationModule()": "c8b5d911",
    "implementation(bytes32)": "53c41dea",
    "initialize(address,address,address,address,address,address,address,address,address,address,address,address,address,address)": "71302627",
    "isTrustedForwarder(address)": "572b6c05",
    "proxiableUUID()": "52d1902d",
    "renounceRole(bytes32,address)": "36568abe",
    "revokeRole(bytes32,address)": "d547741f",
    "setAddonRegistryImplementation(address)": "636ad552",
    "setComplianceImplementation(address)": "457779a2",
    "setComplianceModuleRegistryImplementation(address)": "ab770a87",
    "setIdentityFactoryImplementation(address)": "9f3b39b1",
    "setIdentityImplementation(address)": "16e22778",
    "setIdentityRegistryImplementation(address)": "63f3d320",
    "setIdentityRegistryStorageImplementation(address)": "4543741c",
    "setTokenAccessManagerImplementation(address)": "8214faf8",
    "setTokenFactoryRegistryImplementation(address)": "8f2e797d",
    "setTokenIdentityImplementation(address)": "a10cddc0",
    "setTopicSchemeRegistryImplementation(address)": "d23f1978",
    "setTrustedIssuersRegistryImplementation(address)": "c2deb16b",
    "supportsInterface(bytes4)": "01ffc9a7",
    "systemAddonRegistry()": "6668f95d",
    "tokenAccessManagerImplementation()": "44eecc17",
    "tokenFactoryRegistry()": "97da9999",
    "tokenIdentityImplementation()": "3cdbceda",
    "topicSchemeRegistry()": "84c9f8a1",
    "trustedForwarder()": "7da0a877",
    "trustedIssuersRegistry()": "fb703a7b",
    "upgradeToAndCall(address,bytes)": "4f1ef286"
  },
  "userdoc": {
    "version": 1,
    "kind": "user",
    "methods": {
      "bootstrap()": {
        "notice": "Deploys and initializes the proxy contracts for all core ATK modules."
      },
      "compliance()": {
        "notice": "Gets the address of the compliance module's proxy contract."
      },
      "complianceModuleRegistry()": {
        "notice": "Gets the address of the compliance module registry's proxy contract."
      },
      "identityFactory()": {
        "notice": "Gets the address of the identity factory module's proxy contract."
      },
      "identityImplementation()": {
        "notice": "Returns the address of the identity implementation."
      },
      "identityRegistry()": {
        "notice": "Gets the address of the identity registry module's proxy contract."
      },
      "identityRegistryStorage()": {
        "notice": "Gets the address of the identity registry storage module's proxy contract."
      },
      "identityVerificationModule()": {
        "notice": "Gets the address of the identity verification module's proxy contract."
      },
      "implementation(bytes32)": {
        "notice": "Gets the implementation address for a given module type."
      },
      "initialize(address,address,address,address,address,address,address,address,address,address,address,address,address,address)": {
        "notice": "Initializes the ATKSystem contract."
      },
      "setAddonRegistryImplementation(address)": {
        "notice": "Sets (updates) the address of the addon registry's implementation (logic) contract."
      },
      "setComplianceImplementation(address)": {
        "notice": "Sets (updates) the address of the compliance module's implementation (logic) contract."
      },
      "setComplianceModuleRegistryImplementation(address)": {
        "notice": "Sets (updates) the address of the compliance module registry's implementation (logic) contract."
      },
      "setIdentityFactoryImplementation(address)": {
        "notice": "Sets (updates) the address of the identity factory module's implementation (logic) contract."
      },
      "setIdentityImplementation(address)": {
        "notice": "Sets (updates) the address of the standard identity contract's implementation (logic template)."
      },
      "setIdentityRegistryImplementation(address)": {
        "notice": "Sets (updates) the address of the identity registry module's implementation (logic) contract."
      },
      "setIdentityRegistryStorageImplementation(address)": {
        "notice": "Sets (updates) the address of the identity registry storage module's implementation (logic) contract."
      },
      "setTokenAccessManagerImplementation(address)": {
        "notice": "Sets (updates) the address of the token access manager contract's implementation (logic)."
      },
      "setTokenFactoryRegistryImplementation(address)": {
        "notice": "Sets (updates) the address of the token factory registry's implementation (logic) contract."
      },
      "setTokenIdentityImplementation(address)": {
        "notice": "Sets (updates) the address of the token identity contract's implementation (logic template)."
      },
      "setTopicSchemeRegistryImplementation(address)": {
        "notice": "Sets (updates) the address of the topic scheme registry module's implementation (logic) contract."
      },
      "setTrustedIssuersRegistryImplementation(address)": {
        "notice": "Sets (updates) the address of the trusted issuers registry module's implementation (logic) contract."
      },
      "supportsInterface(bytes4)": {
        "notice": "Checks if the contract supports a given interface ID, according to ERC165."
      },
      "systemAddonRegistry()": {
        "notice": "Gets the address of the addon registry's proxy contract."
      },
      "tokenAccessManagerImplementation()": {
        "notice": "Returns the address of the access manager implementation."
      },
      "tokenFactoryRegistry()": {
        "notice": "Gets the address of the token factory registry's proxy contract."
      },
      "tokenIdentityImplementation()": {
        "notice": "Returns the address of the token identity implementation."
      },
      "topicSchemeRegistry()": {
        "notice": "Gets the address of the topic scheme registry module's proxy contract."
      },
      "trustedIssuersRegistry()": {
        "notice": "Gets the address of the trusted issuers registry module's proxy contract."
      }
    },
    "events": {
      "Bootstrapped(address,address,address,address,address,address,address,address,address,address,address)": {
        "notice": "Emitted when the `bootstrap` function has been successfully executed, creating and linking proxy contracts for all core modules of the ATKSystem."
      },
      "ComplianceImplementationUpdated(address,address)": {
        "notice": "Emitted when the implementation (logic contract) for the compliance module is updated."
      },
      "ComplianceModuleRegistered(address,string,bytes32,address,uint256)": {
        "notice": "Emitted when a compliance module is registered."
      },
      "ComplianceModuleRegistryImplementationUpdated(address,address)": {
        "notice": "Emitted when the implementation (logic contract) for the compliance module registry is updated."
      },
      "IdentityFactoryImplementationUpdated(address,address)": {
        "notice": "Emitted when the implementation (logic contract) for the identity factory module is updated."
      },
      "IdentityImplementationUpdated(address,address)": {
        "notice": "Emitted when the implementation (logic contract) for the standard identity module is updated."
      },
      "IdentityRegistryImplementationUpdated(address,address)": {
        "notice": "Emitted when the implementation (logic contract) for the identity registry module is updated."
      },
      "IdentityRegistryStorageImplementationUpdated(address,address)": {
        "notice": "Emitted when the implementation (logic contract) for the identity registry storage module is updated."
      },
      "SystemAddonRegistryImplementationUpdated(address,address)": {
        "notice": "Emitted when the implementation (logic contract) for the addon registry is updated."
      },
      "TokenAccessManagerImplementationUpdated(address,address)": {
        "notice": "Emitted when the implementation (logic contract) for the token access manager module is updated."
      },
      "TokenFactoryRegistryImplementationUpdated(address,address)": {
        "notice": "Emitted when the implementation (logic contract) for the token factory registry is updated."
      },
      "TokenIdentityImplementationUpdated(address,address)": {
        "notice": "Emitted when the implementation (logic contract) for the token identity module is updated."
      },
      "TopicSchemeRegistryImplementationUpdated(address,address)": {
        "notice": "Emitted when the implementation (logic contract) for the topic scheme registry module is updated."
      },
      "TrustedIssuersRegistryImplementationUpdated(address,address)": {
        "notice": "Emitted when the implementation (logic contract) for the trusted issuers registry module is updated."
      }
    },
    "errors": {
      "AddonRegistryImplementationNotSet()": [
        {
          "notice": "Error indicating that the addon registry implementation address has not been set."
        }
      ],
      "ComplianceImplementationNotSet()": [
        {
          "notice": "Error indicating that the compliance module implementation address has not been set."
        }
      ],
      "ComplianceModuleRegistryImplementationNotSet()": [
        {
          "notice": "Error indicating that the compliance module registry implementation address has not been set."
        }
      ],
      "IdentityFactoryImplementationNotSet()": [
        {
          "notice": "Error indicating that the identity factory implementation address has not been set."
        }
      ],
      "IdentityImplementationNotSet()": [
        {
          "notice": "Error indicating that the standard identity contract implementation address has not been set."
        }
      ],
      "IdentityRegistryImplementationNotSet()": [
        {
          "notice": "Error indicating that the identity registry implementation address has not been set."
        }
      ],
      "IdentityRegistryStorageImplementationNotSet()": [
        {
          "notice": "Error indicating that the identity registry storage implementation address has not been set."
        }
      ],
      "IdentityVerificationModuleNotSet()": [
        {
          "notice": "Error indicating that the identity verification module implementation address has not been set."
        }
      ],
      "InvalidImplementationInterface(address,bytes4)": [
        {
          "notice": "Error indicating that a provided implementation address does not support a required interface."
        }
      ],
      "SystemAlreadyBootstrapped()": [
        {
          "notice": "Error indicating that the system has already been bootstrapped and cannot be bootstrapped again."
        }
      ],
      "TokenAccessManagerImplementationNotSet()": [
        {
          "notice": "Error indicating that the token access manager contract implementation address has not been set."
        }
      ],
      "TokenFactoryRegistryImplementationNotSet()": [
        {
          "notice": "Error indicating that the token factory registry implementation address has not been set."
        }
      ],
      "TokenIdentityImplementationNotSet()": [
        {
          "notice": "Error indicating that the token identity contract implementation address has not been set."
        }
      ],
      "TopicSchemeRegistryImplementationNotSet()": [
        {
          "notice": "Error indicating that the topic scheme registry implementation address has not been set."
        }
      ],
      "TrustedIssuersRegistryImplementationNotSet()": [
        {
          "notice": "Error indicating that the trusted issuers registry implementation address has not been set."
        }
      ]
    },
    "notice": "This is the main contract for managing the ATK Protocol system components, their implementations (logic contracts), and their proxies. It acts as a central registry and control point for the entire protocol."
  },
  "devdoc": {
    "version": 1,
    "kind": "dev",
    "author": "SettleMint Tokenization Services",
    "details": "This contract handles the deployment of proxy contracts for various modules (like Compliance, Identity Registry, etc.) and manages the addresses of their underlying implementation (logic) contracts. This allows for system upgrades by changing the implementation address without altering the stable proxy addresses that other contracts interact with. It uses OpenZeppelin's ERC2771Context for meta-transaction support (allowing gasless transactions for users if a trusted forwarder is used) and AccessControl for role-based permissions (restricting sensitive functions to authorized administrators). It also inherits ReentrancyGuard to protect against reentrancy attacks on certain functions.If this contract's size becomes a concern, the management of token factories, system addons, and compliance modules could be refactored into separate, bootstrapped registry contracts to improve modularity.",
    "methods": {
      "bootstrap()": {
        "details": "This function is a critical step in setting up the ATKSystem. It should typically be called once by an admin after the `ATKSystem` contract itself is deployed and initial implementation addresses are set. It creates new instances of proxy contracts (e.g., `ATKComplianceProxy`, `ATKIdentityRegistryProxy`) and links them to this `ATKSystem` instance. It also performs necessary bindings between these proxies, such as linking the `IdentityRegistryStorageProxy` to the `IdentityRegistryProxy`. This function is protected by `onlyRole(DEFAULT_ADMIN_ROLE)` (meaning only admins can call it) and `nonReentrant` (preventing it from being called again while it's already executing, which guards against certain attacks). Reverts if any required implementation address (for compliance, identity registry, storage, trusted issuers, factory) is not set (i.e., is the zero address) before calling this function."
      },
      "compliance()": {
        "returns": {
          "_0": "The address of the compliance proxy contract."
        }
      },
      "complianceModuleRegistry()": {
        "returns": {
          "_0": "The address of the compliance module registry proxy contract."
        }
      },
      "constructor": {},
      "getRoleAdmin(bytes32)": {
        "details": "Returns the admin role that controls `role`. See {grantRole} and {revokeRole}. To change a role's admin, use {_setRoleAdmin}."
      },
      "grantRole(bytes32,address)": {
        "details": "Grants `role` to `account`. If `account` had not been already granted `role`, emits a {RoleGranted} event. Requirements: - the caller must have ``role``'s admin role. May emit a {RoleGranted} event."
      },
      "hasRole(bytes32,address)": {
        "details": "Returns `true` if `account` has been granted `role`."
      },
      "identityFactory()": {
        "returns": {
          "_0": "The address of the identity factory proxy contract."
        }
      },
      "identityImplementation()": {
        "returns": {
          "_0": "The address of the identity implementation contract."
        }
      },
      "identityRegistry()": {
        "returns": {
          "_0": "The address of the identity registry proxy contract."
        }
      },
      "identityRegistryStorage()": {
        "returns": {
          "_0": "The address of the identity registry storage proxy contract."
        }
      },
      "identityVerificationModule()": {
        "returns": {
          "_0": "The address of the identity verification module proxy contract."
        }
      },
      "implementation(bytes32)": {
        "params": {
          "moduleType": "The type of the module."
        },
        "returns": {
          "_0": "The address of the implementation logic contract."
        }
      },
      "initialize(address,address,address,address,address,address,address,address,address,address,address,address,address,address)": {
        "details": "Sets up the initial administrator, validates and stores the initial implementation addresses for all modules and identity types, and sets the trusted forwarder for meta-transactions. It performs interface checks on all provided implementation addresses to ensure they conform to the required standards.",
        "params": {
          "addonRegistryImplementation_": "The initial address of the addon registry module's logic contract.",
          "complianceImplementation_": "The initial address of the compliance module's logic contract.",
          "complianceModuleRegistryImplementation_": "The initial address of the compliance module registry module's logic contract.",
          "identityFactoryImplementation_": "The initial address of the identity factory module's logic contract.",
          "identityImplementation_": "The initial address of the standard identity contract's logic (template). Must be IERC734/IIdentity compliant.",
          "identityRegistryImplementation_": "The initial address of the identity registry module's logic contract.",
          "identityRegistryStorageImplementation_": "The initial address of the identity registry storage module's logic contract.",
          "identityVerificationModule_": "The initial address of the identity verification module contract's logic.",
          "initialAdmin_": "The address that will be granted the `DEFAULT_ADMIN_ROLE`, giving it administrative control over this contract.",
          "tokenAccessManagerImplementation_": "The initial address of the token access manager contract's logic. Must be ISMARTTokenAccessManager compliant.",
          "tokenFactoryRegistryImplementation_": "The initial address of the token factory registry module's logic contract.",
          "tokenIdentityImplementation_": "The initial address of the token identity contract's logic (template). Must be IERC734/IIdentity compliant.",
          "topicSchemeRegistryImplementation_": "The initial address of the topic scheme registry module's logic contract.",
          "trustedIssuersRegistryImplementation_": "The initial address of the trusted issuers registry module's logic contract."
        }
      },
      "isTrustedForwarder(address)": {
        "details": "Indicates whether any particular address is the trusted forwarder."
      },
      "proxiableUUID()": {
        "details": "Implementation of the ERC-1822 {proxiableUUID} function. This returns the storage slot used by the implementation. It is used to validate the implementation's compatibility when performing an upgrade. IMPORTANT: A proxy pointing at a proxiable contract should not be considered proxiable itself, because this risks bricking a proxy that upgrades to it, by delegating to itself until out of gas. Thus it is critical that this function revert if invoked through a proxy. This is guaranteed by the `notDelegated` modifier."
      },
      "renounceRole(bytes32,address)": {
        "details": "Revokes `role` from the calling account. Roles are often managed via {grantRole} and {revokeRole}: this function's purpose is to provide a mechanism for accounts to lose their privileges if they are compromised (such as when a trusted device is misplaced). If the calling account had been revoked `role`, emits a {RoleRevoked} event. Requirements: - the caller must be `callerConfirmation`. May emit a {RoleRevoked} event."
      },
      "revokeRole(bytes32,address)": {
        "details": "Revokes `role` from `account`. If `account` had been granted `role`, emits a {RoleRevoked} event. Requirements: - the caller must have ``role``'s admin role. May emit a {RoleRevoked} event."
      },
      "setAddonRegistryImplementation(address)": {
        "details": "Only callable by an address with the `DEFAULT_ADMIN_ROLE`. Reverts if the provided `implementation` address is the zero address or does not support the `ISystemAddonRegistry` interface. Emits a `SystemAddonRegistryImplementationUpdated` event upon successful update.",
        "params": {
          "implementation_": "The new address for the addon registry logic contract."
        }
      },
      "setComplianceImplementation(address)": {
        "details": "Only callable by an address with the `DEFAULT_ADMIN_ROLE`. Reverts if the provided `implementation` address is the zero address or does not support the `ISMARTCompliance` interface. Emits a `ComplianceImplementationUpdated` event upon successful update.",
        "params": {
          "implementation_": "The new address for the compliance module logic contract."
        }
      },
      "setComplianceModuleRegistryImplementation(address)": {
        "details": "Only callable by an address with the `DEFAULT_ADMIN_ROLE`. Reverts if the provided `implementation` address is the zero address or does not support the `IComplianceModuleRegistry` interface. Emits a `ComplianceModuleRegistryImplementationUpdated` event upon successful update.",
        "params": {
          "implementation_": "The new address for the compliance module registry logic contract."
        }
      },
      "setIdentityFactoryImplementation(address)": {
        "details": "Only callable by an address with the `DEFAULT_ADMIN_ROLE`. Reverts if `implementation` is zero or doesn't support `IATKIdentityFactory`. Emits an `IdentityFactoryImplementationUpdated` event.",
        "params": {
          "implementation_": "The new address for the identity factory logic contract."
        }
      },
      "setIdentityImplementation(address)": {
        "details": "Only callable by an address with the `DEFAULT_ADMIN_ROLE`. Reverts if `implementation` is zero or doesn't support `IIdentity` (from OnchainID standard). Emits an `IdentityImplementationUpdated` event.",
        "params": {
          "implementation_": "The new address for the standard identity logic template."
        }
      },
      "setIdentityRegistryImplementation(address)": {
        "details": "Only callable by an address with the `DEFAULT_ADMIN_ROLE`. Reverts if the `implementation` address is zero or does not support `ISMARTIdentityRegistry`. Emits an `IdentityRegistryImplementationUpdated` event.",
        "params": {
          "implementation_": "The new address for the identity registry logic contract."
        }
      },
      "setIdentityRegistryStorageImplementation(address)": {
        "details": "Only callable by an address with the `DEFAULT_ADMIN_ROLE`. Reverts if `implementation` is zero or doesn't support `ISMARTIdentityRegistryStorage`. Emits an `IdentityRegistryStorageImplementationUpdated` event.",
        "params": {
          "implementation_": "The new address for the identity registry storage logic contract."
        }
      },
      "setTokenAccessManagerImplementation(address)": {
        "details": "Only callable by an address with the `DEFAULT_ADMIN_ROLE`. Reverts if `implementation` is zero or doesn't support `ISMARTTokenAccessManager`. Emits a `TokenAccessManagerImplementationUpdated` event.",
        "params": {
          "implementation_": "The new address for the token access manager logic contract."
        }
      },
      "setTokenFactoryRegistryImplementation(address)": {
        "details": "Only callable by an address with the `DEFAULT_ADMIN_ROLE`. Reverts if the provided `implementation` address is the zero address or does not support the `ITokenFactoryRegistry` interface. Emits a `TokenFactoryRegistryImplementationUpdated` event upon successful update.",
        "params": {
          "implementation_": "The new address for the token factory registry logic contract."
        }
      },
      "setTokenIdentityImplementation(address)": {
        "details": "Only callable by an address with the `DEFAULT_ADMIN_ROLE`. Reverts if `implementation` is zero or doesn't support `IIdentity` (from OnchainID standard). Emits a `TokenIdentityImplementationUpdated` event.",
        "params": {
          "implementation_": "The new address for the token identity logic template."
        }
      },
      "setTopicSchemeRegistryImplementation(address)": {
        "details": "Only callable by an address with the `DEFAULT_ADMIN_ROLE`. Reverts if `implementation` is zero or doesn't support `ISMARTTopicSchemeRegistry`. Emits a `TopicSchemeRegistryImplementationUpdated` event.",
        "params": {
          "implementation_": "The new address for the topic scheme registry logic contract."
        }
      },
      "setTrustedIssuersRegistryImplementation(address)": {
        "details": "Only callable by an address with the `DEFAULT_ADMIN_ROLE`. Reverts if `implementation` is zero or doesn't support `IERC3643TrustedIssuersRegistry`. Emits a `TrustedIssuersRegistryImplementationUpdated` event.",
        "params": {
          "implementation_": "The new address for the trusted issuers registry logic contract."
        }
      },
      "supportsInterface(bytes4)": {
        "details": "This function is part of the ERC165 standard for interface detection. It returns `true` if this contract implements the interface specified by `interfaceId`. It explicitly supports the `IATKSystem` interface and inherits support for other interfaces like `IERC165` (from `ERC165`) and `IAccessControl` (from `AccessControl`).",
        "params": {
          "interfaceId": "The 4-byte interface identifier to check."
        },
        "returns": {
          "_0": "`true` if the contract supports the interface, `false` otherwise."
        }
      },
      "systemAddonRegistry()": {
        "returns": {
          "_0": "The address of the addon registry proxy contract."
        }
      },
      "tokenAccessManagerImplementation()": {
        "returns": {
          "_0": "The address of the access manager implementation contract."
        }
      },
      "tokenFactoryRegistry()": {
        "returns": {
          "_0": "The address of the token factory registry proxy contract."
        }
      },
      "tokenIdentityImplementation()": {
        "returns": {
          "_0": "The address of the token identity implementation contract."
        }
      },
      "topicSchemeRegistry()": {
        "returns": {
          "_0": "The address of the topic scheme registry proxy contract."
        }
      },
      "trustedForwarder()": {
        "details": "Returns the address of the trusted forwarder."
      },
      "trustedIssuersRegistry()": {
        "returns": {
          "_0": "The address of the trusted issuers registry proxy contract."
        }
      },
      "upgradeToAndCall(address,bytes)": {
        "details": "Upgrade the implementation of the proxy to `newImplementation`, and subsequently execute the function call encoded in `data`. Calls {_authorizeUpgrade}. Emits an {Upgraded} event."
      }
    },
    "events": {
      "Bootstrapped(address,address,address,address,address,address,address,address,address,address,address)": {
        "params": {
          "complianceModuleRegistryProxy": "The address of the deployed ATKComplianceModuleRegistryProxy contract.",
          "complianceProxy": "The address of the deployed ATKComplianceProxy contract.",
          "identityFactoryProxy": "The address of the deployed ATKIdentityFactoryProxy contract.",
          "identityRegistryProxy": "The address of the deployed ATKIdentityRegistryProxy contract.",
          "identityRegistryStorageProxy": "The address of the deployed ATKIdentityRegistryStorageProxy contract.",
          "identityVerificationModule": "The address of the deployed IdentityVerificationModule contract.",
          "sender": "The address that called the `bootstrap` function.",
          "systemAddonRegistryProxy": "The address of the deployed ATKSystemAddonRegistryProxy contract.",
          "tokenFactoryRegistryProxy": "The address of the deployed ATKTokenFactoryRegistryProxy contract.",
          "topicSchemeRegistryProxy": "The address of the deployed ATKTopicSchemeRegistryProxy contract.",
          "trustedIssuersRegistryProxy": "The address of the deployed ATKTrustedIssuersRegistryProxy contract."
        }
      },
      "ComplianceImplementationUpdated(address,address)": {
        "params": {
          "newImplementation": "The address of the new compliance module implementation contract.",
          "sender": "The address that called the `updateComplianceImplementation` function."
        }
      },
      "ComplianceModuleRegistered(address,string,bytes32,address,uint256)": {
        "params": {
          "module": "The address of the compliance module.",
          "moduleTypeHash": "The type hash of the compliance module.",
          "name": "The name of the compliance module.",
          "sender": "The address that called the registration function.",
          "timestamp": "The timestamp of the registration."
        }
      },
      "ComplianceModuleRegistryImplementationUpdated(address,address)": {
        "params": {
          "newImplementation": "The address of the new compliance module registry implementation contract.",
          "sender": "The address that called the function."
        }
      },
      "IdentityFactoryImplementationUpdated(address,address)": {
        "params": {
          "newImplementation": "The address of the new identity factory module implementation contract.",
          "sender": "The address that called the `updateIdentityFactoryImplementation` function."
        }
      },
      "IdentityImplementationUpdated(address,address)": {
        "details": "Standard identity contracts are typically used to represent users or general entities.",
        "params": {
          "newImplementation": "The address of the new standard identity module implementation contract.",
          "sender": "The address that called the `updateIdentityImplementation` function."
        }
      },
      "IdentityRegistryImplementationUpdated(address,address)": {
        "params": {
          "newImplementation": "The address of the new identity registry module implementation contract.",
          "sender": "The address that called the `updateIdentityRegistryImplementation` function."
        }
      },
      "IdentityRegistryStorageImplementationUpdated(address,address)": {
        "params": {
          "newImplementation": "The address of the new identity registry storage module implementation contract.",
          "sender": "The address that called the `updateIdentityRegistryStorageImplementation` function."
        }
      },
      "Initialized(uint64)": {
        "details": "Triggered when the contract has been initialized or reinitialized."
      },
      "RoleAdminChanged(bytes32,bytes32,bytes32)": {
        "details": "Emitted when `newAdminRole` is set as ``role``'s admin role, replacing `previousAdminRole` `DEFAULT_ADMIN_ROLE` is the starting admin for all roles, despite {RoleAdminChanged} not being emitted to signal this."
      },
      "RoleGranted(bytes32,address,address)": {
        "details": "Emitted when `account` is granted `role`. `sender` is the account that originated the contract call. This account bears the admin role (for the granted role). Expected in cases where the role was granted using the internal {AccessControl-_grantRole}."
      },
      "RoleRevoked(bytes32,address,address)": {
        "details": "Emitted when `account` is revoked `role`. `sender` is the account that originated the contract call:   - if using `revokeRole`, it is the admin role bearer   - if using `renounceRole`, it is the role bearer (i.e. `account`)"
      },
      "SystemAddonRegistryImplementationUpdated(address,address)": {
        "params": {
          "newImplementation": "The address of the new addon registry implementation contract.",
          "sender": "The address that called the function."
        }
      },
      "TokenAccessManagerImplementationUpdated(address,address)": {
        "params": {
          "newImplementation": "The address of the new token access manager module implementation contract.",
          "sender": "The address that called the `updateTokenAccessManagerImplementation` function."
        }
      },
      "TokenFactoryRegistryImplementationUpdated(address,address)": {
        "params": {
          "newImplementation": "The address of the new token factory registry implementation contract.",
          "sender": "The address that called the function."
        }
      },
      "TokenIdentityImplementationUpdated(address,address)": {
        "details": "Token identity contracts might be specialized identities associated with specific tokens.",
        "params": {
          "newImplementation": "The address of the new token identity module implementation contract.",
          "sender": "The address that called the `updateTokenIdentityImplementation` function."
        }
      },
      "TopicSchemeRegistryImplementationUpdated(address,address)": {
        "params": {
          "newImplementation": "The address of the new topic scheme registry module implementation contract.",
          "sender": "The address that called the `updateTopicSchemeRegistryImplementation` function."
        }
      },
      "TrustedIssuersRegistryImplementationUpdated(address,address)": {
        "params": {
          "newImplementation": "The address of the new trusted issuers registry module implementation contract.",
          "sender": "The address that called the `updateTrustedIssuersRegistryImplementation` function."
        }
      },
      "Upgraded(address)": {
        "details": "Emitted when the implementation is upgraded."
      }
    },
    "errors": {
      "AccessControlBadConfirmation()": [
        {
          "details": "The caller of a function is not the expected one. NOTE: Don't confuse with {AccessControlUnauthorizedAccount}."
        }
      ],
      "AccessControlUnauthorizedAccount(address,bytes32)": [
        {
          "details": "The `account` is missing a role."
        }
      ],
      "AddonRegistryImplementationNotSet()": [
        {
          "details": "This error is thrown if an operation requires the addon registry, but its logic contract address is zero or has not been configured in the `SMARTSystem`."
        }
      ],
      "AddressEmptyCode(address)": [
        {
          "details": "There's no code at `target` (it is not a contract)."
        }
      ],
      "ComplianceImplementationNotSet()": [
        {
          "details": "This error is thrown if an operation requires the compliance module, but its logic contract address is zero or has not been configured in the `SMARTSystem`."
        }
      ],
      "ComplianceModuleRegistryImplementationNotSet()": [
        {
          "details": "This error is thrown if an operation requires the compliance module registry, but its logic contract address is zero or has not been configured in the `SMARTSystem`."
        }
      ],
      "ERC1967InvalidImplementation(address)": [
        {
          "details": "The `implementation` of the proxy is invalid."
        }
      ],
      "ERC1967NonPayable()": [
        {
          "details": "An upgrade function sees `msg.value > 0` that may be lost."
        }
      ],
      "FailedCall()": [
        {
          "details": "A call to an address target failed. The target may have reverted."
        }
      ],
      "IdentityFactoryImplementationNotSet()": [
        {
          "details": "This error is thrown if an operation requires the identity factory, but its logic contract address is zero or has not been configured in the `SMARTSystem`."
        }
      ],
      "IdentityImplementationNotSet()": [
        {
          "details": "This error is thrown if an operation requires the standard identity implementation (the template for user identities), but its logic contract address is zero or has not been configured in the `SMARTSystem`."
        }
      ],
      "IdentityRegistryImplementationNotSet()": [
        {
          "details": "This error is thrown if an operation requires the identity registry, but its logic contract address is zero or has not been configured in the `SMARTSystem`."
        }
      ],
      "IdentityRegistryStorageImplementationNotSet()": [
        {
          "details": "This error is thrown if an operation requires the identity registry storage, but its logic contract address is zero or has not been configured in the `SMARTSystem`."
        }
      ],
      "IdentityVerificationModuleNotSet()": [
        {
          "details": "This error is thrown if an operation requires the identity verification module, but its logic contract address is zero or has not been configured in the `SMARTSystem`."
        }
      ],
      "InvalidImplementationInterface(address,bytes4)": [
        {
          "details": "When setting implementation addresses for modules (e.g., compliance, identity registry), the `SMARTSystem` checks if these implementations adhere to specific standard interfaces (like `IERC165` and the module-specific interface). If this check fails, this error is thrown.",
          "params": {
            "implAddress": "The address of the implementation contract that failed the interface check.",
            "interfaceId": "The bytes4 identifier of the interface that the `implAddress` was expected to support."
          }
        }
      ],
      "InvalidInitialization()": [
        {
          "details": "The contract is already initialized."
        }
      ],
      "NotInitializing()": [
        {
          "details": "The contract is not initializing."
        }
      ],
      "ReentrancyGuardReentrantCall()": [
        {
          "details": "Unauthorized reentrant call."
        }
      ],
      "SystemAlreadyBootstrapped()": [
        {
          "details": "This error is thrown if the `bootstrap` function is called when the system proxy contracts have already been deployed and initialized."
        }
      ],
      "TokenAccessManagerImplementationNotSet()": [
        {
          "details": "This error is thrown if an operation requires the token access manager implementation, but its logic contract address is zero or has not been configured in the `SMARTSystem`."
        }
      ],
      "TokenFactoryRegistryImplementationNotSet()": [
        {
          "details": "This error is thrown if an operation requires the token factory registry, but its logic contract address is zero or has not been configured in the `SMARTSystem`."
        }
      ],
      "TokenIdentityImplementationNotSet()": [
        {
          "details": "This error is thrown if an operation requires the token identity implementation (the template for token-specific identities), but its logic contract address is zero or has not been configured in the `SMARTSystem`."
        }
      ],
      "TopicSchemeRegistryImplementationNotSet()": [
        {
          "details": "This error is thrown if an operation requires the topic scheme registry, but its logic contract address is zero or has not been configured in the `SMARTSystem`."
        }
      ],
      "TrustedIssuersRegistryImplementationNotSet()": [
        {
          "details": "This error is thrown if an operation requires the trusted issuers registry, but its logic contract address is zero or has not been configured in the `SMARTSystem`."
        }
      ],
      "UUPSUnauthorizedCallContext()": [
        {
          "details": "The call is from an unauthorized context."
        }
      ],
      "UUPSUnsupportedProxiableUUID(bytes32)": [
        {
          "details": "The storage `slot` is unsupported as a UUID."
        }
      ]
    },
    "title": "ATKSystem Contract"
  },
  "id": 136
}