{
  "abi": [
    {
      "type": "constructor",
      "inputs": [
        {
          "name": "trustedForwarder",
          "type": "address",
          "internalType": "address"
        }
      ],
      "stateMutability": "nonpayable"
    },
    {
      "type": "function",
      "name": "DEFAULT_ADMIN_ROLE",
      "inputs": [],
      "outputs": [
        {
          "name": "",
          "type": "bytes32",
          "internalType": "bytes32"
        }
      ],
      "stateMutability": "view"
    },
    {
      "type": "function",
      "name": "addon",
      "inputs": [
        {
          "name": "addonTypeHash",
          "type": "bytes32",
          "internalType": "bytes32"
        }
      ],
      "outputs": [
        {
          "name": "",
          "type": "address",
          "internalType": "address"
        }
      ],
      "stateMutability": "view"
    },
    {
      "type": "function",
      "name": "getRoleAdmin",
      "inputs": [
        {
          "name": "role",
          "type": "bytes32",
          "internalType": "bytes32"
        }
      ],
      "outputs": [
        {
          "name": "",
          "type": "bytes32",
          "internalType": "bytes32"
        }
      ],
      "stateMutability": "view"
    },
    {
      "type": "function",
      "name": "grantRole",
      "inputs": [
        {
          "name": "role",
          "type": "bytes32",
          "internalType": "bytes32"
        },
        {
          "name": "account",
          "type": "address",
          "internalType": "address"
        }
      ],
      "outputs": [],
      "stateMutability": "nonpayable"
    },
    {
      "type": "function",
      "name": "hasRole",
      "inputs": [
        {
          "name": "role",
          "type": "bytes32",
          "internalType": "bytes32"
        },
        {
          "name": "account",
          "type": "address",
          "internalType": "address"
        }
      ],
      "outputs": [
        {
          "name": "",
          "type": "bool",
          "internalType": "bool"
        }
      ],
      "stateMutability": "view"
    },
    {
      "type": "function",
      "name": "implementation",
      "inputs": [
        {
          "name": "addonTypeHash",
          "type": "bytes32",
          "internalType": "bytes32"
        }
      ],
      "outputs": [
        {
          "name": "",
          "type": "address",
          "internalType": "address"
        }
      ],
      "stateMutability": "view"
    },
    {
      "type": "function",
      "name": "initialize",
      "inputs": [
        {
          "name": "initialAdmin",
          "type": "address",
          "internalType": "address"
        },
        {
          "name": "systemAddress",
          "type": "address",
          "internalType": "address"
        }
      ],
      "outputs": [],
      "stateMutability": "nonpayable"
    },
    {
      "type": "function",
      "name": "isTrustedForwarder",
      "inputs": [
        {
          "name": "forwarder",
          "type": "address",
          "internalType": "address"
        }
      ],
      "outputs": [
        {
          "name": "",
          "type": "bool",
          "internalType": "bool"
        }
      ],
      "stateMutability": "view"
    },
    {
      "type": "function",
      "name": "registerSystemAddon",
      "inputs": [
        {
          "name": "name",
          "type": "string",
          "internalType": "string"
        },
        {
          "name": "implementation_",
          "type": "address",
          "internalType": "address"
        },
        {
          "name": "initializationData",
          "type": "bytes",
          "internalType": "bytes"
        }
      ],
      "outputs": [
        {
          "name": "proxyAddress",
          "type": "address",
          "internalType": "address"
        }
      ],
      "stateMutability": "nonpayable"
    },
    {
      "type": "function",
      "name": "renounceRole",
      "inputs": [
        {
          "name": "role",
          "type": "bytes32",
          "internalType": "bytes32"
        },
        {
          "name": "callerConfirmation",
          "type": "address",
          "internalType": "address"
        }
      ],
      "outputs": [],
      "stateMutability": "nonpayable"
    },
    {
      "type": "function",
      "name": "revokeRole",
      "inputs": [
        {
          "name": "role",
          "type": "bytes32",
          "internalType": "bytes32"
        },
        {
          "name": "account",
          "type": "address",
          "internalType": "address"
        }
      ],
      "outputs": [],
      "stateMutability": "nonpayable"
    },
    {
      "type": "function",
      "name": "setAddonImplementation",
      "inputs": [
        {
          "name": "addonTypeHash",
          "type": "bytes32",
          "internalType": "bytes32"
        },
        {
          "name": "implementation_",
          "type": "address",
          "internalType": "address"
        }
      ],
      "outputs": [],
      "stateMutability": "nonpayable"
    },
    {
      "type": "function",
      "name": "supportsInterface",
      "inputs": [
        {
          "name": "interfaceId",
          "type": "bytes4",
          "internalType": "bytes4"
        }
      ],
      "outputs": [
        {
          "name": "",
          "type": "bool",
          "internalType": "bool"
        }
      ],
      "stateMutability": "view"
    },
    {
      "type": "function",
      "name": "trustedForwarder",
      "inputs": [],
      "outputs": [
        {
          "name": "",
          "type": "address",
          "internalType": "address"
        }
      ],
      "stateMutability": "view"
    },
    {
      "type": "event",
      "name": "AddonImplementationUpdated",
      "inputs": [
        {
          "name": "sender",
          "type": "address",
          "indexed": true,
          "internalType": "address"
        },
        {
          "name": "addonTypeHash",
          "type": "bytes32",
          "indexed": true,
          "internalType": "bytes32"
        },
        {
          "name": "newImplementation",
          "type": "address",
          "indexed": true,
          "internalType": "address"
        }
      ],
      "anonymous": false
    },
    {
      "type": "event",
      "name": "Initialized",
      "inputs": [
        {
          "name": "version",
          "type": "uint64",
          "indexed": false,
          "internalType": "uint64"
        }
      ],
      "anonymous": false
    },
    {
      "type": "event",
      "name": "RoleAdminChanged",
      "inputs": [
        {
          "name": "role",
          "type": "bytes32",
          "indexed": true,
          "internalType": "bytes32"
        },
        {
          "name": "previousAdminRole",
          "type": "bytes32",
          "indexed": true,
          "internalType": "bytes32"
        },
        {
          "name": "newAdminRole",
          "type": "bytes32",
          "indexed": true,
          "internalType": "bytes32"
        }
      ],
      "anonymous": false
    },
    {
      "type": "event",
      "name": "RoleGranted",
      "inputs": [
        {
          "name": "role",
          "type": "bytes32",
          "indexed": true,
          "internalType": "bytes32"
        },
        {
          "name": "account",
          "type": "address",
          "indexed": true,
          "internalType": "address"
        },
        {
          "name": "sender",
          "type": "address",
          "indexed": true,
          "internalType": "address"
        }
      ],
      "anonymous": false
    },
    {
      "type": "event",
      "name": "RoleRevoked",
      "inputs": [
        {
          "name": "role",
          "type": "bytes32",
          "indexed": true,
          "internalType": "bytes32"
        },
        {
          "name": "account",
          "type": "address",
          "indexed": true,
          "internalType": "address"
        },
        {
          "name": "sender",
          "type": "address",
          "indexed": true,
          "internalType": "address"
        }
      ],
      "anonymous": false
    },
    {
      "type": "event",
      "name": "SystemAddonRegistered",
      "inputs": [
        {
          "name": "sender",
          "type": "address",
          "indexed": true,
          "internalType": "address"
        },
        {
          "name": "name",
          "type": "string",
          "indexed": false,
          "internalType": "string"
        },
        {
          "name": "typeId",
          "type": "bytes32",
          "indexed": false,
          "internalType": "bytes32"
        },
        {
          "name": "proxyAddress",
          "type": "address",
          "indexed": false,
          "internalType": "address"
        },
        {
          "name": "implementation",
          "type": "address",
          "indexed": false,
          "internalType": "address"
        },
        {
          "name": "initializationData",
          "type": "bytes",
          "indexed": false,
          "internalType": "bytes"
        },
        {
          "name": "timestamp",
          "type": "uint256",
          "indexed": false,
          "internalType": "uint256"
        }
      ],
      "anonymous": false
    },
    {
      "type": "error",
      "name": "AccessControlBadConfirmation",
      "inputs": []
    },
    {
      "type": "error",
      "name": "AccessControlUnauthorizedAccount",
      "inputs": [
        {
          "name": "account",
          "type": "address",
          "internalType": "address"
        },
        {
          "name": "neededRole",
          "type": "bytes32",
          "internalType": "bytes32"
        }
      ]
    },
    {
      "type": "error",
      "name": "InvalidAddonAddress",
      "inputs": []
    },
    {
      "type": "error",
      "name": "InvalidInitialization",
      "inputs": []
    },
    {
      "type": "error",
      "name": "NotInitializing",
      "inputs": []
    },
    {
      "type": "error",
      "name": "ReentrancyGuardReentrantCall",
      "inputs": []
    },
    {
      "type": "error",
      "name": "SystemAddonImplementationNotSet",
      "inputs": [
        {
          "name": "addonTypeHash",
          "type": "bytes32",
          "internalType": "bytes32"
        }
      ]
    },
    {
      "type": "error",
      "name": "SystemAddonTypeAlreadyRegistered",
      "inputs": [
        {
          "name": "typeName",
          "type": "string",
          "internalType": "string"
        }
      ]
    }
  ],
  "bytecode": {
    "object": "0x60a03461011057601f6114ee38819003918201601f19168301916001600160401b038311848410176101145780849260209460405283398101031261011057516001600160a01b0381168103610110576080525f5160206114ce5f395f51905f525460ff8160401c16610101576002600160401b03196001600160401b038216016100ab575b6040516113a59081610129823960805181818161067b015281816106fc0152610dce0152f35b6001600160401b0319166001600160401b039081175f5160206114ce5f395f51905f52556040519081527fc7f505b2f371ae2175ee4913f4499e1f2633a7b5936321eed1cdaeb6115181d290602090a15f610085565b63f92ee8a960e01b5f5260045ffd5b5f80fd5b634e487b7160e01b5f52604160045260245ffdfe6080806040526004361015610012575f80fd5b5f905f3560e01c90816301ffc9a7146109cc57508063248a9ca31461098d5780632f2ff15d1461094357806336568abe146108ef578063485cc9551461076257806353c41dea14610730578063572b6c05146106dc5780637086bf94146106aa5780637da0a8771461066657806391d1485414610611578063a217fddf146105f7578063d547741f146105a6578063e045d701146104f05763ff4b2476146100b8575f80fd5b346104515760603660031901126104515760043567ffffffffffffffff8111610451576100e9903690600401610a7b565b90916100f3610a4f565b9160443567ffffffffffffffff811161045157610114903690600401610a7b565b92909360025f5160206113595f395f51905f5254146104e15760025f5160206113595f395f51905f5255610146610aeb565b6001600160a01b03169283156104d25760405160208101908488833761017f6020828781015f838201520301601f198101835282610aa9565b5190205f818152600160205260409020549095906001600160a01b03166104ab57855f52600160205260405f20856bffffffffffffffffffffffff60a01b8254161790556040516104d580820182811067ffffffffffffffff821117610497576060610203918493610e6485393081528a6020820152816040820152018585610acb565b03905ff08015610446575f96875260026020908152604080892080546001600160a01b0319166001600160a01b0394851690811790915598549051636290865d60e01b81529283916004918391165afa908115610446575f91610455575b506001600160a01b0316803b15610451575f8091604460405180948193632f2ff15d60e01b83527feaeeb45c1b9029a6e392e1e7aa6f4af6bd8111f85c32809598bc9903a16227a360048401528c60248401525af1801561044657610431575b5082806040516020810190638f940f6360e01b8252600481526102e5602482610aa9565b5190895afa923d15610429573d9067ffffffffffffffff8211610415576040519161031a601f8201601f191660200184610aa9565b82523d81602084013e5b80948061040a575b6103c9575b5050602096927f5317501d4f9d48df4c6b4531e220b6bf020da50f7c71923d9a9aee165f1e50fc949261039b92610366610dcb565b9761037e60405197889760c0895260c0890191610acb565b938b87015289604087015260608601528483036080860152610acb565b4260a08301526001600160a01b03909416930390a260015f5160206113595f395f51905f5255604051908152f35b9091935060208280518101031261040757506020015191807f5317501d4f9d48df4c6b4531e220b6bf020da50f7c71923d9a9aee165f1e50fc610331565b80fd5b50602082511461032c565b634e487b7160e01b81526041600452602490fd5b606090610324565b61043e9193505f90610aa9565b5f915f6102c1565b6040513d5f823e3d90fd5b5f80fd5b90506020813d60201161048f575b8161047060209383610aa9565b8101031261045157516001600160a01b0381168103610451575f610261565b3d9150610463565b634e487b7160e01b5f52604160045260245ffd5b604051634e0d1f8b60e11b815260206004820152806104ce60248201878b610acb565b0390fd5b6382b68efb60e01b5f5260045ffd5b633ee5aeb560e01b5f5260045ffd5b346104515760403660031901126104515760043561050c610a4f565b610514610aeb565b6001600160a01b03169081156104d2575f818152600160205260409020546001600160a01b031615610594575f81815260016020526040902080546001600160a01b031916831790556001600160a01b0361056d610dcb565b167ff6d6e0c83473ce7eefd91890db594244473d249e63d6537bdbb07c259e54b3835f80a4005b63608b0b8b60e01b5f5260045260245ffd5b34610451576040366003190112610451576105f56004356105c5610a4f565b906105f06105eb825f525f5160206113395f395f51905f52602052600160405f20015490565b610b53565b610d22565b005b34610451575f3660031901126104515760206040515f8152f35b346104515760403660031901126104515761062a610a4f565b6004355f525f5160206113395f395f51905f5260205260405f209060018060a01b03165f52602052602060ff60405f2054166040519015158152f35b34610451575f366003190112610451576040517f00000000000000000000000000000000000000000000000000000000000000006001600160a01b03168152602090f35b34610451576020366003190112610451576004355f526002602052602060018060a01b0360405f205416604051908152f35b346104515760203660031901126104515760206106f7610a65565b6040517f00000000000000000000000000000000000000000000000000000000000000006001600160a01b039081169216919091148152f35b34610451576020366003190112610451576004355f526001602052602060018060a01b0360405f205416604051908152f35b346104515760403660031901126104515761077b610a65565b610783610a4f565b5f5160206113795f395f51905f525460ff8160401c16159267ffffffffffffffff8216801590816108e7575b60011490816108dd575b1590816108d4575b506108c55767ffffffffffffffff1982166001175f5160206113795f395f51905f525561081d9184610899575b506107f7610e38565b6107ff610e38565b610807610e38565b60015f5160206113595f395f51905f5255610baf565b5060018060a01b03166bffffffffffffffffffffffff60a01b5f5416175f5561084257005b68ff0000000000000000195f5160206113795f395f51905f5254165f5160206113795f395f51905f52557fc7f505b2f371ae2175ee4913f4499e1f2633a7b5936321eed1cdaeb6115181d2602060405160018152a1005b68ffffffffffffffffff191668010000000000000001175f5160206113795f395f51905f5255846107ee565b63f92ee8a960e01b5f5260045ffd5b905015856107c1565b303b1591506107b9565b8591506107af565b3461045157604036600319011261045157610908610a4f565b6001600160a01b03610918610dcb565b166001600160a01b03821603610934576105f590600435610d22565b63334bd91960e11b5f5260045ffd5b34610451576040366003190112610451576105f5600435610962610a4f565b906109886105eb825f525f5160206113395f395f51905f52602052600160405f20015490565b610c71565b346104515760203660031901126104515760206109c46004355f525f5160206113395f395f51905f52602052600160405f20015490565b604051908152f35b34610451576020366003190112610451576004359063ffffffff60e01b821680920361045157602091637965db0b60e01b8114908115610a3e575b8115610a2d575b8115610a1c575b5015158152f35b6329e20ef560e11b14905083610a15565b6313ea42db60e11b81149150610a0e565b6301ffc9a760e01b81149150610a07565b602435906001600160a01b038216820361045157565b600435906001600160a01b038216820361045157565b9181601f840112156104515782359167ffffffffffffffff8311610451576020838186019501011161045157565b90601f8019910116810190811067ffffffffffffffff82111761049757604052565b908060209392818452848401375f828201840152601f01601f1916010190565b610af3610dcb565b6001600160a01b0381165f9081527fb7db2dd08fcb62d0c9e08c51941cae53c267786a0b75803fb7960902fc8ef97d602052604090205460ff1615610b355750565b63e2517d3f60e01b5f5260018060a01b03166004525f60245260445ffd5b610b5b610dcb565b815f525f5160206113395f395f51905f5260205260405f2060018060a01b0382165f5260205260ff60405f20541615610b92575050565b63e2517d3f60e01b5f5260018060a01b031660045260245260445ffd5b6001600160a01b0381165f9081527fb7db2dd08fcb62d0c9e08c51941cae53c267786a0b75803fb7960902fc8ef97d602052604090205460ff16610c6c576001600160a01b038181165f9081527fb7db2dd08fcb62d0c9e08c51941cae53c267786a0b75803fb7960902fc8ef97d60205260409020805460ff19166001179055610c37610dcb565b16906001600160a01b03165f7f2f8788117e7eff1d82e926ec794901d17c78024a50270940304540a733656f0d8180a4600190565b505f90565b5f8181525f5160206113395f395f51905f52602090815260408083206001600160a01b038616845290915290205460ff16610d1c575f8181525f5160206113395f395f51905f52602090815260408083206001600160a01b0386811685529252909120805460ff19166001179055610ce7610dcb565b16916001600160a01b0316907f2f8788117e7eff1d82e926ec794901d17c78024a50270940304540a733656f0d5f80a4600190565b50505f90565b5f8181525f5160206113395f395f51905f52602090815260408083206001600160a01b038616845290915290205460ff1615610d1c575f8181525f5160206113395f395f51905f52602090815260408083206001600160a01b0386811685529252909120805460ff19169055610d96610dcb565b16916001600160a01b0316907ff6391f5c32d9c69d2a47ea670b442974b53935d1edc7fd64eb21e047a839171b5f80a4600190565b337f00000000000000000000000000000000000000000000000000000000000000006001600160a01b03161480610e2d575b15610e29576013193601368111610e15573560601c90565b634e487b7160e01b5f52601160045260245ffd5b3390565b506014361015610dfd565b60ff5f5160206113795f395f51905f525460401c1615610e5457565b631afcd79f60e31b5f5260045ffdfe6080604052346100a4576104d5803803809161001a826100bc565b60803960608160800191126100a45761003161010a565b60a05160c05192916001600160401b0384116100a45782609f850112156100a457836080015161006081610120565b9361006e60405195866100e7565b81855260a082870101116100a4576020815f9260a061009598018388015e8501015261015e565b604051610147908161034e8239f35b5f80fd5b634e487b7160e01b5f52604160045260245ffd5b6080601f91909101601f19168101906001600160401b038211908210176100e257604052565b6100a8565b601f909101601f19168101906001600160401b038211908210176100e257604052565b608051906001600160a01b03821682036100a457565b6001600160401b0381116100e257601f01601f191660200190565b908160209103126100a4575180151581036100a45790565b6040513d5f823e3d90fd5b9091906001600160a01b03811680159081156101dc575b506101cd575f5160206104b55f395f51905f5280546001600160a01b0319166001600160a01b039092169190911790556101cb916101be905f5160206104955f395f51905f5255565b6101c661024e565b6102e0565b565b637bfd2e8360e01b5f5260045ffd5b6040516301ffc9a760e01b81526329e20ef560e11b60048201529150602090829060249082905afa908115610249575f9161021a575b50155f610175565b61023c915060203d602011610242575b61023481836100e7565b81019061013b565b5f610212565b503d61022a565b610153565b60018060a01b035f5160206104b55f395f51905f52541660205f5160206104955f395f51905f52546024604051809481936329e20ef560e11b835260048301525afa908115610249575f916102a1575090565b90506020813d6020116102d8575b816102bc602093836100e7565b810103126100a457516001600160a01b03811681036100a45790565b3d91506102af565b6001600160a01b0381161561033e57815f929160208493519201905af43d15610336573d9061030e82610120565b9161031c60405193846100e7565b82523d5f602084013e5b1561032e5750565b602081519101fd5b606090610326565b63ee0a129760e01b5f5260045ffdfe608060405236156100b1576020608060248160018060a01b037fa31119ed2f30cf540b9f48eb7e1890285b3a2287937a099a1e0f359fc5ce172b54167f2a94c78684c8756e2c9669f50cc2acf3b762274c5f6f55e8495bba510078ce48546329e20ef560e11b83526084525afa80156100a6575f901561011d575060203d60201161009f575b8061009261009a926100c0565b6080016100f7565b61011d565b503d610085565b6040513d5f823e3d90fd5b635d82995b60e01b5f5260045ffd5b601f80199101166080016080811067ffffffffffffffff8211176100e357604052565b634e487b7160e01b5f52604160045260245ffd5b602090607f190112610119576080516001600160a01b03811681036101195790565b5f80fd5b5f8091368280378136915af43d5f803e15610136573d5ff35b3d5ffdfea164736f6c634300081c000a2a94c78684c8756e2c9669f50cc2acf3b762274c5f6f55e8495bba510078ce48a31119ed2f30cf540b9f48eb7e1890285b3a2287937a099a1e0f359fc5ce172b02dd7bc7dec4dceedda775e58dd541e08a116c6c53815c0bd028192f7b6268009b779b17422d0df92223018b32b4d1fa46e071723d6817e2486d003becc55f00f0c57e16840df040f15088dc2f81fe391c3923bec73e23a9662efc9c229c6a00a164736f6c634300081c000af0c57e16840df040f15088dc2f81fe391c3923bec73e23a9662efc9c229c6a00",
    "linkReferences": {}
  },
  "methodIdentifiers": {
    "DEFAULT_ADMIN_ROLE()": "a217fddf",
    "addon(bytes32)": "7086bf94",
    "getRoleAdmin(bytes32)": "248a9ca3",
    "grantRole(bytes32,address)": "2f2ff15d",
    "hasRole(bytes32,address)": "91d14854",
    "implementation(bytes32)": "53c41dea",
    "initialize(address,address)": "485cc955",
    "isTrustedForwarder(address)": "572b6c05",
    "registerSystemAddon(string,address,bytes)": "ff4b2476",
    "renounceRole(bytes32,address)": "36568abe",
    "revokeRole(bytes32,address)": "d547741f",
    "setAddonImplementation(bytes32,address)": "e045d701",
    "supportsInterface(bytes4)": "01ffc9a7",
    "trustedForwarder()": "7da0a877"
  },
  "userdoc": {
    "version": 1,
    "kind": "user",
    "errors": {
      "InvalidAddonAddress()": [
        {
          "notice": "Error indicating that an invalid addon address was provided."
        }
      ],
      "SystemAddonImplementationNotSet(bytes32)": [
        {
          "notice": "Error indicating that the system addon implementation address has not been set."
        }
      ],
      "SystemAddonTypeAlreadyRegistered(string)": [
        {
          "notice": "Error indicating that a system addon type hash has already been registered."
        }
      ]
    }
  },
  "devdoc": {
    "version": 1,
    "kind": "dev",
    "methods": {
      "constructor": {},
      "getRoleAdmin(bytes32)": {
        "details": "Returns the admin role that controls `role`. See {grantRole} and {revokeRole}. To change a role's admin, use {_setRoleAdmin}."
      },
      "grantRole(bytes32,address)": {
        "details": "Grants `role` to `account`. If `account` had not been already granted `role`, emits a {RoleGranted} event. Requirements: - the caller must have ``role``'s admin role. May emit a {RoleGranted} event."
      },
      "hasRole(bytes32,address)": {
        "details": "Returns `true` if `account` has been granted `role`."
      },
      "isTrustedForwarder(address)": {
        "details": "Indicates whether any particular address is the trusted forwarder."
      },
      "renounceRole(bytes32,address)": {
        "details": "Revokes `role` from the calling account. Roles are often managed via {grantRole} and {revokeRole}: this function's purpose is to provide a mechanism for accounts to lose their privileges if they are compromised (such as when a trusted device is misplaced). If the calling account had been revoked `role`, emits a {RoleRevoked} event. Requirements: - the caller must be `callerConfirmation`. May emit a {RoleRevoked} event."
      },
      "revokeRole(bytes32,address)": {
        "details": "Revokes `role` from `account`. If `account` had been granted `role`, emits a {RoleRevoked} event. Requirements: - the caller must have ``role``'s admin role. May emit a {RoleRevoked} event."
      },
      "trustedForwarder()": {
        "details": "Returns the address of the trusted forwarder."
      }
    },
    "events": {
      "Initialized(uint64)": {
        "details": "Triggered when the contract has been initialized or reinitialized."
      },
      "RoleAdminChanged(bytes32,bytes32,bytes32)": {
        "details": "Emitted when `newAdminRole` is set as ``role``'s admin role, replacing `previousAdminRole` `DEFAULT_ADMIN_ROLE` is the starting admin for all roles, despite {RoleAdminChanged} not being emitted to signal this."
      },
      "RoleGranted(bytes32,address,address)": {
        "details": "Emitted when `account` is granted `role`. `sender` is the account that originated the contract call. This account bears the admin role (for the granted role). Expected in cases where the role was granted using the internal {AccessControl-_grantRole}."
      },
      "RoleRevoked(bytes32,address,address)": {
        "details": "Emitted when `account` is revoked `role`. `sender` is the account that originated the contract call:   - if using `revokeRole`, it is the admin role bearer   - if using `renounceRole`, it is the role bearer (i.e. `account`)"
      }
    },
    "errors": {
      "AccessControlBadConfirmation()": [
        {
          "details": "The caller of a function is not the expected one. NOTE: Don't confuse with {AccessControlUnauthorizedAccount}."
        }
      ],
      "AccessControlUnauthorizedAccount(address,bytes32)": [
        {
          "details": "The `account` is missing a role."
        }
      ],
      "InvalidInitialization()": [
        {
          "details": "The contract is already initialized."
        }
      ],
      "NotInitializing()": [
        {
          "details": "The contract is not initializing."
        }
      ],
      "ReentrancyGuardReentrantCall()": [
        {
          "details": "Unauthorized reentrant call."
        }
      ],
      "SystemAddonImplementationNotSet(bytes32)": [
        {
          "details": "This error is thrown if an operation requires the system addon implementation, but its logic contract address is zero or has not been configured in the `SMARTSystem`."
        }
      ]
    }
  },
  "id": 152
}