{
  "abi": [
    {
      "type": "constructor",
      "inputs": [
        {
          "name": "forwarder",
          "type": "address",
          "internalType": "address"
        }
      ],
      "stateMutability": "nonpayable"
    },
    {
      "type": "function",
      "name": "DEFAULT_ADMIN_ROLE",
      "inputs": [],
      "outputs": [
        {
          "name": "",
          "type": "bytes32",
          "internalType": "bytes32"
        }
      ],
      "stateMutability": "view"
    },
    {
      "type": "function",
      "name": "createStableCoin",
      "inputs": [
        {
          "name": "name_",
          "type": "string",
          "internalType": "string"
        },
        {
          "name": "symbol_",
          "type": "string",
          "internalType": "string"
        },
        {
          "name": "decimals_",
          "type": "uint8",
          "internalType": "uint8"
        },
        {
          "name": "requiredClaimTopics_",
          "type": "uint256[]",
          "internalType": "uint256[]"
        },
        {
          "name": "initialModulePairs_",
          "type": "tuple[]",
          "internalType": "struct SMARTComplianceModuleParamPair[]",
          "components": [
            {
              "name": "module",
              "type": "address",
              "internalType": "address"
            },
            {
              "name": "params",
              "type": "bytes",
              "internalType": "bytes"
            }
          ]
        }
      ],
      "outputs": [
        {
          "name": "deployedStableCoinAddress",
          "type": "address",
          "internalType": "address"
        }
      ],
      "stateMutability": "nonpayable"
    },
    {
      "type": "function",
      "name": "getRoleAdmin",
      "inputs": [
        {
          "name": "role",
          "type": "bytes32",
          "internalType": "bytes32"
        }
      ],
      "outputs": [
        {
          "name": "",
          "type": "bytes32",
          "internalType": "bytes32"
        }
      ],
      "stateMutability": "view"
    },
    {
      "type": "function",
      "name": "grantRole",
      "inputs": [
        {
          "name": "role",
          "type": "bytes32",
          "internalType": "bytes32"
        },
        {
          "name": "account",
          "type": "address",
          "internalType": "address"
        }
      ],
      "outputs": [],
      "stateMutability": "nonpayable"
    },
    {
      "type": "function",
      "name": "hasRole",
      "inputs": [
        {
          "name": "role",
          "type": "bytes32",
          "internalType": "bytes32"
        },
        {
          "name": "account",
          "type": "address",
          "internalType": "address"
        }
      ],
      "outputs": [
        {
          "name": "",
          "type": "bool",
          "internalType": "bool"
        }
      ],
      "stateMutability": "view"
    },
    {
      "type": "function",
      "name": "initialize",
      "inputs": [
        {
          "name": "systemAddress",
          "type": "address",
          "internalType": "address"
        },
        {
          "name": "tokenImplementation_",
          "type": "address",
          "internalType": "address"
        },
        {
          "name": "initialAdmin",
          "type": "address",
          "internalType": "address"
        },
        {
          "name": "identityVerificationModule_",
          "type": "address",
          "internalType": "address"
        }
      ],
      "outputs": [],
      "stateMutability": "nonpayable"
    },
    {
      "type": "function",
      "name": "isFactoryAccessManager",
      "inputs": [
        {
          "name": "accessManagerAddress",
          "type": "address",
          "internalType": "address"
        }
      ],
      "outputs": [
        {
          "name": "isFactoryAccessManager",
          "type": "bool",
          "internalType": "bool"
        }
      ],
      "stateMutability": "view"
    },
    {
      "type": "function",
      "name": "isFactoryToken",
      "inputs": [
        {
          "name": "tokenAddress",
          "type": "address",
          "internalType": "address"
        }
      ],
      "outputs": [
        {
          "name": "isFactoryToken",
          "type": "bool",
          "internalType": "bool"
        }
      ],
      "stateMutability": "view"
    },
    {
      "type": "function",
      "name": "isTrustedForwarder",
      "inputs": [
        {
          "name": "forwarder",
          "type": "address",
          "internalType": "address"
        }
      ],
      "outputs": [
        {
          "name": "",
          "type": "bool",
          "internalType": "bool"
        }
      ],
      "stateMutability": "view"
    },
    {
      "type": "function",
      "name": "isValidTokenImplementation",
      "inputs": [
        {
          "name": "tokenImplementation_",
          "type": "address",
          "internalType": "address"
        }
      ],
      "outputs": [
        {
          "name": "",
          "type": "bool",
          "internalType": "bool"
        }
      ],
      "stateMutability": "view"
    },
    {
      "type": "function",
      "name": "predictStableCoinAddress",
      "inputs": [
        {
          "name": "name_",
          "type": "string",
          "internalType": "string"
        },
        {
          "name": "symbol_",
          "type": "string",
          "internalType": "string"
        },
        {
          "name": "decimals_",
          "type": "uint8",
          "internalType": "uint8"
        },
        {
          "name": "requiredClaimTopics_",
          "type": "uint256[]",
          "internalType": "uint256[]"
        },
        {
          "name": "initialModulePairs_",
          "type": "tuple[]",
          "internalType": "struct SMARTComplianceModuleParamPair[]",
          "components": [
            {
              "name": "module",
              "type": "address",
              "internalType": "address"
            },
            {
              "name": "params",
              "type": "bytes",
              "internalType": "bytes"
            }
          ]
        }
      ],
      "outputs": [
        {
          "name": "predictedAddress",
          "type": "address",
          "internalType": "address"
        }
      ],
      "stateMutability": "view"
    },
    {
      "type": "function",
      "name": "renounceRole",
      "inputs": [
        {
          "name": "role",
          "type": "bytes32",
          "internalType": "bytes32"
        },
        {
          "name": "callerConfirmation",
          "type": "address",
          "internalType": "address"
        }
      ],
      "outputs": [],
      "stateMutability": "nonpayable"
    },
    {
      "type": "function",
      "name": "revokeRole",
      "inputs": [
        {
          "name": "role",
          "type": "bytes32",
          "internalType": "bytes32"
        },
        {
          "name": "account",
          "type": "address",
          "internalType": "address"
        }
      ],
      "outputs": [],
      "stateMutability": "nonpayable"
    },
    {
      "type": "function",
      "name": "supportsInterface",
      "inputs": [
        {
          "name": "interfaceId",
          "type": "bytes4",
          "internalType": "bytes4"
        }
      ],
      "outputs": [
        {
          "name": "",
          "type": "bool",
          "internalType": "bool"
        }
      ],
      "stateMutability": "view"
    },
    {
      "type": "function",
      "name": "tokenImplementation",
      "inputs": [],
      "outputs": [
        {
          "name": "",
          "type": "address",
          "internalType": "address"
        }
      ],
      "stateMutability": "view"
    },
    {
      "type": "function",
      "name": "trustedForwarder",
      "inputs": [],
      "outputs": [
        {
          "name": "",
          "type": "address",
          "internalType": "address"
        }
      ],
      "stateMutability": "view"
    },
    {
      "type": "function",
      "name": "typeId",
      "inputs": [],
      "outputs": [
        {
          "name": "",
          "type": "bytes32",
          "internalType": "bytes32"
        }
      ],
      "stateMutability": "view"
    },
    {
      "type": "function",
      "name": "updateTokenImplementation",
      "inputs": [
        {
          "name": "newImplementation",
          "type": "address",
          "internalType": "address"
        }
      ],
      "outputs": [],
      "stateMutability": "nonpayable"
    },
    {
      "type": "event",
      "name": "Initialized",
      "inputs": [
        {
          "name": "version",
          "type": "uint64",
          "indexed": false,
          "internalType": "uint64"
        }
      ],
      "anonymous": false
    },
    {
      "type": "event",
      "name": "RoleAdminChanged",
      "inputs": [
        {
          "name": "role",
          "type": "bytes32",
          "indexed": true,
          "internalType": "bytes32"
        },
        {
          "name": "previousAdminRole",
          "type": "bytes32",
          "indexed": true,
          "internalType": "bytes32"
        },
        {
          "name": "newAdminRole",
          "type": "bytes32",
          "indexed": true,
          "internalType": "bytes32"
        }
      ],
      "anonymous": false
    },
    {
      "type": "event",
      "name": "RoleGranted",
      "inputs": [
        {
          "name": "role",
          "type": "bytes32",
          "indexed": true,
          "internalType": "bytes32"
        },
        {
          "name": "account",
          "type": "address",
          "indexed": true,
          "internalType": "address"
        },
        {
          "name": "sender",
          "type": "address",
          "indexed": true,
          "internalType": "address"
        }
      ],
      "anonymous": false
    },
    {
      "type": "event",
      "name": "RoleRevoked",
      "inputs": [
        {
          "name": "role",
          "type": "bytes32",
          "indexed": true,
          "internalType": "bytes32"
        },
        {
          "name": "account",
          "type": "address",
          "indexed": true,
          "internalType": "address"
        },
        {
          "name": "sender",
          "type": "address",
          "indexed": true,
          "internalType": "address"
        }
      ],
      "anonymous": false
    },
    {
      "type": "event",
      "name": "TokenAssetCreated",
      "inputs": [
        {
          "name": "sender",
          "type": "address",
          "indexed": true,
          "internalType": "address"
        },
        {
          "name": "tokenAddress",
          "type": "address",
          "indexed": true,
          "internalType": "address"
        },
        {
          "name": "tokenIdentity",
          "type": "address",
          "indexed": true,
          "internalType": "address"
        },
        {
          "name": "interfaces",
          "type": "bytes4[]",
          "indexed": false,
          "internalType": "bytes4[]"
        },
        {
          "name": "accessManager",
          "type": "address",
          "indexed": false,
          "internalType": "address"
        }
      ],
      "anonymous": false
    },
    {
      "type": "event",
      "name": "TokenImplementationUpdated",
      "inputs": [
        {
          "name": "sender",
          "type": "address",
          "indexed": true,
          "internalType": "address"
        },
        {
          "name": "oldImplementation",
          "type": "address",
          "indexed": true,
          "internalType": "address"
        },
        {
          "name": "newImplementation",
          "type": "address",
          "indexed": true,
          "internalType": "address"
        }
      ],
      "anonymous": false
    },
    {
      "type": "error",
      "name": "AccessControlBadConfirmation",
      "inputs": []
    },
    {
      "type": "error",
      "name": "AccessControlUnauthorizedAccount",
      "inputs": [
        {
          "name": "account",
          "type": "address",
          "internalType": "address"
        },
        {
          "name": "neededRole",
          "type": "bytes32",
          "internalType": "bytes32"
        }
      ]
    },
    {
      "type": "error",
      "name": "AccessManagerAlreadyDeployed",
      "inputs": [
        {
          "name": "predictedAddress",
          "type": "address",
          "internalType": "address"
        }
      ]
    },
    {
      "type": "error",
      "name": "AddressAlreadyDeployed",
      "inputs": [
        {
          "name": "predictedAddress",
          "type": "address",
          "internalType": "address"
        }
      ]
    },
    {
      "type": "error",
      "name": "Create2EmptyBytecode",
      "inputs": []
    },
    {
      "type": "error",
      "name": "FailedDeployment",
      "inputs": []
    },
    {
      "type": "error",
      "name": "InsufficientBalance",
      "inputs": [
        {
          "name": "balance",
          "type": "uint256",
          "internalType": "uint256"
        },
        {
          "name": "needed",
          "type": "uint256",
          "internalType": "uint256"
        }
      ]
    },
    {
      "type": "error",
      "name": "InvalidIdentityVerificationModuleAddress",
      "inputs": []
    },
    {
      "type": "error",
      "name": "InvalidImplementationAddress",
      "inputs": []
    },
    {
      "type": "error",
      "name": "InvalidInitialization",
      "inputs": []
    },
    {
      "type": "error",
      "name": "InvalidTokenAddress",
      "inputs": []
    },
    {
      "type": "error",
      "name": "NotInitializing",
      "inputs": []
    },
    {
      "type": "error",
      "name": "ProxyCreationFailed",
      "inputs": []
    },
    {
      "type": "error",
      "name": "TokenIdentityAddressMismatch",
      "inputs": [
        {
          "name": "deployedTokenIdentityAddress",
          "type": "address",
          "internalType": "address"
        },
        {
          "name": "tokenIdentityAddress",
          "type": "address",
          "internalType": "address"
        }
      ]
    }
  ],
  "bytecode": {
    "object": "0x60a03461011057601f612a9c38819003918201601f19168301916001600160401b038311848410176101145780849260209460405283398101031261011057516001600160a01b0381168103610110576080525f516020612a7c5f395f51905f525460ff8160401c16610101576002600160401b03196001600160401b038216016100ab575b60405161295390816101298239608051818181610d2601528181610d750152611b470152f35b6001600160401b0319166001600160401b039081175f516020612a7c5f395f51905f52556040519081527fc7f505b2f371ae2175ee4913f4499e1f2633a7b5936321eed1cdaeb6115181d290602090a15f610085565b63f92ee8a960e01b5f5260045ffd5b5f80fd5b634e487b7160e01b5f52604160045260245ffdfe6080806040526004361015610012575f80fd5b5f3560e01c90816301ffc9a714610eeb5750806320ff43ad14610eae578063248a9ca314610e6f5780632f2ff15d14610e255780632f3a3d5d14610dfd57806336568abe14610da9578063572b6c0514610d555780637da0a87714610d115780638f940f6314610cd757806391d1485414610c82578063995087de14610c01578063a217fddf14610be7578063a4b7914e14610bab578063b11bdb7e14610af1578063d20dd34914610a14578063d547741f146109c3578063f2ce51f41461059a5763f8c8765e146100e2575f80fd5b34610363576080366003190112610363576100fb610f72565b610103610f88565b6044356001600160a01b038116808203610363576064356001600160a01b0381169190829003610363575f5160206129275f395f51905f5254936001600160401b0360ff8660401c1615951680159081610592575b6001149081610588575b15908161057f575b50610525578461017861134f565b61054f575b5f5160206129275f395f51905f5254916001600160401b0360ff8460401c1615931680159081610547575b600114908161053d575b159081610534575b5061052557826101c861134f565b6104f5575b156104e6576001600160a01b03169485158061048f575b6104805782158015610418575b6104095760049561020d85610207602097611485565b50611547565b506001600160601b0360a01b600354161760035560018060a01b031691826001600160601b0360a01b60025416176002556001600160601b0360a01b8654161785556103b5575b604051633eb5929760e11b815293849182905afa9182156103aa575f92610379575b506102c3602060409384519061028c8683610fcd565b600a82526918dbdb1b185d195c985b60b21b838301528551808095819463138309b760e01b8352866004840152602483019061123a565b03916001600160a01b03165afa90811561036f575f91610339575b506005556102e857005b60207fc7f505b2f371ae2175ee4913f4499e1f2633a7b5936321eed1cdaeb6115181d29160ff60401b195f5160206129275f395f51905f5254165f5160206129275f395f51905f52555160018152a1005b90506020813d602011610367575b8161035460209383610fcd565b8101031261036357515f6102de565b5f80fd5b3d9150610347565b83513d5f823e3d90fd5b61039c91925060203d6020116103a3575b6103948183610fcd565b81019061137c565b905f610276565b503d61038a565b6040513d5f823e3d90fd5b60ff60401b195f5160206129275f395f51905f5254165f5160206129275f395f51905f52557fc7f505b2f371ae2175ee4913f4499e1f2633a7b5936321eed1cdaeb6115181d28260405160018152a1610254565b635bedad7f60e01b5f5260045ffd5b506040516301ffc9a760e01b8152638c30a94360e01b6004820152602081602481875afa9081156103aa575f91610451575b50156101f1565b610473915060203d602011610479575b61046b8183610fcd565b810190611222565b5f61044a565b503d610461565b63325c055b60e21b5f5260045ffd5b506040516301ffc9a760e01b8152630d67380360e31b60048201526020816024818a5afa9081156103aa575f916104c7575b506101e4565b6104e0915060203d6020116104795761046b8183610fcd565b5f6104c1565b630f58058360e11b5f5260045ffd5b600160401b60ff60401b195f5160206129275f395f51905f525416175f5160206129275f395f51905f52556101cd565b63f92ee8a960e01b5f5260045ffd5b9050155f6101ba565b303b1591506101b2565b8491506101a8565b600160401b60ff60401b195f5160206129275f395f51905f525416175f5160206129275f395f51905f525561017d565b9050155f61016a565b303b159150610162565b869150610158565b34610363576105a836611068565b926105b783828795949561177e565b936105c061139b565b6105d16105cb611b44565b86611b9d565b96906001600160a01b036105e4886117c9565b1697885f52600160205260ff60405f2054166109b0576001600160a01b039161060d9190611ca8565b1696870361098e57610674876106c49561068294825f52600160205260405f20600160ff1982541617905561065161064784848a896117ec565b9960055492611920565b610659611a64565b918a610663611ac4565b946040519a8b993060208c0161125e565b03601f198101835282610fcd565b6106be6107ab946040519561069a6020820188610fcd565b808752611cf360208801396106ad61139b565b6002546001600160a01b0316611c75565b93611b04565b805160208201206001600160a01b03906106e090309086611c4c565b1692835f525f60205260ff60405f20541661099d57906106ff91611ca8565b6001600160a01b03811692830361098e575f8381526020818152604091829020805460ff191660011790556002549151633c73911160e11b81529291839060049082906001600160a01b03165afa9182156103aa5761079b9260209287925f9261096f575b506040516355c759ed60e01b81526001600160a01b03918216600482015292166024830152909283919082905f9082906044820190565b03926001600160a01b03165af19081156103aa575f91610950575b506107bf611b44565b93604051916303faa45560e31b83525f83600481885afa9283156103aa575f936108ac575b506040805181815284519181018290526001600160a01b0390921696879487946060850194939091602001905f5b8181106108865750505060208301526001600160a01b0316917f32100191aac720b586d5e0c2e7856cb5cec1e145c75639b03f4b0d4d17d05435919081900390a46001600160a01b03169182810361086f57602082604051908152f35b9050631a13f74960e11b5f5260045260245260445ffd5b82516001600160e01b03191687528b98508a975060209687019690920191600101610812565b9092503d805f833e6108be8183610fcd565b810190602081830312610363578051906001600160401b03821161036357019080601f83011215610363578151906108f582611051565b926109036040519485610fcd565b82845260208085019360051b82010191821161036357602001915b81831061092f5750505091866107e4565b82516001600160e01b0319811681036103635781526020928301920161091e565b610969915060203d6020116103a3576103948183610fcd565b846107b6565b610987919250843d86116103a3576103948183610fcd565b9088610764565b6335279f5d60e21b5f5260045ffd5b8363d0dc594960e01b5f5260045260245ffd5b88631372e33d60e01b5f5260045260245ffd5b3461036357604036600319011261036357610a126004356109e2610f88565b90610a0d610a08825f525f5160206129075f395f51905f52602052600160405f20015490565b611429565b6116d5565b005b3461036357602036600319011261036357610a2d610f72565b610a35611b44565b6001600160a01b0381165f9081527fb7db2dd08fcb62d0c9e08c51941cae53c267786a0b75803fb7960902fc8ef97d602052604090205460ff1615610ad357506001600160a01b0316801561048057600380546001600160a01b0319811683179091556001600160a01b0390811690610aac611b44565b167fe1f3806f643d2e258028ad292fef274cc5cd62ffcd3e4cb5052e0fe2f518317d5f80a4005b63e2517d3f60e01b5f5260018060a01b03166004525f60245260445ffd5b34610363576020610b99610b54610b8c610674610b0d36611068565b909693929491610b1e81878661177e565b97610b28896117c9565b92610b42610b3885858b8a6117ec565b9260055492611920565b90610b4b611a64565b92610663611ac4565b610b866107ab9360405194610b6b88820187610fcd565b808652611cf3888701396002546001600160a01b0316611c75565b92611b04565b8051908401203091611c4c565b6040516001600160a01b039091168152f35b34610363576020366003190112610363576001600160a01b03610bcc610f72565b165f525f602052602060ff60405f2054166040519015158152f35b34610363575f3660031901126103635760206040515f8152f35b3461036357602036600319011261036357602460206001600160a01b03610c26610f72565b6040516301ffc9a760e01b815263205062b960e21b600482015293849290918391165afa80156103aa576020915f91610c65575b506040519015158152f35b610c7c9150823d84116104795761046b8183610fcd565b82610c5a565b3461036357604036600319011261036357610c9b610f88565b6004355f525f5160206129075f395f51905f5260205260405f209060018060a01b03165f52602052602060ff60405f2054166040519015158152f35b34610363575f3660031901126103635760206040517fa61ec46a4ed2e7ebe2dfdb7effe98a971023b16b7223bb10653f18424bc114fb8152f35b34610363575f366003190112610363576040517f00000000000000000000000000000000000000000000000000000000000000006001600160a01b03168152602090f35b34610363576020366003190112610363576020610d70610f72565b6040517f00000000000000000000000000000000000000000000000000000000000000006001600160a01b039081169216919091148152f35b3461036357604036600319011261036357610dc2610f88565b6001600160a01b03610dd2611b44565b166001600160a01b03821603610dee57610a12906004356116d5565b63334bd91960e11b5f5260045ffd5b34610363575f366003190112610363576003546040516001600160a01b039091168152602090f35b3461036357604036600319011261036357610a12600435610e44610f88565b90610e6a610a08825f525f5160206129075f395f51905f52602052600160405f20015490565b611624565b34610363576020366003190112610363576020610ea66004355f525f5160206129075f395f51905f52602052600160405f20015490565b604051908152f35b34610363576020366003190112610363576001600160a01b03610ecf610f72565b165f526001602052602060ff60405f2054166040519015158152f35b34610363576020366003190112610363576004359063ffffffff60e01b8216809203610363576020916321eac54560e11b8114908115610f2d575b5015158152f35b634ea2ccdd60e01b811491508115610f47575b5083610f26565b637965db0b60e01b811491508115610f61575b5083610f40565b6301ffc9a760e01b14905083610f5a565b600435906001600160a01b038216820361036357565b602435906001600160a01b038216820361036357565b604081019081106001600160401b03821117610fb957604052565b634e487b7160e01b5f52604160045260245ffd5b90601f801991011681019081106001600160401b03821117610fb957604052565b9291926001600160401b038211610fb95760405191611017601f8201601f191660200184610fcd565b829481845281830111610363578281602093845f960137010152565b9080601f830112156103635781602061104e93359101610fee565b90565b6001600160401b038111610fb95760051b60200190565b60a0600319820112610363576004356001600160401b038111610363578161109291600401611033565b916024356001600160401b03811161036357826110b191600401611033565b9160443560ff8116810361036357916064356001600160401b0381116103635782602382011215610363578060040135906110eb82611051565b916110f96040519384610fcd565b8083526024602084019160051b8301019185831161036357602401905b82821061121257505050916084356001600160401b03811161036357816023820112156103635780600401359061114c82611051565b9261115a6040519485610fcd565b8284526024602085019360051b830101918183116103635760248101935b83851061118757505050505090565b84356001600160401b038111610363578201906040828503602319011261036357604051916111b583610f9e565b60248101356001600160a01b038116810361036357835260448101356001600160401b0381116103635760249101019084601f83011215610363576020926112038684868096359101610fee565b83820152815201940193611178565b8135815260209182019101611116565b90816020910312610363575180151581036103635790565b805180835260209291819084018484015e5f828201840152601f01601f1916010190565b979996949261128f60ff9361129d939d9b98969d60018060a01b03168b5261014060208c01526101408b019061123a565b9089820360408b015261123a565b991660608701526001600160a01b0316608086015260a085015283870360c085015280518088526020600582901b8901810192810191905f908a015b82821061130b57505050506001600160a01b0395861660e0850152908516610100840152931661012090910152909150565b909192936020806113416001938e601f199082030186526040838a51878060a01b0381511684520151918185820152019061123a565b9601920192019092916112d9565b60016001600160401b03195f5160206129275f395f51905f525416175f5160206129275f395f51905f5255565b9081602091031261036357516001600160a01b03811681036103635790565b6113a3611b44565b6001600160a01b0381165f9081527f8f7e9a8734279607aeaac474f24949ddc99eae25c0da72edcf5ad21022be2c9e602052604090205460ff16156113e55750565b63e2517d3f60e01b5f9081526001600160a01b03919091166004527ffc425f2263d0df187444b70e47283d622c70181c5baebb1306a01edba1ce184c602452604490fd5b611431611b44565b815f525f5160206129075f395f51905f5260205260405f2060018060a01b0382165f5260205260ff60405f20541615611468575050565b63e2517d3f60e01b5f5260018060a01b031660045260245260445ffd5b6001600160a01b0381165f9081527fb7db2dd08fcb62d0c9e08c51941cae53c267786a0b75803fb7960902fc8ef97d602052604090205460ff16611542576001600160a01b038181165f9081527fb7db2dd08fcb62d0c9e08c51941cae53c267786a0b75803fb7960902fc8ef97d60205260409020805460ff1916600117905561150d611b44565b16906001600160a01b03165f7f2f8788117e7eff1d82e926ec794901d17c78024a50270940304540a733656f0d8180a4600190565b505f90565b6001600160a01b0381165f9081527f8f7e9a8734279607aeaac474f24949ddc99eae25c0da72edcf5ad21022be2c9e602052604090205460ff16611542576001600160a01b038181165f9081527f8f7e9a8734279607aeaac474f24949ddc99eae25c0da72edcf5ad21022be2c9e60205260409020805460ff191660011790556115cf611b44565b16906001600160a01b03167ffc425f2263d0df187444b70e47283d622c70181c5baebb1306a01edba1ce184c7f2f8788117e7eff1d82e926ec794901d17c78024a50270940304540a733656f0d5f80a4600190565b5f8181525f5160206129075f395f51905f52602090815260408083206001600160a01b038616845290915290205460ff166116cf575f8181525f5160206129075f395f51905f52602090815260408083206001600160a01b0386811685529252909120805460ff1916600117905561169a611b44565b16916001600160a01b0316907f2f8788117e7eff1d82e926ec794901d17c78024a50270940304540a733656f0d5f80a4600190565b50505f90565b5f8181525f5160206129075f395f51905f52602090815260408083206001600160a01b038616845290915290205460ff16156116cf575f8181525f5160206129075f395f51905f52602090815260408083206001600160a01b0386811685529252909120805460ff19169055611749611b44565b16916001600160a01b0316907ff6391f5c32d9c69d2a47ea670b442974b53935d1edc7fd64eb21e047a839171b5f80a4600190565b6117a29260ff6117b461104e9460405196879560606020880152608087019061123a565b858103601f190160408701529061123a565b9116606083015203601f198101835282610fcd565b6117de61104e916117d8611b44565b90611b9d565b602081519101203091611c4c565b600254604051633c73911160e11b815293949190602090859060049082906001600160a01b03165afa9081156103aa57611869956020955f936118b1575b50611857929360ff60405198899788968796637a3f5df760e11b885260806004890152608488019061123a565b8681036003190160248801529061123a565b921660448401526001600160a01b03908116606484015291900392165afa9081156103aa575f91611898575090565b61104e915060203d6020116103a3576103948183610fcd565b61185793506118cc90873d89116103a3576103948183610fcd565b9261182a565b604051906118df82610f9e565b60606020835f81520152565b8051156118f85760200190565b634e487b7160e01b5f52603260045260245ffd5b80518210156118f85760209160051b010190565b8051600181019392908410611a1c5761193884611051565b936119466040519586610fcd565b808552611955601f1991611051565b015f5b818110611a4d5750506119696118d2565b5060018060a01b0360045416906040519081604081019160208083015280518093526020606083019101925f5b818110611a345750506119b2925003601f198101835282610fcd565b604051916119bf83610f9e565b825260208201526119cf846118eb565b526119d9836118eb565b505f5b8151811015611a30576119ef818361190c565b51906001810191828211611a1c5782611a1591611a0e6001958961190c565b528661190c565b50016119dc565b634e487b7160e01b5f52601160045260245ffd5b5050565b8451835260209485019486945090920191600101611996565b602090611a586118d2565b82828901015201611958565b60025460405163d62def8f60e01b815290602090829060049082906001600160a01b03165afa9081156103aa575f91611aa5575b506001600160a01b031690565b611abe915060203d6020116103a3576103948183610fcd565b5f611a98565b6002546040516398468e5160e01b815290602090829060049082906001600160a01b03165afa9081156103aa575f91611aa557506001600160a01b031690565b611b42906020808095946040519684889551918291018487015e8401908282015f8152815193849201905e01015f815203601f198101845283610fcd565b565b337f00000000000000000000000000000000000000000000000000000000000000006001600160a01b03161480611b92575b15611b8e576013193601368111611a1c573560601c90565b3390565b506014361015611b76565b919061104e90611c2960018060a01b036002541694604051611bfd8161067460208201948a86526060604084015260116080840152701058d8d95cdcd3585b9859d95c94d85b1d607a1b60a084015260a0606084015260c083019061123a565b519020604080516001600160a01b03978816602082015293909616958301959095528160608101610674565b604051610469611c3c6020820183610fcd565b80825261249e6020830139611b04565b91600b92604051926040840152602083015281520160ff8153605590206001600160a01b031690565b90611ca261067491604051928391602083019560018060a01b03168652604080840152606083019061123a565b51902090565b90805115611ce3576020815191015ff5903d15198215166103aa576001600160a01b03821615611cd457565b63b06ebf3d60e01b5f5260045ffd5b631328927760e21b5f5260045ffdfe60806040526107ab8038038091610015826100f8565b6080396101408160800191126100e05761002d610161565b60a0516001600160401b0381116100e0578261004b916080016101dc565b60c0516001600160401b0381116100e05783610069916080016101dc565b61007360e06101f9565b61007e610100610177565b61012051610140519091906001600160401b0381116100e0576100d1976100a791608001610207565b926100b3610160610177565b946100bf610180610177565b966100cb6101a0610177565b986103f8565b60405161014990816106428239f35b5f80fd5b634e487b7160e01b5f52604160045260245ffd5b6080601f91909101601f19168101906001600160401b0382119082101761011e57604052565b6100e4565b604081019081106001600160401b0382111761011e57604052565b601f909101601f19168101906001600160401b0382119082101761011e57604052565b608051906001600160a01b03821682036100e057565b51906001600160a01b03821682036100e057565b6001600160401b03811161011e57601f01601f191660200190565b9291926101b28261018b565b916101c0604051938461013e565b8294818452818301116100e0578281602093845f96015e010152565b9080601f830112156100e05781516101f6926020016101a6565b90565b519060ff821682036100e057565b9080601f830112156100e0578151916001600160401b03831161011e578260051b916040519361023a602085018661013e565b8452602080850193830101918183116100e05760208101935b83851061026257505050505090565b84516001600160401b0381116100e0578201906040828503601f1901126100e0576040519161029083610123565b61029c60208201610177565b835260408101516001600160401b0381116100e05760209101019084601f830112156100e0576020926102d586848680965191016101a6565b83820152815201940193610253565b805180835260209291819084018484015e5f828201840152601f01601f1916010190565b9699989795949293916103399061032b60ff936101208b526101208b01906102e4565b9089820360208b01526102e4565b931660408701526001600160a01b03166060860152608085015283810360a085015281518082526020600582901b83018101938101925f918101905b8383106103b357505050506001600160a01b0396871660c085015250941660e08201526103b19190610100906001600160a01b03909216910152565b565b90919293946020806103e9600193601f198682030187526040838b51878060a01b038151168452015191818582015201906102e4565b97019301930191939290610375565b939598929690949897919760018060a01b03851680159081156104a3575b50610494576103b19961048f9761045c6104819760018060a01b031660018060a01b03195f51602061078b5f395f51905f525416175f51602061078b5f395f51905f5255565b610464610538565b996040519b8c9963205062b960e21b60208c015260248b01610308565b03601f19810184528361013e565b6105d4565b63fd360a1d60e01b5f5260045ffd5b6040516301ffc9a760e01b8152634ea2ccdd60e01b60048201529150602090829060249082905afa908115610510575f916104e1575b50155f610416565b610503915060203d602011610509575b6104fb818361013e565b810190610515565b5f6104d9565b503d6104f1565b61052d565b908160209103126100e0575180151581036100e05790565b6040513d5f823e3d90fd5b5f51602061078b5f395f51905f5254604051632f3a3d5d60e01b815290602090829060049082906001600160a01b03165afa908115610510575f9161059a575b506001600160a01b0381161561058b5790565b63daa2f31f60e01b5f5260045ffd5b90506020813d6020116105cc575b816105b56020938361013e565b810103126100e0576105c690610177565b5f610578565b3d91506105a8565b6001600160a01b0381161561063257815f929160208493519201905af43d1561062a573d906106028261018b565b91610610604051938461013e565b82523d5f602084013e5b156106225750565b602081519101fd5b60609061061a565b63ee0a129760e01b5f5260045ffdfe608060405236156100a8577f1515746737424785433e0dda020fe774d11e0fab6d980530d355fada133c3c705460209060809060049082906001600160a01b0316632f3a3d5d60e01b82525afa80156100a3575f90610076575b6001600160a01b03811661011f5763daa2f31f60e01b5f5260045ffd5b5060203d60201161009c575b8061008f610097926100b7565b6080016100ee565b610059565b503d610082565b610114565b635d82995b60e01b5f5260045ffd5b601f80199101166080016080811067ffffffffffffffff8211176100da57604052565b634e487b7160e01b5f52604160045260245ffd5b602090607f190112610110576080516001600160a01b03811681036101105790565b5f80fd5b6040513d5f823e3d90fd5b5f8091368280378136915af43d5f803e15610138573d5ff35b3d5ffdfea164736f6c634300081c000a1515746737424785433e0dda020fe774d11e0fab6d980530d355fada133c3c70608060405234610171576040610469803803809161001c82610189565b608039126101715761002c6101d7565b61003660a06101ed565b906001600160a01b03811680159081156100ff575b506100f0577f4ec051ecf420fd16e0db567197da76ec7f1f5f47763970d604b97e75cb0064d380546001600160a01b0319166001600160a01b039290921691821790556100e1916100ce916100dc906100a390610224565b60405163189acdbd60e31b60208201526001600160a01b039093166024840152919283906044820190565b03601f1981018452836101b4565b6102b1565b60405161013b908161032e8239f35b633f997a3760e01b5f5260045ffd5b6040516301ffc9a760e01b815263d0f808eb60e01b60048201529150602090829060249082905afa90811561016c575f9161013d575b50155f61004b565b61015f915060203d602011610165575b61015781836101b4565b810190610201565b5f610135565b503d61014d565b610219565b5f80fd5b634e487b7160e01b5f52604160045260245ffd5b6080601f91909101601f19168101906001600160401b038211908210176101af57604052565b610175565b601f909101601f19168101906001600160401b038211908210176101af57604052565b608051906001600160a01b038216820361017157565b51906001600160a01b038216820361017157565b90816020910312610171575180151581036101715790565b6040513d5f823e3d90fd5b6040516344eecc1760e01b815290602090829060049082906001600160a01b03165afa90811561016c575f91610277575b506001600160a01b038116156102685790565b63099d3e0360e21b5f5260045ffd5b90506020813d6020116102a9575b81610292602093836101b4565b81010312610171576102a3906101ed565b5f610255565b3d9150610285565b6001600160a01b0381161561031e57815f929160208493519201905af43d15610316573d906001600160401b0382116101af57604051916102fc601f8201601f1916602001846101b4565b82523d5f602084013e5b1561030e5750565b602081519101fd5b606090610306565b63ee0a129760e01b5f5260045ffdfe608060405236156100dc577f4ec051ecf420fd16e0db567197da76ec7f1f5f47763970d604b97e75cb0064d3546344eecc1760e01b608090815260209160049082906001600160a01b03165afa80156100d1575f90610076575b6001600160a01b0381166100eb5763099d3e0360e21b5f5260045ffd5b5060203d6020116100ca575b601f19601f820116608001906080821067ffffffffffffffff8311176100b6576100b191604052608001610108565b610059565b634e487b7160e01b5f52604160045260245ffd5b503d610082565b6040513d5f823e3d90fd5b635d82995b60e01b5f5260045ffd5b5f8091368280378136915af43d5f803e15610104573d5ff35b3d5ffd5b602090607f19011261012a576080516001600160a01b038116810361012a5790565b5f80fdfea164736f6c634300081c000a02dd7bc7dec4dceedda775e58dd541e08a116c6c53815c0bd028192f7b626800f0c57e16840df040f15088dc2f81fe391c3923bec73e23a9662efc9c229c6a00a164736f6c634300081c000af0c57e16840df040f15088dc2f81fe391c3923bec73e23a9662efc9c229c6a00",
    "linkReferences": {}
  },
  "methodIdentifiers": {
    "DEFAULT_ADMIN_ROLE()": "a217fddf",
    "createStableCoin(string,string,uint8,uint256[],(address,bytes)[])": "f2ce51f4",
    "getRoleAdmin(bytes32)": "248a9ca3",
    "grantRole(bytes32,address)": "2f2ff15d",
    "hasRole(bytes32,address)": "91d14854",
    "initialize(address,address,address,address)": "f8c8765e",
    "isFactoryAccessManager(address)": "20ff43ad",
    "isFactoryToken(address)": "a4b7914e",
    "isTrustedForwarder(address)": "572b6c05",
    "isValidTokenImplementation(address)": "995087de",
    "predictStableCoinAddress(string,string,uint8,uint256[],(address,bytes)[])": "b11bdb7e",
    "renounceRole(bytes32,address)": "36568abe",
    "revokeRole(bytes32,address)": "d547741f",
    "supportsInterface(bytes4)": "01ffc9a7",
    "tokenImplementation()": "2f3a3d5d",
    "trustedForwarder()": "7da0a877",
    "typeId()": "8f940f63",
    "updateTokenImplementation(address)": "d20dd349"
  },
  "userdoc": {
    "version": 1,
    "kind": "user",
    "methods": {
      "constructor": {
        "notice": "Constructor for the ATKStableCoinFactoryImplementation."
      },
      "createStableCoin(string,string,uint8,uint256[],(address,bytes)[])": {
        "notice": "Creates a new ATK Stable Coin."
      },
      "initialize(address,address,address,address)": {
        "notice": "Initializes the token registry."
      },
      "isFactoryAccessManager(address)": {
        "notice": "Mapping indicating whether an access manager address was deployed by this factory."
      },
      "isFactoryToken(address)": {
        "notice": "Mapping indicating whether a token address was deployed by this factory."
      },
      "isValidTokenImplementation(address)": {
        "notice": "Checks if a given address implements the IATKStableCoin interface."
      },
      "predictStableCoinAddress(string,string,uint8,uint256[],(address,bytes)[])": {
        "notice": "Predicts the deployment address of a ATKStableCoinProxy contract."
      },
      "tokenImplementation()": {
        "notice": "Returns the address of the token implementation contract."
      },
      "typeId()": {
        "notice": "Returns a unique identifier for the type of this contract."
      },
      "updateTokenImplementation(address)": {
        "notice": "Updates the address of the token implementation contract."
      }
    },
    "events": {
      "TokenAssetCreated(address,address,address,bytes4[],address)": {
        "notice": "Emitted when a new proxy contract is created using CREATE2."
      },
      "TokenImplementationUpdated(address,address,address)": {
        "notice": "Emitted when the token implementation address is updated."
      }
    },
    "errors": {
      "AccessManagerAlreadyDeployed(address)": [
        {
          "notice": "Error when a predicted CREATE2 address for an access manager is already marked as deployed by this factory."
        }
      ],
      "AddressAlreadyDeployed(address)": [
        {
          "notice": "Error when a CREATE2 proxy deployment fails."
        }
      ],
      "InvalidIdentityVerificationModuleAddress()": [
        {
          "notice": "Error when the provided identity verification module address is the zero address."
        }
      ],
      "InvalidImplementationAddress()": [
        {
          "notice": "Error for attempting to unregister a token that is not registered."
        }
      ],
      "InvalidTokenAddress()": [
        {
          "notice": "Custom errors for the factory contract"
        }
      ],
      "ProxyCreationFailed()": [
        {
          "notice": "Error for when the provided token implementation address is the zero address."
        }
      ],
      "TokenIdentityAddressMismatch(address,address)": [
        {
          "notice": "Error when a token identity address mismatch is detected."
        }
      ]
    },
    "notice": "This contract is responsible for creating instances of ATK Stable Coins."
  },
  "devdoc": {
    "version": 1,
    "kind": "dev",
    "methods": {
      "constructor": {
        "params": {
          "forwarder": "The address of the trusted forwarder for meta-transactions."
        }
      },
      "createStableCoin(string,string,uint8,uint256[],(address,bytes)[])": {
        "params": {
          "decimals_": "The number of decimals for the stable coin.",
          "initialModulePairs_": "An array of initial compliance module and parameter pairs.",
          "name_": "The name of the stable coin.",
          "requiredClaimTopics_": "An array of claim topics required for interacting with the stable coin.",
          "symbol_": "The symbol of the stable coin."
        },
        "returns": {
          "deployedStableCoinAddress": "The address of the newly deployed stable coin contract."
        }
      },
      "getRoleAdmin(bytes32)": {
        "details": "Returns the admin role that controls `role`. See {grantRole} and {revokeRole}. To change a role's admin, use {_setRoleAdmin}."
      },
      "grantRole(bytes32,address)": {
        "details": "Grants `role` to `account`. If `account` had not been already granted `role`, emits a {RoleGranted} event. Requirements: - the caller must have ``role``'s admin role. May emit a {RoleGranted} event."
      },
      "hasRole(bytes32,address)": {
        "details": "Returns `true` if `account` has been granted `role`."
      },
      "initialize(address,address,address,address)": {
        "params": {
          "identityVerificationModule_": "The address of the identity verification module.",
          "initialAdmin": "The address to be granted the DEFAULT_ADMIN_ROLE and DEPLOYER_ROLE.",
          "systemAddress": "The address of the `IATKSystem` contract.",
          "tokenImplementation_": "The initial address of the token implementation contract."
        }
      },
      "isTrustedForwarder(address)": {
        "details": "Indicates whether any particular address is the trusted forwarder."
      },
      "isValidTokenImplementation(address)": {
        "params": {
          "tokenImplementation_": "The address of the contract to check."
        },
        "returns": {
          "_0": "bool True if the contract supports the IATKStableCoin interface, false otherwise."
        }
      },
      "predictStableCoinAddress(string,string,uint8,uint256[],(address,bytes)[])": {
        "params": {
          "decimals_": "The decimals of the stable coin.",
          "initialModulePairs_": "The initial compliance module pairs for the stable coin.",
          "name_": "The name of the stable coin.",
          "requiredClaimTopics_": "The required claim topics for the stable coin.",
          "symbol_": "The symbol of the stable coin."
        },
        "returns": {
          "predictedAddress": "The predicted address of the stable coin contract."
        }
      },
      "renounceRole(bytes32,address)": {
        "details": "Revokes `role` from the calling account. Roles are often managed via {grantRole} and {revokeRole}: this function's purpose is to provide a mechanism for accounts to lose their privileges if they are compromised (such as when a trusted device is misplaced). If the calling account had been revoked `role`, emits a {RoleRevoked} event. Requirements: - the caller must be `callerConfirmation`. May emit a {RoleRevoked} event."
      },
      "revokeRole(bytes32,address)": {
        "details": "Revokes `role` from `account`. If `account` had been granted `role`, emits a {RoleRevoked} event. Requirements: - the caller must have ``role``'s admin role. May emit a {RoleRevoked} event."
      },
      "tokenImplementation()": {
        "returns": {
          "_0": "tokenImplementation The address of the token implementation contract."
        }
      },
      "trustedForwarder()": {
        "details": "Returns the address of the trusted forwarder."
      },
      "updateTokenImplementation(address)": {
        "details": "This function can only be called by an account with the DEFAULT_ADMIN_ROLE.      It allows changing the underlying contract that handles token logic.      Emits a {TokenImplementationUpdated} event on success.",
        "params": {
          "newImplementation": "The new address for the token implementation contract. Cannot be the zero address."
        }
      }
    },
    "events": {
      "Initialized(uint64)": {
        "details": "Triggered when the contract has been initialized or reinitialized."
      },
      "RoleAdminChanged(bytes32,bytes32,bytes32)": {
        "details": "Emitted when `newAdminRole` is set as ``role``'s admin role, replacing `previousAdminRole` `DEFAULT_ADMIN_ROLE` is the starting admin for all roles, despite {RoleAdminChanged} not being emitted to signal this."
      },
      "RoleGranted(bytes32,address,address)": {
        "details": "Emitted when `account` is granted `role`. `sender` is the account that originated the contract call. This account bears the admin role (for the granted role). Expected in cases where the role was granted using the internal {AccessControl-_grantRole}."
      },
      "RoleRevoked(bytes32,address,address)": {
        "details": "Emitted when `account` is revoked `role`. `sender` is the account that originated the contract call:   - if using `revokeRole`, it is the admin role bearer   - if using `renounceRole`, it is the role bearer (i.e. `account`)"
      },
      "TokenAssetCreated(address,address,address,bytes4[],address)": {
        "params": {
          "accessManager": "The address of the access manager.",
          "interfaces": "The array of interfaces that the token supports.",
          "sender": "The address of the sender.",
          "tokenAddress": "The address of the newly created token.",
          "tokenIdentity": "The address of the token identity."
        }
      },
      "TokenImplementationUpdated(address,address,address)": {
        "params": {
          "newImplementation": "The address of the new token implementation.",
          "oldImplementation": "The address of the old token implementation."
        }
      }
    },
    "errors": {
      "AccessControlBadConfirmation()": [
        {
          "details": "The caller of a function is not the expected one. NOTE: Don't confuse with {AccessControlUnauthorizedAccount}."
        }
      ],
      "AccessControlUnauthorizedAccount(address,bytes32)": [
        {
          "details": "The `account` is missing a role."
        }
      ],
      "Create2EmptyBytecode()": [
        {
          "details": "There's no code to deploy."
        }
      ],
      "FailedDeployment()": [
        {
          "details": "The deployment failed."
        }
      ],
      "InsufficientBalance(uint256,uint256)": [
        {
          "details": "The ETH balance of the account is not enough to perform the operation."
        }
      ],
      "InvalidInitialization()": [
        {
          "details": "The contract is already initialized."
        }
      ],
      "InvalidTokenAddress()": [
        {
          "details": "Defines custom error types used by the contract for various failure conditions."
        }
      ],
      "NotInitializing()": [
        {
          "details": "The contract is not initializing."
        }
      ]
    },
    "title": "Implementation of the ATK Stable Coin Factory"
  },
  "id": 54
}