{
  "abi": [
    {
      "type": "constructor",
      "inputs": [
        {
          "name": "atkSystemImplementation_",
          "type": "address",
          "internalType": "address"
        },
        {
          "name": "complianceImplementation_",
          "type": "address",
          "internalType": "address"
        },
        {
          "name": "identityRegistryImplementation_",
          "type": "address",
          "internalType": "address"
        },
        {
          "name": "identityRegistryStorageImplementation_",
          "type": "address",
          "internalType": "address"
        },
        {
          "name": "trustedIssuersRegistryImplementation_",
          "type": "address",
          "internalType": "address"
        },
        {
          "name": "topicSchemeRegistryImplementation_",
          "type": "address",
          "internalType": "address"
        },
        {
          "name": "identityFactoryImplementation_",
          "type": "address",
          "internalType": "address"
        },
        {
          "name": "identityImplementation_",
          "type": "address",
          "internalType": "address"
        },
        {
          "name": "tokenIdentityImplementation_",
          "type": "address",
          "internalType": "address"
        },
        {
          "name": "tokenAccessManagerImplementation_",
          "type": "address",
          "internalType": "address"
        },
        {
          "name": "identityVerificationModule_",
          "type": "address",
          "internalType": "address"
        },
        {
          "name": "tokenFactoryRegistryImplementation_",
          "type": "address",
          "internalType": "address"
        },
        {
          "name": "complianceModuleRegistryImplementation_",
          "type": "address",
          "internalType": "address"
        },
        {
          "name": "addonRegistryImplementation_",
          "type": "address",
          "internalType": "address"
        },
        {
          "name": "forwarder_",
          "type": "address",
          "internalType": "address"
        }
      ],
      "stateMutability": "nonpayable"
    },
    {
      "type": "function",
      "name": "atkSystemImplementation",
      "inputs": [],
      "outputs": [
        {
          "name": "",
          "type": "address",
          "internalType": "address"
        }
      ],
      "stateMutability": "view"
    },
    {
      "type": "function",
      "name": "atkSystems",
      "inputs": [
        {
          "name": "",
          "type": "uint256",
          "internalType": "uint256"
        }
      ],
      "outputs": [
        {
          "name": "",
          "type": "address",
          "internalType": "address"
        }
      ],
      "stateMutability": "view"
    },
    {
      "type": "function",
      "name": "createSystem",
      "inputs": [],
      "outputs": [
        {
          "name": "systemAddress",
          "type": "address",
          "internalType": "address"
        }
      ],
      "stateMutability": "nonpayable"
    },
    {
      "type": "function",
      "name": "defaultAddonRegistryImplementation",
      "inputs": [],
      "outputs": [
        {
          "name": "",
          "type": "address",
          "internalType": "address"
        }
      ],
      "stateMutability": "view"
    },
    {
      "type": "function",
      "name": "defaultComplianceImplementation",
      "inputs": [],
      "outputs": [
        {
          "name": "",
          "type": "address",
          "internalType": "address"
        }
      ],
      "stateMutability": "view"
    },
    {
      "type": "function",
      "name": "defaultComplianceModuleRegistryImplementation",
      "inputs": [],
      "outputs": [
        {
          "name": "",
          "type": "address",
          "internalType": "address"
        }
      ],
      "stateMutability": "view"
    },
    {
      "type": "function",
      "name": "defaultIdentityFactoryImplementation",
      "inputs": [],
      "outputs": [
        {
          "name": "",
          "type": "address",
          "internalType": "address"
        }
      ],
      "stateMutability": "view"
    },
    {
      "type": "function",
      "name": "defaultIdentityImplementation",
      "inputs": [],
      "outputs": [
        {
          "name": "",
          "type": "address",
          "internalType": "address"
        }
      ],
      "stateMutability": "view"
    },
    {
      "type": "function",
      "name": "defaultIdentityRegistryImplementation",
      "inputs": [],
      "outputs": [
        {
          "name": "",
          "type": "address",
          "internalType": "address"
        }
      ],
      "stateMutability": "view"
    },
    {
      "type": "function",
      "name": "defaultIdentityRegistryStorageImplementation",
      "inputs": [],
      "outputs": [
        {
          "name": "",
          "type": "address",
          "internalType": "address"
        }
      ],
      "stateMutability": "view"
    },
    {
      "type": "function",
      "name": "defaultIdentityVerificationModule",
      "inputs": [],
      "outputs": [
        {
          "name": "",
          "type": "address",
          "internalType": "address"
        }
      ],
      "stateMutability": "view"
    },
    {
      "type": "function",
      "name": "defaultTokenAccessManagerImplementation",
      "inputs": [],
      "outputs": [
        {
          "name": "",
          "type": "address",
          "internalType": "address"
        }
      ],
      "stateMutability": "view"
    },
    {
      "type": "function",
      "name": "defaultTokenFactoryRegistryImplementation",
      "inputs": [],
      "outputs": [
        {
          "name": "",
          "type": "address",
          "internalType": "address"
        }
      ],
      "stateMutability": "view"
    },
    {
      "type": "function",
      "name": "defaultTokenIdentityImplementation",
      "inputs": [],
      "outputs": [
        {
          "name": "",
          "type": "address",
          "internalType": "address"
        }
      ],
      "stateMutability": "view"
    },
    {
      "type": "function",
      "name": "defaultTopicSchemeRegistryImplementation",
      "inputs": [],
      "outputs": [
        {
          "name": "",
          "type": "address",
          "internalType": "address"
        }
      ],
      "stateMutability": "view"
    },
    {
      "type": "function",
      "name": "defaultTrustedIssuersRegistryImplementation",
      "inputs": [],
      "outputs": [
        {
          "name": "",
          "type": "address",
          "internalType": "address"
        }
      ],
      "stateMutability": "view"
    },
    {
      "type": "function",
      "name": "factoryForwarder",
      "inputs": [],
      "outputs": [
        {
          "name": "",
          "type": "address",
          "internalType": "address"
        }
      ],
      "stateMutability": "view"
    },
    {
      "type": "function",
      "name": "getSystemAtIndex",
      "inputs": [
        {
          "name": "index",
          "type": "uint256",
          "internalType": "uint256"
        }
      ],
      "outputs": [
        {
          "name": "",
          "type": "address",
          "internalType": "address"
        }
      ],
      "stateMutability": "view"
    },
    {
      "type": "function",
      "name": "getSystemCount",
      "inputs": [],
      "outputs": [
        {
          "name": "",
          "type": "uint256",
          "internalType": "uint256"
        }
      ],
      "stateMutability": "view"
    },
    {
      "type": "function",
      "name": "isTrustedForwarder",
      "inputs": [
        {
          "name": "forwarder",
          "type": "address",
          "internalType": "address"
        }
      ],
      "outputs": [
        {
          "name": "",
          "type": "bool",
          "internalType": "bool"
        }
      ],
      "stateMutability": "view"
    },
    {
      "type": "function",
      "name": "trustedForwarder",
      "inputs": [],
      "outputs": [
        {
          "name": "",
          "type": "address",
          "internalType": "address"
        }
      ],
      "stateMutability": "view"
    },
    {
      "type": "event",
      "name": "ATKSystemCreated",
      "inputs": [
        {
          "name": "sender",
          "type": "address",
          "indexed": true,
          "internalType": "address"
        },
        {
          "name": "systemAddress",
          "type": "address",
          "indexed": true,
          "internalType": "address"
        }
      ],
      "anonymous": false
    },
    {
      "type": "error",
      "name": "AddonRegistryImplementationNotSet",
      "inputs": []
    },
    {
      "type": "error",
      "name": "ComplianceImplementationNotSet",
      "inputs": []
    },
    {
      "type": "error",
      "name": "ComplianceModuleRegistryImplementationNotSet",
      "inputs": []
    },
    {
      "type": "error",
      "name": "IdentityFactoryImplementationNotSet",
      "inputs": []
    },
    {
      "type": "error",
      "name": "IdentityImplementationNotSet",
      "inputs": []
    },
    {
      "type": "error",
      "name": "IdentityRegistryImplementationNotSet",
      "inputs": []
    },
    {
      "type": "error",
      "name": "IdentityRegistryStorageImplementationNotSet",
      "inputs": []
    },
    {
      "type": "error",
      "name": "IdentityVerificationModuleNotSet",
      "inputs": []
    },
    {
      "type": "error",
      "name": "IndexOutOfBounds",
      "inputs": [
        {
          "name": "index",
          "type": "uint256",
          "internalType": "uint256"
        },
        {
          "name": "length",
          "type": "uint256",
          "internalType": "uint256"
        }
      ]
    },
    {
      "type": "error",
      "name": "InvalidSystemImplementation",
      "inputs": []
    },
    {
      "type": "error",
      "name": "TokenAccessManagerImplementationNotSet",
      "inputs": []
    },
    {
      "type": "error",
      "name": "TokenFactoryRegistryImplementationNotSet",
      "inputs": []
    },
    {
      "type": "error",
      "name": "TokenIdentityImplementationNotSet",
      "inputs": []
    },
    {
      "type": "error",
      "name": "TopicSchemeRegistryImplementationNotSet",
      "inputs": []
    },
    {
      "type": "error",
      "name": "TrustedIssuersRegistryImplementationNotSet",
      "inputs": []
    }
  ],
  "bytecode": {
    "object": "0x610280346103fe57601f61111e38819003918201601f19168301916001600160401b03831184841017610402578084926101e0946040528339810103126103fe5761004981610416565b9061005660208201610416565b61006260408301610416565b61006e60608401610416565b61007a60808501610416565b61008660a08601610416565b61009260c08701610416565b61009e60e08801610416565b906100ac6101008901610416565b926100ba6101208a01610416565b946100c86101408b01610416565b966100d66101608c01610416565b986100e46101808d01610416565b9a6100f26101a08e01610416565b9c6101c00161010090610416565b60808190529d6001600160a01b038116156103ef576001600160a01b038216156103e0576001600160a01b038316156103d1576001600160a01b038416156103c2576001600160a01b038516156103b3576001600160a01b038616156103a4576001600160a01b03871615610395576001600160a01b03881615610386576001600160a01b03891615610377576001600160a01b038a1615610368576001600160a01b038b1615610359576001600160a01b038c161561034a576001600160a01b038d161561033b576001600160a01b038e161561032c5760a05260c05260e05261010052610120526101405261016052610180526101a0526101c052610200526102605261022052610240526101e052604051610cf3908161042b8239608051818181610737015281816107d50152610a08015260a05181818161022c01526104f9015260c0518181816102990152610927015260e0518181816102c101526106d701526101005181818161011801526102e90152610120518181816103110152610693015261014051818181610339015261096b01526101605181818161016001526103610152610180518181816101a4015261038901526101a0518181816103b2015261064f01526101c0518181816103db01526109ac01526101e051816108e3015261020051818181610404015261077b0152610220518181816101e8015261045601526102405181818161047f015261085b01526102605181818161042d015261089f0152f35b63d45619f160e01b5f5260045ffd5b6302a7933960e41b5f5260045ffd5b6308f160e760e21b5f5260045ffd5b633ac2d12960e21b5f5260045ffd5b63099d3e0360e21b5f5260045ffd5b63e26a8ec760e01b5f5260045ffd5b632384fcc160e11b5f5260045ffd5b6305b4e73960e51b5f5260045ffd5b6342f4ff8d60e11b5f5260045ffd5b630273e4dd60e41b5f5260045ffd5b63d6cd3aeb60e01b5f5260045ffd5b6397a22d9360e01b5f5260045ffd5b63ee30f64f60e01b5f5260045ffd5b634d174e3b60e01b5f5260045ffd5b5f80fd5b634e487b7160e01b5f52604160045260245ffd5b51906001600160a01b03821682036103fe5756fe6080806040526004361015610012575f80fd5b5f3560e01c90816301e08e581461099a57508063023fc729146109565780630a94adee146109125780630e5f342c146108ce578063363c9fc41461088a578063456d84de14610846578063490e805a14610807578063572b6c05146107aa578063686b1e03146107665780637da0a877146107225780637df56b6c146107065780638bb25576146106c25780639ca5f9c71461067e578063cbdd9d511461063a578063cf0da604146105f9578063d171da1a1461025b578063daf951e014610217578063e18b993d146101d3578063e28a14061461018f578063e6fea7ac1461014b5763e84b3ceb14610103575f80fd5b34610147575f366003190112610147576040517f00000000000000000000000000000000000000000000000000000000000000006001600160a01b03168152602090f35b5f80fd5b34610147575f366003190112610147576040517f00000000000000000000000000000000000000000000000000000000000000006001600160a01b03168152602090f35b34610147575f366003190112610147576040517f00000000000000000000000000000000000000000000000000000000000000006001600160a01b03168152602090f35b34610147575f366003190112610147576040517f00000000000000000000000000000000000000000000000000000000000000006001600160a01b03168152602090f35b34610147575f366003190112610147576040517f00000000000000000000000000000000000000000000000000000000000000006001600160a01b03168152602090f35b34610147575f36600319011261014757610273610a05565b604051637130262760e01b602082019081526001600160a01b03928316602483018190527f0000000000000000000000000000000000000000000000000000000000000000841660448401527f0000000000000000000000000000000000000000000000000000000000000000841660648401527f0000000000000000000000000000000000000000000000000000000000000000841660848401527f0000000000000000000000000000000000000000000000000000000000000000841660a48401527f0000000000000000000000000000000000000000000000000000000000000000841660c48401527f0000000000000000000000000000000000000000000000000000000000000000841660e48401527f000000000000000000000000000000000000000000000000000000000000000084166101048401527f000000000000000000000000000000000000000000000000000000000000000084166101248401527f000000000000000000000000000000000000000000000000000000000000000084166101448401527f000000000000000000000000000000000000000000000000000000000000000084166101648401527f000000000000000000000000000000000000000000000000000000000000000084166101848401527f000000000000000000000000000000000000000000000000000000000000000084166101a48401527f00000000000000000000000000000000000000000000000000000000000000009093166101c480840191909152825261020082019167ffffffffffffffff8311818410176105da5782604052610274908181019161020083019285841067ffffffffffffffff8511176105da5760609361020092610a7388397f00000000000000000000000000000000000000000000000000000000000000006001600160a01b0316905260406102208201528251610240820181905294859061026083015e5f84838784010101526101ff1994601f80199101160101030101905ff080156105ee575f5491906001600160a01b0316680100000000000000008310156105da57610590836001602095015f556109db565b81546001600160a01b0360039290921b91821b19169083901b1790556040519181907f87fff1d4a5235e3ed4aadb342e3efabac0e1ea83c57035716c8cee3ee6db525a5f80a38152f35b634e487b7160e01b5f52604160045260245ffd5b6040513d5f823e3d90fd5b34610147576020366003190112610147576004355f54811015610147576106216020916109db565b905460405160039290921b1c6001600160a01b03168152f35b34610147575f366003190112610147576040517f00000000000000000000000000000000000000000000000000000000000000006001600160a01b03168152602090f35b34610147575f366003190112610147576040517f00000000000000000000000000000000000000000000000000000000000000006001600160a01b03168152602090f35b34610147575f366003190112610147576040517f00000000000000000000000000000000000000000000000000000000000000006001600160a01b03168152602090f35b34610147575f3660031901126101475760205f54604051908152f35b34610147575f366003190112610147576040517f00000000000000000000000000000000000000000000000000000000000000006001600160a01b03168152602090f35b34610147575f366003190112610147576040517f00000000000000000000000000000000000000000000000000000000000000006001600160a01b03168152602090f35b34610147576020366003190112610147576004356001600160a01b03811690819003610147576040517f00000000000000000000000000000000000000000000000000000000000000006001600160a01b03169091148152602090f35b34610147576020366003190112610147576004355f5480821015610830576020610621836109db565b906363a056dd60e01b5f5260045260245260445ffd5b34610147575f366003190112610147576040517f00000000000000000000000000000000000000000000000000000000000000006001600160a01b03168152602090f35b34610147575f366003190112610147576040517f00000000000000000000000000000000000000000000000000000000000000006001600160a01b03168152602090f35b34610147575f366003190112610147576040517f00000000000000000000000000000000000000000000000000000000000000006001600160a01b03168152602090f35b34610147575f366003190112610147576040517f00000000000000000000000000000000000000000000000000000000000000006001600160a01b03168152602090f35b34610147575f366003190112610147576040517f00000000000000000000000000000000000000000000000000000000000000006001600160a01b03168152602090f35b34610147575f366003190112610147577f00000000000000000000000000000000000000000000000000000000000000006001600160a01b03168152602090f35b5f548110156109f1575f805260205f2001905f90565b634e487b7160e01b5f52603260045260245ffd5b337f00000000000000000000000000000000000000000000000000000000000000006001600160a01b03161480610a67575b15610a63576013193601368111610a4f573560601c90565b634e487b7160e01b5f52601160045260245ffd5b3390565b506014361015610a3756fe60806040526102748038038061001481610168565b92833981016040828203126101645781516001600160a01b03811692909190838303610164576020810151906001600160401b03821161016457019281601f8501121561016457835161006e610069826101a1565b610168565b9481865260208601936020838301011161016457815f926020809301865e86010152823b15610152577f360894a13ba1a3210667c828492db98dca3e2076cc3735a920a3ca505d382bbc80546001600160a01b031916821790557fbc7cd75a20ee27fd9adebab32041f755214dbc6bffa90cc0225b39da2e5c2d3b5f80a282511561013a575f8091610122945190845af43d15610132573d91610113610069846101a1565b9283523d5f602085013e6101bc565b505b6040516059908161021b8239f35b6060916101bc565b50505034156101245763b398979f60e01b5f5260045ffd5b634c9c8ce360e01b5f5260045260245ffd5b5f80fd5b6040519190601f01601f191682016001600160401b0381118382101761018d57604052565b634e487b7160e01b5f52604160045260245ffd5b6001600160401b03811161018d57601f01601f191660200190565b906101e057508051156101d157805190602001fd5b63d6bda27560e01b5f5260045ffd5b81511580610211575b6101f1575090565b639996b31560e01b5f9081526001600160a01b0391909116600452602490fd5b50803b156101e956fe60806040527f360894a13ba1a3210667c828492db98dca3e2076cc3735a920a3ca505d382bbc545f9081906001600160a01b0316368280378136915af43d5f803e156048573d5ff35b3d5ffdfea164736f6c634300081c000aa164736f6c634300081c000a",
    "linkReferences": {}
  },
  "methodIdentifiers": {
    "atkSystemImplementation()": "daf951e0",
    "atkSystems(uint256)": "cf0da604",
    "createSystem()": "d171da1a",
    "defaultAddonRegistryImplementation()": "456d84de",
    "defaultComplianceImplementation()": "0a94adee",
    "defaultComplianceModuleRegistryImplementation()": "e18b993d",
    "defaultIdentityFactoryImplementation()": "e6fea7ac",
    "defaultIdentityImplementation()": "e28a1406",
    "defaultIdentityRegistryImplementation()": "8bb25576",
    "defaultIdentityRegistryStorageImplementation()": "e84b3ceb",
    "defaultIdentityVerificationModule()": "686b1e03",
    "defaultTokenAccessManagerImplementation()": "01e08e58",
    "defaultTokenFactoryRegistryImplementation()": "363c9fc4",
    "defaultTokenIdentityImplementation()": "cbdd9d51",
    "defaultTopicSchemeRegistryImplementation()": "023fc729",
    "defaultTrustedIssuersRegistryImplementation()": "9ca5f9c7",
    "factoryForwarder()": "0e5f342c",
    "getSystemAtIndex(uint256)": "490e805a",
    "getSystemCount()": "7df56b6c",
    "isTrustedForwarder(address)": "572b6c05",
    "trustedForwarder()": "7da0a877"
  },
  "userdoc": {
    "version": 1,
    "kind": "user",
    "methods": {
      "atkSystemImplementation()": {
        "notice": "The address of the ATKSystem implementation contract."
      },
      "atkSystems(uint256)": {
        "notice": "An array storing the addresses of all `ATKSystem` instances that have been created by this factory."
      },
      "constructor": {
        "notice": "Constructs the `ATKSystemFactory` contract."
      },
      "createSystem()": {
        "notice": "Creates and deploys a new `ATKSystem` instance using the factory's stored default implementation addresses."
      },
      "defaultAddonRegistryImplementation()": {
        "notice": "The default contract address for the addon registry module's logic."
      },
      "defaultComplianceImplementation()": {
        "notice": "The default contract address for the compliance module's logic (implementation)."
      },
      "defaultComplianceModuleRegistryImplementation()": {
        "notice": "The default contract address for the compliance module registry module's logic."
      },
      "defaultIdentityFactoryImplementation()": {
        "notice": "The default contract address for the identity factory module's logic (implementation)."
      },
      "defaultIdentityImplementation()": {
        "notice": "The default contract address for the standard identity contract's logic (template/implementation)."
      },
      "defaultIdentityRegistryImplementation()": {
        "notice": "The default contract address for the identity registry module's logic (implementation)."
      },
      "defaultIdentityRegistryStorageImplementation()": {
        "notice": "The default contract address for the identity registry storage module's logic (implementation)."
      },
      "defaultIdentityVerificationModule()": {
        "notice": "The default contract address for the identity verification module's logic."
      },
      "defaultTokenAccessManagerImplementation()": {
        "notice": "The default contract address for the token access manager contract's logic (implementation)."
      },
      "defaultTokenFactoryRegistryImplementation()": {
        "notice": "The default contract address for the token factory registry module's logic."
      },
      "defaultTokenIdentityImplementation()": {
        "notice": "The default contract address for the token identity contract's logic (template/implementation)."
      },
      "defaultTopicSchemeRegistryImplementation()": {
        "notice": "The default contract address for the topic scheme registry module's logic (implementation)."
      },
      "defaultTrustedIssuersRegistryImplementation()": {
        "notice": "The default contract address for the trusted issuers registry module's logic (implementation)."
      },
      "factoryForwarder()": {
        "notice": "The address of the trusted forwarder contract used by this factory for meta-transactions (ERC2771)."
      },
      "getSystemAtIndex(uint256)": {
        "notice": "Gets the blockchain address of a `ATKSystem` instance at a specific index in the list of created systems."
      },
      "getSystemCount()": {
        "notice": "Gets the total number of `ATKSystem` instances that have been created by this factory."
      }
    },
    "events": {
      "ATKSystemCreated(address,address)": {
        "notice": "Emitted when a new `ATKSystem` instance is successfully created and deployed by this factory."
      }
    },
    "errors": {
      "AddonRegistryImplementationNotSet()": [
        {
          "notice": "Error indicating that the addon registry implementation address has not been set."
        }
      ],
      "ComplianceImplementationNotSet()": [
        {
          "notice": "Error indicating that the compliance module implementation address has not been set."
        }
      ],
      "ComplianceModuleRegistryImplementationNotSet()": [
        {
          "notice": "Error indicating that the compliance module registry implementation address has not been set."
        }
      ],
      "IdentityFactoryImplementationNotSet()": [
        {
          "notice": "Error indicating that the identity factory implementation address has not been set."
        }
      ],
      "IdentityImplementationNotSet()": [
        {
          "notice": "Error indicating that the standard identity contract implementation address has not been set."
        }
      ],
      "IdentityRegistryImplementationNotSet()": [
        {
          "notice": "Error indicating that the identity registry implementation address has not been set."
        }
      ],
      "IdentityRegistryStorageImplementationNotSet()": [
        {
          "notice": "Error indicating that the identity registry storage implementation address has not been set."
        }
      ],
      "IdentityVerificationModuleNotSet()": [
        {
          "notice": "Error indicating that the identity verification module implementation address has not been set."
        }
      ],
      "IndexOutOfBounds(uint256,uint256)": [
        {
          "notice": "Error indicating that an index provided for accessing an array or list is out of its valid range."
        }
      ],
      "InvalidSystemImplementation()": [
        {
          "notice": "Error indicating that an invalid ATKSystem implementation address was provided."
        }
      ],
      "TokenAccessManagerImplementationNotSet()": [
        {
          "notice": "Error indicating that the token access manager contract implementation address has not been set."
        }
      ],
      "TokenFactoryRegistryImplementationNotSet()": [
        {
          "notice": "Error indicating that the token factory registry implementation address has not been set."
        }
      ],
      "TokenIdentityImplementationNotSet()": [
        {
          "notice": "Error indicating that the token identity contract implementation address has not been set."
        }
      ],
      "TopicSchemeRegistryImplementationNotSet()": [
        {
          "notice": "Error indicating that the topic scheme registry implementation address has not been set."
        }
      ],
      "TrustedIssuersRegistryImplementationNotSet()": [
        {
          "notice": "Error indicating that the trusted issuers registry implementation address has not been set."
        }
      ]
    },
    "notice": "This contract serves as a factory for deploying new instances of the `ATKSystem` contract."
  },
  "devdoc": {
    "version": 1,
    "kind": "dev",
    "author": "SettleMint Tokenization Services",
    "details": "It simplifies the deployment of `ATKSystem` by using a predefined set of default implementation addresses for the various modules (compliance, identity registry, etc.) that `ATKSystem` manages. This factory also supports meta-transactions through OpenZeppelin's `ERC2771Context`, allowing users to interact with it (e.g., to create a new `ATKSystem`) without paying for gas directly, provided a trusted forwarder is used. The factory keeps track of all `ATKSystem` instances it creates.",
    "methods": {
      "constructor": {
        "details": "This function is called only once when the factory contract is deployed. It initializes the immutable default implementation addresses for all core ATK modules and sets the trusted forwarder address. It performs crucial checks to ensure that none of the provided implementation addresses are the zero address, as these are essential for the proper functioning of the `ATKSystem` instances that will be created.",
        "params": {
          "addonRegistryImplementation_": "The default address for the addon registry module's logic contract.",
          "atkSystemImplementation_": "The address of the ATKSystem implementation contract.",
          "complianceImplementation_": "The default address for the compliance module's logic contract.",
          "complianceModuleRegistryImplementation_": "The default address for the compliance module registry module's logic contract.",
          "forwarder_": "The address of the trusted forwarder contract to be used for meta-transactions (ERC2771).",
          "identityFactoryImplementation_": "The default address for the identity factory module's logic contract.",
          "identityImplementation_": "The default address for the standard identity contract's logic (template).",
          "identityRegistryImplementation_": "The default address for the identity registry module's logic contract.",
          "identityRegistryStorageImplementation_": "The default address for the identity registry storage module's logic contract.",
          "identityVerificationModule_": "The default address for the identity verification module's logic contract.",
          "tokenAccessManagerImplementation_": "The default address for the token access manager contract's logic (template).",
          "tokenFactoryRegistryImplementation_": "The default address for the token factory registry module's logic contract.",
          "tokenIdentityImplementation_": "The default address for the token identity contract's logic (template).",
          "topicSchemeRegistryImplementation_": "The default address for the topic scheme registry module's logic contract.",
          "trustedIssuersRegistryImplementation_": "The default address for the trusted issuers registry module's logic contract."
        }
      },
      "createSystem()": {
        "details": "When this function is called, a new `ATKSystem` contract is created on the blockchain. The caller of this function (which is `_msgSender()`, resolving to the original user in an ERC2771 meta-transaction context) will be set as the initial administrator (granted `DEFAULT_ADMIN_ROLE`) of the newly created `ATKSystem`. The new system's address is added to the `atkSystems` array for tracking, and a `ATKSystemCreated` event is emitted.",
        "returns": {
          "systemAddress": "The blockchain address of the newly created `ATKSystem` contract."
        }
      },
      "getSystemAtIndex(uint256)": {
        "details": "This allows retrieval of addresses for previously deployed `ATKSystem` contracts. It will revert with an `IndexOutOfBounds` error if the provided `index` is greater than or equal to the current number of created systems (i.e., if `index >= atkSystems.length`). This is a view function.",
        "params": {
          "index": "The zero-based index of the desired `ATKSystem` in the `atkSystems` array."
        },
        "returns": {
          "_0": "address The blockchain address of the `ATKSystem` contract found at the given `index`."
        }
      },
      "getSystemCount()": {
        "details": "This is a view function, meaning it only reads blockchain state and does not cost gas to call (if called externally, not in a transaction).",
        "returns": {
          "_0": "uint256 The count of `ATKSystem` instances currently stored in the `atkSystems` array."
        }
      },
      "isTrustedForwarder(address)": {
        "details": "Indicates whether any particular address is the trusted forwarder."
      },
      "trustedForwarder()": {
        "details": "Returns the address of the trusted forwarder."
      }
    },
    "events": {
      "ATKSystemCreated(address,address)": {
        "params": {
          "sender": "The address that called the `createSystem` function.",
          "systemAddress": "The blockchain address of the newly deployed `ATKSystem` contract."
        }
      }
    },
    "errors": {
      "AddonRegistryImplementationNotSet()": [
        {
          "details": "This error is thrown if an operation requires the addon registry, but its logic contract address is zero or has not been configured in the `SMARTSystem`."
        }
      ],
      "ComplianceImplementationNotSet()": [
        {
          "details": "This error is thrown if an operation requires the compliance module, but its logic contract address is zero or has not been configured in the `SMARTSystem`."
        }
      ],
      "ComplianceModuleRegistryImplementationNotSet()": [
        {
          "details": "This error is thrown if an operation requires the compliance module registry, but its logic contract address is zero or has not been configured in the `SMARTSystem`."
        }
      ],
      "IdentityFactoryImplementationNotSet()": [
        {
          "details": "This error is thrown if an operation requires the identity factory, but its logic contract address is zero or has not been configured in the `SMARTSystem`."
        }
      ],
      "IdentityImplementationNotSet()": [
        {
          "details": "This error is thrown if an operation requires the standard identity implementation (the template for user identities), but its logic contract address is zero or has not been configured in the `SMARTSystem`."
        }
      ],
      "IdentityRegistryImplementationNotSet()": [
        {
          "details": "This error is thrown if an operation requires the identity registry, but its logic contract address is zero or has not been configured in the `SMARTSystem`."
        }
      ],
      "IdentityRegistryStorageImplementationNotSet()": [
        {
          "details": "This error is thrown if an operation requires the identity registry storage, but its logic contract address is zero or has not been configured in the `SMARTSystem`."
        }
      ],
      "IdentityVerificationModuleNotSet()": [
        {
          "details": "This error is thrown if an operation requires the identity verification module, but its logic contract address is zero or has not been configured in the `SMARTSystem`."
        }
      ],
      "IndexOutOfBounds(uint256,uint256)": [
        {
          "details": "For example, trying to access the 5th element in an array that only has 3 elements.",
          "params": {
            "index": "The invalid index that was attempted to be accessed.",
            "length": "The actual length or size of the array/list."
          }
        }
      ],
      "InvalidSystemImplementation()": [
        {
          "details": "This error is thrown if the ATKSystem implementation address is the zero address."
        }
      ],
      "TokenAccessManagerImplementationNotSet()": [
        {
          "details": "This error is thrown if an operation requires the token access manager implementation, but its logic contract address is zero or has not been configured in the `SMARTSystem`."
        }
      ],
      "TokenFactoryRegistryImplementationNotSet()": [
        {
          "details": "This error is thrown if an operation requires the token factory registry, but its logic contract address is zero or has not been configured in the `SMARTSystem`."
        }
      ],
      "TokenIdentityImplementationNotSet()": [
        {
          "details": "This error is thrown if an operation requires the token identity implementation (the template for token-specific identities), but its logic contract address is zero or has not been configured in the `SMARTSystem`."
        }
      ],
      "TopicSchemeRegistryImplementationNotSet()": [
        {
          "details": "This error is thrown if an operation requires the topic scheme registry, but its logic contract address is zero or has not been configured in the `SMARTSystem`."
        }
      ],
      "TrustedIssuersRegistryImplementationNotSet()": [
        {
          "details": "This error is thrown if an operation requires the trusted issuers registry, but its logic contract address is zero or has not been configured in the `SMARTSystem`."
        }
      ]
    },
    "title": "ATKSystemFactory"
  },
  "id": 135
}