{
  "abi": [
    {
      "type": "constructor",
      "inputs": [
        {
          "name": "trustedForwarder",
          "type": "address",
          "internalType": "address"
        }
      ],
      "stateMutability": "nonpayable"
    },
    {
      "type": "function",
      "name": "DEFAULT_ADMIN_ROLE",
      "inputs": [],
      "outputs": [
        {
          "name": "",
          "type": "bytes32",
          "internalType": "bytes32"
        }
      ],
      "stateMutability": "view"
    },
    {
      "type": "function",
      "name": "batchRegisterTopicSchemes",
      "inputs": [
        {
          "name": "names",
          "type": "string[]",
          "internalType": "string[]"
        },
        {
          "name": "signatures",
          "type": "string[]",
          "internalType": "string[]"
        }
      ],
      "outputs": [],
      "stateMutability": "nonpayable"
    },
    {
      "type": "function",
      "name": "getAllTopicIds",
      "inputs": [],
      "outputs": [
        {
          "name": "topicIds",
          "type": "uint256[]",
          "internalType": "uint256[]"
        }
      ],
      "stateMutability": "view"
    },
    {
      "type": "function",
      "name": "getRoleAdmin",
      "inputs": [
        {
          "name": "role",
          "type": "bytes32",
          "internalType": "bytes32"
        }
      ],
      "outputs": [
        {
          "name": "",
          "type": "bytes32",
          "internalType": "bytes32"
        }
      ],
      "stateMutability": "view"
    },
    {
      "type": "function",
      "name": "getTopicId",
      "inputs": [
        {
          "name": "name",
          "type": "string",
          "internalType": "string"
        }
      ],
      "outputs": [
        {
          "name": "topicId",
          "type": "uint256",
          "internalType": "uint256"
        }
      ],
      "stateMutability": "pure"
    },
    {
      "type": "function",
      "name": "getTopicSchemeCount",
      "inputs": [],
      "outputs": [
        {
          "name": "count",
          "type": "uint256",
          "internalType": "uint256"
        }
      ],
      "stateMutability": "view"
    },
    {
      "type": "function",
      "name": "getTopicSchemeSignature",
      "inputs": [
        {
          "name": "topicId",
          "type": "uint256",
          "internalType": "uint256"
        }
      ],
      "outputs": [
        {
          "name": "signature",
          "type": "string",
          "internalType": "string"
        }
      ],
      "stateMutability": "view"
    },
    {
      "type": "function",
      "name": "getTopicSchemeSignatureByName",
      "inputs": [
        {
          "name": "name",
          "type": "string",
          "internalType": "string"
        }
      ],
      "outputs": [
        {
          "name": "signature",
          "type": "string",
          "internalType": "string"
        }
      ],
      "stateMutability": "view"
    },
    {
      "type": "function",
      "name": "grantRole",
      "inputs": [
        {
          "name": "role",
          "type": "bytes32",
          "internalType": "bytes32"
        },
        {
          "name": "account",
          "type": "address",
          "internalType": "address"
        }
      ],
      "outputs": [],
      "stateMutability": "nonpayable"
    },
    {
      "type": "function",
      "name": "hasRole",
      "inputs": [
        {
          "name": "role",
          "type": "bytes32",
          "internalType": "bytes32"
        },
        {
          "name": "account",
          "type": "address",
          "internalType": "address"
        }
      ],
      "outputs": [
        {
          "name": "",
          "type": "bool",
          "internalType": "bool"
        }
      ],
      "stateMutability": "view"
    },
    {
      "type": "function",
      "name": "hasTopicScheme",
      "inputs": [
        {
          "name": "topicId",
          "type": "uint256",
          "internalType": "uint256"
        }
      ],
      "outputs": [
        {
          "name": "exists",
          "type": "bool",
          "internalType": "bool"
        }
      ],
      "stateMutability": "view"
    },
    {
      "type": "function",
      "name": "hasTopicSchemeByName",
      "inputs": [
        {
          "name": "name",
          "type": "string",
          "internalType": "string"
        }
      ],
      "outputs": [
        {
          "name": "exists",
          "type": "bool",
          "internalType": "bool"
        }
      ],
      "stateMutability": "view"
    },
    {
      "type": "function",
      "name": "initialize",
      "inputs": [
        {
          "name": "initialAdmin",
          "type": "address",
          "internalType": "address"
        },
        {
          "name": "initialRegistrars",
          "type": "address[]",
          "internalType": "address[]"
        }
      ],
      "outputs": [],
      "stateMutability": "nonpayable"
    },
    {
      "type": "function",
      "name": "isTrustedForwarder",
      "inputs": [
        {
          "name": "forwarder",
          "type": "address",
          "internalType": "address"
        }
      ],
      "outputs": [
        {
          "name": "",
          "type": "bool",
          "internalType": "bool"
        }
      ],
      "stateMutability": "view"
    },
    {
      "type": "function",
      "name": "registerTopicScheme",
      "inputs": [
        {
          "name": "name",
          "type": "string",
          "internalType": "string"
        },
        {
          "name": "signature",
          "type": "string",
          "internalType": "string"
        }
      ],
      "outputs": [],
      "stateMutability": "nonpayable"
    },
    {
      "type": "function",
      "name": "removeTopicScheme",
      "inputs": [
        {
          "name": "name",
          "type": "string",
          "internalType": "string"
        }
      ],
      "outputs": [],
      "stateMutability": "nonpayable"
    },
    {
      "type": "function",
      "name": "renounceRole",
      "inputs": [
        {
          "name": "role",
          "type": "bytes32",
          "internalType": "bytes32"
        },
        {
          "name": "callerConfirmation",
          "type": "address",
          "internalType": "address"
        }
      ],
      "outputs": [],
      "stateMutability": "nonpayable"
    },
    {
      "type": "function",
      "name": "revokeRole",
      "inputs": [
        {
          "name": "role",
          "type": "bytes32",
          "internalType": "bytes32"
        },
        {
          "name": "account",
          "type": "address",
          "internalType": "address"
        }
      ],
      "outputs": [],
      "stateMutability": "nonpayable"
    },
    {
      "type": "function",
      "name": "supportsInterface",
      "inputs": [
        {
          "name": "interfaceId",
          "type": "bytes4",
          "internalType": "bytes4"
        }
      ],
      "outputs": [
        {
          "name": "",
          "type": "bool",
          "internalType": "bool"
        }
      ],
      "stateMutability": "view"
    },
    {
      "type": "function",
      "name": "trustedForwarder",
      "inputs": [],
      "outputs": [
        {
          "name": "",
          "type": "address",
          "internalType": "address"
        }
      ],
      "stateMutability": "view"
    },
    {
      "type": "function",
      "name": "updateTopicScheme",
      "inputs": [
        {
          "name": "name",
          "type": "string",
          "internalType": "string"
        },
        {
          "name": "newSignature",
          "type": "string",
          "internalType": "string"
        }
      ],
      "outputs": [],
      "stateMutability": "nonpayable"
    },
    {
      "type": "event",
      "name": "Initialized",
      "inputs": [
        {
          "name": "version",
          "type": "uint64",
          "indexed": false,
          "internalType": "uint64"
        }
      ],
      "anonymous": false
    },
    {
      "type": "event",
      "name": "RoleAdminChanged",
      "inputs": [
        {
          "name": "role",
          "type": "bytes32",
          "indexed": true,
          "internalType": "bytes32"
        },
        {
          "name": "previousAdminRole",
          "type": "bytes32",
          "indexed": true,
          "internalType": "bytes32"
        },
        {
          "name": "newAdminRole",
          "type": "bytes32",
          "indexed": true,
          "internalType": "bytes32"
        }
      ],
      "anonymous": false
    },
    {
      "type": "event",
      "name": "RoleGranted",
      "inputs": [
        {
          "name": "role",
          "type": "bytes32",
          "indexed": true,
          "internalType": "bytes32"
        },
        {
          "name": "account",
          "type": "address",
          "indexed": true,
          "internalType": "address"
        },
        {
          "name": "sender",
          "type": "address",
          "indexed": true,
          "internalType": "address"
        }
      ],
      "anonymous": false
    },
    {
      "type": "event",
      "name": "RoleRevoked",
      "inputs": [
        {
          "name": "role",
          "type": "bytes32",
          "indexed": true,
          "internalType": "bytes32"
        },
        {
          "name": "account",
          "type": "address",
          "indexed": true,
          "internalType": "address"
        },
        {
          "name": "sender",
          "type": "address",
          "indexed": true,
          "internalType": "address"
        }
      ],
      "anonymous": false
    },
    {
      "type": "event",
      "name": "TopicSchemeRegistered",
      "inputs": [
        {
          "name": "sender",
          "type": "address",
          "indexed": true,
          "internalType": "address"
        },
        {
          "name": "topicId",
          "type": "uint256",
          "indexed": true,
          "internalType": "uint256"
        },
        {
          "name": "name",
          "type": "string",
          "indexed": false,
          "internalType": "string"
        },
        {
          "name": "signature",
          "type": "string",
          "indexed": false,
          "internalType": "string"
        }
      ],
      "anonymous": false
    },
    {
      "type": "event",
      "name": "TopicSchemeRemoved",
      "inputs": [
        {
          "name": "sender",
          "type": "address",
          "indexed": true,
          "internalType": "address"
        },
        {
          "name": "topicId",
          "type": "uint256",
          "indexed": true,
          "internalType": "uint256"
        },
        {
          "name": "name",
          "type": "string",
          "indexed": false,
          "internalType": "string"
        }
      ],
      "anonymous": false
    },
    {
      "type": "event",
      "name": "TopicSchemeUpdated",
      "inputs": [
        {
          "name": "sender",
          "type": "address",
          "indexed": true,
          "internalType": "address"
        },
        {
          "name": "topicId",
          "type": "uint256",
          "indexed": true,
          "internalType": "uint256"
        },
        {
          "name": "name",
          "type": "string",
          "indexed": false,
          "internalType": "string"
        },
        {
          "name": "oldSignature",
          "type": "string",
          "indexed": false,
          "internalType": "string"
        },
        {
          "name": "newSignature",
          "type": "string",
          "indexed": false,
          "internalType": "string"
        }
      ],
      "anonymous": false
    },
    {
      "type": "event",
      "name": "TopicSchemesBatchRegistered",
      "inputs": [
        {
          "name": "sender",
          "type": "address",
          "indexed": true,
          "internalType": "address"
        },
        {
          "name": "topicIds",
          "type": "uint256[]",
          "indexed": false,
          "internalType": "uint256[]"
        },
        {
          "name": "names",
          "type": "string[]",
          "indexed": false,
          "internalType": "string[]"
        },
        {
          "name": "signatures",
          "type": "string[]",
          "indexed": false,
          "internalType": "string[]"
        }
      ],
      "anonymous": false
    },
    {
      "type": "error",
      "name": "AccessControlBadConfirmation",
      "inputs": []
    },
    {
      "type": "error",
      "name": "AccessControlUnauthorizedAccount",
      "inputs": [
        {
          "name": "account",
          "type": "address",
          "internalType": "address"
        },
        {
          "name": "neededRole",
          "type": "bytes32",
          "internalType": "bytes32"
        }
      ]
    },
    {
      "type": "error",
      "name": "ArrayLengthMismatch",
      "inputs": [
        {
          "name": "namesLength",
          "type": "uint256",
          "internalType": "uint256"
        },
        {
          "name": "signaturesLength",
          "type": "uint256",
          "internalType": "uint256"
        }
      ]
    },
    {
      "type": "error",
      "name": "EmptyArraysProvided",
      "inputs": []
    },
    {
      "type": "error",
      "name": "EmptyName",
      "inputs": []
    },
    {
      "type": "error",
      "name": "EmptySignature",
      "inputs": []
    },
    {
      "type": "error",
      "name": "InvalidInitialization",
      "inputs": []
    },
    {
      "type": "error",
      "name": "NotInitializing",
      "inputs": []
    },
    {
      "type": "error",
      "name": "SignatureUnchanged",
      "inputs": [
        {
          "name": "name",
          "type": "string",
          "internalType": "string"
        },
        {
          "name": "signature",
          "type": "string",
          "internalType": "string"
        }
      ]
    },
    {
      "type": "error",
      "name": "TopicIdNotFoundInArray",
      "inputs": [
        {
          "name": "topicId",
          "type": "uint256",
          "internalType": "uint256"
        }
      ]
    },
    {
      "type": "error",
      "name": "TopicSchemeAlreadyExists",
      "inputs": [
        {
          "name": "name",
          "type": "string",
          "internalType": "string"
        }
      ]
    },
    {
      "type": "error",
      "name": "TopicSchemeDoesNotExist",
      "inputs": [
        {
          "name": "topicId",
          "type": "uint256",
          "internalType": "uint256"
        }
      ]
    },
    {
      "type": "error",
      "name": "TopicSchemeDoesNotExistByName",
      "inputs": [
        {
          "name": "name",
          "type": "string",
          "internalType": "string"
        }
      ]
    }
  ],
  "bytecode": {
    "object": "0x60a03461011057601f611d7e38819003918201601f19168301916001600160401b038311848410176101145780849260209460405283398101031261011057516001600160a01b0381168103610110576080525f516020611d5e5f395f51905f525460ff8160401c16610101576002600160401b03196001600160401b038216016100ab575b604051611c3590816101298239608051818181610c58015281816110d10152611b670152f35b6001600160401b0319166001600160401b039081175f516020611d5e5f395f51905f52556040519081527fc7f505b2f371ae2175ee4913f4499e1f2633a7b5936321eed1cdaeb6115181d290602090a15f610085565b63f92ee8a960e01b5f5260045ffd5b5f80fd5b634e487b7160e01b5f52604160045260245ffdfe6080806040526004361015610012575f80fd5b5f3560e01c90816301ffc9a71461126257508063138309b7146111ff578063172a0ddb146111e2578063248a9ca3146111a35780632f2ff15d1461115957806336568abe14611105578063572b6c05146110b157806358280e9814610d6a5780636aa085eb14610cb85780636cc45eca14610c875780637da0a87714610c4357806391d1485414610bee578063946d9204146109ef578063a217fddf146109d5578063bd2716b51461096c578063c4456bda146108e0578063c6f1bf231461068f578063d547741f1461063e578063dafb0ca314610402578063e7a3d72b1461038b5763f263b66314610103575f80fd5b34610387576101113661141a565b9161011d939193611781565b8015610378578215610369576040516020810190828483376101526020828581015f838201520301601f1981018352826113af565b51902093845f525f60205260ff600260405f200154161561034457845f525f602052610183600160405f20016116e3565b93845160208601206101963683856114f3565b602081519101201461032157855f525f602052600160405f20016001600160401b03821161030d576101d2826101cc8354611538565b83611586565b5f601f831160011461028257917fb8a96f0d94f26765140c549819b353cecb77b033cb6e3098b0ce28f5059787ba959493916102278280610272965f91610277575b508160011b915f199060031b1c19161790565b90555b6102646001600160a01b0361023d611b64565b16976102566040519788976060895260608901916114d3565b908682036020880152611370565b9184830360408601526114d3565b0390a3005b90508501355f610214565b601f19831690825f5260205f20915f5b8181106102f55750917fb8a96f0d94f26765140c549819b353cecb77b033cb6e3098b0ce28f5059787ba9796959391856102729694106102dc575b5050600182811b01905561022a565b8401355f19600385901b60f8161c191690555f806102cd565b9192602060018192868a013581550194019201610292565b634e487b7160e01b5f52604160045260245ffd5b60405163d38f72b360e01b815292839261034092918660048601611634565b0390fd5b5061034060405192839263b6549bc360e01b84526020600485015260248401916114d3565b63ac241e1160e01b5f5260045ffd5b632ef1310560e01b5f5260045ffd5b5f80fd5b34610387576020366003190112610387576004356001600160401b038111610387576103bb9036906004016112e7565b6103e2602060405183819483830196873781015f838201520301601f1981018352826113af565b5190205f525f602052602060ff600260405f200154166040519015158152f35b34610387576104103661141a565b929161041a611781565b80156103785783156103695760405160208101908285833761044f6020828581015f838201520301601f1981018352826113af565b51902092835f525f60205260ff600260405f20015416610619576040519461047686611394565b8486526104843682866114f3565b95602081019687526040810160018152865f525f60205260405f20915182556001820197519788516001600160401b03811161030d576104ce816104c88454611538565b84611586565b6020601f8211600114610588579261027295949261052c83600294610545977f09e70994ce281f8a63bb36732f8d2df907074776eee02f8af110938bc4e477a59d9e9f5f9261057d575b50508160011b915f199060031b1c19161790565b90555b51151591019060ff801983541691151516179055565b61054e876115e3565b6001545f888152600260205260409020556001600160a01b0361056f611b64565b169560405194859485611634565b015190508f80610518565b601f1982169a835f52815f209b5f5b8181106106015750837f09e70994ce281f8a63bb36732f8d2df907074776eee02f8af110938bc4e477a59b9c9d61054597946102729a999794600297600195106105e9575b505050811b01905561052f565b01515f1960f88460031b161c191690558e80806105dc565b838301518e556001909d019c60209384019301610597565b60405163510e797760e11b8152602060048201529182916103409160248401916114d3565b346103875760403660031901126103875761068d60043561065d611314565b90610688610683825f525f516020611be95f395f51905f52602052600160405f20015490565b61180f565b611abb565b005b34610387576020366003190112610387576004356001600160401b038111610387576106bf9036906004016112e7565b6106c7611781565b8015610378576040516020810190828483376106f66020828581015f838201520301601f1981018352826113af565b51902091825f525f60205260ff600260405f20015416156108bb57825f52600260205260405f205480156108a8575f198101818111610894576001545f19810190811161089457808203610849575b505050600154908115610835577f6ae52b3fe6d4919b329e8314788041384cae2d045707c2983ae594c7cad27cd3915f1901610780816115cb565b8154905f199060031b1b19169055600155835f5260026020525f6040812055835f525f6020525f600260408220828155600181016107be8154611538565b90816107f2575b505001556001600160a01b036107d9611b64565b16926102726040519283926020845260208401916114d3565b81601f8693116001146108095750555b87806107c5565b8183526020832061082591601f0160051c810190600101611570565b8082528160208120915555610802565b634e487b7160e01b5f52603160045260245ffd5b61086891610859610880926115cb565b90549060031b1c9283916115cb565b90919082549060031b91821b915f19901b1916179055565b5f52600260205260405f2055838080610745565b634e487b7160e01b5f52601160045260245ffd5b836322cd5b3360e11b5f5260045260245ffd5b60405163b6549bc360e01b8152602060048201529182916103409160248401916114d3565b34610387575f3660031901126103875760405180602060015491828152019060015f527fb10e2d527612073b26eecdfd717e6a320cf44b4afac2b0732d9fcbe2b7fa0cf6905f5b818110610956576109528561093e818703826113af565b6040519182916020835260208301906113e7565b0390f35b8254845260209093019260019283019201610927565b3461038757602036600319011261038757600435805f525f60205260ff600260405f20015416156109c3575f525f6020526109526109af600160405f20016116e3565b604051918291602083526020830190611370565b6310ebeb9b60e21b5f5260045260245ffd5b34610387575f3660031901126103875760206040515f8152f35b3461038757604036600319011261038757610a0861132a565b6024356001600160401b0381116103875736602382011215610387578060040135610a32816113d0565b91610a4060405193846113af565b8183526024602084019260051b8201019036821161038757602401915b818310610bce575050505f516020611c095f395f51905f525460ff8160401c1615926001600160401b03821680159081610bc6575b6001149081610bbc575b159081610bb3575b50610ba45767ffffffffffffffff1982166001175f516020611c095f395f51905f5255610ae79184610b78575b50610ada611bbd565b610ae2611bbd565b61186b565b508051905f5b828110610b525783610afb57005b68ff0000000000000000195f516020611c095f395f51905f5254165f516020611c095f395f51905f52557fc7f505b2f371ae2175ee4913f4499e1f2633a7b5936321eed1cdaeb6115181d2602060405160018152a1005b600190610b716001600160a01b03610b6a83866114bf565b511661192d565b5001610aed565b68ffffffffffffffffff191668010000000000000001175f516020611c095f395f51905f525584610ad1565b63f92ee8a960e01b5f5260045ffd5b90501585610aa4565b303b159150610a9c565b859150610a92565b82356001600160a01b038116810361038757815260209283019201610a5d565b3461038757604036600319011261038757610c07611314565b6004355f525f516020611be95f395f51905f5260205260405f209060018060a01b03165f52602052602060ff60405f2054166040519015158152f35b34610387575f366003190112610387576040517f00000000000000000000000000000000000000000000000000000000000000006001600160a01b03168152602090f35b34610387576020366003190112610387576004355f525f602052602060ff600260405f200154166040519015158152f35b34610387576020366003190112610387576004356001600160401b03811161038757610ce89036906004016112e7565b90604051602081019083838337610d126020828681015f838201520301601f1981018352826113af565b51902091825f525f60205260ff600260405f2001541615610d4657825f525f6020526109526109af600160405f20016116e3565b61034060405192839263b6549bc360e01b84526020600485015260248401916114d3565b34610387576040366003190112610387576004356001600160401b03811161038757610d9a903690600401611340565b6024356001600160401b03811161038757610db9903690600401611340565b90610dc2611781565b82156110a25781830361108b5760015491610ddc846113d0565b92610dea60405194856113af565b848452601f19610df9866113d0565b013660208601375f5b858110610e7f57857fcae12d0ba7b14d1ec9f693a507cb7e312550184c818ade2163b8ace4fed013dc610e5e87610e7a8888610e6c8e6001600160a01b03610e48611b64565b16986040519788976060895260608901906113e7565b91878303602089015261165e565b91848303604086015261165e565b0390a2005b610e8a81878961146a565b610e9883868895949561146a565b94821561037857851561036957604051602081019084878337610ece6020828781015f838201520301601f1981018352826113af565b5190209283610edd868c6114bf565b52835f525f60205260ff600260405f2001541661106557604051610f0081611394565b848152610f0e3689866114f3565b60208201908152604082019060018252865f525f60205260405f20925183556001830190518051906001600160401b03821161030d57610f5882610f528554611538565b85611586565b602090601f8311600114610ffb5782610f8f9695936002959361052c935f92610ff05750508160011b915f199060031b1c19161790565b610f98846115e3565b5f19821461089457600195610fe7877f09e70994ce281f8a63bb36732f8d2df907074776eee02f8af110938bc4e477a5940198865f5260026020528960405f2055888060a01b0361056f611b64565b0390a301610e02565b015190505f80610518565b90601f19831691845f52815f20925f5b81811061104d5750926001928592610f8f999896600298961061103557505050811b01905561052f565b01515f1960f88460031b161c191690555f80806105dc565b9293602060018192878601518155019501930161100b565b60405163510e797760e11b815260206004820152908190610340906024830190896114d3565b5090631f4bb7c160e31b5f5260045260245260445ffd5b63d213204160e01b5f5260045ffd5b346103875760203660031901126103875760206110cc61132a565b6040517f00000000000000000000000000000000000000000000000000000000000000006001600160a01b039081169216919091148152f35b346103875760403660031901126103875761111e611314565b6001600160a01b0361112e611b64565b166001600160a01b0382160361114a5761068d90600435611abb565b63334bd91960e11b5f5260045ffd5b346103875760403660031901126103875761068d600435611178611314565b9061119e610683825f525f516020611be95f395f51905f52602052600160405f20015490565b611a0a565b346103875760203660031901126103875760206111da6004355f525f516020611be95f395f51905f52602052600160405f20015490565b604051908152f35b34610387575f366003190112610387576020600154604051908152f35b34610387576020366003190112610387576004356001600160401b0381116103875761123160209136906004016112e7565b6112578360405183819483830196873781015f838201520301601f1981018352826113af565b519020604051908152f35b34610387576020366003190112610387576004359063ffffffff60e01b82168092036103875760209163251b648160e21b81149081156112d6575b81156112ab575b5015158152f35b637965db0b60e01b8114915081156112c5575b50836112a4565b6301ffc9a760e01b149050836112be565b631526bf3960e11b8114915061129d565b9181601f84011215610387578235916001600160401b038311610387576020838186019501011161038757565b602435906001600160a01b038216820361038757565b600435906001600160a01b038216820361038757565b9181601f84011215610387578235916001600160401b038311610387576020808501948460051b01011161038757565b805180835260209291819084018484015e5f828201840152601f01601f1916010190565b606081019081106001600160401b0382111761030d57604052565b90601f801991011681019081106001600160401b0382111761030d57604052565b6001600160401b03811161030d5760051b60200190565b90602080835192838152019201905f5b8181106114045750505090565b82518452602093840193909201916001016113f7565b6040600319820112610387576004356001600160401b0381116103875781611444916004016112e7565b92909291602435906001600160401b03821161038757611466916004016112e7565b9091565b91908110156114ab5760051b81013590601e19813603018212156103875701908135916001600160401b038311610387576020018236038113610387579190565b634e487b7160e01b5f52603260045260245ffd5b80518210156114ab5760209160051b010190565b908060209392818452848401375f828201840152601f01601f1916010190565b9291926001600160401b03821161030d576040519161151c601f8201601f1916602001846113af565b829481845281830111610387578281602093845f960137010152565b90600182811c92168015611566575b602083101461155257565b634e487b7160e01b5f52602260045260245ffd5b91607f1691611547565b81811061157b575050565b5f8155600101611570565b9190601f811161159557505050565b6115bf925f5260205f20906020601f840160051c830193106115c1575b601f0160051c0190611570565b565b90915081906115b2565b6001548110156114ab5760015f5260205f2001905f90565b600154906801000000000000000082101561030d57600182016001556001548210156114ab5760015f527fb10e2d527612073b26eecdfd717e6a320cf44b4afac2b0732d9fcbe2b7fa0cf690910155565b929061164d9061165b95936040865260408601916114d3565b9260208185039101526114d3565b90565b90602083828152019060208160051b85010193835f915b8383106116855750505050505090565b909192939495601f198282030186528635601e198436030181121561038757830190602082359201916001600160401b038111610387578036038313610387576116d560209283926001956114d3565b980196019493019190611675565b9060405191825f8254926116f684611538565b808452936001811690811561175f575060011461171b575b506115bf925003836113af565b90505f9291925260205f20905f915b8183106117435750509060206115bf928201015f61170e565b602091935080600191548385890101520191019091849261172a565b9050602092506115bf94915060ff191682840152151560051b8201015f61170e565b611789611b64565b6001600160a01b0381165f9081527f07966f2ab141347034724e9b2a472c2f77f5cd745aeba27cacba797b8fcb7086602052604090205460ff16156117cb5750565b63e2517d3f60e01b5f9081526001600160a01b03919091166004527fedcc084d3dcd65a1f7f23c65c46722faca6953d28e43150a467cf43e5c309238602452604490fd5b611817611b64565b815f525f516020611be95f395f51905f5260205260405f2060018060a01b0382165f5260205260ff60405f2054161561184e575050565b63e2517d3f60e01b5f5260018060a01b031660045260245260445ffd5b6001600160a01b0381165f9081527fb7db2dd08fcb62d0c9e08c51941cae53c267786a0b75803fb7960902fc8ef97d602052604090205460ff16611928576001600160a01b038181165f9081527fb7db2dd08fcb62d0c9e08c51941cae53c267786a0b75803fb7960902fc8ef97d60205260409020805460ff191660011790556118f3611b64565b16906001600160a01b03165f7f2f8788117e7eff1d82e926ec794901d17c78024a50270940304540a733656f0d8180a4600190565b505f90565b6001600160a01b0381165f9081527f07966f2ab141347034724e9b2a472c2f77f5cd745aeba27cacba797b8fcb7086602052604090205460ff16611928576001600160a01b038181165f9081527f07966f2ab141347034724e9b2a472c2f77f5cd745aeba27cacba797b8fcb708660205260409020805460ff191660011790556119b5611b64565b16906001600160a01b03167fedcc084d3dcd65a1f7f23c65c46722faca6953d28e43150a467cf43e5c3092387f2f8788117e7eff1d82e926ec794901d17c78024a50270940304540a733656f0d5f80a4600190565b5f8181525f516020611be95f395f51905f52602090815260408083206001600160a01b038616845290915290205460ff16611ab5575f8181525f516020611be95f395f51905f52602090815260408083206001600160a01b0386811685529252909120805460ff19166001179055611a80611b64565b16916001600160a01b0316907f2f8788117e7eff1d82e926ec794901d17c78024a50270940304540a733656f0d5f80a4600190565b50505f90565b5f8181525f516020611be95f395f51905f52602090815260408083206001600160a01b038616845290915290205460ff1615611ab5575f8181525f516020611be95f395f51905f52602090815260408083206001600160a01b0386811685529252909120805460ff19169055611b2f611b64565b16916001600160a01b0316907ff6391f5c32d9c69d2a47ea670b442974b53935d1edc7fd64eb21e047a839171b5f80a4600190565b337f00000000000000000000000000000000000000000000000000000000000000006001600160a01b03161480611bb2575b15611bae576013193601368111610894573560601c90565b3390565b506014361015611b96565b60ff5f516020611c095f395f51905f525460401c1615611bd957565b631afcd79f60e31b5f5260045ffdfe02dd7bc7dec4dceedda775e58dd541e08a116c6c53815c0bd028192f7b626800f0c57e16840df040f15088dc2f81fe391c3923bec73e23a9662efc9c229c6a00a164736f6c634300081c000af0c57e16840df040f15088dc2f81fe391c3923bec73e23a9662efc9c229c6a00",
    "linkReferences": {}
  },
  "methodIdentifiers": {
    "DEFAULT_ADMIN_ROLE()": "a217fddf",
    "batchRegisterTopicSchemes(string[],string[])": "58280e98",
    "getAllTopicIds()": "c4456bda",
    "getRoleAdmin(bytes32)": "248a9ca3",
    "getTopicId(string)": "138309b7",
    "getTopicSchemeCount()": "172a0ddb",
    "getTopicSchemeSignature(uint256)": "bd2716b5",
    "getTopicSchemeSignatureByName(string)": "6aa085eb",
    "grantRole(bytes32,address)": "2f2ff15d",
    "hasRole(bytes32,address)": "91d14854",
    "hasTopicScheme(uint256)": "6cc45eca",
    "hasTopicSchemeByName(string)": "e7a3d72b",
    "initialize(address,address[])": "946d9204",
    "isTrustedForwarder(address)": "572b6c05",
    "registerTopicScheme(string,string)": "dafb0ca3",
    "removeTopicScheme(string)": "c6f1bf23",
    "renounceRole(bytes32,address)": "36568abe",
    "revokeRole(bytes32,address)": "d547741f",
    "supportsInterface(bytes4)": "01ffc9a7",
    "trustedForwarder()": "7da0a877",
    "updateTopicScheme(string,string)": "f263b663"
  },
  "userdoc": {
    "version": 1,
    "kind": "user",
    "methods": {
      "batchRegisterTopicSchemes(string[],string[])": {
        "notice": "Registers multiple topic schemes in a single transaction"
      },
      "constructor": {
        "notice": "Constructor for the SMARTTopicSchemeRegistryImplementation"
      },
      "getAllTopicIds()": {
        "notice": "Gets all registered topic IDs"
      },
      "getTopicId(string)": {
        "notice": "Gets the topic ID for a given name"
      },
      "getTopicSchemeCount()": {
        "notice": "Gets the total number of registered topic schemes"
      },
      "getTopicSchemeSignature(uint256)": {
        "notice": "Gets the signature for a specific topic scheme by ID"
      },
      "getTopicSchemeSignatureByName(string)": {
        "notice": "Gets the signature for a specific topic scheme by name"
      },
      "hasTopicScheme(uint256)": {
        "notice": "Checks if a topic scheme exists by ID"
      },
      "hasTopicSchemeByName(string)": {
        "notice": "Checks if a topic scheme exists by name"
      },
      "initialize(address,address[])": {
        "notice": "Initializes the SMARTTopicSchemeRegistryImplementation contract"
      },
      "registerTopicScheme(string,string)": {
        "notice": "Registers a new topic scheme with its name and signature"
      },
      "removeTopicScheme(string)": {
        "notice": "Removes a topic scheme from the registry"
      },
      "supportsInterface(bytes4)": {
        "notice": "Returns true if this contract implements the interface defined by interfaceId"
      },
      "updateTopicScheme(string,string)": {
        "notice": "Updates an existing topic scheme's signature"
      }
    },
    "events": {
      "TopicSchemeRegistered(address,uint256,string,string)": {
        "notice": "Emitted when a new topic scheme is registered"
      },
      "TopicSchemeRemoved(address,uint256,string)": {
        "notice": "Emitted when a topic scheme is removed"
      },
      "TopicSchemeUpdated(address,uint256,string,string,string)": {
        "notice": "Emitted when a topic scheme is updated"
      },
      "TopicSchemesBatchRegistered(address,uint256[],string[],string[])": {
        "notice": "Emitted when multiple topic schemes are registered in batch"
      }
    },
    "errors": {
      "ArrayLengthMismatch(uint256,uint256)": [
        {
          "notice": "Error thrown when input arrays have mismatched lengths"
        }
      ],
      "EmptyArraysProvided()": [
        {
          "notice": "Error thrown when attempting batch operations with empty arrays"
        }
      ],
      "EmptyName()": [
        {
          "notice": "Error thrown when attempting to register a topic scheme with an empty name"
        }
      ],
      "EmptySignature()": [
        {
          "notice": "Error thrown when attempting to register a topic scheme with an empty signature"
        }
      ],
      "SignatureUnchanged(string,string)": [
        {
          "notice": "Error thrown when attempting to update a topic scheme with the same signature"
        }
      ],
      "TopicIdNotFoundInArray(uint256)": [
        {
          "notice": "Error thrown when a topic ID is not found in the enumeration array during removal"
        }
      ],
      "TopicSchemeAlreadyExists(string)": [
        {
          "notice": "Error thrown when attempting to register a topic scheme that already exists"
        }
      ],
      "TopicSchemeDoesNotExist(uint256)": [
        {
          "notice": "Error thrown when attempting to operate on a topic scheme that doesn't exist"
        }
      ],
      "TopicSchemeDoesNotExistByName(string)": [
        {
          "notice": "Error thrown when attempting to operate on a topic scheme that doesn't exist by name"
        }
      ]
    },
    "notice": "Implementation for managing topic schemes with their signatures for data encoding/decoding"
  },
  "devdoc": {
    "version": 1,
    "kind": "dev",
    "author": "SettleMint Tokenization Services",
    "details": "This contract manages the registration and lifecycle of topic schemes used for claim data structures",
    "methods": {
      "batchRegisterTopicSchemes(string[],string[])": {
        "details": "topicIds are generated from names using keccak256 hash",
        "params": {
          "names": "Array of human-readable names for the topic schemes",
          "signatures": "Array of signature strings used for encoding/decoding data"
        }
      },
      "constructor": {
        "details": "Initializes ERC2771Context with trusted forwarder and disables initializers for UUPS pattern",
        "params": {
          "trustedForwarder": "The address of the trusted forwarder for meta-transactions"
        }
      },
      "getAllTopicIds()": {
        "returns": {
          "topicIds": "Array of all registered topic scheme identifiers"
        }
      },
      "getRoleAdmin(bytes32)": {
        "details": "Returns the admin role that controls `role`. See {grantRole} and {revokeRole}. To change a role's admin, use {_setRoleAdmin}."
      },
      "getTopicId(string)": {
        "params": {
          "name": "The name of the topic scheme"
        },
        "returns": {
          "topicId": "The unique identifier generated from the name"
        }
      },
      "getTopicSchemeCount()": {
        "returns": {
          "count": "The number of registered topic schemes"
        }
      },
      "getTopicSchemeSignature(uint256)": {
        "params": {
          "topicId": "The unique identifier of the topic scheme"
        },
        "returns": {
          "signature": "The signature string for the topic scheme"
        }
      },
      "getTopicSchemeSignatureByName(string)": {
        "params": {
          "name": "The name of the topic scheme"
        },
        "returns": {
          "signature": "The signature string for the topic scheme"
        }
      },
      "grantRole(bytes32,address)": {
        "details": "Grants `role` to `account`. If `account` had not been already granted `role`, emits a {RoleGranted} event. Requirements: - the caller must have ``role``'s admin role. May emit a {RoleGranted} event."
      },
      "hasRole(bytes32,address)": {
        "details": "Returns `true` if `account` has been granted `role`."
      },
      "hasTopicScheme(uint256)": {
        "params": {
          "topicId": "The unique identifier to check"
        },
        "returns": {
          "exists": "True if the topic scheme is registered, false otherwise"
        }
      },
      "hasTopicSchemeByName(string)": {
        "params": {
          "name": "The name to check"
        },
        "returns": {
          "exists": "True if the topic scheme is registered, false otherwise"
        }
      },
      "initialize(address,address[])": {
        "details": "Sets up access control and grants initial roles to the admin",
        "params": {
          "initialAdmin": "The address that will receive admin and registrar roles",
          "initialRegistrars": "The addresses that will receive registrar roles"
        }
      },
      "isTrustedForwarder(address)": {
        "details": "Indicates whether any particular address is the trusted forwarder."
      },
      "registerTopicScheme(string,string)": {
        "details": "topicId is generated as uint256(keccak256(abi.encodePacked(name)))",
        "params": {
          "name": "The human-readable name for the topic scheme",
          "signature": "The signature string used for encoding/decoding data"
        }
      },
      "removeTopicScheme(string)": {
        "params": {
          "name": "The name of the topic scheme to remove"
        }
      },
      "renounceRole(bytes32,address)": {
        "details": "Revokes `role` from the calling account. Roles are often managed via {grantRole} and {revokeRole}: this function's purpose is to provide a mechanism for accounts to lose their privileges if they are compromised (such as when a trusted device is misplaced). If the calling account had been revoked `role`, emits a {RoleRevoked} event. Requirements: - the caller must be `callerConfirmation`. May emit a {RoleRevoked} event."
      },
      "revokeRole(bytes32,address)": {
        "details": "Revokes `role` from `account`. If `account` had been granted `role`, emits a {RoleRevoked} event. Requirements: - the caller must have ``role``'s admin role. May emit a {RoleRevoked} event."
      },
      "supportsInterface(bytes4)": {
        "details": "Supports ISMARTTopicSchemeRegistry and inherited interfaces",
        "params": {
          "interfaceId": "The interface identifier to check"
        },
        "returns": {
          "_0": "True if the interface is supported"
        }
      },
      "trustedForwarder()": {
        "details": "Returns the address of the trusted forwarder."
      },
      "updateTopicScheme(string,string)": {
        "params": {
          "name": "The name of the topic scheme to update",
          "newSignature": "The new signature string"
        }
      }
    },
    "events": {
      "Initialized(uint64)": {
        "details": "Triggered when the contract has been initialized or reinitialized."
      },
      "RoleAdminChanged(bytes32,bytes32,bytes32)": {
        "details": "Emitted when `newAdminRole` is set as ``role``'s admin role, replacing `previousAdminRole` `DEFAULT_ADMIN_ROLE` is the starting admin for all roles, despite {RoleAdminChanged} not being emitted to signal this."
      },
      "RoleGranted(bytes32,address,address)": {
        "details": "Emitted when `account` is granted `role`. `sender` is the account that originated the contract call. This account bears the admin role (for the granted role). Expected in cases where the role was granted using the internal {AccessControl-_grantRole}."
      },
      "RoleRevoked(bytes32,address,address)": {
        "details": "Emitted when `account` is revoked `role`. `sender` is the account that originated the contract call:   - if using `revokeRole`, it is the admin role bearer   - if using `renounceRole`, it is the role bearer (i.e. `account`)"
      },
      "TopicSchemeRegistered(address,uint256,string,string)": {
        "params": {
          "name": "The name of the registered topic scheme",
          "sender": "The address that registered the topic scheme",
          "signature": "The signature associated with the topic scheme",
          "topicId": "The unique identifier of the registered topic scheme"
        }
      },
      "TopicSchemeRemoved(address,uint256,string)": {
        "params": {
          "name": "The name of the removed topic scheme",
          "sender": "The address that removed the topic scheme",
          "topicId": "The unique identifier of the removed topic scheme"
        }
      },
      "TopicSchemeUpdated(address,uint256,string,string,string)": {
        "params": {
          "name": "The name of the updated topic scheme",
          "newSignature": "The new signature",
          "oldSignature": "The previous signature",
          "sender": "The address that updated the topic scheme",
          "topicId": "The unique identifier of the updated topic scheme"
        }
      },
      "TopicSchemesBatchRegistered(address,uint256[],string[],string[])": {
        "params": {
          "names": "The names of the registered topic schemes",
          "sender": "The address that registered the topic schemes",
          "signatures": "The signatures associated with the topic schemes",
          "topicIds": "The unique identifiers of the registered topic schemes"
        }
      }
    },
    "errors": {
      "AccessControlBadConfirmation()": [
        {
          "details": "The caller of a function is not the expected one. NOTE: Don't confuse with {AccessControlUnauthorizedAccount}."
        }
      ],
      "AccessControlUnauthorizedAccount(address,bytes32)": [
        {
          "details": "The `account` is missing a role."
        }
      ],
      "ArrayLengthMismatch(uint256,uint256)": [
        {
          "params": {
            "namesLength": "The length of the names array",
            "signaturesLength": "The length of the signatures array"
          }
        }
      ],
      "InvalidInitialization()": [
        {
          "details": "The contract is already initialized."
        }
      ],
      "NotInitializing()": [
        {
          "details": "The contract is not initializing."
        }
      ],
      "SignatureUnchanged(string,string)": [
        {
          "params": {
            "name": "The name of the topic scheme being updated",
            "signature": "The signature that is already set"
          }
        }
      ],
      "TopicIdNotFoundInArray(uint256)": [
        {
          "params": {
            "topicId": "The topic ID that was not found"
          }
        }
      ],
      "TopicSchemeAlreadyExists(string)": [
        {
          "params": {
            "name": "The name that already exists"
          }
        }
      ],
      "TopicSchemeDoesNotExist(uint256)": [
        {
          "params": {
            "topicId": "The topic ID that doesn't exist"
          }
        }
      ],
      "TopicSchemeDoesNotExistByName(string)": [
        {
          "params": {
            "name": "The name that doesn't exist"
          }
        }
      ]
    },
    "title": "ATK Topic Scheme Registry Implementation"
  },
  "id": 176
}