{
  "abi": [
    {
      "type": "constructor",
      "inputs": [
        {
          "name": "trustedForwarder",
          "type": "address",
          "internalType": "address"
        }
      ],
      "stateMutability": "nonpayable"
    },
    {
      "type": "function",
      "name": "DEFAULT_ADMIN_ROLE",
      "inputs": [],
      "outputs": [
        {
          "name": "",
          "type": "bytes32",
          "internalType": "bytes32"
        }
      ],
      "stateMutability": "view"
    },
    {
      "type": "function",
      "name": "getRoleAdmin",
      "inputs": [
        {
          "name": "role",
          "type": "bytes32",
          "internalType": "bytes32"
        }
      ],
      "outputs": [
        {
          "name": "",
          "type": "bytes32",
          "internalType": "bytes32"
        }
      ],
      "stateMutability": "view"
    },
    {
      "type": "function",
      "name": "grantRole",
      "inputs": [
        {
          "name": "role",
          "type": "bytes32",
          "internalType": "bytes32"
        },
        {
          "name": "account",
          "type": "address",
          "internalType": "address"
        }
      ],
      "outputs": [],
      "stateMutability": "nonpayable"
    },
    {
      "type": "function",
      "name": "hasRole",
      "inputs": [
        {
          "name": "role",
          "type": "bytes32",
          "internalType": "bytes32"
        },
        {
          "name": "account",
          "type": "address",
          "internalType": "address"
        }
      ],
      "outputs": [
        {
          "name": "",
          "type": "bool",
          "internalType": "bool"
        }
      ],
      "stateMutability": "view"
    },
    {
      "type": "function",
      "name": "implementation",
      "inputs": [
        {
          "name": "factoryTypeHash",
          "type": "bytes32",
          "internalType": "bytes32"
        }
      ],
      "outputs": [
        {
          "name": "",
          "type": "address",
          "internalType": "address"
        }
      ],
      "stateMutability": "view"
    },
    {
      "type": "function",
      "name": "initialize",
      "inputs": [
        {
          "name": "initialAdmin",
          "type": "address",
          "internalType": "address"
        },
        {
          "name": "systemAddress",
          "type": "address",
          "internalType": "address"
        }
      ],
      "outputs": [],
      "stateMutability": "nonpayable"
    },
    {
      "type": "function",
      "name": "isTrustedForwarder",
      "inputs": [
        {
          "name": "forwarder",
          "type": "address",
          "internalType": "address"
        }
      ],
      "outputs": [
        {
          "name": "",
          "type": "bool",
          "internalType": "bool"
        }
      ],
      "stateMutability": "view"
    },
    {
      "type": "function",
      "name": "registerTokenFactory",
      "inputs": [
        {
          "name": "_name",
          "type": "string",
          "internalType": "string"
        },
        {
          "name": "_factoryImplementation",
          "type": "address",
          "internalType": "address"
        },
        {
          "name": "_tokenImplementation",
          "type": "address",
          "internalType": "address"
        }
      ],
      "outputs": [
        {
          "name": "",
          "type": "address",
          "internalType": "address"
        }
      ],
      "stateMutability": "nonpayable"
    },
    {
      "type": "function",
      "name": "renounceRole",
      "inputs": [
        {
          "name": "role",
          "type": "bytes32",
          "internalType": "bytes32"
        },
        {
          "name": "callerConfirmation",
          "type": "address",
          "internalType": "address"
        }
      ],
      "outputs": [],
      "stateMutability": "nonpayable"
    },
    {
      "type": "function",
      "name": "revokeRole",
      "inputs": [
        {
          "name": "role",
          "type": "bytes32",
          "internalType": "bytes32"
        },
        {
          "name": "account",
          "type": "address",
          "internalType": "address"
        }
      ],
      "outputs": [],
      "stateMutability": "nonpayable"
    },
    {
      "type": "function",
      "name": "setTokenFactoryImplementation",
      "inputs": [
        {
          "name": "factoryTypeHash",
          "type": "bytes32",
          "internalType": "bytes32"
        },
        {
          "name": "implementation_",
          "type": "address",
          "internalType": "address"
        }
      ],
      "outputs": [],
      "stateMutability": "nonpayable"
    },
    {
      "type": "function",
      "name": "supportsInterface",
      "inputs": [
        {
          "name": "interfaceId",
          "type": "bytes4",
          "internalType": "bytes4"
        }
      ],
      "outputs": [
        {
          "name": "",
          "type": "bool",
          "internalType": "bool"
        }
      ],
      "stateMutability": "view"
    },
    {
      "type": "function",
      "name": "tokenFactory",
      "inputs": [
        {
          "name": "factoryTypeHash",
          "type": "bytes32",
          "internalType": "bytes32"
        }
      ],
      "outputs": [
        {
          "name": "",
          "type": "address",
          "internalType": "address"
        }
      ],
      "stateMutability": "view"
    },
    {
      "type": "function",
      "name": "trustedForwarder",
      "inputs": [],
      "outputs": [
        {
          "name": "",
          "type": "address",
          "internalType": "address"
        }
      ],
      "stateMutability": "view"
    },
    {
      "type": "event",
      "name": "Initialized",
      "inputs": [
        {
          "name": "version",
          "type": "uint64",
          "indexed": false,
          "internalType": "uint64"
        }
      ],
      "anonymous": false
    },
    {
      "type": "event",
      "name": "RoleAdminChanged",
      "inputs": [
        {
          "name": "role",
          "type": "bytes32",
          "indexed": true,
          "internalType": "bytes32"
        },
        {
          "name": "previousAdminRole",
          "type": "bytes32",
          "indexed": true,
          "internalType": "bytes32"
        },
        {
          "name": "newAdminRole",
          "type": "bytes32",
          "indexed": true,
          "internalType": "bytes32"
        }
      ],
      "anonymous": false
    },
    {
      "type": "event",
      "name": "RoleGranted",
      "inputs": [
        {
          "name": "role",
          "type": "bytes32",
          "indexed": true,
          "internalType": "bytes32"
        },
        {
          "name": "account",
          "type": "address",
          "indexed": true,
          "internalType": "address"
        },
        {
          "name": "sender",
          "type": "address",
          "indexed": true,
          "internalType": "address"
        }
      ],
      "anonymous": false
    },
    {
      "type": "event",
      "name": "RoleRevoked",
      "inputs": [
        {
          "name": "role",
          "type": "bytes32",
          "indexed": true,
          "internalType": "bytes32"
        },
        {
          "name": "account",
          "type": "address",
          "indexed": true,
          "internalType": "address"
        },
        {
          "name": "sender",
          "type": "address",
          "indexed": true,
          "internalType": "address"
        }
      ],
      "anonymous": false
    },
    {
      "type": "event",
      "name": "TokenFactoryImplementationUpdated",
      "inputs": [
        {
          "name": "sender",
          "type": "address",
          "indexed": true,
          "internalType": "address"
        },
        {
          "name": "factoryTypeHash",
          "type": "bytes32",
          "indexed": true,
          "internalType": "bytes32"
        },
        {
          "name": "newImplementation",
          "type": "address",
          "indexed": true,
          "internalType": "address"
        }
      ],
      "anonymous": false
    },
    {
      "type": "event",
      "name": "TokenFactoryRegistered",
      "inputs": [
        {
          "name": "sender",
          "type": "address",
          "indexed": true,
          "internalType": "address"
        },
        {
          "name": "name",
          "type": "string",
          "indexed": false,
          "internalType": "string"
        },
        {
          "name": "typeId",
          "type": "bytes32",
          "indexed": false,
          "internalType": "bytes32"
        },
        {
          "name": "proxyAddress",
          "type": "address",
          "indexed": false,
          "internalType": "address"
        },
        {
          "name": "implementationAddress",
          "type": "address",
          "indexed": false,
          "internalType": "address"
        },
        {
          "name": "timestamp",
          "type": "uint256",
          "indexed": false,
          "internalType": "uint256"
        }
      ],
      "anonymous": false
    },
    {
      "type": "error",
      "name": "AccessControlBadConfirmation",
      "inputs": []
    },
    {
      "type": "error",
      "name": "AccessControlUnauthorizedAccount",
      "inputs": [
        {
          "name": "account",
          "type": "address",
          "internalType": "address"
        },
        {
          "name": "neededRole",
          "type": "bytes32",
          "internalType": "bytes32"
        }
      ]
    },
    {
      "type": "error",
      "name": "InvalidImplementationInterface",
      "inputs": [
        {
          "name": "implAddress",
          "type": "address",
          "internalType": "address"
        },
        {
          "name": "interfaceId",
          "type": "bytes4",
          "internalType": "bytes4"
        }
      ]
    },
    {
      "type": "error",
      "name": "InvalidInitialization",
      "inputs": []
    },
    {
      "type": "error",
      "name": "InvalidTokenFactoryAddress",
      "inputs": []
    },
    {
      "type": "error",
      "name": "InvalidTokenImplementationAddress",
      "inputs": []
    },
    {
      "type": "error",
      "name": "InvalidTokenImplementationInterface",
      "inputs": []
    },
    {
      "type": "error",
      "name": "NotInitializing",
      "inputs": []
    },
    {
      "type": "error",
      "name": "ReentrancyGuardReentrantCall",
      "inputs": []
    },
    {
      "type": "error",
      "name": "TokenFactoryTypeAlreadyRegistered",
      "inputs": [
        {
          "name": "typeName",
          "type": "string",
          "internalType": "string"
        }
      ]
    }
  ],
  "bytecode": {
    "object": "0x60a03461011057601f61177438819003918201601f19168301916001600160401b038311848410176101145780849260209460405283398101031261011057516001600160a01b0381168103610110576080525f5160206117545f395f51905f525460ff8160401c16610101576002600160401b03196001600160401b038216016100ab575b60405161162b90816101298239608051818181610287015281816108d101526110540152f35b6001600160401b0319166001600160401b039081175f5160206117545f395f51905f52556040519081527fc7f505b2f371ae2175ee4913f4499e1f2633a7b5936321eed1cdaeb6115181d290602090a15f610085565b63f92ee8a960e01b5f5260045ffd5b5f80fd5b634e487b7160e01b5f52604160045260245ffdfe6080806040526004361015610012575f80fd5b5f905f3560e01c90816301ffc9a714610ba357508063248a9ca314610b645780632f2ff15d14610b1a57806336568abe14610ac4578063485cc9551461093757806353c41dea14610905578063572b6c05146108b157806358e5e36f146102b65780637da0a8771461027157806380f1d105146101b357806391d148541461015d5780639c1e81d91461012a578063a217fddf1461010e5763d547741f146100b8575f80fd5b3461010b57604036600319011261010b576101076004356100d7610c26565b906101026100fd825f525f5160206115bf5f395f51905f52602052600160405f20015490565b610d33565b610f02565b5080f35b80fd5b503461010b578060031936011261010b57602090604051908152f35b503461010b57602036600319011261010b57602090600435815260028252604060018060a01b0391205416604051908152f35b503461010b57604036600319011261010b576040610179610c26565b9160043581525f5160206115bf5f395f51905f52602052209060018060a01b03165f52602052602060ff60405f2054166040519015158152f35b503461010b57604036600319011261010b576004356101d0610c26565b906101d9610ccb565b6001600160a01b03821691821561026257818452600160205260408420546001600160a01b0316156102625761020e90610fab565b80835260016020526040832080546001600160a01b031916831790556001600160a01b0361023a611051565b167fde9e63ca80621726b8d1a98af923cbf0de3f21a308f9cb973d3d0c2e32dd7a2c8480a480f35b63fd360a1d60e01b8452600484fd5b503461010b578060031936011261010b576040517f00000000000000000000000000000000000000000000000000000000000000006001600160a01b03168152602090f35b50346107c75760603660031901126107c7576004359067ffffffffffffffff82116107c757366023830112156107c75781600401359067ffffffffffffffff82116107c757602483019260248336920101116107c757610314610c26565b6044356001600160a01b0381169391908490036107c75760025f5160206115df5f395f51905f5254146108a25760025f5160206115df5f395f51905f525561035a610ccb565b6001600160a01b0381169081156108935761037490610fab565b831561088457604051634ca843ef60e11b815260048101859052602081602481855afa9081156107bc575f91610855575b5015610846576040516020810190838783376103d46020828681015f838201520301601f198101835282610c52565b5190205f818152600160205260409020549094906001600160a01b031661081f575f85815260016020526040812080546001600160a01b03191684179055546001600160a01b031690610425611051565b60405163c8b5d91160e01b815290602082600481875afa9182156107bc575f926107fe575b50604051637c643b2f60e11b60208201908152602482019590955260448101939093526001600160a01b03908116606484015216608480830191909152815261049460a482610c52565b604051916104d5908184019084821067ffffffffffffffff8311176107ea5760809385936110ea8539308352896020840152606060408401525180918160608501528584015e5f848284010152601f8019910116010301905ff080156107bc575f94855260026020908152604080872080546001600160a01b0319166001600160a01b03948516908117909155965490516372f861a960e11b81529283916004918391165afa9081156107bc575f916107cb575b506001600160a01b0316803b156107c7575f8091604460405180948193632f2ff15d60e01b83527f7c42e8dffc95f75177e883ddc14f7ed7caa053d3f0d4e84d6b7f0b0033223dcb60048401528a60248401525af180156107bc576107a7575b508254604051636290865d60e01b815290602090829060049082906001600160a01b03165afa908115610769578491610778575b506001600160a01b0316803b1561077457838091604460405180948193632f2ff15d60e01b83527feaeeb45c1b9029a6e392e1e7aa6f4af6bd8111f85c32809598bc9903a16227a360048401528a60248401525af1801561076957908491610750575b5050610649611051565b90604051638f940f6360e01b8152602081600481855afa9485156107445780956106ed575b505091602095917f0f97c56acb4c95938c37df75b868fcfab06098c723c00f803142ec3588c9007e936106ae60405194859460a0865260a0860191610c8c565b838901969096526040830187905260608301524260808301526001600160a01b0316930390a260015f5160206115df5f395f51905f5255604051908152f35b909194506020823d60201161073c575b8161070a60209383610c52565b8101031261010b57505192817f0f97c56acb4c95938c37df75b868fcfab06098c723c00f803142ec3588c9007e61066e565b3d91506106fd565b604051903d90823e3d90fd5b8161075a91610c52565b61076557825f61063f565b8280fd5b6040513d86823e3d90fd5b8380fd5b61079a915060203d6020116107a0575b6107928183610c52565b810190610cac565b5f6105dc565b503d610788565b6107b49193505f90610c52565b5f915f6105a8565b6040513d5f823e3d90fd5b5f80fd5b6107e4915060203d6020116107a0576107928183610c52565b5f610548565b634e487b7160e01b5f52604160045260245ffd5b61081891925060203d6020116107a0576107928183610c52565b905f61044a565b604051637a65e7c360e01b8152602060048201528061084260248201868a610c8c565b0390fd5b634da1d31f60e01b5f5260045ffd5b610877915060203d60201161087d575b61086f8183610c52565b810190610c74565b5f6103a5565b503d610865565b6320a86f3d60e11b5f5260045ffd5b63fd360a1d60e01b5f5260045ffd5b633ee5aeb560e01b5f5260045ffd5b346107c75760203660031901126107c75760206108cc610c3c565b6040517f00000000000000000000000000000000000000000000000000000000000000006001600160a01b039081169216919091148152f35b346107c75760203660031901126107c7576004355f526001602052602060018060a01b0360405f205416604051908152f35b346107c75760403660031901126107c757610950610c3c565b610958610c26565b5f5160206115ff5f395f51905f525460ff8160401c16159267ffffffffffffffff821680159081610abc575b6001149081610ab2575b159081610aa9575b50610a9a5767ffffffffffffffff1982166001175f5160206115ff5f395f51905f52556109f29184610a6e575b506109cc6110be565b6109d46110be565b6109dc6110be565b60015f5160206115df5f395f51905f5255610d8f565b5060018060a01b03166bffffffffffffffffffffffff60a01b5f5416175f55610a1757005b68ff0000000000000000195f5160206115ff5f395f51905f5254165f5160206115ff5f395f51905f52557fc7f505b2f371ae2175ee4913f4499e1f2633a7b5936321eed1cdaeb6115181d2602060405160018152a1005b68ffffffffffffffffff191668010000000000000001175f5160206115ff5f395f51905f5255846109c3565b63f92ee8a960e01b5f5260045ffd5b90501585610996565b303b15915061098e565b859150610984565b346107c75760403660031901126107c757610add610c26565b6001600160a01b03610aed611051565b166001600160a01b03821603610b0b57610b0990600435610f02565b005b63334bd91960e11b5f5260045ffd5b346107c75760403660031901126107c757610b09600435610b39610c26565b90610b5f6100fd825f525f5160206115bf5f395f51905f52602052600160405f20015490565b610e51565b346107c75760203660031901126107c7576020610b9b6004355f525f5160206115bf5f395f51905f52602052600160405f20015490565b604051908152f35b346107c75760203660031901126107c7576004359063ffffffff60e01b82168092036107c757602091637965db0b60e01b8114908115610c15575b8115610c04575b8115610bf3575b5015158152f35b6329e20ef560e11b14905083610bec565b63062b3d7360e11b81149150610be5565b6301ffc9a760e01b81149150610bde565b602435906001600160a01b03821682036107c757565b600435906001600160a01b03821682036107c757565b90601f8019910116810190811067ffffffffffffffff8211176107ea57604052565b908160209103126107c7575180151581036107c75790565b908060209392818452848401375f828201840152601f01601f1916010190565b908160209103126107c757516001600160a01b03811681036107c75790565b610cd3611051565b6001600160a01b0381165f9081527fb7db2dd08fcb62d0c9e08c51941cae53c267786a0b75803fb7960902fc8ef97d602052604090205460ff1615610d155750565b63e2517d3f60e01b5f5260018060a01b03166004525f60245260445ffd5b610d3b611051565b815f525f5160206115bf5f395f51905f5260205260405f2060018060a01b0382165f5260205260ff60405f20541615610d72575050565b63e2517d3f60e01b5f5260018060a01b031660045260245260445ffd5b6001600160a01b0381165f9081527fb7db2dd08fcb62d0c9e08c51941cae53c267786a0b75803fb7960902fc8ef97d602052604090205460ff16610e4c576001600160a01b038181165f9081527fb7db2dd08fcb62d0c9e08c51941cae53c267786a0b75803fb7960902fc8ef97d60205260409020805460ff19166001179055610e17611051565b16906001600160a01b03165f7f2f8788117e7eff1d82e926ec794901d17c78024a50270940304540a733656f0d8180a4600190565b505f90565b5f8181525f5160206115bf5f395f51905f52602090815260408083206001600160a01b038616845290915290205460ff16610efc575f8181525f5160206115bf5f395f51905f52602090815260408083206001600160a01b0386811685529252909120805460ff19166001179055610ec7611051565b16916001600160a01b0316907f2f8788117e7eff1d82e926ec794901d17c78024a50270940304540a733656f0d5f80a4600190565b50505f90565b5f8181525f5160206115bf5f395f51905f52602090815260408083206001600160a01b038616845290915290205460ff1615610efc575f8181525f5160206115bf5f395f51905f52602090815260408083206001600160a01b0386811685529252909120805460ff19169055610f76611051565b16916001600160a01b0316907ff6391f5c32d9c69d2a47ea670b442974b53935d1edc7fd64eb21e047a839171b5f80a4600190565b6001600160a01b0316801561104e576040516301ffc9a760e01b8152634ea2ccdd60e01b6004820152602081602481855afa5f918161102d575b5061100857506327224edf60e01b5f52600452634ea2ccdd60e01b60245260445ffd5b156110105750565b6327224edf60e01b5f52600452634ea2ccdd60e01b60245260445ffd5b61104791925060203d60201161087d5761086f8183610c52565b905f610fe5565b50565b337f00000000000000000000000000000000000000000000000000000000000000006001600160a01b031614806110b3575b156110af57601319360136811161109b573560601c90565b634e487b7160e01b5f52601160045260245ffd5b3390565b506014361015611083565b60ff5f5160206115ff5f395f51905f525460401c16156110da57565b631afcd79f60e31b5f5260045ffdfe6080604052346100a4576104d5803803809161001a826100bc565b60803960608160800191126100a45761003161010a565b60a05160c05192916001600160401b0384116100a45782609f850112156100a457836080015161006081610120565b9361006e60405195866100e7565b81855260a082870101116100a4576020815f9260a061009598018388015e8501015261015e565b604051610147908161034e8239f35b5f80fd5b634e487b7160e01b5f52604160045260245ffd5b6080601f91909101601f19168101906001600160401b038211908210176100e257604052565b6100a8565b601f909101601f19168101906001600160401b038211908210176100e257604052565b608051906001600160a01b03821682036100a457565b6001600160401b0381116100e257601f01601f191660200190565b908160209103126100a4575180151581036100a45790565b6040513d5f823e3d90fd5b9091906001600160a01b03811680159081156101dc575b506101cd575f5160206104b55f395f51905f5280546001600160a01b0319166001600160a01b039092169190911790556101cb916101be905f5160206104955f395f51905f5255565b6101c661024e565b6102e0565b565b637bfd2e8360e01b5f5260045ffd5b6040516301ffc9a760e01b81526329e20ef560e11b60048201529150602090829060249082905afa908115610249575f9161021a575b50155f610175565b61023c915060203d602011610242575b61023481836100e7565b81019061013b565b5f610212565b503d61022a565b610153565b60018060a01b035f5160206104b55f395f51905f52541660205f5160206104955f395f51905f52546024604051809481936329e20ef560e11b835260048301525afa908115610249575f916102a1575090565b90506020813d6020116102d8575b816102bc602093836100e7565b810103126100a457516001600160a01b03811681036100a45790565b3d91506102af565b6001600160a01b0381161561033e57815f929160208493519201905af43d15610336573d9061030e82610120565b9161031c60405193846100e7565b82523d5f602084013e5b1561032e5750565b602081519101fd5b606090610326565b63ee0a129760e01b5f5260045ffdfe608060405236156100b1576020608060248160018060a01b037fa31119ed2f30cf540b9f48eb7e1890285b3a2287937a099a1e0f359fc5ce172b54167f2a94c78684c8756e2c9669f50cc2acf3b762274c5f6f55e8495bba510078ce48546329e20ef560e11b83526084525afa80156100a6575f901561011d575060203d60201161009f575b8061009261009a926100c0565b6080016100f7565b61011d565b503d610085565b6040513d5f823e3d90fd5b635d82995b60e01b5f5260045ffd5b601f80199101166080016080811067ffffffffffffffff8211176100e357604052565b634e487b7160e01b5f52604160045260245ffd5b602090607f190112610119576080516001600160a01b03811681036101195790565b5f80fd5b5f8091368280378136915af43d5f803e15610136573d5ff35b3d5ffdfea164736f6c634300081c000a2a94c78684c8756e2c9669f50cc2acf3b762274c5f6f55e8495bba510078ce48a31119ed2f30cf540b9f48eb7e1890285b3a2287937a099a1e0f359fc5ce172b02dd7bc7dec4dceedda775e58dd541e08a116c6c53815c0bd028192f7b6268009b779b17422d0df92223018b32b4d1fa46e071723d6817e2486d003becc55f00f0c57e16840df040f15088dc2f81fe391c3923bec73e23a9662efc9c229c6a00a164736f6c634300081c000af0c57e16840df040f15088dc2f81fe391c3923bec73e23a9662efc9c229c6a00",
    "linkReferences": {}
  },
  "methodIdentifiers": {
    "DEFAULT_ADMIN_ROLE()": "a217fddf",
    "getRoleAdmin(bytes32)": "248a9ca3",
    "grantRole(bytes32,address)": "2f2ff15d",
    "hasRole(bytes32,address)": "91d14854",
    "implementation(bytes32)": "53c41dea",
    "initialize(address,address)": "485cc955",
    "isTrustedForwarder(address)": "572b6c05",
    "registerTokenFactory(string,address,address)": "58e5e36f",
    "renounceRole(bytes32,address)": "36568abe",
    "revokeRole(bytes32,address)": "d547741f",
    "setTokenFactoryImplementation(bytes32,address)": "80f1d105",
    "supportsInterface(bytes4)": "01ffc9a7",
    "tokenFactory(bytes32)": "9c1e81d9",
    "trustedForwarder()": "7da0a877"
  },
  "userdoc": {
    "version": 1,
    "kind": "user",
    "errors": {
      "InvalidImplementationInterface(address,bytes4)": [
        {
          "notice": "Error indicating that a provided implementation address does not support a required interface."
        }
      ],
      "InvalidTokenFactoryAddress()": [
        {
          "notice": "Error indicating that an invalid token factory address was provided."
        }
      ],
      "InvalidTokenImplementationAddress()": [
        {
          "notice": "Error indicating that an invalid token implementation address was provided."
        }
      ],
      "InvalidTokenImplementationInterface()": [
        {
          "notice": "Error indicating that an invalid token implementation interface was provided."
        }
      ],
      "TokenFactoryTypeAlreadyRegistered(string)": [
        {
          "notice": "Error indicating that a token factory type hash has already been registered."
        }
      ]
    }
  },
  "devdoc": {
    "version": 1,
    "kind": "dev",
    "methods": {
      "constructor": {},
      "getRoleAdmin(bytes32)": {
        "details": "Returns the admin role that controls `role`. See {grantRole} and {revokeRole}. To change a role's admin, use {_setRoleAdmin}."
      },
      "grantRole(bytes32,address)": {
        "details": "Grants `role` to `account`. If `account` had not been already granted `role`, emits a {RoleGranted} event. Requirements: - the caller must have ``role``'s admin role. May emit a {RoleGranted} event."
      },
      "hasRole(bytes32,address)": {
        "details": "Returns `true` if `account` has been granted `role`."
      },
      "isTrustedForwarder(address)": {
        "details": "Indicates whether any particular address is the trusted forwarder."
      },
      "renounceRole(bytes32,address)": {
        "details": "Revokes `role` from the calling account. Roles are often managed via {grantRole} and {revokeRole}: this function's purpose is to provide a mechanism for accounts to lose their privileges if they are compromised (such as when a trusted device is misplaced). If the calling account had been revoked `role`, emits a {RoleRevoked} event. Requirements: - the caller must be `callerConfirmation`. May emit a {RoleRevoked} event."
      },
      "revokeRole(bytes32,address)": {
        "details": "Revokes `role` from `account`. If `account` had been granted `role`, emits a {RoleRevoked} event. Requirements: - the caller must have ``role``'s admin role. May emit a {RoleRevoked} event."
      },
      "trustedForwarder()": {
        "details": "Returns the address of the trusted forwarder."
      }
    },
    "events": {
      "Initialized(uint64)": {
        "details": "Triggered when the contract has been initialized or reinitialized."
      },
      "RoleAdminChanged(bytes32,bytes32,bytes32)": {
        "details": "Emitted when `newAdminRole` is set as ``role``'s admin role, replacing `previousAdminRole` `DEFAULT_ADMIN_ROLE` is the starting admin for all roles, despite {RoleAdminChanged} not being emitted to signal this."
      },
      "RoleGranted(bytes32,address,address)": {
        "details": "Emitted when `account` is granted `role`. `sender` is the account that originated the contract call. This account bears the admin role (for the granted role). Expected in cases where the role was granted using the internal {AccessControl-_grantRole}."
      },
      "RoleRevoked(bytes32,address,address)": {
        "details": "Emitted when `account` is revoked `role`. `sender` is the account that originated the contract call:   - if using `revokeRole`, it is the admin role bearer   - if using `renounceRole`, it is the role bearer (i.e. `account`)"
      }
    },
    "errors": {
      "AccessControlBadConfirmation()": [
        {
          "details": "The caller of a function is not the expected one. NOTE: Don't confuse with {AccessControlUnauthorizedAccount}."
        }
      ],
      "AccessControlUnauthorizedAccount(address,bytes32)": [
        {
          "details": "The `account` is missing a role."
        }
      ],
      "InvalidImplementationInterface(address,bytes4)": [
        {
          "details": "When setting implementation addresses for modules (e.g., compliance, identity registry), the `SMARTSystem` checks if these implementations adhere to specific standard interfaces (like `IERC165` and the module-specific interface). If this check fails, this error is thrown.",
          "params": {
            "implAddress": "The address of the implementation contract that failed the interface check.",
            "interfaceId": "The bytes4 identifier of the interface that the `implAddress` was expected to support."
          }
        }
      ],
      "InvalidInitialization()": [
        {
          "details": "The contract is already initialized."
        }
      ],
      "NotInitializing()": [
        {
          "details": "The contract is not initializing."
        }
      ],
      "ReentrancyGuardReentrantCall()": [
        {
          "details": "Unauthorized reentrant call."
        }
      ]
    }
  },
  "id": 166
}