{
  "abi": [
    {
      "type": "constructor",
      "inputs": [
        {
          "name": "forwarder",
          "type": "address",
          "internalType": "address"
        }
      ],
      "stateMutability": "nonpayable"
    },
    {
      "type": "function",
      "name": "DEFAULT_ADMIN_ROLE",
      "inputs": [],
      "outputs": [
        {
          "name": "",
          "type": "bytes32",
          "internalType": "bytes32"
        }
      ],
      "stateMutability": "view"
    },
    {
      "type": "function",
      "name": "allAirdropsLength",
      "inputs": [],
      "outputs": [
        {
          "name": "count",
          "type": "uint256",
          "internalType": "uint256"
        }
      ],
      "stateMutability": "view"
    },
    {
      "type": "function",
      "name": "atkTimeBoundAirdropImplementation",
      "inputs": [],
      "outputs": [
        {
          "name": "",
          "type": "address",
          "internalType": "address"
        }
      ],
      "stateMutability": "view"
    },
    {
      "type": "function",
      "name": "create",
      "inputs": [
        {
          "name": "name",
          "type": "string",
          "internalType": "string"
        },
        {
          "name": "token",
          "type": "address",
          "internalType": "address"
        },
        {
          "name": "root",
          "type": "bytes32",
          "internalType": "bytes32"
        },
        {
          "name": "owner",
          "type": "address",
          "internalType": "address"
        },
        {
          "name": "startTime",
          "type": "uint256",
          "internalType": "uint256"
        },
        {
          "name": "endTime",
          "type": "uint256",
          "internalType": "uint256"
        }
      ],
      "outputs": [
        {
          "name": "airdropProxyAddress",
          "type": "address",
          "internalType": "address"
        }
      ],
      "stateMutability": "nonpayable"
    },
    {
      "type": "function",
      "name": "getRoleAdmin",
      "inputs": [
        {
          "name": "role",
          "type": "bytes32",
          "internalType": "bytes32"
        }
      ],
      "outputs": [
        {
          "name": "",
          "type": "bytes32",
          "internalType": "bytes32"
        }
      ],
      "stateMutability": "view"
    },
    {
      "type": "function",
      "name": "grantRole",
      "inputs": [
        {
          "name": "role",
          "type": "bytes32",
          "internalType": "bytes32"
        },
        {
          "name": "account",
          "type": "address",
          "internalType": "address"
        }
      ],
      "outputs": [],
      "stateMutability": "nonpayable"
    },
    {
      "type": "function",
      "name": "hasRole",
      "inputs": [
        {
          "name": "role",
          "type": "bytes32",
          "internalType": "bytes32"
        },
        {
          "name": "account",
          "type": "address",
          "internalType": "address"
        }
      ],
      "outputs": [
        {
          "name": "",
          "type": "bool",
          "internalType": "bool"
        }
      ],
      "stateMutability": "view"
    },
    {
      "type": "function",
      "name": "initialize",
      "inputs": [
        {
          "name": "systemAddress_",
          "type": "address",
          "internalType": "address"
        },
        {
          "name": "initialAdmin_",
          "type": "address",
          "internalType": "address"
        }
      ],
      "outputs": [],
      "stateMutability": "nonpayable"
    },
    {
      "type": "function",
      "name": "isFactorySystemAddon",
      "inputs": [
        {
          "name": "systemAddonAddress",
          "type": "address",
          "internalType": "address"
        }
      ],
      "outputs": [
        {
          "name": "isFactorySystemAddon",
          "type": "bool",
          "internalType": "bool"
        }
      ],
      "stateMutability": "view"
    },
    {
      "type": "function",
      "name": "isTrustedForwarder",
      "inputs": [
        {
          "name": "forwarder",
          "type": "address",
          "internalType": "address"
        }
      ],
      "outputs": [
        {
          "name": "",
          "type": "bool",
          "internalType": "bool"
        }
      ],
      "stateMutability": "view"
    },
    {
      "type": "function",
      "name": "predictTimeBoundAirdropAddress",
      "inputs": [
        {
          "name": "name",
          "type": "string",
          "internalType": "string"
        },
        {
          "name": "token",
          "type": "address",
          "internalType": "address"
        },
        {
          "name": "root",
          "type": "bytes32",
          "internalType": "bytes32"
        },
        {
          "name": "owner",
          "type": "address",
          "internalType": "address"
        },
        {
          "name": "startTime",
          "type": "uint256",
          "internalType": "uint256"
        },
        {
          "name": "endTime",
          "type": "uint256",
          "internalType": "uint256"
        }
      ],
      "outputs": [
        {
          "name": "predictedAddress",
          "type": "address",
          "internalType": "address"
        }
      ],
      "stateMutability": "view"
    },
    {
      "type": "function",
      "name": "renounceRole",
      "inputs": [
        {
          "name": "role",
          "type": "bytes32",
          "internalType": "bytes32"
        },
        {
          "name": "callerConfirmation",
          "type": "address",
          "internalType": "address"
        }
      ],
      "outputs": [],
      "stateMutability": "nonpayable"
    },
    {
      "type": "function",
      "name": "revokeRole",
      "inputs": [
        {
          "name": "role",
          "type": "bytes32",
          "internalType": "bytes32"
        },
        {
          "name": "account",
          "type": "address",
          "internalType": "address"
        }
      ],
      "outputs": [],
      "stateMutability": "nonpayable"
    },
    {
      "type": "function",
      "name": "supportsInterface",
      "inputs": [
        {
          "name": "interfaceId",
          "type": "bytes4",
          "internalType": "bytes4"
        }
      ],
      "outputs": [
        {
          "name": "",
          "type": "bool",
          "internalType": "bool"
        }
      ],
      "stateMutability": "view"
    },
    {
      "type": "function",
      "name": "trustedForwarder",
      "inputs": [],
      "outputs": [
        {
          "name": "",
          "type": "address",
          "internalType": "address"
        }
      ],
      "stateMutability": "view"
    },
    {
      "type": "function",
      "name": "typeId",
      "inputs": [],
      "outputs": [
        {
          "name": "",
          "type": "bytes32",
          "internalType": "bytes32"
        }
      ],
      "stateMutability": "view"
    },
    {
      "type": "function",
      "name": "updateImplementation",
      "inputs": [
        {
          "name": "_newImplementation",
          "type": "address",
          "internalType": "address"
        }
      ],
      "outputs": [],
      "stateMutability": "nonpayable"
    },
    {
      "type": "event",
      "name": "ATKTimeBoundAirdropCreated",
      "inputs": [
        {
          "name": "airdropAddress",
          "type": "address",
          "indexed": true,
          "internalType": "address"
        },
        {
          "name": "creator",
          "type": "address",
          "indexed": true,
          "internalType": "address"
        }
      ],
      "anonymous": false
    },
    {
      "type": "event",
      "name": "ImplementationUpdated",
      "inputs": [
        {
          "name": "oldImplementation",
          "type": "address",
          "indexed": true,
          "internalType": "address"
        },
        {
          "name": "newImplementation",
          "type": "address",
          "indexed": true,
          "internalType": "address"
        }
      ],
      "anonymous": false
    },
    {
      "type": "event",
      "name": "Initialized",
      "inputs": [
        {
          "name": "version",
          "type": "uint64",
          "indexed": false,
          "internalType": "uint64"
        }
      ],
      "anonymous": false
    },
    {
      "type": "event",
      "name": "RoleAdminChanged",
      "inputs": [
        {
          "name": "role",
          "type": "bytes32",
          "indexed": true,
          "internalType": "bytes32"
        },
        {
          "name": "previousAdminRole",
          "type": "bytes32",
          "indexed": true,
          "internalType": "bytes32"
        },
        {
          "name": "newAdminRole",
          "type": "bytes32",
          "indexed": true,
          "internalType": "bytes32"
        }
      ],
      "anonymous": false
    },
    {
      "type": "event",
      "name": "RoleGranted",
      "inputs": [
        {
          "name": "role",
          "type": "bytes32",
          "indexed": true,
          "internalType": "bytes32"
        },
        {
          "name": "account",
          "type": "address",
          "indexed": true,
          "internalType": "address"
        },
        {
          "name": "sender",
          "type": "address",
          "indexed": true,
          "internalType": "address"
        }
      ],
      "anonymous": false
    },
    {
      "type": "event",
      "name": "RoleRevoked",
      "inputs": [
        {
          "name": "role",
          "type": "bytes32",
          "indexed": true,
          "internalType": "bytes32"
        },
        {
          "name": "account",
          "type": "address",
          "indexed": true,
          "internalType": "address"
        },
        {
          "name": "sender",
          "type": "address",
          "indexed": true,
          "internalType": "address"
        }
      ],
      "anonymous": false
    },
    {
      "type": "error",
      "name": "AccessControlBadConfirmation",
      "inputs": []
    },
    {
      "type": "error",
      "name": "AccessControlUnauthorizedAccount",
      "inputs": [
        {
          "name": "account",
          "type": "address",
          "internalType": "address"
        },
        {
          "name": "neededRole",
          "type": "bytes32",
          "internalType": "bytes32"
        }
      ]
    },
    {
      "type": "error",
      "name": "AddressAlreadyDeployed",
      "inputs": [
        {
          "name": "deployedAddress",
          "type": "address",
          "internalType": "address"
        }
      ]
    },
    {
      "type": "error",
      "name": "Create2EmptyBytecode",
      "inputs": []
    },
    {
      "type": "error",
      "name": "FailedDeployment",
      "inputs": []
    },
    {
      "type": "error",
      "name": "InsufficientBalance",
      "inputs": [
        {
          "name": "balance",
          "type": "uint256",
          "internalType": "uint256"
        },
        {
          "name": "needed",
          "type": "uint256",
          "internalType": "uint256"
        }
      ]
    },
    {
      "type": "error",
      "name": "InvalidAddress",
      "inputs": []
    },
    {
      "type": "error",
      "name": "InvalidImplementation",
      "inputs": []
    },
    {
      "type": "error",
      "name": "InvalidInitialization",
      "inputs": []
    },
    {
      "type": "error",
      "name": "NotInitializing",
      "inputs": []
    },
    {
      "type": "error",
      "name": "ProxyCreationFailed",
      "inputs": []
    },
    {
      "type": "error",
      "name": "SameAddress",
      "inputs": []
    }
  ],
  "bytecode": {
    "object": "0x60a03461011757601f61362938819003918201601f19168301916001600160401b0383118484101761011b5780849260209460405283398101031261011757516001600160a01b0381168103610117576080525f5160206136095f395f51905f525460ff8160401c16610108576002600160401b03196001600160401b038216016100b2575b6040516134d9908161013082396080518181816102b60152818161064e0152818161078c01526112820152f35b6001600160401b0319166001600160401b039081175f5160206136095f395f51905f52556040519081527fc7f505b2f371ae2175ee4913f4499e1f2633a7b5936321eed1cdaeb6115181d290602090a15f610085565b63f92ee8a960e01b5f5260045ffd5b5f80fd5b634e487b7160e01b5f52604160045260245ffdfe6080806040526004361015610012575f80fd5b5f905f3560e01c90816301ffc9a714610b9857508063025b22bc14610a17578063150117bd146109fa578063229fff60146109bd578063248a9ca31461097e5780632f2ff15d1461093457806336568abe146108de578063485cc95514610682578063572b6c051461062e5780636cbc9103146102e55780637da0a877146102a05780637eff00f314610277578063856146cc146101dc5780638f940f63146101a157806391d148541461014b578063a217fddf1461012f5763d547741f146100d9575f80fd5b3461012c57604036600319011261012c576101286004356100f8610c1b565b9061012361011e825f525f51602061348d5f395f51905f52602052600160405f20015490565b610e1b565b611158565b5080f35b80fd5b503461012c578060031936011261012c57602090604051908152f35b503461012c57604036600319011261012c576040610167610c1b565b9160043581525f51602061348d5f395f51905f52602052209060018060a01b03165f52602052602060ff60405f2054166040519015158152f35b503461012c578060031936011261012c5760206040517fefe6d5ab0eb493051f5c129c00951c372f24ab8d346fe38c5337e52078af60cf8152f35b503461012c5760206102656102446102366101f636610c53565b91836102278661021986868660409e9c9b9d9a9e519e8f958d3060208901610d3b565b03601f1981018b528a610c31565b604051978896308d8901610d3b565b03601f198101835282610c31565b60405161057061025686820183610c31565b808252612efd86830139611241565b6040516001600160a01b039091168152f35b503461012c578060031936011261012c576002546040516001600160a01b039091168152602090f35b503461012c578060031936011261012c576040517f00000000000000000000000000000000000000000000000000000000000000006001600160a01b03168152602090f35b5034610541576103346102366102fa36610c53565b91610309979594969397610d8d565b6040519761032489610219868686868e8d3060208901610d3b565b6040519788963060208901610d3b565b604051906105706103486020820184610c31565b808352612efd602084013961035e838284611241565b610366610d8d565b6001600160a01b03165f8181526001602052604090205490939060ff1661061b579061039461039a926112ec565b92611201565b80511561060c576020815191015ff53d1519811516610536576001600160a01b03169081156105fd5781036105ee57805f52600160205260405f20600160ff198254161790556004602060018060a01b035f5416604051928380926398468e5160e01b82525afa908115610536575f916105ac575b506001600160a01b031680151580610545575b6104f1575b506001600160a01b0361043861127f565b169060405191817f393d6d2fbcd6b25d7bb799fe81cb83fe3f199868f7973aed863a6dd2ce82926e8580a3600354680100000000000000008110156104dd5760018101806003558110156104c9576003602094527fc2575a0e9e593c00f959f8c92f12db2869c3395a3b0502d05e2516446f71f85b01816bffffffffffffffffffffffff60a01b8254161790558152f35b634e487b7160e01b84526032600452602484fd5b634e487b7160e01b84526041600452602484fd5b803b15610541575f8091602460405180948193631105e3d560e31b83528760048401525af1801561053657156104275761052e9192505f90610c31565b5f905f610427565b6040513d5f823e3d90fd5b5f80fd5b506040516301ffc9a760e01b815263118f21f760e31b6004820152602081602481855afa908115610536575f9161057d575b50610422565b61059f915060203d6020116105a5575b6105978183610c31565b810190610cff565b5f610577565b503d61058d565b90506020813d6020116105e6575b816105c760209383610c31565b8101031261054157516001600160a01b0381168103610541575f61040f565b3d91506105ba565b6335279f5d60e21b5f5260045ffd5b63b06ebf3d60e01b5f5260045ffd5b631328927760e21b5f5260045ffd5b8363d0dc594960e01b5f5260045260245ffd5b34610541576020366003190112610541576020610649610c05565b6040517f00000000000000000000000000000000000000000000000000000000000000006001600160a01b039081169216919091148152f35b346105415760403660031901126105415761069b610c05565b6106a3610c1b565b905f5160206134ad5f395f51905f52549160ff8360401c16159267ffffffffffffffff8116801590816108d6575b60011490816108cc575b1590816108c3575b506108b45767ffffffffffffffff1981166001175f5160206134ad5f395f51905f525583610888575b5060ff5f5160206134ad5f395f51905f525460401c1615610879578061073461074492610e77565b5061073e81610f26565b50610ff0565b5060018060a01b03166bffffffffffffffffffffffff60a01b5f5416175f55604051611be88082019082821067ffffffffffffffff83111761086557602091839161131583397f00000000000000000000000000000000000000000000000000000000000000006001600160a01b031681520301905ff0801561053657600280546001600160a01b0319166001600160a01b0392909216918217905560405191905f7faa3f731066a578e5f39b4215468d826cdd15373cbc0dfc9cb9bdc649718ef7da8180a361081057005b60207fc7f505b2f371ae2175ee4913f4499e1f2633a7b5936321eed1cdaeb6115181d29168ff0000000000000000195f5160206134ad5f395f51905f5254165f5160206134ad5f395f51905f525560018152a1005b634e487b7160e01b5f52604160045260245ffd5b631afcd79f60e31b5f5260045ffd5b68ffffffffffffffffff191668010000000000000001175f5160206134ad5f395f51905f52558361070c565b63f92ee8a960e01b5f5260045ffd5b905015856106e3565b303b1591506106db565b8591506106d1565b34610541576040366003190112610541576108f7610c1b565b6001600160a01b0361090761127f565b166001600160a01b038216036109255761092390600435611158565b005b63334bd91960e11b5f5260045ffd5b3461054157604036600319011261054157610923600435610953610c1b565b9061097961011e825f525f51602061348d5f395f51905f52602052600160405f20015490565b6110ba565b346105415760203660031901126105415760206109b56004355f525f51602061348d5f395f51905f52602052600160405f20015490565b604051908152f35b34610541576020366003190112610541576001600160a01b036109de610c05565b165f526001602052602060ff60405f2054166040519015158152f35b34610541575f366003190112610541576020600354604051908152f35b3461054157602036600319011261054157610a30610c05565b610a3861127f565b6001600160a01b0381165f9081527fb121b6c2cfb68d56d259fa39abd93d7a85e352365bbcbddf27041e20d031c3d3602052604090205460ff1615610b5457506001600160a01b03168015610b45576002546001600160a01b03811690828214610b36576040516301ffc9a760e01b81526358a5bba560e11b6004820152602081602481875afa908115610536575f91610b17575b5015610b08576001600160a01b03191682176002557faa3f731066a578e5f39b4215468d826cdd15373cbc0dfc9cb9bdc649718ef7da5f80a3005b63340aafcd60e11b5f5260045ffd5b610b30915060203d6020116105a5576105978183610c31565b84610acd565b63367558c360e01b5f5260045ffd5b63e6c4247b60e01b5f5260045ffd5b63e2517d3f60e01b5f9081526001600160a01b03919091166004527fecaefa0171c08a6ded02d98b9432940d3852ef2c7f5007661eb8de37c5a1adc5602452604490fd5b34610541576020366003190112610541576004359063ffffffff60e01b821680920361054157602091638223c08160e01b8114908115610bda575b5015158152f35b637965db0b60e01b811491508115610bf4575b5083610bd3565b6301ffc9a760e01b14905083610bed565b600435906001600160a01b038216820361054157565b602435906001600160a01b038216820361054157565b90601f8019910116810190811067ffffffffffffffff82111761086557604052565b60c06003198201126105415760043567ffffffffffffffff811161054157816023820112156105415780600401359067ffffffffffffffff82116108655760405192610ca9601f8401601f191660200185610c31565b8284526024838301011161054157815f926024602093018386013783010152906024356001600160a01b03811681036105415790604435906064356001600160a01b038116810361054157906084359060a43590565b90816020910312610541575180151581036105415790565b805180835260209291819084018484015e5f828201840152601f01601f1916010190565b939060c09592610d6591999897949960018060a01b0316865260e0602087015260e0860190610d17565b6001600160a01b03988916604086015260608501919091529616608083015260a08201520152565b610d9561127f565b6001600160a01b0381165f9081527f8f7e9a8734279607aeaac474f24949ddc99eae25c0da72edcf5ad21022be2c9e602052604090205460ff1615610dd75750565b63e2517d3f60e01b5f9081526001600160a01b03919091166004527ffc425f2263d0df187444b70e47283d622c70181c5baebb1306a01edba1ce184c602452604490fd5b610e2361127f565b815f525f51602061348d5f395f51905f5260205260405f2060018060a01b0382165f5260205260ff60405f20541615610e5a575050565b63e2517d3f60e01b5f5260018060a01b031660045260245260445ffd5b6001600160a01b0381165f9081527fb7db2dd08fcb62d0c9e08c51941cae53c267786a0b75803fb7960902fc8ef97d602052604090205460ff16610f21576001600160a01b038181165f9081527fb7db2dd08fcb62d0c9e08c51941cae53c267786a0b75803fb7960902fc8ef97d60205260409020805460ff19166001179055610eff61127f565b16906001600160a01b03165f5f51602061346d5f395f51905f528180a4600190565b505f90565b6001600160a01b0381165f9081527fb121b6c2cfb68d56d259fa39abd93d7a85e352365bbcbddf27041e20d031c3d3602052604090205460ff16610f21576001600160a01b038181165f9081527fb121b6c2cfb68d56d259fa39abd93d7a85e352365bbcbddf27041e20d031c3d360205260409020805460ff19166001179055610fae61127f565b16906001600160a01b03167fecaefa0171c08a6ded02d98b9432940d3852ef2c7f5007661eb8de37c5a1adc55f51602061346d5f395f51905f525f80a4600190565b6001600160a01b0381165f9081527f8f7e9a8734279607aeaac474f24949ddc99eae25c0da72edcf5ad21022be2c9e602052604090205460ff16610f21576001600160a01b038181165f9081527f8f7e9a8734279607aeaac474f24949ddc99eae25c0da72edcf5ad21022be2c9e60205260409020805460ff1916600117905561107861127f565b16906001600160a01b03167ffc425f2263d0df187444b70e47283d622c70181c5baebb1306a01edba1ce184c5f51602061346d5f395f51905f525f80a4600190565b5f8181525f51602061348d5f395f51905f52602090815260408083206001600160a01b038616845290915290205460ff16611152575f8181525f51602061348d5f395f51905f52602090815260408083206001600160a01b0386811685529252909120805460ff1916600117905561113061127f565b16916001600160a01b0316905f51602061346d5f395f51905f525f80a4600190565b50505f90565b5f8181525f51602061348d5f395f51905f52602090815260408083206001600160a01b038616845290915290205460ff1615611152575f8181525f51602061348d5f395f51905f52602090815260408083206001600160a01b0386811685529252909120805460ff191690556111cc61127f565b16916001600160a01b0316907ff6391f5c32d9c69d2a47ea670b442974b53935d1edc7fd64eb21e047a839171b5f80a4600190565b61123f906020808095946040519684889551918291018487015e8401908282015f8152815193849201905e01015f815203601f198101845283610c31565b565b9061125190610394600b946112ec565b602081519101209060405191604083015260208201523081520160ff8153605590206001600160a01b031690565b337f00000000000000000000000000000000000000000000000000000000000000006001600160a01b031614806112e1575b156112dd5760131936013681116112c9573560601c90565b634e487b7160e01b5f52601160045260245ffd5b3390565b5060143610156112b1565b60405161130e8161023660208201943086526040808401526060830190610d17565b5190209056fe60a03461008857601f611be838819003918201601f19168301916001600160401b0383118484101761008c5780849260209460405283398101031261008857516001600160a01b03811681036100885760805261005a6100a0565b6100626100a0565b604051611a9190816101378239608051818181610a0e01528181610ae101526115010152f35b5f80fd5b634e487b7160e01b5f52604160045260245ffd5b5f516020611bc85f395f51905f525460ff8160401c16610127576002600160401b03196001600160401b038216016100d55750565b6001600160401b0319166001600160401b039081175f516020611bc85f395f51905f52556040519081527fc7f505b2f371ae2175ee4913f4499e1f2633a7b5936321eed1cdaeb6115181d290602090a1565b63f92ee8a960e01b5f5260045ffdfe6080806040526004361015610012575f80fd5b5f3560e01c90816306fdde031461116757508063222abc111461113f57806322f3e2d41461110a5780632eb4a7ab146110ed5780633197cbb6146110d0578063429c6e5b1461104657806349df728c14610f5c5780634be7adee14610b15578063572b6c0514610ac1578063715018a614610a5a57806378e9792514610a3d5780637da0a877146109f95780638da5cb5b146109c5578063ae0b51df14610781578063cfdbf25414610766578063dac6270d14610744578063ed0ea232146101e9578063f2fde38b146101be578063f364c90c146101245763fc0c546a146100f8575f80fd5b34610120575f366003190112610120576001546040516001600160a01b039091168152602090f35b5f80fd5b3461012057604036600319011261012057600354604051633cd9324360e21b81526004803590820152602480359082015290602090829060449082906001600160a01b03165afa80156101b3576020915f91610186575b506040519015158152f35b6101a69150823d84116101ac575b61019e8183611286565b8101906113a9565b8261017b565b503d610194565b6040513d5f823e3d90fd5b34610120576020366003190112610120576101e76101da611240565b6101e26113c1565b611338565b005b346101205760c0366003190112610120576004356001600160401b03811161012057366023820112156101205780600401356001600160401b0381116106345760405191610241601f8301601f191660200184611286565b818352366024838301011161012057815f9260246020930183860137830101526024356001600160a01b0381169081900361012057604435906064356001600160a01b0381168103610120576084359260a435925f516020611a655f395f51905f52549560ff8760401c1615966001600160401b0381168015908161073c575b6001149081610732575b159081610729575b5061071a5767ffffffffffffffff1981166001175f516020611a655f395f51905f5255876106ee575b504286106106df57858511156106d057604051610398808201908282106001600160401b0383111761063457602091839161166d83393081520301905ff080156101b3576001600160a01b031693610352611641565b8151156106c15782156106b25783156106a3578415610694576040516318160ddd60e01b8152602081600481875afa9081610665575b5061039c57630f58058360e11b5f5260045ffd5b604051633cd9324360e21b81525f600482018190526024820152602081604481895afa9081610648575b506103da57632b58d96960e01b5f5260045ffd5b6103ee906103e6611641565b6101e2611641565b8051906001600160401b038211610634576104095f546112a7565b601f81116105cd575b50602090601f83116001146105375791807f6f7ee0cbd39a3eac4bdd3fffe695ed5a509c06080a238d4ced6e2881a9af7abc9896949260409896945f9261052c575b50508160011b915f199060031b1c1916175f555b6bffffffffffffffffffffffff60a01b60015416176001556002556bffffffffffffffffffffffff60a01b60035416176003556104a3611641565b6104ab611641565b60015f516020611a455f395f51905f5255816004558060055582519182526020820152a16104d557005b68ff0000000000000000195f516020611a655f395f51905f5254165f516020611a655f395f51905f52557fc7f505b2f371ae2175ee4913f4499e1f2633a7b5936321eed1cdaeb6115181d2602060405160018152a1005b015190508a80610454565b90601f198316915f80525f516020611a255f395f51905f52925f5b8181106105b5575092600192859260409a98967f6f7ee0cbd39a3eac4bdd3fffe695ed5a509c06080a238d4ced6e2881a9af7abc9c9a98961061059d575b505050811b015f55610468565b01515f1960f88460031b161c191690558a8080610590565b92936020600181928786015181550195019301610552565b5f8052601f830160051c5f516020611a255f395f51905f5201906020841061061f575b601f0160051c5f516020611a255f395f51905f5201905b8181106106145750610412565b5f8155600101610607565b5f516020611a255f395f51905f5291506105f0565b634e487b7160e01b5f52604160045260245ffd5b6106609060203d6020116101ac5761019e8183611286565b6103c6565b6020813d60201161068c575b8161067e60209383611286565b810103126101205751610388565b3d9150610671565b632b58d96960e01b5f5260045ffd5b639dd854d360e01b5f5260045ffd5b630f58058360e11b5f5260045ffd5b632e43296560e01b5f5260045ffd5b6338af65f760e01b5f5260045ffd5b632ca4094f60e21b5f5260045ffd5b68ffffffffffffffffff191668010000000000000001175f516020611a655f395f51905f5255876102fc565b63f92ee8a960e01b5f5260045ffd5b905015896102d3565b303b1591506102cb565b8991506102c1565b34610120575f36600319011261012057602061075e611303565b604051908152f35b34610120575f36600319011261012057602060405160648152f35b34610120576060366003190112610120576024356004356044356001600160401b038111610120576107b7903690600401611256565b919060045442106109b65760055442116109a7576107d36114a2565b6107db6114fe565b9084156109985760018060a01b036003541693604051633cd9324360e21b8152846004820152866024820152602081604481895afa9081156101b3575f91610979575b5061096a5761082f91868486611557565b1561095b57604051635ea05ef360e11b8152600481018390526024810185905260448101859052602081606481875afa9081156101b3575f9161093c575b501561092d57823b156101205760405163762ba3ff60e11b8152600481018390526024810185905260448101859052925f908490606490829084905af19182156101b3577f987d620f307ff6b94d58743cb7a7509f24071586a77759b77c2d4e29f75a2f9a9360409361091d575b506001546108f590869084906001600160a01b0316611414565b825194855260208501526001600160a01b031692a260015f516020611a455f395f51905f5255005b5f61092791611286565b856108db565b63843ce46b60e01b5f5260045ffd5b610955915060203d6020116101ac5761019e8183611286565b8561086d565b63582f497d60e11b5f5260045ffd5b63b708ca1560e01b5f5260045ffd5b610992915060203d6020116101ac5761019e8183611286565b8761081e565b6360640efd60e11b5f5260045ffd5b63061ddd4f60e51b5f5260045ffd5b63b820fc9760e01b5f5260045ffd5b34610120575f366003190112610120575f516020611a055f395f51905f52546040516001600160a01b039091168152602090f35b34610120575f366003190112610120576040517f00000000000000000000000000000000000000000000000000000000000000006001600160a01b03168152602090f35b34610120575f366003190112610120576020600454604051908152f35b34610120575f36600319011261012057610a726113c1565b5f516020611a055f395f51905f5280546001600160a01b031981169091555f906001600160a01b03167f8be0079c531659141344cd1fd0a4f28419497f9722a3daafe3b4186f6b6457e08280a3005b34610120576020366003190112610120576020610adc611240565b6040517f00000000000000000000000000000000000000000000000000000000000000006001600160a01b039081169216919091148152f35b34610120576060366003190112610120576004356001600160401b03811161012057610b45903690600401611256565b6024356001600160401b03811161012057610b64903690600401611256565b90916044356001600160401b03811161012057610b85903690600401611256565b91909460045442106109b65760055442116109a757610ba26114a2565b60648211610f4d57610bb26114fe565b93610bbc816112df565b95610bca6040519788611286565b818752602087018260051b8201903682116101205782905b828210610f3d5750505086518281861491821592610f32575b50508015610f28575b610f1957959396905f96610c17856112df565b95610c256040519788611286565b858752610c31866112df565b602088019a90601f1901368c375f945b878610610d275750505050505084610c67575b60015f516020611a455f395f51905f5255005b600154610c8090869086906001600160a01b0316611414565b60405194855260606020860181905285018290526001600160fb1b0382116101205760a09160051b80916080870137840160808101926080868303016040870152518093520193905f5b818110610d11575050506001600160a01b0316917fb9df54cb8716695fe6cd84e5e4b88eca0d9c862970bcd45797aabb77d71b48ee919081900390a2808080808080610c54565b8251865260209586019590920191600101610cca565b909192939499610d388b89896114da565b359a610d4481866114ea565b519b610d518289896114da565b359085831015610f05578260051b850135601e1986360301811215610120578501916001600160401b0383351161012057823560051b36036020840113610120578e156109985760018060a01b036003541692604051633cd9324360e21b8152836004820152826024820152602081604481885afa9081156101b3575f91610ee7575b5061096a57808f836020610dec943593019186611557565b1561095b57610e268f826020916040519384928392635ea05ef360e11b845288600485016040919493926060820195825260208201520152565b0381875afa9081156101b3575f91610ec9575b501561092d57823b156101205760405163762ba3ff60e11b81526004810192909252602482018f90526044820152905f908290606490829084905af180156101b357610eb9575b508b8201809211610ea5576001919b610e99828c6114ea565b52019493929190610c41565b634e487b7160e01b5f52601160045260245ffd5b5f610ec391611286565b8d610e80565b610ee1915060203d81116101ac5761019e8183611286565b5f610e39565b610eff915060203d81116101ac5761019e8183611286565b5f610dd4565b634e487b7160e01b5f52603260045260245ffd5b632c635df560e11b5f5260045ffd5b5084821415610c04565b14159050828a610bfb565b8135815260209182019101610be2565b632a8677b560e21b5f5260045ffd5b3461012057602036600319011261012057610f75611240565b610f7d6113c1565b6001600160a01b038116908115611037576001546040516370a0823160e01b815230600482015291906001600160a01b0316602083602481845afa9283156101b3575f93610fff575b5091610ff6816020937f6352c5382c4a4578e712449ca65e83cdb392d045dfcf1cad9615189db2da244b95611414565b604051908152a2005b9250906020833d60201161102f575b8161101b60209383611286565b810103126101205791519190610ff6610fc6565b3d915061100e565b634261081360e11b5f5260045ffd5b346101205760203660031901126101205760035460405163429c6e5b60e01b8152600480359082015290602090829060249082906001600160a01b03165afa80156101b3575f9061109d575b602090604051908152f35b506020813d6020116110c8575b816110b760209383611286565b810103126101205760209051611092565b3d91506110aa565b34610120575f366003190112610120576020600554604051908152f35b34610120575f366003190112610120576020600254604051908152f35b34610120575f3660031901126101205760045442101580611133575b6020906040519015158152f35b50600554421115611126565b34610120575f366003190112610120576003546040516001600160a01b039091168152602090f35b34610120575f366003190112610120575f905f5491611185836112a7565b80835260208301936001811690811561122557506001146111dc575b50906111b1816040930382611286565b8151928391602083525180918160208501528484015e5f828201840152601f01601f19168101030190f35b5f8080525f516020611a255f395f51905f52939250905b80821061120b575090915081016020016111b16111a1565b9192600181602092548385880101520191019092916111f3565b60ff1916855250151560051b820160200190506111b16111a1565b600435906001600160a01b038216820361012057565b9181601f84011215610120578235916001600160401b038311610120576020808501948460051b01011161012057565b90601f801991011681019081106001600160401b0382111761063457604052565b90600182811c921680156112d5575b60208310146112c157565b634e487b7160e01b5f52602260045260245ffd5b91607f16916112b6565b6001600160401b0381116106345760051b60200190565b91908203918211610ea557565b6004548042105f1461131d5761131a9042906112f6565b90565b506005544281106113335761131a9042906112f6565b505f90565b6001600160a01b03168015611396575f516020611a055f395f51905f5280546001600160a01b0319811683179091556001600160a01b03167f8be0079c531659141344cd1fd0a4f28419497f9722a3daafe3b4186f6b6457e05f80a3565b631e4fbdf760e01b5f525f60045260245ffd5b90816020910312610120575180151581036101205790565b5f516020611a055f395f51905f52546001600160a01b03908116906113e46114fe565b16036113ec57565b6113f46114fe565b63118cdaa760e01b5f9081526001600160a01b0391909116600452602490fd5b60405163a9059cbb60e01b60208281019182526001600160a01b03909416602483015260448083019590955293815290925f91611452606482611286565b519082855af1156101b3575f513d61149957506001600160a01b0381163b155b6114795750565b635274afe760e01b5f9081526001600160a01b0391909116600452602490fd5b60011415611472565b60025f516020611a455f395f51905f5254146114cb5760025f516020611a455f395f51905f5255565b633ee5aeb560e01b5f5260045ffd5b9190811015610f055760051b0190565b8051821015610f055760209160051b010190565b337f00000000000000000000000000000000000000000000000000000000000000006001600160a01b0316148061154c575b15611548576013193601368111610ea5573560601c90565b3390565b506014361015611530565b9194929394604051916020830193845260018060a01b03166040830152606082015260608152611588608082611286565b51902060405160208101918252602081526115a4604082611286565b519020600254926115b4856112df565b946115c26040519687611286565b808652602086019060051b82019136831161012057905b82821061163157505050905f915b8451831015611629576115fa83866114ea565b519081811015611618575f52602052600160405f205b9201916115e7565b905f52602052600160405f20611610565b915092501490565b81358152602091820191016115d9565b60ff5f516020611a655f395f51905f525460401c161561165d57565b631afcd79f60e31b5f5260045ffdfe60803460b857601f61039838819003918201601f19168301916001600160401b0383118484101760bc5780849260209460405283398101031260b857516001600160a01b0381169081900360b857801560a5575f80546001600160a01b031981168317825560405192916001600160a01b03909116907f8be0079c531659141344cd1fd0a4f28419497f9722a3daafe3b4186f6b6457e09080a36102c790816100d18239f35b631e4fbdf760e01b5f525f60045260245ffd5b5f80fd5b634e487b7160e01b5f52604160045260245ffdfe6080806040526004361015610012575f80fd5b5f3560e01c908163429c6e5b1461023357508063715018a6146101dc5780638da5cb5b146101b5578063bd40bde614610186578063ec5747fe14610125578063f2fde38b1461009c5763f364c90c14610069575f80fd5b34610098576040366003190112610098576004355f526001602052602060243560405f20541015604051908152f35b5f80fd5b34610098576020366003190112610098576004356001600160a01b03811690819003610098576100ca610294565b8015610112575f80546001600160a01b03198116831782556001600160a01b0316907f8be0079c531659141344cd1fd0a4f28419497f9722a3daafe3b4186f6b6457e09080a3005b631e4fbdf760e01b5f525f60045260245ffd5b346100985760407f08401774913e94f43659333293c99fdfdea868c488d679967e054abc8b5ae83461015636610259565b610161949294610294565b845f526001602052825f20610177838254610273565b905582519182526020820152a2005b346100985760206101ab61019936610259565b92915f526001845260405f2054610273565b1115604051908152f35b34610098575f366003190112610098575f546040516001600160a01b039091168152602090f35b34610098575f366003190112610098576101f4610294565b5f80546001600160a01b0319811682556001600160a01b03167f8be0079c531659141344cd1fd0a4f28419497f9722a3daafe3b4186f6b6457e08280a3005b34610098576020366003190112610098576020906004355f526001825260405f20548152f35b606090600319011261009857600435906024359060443590565b9190820180921161028057565b634e487b7160e01b5f52601160045260245ffd5b5f546001600160a01b031633036102a757565b63118cdaa760e01b5f523360045260245ffdfea164736f6c634300081c000a9016d09d72d40fdae2fd8ceac6b6234c7706214fd39c1cd1e609a0528c199300290decd9548b62a8d60345a988386fc84ba6bc95484008f6362f93160ef3e5639b779b17422d0df92223018b32b4d1fa46e071723d6817e2486d003becc55f00f0c57e16840df040f15088dc2f81fe391c3923bec73e23a9662efc9c229c6a00a164736f6c634300081c000af0c57e16840df040f15088dc2f81fe391c3923bec73e23a9662efc9c229c6a006080604052346100c357610570803803809161001a826100db565b60803960e08160800191126100c357610031610129565b60a051916001600160401b0383116100c35780609f840112156100c357826080015161005c81610153565b9161006a6040519384610106565b81835260a082860101116100c3576020815f9260a06100b497018386015e8301015261009660c061013f565b60e0516100a461010061013f565b91610120519361014051956101eb565b60405161014990816104078239f35b5f80fd5b634e487b7160e01b5f52604160045260245ffd5b6080601f91909101601f19168101906001600160401b0382119082101761010157604052565b6100c7565b601f909101601f19168101906001600160401b0382119082101761010157604052565b608051906001600160a01b03821682036100c357565b51906001600160a01b03821682036100c357565b6001600160401b03811161010157601f01601f191660200190565b908160209103126100c3575180151581036100c35790565b6040513d5f823e3d90fd5b9260e0602060a09693999897949960c0875280519182918260c08a0152018388015e5f828288010152601f801991011685010197600180871b031660208501526040840152600180851b0316606083015260808201520152565b9495919492939290916001600160a01b03821680156102ba576040516301ffc9a760e01b8152638223c08160e01b600482015290602090829060249082905afa9081156102f8575f916102c9575b50156102ba576102b8966102b3946102806102a59460018060a01b031660018060a01b03195f5160206105505f395f51905f525416175f5160206105505f395f51905f5255565b6102886102fd565b96604051988996637687511960e11b602089015260248801610191565b03601f198101845283610106565b610399565b565b635c7bfbe960e01b5f5260045ffd5b6102eb915060203d6020116102f1575b6102e38183610106565b81019061016e565b5f610239565b503d6102d9565b610186565b5f5160206105505f395f51905f5254604051637eff00f360e01b815290602090829060049082906001600160a01b03165afa9081156102f8575f9161035f575b506001600160a01b038116156103505790565b63489aaf0d60e11b5f5260045ffd5b90506020813d602011610391575b8161037a60209383610106565b810103126100c35761038b9061013f565b5f61033d565b3d915061036d565b6001600160a01b038116156103f757815f929160208493519201905af43d156103ef573d906103c782610153565b916103d56040519384610106565b82523d5f602084013e5b156103e75750565b602081519101fd5b6060906103df565b63ee0a129760e01b5f5260045ffdfe608060405236156100a8577ff3007e328bd3cc76df0f7bea610f8e0c2c29ecb2ea2bbaae96055be00b7b89ca5460209060809060049082906001600160a01b0316637eff00f360e01b82525afa80156100a3575f90610076575b6001600160a01b0381166100b75763489aaf0d60e11b5f5260045ffd5b5060203d60201161009c575b8061008f610097926100d4565b60800161010b565b610059565b503d610082565b610131565b635d82995b60e01b5f5260045ffd5b5f8091368280378136915af43d5f803e156100d0573d5ff35b3d5ffd5b601f80199101166080016080811067ffffffffffffffff8211176100f757604052565b634e487b7160e01b5f52604160045260245ffd5b602090607f19011261012d576080516001600160a01b038116810361012d5790565b5f80fd5b6040513d5f823e3d90fdfea164736f6c634300081c000af3007e328bd3cc76df0f7bea610f8e0c2c29ecb2ea2bbaae96055be00b7b89ca2f8788117e7eff1d82e926ec794901d17c78024a50270940304540a733656f0d02dd7bc7dec4dceedda775e58dd541e08a116c6c53815c0bd028192f7b626800f0c57e16840df040f15088dc2f81fe391c3923bec73e23a9662efc9c229c6a00a164736f6c634300081c000af0c57e16840df040f15088dc2f81fe391c3923bec73e23a9662efc9c229c6a00",
    "linkReferences": {}
  },
  "methodIdentifiers": {
    "DEFAULT_ADMIN_ROLE()": "a217fddf",
    "allAirdropsLength()": "150117bd",
    "atkTimeBoundAirdropImplementation()": "7eff00f3",
    "create(string,address,bytes32,address,uint256,uint256)": "6cbc9103",
    "getRoleAdmin(bytes32)": "248a9ca3",
    "grantRole(bytes32,address)": "2f2ff15d",
    "hasRole(bytes32,address)": "91d14854",
    "initialize(address,address)": "485cc955",
    "isFactorySystemAddon(address)": "229fff60",
    "isTrustedForwarder(address)": "572b6c05",
    "predictTimeBoundAirdropAddress(string,address,bytes32,address,uint256,uint256)": "856146cc",
    "renounceRole(bytes32,address)": "36568abe",
    "revokeRole(bytes32,address)": "d547741f",
    "supportsInterface(bytes4)": "01ffc9a7",
    "trustedForwarder()": "7da0a877",
    "typeId()": "8f940f63",
    "updateImplementation(address)": "025b22bc"
  },
  "userdoc": {
    "version": 1,
    "kind": "user",
    "methods": {
      "allAirdropsLength()": {
        "notice": "Returns the total number of time-bound airdrop proxy contracts created by this factory."
      },
      "atkTimeBoundAirdropImplementation()": {
        "notice": "Address of the current `ATKTimeBoundAirdrop` logic contract (implementation)."
      },
      "create(string,address,bytes32,address,uint256,uint256)": {
        "notice": "Creates and deploys a new `ATKTimeBoundAirdropProxy` contract for a given configuration. The proxy will point to the current `atkTimeBoundAirdropImplementation`."
      },
      "initialize(address,address)": {
        "notice": "Initializes the `ATKTimeBoundAirdropFactory`."
      },
      "isFactorySystemAddon(address)": {
        "notice": "Mapping indicating whether an system addon address was deployed by this factory."
      },
      "predictTimeBoundAirdropAddress(string,address,bytes32,address,uint256,uint256)": {
        "notice": "Predicts the deployment address of a time-bound airdrop proxy."
      },
      "supportsInterface(bytes4)": {
        "notice": "Returns the address of the current `ATKTimeBoundAirdrop` logic contract (implementation)."
      },
      "typeId()": {
        "notice": "Returns a unique identifier for the type of this contract."
      },
      "updateImplementation(address)": {
        "notice": "Updates the address of the `ATKTimeBoundAirdrop` implementation contract."
      }
    },
    "events": {
      "ATKTimeBoundAirdropCreated(address,address)": {
        "notice": "Emitted when a new time-bound airdrop proxy is created"
      },
      "ImplementationUpdated(address,address)": {
        "notice": "Emitted when the implementation contract is updated"
      }
    },
    "errors": {
      "AddressAlreadyDeployed(address)": [
        {
          "notice": "Error thrown when a CREATE2 address is already deployed."
        }
      ],
      "InvalidAddress()": [
        {
          "notice": "Custom error for invalid address parameter."
        }
      ],
      "InvalidImplementation()": [
        {
          "notice": "Custom error for invalid implementation address."
        }
      ],
      "ProxyCreationFailed()": [
        {
          "notice": "Error thrown when proxy creation fails."
        }
      ],
      "SameAddress()": [
        {
          "notice": "Custom error when attempting to set the same address."
        }
      ]
    },
    "notice": "This contract serves as a factory to deploy new UUPS proxy instances of `ATKTimeBoundAirdrop` contracts. It manages a single implementation contract and allows for updating this implementation."
  },
  "devdoc": {
    "version": 1,
    "kind": "dev",
    "details": "Key features of this factory: - **Deployment of Proxies**: Provides a `create` function to deploy new `ATKTimeBoundAirdropProxy` instances,   which point to a shared `ATKTimeBoundAirdrop` implementation. - **CREATE2**: Leverages `CREATE2` for deploying proxies, allowing their addresses to be pre-calculated. - **Implementation Management**: Deploys an initial implementation and allows the owner to update it. - **Authorization**: The `create` function requires the `DEPLOYER_ROLE` for proper access control. - **Registry**: Maintains an array `allAirdrops` to keep track of all airdrop proxies created. - **Meta-transactions**: Inherits `ERC2771Context` to support gasless operations if a trusted forwarder is configured.",
    "methods": {
      "constructor": {},
      "create(string,address,bytes32,address,uint256,uint256)": {
        "details": "This function performs the following steps: 1. **Authorization Check**: Verifies the caller has the `DEPLOYER_ROLE`. 2. **Salt Generation**: Computes a unique `salt` for CREATE2. 3. **Initialization Data**: Prepares the `initData` for the proxy to call `initialize` on the implementation. 4. **Proxy Deployment**: Deploys a `ATKTimeBoundAirdropProxy` using CREATE2. 5. **Event Emission**: Emits `ATKTimeBoundAirdropCreated`. 6. **Registry Update**: Adds the new proxy to `allAirdrops`.",
        "params": {
          "endTime": "The timestamp when claims end.",
          "name": "The human-readable name for the airdrop.",
          "owner": "The initial owner of the contract.",
          "root": "The Merkle root for verifying claims.",
          "startTime": "The timestamp when claims can begin.",
          "token": "The address of the ERC20 token to be distributed."
        },
        "returns": {
          "airdropProxyAddress": "The address of the newly created `ATKTimeBoundAirdropProxy` contract."
        }
      },
      "getRoleAdmin(bytes32)": {
        "details": "Returns the admin role that controls `role`. See {grantRole} and {revokeRole}. To change a role's admin, use {_setRoleAdmin}."
      },
      "grantRole(bytes32,address)": {
        "details": "Grants `role` to `account`. If `account` had not been already granted `role`, emits a {RoleGranted} event. Requirements: - the caller must have ``role``'s admin role. May emit a {RoleGranted} event."
      },
      "hasRole(bytes32,address)": {
        "details": "Returns `true` if `account` has been granted `role`."
      },
      "initialize(address,address)": {
        "details": "Initializes the factory, deploys the initial `ATKTimeBoundAirdrop` implementation, and sets up support for meta-transactions via ERC2771Context.",
        "params": {
          "initialAdmin_": "The address of the initial admin.",
          "systemAddress_": "The address of the `IATKSystem` contract."
        }
      },
      "isTrustedForwarder(address)": {
        "details": "Indicates whether any particular address is the trusted forwarder."
      },
      "predictTimeBoundAirdropAddress(string,address,bytes32,address,uint256,uint256)": {
        "params": {
          "endTime": "The timestamp when claims end.",
          "name": "The human-readable name for the airdrop.",
          "owner": "The initial owner of the contract.",
          "root": "The Merkle root for verifying claims.",
          "startTime": "The timestamp when claims can begin.",
          "token": "The address of the ERC20 token to be distributed."
        },
        "returns": {
          "predictedAddress": "The predicted address of the time-bound airdrop proxy."
        }
      },
      "renounceRole(bytes32,address)": {
        "details": "Revokes `role` from the calling account. Roles are often managed via {grantRole} and {revokeRole}: this function's purpose is to provide a mechanism for accounts to lose their privileges if they are compromised (such as when a trusted device is misplaced). If the calling account had been revoked `role`, emits a {RoleRevoked} event. Requirements: - the caller must be `callerConfirmation`. May emit a {RoleRevoked} event."
      },
      "revokeRole(bytes32,address)": {
        "details": "Revokes `role` from `account`. If `account` had been granted `role`, emits a {RoleRevoked} event. Requirements: - the caller must have ``role``'s admin role. May emit a {RoleRevoked} event."
      },
      "trustedForwarder()": {
        "details": "Returns the address of the trusted forwarder."
      },
      "updateImplementation(address)": {
        "details": "Only callable by the factory owner. New proxies created after this call will use the new implementation. This does NOT automatically upgrade existing proxy instances.",
        "params": {
          "_newImplementation": "The address of the new `ATKTimeBoundAirdrop` logic contract."
        }
      }
    },
    "events": {
      "ATKTimeBoundAirdropCreated(address,address)": {
        "params": {
          "airdropAddress": "The address of the newly created time-bound airdrop proxy",
          "creator": "The address that created the time-bound airdrop"
        }
      },
      "ImplementationUpdated(address,address)": {
        "params": {
          "newImplementation": "The address of the new implementation",
          "oldImplementation": "The address of the previous implementation"
        }
      },
      "Initialized(uint64)": {
        "details": "Triggered when the contract has been initialized or reinitialized."
      },
      "RoleAdminChanged(bytes32,bytes32,bytes32)": {
        "details": "Emitted when `newAdminRole` is set as ``role``'s admin role, replacing `previousAdminRole` `DEFAULT_ADMIN_ROLE` is the starting admin for all roles, despite {RoleAdminChanged} not being emitted to signal this."
      },
      "RoleGranted(bytes32,address,address)": {
        "details": "Emitted when `account` is granted `role`. `sender` is the account that originated the contract call. This account bears the admin role (for the granted role). Expected in cases where the role was granted using the internal {AccessControl-_grantRole}."
      },
      "RoleRevoked(bytes32,address,address)": {
        "details": "Emitted when `account` is revoked `role`. `sender` is the account that originated the contract call:   - if using `revokeRole`, it is the admin role bearer   - if using `renounceRole`, it is the role bearer (i.e. `account`)"
      }
    },
    "errors": {
      "AccessControlBadConfirmation()": [
        {
          "details": "The caller of a function is not the expected one. NOTE: Don't confuse with {AccessControlUnauthorizedAccount}."
        }
      ],
      "AccessControlUnauthorizedAccount(address,bytes32)": [
        {
          "details": "The `account` is missing a role."
        }
      ],
      "Create2EmptyBytecode()": [
        {
          "details": "There's no code to deploy."
        }
      ],
      "FailedDeployment()": [
        {
          "details": "The deployment failed."
        }
      ],
      "InsufficientBalance(uint256,uint256)": [
        {
          "details": "The ETH balance of the account is not enough to perform the operation."
        }
      ],
      "InvalidInitialization()": [
        {
          "details": "The contract is already initialized."
        }
      ],
      "NotInitializing()": [
        {
          "details": "The contract is not initializing."
        }
      ]
    },
    "title": "Factory for Creating ATKTimeBoundAirdrop Proxies"
  },
  "id": 13
}