{
  "abi": [
    {
      "type": "constructor",
      "inputs": [
        {
          "name": "forwarder_",
          "type": "address",
          "internalType": "address"
        }
      ],
      "stateMutability": "nonpayable"
    },
    {
      "type": "function",
      "name": "MAX_BATCH_SIZE",
      "inputs": [],
      "outputs": [
        {
          "name": "",
          "type": "uint256",
          "internalType": "uint256"
        }
      ],
      "stateMutability": "view"
    },
    {
      "type": "function",
      "name": "batchClaim",
      "inputs": [
        {
          "name": "indices",
          "type": "uint256[]",
          "internalType": "uint256[]"
        },
        {
          "name": "totalAmounts",
          "type": "uint256[]",
          "internalType": "uint256[]"
        },
        {
          "name": "merkleProofs",
          "type": "bytes32[][]",
          "internalType": "bytes32[][]"
        }
      ],
      "outputs": [],
      "stateMutability": "nonpayable"
    },
    {
      "type": "function",
      "name": "claim",
      "inputs": [
        {
          "name": "index",
          "type": "uint256",
          "internalType": "uint256"
        },
        {
          "name": "totalAmount",
          "type": "uint256",
          "internalType": "uint256"
        },
        {
          "name": "merkleProof",
          "type": "bytes32[]",
          "internalType": "bytes32[]"
        }
      ],
      "outputs": [],
      "stateMutability": "nonpayable"
    },
    {
      "type": "function",
      "name": "claimTracker",
      "inputs": [],
      "outputs": [
        {
          "name": "",
          "type": "address",
          "internalType": "contract IATKClaimTracker"
        }
      ],
      "stateMutability": "view"
    },
    {
      "type": "function",
      "name": "endTime",
      "inputs": [],
      "outputs": [
        {
          "name": "",
          "type": "uint256",
          "internalType": "uint256"
        }
      ],
      "stateMutability": "view"
    },
    {
      "type": "function",
      "name": "getClaimedAmount",
      "inputs": [
        {
          "name": "index",
          "type": "uint256",
          "internalType": "uint256"
        }
      ],
      "outputs": [
        {
          "name": "",
          "type": "uint256",
          "internalType": "uint256"
        }
      ],
      "stateMutability": "view"
    },
    {
      "type": "function",
      "name": "getTimeRemaining",
      "inputs": [],
      "outputs": [
        {
          "name": "timeRemaining",
          "type": "uint256",
          "internalType": "uint256"
        }
      ],
      "stateMutability": "view"
    },
    {
      "type": "function",
      "name": "initialize",
      "inputs": [
        {
          "name": "name_",
          "type": "string",
          "internalType": "string"
        },
        {
          "name": "token_",
          "type": "address",
          "internalType": "address"
        },
        {
          "name": "root_",
          "type": "bytes32",
          "internalType": "bytes32"
        },
        {
          "name": "owner_",
          "type": "address",
          "internalType": "address"
        },
        {
          "name": "startTime_",
          "type": "uint256",
          "internalType": "uint256"
        },
        {
          "name": "endTime_",
          "type": "uint256",
          "internalType": "uint256"
        }
      ],
      "outputs": [],
      "stateMutability": "nonpayable"
    },
    {
      "type": "function",
      "name": "isActive",
      "inputs": [],
      "outputs": [
        {
          "name": "active",
          "type": "bool",
          "internalType": "bool"
        }
      ],
      "stateMutability": "view"
    },
    {
      "type": "function",
      "name": "isClaimed",
      "inputs": [
        {
          "name": "index",
          "type": "uint256",
          "internalType": "uint256"
        },
        {
          "name": "totalAmount",
          "type": "uint256",
          "internalType": "uint256"
        }
      ],
      "outputs": [
        {
          "name": "",
          "type": "bool",
          "internalType": "bool"
        }
      ],
      "stateMutability": "view"
    },
    {
      "type": "function",
      "name": "isTrustedForwarder",
      "inputs": [
        {
          "name": "forwarder",
          "type": "address",
          "internalType": "address"
        }
      ],
      "outputs": [
        {
          "name": "",
          "type": "bool",
          "internalType": "bool"
        }
      ],
      "stateMutability": "view"
    },
    {
      "type": "function",
      "name": "merkleRoot",
      "inputs": [],
      "outputs": [
        {
          "name": "",
          "type": "bytes32",
          "internalType": "bytes32"
        }
      ],
      "stateMutability": "view"
    },
    {
      "type": "function",
      "name": "name",
      "inputs": [],
      "outputs": [
        {
          "name": "",
          "type": "string",
          "internalType": "string"
        }
      ],
      "stateMutability": "view"
    },
    {
      "type": "function",
      "name": "owner",
      "inputs": [],
      "outputs": [
        {
          "name": "",
          "type": "address",
          "internalType": "address"
        }
      ],
      "stateMutability": "view"
    },
    {
      "type": "function",
      "name": "renounceOwnership",
      "inputs": [],
      "outputs": [],
      "stateMutability": "nonpayable"
    },
    {
      "type": "function",
      "name": "startTime",
      "inputs": [],
      "outputs": [
        {
          "name": "",
          "type": "uint256",
          "internalType": "uint256"
        }
      ],
      "stateMutability": "view"
    },
    {
      "type": "function",
      "name": "token",
      "inputs": [],
      "outputs": [
        {
          "name": "",
          "type": "address",
          "internalType": "contract IERC20"
        }
      ],
      "stateMutability": "view"
    },
    {
      "type": "function",
      "name": "transferOwnership",
      "inputs": [
        {
          "name": "newOwner",
          "type": "address",
          "internalType": "address"
        }
      ],
      "outputs": [],
      "stateMutability": "nonpayable"
    },
    {
      "type": "function",
      "name": "trustedForwarder",
      "inputs": [],
      "outputs": [
        {
          "name": "",
          "type": "address",
          "internalType": "address"
        }
      ],
      "stateMutability": "view"
    },
    {
      "type": "function",
      "name": "withdrawTokens",
      "inputs": [
        {
          "name": "to",
          "type": "address",
          "internalType": "address"
        }
      ],
      "outputs": [],
      "stateMutability": "nonpayable"
    },
    {
      "type": "event",
      "name": "BatchClaimed",
      "inputs": [
        {
          "name": "claimant",
          "type": "address",
          "indexed": true,
          "internalType": "address"
        },
        {
          "name": "totalAmount",
          "type": "uint256",
          "indexed": false,
          "internalType": "uint256"
        },
        {
          "name": "indices",
          "type": "uint256[]",
          "indexed": false,
          "internalType": "uint256[]"
        },
        {
          "name": "amounts",
          "type": "uint256[]",
          "indexed": false,
          "internalType": "uint256[]"
        }
      ],
      "anonymous": false
    },
    {
      "type": "event",
      "name": "Claimed",
      "inputs": [
        {
          "name": "claimant",
          "type": "address",
          "indexed": true,
          "internalType": "address"
        },
        {
          "name": "amount",
          "type": "uint256",
          "indexed": false,
          "internalType": "uint256"
        },
        {
          "name": "index",
          "type": "uint256",
          "indexed": false,
          "internalType": "uint256"
        }
      ],
      "anonymous": false
    },
    {
      "type": "event",
      "name": "Initialized",
      "inputs": [
        {
          "name": "version",
          "type": "uint64",
          "indexed": false,
          "internalType": "uint64"
        }
      ],
      "anonymous": false
    },
    {
      "type": "event",
      "name": "OwnershipTransferred",
      "inputs": [
        {
          "name": "previousOwner",
          "type": "address",
          "indexed": true,
          "internalType": "address"
        },
        {
          "name": "newOwner",
          "type": "address",
          "indexed": true,
          "internalType": "address"
        }
      ],
      "anonymous": false
    },
    {
      "type": "event",
      "name": "TimeWindowSet",
      "inputs": [
        {
          "name": "startTime",
          "type": "uint256",
          "indexed": false,
          "internalType": "uint256"
        },
        {
          "name": "endTime",
          "type": "uint256",
          "indexed": false,
          "internalType": "uint256"
        }
      ],
      "anonymous": false
    },
    {
      "type": "event",
      "name": "TokensWithdrawn",
      "inputs": [
        {
          "name": "to",
          "type": "address",
          "indexed": true,
          "internalType": "address"
        },
        {
          "name": "amount",
          "type": "uint256",
          "indexed": false,
          "internalType": "uint256"
        }
      ],
      "anonymous": false
    },
    {
      "type": "error",
      "name": "AirdropEnded",
      "inputs": []
    },
    {
      "type": "error",
      "name": "AirdropNotStarted",
      "inputs": []
    },
    {
      "type": "error",
      "name": "BatchSizeExceedsLimit",
      "inputs": []
    },
    {
      "type": "error",
      "name": "IndexAlreadyClaimed",
      "inputs": []
    },
    {
      "type": "error",
      "name": "InvalidAirdropName",
      "inputs": []
    },
    {
      "type": "error",
      "name": "InvalidClaimAmount",
      "inputs": []
    },
    {
      "type": "error",
      "name": "InvalidClaimTrackerAddress",
      "inputs": []
    },
    {
      "type": "error",
      "name": "InvalidEndTime",
      "inputs": []
    },
    {
      "type": "error",
      "name": "InvalidInitialization",
      "inputs": []
    },
    {
      "type": "error",
      "name": "InvalidInputArrayLengths",
      "inputs": []
    },
    {
      "type": "error",
      "name": "InvalidMerkleProof",
      "inputs": []
    },
    {
      "type": "error",
      "name": "InvalidMerkleRoot",
      "inputs": []
    },
    {
      "type": "error",
      "name": "InvalidStartTime",
      "inputs": []
    },
    {
      "type": "error",
      "name": "InvalidTimeWindow",
      "inputs": []
    },
    {
      "type": "error",
      "name": "InvalidTokenAddress",
      "inputs": []
    },
    {
      "type": "error",
      "name": "InvalidWithdrawalAddress",
      "inputs": []
    },
    {
      "type": "error",
      "name": "NotInitializing",
      "inputs": []
    },
    {
      "type": "error",
      "name": "OwnableInvalidOwner",
      "inputs": [
        {
          "name": "owner",
          "type": "address",
          "internalType": "address"
        }
      ]
    },
    {
      "type": "error",
      "name": "OwnableUnauthorizedAccount",
      "inputs": [
        {
          "name": "account",
          "type": "address",
          "internalType": "address"
        }
      ]
    },
    {
      "type": "error",
      "name": "ReentrancyGuardReentrantCall",
      "inputs": []
    },
    {
      "type": "error",
      "name": "SafeERC20FailedOperation",
      "inputs": [
        {
          "name": "token",
          "type": "address",
          "internalType": "address"
        }
      ]
    },
    {
      "type": "error",
      "name": "ZeroClaimAmount",
      "inputs": []
    }
  ],
  "bytecode": {
    "object": "0x60a03461008857601f611be838819003918201601f19168301916001600160401b0383118484101761008c5780849260209460405283398101031261008857516001600160a01b03811681036100885760805261005a6100a0565b6100626100a0565b604051611a9190816101378239608051818181610a0e01528181610ae101526115010152f35b5f80fd5b634e487b7160e01b5f52604160045260245ffd5b5f516020611bc85f395f51905f525460ff8160401c16610127576002600160401b03196001600160401b038216016100d55750565b6001600160401b0319166001600160401b039081175f516020611bc85f395f51905f52556040519081527fc7f505b2f371ae2175ee4913f4499e1f2633a7b5936321eed1cdaeb6115181d290602090a1565b63f92ee8a960e01b5f5260045ffdfe6080806040526004361015610012575f80fd5b5f3560e01c90816306fdde031461116757508063222abc111461113f57806322f3e2d41461110a5780632eb4a7ab146110ed5780633197cbb6146110d0578063429c6e5b1461104657806349df728c14610f5c5780634be7adee14610b15578063572b6c0514610ac1578063715018a614610a5a57806378e9792514610a3d5780637da0a877146109f95780638da5cb5b146109c5578063ae0b51df14610781578063cfdbf25414610766578063dac6270d14610744578063ed0ea232146101e9578063f2fde38b146101be578063f364c90c146101245763fc0c546a146100f8575f80fd5b34610120575f366003190112610120576001546040516001600160a01b039091168152602090f35b5f80fd5b3461012057604036600319011261012057600354604051633cd9324360e21b81526004803590820152602480359082015290602090829060449082906001600160a01b03165afa80156101b3576020915f91610186575b506040519015158152f35b6101a69150823d84116101ac575b61019e8183611286565b8101906113a9565b8261017b565b503d610194565b6040513d5f823e3d90fd5b34610120576020366003190112610120576101e76101da611240565b6101e26113c1565b611338565b005b346101205760c0366003190112610120576004356001600160401b03811161012057366023820112156101205780600401356001600160401b0381116106345760405191610241601f8301601f191660200184611286565b818352366024838301011161012057815f9260246020930183860137830101526024356001600160a01b0381169081900361012057604435906064356001600160a01b0381168103610120576084359260a435925f516020611a655f395f51905f52549560ff8760401c1615966001600160401b0381168015908161073c575b6001149081610732575b159081610729575b5061071a5767ffffffffffffffff1981166001175f516020611a655f395f51905f5255876106ee575b504286106106df57858511156106d057604051610398808201908282106001600160401b0383111761063457602091839161166d83393081520301905ff080156101b3576001600160a01b031693610352611641565b8151156106c15782156106b25783156106a3578415610694576040516318160ddd60e01b8152602081600481875afa9081610665575b5061039c57630f58058360e11b5f5260045ffd5b604051633cd9324360e21b81525f600482018190526024820152602081604481895afa9081610648575b506103da57632b58d96960e01b5f5260045ffd5b6103ee906103e6611641565b6101e2611641565b8051906001600160401b038211610634576104095f546112a7565b601f81116105cd575b50602090601f83116001146105375791807f6f7ee0cbd39a3eac4bdd3fffe695ed5a509c06080a238d4ced6e2881a9af7abc9896949260409896945f9261052c575b50508160011b915f199060031b1c1916175f555b6bffffffffffffffffffffffff60a01b60015416176001556002556bffffffffffffffffffffffff60a01b60035416176003556104a3611641565b6104ab611641565b60015f516020611a455f395f51905f5255816004558060055582519182526020820152a16104d557005b68ff0000000000000000195f516020611a655f395f51905f5254165f516020611a655f395f51905f52557fc7f505b2f371ae2175ee4913f4499e1f2633a7b5936321eed1cdaeb6115181d2602060405160018152a1005b015190508a80610454565b90601f198316915f80525f516020611a255f395f51905f52925f5b8181106105b5575092600192859260409a98967f6f7ee0cbd39a3eac4bdd3fffe695ed5a509c06080a238d4ced6e2881a9af7abc9c9a98961061059d575b505050811b015f55610468565b01515f1960f88460031b161c191690558a8080610590565b92936020600181928786015181550195019301610552565b5f8052601f830160051c5f516020611a255f395f51905f5201906020841061061f575b601f0160051c5f516020611a255f395f51905f5201905b8181106106145750610412565b5f8155600101610607565b5f516020611a255f395f51905f5291506105f0565b634e487b7160e01b5f52604160045260245ffd5b6106609060203d6020116101ac5761019e8183611286565b6103c6565b6020813d60201161068c575b8161067e60209383611286565b810103126101205751610388565b3d9150610671565b632b58d96960e01b5f5260045ffd5b639dd854d360e01b5f5260045ffd5b630f58058360e11b5f5260045ffd5b632e43296560e01b5f5260045ffd5b6338af65f760e01b5f5260045ffd5b632ca4094f60e21b5f5260045ffd5b68ffffffffffffffffff191668010000000000000001175f516020611a655f395f51905f5255876102fc565b63f92ee8a960e01b5f5260045ffd5b905015896102d3565b303b1591506102cb565b8991506102c1565b34610120575f36600319011261012057602061075e611303565b604051908152f35b34610120575f36600319011261012057602060405160648152f35b34610120576060366003190112610120576024356004356044356001600160401b038111610120576107b7903690600401611256565b919060045442106109b65760055442116109a7576107d36114a2565b6107db6114fe565b9084156109985760018060a01b036003541693604051633cd9324360e21b8152846004820152866024820152602081604481895afa9081156101b3575f91610979575b5061096a5761082f91868486611557565b1561095b57604051635ea05ef360e11b8152600481018390526024810185905260448101859052602081606481875afa9081156101b3575f9161093c575b501561092d57823b156101205760405163762ba3ff60e11b8152600481018390526024810185905260448101859052925f908490606490829084905af19182156101b3577f987d620f307ff6b94d58743cb7a7509f24071586a77759b77c2d4e29f75a2f9a9360409361091d575b506001546108f590869084906001600160a01b0316611414565b825194855260208501526001600160a01b031692a260015f516020611a455f395f51905f5255005b5f61092791611286565b856108db565b63843ce46b60e01b5f5260045ffd5b610955915060203d6020116101ac5761019e8183611286565b8561086d565b63582f497d60e11b5f5260045ffd5b63b708ca1560e01b5f5260045ffd5b610992915060203d6020116101ac5761019e8183611286565b8761081e565b6360640efd60e11b5f5260045ffd5b63061ddd4f60e51b5f5260045ffd5b63b820fc9760e01b5f5260045ffd5b34610120575f366003190112610120575f516020611a055f395f51905f52546040516001600160a01b039091168152602090f35b34610120575f366003190112610120576040517f00000000000000000000000000000000000000000000000000000000000000006001600160a01b03168152602090f35b34610120575f366003190112610120576020600454604051908152f35b34610120575f36600319011261012057610a726113c1565b5f516020611a055f395f51905f5280546001600160a01b031981169091555f906001600160a01b03167f8be0079c531659141344cd1fd0a4f28419497f9722a3daafe3b4186f6b6457e08280a3005b34610120576020366003190112610120576020610adc611240565b6040517f00000000000000000000000000000000000000000000000000000000000000006001600160a01b039081169216919091148152f35b34610120576060366003190112610120576004356001600160401b03811161012057610b45903690600401611256565b6024356001600160401b03811161012057610b64903690600401611256565b90916044356001600160401b03811161012057610b85903690600401611256565b91909460045442106109b65760055442116109a757610ba26114a2565b60648211610f4d57610bb26114fe565b93610bbc816112df565b95610bca6040519788611286565b818752602087018260051b8201903682116101205782905b828210610f3d5750505086518281861491821592610f32575b50508015610f28575b610f1957959396905f96610c17856112df565b95610c256040519788611286565b858752610c31866112df565b602088019a90601f1901368c375f945b878610610d275750505050505084610c67575b60015f516020611a455f395f51905f5255005b600154610c8090869086906001600160a01b0316611414565b60405194855260606020860181905285018290526001600160fb1b0382116101205760a09160051b80916080870137840160808101926080868303016040870152518093520193905f5b818110610d11575050506001600160a01b0316917fb9df54cb8716695fe6cd84e5e4b88eca0d9c862970bcd45797aabb77d71b48ee919081900390a2808080808080610c54565b8251865260209586019590920191600101610cca565b909192939499610d388b89896114da565b359a610d4481866114ea565b519b610d518289896114da565b359085831015610f05578260051b850135601e1986360301811215610120578501916001600160401b0383351161012057823560051b36036020840113610120578e156109985760018060a01b036003541692604051633cd9324360e21b8152836004820152826024820152602081604481885afa9081156101b3575f91610ee7575b5061096a57808f836020610dec943593019186611557565b1561095b57610e268f826020916040519384928392635ea05ef360e11b845288600485016040919493926060820195825260208201520152565b0381875afa9081156101b3575f91610ec9575b501561092d57823b156101205760405163762ba3ff60e11b81526004810192909252602482018f90526044820152905f908290606490829084905af180156101b357610eb9575b508b8201809211610ea5576001919b610e99828c6114ea565b52019493929190610c41565b634e487b7160e01b5f52601160045260245ffd5b5f610ec391611286565b8d610e80565b610ee1915060203d81116101ac5761019e8183611286565b5f610e39565b610eff915060203d81116101ac5761019e8183611286565b5f610dd4565b634e487b7160e01b5f52603260045260245ffd5b632c635df560e11b5f5260045ffd5b5084821415610c04565b14159050828a610bfb565b8135815260209182019101610be2565b632a8677b560e21b5f5260045ffd5b3461012057602036600319011261012057610f75611240565b610f7d6113c1565b6001600160a01b038116908115611037576001546040516370a0823160e01b815230600482015291906001600160a01b0316602083602481845afa9283156101b3575f93610fff575b5091610ff6816020937f6352c5382c4a4578e712449ca65e83cdb392d045dfcf1cad9615189db2da244b95611414565b604051908152a2005b9250906020833d60201161102f575b8161101b60209383611286565b810103126101205791519190610ff6610fc6565b3d915061100e565b634261081360e11b5f5260045ffd5b346101205760203660031901126101205760035460405163429c6e5b60e01b8152600480359082015290602090829060249082906001600160a01b03165afa80156101b3575f9061109d575b602090604051908152f35b506020813d6020116110c8575b816110b760209383611286565b810103126101205760209051611092565b3d91506110aa565b34610120575f366003190112610120576020600554604051908152f35b34610120575f366003190112610120576020600254604051908152f35b34610120575f3660031901126101205760045442101580611133575b6020906040519015158152f35b50600554421115611126565b34610120575f366003190112610120576003546040516001600160a01b039091168152602090f35b34610120575f366003190112610120575f905f5491611185836112a7565b80835260208301936001811690811561122557506001146111dc575b50906111b1816040930382611286565b8151928391602083525180918160208501528484015e5f828201840152601f01601f19168101030190f35b5f8080525f516020611a255f395f51905f52939250905b80821061120b575090915081016020016111b16111a1565b9192600181602092548385880101520191019092916111f3565b60ff1916855250151560051b820160200190506111b16111a1565b600435906001600160a01b038216820361012057565b9181601f84011215610120578235916001600160401b038311610120576020808501948460051b01011161012057565b90601f801991011681019081106001600160401b0382111761063457604052565b90600182811c921680156112d5575b60208310146112c157565b634e487b7160e01b5f52602260045260245ffd5b91607f16916112b6565b6001600160401b0381116106345760051b60200190565b91908203918211610ea557565b6004548042105f1461131d5761131a9042906112f6565b90565b506005544281106113335761131a9042906112f6565b505f90565b6001600160a01b03168015611396575f516020611a055f395f51905f5280546001600160a01b0319811683179091556001600160a01b03167f8be0079c531659141344cd1fd0a4f28419497f9722a3daafe3b4186f6b6457e05f80a3565b631e4fbdf760e01b5f525f60045260245ffd5b90816020910312610120575180151581036101205790565b5f516020611a055f395f51905f52546001600160a01b03908116906113e46114fe565b16036113ec57565b6113f46114fe565b63118cdaa760e01b5f9081526001600160a01b0391909116600452602490fd5b60405163a9059cbb60e01b60208281019182526001600160a01b03909416602483015260448083019590955293815290925f91611452606482611286565b519082855af1156101b3575f513d61149957506001600160a01b0381163b155b6114795750565b635274afe760e01b5f9081526001600160a01b0391909116600452602490fd5b60011415611472565b60025f516020611a455f395f51905f5254146114cb5760025f516020611a455f395f51905f5255565b633ee5aeb560e01b5f5260045ffd5b9190811015610f055760051b0190565b8051821015610f055760209160051b010190565b337f00000000000000000000000000000000000000000000000000000000000000006001600160a01b0316148061154c575b15611548576013193601368111610ea5573560601c90565b3390565b506014361015611530565b9194929394604051916020830193845260018060a01b03166040830152606082015260608152611588608082611286565b51902060405160208101918252602081526115a4604082611286565b519020600254926115b4856112df565b946115c26040519687611286565b808652602086019060051b82019136831161012057905b82821061163157505050905f915b8451831015611629576115fa83866114ea565b519081811015611618575f52602052600160405f205b9201916115e7565b905f52602052600160405f20611610565b915092501490565b81358152602091820191016115d9565b60ff5f516020611a655f395f51905f525460401c161561165d57565b631afcd79f60e31b5f5260045ffdfe60803460b857601f61039838819003918201601f19168301916001600160401b0383118484101760bc5780849260209460405283398101031260b857516001600160a01b0381169081900360b857801560a5575f80546001600160a01b031981168317825560405192916001600160a01b03909116907f8be0079c531659141344cd1fd0a4f28419497f9722a3daafe3b4186f6b6457e09080a36102c790816100d18239f35b631e4fbdf760e01b5f525f60045260245ffd5b5f80fd5b634e487b7160e01b5f52604160045260245ffdfe6080806040526004361015610012575f80fd5b5f3560e01c908163429c6e5b1461023357508063715018a6146101dc5780638da5cb5b146101b5578063bd40bde614610186578063ec5747fe14610125578063f2fde38b1461009c5763f364c90c14610069575f80fd5b34610098576040366003190112610098576004355f526001602052602060243560405f20541015604051908152f35b5f80fd5b34610098576020366003190112610098576004356001600160a01b03811690819003610098576100ca610294565b8015610112575f80546001600160a01b03198116831782556001600160a01b0316907f8be0079c531659141344cd1fd0a4f28419497f9722a3daafe3b4186f6b6457e09080a3005b631e4fbdf760e01b5f525f60045260245ffd5b346100985760407f08401774913e94f43659333293c99fdfdea868c488d679967e054abc8b5ae83461015636610259565b610161949294610294565b845f526001602052825f20610177838254610273565b905582519182526020820152a2005b346100985760206101ab61019936610259565b92915f526001845260405f2054610273565b1115604051908152f35b34610098575f366003190112610098575f546040516001600160a01b039091168152602090f35b34610098575f366003190112610098576101f4610294565b5f80546001600160a01b0319811682556001600160a01b03167f8be0079c531659141344cd1fd0a4f28419497f9722a3daafe3b4186f6b6457e08280a3005b34610098576020366003190112610098576020906004355f526001825260405f20548152f35b606090600319011261009857600435906024359060443590565b9190820180921161028057565b634e487b7160e01b5f52601160045260245ffd5b5f546001600160a01b031633036102a757565b63118cdaa760e01b5f523360045260245ffdfea164736f6c634300081c000a9016d09d72d40fdae2fd8ceac6b6234c7706214fd39c1cd1e609a0528c199300290decd9548b62a8d60345a988386fc84ba6bc95484008f6362f93160ef3e5639b779b17422d0df92223018b32b4d1fa46e071723d6817e2486d003becc55f00f0c57e16840df040f15088dc2f81fe391c3923bec73e23a9662efc9c229c6a00a164736f6c634300081c000af0c57e16840df040f15088dc2f81fe391c3923bec73e23a9662efc9c229c6a00",
    "linkReferences": {}
  },
  "methodIdentifiers": {
    "MAX_BATCH_SIZE()": "cfdbf254",
    "batchClaim(uint256[],uint256[],bytes32[][])": "4be7adee",
    "claim(uint256,uint256,bytes32[])": "ae0b51df",
    "claimTracker()": "222abc11",
    "endTime()": "3197cbb6",
    "getClaimedAmount(uint256)": "429c6e5b",
    "getTimeRemaining()": "dac6270d",
    "initialize(string,address,bytes32,address,uint256,uint256)": "ed0ea232",
    "isActive()": "22f3e2d4",
    "isClaimed(uint256,uint256)": "f364c90c",
    "isTrustedForwarder(address)": "572b6c05",
    "merkleRoot()": "2eb4a7ab",
    "name()": "06fdde03",
    "owner()": "8da5cb5b",
    "renounceOwnership()": "715018a6",
    "startTime()": "78e97925",
    "token()": "fc0c546a",
    "transferOwnership(address)": "f2fde38b",
    "trustedForwarder()": "7da0a877",
    "withdrawTokens(address)": "49df728c"
  },
  "userdoc": {
    "version": 1,
    "kind": "user",
    "methods": {
      "MAX_BATCH_SIZE()": {
        "notice": "Maximum number of items allowed in batch operations to prevent OOM and gas limit issues."
      },
      "batchClaim(uint256[],uint256[],bytes32[][])": {
        "notice": "Claims multiple airdrop allocations for the caller in a single transaction."
      },
      "claim(uint256,uint256,bytes32[])": {
        "notice": "Claims an airdrop allocation for the caller within the time window."
      },
      "claimTracker()": {
        "notice": "Returns the claim tracker contract."
      },
      "endTime()": {
        "notice": "Returns the end time when claims are no longer available."
      },
      "getClaimedAmount(uint256)": {
        "notice": "Gets the amount already claimed for a specific index."
      },
      "getTimeRemaining()": {
        "notice": "Returns the time remaining until the airdrop starts (if not started) or ends (if active)."
      },
      "initialize(string,address,bytes32,address,uint256,uint256)": {
        "notice": "Initializes the time-bound airdrop contract with specified parameters."
      },
      "isActive()": {
        "notice": "Checks if the airdrop is currently active (within the time window)."
      },
      "isClaimed(uint256,uint256)": {
        "notice": "Checks if a claim has been fully claimed for a specific index."
      },
      "merkleRoot()": {
        "notice": "Returns the Merkle root for verifying airdrop claims."
      },
      "name()": {
        "notice": "Returns the name of this airdrop."
      },
      "startTime()": {
        "notice": "Returns the start time when claims become available."
      },
      "token()": {
        "notice": "Returns the token being distributed in this airdrop."
      },
      "withdrawTokens(address)": {
        "notice": "Allows the owner to withdraw any tokens remaining in the contract."
      }
    },
    "events": {
      "BatchClaimed(address,uint256,uint256[],uint256[])": {
        "notice": "Emitted when a user claims multiple allocations in a single transaction."
      },
      "Claimed(address,uint256,uint256)": {
        "notice": "Emitted when a user successfully claims their airdrop allocation."
      },
      "TimeWindowSet(uint256,uint256)": {
        "notice": "Emitted when the time window for the airdrop is set or updated."
      },
      "TokensWithdrawn(address,uint256)": {
        "notice": "Emitted when the contract owner withdraws unclaimed tokens."
      }
    },
    "errors": {
      "AirdropEnded()": [
        {
          "notice": "Thrown when attempting to claim after the airdrop has ended."
        }
      ],
      "AirdropNotStarted()": [
        {
          "notice": "Thrown when attempting to claim before the airdrop has started."
        }
      ],
      "BatchSizeExceedsLimit()": [
        {
          "notice": "Error indicating that the batch size exceeds the maximum allowed limit."
        }
      ],
      "IndexAlreadyClaimed()": [
        {
          "notice": "Error indicating that a claim is attempted for an index that has already been claimed."
        }
      ],
      "InvalidAirdropName()": [
        {
          "notice": "Thrown when the airdrop name is empty or invalid."
        }
      ],
      "InvalidClaimAmount()": [
        {
          "notice": "Error indicating that the claim amount exceeds the total allocated amount for the index."
        }
      ],
      "InvalidClaimTrackerAddress()": [
        {
          "notice": "Error indicating that an invalid claim tracker address was provided."
        }
      ],
      "InvalidEndTime()": [
        {
          "notice": "Thrown when the provided end time is invalid (e.g., before start time)."
        }
      ],
      "InvalidInputArrayLengths()": [
        {
          "notice": "Error indicating that input array lengths do not match in batch operations."
        }
      ],
      "InvalidMerkleProof()": [
        {
          "notice": "Error indicating that a provided Merkle proof is invalid for the claim parameters."
        }
      ],
      "InvalidMerkleRoot()": [
        {
          "notice": "Error indicating that a provided Merkle root is invalid."
        }
      ],
      "InvalidStartTime()": [
        {
          "notice": "Thrown when the provided start time is invalid (e.g., in the past)."
        }
      ],
      "InvalidTimeWindow()": [
        {
          "notice": "Thrown when the time window configuration is invalid."
        }
      ],
      "InvalidTokenAddress()": [
        {
          "notice": "Error indicating that an invalid token address was provided."
        }
      ],
      "InvalidWithdrawalAddress()": [
        {
          "notice": "Error indicating that an invalid withdrawal address was provided."
        }
      ],
      "ZeroClaimAmount()": [
        {
          "notice": "Error indicating that the claim amount is zero."
        }
      ]
    },
    "notice": "Implementation of a time-bound airdrop contract where claims are restricted to a specific time window in the ATK Protocol."
  },
  "devdoc": {
    "version": 1,
    "kind": "dev",
    "author": "SettleMint Tokenization Services",
    "details": "This contract implements a time-restricted claim system where:      - Claims can only be made within a specified time window (startTime to endTime)      - Users can claim their full allocation or partial amounts      - Uses Merkle proof verification for secure claim validation      - Tracks claimed amounts using ATKAmountClaimTracker for partial claims support      - Supports both single and batch claims      - Extends ATKAirdrop base functionality with time constraints      The contract is designed for standard airdrops where all users can claim during the active period.",
    "methods": {
      "batchClaim(uint256[],uint256[],bytes32[][])": {
        "details": "Batch version for gas efficiency. Uses onlyActive modifier for time validation.",
        "params": {
          "indices": "The indices of the claims in the Merkle tree.",
          "merkleProofs": "The Merkle proof arrays for verification of each claim.",
          "totalAmounts": "The total amounts allocated for each index."
        }
      },
      "claim(uint256,uint256,bytes32[])": {
        "details": "Validates time constraints, Merkle proof, and processes claims.",
        "params": {
          "index": "The index of the claim in the Merkle tree.",
          "merkleProof": "The Merkle proof array for verification.",
          "totalAmount": "The total amount allocated for this index."
        }
      },
      "claimTracker()": {
        "returns": {
          "_0": "The claim tracker contract."
        }
      },
      "constructor": {
        "params": {
          "forwarder_": "The address of the forwarder contract."
        }
      },
      "endTime()": {
        "returns": {
          "_0": "The timestamp when claims end."
        }
      },
      "getClaimedAmount(uint256)": {
        "params": {
          "index": "The index to check."
        },
        "returns": {
          "_0": "claimedAmount The amount already claimed for this index."
        }
      },
      "getTimeRemaining()": {
        "returns": {
          "timeRemaining": "The number of seconds remaining, 0 if ended."
        }
      },
      "initialize(string,address,bytes32,address,uint256,uint256)": {
        "details": "Sets up the base airdrop functionality and time-bound specific parameters.      Deploys its own amount claim tracker for partial claims support.",
        "params": {
          "endTime_": "The timestamp when claims end.",
          "name_": "The human-readable name for this airdrop.",
          "owner_": "The initial owner of the contract.",
          "root_": "The Merkle root for verifying claims.",
          "startTime_": "The timestamp when claims can begin.",
          "token_": "The address of the ERC20 token to be distributed."
        }
      },
      "isActive()": {
        "returns": {
          "active": "True if the current time is within the claim window."
        }
      },
      "isClaimed(uint256,uint256)": {
        "params": {
          "index": "The index to check in the Merkle tree.",
          "totalAmount": "The total amount allocated for this index."
        },
        "returns": {
          "_0": "claimed True if the index has been fully claimed, false otherwise."
        }
      },
      "isTrustedForwarder(address)": {
        "details": "Indicates whether any particular address is the trusted forwarder."
      },
      "merkleRoot()": {
        "returns": {
          "_0": "The Merkle root for verifying airdrop claims."
        }
      },
      "name()": {
        "returns": {
          "_0": "The human-readable name of the airdrop."
        }
      },
      "owner()": {
        "details": "Returns the address of the current owner."
      },
      "renounceOwnership()": {
        "details": "Leaves the contract without owner. It will not be possible to call `onlyOwner` functions. Can only be called by the current owner. NOTE: Renouncing ownership will leave the contract without an owner, thereby disabling any functionality that is only available to the owner."
      },
      "startTime()": {
        "returns": {
          "_0": "The timestamp when claims can begin."
        }
      },
      "token()": {
        "returns": {
          "_0": "The ERC20 token being distributed."
        }
      },
      "transferOwnership(address)": {
        "details": "Transfers ownership of the contract to a new account (`newOwner`). Can only be called by the current owner."
      },
      "trustedForwarder()": {
        "details": "Returns the address of the trusted forwarder."
      },
      "withdrawTokens(address)": {
        "params": {
          "to": "The address to send the withdrawn tokens to."
        }
      }
    },
    "events": {
      "BatchClaimed(address,uint256,uint256[],uint256[])": {
        "params": {
          "amounts": "The amounts claimed for each index.",
          "claimant": "The address that claimed the tokens.",
          "indices": "The indices of the claims in the Merkle tree.",
          "totalAmount": "The total amount of tokens claimed in the batch."
        }
      },
      "Claimed(address,uint256,uint256)": {
        "params": {
          "amount": "The amount of tokens claimed.",
          "claimant": "The address that claimed the tokens.",
          "index": "The index of the claim in the Merkle tree."
        }
      },
      "Initialized(uint64)": {
        "details": "Triggered when the contract has been initialized or reinitialized."
      },
      "TimeWindowSet(uint256,uint256)": {
        "params": {
          "endTime": "The timestamp when claims end.",
          "startTime": "The timestamp when claims can begin."
        }
      },
      "TokensWithdrawn(address,uint256)": {
        "params": {
          "amount": "The amount of tokens withdrawn.",
          "to": "The address receiving the withdrawn tokens."
        }
      }
    },
    "errors": {
      "InvalidInitialization()": [
        {
          "details": "The contract is already initialized."
        }
      ],
      "NotInitializing()": [
        {
          "details": "The contract is not initializing."
        }
      ],
      "OwnableInvalidOwner(address)": [
        {
          "details": "The owner is not a valid owner account. (eg. `address(0)`)"
        }
      ],
      "OwnableUnauthorizedAccount(address)": [
        {
          "details": "The caller account is not authorized to perform an operation."
        }
      ],
      "ReentrancyGuardReentrantCall()": [
        {
          "details": "Unauthorized reentrant call."
        }
      ],
      "SafeERC20FailedOperation(address)": [
        {
          "details": "An operation with an ERC-20 token failed."
        }
      ]
    },
    "title": "ATK Time-Bound Airdrop Implementation"
  },
  "id": 12
}