{
  "abi": [
    {
      "type": "constructor",
      "inputs": [
        {
          "name": "forwarder_",
          "type": "address",
          "internalType": "address"
        }
      ],
      "stateMutability": "nonpayable"
    },
    {
      "type": "function",
      "name": "MAX_BATCH_SIZE",
      "inputs": [],
      "outputs": [
        {
          "name": "",
          "type": "uint256",
          "internalType": "uint256"
        }
      ],
      "stateMutability": "view"
    },
    {
      "type": "function",
      "name": "batchClaim",
      "inputs": [
        {
          "name": "indices",
          "type": "uint256[]",
          "internalType": "uint256[]"
        },
        {
          "name": "totalAmounts",
          "type": "uint256[]",
          "internalType": "uint256[]"
        },
        {
          "name": "merkleProofs",
          "type": "bytes32[][]",
          "internalType": "bytes32[][]"
        }
      ],
      "outputs": [],
      "stateMutability": "nonpayable"
    },
    {
      "type": "function",
      "name": "batchInitializeVesting",
      "inputs": [
        {
          "name": "indices",
          "type": "uint256[]",
          "internalType": "uint256[]"
        },
        {
          "name": "totalAmounts",
          "type": "uint256[]",
          "internalType": "uint256[]"
        },
        {
          "name": "merkleProofs",
          "type": "bytes32[][]",
          "internalType": "bytes32[][]"
        }
      ],
      "outputs": [],
      "stateMutability": "nonpayable"
    },
    {
      "type": "function",
      "name": "claim",
      "inputs": [
        {
          "name": "index",
          "type": "uint256",
          "internalType": "uint256"
        },
        {
          "name": "totalAmount",
          "type": "uint256",
          "internalType": "uint256"
        },
        {
          "name": "merkleProof",
          "type": "bytes32[]",
          "internalType": "bytes32[]"
        }
      ],
      "outputs": [],
      "stateMutability": "nonpayable"
    },
    {
      "type": "function",
      "name": "claimPeriodEnd",
      "inputs": [],
      "outputs": [
        {
          "name": "",
          "type": "uint256",
          "internalType": "uint256"
        }
      ],
      "stateMutability": "view"
    },
    {
      "type": "function",
      "name": "claimTracker",
      "inputs": [],
      "outputs": [
        {
          "name": "",
          "type": "address",
          "internalType": "contract IATKClaimTracker"
        }
      ],
      "stateMutability": "view"
    },
    {
      "type": "function",
      "name": "getClaimedAmount",
      "inputs": [
        {
          "name": "index",
          "type": "uint256",
          "internalType": "uint256"
        }
      ],
      "outputs": [
        {
          "name": "",
          "type": "uint256",
          "internalType": "uint256"
        }
      ],
      "stateMutability": "view"
    },
    {
      "type": "function",
      "name": "getInitializationTimestamp",
      "inputs": [
        {
          "name": "index",
          "type": "uint256",
          "internalType": "uint256"
        }
      ],
      "outputs": [
        {
          "name": "",
          "type": "uint256",
          "internalType": "uint256"
        }
      ],
      "stateMutability": "view"
    },
    {
      "type": "function",
      "name": "initialize",
      "inputs": [
        {
          "name": "name_",
          "type": "string",
          "internalType": "string"
        },
        {
          "name": "token_",
          "type": "address",
          "internalType": "address"
        },
        {
          "name": "root_",
          "type": "bytes32",
          "internalType": "bytes32"
        },
        {
          "name": "owner_",
          "type": "address",
          "internalType": "address"
        },
        {
          "name": "vestingStrategy_",
          "type": "address",
          "internalType": "address"
        },
        {
          "name": "initializationDeadline_",
          "type": "uint256",
          "internalType": "uint256"
        }
      ],
      "outputs": [],
      "stateMutability": "nonpayable"
    },
    {
      "type": "function",
      "name": "initializeVesting",
      "inputs": [
        {
          "name": "index",
          "type": "uint256",
          "internalType": "uint256"
        },
        {
          "name": "totalAmount",
          "type": "uint256",
          "internalType": "uint256"
        },
        {
          "name": "merkleProof",
          "type": "bytes32[]",
          "internalType": "bytes32[]"
        }
      ],
      "outputs": [],
      "stateMutability": "nonpayable"
    },
    {
      "type": "function",
      "name": "isClaimed",
      "inputs": [
        {
          "name": "index",
          "type": "uint256",
          "internalType": "uint256"
        },
        {
          "name": "totalAmount",
          "type": "uint256",
          "internalType": "uint256"
        }
      ],
      "outputs": [
        {
          "name": "",
          "type": "bool",
          "internalType": "bool"
        }
      ],
      "stateMutability": "view"
    },
    {
      "type": "function",
      "name": "isTrustedForwarder",
      "inputs": [
        {
          "name": "forwarder",
          "type": "address",
          "internalType": "address"
        }
      ],
      "outputs": [
        {
          "name": "",
          "type": "bool",
          "internalType": "bool"
        }
      ],
      "stateMutability": "view"
    },
    {
      "type": "function",
      "name": "isVestingInitialized",
      "inputs": [
        {
          "name": "index",
          "type": "uint256",
          "internalType": "uint256"
        }
      ],
      "outputs": [
        {
          "name": "",
          "type": "bool",
          "internalType": "bool"
        }
      ],
      "stateMutability": "view"
    },
    {
      "type": "function",
      "name": "merkleRoot",
      "inputs": [],
      "outputs": [
        {
          "name": "",
          "type": "bytes32",
          "internalType": "bytes32"
        }
      ],
      "stateMutability": "view"
    },
    {
      "type": "function",
      "name": "name",
      "inputs": [],
      "outputs": [
        {
          "name": "",
          "type": "string",
          "internalType": "string"
        }
      ],
      "stateMutability": "view"
    },
    {
      "type": "function",
      "name": "owner",
      "inputs": [],
      "outputs": [
        {
          "name": "",
          "type": "address",
          "internalType": "address"
        }
      ],
      "stateMutability": "view"
    },
    {
      "type": "function",
      "name": "renounceOwnership",
      "inputs": [],
      "outputs": [],
      "stateMutability": "nonpayable"
    },
    {
      "type": "function",
      "name": "setVestingStrategy",
      "inputs": [
        {
          "name": "newVestingStrategy_",
          "type": "address",
          "internalType": "address"
        }
      ],
      "outputs": [],
      "stateMutability": "nonpayable"
    },
    {
      "type": "function",
      "name": "token",
      "inputs": [],
      "outputs": [
        {
          "name": "",
          "type": "address",
          "internalType": "contract IERC20"
        }
      ],
      "stateMutability": "view"
    },
    {
      "type": "function",
      "name": "transferOwnership",
      "inputs": [
        {
          "name": "newOwner",
          "type": "address",
          "internalType": "address"
        }
      ],
      "outputs": [],
      "stateMutability": "nonpayable"
    },
    {
      "type": "function",
      "name": "trustedForwarder",
      "inputs": [],
      "outputs": [
        {
          "name": "",
          "type": "address",
          "internalType": "address"
        }
      ],
      "stateMutability": "view"
    },
    {
      "type": "function",
      "name": "vestingStrategy",
      "inputs": [],
      "outputs": [
        {
          "name": "",
          "type": "address",
          "internalType": "contract IATKVestingStrategy"
        }
      ],
      "stateMutability": "view"
    },
    {
      "type": "function",
      "name": "withdrawTokens",
      "inputs": [
        {
          "name": "to",
          "type": "address",
          "internalType": "address"
        }
      ],
      "outputs": [],
      "stateMutability": "nonpayable"
    },
    {
      "type": "event",
      "name": "BatchClaimed",
      "inputs": [
        {
          "name": "claimant",
          "type": "address",
          "indexed": true,
          "internalType": "address"
        },
        {
          "name": "totalAmount",
          "type": "uint256",
          "indexed": false,
          "internalType": "uint256"
        },
        {
          "name": "indices",
          "type": "uint256[]",
          "indexed": false,
          "internalType": "uint256[]"
        },
        {
          "name": "amounts",
          "type": "uint256[]",
          "indexed": false,
          "internalType": "uint256[]"
        }
      ],
      "anonymous": false
    },
    {
      "type": "event",
      "name": "BatchVestingInitialized",
      "inputs": [
        {
          "name": "account",
          "type": "address",
          "indexed": true,
          "internalType": "address"
        },
        {
          "name": "indices",
          "type": "uint256[]",
          "indexed": false,
          "internalType": "uint256[]"
        },
        {
          "name": "totalAmounts",
          "type": "uint256[]",
          "indexed": false,
          "internalType": "uint256[]"
        }
      ],
      "anonymous": false
    },
    {
      "type": "event",
      "name": "Claimed",
      "inputs": [
        {
          "name": "claimant",
          "type": "address",
          "indexed": true,
          "internalType": "address"
        },
        {
          "name": "amount",
          "type": "uint256",
          "indexed": false,
          "internalType": "uint256"
        },
        {
          "name": "index",
          "type": "uint256",
          "indexed": false,
          "internalType": "uint256"
        }
      ],
      "anonymous": false
    },
    {
      "type": "event",
      "name": "Initialized",
      "inputs": [
        {
          "name": "version",
          "type": "uint64",
          "indexed": false,
          "internalType": "uint64"
        }
      ],
      "anonymous": false
    },
    {
      "type": "event",
      "name": "OwnershipTransferred",
      "inputs": [
        {
          "name": "previousOwner",
          "type": "address",
          "indexed": true,
          "internalType": "address"
        },
        {
          "name": "newOwner",
          "type": "address",
          "indexed": true,
          "internalType": "address"
        }
      ],
      "anonymous": false
    },
    {
      "type": "event",
      "name": "TokensWithdrawn",
      "inputs": [
        {
          "name": "to",
          "type": "address",
          "indexed": true,
          "internalType": "address"
        },
        {
          "name": "amount",
          "type": "uint256",
          "indexed": false,
          "internalType": "uint256"
        }
      ],
      "anonymous": false
    },
    {
      "type": "event",
      "name": "VestingInitialized",
      "inputs": [
        {
          "name": "account",
          "type": "address",
          "indexed": true,
          "internalType": "address"
        },
        {
          "name": "totalAmount",
          "type": "uint256",
          "indexed": false,
          "internalType": "uint256"
        },
        {
          "name": "index",
          "type": "uint256",
          "indexed": false,
          "internalType": "uint256"
        }
      ],
      "anonymous": false
    },
    {
      "type": "event",
      "name": "VestingStrategyUpdated",
      "inputs": [
        {
          "name": "oldStrategy",
          "type": "address",
          "indexed": true,
          "internalType": "address"
        },
        {
          "name": "newStrategy",
          "type": "address",
          "indexed": true,
          "internalType": "address"
        }
      ],
      "anonymous": false
    },
    {
      "type": "error",
      "name": "BatchSizeExceedsLimit",
      "inputs": []
    },
    {
      "type": "error",
      "name": "IndexAlreadyClaimed",
      "inputs": []
    },
    {
      "type": "error",
      "name": "InitializationDeadlinePassed",
      "inputs": []
    },
    {
      "type": "error",
      "name": "InvalidAirdropName",
      "inputs": []
    },
    {
      "type": "error",
      "name": "InvalidClaimAmount",
      "inputs": []
    },
    {
      "type": "error",
      "name": "InvalidClaimTrackerAddress",
      "inputs": []
    },
    {
      "type": "error",
      "name": "InvalidInitialization",
      "inputs": []
    },
    {
      "type": "error",
      "name": "InvalidInitializationDeadline",
      "inputs": []
    },
    {
      "type": "error",
      "name": "InvalidInputArrayLengths",
      "inputs": []
    },
    {
      "type": "error",
      "name": "InvalidMerkleProof",
      "inputs": []
    },
    {
      "type": "error",
      "name": "InvalidMerkleRoot",
      "inputs": []
    },
    {
      "type": "error",
      "name": "InvalidTokenAddress",
      "inputs": []
    },
    {
      "type": "error",
      "name": "InvalidVestingStrategy",
      "inputs": [
        {
          "name": "vestingStrategy",
          "type": "address",
          "internalType": "address"
        }
      ]
    },
    {
      "type": "error",
      "name": "InvalidVestingStrategyAddress",
      "inputs": []
    },
    {
      "type": "error",
      "name": "InvalidWithdrawalAddress",
      "inputs": []
    },
    {
      "type": "error",
      "name": "NotInitializing",
      "inputs": []
    },
    {
      "type": "error",
      "name": "OwnableInvalidOwner",
      "inputs": [
        {
          "name": "owner",
          "type": "address",
          "internalType": "address"
        }
      ]
    },
    {
      "type": "error",
      "name": "OwnableUnauthorizedAccount",
      "inputs": [
        {
          "name": "account",
          "type": "address",
          "internalType": "address"
        }
      ]
    },
    {
      "type": "error",
      "name": "ReentrancyGuardReentrantCall",
      "inputs": []
    },
    {
      "type": "error",
      "name": "SafeERC20FailedOperation",
      "inputs": [
        {
          "name": "token",
          "type": "address",
          "internalType": "address"
        }
      ]
    },
    {
      "type": "error",
      "name": "VestingAlreadyInitialized",
      "inputs": []
    },
    {
      "type": "error",
      "name": "VestingNotInitialized",
      "inputs": []
    },
    {
      "type": "error",
      "name": "ZeroAmountToTransfer",
      "inputs": []
    },
    {
      "type": "error",
      "name": "ZeroClaimAmount",
      "inputs": []
    }
  ],
  "bytecode": {
    "object": "0x60a03461008857601f61208138819003918201601f19168301916001600160401b0383118484101761008c5780849260209460405283398101031261008857516001600160a01b03811681036100885760805261005a6100a0565b6100626100a0565b604051611f2a90816101378239608051818181610b1001528181610bc60152611a840152f35b5f80fd5b634e487b7160e01b5f52604160045260245ffd5b5f5160206120615f395f51905f525460ff8160401c16610127576002600160401b03196001600160401b038216016100d55750565b6001600160401b0319166001600160401b039081175f5160206120615f395f51905f52556040519081527fc7f505b2f371ae2175ee4913f4499e1f2633a7b5936321eed1cdaeb6115181d290602090a1565b63f92ee8a960e01b5f5260045ffdfe6080806040526004361015610012575f80fd5b5f3560e01c90816306fdde03146114835750806310639fef146113d7578063222abc11146113af5780632eb4a7ab146113925780633da082a0146113755780633ecfea491461129457806341162b7514611153578063429c6e5b1461112d57806349df728c146110435780634be7adee14610c2457806352ae2c2014610bfa578063572b6c0514610ba6578063715018a614610b3f5780637da0a87714610afb5780638da5cb5b14610ac7578063ae0b51df1461080a578063bd3f22b2146107de578063cfdbf254146107c3578063db190a9f14610232578063f2fde38b14610207578063f364c90c1461016d578063f567fa9d146101455763fc0c546a14610119575f80fd5b34610141575f366003190112610141576001546040516001600160a01b039091168152602090f35b5f80fd5b34610141575f366003190112610141576004546040516001600160a01b039091168152602090f35b3461014157604036600319011261014157600354604051633cd9324360e21b81526004803590820152602480359082015290602090829060449082906001600160a01b03165afa80156101fc576020915f916101cf575b506040519015158152f35b6101ef9150823d84116101f5575b6101e78183611646565b81019061169f565b826101c4565b503d6101dd565b6040513d5f823e3d90fd5b34610141576020366003190112610141576102306102236115c2565b61022b6119a0565b61180d565b005b346101415760c0366003190112610141576004356001600160401b03811161014157366023820112156101415780600401356001600160401b03811161067f576040519161028a601f8301601f191660200184611646565b818352366024838301011161014157815f9260246020930183860137830101526024356001600160a01b038116919082900361014157604435916064356001600160a01b0381168103610141576084356001600160a01b03811694908590036101415760a435925f516020611efe5f395f51905f52549460ff8660401c1615956001600160401b038116801590816107bb575b60011490816107b1575b1590816107a8575b506107995767ffffffffffffffff1981166001175f516020611efe5f395f51905f52558661076d575b50861561075e574285111561074f57604051637c13428d60e11b81526020816004818b5afa5f918161072e575b5061039d5787632a4aa22360e11b5f5260045260245ffd5b969495961561071b57604051610398808201908282106001600160401b0383111761067f576020918391611b0683393081520301905ff080156101fc576001600160a01b0316936103ec611ada565b81511561070c5782156106fd5783156106ee5784156106df576040516318160ddd60e01b8152602081600481875afa90816106b0575b5061043657630f58058360e11b5f5260045ffd5b604051633cd9324360e21b81525f600482018190526024820152602081604481895afa9081610693575b5061047457632b58d96960e01b5f5260045ffd5b61048890610480611ada565b61022b611ada565b8051906001600160401b03821161067f5781906104a55f54611667565b601f811161060e575b50602090601f83116001146105a0575f92610595575b50508160011b915f199060031b1c1916175f555b6001600160601b0360a01b60015416176001556002556001600160601b0360a01b6003541617600355610509611ada565b610511611ada565b60015f516020611ede5f395f51905f52556001600160601b0360a01b600454161760045560055561053e57005b68ff0000000000000000195f516020611efe5f395f51905f5254165f516020611efe5f395f51905f52557fc7f505b2f371ae2175ee4913f4499e1f2633a7b5936321eed1cdaeb6115181d2602060405160018152a1005b0151905088806104c4565b5f8080525f516020611ebe5f395f51905f529350601f198516905b8181106105f657509084600195949392106105de575b505050811b015f556104d8565b01515f1960f88460031b161c191690558880806105d1565b929360206001819287860151815501950193016105bb565b9091505f8052601f830160051c5f516020611ebe5f395f51905f5201906020841061066a575b90601f8493920160051c5f516020611ebe5f395f51905f5201905b81811061065c57506104ae565b5f815584935060010161064f565b5f516020611ebe5f395f51905f529150610634565b634e487b7160e01b5f52604160045260245ffd5b6106ab9060203d6020116101f5576101e78183611646565b610460565b6020813d6020116106d7575b816106c960209383611646565b810103126101415751610422565b3d91506106bc565b632b58d96960e01b5f5260045ffd5b639dd854d360e01b5f5260045ffd5b630f58058360e11b5f5260045ffd5b632e43296560e01b5f5260045ffd5b84632a4aa22360e11b5f5260045260245ffd5b61074891925060203d6020116101f5576101e78183611646565b9089610385565b6310b2668560e11b5f5260045ffd5b6385d923df60e01b5f5260045ffd5b68ffffffffffffffffff191668010000000000000001175f516020611efe5f395f51905f525587610358565b63f92ee8a960e01b5f5260045ffd5b9050158961032f565b303b159150610327565b88915061031d565b34610141575f36600319011261014157602060405160648152f35b34610141576020366003190112610141576004355f526006602052602060405f20541515604051908152f35b34610141576108183661158c565b929061082261187e565b815f52600660205260405f205415610ab8576108a693825f52600660205260405f205491602061085185611743565b610859611a81565b600480546040516307a297ab60e01b81526001600160a01b0380851693820193909352602481018b9052604481019890985260648801939093529598909589921690829081906084820190565b03915afa9586156101fc575f96610a84575b508515610a755760018060a01b036003541691604051633cd9324360e21b8152856004820152866024820152602081604481875afa9081156101fc575f91610a56575b50610a475761090c918685876118b6565b15610a3857604051635ea05ef360e11b8152600481018490526024810186905260448101859052602081606481855afa9081156101fc575f91610a19575b5015610a0a57803b156101415760405163762ba3ff60e11b8152600481018490526024810186905260448101949094525f908490606490829084905af19182156101fc577f987d620f307ff6b94d58743cb7a7509f24071586a77759b77c2d4e29f75a2f9a936040936109fa575b506001546109d290869084906001600160a01b03166119f3565b825194855260208501526001600160a01b031692a260015f516020611ede5f395f51905f5255005b5f610a0491611646565b856109b8565b63843ce46b60e01b5f5260045ffd5b610a32915060203d6020116101f5576101e78183611646565b8661094a565b63582f497d60e11b5f5260045ffd5b63b708ca1560e01b5f5260045ffd5b610a6f915060203d6020116101f5576101e78183611646565b886108fb565b63723a162160e11b5f5260045ffd5b9095506020813d602011610ab0575b81610aa060209383611646565b81010312610141575194866108b8565b3d9150610a93565b63d2e8cc1760e01b5f5260045ffd5b34610141575f366003190112610141575f516020611e9e5f395f51905f52546040516001600160a01b039091168152602090f35b34610141575f366003190112610141576040517f00000000000000000000000000000000000000000000000000000000000000006001600160a01b03168152602090f35b34610141575f36600319011261014157610b576119a0565b5f516020611e9e5f395f51905f5280546001600160a01b031981169091555f906001600160a01b03167f8be0079c531659141344cd1fd0a4f28419497f9722a3daafe3b4186f6b6457e08280a3005b34610141576020366003190112610141576020610bc16115c2565b6040517f00000000000000000000000000000000000000000000000000000000000000006001600160a01b039081169216919091148152f35b34610141576020366003190112610141576004355f526006602052602060405f2054604051908152f35b3461014157610c32366115d8565b9391610c3f95919561187e565b606483116110345780831480159061102a575b610f2d57610c5e611a81565b93610c68846117c7565b6004546001600160a01b03165f5b868110610f5157505080518381871491821592610f46575b50508015610f3c575b610f2d579591905f96610ca9866117c7565b985f945b878610610d765750505050505083610cd3575b60015f516020611ede5f395f51905f5255005b610d0391610cec858560018060a01b03600154166119f3565b60405194855260606020860152606085019161171f565b8281036040840152602080855192838152019401905f5b818110610d60575050506001600160a01b0316917fb9df54cb8716695fe6cd84e5e4b88eca0d9c862970bcd45797aabb77d71b48ee919081900390a28080808080610cc0565b8251865260209586019590920191600101610d1a565b90919293949998610d888b89896116b7565b359a610d9481866117f9565b51809c610da2838a8a6116b7565b35610dae8487896116db565b9315610f1e5760018060a01b036003541693604051633cd9324360e21b8152846004820152836024820152602081604481895afa9081156101fc575f91610f00575b50610a4757610e02918f8490866118b6565b15610a3857610e3c8f826020916040519384928392635ea05ef360e11b845288600485016040919493926060820195825260208201520152565b0381875afa9081156101fc575f91610ee2575b5015610a0a57823b156101415760405163762ba3ff60e11b81526004810192909252602482018f90526044820152905f908290606490829084905af180156101fc57610ed2575b508b8201809211610ebe576001919b610eaf828d6117f9565b52019493929190999899610cad565b634e487b7160e01b5f52601160045260245ffd5b5f610edc91611646565b8c610e96565b610efa915060203d81116101f5576101e78183611646565b5f610e4f565b610f18915060203d81116101f5576101e78183611646565b5f610df0565b6360640efd60e11b5f5260045ffd5b632c635df560e11b5f5260045ffd5b5086831415610c97565b14159050838a610c8e565b610f5c8188886116b7565b3590815f52600660205260405f205415610ab8576020610f7d8288886116b7565b35835f52600682528a610fd1610f9760405f205496611743565b60405196879485946307a297ab60e01b86526004860190949392606092608083019660018060a01b03168352602083015260408201520152565b0381865afa80156101fc575f90610ff8575b60019250610ff182866117f9565b5201610c76565b506020823d8211611022575b8161101160209383611646565b810103126101415760019151610fe3565b3d9150611004565b5084811415610c52565b632a8677b560e21b5f5260045ffd5b346101415760203660031901126101415761105c6115c2565b6110646119a0565b6001600160a01b03811690811561111e576001546040516370a0823160e01b815230600482015291906001600160a01b0316602083602481845afa9283156101fc575f936110e6575b50916110dd816020937f6352c5382c4a4578e712449ca65e83cdb392d045dfcf1cad9615189db2da244b956119f3565b604051908152a2005b9250906020833d602011611116575b8161110260209383611646565b8101031261014157915191906110dd6110ad565b3d91506110f5565b634261081360e11b5f5260045ffd5b3461014157602036600319011261014157602061114b600435611743565b604051908152f35b3461014157611161366115d8565b61116f95939594929461187e565b606483116110345784831480159061128a575b610f2d5761118e611a81565b91600554421161127b575f5b848110611210575050506111fa907f8f59e3de0f866848efefecafdbbf1c97262b4187d7355cb68c9c6e50b6ead9a9946111e160405195869560408752604087019161171f565b84810360208601526001600160a01b039092169661171f565b0390a260015f516020611ede5f395f51905f5255005b61121b8186886116b7565b359061122881898b6116b7565b35825f52600660205260405f205461126c57611251906112498387876116db565b9188866118b6565b15610a38576001915f5260066020524260405f20550161119a565b638ef519d560e01b5f5260045ffd5b63df370ae560e01b5f5260045ffd5b5080851415611182565b34610141576020366003190112610141576112ad6115c2565b6112b56119a0565b6001600160a01b0316801561075e57604051637c13428d60e11b8152602081600481855afa5f9181611354575b506112fa5750632a4aa22360e11b5f5260045260245ffd5b1561134257600480546001600160a01b0319811683179091556001600160a01b03167fc831910db935648f19a9acfe07a53355b2d00e33523edf8b0b80aa48f6f5dca85f80a3005b632a4aa22360e11b5f5260045260245ffd5b61136e91925060203d6020116101f5576101e78183611646565b90836112e2565b34610141575f366003190112610141576020600554604051908152f35b34610141575f366003190112610141576020600254604051908152f35b34610141575f366003190112610141576003546040516001600160a01b039091168152602090f35b34610141576113e53661158c565b6113ed61187e565b835f52600660205260405f205461126c57600554421161127b5761141a9183611414611a81565b866118b6565b15610a38575f82815260066020526040908190204290557ffaf76b5ef3ee6a1b42c79e4744b2596312a788e7cbbaee17f2db55bfc304f7de916001600160a01b03611463611a81565b169382519182526020820152a260015f516020611ede5f395f51905f5255005b34610141575f366003190112610141575f905f54916114a183611667565b80835260208301936001811690811561154157506001146114f8575b50906114cd816040930382611646565b8151928391602083525180918160208501528484015e5f828201840152601f01601f19168101030190f35b5f8080525f516020611ebe5f395f51905f52939250905b808210611527575090915081016020016114cd6114bd565b91926001816020925483858801015201910190929161150f565b60ff1916855250151560051b820160200190506114cd6114bd565b9181601f84011215610141578235916001600160401b038311610141576020808501948460051b01011161014157565b6060600319820112610141576004359160243591604435906001600160401b038211610141576115be9160040161155c565b9091565b600435906001600160a01b038216820361014157565b6060600319820112610141576004356001600160401b03811161014157816116029160040161155c565b929092916024356001600160401b03811161014157816116249160040161155c565b92909291604435906001600160401b038211610141576115be9160040161155c565b90601f801991011681019081106001600160401b0382111761067f57604052565b90600182811c92168015611695575b602083101461168157565b634e487b7160e01b5f52602260045260245ffd5b91607f1691611676565b90816020910312610141575180151581036101415790565b91908110156116c75760051b0190565b634e487b7160e01b5f52603260045260245ffd5b91908110156116c75760051b81013590601e19813603018212156101415701908135916001600160401b038311610141576020018260051b36038113610141579190565b81835290916001600160fb1b0383116101415760209260051b809284830137010190565b60035460405163429c6e5b60e01b81526004810192909252602090829060249082906001600160a01b03165afa9081156101fc575f91611781575090565b90506020813d6020116117a8575b8161179c60209383611646565b81010312610141575190565b3d915061178f565b6001600160401b03811161067f5760051b60200190565b906117d1826117b0565b6117de6040519182611646565b82815280926117ef601f19916117b0565b0190602036910137565b80518210156116c75760209160051b010190565b6001600160a01b0316801561186b575f516020611e9e5f395f51905f5280546001600160a01b0319811683179091556001600160a01b03167f8be0079c531659141344cd1fd0a4f28419497f9722a3daafe3b4186f6b6457e05f80a3565b631e4fbdf760e01b5f525f60045260245ffd5b60025f516020611ede5f395f51905f5254146118a75760025f516020611ede5f395f51905f5255565b633ee5aeb560e01b5f5260045ffd5b9194929394604051916020830193845260018060a01b031660408301526060820152606081526118e7608082611646565b5190206040516020810191825260208152611903604082611646565b51902060025492611913856117b0565b946119216040519687611646565b808652602086019060051b82019136831161014157905b82821061199057505050905f915b84518310156119885761195983866117f9565b519081811015611977575f52602052600160405f205b920191611946565b905f52602052600160405f2061196f565b915092501490565b8135815260209182019101611938565b5f516020611e9e5f395f51905f52546001600160a01b03908116906119c3611a81565b16036119cb57565b6119d3611a81565b63118cdaa760e01b5f9081526001600160a01b0391909116600452602490fd5b60405163a9059cbb60e01b60208281019182526001600160a01b03909416602483015260448083019590955293815290925f91611a31606482611646565b519082855af1156101fc575f513d611a7857506001600160a01b0381163b155b611a585750565b635274afe760e01b5f9081526001600160a01b0391909116600452602490fd5b60011415611a51565b337f00000000000000000000000000000000000000000000000000000000000000006001600160a01b03161480611acf575b15611acb576013193601368111610ebe573560601c90565b3390565b506014361015611ab3565b60ff5f516020611efe5f395f51905f525460401c1615611af657565b631afcd79f60e31b5f5260045ffdfe60803460b857601f61039838819003918201601f19168301916001600160401b0383118484101760bc5780849260209460405283398101031260b857516001600160a01b0381169081900360b857801560a5575f80546001600160a01b031981168317825560405192916001600160a01b03909116907f8be0079c531659141344cd1fd0a4f28419497f9722a3daafe3b4186f6b6457e09080a36102c790816100d18239f35b631e4fbdf760e01b5f525f60045260245ffd5b5f80fd5b634e487b7160e01b5f52604160045260245ffdfe6080806040526004361015610012575f80fd5b5f3560e01c908163429c6e5b1461023357508063715018a6146101dc5780638da5cb5b146101b5578063bd40bde614610186578063ec5747fe14610125578063f2fde38b1461009c5763f364c90c14610069575f80fd5b34610098576040366003190112610098576004355f526001602052602060243560405f20541015604051908152f35b5f80fd5b34610098576020366003190112610098576004356001600160a01b03811690819003610098576100ca610294565b8015610112575f80546001600160a01b03198116831782556001600160a01b0316907f8be0079c531659141344cd1fd0a4f28419497f9722a3daafe3b4186f6b6457e09080a3005b631e4fbdf760e01b5f525f60045260245ffd5b346100985760407f08401774913e94f43659333293c99fdfdea868c488d679967e054abc8b5ae83461015636610259565b610161949294610294565b845f526001602052825f20610177838254610273565b905582519182526020820152a2005b346100985760206101ab61019936610259565b92915f526001845260405f2054610273565b1115604051908152f35b34610098575f366003190112610098575f546040516001600160a01b039091168152602090f35b34610098575f366003190112610098576101f4610294565b5f80546001600160a01b0319811682556001600160a01b03167f8be0079c531659141344cd1fd0a4f28419497f9722a3daafe3b4186f6b6457e08280a3005b34610098576020366003190112610098576020906004355f526001825260405f20548152f35b606090600319011261009857600435906024359060443590565b9190820180921161028057565b634e487b7160e01b5f52601160045260245ffd5b5f546001600160a01b031633036102a757565b63118cdaa760e01b5f523360045260245ffdfea164736f6c634300081c000a9016d09d72d40fdae2fd8ceac6b6234c7706214fd39c1cd1e609a0528c199300290decd9548b62a8d60345a988386fc84ba6bc95484008f6362f93160ef3e5639b779b17422d0df92223018b32b4d1fa46e071723d6817e2486d003becc55f00f0c57e16840df040f15088dc2f81fe391c3923bec73e23a9662efc9c229c6a00a164736f6c634300081c000af0c57e16840df040f15088dc2f81fe391c3923bec73e23a9662efc9c229c6a00",
    "linkReferences": {}
  },
  "methodIdentifiers": {
    "MAX_BATCH_SIZE()": "cfdbf254",
    "batchClaim(uint256[],uint256[],bytes32[][])": "4be7adee",
    "batchInitializeVesting(uint256[],uint256[],bytes32[][])": "41162b75",
    "claim(uint256,uint256,bytes32[])": "ae0b51df",
    "claimPeriodEnd()": "3da082a0",
    "claimTracker()": "222abc11",
    "getClaimedAmount(uint256)": "429c6e5b",
    "getInitializationTimestamp(uint256)": "52ae2c20",
    "initialize(string,address,bytes32,address,address,uint256)": "db190a9f",
    "initializeVesting(uint256,uint256,bytes32[])": "10639fef",
    "isClaimed(uint256,uint256)": "f364c90c",
    "isTrustedForwarder(address)": "572b6c05",
    "isVestingInitialized(uint256)": "bd3f22b2",
    "merkleRoot()": "2eb4a7ab",
    "name()": "06fdde03",
    "owner()": "8da5cb5b",
    "renounceOwnership()": "715018a6",
    "setVestingStrategy(address)": "3ecfea49",
    "token()": "fc0c546a",
    "transferOwnership(address)": "f2fde38b",
    "trustedForwarder()": "7da0a877",
    "vestingStrategy()": "f567fa9d",
    "withdrawTokens(address)": "49df728c"
  },
  "userdoc": {
    "version": 1,
    "kind": "user",
    "methods": {
      "MAX_BATCH_SIZE()": {
        "notice": "Maximum number of items allowed in batch operations to prevent OOM and gas limit issues."
      },
      "batchClaim(uint256[],uint256[],bytes32[][])": {
        "notice": "Claims vested tokens for multiple allocations in a single transaction."
      },
      "batchInitializeVesting(uint256[],uint256[],bytes32[][])": {
        "notice": "Initializes vesting for multiple allocations in a single transaction."
      },
      "claim(uint256,uint256,bytes32[])": {
        "notice": "Claims vested tokens for a specific allocation after vesting initialization."
      },
      "claimPeriodEnd()": {
        "notice": "Returns the claim period end timestamp."
      },
      "claimTracker()": {
        "notice": "Returns the claim tracker contract."
      },
      "getClaimedAmount(uint256)": {
        "notice": "Gets the amount already claimed for a specific index."
      },
      "getInitializationTimestamp(uint256)": {
        "notice": "Returns the initialization timestamp for a specific claim index."
      },
      "initialize(string,address,bytes32,address,address,uint256)": {
        "notice": "Initializes the vesting airdrop contract with specified parameters."
      },
      "initializeVesting(uint256,uint256,bytes32[])": {
        "notice": "Initializes vesting for a specific allocation without transferring tokens."
      },
      "isClaimed(uint256,uint256)": {
        "notice": "Checks if a claim has been fully claimed for a specific index."
      },
      "isVestingInitialized(uint256)": {
        "notice": "Checks if vesting has been initialized for a specific index."
      },
      "merkleRoot()": {
        "notice": "Returns the Merkle root for verifying airdrop claims."
      },
      "name()": {
        "notice": "Returns the name of this airdrop."
      },
      "setVestingStrategy(address)": {
        "notice": "Updates the vesting strategy contract."
      },
      "token()": {
        "notice": "Returns the token being distributed in this airdrop."
      },
      "vestingStrategy()": {
        "notice": "Returns the current vesting strategy contract."
      },
      "withdrawTokens(address)": {
        "notice": "Allows the owner to withdraw any tokens remaining in the contract."
      }
    },
    "events": {
      "BatchClaimed(address,uint256,uint256[],uint256[])": {
        "notice": "Emitted when a user claims multiple allocations in a single transaction."
      },
      "BatchVestingInitialized(address,uint256[],uint256[])": {
        "notice": "Emitted when vesting is initialized for multiple claim indices in a batch."
      },
      "Claimed(address,uint256,uint256)": {
        "notice": "Emitted when a user successfully claims their airdrop allocation."
      },
      "TokensWithdrawn(address,uint256)": {
        "notice": "Emitted when the contract owner withdraws unclaimed tokens."
      },
      "VestingInitialized(address,uint256,uint256)": {
        "notice": "Emitted when vesting is initialized for a specific claim index."
      },
      "VestingStrategyUpdated(address,address)": {
        "notice": "Emitted when the vesting strategy is updated."
      }
    },
    "errors": {
      "BatchSizeExceedsLimit()": [
        {
          "notice": "Error indicating that the batch size exceeds the maximum allowed limit."
        }
      ],
      "IndexAlreadyClaimed()": [
        {
          "notice": "Error indicating that a claim is attempted for an index that has already been claimed."
        }
      ],
      "InitializationDeadlinePassed()": [
        {
          "notice": "Error indicating that the initialization deadline has passed and no new vesting can be initialized."
        }
      ],
      "InvalidAirdropName()": [
        {
          "notice": "Thrown when the airdrop name is empty or invalid."
        }
      ],
      "InvalidClaimAmount()": [
        {
          "notice": "Error indicating that the claim amount exceeds the total allocated amount for the index."
        }
      ],
      "InvalidClaimTrackerAddress()": [
        {
          "notice": "Error indicating that an invalid claim tracker address was provided."
        }
      ],
      "InvalidInitializationDeadline()": [
        {
          "notice": "Error indicating that an invalid initialization deadline was provided."
        }
      ],
      "InvalidInputArrayLengths()": [
        {
          "notice": "Error indicating that input array lengths do not match in batch operations."
        }
      ],
      "InvalidMerkleProof()": [
        {
          "notice": "Error indicating that a provided Merkle proof is invalid for the claim parameters."
        }
      ],
      "InvalidMerkleRoot()": [
        {
          "notice": "Error indicating that a provided Merkle root is invalid."
        }
      ],
      "InvalidTokenAddress()": [
        {
          "notice": "Error indicating that an invalid token address was provided."
        }
      ],
      "InvalidVestingStrategy(address)": [
        {
          "notice": "Error indicating that the provided vesting strategy is invalid for this use case."
        }
      ],
      "InvalidVestingStrategyAddress()": [
        {
          "notice": "Error indicating that an invalid vesting strategy address was provided."
        }
      ],
      "InvalidWithdrawalAddress()": [
        {
          "notice": "Error indicating that an invalid withdrawal address was provided."
        }
      ],
      "VestingAlreadyInitialized()": [
        {
          "notice": "Error indicating that vesting has already been initialized for the specified index."
        }
      ],
      "VestingNotInitialized()": [
        {
          "notice": "Error indicating that vesting has not been initialized for the specified index."
        }
      ],
      "ZeroAmountToTransfer()": [
        {
          "notice": "Error indicating that there are zero tokens available to transfer."
        }
      ],
      "ZeroClaimAmount()": [
        {
          "notice": "Error indicating that the claim amount is zero."
        }
      ]
    },
    "notice": "Implementation of a vesting airdrop contract that uses pluggable claim strategies in the ATK Protocol."
  },
  "devdoc": {
    "version": 1,
    "kind": "dev",
    "author": "SettleMint Tokenization Services",
    "details": "This contract implements a two-phase vesting airdrop process:      1. `initializeVesting` or `batchInitializeVesting`: User proves their allocation and starts the vesting clock.         No tokens are transferred at this stage.      2. `claim` or `batchClaim`: User claims the vested portion of their tokens at any time after initialization.      The contract uses a pluggable vesting strategy pattern to allow different vesting calculations.      It extends ATKAirdrop for Merkle proof verification and meta-transaction support.      It deploys its own claim tracker for secure claim management.",
    "methods": {
      "batchClaim(uint256[],uint256[],bytes32[][])": {
        "details": "Overrides the abstract batchClaim function from ATKAirdrop. All indices must have vesting initialized.",
        "params": {
          "indices": "The indices of the claims in the Merkle tree.",
          "merkleProofs": "The Merkle proof arrays (required by base contract but not used in verification here).",
          "totalAmounts": "The total amounts allocated for each index."
        }
      },
      "batchInitializeVesting(uint256[],uint256[],bytes32[][])": {
        "details": "Batch version of initializeVesting for gas efficiency when handling multiple indices.",
        "params": {
          "indices": "The indices of the claims in the Merkle tree.",
          "merkleProofs": "The Merkle proof arrays for verification of each index.",
          "totalAmounts": "The total amounts allocated for each index."
        }
      },
      "claim(uint256,uint256,bytes32[])": {
        "details": "Overrides the abstract claim function from ATKAirdrop. Requires vesting to be initialized first.      The amount claimed is determined by the vesting strategy based on time elapsed since initialization.",
        "params": {
          "index": "The index of the claim in the Merkle tree.",
          "merkleProof": "The Merkle proof array (required by base contract but not used in verification here).",
          "totalAmount": "The total amount allocated for this index."
        }
      },
      "claimPeriodEnd()": {
        "returns": {
          "_0": "The timestamp after which no new vesting can be initialized."
        }
      },
      "claimTracker()": {
        "returns": {
          "_0": "The claim tracker contract."
        }
      },
      "constructor": {
        "params": {
          "forwarder_": "The address of the forwarder contract."
        }
      },
      "getClaimedAmount(uint256)": {
        "params": {
          "index": "The index to check."
        },
        "returns": {
          "_0": "claimedAmount The amount already claimed for this index."
        }
      },
      "getInitializationTimestamp(uint256)": {
        "params": {
          "index": "The index to check."
        },
        "returns": {
          "_0": "timestamp The timestamp when vesting was initialized for this index (0 if not initialized)."
        }
      },
      "initialize(string,address,bytes32,address,address,uint256)": {
        "details": "Sets up the base airdrop functionality and vesting-specific parameters.      Deploys its own claim tracker for secure claim management.",
        "params": {
          "initializationDeadline_": "The timestamp after which no new vesting can be initialized.",
          "name_": "The human-readable name for this airdrop.",
          "owner_": "The initial owner of the contract.",
          "root_": "The Merkle root for verifying claims.",
          "token_": "The address of the ERC20 token to be distributed.",
          "vestingStrategy_": "The address of the vesting strategy contract for vesting calculations."
        }
      },
      "initializeVesting(uint256,uint256,bytes32[])": {
        "details": "Users must call this function first to start their vesting schedule before they can claim tokens.      The vesting start time is recorded when this function is called.",
        "params": {
          "index": "The index of the claim in the Merkle tree.",
          "merkleProof": "The Merkle proof array for verification.",
          "totalAmount": "The total amount allocated for this index."
        }
      },
      "isClaimed(uint256,uint256)": {
        "params": {
          "index": "The index to check in the Merkle tree.",
          "totalAmount": "The total amount allocated for this index."
        },
        "returns": {
          "_0": "claimed True if the index has been fully claimed, false otherwise."
        }
      },
      "isTrustedForwarder(address)": {
        "details": "Indicates whether any particular address is the trusted forwarder."
      },
      "isVestingInitialized(uint256)": {
        "params": {
          "index": "The index to check."
        },
        "returns": {
          "_0": "initialized True if vesting has been initialized for this index."
        }
      },
      "merkleRoot()": {
        "returns": {
          "_0": "The Merkle root for verifying airdrop claims."
        }
      },
      "name()": {
        "returns": {
          "_0": "The human-readable name of the airdrop."
        }
      },
      "owner()": {
        "details": "Returns the address of the current owner."
      },
      "renounceOwnership()": {
        "details": "Leaves the contract without owner. It will not be possible to call `onlyOwner` functions. Can only be called by the current owner. NOTE: Renouncing ownership will leave the contract without an owner, thereby disabling any functionality that is only available to the owner."
      },
      "setVestingStrategy(address)": {
        "details": "Only the owner can update the vesting strategy. The new strategy must support multiple claims.",
        "params": {
          "newVestingStrategy_": "The address of the new vesting strategy contract."
        }
      },
      "token()": {
        "returns": {
          "_0": "The ERC20 token being distributed."
        }
      },
      "transferOwnership(address)": {
        "details": "Transfers ownership of the contract to a new account (`newOwner`). Can only be called by the current owner."
      },
      "trustedForwarder()": {
        "details": "Returns the address of the trusted forwarder."
      },
      "vestingStrategy()": {
        "returns": {
          "_0": "The vesting strategy contract."
        }
      },
      "withdrawTokens(address)": {
        "params": {
          "to": "The address to send the withdrawn tokens to."
        }
      }
    },
    "events": {
      "BatchClaimed(address,uint256,uint256[],uint256[])": {
        "params": {
          "amounts": "The amounts claimed for each index.",
          "claimant": "The address that claimed the tokens.",
          "indices": "The indices of the claims in the Merkle tree.",
          "totalAmount": "The total amount of tokens claimed in the batch."
        }
      },
      "BatchVestingInitialized(address,uint256[],uint256[])": {
        "params": {
          "account": "The address that initialized the vesting.",
          "indices": "The indices of the claims in the Merkle tree.",
          "totalAmounts": "The amounts allocated for each index."
        }
      },
      "Claimed(address,uint256,uint256)": {
        "params": {
          "amount": "The amount of tokens claimed.",
          "claimant": "The address that claimed the tokens.",
          "index": "The index of the claim in the Merkle tree."
        }
      },
      "Initialized(uint64)": {
        "details": "Triggered when the contract has been initialized or reinitialized."
      },
      "TokensWithdrawn(address,uint256)": {
        "params": {
          "amount": "The amount of tokens withdrawn.",
          "to": "The address receiving the withdrawn tokens."
        }
      },
      "VestingInitialized(address,uint256,uint256)": {
        "params": {
          "account": "The address that initialized the vesting.",
          "index": "The index of the claim in the Merkle tree.",
          "totalAmount": "The total amount allocated for this index."
        }
      },
      "VestingStrategyUpdated(address,address)": {
        "params": {
          "newStrategy": "The address of the new vesting strategy.",
          "oldStrategy": "The address of the previous vesting strategy."
        }
      }
    },
    "errors": {
      "InvalidInitialization()": [
        {
          "details": "The contract is already initialized."
        }
      ],
      "InvalidVestingStrategy(address)": [
        {
          "params": {
            "vestingStrategy": "The address of the invalid vesting strategy."
          }
        }
      ],
      "NotInitializing()": [
        {
          "details": "The contract is not initializing."
        }
      ],
      "OwnableInvalidOwner(address)": [
        {
          "details": "The owner is not a valid owner account. (eg. `address(0)`)"
        }
      ],
      "OwnableUnauthorizedAccount(address)": [
        {
          "details": "The caller account is not authorized to perform an operation."
        }
      ],
      "ReentrancyGuardReentrantCall()": [
        {
          "details": "Unauthorized reentrant call."
        }
      ],
      "SafeERC20FailedOperation(address)": [
        {
          "details": "An operation with an ERC-20 token failed."
        }
      ]
    },
    "title": "ATK Vesting Airdrop Implementation"
  },
  "id": 15
}