{
  "abi": [
    {
      "type": "constructor",
      "inputs": [
        {
          "name": "forwarder",
          "type": "address",
          "internalType": "address"
        }
      ],
      "stateMutability": "nonpayable"
    },
    {
      "type": "function",
      "name": "DEFAULT_ADMIN_ROLE",
      "inputs": [],
      "outputs": [
        {
          "name": "",
          "type": "bytes32",
          "internalType": "bytes32"
        }
      ],
      "stateMutability": "view"
    },
    {
      "type": "function",
      "name": "allAirdropsLength",
      "inputs": [],
      "outputs": [
        {
          "name": "count",
          "type": "uint256",
          "internalType": "uint256"
        }
      ],
      "stateMutability": "view"
    },
    {
      "type": "function",
      "name": "atkVestingAirdropImplementation",
      "inputs": [],
      "outputs": [
        {
          "name": "",
          "type": "address",
          "internalType": "address"
        }
      ],
      "stateMutability": "view"
    },
    {
      "type": "function",
      "name": "create",
      "inputs": [
        {
          "name": "name",
          "type": "string",
          "internalType": "string"
        },
        {
          "name": "token",
          "type": "address",
          "internalType": "address"
        },
        {
          "name": "root",
          "type": "bytes32",
          "internalType": "bytes32"
        },
        {
          "name": "owner",
          "type": "address",
          "internalType": "address"
        },
        {
          "name": "vestingStrategy",
          "type": "address",
          "internalType": "address"
        },
        {
          "name": "initializationDeadline",
          "type": "uint256",
          "internalType": "uint256"
        }
      ],
      "outputs": [
        {
          "name": "airdropProxyAddress",
          "type": "address",
          "internalType": "address"
        }
      ],
      "stateMutability": "nonpayable"
    },
    {
      "type": "function",
      "name": "getRoleAdmin",
      "inputs": [
        {
          "name": "role",
          "type": "bytes32",
          "internalType": "bytes32"
        }
      ],
      "outputs": [
        {
          "name": "",
          "type": "bytes32",
          "internalType": "bytes32"
        }
      ],
      "stateMutability": "view"
    },
    {
      "type": "function",
      "name": "grantRole",
      "inputs": [
        {
          "name": "role",
          "type": "bytes32",
          "internalType": "bytes32"
        },
        {
          "name": "account",
          "type": "address",
          "internalType": "address"
        }
      ],
      "outputs": [],
      "stateMutability": "nonpayable"
    },
    {
      "type": "function",
      "name": "hasRole",
      "inputs": [
        {
          "name": "role",
          "type": "bytes32",
          "internalType": "bytes32"
        },
        {
          "name": "account",
          "type": "address",
          "internalType": "address"
        }
      ],
      "outputs": [
        {
          "name": "",
          "type": "bool",
          "internalType": "bool"
        }
      ],
      "stateMutability": "view"
    },
    {
      "type": "function",
      "name": "initialize",
      "inputs": [
        {
          "name": "systemAddress_",
          "type": "address",
          "internalType": "address"
        },
        {
          "name": "initialAdmin_",
          "type": "address",
          "internalType": "address"
        }
      ],
      "outputs": [],
      "stateMutability": "nonpayable"
    },
    {
      "type": "function",
      "name": "isFactorySystemAddon",
      "inputs": [
        {
          "name": "systemAddonAddress",
          "type": "address",
          "internalType": "address"
        }
      ],
      "outputs": [
        {
          "name": "isFactorySystemAddon",
          "type": "bool",
          "internalType": "bool"
        }
      ],
      "stateMutability": "view"
    },
    {
      "type": "function",
      "name": "isTrustedForwarder",
      "inputs": [
        {
          "name": "forwarder",
          "type": "address",
          "internalType": "address"
        }
      ],
      "outputs": [
        {
          "name": "",
          "type": "bool",
          "internalType": "bool"
        }
      ],
      "stateMutability": "view"
    },
    {
      "type": "function",
      "name": "predictVestingAirdropAddress",
      "inputs": [
        {
          "name": "name",
          "type": "string",
          "internalType": "string"
        },
        {
          "name": "token",
          "type": "address",
          "internalType": "address"
        },
        {
          "name": "root",
          "type": "bytes32",
          "internalType": "bytes32"
        },
        {
          "name": "owner",
          "type": "address",
          "internalType": "address"
        },
        {
          "name": "vestingStrategy",
          "type": "address",
          "internalType": "address"
        },
        {
          "name": "initializationDeadline",
          "type": "uint256",
          "internalType": "uint256"
        }
      ],
      "outputs": [
        {
          "name": "predictedAddress",
          "type": "address",
          "internalType": "address"
        }
      ],
      "stateMutability": "view"
    },
    {
      "type": "function",
      "name": "renounceRole",
      "inputs": [
        {
          "name": "role",
          "type": "bytes32",
          "internalType": "bytes32"
        },
        {
          "name": "callerConfirmation",
          "type": "address",
          "internalType": "address"
        }
      ],
      "outputs": [],
      "stateMutability": "nonpayable"
    },
    {
      "type": "function",
      "name": "revokeRole",
      "inputs": [
        {
          "name": "role",
          "type": "bytes32",
          "internalType": "bytes32"
        },
        {
          "name": "account",
          "type": "address",
          "internalType": "address"
        }
      ],
      "outputs": [],
      "stateMutability": "nonpayable"
    },
    {
      "type": "function",
      "name": "supportsInterface",
      "inputs": [
        {
          "name": "interfaceId",
          "type": "bytes4",
          "internalType": "bytes4"
        }
      ],
      "outputs": [
        {
          "name": "",
          "type": "bool",
          "internalType": "bool"
        }
      ],
      "stateMutability": "view"
    },
    {
      "type": "function",
      "name": "trustedForwarder",
      "inputs": [],
      "outputs": [
        {
          "name": "",
          "type": "address",
          "internalType": "address"
        }
      ],
      "stateMutability": "view"
    },
    {
      "type": "function",
      "name": "typeId",
      "inputs": [],
      "outputs": [
        {
          "name": "",
          "type": "bytes32",
          "internalType": "bytes32"
        }
      ],
      "stateMutability": "view"
    },
    {
      "type": "function",
      "name": "updateImplementation",
      "inputs": [
        {
          "name": "_newImplementation",
          "type": "address",
          "internalType": "address"
        }
      ],
      "outputs": [],
      "stateMutability": "nonpayable"
    },
    {
      "type": "event",
      "name": "ATKVestingAirdropCreated",
      "inputs": [
        {
          "name": "airdrop",
          "type": "address",
          "indexed": true,
          "internalType": "address"
        },
        {
          "name": "name",
          "type": "string",
          "indexed": false,
          "internalType": "string"
        },
        {
          "name": "token",
          "type": "address",
          "indexed": false,
          "internalType": "address"
        },
        {
          "name": "root",
          "type": "bytes32",
          "indexed": false,
          "internalType": "bytes32"
        },
        {
          "name": "owner",
          "type": "address",
          "indexed": false,
          "internalType": "address"
        },
        {
          "name": "vestingStrategy",
          "type": "address",
          "indexed": false,
          "internalType": "address"
        },
        {
          "name": "initializationDeadline",
          "type": "uint256",
          "indexed": false,
          "internalType": "uint256"
        },
        {
          "name": "creator",
          "type": "address",
          "indexed": false,
          "internalType": "address"
        }
      ],
      "anonymous": false
    },
    {
      "type": "event",
      "name": "ImplementationUpdated",
      "inputs": [
        {
          "name": "oldImplementation",
          "type": "address",
          "indexed": true,
          "internalType": "address"
        },
        {
          "name": "newImplementation",
          "type": "address",
          "indexed": true,
          "internalType": "address"
        }
      ],
      "anonymous": false
    },
    {
      "type": "event",
      "name": "Initialized",
      "inputs": [
        {
          "name": "version",
          "type": "uint64",
          "indexed": false,
          "internalType": "uint64"
        }
      ],
      "anonymous": false
    },
    {
      "type": "event",
      "name": "RoleAdminChanged",
      "inputs": [
        {
          "name": "role",
          "type": "bytes32",
          "indexed": true,
          "internalType": "bytes32"
        },
        {
          "name": "previousAdminRole",
          "type": "bytes32",
          "indexed": true,
          "internalType": "bytes32"
        },
        {
          "name": "newAdminRole",
          "type": "bytes32",
          "indexed": true,
          "internalType": "bytes32"
        }
      ],
      "anonymous": false
    },
    {
      "type": "event",
      "name": "RoleGranted",
      "inputs": [
        {
          "name": "role",
          "type": "bytes32",
          "indexed": true,
          "internalType": "bytes32"
        },
        {
          "name": "account",
          "type": "address",
          "indexed": true,
          "internalType": "address"
        },
        {
          "name": "sender",
          "type": "address",
          "indexed": true,
          "internalType": "address"
        }
      ],
      "anonymous": false
    },
    {
      "type": "event",
      "name": "RoleRevoked",
      "inputs": [
        {
          "name": "role",
          "type": "bytes32",
          "indexed": true,
          "internalType": "bytes32"
        },
        {
          "name": "account",
          "type": "address",
          "indexed": true,
          "internalType": "address"
        },
        {
          "name": "sender",
          "type": "address",
          "indexed": true,
          "internalType": "address"
        }
      ],
      "anonymous": false
    },
    {
      "type": "error",
      "name": "AccessControlBadConfirmation",
      "inputs": []
    },
    {
      "type": "error",
      "name": "AccessControlUnauthorizedAccount",
      "inputs": [
        {
          "name": "account",
          "type": "address",
          "internalType": "address"
        },
        {
          "name": "neededRole",
          "type": "bytes32",
          "internalType": "bytes32"
        }
      ]
    },
    {
      "type": "error",
      "name": "AddressAlreadyDeployed",
      "inputs": [
        {
          "name": "deployedAddress",
          "type": "address",
          "internalType": "address"
        }
      ]
    },
    {
      "type": "error",
      "name": "Create2EmptyBytecode",
      "inputs": []
    },
    {
      "type": "error",
      "name": "FailedDeployment",
      "inputs": []
    },
    {
      "type": "error",
      "name": "InsufficientBalance",
      "inputs": [
        {
          "name": "balance",
          "type": "uint256",
          "internalType": "uint256"
        },
        {
          "name": "needed",
          "type": "uint256",
          "internalType": "uint256"
        }
      ]
    },
    {
      "type": "error",
      "name": "InvalidAddress",
      "inputs": []
    },
    {
      "type": "error",
      "name": "InvalidImplementation",
      "inputs": []
    },
    {
      "type": "error",
      "name": "InvalidInitialization",
      "inputs": []
    },
    {
      "type": "error",
      "name": "NotInitializing",
      "inputs": []
    },
    {
      "type": "error",
      "name": "ProxyCreationFailed",
      "inputs": []
    },
    {
      "type": "error",
      "name": "SameAddress",
      "inputs": []
    }
  ],
  "bytecode": {
    "object": "0x60a03461011757601f613b8e38819003918201601f19168301916001600160401b0383118484101761011b5780849260209460405283398101031261011757516001600160a01b0381168103610117576080525f516020613b6e5f395f51905f525460ff8160401c16610108576002600160401b03196001600160401b038216016100b2575b604051613a3e9081610130823960805181818161028d015281816106d10152818161080f01526113400152f35b6001600160401b0319166001600160401b039081175f516020613b6e5f395f51905f52556040519081527fc7f505b2f371ae2175ee4913f4499e1f2633a7b5936321eed1cdaeb6115181d290602090a15f610085565b63f92ee8a960e01b5f5260045ffd5b5f80fd5b634e487b7160e01b5f52604160045260245ffdfe6080806040526004361015610012575f80fd5b5f905f3560e01c90816301ffc9a714610c4357508063025b22bc14610ac2578063150117bd14610aa5578063229fff6014610a68578063248a9ca314610a295780632f2ff15d146109df57806336568abe14610989578063434b6d0b14610961578063485cc95514610705578063572b6c05146106b15780636301e1da146102bc5780637da0a877146102775780638f940f631461023c57806391d14854146101e6578063a217fddf146101ca578063d547741f146101765763f867dfaf146100d9575f80fd5b346101735760206101616101406101326100f236610cfe565b91836101238661011586868660409e9c9b9d9a9e519e8f958d3060208901610df6565b03601f1981018b528a610cdc565b604051978896308d8901610df6565b03601f198101835282610cdc565b60405161057e61015286820183610cdc565b808252613454868301396112ff565b6040516001600160a01b039091168152f35b80fd5b5034610173576040366003190112610173576101c6600435610196610cc6565b906101c16101bc825f525f5160206139f25f395f51905f52602052600160405f20015490565b610ed9565b611216565b5080f35b5034610173578060031936011261017357602090604051908152f35b5034610173576040366003190112610173576040610202610cc6565b9160043581525f5160206139f25f395f51905f52602052209060018060a01b03165f52602052602060ff60405f2054166040519015158152f35b503461017357806003193601126101735760206040517f0bd9e5f47eeae94edb650a22981c263f64cac79e72c54391efedba7716ed94f48152f35b50346101735780600319360112610173576040517f00000000000000000000000000000000000000000000000000000000000000006001600160a01b03168152602090f35b50346105bc576102cb36610cfe565b6102da95939195949294610e4b565b60405195610303876102f584848a888a8c3060208901610df6565b03601f198101895288610cdc565b60405161031d8161013285858b898b8d3060208901610df6565b6040519061057e6103316020820184610cdc565b80835261345460208401396103478982846112ff565b61034f610e4b565b6001600160a01b03165f8181526001602052604090205490999060ff1661069e579061037d610383926113aa565b926112bf565b80511561068f576020815191015ff53d15198115166105b1576001600160a01b031696871561068057870361067157600495875f52600160205260405f20600160ff19825416179055602060018060a01b035f541660405198898092636290865d60e01b82525afa80156105b15788975f9161062a575b506001600160a01b0316801515806105c0575b610526575b50917f140ebc89ef9975789b6acf20f0d7546d24f8b33741d073832d392d4ee0f6740d95939161045a959361044561133d565b9360405197889760e0895260e0890190610dd2565b6001600160a01b03968716602089015260408801919091529085166060870152908416608086015260a0850191909152911660c08301520390a2600354680100000000000000008110156105125760018101806003558110156104fe576003602093527fc2575a0e9e593c00f959f8c92f12db2869c3395a3b0502d05e2516446f71f85b01816bffffffffffffffffffffffff60a01b825416179055604051908152f35b634e487b7160e01b83526032600452602483fd5b634e487b7160e01b83526041600452602483fd5b8091929394959697503b156105bc575f8091602460405180948193631105e3d560e31b83528d60048401525af180156105b15761056b575b9087969594939291610412565b61045a94919850927f140ebc89ef9975789b6acf20f0d7546d24f8b33741d073832d392d4ee0f6740d95926105a25f8a9996610cdc565b5f99929550929550929561055e565b6040513d5f823e3d90fd5b5f80fd5b506040516301ffc9a760e01b8152630605276f60e21b60048201529750602088602481845afa80156105b15789985f916105fb575b5061040d565b61061d915060203d602011610623575b6106158183610cdc565b810190610dba565b5f6105f5565b503d61060b565b919750506020813d602011610669575b8161064760209383610cdc565b810103126105bc5751956001600160a01b03871687036105bc5787965f6103fa565b3d915061063a565b6335279f5d60e21b5f5260045ffd5b63b06ebf3d60e01b5f5260045ffd5b631328927760e21b5f5260045ffd5b8963d0dc594960e01b5f5260045260245ffd5b346105bc5760203660031901126105bc5760206106cc610cb0565b6040517f00000000000000000000000000000000000000000000000000000000000000006001600160a01b039081169216919091148152f35b346105bc5760403660031901126105bc5761071e610cb0565b610726610cc6565b905f516020613a125f395f51905f52549160ff8360401c16159267ffffffffffffffff811680159081610959575b600114908161094f575b159081610946575b506109375767ffffffffffffffff1981166001175f516020613a125f395f51905f52558361090b575b5060ff5f516020613a125f395f51905f525460401c16156108fc57806107b76107c792610f35565b506107c181610fe4565b506110ae565b5060018060a01b03166bffffffffffffffffffffffff60a01b5f5416175f556040516120818082019082821067ffffffffffffffff8311176108e85760209183916113d383397f00000000000000000000000000000000000000000000000000000000000000006001600160a01b031681520301905ff080156105b157600280546001600160a01b0319166001600160a01b0392909216918217905560405191905f7faa3f731066a578e5f39b4215468d826cdd15373cbc0dfc9cb9bdc649718ef7da8180a361089357005b60207fc7f505b2f371ae2175ee4913f4499e1f2633a7b5936321eed1cdaeb6115181d29168ff0000000000000000195f516020613a125f395f51905f5254165f516020613a125f395f51905f525560018152a1005b634e487b7160e01b5f52604160045260245ffd5b631afcd79f60e31b5f5260045ffd5b68ffffffffffffffffff191668010000000000000001175f516020613a125f395f51905f52558361078f565b63f92ee8a960e01b5f5260045ffd5b90501585610766565b303b15915061075e565b859150610754565b346105bc575f3660031901126105bc576002546040516001600160a01b039091168152602090f35b346105bc5760403660031901126105bc576109a2610cc6565b6001600160a01b036109b261133d565b166001600160a01b038216036109d0576109ce90600435611216565b005b63334bd91960e11b5f5260045ffd5b346105bc5760403660031901126105bc576109ce6004356109fe610cc6565b90610a246101bc825f525f5160206139f25f395f51905f52602052600160405f20015490565b611178565b346105bc5760203660031901126105bc576020610a606004355f525f5160206139f25f395f51905f52602052600160405f20015490565b604051908152f35b346105bc5760203660031901126105bc576001600160a01b03610a89610cb0565b165f526001602052602060ff60405f2054166040519015158152f35b346105bc575f3660031901126105bc576020600354604051908152f35b346105bc5760203660031901126105bc57610adb610cb0565b610ae361133d565b6001600160a01b0381165f9081527fb121b6c2cfb68d56d259fa39abd93d7a85e352365bbcbddf27041e20d031c3d3602052604090205460ff1615610bff57506001600160a01b03168015610bf0576002546001600160a01b03811690828214610be1576040516301ffc9a760e01b81526393f522e360e01b6004820152602081602481875afa9081156105b1575f91610bc2575b5015610bb3576001600160a01b03191682176002557faa3f731066a578e5f39b4215468d826cdd15373cbc0dfc9cb9bdc649718ef7da5f80a3005b63340aafcd60e11b5f5260045ffd5b610bdb915060203d602011610623576106158183610cdc565b84610b78565b63367558c360e01b5f5260045ffd5b63e6c4247b60e01b5f5260045ffd5b63e2517d3f60e01b5f9081526001600160a01b03919091166004527fecaefa0171c08a6ded02d98b9432940d3852ef2c7f5007661eb8de37c5a1adc5602452604490fd5b346105bc5760203660031901126105bc576004359063ffffffff60e01b82168092036105bc5760209163cd2c44c360e01b8114908115610c85575b5015158152f35b637965db0b60e01b811491508115610c9f575b5083610c7e565b6301ffc9a760e01b14905083610c98565b600435906001600160a01b03821682036105bc57565b602435906001600160a01b03821682036105bc57565b90601f8019910116810190811067ffffffffffffffff8211176108e857604052565b60c06003198201126105bc5760043567ffffffffffffffff81116105bc57816023820112156105bc5780600401359067ffffffffffffffff82116108e85760405192610d54601f8401601f191660200185610cdc565b828452602483830101116105bc57815f926024602093018386013783010152906024356001600160a01b03811681036105bc5790604435906064356001600160a01b03811681036105bc57906084356001600160a01b03811681036105bc579060a43590565b908160209103126105bc575180151581036105bc5790565b805180835260209291819084018484015e5f828201840152601f01601f1916010190565b939060c09592610e2091999897949960018060a01b0316865260e0602087015260e0860190610dd2565b6001600160a01b03988916604086015260608501919091529087166080840152951660a08201520152565b610e5361133d565b6001600160a01b0381165f9081527f8f7e9a8734279607aeaac474f24949ddc99eae25c0da72edcf5ad21022be2c9e602052604090205460ff1615610e955750565b63e2517d3f60e01b5f9081526001600160a01b03919091166004527ffc425f2263d0df187444b70e47283d622c70181c5baebb1306a01edba1ce184c602452604490fd5b610ee161133d565b815f525f5160206139f25f395f51905f5260205260405f2060018060a01b0382165f5260205260ff60405f20541615610f18575050565b63e2517d3f60e01b5f5260018060a01b031660045260245260445ffd5b6001600160a01b0381165f9081527fb7db2dd08fcb62d0c9e08c51941cae53c267786a0b75803fb7960902fc8ef97d602052604090205460ff16610fdf576001600160a01b038181165f9081527fb7db2dd08fcb62d0c9e08c51941cae53c267786a0b75803fb7960902fc8ef97d60205260409020805460ff19166001179055610fbd61133d565b16906001600160a01b03165f5f5160206139d25f395f51905f528180a4600190565b505f90565b6001600160a01b0381165f9081527fb121b6c2cfb68d56d259fa39abd93d7a85e352365bbcbddf27041e20d031c3d3602052604090205460ff16610fdf576001600160a01b038181165f9081527fb121b6c2cfb68d56d259fa39abd93d7a85e352365bbcbddf27041e20d031c3d360205260409020805460ff1916600117905561106c61133d565b16906001600160a01b03167fecaefa0171c08a6ded02d98b9432940d3852ef2c7f5007661eb8de37c5a1adc55f5160206139d25f395f51905f525f80a4600190565b6001600160a01b0381165f9081527f8f7e9a8734279607aeaac474f24949ddc99eae25c0da72edcf5ad21022be2c9e602052604090205460ff16610fdf576001600160a01b038181165f9081527f8f7e9a8734279607aeaac474f24949ddc99eae25c0da72edcf5ad21022be2c9e60205260409020805460ff1916600117905561113661133d565b16906001600160a01b03167ffc425f2263d0df187444b70e47283d622c70181c5baebb1306a01edba1ce184c5f5160206139d25f395f51905f525f80a4600190565b5f8181525f5160206139f25f395f51905f52602090815260408083206001600160a01b038616845290915290205460ff16611210575f8181525f5160206139f25f395f51905f52602090815260408083206001600160a01b0386811685529252909120805460ff191660011790556111ee61133d565b16916001600160a01b0316905f5160206139d25f395f51905f525f80a4600190565b50505f90565b5f8181525f5160206139f25f395f51905f52602090815260408083206001600160a01b038616845290915290205460ff1615611210575f8181525f5160206139f25f395f51905f52602090815260408083206001600160a01b0386811685529252909120805460ff1916905561128a61133d565b16916001600160a01b0316907ff6391f5c32d9c69d2a47ea670b442974b53935d1edc7fd64eb21e047a839171b5f80a4600190565b6112fd906020808095946040519684889551918291018487015e8401908282015f8152815193849201905e01015f815203601f198101845283610cdc565b565b9061130f9061037d600b946113aa565b602081519101209060405191604083015260208201523081520160ff8153605590206001600160a01b031690565b337f00000000000000000000000000000000000000000000000000000000000000006001600160a01b0316148061139f575b1561139b576013193601368111611387573560601c90565b634e487b7160e01b5f52601160045260245ffd5b3390565b50601436101561136f565b6040516113cc8161013260208201943086526040808401526060830190610dd2565b5190209056fe60a03461008857601f61208138819003918201601f19168301916001600160401b0383118484101761008c5780849260209460405283398101031261008857516001600160a01b03811681036100885760805261005a6100a0565b6100626100a0565b604051611f2a90816101378239608051818181610b1001528181610bc60152611a840152f35b5f80fd5b634e487b7160e01b5f52604160045260245ffd5b5f5160206120615f395f51905f525460ff8160401c16610127576002600160401b03196001600160401b038216016100d55750565b6001600160401b0319166001600160401b039081175f5160206120615f395f51905f52556040519081527fc7f505b2f371ae2175ee4913f4499e1f2633a7b5936321eed1cdaeb6115181d290602090a1565b63f92ee8a960e01b5f5260045ffdfe6080806040526004361015610012575f80fd5b5f3560e01c90816306fdde03146114835750806310639fef146113d7578063222abc11146113af5780632eb4a7ab146113925780633da082a0146113755780633ecfea491461129457806341162b7514611153578063429c6e5b1461112d57806349df728c146110435780634be7adee14610c2457806352ae2c2014610bfa578063572b6c0514610ba6578063715018a614610b3f5780637da0a87714610afb5780638da5cb5b14610ac7578063ae0b51df1461080a578063bd3f22b2146107de578063cfdbf254146107c3578063db190a9f14610232578063f2fde38b14610207578063f364c90c1461016d578063f567fa9d146101455763fc0c546a14610119575f80fd5b34610141575f366003190112610141576001546040516001600160a01b039091168152602090f35b5f80fd5b34610141575f366003190112610141576004546040516001600160a01b039091168152602090f35b3461014157604036600319011261014157600354604051633cd9324360e21b81526004803590820152602480359082015290602090829060449082906001600160a01b03165afa80156101fc576020915f916101cf575b506040519015158152f35b6101ef9150823d84116101f5575b6101e78183611646565b81019061169f565b826101c4565b503d6101dd565b6040513d5f823e3d90fd5b34610141576020366003190112610141576102306102236115c2565b61022b6119a0565b61180d565b005b346101415760c0366003190112610141576004356001600160401b03811161014157366023820112156101415780600401356001600160401b03811161067f576040519161028a601f8301601f191660200184611646565b818352366024838301011161014157815f9260246020930183860137830101526024356001600160a01b038116919082900361014157604435916064356001600160a01b0381168103610141576084356001600160a01b03811694908590036101415760a435925f516020611efe5f395f51905f52549460ff8660401c1615956001600160401b038116801590816107bb575b60011490816107b1575b1590816107a8575b506107995767ffffffffffffffff1981166001175f516020611efe5f395f51905f52558661076d575b50861561075e574285111561074f57604051637c13428d60e11b81526020816004818b5afa5f918161072e575b5061039d5787632a4aa22360e11b5f5260045260245ffd5b969495961561071b57604051610398808201908282106001600160401b0383111761067f576020918391611b0683393081520301905ff080156101fc576001600160a01b0316936103ec611ada565b81511561070c5782156106fd5783156106ee5784156106df576040516318160ddd60e01b8152602081600481875afa90816106b0575b5061043657630f58058360e11b5f5260045ffd5b604051633cd9324360e21b81525f600482018190526024820152602081604481895afa9081610693575b5061047457632b58d96960e01b5f5260045ffd5b61048890610480611ada565b61022b611ada565b8051906001600160401b03821161067f5781906104a55f54611667565b601f811161060e575b50602090601f83116001146105a0575f92610595575b50508160011b915f199060031b1c1916175f555b6001600160601b0360a01b60015416176001556002556001600160601b0360a01b6003541617600355610509611ada565b610511611ada565b60015f516020611ede5f395f51905f52556001600160601b0360a01b600454161760045560055561053e57005b68ff0000000000000000195f516020611efe5f395f51905f5254165f516020611efe5f395f51905f52557fc7f505b2f371ae2175ee4913f4499e1f2633a7b5936321eed1cdaeb6115181d2602060405160018152a1005b0151905088806104c4565b5f8080525f516020611ebe5f395f51905f529350601f198516905b8181106105f657509084600195949392106105de575b505050811b015f556104d8565b01515f1960f88460031b161c191690558880806105d1565b929360206001819287860151815501950193016105bb565b9091505f8052601f830160051c5f516020611ebe5f395f51905f5201906020841061066a575b90601f8493920160051c5f516020611ebe5f395f51905f5201905b81811061065c57506104ae565b5f815584935060010161064f565b5f516020611ebe5f395f51905f529150610634565b634e487b7160e01b5f52604160045260245ffd5b6106ab9060203d6020116101f5576101e78183611646565b610460565b6020813d6020116106d7575b816106c960209383611646565b810103126101415751610422565b3d91506106bc565b632b58d96960e01b5f5260045ffd5b639dd854d360e01b5f5260045ffd5b630f58058360e11b5f5260045ffd5b632e43296560e01b5f5260045ffd5b84632a4aa22360e11b5f5260045260245ffd5b61074891925060203d6020116101f5576101e78183611646565b9089610385565b6310b2668560e11b5f5260045ffd5b6385d923df60e01b5f5260045ffd5b68ffffffffffffffffff191668010000000000000001175f516020611efe5f395f51905f525587610358565b63f92ee8a960e01b5f5260045ffd5b9050158961032f565b303b159150610327565b88915061031d565b34610141575f36600319011261014157602060405160648152f35b34610141576020366003190112610141576004355f526006602052602060405f20541515604051908152f35b34610141576108183661158c565b929061082261187e565b815f52600660205260405f205415610ab8576108a693825f52600660205260405f205491602061085185611743565b610859611a81565b600480546040516307a297ab60e01b81526001600160a01b0380851693820193909352602481018b9052604481019890985260648801939093529598909589921690829081906084820190565b03915afa9586156101fc575f96610a84575b508515610a755760018060a01b036003541691604051633cd9324360e21b8152856004820152866024820152602081604481875afa9081156101fc575f91610a56575b50610a475761090c918685876118b6565b15610a3857604051635ea05ef360e11b8152600481018490526024810186905260448101859052602081606481855afa9081156101fc575f91610a19575b5015610a0a57803b156101415760405163762ba3ff60e11b8152600481018490526024810186905260448101949094525f908490606490829084905af19182156101fc577f987d620f307ff6b94d58743cb7a7509f24071586a77759b77c2d4e29f75a2f9a936040936109fa575b506001546109d290869084906001600160a01b03166119f3565b825194855260208501526001600160a01b031692a260015f516020611ede5f395f51905f5255005b5f610a0491611646565b856109b8565b63843ce46b60e01b5f5260045ffd5b610a32915060203d6020116101f5576101e78183611646565b8661094a565b63582f497d60e11b5f5260045ffd5b63b708ca1560e01b5f5260045ffd5b610a6f915060203d6020116101f5576101e78183611646565b886108fb565b63723a162160e11b5f5260045ffd5b9095506020813d602011610ab0575b81610aa060209383611646565b81010312610141575194866108b8565b3d9150610a93565b63d2e8cc1760e01b5f5260045ffd5b34610141575f366003190112610141575f516020611e9e5f395f51905f52546040516001600160a01b039091168152602090f35b34610141575f366003190112610141576040517f00000000000000000000000000000000000000000000000000000000000000006001600160a01b03168152602090f35b34610141575f36600319011261014157610b576119a0565b5f516020611e9e5f395f51905f5280546001600160a01b031981169091555f906001600160a01b03167f8be0079c531659141344cd1fd0a4f28419497f9722a3daafe3b4186f6b6457e08280a3005b34610141576020366003190112610141576020610bc16115c2565b6040517f00000000000000000000000000000000000000000000000000000000000000006001600160a01b039081169216919091148152f35b34610141576020366003190112610141576004355f526006602052602060405f2054604051908152f35b3461014157610c32366115d8565b9391610c3f95919561187e565b606483116110345780831480159061102a575b610f2d57610c5e611a81565b93610c68846117c7565b6004546001600160a01b03165f5b868110610f5157505080518381871491821592610f46575b50508015610f3c575b610f2d579591905f96610ca9866117c7565b985f945b878610610d765750505050505083610cd3575b60015f516020611ede5f395f51905f5255005b610d0391610cec858560018060a01b03600154166119f3565b60405194855260606020860152606085019161171f565b8281036040840152602080855192838152019401905f5b818110610d60575050506001600160a01b0316917fb9df54cb8716695fe6cd84e5e4b88eca0d9c862970bcd45797aabb77d71b48ee919081900390a28080808080610cc0565b8251865260209586019590920191600101610d1a565b90919293949998610d888b89896116b7565b359a610d9481866117f9565b51809c610da2838a8a6116b7565b35610dae8487896116db565b9315610f1e5760018060a01b036003541693604051633cd9324360e21b8152846004820152836024820152602081604481895afa9081156101fc575f91610f00575b50610a4757610e02918f8490866118b6565b15610a3857610e3c8f826020916040519384928392635ea05ef360e11b845288600485016040919493926060820195825260208201520152565b0381875afa9081156101fc575f91610ee2575b5015610a0a57823b156101415760405163762ba3ff60e11b81526004810192909252602482018f90526044820152905f908290606490829084905af180156101fc57610ed2575b508b8201809211610ebe576001919b610eaf828d6117f9565b52019493929190999899610cad565b634e487b7160e01b5f52601160045260245ffd5b5f610edc91611646565b8c610e96565b610efa915060203d81116101f5576101e78183611646565b5f610e4f565b610f18915060203d81116101f5576101e78183611646565b5f610df0565b6360640efd60e11b5f5260045ffd5b632c635df560e11b5f5260045ffd5b5086831415610c97565b14159050838a610c8e565b610f5c8188886116b7565b3590815f52600660205260405f205415610ab8576020610f7d8288886116b7565b35835f52600682528a610fd1610f9760405f205496611743565b60405196879485946307a297ab60e01b86526004860190949392606092608083019660018060a01b03168352602083015260408201520152565b0381865afa80156101fc575f90610ff8575b60019250610ff182866117f9565b5201610c76565b506020823d8211611022575b8161101160209383611646565b810103126101415760019151610fe3565b3d9150611004565b5084811415610c52565b632a8677b560e21b5f5260045ffd5b346101415760203660031901126101415761105c6115c2565b6110646119a0565b6001600160a01b03811690811561111e576001546040516370a0823160e01b815230600482015291906001600160a01b0316602083602481845afa9283156101fc575f936110e6575b50916110dd816020937f6352c5382c4a4578e712449ca65e83cdb392d045dfcf1cad9615189db2da244b956119f3565b604051908152a2005b9250906020833d602011611116575b8161110260209383611646565b8101031261014157915191906110dd6110ad565b3d91506110f5565b634261081360e11b5f5260045ffd5b3461014157602036600319011261014157602061114b600435611743565b604051908152f35b3461014157611161366115d8565b61116f95939594929461187e565b606483116110345784831480159061128a575b610f2d5761118e611a81565b91600554421161127b575f5b848110611210575050506111fa907f8f59e3de0f866848efefecafdbbf1c97262b4187d7355cb68c9c6e50b6ead9a9946111e160405195869560408752604087019161171f565b84810360208601526001600160a01b039092169661171f565b0390a260015f516020611ede5f395f51905f5255005b61121b8186886116b7565b359061122881898b6116b7565b35825f52600660205260405f205461126c57611251906112498387876116db565b9188866118b6565b15610a38576001915f5260066020524260405f20550161119a565b638ef519d560e01b5f5260045ffd5b63df370ae560e01b5f5260045ffd5b5080851415611182565b34610141576020366003190112610141576112ad6115c2565b6112b56119a0565b6001600160a01b0316801561075e57604051637c13428d60e11b8152602081600481855afa5f9181611354575b506112fa5750632a4aa22360e11b5f5260045260245ffd5b1561134257600480546001600160a01b0319811683179091556001600160a01b03167fc831910db935648f19a9acfe07a53355b2d00e33523edf8b0b80aa48f6f5dca85f80a3005b632a4aa22360e11b5f5260045260245ffd5b61136e91925060203d6020116101f5576101e78183611646565b90836112e2565b34610141575f366003190112610141576020600554604051908152f35b34610141575f366003190112610141576020600254604051908152f35b34610141575f366003190112610141576003546040516001600160a01b039091168152602090f35b34610141576113e53661158c565b6113ed61187e565b835f52600660205260405f205461126c57600554421161127b5761141a9183611414611a81565b866118b6565b15610a38575f82815260066020526040908190204290557ffaf76b5ef3ee6a1b42c79e4744b2596312a788e7cbbaee17f2db55bfc304f7de916001600160a01b03611463611a81565b169382519182526020820152a260015f516020611ede5f395f51905f5255005b34610141575f366003190112610141575f905f54916114a183611667565b80835260208301936001811690811561154157506001146114f8575b50906114cd816040930382611646565b8151928391602083525180918160208501528484015e5f828201840152601f01601f19168101030190f35b5f8080525f516020611ebe5f395f51905f52939250905b808210611527575090915081016020016114cd6114bd565b91926001816020925483858801015201910190929161150f565b60ff1916855250151560051b820160200190506114cd6114bd565b9181601f84011215610141578235916001600160401b038311610141576020808501948460051b01011161014157565b6060600319820112610141576004359160243591604435906001600160401b038211610141576115be9160040161155c565b9091565b600435906001600160a01b038216820361014157565b6060600319820112610141576004356001600160401b03811161014157816116029160040161155c565b929092916024356001600160401b03811161014157816116249160040161155c565b92909291604435906001600160401b038211610141576115be9160040161155c565b90601f801991011681019081106001600160401b0382111761067f57604052565b90600182811c92168015611695575b602083101461168157565b634e487b7160e01b5f52602260045260245ffd5b91607f1691611676565b90816020910312610141575180151581036101415790565b91908110156116c75760051b0190565b634e487b7160e01b5f52603260045260245ffd5b91908110156116c75760051b81013590601e19813603018212156101415701908135916001600160401b038311610141576020018260051b36038113610141579190565b81835290916001600160fb1b0383116101415760209260051b809284830137010190565b60035460405163429c6e5b60e01b81526004810192909252602090829060249082906001600160a01b03165afa9081156101fc575f91611781575090565b90506020813d6020116117a8575b8161179c60209383611646565b81010312610141575190565b3d915061178f565b6001600160401b03811161067f5760051b60200190565b906117d1826117b0565b6117de6040519182611646565b82815280926117ef601f19916117b0565b0190602036910137565b80518210156116c75760209160051b010190565b6001600160a01b0316801561186b575f516020611e9e5f395f51905f5280546001600160a01b0319811683179091556001600160a01b03167f8be0079c531659141344cd1fd0a4f28419497f9722a3daafe3b4186f6b6457e05f80a3565b631e4fbdf760e01b5f525f60045260245ffd5b60025f516020611ede5f395f51905f5254146118a75760025f516020611ede5f395f51905f5255565b633ee5aeb560e01b5f5260045ffd5b9194929394604051916020830193845260018060a01b031660408301526060820152606081526118e7608082611646565b5190206040516020810191825260208152611903604082611646565b51902060025492611913856117b0565b946119216040519687611646565b808652602086019060051b82019136831161014157905b82821061199057505050905f915b84518310156119885761195983866117f9565b519081811015611977575f52602052600160405f205b920191611946565b905f52602052600160405f2061196f565b915092501490565b8135815260209182019101611938565b5f516020611e9e5f395f51905f52546001600160a01b03908116906119c3611a81565b16036119cb57565b6119d3611a81565b63118cdaa760e01b5f9081526001600160a01b0391909116600452602490fd5b60405163a9059cbb60e01b60208281019182526001600160a01b03909416602483015260448083019590955293815290925f91611a31606482611646565b519082855af1156101fc575f513d611a7857506001600160a01b0381163b155b611a585750565b635274afe760e01b5f9081526001600160a01b0391909116600452602490fd5b60011415611a51565b337f00000000000000000000000000000000000000000000000000000000000000006001600160a01b03161480611acf575b15611acb576013193601368111610ebe573560601c90565b3390565b506014361015611ab3565b60ff5f516020611efe5f395f51905f525460401c1615611af657565b631afcd79f60e31b5f5260045ffdfe60803460b857601f61039838819003918201601f19168301916001600160401b0383118484101760bc5780849260209460405283398101031260b857516001600160a01b0381169081900360b857801560a5575f80546001600160a01b031981168317825560405192916001600160a01b03909116907f8be0079c531659141344cd1fd0a4f28419497f9722a3daafe3b4186f6b6457e09080a36102c790816100d18239f35b631e4fbdf760e01b5f525f60045260245ffd5b5f80fd5b634e487b7160e01b5f52604160045260245ffdfe6080806040526004361015610012575f80fd5b5f3560e01c908163429c6e5b1461023357508063715018a6146101dc5780638da5cb5b146101b5578063bd40bde614610186578063ec5747fe14610125578063f2fde38b1461009c5763f364c90c14610069575f80fd5b34610098576040366003190112610098576004355f526001602052602060243560405f20541015604051908152f35b5f80fd5b34610098576020366003190112610098576004356001600160a01b03811690819003610098576100ca610294565b8015610112575f80546001600160a01b03198116831782556001600160a01b0316907f8be0079c531659141344cd1fd0a4f28419497f9722a3daafe3b4186f6b6457e09080a3005b631e4fbdf760e01b5f525f60045260245ffd5b346100985760407f08401774913e94f43659333293c99fdfdea868c488d679967e054abc8b5ae83461015636610259565b610161949294610294565b845f526001602052825f20610177838254610273565b905582519182526020820152a2005b346100985760206101ab61019936610259565b92915f526001845260405f2054610273565b1115604051908152f35b34610098575f366003190112610098575f546040516001600160a01b039091168152602090f35b34610098575f366003190112610098576101f4610294565b5f80546001600160a01b0319811682556001600160a01b03167f8be0079c531659141344cd1fd0a4f28419497f9722a3daafe3b4186f6b6457e08280a3005b34610098576020366003190112610098576020906004355f526001825260405f20548152f35b606090600319011261009857600435906024359060443590565b9190820180921161028057565b634e487b7160e01b5f52601160045260245ffd5b5f546001600160a01b031633036102a757565b63118cdaa760e01b5f523360045260245ffdfea164736f6c634300081c000a9016d09d72d40fdae2fd8ceac6b6234c7706214fd39c1cd1e609a0528c199300290decd9548b62a8d60345a988386fc84ba6bc95484008f6362f93160ef3e5639b779b17422d0df92223018b32b4d1fa46e071723d6817e2486d003becc55f00f0c57e16840df040f15088dc2f81fe391c3923bec73e23a9662efc9c229c6a00a164736f6c634300081c000af0c57e16840df040f15088dc2f81fe391c3923bec73e23a9662efc9c229c6a006080604052346100ca5761057e803803809161001a826100e2565b60803960e08160800191126100ca57610031610130565b60a051916001600160401b0383116100ca5780609f840112156100ca57826080015161005c8161015a565b9161006a604051938461010d565b81835260a082860101116100ca576020815f9260a06100bb97018386015e8301015261009660c0610146565b60e0516100a4610100610146565b916100b0610120610146565b9361014051956101f9565b60405161014990816104158239f35b5f80fd5b634e487b7160e01b5f52604160045260245ffd5b6080601f91909101601f19168101906001600160401b0382119082101761010857604052565b6100ce565b601f909101601f19168101906001600160401b0382119082101761010857604052565b608051906001600160a01b03821682036100ca57565b51906001600160a01b03821682036100ca57565b6001600160401b03811161010857601f01601f191660200190565b908160209103126100ca575180151581036100ca5790565b6040513d5f823e3d90fd5b9260e0602060a09693999897949960c0875280519182918260c08a0152018388015e5f828288010152601f801991011685010197600180871b031660208501526040840152600180851b03166060830152600180841b031660808201520152565b9495919492939290916001600160a01b03821680156102c8576040516301ffc9a760e01b815263cd2c44c360e01b600482015290602090829060249082905afa908115610306575f916102d7575b50156102c8576102c6966102c19461028e6102b39460018060a01b031660018060a01b03195f51602061055e5f395f51905f525416175f51602061055e5f395f51905f5255565b61029661030b565b9660405198899663db190a9f60e01b602089015260248801610198565b03601f19810184528361010d565b6103a7565b565b635c7bfbe960e01b5f5260045ffd5b6102f9915060203d6020116102ff575b6102f1818361010d565b810190610175565b5f610247565b503d6102e7565b61018d565b5f51602061055e5f395f51905f525460405163434b6d0b60e01b815290602090829060049082906001600160a01b03165afa908115610306575f9161036d575b506001600160a01b0381161561035e5790565b63489aaf0d60e11b5f5260045ffd5b90506020813d60201161039f575b816103886020938361010d565b810103126100ca5761039990610146565b5f61034b565b3d915061037b565b6001600160a01b0381161561040557815f929160208493519201905af43d156103fd573d906103d58261015a565b916103e3604051938461010d565b82523d5f602084013e5b156103f55750565b602081519101fd5b6060906103ed565b63ee0a129760e01b5f5260045ffdfe608060405236156100a8577f9182acb7d36456962952de6a17a922790a6f2f803b6ff6a425ef31721c0444d55460209060809060049082906001600160a01b031663434b6d0b60e01b82525afa80156100a3575f90610076575b6001600160a01b0381166100b75763489aaf0d60e11b5f5260045ffd5b5060203d60201161009c575b8061008f610097926100d4565b60800161010b565b610059565b503d610082565b610131565b635d82995b60e01b5f5260045ffd5b5f8091368280378136915af43d5f803e156100d0573d5ff35b3d5ffd5b601f80199101166080016080811067ffffffffffffffff8211176100f757604052565b634e487b7160e01b5f52604160045260245ffd5b602090607f19011261012d576080516001600160a01b038116810361012d5790565b5f80fd5b6040513d5f823e3d90fdfea164736f6c634300081c000a9182acb7d36456962952de6a17a922790a6f2f803b6ff6a425ef31721c0444d52f8788117e7eff1d82e926ec794901d17c78024a50270940304540a733656f0d02dd7bc7dec4dceedda775e58dd541e08a116c6c53815c0bd028192f7b626800f0c57e16840df040f15088dc2f81fe391c3923bec73e23a9662efc9c229c6a00a164736f6c634300081c000af0c57e16840df040f15088dc2f81fe391c3923bec73e23a9662efc9c229c6a00",
    "linkReferences": {}
  },
  "methodIdentifiers": {
    "DEFAULT_ADMIN_ROLE()": "a217fddf",
    "allAirdropsLength()": "150117bd",
    "atkVestingAirdropImplementation()": "434b6d0b",
    "create(string,address,bytes32,address,address,uint256)": "6301e1da",
    "getRoleAdmin(bytes32)": "248a9ca3",
    "grantRole(bytes32,address)": "2f2ff15d",
    "hasRole(bytes32,address)": "91d14854",
    "initialize(address,address)": "485cc955",
    "isFactorySystemAddon(address)": "229fff60",
    "isTrustedForwarder(address)": "572b6c05",
    "predictVestingAirdropAddress(string,address,bytes32,address,address,uint256)": "f867dfaf",
    "renounceRole(bytes32,address)": "36568abe",
    "revokeRole(bytes32,address)": "d547741f",
    "supportsInterface(bytes4)": "01ffc9a7",
    "trustedForwarder()": "7da0a877",
    "typeId()": "8f940f63",
    "updateImplementation(address)": "025b22bc"
  },
  "userdoc": {
    "version": 1,
    "kind": "user",
    "methods": {
      "allAirdropsLength()": {
        "notice": "Returns the total number of vesting airdrop proxy contracts created by this factory."
      },
      "atkVestingAirdropImplementation()": {
        "notice": "Address of the current `ATKVestingAirdrop` logic contract (implementation)."
      },
      "create(string,address,bytes32,address,address,uint256)": {
        "notice": "Creates and deploys a new `ATKVestingAirdropProxy` contract for a given configuration. The proxy will point to the current `atkVestingAirdropImplementation`."
      },
      "initialize(address,address)": {
        "notice": "Initializes the `ATKVestingAirdropFactory`."
      },
      "isFactorySystemAddon(address)": {
        "notice": "Mapping indicating whether an system addon address was deployed by this factory."
      },
      "predictVestingAirdropAddress(string,address,bytes32,address,address,uint256)": {
        "notice": "Predicts the deployment address of a vesting airdrop proxy."
      },
      "supportsInterface(bytes4)": {
        "notice": "Returns the address of the current `ATKVestingAirdrop` logic contract (implementation)."
      },
      "typeId()": {
        "notice": "Returns a unique identifier for the type of this contract."
      },
      "updateImplementation(address)": {
        "notice": "Updates the address of the `ATKVestingAirdrop` implementation contract."
      }
    },
    "events": {
      "ATKVestingAirdropCreated(address,string,address,bytes32,address,address,uint256,address)": {
        "notice": "Emitted when a new `ATKVestingAirdrop` proxy contract is successfully created and deployed."
      },
      "ImplementationUpdated(address,address)": {
        "notice": "Emitted when the `atkVestingAirdropImplementation` is updated."
      }
    },
    "errors": {
      "AddressAlreadyDeployed(address)": [
        {
          "notice": "Error thrown when a CREATE2 address is already deployed."
        }
      ],
      "InvalidAddress()": [
        {
          "notice": "Custom error for invalid address parameter."
        }
      ],
      "InvalidImplementation()": [
        {
          "notice": "Custom error for invalid implementation address."
        }
      ],
      "ProxyCreationFailed()": [
        {
          "notice": "Error thrown when proxy creation fails."
        }
      ],
      "SameAddress()": [
        {
          "notice": "Custom error when attempting to set the same address."
        }
      ]
    },
    "notice": "This contract serves as a factory to deploy new UUPS proxy instances of `ATKVestingAirdrop` contracts. It manages a single implementation contract and allows for updating this implementation."
  },
  "devdoc": {
    "version": 1,
    "kind": "dev",
    "details": "Key features of this factory: - **Deployment of Proxies**: Provides a `create` function to deploy new `ATKVestingAirdropProxy` instances,   which point to a shared `ATKVestingAirdrop` implementation. - **CREATE2**: Leverages `CREATE2` for deploying proxies, allowing their addresses to be pre-calculated. - **Implementation Management**: Deploys an initial implementation and allows the owner to update it. - **Authorization**: The `create` function requires the `DEPLOYER_ROLE` for proper access control. - **Registry**: Maintains an array `allAirdrops` to keep track of all airdrop proxies created. - **Meta-transactions**: Inherits `ERC2771Context` to support gasless operations if a trusted forwarder is configured.",
    "methods": {
      "constructor": {},
      "create(string,address,bytes32,address,address,uint256)": {
        "details": "This function performs the following steps: 1. **Authorization Check**: Verifies the caller has the `DEPLOYER_ROLE`. 2. **Salt Generation**: Computes a unique `salt` for CREATE2. 3. **Initialization Data**: Prepares the `initData` for the proxy to call `initialize` on the implementation. 4. **Proxy Deployment**: Deploys a `ATKVestingAirdropProxy` using CREATE2. 5. **Event Emission**: Emits `ATKVestingAirdropCreated`. 6. **Registry Update**: Adds the new proxy to `allAirdrops`.",
        "params": {
          "initializationDeadline": "The timestamp after which no new vesting can be initialized.",
          "name": "The human-readable name for this airdrop.",
          "owner": "The initial owner of the contract.",
          "root": "The Merkle root for verifying claims.",
          "token": "The address of the ERC20 token to be distributed.",
          "vestingStrategy": "The address of the vesting strategy contract for vesting calculations."
        },
        "returns": {
          "airdropProxyAddress": "The address of the newly created `ATKVestingAirdropProxy` contract."
        }
      },
      "getRoleAdmin(bytes32)": {
        "details": "Returns the admin role that controls `role`. See {grantRole} and {revokeRole}. To change a role's admin, use {_setRoleAdmin}."
      },
      "grantRole(bytes32,address)": {
        "details": "Grants `role` to `account`. If `account` had not been already granted `role`, emits a {RoleGranted} event. Requirements: - the caller must have ``role``'s admin role. May emit a {RoleGranted} event."
      },
      "hasRole(bytes32,address)": {
        "details": "Returns `true` if `account` has been granted `role`."
      },
      "initialize(address,address)": {
        "details": "Initializes the factory, deploys the initial `ATKVestingAirdrop` implementation, and sets up support for meta-transactions via ERC2771Context.",
        "params": {
          "initialAdmin_": "The address of the initial admin.",
          "systemAddress_": "The address of the `IATKSystem` contract."
        }
      },
      "isTrustedForwarder(address)": {
        "details": "Indicates whether any particular address is the trusted forwarder."
      },
      "predictVestingAirdropAddress(string,address,bytes32,address,address,uint256)": {
        "params": {
          "initializationDeadline": "The timestamp after which no new vesting can be initialized.",
          "name": "The human-readable name for this airdrop.",
          "owner": "The initial owner of the contract.",
          "root": "The Merkle root for verifying claims.",
          "token": "The address of the ERC20 token to be distributed.",
          "vestingStrategy": "The address of the vesting strategy contract for vesting calculations."
        },
        "returns": {
          "predictedAddress": "The predicted address of the vesting airdrop proxy."
        }
      },
      "renounceRole(bytes32,address)": {
        "details": "Revokes `role` from the calling account. Roles are often managed via {grantRole} and {revokeRole}: this function's purpose is to provide a mechanism for accounts to lose their privileges if they are compromised (such as when a trusted device is misplaced). If the calling account had been revoked `role`, emits a {RoleRevoked} event. Requirements: - the caller must be `callerConfirmation`. May emit a {RoleRevoked} event."
      },
      "revokeRole(bytes32,address)": {
        "details": "Revokes `role` from `account`. If `account` had been granted `role`, emits a {RoleRevoked} event. Requirements: - the caller must have ``role``'s admin role. May emit a {RoleRevoked} event."
      },
      "trustedForwarder()": {
        "details": "Returns the address of the trusted forwarder."
      },
      "updateImplementation(address)": {
        "details": "Only callable by the factory owner. New proxies created after this call will use the new implementation. This does NOT automatically upgrade existing proxy instances.",
        "params": {
          "_newImplementation": "The address of the new `ATKVestingAirdrop` logic contract."
        }
      }
    },
    "events": {
      "ATKVestingAirdropCreated(address,string,address,bytes32,address,address,uint256,address)": {
        "params": {
          "airdrop": "The address of the newly deployed `ATKVestingAirdropProxy` contract.",
          "creator": "The address that initiated the creation of the airdrop proxy."
        }
      },
      "ImplementationUpdated(address,address)": {
        "params": {
          "newImplementation": "The address of the new implementation contract.",
          "oldImplementation": "The address of the previous implementation contract."
        }
      },
      "Initialized(uint64)": {
        "details": "Triggered when the contract has been initialized or reinitialized."
      },
      "RoleAdminChanged(bytes32,bytes32,bytes32)": {
        "details": "Emitted when `newAdminRole` is set as ``role``'s admin role, replacing `previousAdminRole` `DEFAULT_ADMIN_ROLE` is the starting admin for all roles, despite {RoleAdminChanged} not being emitted to signal this."
      },
      "RoleGranted(bytes32,address,address)": {
        "details": "Emitted when `account` is granted `role`. `sender` is the account that originated the contract call. This account bears the admin role (for the granted role). Expected in cases where the role was granted using the internal {AccessControl-_grantRole}."
      },
      "RoleRevoked(bytes32,address,address)": {
        "details": "Emitted when `account` is revoked `role`. `sender` is the account that originated the contract call:   - if using `revokeRole`, it is the admin role bearer   - if using `renounceRole`, it is the role bearer (i.e. `account`)"
      }
    },
    "errors": {
      "AccessControlBadConfirmation()": [
        {
          "details": "The caller of a function is not the expected one. NOTE: Don't confuse with {AccessControlUnauthorizedAccount}."
        }
      ],
      "AccessControlUnauthorizedAccount(address,bytes32)": [
        {
          "details": "The `account` is missing a role."
        }
      ],
      "Create2EmptyBytecode()": [
        {
          "details": "There's no code to deploy."
        }
      ],
      "FailedDeployment()": [
        {
          "details": "The deployment failed."
        }
      ],
      "InsufficientBalance(uint256,uint256)": [
        {
          "details": "The ETH balance of the account is not enough to perform the operation."
        }
      ],
      "InvalidInitialization()": [
        {
          "details": "The contract is already initialized."
        }
      ],
      "NotInitializing()": [
        {
          "details": "The contract is not initializing."
        }
      ]
    },
    "title": "Factory for Creating ATKVestingAirdrop Proxies"
  },
  "id": 17
}