{
  "abi": [
    {
      "type": "constructor",
      "inputs": [
        {
          "name": "forwarder",
          "type": "address",
          "internalType": "address"
        }
      ],
      "stateMutability": "nonpayable"
    },
    {
      "type": "function",
      "name": "DEFAULT_ADMIN_ROLE",
      "inputs": [],
      "outputs": [
        {
          "name": "",
          "type": "bytes32",
          "internalType": "bytes32"
        }
      ],
      "stateMutability": "view"
    },
    {
      "type": "function",
      "name": "allVaultsLength",
      "inputs": [],
      "outputs": [
        {
          "name": "count",
          "type": "uint256",
          "internalType": "uint256"
        }
      ],
      "stateMutability": "view"
    },
    {
      "type": "function",
      "name": "atkVaultImplementation",
      "inputs": [],
      "outputs": [
        {
          "name": "",
          "type": "address",
          "internalType": "address"
        }
      ],
      "stateMutability": "pure"
    },
    {
      "type": "function",
      "name": "createVault",
      "inputs": [
        {
          "name": "signers",
          "type": "address[]",
          "internalType": "address[]"
        },
        {
          "name": "required",
          "type": "uint256",
          "internalType": "uint256"
        },
        {
          "name": "initialOwner",
          "type": "address",
          "internalType": "address"
        },
        {
          "name": "salt",
          "type": "bytes32",
          "internalType": "bytes32"
        }
      ],
      "outputs": [
        {
          "name": "contractAddress",
          "type": "address",
          "internalType": "address"
        }
      ],
      "stateMutability": "nonpayable"
    },
    {
      "type": "function",
      "name": "getRoleAdmin",
      "inputs": [
        {
          "name": "role",
          "type": "bytes32",
          "internalType": "bytes32"
        }
      ],
      "outputs": [
        {
          "name": "",
          "type": "bytes32",
          "internalType": "bytes32"
        }
      ],
      "stateMutability": "view"
    },
    {
      "type": "function",
      "name": "grantRole",
      "inputs": [
        {
          "name": "role",
          "type": "bytes32",
          "internalType": "bytes32"
        },
        {
          "name": "account",
          "type": "address",
          "internalType": "address"
        }
      ],
      "outputs": [],
      "stateMutability": "nonpayable"
    },
    {
      "type": "function",
      "name": "hasRole",
      "inputs": [
        {
          "name": "role",
          "type": "bytes32",
          "internalType": "bytes32"
        },
        {
          "name": "account",
          "type": "address",
          "internalType": "address"
        }
      ],
      "outputs": [
        {
          "name": "",
          "type": "bool",
          "internalType": "bool"
        }
      ],
      "stateMutability": "view"
    },
    {
      "type": "function",
      "name": "initialize",
      "inputs": [
        {
          "name": "systemAddress_",
          "type": "address",
          "internalType": "address"
        },
        {
          "name": "initialAdmin_",
          "type": "address",
          "internalType": "address"
        }
      ],
      "outputs": [],
      "stateMutability": "nonpayable"
    },
    {
      "type": "function",
      "name": "isFactorySystemAddon",
      "inputs": [
        {
          "name": "systemAddonAddress",
          "type": "address",
          "internalType": "address"
        }
      ],
      "outputs": [
        {
          "name": "isFactorySystemAddon",
          "type": "bool",
          "internalType": "bool"
        }
      ],
      "stateMutability": "view"
    },
    {
      "type": "function",
      "name": "isTrustedForwarder",
      "inputs": [
        {
          "name": "forwarder",
          "type": "address",
          "internalType": "address"
        }
      ],
      "outputs": [
        {
          "name": "",
          "type": "bool",
          "internalType": "bool"
        }
      ],
      "stateMutability": "view"
    },
    {
      "type": "function",
      "name": "predictVaultAddress",
      "inputs": [
        {
          "name": "signers",
          "type": "address[]",
          "internalType": "address[]"
        },
        {
          "name": "required",
          "type": "uint256",
          "internalType": "uint256"
        },
        {
          "name": "initialOwner",
          "type": "address",
          "internalType": "address"
        },
        {
          "name": "salt",
          "type": "bytes32",
          "internalType": "bytes32"
        }
      ],
      "outputs": [
        {
          "name": "predictedAddress",
          "type": "address",
          "internalType": "address"
        }
      ],
      "stateMutability": "view"
    },
    {
      "type": "function",
      "name": "renounceRole",
      "inputs": [
        {
          "name": "role",
          "type": "bytes32",
          "internalType": "bytes32"
        },
        {
          "name": "callerConfirmation",
          "type": "address",
          "internalType": "address"
        }
      ],
      "outputs": [],
      "stateMutability": "nonpayable"
    },
    {
      "type": "function",
      "name": "revokeRole",
      "inputs": [
        {
          "name": "role",
          "type": "bytes32",
          "internalType": "bytes32"
        },
        {
          "name": "account",
          "type": "address",
          "internalType": "address"
        }
      ],
      "outputs": [],
      "stateMutability": "nonpayable"
    },
    {
      "type": "function",
      "name": "supportsInterface",
      "inputs": [
        {
          "name": "interfaceId",
          "type": "bytes4",
          "internalType": "bytes4"
        }
      ],
      "outputs": [
        {
          "name": "",
          "type": "bool",
          "internalType": "bool"
        }
      ],
      "stateMutability": "view"
    },
    {
      "type": "function",
      "name": "trustedForwarder",
      "inputs": [],
      "outputs": [
        {
          "name": "",
          "type": "address",
          "internalType": "address"
        }
      ],
      "stateMutability": "view"
    },
    {
      "type": "function",
      "name": "typeId",
      "inputs": [],
      "outputs": [
        {
          "name": "",
          "type": "bytes32",
          "internalType": "bytes32"
        }
      ],
      "stateMutability": "view"
    },
    {
      "type": "event",
      "name": "ATKVaultCreated",
      "inputs": [
        {
          "name": "vault",
          "type": "address",
          "indexed": true,
          "internalType": "address"
        },
        {
          "name": "creator",
          "type": "address",
          "indexed": true,
          "internalType": "address"
        }
      ],
      "anonymous": false
    },
    {
      "type": "event",
      "name": "Initialized",
      "inputs": [
        {
          "name": "version",
          "type": "uint64",
          "indexed": false,
          "internalType": "uint64"
        }
      ],
      "anonymous": false
    },
    {
      "type": "event",
      "name": "RoleAdminChanged",
      "inputs": [
        {
          "name": "role",
          "type": "bytes32",
          "indexed": true,
          "internalType": "bytes32"
        },
        {
          "name": "previousAdminRole",
          "type": "bytes32",
          "indexed": true,
          "internalType": "bytes32"
        },
        {
          "name": "newAdminRole",
          "type": "bytes32",
          "indexed": true,
          "internalType": "bytes32"
        }
      ],
      "anonymous": false
    },
    {
      "type": "event",
      "name": "RoleGranted",
      "inputs": [
        {
          "name": "role",
          "type": "bytes32",
          "indexed": true,
          "internalType": "bytes32"
        },
        {
          "name": "account",
          "type": "address",
          "indexed": true,
          "internalType": "address"
        },
        {
          "name": "sender",
          "type": "address",
          "indexed": true,
          "internalType": "address"
        }
      ],
      "anonymous": false
    },
    {
      "type": "event",
      "name": "RoleRevoked",
      "inputs": [
        {
          "name": "role",
          "type": "bytes32",
          "indexed": true,
          "internalType": "bytes32"
        },
        {
          "name": "account",
          "type": "address",
          "indexed": true,
          "internalType": "address"
        },
        {
          "name": "sender",
          "type": "address",
          "indexed": true,
          "internalType": "address"
        }
      ],
      "anonymous": false
    },
    {
      "type": "error",
      "name": "AccessControlBadConfirmation",
      "inputs": []
    },
    {
      "type": "error",
      "name": "AccessControlUnauthorizedAccount",
      "inputs": [
        {
          "name": "account",
          "type": "address",
          "internalType": "address"
        },
        {
          "name": "neededRole",
          "type": "bytes32",
          "internalType": "bytes32"
        }
      ]
    },
    {
      "type": "error",
      "name": "AddressAlreadyDeployed",
      "inputs": [
        {
          "name": "deployedAddress",
          "type": "address",
          "internalType": "address"
        }
      ]
    },
    {
      "type": "error",
      "name": "Create2EmptyBytecode",
      "inputs": []
    },
    {
      "type": "error",
      "name": "FailedDeployment",
      "inputs": []
    },
    {
      "type": "error",
      "name": "InsufficientBalance",
      "inputs": [
        {
          "name": "balance",
          "type": "uint256",
          "internalType": "uint256"
        },
        {
          "name": "needed",
          "type": "uint256",
          "internalType": "uint256"
        }
      ]
    },
    {
      "type": "error",
      "name": "InvalidInitialization",
      "inputs": []
    },
    {
      "type": "error",
      "name": "NotInitializing",
      "inputs": []
    },
    {
      "type": "error",
      "name": "ProxyCreationFailed",
      "inputs": []
    }
  ],
  "bytecode": {
    "object": "0x60a03461011e57601f613ffd38819003918201601f19168301916001600160401b038311848410176101225780849260209460405283398101031261011e57516001600160a01b038116810361011e576080525f516020613fdd5f395f51905f525460ff8160401c1661010f576002600160401b03196001600160401b038216016100b9575b604051613ea69081610137823960805181818161022301528181610575015281816105c40152818161084d01526110e90152f35b6001600160401b0319166001600160401b039081175f516020613fdd5f395f51905f52556040519081527fc7f505b2f371ae2175ee4913f4499e1f2633a7b5936321eed1cdaeb6115181d290602090a15f610085565b63f92ee8a960e01b5f5260045ffd5b5f80fd5b634e487b7160e01b5f52604160045260245ffdfe6080806040526004361015610012575f80fd5b5f905f3560e01c90816301ffc9a71461096e57508063229fff6014610931578063248a9ca3146108f25780632f2ff15d146108a85780632f7efa2f1461080e57806336568abe146107b8578063485cc955146106155780634cd18577146105f8578063572b6c05146105a45780637da0a877146105605780637fe6496d146101d15780638f940f631461019657806391d1485414610140578063a217fddf14610124578063bcbd9edb146101245763d547741f146100ce575f80fd5b346101215760403660031901126101215761011d6004356100ed6109f1565b90610118610113825f525f516020613e5a5f395f51905f52602052600160405f20015490565b610c35565b610ff0565b5080f35b80fd5b5034610121578060031936011261012157602090604051908152f35b503461012157604036600319011261012157604061015c6109f1565b9160043581525f516020613e5a5f395f51905f52602052209060018060a01b03165f52602052602060ff60405f2054166040519015158152f35b503461012157806003193601126101215760206040517f3ae60f3cee742e6943392a49179dab2c5e2991d2396b7cf8b808581ecb951bfd8152f35b50346104675761020d61024c61025a61021b6101ec36610a3d565b6101fa969392949196610ba7565b6040519788918887863060208701610b30565b03601f198101885287610a07565b6040519485937f00000000000000000000000000000000000000000000000000000000000000009260208601610b71565b03601f198101835282610a07565b60405190612ce661026e6020820184610a07565b8083526111546020840139610284838284610fb2565b61028c610ba7565b6001600160a01b03165f8181526001602052604090205490939060ff1661054d57906102ba6102c092611099565b92610f72565b80511561053e576020815191015ff53d151981151661045c576001600160a01b031690811561052f57810361052057805f52600160205260405f20600160ff198254161790556004602060018060a01b035f5416604051928380926398468e5160e01b82525afa90811561045c575f916104de575b506001600160a01b03168015158061046b575b610417575b506001600160a01b0361035e6110e6565b169060405191817fdd4f4edaf8af94a1c44f788ac4e78153a8fe0110733f3090d0c6ac09eab172988580a3600254680100000000000000008110156104035760018101806002558110156103ef576002602094527f405787fa12a823e0f2b7631cc41b3ba8828b3321ca811111fa75cd3aa3bb5ace01816bffffffffffffffffffffffff60a01b8254161790558152f35b634e487b7160e01b84526032600452602484fd5b634e487b7160e01b84526041600452602484fd5b803b15610467575f8091602460405180948193631105e3d560e31b83528760048401525af1801561045c571561034d576104549192505f90610a07565b5f905f61034d565b6040513d5f823e3d90fd5b5f80fd5b506040516301ffc9a760e01b815263118f21f760e31b6004820152602081602481855afa90811561045c575f916104a3575b50610348565b90506020813d6020116104d6575b816104be60209383610a07565b8101031261046757518015158103610467575f61049d565b3d91506104b1565b90506020813d602011610518575b816104f960209383610a07565b8101031261046757516001600160a01b0381168103610467575f610335565b3d91506104ec565b6335279f5d60e21b5f5260045ffd5b63b06ebf3d60e01b5f5260045ffd5b631328927760e21b5f5260045ffd5b8363d0dc594960e01b5f5260045260245ffd5b34610467575f366003190112610467576040517f00000000000000000000000000000000000000000000000000000000000000006001600160a01b03168152602090f35b346104675760203660031901126104675760206105bf6109db565b6040517f00000000000000000000000000000000000000000000000000000000000000006001600160a01b039081169216919091148152f35b34610467575f366003190112610467576020600254604051908152f35b346104675760403660031901126104675761062e6109db565b6106366109f1565b905f516020613e7a5f395f51905f52549160ff8360401c16159267ffffffffffffffff8116801590816107b0575b60011490816107a6575b15908161079d575b5061078e5767ffffffffffffffff1981166001175f516020613e7a5f395f51905f525583610762575b5060ff5f516020613e7a5f395f51905f525460401c161561075357806106c76106d792610c91565b506106d181610d40565b50610e0a565b5060018060a01b03166bffffffffffffffffffffffff60a01b5f5416175f556106fc57005b68ff0000000000000000195f516020613e7a5f395f51905f5254165f516020613e7a5f395f51905f52557fc7f505b2f371ae2175ee4913f4499e1f2633a7b5936321eed1cdaeb6115181d2602060405160018152a1005b631afcd79f60e31b5f5260045ffd5b68ffffffffffffffffff191668010000000000000001175f516020613e7a5f395f51905f52558361069f565b63f92ee8a960e01b5f5260045ffd5b90501585610676565b303b15915061066e565b859150610664565b34610467576040366003190112610467576107d16109f1565b6001600160a01b036107e16110e6565b166001600160a01b038216036107ff576107fd90600435610ff0565b005b63334bd91960e11b5f5260045ffd5b3461046757602061089661020d61024c61087561084561082d36610a3d565b604096939294919651978891888786308f8701610b30565b6040519485937f0000000000000000000000000000000000000000000000000000000000000000928a8601610b71565b604051612ce661088786820183610a07565b80825261115486830139610fb2565b6040516001600160a01b039091168152f35b34610467576040366003190112610467576107fd6004356108c76109f1565b906108ed610113825f525f516020613e5a5f395f51905f52602052600160405f20015490565b610ed4565b346104675760203660031901126104675760206109296004355f525f516020613e5a5f395f51905f52602052600160405f20015490565b604051908152f35b34610467576020366003190112610467576001600160a01b036109526109db565b165f526001602052602060ff60405f2054166040519015158152f35b34610467576020366003190112610467576004359063ffffffff60e01b82168092036104675760209163291e793360e21b81149081156109b0575b5015158152f35b637965db0b60e01b8114915081156109ca575b50836109a9565b6301ffc9a760e01b149050836109c3565b600435906001600160a01b038216820361046757565b602435906001600160a01b038216820361046757565b90601f8019910116810190811067ffffffffffffffff821117610a2957604052565b634e487b7160e01b5f52604160045260245ffd5b60806003198201126104675760043567ffffffffffffffff811161046757816023820112156104675780600401359167ffffffffffffffff8311610a29578260051b9160405193610a916020850186610a07565b84526024602085019382010191821161046757602401915b818310610ad457509192602435925090506044356001600160a01b0381168103610467579060643590565b82356001600160a01b038116810361046757815260209283019201610aa9565b90602080835192838152019201905f5b818110610b115750505090565b82516001600160a01b0316845260209384019390920191600101610b04565b91610b57906080949796959260018060a01b0316845260a0602085015260a0840190610af4565b60408301969096526001600160a01b031660608201520152565b92610b89606093969592608086526080860190610af4565b60208501969096526001600160a01b03908116604085015216910152565b610baf6110e6565b6001600160a01b0381165f9081527f8f7e9a8734279607aeaac474f24949ddc99eae25c0da72edcf5ad21022be2c9e602052604090205460ff1615610bf15750565b63e2517d3f60e01b5f9081526001600160a01b03919091166004527ffc425f2263d0df187444b70e47283d622c70181c5baebb1306a01edba1ce184c602452604490fd5b610c3d6110e6565b815f525f516020613e5a5f395f51905f5260205260405f2060018060a01b0382165f5260205260ff60405f20541615610c74575050565b63e2517d3f60e01b5f5260018060a01b031660045260245260445ffd5b6001600160a01b0381165f9081527fb7db2dd08fcb62d0c9e08c51941cae53c267786a0b75803fb7960902fc8ef97d602052604090205460ff16610d3b576001600160a01b038181165f9081527fb7db2dd08fcb62d0c9e08c51941cae53c267786a0b75803fb7960902fc8ef97d60205260409020805460ff19166001179055610d196110e6565b16906001600160a01b03165f5f516020613e3a5f395f51905f528180a4600190565b505f90565b6001600160a01b0381165f9081527fb121b6c2cfb68d56d259fa39abd93d7a85e352365bbcbddf27041e20d031c3d3602052604090205460ff16610d3b576001600160a01b038181165f9081527fb121b6c2cfb68d56d259fa39abd93d7a85e352365bbcbddf27041e20d031c3d360205260409020805460ff19166001179055610dc86110e6565b16906001600160a01b03167fecaefa0171c08a6ded02d98b9432940d3852ef2c7f5007661eb8de37c5a1adc55f516020613e3a5f395f51905f525f80a4600190565b6001600160a01b0381165f9081527f8f7e9a8734279607aeaac474f24949ddc99eae25c0da72edcf5ad21022be2c9e602052604090205460ff16610d3b576001600160a01b038181165f9081527f8f7e9a8734279607aeaac474f24949ddc99eae25c0da72edcf5ad21022be2c9e60205260409020805460ff19166001179055610e926110e6565b16906001600160a01b03167ffc425f2263d0df187444b70e47283d622c70181c5baebb1306a01edba1ce184c5f516020613e3a5f395f51905f525f80a4600190565b5f8181525f516020613e5a5f395f51905f52602090815260408083206001600160a01b038616845290915290205460ff16610f6c575f8181525f516020613e5a5f395f51905f52602090815260408083206001600160a01b0386811685529252909120805460ff19166001179055610f4a6110e6565b16916001600160a01b0316905f516020613e3a5f395f51905f525f80a4600190565b50505f90565b610fb0906020808095946040519684889551918291018487015e8401908282015f8152815193849201905e01015f815203601f198101845283610a07565b565b90610fc2906102ba600b94611099565b602081519101209060405191604083015260208201523081520160ff8153605590206001600160a01b031690565b5f8181525f516020613e5a5f395f51905f52602090815260408083206001600160a01b038616845290915290205460ff1615610f6c575f8181525f516020613e5a5f395f51905f52602090815260408083206001600160a01b0386811685529252909120805460ff191690556110646110e6565b16916001600160a01b0316907ff6391f5c32d9c69d2a47ea670b442974b53935d1edc7fd64eb21e047a839171b5f80a4600190565b6040516110e06080826020808201953087526040808401528051918291826060860152018484015e5f838284010152601f801991011681010301601f198101835282610a07565b51902090565b337f00000000000000000000000000000000000000000000000000000000000000006001600160a01b03161480611148575b15611144576013193601368111611130573560601c90565b634e487b7160e01b5f52601160045260245ffd5b3390565b50601436101561111856fe60a06040523461023a57612ce68038038061001981610252565b928339810160808282031261023a5781516001600160401b03811161023a5782019080601f8301121561023a578151916001600160401b03831161023e578260051b9060208061006a818501610252565b80968152019282010192831161023a57602001905b828210610222575050506020820151916100a760606100a060408401610277565b9201610277565b60805260016003558151908115801561021a575b8015610211575b6101fa576100cf8161028b565b6101b8575b505f5b818110610146576007849055837f9e0800728e995ca040f68d19b1bcc1b4ae0420ed8190fabb5fa564e2961eb7d560206001600160a01b036101176103a5565b1692604051908152a260405161281590816104518239608051818181610ba401528181610c9b015261237c0152f35b82518110156101a457600581901b830160200151600191906001600160a01b031661017081610314565b61017c575b50016100d7565b61019d905f516020612c865f395f51905f525f528360205260405f206103f4565b505f610175565b634e487b7160e01b5f52603260045260245ffd5b5f805260016020526101f3906001600160a01b03167fa6eef7e35abe7026729641147f7915573c7e97b47efa546f5f6e3230263bcb496103f4565b505f6100d4565b50826306a0ee3160e31b5f5260045260245260445ffd5b508184116100c2565b5083156100bb565b6020809161022f84610277565b81520191019061007f565b5f80fd5b634e487b7160e01b5f52604160045260245ffd5b6040519190601f01601f191682016001600160401b0381118382101761023e57604052565b51906001600160a01b038216820361023a57565b6001600160a01b0381165f9081525f516020612cc65f395f51905f52602052604090205460ff1661030f576001600160a01b038181165f9081525f516020612cc65f395f51905f5260205260409020805460ff191660011790556102ed6103a5565b16906001600160a01b03165f5f516020612c665f395f51905f528180a4600190565b505f90565b6001600160a01b0381165f9081525f516020612ca65f395f51905f52602052604090205460ff1661030f576001600160a01b038181165f9081525f516020612ca65f395f51905f5260205260409020805460ff191660011790556103766103a5565b16906001600160a01b03165f516020612c865f395f51905f525f516020612c665f395f51905f525f80a4600190565b6080516001600160a01b03163314806103e9575b156103e55760131936013681116103d1573560601c90565b634e487b7160e01b5f52601160045260245ffd5b3390565b5060143610156103b9565b6001810190825f528160205260405f2054155f146104495780546801000000000000000081101561023e57600181018083558110156101a4578390825f5260205f20015554915f5260205260405f2055600190565b5050505f9056fe6080806040526004361015610069575b50361561001a575f80fd5b610022611cf3565b61002a612379565b604080513481524760208201526001600160a01b03909216917f90890809c654f11d6e72a28fa60149770a0d11ec6c92319d6ceb2bb0a4ea1a159190a2005b5f3560e01c90816301ffc9a7146116315750806308aff933146115dd5780630f05205614611423578063205e7c061461123857806320c5429b14611155578063248a9ca3146111235780632f2ff15d146110be5780633411c81c1461107557806336568abe146110215780633f4ba83a14610fbc57806346bd084114610e8f57806346e24b0814610da157806346f0975a14610ccf578063572b6c0514610c7b5780635c975abb14610c595780636239152014610bd35780637da0a87714610b8f5780638456cb5914610b245780638f56015f14610a615780639010d07c14610a1b57806391d14854146109d35780639ace38c214610916578063a1ebf35d146108ef578063a217fddf146108d5578063a3246ad314610865578063aa787c1e14610763578063b756393014610306578063b779e1c014610691578063ba0179b51461064e578063c13138f114610391578063ca15c87314610367578063d547741f14610323578063dc8452cd146103065763ee0e6f65146101eb575f61000f565b34610302576080366003190112610302576102046116b4565b61020c61169e565b9060443591606435916001600160401b038311610302576020937f97a1625ffe5fa52ea35b6d6808a64cf13bb4ab9bdce9643b7a97f09c8922b9336102f59361025c6102ec9636906004016117eb565b9290610266611bbf565b61026e611cf3565b610276611d0e565b61027e612379565b60405163a9059cbb60e01b8b8201526001600160a01b0385166024820152604480820188905281529096906102ca906102b860648261198d565b6102c3368886611a77565b9083611d7d565b98899560405193849360018060a01b03169860018060a01b038b169785611b10565b0390a4826121a9565b6001600355604051908152f35b5f80fd5b34610302575f366003190112610302576020600754604051908152f35b346103025760403660031901126103025761036560043561034261169e565b9061036061035b825f525f602052600160405f20015490565b611ca2565b61233f565b005b34610302576020366003190112610302576004355f526001602052602060405f2054604051908152f35b346103025760a0366003190112610302576004356001600160401b038111610302576103c19036906004016116ca565b6024356001600160401b038111610302576103e09036906004016116ca565b6044356001600160401b038111610302576103ff9036906004016116ca565b9490936064356001600160401b038111610302576104219036906004016116ca565b9290966084356001600160401b038111610302576104439036906004016116ca565b95909161044e611bbf565b610456611cf3565b61045e611d0e565b841561063f57818514801590610635575b801561062b575b8015610621575b6106125761048c979397612379565b96610496866119c5565b996001600160a01b038916955f5b8881106104c2576001600355604051806104be8f8261178e565b0390f35b8a8d8f8c8f8c8c8f928c8c8f92888c8f8f829c90838f96818f988f828f8f8f918f92849f92859c968697948f95886104fe8180999781986119f7565b61050790611baa565b9261051192611a1b565b9061051b92611b34565b94610526918c6119f7565b61052f90611a07565b9561053a918d6119f7565b359361054592611a1b565b369061055092611a77565b9161055a93611fd2565b6105648284611aad565b5261056e91611aad565b519e610579926119f7565b61058290611a07565b9961058c926119f7565b3596610597926119f7565b6105a090611baa565b996105aa92611a1b565b926105b6929196611a1b565b91604051958695600160a01b6001900316996105d29587611b6e565b037fd1048e3510dfda1faa9bde9bcf936dc0c15b5bb24c1f9b7d795959fb476ecd1691a46105ff91611aad565b519061060a916121a9565b6001016104a4565b63512509d360e11b5f5260045ffd5b508685141561047d565b5085851415610476565b508085141561046f565b637dc57e7b60e01b5f5260045ffd5b3461030257602036600319011261030257610667611bbf565b61066f611cf3565b610677611d0e565b61068a610682612379565b6004356121a9565b6001600355005b34610302576020366003190112610302576004356006548082101561071f5750805f52600460205260405f20546106c7816119c5565b915f5b8281106106df57604051806104be8682611818565b600190825f5260046020526106f78160405f20612589565b838060a01b0391549060031b1c1661070f8287611aad565b90838060a01b03169052016106ca565b801561075b575f19810190811161074757905b632d71397360e11b5f5260045260245260445ffd5b634e487b7160e01b5f52601160045260245ffd5b505f90610732565b346103025760a03660031901126103025761077c6116b4565b602435906044356001600160e01b031981168103610302576064356001600160401b038111610302576107b39036906004016117eb565b91608435926001600160401b038411610302576020957fd1048e3510dfda1faa9bde9bcf936dc0c15b5bb24c1f9b7d795959fb476ecd166107fb6102f59636906004016117eb565b959097610806611bbf565b61080e611cf3565b610816611d0e565b6102ec610821612379565b9761084361083088868b611b34565b61083b36848f611a77565b908886611fd2565b9a8b9760405195869560018060a01b03169a60018060a01b038d169987611b6e565b34610302576020366003190112610302576004355f52600160205260405f206040519081602082549182815201915f5260205f20905f5b8181106108bf576104be856108b38187038261198d565b60405191829182611818565b825484526020909301926001928301920161089c565b34610302575f3660031901126103025760206040515f8152f35b34610302575f3660031901126103025760206040515f5160206127e95f395f51905f528152f35b34610302576020366003190112610302576004356006548110156103025761093d9061185a565b5060018060a01b038154166104be60018301549260056040519161096f8361096881600285016118dd565b038461198d565b6109b960ff6003830154169361099b60048401549361099460405180978193016118dd565b038561198d565b6040519788978852602088015260c0604088015260c08701906117c7565b9215156060860152608085015283820360a08501526117c7565b34610302576040366003190112610302576109ec61169e565b6004355f525f60205260405f209060018060a01b03165f52602052602060ff60405f2054166040519015158152f35b34610302576040366003190112610302576004355f5260016020526020610a4860405f2060243590612589565b905460405160039290921b1c6001600160a01b03168152f35b3461030257602036600319011261030257600435610a7d611c3a565b5f5160206127e95f395f51905f525f5260016020527fb1a26a75446b1d67f01afe7a745dc85c05c9752b7d1cdfcd19e8f115973e8df85481158015610b1b575b610b05575060078190557f9e0800728e995ca040f68d19b1bcc1b4ae0420ed8190fabb5fa564e2961eb7d560206001600160a01b03610afa612379565b1692604051908152a2005b906306a0ee3160e31b5f5260045260245260445ffd5b50808211610abd565b34610302575f36600319011261030257610b3c611c3a565b610b44611cf3565b600160ff1960025416176002557f62e78cea01bee320cd4e420270b5ea74000d11b0c9f74754ebdbfc544b05a2586020610b7c612379565b6040516001600160a01b039091168152a1005b34610302575f366003190112610302576040517f00000000000000000000000000000000000000000000000000000000000000006001600160a01b03168152602090f35b34610302576020366003190112610302576004356001600160401b03811161030257610c039036906004016116ca565b90610c0c611bbf565b610c14611cf3565b610c1c611d0e565b811561063f57610c2a612379565b905f5b838110610c3b576001600355005b80610c5384610c4d60019488876119f7565b356121a9565b01610c2d565b34610302575f36600319011261030257602060ff600254166040519015158152f35b34610302576020366003190112610302576020610c966116b4565b6040517f00000000000000000000000000000000000000000000000000000000000000006001600160a01b039081169216919091148152f35b34610302575f366003190112610302575f5160206127e95f395f51905f525f5260016020527fb1a26a75446b1d67f01afe7a745dc85c05c9752b7d1cdfcd19e8f115973e8df854610d1f816119c5565b905f5b818110610d3757604051806104be8582611818565b5f5160206127e95f395f51905f525f526001602081905290610d79817fb1a26a75446b1d67f01afe7a745dc85c05c9752b7d1cdfcd19e8f115973e8df8612589565b838060a01b0391549060031b1c16610d918286611aad565b90838060a01b0316905201610d22565b3461030257608036600319011261030257610dba6116b4565b6024356044356001600160401b03811161030257610ddc9036906004016117eb565b92606435916001600160401b038311610302576020947fa48c1b3842e6f2c3793e18d2b4fed84fc8c6d18c3687702a2b43492078551efd94610e256102f59536906004016117eb565b969092610e30611bbf565b610e38611cf3565b610e40611d0e565b610e48612379565b956102ec610e6d610e5a36858a611a77565b610e65368d8a611a77565b908785611fd2565b998a9660405194859460018060a01b03169960018060a01b038c169886611ae1565b3461030257602036600319011261030257600435606060a0604051610eb38161195e565b5f81525f60208201528260408201525f838201525f608082015201526006548082101561071f57610ee38261185a565b50604051610ef08161195e565b81546001600160a01b0316815260018201546020820190815260405190926104be9190600590610f278361096881600285016118dd565b60408501928352610f9b60ff60038301541693606087019415158552610f636004840154936080890194855261099460405180978193016118dd565b60a087019384526040519788976020895260018060a01b0390511660208901525160408801525160c0606088015260e08701906117c7565b9251151560808601525160a085015251838203601f190160c08501526117c7565b34610302575f36600319011261030257610fd4611c3a565b60025460ff8116156110125760ff19166002557f5db9ee0a495bf2e6ff9c91a7834c1ba4fdd244a5e8aa4e537bd38aeae4b073aa6020610b7c612379565b638dfc202b60e01b5f5260045ffd5b346103025760403660031901126103025761103a61169e565b6001600160a01b0361104a612379565b166001600160a01b03821603611066576103659060043561233f565b63334bd91960e11b5f5260045ffd5b346103025760403660031901126103025761108e61169e565b6004355f52600560205260405f209060018060a01b03165f52602052602060ff60405f2054166040519015158152f35b34610302576040366003190112610302576004356110da61169e565b6110f261035b835f525f602052600160405f20015490565b6110fc8183612679565b61110257005b5f91825260016020526040909120610365916001600160a01b03169061279b565b3461030257602036600319011261030257602061114d6004355f525f602052600160405f20015490565b604051908152f35b3461030257602036600319011261030257600435611171611bbf565b611179611cf3565b611182816122dd565b61118a612379565b90825f5260046020526111b860405f209260018060a01b031680936001915f520160205260405f2054151590565b1561122157600490835f52816020526111d48360405f2061259e565b50835f52600560205260405f20835f5260205260405f2060ff198154169055015f1981540190557ff0dca620e2e81f7841d07bcc105e1704fb01475b278a9d4c236e1c62945edd555f80a3005b509063b29436e960e01b5f5260045260245260445ffd5b3461030257611246366116fa565b9296909591611253611bbf565b61125b611cf3565b611263611d0e565b821561063f57848314801590611419575b801561140f575b6106125761128a959195612379565b94611294846119c5565b976001600160a01b038716935f5b8681106112bc576001600355604051806104be8d8261178e565b808787878f8f8f868f928184878f8f908f858b8f926112de83809681936119f7565b6112e790611a07565b966112f1926119f7565b60405163a9059cbb60e01b60208201526001600160a01b0396909616602487015235604480870191909152855261132960648661198d565b611333918a6119f7565b61133c90611a07565b9361134692611a1b565b369061135192611a77565b9061135b92611d7d565b6113658284611aad565b5261136f91611aad565b519661137a926119f7565b61138390611a07565b9186611390818d8c6119f7565b61139990611a07565b946113a3926119f7565b35956113af918a611a1b565b6040516001600160a01b0390931696929384936113cd939185611b10565b037f97a1625ffe5fa52ea35b6d6808a64cf13bb4ab9bdce9643b7a97f09c8922b93391a4886113fc828d611aad565b5190611407916121a9565b6001016112a2565b508383141561127b565b5080831415611274565b3461030257611431366116fa565b61144097919397969296611bbf565b611448611cf3565b611450611d0e565b821561063f578483148015906115d3575b80156115c9575b61061257611477959195612379565b94611481846119c5565b976001600160a01b038716935f5b8681106114a9576001600355604051806104be8d8261178e565b878787878f8f8f82888c83828e96818f898f8f848f919e819f8b96839f6114d385809481936119f7565b6114dc90611a07565b986114e6926119f7565b35956114f192611a1b565b926114fd929194611a1b565b929091369061150b92611a77565b91369061151792611a77565b9161152193611fd2565b61152b8284611aad565b5261153591611aad565b519a611540926119f7565b61154990611a07565b95611554918d6119f7565b359361155f92611a1b565b9461156b929198611a1b565b90604051948594600160a01b6001900316986115879486611ae1565b037fa48c1b3842e6f2c3793e18d2b4fed84fc8c6d18c3687702a2b43492078551efd91a4886115b6828d611aad565b51906115c1916121a9565b60010161148f565b5080831415611468565b5086831415611461565b346103025760403660031901126103025760206116276115fb61169e565b600480355f90815290845260408082206001600160a01b03909316825260019092016020522054151590565b6040519015158152f35b34610302576020366003190112610302576004359063ffffffff60e01b821680920361030257602091635a05180f60e01b8114908115611673575b5015158152f35b637965db0b60e01b81149150811561168d575b508361166c565b6301ffc9a760e01b14905083611686565b602435906001600160a01b038216820361030257565b600435906001600160a01b038216820361030257565b9181601f84011215610302578235916001600160401b038311610302576020808501948460051b01011161030257565b6080600319820112610302576004356001600160401b0381116103025781611724916004016116ca565b929092916024356001600160401b0381116103025781611746916004016116ca565b929092916044356001600160401b0381116103025781611768916004016116ca565b92909291606435906001600160401b0382116103025761178a916004016116ca565b9091565b60206040818301928281528451809452019201905f5b8181106117b15750505090565b82518452602093840193909201916001016117a4565b805180835260209291819084018484015e5f828201840152601f01601f1916010190565b9181601f84011215610302578235916001600160401b038311610302576020838186019501011161030257565b60206040818301928281528451809452019201905f5b81811061183b5750505090565b82516001600160a01b031684526020938401939092019160010161182e565b6006548110156118915760065f81815291027ff652222313e28459528d920b65115c16c04f3efc82aaedc97be59f3f377c0d3f0191565b634e487b7160e01b5f52603260045260245ffd5b90600182811c921680156118d3575b60208310146118bf57565b634e487b7160e01b5f52602260045260245ffd5b91607f16916118b4565b5f92918154916118ec836118a5565b8083529260018116908115611941575060011461190857505050565b5f9081526020812093945091925b838310611927575060209250010190565b600181602092949394548385870101520191019190611916565b915050602093945060ff929192191683830152151560051b010190565b60c081019081106001600160401b0382111761197957604052565b634e487b7160e01b5f52604160045260245ffd5b90601f801991011681019081106001600160401b0382111761197957604052565b6001600160401b0381116119795760051b60200190565b906119cf826119ae565b6119dc604051918261198d565b82815280926119ed601f19916119ae565b0190602036910137565b91908110156118915760051b0190565b356001600160a01b03811681036103025790565b91908110156118915760051b81013590601e19813603018212156103025701908135916001600160401b038311610302576020018236038113610302579190565b6001600160401b03811161197957601f01601f191660200190565b929192611a8382611a5c565b91611a91604051938461198d565b829481845281830111610302578281602093845f960137010152565b80518210156118915760209160051b010190565b908060209392818452848401375f828201840152601f01601f1916010190565b9391611b0d9593611aff928652606060208701526060860191611ac1565b926040818503910152611ac1565b90565b611b0d949260609260018060a01b0316825260208201528160408201520191611ac1565b602490611b6c9294938060405196879363ffffffff60e01b1660208501528484013781015f838201520301601f19810184528361198d565b565b94929093611b9c92611b0d9795875263ffffffff60e01b166020870152608060408701526080860191611ac1565b926060818503910152611ac1565b356001600160e01b0319811681036103025790565b611bc7612379565b6001600160a01b0381165f9081527f059f08e7d7ba1c82eddc57afae67f80df851baf38a099607a779825038c3ce5b602052604090205460ff1615611c095750565b63e2517d3f60e01b5f9081526001600160a01b03919091166004525f5160206127e95f395f51905f52602452604490fd5b611c42612379565b6001600160a01b0381165f9081527fad3228b676f7d3cd4284a5443f17f1962b36e491b30a40b2405849e597ba5fb5602052604090205460ff1615611c845750565b63e2517d3f60e01b5f5260018060a01b03166004525f60245260445ffd5b611caa612379565b5f828152602081815260408083206001600160a01b038516845290915290205460ff1615611cd6575050565b63e2517d3f60e01b5f5260018060a01b031660045260245260445ffd5b60ff60025416611cff57565b63d93c066560e01b5f5260045ffd5b600260035414611d1f576002600355565b633ee5aeb560e01b5f5260045ffd5b601f8211611d3b57505050565b5f5260205f20906020601f840160051c83019310611d73575b601f0160051c01905b818110611d68575050565b5f8155600101611d5d565b9091508190611d54565b929091926006549260405191611d928361195e565b6001600160a01b031682525f6020830181815260408401928352606084018281526080850192835260a08501978852919290600160401b8710156119795760018701600655611de08761185a565b959095611fbf575185546001600160a01b0319166001600160a01b039190911617855551600185015551805160028501916001600160401b03821161197957611e3382611e2d85546118a5565b85611d2e565b602090601f8311600114611f535782600597969593611e879593611e6c935f92611eea575b50508160011b915f199060031b1c19161790565b90555b511515600384019060ff801983541691151516179055565b5160048201550192519283516001600160401b03811161197957611eb581611eaf84546118a5565b84611d2e565b602094601f8211600114611ef557611ee69293949582915f92611eea5750508160011b915f199060031b1c19161790565b9055565b015190505f80611e58565b601f19821695835f52805f20915f5b888110611f3b57508360019596979810611f23575b505050811b019055565b01515f1960f88460031b161c191690555f8080611f19565b91926020600181928685015181550194019201611f04565b90601f19831691845f52815f20925f5b818110611fa7575092600192859260059a999896611e87989610611f8f575b505050811b019055611e6f565b01515f1960f88460031b161c191690555f8080611f82565b92936020600181928786015181550195019301611f63565b634e487b7160e01b5f525f60045260245ffd5b90939192936006549360405192611fe88461195e565b60018060a01b03168352602083019182526040830190815260608301905f825260808401925f845260a08501978852600160401b87101561197957600187016006556120338761185a565b959095611fbf575185546001600160a01b0319166001600160a01b039190911617855551600185015551805160028501916001600160401b0382116119795761208082611e2d85546118a5565b602090601f831160011461215657826005979695936120b89593611e6c935f92611eea5750508160011b915f199060031b1c19161790565b5160048201550192519283516001600160401b038111611979576120e081611eaf84546118a5565b602094601f821160011461211157611ee69293949582915f92611eea5750508160011b915f199060031b1c19161790565b601f19821695835f52805f20915f5b88811061213e57508360019596979810611f2357505050811b019055565b91926020600181928685015181550194019201612120565b90601f19831691845f52815f20925f5b818110612191575092600192859260059a9998966120b8989610611f8f57505050811b019055611e6f565b92936020600181928786015181550195019301612166565b6121b2816122dd565b91815f52600460205260405f206121e060018060a01b03831680926001915f520160205260405f2054151590565b6122c757825f5260046020526121f98160405f2061279b565b50825f52600560205260405f20815f5260205260405f20600160ff1982541617905582600485019160018354018093557f5cbe105e36805f7820e291f799d5794ff948af2a5f664e580382defb633900415f80a36007541115806122b8575b61226157505050565b61226b90826123d2565b15612274575050565b8154604051635f226afd60e11b815260048101929092526001600160a01b03166024820152606060448201529081906122b49060648301906002016118dd565b0390fd5b5060ff60038401541615612258565b826347b467b960e11b5f5260045260245260445ffd5b906006548083101561231657506122f38261185a565b509160ff6003840154166123045750565b6393fbc70960e01b5f5260045260245ffd5b9050801561075b575f1981019081116107475790632d71397360e11b5f5260045260245260445ffd5b612349828261270e565b918261235457505090565b5f91825260016020526040909120612375916001600160a01b03169061259e565b5090565b337f00000000000000000000000000000000000000000000000000000000000000006001600160a01b031614806123c7575b156123c3576013193601368111610747573560601c90565b3390565b5060143610156123ab565b6123db8161185a565b509160038301805460ff811661257f5760019060ff191617815560018060a01b0384541660018501546002860190604051915f9080549061241b826118a5565b91600181169081156125685750600114612536575b5050915f939181859403925af13d15612531573d61244d81611a5c565b9061245b604051928361198d565b81525f60203d92013e5b15612521575081906001600160a01b03167f5445f318f4f5fcfb66592e68e0cc5822aa15664039bd5f0ffde24c5a8142b1ac5f80a3805f52600460205260405f20545f5b8181106124be5750505060045f910155600190565b825f52600460205260405f2090815415611891575f9182526020808320548584526005825260408085206001600160a01b03909216808652918352808520805460ff191690558685526004909252922060019261251a9161259e565b50016124a9565b805460ff19169055505f92915050565b612465565b9091505f5260205f205f905b82821061255457505082018183612430565b600181602092548488015201910190612542565b60ff19168652505080151502830190508183612430565b5050505050600190565b8054821015611891575f5260205f2001905f90565b906001820191815f528260205260405f20548015155f14612671575f1981018181116107475782545f1981019190821161074757818103612626575b50505080548015612612575f1901906125f38282612589565b8154905f199060031b1b19169055555f526020525f6040812055600190565b634e487b7160e01b5f52603160045260245ffd5b61265c6126366126469386612589565b90549060031b1c92839286612589565b819391549060031b91821b915f19901b19161790565b90555f528360205260405f20555f80806125da565b505050505f90565b5f818152602081815260408083206001600160a01b038616845290915290205460ff16612708575f818152602081815260408083206001600160a01b0386811685529252909120805460ff191660011790556126d3612379565b16916001600160a01b0316907f2f8788117e7eff1d82e926ec794901d17c78024a50270940304540a733656f0d5f80a4600190565b50505f90565b5f818152602081815260408083206001600160a01b038616845290915290205460ff1615612708575f818152602081815260408083206001600160a01b0386811685529252909120805460ff19169055612766612379565b16916001600160a01b0316907ff6391f5c32d9c69d2a47ea670b442974b53935d1edc7fd64eb21e047a839171b5f80a4600190565b5f82815260018201602052604090205461270857805490600160401b82101561197957826127d3612646846001809601855584612589565b90558054925f520160205260405f205560019056fee2f4eaae4a9751e85a3e4a7b9587827a877f29914755229b07a7b2da98285f70a164736f6c634300081c000a2f8788117e7eff1d82e926ec794901d17c78024a50270940304540a733656f0de2f4eaae4a9751e85a3e4a7b9587827a877f29914755229b07a7b2da98285f70059f08e7d7ba1c82eddc57afae67f80df851baf38a099607a779825038c3ce5bad3228b676f7d3cd4284a5443f17f1962b36e491b30a40b2405849e597ba5fb52f8788117e7eff1d82e926ec794901d17c78024a50270940304540a733656f0d02dd7bc7dec4dceedda775e58dd541e08a116c6c53815c0bd028192f7b626800f0c57e16840df040f15088dc2f81fe391c3923bec73e23a9662efc9c229c6a00a164736f6c634300081c000af0c57e16840df040f15088dc2f81fe391c3923bec73e23a9662efc9c229c6a00",
    "linkReferences": {}
  },
  "methodIdentifiers": {
    "DEFAULT_ADMIN_ROLE()": "a217fddf",
    "allVaultsLength()": "4cd18577",
    "atkVaultImplementation()": "bcbd9edb",
    "createVault(address[],uint256,address,bytes32)": "7fe6496d",
    "getRoleAdmin(bytes32)": "248a9ca3",
    "grantRole(bytes32,address)": "2f2ff15d",
    "hasRole(bytes32,address)": "91d14854",
    "initialize(address,address)": "485cc955",
    "isFactorySystemAddon(address)": "229fff60",
    "isTrustedForwarder(address)": "572b6c05",
    "predictVaultAddress(address[],uint256,address,bytes32)": "2f7efa2f",
    "renounceRole(bytes32,address)": "36568abe",
    "revokeRole(bytes32,address)": "d547741f",
    "supportsInterface(bytes4)": "01ffc9a7",
    "trustedForwarder()": "7da0a877",
    "typeId()": "8f940f63"
  },
  "userdoc": {
    "version": 1,
    "kind": "user",
    "methods": {
      "allVaultsLength()": {
        "notice": "Returns the total number of vault contracts created by this factory."
      },
      "atkVaultImplementation()": {
        "notice": "Returns the address of the ATKVault implementation (not used in this pattern)."
      },
      "createVault(address[],uint256,address,bytes32)": {
        "notice": "Creates and deploys a new `ATKVault` contract for a given configuration."
      },
      "initialize(address,address)": {
        "notice": "Initializes the `ATKVaultFactory`."
      },
      "isFactorySystemAddon(address)": {
        "notice": "Mapping indicating whether an system addon address was deployed by this factory."
      },
      "predictVaultAddress(address[],uint256,address,bytes32)": {
        "notice": "Predicts the address where an ATK Vault contract would be deployed"
      },
      "supportsInterface(bytes4)": {
        "notice": "Checks if a contract supports a given interface."
      },
      "typeId()": {
        "notice": "Returns a unique identifier for the type of this contract."
      }
    },
    "events": {
      "ATKVaultCreated(address,address)": {
        "notice": "Emitted when a new ATK Vault contract is created"
      }
    },
    "errors": {
      "AddressAlreadyDeployed(address)": [
        {
          "notice": "Error thrown when a CREATE2 address is already deployed."
        }
      ],
      "ProxyCreationFailed()": [
        {
          "notice": "Error thrown when proxy creation fails."
        }
      ]
    },
    "notice": "This contract serves as a factory to deploy new UUPS proxy instances of `ATKVault` contracts. It manages a single implementation contract and allows for updating this implementation."
  },
  "devdoc": {
    "version": 1,
    "kind": "dev",
    "details": "Key features of this factory: - **Deployment of Proxies**: Provides a `createVault` function to deploy new `ATKVaultProxy` instances,   which point to a shared `ATKVault` implementation. - **CREATE2**: Leverages `CREATE2` for deploying proxies, allowing their addresses to be pre-calculated. - **Implementation Management**: Deploys an initial implementation and allows the owner to update it. - **Authorization**: The `createVault` function requires the `DEPLOYER_ROLE` for proper access control. - **Registry**: Maintains an array `allVaults` to keep track of all vault proxies created. - **Meta-transactions**: Inherits `ERC2771Context` to support gasless operations if a trusted forwarder is configured.",
    "methods": {
      "atkVaultImplementation()": {
        "details": "Since we deploy ATKVault contracts directly, this returns address(0)."
      },
      "constructor": {},
      "createVault(address[],uint256,address,bytes32)": {
        "details": "This function performs the following steps: 1. **Authorization Check**: Verifies the caller has the `DEPLOYER_ROLE`. 2. **Salt Generation**: Computes a unique `salt` for CREATE2. 3. **Constructor Arguments**: Prepares the constructor arguments for the ATKVault contract. 4. **Vault Deployment**: Deploys an `ATKVault` using CREATE2. 5. **Event Emission**: Emits `ATKVaultCreated`. 6. **Registry Update**: Adds the new vault to `allVaults`.",
        "params": {
          "initialOwner": "Address that will have admin role",
          "required": "Number of confirmations required to execute a transaction",
          "salt": "Salt value for deterministic address generation",
          "signers": "Array of initial signer addresses"
        },
        "returns": {
          "contractAddress": "Address of the newly created vault"
        }
      },
      "getRoleAdmin(bytes32)": {
        "details": "Returns the admin role that controls `role`. See {grantRole} and {revokeRole}. To change a role's admin, use {_setRoleAdmin}."
      },
      "grantRole(bytes32,address)": {
        "details": "Grants `role` to `account`. If `account` had not been already granted `role`, emits a {RoleGranted} event. Requirements: - the caller must have ``role``'s admin role. May emit a {RoleGranted} event."
      },
      "hasRole(bytes32,address)": {
        "details": "Returns `true` if `account` has been granted `role`."
      },
      "initialize(address,address)": {
        "details": "Initializes the factory and sets up support for meta-transactions via ERC2771Context.",
        "params": {
          "initialAdmin_": "The address of the initial admin.",
          "systemAddress_": "The address of the `IATKSystem` contract."
        }
      },
      "isTrustedForwarder(address)": {
        "details": "Indicates whether any particular address is the trusted forwarder."
      },
      "predictVaultAddress(address[],uint256,address,bytes32)": {
        "params": {
          "initialOwner": "Address that will have admin role",
          "required": "Number of confirmations required to execute a transaction",
          "salt": "Salt value for deterministic address generation",
          "signers": "Array of initial signer addresses"
        },
        "returns": {
          "predictedAddress": "The predicted address of the vault"
        }
      },
      "renounceRole(bytes32,address)": {
        "details": "Revokes `role` from the calling account. Roles are often managed via {grantRole} and {revokeRole}: this function's purpose is to provide a mechanism for accounts to lose their privileges if they are compromised (such as when a trusted device is misplaced). If the calling account had been revoked `role`, emits a {RoleRevoked} event. Requirements: - the caller must be `callerConfirmation`. May emit a {RoleRevoked} event."
      },
      "revokeRole(bytes32,address)": {
        "details": "Revokes `role` from `account`. If `account` had been granted `role`, emits a {RoleRevoked} event. Requirements: - the caller must have ``role``'s admin role. May emit a {RoleRevoked} event."
      },
      "trustedForwarder()": {
        "details": "Returns the address of the trusted forwarder."
      }
    },
    "events": {
      "ATKVaultCreated(address,address)": {
        "params": {
          "creator": "Address of the account that created the vault",
          "vault": "Address of the newly created vault"
        }
      },
      "Initialized(uint64)": {
        "details": "Triggered when the contract has been initialized or reinitialized."
      },
      "RoleAdminChanged(bytes32,bytes32,bytes32)": {
        "details": "Emitted when `newAdminRole` is set as ``role``'s admin role, replacing `previousAdminRole` `DEFAULT_ADMIN_ROLE` is the starting admin for all roles, despite {RoleAdminChanged} not being emitted to signal this."
      },
      "RoleGranted(bytes32,address,address)": {
        "details": "Emitted when `account` is granted `role`. `sender` is the account that originated the contract call. This account bears the admin role (for the granted role). Expected in cases where the role was granted using the internal {AccessControl-_grantRole}."
      },
      "RoleRevoked(bytes32,address,address)": {
        "details": "Emitted when `account` is revoked `role`. `sender` is the account that originated the contract call:   - if using `revokeRole`, it is the admin role bearer   - if using `renounceRole`, it is the role bearer (i.e. `account`)"
      }
    },
    "errors": {
      "AccessControlBadConfirmation()": [
        {
          "details": "The caller of a function is not the expected one. NOTE: Don't confuse with {AccessControlUnauthorizedAccount}."
        }
      ],
      "AccessControlUnauthorizedAccount(address,bytes32)": [
        {
          "details": "The `account` is missing a role."
        }
      ],
      "Create2EmptyBytecode()": [
        {
          "details": "There's no code to deploy."
        }
      ],
      "FailedDeployment()": [
        {
          "details": "The deployment failed."
        }
      ],
      "InsufficientBalance(uint256,uint256)": [
        {
          "details": "The ETH balance of the account is not enough to perform the operation."
        }
      ],
      "InvalidInitialization()": [
        {
          "details": "The contract is already initialized."
        }
      ],
      "NotInitializing()": [
        {
          "details": "The contract is not initializing."
        }
      ]
    },
    "title": "Factory for Creating ATKVault Proxies"
  },
  "id": 21
}