{
  "abi": [
    {
      "type": "constructor",
      "inputs": [
        {
          "name": "forwarder",
          "type": "address",
          "internalType": "address"
        }
      ],
      "stateMutability": "nonpayable"
    },
    {
      "type": "function",
      "name": "approvals",
      "inputs": [
        {
          "name": "account",
          "type": "address",
          "internalType": "address"
        }
      ],
      "outputs": [
        {
          "name": "",
          "type": "bool",
          "internalType": "bool"
        }
      ],
      "stateMutability": "view"
    },
    {
      "type": "function",
      "name": "approve",
      "inputs": [],
      "outputs": [
        {
          "name": "success",
          "type": "bool",
          "internalType": "bool"
        }
      ],
      "stateMutability": "nonpayable"
    },
    {
      "type": "function",
      "name": "autoExecute",
      "inputs": [],
      "outputs": [
        {
          "name": "",
          "type": "bool",
          "internalType": "bool"
        }
      ],
      "stateMutability": "view"
    },
    {
      "type": "function",
      "name": "cancel",
      "inputs": [],
      "outputs": [
        {
          "name": "",
          "type": "bool",
          "internalType": "bool"
        }
      ],
      "stateMutability": "nonpayable"
    },
    {
      "type": "function",
      "name": "cancelled",
      "inputs": [],
      "outputs": [
        {
          "name": "",
          "type": "bool",
          "internalType": "bool"
        }
      ],
      "stateMutability": "view"
    },
    {
      "type": "function",
      "name": "createdAt",
      "inputs": [],
      "outputs": [
        {
          "name": "",
          "type": "uint256",
          "internalType": "uint256"
        }
      ],
      "stateMutability": "view"
    },
    {
      "type": "function",
      "name": "cutoffDate",
      "inputs": [],
      "outputs": [
        {
          "name": "",
          "type": "uint256",
          "internalType": "uint256"
        }
      ],
      "stateMutability": "view"
    },
    {
      "type": "function",
      "name": "execute",
      "inputs": [],
      "outputs": [
        {
          "name": "",
          "type": "bool",
          "internalType": "bool"
        }
      ],
      "stateMutability": "nonpayable"
    },
    {
      "type": "function",
      "name": "executed",
      "inputs": [],
      "outputs": [
        {
          "name": "",
          "type": "bool",
          "internalType": "bool"
        }
      ],
      "stateMutability": "view"
    },
    {
      "type": "function",
      "name": "flows",
      "inputs": [],
      "outputs": [
        {
          "name": "",
          "type": "tuple[]",
          "internalType": "struct IATKXvPSettlement.Flow[]",
          "components": [
            {
              "name": "asset",
              "type": "address",
              "internalType": "address"
            },
            {
              "name": "from",
              "type": "address",
              "internalType": "address"
            },
            {
              "name": "to",
              "type": "address",
              "internalType": "address"
            },
            {
              "name": "amount",
              "type": "uint256",
              "internalType": "uint256"
            }
          ]
        }
      ],
      "stateMutability": "view"
    },
    {
      "type": "function",
      "name": "initialize",
      "inputs": [
        {
          "name": "settlementName",
          "type": "string",
          "internalType": "string"
        },
        {
          "name": "settlementCutoffDate",
          "type": "uint256",
          "internalType": "uint256"
        },
        {
          "name": "settlementAutoExecute",
          "type": "bool",
          "internalType": "bool"
        },
        {
          "name": "settlementFlows",
          "type": "tuple[]",
          "internalType": "struct IATKXvPSettlement.Flow[]",
          "components": [
            {
              "name": "asset",
              "type": "address",
              "internalType": "address"
            },
            {
              "name": "from",
              "type": "address",
              "internalType": "address"
            },
            {
              "name": "to",
              "type": "address",
              "internalType": "address"
            },
            {
              "name": "amount",
              "type": "uint256",
              "internalType": "uint256"
            }
          ]
        }
      ],
      "outputs": [],
      "stateMutability": "nonpayable"
    },
    {
      "type": "function",
      "name": "isFullyApproved",
      "inputs": [],
      "outputs": [
        {
          "name": "",
          "type": "bool",
          "internalType": "bool"
        }
      ],
      "stateMutability": "view"
    },
    {
      "type": "function",
      "name": "isTrustedForwarder",
      "inputs": [
        {
          "name": "forwarder",
          "type": "address",
          "internalType": "address"
        }
      ],
      "outputs": [
        {
          "name": "",
          "type": "bool",
          "internalType": "bool"
        }
      ],
      "stateMutability": "view"
    },
    {
      "type": "function",
      "name": "name",
      "inputs": [],
      "outputs": [
        {
          "name": "",
          "type": "string",
          "internalType": "string"
        }
      ],
      "stateMutability": "view"
    },
    {
      "type": "function",
      "name": "revokeApproval",
      "inputs": [],
      "outputs": [
        {
          "name": "",
          "type": "bool",
          "internalType": "bool"
        }
      ],
      "stateMutability": "nonpayable"
    },
    {
      "type": "function",
      "name": "supportsInterface",
      "inputs": [
        {
          "name": "interfaceId",
          "type": "bytes4",
          "internalType": "bytes4"
        }
      ],
      "outputs": [
        {
          "name": "",
          "type": "bool",
          "internalType": "bool"
        }
      ],
      "stateMutability": "view"
    },
    {
      "type": "function",
      "name": "trustedForwarder",
      "inputs": [],
      "outputs": [
        {
          "name": "",
          "type": "address",
          "internalType": "address"
        }
      ],
      "stateMutability": "view"
    },
    {
      "type": "event",
      "name": "Initialized",
      "inputs": [
        {
          "name": "version",
          "type": "uint64",
          "indexed": false,
          "internalType": "uint64"
        }
      ],
      "anonymous": false
    },
    {
      "type": "event",
      "name": "XvPSettlementApprovalRevoked",
      "inputs": [
        {
          "name": "sender",
          "type": "address",
          "indexed": true,
          "internalType": "address"
        }
      ],
      "anonymous": false
    },
    {
      "type": "event",
      "name": "XvPSettlementApproved",
      "inputs": [
        {
          "name": "sender",
          "type": "address",
          "indexed": true,
          "internalType": "address"
        }
      ],
      "anonymous": false
    },
    {
      "type": "event",
      "name": "XvPSettlementCancelled",
      "inputs": [
        {
          "name": "sender",
          "type": "address",
          "indexed": true,
          "internalType": "address"
        }
      ],
      "anonymous": false
    },
    {
      "type": "event",
      "name": "XvPSettlementExecuted",
      "inputs": [
        {
          "name": "sender",
          "type": "address",
          "indexed": true,
          "internalType": "address"
        }
      ],
      "anonymous": false
    },
    {
      "type": "error",
      "name": "EmptyFlows",
      "inputs": []
    },
    {
      "type": "error",
      "name": "InsufficientAllowance",
      "inputs": [
        {
          "name": "token",
          "type": "address",
          "internalType": "address"
        },
        {
          "name": "owner",
          "type": "address",
          "internalType": "address"
        },
        {
          "name": "spender",
          "type": "address",
          "internalType": "address"
        },
        {
          "name": "required",
          "type": "uint256",
          "internalType": "uint256"
        },
        {
          "name": "allowed",
          "type": "uint256",
          "internalType": "uint256"
        }
      ]
    },
    {
      "type": "error",
      "name": "InvalidCutoffDate",
      "inputs": []
    },
    {
      "type": "error",
      "name": "InvalidInitialization",
      "inputs": []
    },
    {
      "type": "error",
      "name": "InvalidToken",
      "inputs": []
    },
    {
      "type": "error",
      "name": "NotInitializing",
      "inputs": []
    },
    {
      "type": "error",
      "name": "ReentrancyGuardReentrantCall",
      "inputs": []
    },
    {
      "type": "error",
      "name": "SafeERC20FailedOperation",
      "inputs": [
        {
          "name": "token",
          "type": "address",
          "internalType": "address"
        }
      ]
    },
    {
      "type": "error",
      "name": "SenderAlreadyApprovedSettlement",
      "inputs": []
    },
    {
      "type": "error",
      "name": "SenderNotApprovedSettlement",
      "inputs": []
    },
    {
      "type": "error",
      "name": "SenderNotInvolvedInSettlement",
      "inputs": []
    },
    {
      "type": "error",
      "name": "XvPSettlementAlreadyCancelled",
      "inputs": []
    },
    {
      "type": "error",
      "name": "XvPSettlementAlreadyExecuted",
      "inputs": []
    },
    {
      "type": "error",
      "name": "XvPSettlementExpired",
      "inputs": []
    },
    {
      "type": "error",
      "name": "XvPSettlementNotApproved",
      "inputs": []
    },
    {
      "type": "error",
      "name": "XvPSettlementNotExpired",
      "inputs": []
    },
    {
      "type": "error",
      "name": "ZeroAddress",
      "inputs": []
    },
    {
      "type": "error",
      "name": "ZeroAmount",
      "inputs": []
    }
  ],
  "bytecode": {
    "object": "0x60a03461011057601f61147738819003918201601f19168301916001600160401b038311848410176101145780849260209460405283398101031261011057516001600160a01b0381168103610110576080525f5160206114575f395f51905f525460ff8160401c16610101576002600160401b03196001600160401b038216016100ab575b60405161132e90816101298239608051818181610a3701528181610b6301526111150152f35b6001600160401b0319166001600160401b039081175f5160206114575f395f51905f52556040519081527fc7f505b2f371ae2175ee4913f4499e1f2633a7b5936321eed1cdaeb6115181d290602090a15f610085565b63f92ee8a960e01b5f5260045ffd5b5f80fd5b634e487b7160e01b5f52604160045260245ffdfe6080806040526004361015610012575f80fd5b5f3560e01c90816301ffc9a714610f195750806306fdde0314610e3b57806312424e3f14610bbc57806331a38c8914610b97578063572b6c0514610b435780635d0341ba14610b065780636146195414610a8a5780637bf3b6c514610a665780637da0a87714610a2257806390d02b3c1461090b5780639a82a09a146108e6578063a7dd8a96146107b9578063a911f73614610797578063ca00ed2b1461077b578063cf09e0d01461075e578063db2a7e50146101d15763ea8a1af0146100d7575f80fd5b346101cd575f3660031901126101cd576100ef6110da565b60015460ff8160081c166101be575f5f600254905b818110610182575b5050156101735762ff00001916620100001760015560206001600160a01b03610133611112565b16604051907f6791a00da5c4f071b344d1ab448dbf07ba707247bc73795dbe2823d93812c3c95f80a260015f5160206112e25f395f51905f525560018152f35b637f03d13d60e11b5f5260045ffd5b61018b81611040565b50600101546001600160a01b03908116906101a4611112565b16146101b257600101610104565b50505060015f8061010c565b630704910f60e31b5f5260045ffd5b5f80fd5b346101cd5760803660031901126101cd5760043567ffffffffffffffff81116101cd57366023820112156101cd57806004013561020d81610fd4565b9161021b6040519384610fb2565b81835236602483830101116101cd57815f9260246020930183860137830101526044358015158091036101cd5760643567ffffffffffffffff81116101cd57366023820112156101cd57806004013561027381610ff0565b916102816040519384610fb2565b8183526024602084019260071b820101903682116101cd57602401915b818310610703575050505f5160206113025f395f51905f52549160ff8360401c16159267ffffffffffffffff8116801590816106fb575b60011490816106f1575b1590816106e8575b506106d95767ffffffffffffffff1981166001175f5160206113025f395f51905f5255836106ad575b50610319611296565b610321611296565b60015f5160206112e25f395f51905f525561033a611296565b835167ffffffffffffffff811161050957610356600554611008565b601f8111610645575b50602094601f82116001146105d7579481929394955f926105cc575b50508160011b915f199060031b1c1916176005555b6024355f5560ff801960015416911617600155426004558051156105bd575f5b815181101561055f57600581901b82016020015180519091906001600160a01b03161561051d576020820180519092906001600160a01b031615610550576040810180519091906001600160a01b0316156105505760608101805115610541575f8060018060a01b03845116604051602081019063313ce56760e01b82526004815261043d602482610fb2565b51915afa3d15610539573d9061045282610fd4565b916104606040519384610fb2565b82523d5f602084013e5b1590811561052c575b5061051d57600254680100000000000000008110156105095780600161049c9201600255611040565b9390936104f657915183546001600160a01b03199081166001600160a01b039283161785559551600185810180548916928416929092179091559251600285018054909716911617909455925160039190910155016103b0565b634e487b7160e01b5f525f60045260245ffd5b634e487b7160e01b5f52604160045260245ffd5b63c1ab6dc160e01b5f5260045ffd5b6020915051141588610473565b60609061046a565b631f2a200560e01b5f5260045ffd5b63d92e233d60e01b5f5260045ffd5b8261056657005b68ff0000000000000000195f5160206113025f395f51905f5254165f5160206113025f395f51905f52557fc7f505b2f371ae2175ee4913f4499e1f2633a7b5936321eed1cdaeb6115181d2602060405160018152a1005b63786d930160e11b5f5260045ffd5b01519050858061037b565b601f1982169560055f525f5160206112c25f395f51905f52915f5b88811061062d57508360019596979810610615575b505050811b01600555610390565b01515f1960f88460031b161c19169055858080610607565b919260206001819286850151815501940192016105f2565b60055f52601f820160051c5f5160206112c25f395f51905f52019060208310610698575b601f0160051c5f5160206112c25f395f51905f5201905b81811061068d575061035f565b5f8155600101610680565b5f5160206112c25f395f51905f529150610669565b68ffffffffffffffffff191668010000000000000001175f5160206113025f395f51905f525584610310565b63f92ee8a960e01b5f5260045ffd5b905015866102e7565b303b1591506102df565b8591506102d5565b6080833603126101cd57602060809160405161071e81610f96565b61072786610f82565b8152610734838701610f82565b8382015261074460408701610f82565b60408201526060860135606082015281520192019161029e565b346101cd575f3660031901126101cd576020600454604051908152f35b346101cd575f3660031901126101cd5760205f54604051908152f35b346101cd575f3660031901126101cd57602060ff600154166040519015158152f35b346101cd575f3660031901126101cd576002546107d581610ff0565b906107e36040519283610fb2565b80825260208201908160025f527f405787fa12a823e0f2b7631cc41b3ba8828b3321ca811111fa75cd3aa3bb5ace5f915b838310610895578486604051918291602083019060208452518091526040830191905f5b818110610846575050500390f35b825180516001600160a01b039081168652602082810151821681880152604080840151909216918701919091526060918201519186019190915286955060809094019390920191600101610838565b600460206001926040516108a881610f96565b855460a086901b8690039081168252868601548116848301526002870154166040820152600386015460608201528152949092019392019101610814565b346101cd575f3660031901126101cd57602060ff60015460101c166040519015158152f35b346101cd575f3660031901126101cd576109236110da565b5f5f600254905b8181106109e6575b505015610173576001600160a01b03610949611112565b165f52600360205260ff60405f205416156109d7576001600160a01b0361096e611112565b165f908152600360209081526040909120805460ff191690556001600160a01b03610997611112565b16604051907fb8047ca8c7d296e0b96533ee4f8a135446f5307e7ef32b0313bd8f2dc92b2c785f80a260015f5160206112e25f395f51905f525560018152f35b63766bb56f60e01b5f5260045ffd5b6109ef81611040565b50600101546001600160a01b0390811690610a08611112565b1614610a165760010161092a565b50505060018180610932565b346101cd575f3660031901126101cd576040517f00000000000000000000000000000000000000000000000000000000000000006001600160a01b03168152602090f35b346101cd575f3660031901126101cd576020610a8061108c565b6040519015158152f35b346101cd575f3660031901126101cd57610aa26110da565b60015460ff8160081c166101be5760101c60ff16610af7575f54421015610ae8576020610acd61117f565b60015f5160206112e25f395f51905f52556040519015158152f35b631375922f60e21b5f5260045ffd5b63de87c00560e01b5f5260045ffd5b346101cd5760203660031901126101cd576001600160a01b03610b27610f6c565b165f526003602052602060ff60405f2054166040519015158152f35b346101cd5760203660031901126101cd576020610b5e610f6c565b6040517f00000000000000000000000000000000000000000000000000000000000000006001600160a01b039081169216919091148152f35b346101cd575f3660031901126101cd57602060ff60015460081c166040519015158152f35b346101cd575f3660031901126101cd57610bd46110da565b60015460ff8160081c166101be5760101c60ff16610af7575f54421015610ae8576002545f805b828110610e01575b5015610173576001600160a01b03610c19611112565b165f52600360205260ff60405f205416610df2575f5b818110610cdd576001600160a01b03610c46611112565b165f908152600360205260409020805460ff191660011790556001600160a01b03610c6f611112565b167fdf88b71653b43acb580f3e64cb2fc0bd871e638a7a370889986fc0b6c10e5f655f80a260ff6001541680610ccf575b610cc1575b60015f5160206112e25f395f51905f5255602060405160018152f35b610cc961117f565b50610ca5565b50610cd861108c565b610ca0565b610ce681611040565b5060018101546001600160a01b0390811690610d00611112565b1614610d10575b50600101610c2f565b80546001600160a01b031690610d24611112565b604051636eb1769f60e11b81526001600160a01b03909116600482015230602482015290602082604481865afa918215610de7575f92610db3575b5060030154808210610d72575050610d07565b60a49350610d7e611112565b6040516351750bc760e01b815260048101949094526001600160a01b0316602484015230604484015260648301526084820152fd5b9091506020813d8211610ddf575b81610dce60209383610fb2565b810103126101cd5751906003610d5f565b3d9150610dc1565b6040513d5f823e3d90fd5b63992a9f6f60e01b5f5260045ffd5b610e0a81611040565b50600101546001600160a01b0390811690610e23611112565b1614610e3157600101610bfb565b5050600182610c03565b346101cd575f3660031901126101cd57604051600554905f610e5c83611008565b808352602083019360018116908115610efe5750600114610eb3575b5090610e88816040930382610fb2565b8151928391602083525180918160208501528484015e5f828201840152601f01601f19168101030190f35b91905060055f525f5160206112c25f395f51905f52915f905b808210610ee457509091508101602001610e88610e78565b919260018160209254838588010152019101909291610ecc565b60ff1916855250151560051b82016020019050610e88610e78565b346101cd5760203660031901126101cd576004359063ffffffff60e01b82168092036101cd576020916389b7139360e01b8114908115610f5b575b5015158152f35b6301ffc9a760e01b14905083610f54565b600435906001600160a01b03821682036101cd57565b35906001600160a01b03821682036101cd57565b6080810190811067ffffffffffffffff82111761050957604052565b90601f8019910116810190811067ffffffffffffffff82111761050957604052565b67ffffffffffffffff811161050957601f01601f191660200190565b67ffffffffffffffff81116105095760051b60200190565b90600182811c92168015611036575b602083101461102257565b634e487b7160e01b5f52602260045260245ffd5b91607f1691611017565b6002548110156110785760025f81815291901b7f405787fa12a823e0f2b7631cc41b3ba8828b3321ca811111fa75cd3aa3bb5ace0191565b634e487b7160e01b5f52603260045260245ffd5b6002545f5b81811061109f575050600190565b6110a881611040565b50600101546001600160a01b03165f9081526003602052604090205460ff16156110d457600101611091565b50505f90565b60025f5160206112e25f395f51905f5254146111035760025f5160206112e25f395f51905f5255565b633ee5aeb560e01b5f5260045ffd5b337f00000000000000000000000000000000000000000000000000000000000000006001600160a01b03161480611174575b1561117057601319360136811161115c573560601c90565b634e487b7160e01b5f52601160045260245ffd5b3390565b506014361015611144565b61118761108c565b15611287575f5b60025481101561123d576111a181611040565b508054600182015460028301546003909301546040516323b872dd60e01b60208083019182526001600160a01b03948516602484015295841660448301526064808301939093529181529190921692915f916111fe608482610fb2565b519082855af115610de7575f513d6112345750803b155b611222575060010161118e565b635274afe760e01b5f5260045260245ffd5b60011415611215565b506001805461ff0019166101001790556001600160a01b0361125d611112565b167f56affb24bdcddaa72ae590c2b1b8aa4101e24565bbb5bdb504852f20a3da8cdc5f80a2600190565b630ce40ec160e41b5f5260045ffd5b60ff5f5160206113025f395f51905f525460401c16156112b257565b631afcd79f60e31b5f5260045ffdfe036b6384b5eca791c62761152d0c79bb0604c104a5fb6f4eb0703f3154bb3db09b779b17422d0df92223018b32b4d1fa46e071723d6817e2486d003becc55f00f0c57e16840df040f15088dc2f81fe391c3923bec73e23a9662efc9c229c6a00a164736f6c634300081c000af0c57e16840df040f15088dc2f81fe391c3923bec73e23a9662efc9c229c6a00",
    "linkReferences": {}
  },
  "methodIdentifiers": {
    "approvals(address)": "5d0341ba",
    "approve()": "12424e3f",
    "autoExecute()": "a911f736",
    "cancel()": "ea8a1af0",
    "cancelled()": "9a82a09a",
    "createdAt()": "cf09e0d0",
    "cutoffDate()": "ca00ed2b",
    "execute()": "61461954",
    "executed()": "31a38c89",
    "flows()": "a7dd8a96",
    "initialize(string,uint256,bool,(address,address,address,uint256)[])": "db2a7e50",
    "isFullyApproved()": "7bf3b6c5",
    "isTrustedForwarder(address)": "572b6c05",
    "name()": "06fdde03",
    "revokeApproval()": "90d02b3c",
    "supportsInterface(bytes4)": "01ffc9a7",
    "trustedForwarder()": "7da0a877"
  },
  "userdoc": {
    "version": 1,
    "kind": "user",
    "methods": {
      "approvals(address)": {
        "notice": "Returns whether an account has approved the settlement"
      },
      "approve()": {
        "notice": "Approves a XvP settlement for execution"
      },
      "autoExecute()": {
        "notice": "Returns whether the settlement should auto-execute when all approvals are received"
      },
      "cancel()": {
        "notice": "Cancels the settlement"
      },
      "cancelled()": {
        "notice": "Returns whether the settlement has been cancelled"
      },
      "createdAt()": {
        "notice": "Returns the timestamp when the settlement was created"
      },
      "cutoffDate()": {
        "notice": "Returns the cutoff date after which the settlement expires"
      },
      "execute()": {
        "notice": "Executes the flows if all approvals are in place"
      },
      "executed()": {
        "notice": "Returns whether the settlement has been executed"
      },
      "flows()": {
        "notice": "Returns all flows in the settlement"
      },
      "initialize(string,uint256,bool,(address,address,address,uint256)[])": {
        "notice": "Initializes the ATKXvPSettlementImplementation contract for proxy usage"
      },
      "isFullyApproved()": {
        "notice": "Checks if all parties have approved the settlement"
      },
      "name()": {
        "notice": "Returns the name of the settlement"
      },
      "revokeApproval()": {
        "notice": "Revokes approval for a XvP settlement"
      },
      "supportsInterface(bytes4)": {
        "notice": "Checks if the contract implements an interface"
      }
    },
    "events": {
      "XvPSettlementApprovalRevoked(address)": {
        "notice": "Event emitted when an XvP settlement approval is revoked"
      },
      "XvPSettlementApproved(address)": {
        "notice": "Event emitted when an XvP settlement is approved by a party"
      },
      "XvPSettlementCancelled(address)": {
        "notice": "Event emitted when an XvP settlement is cancelled"
      },
      "XvPSettlementExecuted(address)": {
        "notice": "Event emitted when an XvP settlement is executed"
      }
    },
    "notice": "This contract facilitates atomic swaps between parties with multiple token flows. Parties can approve the settlement, and once all parties are approved, the settlement can be executed."
  },
  "devdoc": {
    "version": 1,
    "kind": "dev",
    "details": "This contract supports: - **Multi-party settlements**: Any number of participants with different tokens - **Atomic execution**: All transfers happen together or none at all - **Per-sender approvals**: Each party approves the entire settlement once - **Expiration mechanism**: Settlements expire after a cutoff date - **Cancellation**: Any involved sender can cancel before execution - **Auto-execution**: Optional automatic execution when all approvals are received",
    "methods": {
      "approvals(address)": {
        "params": {
          "account": "The account to check approvals for"
        },
        "returns": {
          "_0": "True if the account has approved the settlement"
        }
      },
      "approve()": {
        "details": "The caller must be a party in the settlement's flows",
        "returns": {
          "success": "True if the approval was successful"
        }
      },
      "autoExecute()": {
        "returns": {
          "_0": "True if auto-execute is enabled"
        }
      },
      "cancel()": {
        "returns": {
          "_0": "True if the cancellation was successful"
        }
      },
      "cancelled()": {
        "returns": {
          "_0": "True if the settlement has been cancelled"
        }
      },
      "constructor": {},
      "createdAt()": {
        "returns": {
          "_0": "The creation timestamp"
        }
      },
      "cutoffDate()": {
        "returns": {
          "_0": "The cutoff date timestamp"
        }
      },
      "execute()": {
        "returns": {
          "_0": "success True if execution was successful"
        }
      },
      "executed()": {
        "returns": {
          "_0": "True if the settlement has been executed"
        }
      },
      "flows()": {
        "returns": {
          "_0": "Array of all flows"
        }
      },
      "initialize(string,uint256,bool,(address,address,address,uint256)[])": {
        "details": "Replaces constructor for upgradeable pattern",
        "params": {
          "settlementAutoExecute": "Whether to auto-execute after all approvals",
          "settlementCutoffDate": "Timestamp after which the settlement expires",
          "settlementFlows": "Array of token flows for this settlement",
          "settlementName": "The name of this settlement"
        }
      },
      "isFullyApproved()": {
        "returns": {
          "_0": "approved True if all parties have approved"
        }
      },
      "isTrustedForwarder(address)": {
        "details": "Indicates whether any particular address is the trusted forwarder."
      },
      "name()": {
        "returns": {
          "_0": "The settlement name"
        }
      },
      "revokeApproval()": {
        "details": "The caller must have previously approved the settlement",
        "returns": {
          "_0": "success True if the revocation was successful"
        }
      },
      "supportsInterface(bytes4)": {
        "params": {
          "interfaceId": "The interface identifier"
        },
        "returns": {
          "_0": "True if the contract implements the interface"
        }
      },
      "trustedForwarder()": {
        "details": "Returns the address of the trusted forwarder."
      }
    },
    "events": {
      "Initialized(uint64)": {
        "details": "Triggered when the contract has been initialized or reinitialized."
      }
    },
    "errors": {
      "InvalidInitialization()": [
        {
          "details": "The contract is already initialized."
        }
      ],
      "NotInitializing()": [
        {
          "details": "The contract is not initializing."
        }
      ],
      "ReentrancyGuardReentrantCall()": [
        {
          "details": "Unauthorized reentrant call."
        }
      ],
      "SafeERC20FailedOperation(address)": [
        {
          "details": "An operation with an ERC-20 token failed."
        }
      ]
    },
    "title": "ATKXvPSettlementImplementation - A contract for cross-value proposition settlements"
  },
  "id": 31
}