{
  "abi": [
    {
      "type": "constructor",
      "inputs": [
        {
          "name": "forwarder",
          "type": "address",
          "internalType": "address"
        }
      ],
      "stateMutability": "nonpayable"
    },
    {
      "type": "function",
      "name": "DEFAULT_ADMIN_ROLE",
      "inputs": [],
      "outputs": [
        {
          "name": "",
          "type": "bytes32",
          "internalType": "bytes32"
        }
      ],
      "stateMutability": "view"
    },
    {
      "type": "function",
      "name": "allSettlementsLength",
      "inputs": [],
      "outputs": [
        {
          "name": "",
          "type": "uint256",
          "internalType": "uint256"
        }
      ],
      "stateMutability": "view"
    },
    {
      "type": "function",
      "name": "create",
      "inputs": [
        {
          "name": "name",
          "type": "string",
          "internalType": "string"
        },
        {
          "name": "flows",
          "type": "tuple[]",
          "internalType": "struct IATKXvPSettlement.Flow[]",
          "components": [
            {
              "name": "asset",
              "type": "address",
              "internalType": "address"
            },
            {
              "name": "from",
              "type": "address",
              "internalType": "address"
            },
            {
              "name": "to",
              "type": "address",
              "internalType": "address"
            },
            {
              "name": "amount",
              "type": "uint256",
              "internalType": "uint256"
            }
          ]
        },
        {
          "name": "cutoffDate",
          "type": "uint256",
          "internalType": "uint256"
        },
        {
          "name": "autoExecute",
          "type": "bool",
          "internalType": "bool"
        }
      ],
      "outputs": [
        {
          "name": "contractAddress",
          "type": "address",
          "internalType": "address"
        }
      ],
      "stateMutability": "nonpayable"
    },
    {
      "type": "function",
      "name": "getRoleAdmin",
      "inputs": [
        {
          "name": "role",
          "type": "bytes32",
          "internalType": "bytes32"
        }
      ],
      "outputs": [
        {
          "name": "",
          "type": "bytes32",
          "internalType": "bytes32"
        }
      ],
      "stateMutability": "view"
    },
    {
      "type": "function",
      "name": "grantRole",
      "inputs": [
        {
          "name": "role",
          "type": "bytes32",
          "internalType": "bytes32"
        },
        {
          "name": "account",
          "type": "address",
          "internalType": "address"
        }
      ],
      "outputs": [],
      "stateMutability": "nonpayable"
    },
    {
      "type": "function",
      "name": "hasRole",
      "inputs": [
        {
          "name": "role",
          "type": "bytes32",
          "internalType": "bytes32"
        },
        {
          "name": "account",
          "type": "address",
          "internalType": "address"
        }
      ],
      "outputs": [
        {
          "name": "",
          "type": "bool",
          "internalType": "bool"
        }
      ],
      "stateMutability": "view"
    },
    {
      "type": "function",
      "name": "initialize",
      "inputs": [
        {
          "name": "systemAddress",
          "type": "address",
          "internalType": "address"
        },
        {
          "name": "initialAdmin",
          "type": "address",
          "internalType": "address"
        }
      ],
      "outputs": [],
      "stateMutability": "nonpayable"
    },
    {
      "type": "function",
      "name": "isAddressDeployed",
      "inputs": [
        {
          "name": "settlement",
          "type": "address",
          "internalType": "address"
        }
      ],
      "outputs": [
        {
          "name": "",
          "type": "bool",
          "internalType": "bool"
        }
      ],
      "stateMutability": "view"
    },
    {
      "type": "function",
      "name": "isFactorySystemAddon",
      "inputs": [
        {
          "name": "systemAddonAddress",
          "type": "address",
          "internalType": "address"
        }
      ],
      "outputs": [
        {
          "name": "isFactorySystemAddon",
          "type": "bool",
          "internalType": "bool"
        }
      ],
      "stateMutability": "view"
    },
    {
      "type": "function",
      "name": "isTrustedForwarder",
      "inputs": [
        {
          "name": "forwarder",
          "type": "address",
          "internalType": "address"
        }
      ],
      "outputs": [
        {
          "name": "",
          "type": "bool",
          "internalType": "bool"
        }
      ],
      "stateMutability": "view"
    },
    {
      "type": "function",
      "name": "predictAddress",
      "inputs": [
        {
          "name": "name",
          "type": "string",
          "internalType": "string"
        },
        {
          "name": "flows",
          "type": "tuple[]",
          "internalType": "struct IATKXvPSettlement.Flow[]",
          "components": [
            {
              "name": "asset",
              "type": "address",
              "internalType": "address"
            },
            {
              "name": "from",
              "type": "address",
              "internalType": "address"
            },
            {
              "name": "to",
              "type": "address",
              "internalType": "address"
            },
            {
              "name": "amount",
              "type": "uint256",
              "internalType": "uint256"
            }
          ]
        },
        {
          "name": "cutoffDate",
          "type": "uint256",
          "internalType": "uint256"
        },
        {
          "name": "autoExecute",
          "type": "bool",
          "internalType": "bool"
        }
      ],
      "outputs": [
        {
          "name": "predicted",
          "type": "address",
          "internalType": "address"
        }
      ],
      "stateMutability": "view"
    },
    {
      "type": "function",
      "name": "renounceRole",
      "inputs": [
        {
          "name": "role",
          "type": "bytes32",
          "internalType": "bytes32"
        },
        {
          "name": "callerConfirmation",
          "type": "address",
          "internalType": "address"
        }
      ],
      "outputs": [],
      "stateMutability": "nonpayable"
    },
    {
      "type": "function",
      "name": "revokeRole",
      "inputs": [
        {
          "name": "role",
          "type": "bytes32",
          "internalType": "bytes32"
        },
        {
          "name": "account",
          "type": "address",
          "internalType": "address"
        }
      ],
      "outputs": [],
      "stateMutability": "nonpayable"
    },
    {
      "type": "function",
      "name": "supportsInterface",
      "inputs": [
        {
          "name": "interfaceId",
          "type": "bytes4",
          "internalType": "bytes4"
        }
      ],
      "outputs": [
        {
          "name": "",
          "type": "bool",
          "internalType": "bool"
        }
      ],
      "stateMutability": "view"
    },
    {
      "type": "function",
      "name": "trustedForwarder",
      "inputs": [],
      "outputs": [
        {
          "name": "",
          "type": "address",
          "internalType": "address"
        }
      ],
      "stateMutability": "view"
    },
    {
      "type": "function",
      "name": "typeId",
      "inputs": [],
      "outputs": [
        {
          "name": "",
          "type": "bytes32",
          "internalType": "bytes32"
        }
      ],
      "stateMutability": "view"
    },
    {
      "type": "function",
      "name": "updateImplementation",
      "inputs": [
        {
          "name": "_newImplementation",
          "type": "address",
          "internalType": "address"
        }
      ],
      "outputs": [],
      "stateMutability": "nonpayable"
    },
    {
      "type": "function",
      "name": "xvpSettlementImplementation",
      "inputs": [],
      "outputs": [
        {
          "name": "",
          "type": "address",
          "internalType": "address"
        }
      ],
      "stateMutability": "view"
    },
    {
      "type": "event",
      "name": "ATKXvPSettlementCreated",
      "inputs": [
        {
          "name": "settlement",
          "type": "address",
          "indexed": true,
          "internalType": "address"
        },
        {
          "name": "creator",
          "type": "address",
          "indexed": true,
          "internalType": "address"
        }
      ],
      "anonymous": false
    },
    {
      "type": "event",
      "name": "ImplementationUpdated",
      "inputs": [
        {
          "name": "oldImplementation",
          "type": "address",
          "indexed": true,
          "internalType": "address"
        },
        {
          "name": "newImplementation",
          "type": "address",
          "indexed": true,
          "internalType": "address"
        }
      ],
      "anonymous": false
    },
    {
      "type": "event",
      "name": "Initialized",
      "inputs": [
        {
          "name": "version",
          "type": "uint64",
          "indexed": false,
          "internalType": "uint64"
        }
      ],
      "anonymous": false
    },
    {
      "type": "event",
      "name": "RoleAdminChanged",
      "inputs": [
        {
          "name": "role",
          "type": "bytes32",
          "indexed": true,
          "internalType": "bytes32"
        },
        {
          "name": "previousAdminRole",
          "type": "bytes32",
          "indexed": true,
          "internalType": "bytes32"
        },
        {
          "name": "newAdminRole",
          "type": "bytes32",
          "indexed": true,
          "internalType": "bytes32"
        }
      ],
      "anonymous": false
    },
    {
      "type": "event",
      "name": "RoleGranted",
      "inputs": [
        {
          "name": "role",
          "type": "bytes32",
          "indexed": true,
          "internalType": "bytes32"
        },
        {
          "name": "account",
          "type": "address",
          "indexed": true,
          "internalType": "address"
        },
        {
          "name": "sender",
          "type": "address",
          "indexed": true,
          "internalType": "address"
        }
      ],
      "anonymous": false
    },
    {
      "type": "event",
      "name": "RoleRevoked",
      "inputs": [
        {
          "name": "role",
          "type": "bytes32",
          "indexed": true,
          "internalType": "bytes32"
        },
        {
          "name": "account",
          "type": "address",
          "indexed": true,
          "internalType": "address"
        },
        {
          "name": "sender",
          "type": "address",
          "indexed": true,
          "internalType": "address"
        }
      ],
      "anonymous": false
    },
    {
      "type": "error",
      "name": "AccessControlBadConfirmation",
      "inputs": []
    },
    {
      "type": "error",
      "name": "AccessControlUnauthorizedAccount",
      "inputs": [
        {
          "name": "account",
          "type": "address",
          "internalType": "address"
        },
        {
          "name": "neededRole",
          "type": "bytes32",
          "internalType": "bytes32"
        }
      ]
    },
    {
      "type": "error",
      "name": "AddressAlreadyDeployed",
      "inputs": [
        {
          "name": "deployedAddress",
          "type": "address",
          "internalType": "address"
        }
      ]
    },
    {
      "type": "error",
      "name": "Create2EmptyBytecode",
      "inputs": []
    },
    {
      "type": "error",
      "name": "EmptyFlows",
      "inputs": []
    },
    {
      "type": "error",
      "name": "FailedDeployment",
      "inputs": []
    },
    {
      "type": "error",
      "name": "InsufficientBalance",
      "inputs": [
        {
          "name": "balance",
          "type": "uint256",
          "internalType": "uint256"
        },
        {
          "name": "needed",
          "type": "uint256",
          "internalType": "uint256"
        }
      ]
    },
    {
      "type": "error",
      "name": "InvalidAddress",
      "inputs": []
    },
    {
      "type": "error",
      "name": "InvalidCutoffDate",
      "inputs": []
    },
    {
      "type": "error",
      "name": "InvalidImplementation",
      "inputs": []
    },
    {
      "type": "error",
      "name": "InvalidInitialization",
      "inputs": []
    },
    {
      "type": "error",
      "name": "NotInitializing",
      "inputs": []
    },
    {
      "type": "error",
      "name": "ProxyCreationFailed",
      "inputs": []
    },
    {
      "type": "error",
      "name": "SameAddress",
      "inputs": []
    },
    {
      "type": "error",
      "name": "ZeroAddressNotAllowed",
      "inputs": []
    }
  ],
  "bytecode": {
    "object": "0x60a03461008f57601f61326038819003918201601f19168301916001600160401b038311848410176100935780849260209460405283398101031261008f57516001600160a01b038116810361008f5760805261005a6100a7565b6100626100a7565b604051613102908161013e82396080518181816105ea01528181610661015281816107d801526114c00152f35b5f80fd5b634e487b7160e01b5f52604160045260245ffd5b5f5160206132405f395f51905f525460ff8160401c1661012e576002600160401b03196001600160401b038216016100dc5750565b6001600160401b0319166001600160401b039081175f5160206132405f395f51905f52556040519081527fc7f505b2f371ae2175ee4913f4499e1f2633a7b5936321eed1cdaeb6115181d290602090a1565b63f92ee8a960e01b5f5260045ffdfe6080806040526004361015610012575f80fd5b5f905f3560e01c90816301ffc9a714610be257508063025b22bc14610a61578063229fff6014610a24578063248a9ca3146109e55780632f2ff15d1461099b578063353f9f0f1461097e57806336568abe1461092a578063485cc955146106c25780634e7f6dea14610695578063572b6c051461064157806361cdf47a146106195780637da0a877146105d55780638f940f631461059b57806391d1485414610546578063a217fddf1461052c578063d547741f146104db578063f3c6dc121461043e5763fc6142d0146100e4575f80fd5b34610333576100f236610cb1565b919093926100fe610fcb565b4285111561042f578151156104205761015561016392610137946101456101236114bd565b604051978891848c878a3060208801610f33565b03601f198101885287610c8f565b6040519788943060208701610f84565b03601f198101855284610c8f565b604051906106a16101776020820184610c8f565b8083526129f5602084013961018d81858461147f565b610195610fcb565b6001600160a01b03165f8181526001602052604090205490949060ff1661040d576101c26101c892611555565b9261143f565b8051156103fe576020815191015ff53d1519811516610328576001600160a01b03169182156103ef5782036103e057815f52600160205260405f20600160ff198254161790556004602060018060a01b035f5416604051928380926398468e5160e01b82525afa908115610328575f9161039e575b506001600160a01b031680151580610337575b6102e5575b5060035491680100000000000000008310156102d15761027d83600160209501600355610e31565b81546001600160a01b0360039290921b82811b199091169084901b179091556102a46114bd565b16817fb2016da2200bca69c20025619ea27a5e6bff1beccb9d2cbd5fa851a816363f2e6040519480a38152f35b634e487b7160e01b82526041600452602482fd5b803b15610333575f8091602460405180948193631105e3d560e31b83528860048401525af1801561032857156102555761032191505f90610c8f565b5f5f610255565b6040513d5f823e3d90fd5b5f80fd5b506040516301ffc9a760e01b815263118f21f760e31b6004820152602081602481855afa908115610328575f9161036f575b50610250565b610391915060203d602011610397575b6103898183610c8f565b810190610e19565b5f610369565b503d61037f565b90506020813d6020116103d8575b816103b960209383610c8f565b8101031261033357516001600160a01b0381168103610333575f61023d565b3d91506103ac565b6335279f5d60e21b5f5260045ffd5b63b06ebf3d60e01b5f5260045ffd5b631328927760e21b5f5260045ffd5b8463d0dc594960e01b5f5260045260245ffd5b63786d930160e11b5f5260045ffd5b6307124c3b60e11b5f5260045ffd5b346103335760206104c961047d61049a6104a861045a36610cb1565b61048b610469969392966114bd565b604051988991848a878a3060208801610f33565b03601f198101895288610c8f565b604051958694308b8701610f84565b03601f198101835282610c8f565b6040516106a16104ba86820183610c8f565b8082526129f58683013961147f565b6040516001600160a01b039091168152f35b346103335760403660031901126103335761052a6004356104fa610c65565b90610525610520825f525f5160206130b65f395f51905f52602052600160405f20015490565b611059565b611396565b005b34610333575f3660031901126103335760206040515f8152f35b346103335760403660031901126103335761055f610c65565b6004355f525f5160206130b65f395f51905f5260205260405f209060018060a01b03165f52602052602060ff60405f2054166040519015158152f35b34610333575f3660031901126103335760206040517f3337e28e53c542b14ebf40e6209e7a8c594728c6454de755f89a199568852b1e8152f35b34610333575f366003190112610333576040517f00000000000000000000000000000000000000000000000000000000000000006001600160a01b03168152602090f35b34610333575f366003190112610333576002546040516001600160a01b039091168152602090f35b3461033357602036600319011261033357602061065c610c4f565b6040517f00000000000000000000000000000000000000000000000000000000000000006001600160a01b039081169216919091148152f35b346103335760203660031901126103335760206106b86106b3610c4f565b610e5d565b6040519015158152f35b34610333576040366003190112610333576106db610c4f565b6106e3610c65565b5f5160206130d65f395f51905f52549160ff8360401c16159267ffffffffffffffff811680159081610922575b6001149081610918575b15908161090f575b506109005767ffffffffffffffff1981166001175f5160206130d65f395f51905f5255836108d4575b506001600160a01b03169081156108c5576001600160a01b038116156108c5576107989061077761152a565b61077f61152a565b610788816110b5565b5061079281611164565b5061122e565b506bffffffffffffffffffffffff60a01b5f5416175f556040516114778082019082821067ffffffffffffffff8311176108b157602091839161157e83397f00000000000000000000000000000000000000000000000000000000000000006001600160a01b031681520301905ff0801561032857600280546001600160a01b0319166001600160a01b0392909216918217905560405191905f7faa3f731066a578e5f39b4215468d826cdd15373cbc0dfc9cb9bdc649718ef7da8180a361085c57005b60207fc7f505b2f371ae2175ee4913f4499e1f2633a7b5936321eed1cdaeb6115181d29168ff0000000000000000195f5160206130d65f395f51905f5254165f5160206130d65f395f51905f525560018152a1005b634e487b7160e01b5f52604160045260245ffd5b6342bcdf7f60e11b5f5260045ffd5b68ffffffffffffffffff191668010000000000000001175f5160206130d65f395f51905f52558361074b565b63f92ee8a960e01b5f5260045ffd5b90501585610722565b303b15915061071a565b859150610710565b3461033357604036600319011261033357610943610c65565b6001600160a01b036109536114bd565b166001600160a01b0382160361096f5761052a90600435611396565b63334bd91960e11b5f5260045ffd5b34610333575f366003190112610333576020600354604051908152f35b346103335760403660031901126103335761052a6004356109ba610c65565b906109e0610520825f525f5160206130b65f395f51905f52602052600160405f20015490565b6112f8565b34610333576020366003190112610333576020610a1c6004355f525f5160206130b65f395f51905f52602052600160405f20015490565b604051908152f35b34610333576020366003190112610333576001600160a01b03610a45610c4f565b165f526001602052602060ff60405f2054166040519015158152f35b3461033357602036600319011261033357610a7a610c4f565b610a826114bd565b6001600160a01b0381165f9081527fb121b6c2cfb68d56d259fa39abd93d7a85e352365bbcbddf27041e20d031c3d3602052604090205460ff1615610b9e57506001600160a01b03168015610b8f576002546001600160a01b03811690828214610b80576040516301ffc9a760e01b81526389b7139360e01b6004820152602081602481875afa908115610328575f91610b61575b5015610b52576001600160a01b03191682176002557faa3f731066a578e5f39b4215468d826cdd15373cbc0dfc9cb9bdc649718ef7da5f80a3005b63340aafcd60e11b5f5260045ffd5b610b7a915060203d602011610397576103898183610c8f565b84610b17565b63367558c360e01b5f5260045ffd5b63e6c4247b60e01b5f5260045ffd5b63e2517d3f60e01b5f9081526001600160a01b03919091166004527fecaefa0171c08a6ded02d98b9432940d3852ef2c7f5007661eb8de37c5a1adc5602452604490fd5b34610333576020366003190112610333576004359063ffffffff60e01b8216809203610333576020916339f7705960e21b8114908115610c24575b5015158152f35b637965db0b60e01b811491508115610c3e575b5083610c1d565b6301ffc9a760e01b14905083610c37565b600435906001600160a01b038216820361033357565b602435906001600160a01b038216820361033357565b35906001600160a01b038216820361033357565b90601f8019910116810190811067ffffffffffffffff8211176108b157604052565b9060806003198301126103335760043567ffffffffffffffff8111610333578260238201121561033357806004013567ffffffffffffffff81116108b15760405191610d07601f8301601f191660200184610c8f565b818352846024838301011161033357815f9260246020930183860137830101529160243567ffffffffffffffff811161033357816023820112156103335780600401359067ffffffffffffffff82116108b15760405192610d6e60208460051b0185610c8f565b8284526024602085019360071b8301019181831161033357602401925b828410610daa5750505050906044359060643580151581036103335790565b6080848303126103335760405190608082019082821067ffffffffffffffff8311176108b157608092602092604052610de287610c7b565b8152610def838801610c7b565b83820152610dff60408801610c7b565b604082015260608701356060820152815201930192610d8b565b90816020910312610333575180151581036103335790565b600354811015610e495760035f5260205f2001905f90565b634e487b7160e01b5f52603260045260245ffd5b600354905f5b828110610e71575050505f90565b610e7a81610e31565b905460039190911b1c6001600160a01b0390811690831614610e9e57600101610e63565b505050600190565b805180835260209291819084018484015e5f828201840152601f01601f1916010190565b90602080835192838152019201905f5b818110610ee75750505090565b825180516001600160a01b039081168652602082810151821681880152604080840151909216918701919091526060918201519186019190915260809094019390920191600101610eda565b949192610f5d60a095989794610f6b93600180891b0316885260c0602089015260c0880190610ea6565b908682036040880152610eca565b95606085015215156080840152600180831b0316910152565b6001600160a01b03909116815260a060208201819052610fc89593949192610fae91840190610ea6565b936040830152151560608201526080818403910152610eca565b90565b610fd36114bd565b6001600160a01b0381165f9081527f8f7e9a8734279607aeaac474f24949ddc99eae25c0da72edcf5ad21022be2c9e602052604090205460ff16156110155750565b63e2517d3f60e01b5f9081526001600160a01b03919091166004527ffc425f2263d0df187444b70e47283d622c70181c5baebb1306a01edba1ce184c602452604490fd5b6110616114bd565b815f525f5160206130b65f395f51905f5260205260405f2060018060a01b0382165f5260205260ff60405f20541615611098575050565b63e2517d3f60e01b5f5260018060a01b031660045260245260445ffd5b6001600160a01b0381165f9081527fb7db2dd08fcb62d0c9e08c51941cae53c267786a0b75803fb7960902fc8ef97d602052604090205460ff1661115f576001600160a01b038181165f9081527fb7db2dd08fcb62d0c9e08c51941cae53c267786a0b75803fb7960902fc8ef97d60205260409020805460ff1916600117905561113d6114bd565b16906001600160a01b03165f5f5160206130965f395f51905f528180a4600190565b505f90565b6001600160a01b0381165f9081527fb121b6c2cfb68d56d259fa39abd93d7a85e352365bbcbddf27041e20d031c3d3602052604090205460ff1661115f576001600160a01b038181165f9081527fb121b6c2cfb68d56d259fa39abd93d7a85e352365bbcbddf27041e20d031c3d360205260409020805460ff191660011790556111ec6114bd565b16906001600160a01b03167fecaefa0171c08a6ded02d98b9432940d3852ef2c7f5007661eb8de37c5a1adc55f5160206130965f395f51905f525f80a4600190565b6001600160a01b0381165f9081527f8f7e9a8734279607aeaac474f24949ddc99eae25c0da72edcf5ad21022be2c9e602052604090205460ff1661115f576001600160a01b038181165f9081527f8f7e9a8734279607aeaac474f24949ddc99eae25c0da72edcf5ad21022be2c9e60205260409020805460ff191660011790556112b66114bd565b16906001600160a01b03167ffc425f2263d0df187444b70e47283d622c70181c5baebb1306a01edba1ce184c5f5160206130965f395f51905f525f80a4600190565b5f8181525f5160206130b65f395f51905f52602090815260408083206001600160a01b038616845290915290205460ff16611390575f8181525f5160206130b65f395f51905f52602090815260408083206001600160a01b0386811685529252909120805460ff1916600117905561136e6114bd565b16916001600160a01b0316905f5160206130965f395f51905f525f80a4600190565b50505f90565b5f8181525f5160206130b65f395f51905f52602090815260408083206001600160a01b038616845290915290205460ff1615611390575f8181525f5160206130b65f395f51905f52602090815260408083206001600160a01b0386811685529252909120805460ff1916905561140a6114bd565b16916001600160a01b0316907ff6391f5c32d9c69d2a47ea670b442974b53935d1edc7fd64eb21e047a839171b5f80a4600190565b61147d906020808095946040519684889551918291018487015e8401908282015f8152815193849201905e01015f815203601f198101845283610c8f565b565b9061148f906101c2600b94611555565b602081519101209060405191604083015260208201523081520160ff8153605590206001600160a01b031690565b337f00000000000000000000000000000000000000000000000000000000000000006001600160a01b0316148061151f575b1561151b576013193601368111611507573560601c90565b634e487b7160e01b5f52601160045260245ffd5b3390565b5060143610156114ef565b60ff5f5160206130d65f395f51905f525460401c161561154657565b631afcd79f60e31b5f5260045ffd5b6040516115778161049a60208201943086526040808401526060830190610ea6565b5190209056fe60a03461011057601f61147738819003918201601f19168301916001600160401b038311848410176101145780849260209460405283398101031261011057516001600160a01b0381168103610110576080525f5160206114575f395f51905f525460ff8160401c16610101576002600160401b03196001600160401b038216016100ab575b60405161132e90816101298239608051818181610a3701528181610b6301526111150152f35b6001600160401b0319166001600160401b039081175f5160206114575f395f51905f52556040519081527fc7f505b2f371ae2175ee4913f4499e1f2633a7b5936321eed1cdaeb6115181d290602090a15f610085565b63f92ee8a960e01b5f5260045ffd5b5f80fd5b634e487b7160e01b5f52604160045260245ffdfe6080806040526004361015610012575f80fd5b5f3560e01c90816301ffc9a714610f195750806306fdde0314610e3b57806312424e3f14610bbc57806331a38c8914610b97578063572b6c0514610b435780635d0341ba14610b065780636146195414610a8a5780637bf3b6c514610a665780637da0a87714610a2257806390d02b3c1461090b5780639a82a09a146108e6578063a7dd8a96146107b9578063a911f73614610797578063ca00ed2b1461077b578063cf09e0d01461075e578063db2a7e50146101d15763ea8a1af0146100d7575f80fd5b346101cd575f3660031901126101cd576100ef6110da565b60015460ff8160081c166101be575f5f600254905b818110610182575b5050156101735762ff00001916620100001760015560206001600160a01b03610133611112565b16604051907f6791a00da5c4f071b344d1ab448dbf07ba707247bc73795dbe2823d93812c3c95f80a260015f5160206112e25f395f51905f525560018152f35b637f03d13d60e11b5f5260045ffd5b61018b81611040565b50600101546001600160a01b03908116906101a4611112565b16146101b257600101610104565b50505060015f8061010c565b630704910f60e31b5f5260045ffd5b5f80fd5b346101cd5760803660031901126101cd5760043567ffffffffffffffff81116101cd57366023820112156101cd57806004013561020d81610fd4565b9161021b6040519384610fb2565b81835236602483830101116101cd57815f9260246020930183860137830101526044358015158091036101cd5760643567ffffffffffffffff81116101cd57366023820112156101cd57806004013561027381610ff0565b916102816040519384610fb2565b8183526024602084019260071b820101903682116101cd57602401915b818310610703575050505f5160206113025f395f51905f52549160ff8360401c16159267ffffffffffffffff8116801590816106fb575b60011490816106f1575b1590816106e8575b506106d95767ffffffffffffffff1981166001175f5160206113025f395f51905f5255836106ad575b50610319611296565b610321611296565b60015f5160206112e25f395f51905f525561033a611296565b835167ffffffffffffffff811161050957610356600554611008565b601f8111610645575b50602094601f82116001146105d7579481929394955f926105cc575b50508160011b915f199060031b1c1916176005555b6024355f5560ff801960015416911617600155426004558051156105bd575f5b815181101561055f57600581901b82016020015180519091906001600160a01b03161561051d576020820180519092906001600160a01b031615610550576040810180519091906001600160a01b0316156105505760608101805115610541575f8060018060a01b03845116604051602081019063313ce56760e01b82526004815261043d602482610fb2565b51915afa3d15610539573d9061045282610fd4565b916104606040519384610fb2565b82523d5f602084013e5b1590811561052c575b5061051d57600254680100000000000000008110156105095780600161049c9201600255611040565b9390936104f657915183546001600160a01b03199081166001600160a01b039283161785559551600185810180548916928416929092179091559251600285018054909716911617909455925160039190910155016103b0565b634e487b7160e01b5f525f60045260245ffd5b634e487b7160e01b5f52604160045260245ffd5b63c1ab6dc160e01b5f5260045ffd5b6020915051141588610473565b60609061046a565b631f2a200560e01b5f5260045ffd5b63d92e233d60e01b5f5260045ffd5b8261056657005b68ff0000000000000000195f5160206113025f395f51905f5254165f5160206113025f395f51905f52557fc7f505b2f371ae2175ee4913f4499e1f2633a7b5936321eed1cdaeb6115181d2602060405160018152a1005b63786d930160e11b5f5260045ffd5b01519050858061037b565b601f1982169560055f525f5160206112c25f395f51905f52915f5b88811061062d57508360019596979810610615575b505050811b01600555610390565b01515f1960f88460031b161c19169055858080610607565b919260206001819286850151815501940192016105f2565b60055f52601f820160051c5f5160206112c25f395f51905f52019060208310610698575b601f0160051c5f5160206112c25f395f51905f5201905b81811061068d575061035f565b5f8155600101610680565b5f5160206112c25f395f51905f529150610669565b68ffffffffffffffffff191668010000000000000001175f5160206113025f395f51905f525584610310565b63f92ee8a960e01b5f5260045ffd5b905015866102e7565b303b1591506102df565b8591506102d5565b6080833603126101cd57602060809160405161071e81610f96565b61072786610f82565b8152610734838701610f82565b8382015261074460408701610f82565b60408201526060860135606082015281520192019161029e565b346101cd575f3660031901126101cd576020600454604051908152f35b346101cd575f3660031901126101cd5760205f54604051908152f35b346101cd575f3660031901126101cd57602060ff600154166040519015158152f35b346101cd575f3660031901126101cd576002546107d581610ff0565b906107e36040519283610fb2565b80825260208201908160025f527f405787fa12a823e0f2b7631cc41b3ba8828b3321ca811111fa75cd3aa3bb5ace5f915b838310610895578486604051918291602083019060208452518091526040830191905f5b818110610846575050500390f35b825180516001600160a01b039081168652602082810151821681880152604080840151909216918701919091526060918201519186019190915286955060809094019390920191600101610838565b600460206001926040516108a881610f96565b855460a086901b8690039081168252868601548116848301526002870154166040820152600386015460608201528152949092019392019101610814565b346101cd575f3660031901126101cd57602060ff60015460101c166040519015158152f35b346101cd575f3660031901126101cd576109236110da565b5f5f600254905b8181106109e6575b505015610173576001600160a01b03610949611112565b165f52600360205260ff60405f205416156109d7576001600160a01b0361096e611112565b165f908152600360209081526040909120805460ff191690556001600160a01b03610997611112565b16604051907fb8047ca8c7d296e0b96533ee4f8a135446f5307e7ef32b0313bd8f2dc92b2c785f80a260015f5160206112e25f395f51905f525560018152f35b63766bb56f60e01b5f5260045ffd5b6109ef81611040565b50600101546001600160a01b0390811690610a08611112565b1614610a165760010161092a565b50505060018180610932565b346101cd575f3660031901126101cd576040517f00000000000000000000000000000000000000000000000000000000000000006001600160a01b03168152602090f35b346101cd575f3660031901126101cd576020610a8061108c565b6040519015158152f35b346101cd575f3660031901126101cd57610aa26110da565b60015460ff8160081c166101be5760101c60ff16610af7575f54421015610ae8576020610acd61117f565b60015f5160206112e25f395f51905f52556040519015158152f35b631375922f60e21b5f5260045ffd5b63de87c00560e01b5f5260045ffd5b346101cd5760203660031901126101cd576001600160a01b03610b27610f6c565b165f526003602052602060ff60405f2054166040519015158152f35b346101cd5760203660031901126101cd576020610b5e610f6c565b6040517f00000000000000000000000000000000000000000000000000000000000000006001600160a01b039081169216919091148152f35b346101cd575f3660031901126101cd57602060ff60015460081c166040519015158152f35b346101cd575f3660031901126101cd57610bd46110da565b60015460ff8160081c166101be5760101c60ff16610af7575f54421015610ae8576002545f805b828110610e01575b5015610173576001600160a01b03610c19611112565b165f52600360205260ff60405f205416610df2575f5b818110610cdd576001600160a01b03610c46611112565b165f908152600360205260409020805460ff191660011790556001600160a01b03610c6f611112565b167fdf88b71653b43acb580f3e64cb2fc0bd871e638a7a370889986fc0b6c10e5f655f80a260ff6001541680610ccf575b610cc1575b60015f5160206112e25f395f51905f5255602060405160018152f35b610cc961117f565b50610ca5565b50610cd861108c565b610ca0565b610ce681611040565b5060018101546001600160a01b0390811690610d00611112565b1614610d10575b50600101610c2f565b80546001600160a01b031690610d24611112565b604051636eb1769f60e11b81526001600160a01b03909116600482015230602482015290602082604481865afa918215610de7575f92610db3575b5060030154808210610d72575050610d07565b60a49350610d7e611112565b6040516351750bc760e01b815260048101949094526001600160a01b0316602484015230604484015260648301526084820152fd5b9091506020813d8211610ddf575b81610dce60209383610fb2565b810103126101cd5751906003610d5f565b3d9150610dc1565b6040513d5f823e3d90fd5b63992a9f6f60e01b5f5260045ffd5b610e0a81611040565b50600101546001600160a01b0390811690610e23611112565b1614610e3157600101610bfb565b5050600182610c03565b346101cd575f3660031901126101cd57604051600554905f610e5c83611008565b808352602083019360018116908115610efe5750600114610eb3575b5090610e88816040930382610fb2565b8151928391602083525180918160208501528484015e5f828201840152601f01601f19168101030190f35b91905060055f525f5160206112c25f395f51905f52915f905b808210610ee457509091508101602001610e88610e78565b919260018160209254838588010152019101909291610ecc565b60ff1916855250151560051b82016020019050610e88610e78565b346101cd5760203660031901126101cd576004359063ffffffff60e01b82168092036101cd576020916389b7139360e01b8114908115610f5b575b5015158152f35b6301ffc9a760e01b14905083610f54565b600435906001600160a01b03821682036101cd57565b35906001600160a01b03821682036101cd57565b6080810190811067ffffffffffffffff82111761050957604052565b90601f8019910116810190811067ffffffffffffffff82111761050957604052565b67ffffffffffffffff811161050957601f01601f191660200190565b67ffffffffffffffff81116105095760051b60200190565b90600182811c92168015611036575b602083101461102257565b634e487b7160e01b5f52602260045260245ffd5b91607f1691611017565b6002548110156110785760025f81815291901b7f405787fa12a823e0f2b7631cc41b3ba8828b3321ca811111fa75cd3aa3bb5ace0191565b634e487b7160e01b5f52603260045260245ffd5b6002545f5b81811061109f575050600190565b6110a881611040565b50600101546001600160a01b03165f9081526003602052604090205460ff16156110d457600101611091565b50505f90565b60025f5160206112e25f395f51905f5254146111035760025f5160206112e25f395f51905f5255565b633ee5aeb560e01b5f5260045ffd5b337f00000000000000000000000000000000000000000000000000000000000000006001600160a01b03161480611174575b1561117057601319360136811161115c573560601c90565b634e487b7160e01b5f52601160045260245ffd5b3390565b506014361015611144565b61118761108c565b15611287575f5b60025481101561123d576111a181611040565b508054600182015460028301546003909301546040516323b872dd60e01b60208083019182526001600160a01b03948516602484015295841660448301526064808301939093529181529190921692915f916111fe608482610fb2565b519082855af115610de7575f513d6112345750803b155b611222575060010161118e565b635274afe760e01b5f5260045260245ffd5b60011415611215565b506001805461ff0019166101001790556001600160a01b0361125d611112565b167f56affb24bdcddaa72ae590c2b1b8aa4101e24565bbb5bdb504852f20a3da8cdc5f80a2600190565b630ce40ec160e41b5f5260045ffd5b60ff5f5160206113025f395f51905f525460401c16156112b257565b631afcd79f60e31b5f5260045ffdfe036b6384b5eca791c62761152d0c79bb0604c104a5fb6f4eb0703f3154bb3db09b779b17422d0df92223018b32b4d1fa46e071723d6817e2486d003becc55f00f0c57e16840df040f15088dc2f81fe391c3923bec73e23a9662efc9c229c6a00a164736f6c634300081c000af0c57e16840df040f15088dc2f81fe391c3923bec73e23a9662efc9c229c6a006080604052346100d0576106a1803803809161001a826100e8565b60803960a08160800191126100d057610031610151565b60a0516001600160401b0381116100d05782609f820112156100d057806080015161005b8161017b565b91610069604051938461012e565b8183528460a083830101116100d057815f9260a0602093018386015e8301015260c05161009660e0610196565b610100519092906001600160401b0381116100d0576100c1956100bb916080016101a3565b93610329565b60405161014990816105388239f35b5f80fd5b634e487b7160e01b5f52604160045260245ffd5b6080601f91909101601f19168101906001600160401b0382119082101761010e57604052565b6100d4565b608081019081106001600160401b0382111761010e57604052565b601f909101601f19168101906001600160401b0382119082101761010e57604052565b608051906001600160a01b03821682036100d057565b51906001600160a01b03821682036100d057565b6001600160401b03811161010e57601f01601f191660200190565b519081151582036100d057565b81601f820112156100d0578051906001600160401b03821161010e57604051926101d360208460051b018561012e565b82845260208085019360071b830101918183116100d057602001925b8284106101fd575050505090565b6080848303126100d057602060809160405161021881610113565b61022187610167565b815261022e838801610167565b8382015261023e60408801610167565b6040820152606087015160608201528152019301926101ef565b908160209103126100d05761026c90610196565b90565b6040513d5f823e3d90fd5b92602092938360c0936080835280519182918260808601520160a084015e5f60a08284010152601f801991011681019160a08301958583015215156040820152606060a0828403019101528451809452019201905f5b8181106102dd5750505090565b825180516001600160a01b0390811686526020828101518216818801526040808401519092169187019190915260609182015191860191909152608090940193909201916001016102d0565b93919291906001600160a01b03851680156103eb576040516301ffc9a760e01b81526339f7705960e21b600482015290602090829060249082905afa908115610429575f916103fa575b50156103eb575f5160206106815f395f51905f5280546001600160a01b0319166001600160a01b03909616959095179094556103e9936103e4916103d6906103b961042e565b94604051968794630db2a7e560e41b60208701526024860161027a565b03601f19810184528361012e565b6104ca565b565b635c7bfbe960e01b5f5260045ffd5b61041c915060203d602011610422575b610414818361012e565b810190610258565b5f610373565b503d61040a565b61026f565b5f5160206106815f395f51905f52546040516330e6fa3d60e11b815290602090829060049082906001600160a01b03165afa908115610429575f91610490575b506001600160a01b038116156104815790565b63489aaf0d60e11b5f5260045ffd5b90506020813d6020116104c2575b816104ab6020938361012e565b810103126100d0576104bc90610167565b5f61046e565b3d915061049e565b6001600160a01b0381161561052857815f929160208493519201905af43d15610520573d906104f88261017b565b91610506604051938461012e565b82523d5f602084013e5b156105185750565b602081519101fd5b606090610510565b63ee0a129760e01b5f5260045ffdfe608060405236156100a8577f1a2b3c4d5e6f7a8b9c0d1e2f3a4b5c6d7e8f9a0b1c2d3e4f5a6b7c8d9e0f1a2b5460209060809060049082906001600160a01b03166330e6fa3d60e11b82525afa80156100a3575f90610076575b6001600160a01b0381166100b75763489aaf0d60e11b5f5260045ffd5b5060203d60201161009c575b8061008f610097926100d4565b60800161010b565b610059565b503d610082565b610131565b635d82995b60e01b5f5260045ffd5b5f8091368280378136915af43d5f803e156100d0573d5ff35b3d5ffd5b601f80199101166080016080811067ffffffffffffffff8211176100f757604052565b634e487b7160e01b5f52604160045260245ffd5b602090607f19011261012d576080516001600160a01b038116810361012d5790565b5f80fd5b6040513d5f823e3d90fdfea164736f6c634300081c000a1a2b3c4d5e6f7a8b9c0d1e2f3a4b5c6d7e8f9a0b1c2d3e4f5a6b7c8d9e0f1a2b2f8788117e7eff1d82e926ec794901d17c78024a50270940304540a733656f0d02dd7bc7dec4dceedda775e58dd541e08a116c6c53815c0bd028192f7b626800f0c57e16840df040f15088dc2f81fe391c3923bec73e23a9662efc9c229c6a00a164736f6c634300081c000af0c57e16840df040f15088dc2f81fe391c3923bec73e23a9662efc9c229c6a00",
    "linkReferences": {}
  },
  "methodIdentifiers": {
    "DEFAULT_ADMIN_ROLE()": "a217fddf",
    "allSettlementsLength()": "353f9f0f",
    "create(string,(address,address,address,uint256)[],uint256,bool)": "fc6142d0",
    "getRoleAdmin(bytes32)": "248a9ca3",
    "grantRole(bytes32,address)": "2f2ff15d",
    "hasRole(bytes32,address)": "91d14854",
    "initialize(address,address)": "485cc955",
    "isAddressDeployed(address)": "4e7f6dea",
    "isFactorySystemAddon(address)": "229fff60",
    "isTrustedForwarder(address)": "572b6c05",
    "predictAddress(string,(address,address,address,uint256)[],uint256,bool)": "f3c6dc12",
    "renounceRole(bytes32,address)": "36568abe",
    "revokeRole(bytes32,address)": "d547741f",
    "supportsInterface(bytes4)": "01ffc9a7",
    "trustedForwarder()": "7da0a877",
    "typeId()": "8f940f63",
    "updateImplementation(address)": "025b22bc",
    "xvpSettlementImplementation()": "61cdf47a"
  },
  "userdoc": {
    "version": 1,
    "kind": "user",
    "methods": {
      "allSettlementsLength()": {
        "notice": "Returns the total number of settlements created by this factory"
      },
      "create(string,(address,address,address,uint256)[],uint256,bool)": {
        "notice": "Creates a new XvPSettlement contract"
      },
      "initialize(address,address)": {
        "notice": "Initializes the factory with system address and admin"
      },
      "isAddressDeployed(address)": {
        "notice": "Checks if an address was deployed by this factory"
      },
      "isFactorySystemAddon(address)": {
        "notice": "Mapping indicating whether an system addon address was deployed by this factory."
      },
      "predictAddress(string,(address,address,address,uint256)[],uint256,bool)": {
        "notice": "Predicts the address where a XvPSettlement contract would be deployed"
      },
      "supportsInterface(bytes4)": {
        "notice": "Checks if the contract implements an interface"
      },
      "updateImplementation(address)": {
        "notice": "Updates the address of the XvPSettlement implementation contract."
      },
      "xvpSettlementImplementation()": {
        "notice": "Address of the current XvPSettlement logic contract (implementation)."
      }
    },
    "events": {
      "ATKXvPSettlementCreated(address,address)": {
        "notice": "Emitted when a new XvPSettlement contract is created"
      },
      "ImplementationUpdated(address,address)": {
        "notice": "Emitted when the implementation is updated"
      }
    },
    "errors": {
      "AddressAlreadyDeployed(address)": [
        {
          "notice": "Error thrown when a CREATE2 address is already deployed."
        }
      ],
      "ProxyCreationFailed()": [
        {
          "notice": "Error thrown when proxy creation fails."
        }
      ],
      "ZeroAddressNotAllowed()": [
        {
          "notice": "Custom errors for the XvPSettlementFactory contract"
        }
      ]
    },
    "notice": "This contract allows the creation of new XvPSettlement contracts with deterministic addresses using CREATE2."
  },
  "devdoc": {
    "version": 1,
    "kind": "dev",
    "details": "Inherits from ERC2771ContextUpgradeable for meta-transaction support and AccessControlUpgradeable for role management. Uses CREATE2 for deterministic deployment addresses and maintains a registry of deployed settlement contracts.",
    "methods": {
      "constructor": {},
      "create(string,(address,address,address,uint256)[],uint256,bool)": {
        "details": "Uses CREATE2 for deterministic addresses and the system addon pattern for deployment.",
        "params": {
          "autoExecute": "If true, settlement executes automatically when all approvals are received",
          "cutoffDate": "Timestamp after which the settlement expires",
          "flows": "The array of token flows to include in the settlement",
          "name": "The name of the settlement"
        },
        "returns": {
          "contractAddress": "The address of the newly created settlement contract"
        }
      },
      "getRoleAdmin(bytes32)": {
        "details": "Returns the admin role that controls `role`. See {grantRole} and {revokeRole}. To change a role's admin, use {_setRoleAdmin}."
      },
      "grantRole(bytes32,address)": {
        "details": "Grants `role` to `account`. If `account` had not been already granted `role`, emits a {RoleGranted} event. Requirements: - the caller must have ``role``'s admin role. May emit a {RoleGranted} event."
      },
      "hasRole(bytes32,address)": {
        "details": "Returns `true` if `account` has been granted `role`."
      },
      "initialize(address,address)": {
        "details": "Can only be called once, sets up initial roles and system integration",
        "params": {
          "initialAdmin": "The address that will be granted admin role",
          "systemAddress": "The address of the ATK system contract"
        }
      },
      "isAddressDeployed(address)": {
        "details": "Returns true if the address was created by this factory, false otherwise",
        "params": {
          "settlement": "The address to check"
        },
        "returns": {
          "_0": "True if the address was created by this factory, false otherwise"
        }
      },
      "isTrustedForwarder(address)": {
        "details": "Indicates whether any particular address is the trusted forwarder."
      },
      "predictAddress(string,(address,address,address,uint256)[],uint256,bool)": {
        "details": "Calculates the deterministic address using CREATE2 with the same parameters and salt computation as the create function. This allows users to know the contract's address before deployment.",
        "params": {
          "autoExecute": "If true, settlement executes automatically when all approvals are received",
          "cutoffDate": "Timestamp after which the settlement expires",
          "flows": "The array of token flows that will be used in deployment",
          "name": "The name of the settlement"
        },
        "returns": {
          "predicted": "The address where the settlement contract would be deployed"
        }
      },
      "renounceRole(bytes32,address)": {
        "details": "Revokes `role` from the calling account. Roles are often managed via {grantRole} and {revokeRole}: this function's purpose is to provide a mechanism for accounts to lose their privileges if they are compromised (such as when a trusted device is misplaced). If the calling account had been revoked `role`, emits a {RoleRevoked} event. Requirements: - the caller must be `callerConfirmation`. May emit a {RoleRevoked} event."
      },
      "revokeRole(bytes32,address)": {
        "details": "Revokes `role` from `account`. If `account` had been granted `role`, emits a {RoleRevoked} event. Requirements: - the caller must have ``role``'s admin role. May emit a {RoleRevoked} event."
      },
      "supportsInterface(bytes4)": {
        "params": {
          "interfaceId": "The interface identifier"
        },
        "returns": {
          "_0": "True if the contract implements the interface, false otherwise"
        }
      },
      "trustedForwarder()": {
        "details": "Returns the address of the trusted forwarder."
      },
      "updateImplementation(address)": {
        "details": "Only callable by the implementation manager. New proxies created after this call will use the new implementation. This does NOT automatically upgrade existing proxy instances.",
        "params": {
          "_newImplementation": "The address of the new XvPSettlement logic contract."
        }
      }
    },
    "events": {
      "ATKXvPSettlementCreated(address,address)": {
        "params": {
          "creator": "The address that created the settlement contract",
          "settlement": "The address of the newly created settlement contract"
        }
      },
      "ImplementationUpdated(address,address)": {
        "params": {
          "newImplementation": "The address of the new implementation",
          "oldImplementation": "The address of the previous implementation"
        }
      },
      "Initialized(uint64)": {
        "details": "Triggered when the contract has been initialized or reinitialized."
      },
      "RoleAdminChanged(bytes32,bytes32,bytes32)": {
        "details": "Emitted when `newAdminRole` is set as ``role``'s admin role, replacing `previousAdminRole` `DEFAULT_ADMIN_ROLE` is the starting admin for all roles, despite {RoleAdminChanged} not being emitted to signal this."
      },
      "RoleGranted(bytes32,address,address)": {
        "details": "Emitted when `account` is granted `role`. `sender` is the account that originated the contract call. This account bears the admin role (for the granted role). Expected in cases where the role was granted using the internal {AccessControl-_grantRole}."
      },
      "RoleRevoked(bytes32,address,address)": {
        "details": "Emitted when `account` is revoked `role`. `sender` is the account that originated the contract call:   - if using `revokeRole`, it is the admin role bearer   - if using `renounceRole`, it is the role bearer (i.e. `account`)"
      }
    },
    "errors": {
      "AccessControlBadConfirmation()": [
        {
          "details": "The caller of a function is not the expected one. NOTE: Don't confuse with {AccessControlUnauthorizedAccount}."
        }
      ],
      "AccessControlUnauthorizedAccount(address,bytes32)": [
        {
          "details": "The `account` is missing a role."
        }
      ],
      "Create2EmptyBytecode()": [
        {
          "details": "There's no code to deploy."
        }
      ],
      "FailedDeployment()": [
        {
          "details": "The deployment failed."
        }
      ],
      "InsufficientBalance(uint256,uint256)": [
        {
          "details": "The ETH balance of the account is not enough to perform the operation."
        }
      ],
      "InvalidInitialization()": [
        {
          "details": "The contract is already initialized."
        }
      ],
      "NotInitializing()": [
        {
          "details": "The contract is not initializing."
        }
      ],
      "ZeroAddressNotAllowed()": [
        {
          "details": "These errors provide more gas-efficient and descriptive error handling"
        }
      ]
    },
    "title": "XvPSettlementFactory - A factory contract for creating XvPSettlement contracts"
  },
  "id": 30
}