{
  "abi": [
    {
      "type": "constructor",
      "inputs": [
        {
          "name": "trustedForwarder_",
          "type": "address",
          "internalType": "address"
        }
      ],
      "stateMutability": "nonpayable"
    },
    {
      "type": "function",
      "name": "DEFAULT_ADMIN_ROLE",
      "inputs": [],
      "outputs": [
        {
          "name": "",
          "type": "bytes32",
          "internalType": "bytes32"
        }
      ],
      "stateMutability": "view"
    },
    {
      "type": "function",
      "name": "canTransfer",
      "inputs": [
        {
          "name": "token",
          "type": "address",
          "internalType": "address"
        },
        {
          "name": "",
          "type": "address",
          "internalType": "address"
        },
        {
          "name": "_to",
          "type": "address",
          "internalType": "address"
        },
        {
          "name": "",
          "type": "uint256",
          "internalType": "uint256"
        },
        {
          "name": "_params",
          "type": "bytes",
          "internalType": "bytes"
        }
      ],
      "outputs": [],
      "stateMutability": "view"
    },
    {
      "type": "function",
      "name": "created",
      "inputs": [
        {
          "name": "_token",
          "type": "address",
          "internalType": "address"
        },
        {
          "name": "_to",
          "type": "address",
          "internalType": "address"
        },
        {
          "name": "_value",
          "type": "uint256",
          "internalType": "uint256"
        },
        {
          "name": "_params",
          "type": "bytes",
          "internalType": "bytes"
        }
      ],
      "outputs": [],
      "stateMutability": "nonpayable"
    },
    {
      "type": "function",
      "name": "destroyed",
      "inputs": [
        {
          "name": "_token",
          "type": "address",
          "internalType": "address"
        },
        {
          "name": "_from",
          "type": "address",
          "internalType": "address"
        },
        {
          "name": "_value",
          "type": "uint256",
          "internalType": "uint256"
        },
        {
          "name": "_params",
          "type": "bytes",
          "internalType": "bytes"
        }
      ],
      "outputs": [],
      "stateMutability": "nonpayable"
    },
    {
      "type": "function",
      "name": "getRoleAdmin",
      "inputs": [
        {
          "name": "role",
          "type": "bytes32",
          "internalType": "bytes32"
        }
      ],
      "outputs": [
        {
          "name": "",
          "type": "bytes32",
          "internalType": "bytes32"
        }
      ],
      "stateMutability": "view"
    },
    {
      "type": "function",
      "name": "grantRole",
      "inputs": [
        {
          "name": "role",
          "type": "bytes32",
          "internalType": "bytes32"
        },
        {
          "name": "account",
          "type": "address",
          "internalType": "address"
        }
      ],
      "outputs": [],
      "stateMutability": "nonpayable"
    },
    {
      "type": "function",
      "name": "hasRole",
      "inputs": [
        {
          "name": "role",
          "type": "bytes32",
          "internalType": "bytes32"
        },
        {
          "name": "account",
          "type": "address",
          "internalType": "address"
        }
      ],
      "outputs": [
        {
          "name": "",
          "type": "bool",
          "internalType": "bool"
        }
      ],
      "stateMutability": "view"
    },
    {
      "type": "function",
      "name": "isTrustedForwarder",
      "inputs": [
        {
          "name": "forwarder",
          "type": "address",
          "internalType": "address"
        }
      ],
      "outputs": [
        {
          "name": "",
          "type": "bool",
          "internalType": "bool"
        }
      ],
      "stateMutability": "view"
    },
    {
      "type": "function",
      "name": "name",
      "inputs": [],
      "outputs": [
        {
          "name": "",
          "type": "string",
          "internalType": "string"
        }
      ],
      "stateMutability": "pure"
    },
    {
      "type": "function",
      "name": "renounceRole",
      "inputs": [
        {
          "name": "role",
          "type": "bytes32",
          "internalType": "bytes32"
        },
        {
          "name": "callerConfirmation",
          "type": "address",
          "internalType": "address"
        }
      ],
      "outputs": [],
      "stateMutability": "nonpayable"
    },
    {
      "type": "function",
      "name": "revokeRole",
      "inputs": [
        {
          "name": "role",
          "type": "bytes32",
          "internalType": "bytes32"
        },
        {
          "name": "account",
          "type": "address",
          "internalType": "address"
        }
      ],
      "outputs": [],
      "stateMutability": "nonpayable"
    },
    {
      "type": "function",
      "name": "supportsInterface",
      "inputs": [
        {
          "name": "interfaceId",
          "type": "bytes4",
          "internalType": "bytes4"
        }
      ],
      "outputs": [
        {
          "name": "",
          "type": "bool",
          "internalType": "bool"
        }
      ],
      "stateMutability": "view"
    },
    {
      "type": "function",
      "name": "transferred",
      "inputs": [
        {
          "name": "_token",
          "type": "address",
          "internalType": "address"
        },
        {
          "name": "_from",
          "type": "address",
          "internalType": "address"
        },
        {
          "name": "_to",
          "type": "address",
          "internalType": "address"
        },
        {
          "name": "_value",
          "type": "uint256",
          "internalType": "uint256"
        },
        {
          "name": "_params",
          "type": "bytes",
          "internalType": "bytes"
        }
      ],
      "outputs": [],
      "stateMutability": "nonpayable"
    },
    {
      "type": "function",
      "name": "trustedForwarder",
      "inputs": [],
      "outputs": [
        {
          "name": "",
          "type": "address",
          "internalType": "address"
        }
      ],
      "stateMutability": "view"
    },
    {
      "type": "function",
      "name": "typeId",
      "inputs": [],
      "outputs": [
        {
          "name": "",
          "type": "bytes32",
          "internalType": "bytes32"
        }
      ],
      "stateMutability": "view"
    },
    {
      "type": "function",
      "name": "validateParameters",
      "inputs": [
        {
          "name": "_params",
          "type": "bytes",
          "internalType": "bytes"
        }
      ],
      "outputs": [],
      "stateMutability": "view"
    },
    {
      "type": "event",
      "name": "RoleAdminChanged",
      "inputs": [
        {
          "name": "role",
          "type": "bytes32",
          "indexed": true,
          "internalType": "bytes32"
        },
        {
          "name": "previousAdminRole",
          "type": "bytes32",
          "indexed": true,
          "internalType": "bytes32"
        },
        {
          "name": "newAdminRole",
          "type": "bytes32",
          "indexed": true,
          "internalType": "bytes32"
        }
      ],
      "anonymous": false
    },
    {
      "type": "event",
      "name": "RoleGranted",
      "inputs": [
        {
          "name": "role",
          "type": "bytes32",
          "indexed": true,
          "internalType": "bytes32"
        },
        {
          "name": "account",
          "type": "address",
          "indexed": true,
          "internalType": "address"
        },
        {
          "name": "sender",
          "type": "address",
          "indexed": true,
          "internalType": "address"
        }
      ],
      "anonymous": false
    },
    {
      "type": "event",
      "name": "RoleRevoked",
      "inputs": [
        {
          "name": "role",
          "type": "bytes32",
          "indexed": true,
          "internalType": "bytes32"
        },
        {
          "name": "account",
          "type": "address",
          "indexed": true,
          "internalType": "address"
        },
        {
          "name": "sender",
          "type": "address",
          "indexed": true,
          "internalType": "address"
        }
      ],
      "anonymous": false
    },
    {
      "type": "error",
      "name": "AccessControlBadConfirmation",
      "inputs": []
    },
    {
      "type": "error",
      "name": "AccessControlUnauthorizedAccount",
      "inputs": [
        {
          "name": "account",
          "type": "address",
          "internalType": "address"
        },
        {
          "name": "neededRole",
          "type": "bytes32",
          "internalType": "bytes32"
        }
      ]
    },
    {
      "type": "error",
      "name": "ComplianceCheckFailed",
      "inputs": [
        {
          "name": "reason",
          "type": "string",
          "internalType": "string"
        }
      ]
    },
    {
      "type": "error",
      "name": "InvalidParameters",
      "inputs": [
        {
          "name": "reason",
          "type": "string",
          "internalType": "string"
        }
      ]
    },
    {
      "type": "error",
      "name": "RecipientNotVerified",
      "inputs": []
    }
  ],
  "bytecode": {
    "object": "0x60a03461008957601f610b2e38819003918201601f19168301916001600160401b0383118484101761008d5780849260209460405283398101031261008957516001600160a01b03811681036100895760805261006261005d61013d565b6100a1565b50604051610981908161018d823960805181818161034f015281816103e5015261090a0152f35b5f80fd5b634e487b7160e01b5f52604160045260245ffd5b6001600160a01b0381165f9081525f516020610b0e5f395f51905f52602052604090205460ff16610138576001600160a01b038181165f9081525f516020610b0e5f395f51905f5260205260409020805460ff1916600117905561010361013d565b16906001600160a01b03165f7f2f8788117e7eff1d82e926ec794901d17c78024a50270940304540a733656f0d8180a4600190565b505f90565b6080516001600160a01b0316331480610181575b1561017d576013193601368111610169573560601c90565b634e487b7160e01b5f52601160045260245ffd5b3390565b50601436101561015156fe6080806040526004361015610012575f80fd5b5f3560e01c90816301ffc9a7146105745750806306fdde03146104da57806310efe2a514610299578063248a9ca3146104a85780632f2ff15d1461046b57806336568abe14610417578063572b6c05146103ba5780636974f58e1461037e5780637da0a8771461033a5780638f940f631461030057806391d14854146102b8578063a217fddf1461029e578063c4c104b914610299578063d547741f14610257578063ddfcf377146100e05763ea6b97a5146100cc575f80fd5b346100dc576100da3661067e565b005b5f80fd5b346100dc57602060046101056100f53661067e565b915080929794959350019061070f565b6040516304d3863d60e21b815293909284919082906001600160a01b03165afa9182156101ef575f92610213575b5060408051630f4ed58f60e31b81526001600160a01b0390941660048501526024840152805160448401819052839160648301916020909101905f5b8181106101fa575060209492849003928492506001600160a01b031690505afa9081156101ef575f916101b4575b50156101a557005b63763c2fcd60e11b5f5260045ffd5b90506020813d6020116101e7575b816101cf602093836106ed565b810103126100dc575180151581036100dc578161019d565b3d91506101c2565b6040513d5f823e3d90fd5b825184528694506020938401939092019160010161016f565b9091506020813d60201161024f575b8161022f602093836106ed565b810103126100dc57516001600160a01b03811681036100dc579083610133565b3d9150610222565b346100dc5760403660031901126100dc576100da6004356102766105e1565b9061029461028f825f525f602052600160405f20015490565b610794565b61087a565b610625565b346100dc575f3660031901126100dc5760206040515f8152f35b346100dc5760403660031901126100dc576102d16105e1565b6004355f525f60205260405f209060018060a01b03165f52602052602060ff60405f2054166040519015158152f35b346100dc575f3660031901126100dc5760206040517f33c4a260f36fc43887cda6c2cf041d0d32bfae922e85dc363bd6d6c643acd4848152f35b346100dc575f3660031901126100dc576040517f00000000000000000000000000000000000000000000000000000000000000006001600160a01b03168152602090f35b346100dc5760203660031901126100dc5760043567ffffffffffffffff81116100dc576103b26100da9136906004016105f7565b81019061070f565b346100dc5760203660031901126100dc576004356001600160a01b038116908190036100dc576040517f00000000000000000000000000000000000000000000000000000000000000006001600160a01b03169091148152602090f35b346100dc5760403660031901126100dc576104306105e1565b6001600160a01b03610440610907565b166001600160a01b0382160361045c576100da9060043561087a565b63334bd91960e11b5f5260045ffd5b346100dc5760403660031901126100dc576100da60043561048a6105e1565b906104a361028f825f525f602052600160405f20015490565b6107e5565b346100dc5760203660031901126100dc5760206104d26004355f525f602052600160405f20015490565b604051908152f35b346100dc575f3660031901126100dc576040516040810181811067ffffffffffffffff82111761056057604052601c8152604060208201917f4964656e7469747920566572696669636174696f6e204d6f64756c650000000083528151928391602083525180918160208501528484015e5f828201840152601f01601f19168101030190f35b634e487b7160e01b5f52604160045260245ffd5b346100dc5760203660031901126100dc576004359063ffffffff60e01b82168092036100dc57602091638c30a94360e01b81149081156105b6575b5015158152f35b637965db0b60e01b8114915081156105d0575b50836105af565b6301ffc9a760e01b149050836105c9565b602435906001600160a01b03821682036100dc57565b9181601f840112156100dc5782359167ffffffffffffffff83116100dc57602083818601950101116100dc57565b346100dc5760803660031901126100dc576004356001600160a01b03811681036100dc57506024356001600160a01b03811681036100dc575060643567ffffffffffffffff81116100dc576100da9036906004016105f7565b60a06003198201126100dc576004356001600160a01b03811681036100dc57916024356001600160a01b03811681036100dc57916044356001600160a01b03811681036100dc5791606435916084359067ffffffffffffffff82116100dc576106e9916004016105f7565b9091565b90601f8019910116810190811067ffffffffffffffff82111761056057604052565b6020818303126100dc5780359067ffffffffffffffff82116100dc57019080601f830112156100dc5781359167ffffffffffffffff8311610560578260051b906040519361076060208401866106ed565b84526020808501928201019283116100dc57602001905b8282106107845750505090565b8135815260209182019101610777565b61079c610907565b5f828152602081815260408083206001600160a01b038516845290915290205460ff16156107c8575050565b63e2517d3f60e01b5f5260018060a01b031660045260245260445ffd5b5f818152602081815260408083206001600160a01b038616845290915290205460ff16610874575f818152602081815260408083206001600160a01b0386811685529252909120805460ff1916600117905561083f610907565b16916001600160a01b0316907f2f8788117e7eff1d82e926ec794901d17c78024a50270940304540a733656f0d5f80a4600190565b50505f90565b5f818152602081815260408083206001600160a01b038616845290915290205460ff1615610874575f818152602081815260408083206001600160a01b0386811685529252909120805460ff191690556108d2610907565b16916001600160a01b0316907ff6391f5c32d9c69d2a47ea670b442974b53935d1edc7fd64eb21e047a839171b5f80a4600190565b337f00000000000000000000000000000000000000000000000000000000000000006001600160a01b03161480610969575b15610965576013193601368111610951573560601c90565b634e487b7160e01b5f52601160045260245ffd5b3390565b50601436101561093956fea164736f6c634300081c000aad3228b676f7d3cd4284a5443f17f1962b36e491b30a40b2405849e597ba5fb5",
    "linkReferences": {}
  },
  "methodIdentifiers": {
    "DEFAULT_ADMIN_ROLE()": "a217fddf",
    "canTransfer(address,address,address,uint256,bytes)": "ddfcf377",
    "created(address,address,uint256,bytes)": "c4c104b9",
    "destroyed(address,address,uint256,bytes)": "10efe2a5",
    "getRoleAdmin(bytes32)": "248a9ca3",
    "grantRole(bytes32,address)": "2f2ff15d",
    "hasRole(bytes32,address)": "91d14854",
    "isTrustedForwarder(address)": "572b6c05",
    "name()": "06fdde03",
    "renounceRole(bytes32,address)": "36568abe",
    "revokeRole(bytes32,address)": "d547741f",
    "supportsInterface(bytes4)": "01ffc9a7",
    "transferred(address,address,address,uint256,bytes)": "ea6b97a5",
    "trustedForwarder()": "7da0a877",
    "typeId()": "8f940f63",
    "validateParameters(bytes)": "6974f58e"
  },
  "userdoc": {
    "version": 1,
    "kind": "user",
    "methods": {
      "constructor": {
        "notice": "Constructor for the `IdentityVerificationModule`."
      },
      "created(address,address,uint256,bytes)": {
        "notice": "This function is a hook called by the main `SMARTComplianceImplementation` contract *after* new tokens have been created (minted)."
      },
      "destroyed(address,address,uint256,bytes)": {
        "notice": "This function is a hook called by the main `SMARTComplianceImplementation` contract *after* tokens have been destroyed (burned)."
      },
      "name()": {
        "notice": "Concrete compliance modules MUST implement this function to return a human-readable name for the module."
      },
      "supportsInterface(bytes4)": {
        "notice": "Checks if the contract supports a given interface ID."
      },
      "transferred(address,address,address,uint256,bytes)": {
        "notice": "This function is a hook called by the main `ATKComplianceImplementation` contract *after* a token transfer has occurred."
      },
      "typeId()": {
        "notice": "Returns a unique identifier for the type of this contract."
      },
      "validateParameters(bytes)": {
        "notice": "Concrete compliance modules MUST implement this function to validate their specific parameters."
      }
    },
    "errors": {
      "ComplianceCheckFailed(string)": [
        {
          "notice": "Emitted when a compliance check performed by the `canTransfer` function fails."
        }
      ],
      "InvalidParameters(string)": [
        {
          "notice": "Emitted by the `validateParameters` function if the provided configuration parameters are invalid for this module."
        }
      ],
      "RecipientNotVerified()": [
        {
          "notice": "Reverted when a token operation (like transfer or mint) is attempted, but the recipient         (or potentially sender, depending on the operation) does not meet the required identity verification status."
        }
      ]
    },
    "notice": "This module is used to verify the identity of an investor."
  },
  "devdoc": {
    "version": 1,
    "kind": "dev",
    "author": "SettleMint Tokenization Services",
    "details": "This module is used to verify the identity of an investor.",
    "methods": {
      "constructor": {
        "details": "When a contract inheriting from `IdentityVerificationModule` is deployed, this constructor is called."
      },
      "created(address,address,uint256,bytes)": {
        "details": "This is an empty `virtual` implementation. Inheriting contracts can `override` this function if they need to perform actions or update state based on successful token creation. If a module doesn't need to react to token creation, it doesn't need to override this.",
        "params": {
          "_params": "The parameters that were configured for this module when it was added to the `_token`.",
          "_to": "The address that received the newly created tokens.",
          "_token": "The address of the `ISMART` token contract where tokens were created.",
          "_value": "The amount of tokens created."
        }
      },
      "destroyed(address,address,uint256,bytes)": {
        "details": "This is an empty `virtual` implementation. Inheriting contracts can `override` this function if they need to perform actions or update state based on successful token destruction. If a module doesn't need to react to token destruction, it doesn't need to override this.",
        "params": {
          "_from": "The address whose tokens were destroyed.",
          "_params": "The parameters that were configured for this module when it was added to the `_token`.",
          "_token": "The address of the `ISMART` token contract from which tokens were destroyed.",
          "_value": "The amount of tokens destroyed."
        }
      },
      "getRoleAdmin(bytes32)": {
        "details": "Returns the admin role that controls `role`. See {grantRole} and {revokeRole}. To change a role's admin, use {_setRoleAdmin}."
      },
      "grantRole(bytes32,address)": {
        "details": "Grants `role` to `account`. If `account` had not been already granted `role`, emits a {RoleGranted} event. Requirements: - the caller must have ``role``'s admin role. May emit a {RoleGranted} event."
      },
      "hasRole(bytes32,address)": {
        "details": "Returns `true` if `account` has been granted `role`."
      },
      "isTrustedForwarder(address)": {
        "details": "Indicates whether any particular address is the trusted forwarder."
      },
      "name()": {
        "details": "This function is used to identify the type or purpose of the compliance module. For example, \"Country Allow List Module\". It should be a `pure` function as the name is typically hardcoded and doesn't depend on state.",
        "returns": {
          "_0": "A string representing the name of the compliance module."
        }
      },
      "renounceRole(bytes32,address)": {
        "details": "Revokes `role` from the calling account. Roles are often managed via {grantRole} and {revokeRole}: this function's purpose is to provide a mechanism for accounts to lose their privileges if they are compromised (such as when a trusted device is misplaced). If the calling account had been revoked `role`, emits a {RoleRevoked} event. Requirements: - the caller must be `callerConfirmation`. May emit a {RoleRevoked} event."
      },
      "revokeRole(bytes32,address)": {
        "details": "Revokes `role` from `account`. If `account` had been granted `role`, emits a {RoleRevoked} event. Requirements: - the caller must have ``role``'s admin role. May emit a {RoleRevoked} event."
      },
      "supportsInterface(bytes4)": {
        "details": "This function is part of the ERC165 standard, allowing other contracts to discover what interfaces this contract implements. It explicitly states that this module (and any inheriting contract) supports the `ISMARTComplianceModule` interface. It also calls `super.supportsInterface(interfaceId)` to include support for interfaces from parent contracts (like `AccessControl` which also implements `IERC165`).",
        "params": {
          "interfaceId": "The interface identifier (bytes4) to check."
        },
        "returns": {
          "_0": "`true` if the contract supports the `interfaceId`, `false` otherwise."
        }
      },
      "transferred(address,address,address,uint256,bytes)": {
        "details": "This is an empty `virtual` implementation. Inheriting contracts can `override` this function if they need to perform actions or update state based on a successful transfer. For example, a module might log transfer details or update internal counters. If a module doesn't need to react to transfers, it doesn't need to override this.",
        "params": {
          "_from": "The address from which tokens were transferred.",
          "_params": "The parameters that were configured for this module when it was added to the `_token`.",
          "_to": "The address to which tokens were transferred.",
          "_token": "The address of the `ISMART` token contract that performed the transfer.",
          "_value": "The amount of tokens transferred."
        }
      },
      "trustedForwarder()": {
        "details": "Returns the address of the trusted forwarder."
      },
      "validateParameters(bytes)": {
        "details": "This function is called by the `SMARTComplianceImplementation` (via `_validateModuleAndParams`) when a module is being registered with a token or when checking if a module is valid. The implementation in the inheriting module should: 1. Attempt to decode `_params` according to the expected format for that module. 2. Validate the decoded parameters (e.g., check for valid ranges, correct array lengths, non-zero addresses etc.). - If the parameters ARE valid, this function should simply return. - If the parameters ARE NOT valid, this function MUST `revert` (e.g., `revert InvalidParameters(\"Reason\");`). This function is a `view` function.",
        "params": {
          "_params": "The ABI-encoded parameters that need to be validated. The format is specific to each concrete module."
        }
      }
    },
    "events": {
      "RoleAdminChanged(bytes32,bytes32,bytes32)": {
        "details": "Emitted when `newAdminRole` is set as ``role``'s admin role, replacing `previousAdminRole` `DEFAULT_ADMIN_ROLE` is the starting admin for all roles, despite {RoleAdminChanged} not being emitted to signal this."
      },
      "RoleGranted(bytes32,address,address)": {
        "details": "Emitted when `account` is granted `role`. `sender` is the account that originated the contract call. This account bears the admin role (for the granted role). Expected in cases where the role was granted using the internal {AccessControl-_grantRole}."
      },
      "RoleRevoked(bytes32,address,address)": {
        "details": "Emitted when `account` is revoked `role`. `sender` is the account that originated the contract call:   - if using `revokeRole`, it is the admin role bearer   - if using `renounceRole`, it is the role bearer (i.e. `account`)"
      }
    },
    "errors": {
      "AccessControlBadConfirmation()": [
        {
          "details": "The caller of a function is not the expected one. NOTE: Don't confuse with {AccessControlUnauthorizedAccount}."
        }
      ],
      "AccessControlUnauthorizedAccount(address,bytes32)": [
        {
          "details": "The `account` is missing a role."
        }
      ],
      "ComplianceCheckFailed(string)": [
        {
          "details": "This error indicates that a proposed token transfer, mint, or burn operation violates      the rules enforced by this specific compliance module.",
          "params": {
            "reason": "A descriptive string explaining why the compliance check failed (e.g., \"Sender not allow listed\", \"Transfer exceeds daily limit\")."
          }
        }
      ],
      "InvalidParameters(string)": [
        {
          "details": "This error signals that the data supplied to configure or update the module is malformed, out of expected range,      or otherwise unsuitable for the module's intended operation.",
          "params": {
            "reason": "A descriptive string explaining why the parameters are considered invalid (e.g., \"Invalid country code format\", \"Limit parameter cannot be zero\")."
          }
        }
      ],
      "RecipientNotVerified()": [
        {
          "details": "Verification status is typically checked against the `ISMARTIdentityRegistry` and the token's `requiredClaimTopics`.      For example, a recipient might need to have specific claims (like KYC) issued by trusted parties."
        }
      ]
    },
    "title": "Identity Verification Module"
  },
  "id": 133
}